{
  "_format": "hh-sol-artifact-1",
  "contractName": "ERC1155Instance",
  "sourceName": "contracts/mkp/ERC1155Instance.sol",
  "abi": [
    {
      "inputs": [
        {
          "internalType": "string",
          "name": "_name",
          "type": "string"
        },
        {
          "internalType": "string",
          "name": "_symbol",
          "type": "string"
        }
      ],
      "stateMutability": "nonpayable",
      "type": "constructor"
    },
    {
      "anonymous": false,
      "inputs": [
        {
          "indexed": true,
          "internalType": "address",
          "name": "account",
          "type": "address"
        },
        {
          "indexed": true,
          "internalType": "address",
          "name": "operator",
          "type": "address"
        },
        {
          "indexed": false,
          "internalType": "bool",
          "name": "approved",
          "type": "bool"
        }
      ],
      "name": "ApprovalForAll",
      "type": "event"
    },
    {
      "anonymous": false,
      "inputs": [
        {
          "indexed": false,
          "internalType": "uint256",
          "name": "mintID",
          "type": "uint256"
        },
        {
          "indexed": false,
          "internalType": "uint256",
          "name": "tokenID",
          "type": "uint256"
        },
        {
          "indexed": false,
          "internalType": "uint256",
          "name": "amount",
          "type": "uint256"
        },
        {
          "indexed": false,
          "internalType": "address",
          "name": "sender",
          "type": "address"
        }
      ],
      "name": "Mint",
      "type": "event"
    },
    {
      "anonymous": false,
      "inputs": [
        {
          "indexed": true,
          "internalType": "address",
          "name": "operator",
          "type": "address"
        },
        {
          "indexed": true,
          "internalType": "address",
          "name": "from",
          "type": "address"
        },
        {
          "indexed": true,
          "internalType": "address",
          "name": "to",
          "type": "address"
        },
        {
          "indexed": false,
          "internalType": "uint256[]",
          "name": "ids",
          "type": "uint256[]"
        },
        {
          "indexed": false,
          "internalType": "uint256[]",
          "name": "values",
          "type": "uint256[]"
        }
      ],
      "name": "TransferBatch",
      "type": "event"
    },
    {
      "anonymous": false,
      "inputs": [
        {
          "indexed": true,
          "internalType": "address",
          "name": "operator",
          "type": "address"
        },
        {
          "indexed": true,
          "internalType": "address",
          "name": "from",
          "type": "address"
        },
        {
          "indexed": true,
          "internalType": "address",
          "name": "to",
          "type": "address"
        },
        {
          "indexed": false,
          "internalType": "uint256",
          "name": "id",
          "type": "uint256"
        },
        {
          "indexed": false,
          "internalType": "uint256",
          "name": "value",
          "type": "uint256"
        }
      ],
      "name": "TransferSingle",
      "type": "event"
    },
    {
      "anonymous": false,
      "inputs": [
        {
          "indexed": false,
          "internalType": "string",
          "name": "value",
          "type": "string"
        },
        {
          "indexed": true,
          "internalType": "uint256",
          "name": "id",
          "type": "uint256"
        }
      ],
      "name": "URI",
      "type": "event"
    },
    {
      "inputs": [
        {
          "internalType": "address",
          "name": "account",
          "type": "address"
        },
        {
          "internalType": "uint256",
          "name": "id",
          "type": "uint256"
        }
      ],
      "name": "balanceOf",
      "outputs": [
        {
          "internalType": "uint256",
          "name": "",
          "type": "uint256"
        }
      ],
      "stateMutability": "view",
      "type": "function"
    },
    {
      "inputs": [
        {
          "internalType": "address[]",
          "name": "accounts",
          "type": "address[]"
        },
        {
          "internalType": "uint256[]",
          "name": "ids",
          "type": "uint256[]"
        }
      ],
      "name": "balanceOfBatch",
      "outputs": [
        {
          "internalType": "uint256[]",
          "name": "",
          "type": "uint256[]"
        }
      ],
      "stateMutability": "view",
      "type": "function"
    },
    {
      "inputs": [
        {
          "internalType": "address",
          "name": "account",
          "type": "address"
        },
        {
          "internalType": "uint256",
          "name": "id",
          "type": "uint256"
        },
        {
          "internalType": "uint256",
          "name": "value",
          "type": "uint256"
        }
      ],
      "name": "burn",
      "outputs": [],
      "stateMutability": "nonpayable",
      "type": "function"
    },
    {
      "inputs": [
        {
          "internalType": "address",
          "name": "account",
          "type": "address"
        },
        {
          "internalType": "uint256[]",
          "name": "ids",
          "type": "uint256[]"
        },
        {
          "internalType": "uint256[]",
          "name": "values",
          "type": "uint256[]"
        }
      ],
      "name": "burnBatch",
      "outputs": [],
      "stateMutability": "nonpayable",
      "type": "function"
    },
    {
      "inputs": [
        {
          "internalType": "uint256",
          "name": "id",
          "type": "uint256"
        }
      ],
      "name": "exists",
      "outputs": [
        {
          "internalType": "bool",
          "name": "",
          "type": "bool"
        }
      ],
      "stateMutability": "view",
      "type": "function"
    },
    {
      "inputs": [],
      "name": "factory",
      "outputs": [
        {
          "internalType": "contract IMarketplaceFactory",
          "name": "",
          "type": "address"
        }
      ],
      "stateMutability": "view",
      "type": "function"
    },
    {
      "inputs": [
        {
          "internalType": "address",
          "name": "account",
          "type": "address"
        },
        {
          "internalType": "address",
          "name": "operator",
          "type": "address"
        }
      ],
      "name": "isApprovedForAll",
      "outputs": [
        {
          "internalType": "bool",
          "name": "",
          "type": "bool"
        }
      ],
      "stateMutability": "view",
      "type": "function"
    },
    {
      "inputs": [
        {
          "internalType": "uint256",
          "name": "mintID",
          "type": "uint256"
        },
        {
          "internalType": "uint256",
          "name": "amount",
          "type": "uint256"
        },
        {
          "internalType": "string",
          "name": "_tokenURI",
          "type": "string"
        },
        {
          "internalType": "uint256",
          "name": "deadline",
          "type": "uint256"
        },
        {
          "internalType": "bytes",
          "name": "signature",
          "type": "bytes"
        }
      ],
      "name": "mint",
      "outputs": [],
      "stateMutability": "nonpayable",
      "type": "function"
    },
    {
      "inputs": [
        {
          "internalType": "uint256",
          "name": "",
          "type": "uint256"
        }
      ],
      "name": "mintIDUsed",
      "outputs": [
        {
          "internalType": "bool",
          "name": "",
          "type": "bool"
        }
      ],
      "stateMutability": "view",
      "type": "function"
    },
    {
      "inputs": [],
      "name": "name",
      "outputs": [
        {
          "internalType": "string",
          "name": "",
          "type": "string"
        }
      ],
      "stateMutability": "view",
      "type": "function"
    },
    {
      "inputs": [
        {
          "internalType": "address",
          "name": "from",
          "type": "address"
        },
        {
          "internalType": "address",
          "name": "to",
          "type": "address"
        },
        {
          "internalType": "uint256[]",
          "name": "ids",
          "type": "uint256[]"
        },
        {
          "internalType": "uint256[]",
          "name": "amounts",
          "type": "uint256[]"
        },
        {
          "internalType": "bytes",
          "name": "data",
          "type": "bytes"
        }
      ],
      "name": "safeBatchTransferFrom",
      "outputs": [],
      "stateMutability": "nonpayable",
      "type": "function"
    },
    {
      "inputs": [
        {
          "internalType": "address",
          "name": "from",
          "type": "address"
        },
        {
          "internalType": "address",
          "name": "to",
          "type": "address"
        },
        {
          "internalType": "uint256",
          "name": "id",
          "type": "uint256"
        },
        {
          "internalType": "uint256",
          "name": "amount",
          "type": "uint256"
        },
        {
          "internalType": "bytes",
          "name": "data",
          "type": "bytes"
        }
      ],
      "name": "safeTransferFrom",
      "outputs": [],
      "stateMutability": "nonpayable",
      "type": "function"
    },
    {
      "inputs": [
        {
          "internalType": "address",
          "name": "operator",
          "type": "address"
        },
        {
          "internalType": "bool",
          "name": "approved",
          "type": "bool"
        }
      ],
      "name": "setApprovalForAll",
      "outputs": [],
      "stateMutability": "nonpayable",
      "type": "function"
    },
    {
      "inputs": [
        {
          "internalType": "bytes4",
          "name": "interfaceId",
          "type": "bytes4"
        }
      ],
      "name": "supportsInterface",
      "outputs": [
        {
          "internalType": "bool",
          "name": "",
          "type": "bool"
        }
      ],
      "stateMutability": "view",
      "type": "function"
    },
    {
      "inputs": [],
      "name": "symbol",
      "outputs": [
        {
          "internalType": "string",
          "name": "",
          "type": "string"
        }
      ],
      "stateMutability": "view",
      "type": "function"
    },
    {
      "inputs": [],
      "name": "totalIDs",
      "outputs": [
        {
          "internalType": "uint256",
          "name": "",
          "type": "uint256"
        }
      ],
      "stateMutability": "view",
      "type": "function"
    },
    {
      "inputs": [
        {
          "internalType": "uint256",
          "name": "id",
          "type": "uint256"
        }
      ],
      "name": "totalSupply",
      "outputs": [
        {
          "internalType": "uint256",
          "name": "",
          "type": "uint256"
        }
      ],
      "stateMutability": "view",
      "type": "function"
    },
    {
      "inputs": [
        {
          "internalType": "uint256",
          "name": "tokenId",
          "type": "uint256"
        }
      ],
      "name": "uri",
      "outputs": [
        {
          "internalType": "string",
          "name": "",
          "type": "string"
        }
      ],
      "stateMutability": "view",
      "type": "function"
    }
  ],
  "bytecode": "0x60806040523480156200001157600080fd5b5060405162004e4438038062004e448339818101604052810190620000379190620002b3565b6040518060400160405280601581526020017f68747470733a2f2f697066732e696f2f697066732f00000000000000000000008152506200007e816200010360201b60201c565b506001600481905550816006908162000098919062000583565b508060079081620000aa919062000583565b50620000bb6200011860201b60201c565b600560006101000a81548173ffffffffffffffffffffffffffffffffffffffff021916908373ffffffffffffffffffffffffffffffffffffffff16021790555050506200066a565b806002908162000114919062000583565b5050565b600033905090565b6000604051905090565b600080fd5b600080fd5b600080fd5b600080fd5b6000601f19601f8301169050919050565b7f4e487b7100000000000000000000000000000000000000000000000000000000600052604160045260246000fd5b62000189826200013e565b810181811067ffffffffffffffff82111715620001ab57620001aa6200014f565b5b80604052505050565b6000620001c062000120565b9050620001ce82826200017e565b919050565b600067ffffffffffffffff821115620001f157620001f06200014f565b5b620001fc826200013e565b9050602081019050919050565b60005b83811015620002295780820151818401526020810190506200020c565b60008484015250505050565b60006200024c6200024684620001d3565b620001b4565b9050828152602081018484840111156200026b576200026a62000139565b5b6200027884828562000209565b509392505050565b600082601f83011262000298576200029762000134565b5b8151620002aa84826020860162000235565b91505092915050565b60008060408385031215620002cd57620002cc6200012a565b5b600083015167ffffffffffffffff811115620002ee57620002ed6200012f565b5b620002fc8582860162000280565b925050602083015167ffffffffffffffff81111562000320576200031f6200012f565b5b6200032e8582860162000280565b9150509250929050565b600081519050919050565b7f4e487b7100000000000000000000000000000000000000000000000000000000600052602260045260246000fd5b600060028204905060018216806200038b57607f821691505b602082108103620003a157620003a062000343565b5b50919050565b60008190508160005260206000209050919050565b60006020601f8301049050919050565b600082821b905092915050565b6000600883026200040b7fffffffffffffffffffffffffffffffffffffffffffffffffffffffffffffffff82620003cc565b620004178683620003cc565b95508019841693508086168417925050509392505050565b6000819050919050565b6000819050919050565b6000620004646200045e62000458846200042f565b62000439565b6200042f565b9050919050565b6000819050919050565b620004808362000443565b620004986200048f826200046b565b848454620003d9565b825550505050565b600090565b620004af620004a0565b620004bc81848462000475565b505050565b5b81811015620004e457620004d8600082620004a5565b600181019050620004c2565b5050565b601f8211156200053357620004fd81620003a7565b6200050884620003bc565b8101602085101562000518578190505b620005306200052785620003bc565b830182620004c1565b50505b505050565b600082821c905092915050565b6000620005586000198460080262000538565b1980831691505092915050565b600062000573838362000545565b9150826002028217905092915050565b6200058e8262000338565b67ffffffffffffffff811115620005aa57620005a96200014f565b5b620005b6825462000372565b620005c3828285620004e8565b600060209050601f831160018114620005fb5760008415620005e6578287015190505b620005f2858262000565565b86555062000662565b601f1984166200060b86620003a7565b60005b8281101562000635578489015182556001820191506020850194506020810190506200060e565b8683101562000655578489015162000651601f89168262000545565b8355505b6001600288020188555050505b505050505050565b6147ca806200067a6000396000f3fe608060405234801561001057600080fd5b50600436106101155760003560e01c80635e701d86116100a2578063bd85b03911610071578063bd85b03914610304578063c45a015514610334578063e985e9c514610352578063f242432a14610382578063f5298aca1461039e57610115565b80635e701d86146102905780636b20c454146102ae57806395d89b41146102ca578063a22cb465146102e857610115565b8063294d10ad116100e9578063294d10ad146101c85780632eb2c2d6146101f857806330d583d7146102145780634e1273f4146102305780634f558e791461026057610115565b8062fdd58e1461011a57806301ffc9a71461014a57806306fdde031461017a5780630e89341c14610198575b600080fd5b610134600480360381019061012f91906128d6565b6103ba565b6040516101419190612925565b60405180910390f35b610164600480360381019061015f9190612998565b610482565b60405161017191906129e0565b60405180910390f35b610182610564565b60405161018f9190612a8b565b60405180910390f35b6101b260048036038101906101ad9190612aad565b6105f2565b6040516101bf9190612a8b565b60405180910390f35b6101e260048036038101906101dd9190612aad565b610744565b6040516101ef91906129e0565b60405180910390f35b610212600480360381019061020d9190612cd7565b610764565b005b61022e60048036038101906102299190612e57565b610805565b005b61024a60048036038101906102459190612fd6565b610b23565b604051610257919061310c565b60405180910390f35b61027a60048036038101906102759190612aad565b610c3c565b60405161028791906129e0565b60405180910390f35b610298610c50565b6040516102a59190612925565b60405180910390f35b6102c860048036038101906102c3919061312e565b610c56565b005b6102d2610cf3565b6040516102df9190612a8b565b60405180910390f35b61030260048036038101906102fd91906131e5565b610d81565b005b61031e60048036038101906103199190612aad565b610d97565b60405161032b9190612925565b60405180910390f35b61033c610db4565b6040516103499190613284565b60405180910390f35b61036c6004803603810190610367919061329f565b610dda565b60405161037991906129e0565b60405180910390f35b61039c600480360381019061039791906132df565b610e6e565b005b6103b860048036038101906103b39190613376565b610f0f565b005b60008073ffffffffffffffffffffffffffffffffffffffff168373ffffffffffffffffffffffffffffffffffffffff160361042a576040517f08c379a00000000000000000000000000000000000000000000000000000000081526004016104219061343b565b60405180910390fd5b60008083815260200190815260200160002060008473ffffffffffffffffffffffffffffffffffffffff1673ffffffffffffffffffffffffffffffffffffffff16815260200190815260200160002054905092915050565b60007fd9b67a26000000000000000000000000000000000000000000000000000000007bffffffffffffffffffffffffffffffffffffffffffffffffffffffff1916827bffffffffffffffffffffffffffffffffffffffffffffffffffffffff1916148061054d57507f0e89341c000000000000000000000000000000000000000000000000000000007bffffffffffffffffffffffffffffffffffffffffffffffffffffffff1916827bffffffffffffffffffffffffffffffffffffffffffffffffffffffff1916145b8061055d575061055c82610fac565b5b9050919050565b600680546105719061348a565b80601f016020809104026020016040519081016040528092919081815260200182805461059d9061348a565b80156105ea5780601f106105bf576101008083540402835291602001916105ea565b820191906000526020600020905b8154815290600101906020018083116105cd57829003601f168201915b505050505081565b60606105fd82610c3c565b61063c576040517f08c379a000000000000000000000000000000000000000000000000000000000815260040161063390613507565b60405180910390fd5b6000600a6000848152602001908152602001600020805461065c9061348a565b80601f01602080910402602001604051908101604052809291908181526020018280546106889061348a565b80156106d55780601f106106aa576101008083540402835291602001916106d5565b820191906000526020600020905b8154815290600101906020018083116106b857829003601f168201915b5050505050905060006106e784611016565b905060008151036106fc57819250505061073f565b600082511115610731578082604051602001610719929190613563565b6040516020818303038152906040529250505061073f565b61073a84611016565b925050505b919050565b60096020528060005260406000206000915054906101000a900460ff1681565b61076c6110aa565b73ffffffffffffffffffffffffffffffffffffffff168573ffffffffffffffffffffffffffffffffffffffff1614806107b257506107b1856107ac6110aa565b610dda565b5b6107f1576040517f08c379a00000000000000000000000000000000000000000000000000000000081526004016107e8906135f9565b60405180910390fd5b6107fe85858585856110b2565b5050505050565b61080d6113d3565b61089e610854468961081d6110aa565b308b8b8b8b6040516020016108399897969594939291906136a7565b60405160208183030381529060405280519060200120611422565b83838080601f016020809104026020016040519081016040528093929190818152602001838380828437600081840152601f19601f82011690508083019250505050505050611458565b73ffffffffffffffffffffffffffffffffffffffff16600560009054906101000a900473ffffffffffffffffffffffffffffffffffffffff1673ffffffffffffffffffffffffffffffffffffffff1663238ac9336040518163ffffffff1660e01b8152600401602060405180830381865afa158015610921573d6000803e3d6000fd5b505050506040513d601f19601f82011682018060405250810190610945919061373b565b73ffffffffffffffffffffffffffffffffffffffff161461099b576040517f08c379a0000000000000000000000000000000000000000000000000000000008152600401610992906137b4565b60405180910390fd5b428310156109de576040517f08c379a00000000000000000000000000000000000000000000000000000000081526004016109d590613820565b60405180910390fd5b6009600088815260200190815260200160002060009054906101000a900460ff1615610a3f576040517f08c379a0000000000000000000000000000000000000000000000000000000008152600401610a369061388c565b60405180910390fd5b60016009600089815260200190815260200160002060006101000a81548160ff0219169083151502179055508484600a600060085481526020019081526020016000209182610a8f929190613a59565b50610ab4610a9b6110aa565b600854886040518060200160405280600081525061147f565b7faacef1bbb194eac329f8f247fbe8cce3eca2ed1f2e0a45a0488c2dd8afe6e5168760085488610ae26110aa565b604051610af29493929190613b38565b60405180910390a160086000815480929190610b0d90613bac565b9190505550610b1a61162f565b50505050505050565b60608151835114610b69576040517f08c379a0000000000000000000000000000000000000000000000000000000008152600401610b6090613c66565b60405180910390fd5b6000835167ffffffffffffffff811115610b8657610b85612adf565b5b604051908082528060200260200182016040528015610bb45781602001602082028036833780820191505090505b50905060005b8451811015610c3157610c01858281518110610bd957610bd8613c86565b5b6020026020010151858381518110610bf457610bf3613c86565b5b60200260200101516103ba565b828281518110610c1457610c13613c86565b5b60200260200101818152505080610c2a90613bac565b9050610bba565b508091505092915050565b600080610c4883610d97565b119050919050565b60085481565b610c5e6110aa565b73ffffffffffffffffffffffffffffffffffffffff168373ffffffffffffffffffffffffffffffffffffffff161480610ca45750610ca383610c9e6110aa565b610dda565b5b610ce3576040517f08c379a0000000000000000000000000000000000000000000000000000000008152600401610cda906135f9565b60405180910390fd5b610cee838383611639565b505050565b60078054610d009061348a565b80601f0160208091040260200160405190810160405280929190818152602001828054610d2c9061348a565b8015610d795780601f10610d4e57610100808354040283529160200191610d79565b820191906000526020600020905b815481529060010190602001808311610d5c57829003601f168201915b505050505081565b610d93610d8c6110aa565b8383611907565b5050565b600060036000838152602001908152602001600020549050919050565b600560009054906101000a900473ffffffffffffffffffffffffffffffffffffffff1681565b6000600160008473ffffffffffffffffffffffffffffffffffffffff1673ffffffffffffffffffffffffffffffffffffffff16815260200190815260200160002060008373ffffffffffffffffffffffffffffffffffffffff1673ffffffffffffffffffffffffffffffffffffffff16815260200190815260200160002060009054906101000a900460ff16905092915050565b610e766110aa565b73ffffffffffffffffffffffffffffffffffffffff168573ffffffffffffffffffffffffffffffffffffffff161480610ebc5750610ebb85610eb66110aa565b610dda565b5b610efb576040517f08c379a0000000000000000000000000000000000000000000000000000000008152600401610ef2906135f9565b60405180910390fd5b610f088585858585611a73565b5050505050565b610f176110aa565b73ffffffffffffffffffffffffffffffffffffffff168373ffffffffffffffffffffffffffffffffffffffff161480610f5d5750610f5c83610f576110aa565b610dda565b5b610f9c576040517f08c379a0000000000000000000000000000000000000000000000000000000008152600401610f93906135f9565b60405180910390fd5b610fa7838383611d0e565b505050565b60007f01ffc9a7000000000000000000000000000000000000000000000000000000007bffffffffffffffffffffffffffffffffffffffffffffffffffffffff1916827bffffffffffffffffffffffffffffffffffffffffffffffffffffffff1916149050919050565b6060600280546110259061348a565b80601f01602080910402602001604051908101604052809291908181526020018280546110519061348a565b801561109e5780601f106110735761010080835404028352916020019161109e565b820191906000526020600020905b81548152906001019060200180831161108157829003601f168201915b50505050509050919050565b600033905090565b81518351146110f6576040517f08c379a00000000000000000000000000000000000000000000000000000000081526004016110ed90613d27565b60405180910390fd5b600073ffffffffffffffffffffffffffffffffffffffff168473ffffffffffffffffffffffffffffffffffffffff1603611165576040517f08c379a000000000000000000000000000000000000000000000000000000000815260040161115c90613db9565b60405180910390fd5b600061116f6110aa565b905061117f818787878787611f54565b60005b84518110156113305760008582815181106111a05761119f613c86565b5b6020026020010151905060008583815181106111bf576111be613c86565b5b60200260200101519050600080600084815260200190815260200160002060008b73ffffffffffffffffffffffffffffffffffffffff1673ffffffffffffffffffffffffffffffffffffffff16815260200190815260200160002054905081811015611260576040517f08c379a000000000000000000000000000000000000000000000000000000000815260040161125790613e4b565b60405180910390fd5b81810360008085815260200190815260200160002060008c73ffffffffffffffffffffffffffffffffffffffff1673ffffffffffffffffffffffffffffffffffffffff168152602001908152602001600020819055508160008085815260200190815260200160002060008b73ffffffffffffffffffffffffffffffffffffffff1673ffffffffffffffffffffffffffffffffffffffff16815260200190815260200160002060008282546113159190613e6b565b925050819055505050508061132990613bac565b9050611182565b508473ffffffffffffffffffffffffffffffffffffffff168673ffffffffffffffffffffffffffffffffffffffff168273ffffffffffffffffffffffffffffffffffffffff167f4a39dc06d4c0dbc64b70af90fd698a233a518aa5d07e595d983b8c0526c8f7fb87876040516113a7929190613e9f565b60405180910390a46113bd818787878787611f6a565b6113cb818787878787611f72565b505050505050565b600260045403611418576040517f08c379a000000000000000000000000000000000000000000000000000000000815260040161140f90613f22565b60405180910390fd5b6002600481905550565b60007f19457468657265756d205369676e6564204d6573736167653a0a33320000000060005281601c52603c6000209050919050565b60008060006114678585612149565b915091506114748161219a565b819250505092915050565b600073ffffffffffffffffffffffffffffffffffffffff168473ffffffffffffffffffffffffffffffffffffffff16036114ee576040517f08c379a00000000000000000000000000000000000000000000000000000000081526004016114e590613fb4565b60405180910390fd5b60006114f86110aa565b9050600061150585612300565b9050600061151285612300565b905061152383600089858589611f54565b8460008088815260200190815260200160002060008973ffffffffffffffffffffffffffffffffffffffff1673ffffffffffffffffffffffffffffffffffffffff16815260200190815260200160002060008282546115829190613e6b565b925050819055508673ffffffffffffffffffffffffffffffffffffffff16600073ffffffffffffffffffffffffffffffffffffffff168473ffffffffffffffffffffffffffffffffffffffff167fc3d58168c5ae7397731d063d5bbf3d657854427343f4c083240f7aacaa2d0f628989604051611600929190613fd4565b60405180910390a461161783600089858589611f6a565b6116268360008989898961237a565b50505050505050565b6001600481905550565b600073ffffffffffffffffffffffffffffffffffffffff168373ffffffffffffffffffffffffffffffffffffffff16036116a8576040517f08c379a000000000000000000000000000000000000000000000000000000000815260040161169f9061406f565b60405180910390fd5b80518251146116ec576040517f08c379a00000000000000000000000000000000000000000000000000000000081526004016116e390613d27565b60405180910390fd5b60006116f66110aa565b905061171681856000868660405180602001604052806000815250611f54565b60005b835181101561186357600084828151811061173757611736613c86565b5b60200260200101519050600084838151811061175657611755613c86565b5b60200260200101519050600080600084815260200190815260200160002060008973ffffffffffffffffffffffffffffffffffffffff1673ffffffffffffffffffffffffffffffffffffffff168152602001908152602001600020549050818110156117f7576040517f08c379a00000000000000000000000000000000000000000000000000000000081526004016117ee90614101565b60405180910390fd5b81810360008085815260200190815260200160002060008a73ffffffffffffffffffffffffffffffffffffffff1673ffffffffffffffffffffffffffffffffffffffff16815260200190815260200160002081905550505050808061185b90613bac565b915050611719565b50600073ffffffffffffffffffffffffffffffffffffffff168473ffffffffffffffffffffffffffffffffffffffff168273ffffffffffffffffffffffffffffffffffffffff167f4a39dc06d4c0dbc64b70af90fd698a233a518aa5d07e595d983b8c0526c8f7fb86866040516118db929190613e9f565b60405180910390a461190181856000868660405180602001604052806000815250611f6a565b50505050565b8173ffffffffffffffffffffffffffffffffffffffff168373ffffffffffffffffffffffffffffffffffffffff1603611975576040517f08c379a000000000000000000000000000000000000000000000000000000000815260040161196c90614193565b60405180910390fd5b80600160008573ffffffffffffffffffffffffffffffffffffffff1673ffffffffffffffffffffffffffffffffffffffff16815260200190815260200160002060008473ffffffffffffffffffffffffffffffffffffffff1673ffffffffffffffffffffffffffffffffffffffff16815260200190815260200160002060006101000a81548160ff0219169083151502179055508173ffffffffffffffffffffffffffffffffffffffff168373ffffffffffffffffffffffffffffffffffffffff167f17307eab39ab6107e8899845ad3d59bd9653f200f220920489ca2b5937696c3183604051611a6691906129e0565b60405180910390a3505050565b600073ffffffffffffffffffffffffffffffffffffffff168473ffffffffffffffffffffffffffffffffffffffff1603611ae2576040517f08c379a0000000000000000000000000000000000000000000000000000000008152600401611ad990613db9565b60405180910390fd5b6000611aec6110aa565b90506000611af985612300565b90506000611b0685612300565b9050611b16838989858589611f54565b600080600088815260200190815260200160002060008a73ffffffffffffffffffffffffffffffffffffffff1673ffffffffffffffffffffffffffffffffffffffff16815260200190815260200160002054905085811015611bad576040517f08c379a0000000000000000000000000000000000000000000000000000000008152600401611ba490613e4b565b60405180910390fd5b85810360008089815260200190815260200160002060008b73ffffffffffffffffffffffffffffffffffffffff1673ffffffffffffffffffffffffffffffffffffffff168152602001908152602001600020819055508560008089815260200190815260200160002060008a73ffffffffffffffffffffffffffffffffffffffff1673ffffffffffffffffffffffffffffffffffffffff1681526020019081526020016000206000828254611c629190613e6b565b925050819055508773ffffffffffffffffffffffffffffffffffffffff168973ffffffffffffffffffffffffffffffffffffffff168573ffffffffffffffffffffffffffffffffffffffff167fc3d58168c5ae7397731d063d5bbf3d657854427343f4c083240f7aacaa2d0f628a8a604051611cdf929190613fd4565b60405180910390a4611cf5848a8a86868a611f6a565b611d03848a8a8a8a8a61237a565b505050505050505050565b600073ffffffffffffffffffffffffffffffffffffffff168373ffffffffffffffffffffffffffffffffffffffff1603611d7d576040517f08c379a0000000000000000000000000000000000000000000000000000000008152600401611d749061406f565b60405180910390fd5b6000611d876110aa565b90506000611d9484612300565b90506000611da184612300565b9050611dc183876000858560405180602001604052806000815250611f54565b600080600087815260200190815260200160002060008873ffffffffffffffffffffffffffffffffffffffff1673ffffffffffffffffffffffffffffffffffffffff16815260200190815260200160002054905084811015611e58576040517f08c379a0000000000000000000000000000000000000000000000000000000008152600401611e4f90614101565b60405180910390fd5b84810360008088815260200190815260200160002060008973ffffffffffffffffffffffffffffffffffffffff1673ffffffffffffffffffffffffffffffffffffffff16815260200190815260200160002081905550600073ffffffffffffffffffffffffffffffffffffffff168773ffffffffffffffffffffffffffffffffffffffff168573ffffffffffffffffffffffffffffffffffffffff167fc3d58168c5ae7397731d063d5bbf3d657854427343f4c083240f7aacaa2d0f628989604051611f25929190613fd4565b60405180910390a4611f4b84886000868660405180602001604052806000815250611f6a565b50505050505050565b611f62868686868686612551565b505050505050565b505050505050565b611f918473ffffffffffffffffffffffffffffffffffffffff16612721565b15612141578373ffffffffffffffffffffffffffffffffffffffff1663bc197c8187878686866040518663ffffffff1660e01b8152600401611fd7959493929190614208565b6020604051808303816000875af192505050801561201357506040513d601f19601f820116820180604052508101906120109190614285565b60015b6120b85761201f6142bf565b806308c379a00361207b57506120336142e1565b8061203e575061207d565b806040517f08c379a00000000000000000000000000000000000000000000000000000000081526004016120729190612a8b565b60405180910390fd5b505b6040517f08c379a00000000000000000000000000000000000000000000000000000000081526004016120af906143e3565b60405180910390fd5b63bc197c8160e01b7bffffffffffffffffffffffffffffffffffffffffffffffffffffffff1916817bffffffffffffffffffffffffffffffffffffffffffffffffffffffff19161461213f576040517f08c379a000000000000000000000000000000000000000000000000000000000815260040161213690614475565b60405180910390fd5b505b505050505050565b600080604183510361218a5760008060006020860151925060408601519150606086015160001a905061217e87828585612744565b94509450505050612193565b60006002915091505b9250929050565b600060048111156121ae576121ad614495565b5b8160048111156121c1576121c0614495565b5b03156122fd57600160048111156121db576121da614495565b5b8160048111156121ee576121ed614495565b5b0361222e576040517f08c379a000000000000000000000000000000000000000000000000000000000815260040161222590614510565b60405180910390fd5b6002600481111561224257612241614495565b5b81600481111561225557612254614495565b5b03612295576040517f08c379a000000000000000000000000000000000000000000000000000000000815260040161228c9061457c565b60405180910390fd5b600360048111156122a9576122a8614495565b5b8160048111156122bc576122bb614495565b5b036122fc576040517f08c379a00000000000000000000000000000000000000000000000000000000081526004016122f39061460e565b60405180910390fd5b5b50565b60606000600167ffffffffffffffff81111561231f5761231e612adf565b5b60405190808252806020026020018201604052801561234d5781602001602082028036833780820191505090505b509050828160008151811061236557612364613c86565b5b60200260200101818152505080915050919050565b6123998473ffffffffffffffffffffffffffffffffffffffff16612721565b15612549578373ffffffffffffffffffffffffffffffffffffffff1663f23a6e6187878686866040518663ffffffff1660e01b81526004016123df95949392919061462e565b6020604051808303816000875af192505050801561241b57506040513d601f19601f820116820180604052508101906124189190614285565b60015b6124c0576124276142bf565b806308c379a003612483575061243b6142e1565b806124465750612485565b806040517f08c379a000000000000000000000000000000000000000000000000000000000815260040161247a9190612a8b565b60405180910390fd5b505b6040517f08c379a00000000000000000000000000000000000000000000000000000000081526004016124b7906143e3565b60405180910390fd5b63f23a6e6160e01b7bffffffffffffffffffffffffffffffffffffffffffffffffffffffff1916817bffffffffffffffffffffffffffffffffffffffffffffffffffffffff191614612547576040517f08c379a000000000000000000000000000000000000000000000000000000000815260040161253e90614475565b60405180910390fd5b505b505050505050565b61255f868686868686612826565b600073ffffffffffffffffffffffffffffffffffffffff168573ffffffffffffffffffffffffffffffffffffffff16036126105760005b835181101561260e578281815181106125b2576125b1613c86565b5b6020026020010151600360008684815181106125d1576125d0613c86565b5b6020026020010151815260200190815260200160002060008282546125f69190613e6b565b925050819055508061260790613bac565b9050612596565b505b600073ffffffffffffffffffffffffffffffffffffffff168473ffffffffffffffffffffffffffffffffffffffff16036127195760005b835181101561271757600084828151811061266557612664613c86565b5b60200260200101519050600084838151811061268457612683613c86565b5b60200260200101519050600060036000848152602001908152602001600020549050818110156126e9576040517f08c379a00000000000000000000000000000000000000000000000000000000081526004016126e0906146fa565b60405180910390fd5b81810360036000858152602001908152602001600020819055505050508061271090613bac565b9050612647565b505b505050505050565b6000808273ffffffffffffffffffffffffffffffffffffffff163b119050919050565b6000807f7fffffffffffffffffffffffffffffff5d576e7357a4501ddfe92f46681b20a08360001c111561277f57600060039150915061281d565b6000600187878787604051600081526020016040526040516127a4949392919061474f565b6020604051602081039080840390855afa1580156127c6573d6000803e3d6000fd5b505050602060405103519050600073ffffffffffffffffffffffffffffffffffffffff168173ffffffffffffffffffffffffffffffffffffffff16036128145760006001925092505061281d565b80600092509250505b94509492505050565b505050505050565b6000604051905090565b600080fd5b600080fd5b600073ffffffffffffffffffffffffffffffffffffffff82169050919050565b600061286d82612842565b9050919050565b61287d81612862565b811461288857600080fd5b50565b60008135905061289a81612874565b92915050565b6000819050919050565b6128b3816128a0565b81146128be57600080fd5b50565b6000813590506128d0816128aa565b92915050565b600080604083850312156128ed576128ec612838565b5b60006128fb8582860161288b565b925050602061290c858286016128c1565b9150509250929050565b61291f816128a0565b82525050565b600060208201905061293a6000830184612916565b92915050565b60007fffffffff0000000000000000000000000000000000000000000000000000000082169050919050565b61297581612940565b811461298057600080fd5b50565b6000813590506129928161296c565b92915050565b6000602082840312156129ae576129ad612838565b5b60006129bc84828501612983565b91505092915050565b60008115159050919050565b6129da816129c5565b82525050565b60006020820190506129f560008301846129d1565b92915050565b600081519050919050565b600082825260208201905092915050565b60005b83811015612a35578082015181840152602081019050612a1a565b60008484015250505050565b6000601f19601f8301169050919050565b6000612a5d826129fb565b612a678185612a06565b9350612a77818560208601612a17565b612a8081612a41565b840191505092915050565b60006020820190508181036000830152612aa58184612a52565b905092915050565b600060208284031215612ac357612ac2612838565b5b6000612ad1848285016128c1565b91505092915050565b600080fd5b7f4e487b7100000000000000000000000000000000000000000000000000000000600052604160045260246000fd5b612b1782612a41565b810181811067ffffffffffffffff82111715612b3657612b35612adf565b5b80604052505050565b6000612b4961282e565b9050612b558282612b0e565b919050565b600067ffffffffffffffff821115612b7557612b74612adf565b5b602082029050602081019050919050565b600080fd5b6000612b9e612b9984612b5a565b612b3f565b90508083825260208201905060208402830185811115612bc157612bc0612b86565b5b835b81811015612bea5780612bd688826128c1565b845260208401935050602081019050612bc3565b5050509392505050565b600082601f830112612c0957612c08612ada565b5b8135612c19848260208601612b8b565b91505092915050565b600080fd5b600067ffffffffffffffff821115612c4257612c41612adf565b5b612c4b82612a41565b9050602081019050919050565b82818337600083830152505050565b6000612c7a612c7584612c27565b612b3f565b905082815260208101848484011115612c9657612c95612c22565b5b612ca1848285612c58565b509392505050565b600082601f830112612cbe57612cbd612ada565b5b8135612cce848260208601612c67565b91505092915050565b600080600080600060a08688031215612cf357612cf2612838565b5b6000612d018882890161288b565b9550506020612d128882890161288b565b945050604086013567ffffffffffffffff811115612d3357612d3261283d565b5b612d3f88828901612bf4565b935050606086013567ffffffffffffffff811115612d6057612d5f61283d565b5b612d6c88828901612bf4565b925050608086013567ffffffffffffffff811115612d8d57612d8c61283d565b5b612d9988828901612ca9565b9150509295509295909350565b600080fd5b60008083601f840112612dc157612dc0612ada565b5b8235905067ffffffffffffffff811115612dde57612ddd612da6565b5b602083019150836001820283011115612dfa57612df9612b86565b5b9250929050565b60008083601f840112612e1757612e16612ada565b5b8235905067ffffffffffffffff811115612e3457612e33612da6565b5b602083019150836001820283011115612e5057612e4f612b86565b5b9250929050565b600080600080600080600060a0888a031215612e7657612e75612838565b5b6000612e848a828b016128c1565b9750506020612e958a828b016128c1565b965050604088013567ffffffffffffffff811115612eb657612eb561283d565b5b612ec28a828b01612dab565b95509550506060612ed58a828b016128c1565b935050608088013567ffffffffffffffff811115612ef657612ef561283d565b5b612f028a828b01612e01565b925092505092959891949750929550565b600067ffffffffffffffff821115612f2e57612f2d612adf565b5b602082029050602081019050919050565b6000612f52612f4d84612f13565b612b3f565b90508083825260208201905060208402830185811115612f7557612f74612b86565b5b835b81811015612f9e5780612f8a888261288b565b845260208401935050602081019050612f77565b5050509392505050565b600082601f830112612fbd57612fbc612ada565b5b8135612fcd848260208601612f3f565b91505092915050565b60008060408385031215612fed57612fec612838565b5b600083013567ffffffffffffffff81111561300b5761300a61283d565b5b61301785828601612fa8565b925050602083013567ffffffffffffffff8111156130385761303761283d565b5b61304485828601612bf4565b9150509250929050565b600081519050919050565b600082825260208201905092915050565b6000819050602082019050919050565b613083816128a0565b82525050565b6000613095838361307a565b60208301905092915050565b6000602082019050919050565b60006130b98261304e565b6130c38185613059565b93506130ce8361306a565b8060005b838110156130ff5781516130e68882613089565b97506130f1836130a1565b9250506001810190506130d2565b5085935050505092915050565b6000602082019050818103600083015261312681846130ae565b905092915050565b60008060006060848603121561314757613146612838565b5b60006131558682870161288b565b935050602084013567ffffffffffffffff8111156131765761317561283d565b5b61318286828701612bf4565b925050604084013567ffffffffffffffff8111156131a3576131a261283d565b5b6131af86828701612bf4565b9150509250925092565b6131c2816129c5565b81146131cd57600080fd5b50565b6000813590506131df816131b9565b92915050565b600080604083850312156131fc576131fb612838565b5b600061320a8582860161288b565b925050602061321b858286016131d0565b9150509250929050565b6000819050919050565b600061324a61324561324084612842565b613225565b612842565b9050919050565b600061325c8261322f565b9050919050565b600061326e82613251565b9050919050565b61327e81613263565b82525050565b60006020820190506132996000830184613275565b92915050565b600080604083850312156132b6576132b5612838565b5b60006132c48582860161288b565b92505060206132d58582860161288b565b9150509250929050565b600080600080600060a086880312156132fb576132fa612838565b5b60006133098882890161288b565b955050602061331a8882890161288b565b945050604061332b888289016128c1565b935050606061333c888289016128c1565b925050608086013567ffffffffffffffff81111561335d5761335c61283d565b5b61336988828901612ca9565b9150509295509295909350565b60008060006060848603121561338f5761338e612838565b5b600061339d8682870161288b565b93505060206133ae868287016128c1565b92505060406133bf868287016128c1565b9150509250925092565b7f455243313135353a2061646472657373207a65726f206973206e6f742061207660008201527f616c6964206f776e657200000000000000000000000000000000000000000000602082015250565b6000613425602a83612a06565b9150613430826133c9565b604082019050919050565b6000602082019050818103600083015261345481613418565b9050919050565b7f4e487b7100000000000000000000000000000000000000000000000000000000600052602260045260246000fd5b600060028204905060018216806134a257607f821691505b6020821081036134b5576134b461345b565b5b50919050565b7f55524920717565727920666f72206e6f6e6578697374656e7420746f6b656e00600082015250565b60006134f1601f83612a06565b91506134fc826134bb565b602082019050919050565b60006020820190508181036000830152613520816134e4565b9050919050565b600081905092915050565b600061353d826129fb565b6135478185613527565b9350613557818560208601612a17565b80840191505092915050565b600061356f8285613532565b915061357b8284613532565b91508190509392505050565b7f455243313135353a2063616c6c6572206973206e6f7420746f6b656e206f776e60008201527f6572206f7220617070726f766564000000000000000000000000000000000000602082015250565b60006135e3602e83612a06565b91506135ee82613587565b604082019050919050565b60006020820190508181036000830152613612816135d6565b9050919050565b6000819050919050565b61363461362f826128a0565b613619565b82525050565b60008160601b9050919050565b60006136528261363a565b9050919050565b600061366482613647565b9050919050565b61367c61367782612862565b613659565b82525050565b600061368e8385613527565b935061369b838584612c58565b82840190509392505050565b60006136b3828b613623565b6020820191506136c3828a613623565b6020820191506136d3828961366b565b6014820191506136e3828861366b565b6014820191506136f38287613623565b602082019150613704828587613682565b91506137108284613623565b6020820191508190509998505050505050505050565b60008151905061373581612874565b92915050565b60006020828403121561375157613750612838565b5b600061375f84828501613726565b91505092915050565b7f496e76616c6964207369676e6174757265000000000000000000000000000000600082015250565b600061379e601183612a06565b91506137a982613768565b602082019050919050565b600060208201905081810360008301526137cd81613791565b9050919050565b7f446561646c696e65207061737365640000000000000000000000000000000000600082015250565b600061380a600f83612a06565b9150613815826137d4565b602082019050919050565b60006020820190508181036000830152613839816137fd565b9050919050565b7f4d696e7420494420616c72656164792075736564000000000000000000000000600082015250565b6000613876601483612a06565b915061388182613840565b602082019050919050565b600060208201905081810360008301526138a581613869565b9050919050565b600082905092915050565b60008190508160005260206000209050919050565b60006020601f8301049050919050565b600082821b905092915050565b6000600883026139197fffffffffffffffffffffffffffffffffffffffffffffffffffffffffffffffff826138dc565b61392386836138dc565b95508019841693508086168417925050509392505050565b600061395661395161394c846128a0565b613225565b6128a0565b9050919050565b6000819050919050565b6139708361393b565b61398461397c8261395d565b8484546138e9565b825550505050565b600090565b61399961398c565b6139a4818484613967565b505050565b5b818110156139c8576139bd600082613991565b6001810190506139aa565b5050565b601f821115613a0d576139de816138b7565b6139e7846138cc565b810160208510156139f6578190505b613a0a613a02856138cc565b8301826139a9565b50505b505050565b600082821c905092915050565b6000613a3060001984600802613a12565b1980831691505092915050565b6000613a498383613a1f565b9150826002028217905092915050565b613a6383836138ac565b67ffffffffffffffff811115613a7c57613a7b612adf565b5b613a86825461348a565b613a918282856139cc565b6000601f831160018114613ac05760008415613aae578287013590505b613ab88582613a3d565b865550613b20565b601f198416613ace866138b7565b60005b82811015613af657848901358255600182019150602085019450602081019050613ad1565b86831015613b135784890135613b0f601f891682613a1f565b8355505b6001600288020188555050505b50505050505050565b613b3281612862565b82525050565b6000608082019050613b4d6000830187612916565b613b5a6020830186612916565b613b676040830185612916565b613b746060830184613b29565b95945050505050565b7f4e487b7100000000000000000000000000000000000000000000000000000000600052601160045260246000fd5b6000613bb7826128a0565b91507fffffffffffffffffffffffffffffffffffffffffffffffffffffffffffffffff8203613be957613be8613b7d565b5b600182019050919050565b7f455243313135353a206163636f756e747320616e6420696473206c656e67746860008201527f206d69736d617463680000000000000000000000000000000000000000000000602082015250565b6000613c50602983612a06565b9150613c5b82613bf4565b604082019050919050565b60006020820190508181036000830152613c7f81613c43565b9050919050565b7f4e487b7100000000000000000000000000000000000000000000000000000000600052603260045260246000fd5b7f455243313135353a2069647320616e6420616d6f756e7473206c656e6774682060008201527f6d69736d61746368000000000000000000000000000000000000000000000000602082015250565b6000613d11602883612a06565b9150613d1c82613cb5565b604082019050919050565b60006020820190508181036000830152613d4081613d04565b9050919050565b7f455243313135353a207472616e7366657220746f20746865207a65726f20616460008201527f6472657373000000000000000000000000000000000000000000000000000000602082015250565b6000613da3602583612a06565b9150613dae82613d47565b604082019050919050565b60006020820190508181036000830152613dd281613d96565b9050919050565b7f455243313135353a20696e73756666696369656e742062616c616e636520666f60008201527f72207472616e7366657200000000000000000000000000000000000000000000602082015250565b6000613e35602a83612a06565b9150613e4082613dd9565b604082019050919050565b60006020820190508181036000830152613e6481613e28565b9050919050565b6000613e76826128a0565b9150613e81836128a0565b9250828201905080821115613e9957613e98613b7d565b5b92915050565b60006040820190508181036000830152613eb981856130ae565b90508181036020830152613ecd81846130ae565b90509392505050565b7f5265656e7472616e637947756172643a207265656e7472616e742063616c6c00600082015250565b6000613f0c601f83612a06565b9150613f1782613ed6565b602082019050919050565b60006020820190508181036000830152613f3b81613eff565b9050919050565b7f455243313135353a206d696e7420746f20746865207a65726f2061646472657360008201527f7300000000000000000000000000000000000000000000000000000000000000602082015250565b6000613f9e602183612a06565b9150613fa982613f42565b604082019050919050565b60006020820190508181036000830152613fcd81613f91565b9050919050565b6000604082019050613fe96000830185612916565b613ff66020830184612916565b9392505050565b7f455243313135353a206275726e2066726f6d20746865207a65726f206164647260008201527f6573730000000000000000000000000000000000000000000000000000000000602082015250565b6000614059602383612a06565b915061406482613ffd565b604082019050919050565b600060208201905081810360008301526140888161404c565b9050919050565b7f455243313135353a206275726e20616d6f756e7420657863656564732062616c60008201527f616e636500000000000000000000000000000000000000000000000000000000602082015250565b60006140eb602483612a06565b91506140f68261408f565b604082019050919050565b6000602082019050818103600083015261411a816140de565b9050919050565b7f455243313135353a2073657474696e6720617070726f76616c2073746174757360008201527f20666f722073656c660000000000000000000000000000000000000000000000602082015250565b600061417d602983612a06565b915061418882614121565b604082019050919050565b600060208201905081810360008301526141ac81614170565b9050919050565b600081519050919050565b600082825260208201905092915050565b60006141da826141b3565b6141e481856141be565b93506141f4818560208601612a17565b6141fd81612a41565b840191505092915050565b600060a08201905061421d6000830188613b29565b61422a6020830187613b29565b818103604083015261423c81866130ae565b9050818103606083015261425081856130ae565b9050818103608083015261426481846141cf565b90509695505050505050565b60008151905061427f8161296c565b92915050565b60006020828403121561429b5761429a612838565b5b60006142a984828501614270565b91505092915050565b60008160e01c9050919050565b600060033d11156142de5760046000803e6142db6000516142b2565b90505b90565b600060443d1061436e576142f361282e565b60043d036004823e80513d602482011167ffffffffffffffff8211171561431b57505061436e565b808201805167ffffffffffffffff811115614339575050505061436e565b80602083010160043d03850181111561435657505050505061436e565b61436582602001850186612b0e565b82955050505050505b90565b7f455243313135353a207472616e7366657220746f206e6f6e2d4552433131353560008201527f526563656976657220696d706c656d656e746572000000000000000000000000602082015250565b60006143cd603483612a06565b91506143d882614371565b604082019050919050565b600060208201905081810360008301526143fc816143c0565b9050919050565b7f455243313135353a204552433131353552656365697665722072656a6563746560008201527f6420746f6b656e73000000000000000000000000000000000000000000000000602082015250565b600061445f602883612a06565b915061446a82614403565b604082019050919050565b6000602082019050818103600083015261448e81614452565b9050919050565b7f4e487b7100000000000000000000000000000000000000000000000000000000600052602160045260246000fd5b7f45434453413a20696e76616c6964207369676e61747572650000000000000000600082015250565b60006144fa601883612a06565b9150614505826144c4565b602082019050919050565b60006020820190508181036000830152614529816144ed565b9050919050565b7f45434453413a20696e76616c6964207369676e6174757265206c656e67746800600082015250565b6000614566601f83612a06565b915061457182614530565b602082019050919050565b6000602082019050818103600083015261459581614559565b9050919050565b7f45434453413a20696e76616c6964207369676e6174757265202773272076616c60008201527f7565000000000000000000000000000000000000000000000000000000000000602082015250565b60006145f8602283612a06565b91506146038261459c565b604082019050919050565b60006020820190508181036000830152614627816145eb565b9050919050565b600060a0820190506146436000830188613b29565b6146506020830187613b29565b61465d6040830186612916565b61466a6060830185612916565b818103608083015261467c81846141cf565b90509695505050505050565b7f455243313135353a206275726e20616d6f756e74206578636565647320746f7460008201527f616c537570706c79000000000000000000000000000000000000000000000000602082015250565b60006146e4602883612a06565b91506146ef82614688565b604082019050919050565b60006020820190508181036000830152614713816146d7565b9050919050565b6000819050919050565b61472d8161471a565b82525050565b600060ff82169050919050565b61474981614733565b82525050565b60006080820190506147646000830187614724565b6147716020830186614740565b61477e6040830185614724565b61478b6060830184614724565b9594505050505056fea264697066735822122085e8efd457841183ce423f79d39cf49e05bed3ffeca9a6e338101700814ed01f64736f6c63430008120033",
  "linkReferences": {},
  "deployedLinkReferences": {}
}