{
  "_format": "hh-sol-artifact-1",
  "contractName": "Exchange",
  "sourceName": "contracts/mkp/Exchange.sol",
  "abi": [
    {
      "inputs": [],
      "stateMutability": "nonpayable",
      "type": "constructor"
    },
    {
      "anonymous": false,
      "inputs": [
        {
          "indexed": true,
          "internalType": "bytes32",
          "name": "role",
          "type": "bytes32"
        },
        {
          "indexed": true,
          "internalType": "bytes32",
          "name": "previousAdminRole",
          "type": "bytes32"
        },
        {
          "indexed": true,
          "internalType": "bytes32",
          "name": "newAdminRole",
          "type": "bytes32"
        }
      ],
      "name": "RoleAdminChanged",
      "type": "event"
    },
    {
      "anonymous": false,
      "inputs": [
        {
          "indexed": true,
          "internalType": "bytes32",
          "name": "role",
          "type": "bytes32"
        },
        {
          "indexed": true,
          "internalType": "address",
          "name": "account",
          "type": "address"
        },
        {
          "indexed": true,
          "internalType": "address",
          "name": "sender",
          "type": "address"
        }
      ],
      "name": "RoleGranted",
      "type": "event"
    },
    {
      "anonymous": false,
      "inputs": [
        {
          "indexed": true,
          "internalType": "bytes32",
          "name": "role",
          "type": "bytes32"
        },
        {
          "indexed": true,
          "internalType": "address",
          "name": "account",
          "type": "address"
        },
        {
          "indexed": true,
          "internalType": "address",
          "name": "sender",
          "type": "address"
        }
      ],
      "name": "RoleRevoked",
      "type": "event"
    },
    {
      "anonymous": false,
      "inputs": [
        {
          "indexed": false,
          "internalType": "uint256",
          "name": "orderID",
          "type": "uint256"
        },
        {
          "indexed": false,
          "internalType": "address[2]",
          "name": "fromTo",
          "type": "address[2]"
        },
        {
          "indexed": false,
          "internalType": "address[2]",
          "name": "nftAndToken",
          "type": "address[2]"
        },
        {
          "indexed": false,
          "internalType": "uint256[2]",
          "name": "idAndAmount",
          "type": "uint256[2]"
        },
        {
          "indexed": false,
          "internalType": "address[]",
          "name": "additionalTokenReceivers",
          "type": "address[]"
        },
        {
          "indexed": false,
          "internalType": "uint256[]",
          "name": "allAmounts",
          "type": "uint256[]"
        }
      ],
      "name": "Trade",
      "type": "event"
    },
    {
      "inputs": [],
      "name": "DEFAULT_ADMIN_ROLE",
      "outputs": [
        {
          "internalType": "bytes32",
          "name": "",
          "type": "bytes32"
        }
      ],
      "stateMutability": "view",
      "type": "function"
    },
    {
      "inputs": [],
      "name": "SIGNER_ROLE",
      "outputs": [
        {
          "internalType": "bytes32",
          "name": "",
          "type": "bytes32"
        }
      ],
      "stateMutability": "view",
      "type": "function"
    },
    {
      "inputs": [
        {
          "internalType": "address[2][]",
          "name": "fromTo",
          "type": "address[2][]"
        },
        {
          "internalType": "address[2][]",
          "name": "nftAndToken",
          "type": "address[2][]"
        },
        {
          "internalType": "uint256[2][]",
          "name": "idAndAmount",
          "type": "uint256[2][]"
        },
        {
          "internalType": "address[][]",
          "name": "additionalTokenReceivers",
          "type": "address[][]"
        },
        {
          "internalType": "uint256[][]",
          "name": "allAmounts",
          "type": "uint256[][]"
        }
      ],
      "name": "forceTradeBatch",
      "outputs": [],
      "stateMutability": "nonpayable",
      "type": "function"
    },
    {
      "inputs": [
        {
          "internalType": "bytes32",
          "name": "role",
          "type": "bytes32"
        }
      ],
      "name": "getRoleAdmin",
      "outputs": [
        {
          "internalType": "bytes32",
          "name": "",
          "type": "bytes32"
        }
      ],
      "stateMutability": "view",
      "type": "function"
    },
    {
      "inputs": [
        {
          "internalType": "bytes32",
          "name": "role",
          "type": "bytes32"
        },
        {
          "internalType": "address",
          "name": "account",
          "type": "address"
        }
      ],
      "name": "grantRole",
      "outputs": [],
      "stateMutability": "nonpayable",
      "type": "function"
    },
    {
      "inputs": [
        {
          "internalType": "bytes32",
          "name": "role",
          "type": "bytes32"
        },
        {
          "internalType": "address",
          "name": "account",
          "type": "address"
        }
      ],
      "name": "hasRole",
      "outputs": [
        {
          "internalType": "bool",
          "name": "",
          "type": "bool"
        }
      ],
      "stateMutability": "view",
      "type": "function"
    },
    {
      "inputs": [
        {
          "internalType": "uint256",
          "name": "",
          "type": "uint256"
        }
      ],
      "name": "orderIDUsed",
      "outputs": [
        {
          "internalType": "bool",
          "name": "",
          "type": "bool"
        }
      ],
      "stateMutability": "view",
      "type": "function"
    },
    {
      "inputs": [
        {
          "internalType": "bytes32",
          "name": "role",
          "type": "bytes32"
        },
        {
          "internalType": "address",
          "name": "account",
          "type": "address"
        }
      ],
      "name": "renounceRole",
      "outputs": [],
      "stateMutability": "nonpayable",
      "type": "function"
    },
    {
      "inputs": [
        {
          "internalType": "bytes32",
          "name": "role",
          "type": "bytes32"
        },
        {
          "internalType": "address",
          "name": "account",
          "type": "address"
        }
      ],
      "name": "revokeRole",
      "outputs": [],
      "stateMutability": "nonpayable",
      "type": "function"
    },
    {
      "inputs": [
        {
          "internalType": "bytes4",
          "name": "interfaceId",
          "type": "bytes4"
        }
      ],
      "name": "supportsInterface",
      "outputs": [
        {
          "internalType": "bool",
          "name": "",
          "type": "bool"
        }
      ],
      "stateMutability": "view",
      "type": "function"
    },
    {
      "inputs": [
        {
          "internalType": "uint256",
          "name": "orderID",
          "type": "uint256"
        },
        {
          "internalType": "address[2]",
          "name": "fromTo",
          "type": "address[2]"
        },
        {
          "internalType": "address[2]",
          "name": "nftAndToken",
          "type": "address[2]"
        },
        {
          "internalType": "uint256[2]",
          "name": "idAndAmount",
          "type": "uint256[2]"
        },
        {
          "internalType": "address[]",
          "name": "additionalTokenReceivers",
          "type": "address[]"
        },
        {
          "internalType": "uint256[]",
          "name": "allAmounts",
          "type": "uint256[]"
        },
        {
          "internalType": "uint256",
          "name": "deadline",
          "type": "uint256"
        },
        {
          "internalType": "bytes",
          "name": "signature",
          "type": "bytes"
        }
      ],
      "name": "trade",
      "outputs": [],
      "stateMutability": "payable",
      "type": "function"
    }
  ],
  "bytecode": "0x60806040523480156200001157600080fd5b50600180819055506200003d6000801b620000316200004360201b60201c565b6200004b60201b60201c565b620001bc565b600033905090565b6200005d82826200006160201b60201c565b5050565b6200007382826200015260201b60201c565b6200014e57600160008084815260200190815260200160002060000160008373ffffffffffffffffffffffffffffffffffffffff1673ffffffffffffffffffffffffffffffffffffffff16815260200190815260200160002060006101000a81548160ff021916908315150217905550620000f36200004360201b60201c565b73ffffffffffffffffffffffffffffffffffffffff168173ffffffffffffffffffffffffffffffffffffffff16837f2f8788117e7eff1d82e926ec794901d17c78024a50270940304540a733656f0d60405160405180910390a45b5050565b600080600084815260200190815260200160002060000160008373ffffffffffffffffffffffffffffffffffffffff1673ffffffffffffffffffffffffffffffffffffffff16815260200190815260200160002060009054906101000a900460ff16905092915050565b61359f80620001cc6000396000f3fe60806040526004361061009c5760003560e01c80638e81386c116100645780638e81386c146101aa57806391d14854146101d357806399748a0814610210578063a1ebf35d1461022c578063a217fddf14610257578063d547741f146102825761009c565b806301ffc9a7146100a1578063248a9ca3146100de5780632f2ff15d1461011b57806336568abe1461014457806389e1dceb1461016d575b600080fd5b3480156100ad57600080fd5b506100c860048036038101906100c39190611ba6565b6102ab565b6040516100d59190611bee565b60405180910390f35b3480156100ea57600080fd5b5061010560048036038101906101009190611c3f565b610325565b6040516101129190611c7b565b60405180910390f35b34801561012757600080fd5b50610142600480360381019061013d9190611cf4565b610344565b005b34801561015057600080fd5b5061016b60048036038101906101669190611cf4565b610365565b005b34801561017957600080fd5b50610194600480360381019061018f9190611d6a565b6103e8565b6040516101a19190611bee565b60405180910390f35b3480156101b657600080fd5b506101d160048036038101906101cc9190611efe565b610408565b005b3480156101df57600080fd5b506101fa60048036038101906101f59190611cf4565b610579565b6040516102079190611bee565b60405180910390f35b61022a60048036038101906102259190612161565b6105e3565b005b34801561023857600080fd5b5061024161081a565b60405161024e9190611c7b565b60405180910390f35b34801561026357600080fd5b5061026c61083e565b6040516102799190611c7b565b60405180910390f35b34801561028e57600080fd5b506102a960048036038101906102a49190611cf4565b610845565b005b60007f7965db0b000000000000000000000000000000000000000000000000000000007bffffffffffffffffffffffffffffffffffffffffffffffffffffffff1916827bffffffffffffffffffffffffffffffffffffffffffffffffffffffff1916148061031e575061031d82610866565b5b9050919050565b6000806000838152602001908152602001600020600101549050919050565b61034d82610325565b610356816108d0565b61036083836108e4565b505050565b61036d6109c4565b73ffffffffffffffffffffffffffffffffffffffff168173ffffffffffffffffffffffffffffffffffffffff16146103da576040517f08c379a00000000000000000000000000000000000000000000000000000000081526004016103d1906122ff565b60405180910390fd5b6103e482826109cc565b5050565b60026020528060005260406000206000915054906101000a900460ff1681565b7fe2f4eaae4a9751e85a3e4a7b9587827a877f29914755229b07a7b2da98285f70610432816108d0565b888890508b8b905014801561044c5750868690508b8b9050145b801561045d5750848490508b8b9050145b801561046e5750828290508b8b9050145b6104ad576040517f08c379a00000000000000000000000000000000000000000000000000000000081526004016104a49061236b565b60405180910390fd5b60005b8b8b905081101561056b576105588c8c838181106104d1576104d061238b565b5b9050604002018b8b848181106104ea576104e961238b565b5b9050604002018a8a858181106105035761050261238b565b5b90506040020189898681811061051c5761051b61238b565b5b905060200281019061052e91906123c9565b8989888181106105415761054061238b565b5b9050602002810190610553919061242c565b610aad565b8080610563906124be565b9150506104b0565b505050505050505050505050565b600080600084815260200190815260200160002060000160008373ffffffffffffffffffffffffffffffffffffffff1673ffffffffffffffffffffffffffffffffffffffff16815260200190815260200160002060009054906101000a900460ff16905092915050565b6105eb611194565b6106a27fe2f4eaae4a9751e85a3e4a7b9587827a877f29914755229b07a7b2da98285f7061069d610653468f8f8f8f8f8f8f8f8f6040516020016106389a999897969594939291906126f5565b604051602081830303815290604052805190602001206111e3565b85858080601f016020809104026020016040519081016040528093929190818152602001838380828437600081840152601f19601f82011690508083019250505050505050611219565b610579565b6106e1576040517f08c379a00000000000000000000000000000000000000000000000000000000081526004016106d8906127cf565b60405180910390fd5b42831015610724576040517f08c379a000000000000000000000000000000000000000000000000000000000815260040161071b9061283b565b60405180910390fd5b600260008c815260200190815260200160002060009054906101000a900460ff1615610785576040517f08c379a000000000000000000000000000000000000000000000000000000000815260040161077c906128a7565b60405180910390fd5b6001600260008d815260200190815260200160002060006101000a81548160ff0219169083151502179055506107c08a8a8a8a8a8a8a610aad565b7f8aa712bdfae8a5e4c7a931f7c3d5183e3ba99fd97d37d72b5ce1bdc47244c0938b8b8b8b8b8b8b8b6040516107fd989796959493929190612a52565b60405180910390a161080d611240565b5050505050505050505050565b7fe2f4eaae4a9751e85a3e4a7b9587827a877f29914755229b07a7b2da98285f7081565b6000801b81565b61084e82610325565b610857816108d0565b61086183836109cc565b505050565b60007f01ffc9a7000000000000000000000000000000000000000000000000000000007bffffffffffffffffffffffffffffffffffffffffffffffffffffffff1916827bffffffffffffffffffffffffffffffffffffffffffffffffffffffff1916149050919050565b6108e1816108dc6109c4565b611249565b50565b6108ee8282610579565b6109c057600160008084815260200190815260200160002060000160008373ffffffffffffffffffffffffffffffffffffffff1673ffffffffffffffffffffffffffffffffffffffff16815260200190815260200160002060006101000a81548160ff0219169083151502179055506109656109c4565b73ffffffffffffffffffffffffffffffffffffffff168173ffffffffffffffffffffffffffffffffffffffff16837f2f8788117e7eff1d82e926ec794901d17c78024a50270940304540a733656f0d60405160405180910390a45b5050565b600033905090565b6109d68282610579565b15610aa957600080600084815260200190815260200160002060000160008373ffffffffffffffffffffffffffffffffffffffff1673ffffffffffffffffffffffffffffffffffffffff16815260200190815260200160002060006101000a81548160ff021916908315150217905550610a4e6109c4565b73ffffffffffffffffffffffffffffffffffffffff168173ffffffffffffffffffffffffffffffffffffffff16837ff6391f5c32d9c69d2a47ea670b442974b53935d1edc7fd64eb21e047a839171b60405160405180910390a45b5050565b600182829050610abd9190612ac7565b8484905014610b01576040517f08c379a0000000000000000000000000000000000000000000000000000000008152600401610af890612b47565b60405180910390fd5b86600160028110610b1557610b1461238b565b5b602002016020810190610b289190612b67565b73ffffffffffffffffffffffffffffffffffffffff16610b466109c4565b73ffffffffffffffffffffffffffffffffffffffff1614610b9c576040517f08c379a0000000000000000000000000000000000000000000000000000000008152600401610b9390612be0565b60405180910390fd5b73eeeeeeeeeeeeeeeeeeeeeeeeeeeeeeeeeeeeeeee73ffffffffffffffffffffffffffffffffffffffff1686600160028110610bdb57610bda61238b565b5b602002016020810190610bee9190612b67565b73ffffffffffffffffffffffffffffffffffffffff1603610d9557610c1382826112ce565b3414610c54576040517f08c379a0000000000000000000000000000000000000000000000000000000008152600401610c4b90612c4c565b60405180910390fd5b86600060028110610c6857610c6761238b565b5b602002016020810190610c7b9190612b67565b73ffffffffffffffffffffffffffffffffffffffff166108fc83836000818110610ca857610ca761238b565b5b905060200201359081150290604051600060405180830381858888f19350505050158015610cda573d6000803e3d6000fd5b5060005b84849050811015610d8f57848482818110610cfc57610cfb61238b565b5b9050602002016020810190610d119190612b67565b73ffffffffffffffffffffffffffffffffffffffff166108fc8484600185610d399190612c6c565b818110610d4957610d4861238b565b5b905060200201359081150290604051600060405180830381858888f19350505050158015610d7b573d6000803e3d6000fd5b508080610d87906124be565b915050610cde565b50610f59565b60003414610dd8576040517f08c379a0000000000000000000000000000000000000000000000000000000008152600401610dcf90612d12565b60405180910390fd5b600086600160028110610dee57610ded61238b565b5b602002016020810190610e019190612b67565b9050610e9688600160028110610e1a57610e1961238b565b5b602002016020810190610e2d9190612b67565b89600060028110610e4157610e4061238b565b5b602002016020810190610e549190612b67565b85856000818110610e6857610e6761238b565b5b905060200201358473ffffffffffffffffffffffffffffffffffffffff16611324909392919063ffffffff16565b60005b85859050811015610f5657610f4389600160028110610ebb57610eba61238b565b5b602002016020810190610ece9190612b67565b878784818110610ee157610ee061238b565b5b9050602002016020810190610ef69190612b67565b8686600186610f059190612c6c565b818110610f1557610f1461238b565b5b905060200201358573ffffffffffffffffffffffffffffffffffffffff16611324909392919063ffffffff16565b8080610f4e906124be565b915050610e99565b50505b600085600160028110610f6f57610f6e61238b565b5b6020020135036110775785600060028110610f8d57610f8c61238b565b5b602002016020810190610fa09190612b67565b73ffffffffffffffffffffffffffffffffffffffff166342842e0e88600060028110610fcf57610fce61238b565b5b602002016020810190610fe29190612b67565b89600160028110610ff657610ff561238b565b5b6020020160208101906110099190612b67565b8860006002811061101d5761101c61238b565b5b60200201356040518463ffffffff1660e01b815260040161104093929190612d41565b600060405180830381600087803b15801561105a57600080fd5b505af115801561106e573d6000803e3d6000fd5b5050505061118b565b8560006002811061108b5761108a61238b565b5b60200201602081019061109e9190612b67565b73ffffffffffffffffffffffffffffffffffffffff1663f242432a886000600281106110cd576110cc61238b565b5b6020020160208101906110e09190612b67565b896001600281106110f4576110f361238b565b5b6020020160208101906111079190612b67565b8860006002811061111b5761111a61238b565b5b6020020135896001600281106111345761113361238b565b5b60200201356040518563ffffffff1660e01b81526004016111589493929190612daf565b600060405180830381600087803b15801561117257600080fd5b505af1158015611186573d6000803e3d6000fd5b505050505b50505050505050565b6002600154036111d9576040517f08c379a00000000000000000000000000000000000000000000000000000000081526004016111d090612e53565b60405180910390fd5b6002600181905550565b60007f19457468657265756d205369676e6564204d6573736167653a0a33320000000060005281601c52603c6000209050919050565b600080600061122885856113ad565b91509150611235816113fe565b819250505092915050565b60018081905550565b6112538282610579565b6112ca5761126081611564565b61126e8360001c6020611591565b60405160200161127f929190612f7c565b6040516020818303038152906040526040517f08c379a00000000000000000000000000000000000000000000000000000000081526004016112c19190613000565b60405180910390fd5b5050565b60008060005b84849050811015611319578484828181106112f2576112f161238b565b5b90506020020135826113049190612c6c565b91508080611311906124be565b9150506112d4565b508091505092915050565b6113a7846323b872dd60e01b85858560405160240161134593929190612d41565b604051602081830303815290604052907bffffffffffffffffffffffffffffffffffffffffffffffffffffffff19166020820180517bffffffffffffffffffffffffffffffffffffffffffffffffffffffff83818316178352505050506117cd565b50505050565b60008060418351036113ee5760008060006020860151925060408601519150606086015160001a90506113e287828585611895565b945094505050506113f7565b60006002915091505b9250929050565b6000600481111561141257611411613022565b5b81600481111561142557611424613022565b5b0315611561576001600481111561143f5761143e613022565b5b81600481111561145257611451613022565b5b03611492576040517f08c379a00000000000000000000000000000000000000000000000000000000081526004016114899061309d565b60405180910390fd5b600260048111156114a6576114a5613022565b5b8160048111156114b9576114b8613022565b5b036114f9576040517f08c379a00000000000000000000000000000000000000000000000000000000081526004016114f090613109565b60405180910390fd5b6003600481111561150d5761150c613022565b5b8160048111156115205761151f613022565b5b03611560576040517f08c379a00000000000000000000000000000000000000000000000000000000081526004016115579061319b565b60405180910390fd5b5b50565b606061158a8273ffffffffffffffffffffffffffffffffffffffff16601460ff16611591565b9050919050565b6060600060028360026115a491906131bb565b6115ae9190612c6c565b67ffffffffffffffff8111156115c7576115c66131fd565b5b6040519080825280601f01601f1916602001820160405280156115f95781602001600182028036833780820191505090505b5090507f3000000000000000000000000000000000000000000000000000000000000000816000815181106116315761163061238b565b5b60200101907effffffffffffffffffffffffffffffffffffffffffffffffffffffffffffff1916908160001a9053507f7800000000000000000000000000000000000000000000000000000000000000816001815181106116955761169461238b565b5b60200101907effffffffffffffffffffffffffffffffffffffffffffffffffffffffffffff1916908160001a905350600060018460026116d591906131bb565b6116df9190612c6c565b90505b600181111561177f577f3031323334353637383961626364656600000000000000000000000000000000600f8616601081106117215761172061238b565b5b1a60f81b8282815181106117385761173761238b565b5b60200101907effffffffffffffffffffffffffffffffffffffffffffffffffffffffffffff1916908160001a905350600485901c9450806117789061322c565b90506116e2565b50600084146117c3576040517f08c379a00000000000000000000000000000000000000000000000000000000081526004016117ba906132a1565b60405180910390fd5b8091505092915050565b600061182f826040518060400160405280602081526020017f5361666545524332303a206c6f772d6c6576656c2063616c6c206661696c65648152508573ffffffffffffffffffffffffffffffffffffffff166119779092919063ffffffff16565b905060008151148061185157508080602001905181019061185091906132ed565b5b611890576040517f08c379a00000000000000000000000000000000000000000000000000000000081526004016118879061338c565b60405180910390fd5b505050565b6000807f7fffffffffffffffffffffffffffffff5d576e7357a4501ddfe92f46681b20a08360001c11156118d057600060039150915061196e565b6000600187878787604051600081526020016040526040516118f594939291906133c8565b6020604051602081039080840390855afa158015611917573d6000803e3d6000fd5b505050602060405103519050600073ffffffffffffffffffffffffffffffffffffffff168173ffffffffffffffffffffffffffffffffffffffff16036119655760006001925092505061196e565b80600092509250505b94509492505050565b6060611986848460008561198f565b90509392505050565b6060824710156119d4576040517f08c379a00000000000000000000000000000000000000000000000000000000081526004016119cb9061347f565b60405180910390fd5b6000808673ffffffffffffffffffffffffffffffffffffffff1685876040516119fd91906134e6565b60006040518083038185875af1925050503d8060008114611a3a576040519150601f19603f3d011682016040523d82523d6000602084013e611a3f565b606091505b5091509150611a5087838387611a5c565b92505050949350505050565b60608315611abe576000835103611ab657611a7685611ad1565b611ab5576040517f08c379a0000000000000000000000000000000000000000000000000000000008152600401611aac90613549565b60405180910390fd5b5b829050611ac9565b611ac88383611af4565b5b949350505050565b6000808273ffffffffffffffffffffffffffffffffffffffff163b119050919050565b600082511115611b075781518083602001fd5b806040517f08c379a0000000000000000000000000000000000000000000000000000000008152600401611b3b9190613000565b60405180910390fd5b600080fd5b600080fd5b60007fffffffff0000000000000000000000000000000000000000000000000000000082169050919050565b611b8381611b4e565b8114611b8e57600080fd5b50565b600081359050611ba081611b7a565b92915050565b600060208284031215611bbc57611bbb611b44565b5b6000611bca84828501611b91565b91505092915050565b60008115159050919050565b611be881611bd3565b82525050565b6000602082019050611c036000830184611bdf565b92915050565b6000819050919050565b611c1c81611c09565b8114611c2757600080fd5b50565b600081359050611c3981611c13565b92915050565b600060208284031215611c5557611c54611b44565b5b6000611c6384828501611c2a565b91505092915050565b611c7581611c09565b82525050565b6000602082019050611c906000830184611c6c565b92915050565b600073ffffffffffffffffffffffffffffffffffffffff82169050919050565b6000611cc182611c96565b9050919050565b611cd181611cb6565b8114611cdc57600080fd5b50565b600081359050611cee81611cc8565b92915050565b60008060408385031215611d0b57611d0a611b44565b5b6000611d1985828601611c2a565b9250506020611d2a85828601611cdf565b9150509250929050565b6000819050919050565b611d4781611d34565b8114611d5257600080fd5b50565b600081359050611d6481611d3e565b92915050565b600060208284031215611d8057611d7f611b44565b5b6000611d8e84828501611d55565b91505092915050565b600080fd5b600080fd5b600080fd5b60008083601f840112611dbc57611dbb611d97565b5b8235905067ffffffffffffffff811115611dd957611dd8611d9c565b5b602083019150836040820283011115611df557611df4611da1565b5b9250929050565b60008083601f840112611e1257611e11611d97565b5b8235905067ffffffffffffffff811115611e2f57611e2e611d9c565b5b602083019150836040820283011115611e4b57611e4a611da1565b5b9250929050565b60008083601f840112611e6857611e67611d97565b5b8235905067ffffffffffffffff811115611e8557611e84611d9c565b5b602083019150836020820283011115611ea157611ea0611da1565b5b9250929050565b60008083601f840112611ebe57611ebd611d97565b5b8235905067ffffffffffffffff811115611edb57611eda611d9c565b5b602083019150836020820283011115611ef757611ef6611da1565b5b9250929050565b60008060008060008060008060008060a08b8d031215611f2157611f20611b44565b5b60008b013567ffffffffffffffff811115611f3f57611f3e611b49565b5b611f4b8d828e01611da6565b9a509a505060208b013567ffffffffffffffff811115611f6e57611f6d611b49565b5b611f7a8d828e01611da6565b985098505060408b013567ffffffffffffffff811115611f9d57611f9c611b49565b5b611fa98d828e01611dfc565b965096505060608b013567ffffffffffffffff811115611fcc57611fcb611b49565b5b611fd88d828e01611e52565b945094505060808b013567ffffffffffffffff811115611ffb57611ffa611b49565b5b6120078d828e01611ea8565b92509250509295989b9194979a5092959850565b60008190508260206002028201111561203757612036611da1565b5b92915050565b60008190508260206002028201111561205957612058611da1565b5b92915050565b60008083601f84011261207557612074611d97565b5b8235905067ffffffffffffffff81111561209257612091611d9c565b5b6020830191508360208202830111156120ae576120ad611da1565b5b9250929050565b60008083601f8401126120cb576120ca611d97565b5b8235905067ffffffffffffffff8111156120e8576120e7611d9c565b5b60208301915083602082028301111561210457612103611da1565b5b9250929050565b60008083601f84011261212157612120611d97565b5b8235905067ffffffffffffffff81111561213e5761213d611d9c565b5b60208301915083600182028301111561215a57612159611da1565b5b9250929050565b60008060008060008060008060008060006101608c8e03121561218757612186611b44565b5b60006121958e828f01611d55565b9b505060206121a68e828f0161201b565b9a505060606121b78e828f0161201b565b99505060a06121c88e828f0161203d565b98505060e08c013567ffffffffffffffff8111156121e9576121e8611b49565b5b6121f58e828f0161205f565b97509750506101008c013567ffffffffffffffff81111561221957612218611b49565b5b6122258e828f016120b5565b95509550506101206122398e828f01611d55565b9350506101408c013567ffffffffffffffff81111561225b5761225a611b49565b5b6122678e828f0161210b565b92509250509295989b509295989b9093969950565b600082825260208201905092915050565b7f416363657373436f6e74726f6c3a2063616e206f6e6c792072656e6f756e636560008201527f20726f6c657320666f722073656c660000000000000000000000000000000000602082015250565b60006122e9602f8361227c565b91506122f48261228d565b604082019050919050565b60006020820190508181036000830152612318816122dc565b9050919050565b7f4e6f6e2d6d61746368696e67206c656e67746800000000000000000000000000600082015250565b600061235560138361227c565b91506123608261231f565b602082019050919050565b6000602082019050818103600083015261238481612348565b9050919050565b7f4e487b7100000000000000000000000000000000000000000000000000000000600052603260045260246000fd5b600080fd5b600080fd5b600080fd5b600080833560016020038436030381126123e6576123e56123ba565b5b80840192508235915067ffffffffffffffff821115612408576124076123bf565b5b602083019250602082023603831315612424576124236123c4565b5b509250929050565b60008083356001602003843603038112612449576124486123ba565b5b80840192508235915067ffffffffffffffff82111561246b5761246a6123bf565b5b602083019250602082023603831315612487576124866123c4565b5b509250929050565b7f4e487b7100000000000000000000000000000000000000000000000000000000600052601160045260246000fd5b60006124c982611d34565b91507fffffffffffffffffffffffffffffffffffffffffffffffffffffffffffffffff82036124fb576124fa61248f565b5b600182019050919050565b6000819050919050565b61252161251c82611d34565b612506565b82525050565b600060029050919050565b600081905092915050565b6000819050919050565b61255081611cb6565b82525050565b60006125628383612547565b60208301905092915050565b600061257d6020840184611cdf565b905092915050565b6000602082019050919050565b61259b81612527565b6125a58184612532565b92506125b08261253d565b8060005b838110156125e9576125c6828461256e565b6125d08782612556565b96506125db83612585565b9250506001810190506125b4565b505050505050565b82818337505050565b612606604083836125f1565b5050565b600081905092915050565b6000819050919050565b6000602082019050919050565b6000612638838561260a565b935061264382612615565b8060005b8581101561267c57612659828461256e565b6126638882612556565b975061266e8361261f565b925050600181019050612647565b5085925050509392505050565b600081905092915050565b600080fd5b60006126a58385612689565b93507f07ffffffffffffffffffffffffffffffffffffffffffffffffffffffffffffff8311156126d8576126d7612694565b5b6020830292506126e98385846125f1565b82840190509392505050565b6000612701828d612510565b602082019150612711828c612510565b602082019150612721828b612592565b604082019150612731828a612592565b60408201915061274182896125fa565b60408201915061275282878961262c565b915061275f828587612699565b915061276b8284612510565b6020820191508190509b9a5050505050505050505050565b7f496e76616c6964207369676e6174757265000000000000000000000000000000600082015250565b60006127b960118361227c565b91506127c482612783565b602082019050919050565b600060208201905081810360008301526127e8816127ac565b9050919050565b7f446561646c696e65207061737365640000000000000000000000000000000000600082015250565b6000612825600f8361227c565b9150612830826127ef565b602082019050919050565b6000602082019050818103600083015261285481612818565b9050919050565b7f4f7264657220494420616c726561647920757365640000000000000000000000600082015250565b600061289160158361227c565b915061289c8261285b565b602082019050919050565b600060208201905081810360008301526128c081612884565b9050919050565b6128d081611d34565b82525050565b600081905092915050565b6128ea81611cb6565b82525050565b60006128fc83836128e1565b60208301905092915050565b61291181612527565b61291b81846128d6565b92506129268261253d565b8060005b8381101561295f5761293c828461256e565b61294687826128f0565b965061295183612585565b92505060018101905061292a565b505050505050565b612973604083836125f1565b5050565b600082825260208201905092915050565b60006129948385612977565b935061299f82612615565b8060005b858110156129d8576129b5828461256e565b6129bf88826128f0565b97506129ca8361261f565b9250506001810190506129a3565b5085925050509392505050565b600082825260208201905092915050565b6000612a0283856129e5565b93507f07ffffffffffffffffffffffffffffffffffffffffffffffffffffffffffffff831115612a3557612a34612694565b5b602083029250612a468385846125f1565b82840190509392505050565b600061012082019050612a68600083018b6128c7565b612a75602083018a612908565b612a826060830189612908565b612a8f60a0830188612967565b81810360e0830152612aa2818688612988565b9050818103610100830152612ab88184866129f6565b90509998505050505050505050565b6000612ad282611d34565b9150612add83611d34565b9250828203905081811115612af557612af461248f565b5b92915050565b7f496e76616c6964206c656e677468000000000000000000000000000000000000600082015250565b6000612b31600e8361227c565b9150612b3c82612afb565b602082019050919050565b60006020820190508181036000830152612b6081612b24565b9050919050565b600060208284031215612b7d57612b7c611b44565b5b6000612b8b84828501611cdf565b91505092915050565b7f57726f6e672073656e6465720000000000000000000000000000000000000000600082015250565b6000612bca600c8361227c565b9150612bd582612b94565b602082019050919050565b60006020820190508181036000830152612bf981612bbd565b9050919050565b7f57726f6e67207061796d656e7420616d6f756e74000000000000000000000000600082015250565b6000612c3660148361227c565b9150612c4182612c00565b602082019050919050565b60006020820190508181036000830152612c6581612c29565b9050919050565b6000612c7782611d34565b9150612c8283611d34565b9250828201905080821115612c9a57612c9961248f565b5b92915050565b7f43616e6e6f742073656e64206e61746976652063757272656e6379207768696c60008201527f6520706179696e67207769746820746f6b656e00000000000000000000000000602082015250565b6000612cfc60338361227c565b9150612d0782612ca0565b604082019050919050565b60006020820190508181036000830152612d2b81612cef565b9050919050565b612d3b81611cb6565b82525050565b6000606082019050612d566000830186612d32565b612d636020830185612d32565b612d7060408301846128c7565b949350505050565b600082825260208201905092915050565b50565b6000612d99600083612d78565b9150612da482612d89565b600082019050919050565b600060a082019050612dc46000830187612d32565b612dd16020830186612d32565b612dde60408301856128c7565b612deb60608301846128c7565b8181036080830152612dfc81612d8c565b905095945050505050565b7f5265656e7472616e637947756172643a207265656e7472616e742063616c6c00600082015250565b6000612e3d601f8361227c565b9150612e4882612e07565b602082019050919050565b60006020820190508181036000830152612e6c81612e30565b9050919050565b600081905092915050565b7f416363657373436f6e74726f6c3a206163636f756e7420000000000000000000600082015250565b6000612eb4601783612e73565b9150612ebf82612e7e565b601782019050919050565b600081519050919050565b60005b83811015612ef3578082015181840152602081019050612ed8565b60008484015250505050565b6000612f0a82612eca565b612f148185612e73565b9350612f24818560208601612ed5565b80840191505092915050565b7f206973206d697373696e6720726f6c6520000000000000000000000000000000600082015250565b6000612f66601183612e73565b9150612f7182612f30565b601182019050919050565b6000612f8782612ea7565b9150612f938285612eff565b9150612f9e82612f59565b9150612faa8284612eff565b91508190509392505050565b6000601f19601f8301169050919050565b6000612fd282612eca565b612fdc818561227c565b9350612fec818560208601612ed5565b612ff581612fb6565b840191505092915050565b6000602082019050818103600083015261301a8184612fc7565b905092915050565b7f4e487b7100000000000000000000000000000000000000000000000000000000600052602160045260246000fd5b7f45434453413a20696e76616c6964207369676e61747572650000000000000000600082015250565b600061308760188361227c565b915061309282613051565b602082019050919050565b600060208201905081810360008301526130b68161307a565b9050919050565b7f45434453413a20696e76616c6964207369676e6174757265206c656e67746800600082015250565b60006130f3601f8361227c565b91506130fe826130bd565b602082019050919050565b60006020820190508181036000830152613122816130e6565b9050919050565b7f45434453413a20696e76616c6964207369676e6174757265202773272076616c60008201527f7565000000000000000000000000000000000000000000000000000000000000602082015250565b600061318560228361227c565b915061319082613129565b604082019050919050565b600060208201905081810360008301526131b481613178565b9050919050565b60006131c682611d34565b91506131d183611d34565b92508282026131df81611d34565b915082820484148315176131f6576131f561248f565b5b5092915050565b7f4e487b7100000000000000000000000000000000000000000000000000000000600052604160045260246000fd5b600061323782611d34565b91506000820361324a5761324961248f565b5b600182039050919050565b7f537472696e67733a20686578206c656e67746820696e73756666696369656e74600082015250565b600061328b60208361227c565b915061329682613255565b602082019050919050565b600060208201905081810360008301526132ba8161327e565b9050919050565b6132ca81611bd3565b81146132d557600080fd5b50565b6000815190506132e7816132c1565b92915050565b60006020828403121561330357613302611b44565b5b6000613311848285016132d8565b91505092915050565b7f5361666545524332303a204552433230206f7065726174696f6e20646964206e60008201527f6f74207375636365656400000000000000000000000000000000000000000000602082015250565b6000613376602a8361227c565b91506133818261331a565b604082019050919050565b600060208201905081810360008301526133a581613369565b9050919050565b600060ff82169050919050565b6133c2816133ac565b82525050565b60006080820190506133dd6000830187611c6c565b6133ea60208301866133b9565b6133f76040830185611c6c565b6134046060830184611c6c565b95945050505050565b7f416464726573733a20696e73756666696369656e742062616c616e636520666f60008201527f722063616c6c0000000000000000000000000000000000000000000000000000602082015250565b600061346960268361227c565b91506134748261340d565b604082019050919050565b600060208201905081810360008301526134988161345c565b9050919050565b600081519050919050565b600081905092915050565b60006134c08261349f565b6134ca81856134aa565b93506134da818560208601612ed5565b80840191505092915050565b60006134f282846134b5565b915081905092915050565b7f416464726573733a2063616c6c20746f206e6f6e2d636f6e7472616374000000600082015250565b6000613533601d8361227c565b915061353e826134fd565b602082019050919050565b6000602082019050818103600083015261356281613526565b905091905056fea2646970667358221220ff3bcb22ce5b2084968694501db54ce88403cb8ae9158523d9d07f18e7cc1fc664736f6c63430008120033",
  "linkReferences": {},
  "deployedLinkReferences": {}
}