{
  "_format": "hh-sol-artifact-1",
  "contractName": "Promotion",
  "sourceName": "contracts/mkp/Promotion.sol",
  "abi": [
    {
      "inputs": [
        {
          "internalType": "address",
          "name": "_signer",
          "type": "address"
        },
        {
          "internalType": "address",
          "name": "_feeReceiver",
          "type": "address"
        }
      ],
      "stateMutability": "nonpayable",
      "type": "constructor"
    },
    {
      "anonymous": false,
      "inputs": [
        {
          "indexed": true,
          "internalType": "address",
          "name": "previousOwner",
          "type": "address"
        },
        {
          "indexed": true,
          "internalType": "address",
          "name": "newOwner",
          "type": "address"
        }
      ],
      "name": "OwnershipTransferred",
      "type": "event"
    },
    {
      "anonymous": false,
      "inputs": [
        {
          "indexed": false,
          "internalType": "uint256",
          "name": "package",
          "type": "uint256"
        },
        {
          "indexed": false,
          "internalType": "uint256",
          "name": "promotionChainId",
          "type": "uint256"
        },
        {
          "indexed": false,
          "internalType": "address",
          "name": "promotionToken",
          "type": "address"
        },
        {
          "indexed": false,
          "internalType": "uint256",
          "name": "promotionId",
          "type": "uint256"
        },
        {
          "indexed": false,
          "internalType": "address",
          "name": "sender",
          "type": "address"
        }
      ],
      "name": "PromotionSuccess",
      "type": "event"
    },
    {
      "inputs": [],
      "name": "feeReceiver",
      "outputs": [
        {
          "internalType": "address",
          "name": "",
          "type": "address"
        }
      ],
      "stateMutability": "view",
      "type": "function"
    },
    {
      "inputs": [],
      "name": "owner",
      "outputs": [
        {
          "internalType": "address",
          "name": "",
          "type": "address"
        }
      ],
      "stateMutability": "view",
      "type": "function"
    },
    {
      "inputs": [
        {
          "internalType": "uint256",
          "name": "package",
          "type": "uint256"
        },
        {
          "internalType": "address",
          "name": "token",
          "type": "address"
        },
        {
          "internalType": "uint256",
          "name": "amount",
          "type": "uint256"
        },
        {
          "internalType": "uint256",
          "name": "promotionChainId",
          "type": "uint256"
        },
        {
          "internalType": "address",
          "name": "promotionToken",
          "type": "address"
        },
        {
          "internalType": "uint256",
          "name": "promotionId",
          "type": "uint256"
        },
        {
          "internalType": "uint256",
          "name": "deadline",
          "type": "uint256"
        },
        {
          "internalType": "bytes",
          "name": "signature",
          "type": "bytes"
        }
      ],
      "name": "promote",
      "outputs": [],
      "stateMutability": "payable",
      "type": "function"
    },
    {
      "inputs": [],
      "name": "renounceOwnership",
      "outputs": [],
      "stateMutability": "nonpayable",
      "type": "function"
    },
    {
      "inputs": [
        {
          "internalType": "address",
          "name": "_feeReceiver",
          "type": "address"
        }
      ],
      "name": "setFeeReceiver",
      "outputs": [],
      "stateMutability": "nonpayable",
      "type": "function"
    },
    {
      "inputs": [
        {
          "internalType": "address",
          "name": "_signer",
          "type": "address"
        }
      ],
      "name": "setSigner",
      "outputs": [],
      "stateMutability": "nonpayable",
      "type": "function"
    },
    {
      "inputs": [],
      "name": "signer",
      "outputs": [
        {
          "internalType": "address",
          "name": "",
          "type": "address"
        }
      ],
      "stateMutability": "view",
      "type": "function"
    },
    {
      "inputs": [
        {
          "internalType": "address",
          "name": "newOwner",
          "type": "address"
        }
      ],
      "name": "transferOwnership",
      "outputs": [],
      "stateMutability": "nonpayable",
      "type": "function"
    }
  ],
  "bytecode": "0x60806040523480156200001157600080fd5b5060405162001f1b38038062001f1b833981810160405281019062000037919062000290565b620000576200004b6200015a60201b60201c565b6200016260201b60201c565b60018081905550600073ffffffffffffffffffffffffffffffffffffffff168173ffffffffffffffffffffffffffffffffffffffff1603620000d0576040517f08c379a0000000000000000000000000000000000000000000000000000000008152600401620000c79062000338565b60405180910390fd5b81600260006101000a81548173ffffffffffffffffffffffffffffffffffffffff021916908373ffffffffffffffffffffffffffffffffffffffff16021790555080600360006101000a81548173ffffffffffffffffffffffffffffffffffffffff021916908373ffffffffffffffffffffffffffffffffffffffff16021790555050506200035a565b600033905090565b60008060009054906101000a900473ffffffffffffffffffffffffffffffffffffffff169050816000806101000a81548173ffffffffffffffffffffffffffffffffffffffff021916908373ffffffffffffffffffffffffffffffffffffffff1602179055508173ffffffffffffffffffffffffffffffffffffffff168173ffffffffffffffffffffffffffffffffffffffff167f8be0079c531659141344cd1fd0a4f28419497f9722a3daafe3b4186f6b6457e060405160405180910390a35050565b600080fd5b600073ffffffffffffffffffffffffffffffffffffffff82169050919050565b600062000258826200022b565b9050919050565b6200026a816200024b565b81146200027657600080fd5b50565b6000815190506200028a816200025f565b92915050565b60008060408385031215620002aa57620002a962000226565b5b6000620002ba8582860162000279565b9250506020620002cd8582860162000279565b9150509250929050565b600082825260208201905092915050565b7f43616e6e6f7420736574207a65726f2061646472657373000000000000000000600082015250565b600062000320601783620002d7565b91506200032d82620002e8565b602082019050919050565b60006020820190508181036000830152620003538162000311565b9050919050565b611bb1806200036a6000396000f3fe60806040526004361061007b5760003560e01c8063b3f006741161004e578063b3f0067414610116578063ead110a014610141578063efdcd9741461015d578063f2fde38b146101865761007b565b8063238ac933146100805780636c19e783146100ab578063715018a6146100d45780638da5cb5b146100eb575b600080fd5b34801561008c57600080fd5b506100956101af565b6040516100a29190610f12565b60405180910390f35b3480156100b757600080fd5b506100d260048036038101906100cd9190610f63565b6101d5565b005b3480156100e057600080fd5b506100e9610221565b005b3480156100f757600080fd5b50610100610235565b60405161010d9190610f12565b60405180910390f35b34801561012257600080fd5b5061012b61025e565b6040516101389190610f12565b60405180910390f35b61015b6004803603810190610156919061102b565b610284565b005b34801561016957600080fd5b50610184600480360381019061017f9190610f63565b6105dd565b005b34801561019257600080fd5b506101ad60048036038101906101a89190610f63565b610698565b005b600260009054906101000a900473ffffffffffffffffffffffffffffffffffffffff1681565b6101dd61071b565b80600260006101000a81548173ffffffffffffffffffffffffffffffffffffffff021916908373ffffffffffffffffffffffffffffffffffffffff16021790555050565b61022961071b565b6102336000610799565b565b60008060009054906101000a900473ffffffffffffffffffffffffffffffffffffffff16905090565b600360009054906101000a900473ffffffffffffffffffffffffffffffffffffffff1681565b61028c61085d565b6103216102d74661029b6108ac565b308d8d8d8d8d8d8d6040516020016102bc9a9998979695949392919061116a565b604051602081830303815290604052805190602001206108b4565b83838080601f016020809104026020016040519081016040528093929190818152602001838380828437600081840152601f19601f820116905080830192505050505050506108ea565b73ffffffffffffffffffffffffffffffffffffffff16600260009054906101000a900473ffffffffffffffffffffffffffffffffffffffff1673ffffffffffffffffffffffffffffffffffffffff16146103b0576040517f08c379a00000000000000000000000000000000000000000000000000000000081526004016103a79061127b565b60405180910390fd5b428310156103f3576040517f08c379a00000000000000000000000000000000000000000000000000000000081526004016103ea906112e7565b60405180910390fd5b73eeeeeeeeeeeeeeeeeeeeeeeeeeeeeeeeeeeeeeee73ffffffffffffffffffffffffffffffffffffffff168873ffffffffffffffffffffffffffffffffffffffff16036104ea5786341461047c576040517f08c379a000000000000000000000000000000000000000000000000000000000815260040161047390611353565b60405180910390fd5b600360009054906101000a900473ffffffffffffffffffffffffffffffffffffffff1673ffffffffffffffffffffffffffffffffffffffff166108fc349081150290604051600060405180830381858888f193505050501580156104e4573d6000803e3d6000fd5b50610584565b6000341461052d576040517f08c379a0000000000000000000000000000000000000000000000000000000008152600401610524906113e5565b60405180910390fd5b6105836105386108ac565b600360009054906101000a900473ffffffffffffffffffffffffffffffffffffffff16898b73ffffffffffffffffffffffffffffffffffffffff16610911909392919063ffffffff16565b5b7f762fe123fcbd8f4f3ed782b4fa57d5bd932e3d6eb09c4ed508c6804d11d6aaa2898787876105b16108ac565b6040516105c2959493929190611414565b60405180910390a16105d261099a565b505050505050505050565b6105e561071b565b600073ffffffffffffffffffffffffffffffffffffffff168173ffffffffffffffffffffffffffffffffffffffff1603610654576040517f08c379a000000000000000000000000000000000000000000000000000000000815260040161064b906114b3565b60405180910390fd5b80600360006101000a81548173ffffffffffffffffffffffffffffffffffffffff021916908373ffffffffffffffffffffffffffffffffffffffff16021790555050565b6106a061071b565b600073ffffffffffffffffffffffffffffffffffffffff168173ffffffffffffffffffffffffffffffffffffffff160361070f576040517f08c379a000000000000000000000000000000000000000000000000000000000815260040161070690611545565b60405180910390fd5b61071881610799565b50565b6107236108ac565b73ffffffffffffffffffffffffffffffffffffffff16610741610235565b73ffffffffffffffffffffffffffffffffffffffff1614610797576040517f08c379a000000000000000000000000000000000000000000000000000000000815260040161078e906115b1565b60405180910390fd5b565b60008060009054906101000a900473ffffffffffffffffffffffffffffffffffffffff169050816000806101000a81548173ffffffffffffffffffffffffffffffffffffffff021916908373ffffffffffffffffffffffffffffffffffffffff1602179055508173ffffffffffffffffffffffffffffffffffffffff168173ffffffffffffffffffffffffffffffffffffffff167f8be0079c531659141344cd1fd0a4f28419497f9722a3daafe3b4186f6b6457e060405160405180910390a35050565b6002600154036108a2576040517f08c379a00000000000000000000000000000000000000000000000000000000081526004016108999061161d565b60405180910390fd5b6002600181905550565b600033905090565b60007f19457468657265756d205369676e6564204d6573736167653a0a33320000000060005281601c52603c6000209050919050565b60008060006108f985856109a3565b91509150610906816109f4565b819250505092915050565b610994846323b872dd60e01b8585856040516024016109329392919061163d565b604051602081830303815290604052907bffffffffffffffffffffffffffffffffffffffffffffffffffffffff19166020820180517bffffffffffffffffffffffffffffffffffffffffffffffffffffffff8381831617835250505050610b5a565b50505050565b60018081905550565b60008060418351036109e45760008060006020860151925060408601519150606086015160001a90506109d887828585610c22565b945094505050506109ed565b60006002915091505b9250929050565b60006004811115610a0857610a07611674565b5b816004811115610a1b57610a1a611674565b5b0315610b575760016004811115610a3557610a34611674565b5b816004811115610a4857610a47611674565b5b03610a88576040517f08c379a0000000000000000000000000000000000000000000000000000000008152600401610a7f906116ef565b60405180910390fd5b60026004811115610a9c57610a9b611674565b5b816004811115610aaf57610aae611674565b5b03610aef576040517f08c379a0000000000000000000000000000000000000000000000000000000008152600401610ae69061175b565b60405180910390fd5b60036004811115610b0357610b02611674565b5b816004811115610b1657610b15611674565b5b03610b56576040517f08c379a0000000000000000000000000000000000000000000000000000000008152600401610b4d906117ed565b60405180910390fd5b5b50565b6000610bbc826040518060400160405280602081526020017f5361666545524332303a206c6f772d6c6576656c2063616c6c206661696c65648152508573ffffffffffffffffffffffffffffffffffffffff16610d049092919063ffffffff16565b9050600081511480610bde575080806020019051810190610bdd9190611845565b5b610c1d576040517f08c379a0000000000000000000000000000000000000000000000000000000008152600401610c14906118e4565b60405180910390fd5b505050565b6000807f7fffffffffffffffffffffffffffffff5d576e7357a4501ddfe92f46681b20a08360001c1115610c5d576000600391509150610cfb565b600060018787878760405160008152602001604052604051610c829493929190611939565b6020604051602081039080840390855afa158015610ca4573d6000803e3d6000fd5b505050602060405103519050600073ffffffffffffffffffffffffffffffffffffffff168173ffffffffffffffffffffffffffffffffffffffff1603610cf257600060019250925050610cfb565b80600092509250505b94509492505050565b6060610d138484600085610d1c565b90509392505050565b606082471015610d61576040517f08c379a0000000000000000000000000000000000000000000000000000000008152600401610d58906119f0565b60405180910390fd5b6000808673ffffffffffffffffffffffffffffffffffffffff168587604051610d8a9190611a81565b60006040518083038185875af1925050503d8060008114610dc7576040519150601f19603f3d011682016040523d82523d6000602084013e610dcc565b606091505b5091509150610ddd87838387610de9565b92505050949350505050565b60608315610e4b576000835103610e4357610e0385610e5e565b610e42576040517f08c379a0000000000000000000000000000000000000000000000000000000008152600401610e3990611ae4565b60405180910390fd5b5b829050610e56565b610e558383610e81565b5b949350505050565b6000808273ffffffffffffffffffffffffffffffffffffffff163b119050919050565b600082511115610e945781518083602001fd5b806040517f08c379a0000000000000000000000000000000000000000000000000000000008152600401610ec89190611b59565b60405180910390fd5b600073ffffffffffffffffffffffffffffffffffffffff82169050919050565b6000610efc82610ed1565b9050919050565b610f0c81610ef1565b82525050565b6000602082019050610f276000830184610f03565b92915050565b600080fd5b600080fd5b610f4081610ef1565b8114610f4b57600080fd5b50565b600081359050610f5d81610f37565b92915050565b600060208284031215610f7957610f78610f2d565b5b6000610f8784828501610f4e565b91505092915050565b6000819050919050565b610fa381610f90565b8114610fae57600080fd5b50565b600081359050610fc081610f9a565b92915050565b600080fd5b600080fd5b600080fd5b60008083601f840112610feb57610fea610fc6565b5b8235905067ffffffffffffffff81111561100857611007610fcb565b5b60208301915083600182028301111561102457611023610fd0565b5b9250929050565b60008060008060008060008060006101008a8c03121561104e5761104d610f2d565b5b600061105c8c828d01610fb1565b995050602061106d8c828d01610f4e565b985050604061107e8c828d01610fb1565b975050606061108f8c828d01610fb1565b96505060806110a08c828d01610f4e565b95505060a06110b18c828d01610fb1565b94505060c06110c28c828d01610fb1565b93505060e08a013567ffffffffffffffff8111156110e3576110e2610f32565b5b6110ef8c828d01610fd5565b92509250509295985092959850929598565b6000819050919050565b61111c61111782610f90565b611101565b82525050565b60008160601b9050919050565b600061113a82611122565b9050919050565b600061114c8261112f565b9050919050565b61116461115f82610ef1565b611141565b82525050565b6000611176828d61110b565b602082019150611186828c611153565b601482019150611196828b611153565b6014820191506111a6828a61110b565b6020820191506111b68289611153565b6014820191506111c6828861110b565b6020820191506111d6828761110b565b6020820191506111e68286611153565b6014820191506111f6828561110b565b602082019150611206828461110b565b6020820191508190509b9a5050505050505050505050565b600082825260208201905092915050565b7f496e76616c6964207369676e6174757265000000000000000000000000000000600082015250565b600061126560118361121e565b91506112708261122f565b602082019050919050565b6000602082019050818103600083015261129481611258565b9050919050565b7f446561646c696e65207061737365640000000000000000000000000000000000600082015250565b60006112d1600f8361121e565b91506112dc8261129b565b602082019050919050565b60006020820190508181036000830152611300816112c4565b9050919050565b7f57726f6e67207061796d656e7420616d6f756e74000000000000000000000000600082015250565b600061133d60148361121e565b915061134882611307565b602082019050919050565b6000602082019050818103600083015261136c81611330565b9050919050565b7f43616e6e6f742073656e64206e61746976652063757272656e6379207768696c60008201527f6520706179696e67207769746820746f6b656e00000000000000000000000000602082015250565b60006113cf60338361121e565b91506113da82611373565b604082019050919050565b600060208201905081810360008301526113fe816113c2565b9050919050565b61140e81610f90565b82525050565b600060a0820190506114296000830188611405565b6114366020830187611405565b6114436040830186610f03565b6114506060830185611405565b61145d6080830184610f03565b9695505050505050565b7f43616e6e6f7420736574207a65726f2061646472657373000000000000000000600082015250565b600061149d60178361121e565b91506114a882611467565b602082019050919050565b600060208201905081810360008301526114cc81611490565b9050919050565b7f4f776e61626c653a206e6577206f776e657220697320746865207a65726f206160008201527f6464726573730000000000000000000000000000000000000000000000000000602082015250565b600061152f60268361121e565b915061153a826114d3565b604082019050919050565b6000602082019050818103600083015261155e81611522565b9050919050565b7f4f776e61626c653a2063616c6c6572206973206e6f7420746865206f776e6572600082015250565b600061159b60208361121e565b91506115a682611565565b602082019050919050565b600060208201905081810360008301526115ca8161158e565b9050919050565b7f5265656e7472616e637947756172643a207265656e7472616e742063616c6c00600082015250565b6000611607601f8361121e565b9150611612826115d1565b602082019050919050565b60006020820190508181036000830152611636816115fa565b9050919050565b60006060820190506116526000830186610f03565b61165f6020830185610f03565b61166c6040830184611405565b949350505050565b7f4e487b7100000000000000000000000000000000000000000000000000000000600052602160045260246000fd5b7f45434453413a20696e76616c6964207369676e61747572650000000000000000600082015250565b60006116d960188361121e565b91506116e4826116a3565b602082019050919050565b60006020820190508181036000830152611708816116cc565b9050919050565b7f45434453413a20696e76616c6964207369676e6174757265206c656e67746800600082015250565b6000611745601f8361121e565b91506117508261170f565b602082019050919050565b6000602082019050818103600083015261177481611738565b9050919050565b7f45434453413a20696e76616c6964207369676e6174757265202773272076616c60008201527f7565000000000000000000000000000000000000000000000000000000000000602082015250565b60006117d760228361121e565b91506117e28261177b565b604082019050919050565b60006020820190508181036000830152611806816117ca565b9050919050565b60008115159050919050565b6118228161180d565b811461182d57600080fd5b50565b60008151905061183f81611819565b92915050565b60006020828403121561185b5761185a610f2d565b5b600061186984828501611830565b91505092915050565b7f5361666545524332303a204552433230206f7065726174696f6e20646964206e60008201527f6f74207375636365656400000000000000000000000000000000000000000000602082015250565b60006118ce602a8361121e565b91506118d982611872565b604082019050919050565b600060208201905081810360008301526118fd816118c1565b9050919050565b6000819050919050565b61191781611904565b82525050565b600060ff82169050919050565b6119338161191d565b82525050565b600060808201905061194e600083018761190e565b61195b602083018661192a565b611968604083018561190e565b611975606083018461190e565b95945050505050565b7f416464726573733a20696e73756666696369656e742062616c616e636520666f60008201527f722063616c6c0000000000000000000000000000000000000000000000000000602082015250565b60006119da60268361121e565b91506119e58261197e565b604082019050919050565b60006020820190508181036000830152611a09816119cd565b9050919050565b600081519050919050565b600081905092915050565b60005b83811015611a44578082015181840152602081019050611a29565b60008484015250505050565b6000611a5b82611a10565b611a658185611a1b565b9350611a75818560208601611a26565b80840191505092915050565b6000611a8d8284611a50565b915081905092915050565b7f416464726573733a2063616c6c20746f206e6f6e2d636f6e7472616374000000600082015250565b6000611ace601d8361121e565b9150611ad982611a98565b602082019050919050565b60006020820190508181036000830152611afd81611ac1565b9050919050565b600081519050919050565b6000601f19601f8301169050919050565b6000611b2b82611b04565b611b35818561121e565b9350611b45818560208601611a26565b611b4e81611b0f565b840191505092915050565b60006020820190508181036000830152611b738184611b20565b90509291505056fea26469706673582212202e52e6db0f33a7594aeab9e202303270fd8666b819cc606f7c8d6259b5a7c8fe64736f6c63430008120033",
  "linkReferences": {},
  "deployedLinkReferences": {}
}