{
  "_format": "hh-sol-artifact-1",
  "contractName": "ExchangeProxy",
  "sourceName": "contracts/proxy/ExchangeProxy.sol",
  "abi": [
    {
      "inputs": [],
      "stateMutability": "nonpayable",
      "type": "constructor"
    },
    {
      "stateMutability": "payable",
      "type": "fallback"
    },
    {
      "inputs": [],
      "name": "admin",
      "outputs": [
        {
          "internalType": "address",
          "name": "",
          "type": "address"
        }
      ],
      "stateMutability": "view",
      "type": "function"
    },
    {
      "inputs": [],
      "name": "implementation",
      "outputs": [
        {
          "internalType": "address",
          "name": "",
          "type": "address"
        }
      ],
      "stateMutability": "view",
      "type": "function"
    },
    {
      "inputs": [
        {
          "internalType": "address",
          "name": "_implementation",
          "type": "address"
        }
      ],
      "name": "setImplementation",
      "outputs": [],
      "stateMutability": "nonpayable",
      "type": "function"
    },
    {
      "inputs": [
        {
          "internalType": "address",
          "name": "_admin",
          "type": "address"
        }
      ],
      "name": "setProxyAdmin",
      "outputs": [],
      "stateMutability": "nonpayable",
      "type": "function"
    },
    {
      "stateMutability": "payable",
      "type": "receive"
    }
  ],
  "bytecode": "0x60806040523480156200001157600080fd5b5062000023336200002960201b60201c565b62000277565b600073ffffffffffffffffffffffffffffffffffffffff168173ffffffffffffffffffffffffffffffffffffffff16036200006357600080fd5b8073__$71487450ce1f33220e4da92b2015d5f1d4$__63e8ff0b1d60017fb53127684a568b3173ae13b9f8a6016e243e63b6e8ee1178d6a717850b5d610460001c620000b0919062000192565b60001b6040518263ffffffff1660e01b8152600401620000d19190620001e8565b602060405180830381865af4158015620000ef573d6000803e3d6000fd5b505050506040513d601f19601f8201168201806040525081019062000115919062000245565b60000160006101000a81548173ffffffffffffffffffffffffffffffffffffffff021916908373ffffffffffffffffffffffffffffffffffffffff16021790555050565b6000819050919050565b7f4e487b7100000000000000000000000000000000000000000000000000000000600052601160045260246000fd5b60006200019f8262000159565b9150620001ac8362000159565b9250828203905081811115620001c757620001c662000163565b5b92915050565b6000819050919050565b620001e281620001cd565b82525050565b6000602082019050620001ff6000830184620001d7565b92915050565b600080fd5b6000819050919050565b6200021f816200020a565b81146200022b57600080fd5b50565b6000815190506200023f8162000214565b92915050565b6000602082840312156200025e576200025d62000205565b5b60006200026e848285016200022e565b91505092915050565b6107ed80620002876000396000f3fe6080604052600436106100435760003560e01c806347c026611461005c5780635c60da1b14610085578063d784d426146100b0578063f851a440146100d957610052565b3661005257610050610104565b005b61005a610104565b005b34801561006857600080fd5b50610083600480360381019061007e919061065c565b610116565b005b34801561009157600080fd5b5061009a610173565b6040516100a79190610698565b60405180910390f35b3480156100bc57600080fd5b506100d760048036038101906100d2919061065c565b610182565b005b3480156100e557600080fd5b506100ee6101df565b6040516100fb9190610698565b60405180910390f35b61011461010f6101ee565b6102c3565b565b61011e6102e9565b73ffffffffffffffffffffffffffffffffffffffff163373ffffffffffffffffffffffffffffffffffffffff160361015e57610159816103be565b610167565b610166610104565b5b610170816103be565b50565b600061017d6101ee565b905090565b61018a6102e9565b73ffffffffffffffffffffffffffffffffffffffff163373ffffffffffffffffffffffffffffffffffffffff16036101ca576101c5816104e6565b6101d3565b6101d2610104565b5b6101dc816104e6565b50565b60006101e96102e9565b905090565b600073__$71487450ce1f33220e4da92b2015d5f1d4$__63e8ff0b1d60017f360894a13ba1a3210667c828492db98dca3e2076cc3735a920a3ca505d382bbd60001c61023a91906106ec565b60001b6040518263ffffffff1660e01b81526004016102599190610739565b602060405180830381865af4158015610276573d6000803e3d6000fd5b505050506040513d601f19601f8201168201806040525081019061029a919061078a565b60000160009054906101000a900473ffffffffffffffffffffffffffffffffffffffff16905090565b3660008037600080366000845af43d6000803e80600081146102e4573d6000f35b3d6000fd5b600073__$71487450ce1f33220e4da92b2015d5f1d4$__63e8ff0b1d60017fb53127684a568b3173ae13b9f8a6016e243e63b6e8ee1178d6a717850b5d610460001c61033591906106ec565b60001b6040518263ffffffff1660e01b81526004016103549190610739565b602060405180830381865af4158015610371573d6000803e3d6000fd5b505050506040513d601f19601f82011682018060405250810190610395919061078a565b60000160009054906101000a900473ffffffffffffffffffffffffffffffffffffffff16905090565b600073ffffffffffffffffffffffffffffffffffffffff168173ffffffffffffffffffffffffffffffffffffffff16036103f757600080fd5b8073__$71487450ce1f33220e4da92b2015d5f1d4$__63e8ff0b1d60017fb53127684a568b3173ae13b9f8a6016e243e63b6e8ee1178d6a717850b5d610460001c61044291906106ec565b60001b6040518263ffffffff1660e01b81526004016104619190610739565b602060405180830381865af415801561047e573d6000803e3d6000fd5b505050506040513d601f19601f820116820180604052508101906104a2919061078a565b60000160006101000a81548173ffffffffffffffffffffffffffffffffffffffff021916908373ffffffffffffffffffffffffffffffffffffffff16021790555050565b60008173ffffffffffffffffffffffffffffffffffffffff163b1161050a57600080fd5b8073__$71487450ce1f33220e4da92b2015d5f1d4$__63e8ff0b1d60017f360894a13ba1a3210667c828492db98dca3e2076cc3735a920a3ca505d382bbd60001c61055591906106ec565b60001b6040518263ffffffff1660e01b81526004016105749190610739565b602060405180830381865af4158015610591573d6000803e3d6000fd5b505050506040513d601f19601f820116820180604052508101906105b5919061078a565b60000160006101000a81548173ffffffffffffffffffffffffffffffffffffffff021916908373ffffffffffffffffffffffffffffffffffffffff16021790555050565b600080fd5b600073ffffffffffffffffffffffffffffffffffffffff82169050919050565b6000610629826105fe565b9050919050565b6106398161061e565b811461064457600080fd5b50565b60008135905061065681610630565b92915050565b600060208284031215610672576106716105f9565b5b600061068084828501610647565b91505092915050565b6106928161061e565b82525050565b60006020820190506106ad6000830184610689565b92915050565b6000819050919050565b7f4e487b7100000000000000000000000000000000000000000000000000000000600052601160045260246000fd5b60006106f7826106b3565b9150610702836106b3565b925082820390508181111561071a576107196106bd565b5b92915050565b6000819050919050565b61073381610720565b82525050565b600060208201905061074e600083018461072a565b92915050565b6000819050919050565b61076781610754565b811461077257600080fd5b50565b6000815190506107848161075e565b92915050565b6000602082840312156107a05761079f6105f9565b5b60006107ae84828501610775565b9150509291505056fea2646970667358221220f4d983f9c4816f0ef2515325c87aa9e0fd670971ed63e8445eb3de19be2d8ae764736f6c63430008120033",
  "linkReferences": {
    "contracts/minting/libraries/StorageSlot.sol": {
      "StorageSlot": [
        {
          "length": 20,
          "start": 102
        },
        {
          "length": 20,
          "start": 1145
        },
        {
          "length": 20,
          "start": 1396
        },
        {
          "length": 20,
          "start": 1665
        },
        {
          "length": 20,
          "start": 1940
        }
      ]
    }
  },
  "deployedLinkReferences": {
    "contracts/minting/libraries/StorageSlot.sol": {
      "StorageSlot": [
        {
          "length": 20,
          "start": 498
        },
        {
          "length": 20,
          "start": 749
        },
        {
          "length": 20,
          "start": 1018
        },
        {
          "length": 20,
          "start": 1293
        }
      ]
    }
  }
}