{
  "_format": "hh-sol-artifact-1",
  "contractName": "DaapNFTCreator",
  "sourceName": "contracts/minting/Creator.sol",
  "abi": [
    {
      "inputs": [
        {
          "internalType": "address",
          "name": "_signer",
          "type": "address"
        }
      ],
      "stateMutability": "nonpayable",
      "type": "constructor"
    },
    {
      "anonymous": false,
      "inputs": [
        {
          "indexed": false,
          "internalType": "address",
          "name": "nftCollection",
          "type": "address"
        },
        {
          "indexed": false,
          "internalType": "uint256[]",
          "name": "prices",
          "type": "uint256[]"
        }
      ],
      "name": "AddNewCollection",
      "type": "event"
    },
    {
      "anonymous": false,
      "inputs": [
        {
          "indexed": false,
          "internalType": "uint8",
          "name": "version",
          "type": "uint8"
        }
      ],
      "name": "Initialized",
      "type": "event"
    },
    {
      "anonymous": false,
      "inputs": [
        {
          "indexed": false,
          "internalType": "uint8",
          "name": "nftType",
          "type": "uint8"
        },
        {
          "indexed": false,
          "internalType": "uint256",
          "name": "amount",
          "type": "uint256"
        },
        {
          "indexed": false,
          "internalType": "uint256",
          "name": "payAmount",
          "type": "uint256"
        },
        {
          "indexed": false,
          "internalType": "uint256",
          "name": "discount",
          "type": "uint256"
        },
        {
          "indexed": false,
          "internalType": "uint256",
          "name": "platformFee",
          "type": "uint256"
        },
        {
          "indexed": false,
          "internalType": "address",
          "name": "to",
          "type": "address"
        },
        {
          "indexed": false,
          "internalType": "address",
          "name": "_payToken",
          "type": "address"
        }
      ],
      "name": "MakingMintingAction",
      "type": "event"
    },
    {
      "anonymous": false,
      "inputs": [
        {
          "indexed": true,
          "internalType": "address",
          "name": "previousOwner",
          "type": "address"
        },
        {
          "indexed": true,
          "internalType": "address",
          "name": "newOwner",
          "type": "address"
        }
      ],
      "name": "OwnershipTransferred",
      "type": "event"
    },
    {
      "anonymous": false,
      "inputs": [
        {
          "indexed": false,
          "internalType": "address",
          "name": "account",
          "type": "address"
        }
      ],
      "name": "Paused",
      "type": "event"
    },
    {
      "anonymous": false,
      "inputs": [
        {
          "indexed": true,
          "internalType": "bytes32",
          "name": "role",
          "type": "bytes32"
        },
        {
          "indexed": true,
          "internalType": "bytes32",
          "name": "previousAdminRole",
          "type": "bytes32"
        },
        {
          "indexed": true,
          "internalType": "bytes32",
          "name": "newAdminRole",
          "type": "bytes32"
        }
      ],
      "name": "RoleAdminChanged",
      "type": "event"
    },
    {
      "anonymous": false,
      "inputs": [
        {
          "indexed": true,
          "internalType": "bytes32",
          "name": "role",
          "type": "bytes32"
        },
        {
          "indexed": true,
          "internalType": "address",
          "name": "account",
          "type": "address"
        },
        {
          "indexed": true,
          "internalType": "address",
          "name": "sender",
          "type": "address"
        }
      ],
      "name": "RoleGranted",
      "type": "event"
    },
    {
      "anonymous": false,
      "inputs": [
        {
          "indexed": true,
          "internalType": "bytes32",
          "name": "role",
          "type": "bytes32"
        },
        {
          "indexed": true,
          "internalType": "address",
          "name": "account",
          "type": "address"
        },
        {
          "indexed": true,
          "internalType": "address",
          "name": "sender",
          "type": "address"
        }
      ],
      "name": "RoleRevoked",
      "type": "event"
    },
    {
      "anonymous": false,
      "inputs": [
        {
          "indexed": false,
          "internalType": "address",
          "name": "oldCreator",
          "type": "address"
        },
        {
          "indexed": false,
          "internalType": "address",
          "name": "newCreator",
          "type": "address"
        },
        {
          "indexed": false,
          "internalType": "address",
          "name": "collection",
          "type": "address"
        }
      ],
      "name": "SetNewCreatorCollection",
      "type": "event"
    },
    {
      "anonymous": false,
      "inputs": [
        {
          "indexed": false,
          "internalType": "address",
          "name": "oldGatewayNFT",
          "type": "address"
        },
        {
          "indexed": false,
          "internalType": "address",
          "name": "gatewayNFT",
          "type": "address"
        }
      ],
      "name": "SetNewGateway",
      "type": "event"
    },
    {
      "anonymous": false,
      "inputs": [
        {
          "indexed": false,
          "internalType": "address",
          "name": "oldPayToken",
          "type": "address"
        },
        {
          "indexed": false,
          "internalType": "address",
          "name": "newPayToken",
          "type": "address"
        },
        {
          "indexed": false,
          "internalType": "address",
          "name": "creator",
          "type": "address"
        }
      ],
      "name": "SetNewPayToken",
      "type": "event"
    },
    {
      "anonymous": false,
      "inputs": [
        {
          "indexed": false,
          "internalType": "address",
          "name": "oldAddress",
          "type": "address"
        },
        {
          "indexed": false,
          "internalType": "address",
          "name": "newAddress",
          "type": "address"
        }
      ],
      "name": "SetNewPlatformFeeAddress",
      "type": "event"
    },
    {
      "anonymous": false,
      "inputs": [
        {
          "indexed": false,
          "internalType": "address",
          "name": "oldSigner",
          "type": "address"
        },
        {
          "indexed": false,
          "internalType": "address",
          "name": "newSigner",
          "type": "address"
        }
      ],
      "name": "SetNewSigner",
      "type": "event"
    },
    {
      "anonymous": false,
      "inputs": [
        {
          "indexed": false,
          "internalType": "address",
          "name": "oldTreasury",
          "type": "address"
        },
        {
          "indexed": false,
          "internalType": "address",
          "name": "newTreasury",
          "type": "address"
        }
      ],
      "name": "SetNewTreasury",
      "type": "event"
    },
    {
      "anonymous": false,
      "inputs": [
        {
          "indexed": false,
          "internalType": "address",
          "name": "account",
          "type": "address"
        }
      ],
      "name": "Unpaused",
      "type": "event"
    },
    {
      "anonymous": false,
      "inputs": [
        {
          "indexed": false,
          "internalType": "address",
          "name": "nftCollection",
          "type": "address"
        },
        {
          "indexed": false,
          "internalType": "uint8",
          "name": "rarity",
          "type": "uint8"
        },
        {
          "indexed": false,
          "internalType": "uint256",
          "name": "newPrice",
          "type": "uint256"
        }
      ],
      "name": "UpdatePrice",
      "type": "event"
    },
    {
      "inputs": [],
      "name": "DEFAULT_ADMIN_ROLE",
      "outputs": [
        {
          "internalType": "bytes32",
          "name": "",
          "type": "bytes32"
        }
      ],
      "stateMutability": "view",
      "type": "function"
    },
    {
      "inputs": [],
      "name": "PAUSER_ROLE",
      "outputs": [
        {
          "internalType": "bytes32",
          "name": "",
          "type": "bytes32"
        }
      ],
      "stateMutability": "view",
      "type": "function"
    },
    {
      "inputs": [],
      "name": "UPGRADER_ROLE",
      "outputs": [
        {
          "internalType": "bytes32",
          "name": "",
          "type": "bytes32"
        }
      ],
      "stateMutability": "view",
      "type": "function"
    },
    {
      "inputs": [],
      "name": "WITHDRAW_ROLE",
      "outputs": [
        {
          "internalType": "bytes32",
          "name": "",
          "type": "bytes32"
        }
      ],
      "stateMutability": "view",
      "type": "function"
    },
    {
      "inputs": [],
      "name": "gatewayNFT",
      "outputs": [
        {
          "internalType": "address",
          "name": "",
          "type": "address"
        }
      ],
      "stateMutability": "view",
      "type": "function"
    },
    {
      "inputs": [
        {
          "internalType": "bytes32",
          "name": "role",
          "type": "bytes32"
        }
      ],
      "name": "getRoleAdmin",
      "outputs": [
        {
          "internalType": "bytes32",
          "name": "",
          "type": "bytes32"
        }
      ],
      "stateMutability": "view",
      "type": "function"
    },
    {
      "inputs": [
        {
          "internalType": "bytes32",
          "name": "role",
          "type": "bytes32"
        },
        {
          "internalType": "address",
          "name": "account",
          "type": "address"
        }
      ],
      "name": "grantRole",
      "outputs": [],
      "stateMutability": "nonpayable",
      "type": "function"
    },
    {
      "inputs": [
        {
          "internalType": "bytes32",
          "name": "role",
          "type": "bytes32"
        },
        {
          "internalType": "address",
          "name": "account",
          "type": "address"
        }
      ],
      "name": "hasRole",
      "outputs": [
        {
          "internalType": "bool",
          "name": "",
          "type": "bool"
        }
      ],
      "stateMutability": "view",
      "type": "function"
    },
    {
      "inputs": [],
      "name": "inZTreasury",
      "outputs": [
        {
          "internalType": "address",
          "name": "",
          "type": "address"
        }
      ],
      "stateMutability": "view",
      "type": "function"
    },
    {
      "inputs": [
        {
          "internalType": "address",
          "name": "_nftConfiguration",
          "type": "address"
        },
        {
          "internalType": "address",
          "name": "_treasury",
          "type": "address"
        },
        {
          "internalType": "address",
          "name": "_gatewayNFT",
          "type": "address"
        },
        {
          "internalType": "address",
          "name": "_plaformFeeAddress",
          "type": "address"
        }
      ],
      "name": "initialize",
      "outputs": [],
      "stateMutability": "nonpayable",
      "type": "function"
    },
    {
      "inputs": [
        {
          "internalType": "contract ICampaignNFT",
          "name": "_nftCollection",
          "type": "address"
        },
        {
          "internalType": "uint8",
          "name": "_nftType",
          "type": "uint8"
        },
        {
          "internalType": "uint256",
          "name": "_amount",
          "type": "uint256"
        },
        {
          "internalType": "uint256",
          "name": "_discount",
          "type": "uint256"
        },
        {
          "internalType": "uint256",
          "name": "_platformFee",
          "type": "uint256"
        },
        {
          "internalType": "bool",
          "name": "_isWhitelistMint",
          "type": "bool"
        },
        {
          "components": [
            {
              "internalType": "uint8",
              "name": "v",
              "type": "uint8"
            },
            {
              "internalType": "bytes32",
              "name": "r",
              "type": "bytes32"
            },
            {
              "internalType": "bytes32",
              "name": "s",
              "type": "bytes32"
            },
            {
              "internalType": "uint256",
              "name": "deadline",
              "type": "uint256"
            }
          ],
          "internalType": "struct IDappCreator.Proof",
          "name": "_proof",
          "type": "tuple"
        },
        {
          "internalType": "string",
          "name": "_callbackData",
          "type": "string"
        },
        {
          "internalType": "address",
          "name": "_to",
          "type": "address"
        }
      ],
      "name": "makeMintingAction",
      "outputs": [],
      "stateMutability": "payable",
      "type": "function"
    },
    {
      "inputs": [
        {
          "internalType": "contract ICampaignNFT",
          "name": "_nftCollection",
          "type": "address"
        },
        {
          "internalType": "uint8",
          "name": "_nftType",
          "type": "uint8"
        },
        {
          "internalType": "uint256",
          "name": "_amount",
          "type": "uint256"
        },
        {
          "internalType": "uint256",
          "name": "_platformFee",
          "type": "uint256"
        },
        {
          "internalType": "uint256",
          "name": "_discount",
          "type": "uint256"
        },
        {
          "internalType": "bool",
          "name": "_isWhitelistMint",
          "type": "bool"
        },
        {
          "components": [
            {
              "internalType": "uint8",
              "name": "v",
              "type": "uint8"
            },
            {
              "internalType": "bytes32",
              "name": "r",
              "type": "bytes32"
            },
            {
              "internalType": "bytes32",
              "name": "s",
              "type": "bytes32"
            },
            {
              "internalType": "uint256",
              "name": "deadline",
              "type": "uint256"
            }
          ],
          "internalType": "struct IDappCreator.Proof",
          "name": "_proof",
          "type": "tuple"
        },
        {
          "internalType": "string",
          "name": "_callbackData",
          "type": "string"
        },
        {
          "internalType": "address",
          "name": "_to",
          "type": "address"
        }
      ],
      "name": "mintingFromGateway",
      "outputs": [],
      "stateMutability": "payable",
      "type": "function"
    },
    {
      "inputs": [],
      "name": "nftConfiguration",
      "outputs": [
        {
          "internalType": "address",
          "name": "",
          "type": "address"
        }
      ],
      "stateMutability": "view",
      "type": "function"
    },
    {
      "inputs": [],
      "name": "owner",
      "outputs": [
        {
          "internalType": "address",
          "name": "",
          "type": "address"
        }
      ],
      "stateMutability": "view",
      "type": "function"
    },
    {
      "inputs": [],
      "name": "pause",
      "outputs": [],
      "stateMutability": "nonpayable",
      "type": "function"
    },
    {
      "inputs": [],
      "name": "paused",
      "outputs": [
        {
          "internalType": "bool",
          "name": "",
          "type": "bool"
        }
      ],
      "stateMutability": "view",
      "type": "function"
    },
    {
      "inputs": [],
      "name": "platformFeeAddress",
      "outputs": [
        {
          "internalType": "address",
          "name": "",
          "type": "address"
        }
      ],
      "stateMutability": "view",
      "type": "function"
    },
    {
      "inputs": [],
      "name": "renounceOwnership",
      "outputs": [],
      "stateMutability": "nonpayable",
      "type": "function"
    },
    {
      "inputs": [
        {
          "internalType": "bytes32",
          "name": "role",
          "type": "bytes32"
        },
        {
          "internalType": "address",
          "name": "account",
          "type": "address"
        }
      ],
      "name": "renounceRole",
      "outputs": [],
      "stateMutability": "nonpayable",
      "type": "function"
    },
    {
      "inputs": [
        {
          "internalType": "bytes32",
          "name": "role",
          "type": "bytes32"
        },
        {
          "internalType": "address",
          "name": "account",
          "type": "address"
        }
      ],
      "name": "revokeRole",
      "outputs": [],
      "stateMutability": "nonpayable",
      "type": "function"
    },
    {
      "inputs": [
        {
          "internalType": "address",
          "name": "_gateway",
          "type": "address"
        }
      ],
      "name": "setNewGateway",
      "outputs": [],
      "stateMutability": "nonpayable",
      "type": "function"
    },
    {
      "inputs": [
        {
          "internalType": "address",
          "name": "_newSigner",
          "type": "address"
        }
      ],
      "name": "setNewSigner",
      "outputs": [],
      "stateMutability": "nonpayable",
      "type": "function"
    },
    {
      "inputs": [
        {
          "internalType": "address",
          "name": "_treasury",
          "type": "address"
        }
      ],
      "name": "setNewTreasury",
      "outputs": [],
      "stateMutability": "nonpayable",
      "type": "function"
    },
    {
      "inputs": [
        {
          "internalType": "address",
          "name": "_newPayToken",
          "type": "address"
        },
        {
          "internalType": "address",
          "name": "_collectionAddress",
          "type": "address"
        }
      ],
      "name": "setPayToken",
      "outputs": [],
      "stateMutability": "nonpayable",
      "type": "function"
    },
    {
      "inputs": [
        {
          "internalType": "address",
          "name": "_newPlaformFee",
          "type": "address"
        }
      ],
      "name": "setPlatformFee",
      "outputs": [],
      "stateMutability": "nonpayable",
      "type": "function"
    },
    {
      "inputs": [],
      "name": "signer",
      "outputs": [
        {
          "internalType": "address",
          "name": "",
          "type": "address"
        }
      ],
      "stateMutability": "view",
      "type": "function"
    },
    {
      "inputs": [
        {
          "internalType": "bytes4",
          "name": "interfaceId",
          "type": "bytes4"
        }
      ],
      "name": "supportsInterface",
      "outputs": [
        {
          "internalType": "bool",
          "name": "",
          "type": "bool"
        }
      ],
      "stateMutability": "view",
      "type": "function"
    },
    {
      "inputs": [
        {
          "internalType": "address",
          "name": "newOwner",
          "type": "address"
        }
      ],
      "name": "transferOwnership",
      "outputs": [],
      "stateMutability": "nonpayable",
      "type": "function"
    },
    {
      "inputs": [],
      "name": "unpause",
      "outputs": [],
      "stateMutability": "nonpayable",
      "type": "function"
    },
    {
      "inputs": [
        {
          "internalType": "address",
          "name": "_newCreator",
          "type": "address"
        },
        {
          "internalType": "address",
          "name": "_collectionAddress",
          "type": "address"
        }
      ],
      "name": "updateCreatorCollection",
      "outputs": [],
      "stateMutability": "nonpayable",
      "type": "function"
    }
  ],
  "bytecode": "0x60806040523480156200001157600080fd5b506040516200401a3803806200401a8339818101604052810190620000379190620000e9565b8060fb60006101000a81548173ffffffffffffffffffffffffffffffffffffffff021916908373ffffffffffffffffffffffffffffffffffffffff160217905550506200011b565b600080fd5b600073ffffffffffffffffffffffffffffffffffffffff82169050919050565b6000620000b18262000084565b9050919050565b620000c381620000a4565b8114620000cf57600080fd5b50565b600081519050620000e381620000b8565b92915050565b6000602082840312156200010257620001016200007f565b5b60006200011284828501620000d2565b91505092915050565b613eef806200012b6000396000f3fe6080604052600436106101cd5760003560e01c806391d14854116100f7578063d547741f11610095578063ed14834f11610064578063ed14834f146105fa578063f2fde38b14610625578063f72c0d8b1461064e578063f8c8765e14610679576101cd565b8063d547741f14610550578063d6a02bab14610579578063e02023a1146105a4578063e63ab1e9146105cf576101cd565b8063a1bf2f23116100d1578063a1bf2f23146104aa578063a217fddf146104d3578063a4b68c72146104fe578063ad6a3db214610527576101cd565b806391d148541461042857806392b78767146104655780639f487c2a14610481576101cd565b806336568abe1161016f578063715018a61161013e578063715018a6146103a65780638456cb59146103bd5780638da5cb5b146103d45780638f9a372d146103ff576101cd565b806336568abe146103105780633f4ba83a146103395780634587a610146103505780635c975abb1461037b576101cd565b80630f9c5d9e116101ab5780630f9c5d9e14610256578063238ac9331461027f578063248a9ca3146102aa5780632f2ff15d146102e7576101cd565b806301ffc9a7146101d25780630750349f1461020f57806307ae52f91461022b575b600080fd5b3480156101de57600080fd5b506101f960048036038101906101f491906129b4565b6106a2565b60405161020691906129fc565b60405180910390f35b61022960048036038101906102249190612d47565b61071c565b005b34801561023757600080fd5b506102406107ef565b60405161024d9190612e3d565b60405180910390f35b34801561026257600080fd5b5061027d60048036038101906102789190612e58565b610815565b005b34801561028b57600080fd5b506102946108e5565b6040516102a19190612e3d565b60405180910390f35b3480156102b657600080fd5b506102d160048036038101906102cc9190612e85565b61090b565b6040516102de9190612ec1565b60405180910390f35b3480156102f357600080fd5b5061030e60048036038101906103099190612edc565b61092b565b005b34801561031c57600080fd5b5061033760048036038101906103329190612edc565b61094c565b005b34801561034557600080fd5b5061034e6109cf565b005b34801561035c57600080fd5b50610365610a04565b6040516103729190612e3d565b60405180910390f35b34801561038757600080fd5b50610390610a2a565b60405161039d91906129fc565b60405180910390f35b3480156103b257600080fd5b506103bb610a41565b005b3480156103c957600080fd5b506103d2610a55565b005b3480156103e057600080fd5b506103e9610a8a565b6040516103f69190612e3d565b60405180910390f35b34801561040b57600080fd5b5061042660048036038101906104219190612e58565b610ab4565b005b34801561043457600080fd5b5061044f600480360381019061044a9190612edc565b610b84565b60405161045c91906129fc565b60405180910390f35b61047f600480360381019061047a9190612d47565b610bef565b005b34801561048d57600080fd5b506104a860048036038101906104a39190612f1c565b610c9b565b005b3480156104b657600080fd5b506104d160048036038101906104cc9190612f1c565b610fe8565b005b3480156104df57600080fd5b506104e8611293565b6040516104f59190612ec1565b60405180910390f35b34801561050a57600080fd5b5061052560048036038101906105209190612e58565b61129a565b005b34801561053357600080fd5b5061054e60048036038101906105499190612e58565b61138c565b005b34801561055c57600080fd5b5061057760048036038101906105729190612edc565b6114ec565b005b34801561058557600080fd5b5061058e61150d565b60405161059b9190612e3d565b60405180910390f35b3480156105b057600080fd5b506105b9611533565b6040516105c69190612ec1565b60405180910390f35b3480156105db57600080fd5b506105e4611557565b6040516105f19190612ec1565b60405180910390f35b34801561060657600080fd5b5061060f61157b565b60405161061c9190612e3d565b60405180910390f35b34801561063157600080fd5b5061064c60048036038101906106479190612e58565b6115a1565b005b34801561065a57600080fd5b50610663611624565b6040516106709190612ec1565b60405180910390f35b34801561068557600080fd5b506106a0600480360381019061069b9190612f5c565b611648565b005b60007f7965db0b000000000000000000000000000000000000000000000000000000007bffffffffffffffffffffffffffffffffffffffffffffffffffffffff1916827bffffffffffffffffffffffffffffffffffffffffffffffffffffffff19161480610715575061071482611921565b5b9050919050565b6107253361198b565b15610765576040517f08c379a000000000000000000000000000000000000000000000000000000000815260040161075c90613020565b60405180910390fd5b3273ffffffffffffffffffffffffffffffffffffffff163373ffffffffffffffffffffffffffffffffffffffff16146107d3576040517f08c379a00000000000000000000000000000000000000000000000000000000081526004016107ca9061308c565b60405180910390fd5b6107e489898989898989898961199e565b505050505050505050565b60fe60009054906101000a900473ffffffffffffffffffffffffffffffffffffffff1681565b7f189ab7a9244df0848122154315af71fe140f3db0fe014031783b0946b8c9d2e361083f81611f55565b600060fb60009054906101000a900473ffffffffffffffffffffffffffffffffffffffff1690508260fb60006101000a81548173ffffffffffffffffffffffffffffffffffffffff021916908373ffffffffffffffffffffffffffffffffffffffff1602179055507f2d9138ac99bbbec57529e6d022f34460f90372c0ed9da7aa4177ad1c41ac140281846040516108d89291906130ac565b60405180910390a1505050565b60fb60009054906101000a900473ffffffffffffffffffffffffffffffffffffffff1681565b600060656000838152602001908152602001600020600101549050919050565b6109348261090b565b61093d81611f55565b6109478383611f69565b505050565b61095461204a565b73ffffffffffffffffffffffffffffffffffffffff168173ffffffffffffffffffffffffffffffffffffffff16146109c1576040517f08c379a00000000000000000000000000000000000000000000000000000000081526004016109b890613147565b60405180910390fd5b6109cb8282612052565b5050565b7f65d7a28e3265b37a6474929f336521b332c1681b933f6cb9f3376673440d862a6109f981611f55565b610a01612134565b50565b60fc60009054906101000a900473ffffffffffffffffffffffffffffffffffffffff1681565b6000609760009054906101000a900460ff16905090565b610a49612197565b610a536000612215565b565b7f65d7a28e3265b37a6474929f336521b332c1681b933f6cb9f3376673440d862a610a7f81611f55565b610a876122db565b50565b600060c960009054906101000a900473ffffffffffffffffffffffffffffffffffffffff16905090565b7f189ab7a9244df0848122154315af71fe140f3db0fe014031783b0946b8c9d2e3610ade81611f55565b600060fd60009054906101000a900473ffffffffffffffffffffffffffffffffffffffff1690508260fd60006101000a81548173ffffffffffffffffffffffffffffffffffffffff021916908373ffffffffffffffffffffffffffffffffffffffff1602179055507f2e6f85eaa6794d56f2c54cb27779b977c2e25d062158139dfc565e82467be8e38184604051610b779291906130ac565b60405180910390a1505050565b60006065600084815260200190815260200160002060000160008373ffffffffffffffffffffffffffffffffffffffff1673ffffffffffffffffffffffffffffffffffffffff16815260200190815260200160002060009054906101000a900460ff16905092915050565b60fe60009054906101000a900473ffffffffffffffffffffffffffffffffffffffff1673ffffffffffffffffffffffffffffffffffffffff163373ffffffffffffffffffffffffffffffffffffffff1614610c7f576040517f08c379a0000000000000000000000000000000000000000000000000000000008152600401610c769061308c565b60405180910390fd5b610c90898989888a8989898961199e565b505050505050505050565b803273ffffffffffffffffffffffffffffffffffffffff1660fc60009054906101000a900473ffffffffffffffffffffffffffffffffffffffff1673ffffffffffffffffffffffffffffffffffffffff1663adb8cbee836040518263ffffffff1660e01b8152600401610d0e9190612e3d565b602060405180830381865afa158015610d2b573d6000803e3d6000fd5b505050506040513d601f19601f82011682018060405250810190610d4f919061317c565b73ffffffffffffffffffffffffffffffffffffffff161480610e395750600073ffffffffffffffffffffffffffffffffffffffff1660fc60009054906101000a900473ffffffffffffffffffffffffffffffffffffffff1673ffffffffffffffffffffffffffffffffffffffff1663adb8cbee836040518263ffffffff1660e01b8152600401610ddf9190612e3d565b602060405180830381865afa158015610dfc573d6000803e3d6000fd5b505050506040513d601f19601f82011682018060405250810190610e20919061317c565b73ffffffffffffffffffffffffffffffffffffffff1614155b610e78576040517f08c379a0000000000000000000000000000000000000000000000000000000008152600401610e6f906131f5565b60405180910390fd5b600060fc60009054906101000a900473ffffffffffffffffffffffffffffffffffffffff1673ffffffffffffffffffffffffffffffffffffffff166329c4c28d846040518263ffffffff1660e01b8152600401610ed59190612e3d565b602060405180830381865afa158015610ef2573d6000803e3d6000fd5b505050506040513d601f19601f82011682018060405250810190610f16919061317c565b905060fc60009054906101000a900473ffffffffffffffffffffffffffffffffffffffff1673ffffffffffffffffffffffffffffffffffffffff1663ad0b88cb84866040518363ffffffff1660e01b8152600401610f759291906130ac565b600060405180830381600087803b158015610f8f57600080fd5b505af1158015610fa3573d6000803e3d6000fd5b505050507f8998983b686885812d788558d18158ad753491fb4564e1c7e438c2f282718c6e818533604051610fda93929190613215565b60405180910390a150505050565b803273ffffffffffffffffffffffffffffffffffffffff1660fc60009054906101000a900473ffffffffffffffffffffffffffffffffffffffff1673ffffffffffffffffffffffffffffffffffffffff1663adb8cbee836040518263ffffffff1660e01b815260040161105b9190612e3d565b602060405180830381865afa158015611078573d6000803e3d6000fd5b505050506040513d601f19601f8201168201806040525081019061109c919061317c565b73ffffffffffffffffffffffffffffffffffffffff1614806111865750600073ffffffffffffffffffffffffffffffffffffffff1660fc60009054906101000a900473ffffffffffffffffffffffffffffffffffffffff1673ffffffffffffffffffffffffffffffffffffffff1663adb8cbee836040518263ffffffff1660e01b815260040161112c9190612e3d565b602060405180830381865afa158015611149573d6000803e3d6000fd5b505050506040513d601f19601f8201168201806040525081019061116d919061317c565b73ffffffffffffffffffffffffffffffffffffffff1614155b6111c5576040517f08c379a00000000000000000000000000000000000000000000000000000000081526004016111bc906131f5565b60405180910390fd5b60fc60009054906101000a900473ffffffffffffffffffffffffffffffffffffffff1673ffffffffffffffffffffffffffffffffffffffff1663a1bf2f2384846040518363ffffffff1660e01b81526004016112229291906130ac565b600060405180830381600087803b15801561123c57600080fd5b505af1158015611250573d6000803e3d6000fd5b505050507e24dcab3a6d2482720bdf14d73cd10fe70744150d98c3a6a5bce451cb046a9233848460405161128693929190613215565b60405180910390a1505050565b6000801b81565b7f189ab7a9244df0848122154315af71fe140f3db0fe014031783b0946b8c9d2e36112c481611f55565b600060fe60009054906101000a900473ffffffffffffffffffffffffffffffffffffffff1690508260fe60006101000a81548173ffffffffffffffffffffffffffffffffffffffff021916908373ffffffffffffffffffffffffffffffffffffffff1602179055507f7dd3ad73fe909f559cc651212340a0979c92b4cb9d72b304a1d39b3e9253564e8160fe60009054906101000a900473ffffffffffffffffffffffffffffffffffffffff1660405161137f9291906130ac565b60405180910390a1505050565b7f189ab7a9244df0848122154315af71fe140f3db0fe014031783b0946b8c9d2e36113b681611f55565b8173ffffffffffffffffffffffffffffffffffffffff1660ff60009054906101000a900473ffffffffffffffffffffffffffffffffffffffff1673ffffffffffffffffffffffffffffffffffffffff1603611446576040517f08c379a000000000000000000000000000000000000000000000000000000000815260040161143d906132be565b60405180910390fd5b600060ff60009054906101000a900473ffffffffffffffffffffffffffffffffffffffff1690508260ff60006101000a81548173ffffffffffffffffffffffffffffffffffffffff021916908373ffffffffffffffffffffffffffffffffffffffff1602179055507ff23c9e33caae5bd67f15268ce107eca5d2763da50d36ec0dded11403ab03109c81846040516114df9291906130ac565b60405180910390a1505050565b6114f58261090b565b6114fe81611f55565b6115088383612052565b505050565b60fd60009054906101000a900473ffffffffffffffffffffffffffffffffffffffff1681565b7f5d8e12c39142ff96d79d04d15d1ba1269e4fe57bb9d26f43523628b34ba108ec81565b7f65d7a28e3265b37a6474929f336521b332c1681b933f6cb9f3376673440d862a81565b60ff60009054906101000a900473ffffffffffffffffffffffffffffffffffffffff1681565b6115a9612197565b600073ffffffffffffffffffffffffffffffffffffffff168173ffffffffffffffffffffffffffffffffffffffff1603611618576040517f08c379a000000000000000000000000000000000000000000000000000000000815260040161160f90613350565b60405180910390fd5b61162181612215565b50565b7f189ab7a9244df0848122154315af71fe140f3db0fe014031783b0946b8c9d2e381565b60008060019054906101000a900460ff161590508080156116795750600160008054906101000a900460ff1660ff16105b806116a657506116883061233e565b1580156116a55750600160008054906101000a900460ff1660ff16145b5b6116e5576040517f08c379a00000000000000000000000000000000000000000000000000000000081526004016116dc906133e2565b60405180910390fd5b60016000806101000a81548160ff021916908360ff1602179055508015611722576001600060016101000a81548160ff0219169083151502179055505b61172a612361565b6117326123b2565b61173f6000801b3361240b565b6117697f65d7a28e3265b37a6474929f336521b332c1681b933f6cb9f3376673440d862a3361240b565b6117937f189ab7a9244df0848122154315af71fe140f3db0fe014031783b0946b8c9d2e33361240b565b6117bd7f5d8e12c39142ff96d79d04d15d1ba1269e4fe57bb9d26f43523628b34ba108ec3361240b565b8460fc60006101000a81548173ffffffffffffffffffffffffffffffffffffffff021916908373ffffffffffffffffffffffffffffffffffffffff1602179055508360fd60006101000a81548173ffffffffffffffffffffffffffffffffffffffff021916908373ffffffffffffffffffffffffffffffffffffffff1602179055508260fe60006101000a81548173ffffffffffffffffffffffffffffffffffffffff021916908373ffffffffffffffffffffffffffffffffffffffff1602179055508160ff60006101000a81548173ffffffffffffffffffffffffffffffffffffffff021916908373ffffffffffffffffffffffffffffffffffffffff160217905550801561191a5760008060016101000a81548160ff0219169083151502179055507f7f26b83ff96e1f2b6a682f133852f6798a09c465da95921460cefb384740249860016040516119119190613447565b60405180910390a15b5050505050565b60007f01ffc9a7000000000000000000000000000000000000000000000000000000007bffffffffffffffffffffffffffffffffffffffffffffffffffffffff1916827bffffffffffffffffffffffffffffffffffffffffffffffffffffffff1916149050919050565b600080823b905060008111915050919050565b600087116119e1576040517f08c379a00000000000000000000000000000000000000000000000000000000081526004016119d8906134d4565b60405180910390fd5b60fc60009054906101000a900473ffffffffffffffffffffffffffffffffffffffff1673ffffffffffffffffffffffffffffffffffffffff1663c6ce91d48a8a6040518363ffffffff1660e01b8152600401611a3e929190613503565b602060405180830381865afa158015611a5b573d6000803e3d6000fd5b505050506040513d601f19601f82011682018060405250810190611a7f9190613541565b611abe576040517f08c379a0000000000000000000000000000000000000000000000000000000008152600401611ab5906135ba565b60405180910390fd5b611af060fb60009054906101000a900473ffffffffffffffffffffffffffffffffffffffff168a88878c8c8b8a612419565b611b2f576040517f08c379a0000000000000000000000000000000000000000000000000000000008152600401611b2690613626565b60405180910390fd5b84341015611b72576040517f08c379a0000000000000000000000000000000000000000000000000000000008152600401611b6990613692565b60405180910390fd5b60ff60009054906101000a900473ffffffffffffffffffffffffffffffffffffffff1673ffffffffffffffffffffffffffffffffffffffff166108fc869081150290604051600060405180830381858888f19350505050158015611bda573d6000803e3d6000fd5b5060008060fc60009054906101000a900473ffffffffffffffffffffffffffffffffffffffff1673ffffffffffffffffffffffffffffffffffffffff166389d983ef8c8c6040518363ffffffff1660e01b8152600401611c3b929190613503565b6040805180830381865afa158015611c57573d6000803e3d6000fd5b505050506040513d601f19601f82011682018060405250810190611c7b91906136c7565b915091506000821115611e94578882611c949190613736565b91508782611ca29190613778565b9150818173ffffffffffffffffffffffffffffffffffffffff166370a08231336040518263ffffffff1660e01b8152600401611cde9190612e3d565b602060405180830381865afa158015611cfb573d6000803e3d6000fd5b505050506040513d601f19601f82011682018060405250810190611d1f91906137ac565b11611d5f576040517f08c379a0000000000000000000000000000000000000000000000000000000008152600401611d569061384b565b60405180910390fd5b8073ffffffffffffffffffffffffffffffffffffffff166323b872dd3360fd60009054906101000a900473ffffffffffffffffffffffffffffffffffffffff16856040518463ffffffff1660e01b8152600401611dbe9392919061387a565b6020604051808303816000875af1158015611ddd573d6000803e3d6000fd5b505050506040513d601f19601f82011682018060405250810190611e019190613541565b5060fd60009054906101000a900473ffffffffffffffffffffffffffffffffffffffff1673ffffffffffffffffffffffffffffffffffffffff166371c4d52f8c83856040518463ffffffff1660e01b8152600401611e619392919061387a565b600060405180830381600087803b158015611e7b57600080fd5b505af1158015611e8f573d6000803e3d6000fd5b505050505b8a73ffffffffffffffffffffffffffffffffffffffff166392c0f3d78a8c86886040518563ffffffff1660e01b8152600401611ed3949392919061391f565b600060405180830381600087803b158015611eed57600080fd5b505af1158015611f01573d6000803e3d6000fd5b505050507f357f2d2db1e4baf673c1b8a8708e49f9a32e5b6f62441bff52d2a8763f385e008a8a848b8b8887604051611f40979695949392919061396b565b60405180910390a15050505050505050505050565b611f6681611f6161204a565b61254e565b50565b611f738282610b84565b6120465760016065600084815260200190815260200160002060000160008373ffffffffffffffffffffffffffffffffffffffff1673ffffffffffffffffffffffffffffffffffffffff16815260200190815260200160002060006101000a81548160ff021916908315150217905550611feb61204a565b73ffffffffffffffffffffffffffffffffffffffff168173ffffffffffffffffffffffffffffffffffffffff16837f2f8788117e7eff1d82e926ec794901d17c78024a50270940304540a733656f0d60405160405180910390a45b5050565b600033905090565b61205c8282610b84565b156121305760006065600084815260200190815260200160002060000160008373ffffffffffffffffffffffffffffffffffffffff1673ffffffffffffffffffffffffffffffffffffffff16815260200190815260200160002060006101000a81548160ff0219169083151502179055506120d561204a565b73ffffffffffffffffffffffffffffffffffffffff168173ffffffffffffffffffffffffffffffffffffffff16837ff6391f5c32d9c69d2a47ea670b442974b53935d1edc7fd64eb21e047a839171b60405160405180910390a45b5050565b61213c6125d3565b6000609760006101000a81548160ff0219169083151502179055507f5db9ee0a495bf2e6ff9c91a7834c1ba4fdd244a5e8aa4e537bd38aeae4b073aa61218061204a565b60405161218d9190612e3d565b60405180910390a1565b61219f61204a565b73ffffffffffffffffffffffffffffffffffffffff166121bd610a8a565b73ffffffffffffffffffffffffffffffffffffffff1614612213576040517f08c379a000000000000000000000000000000000000000000000000000000000815260040161220a90613a26565b60405180910390fd5b565b600060c960009054906101000a900473ffffffffffffffffffffffffffffffffffffffff1690508160c960006101000a81548173ffffffffffffffffffffffffffffffffffffffff021916908373ffffffffffffffffffffffffffffffffffffffff1602179055508173ffffffffffffffffffffffffffffffffffffffff168173ffffffffffffffffffffffffffffffffffffffff167f8be0079c531659141344cd1fd0a4f28419497f9722a3daafe3b4186f6b6457e060405160405180910390a35050565b6122e361261c565b6001609760006101000a81548160ff0219169083151502179055507f62e78cea01bee320cd4e420270b5ea74000d11b0c9f74754ebdbfc544b05a25861232761204a565b6040516123349190612e3d565b60405180910390a1565b6000808273ffffffffffffffffffffffffffffffffffffffff163b119050919050565b600060019054906101000a900460ff166123b0576040517f08c379a00000000000000000000000000000000000000000000000000000000081526004016123a790613ab8565b60405180910390fd5b565b600060019054906101000a900460ff16612401576040517f08c379a00000000000000000000000000000000000000000000000000000000081526004016123f890613ab8565b60405180910390fd5b612409612666565b565b6124158282611f69565b5050565b60008073ffffffffffffffffffffffffffffffffffffffff168973ffffffffffffffffffffffffffffffffffffffff16036124575760019050612542565b60006124616126d2565b32308b8b8b8b8b8b8b606001516040516020016124879a99989796959493929190613ad8565b6040516020818303038152906040528051906020012090506000600182856000015186602001518760400151604051600081526020016040526040516124d09493929190613b74565b6020604051602081039080840390855afa1580156124f2573d6000803e3d6000fd5b5050506020604051035190508a73ffffffffffffffffffffffffffffffffffffffff168173ffffffffffffffffffffffffffffffffffffffff1614801561253d575042846060015110155b925050505b98975050505050505050565b6125588282610b84565b6125cf57612565816126df565b6125738360001c602061270c565b604051602001612584929190613c8d565b6040516020818303038152906040526040517f08c379a00000000000000000000000000000000000000000000000000000000081526004016125c69190613cc7565b60405180910390fd5b5050565b6125db610a2a565b61261a576040517f08c379a000000000000000000000000000000000000000000000000000000000815260040161261190613d35565b60405180910390fd5b565b612624610a2a565b15612664576040517f08c379a000000000000000000000000000000000000000000000000000000000815260040161265b90613da1565b60405180910390fd5b565b600060019054906101000a900460ff166126b5576040517f08c379a00000000000000000000000000000000000000000000000000000000081526004016126ac90613ab8565b60405180910390fd5b6000609760006101000a81548160ff021916908315150217905550565b6000804690508091505090565b60606127058273ffffffffffffffffffffffffffffffffffffffff16601460ff1661270c565b9050919050565b60606000600283600261271f9190613736565b6127299190613dc1565b67ffffffffffffffff81111561274257612741612b38565b5b6040519080825280601f01601f1916602001820160405280156127745781602001600182028036833780820191505090505b5090507f3000000000000000000000000000000000000000000000000000000000000000816000815181106127ac576127ab613df5565b5b60200101907effffffffffffffffffffffffffffffffffffffffffffffffffffffffffffff1916908160001a9053507f7800000000000000000000000000000000000000000000000000000000000000816001815181106128105761280f613df5565b5b60200101907effffffffffffffffffffffffffffffffffffffffffffffffffffffffffffff1916908160001a905350600060018460026128509190613736565b61285a9190613dc1565b90505b60018111156128fa577f3031323334353637383961626364656600000000000000000000000000000000600f86166010811061289c5761289b613df5565b5b1a60f81b8282815181106128b3576128b2613df5565b5b60200101907effffffffffffffffffffffffffffffffffffffffffffffffffffffffffffff1916908160001a905350600485901c9450806128f390613e24565b905061285d565b506000841461293e576040517f08c379a000000000000000000000000000000000000000000000000000000000815260040161293590613e99565b60405180910390fd5b8091505092915050565b6000604051905090565b600080fd5b600080fd5b60007fffffffff0000000000000000000000000000000000000000000000000000000082169050919050565b6129918161295c565b811461299c57600080fd5b50565b6000813590506129ae81612988565b92915050565b6000602082840312156129ca576129c9612952565b5b60006129d88482850161299f565b91505092915050565b60008115159050919050565b6129f6816129e1565b82525050565b6000602082019050612a1160008301846129ed565b92915050565b600073ffffffffffffffffffffffffffffffffffffffff82169050919050565b6000612a4282612a17565b9050919050565b6000612a5482612a37565b9050919050565b612a6481612a49565b8114612a6f57600080fd5b50565b600081359050612a8181612a5b565b92915050565b600060ff82169050919050565b612a9d81612a87565b8114612aa857600080fd5b50565b600081359050612aba81612a94565b92915050565b6000819050919050565b612ad381612ac0565b8114612ade57600080fd5b50565b600081359050612af081612aca565b92915050565b612aff816129e1565b8114612b0a57600080fd5b50565b600081359050612b1c81612af6565b92915050565b600080fd5b6000601f19601f8301169050919050565b7f4e487b7100000000000000000000000000000000000000000000000000000000600052604160045260246000fd5b612b7082612b27565b810181811067ffffffffffffffff82111715612b8f57612b8e612b38565b5b80604052505050565b6000612ba2612948565b9050612bae8282612b67565b919050565b6000819050919050565b612bc681612bb3565b8114612bd157600080fd5b50565b600081359050612be381612bbd565b92915050565b600060808284031215612bff57612bfe612b22565b5b612c096080612b98565b90506000612c1984828501612aab565b6000830152506020612c2d84828501612bd4565b6020830152506040612c4184828501612bd4565b6040830152506060612c5584828501612ae1565b60608301525092915050565b600080fd5b600080fd5b600067ffffffffffffffff821115612c8657612c85612b38565b5b612c8f82612b27565b9050602081019050919050565b82818337600083830152505050565b6000612cbe612cb984612c6b565b612b98565b905082815260208101848484011115612cda57612cd9612c66565b5b612ce5848285612c9c565b509392505050565b600082601f830112612d0257612d01612c61565b5b8135612d12848260208601612cab565b91505092915050565b612d2481612a37565b8114612d2f57600080fd5b50565b600081359050612d4181612d1b565b92915050565b60008060008060008060008060006101808a8c031215612d6a57612d69612952565b5b6000612d788c828d01612a72565b9950506020612d898c828d01612aab565b9850506040612d9a8c828d01612ae1565b9750506060612dab8c828d01612ae1565b9650506080612dbc8c828d01612ae1565b95505060a0612dcd8c828d01612b0d565b94505060c0612dde8c828d01612be9565b9350506101408a013567ffffffffffffffff811115612e0057612dff612957565b5b612e0c8c828d01612ced565b925050610160612e1e8c828d01612d32565b9150509295985092959850929598565b612e3781612a37565b82525050565b6000602082019050612e526000830184612e2e565b92915050565b600060208284031215612e6e57612e6d612952565b5b6000612e7c84828501612d32565b91505092915050565b600060208284031215612e9b57612e9a612952565b5b6000612ea984828501612bd4565b91505092915050565b612ebb81612bb3565b82525050565b6000602082019050612ed66000830184612eb2565b92915050565b60008060408385031215612ef357612ef2612952565b5b6000612f0185828601612bd4565b9250506020612f1285828601612d32565b9150509250929050565b60008060408385031215612f3357612f32612952565b5b6000612f4185828601612d32565b9250506020612f5285828601612d32565b9150509250929050565b60008060008060808587031215612f7657612f75612952565b5b6000612f8487828801612d32565b9450506020612f9587828801612d32565b9350506040612fa687828801612d32565b9250506060612fb787828801612d32565b91505092959194509250565b600082825260208201905092915050565b7f436f6e7472616374206e6f7420616c6c6f776564000000000000000000000000600082015250565b600061300a601483612fc3565b915061301582612fd4565b602082019050919050565b6000602082019050818103600083015261303981612ffd565b9050919050565b7f50726f787920636f6e7472616374206e6f7420616c6c6f776564000000000000600082015250565b6000613076601a83612fc3565b915061308182613040565b602082019050919050565b600060208201905081810360008301526130a581613069565b9050919050565b60006040820190506130c16000830185612e2e565b6130ce6020830184612e2e565b9392505050565b7f416363657373436f6e74726f6c3a2063616e206f6e6c792072656e6f756e636560008201527f20726f6c657320666f722073656c660000000000000000000000000000000000602082015250565b6000613131602f83612fc3565b915061313c826130d5565b604082019050919050565b6000602082019050818103600083015261316081613124565b9050919050565b60008151905061317681612d1b565b92915050565b60006020828403121561319257613191612952565b5b60006131a084828501613167565b91505092915050565b7f7065726d697373696f6e2064656e696564000000000000000000000000000000600082015250565b60006131df601183612fc3565b91506131ea826131a9565b602082019050919050565b6000602082019050818103600083015261320e816131d2565b9050919050565b600060608201905061322a6000830186612e2e565b6132376020830185612e2e565b6132446040830184612e2e565b949350505050565b7f4e657720506c6174666f726d204665652041646472657373206d75737420626560008201527f20646966666572656e7400000000000000000000000000000000000000000000602082015250565b60006132a8602a83612fc3565b91506132b38261324c565b604082019050919050565b600060208201905081810360008301526132d78161329b565b9050919050565b7f4f776e61626c653a206e6577206f776e657220697320746865207a65726f206160008201527f6464726573730000000000000000000000000000000000000000000000000000602082015250565b600061333a602683612fc3565b9150613345826132de565b604082019050919050565b600060208201905081810360008301526133698161332d565b9050919050565b7f496e697469616c697a61626c653a20636f6e747261637420697320616c72656160008201527f647920696e697469616c697a6564000000000000000000000000000000000000602082015250565b60006133cc602e83612fc3565b91506133d782613370565b604082019050919050565b600060208201905081810360008301526133fb816133bf565b9050919050565b6000819050919050565b6000819050919050565b600061343161342c61342784613402565b61340c565b612a87565b9050919050565b61344181613416565b82525050565b600060208201905061345c6000830184613438565b92915050565b7f416d6f756e74206f66206d696e74696e67204e465473206d757374206265206760008201527f726561746572207468616e203000000000000000000000000000000000000000602082015250565b60006134be602d83612fc3565b91506134c982613462565b604082019050919050565b600060208201905081810360008301526134ed816134b1565b9050919050565b6134fd81612a87565b82525050565b60006040820190506135186000830185612e2e565b61352560208301846134f4565b9392505050565b60008151905061353b81612af6565b92915050565b60006020828403121561355757613556612952565b5b60006135658482850161352c565b91505092915050565b7f496e76616c6964204e4654205479706500000000000000000000000000000000600082015250565b60006135a4601083612fc3565b91506135af8261356e565b602082019050919050565b600060208201905081810360008301526135d381613597565b9050919050565b7f496e76616c6964205369676e6174757265000000000000000000000000000000600082015250565b6000613610601183612fc3565b915061361b826135da565b602082019050919050565b6000602082019050818103600083015261363f81613603565b9050919050565b7f4e6f7420656e6f75676820706c6174666f726d20666565000000000000000000600082015250565b600061367c601783612fc3565b915061368782613646565b602082019050919050565b600060208201905081810360008301526136ab8161366f565b9050919050565b6000815190506136c181612aca565b92915050565b600080604083850312156136de576136dd612952565b5b60006136ec858286016136b2565b92505060206136fd85828601613167565b9150509250929050565b7f4e487b7100000000000000000000000000000000000000000000000000000000600052601160045260246000fd5b600061374182612ac0565b915061374c83612ac0565b925082820261375a81612ac0565b9150828204841483151761377157613770613707565b5b5092915050565b600061378382612ac0565b915061378e83612ac0565b92508282039050818111156137a6576137a5613707565b5b92915050565b6000602082840312156137c2576137c1612952565b5b60006137d0848285016136b2565b91505092915050565b7f55736572206e6565647320746f20686f6c6420656e6f75676820746f6b656e2060008201527f746f20627579207468697320746f6b656e000000000000000000000000000000602082015250565b6000613835603183612fc3565b9150613840826137d9565b604082019050919050565b6000602082019050818103600083015261386481613828565b9050919050565b61387481612ac0565b82525050565b600060608201905061388f6000830186612e2e565b61389c6020830185612e2e565b6138a9604083018461386b565b949350505050565b600081519050919050565b60005b838110156138da5780820151818401526020810190506138bf565b60008484015250505050565b60006138f1826138b1565b6138fb8185612fc3565b935061390b8185602086016138bc565b61391481612b27565b840191505092915050565b6000608082019050613934600083018761386b565b61394160208301866134f4565b61394e6040830185612e2e565b818103606083015261396081846138e6565b905095945050505050565b600060e082019050613980600083018a6134f4565b61398d602083018961386b565b61399a604083018861386b565b6139a7606083018761386b565b6139b4608083018661386b565b6139c160a0830185612e2e565b6139ce60c0830184612e2e565b98975050505050505050565b7f4f776e61626c653a2063616c6c6572206973206e6f7420746865206f776e6572600082015250565b6000613a10602083612fc3565b9150613a1b826139da565b602082019050919050565b60006020820190508181036000830152613a3f81613a03565b9050919050565b7f496e697469616c697a61626c653a20636f6e7472616374206973206e6f74206960008201527f6e697469616c697a696e67000000000000000000000000000000000000000000602082015250565b6000613aa2602b83612fc3565b9150613aad82613a46565b604082019050919050565b60006020820190508181036000830152613ad181613a95565b9050919050565b600061014082019050613aee600083018d61386b565b613afb602083018c612e2e565b613b08604083018b612e2e565b613b15606083018a612e2e565b613b22608083018961386b565b613b2f60a08301886129ed565b613b3c60c08301876134f4565b613b4960e083018661386b565b613b5761010083018561386b565b613b6561012083018461386b565b9b9a5050505050505050505050565b6000608082019050613b896000830187612eb2565b613b9660208301866134f4565b613ba36040830185612eb2565b613bb06060830184612eb2565b95945050505050565b600081905092915050565b7f416363657373436f6e74726f6c3a206163636f756e7420000000000000000000600082015250565b6000613bfa601783613bb9565b9150613c0582613bc4565b601782019050919050565b6000613c1b826138b1565b613c258185613bb9565b9350613c358185602086016138bc565b80840191505092915050565b7f206973206d697373696e6720726f6c6520000000000000000000000000000000600082015250565b6000613c77601183613bb9565b9150613c8282613c41565b601182019050919050565b6000613c9882613bed565b9150613ca48285613c10565b9150613caf82613c6a565b9150613cbb8284613c10565b91508190509392505050565b60006020820190508181036000830152613ce181846138e6565b905092915050565b7f5061757361626c653a206e6f7420706175736564000000000000000000000000600082015250565b6000613d1f601483612fc3565b9150613d2a82613ce9565b602082019050919050565b60006020820190508181036000830152613d4e81613d12565b9050919050565b7f5061757361626c653a2070617573656400000000000000000000000000000000600082015250565b6000613d8b601083612fc3565b9150613d9682613d55565b602082019050919050565b60006020820190508181036000830152613dba81613d7e565b9050919050565b6000613dcc82612ac0565b9150613dd783612ac0565b9250828201905080821115613def57613dee613707565b5b92915050565b7f4e487b7100000000000000000000000000000000000000000000000000000000600052603260045260246000fd5b6000613e2f82612ac0565b915060008203613e4257613e41613707565b5b600182039050919050565b7f537472696e67733a20686578206c656e67746820696e73756666696369656e74600082015250565b6000613e83602083612fc3565b9150613e8e82613e4d565b602082019050919050565b60006020820190508181036000830152613eb281613e76565b905091905056fea2646970667358221220c9d7ac5c9cfd6a1b7dce5e8e4eb45038e93957037bece0baa795e03270f82b8664736f6c63430008120033",
  "linkReferences": {},
  "deployedLinkReferences": {}
}