{
  "_format": "hh-sol-artifact-1",
  "contractName": "InZTreasury",
  "sourceName": "contracts/minting/InZTreasury.sol",
  "abi": [
    {
      "anonymous": false,
      "inputs": [
        {
          "indexed": false,
          "internalType": "uint8",
          "name": "version",
          "type": "uint8"
        }
      ],
      "name": "Initialized",
      "type": "event"
    },
    {
      "anonymous": false,
      "inputs": [
        {
          "indexed": true,
          "internalType": "address",
          "name": "previousOwner",
          "type": "address"
        },
        {
          "indexed": true,
          "internalType": "address",
          "name": "newOwner",
          "type": "address"
        }
      ],
      "name": "OwnershipTransferred",
      "type": "event"
    },
    {
      "anonymous": false,
      "inputs": [
        {
          "indexed": false,
          "internalType": "address",
          "name": "account",
          "type": "address"
        }
      ],
      "name": "Paused",
      "type": "event"
    },
    {
      "anonymous": false,
      "inputs": [
        {
          "indexed": true,
          "internalType": "bytes32",
          "name": "role",
          "type": "bytes32"
        },
        {
          "indexed": true,
          "internalType": "bytes32",
          "name": "previousAdminRole",
          "type": "bytes32"
        },
        {
          "indexed": true,
          "internalType": "bytes32",
          "name": "newAdminRole",
          "type": "bytes32"
        }
      ],
      "name": "RoleAdminChanged",
      "type": "event"
    },
    {
      "anonymous": false,
      "inputs": [
        {
          "indexed": true,
          "internalType": "bytes32",
          "name": "role",
          "type": "bytes32"
        },
        {
          "indexed": true,
          "internalType": "address",
          "name": "account",
          "type": "address"
        },
        {
          "indexed": true,
          "internalType": "address",
          "name": "sender",
          "type": "address"
        }
      ],
      "name": "RoleGranted",
      "type": "event"
    },
    {
      "anonymous": false,
      "inputs": [
        {
          "indexed": true,
          "internalType": "bytes32",
          "name": "role",
          "type": "bytes32"
        },
        {
          "indexed": true,
          "internalType": "address",
          "name": "account",
          "type": "address"
        },
        {
          "indexed": true,
          "internalType": "address",
          "name": "sender",
          "type": "address"
        }
      ],
      "name": "RoleRevoked",
      "type": "event"
    },
    {
      "anonymous": false,
      "inputs": [
        {
          "indexed": false,
          "internalType": "address",
          "name": "oldGatewayNFT",
          "type": "address"
        },
        {
          "indexed": false,
          "internalType": "address",
          "name": "gatewayNFT",
          "type": "address"
        }
      ],
      "name": "SetNewGateway",
      "type": "event"
    },
    {
      "anonymous": false,
      "inputs": [
        {
          "indexed": false,
          "internalType": "address",
          "name": "account",
          "type": "address"
        }
      ],
      "name": "Unpaused",
      "type": "event"
    },
    {
      "anonymous": false,
      "inputs": [
        {
          "indexed": false,
          "internalType": "uint256",
          "name": "amount",
          "type": "uint256"
        }
      ],
      "name": "Withdraw",
      "type": "event"
    },
    {
      "inputs": [],
      "name": "DEFAULT_ADMIN_ROLE",
      "outputs": [
        {
          "internalType": "bytes32",
          "name": "",
          "type": "bytes32"
        }
      ],
      "stateMutability": "view",
      "type": "function"
    },
    {
      "inputs": [],
      "name": "PAUSER_ROLE",
      "outputs": [
        {
          "internalType": "bytes32",
          "name": "",
          "type": "bytes32"
        }
      ],
      "stateMutability": "view",
      "type": "function"
    },
    {
      "inputs": [],
      "name": "UPGRADER_ROLE",
      "outputs": [
        {
          "internalType": "bytes32",
          "name": "",
          "type": "bytes32"
        }
      ],
      "stateMutability": "view",
      "type": "function"
    },
    {
      "inputs": [],
      "name": "WITHDRAW_ROLE",
      "outputs": [
        {
          "internalType": "bytes32",
          "name": "",
          "type": "bytes32"
        }
      ],
      "stateMutability": "view",
      "type": "function"
    },
    {
      "inputs": [],
      "name": "creatorNFT",
      "outputs": [
        {
          "internalType": "address",
          "name": "",
          "type": "address"
        }
      ],
      "stateMutability": "view",
      "type": "function"
    },
    {
      "inputs": [],
      "name": "gatewayNFT",
      "outputs": [
        {
          "internalType": "address",
          "name": "",
          "type": "address"
        }
      ],
      "stateMutability": "view",
      "type": "function"
    },
    {
      "inputs": [
        {
          "internalType": "address",
          "name": "_collectionAddress",
          "type": "address"
        },
        {
          "internalType": "address",
          "name": "_payToken",
          "type": "address"
        }
      ],
      "name": "getBalance",
      "outputs": [
        {
          "internalType": "uint256",
          "name": "",
          "type": "uint256"
        }
      ],
      "stateMutability": "view",
      "type": "function"
    },
    {
      "inputs": [
        {
          "internalType": "address",
          "name": "_collectionAddress",
          "type": "address"
        },
        {
          "internalType": "address",
          "name": "_payToken",
          "type": "address"
        }
      ],
      "name": "getBalanceCollection",
      "outputs": [
        {
          "internalType": "uint256",
          "name": "",
          "type": "uint256"
        }
      ],
      "stateMutability": "view",
      "type": "function"
    },
    {
      "inputs": [
        {
          "internalType": "bytes32",
          "name": "role",
          "type": "bytes32"
        }
      ],
      "name": "getRoleAdmin",
      "outputs": [
        {
          "internalType": "bytes32",
          "name": "",
          "type": "bytes32"
        }
      ],
      "stateMutability": "view",
      "type": "function"
    },
    {
      "inputs": [
        {
          "internalType": "bytes32",
          "name": "role",
          "type": "bytes32"
        },
        {
          "internalType": "address",
          "name": "account",
          "type": "address"
        }
      ],
      "name": "grantRole",
      "outputs": [],
      "stateMutability": "nonpayable",
      "type": "function"
    },
    {
      "inputs": [
        {
          "internalType": "bytes32",
          "name": "role",
          "type": "bytes32"
        },
        {
          "internalType": "address",
          "name": "account",
          "type": "address"
        }
      ],
      "name": "hasRole",
      "outputs": [
        {
          "internalType": "bool",
          "name": "",
          "type": "bool"
        }
      ],
      "stateMutability": "view",
      "type": "function"
    },
    {
      "inputs": [],
      "name": "initialize",
      "outputs": [],
      "stateMutability": "nonpayable",
      "type": "function"
    },
    {
      "inputs": [],
      "name": "marketplace",
      "outputs": [
        {
          "internalType": "address",
          "name": "",
          "type": "address"
        }
      ],
      "stateMutability": "view",
      "type": "function"
    },
    {
      "inputs": [],
      "name": "nftConfiguration",
      "outputs": [
        {
          "internalType": "address",
          "name": "",
          "type": "address"
        }
      ],
      "stateMutability": "view",
      "type": "function"
    },
    {
      "inputs": [],
      "name": "owner",
      "outputs": [
        {
          "internalType": "address",
          "name": "",
          "type": "address"
        }
      ],
      "stateMutability": "view",
      "type": "function"
    },
    {
      "inputs": [],
      "name": "pause",
      "outputs": [],
      "stateMutability": "nonpayable",
      "type": "function"
    },
    {
      "inputs": [],
      "name": "paused",
      "outputs": [
        {
          "internalType": "bool",
          "name": "",
          "type": "bool"
        }
      ],
      "stateMutability": "view",
      "type": "function"
    },
    {
      "inputs": [],
      "name": "renounceOwnership",
      "outputs": [],
      "stateMutability": "nonpayable",
      "type": "function"
    },
    {
      "inputs": [
        {
          "internalType": "bytes32",
          "name": "role",
          "type": "bytes32"
        },
        {
          "internalType": "address",
          "name": "account",
          "type": "address"
        }
      ],
      "name": "renounceRole",
      "outputs": [],
      "stateMutability": "nonpayable",
      "type": "function"
    },
    {
      "inputs": [
        {
          "internalType": "bytes32",
          "name": "role",
          "type": "bytes32"
        },
        {
          "internalType": "address",
          "name": "account",
          "type": "address"
        }
      ],
      "name": "revokeRole",
      "outputs": [],
      "stateMutability": "nonpayable",
      "type": "function"
    },
    {
      "inputs": [
        {
          "internalType": "address",
          "name": "_creator",
          "type": "address"
        }
      ],
      "name": "setCreator",
      "outputs": [],
      "stateMutability": "nonpayable",
      "type": "function"
    },
    {
      "inputs": [
        {
          "internalType": "address",
          "name": "_marketplace",
          "type": "address"
        }
      ],
      "name": "setMarketplace",
      "outputs": [],
      "stateMutability": "nonpayable",
      "type": "function"
    },
    {
      "inputs": [
        {
          "internalType": "address",
          "name": "_gateway",
          "type": "address"
        }
      ],
      "name": "setNewGateway",
      "outputs": [],
      "stateMutability": "nonpayable",
      "type": "function"
    },
    {
      "inputs": [
        {
          "internalType": "address",
          "name": "_nftConfiguration",
          "type": "address"
        }
      ],
      "name": "setNftConfiguration",
      "outputs": [],
      "stateMutability": "nonpayable",
      "type": "function"
    },
    {
      "inputs": [
        {
          "internalType": "bytes4",
          "name": "interfaceId",
          "type": "bytes4"
        }
      ],
      "name": "supportsInterface",
      "outputs": [
        {
          "internalType": "bool",
          "name": "",
          "type": "bool"
        }
      ],
      "stateMutability": "view",
      "type": "function"
    },
    {
      "inputs": [
        {
          "internalType": "address",
          "name": "newOwner",
          "type": "address"
        }
      ],
      "name": "transferOwnership",
      "outputs": [],
      "stateMutability": "nonpayable",
      "type": "function"
    },
    {
      "inputs": [],
      "name": "unpause",
      "outputs": [],
      "stateMutability": "nonpayable",
      "type": "function"
    },
    {
      "inputs": [
        {
          "internalType": "address",
          "name": "_collectionAddress",
          "type": "address"
        },
        {
          "internalType": "address",
          "name": "_payToken",
          "type": "address"
        },
        {
          "internalType": "uint256",
          "name": "_amount",
          "type": "uint256"
        }
      ],
      "name": "updateBalanceCollection",
      "outputs": [],
      "stateMutability": "nonpayable",
      "type": "function"
    },
    {
      "inputs": [
        {
          "internalType": "uint256",
          "name": "_amount",
          "type": "uint256"
        },
        {
          "internalType": "address",
          "name": "_collectionAddress",
          "type": "address"
        },
        {
          "internalType": "address",
          "name": "_payToken",
          "type": "address"
        }
      ],
      "name": "withdraw",
      "outputs": [],
      "stateMutability": "nonpayable",
      "type": "function"
    },
    {
      "inputs": [
        {
          "internalType": "uint256",
          "name": "_amount",
          "type": "uint256"
        },
        {
          "internalType": "address",
          "name": "_collectionAddress",
          "type": "address"
        },
        {
          "internalType": "address",
          "name": "_payToken",
          "type": "address"
        }
      ],
      "name": "withdrawFromGateway",
      "outputs": [],
      "stateMutability": "nonpayable",
      "type": "function"
    }
  ],
  "bytecode": "0x608060405234801561001057600080fd5b50612f21806100206000396000f3fe608060405234801561001057600080fd5b50600436106101da5760003560e01c80638456cb5911610104578063b779f02d116100a2578063e02023a111610071578063e02023a1146104e1578063e63ab1e9146104ff578063f2fde38b1461051d578063f72c0d8b14610539576101da565b8063b779f02d1461045d578063d4fac45d14610479578063d547741f146104a9578063dc165749146104c5576101da565b8063a217fddf116100de578063a217fddf146103e9578063a4b68c7214610407578063abc8c7af14610423578063b460af9414610441576101da565b80638456cb59146103915780638da5cb5b1461039b57806391d14854146103b9576101da565b80634587a6101161017c57806371c4d52f1161014b57806371c4d52f1461031f57806373ad6c2d1461033b5780638129fc1c1461035757806381e2494c14610361576101da565b80634587a610146102bb5780634f6d3f23146102d95780635c975abb146102f7578063715018a614610315576101da565b80632f2ff15d116101b85780632f2ff15d1461025d57806336568abe146102795780633f4ba83a146102955780633f5160181461029f576101da565b806301ffc9a7146101df57806307ae52f91461020f578063248a9ca31461022d575b600080fd5b6101f960048036038101906101f49190612178565b610557565b60405161020691906121c0565b60405180910390f35b6102176105d1565b604051610224919061221c565b60405180910390f35b6102476004803603810190610242919061226d565b6105f7565b60405161025491906122a9565b60405180910390f35b610277600480360381019061027291906122f0565b610617565b005b610293600480360381019061028e91906122f0565b610638565b005b61029d6106bb565b005b6102b960048036038101906102b49190612330565b6106f0565b005b6102c3610742565b6040516102d0919061221c565b60405180910390f35b6102e1610768565b6040516102ee919061221c565b60405180910390f35b6102ff61078e565b60405161030c91906121c0565b60405180910390f35b61031d6107a5565b005b61033960048036038101906103349190612393565b6107b9565b005b61035560048036038101906103509190612330565b610939565b005b61035f61098b565b005b61037b600480360381019061037691906123e6565b610b5c565b6040516103889190612435565b60405180910390f35b610399610dc2565b005b6103a3610df7565b6040516103b0919061221c565b60405180910390f35b6103d360048036038101906103ce91906122f0565b610e21565b6040516103e091906121c0565b60405180910390f35b6103f1610e8c565b6040516103fe91906122a9565b60405180910390f35b610421600480360381019061041c9190612330565b610e93565b005b61042b610f68565b604051610438919061221c565b60405180910390f35b61045b60048036038101906104569190612450565b610f8e565b005b61047760048036038101906104729190612450565b61117d565b005b610493600480360381019061048e91906123e6565b6113fc565b6040516104a09190612435565b60405180910390f35b6104c360048036038101906104be91906122f0565b611491565b005b6104df60048036038101906104da9190612330565b6114b2565b005b6104e9611504565b6040516104f691906122a9565b60405180910390f35b610507611528565b60405161051491906122a9565b60405180910390f35b61053760048036038101906105329190612330565b61154c565b005b6105416115cf565b60405161054e91906122a9565b60405180910390f35b60007f7965db0b000000000000000000000000000000000000000000000000000000007bffffffffffffffffffffffffffffffffffffffffffffffffffffffff1916827bffffffffffffffffffffffffffffffffffffffffffffffffffffffff191614806105ca57506105c9826115f3565b5b9050919050565b60fe60009054906101000a900473ffffffffffffffffffffffffffffffffffffffff1681565b600060656000838152602001908152602001600020600101549050919050565b610620826105f7565b6106298161165d565b6106338383611671565b505050565b610640611752565b73ffffffffffffffffffffffffffffffffffffffff168173ffffffffffffffffffffffffffffffffffffffff16146106ad576040517f08c379a00000000000000000000000000000000000000000000000000000000081526004016106a490612526565b60405180910390fd5b6106b7828261175a565b5050565b7f65d7a28e3265b37a6474929f336521b332c1681b933f6cb9f3376673440d862a6106e58161165d565b6106ed61183c565b50565b6000801b6106fd8161165d565b8160fc60006101000a81548173ffffffffffffffffffffffffffffffffffffffff021916908373ffffffffffffffffffffffffffffffffffffffff1602179055505050565b60fb60009054906101000a900473ffffffffffffffffffffffffffffffffffffffff1681565b60fc60009054906101000a900473ffffffffffffffffffffffffffffffffffffffff1681565b6000609760009054906101000a900460ff16905090565b6107ad61189f565b6107b7600061191d565b565b60fc60009054906101000a900473ffffffffffffffffffffffffffffffffffffffff1673ffffffffffffffffffffffffffffffffffffffff163373ffffffffffffffffffffffffffffffffffffffff161480610862575060fd60009054906101000a900473ffffffffffffffffffffffffffffffffffffffff1673ffffffffffffffffffffffffffffffffffffffff163373ffffffffffffffffffffffffffffffffffffffff16145b6108a1576040517f08c379a0000000000000000000000000000000000000000000000000000000008152600401610898906125b8565b60405180910390fd5b8060ff60008573ffffffffffffffffffffffffffffffffffffffff1673ffffffffffffffffffffffffffffffffffffffff16815260200190815260200160002060008473ffffffffffffffffffffffffffffffffffffffff1673ffffffffffffffffffffffffffffffffffffffff168152602001908152602001600020600082825461092d9190612607565b92505081905550505050565b6000801b6109468161165d565b8160fd60006101000a81548173ffffffffffffffffffffffffffffffffffffffff021916908373ffffffffffffffffffffffffffffffffffffffff1602179055505050565b60008060019054906101000a900460ff161590508080156109bc5750600160008054906101000a900460ff1660ff16105b806109e957506109cb306119e3565b1580156109e85750600160008054906101000a900460ff1660ff16145b5b610a28576040517f08c379a0000000000000000000000000000000000000000000000000000000008152600401610a1f906126ad565b60405180910390fd5b60016000806101000a81548160ff021916908360ff1602179055508015610a65576001600060016101000a81548160ff0219169083151502179055505b610a6d611a06565b610a75611a57565b610a826000801b33611ab0565b610aac7f65d7a28e3265b37a6474929f336521b332c1681b933f6cb9f3376673440d862a33611ab0565b610ad67f189ab7a9244df0848122154315af71fe140f3db0fe014031783b0946b8c9d2e333611ab0565b610b007f5d8e12c39142ff96d79d04d15d1ba1269e4fe57bb9d26f43523628b34ba108ec33611ab0565b8015610b595760008060016101000a81548160ff0219169083151502179055507f7f26b83ff96e1f2b6a682f133852f6798a09c465da95921460cefb38474024986001604051610b50919061271f565b60405180910390a15b50565b6000823273ffffffffffffffffffffffffffffffffffffffff1660fb60009054906101000a900473ffffffffffffffffffffffffffffffffffffffff1673ffffffffffffffffffffffffffffffffffffffff166328f8c046836040518263ffffffff1660e01b8152600401610bd1919061221c565b602060405180830381865afa158015610bee573d6000803e3d6000fd5b505050506040513d601f19601f82011682018060405250810190610c12919061274f565b73ffffffffffffffffffffffffffffffffffffffff16148015610cfd5750600073ffffffffffffffffffffffffffffffffffffffff1660fb60009054906101000a900473ffffffffffffffffffffffffffffffffffffffff1673ffffffffffffffffffffffffffffffffffffffff166328f8c046836040518263ffffffff1660e01b8152600401610ca3919061221c565b602060405180830381865afa158015610cc0573d6000803e3d6000fd5b505050506040513d601f19601f82011682018060405250810190610ce4919061274f565b73ffffffffffffffffffffffffffffffffffffffff1614155b610d3c576040517f08c379a0000000000000000000000000000000000000000000000000000000008152600401610d33906127c8565b60405180910390fd5b60ff60008573ffffffffffffffffffffffffffffffffffffffff1673ffffffffffffffffffffffffffffffffffffffff16815260200190815260200160002060008473ffffffffffffffffffffffffffffffffffffffff1673ffffffffffffffffffffffffffffffffffffffff1681526020019081526020016000205491505092915050565b7f65d7a28e3265b37a6474929f336521b332c1681b933f6cb9f3376673440d862a610dec8161165d565b610df4611abe565b50565b600060c960009054906101000a900473ffffffffffffffffffffffffffffffffffffffff16905090565b60006065600084815260200190815260200160002060000160008373ffffffffffffffffffffffffffffffffffffffff1673ffffffffffffffffffffffffffffffffffffffff16815260200190815260200160002060009054906101000a900460ff16905092915050565b6000801b81565b6000801b610ea08161165d565b600060fe60009054906101000a900473ffffffffffffffffffffffffffffffffffffffff1690508260fe60006101000a81548173ffffffffffffffffffffffffffffffffffffffff021916908373ffffffffffffffffffffffffffffffffffffffff1602179055507f7dd3ad73fe909f559cc651212340a0979c92b4cb9d72b304a1d39b3e9253564e8160fe60009054906101000a900473ffffffffffffffffffffffffffffffffffffffff16604051610f5b9291906127e8565b60405180910390a1505050565b60fd60009054906101000a900473ffffffffffffffffffffffffffffffffffffffff1681565b813273ffffffffffffffffffffffffffffffffffffffff1660fb60009054906101000a900473ffffffffffffffffffffffffffffffffffffffff1673ffffffffffffffffffffffffffffffffffffffff166328f8c046836040518263ffffffff1660e01b8152600401611001919061221c565b602060405180830381865afa15801561101e573d6000803e3d6000fd5b505050506040513d601f19601f82011682018060405250810190611042919061274f565b73ffffffffffffffffffffffffffffffffffffffff1614801561112d5750600073ffffffffffffffffffffffffffffffffffffffff1660fb60009054906101000a900473ffffffffffffffffffffffffffffffffffffffff1673ffffffffffffffffffffffffffffffffffffffff166328f8c046836040518263ffffffff1660e01b81526004016110d3919061221c565b602060405180830381865afa1580156110f0573d6000803e3d6000fd5b505050506040513d601f19601f82011682018060405250810190611114919061274f565b73ffffffffffffffffffffffffffffffffffffffff1614155b61116c576040517f08c379a0000000000000000000000000000000000000000000000000000000008152600401611163906127c8565b60405180910390fd5b611177848484611b21565b50505050565b813273ffffffffffffffffffffffffffffffffffffffff1660fb60009054906101000a900473ffffffffffffffffffffffffffffffffffffffff1673ffffffffffffffffffffffffffffffffffffffff166328f8c046836040518263ffffffff1660e01b81526004016111f0919061221c565b602060405180830381865afa15801561120d573d6000803e3d6000fd5b505050506040513d601f19601f82011682018060405250810190611231919061274f565b73ffffffffffffffffffffffffffffffffffffffff1614801561131c5750600073ffffffffffffffffffffffffffffffffffffffff1660fb60009054906101000a900473ffffffffffffffffffffffffffffffffffffffff1673ffffffffffffffffffffffffffffffffffffffff166328f8c046836040518263ffffffff1660e01b81526004016112c2919061221c565b602060405180830381865afa1580156112df573d6000803e3d6000fd5b505050506040513d601f19601f82011682018060405250810190611303919061274f565b73ffffffffffffffffffffffffffffffffffffffff1614155b61135b576040517f08c379a0000000000000000000000000000000000000000000000000000000008152600401611352906127c8565b60405180910390fd5b60fe60009054906101000a900473ffffffffffffffffffffffffffffffffffffffff1673ffffffffffffffffffffffffffffffffffffffff163373ffffffffffffffffffffffffffffffffffffffff16146113eb576040517f08c379a00000000000000000000000000000000000000000000000000000000081526004016113e29061285d565b60405180910390fd5b6113f6848484611b21565b50505050565b60008060001b61140b8161165d565b60ff60008573ffffffffffffffffffffffffffffffffffffffff1673ffffffffffffffffffffffffffffffffffffffff16815260200190815260200160002060008473ffffffffffffffffffffffffffffffffffffffff1673ffffffffffffffffffffffffffffffffffffffff1681526020019081526020016000205491505092915050565b61149a826105f7565b6114a38161165d565b6114ad838361175a565b505050565b6000801b6114bf8161165d565b8160fb60006101000a81548173ffffffffffffffffffffffffffffffffffffffff021916908373ffffffffffffffffffffffffffffffffffffffff1602179055505050565b7f5d8e12c39142ff96d79d04d15d1ba1269e4fe57bb9d26f43523628b34ba108ec81565b7f65d7a28e3265b37a6474929f336521b332c1681b933f6cb9f3376673440d862a81565b61155461189f565b600073ffffffffffffffffffffffffffffffffffffffff168173ffffffffffffffffffffffffffffffffffffffff16036115c3576040517f08c379a00000000000000000000000000000000000000000000000000000000081526004016115ba906128ef565b60405180910390fd5b6115cc8161191d565b50565b7f189ab7a9244df0848122154315af71fe140f3db0fe014031783b0946b8c9d2e381565b60007f01ffc9a7000000000000000000000000000000000000000000000000000000007bffffffffffffffffffffffffffffffffffffffffffffffffffffffff1916827bffffffffffffffffffffffffffffffffffffffffffffffffffffffff1916149050919050565b61166e81611669611752565b611d2e565b50565b61167b8282610e21565b61174e5760016065600084815260200190815260200160002060000160008373ffffffffffffffffffffffffffffffffffffffff1673ffffffffffffffffffffffffffffffffffffffff16815260200190815260200160002060006101000a81548160ff0219169083151502179055506116f3611752565b73ffffffffffffffffffffffffffffffffffffffff168173ffffffffffffffffffffffffffffffffffffffff16837f2f8788117e7eff1d82e926ec794901d17c78024a50270940304540a733656f0d60405160405180910390a45b5050565b600033905090565b6117648282610e21565b156118385760006065600084815260200190815260200160002060000160008373ffffffffffffffffffffffffffffffffffffffff1673ffffffffffffffffffffffffffffffffffffffff16815260200190815260200160002060006101000a81548160ff0219169083151502179055506117dd611752565b73ffffffffffffffffffffffffffffffffffffffff168173ffffffffffffffffffffffffffffffffffffffff16837ff6391f5c32d9c69d2a47ea670b442974b53935d1edc7fd64eb21e047a839171b60405160405180910390a45b5050565b611844611db3565b6000609760006101000a81548160ff0219169083151502179055507f5db9ee0a495bf2e6ff9c91a7834c1ba4fdd244a5e8aa4e537bd38aeae4b073aa611888611752565b604051611895919061221c565b60405180910390a1565b6118a7611752565b73ffffffffffffffffffffffffffffffffffffffff166118c5610df7565b73ffffffffffffffffffffffffffffffffffffffff161461191b576040517f08c379a00000000000000000000000000000000000000000000000000000000081526004016119129061295b565b60405180910390fd5b565b600060c960009054906101000a900473ffffffffffffffffffffffffffffffffffffffff1690508160c960006101000a81548173ffffffffffffffffffffffffffffffffffffffff021916908373ffffffffffffffffffffffffffffffffffffffff1602179055508173ffffffffffffffffffffffffffffffffffffffff168173ffffffffffffffffffffffffffffffffffffffff167f8be0079c531659141344cd1fd0a4f28419497f9722a3daafe3b4186f6b6457e060405160405180910390a35050565b6000808273ffffffffffffffffffffffffffffffffffffffff163b119050919050565b600060019054906101000a900460ff16611a55576040517f08c379a0000000000000000000000000000000000000000000000000000000008152600401611a4c906129ed565b60405180910390fd5b565b600060019054906101000a900460ff16611aa6576040517f08c379a0000000000000000000000000000000000000000000000000000000008152600401611a9d906129ed565b60405180910390fd5b611aae611dfc565b565b611aba8282611671565b5050565b611ac6611e68565b6001609760006101000a81548160ff0219169083151502179055507f62e78cea01bee320cd4e420270b5ea74000d11b0c9f74754ebdbfc544b05a258611b0a611752565b604051611b17919061221c565b60405180910390a1565b8260ff60008473ffffffffffffffffffffffffffffffffffffffff1673ffffffffffffffffffffffffffffffffffffffff16815260200190815260200160002060008373ffffffffffffffffffffffffffffffffffffffff1673ffffffffffffffffffffffffffffffffffffffff168152602001908152602001600020541015611be0576040517f08c379a0000000000000000000000000000000000000000000000000000000008152600401611bd790612a59565b60405180910390fd5b8073ffffffffffffffffffffffffffffffffffffffff1663a9059cbb33856040518363ffffffff1660e01b8152600401611c1b929190612a79565b6020604051808303816000875af1158015611c3a573d6000803e3d6000fd5b505050506040513d601f19601f82011682018060405250810190611c5e9190612ace565b508260ff60008473ffffffffffffffffffffffffffffffffffffffff1673ffffffffffffffffffffffffffffffffffffffff16815260200190815260200160002060008373ffffffffffffffffffffffffffffffffffffffff1673ffffffffffffffffffffffffffffffffffffffff1681526020019081526020016000206000828254611ceb9190612afb565b925050819055507f5b6b431d4476a211bb7d41c20d1aab9ae2321deee0d20be3d9fc9b1093fa6e3d83604051611d219190612435565b60405180910390a1505050565b611d388282610e21565b611daf57611d4581611eb2565b611d538360001c6020611edf565b604051602001611d64929190612c38565b6040516020818303038152906040526040517f08c379a0000000000000000000000000000000000000000000000000000000008152600401611da69190612cbc565b60405180910390fd5b5050565b611dbb61078e565b611dfa576040517f08c379a0000000000000000000000000000000000000000000000000000000008152600401611df190612d2a565b60405180910390fd5b565b600060019054906101000a900460ff16611e4b576040517f08c379a0000000000000000000000000000000000000000000000000000000008152600401611e42906129ed565b60405180910390fd5b6000609760006101000a81548160ff021916908315150217905550565b611e7061078e565b15611eb0576040517f08c379a0000000000000000000000000000000000000000000000000000000008152600401611ea790612d96565b60405180910390fd5b565b6060611ed88273ffffffffffffffffffffffffffffffffffffffff16601460ff16611edf565b9050919050565b606060006002836002611ef29190612db6565b611efc9190612607565b67ffffffffffffffff811115611f1557611f14612df8565b5b6040519080825280601f01601f191660200182016040528015611f475781602001600182028036833780820191505090505b5090507f300000000000000000000000000000000000000000000000000000000000000081600081518110611f7f57611f7e612e27565b5b60200101907effffffffffffffffffffffffffffffffffffffffffffffffffffffffffffff1916908160001a9053507f780000000000000000000000000000000000000000000000000000000000000081600181518110611fe357611fe2612e27565b5b60200101907effffffffffffffffffffffffffffffffffffffffffffffffffffffffffffff1916908160001a905350600060018460026120239190612db6565b61202d9190612607565b90505b60018111156120cd577f3031323334353637383961626364656600000000000000000000000000000000600f86166010811061206f5761206e612e27565b5b1a60f81b82828151811061208657612085612e27565b5b60200101907effffffffffffffffffffffffffffffffffffffffffffffffffffffffffffff1916908160001a905350600485901c9450806120c690612e56565b9050612030565b5060008414612111576040517f08c379a000000000000000000000000000000000000000000000000000000000815260040161210890612ecb565b60405180910390fd5b8091505092915050565b600080fd5b60007fffffffff0000000000000000000000000000000000000000000000000000000082169050919050565b61215581612120565b811461216057600080fd5b50565b6000813590506121728161214c565b92915050565b60006020828403121561218e5761218d61211b565b5b600061219c84828501612163565b91505092915050565b60008115159050919050565b6121ba816121a5565b82525050565b60006020820190506121d560008301846121b1565b92915050565b600073ffffffffffffffffffffffffffffffffffffffff82169050919050565b6000612206826121db565b9050919050565b612216816121fb565b82525050565b6000602082019050612231600083018461220d565b92915050565b6000819050919050565b61224a81612237565b811461225557600080fd5b50565b60008135905061226781612241565b92915050565b6000602082840312156122835761228261211b565b5b600061229184828501612258565b91505092915050565b6122a381612237565b82525050565b60006020820190506122be600083018461229a565b92915050565b6122cd816121fb565b81146122d857600080fd5b50565b6000813590506122ea816122c4565b92915050565b600080604083850312156123075761230661211b565b5b600061231585828601612258565b9250506020612326858286016122db565b9150509250929050565b6000602082840312156123465761234561211b565b5b6000612354848285016122db565b91505092915050565b6000819050919050565b6123708161235d565b811461237b57600080fd5b50565b60008135905061238d81612367565b92915050565b6000806000606084860312156123ac576123ab61211b565b5b60006123ba868287016122db565b93505060206123cb868287016122db565b92505060406123dc8682870161237e565b9150509250925092565b600080604083850312156123fd576123fc61211b565b5b600061240b858286016122db565b925050602061241c858286016122db565b9150509250929050565b61242f8161235d565b82525050565b600060208201905061244a6000830184612426565b92915050565b6000806000606084860312156124695761246861211b565b5b60006124778682870161237e565b9350506020612488868287016122db565b9250506040612499868287016122db565b9150509250925092565b600082825260208201905092915050565b7f416363657373436f6e74726f6c3a2063616e206f6e6c792072656e6f756e636560008201527f20726f6c657320666f722073656c660000000000000000000000000000000000602082015250565b6000612510602f836124a3565b915061251b826124b4565b604082019050919050565b6000602082019050818103600083015261253f81612503565b9050919050565b7f43616e206f6e6c792063616c6c2066726f6d2043726561746f7220636f6e747260008201527f6163740000000000000000000000000000000000000000000000000000000000602082015250565b60006125a26023836124a3565b91506125ad82612546565b604082019050919050565b600060208201905081810360008301526125d181612595565b9050919050565b7f4e487b7100000000000000000000000000000000000000000000000000000000600052601160045260246000fd5b60006126128261235d565b915061261d8361235d565b9250828201905080821115612635576126346125d8565b5b92915050565b7f496e697469616c697a61626c653a20636f6e747261637420697320616c72656160008201527f647920696e697469616c697a6564000000000000000000000000000000000000602082015250565b6000612697602e836124a3565b91506126a28261263b565b604082019050919050565b600060208201905081810360008301526126c68161268a565b9050919050565b6000819050919050565b600060ff82169050919050565b6000819050919050565b60006127096127046126ff846126cd565b6126e4565b6126d7565b9050919050565b612719816126ee565b82525050565b60006020820190506127346000830184612710565b92915050565b600081519050612749816122c4565b92915050565b6000602082840312156127655761276461211b565b5b60006127738482850161273a565b91505092915050565b7f7065726d697373696f6e2064656e696564000000000000000000000000000000600082015250565b60006127b26011836124a3565b91506127bd8261277c565b602082019050919050565b600060208201905081810360008301526127e1816127a5565b9050919050565b60006040820190506127fd600083018561220d565b61280a602083018461220d565b9392505050565b7f50726f787920636f6e7472616374206e6f7420616c6c6f776564000000000000600082015250565b6000612847601a836124a3565b915061285282612811565b602082019050919050565b600060208201905081810360008301526128768161283a565b9050919050565b7f4f776e61626c653a206e6577206f776e657220697320746865207a65726f206160008201527f6464726573730000000000000000000000000000000000000000000000000000602082015250565b60006128d96026836124a3565b91506128e48261287d565b604082019050919050565b60006020820190508181036000830152612908816128cc565b9050919050565b7f4f776e61626c653a2063616c6c6572206973206e6f7420746865206f776e6572600082015250565b60006129456020836124a3565b91506129508261290f565b602082019050919050565b6000602082019050818103600083015261297481612938565b9050919050565b7f496e697469616c697a61626c653a20636f6e7472616374206973206e6f74206960008201527f6e697469616c697a696e67000000000000000000000000000000000000000000602082015250565b60006129d7602b836124a3565b91506129e28261297b565b604082019050919050565b60006020820190508181036000830152612a06816129ca565b9050919050565b7f4e6f7420656e6f75676820746f6b656e7320746f207769746864726177000000600082015250565b6000612a43601d836124a3565b9150612a4e82612a0d565b602082019050919050565b60006020820190508181036000830152612a7281612a36565b9050919050565b6000604082019050612a8e600083018561220d565b612a9b6020830184612426565b9392505050565b612aab816121a5565b8114612ab657600080fd5b50565b600081519050612ac881612aa2565b92915050565b600060208284031215612ae457612ae361211b565b5b6000612af284828501612ab9565b91505092915050565b6000612b068261235d565b9150612b118361235d565b9250828203905081811115612b2957612b286125d8565b5b92915050565b600081905092915050565b7f416363657373436f6e74726f6c3a206163636f756e7420000000000000000000600082015250565b6000612b70601783612b2f565b9150612b7b82612b3a565b601782019050919050565b600081519050919050565b60005b83811015612baf578082015181840152602081019050612b94565b60008484015250505050565b6000612bc682612b86565b612bd08185612b2f565b9350612be0818560208601612b91565b80840191505092915050565b7f206973206d697373696e6720726f6c6520000000000000000000000000000000600082015250565b6000612c22601183612b2f565b9150612c2d82612bec565b601182019050919050565b6000612c4382612b63565b9150612c4f8285612bbb565b9150612c5a82612c15565b9150612c668284612bbb565b91508190509392505050565b6000601f19601f8301169050919050565b6000612c8e82612b86565b612c9881856124a3565b9350612ca8818560208601612b91565b612cb181612c72565b840191505092915050565b60006020820190508181036000830152612cd68184612c83565b905092915050565b7f5061757361626c653a206e6f7420706175736564000000000000000000000000600082015250565b6000612d146014836124a3565b9150612d1f82612cde565b602082019050919050565b60006020820190508181036000830152612d4381612d07565b9050919050565b7f5061757361626c653a2070617573656400000000000000000000000000000000600082015250565b6000612d806010836124a3565b9150612d8b82612d4a565b602082019050919050565b60006020820190508181036000830152612daf81612d73565b9050919050565b6000612dc18261235d565b9150612dcc8361235d565b9250828202612dda8161235d565b91508282048414831517612df157612df06125d8565b5b5092915050565b7f4e487b7100000000000000000000000000000000000000000000000000000000600052604160045260246000fd5b7f4e487b7100000000000000000000000000000000000000000000000000000000600052603260045260246000fd5b6000612e618261235d565b915060008203612e7457612e736125d8565b5b600182039050919050565b7f537472696e67733a20686578206c656e67746820696e73756666696369656e74600082015250565b6000612eb56020836124a3565b9150612ec082612e7f565b602082019050919050565b60006020820190508181036000830152612ee481612ea8565b905091905056fea26469706673582212209d6fdd59a3020dbf93c077b5296ed52d0b63b7bd56efcf0f69e4cafcacde59de64736f6c63430008120033",
  "linkReferences": {},
  "deployedLinkReferences": {}
}