{
  "_format": "hh-sol-artifact-1",
  "contractName": "InZBoxCampaign",
  "sourceName": "contracts/minting/campaignBOX/InZBoxCampaign.sol",
  "abi": [
    {
      "anonymous": false,
      "inputs": [
        {
          "indexed": false,
          "internalType": "address",
          "name": "previousAdmin",
          "type": "address"
        },
        {
          "indexed": false,
          "internalType": "address",
          "name": "newAdmin",
          "type": "address"
        }
      ],
      "name": "AdminChanged",
      "type": "event"
    },
    {
      "anonymous": false,
      "inputs": [
        {
          "indexed": true,
          "internalType": "address",
          "name": "owner",
          "type": "address"
        },
        {
          "indexed": true,
          "internalType": "address",
          "name": "approved",
          "type": "address"
        },
        {
          "indexed": true,
          "internalType": "uint256",
          "name": "tokenId",
          "type": "uint256"
        }
      ],
      "name": "Approval",
      "type": "event"
    },
    {
      "anonymous": false,
      "inputs": [
        {
          "indexed": true,
          "internalType": "address",
          "name": "owner",
          "type": "address"
        },
        {
          "indexed": true,
          "internalType": "address",
          "name": "operator",
          "type": "address"
        },
        {
          "indexed": false,
          "internalType": "bool",
          "name": "approved",
          "type": "bool"
        }
      ],
      "name": "ApprovalForAll",
      "type": "event"
    },
    {
      "anonymous": false,
      "inputs": [
        {
          "indexed": true,
          "internalType": "address",
          "name": "beacon",
          "type": "address"
        }
      ],
      "name": "BeaconUpgraded",
      "type": "event"
    },
    {
      "anonymous": false,
      "inputs": [
        {
          "indexed": false,
          "internalType": "address",
          "name": "buyer",
          "type": "address"
        },
        {
          "indexed": false,
          "internalType": "uint256",
          "name": "tokenId",
          "type": "uint256"
        }
      ],
      "name": "BoxBought",
      "type": "event"
    },
    {
      "anonymous": false,
      "inputs": [
        {
          "indexed": false,
          "internalType": "uint8",
          "name": "version",
          "type": "uint8"
        }
      ],
      "name": "Initialized",
      "type": "event"
    },
    {
      "anonymous": false,
      "inputs": [
        {
          "indexed": false,
          "internalType": "address",
          "name": "owner",
          "type": "address"
        },
        {
          "indexed": false,
          "internalType": "uint256",
          "name": "tokenId",
          "type": "uint256"
        }
      ],
      "name": "OpenBox",
      "type": "event"
    },
    {
      "anonymous": false,
      "inputs": [
        {
          "indexed": true,
          "internalType": "address",
          "name": "previousOwner",
          "type": "address"
        },
        {
          "indexed": true,
          "internalType": "address",
          "name": "newOwner",
          "type": "address"
        }
      ],
      "name": "OwnershipTransferred",
      "type": "event"
    },
    {
      "anonymous": false,
      "inputs": [
        {
          "indexed": true,
          "internalType": "bytes32",
          "name": "role",
          "type": "bytes32"
        },
        {
          "indexed": true,
          "internalType": "bytes32",
          "name": "previousAdminRole",
          "type": "bytes32"
        },
        {
          "indexed": true,
          "internalType": "bytes32",
          "name": "newAdminRole",
          "type": "bytes32"
        }
      ],
      "name": "RoleAdminChanged",
      "type": "event"
    },
    {
      "anonymous": false,
      "inputs": [
        {
          "indexed": true,
          "internalType": "bytes32",
          "name": "role",
          "type": "bytes32"
        },
        {
          "indexed": true,
          "internalType": "address",
          "name": "account",
          "type": "address"
        },
        {
          "indexed": true,
          "internalType": "address",
          "name": "sender",
          "type": "address"
        }
      ],
      "name": "RoleGranted",
      "type": "event"
    },
    {
      "anonymous": false,
      "inputs": [
        {
          "indexed": true,
          "internalType": "bytes32",
          "name": "role",
          "type": "bytes32"
        },
        {
          "indexed": true,
          "internalType": "address",
          "name": "account",
          "type": "address"
        },
        {
          "indexed": true,
          "internalType": "address",
          "name": "sender",
          "type": "address"
        }
      ],
      "name": "RoleRevoked",
      "type": "event"
    },
    {
      "anonymous": false,
      "inputs": [
        {
          "indexed": false,
          "internalType": "address",
          "name": "oldAddress",
          "type": "address"
        },
        {
          "indexed": false,
          "internalType": "address",
          "name": "newAddress",
          "type": "address"
        }
      ],
      "name": "SetNewNftOpeningItem",
      "type": "event"
    },
    {
      "anonymous": false,
      "inputs": [
        {
          "indexed": false,
          "internalType": "address",
          "name": "oldToken",
          "type": "address"
        },
        {
          "indexed": false,
          "internalType": "address",
          "name": "newToken",
          "type": "address"
        }
      ],
      "name": "SetNewPayToken",
      "type": "event"
    },
    {
      "anonymous": false,
      "inputs": [
        {
          "indexed": true,
          "internalType": "address",
          "name": "from",
          "type": "address"
        },
        {
          "indexed": true,
          "internalType": "address",
          "name": "to",
          "type": "address"
        },
        {
          "indexed": true,
          "internalType": "uint256",
          "name": "tokenId",
          "type": "uint256"
        }
      ],
      "name": "Transfer",
      "type": "event"
    },
    {
      "anonymous": false,
      "inputs": [
        {
          "indexed": true,
          "internalType": "address",
          "name": "implementation",
          "type": "address"
        }
      ],
      "name": "Upgraded",
      "type": "event"
    },
    {
      "inputs": [],
      "name": "DEFAULT_ADMIN_ROLE",
      "outputs": [
        {
          "internalType": "bytes32",
          "name": "",
          "type": "bytes32"
        }
      ],
      "stateMutability": "view",
      "type": "function"
    },
    {
      "inputs": [
        {
          "internalType": "address",
          "name": "to",
          "type": "address"
        },
        {
          "internalType": "uint256",
          "name": "tokenId",
          "type": "uint256"
        }
      ],
      "name": "approve",
      "outputs": [],
      "stateMutability": "nonpayable",
      "type": "function"
    },
    {
      "inputs": [
        {
          "internalType": "address",
          "name": "owner",
          "type": "address"
        }
      ],
      "name": "balanceOf",
      "outputs": [
        {
          "internalType": "uint256",
          "name": "",
          "type": "uint256"
        }
      ],
      "stateMutability": "view",
      "type": "function"
    },
    {
      "inputs": [
        {
          "internalType": "address",
          "name": "to",
          "type": "address"
        },
        {
          "internalType": "uint256",
          "name": "value",
          "type": "uint256"
        },
        {
          "internalType": "uint256",
          "name": "txGas",
          "type": "uint256"
        },
        {
          "internalType": "bytes",
          "name": "data",
          "type": "bytes"
        },
        {
          "internalType": "enum InterfaceFunction.Operation",
          "name": "operation",
          "type": "uint8"
        }
      ],
      "name": "execTx",
      "outputs": [],
      "stateMutability": "nonpayable",
      "type": "function"
    },
    {
      "inputs": [
        {
          "internalType": "uint256",
          "name": "tokenId",
          "type": "uint256"
        }
      ],
      "name": "getApproved",
      "outputs": [
        {
          "internalType": "address",
          "name": "",
          "type": "address"
        }
      ],
      "stateMutability": "view",
      "type": "function"
    },
    {
      "inputs": [
        {
          "internalType": "address",
          "name": "owner",
          "type": "address"
        }
      ],
      "name": "getListBoxOf",
      "outputs": [
        {
          "internalType": "uint256[]",
          "name": "",
          "type": "uint256[]"
        }
      ],
      "stateMutability": "view",
      "type": "function"
    },
    {
      "inputs": [
        {
          "internalType": "bytes32",
          "name": "role",
          "type": "bytes32"
        }
      ],
      "name": "getRoleAdmin",
      "outputs": [
        {
          "internalType": "bytes32",
          "name": "",
          "type": "bytes32"
        }
      ],
      "stateMutability": "view",
      "type": "function"
    },
    {
      "inputs": [
        {
          "internalType": "bytes32",
          "name": "role",
          "type": "bytes32"
        },
        {
          "internalType": "address",
          "name": "account",
          "type": "address"
        }
      ],
      "name": "grantRole",
      "outputs": [],
      "stateMutability": "nonpayable",
      "type": "function"
    },
    {
      "inputs": [
        {
          "internalType": "bytes32",
          "name": "role",
          "type": "bytes32"
        },
        {
          "internalType": "address",
          "name": "account",
          "type": "address"
        }
      ],
      "name": "hasRole",
      "outputs": [
        {
          "internalType": "bool",
          "name": "",
          "type": "bool"
        }
      ],
      "stateMutability": "view",
      "type": "function"
    },
    {
      "inputs": [
        {
          "internalType": "string",
          "name": "_uri",
          "type": "string"
        },
        {
          "internalType": "contract IERC20",
          "name": "_payToken",
          "type": "address"
        },
        {
          "internalType": "string",
          "name": "_name",
          "type": "string"
        },
        {
          "internalType": "string",
          "name": "_symbol",
          "type": "string"
        },
        {
          "internalType": "uint256",
          "name": "_startTimeToBuy",
          "type": "uint256"
        },
        {
          "internalType": "uint256",
          "name": "_endTimeToBuy",
          "type": "uint256"
        },
        {
          "internalType": "bool",
          "name": "_isAutoIncreaseId",
          "type": "bool"
        },
        {
          "internalType": "uint256",
          "name": "_totalSupply",
          "type": "uint256"
        },
        {
          "internalType": "uint256",
          "name": "_price",
          "type": "uint256"
        }
      ],
      "name": "initialize",
      "outputs": [],
      "stateMutability": "nonpayable",
      "type": "function"
    },
    {
      "inputs": [
        {
          "internalType": "address",
          "name": "owner",
          "type": "address"
        },
        {
          "internalType": "address",
          "name": "operator",
          "type": "address"
        }
      ],
      "name": "isApprovedForAll",
      "outputs": [
        {
          "internalType": "bool",
          "name": "",
          "type": "bool"
        }
      ],
      "stateMutability": "view",
      "type": "function"
    },
    {
      "inputs": [
        {
          "internalType": "uint256",
          "name": "tokenId",
          "type": "uint256"
        }
      ],
      "name": "mint",
      "outputs": [],
      "stateMutability": "nonpayable",
      "type": "function"
    },
    {
      "inputs": [],
      "name": "name",
      "outputs": [
        {
          "internalType": "string",
          "name": "",
          "type": "string"
        }
      ],
      "stateMutability": "view",
      "type": "function"
    },
    {
      "inputs": [
        {
          "internalType": "uint256",
          "name": "tokenId",
          "type": "uint256"
        }
      ],
      "name": "openBox",
      "outputs": [],
      "stateMutability": "nonpayable",
      "type": "function"
    },
    {
      "inputs": [],
      "name": "owner",
      "outputs": [
        {
          "internalType": "address",
          "name": "",
          "type": "address"
        }
      ],
      "stateMutability": "view",
      "type": "function"
    },
    {
      "inputs": [
        {
          "internalType": "uint256",
          "name": "tokenId",
          "type": "uint256"
        }
      ],
      "name": "ownerOf",
      "outputs": [
        {
          "internalType": "address",
          "name": "",
          "type": "address"
        }
      ],
      "stateMutability": "view",
      "type": "function"
    },
    {
      "inputs": [],
      "name": "proxiableUUID",
      "outputs": [
        {
          "internalType": "bytes32",
          "name": "",
          "type": "bytes32"
        }
      ],
      "stateMutability": "view",
      "type": "function"
    },
    {
      "inputs": [],
      "name": "renounceOwnership",
      "outputs": [],
      "stateMutability": "nonpayable",
      "type": "function"
    },
    {
      "inputs": [
        {
          "internalType": "bytes32",
          "name": "role",
          "type": "bytes32"
        },
        {
          "internalType": "address",
          "name": "account",
          "type": "address"
        }
      ],
      "name": "renounceRole",
      "outputs": [],
      "stateMutability": "nonpayable",
      "type": "function"
    },
    {
      "inputs": [
        {
          "internalType": "address",
          "name": "to",
          "type": "address"
        },
        {
          "internalType": "uint256",
          "name": "value",
          "type": "uint256"
        },
        {
          "internalType": "bytes",
          "name": "data",
          "type": "bytes"
        },
        {
          "internalType": "enum InterfaceFunction.Operation",
          "name": "operation",
          "type": "uint8"
        }
      ],
      "name": "requiredTxGas",
      "outputs": [],
      "stateMutability": "nonpayable",
      "type": "function"
    },
    {
      "inputs": [
        {
          "internalType": "bytes32",
          "name": "role",
          "type": "bytes32"
        },
        {
          "internalType": "address",
          "name": "account",
          "type": "address"
        }
      ],
      "name": "revokeRole",
      "outputs": [],
      "stateMutability": "nonpayable",
      "type": "function"
    },
    {
      "inputs": [],
      "name": "s_nftOpeningItem",
      "outputs": [
        {
          "internalType": "contract INFTOpeningItem",
          "name": "",
          "type": "address"
        }
      ],
      "stateMutability": "view",
      "type": "function"
    },
    {
      "inputs": [],
      "name": "s_payToken",
      "outputs": [
        {
          "internalType": "contract IERC20",
          "name": "",
          "type": "address"
        }
      ],
      "stateMutability": "view",
      "type": "function"
    },
    {
      "inputs": [
        {
          "internalType": "address",
          "name": "from",
          "type": "address"
        },
        {
          "internalType": "address",
          "name": "to",
          "type": "address"
        },
        {
          "internalType": "uint256",
          "name": "tokenId",
          "type": "uint256"
        }
      ],
      "name": "safeTransferFrom",
      "outputs": [],
      "stateMutability": "nonpayable",
      "type": "function"
    },
    {
      "inputs": [
        {
          "internalType": "address",
          "name": "from",
          "type": "address"
        },
        {
          "internalType": "address",
          "name": "to",
          "type": "address"
        },
        {
          "internalType": "uint256",
          "name": "tokenId",
          "type": "uint256"
        },
        {
          "internalType": "bytes",
          "name": "data",
          "type": "bytes"
        }
      ],
      "name": "safeTransferFrom",
      "outputs": [],
      "stateMutability": "nonpayable",
      "type": "function"
    },
    {
      "inputs": [
        {
          "internalType": "address",
          "name": "operator",
          "type": "address"
        },
        {
          "internalType": "bool",
          "name": "approved",
          "type": "bool"
        }
      ],
      "name": "setApprovalForAll",
      "outputs": [],
      "stateMutability": "nonpayable",
      "type": "function"
    },
    {
      "inputs": [
        {
          "internalType": "contract INFTOpeningItem",
          "name": "_openingItem",
          "type": "address"
        }
      ],
      "name": "setNftOpeningItem",
      "outputs": [],
      "stateMutability": "nonpayable",
      "type": "function"
    },
    {
      "inputs": [
        {
          "internalType": "contract IERC20",
          "name": "_newPayToken",
          "type": "address"
        }
      ],
      "name": "setPayToken",
      "outputs": [],
      "stateMutability": "nonpayable",
      "type": "function"
    },
    {
      "inputs": [
        {
          "internalType": "bytes4",
          "name": "interfaceId",
          "type": "bytes4"
        }
      ],
      "name": "supportsInterface",
      "outputs": [
        {
          "internalType": "bool",
          "name": "",
          "type": "bool"
        }
      ],
      "stateMutability": "view",
      "type": "function"
    },
    {
      "inputs": [],
      "name": "symbol",
      "outputs": [
        {
          "internalType": "string",
          "name": "",
          "type": "string"
        }
      ],
      "stateMutability": "view",
      "type": "function"
    },
    {
      "inputs": [
        {
          "internalType": "uint256",
          "name": "tokenId",
          "type": "uint256"
        }
      ],
      "name": "tokenURI",
      "outputs": [
        {
          "internalType": "string",
          "name": "",
          "type": "string"
        }
      ],
      "stateMutability": "view",
      "type": "function"
    },
    {
      "inputs": [
        {
          "internalType": "address",
          "name": "from",
          "type": "address"
        },
        {
          "internalType": "address",
          "name": "to",
          "type": "address"
        },
        {
          "internalType": "uint256",
          "name": "tokenId",
          "type": "uint256"
        }
      ],
      "name": "transferFrom",
      "outputs": [],
      "stateMutability": "nonpayable",
      "type": "function"
    },
    {
      "inputs": [
        {
          "internalType": "address",
          "name": "newOwner",
          "type": "address"
        }
      ],
      "name": "transferOwnership",
      "outputs": [],
      "stateMutability": "nonpayable",
      "type": "function"
    },
    {
      "inputs": [
        {
          "internalType": "address",
          "name": "newImplementation",
          "type": "address"
        }
      ],
      "name": "upgradeTo",
      "outputs": [],
      "stateMutability": "nonpayable",
      "type": "function"
    },
    {
      "inputs": [
        {
          "internalType": "address",
          "name": "newImplementation",
          "type": "address"
        },
        {
          "internalType": "bytes",
          "name": "data",
          "type": "bytes"
        }
      ],
      "name": "upgradeToAndCall",
      "outputs": [],
      "stateMutability": "payable",
      "type": "function"
    }
  ],
  "bytecode": "0x60a06040523073ffffffffffffffffffffffffffffffffffffffff1660809073ffffffffffffffffffffffffffffffffffffffff1681525034801561004357600080fd5b506080516163016200007c60003960008181610b6e01528181610bfc01528181610d1601528181610da40152610e5401526163016000f3fe6080604052600436106102045760003560e01c80638da5cb5b11610118578063b1e5e2b7116100a0578063c87b56dd1161006f578063c87b56dd14610752578063d547741f1461078f578063e4a4a2a3146107b8578063e985e9c5146107e1578063f2fde38b1461081e57610204565b8063b1e5e2b7146106ac578063b224d82b146106d5578063b88d4fde14610700578063c4ca3a9c1461072957610204565b806395d89b41116100e757806395d89b41146105d9578063a0712d6814610604578063a217fddf1461062d578063a22cb46514610658578063b0952aff1461068157610204565b80638da5cb5b1461050b5780638f0b7b681461053657806391d148541461055f5780639254b8151461059c57610204565b80633659cfe61161019b5780636352211e1161016a5780636352211e146104285780636f96e99c1461046557806370a082311461048e578063715018a6146104cb57806388c63a57146104e257610204565b80633659cfe61461038f57806342842e0e146103b85780634f1ef286146103e157806352d1902d146103fd57610204565b806323b872dd116101d757806323b872dd146102d7578063248a9ca3146103005780632f2ff15d1461033d57806336568abe1461036657610204565b806301ffc9a71461020957806306fdde0314610246578063081812fc14610271578063095ea7b3146102ae575b600080fd5b34801561021557600080fd5b50610230600480360381019061022b9190613b8d565b610847565b60405161023d9190613bd5565b60405180910390f35b34801561025257600080fd5b5061025b610859565b6040516102689190613c80565b60405180910390f35b34801561027d57600080fd5b5061029860048036038101906102939190613cd8565b6108eb565b6040516102a59190613d46565b60405180910390f35b3480156102ba57600080fd5b506102d560048036038101906102d09190613d8d565b610931565b005b3480156102e357600080fd5b506102fe60048036038101906102f99190613dcd565b610a48565b005b34801561030c57600080fd5b5061032760048036038101906103229190613e56565b610aa8565b6040516103349190613e92565b60405180910390f35b34801561034957600080fd5b50610364600480360381019061035f9190613ead565b610ac8565b005b34801561037257600080fd5b5061038d60048036038101906103889190613ead565b610ae9565b005b34801561039b57600080fd5b506103b660048036038101906103b19190613eed565b610b6c565b005b3480156103c457600080fd5b506103df60048036038101906103da9190613dcd565b610cf4565b005b6103fb60048036038101906103f6919061404f565b610d14565b005b34801561040957600080fd5b50610412610e50565b60405161041f9190613e92565b60405180910390f35b34801561043457600080fd5b5061044f600480360381019061044a9190613cd8565b610f09565b60405161045c9190613d46565b60405180910390f35b34801561047157600080fd5b5061048c600480360381019061048791906140e9565b610f8f565b005b34801561049a57600080fd5b506104b560048036038101906104b09190613eed565b611115565b6040516104c29190614125565b60405180910390f35b3480156104d757600080fd5b506104e06111cc565b005b3480156104ee57600080fd5b506105096004803603810190610504919061417e565b6111e0565b005b34801561051757600080fd5b50610520611366565b60405161052d9190613d46565b60405180910390f35b34801561054257600080fd5b5061055d60048036038101906105589190614230565b611391565b005b34801561056b57600080fd5b5061058660048036038101906105819190613ead565b611435565b6040516105939190613bd5565b60405180910390f35b3480156105a857600080fd5b506105c360048036038101906105be9190613eed565b6114a0565b6040516105d09190614388565b60405180910390f35b3480156105e557600080fd5b506105ee611538565b6040516105fb9190613c80565b60405180910390f35b34801561061057600080fd5b5061062b60048036038101906106269190613cd8565b6115ca565b005b34801561063957600080fd5b506106426119a8565b60405161064f9190613e92565b60405180910390f35b34801561066457600080fd5b5061067f600480360381019061067a91906143d6565b6119af565b005b34801561068d57600080fd5b506106966119c5565b6040516106a39190614475565b60405180910390f35b3480156106b857600080fd5b506106d360048036038101906106ce9190613cd8565b6119ec565b005b3480156106e157600080fd5b506106ea611bbb565b6040516106f791906144b1565b60405180910390f35b34801561070c57600080fd5b50610727600480360381019061072291906144cc565b611be2565b005b34801561073557600080fd5b50610750600480360381019061074b919061454f565b611c44565b005b34801561075e57600080fd5b5061077960048036038101906107749190613cd8565b611cf7565b6040516107869190613c80565b60405180910390f35b34801561079b57600080fd5b506107b660048036038101906107b19190613ead565b611d95565b005b3480156107c457600080fd5b506107df60048036038101906107da9190614678565b611db6565b005b3480156107ed57600080fd5b5061080860048036038101906108039190614796565b612031565b6040516108159190613bd5565b60405180910390f35b34801561082a57600080fd5b5061084560048036038101906108409190613eed565b6120c5565b005b600061085282612148565b9050919050565b60606065805461086890614805565b80601f016020809104026020016040519081016040528092919081815260200182805461089490614805565b80156108e15780601f106108b6576101008083540402835291602001916108e1565b820191906000526020600020905b8154815290600101906020018083116108c457829003601f168201915b5050505050905090565b60006108f6826121c2565b6069600083815260200190815260200160002060009054906101000a900473ffffffffffffffffffffffffffffffffffffffff169050919050565b600061093c82610f09565b90508073ffffffffffffffffffffffffffffffffffffffff168373ffffffffffffffffffffffffffffffffffffffff16036109ac576040517f08c379a00000000000000000000000000000000000000000000000000000000081526004016109a3906148a8565b60405180910390fd5b8073ffffffffffffffffffffffffffffffffffffffff166109cb61220d565b73ffffffffffffffffffffffffffffffffffffffff1614806109fa57506109f9816109f461220d565b612031565b5b610a39576040517f08c379a0000000000000000000000000000000000000000000000000000000008152600401610a309061493a565b60405180910390fd5b610a438383612215565b505050565b610a59610a5361220d565b826122ce565b610a98576040517f08c379a0000000000000000000000000000000000000000000000000000000008152600401610a8f906149cc565b60405180910390fd5b610aa3838383612363565b505050565b600060976000838152602001908152602001600020600101549050919050565b610ad182610aa8565b610ada8161265c565b610ae48383612670565b505050565b610af161220d565b73ffffffffffffffffffffffffffffffffffffffff168173ffffffffffffffffffffffffffffffffffffffff1614610b5e576040517f08c379a0000000000000000000000000000000000000000000000000000000008152600401610b5590614a5e565b60405180910390fd5b610b688282612751565b5050565b7f000000000000000000000000000000000000000000000000000000000000000073ffffffffffffffffffffffffffffffffffffffff163073ffffffffffffffffffffffffffffffffffffffff1603610bfa576040517f08c379a0000000000000000000000000000000000000000000000000000000008152600401610bf190614af0565b60405180910390fd5b7f000000000000000000000000000000000000000000000000000000000000000073ffffffffffffffffffffffffffffffffffffffff16610c39612833565b73ffffffffffffffffffffffffffffffffffffffff1614610c8f576040517f08c379a0000000000000000000000000000000000000000000000000000000008152600401610c8690614b82565b60405180910390fd5b610c988161288a565b610cf181600067ffffffffffffffff811115610cb757610cb6613f24565b5b6040519080825280601f01601f191660200182016040528015610ce95781602001600182028036833780820191505090505b5060006128b8565b50565b610d0f83838360405180602001604052806000815250611be2565b505050565b7f000000000000000000000000000000000000000000000000000000000000000073ffffffffffffffffffffffffffffffffffffffff163073ffffffffffffffffffffffffffffffffffffffff1603610da2576040517f08c379a0000000000000000000000000000000000000000000000000000000008152600401610d9990614af0565b60405180910390fd5b7f000000000000000000000000000000000000000000000000000000000000000073ffffffffffffffffffffffffffffffffffffffff16610de1612833565b73ffffffffffffffffffffffffffffffffffffffff1614610e37576040517f08c379a0000000000000000000000000000000000000000000000000000000008152600401610e2e90614b82565b60405180910390fd5b610e408261288a565b610e4c828260016128b8565b5050565b60007f000000000000000000000000000000000000000000000000000000000000000073ffffffffffffffffffffffffffffffffffffffff163073ffffffffffffffffffffffffffffffffffffffff1614610ee0576040517f08c379a0000000000000000000000000000000000000000000000000000000008152600401610ed790614c14565b60405180910390fd5b7f360894a13ba1a3210667c828492db98dca3e2076cc3735a920a3ca505d382bbc60001b905090565b600080610f1583612a26565b9050600073ffffffffffffffffffffffffffffffffffffffff168173ffffffffffffffffffffffffffffffffffffffff1603610f86576040517f08c379a0000000000000000000000000000000000000000000000000000000008152600401610f7d90614c80565b60405180910390fd5b80915050919050565b7f22c69ab406805e70d07fb1a6502af760601d3b977beadb295a9d76d5852e16a3610fb98161265c565b61015f60009054906101000a900473ffffffffffffffffffffffffffffffffffffffff1673ffffffffffffffffffffffffffffffffffffffff168273ffffffffffffffffffffffffffffffffffffffff160361104a576040517f08c379a000000000000000000000000000000000000000000000000000000000815260040161104190614d38565b60405180910390fd5b600061015f60009054906101000a900473ffffffffffffffffffffffffffffffffffffffff1690508261015f60006101000a81548173ffffffffffffffffffffffffffffffffffffffff021916908373ffffffffffffffffffffffffffffffffffffffff1602179055507f95b51941f4e9b50395a323548e977103f9f32e909efa973665c8c2889c4e51068161016260009054906101000a900473ffffffffffffffffffffffffffffffffffffffff16604051611108929190614d58565b60405180910390a1505050565b60008073ffffffffffffffffffffffffffffffffffffffff168273ffffffffffffffffffffffffffffffffffffffff1603611185576040517f08c379a000000000000000000000000000000000000000000000000000000000815260040161117c90614df3565b60405180910390fd5b606860008373ffffffffffffffffffffffffffffffffffffffff1673ffffffffffffffffffffffffffffffffffffffff168152602001908152602001600020549050919050565b6111d4612a63565b6111de6000612ae1565b565b7f22c69ab406805e70d07fb1a6502af760601d3b977beadb295a9d76d5852e16a361120a8161265c565b61016260009054906101000a900473ffffffffffffffffffffffffffffffffffffffff1673ffffffffffffffffffffffffffffffffffffffff168273ffffffffffffffffffffffffffffffffffffffff160361129b576040517f08c379a000000000000000000000000000000000000000000000000000000000815260040161129290614eab565b60405180910390fd5b600061016260009054906101000a900473ffffffffffffffffffffffffffffffffffffffff1690508261016260006101000a81548173ffffffffffffffffffffffffffffffffffffffff021916908373ffffffffffffffffffffffffffffffffffffffff1602179055507fcd96411d27b0679c066181f5eada6e87b37923da830ba84a40dd98933e694fe18161016260009054906101000a900473ffffffffffffffffffffffffffffffffffffffff16604051611359929190614d58565b60405180910390a1505050565b600061012d60009054906101000a900473ffffffffffffffffffffffffffffffffffffffff16905090565b7fa49807205ce4d355092ef5a8a18f56e8913cf4a201fbe287825b095693c217756113bb8161265c565b73__$afec012158ebc01e771e0b8521b3c90181$__6339d1efc68888888888886040518763ffffffff1660e01b81526004016113fc96959493929190614f9e565b60006040518083038186803b15801561141457600080fd5b505af4158015611428573d6000803e3d6000fd5b5050505050505050505050565b60006097600084815260200190815260200160002060000160008373ffffffffffffffffffffffffffffffffffffffff1673ffffffffffffffffffffffffffffffffffffffff16815260200190815260200160002060009054906101000a900460ff16905092915050565b606061016360008373ffffffffffffffffffffffffffffffffffffffff1673ffffffffffffffffffffffffffffffffffffffff16815260200190815260200160002080548060200260200160405190810160405280929190818152602001828054801561152c57602002820191906000526020600020905b815481526020019060010190808311611518575b50505050509050919050565b60606066805461154790614805565b80601f016020809104026020016040519081016040528092919081815260200182805461157390614805565b80156115c05780601f10611595576101008083540402835291602001916115c0565b820191906000526020600020905b8154815290600101906020018083116115a357829003601f168201915b5050505050905090565b61015f60009054906101000a900473ffffffffffffffffffffffffffffffffffffffff16333061016754808473ffffffffffffffffffffffffffffffffffffffff1663dd62ed3e85856040518363ffffffff1660e01b8152600401611630929190614d58565b602060405180830381865afa15801561164d573d6000803e3d6000fd5b505050506040513d601f19601f82011682018060405250810190611671919061500f565b10156116b2576040517f08c379a00000000000000000000000000000000000000000000000000000000081526004016116a990615088565b60405180910390fd5b610169544210156116f8576040517f08c379a00000000000000000000000000000000000000000000000000000000081526004016116ef906150f4565b60405180910390fd5b61016a5442111561173e576040517f08c379a000000000000000000000000000000000000000000000000000000000815260040161173590615160565b60405180910390fd5b610166546101685410611786576040517f08c379a000000000000000000000000000000000000000000000000000000000815260040161177d906151cc565b60405180910390fd5b600061016560009054906101000a900460ff166117ee576117a686612ba9565b156117e6576040517f08c379a00000000000000000000000000000000000000000000000000000000081526004016117dd9061525e565b60405180910390fd5b859050611807565b6117f9610161612bea565b611804610161612c00565b90505b61015f60009054906101000a900473ffffffffffffffffffffffffffffffffffffffff1673ffffffffffffffffffffffffffffffffffffffff166323b872dd3330610167546040518463ffffffff1660e01b815260040161186a9392919061527e565b6020604051808303816000875af1158015611889573d6000803e3d6000fd5b505050506040513d601f19601f820116820180604052508101906118ad91906152ca565b506118b83382612c0e565b600161016860008282546118cc9190615326565b9250508190555061016360003373ffffffffffffffffffffffffffffffffffffffff1673ffffffffffffffffffffffffffffffffffffffff1681526020019081526020016000208190806001815401808255809150506001900390600052602060002001600090919091909150556000610164600083815260200190815260200160002060006101000a81548160ff0219169083151502179055507ffc12685c49cfeb42745015fd291b95815c183f87696b74009c88ed640a03b247338260405161199892919061535a565b60405180910390a1505050505050565b6000801b81565b6119c16119ba61220d565b8383612e2b565b5050565b61016260009054906101000a900473ffffffffffffffffffffffffffffffffffffffff1681565b3373ffffffffffffffffffffffffffffffffffffffff16611a0c82610f09565b73ffffffffffffffffffffffffffffffffffffffff1614611a62576040517f08c379a0000000000000000000000000000000000000000000000000000000008152600401611a59906153cf565b60405180910390fd5b610164600082815260200190815260200160002060009054906101000a900460ff1615611ac4576040517f08c379a0000000000000000000000000000000000000000000000000000000008152600401611abb9061543b565b60405180910390fd5b61016260009054906101000a900473ffffffffffffffffffffffffffffffffffffffff1673ffffffffffffffffffffffffffffffffffffffff1663d2318eae336040518263ffffffff1660e01b8152600401611b209190613d46565b600060405180830381600087803b158015611b3a57600080fd5b505af1158015611b4e573d6000803e3d6000fd5b505050506001610164600083815260200190815260200160002060006101000a81548160ff0219169083151502179055507f985873858e85c45546ea9ae9a4f36f740f1654da6c06d25bd88e3a1307ed22df3382604051611bb092919061535a565b60405180910390a150565b61015f60009054906101000a900473ffffffffffffffffffffffffffffffffffffffff1681565b611bf3611bed61220d565b836122ce565b611c32576040517f08c379a0000000000000000000000000000000000000000000000000000000008152600401611c29906149cc565b60405180910390fd5b611c3e84848484612f97565b50505050565b7fa49807205ce4d355092ef5a8a18f56e8913cf4a201fbe287825b095693c21775611c6e8161265c565b73__$afec012158ebc01e771e0b8521b3c90181$__637a17125987878787876040518663ffffffff1660e01b8152600401611cad95949392919061545b565b602060405180830381865af4158015611cca573d6000803e3d6000fd5b505050506040513d601f19601f82011682018060405250810190611cee919061500f565b50505050505050565b6060611d02826121c2565b6101608054611d1090614805565b80601f0160208091040260200160405190810160405280929190818152602001828054611d3c90614805565b8015611d895780601f10611d5e57610100808354040283529160200191611d89565b820191906000526020600020905b815481529060010190602001808311611d6c57829003601f168201915b50505050509050919050565b611d9e82610aa8565b611da78161265c565b611db18383612751565b505050565b60008060019054906101000a900460ff16159050808015611de75750600160008054906101000a900460ff1660ff16105b80611e145750611df630612ff3565b158015611e135750600160008054906101000a900460ff1660ff16145b5b611e53576040517f08c379a0000000000000000000000000000000000000000000000000000000008152600401611e4a9061551b565b60405180910390fd5b60016000806101000a81548160ff021916908360ff1602179055508015611e90576001600060016101000a81548160ff0219169083151502179055505b8861015f60006101000a81548173ffffffffffffffffffffffffffffffffffffffff021916908373ffffffffffffffffffffffffffffffffffffffff160217905550896101609081611ee291906156dd565b5085610169819055508461016a819055508361016560006101000a81548160ff02191690831515021790555082610166819055508161016781905550611f288888613016565b611f30613073565b611f386130c4565b611f4132612ae1565b611f4e6000801b32613115565b611f787fa49807205ce4d355092ef5a8a18f56e8913cf4a201fbe287825b095693c2177532613115565b611fa27f22c69ab406805e70d07fb1a6502af760601d3b977beadb295a9d76d5852e16a332613115565b611fcc7f5d8e12c39142ff96d79d04d15d1ba1269e4fe57bb9d26f43523628b34ba108ec32613115565b80156120255760008060016101000a81548160ff0219169083151502179055507f7f26b83ff96e1f2b6a682f133852f6798a09c465da95921460cefb3847402498600160405161201c91906157f7565b60405180910390a15b50505050505050505050565b6000606a60008473ffffffffffffffffffffffffffffffffffffffff1673ffffffffffffffffffffffffffffffffffffffff16815260200190815260200160002060008373ffffffffffffffffffffffffffffffffffffffff1673ffffffffffffffffffffffffffffffffffffffff16815260200190815260200160002060009054906101000a900460ff16905092915050565b6120cd612a63565b600073ffffffffffffffffffffffffffffffffffffffff168173ffffffffffffffffffffffffffffffffffffffff160361213c576040517f08c379a000000000000000000000000000000000000000000000000000000000815260040161213390615884565b60405180910390fd5b61214581612ae1565b50565b60007f7965db0b000000000000000000000000000000000000000000000000000000007bffffffffffffffffffffffffffffffffffffffffffffffffffffffff1916827bffffffffffffffffffffffffffffffffffffffffffffffffffffffff191614806121bb57506121ba82613123565b5b9050919050565b6121cb81612ba9565b61220a576040517f08c379a000000000000000000000000000000000000000000000000000000000815260040161220190614c80565b60405180910390fd5b50565b600033905090565b816069600083815260200190815260200160002060006101000a81548173ffffffffffffffffffffffffffffffffffffffff021916908373ffffffffffffffffffffffffffffffffffffffff160217905550808273ffffffffffffffffffffffffffffffffffffffff1661228883610f09565b73ffffffffffffffffffffffffffffffffffffffff167f8c5be1e5ebec7d5bd14f71427d1e84f3dd0314c0f7b2291e5b200ac8c7c3b92560405160405180910390a45050565b6000806122da83610f09565b90508073ffffffffffffffffffffffffffffffffffffffff168473ffffffffffffffffffffffffffffffffffffffff16148061231c575061231b8185612031565b5b8061235a57508373ffffffffffffffffffffffffffffffffffffffff16612342846108eb565b73ffffffffffffffffffffffffffffffffffffffff16145b91505092915050565b8273ffffffffffffffffffffffffffffffffffffffff1661238382610f09565b73ffffffffffffffffffffffffffffffffffffffff16146123d9576040517f08c379a00000000000000000000000000000000000000000000000000000000081526004016123d090615916565b60405180910390fd5b600073ffffffffffffffffffffffffffffffffffffffff168273ffffffffffffffffffffffffffffffffffffffff1603612448576040517f08c379a000000000000000000000000000000000000000000000000000000000815260040161243f906159a8565b60405180910390fd5b6124558383836001613205565b8273ffffffffffffffffffffffffffffffffffffffff1661247582610f09565b73ffffffffffffffffffffffffffffffffffffffff16146124cb576040517f08c379a00000000000000000000000000000000000000000000000000000000081526004016124c290615916565b60405180910390fd5b6069600082815260200190815260200160002060006101000a81549073ffffffffffffffffffffffffffffffffffffffff02191690556001606860008573ffffffffffffffffffffffffffffffffffffffff1673ffffffffffffffffffffffffffffffffffffffff168152602001908152602001600020600082825403925050819055506001606860008473ffffffffffffffffffffffffffffffffffffffff1673ffffffffffffffffffffffffffffffffffffffff16815260200190815260200160002060008282540192505081905550816067600083815260200190815260200160002060006101000a81548173ffffffffffffffffffffffffffffffffffffffff021916908373ffffffffffffffffffffffffffffffffffffffff160217905550808273ffffffffffffffffffffffffffffffffffffffff168473ffffffffffffffffffffffffffffffffffffffff167fddf252ad1be2c89b69c2b068fc378daa952ba7f163c4a11628f55a4df523b3ef60405160405180910390a4612657838383600161332b565b505050565b61266d8161266861220d565b613331565b50565b61267a8282611435565b61274d5760016097600084815260200190815260200160002060000160008373ffffffffffffffffffffffffffffffffffffffff1673ffffffffffffffffffffffffffffffffffffffff16815260200190815260200160002060006101000a81548160ff0219169083151502179055506126f261220d565b73ffffffffffffffffffffffffffffffffffffffff168173ffffffffffffffffffffffffffffffffffffffff16837f2f8788117e7eff1d82e926ec794901d17c78024a50270940304540a733656f0d60405160405180910390a45b5050565b61275b8282611435565b1561282f5760006097600084815260200190815260200160002060000160008373ffffffffffffffffffffffffffffffffffffffff1673ffffffffffffffffffffffffffffffffffffffff16815260200190815260200160002060006101000a81548160ff0219169083151502179055506127d461220d565b73ffffffffffffffffffffffffffffffffffffffff168173ffffffffffffffffffffffffffffffffffffffff16837ff6391f5c32d9c69d2a47ea670b442974b53935d1edc7fd64eb21e047a839171b60405160405180910390a45b5050565b60006128617f360894a13ba1a3210667c828492db98dca3e2076cc3735a920a3ca505d382bbc60001b6133b6565b60000160009054906101000a900473ffffffffffffffffffffffffffffffffffffffff16905090565b7fa49807205ce4d355092ef5a8a18f56e8913cf4a201fbe287825b095693c217756128b48161265c565b5050565b6128e47f4910fdfa16fed3260ed0e7147f7cc6da11a60208b5b9406d12a635614ffd914360001b6133c0565b60000160009054906101000a900460ff161561290857612903836133ca565b612a21565b8273ffffffffffffffffffffffffffffffffffffffff166352d1902d6040518163ffffffff1660e01b8152600401602060405180830381865afa92505050801561297057506040513d601f19601f8201168201806040525081019061296d91906159dd565b60015b6129af576040517f08c379a00000000000000000000000000000000000000000000000000000000081526004016129a690615a7c565b60405180910390fd5b7f360894a13ba1a3210667c828492db98dca3e2076cc3735a920a3ca505d382bbc60001b8114612a14576040517f08c379a0000000000000000000000000000000000000000000000000000000008152600401612a0b90615b0e565b60405180910390fd5b50612a20838383613483565b5b505050565b60006067600083815260200190815260200160002060009054906101000a900473ffffffffffffffffffffffffffffffffffffffff169050919050565b612a6b61220d565b73ffffffffffffffffffffffffffffffffffffffff16612a89611366565b73ffffffffffffffffffffffffffffffffffffffff1614612adf576040517f08c379a0000000000000000000000000000000000000000000000000000000008152600401612ad690615b7a565b60405180910390fd5b565b600061012d60009054906101000a900473ffffffffffffffffffffffffffffffffffffffff1690508161012d60006101000a81548173ffffffffffffffffffffffffffffffffffffffff021916908373ffffffffffffffffffffffffffffffffffffffff1602179055508173ffffffffffffffffffffffffffffffffffffffff168173ffffffffffffffffffffffffffffffffffffffff167f8be0079c531659141344cd1fd0a4f28419497f9722a3daafe3b4186f6b6457e060405160405180910390a35050565b60008073ffffffffffffffffffffffffffffffffffffffff16612bcb83612a26565b73ffffffffffffffffffffffffffffffffffffffff1614159050919050565b6001816000016000828254019250508190555050565b600081600001549050919050565b600073ffffffffffffffffffffffffffffffffffffffff168273ffffffffffffffffffffffffffffffffffffffff1603612c7d576040517f08c379a0000000000000000000000000000000000000000000000000000000008152600401612c7490615be6565b60405180910390fd5b612c8681612ba9565b15612cc6576040517f08c379a0000000000000000000000000000000000000000000000000000000008152600401612cbd90615c52565b60405180910390fd5b612cd4600083836001613205565b612cdd81612ba9565b15612d1d576040517f08c379a0000000000000000000000000000000000000000000000000000000008152600401612d1490615c52565b60405180910390fd5b6001606860008473ffffffffffffffffffffffffffffffffffffffff1673ffffffffffffffffffffffffffffffffffffffff16815260200190815260200160002060008282540192505081905550816067600083815260200190815260200160002060006101000a81548173ffffffffffffffffffffffffffffffffffffffff021916908373ffffffffffffffffffffffffffffffffffffffff160217905550808273ffffffffffffffffffffffffffffffffffffffff16600073ffffffffffffffffffffffffffffffffffffffff167fddf252ad1be2c89b69c2b068fc378daa952ba7f163c4a11628f55a4df523b3ef60405160405180910390a4612e2760008383600161332b565b5050565b8173ffffffffffffffffffffffffffffffffffffffff168373ffffffffffffffffffffffffffffffffffffffff1603612e99576040517f08c379a0000000000000000000000000000000000000000000000000000000008152600401612e9090615cbe565b60405180910390fd5b80606a60008573ffffffffffffffffffffffffffffffffffffffff1673ffffffffffffffffffffffffffffffffffffffff16815260200190815260200160002060008473ffffffffffffffffffffffffffffffffffffffff1673ffffffffffffffffffffffffffffffffffffffff16815260200190815260200160002060006101000a81548160ff0219169083151502179055508173ffffffffffffffffffffffffffffffffffffffff168373ffffffffffffffffffffffffffffffffffffffff167f17307eab39ab6107e8899845ad3d59bd9653f200f220920489ca2b5937696c3183604051612f8a9190613bd5565b60405180910390a3505050565b612fa2848484612363565b612fae848484846134af565b612fed576040517f08c379a0000000000000000000000000000000000000000000000000000000008152600401612fe490615d50565b60405180910390fd5b50505050565b6000808273ffffffffffffffffffffffffffffffffffffffff163b119050919050565b600060019054906101000a900460ff16613065576040517f08c379a000000000000000000000000000000000000000000000000000000000815260040161305c90615de2565b60405180910390fd5b61306f8282613636565b5050565b600060019054906101000a900460ff166130c2576040517f08c379a00000000000000000000000000000000000000000000000000000000081526004016130b990615de2565b60405180910390fd5b565b600060019054906101000a900460ff16613113576040517f08c379a000000000000000000000000000000000000000000000000000000000815260040161310a90615de2565b60405180910390fd5b565b61311f8282612670565b5050565b60007f80ac58cd000000000000000000000000000000000000000000000000000000007bffffffffffffffffffffffffffffffffffffffffffffffffffffffff1916827bffffffffffffffffffffffffffffffffffffffffffffffffffffffff191614806131ee57507f5b5e139f000000000000000000000000000000000000000000000000000000007bffffffffffffffffffffffffffffffffffffffffffffffffffffffff1916827bffffffffffffffffffffffffffffffffffffffffffffffffffffffff1916145b806131fe57506131fd826136a9565b5b9050919050565b600181111561332557600073ffffffffffffffffffffffffffffffffffffffff168473ffffffffffffffffffffffffffffffffffffffff16146132995780606860008673ffffffffffffffffffffffffffffffffffffffff1673ffffffffffffffffffffffffffffffffffffffff16815260200190815260200160002060008282546132919190615e02565b925050819055505b600073ffffffffffffffffffffffffffffffffffffffff168373ffffffffffffffffffffffffffffffffffffffff16146133245780606860008573ffffffffffffffffffffffffffffffffffffffff1673ffffffffffffffffffffffffffffffffffffffff168152602001908152602001600020600082825461331c9190615326565b925050819055505b5b50505050565b50505050565b61333b8282611435565b6133b25761334881613713565b6133568360001c6020613740565b604051602001613367929190615f0a565b6040516020818303038152906040526040517f08c379a00000000000000000000000000000000000000000000000000000000081526004016133a99190613c80565b60405180910390fd5b5050565b6000819050919050565b6000819050919050565b6133d381612ff3565b613412576040517f08c379a000000000000000000000000000000000000000000000000000000000815260040161340990615fb6565b60405180910390fd5b8061343f7f360894a13ba1a3210667c828492db98dca3e2076cc3735a920a3ca505d382bbc60001b6133b6565b60000160006101000a81548173ffffffffffffffffffffffffffffffffffffffff021916908373ffffffffffffffffffffffffffffffffffffffff16021790555050565b61348c8361397c565b6000825111806134995750805b156134aa576134a883836139cb565b505b505050565b60006134d08473ffffffffffffffffffffffffffffffffffffffff16612ff3565b15613629578373ffffffffffffffffffffffffffffffffffffffff1663150b7a026134f961220d565b8786866040518563ffffffff1660e01b815260040161351b949392919061602b565b6020604051808303816000875af192505050801561355757506040513d601f19601f82011682018060405250810190613554919061608c565b60015b6135d9573d8060008114613587576040519150601f19603f3d011682016040523d82523d6000602084013e61358c565b606091505b5060008151036135d1576040517f08c379a00000000000000000000000000000000000000000000000000000000081526004016135c890615d50565b60405180910390fd5b805181602001fd5b63150b7a0260e01b7bffffffffffffffffffffffffffffffffffffffffffffffffffffffff1916817bffffffffffffffffffffffffffffffffffffffffffffffffffffffff19161491505061362e565b600190505b949350505050565b600060019054906101000a900460ff16613685576040517f08c379a000000000000000000000000000000000000000000000000000000000815260040161367c90615de2565b60405180910390fd5b816065908161369491906156dd565b5080606690816136a491906156dd565b505050565b60007f01ffc9a7000000000000000000000000000000000000000000000000000000007bffffffffffffffffffffffffffffffffffffffffffffffffffffffff1916827bffffffffffffffffffffffffffffffffffffffffffffffffffffffff1916149050919050565b60606137398273ffffffffffffffffffffffffffffffffffffffff16601460ff16613740565b9050919050565b60606000600283600261375391906160b9565b61375d9190615326565b67ffffffffffffffff81111561377657613775613f24565b5b6040519080825280601f01601f1916602001820160405280156137a85781602001600182028036833780820191505090505b5090507f3000000000000000000000000000000000000000000000000000000000000000816000815181106137e0576137df6160fb565b5b60200101907effffffffffffffffffffffffffffffffffffffffffffffffffffffffffffff1916908160001a9053507f780000000000000000000000000000000000000000000000000000000000000081600181518110613844576138436160fb565b5b60200101907effffffffffffffffffffffffffffffffffffffffffffffffffffffffffffff1916908160001a9053506000600184600261388491906160b9565b61388e9190615326565b90505b600181111561392e577f3031323334353637383961626364656600000000000000000000000000000000600f8616601081106138d0576138cf6160fb565b5b1a60f81b8282815181106138e7576138e66160fb565b5b60200101907effffffffffffffffffffffffffffffffffffffffffffffffffffffffffffff1916908160001a905350600485901c9450806139279061612a565b9050613891565b5060008414613972576040517f08c379a00000000000000000000000000000000000000000000000000000000081526004016139699061619f565b60405180910390fd5b8091505092915050565b613985816133ca565b8073ffffffffffffffffffffffffffffffffffffffff167fbc7cd75a20ee27fd9adebab32041f755214dbc6bffa90cc0225b39da2e5c2d3b60405160405180910390a250565b60606139d683612ff3565b613a15576040517f08c379a0000000000000000000000000000000000000000000000000000000008152600401613a0c90616231565b60405180910390fd5b6000808473ffffffffffffffffffffffffffffffffffffffff1684604051613a3d919061628d565b600060405180830381855af49150503d8060008114613a78576040519150601f19603f3d011682016040523d82523d6000602084013e613a7d565b606091505b5091509150613aa582826040518060600160405280602781526020016162a560279139613aaf565b9250505092915050565b60608315613abf57829050613aca565b613ac98383613ad1565b5b9392505050565b600082511115613ae45781518083602001fd5b806040517f08c379a0000000000000000000000000000000000000000000000000000000008152600401613b189190613c80565b60405180910390fd5b6000604051905090565b600080fd5b600080fd5b60007fffffffff0000000000000000000000000000000000000000000000000000000082169050919050565b613b6a81613b35565b8114613b7557600080fd5b50565b600081359050613b8781613b61565b92915050565b600060208284031215613ba357613ba2613b2b565b5b6000613bb184828501613b78565b91505092915050565b60008115159050919050565b613bcf81613bba565b82525050565b6000602082019050613bea6000830184613bc6565b92915050565b600081519050919050565b600082825260208201905092915050565b60005b83811015613c2a578082015181840152602081019050613c0f565b60008484015250505050565b6000601f19601f8301169050919050565b6000613c5282613bf0565b613c5c8185613bfb565b9350613c6c818560208601613c0c565b613c7581613c36565b840191505092915050565b60006020820190508181036000830152613c9a8184613c47565b905092915050565b6000819050919050565b613cb581613ca2565b8114613cc057600080fd5b50565b600081359050613cd281613cac565b92915050565b600060208284031215613cee57613ced613b2b565b5b6000613cfc84828501613cc3565b91505092915050565b600073ffffffffffffffffffffffffffffffffffffffff82169050919050565b6000613d3082613d05565b9050919050565b613d4081613d25565b82525050565b6000602082019050613d5b6000830184613d37565b92915050565b613d6a81613d25565b8114613d7557600080fd5b50565b600081359050613d8781613d61565b92915050565b60008060408385031215613da457613da3613b2b565b5b6000613db285828601613d78565b9250506020613dc385828601613cc3565b9150509250929050565b600080600060608486031215613de657613de5613b2b565b5b6000613df486828701613d78565b9350506020613e0586828701613d78565b9250506040613e1686828701613cc3565b9150509250925092565b6000819050919050565b613e3381613e20565b8114613e3e57600080fd5b50565b600081359050613e5081613e2a565b92915050565b600060208284031215613e6c57613e6b613b2b565b5b6000613e7a84828501613e41565b91505092915050565b613e8c81613e20565b82525050565b6000602082019050613ea76000830184613e83565b92915050565b60008060408385031215613ec457613ec3613b2b565b5b6000613ed285828601613e41565b9250506020613ee385828601613d78565b9150509250929050565b600060208284031215613f0357613f02613b2b565b5b6000613f1184828501613d78565b91505092915050565b600080fd5b600080fd5b7f4e487b7100000000000000000000000000000000000000000000000000000000600052604160045260246000fd5b613f5c82613c36565b810181811067ffffffffffffffff82111715613f7b57613f7a613f24565b5b80604052505050565b6000613f8e613b21565b9050613f9a8282613f53565b919050565b600067ffffffffffffffff821115613fba57613fb9613f24565b5b613fc382613c36565b9050602081019050919050565b82818337600083830152505050565b6000613ff2613fed84613f9f565b613f84565b90508281526020810184848401111561400e5761400d613f1f565b5b614019848285613fd0565b509392505050565b600082601f83011261403657614035613f1a565b5b8135614046848260208601613fdf565b91505092915050565b6000806040838503121561406657614065613b2b565b5b600061407485828601613d78565b925050602083013567ffffffffffffffff81111561409557614094613b30565b5b6140a185828601614021565b9150509250929050565b60006140b682613d25565b9050919050565b6140c6816140ab565b81146140d157600080fd5b50565b6000813590506140e3816140bd565b92915050565b6000602082840312156140ff576140fe613b2b565b5b600061410d848285016140d4565b91505092915050565b61411f81613ca2565b82525050565b600060208201905061413a6000830184614116565b92915050565b600061414b82613d25565b9050919050565b61415b81614140565b811461416657600080fd5b50565b60008135905061417881614152565b92915050565b60006020828403121561419457614193613b2b565b5b60006141a284828501614169565b91505092915050565b600080fd5b600080fd5b60008083601f8401126141cb576141ca613f1a565b5b8235905067ffffffffffffffff8111156141e8576141e76141ab565b5b602083019150836001820283011115614204576142036141b0565b5b9250929050565b6002811061421857600080fd5b50565b60008135905061422a8161420b565b92915050565b60008060008060008060a0878903121561424d5761424c613b2b565b5b600061425b89828a01613d78565b965050602061426c89828a01613cc3565b955050604061427d89828a01613cc3565b945050606087013567ffffffffffffffff81111561429e5761429d613b30565b5b6142aa89828a016141b5565b935093505060806142bd89828a0161421b565b9150509295509295509295565b600081519050919050565b600082825260208201905092915050565b6000819050602082019050919050565b6142ff81613ca2565b82525050565b600061431183836142f6565b60208301905092915050565b6000602082019050919050565b6000614335826142ca565b61433f81856142d5565b935061434a836142e6565b8060005b8381101561437b5781516143628882614305565b975061436d8361431d565b92505060018101905061434e565b5085935050505092915050565b600060208201905081810360008301526143a2818461432a565b905092915050565b6143b381613bba565b81146143be57600080fd5b50565b6000813590506143d0816143aa565b92915050565b600080604083850312156143ed576143ec613b2b565b5b60006143fb85828601613d78565b925050602061440c858286016143c1565b9150509250929050565b6000819050919050565b600061443b61443661443184613d05565b614416565b613d05565b9050919050565b600061444d82614420565b9050919050565b600061445f82614442565b9050919050565b61446f81614454565b82525050565b600060208201905061448a6000830184614466565b92915050565b600061449b82614442565b9050919050565b6144ab81614490565b82525050565b60006020820190506144c660008301846144a2565b92915050565b600080600080608085870312156144e6576144e5613b2b565b5b60006144f487828801613d78565b945050602061450587828801613d78565b935050604061451687828801613cc3565b925050606085013567ffffffffffffffff81111561453757614536613b30565b5b61454387828801614021565b91505092959194509250565b60008060008060006080868803121561456b5761456a613b2b565b5b600061457988828901613d78565b955050602061458a88828901613cc3565b945050604086013567ffffffffffffffff8111156145ab576145aa613b30565b5b6145b7888289016141b5565b935093505060606145ca8882890161421b565b9150509295509295909350565b600067ffffffffffffffff8211156145f2576145f1613f24565b5b6145fb82613c36565b9050602081019050919050565b600061461b614616846145d7565b613f84565b90508281526020810184848401111561463757614636613f1f565b5b614642848285613fd0565b509392505050565b600082601f83011261465f5761465e613f1a565b5b813561466f848260208601614608565b91505092915050565b60008060008060008060008060006101208a8c03121561469b5761469a613b2b565b5b60008a013567ffffffffffffffff8111156146b9576146b8613b30565b5b6146c58c828d0161464a565b99505060206146d68c828d016140d4565b98505060408a013567ffffffffffffffff8111156146f7576146f6613b30565b5b6147038c828d0161464a565b97505060608a013567ffffffffffffffff81111561472457614723613b30565b5b6147308c828d0161464a565b96505060806147418c828d01613cc3565b95505060a06147528c828d01613cc3565b94505060c06147638c828d016143c1565b93505060e06147748c828d01613cc3565b9250506101006147868c828d01613cc3565b9150509295985092959850929598565b600080604083850312156147ad576147ac613b2b565b5b60006147bb85828601613d78565b92505060206147cc85828601613d78565b9150509250929050565b7f4e487b7100000000000000000000000000000000000000000000000000000000600052602260045260246000fd5b6000600282049050600182168061481d57607f821691505b6020821081036148305761482f6147d6565b5b50919050565b7f4552433732313a20617070726f76616c20746f2063757272656e74206f776e6560008201527f7200000000000000000000000000000000000000000000000000000000000000602082015250565b6000614892602183613bfb565b915061489d82614836565b604082019050919050565b600060208201905081810360008301526148c181614885565b9050919050565b7f4552433732313a20617070726f76652063616c6c6572206973206e6f7420746f60008201527f6b656e206f776e6572206f7220617070726f76656420666f7220616c6c000000602082015250565b6000614924603d83613bfb565b915061492f826148c8565b604082019050919050565b6000602082019050818103600083015261495381614917565b9050919050565b7f4552433732313a2063616c6c6572206973206e6f7420746f6b656e206f776e6560008201527f72206f7220617070726f76656400000000000000000000000000000000000000602082015250565b60006149b6602d83613bfb565b91506149c18261495a565b604082019050919050565b600060208201905081810360008301526149e5816149a9565b9050919050565b7f416363657373436f6e74726f6c3a2063616e206f6e6c792072656e6f756e636560008201527f20726f6c657320666f722073656c660000000000000000000000000000000000602082015250565b6000614a48602f83613bfb565b9150614a53826149ec565b604082019050919050565b60006020820190508181036000830152614a7781614a3b565b9050919050565b7f46756e6374696f6e206d7573742062652063616c6c6564207468726f7567682060008201527f64656c656761746563616c6c0000000000000000000000000000000000000000602082015250565b6000614ada602c83613bfb565b9150614ae582614a7e565b604082019050919050565b60006020820190508181036000830152614b0981614acd565b9050919050565b7f46756e6374696f6e206d7573742062652063616c6c6564207468726f7567682060008201527f6163746976652070726f78790000000000000000000000000000000000000000602082015250565b6000614b6c602c83613bfb565b9150614b7782614b10565b604082019050919050565b60006020820190508181036000830152614b9b81614b5f565b9050919050565b7f555550535570677261646561626c653a206d757374206e6f742062652063616c60008201527f6c6564207468726f7567682064656c656761746563616c6c0000000000000000602082015250565b6000614bfe603883613bfb565b9150614c0982614ba2565b604082019050919050565b60006020820190508181036000830152614c2d81614bf1565b9050919050565b7f4552433732313a20696e76616c696420746f6b656e2049440000000000000000600082015250565b6000614c6a601883613bfb565b9150614c7582614c34565b602082019050919050565b60006020820190508181036000830152614c9981614c5d565b9050919050565b7f536574204e65772050617920546f6b656e3a20546865206e6577206f6e65206d60008201527f75737420626520646966666572656e742066726f6d20746865206f6c64206f6e60208201527f6500000000000000000000000000000000000000000000000000000000000000604082015250565b6000614d22604183613bfb565b9150614d2d82614ca0565b606082019050919050565b60006020820190508181036000830152614d5181614d15565b9050919050565b6000604082019050614d6d6000830185613d37565b614d7a6020830184613d37565b9392505050565b7f4552433732313a2061646472657373207a65726f206973206e6f74206120766160008201527f6c6964206f776e65720000000000000000000000000000000000000000000000602082015250565b6000614ddd602983613bfb565b9150614de882614d81565b604082019050919050565b60006020820190508181036000830152614e0c81614dd0565b9050919050565b7f536574204e6577204e4654204f70656e696e67204974656d3a20546865206e6560008201527f77206f6e65206d75737420626520646966666572656e742066726f6d2074686560208201527f206f6c64206f6e65000000000000000000000000000000000000000000000000604082015250565b6000614e95604883613bfb565b9150614ea082614e13565b606082019050919050565b60006020820190508181036000830152614ec481614e88565b9050919050565b614ed481613d25565b82525050565b614ee381613ca2565b82525050565b600082825260208201905092915050565b6000614f068385614ee9565b9350614f13838584613fd0565b614f1c83613c36565b840190509392505050565b7f4e487b7100000000000000000000000000000000000000000000000000000000600052602160045260246000fd5b60028110614f6757614f66614f27565b5b50565b6000819050614f7882614f56565b919050565b6000614f8882614f6a565b9050919050565b614f9881614f7d565b82525050565b600060a082019050614fb36000830189614ecb565b614fc06020830188614eda565b614fcd6040830187614eda565b8181036060830152614fe0818587614efa565b9050614fef6080830184614f8f565b979650505050505050565b60008151905061500981613cac565b92915050565b60006020828403121561502557615024613b2b565b5b600061503384828501614ffa565b91505092915050565b7f4e6f7420617070726f766520656e6f75676820746f6b656e0000000000000000600082015250565b6000615072601883613bfb565b915061507d8261503c565b602082019050919050565b600060208201905081810360008301526150a181615065565b9050919050565b7f5468652063616d7061696e2773206e6f74207374617274656420796574000000600082015250565b60006150de601d83613bfb565b91506150e9826150a8565b602082019050919050565b6000602082019050818103600083015261510d816150d1565b9050919050565b7f5468652063616d706169676e277320616c726561647920656e64656400000000600082015250565b600061514a601c83613bfb565b915061515582615114565b602082019050919050565b600060208201905081810360008301526151798161513d565b9050919050565b7f536f6c64206f7574000000000000000000000000000000000000000000000000600082015250565b60006151b6600883613bfb565b91506151c182615180565b602082019050919050565b600060208201905081810360008301526151e5816151a9565b9050919050565b7f4d696e7420426f783a20746f6b656e4964277320616c7265616479206578697360008201527f7465640000000000000000000000000000000000000000000000000000000000602082015250565b6000615248602383613bfb565b9150615253826151ec565b604082019050919050565b600060208201905081810360008301526152778161523b565b9050919050565b60006060820190506152936000830186613d37565b6152a06020830185613d37565b6152ad6040830184614116565b949350505050565b6000815190506152c4816143aa565b92915050565b6000602082840312156152e0576152df613b2b565b5b60006152ee848285016152b5565b91505092915050565b7f4e487b7100000000000000000000000000000000000000000000000000000000600052601160045260246000fd5b600061533182613ca2565b915061533c83613ca2565b9250828201905080821115615354576153536152f7565b5b92915050565b600060408201905061536f6000830185613d37565b61537c6020830184614116565b9392505050565b7f596f7520646964206e6f74206f776e65642074686520746f6b656e0000000000600082015250565b60006153b9601b83613bfb565b91506153c482615383565b602082019050919050565b600060208201905081810360008301526153e8816153ac565b9050919050565b7f426f78277320616c7265616479206f70656e6564000000000000000000000000600082015250565b6000615425601483613bfb565b9150615430826153ef565b602082019050919050565b6000602082019050818103600083015261545481615418565b9050919050565b60006080820190506154706000830188614ecb565b61547d6020830187614eda565b8181036040830152615490818587614efa565b905061549f6060830184614f8f565b9695505050505050565b7f496e697469616c697a61626c653a20636f6e747261637420697320616c72656160008201527f647920696e697469616c697a6564000000000000000000000000000000000000602082015250565b6000615505602e83613bfb565b9150615510826154a9565b604082019050919050565b60006020820190508181036000830152615534816154f8565b9050919050565b60008190508160005260206000209050919050565b60006020601f8301049050919050565b600082821b905092915050565b60006008830261559d7fffffffffffffffffffffffffffffffffffffffffffffffffffffffffffffffff82615560565b6155a78683615560565b95508019841693508086168417925050509392505050565b60006155da6155d56155d084613ca2565b614416565b613ca2565b9050919050565b6000819050919050565b6155f4836155bf565b615608615600826155e1565b84845461556d565b825550505050565b600090565b61561d615610565b6156288184846155eb565b505050565b5b8181101561564c57615641600082615615565b60018101905061562e565b5050565b601f821115615691576156628161553b565b61566b84615550565b8101602085101561567a578190505b61568e61568685615550565b83018261562d565b50505b505050565b600082821c905092915050565b60006156b460001984600802615696565b1980831691505092915050565b60006156cd83836156a3565b9150826002028217905092915050565b6156e682613bf0565b67ffffffffffffffff8111156156ff576156fe613f24565b5b6157098254614805565b615714828285615650565b600060209050601f8311600181146157475760008415615735578287015190505b61573f85826156c1565b8655506157a7565b601f1984166157558661553b565b60005b8281101561577d57848901518255600182019150602085019450602081019050615758565b8683101561579a5784890151615796601f8916826156a3565b8355505b6001600288020188555050505b505050505050565b6000819050919050565b600060ff82169050919050565b60006157e16157dc6157d7846157af565b614416565b6157b9565b9050919050565b6157f1816157c6565b82525050565b600060208201905061580c60008301846157e8565b92915050565b7f4f776e61626c653a206e6577206f776e657220697320746865207a65726f206160008201527f6464726573730000000000000000000000000000000000000000000000000000602082015250565b600061586e602683613bfb565b915061587982615812565b604082019050919050565b6000602082019050818103600083015261589d81615861565b9050919050565b7f4552433732313a207472616e736665722066726f6d20696e636f72726563742060008201527f6f776e6572000000000000000000000000000000000000000000000000000000602082015250565b6000615900602583613bfb565b915061590b826158a4565b604082019050919050565b6000602082019050818103600083015261592f816158f3565b9050919050565b7f4552433732313a207472616e7366657220746f20746865207a65726f2061646460008201527f7265737300000000000000000000000000000000000000000000000000000000602082015250565b6000615992602483613bfb565b915061599d82615936565b604082019050919050565b600060208201905081810360008301526159c181615985565b9050919050565b6000815190506159d781613e2a565b92915050565b6000602082840312156159f3576159f2613b2b565b5b6000615a01848285016159c8565b91505092915050565b7f45524331393637557067726164653a206e657720696d706c656d656e7461746960008201527f6f6e206973206e6f742055555053000000000000000000000000000000000000602082015250565b6000615a66602e83613bfb565b9150615a7182615a0a565b604082019050919050565b60006020820190508181036000830152615a9581615a59565b9050919050565b7f45524331393637557067726164653a20756e737570706f727465642070726f7860008201527f6961626c65555549440000000000000000000000000000000000000000000000602082015250565b6000615af8602983613bfb565b9150615b0382615a9c565b604082019050919050565b60006020820190508181036000830152615b2781615aeb565b9050919050565b7f4f776e61626c653a2063616c6c6572206973206e6f7420746865206f776e6572600082015250565b6000615b64602083613bfb565b9150615b6f82615b2e565b602082019050919050565b60006020820190508181036000830152615b9381615b57565b9050919050565b7f4552433732313a206d696e7420746f20746865207a65726f2061646472657373600082015250565b6000615bd0602083613bfb565b9150615bdb82615b9a565b602082019050919050565b60006020820190508181036000830152615bff81615bc3565b9050919050565b7f4552433732313a20746f6b656e20616c7265616479206d696e74656400000000600082015250565b6000615c3c601c83613bfb565b9150615c4782615c06565b602082019050919050565b60006020820190508181036000830152615c6b81615c2f565b9050919050565b7f4552433732313a20617070726f766520746f2063616c6c657200000000000000600082015250565b6000615ca8601983613bfb565b9150615cb382615c72565b602082019050919050565b60006020820190508181036000830152615cd781615c9b565b9050919050565b7f4552433732313a207472616e7366657220746f206e6f6e20455243373231526560008201527f63656976657220696d706c656d656e7465720000000000000000000000000000602082015250565b6000615d3a603283613bfb565b9150615d4582615cde565b604082019050919050565b60006020820190508181036000830152615d6981615d2d565b9050919050565b7f496e697469616c697a61626c653a20636f6e7472616374206973206e6f74206960008201527f6e697469616c697a696e67000000000000000000000000000000000000000000602082015250565b6000615dcc602b83613bfb565b9150615dd782615d70565b604082019050919050565b60006020820190508181036000830152615dfb81615dbf565b9050919050565b6000615e0d82613ca2565b9150615e1883613ca2565b9250828203905081811115615e3057615e2f6152f7565b5b92915050565b600081905092915050565b7f416363657373436f6e74726f6c3a206163636f756e7420000000000000000000600082015250565b6000615e77601783615e36565b9150615e8282615e41565b601782019050919050565b6000615e9882613bf0565b615ea28185615e36565b9350615eb2818560208601613c0c565b80840191505092915050565b7f206973206d697373696e6720726f6c6520000000000000000000000000000000600082015250565b6000615ef4601183615e36565b9150615eff82615ebe565b601182019050919050565b6000615f1582615e6a565b9150615f218285615e8d565b9150615f2c82615ee7565b9150615f388284615e8d565b91508190509392505050565b7f455243313936373a206e657720696d706c656d656e746174696f6e206973206e60008201527f6f74206120636f6e747261637400000000000000000000000000000000000000602082015250565b6000615fa0602d83613bfb565b9150615fab82615f44565b604082019050919050565b60006020820190508181036000830152615fcf81615f93565b9050919050565b600081519050919050565b600082825260208201905092915050565b6000615ffd82615fd6565b6160078185615fe1565b9350616017818560208601613c0c565b61602081613c36565b840191505092915050565b60006080820190506160406000830187613d37565b61604d6020830186613d37565b61605a6040830185614116565b818103606083015261606c8184615ff2565b905095945050505050565b60008151905061608681613b61565b92915050565b6000602082840312156160a2576160a1613b2b565b5b60006160b084828501616077565b91505092915050565b60006160c482613ca2565b91506160cf83613ca2565b92508282026160dd81613ca2565b915082820484148315176160f4576160f36152f7565b5b5092915050565b7f4e487b7100000000000000000000000000000000000000000000000000000000600052603260045260246000fd5b600061613582613ca2565b915060008203616148576161476152f7565b5b600182039050919050565b7f537472696e67733a20686578206c656e67746820696e73756666696369656e74600082015250565b6000616189602083613bfb565b915061619482616153565b602082019050919050565b600060208201905081810360008301526161b88161617c565b9050919050565b7f416464726573733a2064656c65676174652063616c6c20746f206e6f6e2d636f60008201527f6e74726163740000000000000000000000000000000000000000000000000000602082015250565b600061621b602683613bfb565b9150616226826161bf565b604082019050919050565b6000602082019050818103600083015261624a8161620e565b9050919050565b600081905092915050565b600061626782615fd6565b6162718185616251565b9350616281818560208601613c0c565b80840191505092915050565b6000616299828461625c565b91508190509291505056fe416464726573733a206c6f772d6c6576656c2064656c65676174652063616c6c206661696c6564a26469706673582212204984fbf9406df47b2da0ec1d2a928785c144512be04c4a5bb6105d430eb9604764736f6c63430008120033",
  "linkReferences": {
    "contracts/minting/utils/InterfaceFunction.sol": {
      "InterfaceFunction": [
        {
          "length": 20,
          "start": 5177
        },
        {
          "length": 20,
          "start": 7404
        }
      ]
    }
  },
  "deployedLinkReferences": {
    "contracts/minting/utils/InterfaceFunction.sol": {
      "InterfaceFunction": [
        {
          "length": 20,
          "start": 5053
        },
        {
          "length": 20,
          "start": 7280
        }
      ]
    }
  }
}