{
  "_format": "hh-sol-artifact-1",
  "contractName": "InzCampaignTypesNFT721",
  "sourceName": "contracts/minting/campaignNFT/InzCampaignTypesNFT721.sol",
  "abi": [
    {
      "anonymous": false,
      "inputs": [
        {
          "indexed": false,
          "internalType": "address",
          "name": "to",
          "type": "address"
        },
        {
          "indexed": false,
          "internalType": "uint256",
          "name": "tokenId",
          "type": "uint256"
        },
        {
          "indexed": false,
          "internalType": "uint8",
          "name": "tokenType",
          "type": "uint8"
        },
        {
          "indexed": false,
          "internalType": "string",
          "name": "uri",
          "type": "string"
        },
        {
          "indexed": false,
          "internalType": "string",
          "name": "giftCode",
          "type": "string"
        }
      ],
      "name": "ActiveGiftCode",
      "type": "event"
    },
    {
      "anonymous": false,
      "inputs": [
        {
          "indexed": false,
          "internalType": "uint8",
          "name": "tokenType",
          "type": "uint8"
        },
        {
          "indexed": false,
          "internalType": "uint256",
          "name": "totalSupply",
          "type": "uint256"
        },
        {
          "indexed": false,
          "internalType": "uint256",
          "name": "price",
          "type": "uint256"
        }
      ],
      "name": "AddNftType",
      "type": "event"
    },
    {
      "anonymous": false,
      "inputs": [
        {
          "indexed": false,
          "internalType": "address",
          "name": "previousAdmin",
          "type": "address"
        },
        {
          "indexed": false,
          "internalType": "address",
          "name": "newAdmin",
          "type": "address"
        }
      ],
      "name": "AdminChanged",
      "type": "event"
    },
    {
      "anonymous": false,
      "inputs": [
        {
          "indexed": true,
          "internalType": "address",
          "name": "owner",
          "type": "address"
        },
        {
          "indexed": true,
          "internalType": "address",
          "name": "approved",
          "type": "address"
        },
        {
          "indexed": true,
          "internalType": "uint256",
          "name": "tokenId",
          "type": "uint256"
        }
      ],
      "name": "Approval",
      "type": "event"
    },
    {
      "anonymous": false,
      "inputs": [
        {
          "indexed": true,
          "internalType": "address",
          "name": "owner",
          "type": "address"
        },
        {
          "indexed": true,
          "internalType": "address",
          "name": "operator",
          "type": "address"
        },
        {
          "indexed": false,
          "internalType": "bool",
          "name": "approved",
          "type": "bool"
        }
      ],
      "name": "ApprovalForAll",
      "type": "event"
    },
    {
      "anonymous": false,
      "inputs": [
        {
          "indexed": true,
          "internalType": "address",
          "name": "beacon",
          "type": "address"
        }
      ],
      "name": "BeaconUpgraded",
      "type": "event"
    },
    {
      "anonymous": false,
      "inputs": [
        {
          "indexed": false,
          "internalType": "uint8",
          "name": "version",
          "type": "uint8"
        }
      ],
      "name": "Initialized",
      "type": "event"
    },
    {
      "anonymous": false,
      "inputs": [
        {
          "indexed": false,
          "internalType": "bytes",
          "name": "callbackData",
          "type": "bytes"
        },
        {
          "indexed": false,
          "internalType": "address",
          "name": "to",
          "type": "address"
        },
        {
          "components": [
            {
              "internalType": "uint256",
              "name": "nftType",
              "type": "uint256"
            },
            {
              "internalType": "uint256",
              "name": "tokenId",
              "type": "uint256"
            }
          ],
          "indexed": false,
          "internalType": "struct InzCampaignTypesNFT721.ReturnMintingOrder[]",
          "name": "returnMintingOrder",
          "type": "tuple[]"
        }
      ],
      "name": "MintOrderForDev",
      "type": "event"
    },
    {
      "anonymous": false,
      "inputs": [
        {
          "indexed": false,
          "internalType": "string",
          "name": "callbackData",
          "type": "string"
        },
        {
          "indexed": false,
          "internalType": "address",
          "name": "to",
          "type": "address"
        },
        {
          "components": [
            {
              "internalType": "uint256",
              "name": "nftType",
              "type": "uint256"
            },
            {
              "internalType": "uint256",
              "name": "tokenId",
              "type": "uint256"
            }
          ],
          "indexed": false,
          "internalType": "struct InzCampaignTypesNFT721.ReturnMintingOrder[]",
          "name": "returnMintingOrder",
          "type": "tuple[]"
        }
      ],
      "name": "MintOrderFromDaapCreator",
      "type": "event"
    },
    {
      "anonymous": false,
      "inputs": [
        {
          "indexed": true,
          "internalType": "address",
          "name": "previousOwner",
          "type": "address"
        },
        {
          "indexed": true,
          "internalType": "address",
          "name": "newOwner",
          "type": "address"
        }
      ],
      "name": "OwnershipTransferred",
      "type": "event"
    },
    {
      "anonymous": false,
      "inputs": [
        {
          "indexed": true,
          "internalType": "bytes32",
          "name": "role",
          "type": "bytes32"
        },
        {
          "indexed": true,
          "internalType": "bytes32",
          "name": "previousAdminRole",
          "type": "bytes32"
        },
        {
          "indexed": true,
          "internalType": "bytes32",
          "name": "newAdminRole",
          "type": "bytes32"
        }
      ],
      "name": "RoleAdminChanged",
      "type": "event"
    },
    {
      "anonymous": false,
      "inputs": [
        {
          "indexed": true,
          "internalType": "bytes32",
          "name": "role",
          "type": "bytes32"
        },
        {
          "indexed": true,
          "internalType": "address",
          "name": "account",
          "type": "address"
        },
        {
          "indexed": true,
          "internalType": "address",
          "name": "sender",
          "type": "address"
        }
      ],
      "name": "RoleGranted",
      "type": "event"
    },
    {
      "anonymous": false,
      "inputs": [
        {
          "indexed": true,
          "internalType": "bytes32",
          "name": "role",
          "type": "bytes32"
        },
        {
          "indexed": true,
          "internalType": "address",
          "name": "account",
          "type": "address"
        },
        {
          "indexed": true,
          "internalType": "address",
          "name": "sender",
          "type": "address"
        }
      ],
      "name": "RoleRevoked",
      "type": "event"
    },
    {
      "anonymous": false,
      "inputs": [
        {
          "indexed": false,
          "internalType": "address",
          "name": "to",
          "type": "address"
        },
        {
          "indexed": false,
          "internalType": "uint256",
          "name": "tokenId",
          "type": "uint256"
        },
        {
          "indexed": false,
          "internalType": "uint256",
          "name": "tokenType",
          "type": "uint256"
        }
      ],
      "name": "TokenCreated",
      "type": "event"
    },
    {
      "anonymous": false,
      "inputs": [
        {
          "indexed": true,
          "internalType": "address",
          "name": "from",
          "type": "address"
        },
        {
          "indexed": true,
          "internalType": "address",
          "name": "to",
          "type": "address"
        },
        {
          "indexed": true,
          "internalType": "uint256",
          "name": "tokenId",
          "type": "uint256"
        }
      ],
      "name": "Transfer",
      "type": "event"
    },
    {
      "anonymous": false,
      "inputs": [
        {
          "indexed": true,
          "internalType": "address",
          "name": "implementation",
          "type": "address"
        }
      ],
      "name": "Upgraded",
      "type": "event"
    },
    {
      "inputs": [],
      "name": "DEFAULT_ADMIN_ROLE",
      "outputs": [
        {
          "internalType": "bytes32",
          "name": "",
          "type": "bytes32"
        }
      ],
      "stateMutability": "view",
      "type": "function"
    },
    {
      "inputs": [
        {
          "internalType": "address",
          "name": "to",
          "type": "address"
        },
        {
          "internalType": "uint256",
          "name": "tokenId",
          "type": "uint256"
        }
      ],
      "name": "approve",
      "outputs": [],
      "stateMutability": "nonpayable",
      "type": "function"
    },
    {
      "inputs": [
        {
          "internalType": "address",
          "name": "owner",
          "type": "address"
        }
      ],
      "name": "balanceOf",
      "outputs": [
        {
          "internalType": "uint256",
          "name": "",
          "type": "uint256"
        }
      ],
      "stateMutability": "view",
      "type": "function"
    },
    {
      "inputs": [],
      "name": "baseMetadataUri",
      "outputs": [
        {
          "internalType": "string",
          "name": "",
          "type": "string"
        }
      ],
      "stateMutability": "view",
      "type": "function"
    },
    {
      "inputs": [
        {
          "internalType": "uint256[]",
          "name": "ids",
          "type": "uint256[]"
        }
      ],
      "name": "burn",
      "outputs": [],
      "stateMutability": "nonpayable",
      "type": "function"
    },
    {
      "inputs": [],
      "name": "buyable",
      "outputs": [
        {
          "internalType": "bool",
          "name": "",
          "type": "bool"
        }
      ],
      "stateMutability": "view",
      "type": "function"
    },
    {
      "inputs": [],
      "name": "campaignPaymentAddress",
      "outputs": [
        {
          "internalType": "address",
          "name": "",
          "type": "address"
        }
      ],
      "stateMutability": "view",
      "type": "function"
    },
    {
      "inputs": [],
      "name": "coinToken",
      "outputs": [
        {
          "internalType": "contract IERC20",
          "name": "",
          "type": "address"
        }
      ],
      "stateMutability": "view",
      "type": "function"
    },
    {
      "inputs": [
        {
          "internalType": "address",
          "name": "_wallet",
          "type": "address"
        },
        {
          "internalType": "uint96",
          "name": "_rate",
          "type": "uint96"
        }
      ],
      "name": "configRoyalty",
      "outputs": [],
      "stateMutability": "nonpayable",
      "type": "function"
    },
    {
      "inputs": [],
      "name": "endTimeToBuy",
      "outputs": [
        {
          "internalType": "uint256",
          "name": "",
          "type": "uint256"
        }
      ],
      "stateMutability": "view",
      "type": "function"
    },
    {
      "inputs": [
        {
          "internalType": "address",
          "name": "to",
          "type": "address"
        },
        {
          "internalType": "uint256",
          "name": "value",
          "type": "uint256"
        },
        {
          "internalType": "uint256",
          "name": "txGas",
          "type": "uint256"
        },
        {
          "internalType": "bytes",
          "name": "data",
          "type": "bytes"
        },
        {
          "internalType": "enum InterfaceFunction.Operation",
          "name": "operation",
          "type": "uint8"
        }
      ],
      "name": "execTx",
      "outputs": [],
      "stateMutability": "nonpayable",
      "type": "function"
    },
    {
      "inputs": [
        {
          "internalType": "uint256",
          "name": "tokenId",
          "type": "uint256"
        }
      ],
      "name": "getApproved",
      "outputs": [
        {
          "internalType": "address",
          "name": "",
          "type": "address"
        }
      ],
      "stateMutability": "view",
      "type": "function"
    },
    {
      "inputs": [
        {
          "internalType": "uint8",
          "name": "_tokenType",
          "type": "uint8"
        }
      ],
      "name": "getConfigNFT",
      "outputs": [
        {
          "components": [
            {
              "internalType": "uint8",
              "name": "nftType",
              "type": "uint8"
            },
            {
              "internalType": "uint256",
              "name": "totalSupply",
              "type": "uint256"
            },
            {
              "internalType": "uint256",
              "name": "price",
              "type": "uint256"
            }
          ],
          "internalType": "struct InZNFTTypeDetail.NFTTypeDetail",
          "name": "",
          "type": "tuple"
        }
      ],
      "stateMutability": "view",
      "type": "function"
    },
    {
      "inputs": [],
      "name": "getFactoryAddress",
      "outputs": [
        {
          "internalType": "address",
          "name": "",
          "type": "address"
        }
      ],
      "stateMutability": "view",
      "type": "function"
    },
    {
      "inputs": [
        {
          "internalType": "address",
          "name": "_owner",
          "type": "address"
        }
      ],
      "name": "getNftIdsByOwner",
      "outputs": [
        {
          "internalType": "uint256[]",
          "name": "",
          "type": "uint256[]"
        }
      ],
      "stateMutability": "view",
      "type": "function"
    },
    {
      "inputs": [
        {
          "internalType": "bytes32",
          "name": "role",
          "type": "bytes32"
        }
      ],
      "name": "getRoleAdmin",
      "outputs": [
        {
          "internalType": "bytes32",
          "name": "",
          "type": "bytes32"
        }
      ],
      "stateMutability": "view",
      "type": "function"
    },
    {
      "inputs": [
        {
          "internalType": "bytes32",
          "name": "role",
          "type": "bytes32"
        },
        {
          "internalType": "address",
          "name": "account",
          "type": "address"
        }
      ],
      "name": "grantRole",
      "outputs": [],
      "stateMutability": "nonpayable",
      "type": "function"
    },
    {
      "inputs": [
        {
          "internalType": "bytes32",
          "name": "role",
          "type": "bytes32"
        },
        {
          "internalType": "address",
          "name": "account",
          "type": "address"
        }
      ],
      "name": "hasRole",
      "outputs": [
        {
          "internalType": "bool",
          "name": "",
          "type": "bool"
        }
      ],
      "stateMutability": "view",
      "type": "function"
    },
    {
      "inputs": [
        {
          "internalType": "address",
          "name": "",
          "type": "address"
        },
        {
          "internalType": "uint256",
          "name": "",
          "type": "uint256"
        }
      ],
      "name": "holders",
      "outputs": [
        {
          "internalType": "uint256",
          "name": "",
          "type": "uint256"
        }
      ],
      "stateMutability": "view",
      "type": "function"
    },
    {
      "inputs": [
        {
          "internalType": "address",
          "name": "_marketOwnerAddress",
          "type": "address"
        },
        {
          "internalType": "address",
          "name": "_campaignPaymentAddress",
          "type": "address"
        },
        {
          "internalType": "contract IERC20",
          "name": "_coinToken",
          "type": "address"
        },
        {
          "internalType": "string",
          "name": "_symbol",
          "type": "string"
        },
        {
          "internalType": "string",
          "name": "_name",
          "type": "string"
        },
        {
          "internalType": "address",
          "name": "_adminAddress",
          "type": "address"
        },
        {
          "internalType": "address",
          "name": "_factoryAddress",
          "type": "address"
        }
      ],
      "name": "initialize",
      "outputs": [],
      "stateMutability": "nonpayable",
      "type": "function"
    },
    {
      "inputs": [
        {
          "internalType": "address",
          "name": "owner",
          "type": "address"
        },
        {
          "internalType": "address",
          "name": "operator",
          "type": "address"
        }
      ],
      "name": "isApprovedForAll",
      "outputs": [
        {
          "internalType": "bool",
          "name": "",
          "type": "bool"
        }
      ],
      "stateMutability": "view",
      "type": "function"
    },
    {
      "inputs": [],
      "name": "lastId",
      "outputs": [
        {
          "internalType": "uint256",
          "name": "",
          "type": "uint256"
        }
      ],
      "stateMutability": "view",
      "type": "function"
    },
    {
      "inputs": [],
      "name": "marketOwnerAddress",
      "outputs": [
        {
          "internalType": "address",
          "name": "",
          "type": "address"
        }
      ],
      "stateMutability": "view",
      "type": "function"
    },
    {
      "inputs": [
        {
          "internalType": "uint256",
          "name": "_amount",
          "type": "uint256"
        },
        {
          "internalType": "uint8",
          "name": "_tokenType",
          "type": "uint8"
        },
        {
          "internalType": "address",
          "name": "_to",
          "type": "address"
        },
        {
          "internalType": "string",
          "name": "_callbackData",
          "type": "string"
        }
      ],
      "name": "mint",
      "outputs": [],
      "stateMutability": "nonpayable",
      "type": "function"
    },
    {
      "inputs": [],
      "name": "name",
      "outputs": [
        {
          "internalType": "string",
          "name": "",
          "type": "string"
        }
      ],
      "stateMutability": "view",
      "type": "function"
    },
    {
      "inputs": [
        {
          "internalType": "uint8",
          "name": "",
          "type": "uint8"
        }
      ],
      "name": "nftTypeSupply",
      "outputs": [
        {
          "internalType": "uint256",
          "name": "",
          "type": "uint256"
        }
      ],
      "stateMutability": "view",
      "type": "function"
    },
    {
      "inputs": [],
      "name": "owner",
      "outputs": [
        {
          "internalType": "address",
          "name": "",
          "type": "address"
        }
      ],
      "stateMutability": "view",
      "type": "function"
    },
    {
      "inputs": [
        {
          "internalType": "uint256",
          "name": "_amount",
          "type": "uint256"
        },
        {
          "internalType": "uint8",
          "name": "_tokenType",
          "type": "uint8"
        },
        {
          "internalType": "address",
          "name": "_to",
          "type": "address"
        }
      ],
      "name": "ownerMint",
      "outputs": [],
      "stateMutability": "nonpayable",
      "type": "function"
    },
    {
      "inputs": [
        {
          "internalType": "uint256",
          "name": "tokenId",
          "type": "uint256"
        }
      ],
      "name": "ownerOf",
      "outputs": [
        {
          "internalType": "address",
          "name": "",
          "type": "address"
        }
      ],
      "stateMutability": "view",
      "type": "function"
    },
    {
      "inputs": [],
      "name": "proxiableUUID",
      "outputs": [
        {
          "internalType": "bytes32",
          "name": "",
          "type": "bytes32"
        }
      ],
      "stateMutability": "view",
      "type": "function"
    },
    {
      "inputs": [],
      "name": "publicStartTime",
      "outputs": [
        {
          "internalType": "uint256",
          "name": "",
          "type": "uint256"
        }
      ],
      "stateMutability": "view",
      "type": "function"
    },
    {
      "inputs": [],
      "name": "renounceOwnership",
      "outputs": [],
      "stateMutability": "nonpayable",
      "type": "function"
    },
    {
      "inputs": [
        {
          "internalType": "bytes32",
          "name": "role",
          "type": "bytes32"
        },
        {
          "internalType": "address",
          "name": "account",
          "type": "address"
        }
      ],
      "name": "renounceRole",
      "outputs": [],
      "stateMutability": "nonpayable",
      "type": "function"
    },
    {
      "inputs": [
        {
          "internalType": "address",
          "name": "to",
          "type": "address"
        },
        {
          "internalType": "uint256",
          "name": "value",
          "type": "uint256"
        },
        {
          "internalType": "bytes",
          "name": "data",
          "type": "bytes"
        },
        {
          "internalType": "enum InterfaceFunction.Operation",
          "name": "operation",
          "type": "uint8"
        }
      ],
      "name": "requiredTxGas",
      "outputs": [],
      "stateMutability": "nonpayable",
      "type": "function"
    },
    {
      "inputs": [
        {
          "internalType": "bytes32",
          "name": "role",
          "type": "bytes32"
        },
        {
          "internalType": "address",
          "name": "account",
          "type": "address"
        }
      ],
      "name": "revokeRole",
      "outputs": [],
      "stateMutability": "nonpayable",
      "type": "function"
    },
    {
      "inputs": [
        {
          "internalType": "uint256",
          "name": "_tokenId",
          "type": "uint256"
        },
        {
          "internalType": "uint256",
          "name": "_salePrice",
          "type": "uint256"
        }
      ],
      "name": "royaltyInfo",
      "outputs": [
        {
          "internalType": "address",
          "name": "",
          "type": "address"
        },
        {
          "internalType": "uint256",
          "name": "",
          "type": "uint256"
        }
      ],
      "stateMutability": "view",
      "type": "function"
    },
    {
      "inputs": [
        {
          "internalType": "address",
          "name": "from",
          "type": "address"
        },
        {
          "internalType": "address",
          "name": "to",
          "type": "address"
        },
        {
          "internalType": "uint256",
          "name": "tokenId",
          "type": "uint256"
        }
      ],
      "name": "safeTransferFrom",
      "outputs": [],
      "stateMutability": "nonpayable",
      "type": "function"
    },
    {
      "inputs": [
        {
          "internalType": "address",
          "name": "from",
          "type": "address"
        },
        {
          "internalType": "address",
          "name": "to",
          "type": "address"
        },
        {
          "internalType": "uint256",
          "name": "tokenId",
          "type": "uint256"
        },
        {
          "internalType": "bytes",
          "name": "data",
          "type": "bytes"
        }
      ],
      "name": "safeTransferFrom",
      "outputs": [],
      "stateMutability": "nonpayable",
      "type": "function"
    },
    {
      "inputs": [
        {
          "internalType": "address",
          "name": "operator",
          "type": "address"
        },
        {
          "internalType": "bool",
          "name": "approved",
          "type": "bool"
        }
      ],
      "name": "setApprovalForAll",
      "outputs": [],
      "stateMutability": "nonpayable",
      "type": "function"
    },
    {
      "inputs": [
        {
          "internalType": "bool",
          "name": "_isBuyable",
          "type": "bool"
        }
      ],
      "name": "setBuyable",
      "outputs": [],
      "stateMutability": "nonpayable",
      "type": "function"
    },
    {
      "inputs": [
        {
          "internalType": "address",
          "name": "_campaignPaymentAddress",
          "type": "address"
        }
      ],
      "name": "setCampaignPaymentAddress",
      "outputs": [],
      "stateMutability": "nonpayable",
      "type": "function"
    },
    {
      "inputs": [
        {
          "internalType": "contract IERC20",
          "name": "_coinToken",
          "type": "address"
        }
      ],
      "name": "setCoinToken",
      "outputs": [],
      "stateMutability": "nonpayable",
      "type": "function"
    },
    {
      "inputs": [
        {
          "internalType": "uint256",
          "name": "_endTimeToBuy",
          "type": "uint256"
        }
      ],
      "name": "setEndTimeToBuy",
      "outputs": [],
      "stateMutability": "nonpayable",
      "type": "function"
    },
    {
      "inputs": [
        {
          "internalType": "uint256",
          "name": "_maxAllocation",
          "type": "uint256"
        }
      ],
      "name": "setMaxAllocation",
      "outputs": [],
      "stateMutability": "nonpayable",
      "type": "function"
    },
    {
      "inputs": [
        {
          "internalType": "uint256",
          "name": "_publicStartTime",
          "type": "uint256"
        }
      ],
      "name": "setPublicStartTime",
      "outputs": [],
      "stateMutability": "nonpayable",
      "type": "function"
    },
    {
      "inputs": [
        {
          "internalType": "uint256",
          "name": "_whitelistStartTime",
          "type": "uint256"
        }
      ],
      "name": "setWhiteListStartTime",
      "outputs": [],
      "stateMutability": "nonpayable",
      "type": "function"
    },
    {
      "inputs": [
        {
          "internalType": "address[]",
          "name": "_whitelistAddresses",
          "type": "address[]"
        },
        {
          "internalType": "uint256[]",
          "name": "_buyableAmountList",
          "type": "uint256[]"
        }
      ],
      "name": "setWhitelistsBuyable",
      "outputs": [],
      "stateMutability": "nonpayable",
      "type": "function"
    },
    {
      "inputs": [
        {
          "internalType": "bytes4",
          "name": "interfaceId",
          "type": "bytes4"
        }
      ],
      "name": "supportsInterface",
      "outputs": [
        {
          "internalType": "bool",
          "name": "",
          "type": "bool"
        }
      ],
      "stateMutability": "view",
      "type": "function"
    },
    {
      "inputs": [],
      "name": "symbol",
      "outputs": [
        {
          "internalType": "string",
          "name": "",
          "type": "string"
        }
      ],
      "stateMutability": "view",
      "type": "function"
    },
    {
      "inputs": [
        {
          "internalType": "uint256",
          "name": "_tokenId",
          "type": "uint256"
        }
      ],
      "name": "tokenURI",
      "outputs": [
        {
          "internalType": "string",
          "name": "",
          "type": "string"
        }
      ],
      "stateMutability": "view",
      "type": "function"
    },
    {
      "inputs": [
        {
          "internalType": "address",
          "name": "from",
          "type": "address"
        },
        {
          "internalType": "address",
          "name": "to",
          "type": "address"
        },
        {
          "internalType": "uint256",
          "name": "tokenId",
          "type": "uint256"
        }
      ],
      "name": "transferFrom",
      "outputs": [],
      "stateMutability": "nonpayable",
      "type": "function"
    },
    {
      "inputs": [
        {
          "internalType": "address",
          "name": "newOwner",
          "type": "address"
        }
      ],
      "name": "transferOwnership",
      "outputs": [],
      "stateMutability": "nonpayable",
      "type": "function"
    },
    {
      "inputs": [
        {
          "internalType": "address",
          "name": "newImplementation",
          "type": "address"
        }
      ],
      "name": "upgradeTo",
      "outputs": [],
      "stateMutability": "nonpayable",
      "type": "function"
    },
    {
      "inputs": [
        {
          "internalType": "address",
          "name": "newImplementation",
          "type": "address"
        },
        {
          "internalType": "bytes",
          "name": "data",
          "type": "bytes"
        }
      ],
      "name": "upgradeToAndCall",
      "outputs": [],
      "stateMutability": "payable",
      "type": "function"
    },
    {
      "inputs": [
        {
          "internalType": "uint8",
          "name": "",
          "type": "uint8"
        }
      ],
      "name": "uriByType",
      "outputs": [
        {
          "internalType": "string",
          "name": "",
          "type": "string"
        }
      ],
      "stateMutability": "view",
      "type": "function"
    },
    {
      "inputs": [],
      "name": "whiteListBought",
      "outputs": [
        {
          "internalType": "uint256",
          "name": "",
          "type": "uint256"
        }
      ],
      "stateMutability": "view",
      "type": "function"
    },
    {
      "inputs": [],
      "name": "whiteListPool",
      "outputs": [
        {
          "internalType": "uint256",
          "name": "",
          "type": "uint256"
        }
      ],
      "stateMutability": "view",
      "type": "function"
    },
    {
      "inputs": [
        {
          "internalType": "address",
          "name": "",
          "type": "address"
        }
      ],
      "name": "whitelistBuyable",
      "outputs": [
        {
          "internalType": "uint256",
          "name": "",
          "type": "uint256"
        }
      ],
      "stateMutability": "view",
      "type": "function"
    },
    {
      "inputs": [
        {
          "internalType": "uint256",
          "name": "_amount",
          "type": "uint256"
        },
        {
          "internalType": "uint8",
          "name": "_tokenType",
          "type": "uint8"
        },
        {
          "internalType": "address",
          "name": "_to",
          "type": "address"
        }
      ],
      "name": "whitelistMint",
      "outputs": [],
      "stateMutability": "nonpayable",
      "type": "function"
    },
    {
      "inputs": [],
      "name": "whitelistStartTime",
      "outputs": [
        {
          "internalType": "uint256",
          "name": "",
          "type": "uint256"
        }
      ],
      "stateMutability": "view",
      "type": "function"
    },
    {
      "inputs": [],
      "name": "withdraw",
      "outputs": [],
      "stateMutability": "nonpayable",
      "type": "function"
    }
  ],
  "bytecode": "0x60a06040523073ffffffffffffffffffffffffffffffffffffffff1660809073ffffffffffffffffffffffffffffffffffffffff168152503480156200004457600080fd5b506080516187c96200007d60003960008181611424015281816114b20152818161191a015281816119a80152611a5801526187c96000f3fe6080604052600436106103a25760003560e01c806376214140116101e7578063ad9e963f1161010d578063db8cc8fa116100a0578063ea4afb5c1161006f578063ea4afb5c14610dd0578063ef463b6414610dfb578063f2fde38b14610e38578063ffa0a02a14610e61576103a2565b8063db8cc8fa14610d16578063dd8a353014610d3f578063e2f0394714610d6a578063e985e9c514610d93576103a2565b8063c1292cc3116100dc578063c1292cc314610c5c578063c4ca3a9c14610c87578063c87b56dd14610cb0578063d547741f14610ced576103a2565b8063ad9e963f14610ba2578063b80f55c914610bdf578063b88d4fde14610c08578063bffadc2f14610c31576103a2565b80639292caaf11610185578063a217fddf11610154578063a217fddf14610ae6578063a22cb46514610b11578063a76e0db214610b3a578063a9c2e36c14610b77576103a2565b80639292caaf14610a3e57806392c0f3d714610a6957806395d89b4114610a925780639a94efd814610abd576103a2565b80638badfa93116101c15780638badfa93146109825780638da5cb5b146109ad5780638f0b7b68146109d857806391d1485414610a01576103a2565b80637621414014610903578063763c87bf1461092c57806388c7e39714610957576103a2565b806349d19648116102cc57806358797cb61161026a57806367f6860b1161023957806367f6860b1461085d57806370a0823114610886578063715018a6146108c357806372f12344146108da576103a2565b806358797cb61461078d5780635fd1bbc4146107b85780636352211e146107e357806366458d4a14610820576103a2565b80634f1ef286116102a65780634f1ef286146106e057806352d1902d146106fc578063538baeab14610727578063558008ab14610750576103a2565b806349d19648146106655780634c40a07b1461068e5780634e452475146106b7576103a2565b80632a55205a116103445780633659cfe6116103135780633659cfe6146105d15780633a1055ae146105fa5780633ccfd60b1461062557806342842e0e1461063c576103a2565b80632a55205a146105185780632ee4aa31146105565780632f2ff15d1461057f57806336568abe146105a8576103a2565b8063095ea7b311610380578063095ea7b31461044c57806323b872dd14610475578063248a9ca31461049e578063252b2d09146104db576103a2565b806301ffc9a7146103a757806306fdde03146103e4578063081812fc1461040f575b600080fd5b3480156103b357600080fd5b506103ce60048036038101906103c991906156dd565b610e8a565b6040516103db9190615725565b60405180910390f35b3480156103f057600080fd5b506103f9610e9c565b60405161040691906157d0565b60405180910390f35b34801561041b57600080fd5b5061043660048036038101906104319190615828565b610f2e565b6040516104439190615896565b60405180910390f35b34801561045857600080fd5b50610473600480360381019061046e91906158dd565b610f74565b005b34801561048157600080fd5b5061049c6004803603810190610497919061591d565b61108b565b005b3480156104aa57600080fd5b506104c560048036038101906104c091906159a6565b6110eb565b6040516104d291906159e2565b60405180910390f35b3480156104e757600080fd5b5061050260048036038101906104fd9190615a36565b61110b565b60405161050f9190615a72565b60405180910390f35b34801561052457600080fd5b5061053f600480360381019061053a9190615a8d565b611124565b60405161054d929190615acd565b60405180910390f35b34801561056257600080fd5b5061057d60048036038101906105789190615af6565b61130e565b005b34801561058b57600080fd5b506105a660048036038101906105a19190615b23565b61137e565b005b3480156105b457600080fd5b506105cf60048036038101906105ca9190615b23565b61139f565b005b3480156105dd57600080fd5b506105f860048036038101906105f39190615af6565b611422565b005b34801561060657600080fd5b5061060f6115aa565b60405161061c9190615a72565b60405180910390f35b34801561063157600080fd5b5061063a6115b1565b005b34801561064857600080fd5b50610663600480360381019061065e919061591d565b6116ff565b005b34801561067157600080fd5b5061068c60048036038101906106879190615ba1565b61171f565b005b34801561069a57600080fd5b506106b560048036038101906106b09190615bfa565b61178f565b005b3480156106c357600080fd5b506106de60048036038101906106d99190615e32565b6117d8565b005b6106fa60048036038101906106f59190615f5f565b611918565b005b34801561070857600080fd5b50610711611a54565b60405161071e91906159e2565b60405180910390f35b34801561073357600080fd5b5061074e6004803603810190610749919061605c565b611b0d565b005b34801561075c57600080fd5b5061077760048036038101906107729190615af6565b611e1c565b6040516107849190615a72565b60405180910390f35b34801561079957600080fd5b506107a2611e35565b6040516107af9190616195565b60405180910390f35b3480156107c457600080fd5b506107cd611e5c565b6040516107da9190615a72565b60405180910390f35b3480156107ef57600080fd5b5061080a60048036038101906108059190615828565b611e63565b6040516108179190615896565b60405180910390f35b34801561082c57600080fd5b5061084760048036038101906108429190615af6565b611ee9565b604051610854919061626e565b60405180910390f35b34801561086957600080fd5b50610884600480360381019061087f91906162d4565b611f87565b005b34801561089257600080fd5b506108ad60048036038101906108a89190615af6565b611fa3565b6040516108ba9190615a72565b60405180910390f35b3480156108cf57600080fd5b506108d861205a565b005b3480156108e657600080fd5b5061090160048036038101906108fc9190615828565b61206e565b005b34801561090f57600080fd5b5061092a60048036038101906109259190615828565b6120a4565b005b34801561093857600080fd5b506109416120da565b60405161094e91906157d0565b60405180910390f35b34801561096357600080fd5b5061096c612169565b6040516109799190615725565b60405180910390f35b34801561098e57600080fd5b5061099761217d565b6040516109a49190615a72565b60405180910390f35b3480156109b957600080fd5b506109c2612184565b6040516109cf9190615896565b60405180910390f35b3480156109e457600080fd5b506109ff60048036038101906109fa9190616394565b6121af565b005b348015610a0d57600080fd5b50610a286004803603810190610a239190615b23565b612253565b604051610a359190615725565b60405180910390f35b348015610a4a57600080fd5b50610a536122be565b604051610a609190615a72565b60405180910390f35b348015610a7557600080fd5b50610a906004803603810190610a8b9190616484565b6122c5565b005b348015610a9e57600080fd5b50610aa7612684565b604051610ab491906157d0565b60405180910390f35b348015610ac957600080fd5b50610ae46004803603810190610adf919061650c565b612716565b005b348015610af257600080fd5b50610afb612a38565b604051610b0891906159e2565b60405180910390f35b348015610b1d57600080fd5b50610b386004803603810190610b33919061655f565b612a3f565b005b348015610b4657600080fd5b50610b616004803603810190610b5c9190615a36565b612a55565b604051610b6e91906157d0565b60405180910390f35b348015610b8357600080fd5b50610b8c612af6565b604051610b999190615896565b60405180910390f35b348015610bae57600080fd5b50610bc96004803603810190610bc49190615a36565b612b4c565b604051610bd691906165f0565b60405180910390f35b348015610beb57600080fd5b50610c066004803603810190610c01919061660b565b612c09565b005b348015610c1457600080fd5b50610c2f6004803603810190610c2a9190616654565b612c78565b005b348015610c3d57600080fd5b50610c46612cda565b604051610c539190615896565b60405180910390f35b348015610c6857600080fd5b50610c71612d01565b604051610c7e9190615a72565b60405180910390f35b348015610c9357600080fd5b50610cae6004803603810190610ca991906166d7565b612d13565b005b348015610cbc57600080fd5b50610cd76004803603810190610cd29190615828565b612dc6565b604051610ce491906157d0565b60405180910390f35b348015610cf957600080fd5b50610d146004803603810190610d0f9190615b23565b612e57565b005b348015610d2257600080fd5b50610d3d6004803603810190610d389190615828565b612e78565b005b348015610d4b57600080fd5b50610d54612eae565b604051610d619190615a72565b60405180910390f35b348015610d7657600080fd5b50610d916004803603810190610d8c9190615828565b612eb5565b005b348015610d9f57600080fd5b50610dba6004803603810190610db5919061675f565b612eeb565b604051610dc79190615725565b60405180910390f35b348015610ddc57600080fd5b50610de5612f7f565b604051610df29190615896565b60405180910390f35b348015610e0757600080fd5b50610e226004803603810190610e1d91906158dd565b612fa6565b604051610e2f9190615a72565b60405180910390f35b348015610e4457600080fd5b50610e5f6004803603810190610e5a9190615af6565b612fd8565b005b348015610e6d57600080fd5b50610e886004803603810190610e83919061650c565b61305b565b005b6000610e95826136ad565b9050919050565b606060978054610eab906167ce565b80601f0160208091040260200160405190810160405280929190818152602001828054610ed7906167ce565b8015610f245780601f10610ef957610100808354040283529160200191610f24565b820191906000526020600020905b815481529060010190602001808311610f0757829003601f168201915b5050505050905090565b6000610f39826136bf565b609b600083815260200190815260200160002060009054906101000a900473ffffffffffffffffffffffffffffffffffffffff169050919050565b6000610f7f82611e63565b90508073ffffffffffffffffffffffffffffffffffffffff168373ffffffffffffffffffffffffffffffffffffffff1603610fef576040517f08c379a0000000000000000000000000000000000000000000000000000000008152600401610fe690616871565b60405180910390fd5b8073ffffffffffffffffffffffffffffffffffffffff1661100e61370a565b73ffffffffffffffffffffffffffffffffffffffff16148061103d575061103c8161103761370a565b612eeb565b5b61107c576040517f08c379a000000000000000000000000000000000000000000000000000000000815260040161107390616903565b60405180910390fd5b6110868383613712565b505050565b61109c61109661370a565b826137cb565b6110db576040517f08c379a00000000000000000000000000000000000000000000000000000000081526004016110d290616995565b60405180910390fd5b6110e6838383613860565b505050565b600060c96000838152602001908152602001600020600101549050919050565b6101cb6020528060005260406000206000915090505481565b6000806000606660008681526020019081526020016000206040518060400160405290816000820160009054906101000a900473ffffffffffffffffffffffffffffffffffffffff1673ffffffffffffffffffffffffffffffffffffffff1673ffffffffffffffffffffffffffffffffffffffff1681526020016000820160149054906101000a90046bffffffffffffffffffffffff166bffffffffffffffffffffffff166bffffffffffffffffffffffff16815250509050600073ffffffffffffffffffffffffffffffffffffffff16816000015173ffffffffffffffffffffffffffffffffffffffff16036112b95760656040518060400160405290816000820160009054906101000a900473ffffffffffffffffffffffffffffffffffffffff1673ffffffffffffffffffffffffffffffffffffffff1673ffffffffffffffffffffffffffffffffffffffff1681526020016000820160149054906101000a90046bffffffffffffffffffffffff166bffffffffffffffffffffffff166bffffffffffffffffffffffff168152505090505b60006112c3613b59565b6bffffffffffffffffffffffff1682602001516bffffffffffffffffffffffff16866112ef91906169e4565b6112f99190616a55565b90508160000151819350935050509250929050565b7fb0a2731da0d1e322a29f18fc41490da7914e8245c4e7d00155b630b2fbe5029361133881613b63565b816101c560006101000a81548173ffffffffffffffffffffffffffffffffffffffff021916908373ffffffffffffffffffffffffffffffffffffffff1602179055505050565b611387826110eb565b61139081613b63565b61139a8383613b77565b505050565b6113a761370a565b73ffffffffffffffffffffffffffffffffffffffff168173ffffffffffffffffffffffffffffffffffffffff1614611414576040517f08c379a000000000000000000000000000000000000000000000000000000000815260040161140b90616af8565b60405180910390fd5b61141e8282613c58565b5050565b7f000000000000000000000000000000000000000000000000000000000000000073ffffffffffffffffffffffffffffffffffffffff163073ffffffffffffffffffffffffffffffffffffffff16036114b0576040517f08c379a00000000000000000000000000000000000000000000000000000000081526004016114a790616b8a565b60405180910390fd5b7f000000000000000000000000000000000000000000000000000000000000000073ffffffffffffffffffffffffffffffffffffffff166114ef613d3a565b73ffffffffffffffffffffffffffffffffffffffff1614611545576040517f08c379a000000000000000000000000000000000000000000000000000000000815260040161153c90616c1c565b60405180910390fd5b61154e81613d91565b6115a781600067ffffffffffffffff81111561156d5761156c615c2c565b5b6040519080825280601f01601f19166020018201604052801561159f5781602001600182028036833780820191505090505b506000613dbf565b50565b6101c85481565b6000801b6115be81613b63565b6101c960009054906101000a900473ffffffffffffffffffffffffffffffffffffffff1673ffffffffffffffffffffffffffffffffffffffff1663a9059cbb336101c960009054906101000a900473ffffffffffffffffffffffffffffffffffffffff1673ffffffffffffffffffffffffffffffffffffffff166370a08231306040518263ffffffff1660e01b815260040161165a9190615896565b602060405180830381865afa158015611677573d6000803e3d6000fd5b505050506040513d601f19601f8201168201806040525081019061169b9190616c51565b6040518363ffffffff1660e01b81526004016116b8929190615acd565b6020604051808303816000875af11580156116d7573d6000803e3d6000fd5b505050506040513d601f19601f820116820180604052508101906116fb9190616c93565b5050565b61171a83838360405180602001604052806000815250612c78565b505050565b7fb0a2731da0d1e322a29f18fc41490da7914e8245c4e7d00155b630b2fbe5029361174981613b63565b816101c960006101000a81548173ffffffffffffffffffffffffffffffffffffffff021916908373ffffffffffffffffffffffffffffffffffffffff1602179055505050565b7fb0a2731da0d1e322a29f18fc41490da7914e8245c4e7d00155b630b2fbe502936117b981613b63565b816101cf60006101000a81548160ff0219169083151502179055505050565b7fa49807205ce4d355092ef5a8a18f56e8913cf4a201fbe287825b095693c2177561180281613b63565b8151835114611846576040517f08c379a000000000000000000000000000000000000000000000000000000000815260040161183d90616d32565b60405180910390fd5b60005b83518110156119125782818151811061186557611864616d52565b5b60200260200101516101d2600086848151811061188557611884616d52565b5b602002602001015173ffffffffffffffffffffffffffffffffffffffff1673ffffffffffffffffffffffffffffffffffffffff168152602001908152602001600020819055508281815181106118de576118dd616d52565b5b60200260200101516101d060008282546118f89190616d81565b92505081905550808061190a90616db5565b915050611849565b50505050565b7f000000000000000000000000000000000000000000000000000000000000000073ffffffffffffffffffffffffffffffffffffffff163073ffffffffffffffffffffffffffffffffffffffff16036119a6576040517f08c379a000000000000000000000000000000000000000000000000000000000815260040161199d90616b8a565b60405180910390fd5b7f000000000000000000000000000000000000000000000000000000000000000073ffffffffffffffffffffffffffffffffffffffff166119e5613d3a565b73ffffffffffffffffffffffffffffffffffffffff1614611a3b576040517f08c379a0000000000000000000000000000000000000000000000000000000008152600401611a3290616c1c565b60405180910390fd5b611a4482613d91565b611a5082826001613dbf565b5050565b60007f000000000000000000000000000000000000000000000000000000000000000073ffffffffffffffffffffffffffffffffffffffff163073ffffffffffffffffffffffffffffffffffffffff1614611ae4576040517f08c379a0000000000000000000000000000000000000000000000000000000008152600401611adb90616e6f565b60405180910390fd5b7f360894a13ba1a3210667c828492db98dca3e2076cc3735a920a3ca505d382bbc60001b905090565b60008060019054906101000a900460ff16159050808015611b3e5750600160008054906101000a900460ff1660ff16105b80611b6b5750611b4d30613f2d565b158015611b6a5750600160008054906101000a900460ff1660ff16145b5b611baa576040517f08c379a0000000000000000000000000000000000000000000000000000000008152600401611ba190616f01565b60405180910390fd5b60016000806101000a81548160ff021916908360ff1602179055508015611be7576001600060016101000a81548160ff0219169083151502179055505b611bf18486613f50565b611bf9613fad565b611c01613ffe565b611c0a8361404f565b876101c360006101000a81548173ffffffffffffffffffffffffffffffffffffffff021916908373ffffffffffffffffffffffffffffffffffffffff160217905550866101c560006101000a81548173ffffffffffffffffffffffffffffffffffffffff021916908373ffffffffffffffffffffffffffffffffffffffff160217905550856101c960006101000a81548173ffffffffffffffffffffffffffffffffffffffff021916908373ffffffffffffffffffffffffffffffffffffffff16021790555060006101cf60006101000a81548160ff021916908315150217905550816101d460006101000a81548173ffffffffffffffffffffffffffffffffffffffff021916908373ffffffffffffffffffffffffffffffffffffffff160217905550611d587fa49807205ce4d355092ef5a8a18f56e8913cf4a201fbe287825b095693c2177584614117565b611d656000801b84614117565b611d8f7fb0a2731da0d1e322a29f18fc41490da7914e8245c4e7d00155b630b2fbe5029384614117565b611db97f3c11d16cbaffd01df69ce1c404f6340ee057498f5f00246190ea54220576a84884614117565b8015611e125760008060016101000a81548160ff0219169083151502179055507f7f26b83ff96e1f2b6a682f133852f6798a09c465da95921460cefb38474024986001604051611e099190616f5c565b60405180910390a15b5050505050505050565b6101d26020528060005260406000206000915090505481565b6101c960009054906101000a900473ffffffffffffffffffffffffffffffffffffffff1681565b6101c75481565b600080611e6f83614125565b9050600073ffffffffffffffffffffffffffffffffffffffff168173ffffffffffffffffffffffffffffffffffffffff1603611ee0576040517f08c379a0000000000000000000000000000000000000000000000000000000008152600401611ed790616fc3565b60405180910390fd5b80915050919050565b606060006101cc60008473ffffffffffffffffffffffffffffffffffffffff1673ffffffffffffffffffffffffffffffffffffffff168152602001908152602001600020805480602002602001604051908101604052809291908181526020018280548015611f7757602002820191906000526020600020905b815481526020019060010190808311611f63575b5050505050905080915050919050565b6000801b611f9481613b63565b611f9e8383614162565b505050565b60008073ffffffffffffffffffffffffffffffffffffffff168273ffffffffffffffffffffffffffffffffffffffff1603612013576040517f08c379a000000000000000000000000000000000000000000000000000000000815260040161200a90617055565b60405180910390fd5b609a60008373ffffffffffffffffffffffffffffffffffffffff1673ffffffffffffffffffffffffffffffffffffffff168152602001908152602001600020549050919050565b6120626142f7565b61206c600061404f565b565b7fb0a2731da0d1e322a29f18fc41490da7914e8245c4e7d00155b630b2fbe5029361209881613b63565b816101cd819055505050565b7fb0a2731da0d1e322a29f18fc41490da7914e8245c4e7d00155b630b2fbe502936120ce81613b63565b816101c8819055505050565b6101c480546120e8906167ce565b80601f0160208091040260200160405190810160405280929190818152602001828054612114906167ce565b80156121615780601f1061213657610100808354040283529160200191612161565b820191906000526020600020905b81548152906001019060200180831161214457829003601f168201915b505050505081565b6101cf60009054906101000a900460ff1681565b6101d15481565b600061019160009054906101000a900473ffffffffffffffffffffffffffffffffffffffff16905090565b7fa49807205ce4d355092ef5a8a18f56e8913cf4a201fbe287825b095693c217756121d981613b63565b73__$afec012158ebc01e771e0b8521b3c90181$__6339d1efc68888888888886040518763ffffffff1660e01b815260040161221a96959493929190617148565b60006040518083038186803b15801561223257600080fd5b505af4158015612246573d6000803e3d6000fd5b5050505050505050505050565b600060c9600084815260200190815260200160002060000160008373ffffffffffffffffffffffffffffffffffffffff1673ffffffffffffffffffffffffffffffffffffffff16815260200190815260200160002060009054906101000a900460ff16905092915050565b6101c65481565b6122cd614375565b73ffffffffffffffffffffffffffffffffffffffff163373ffffffffffffffffffffffffffffffffffffffff161461233a576040517f08c379a0000000000000000000000000000000000000000000000000000000008152600401612331906171f0565b60405180910390fd5b600061234461440e565b73ffffffffffffffffffffffffffffffffffffffff166386c2b83d30876040518363ffffffff1660e01b815260040161237e92919061721f565b606060405180830381865afa15801561239b573d6000803e3d6000fd5b505050506040513d601f19601f820116820180604052508101906123bf91906172c6565b90506000816020015111612408576040517f08c379a00000000000000000000000000000000000000000000000000000000081526004016123ff9061733f565b60405180910390fd5b60006101cb60008760ff1660ff168152602001908152602001600020549050600087826124359190616d81565b9050808360200151101561247e576040517f08c379a0000000000000000000000000000000000000000000000000000000008152600401612475906173ab565b60405180910390fd5b806101cb60008960ff1660ff1681526020019081526020016000208190555060008867ffffffffffffffff8111156124b9576124b8615c2c565b5b6040519080825280602002602001820160405280156124f257816020015b6124df615633565b8152602001906001900390816124d75790505b50905060005b8981101561263b57600061250d6101ca6144a7565b905061251a6101ca6144b5565b61252489826144cb565b6101cc60008a73ffffffffffffffffffffffffffffffffffffffff1673ffffffffffffffffffffffffffffffffffffffff168152602001908152602001600020819080600181540180825580915050600190039060005260206000200160009091909190915055896101ce600083815260200190815260200160002060006101000a81548160ff021916908360ff1602179055507fd5054ba42059be88c66c1a10236e5a0cea44d10897996e6040b6f41c57be134289828c6040516125eb939291906173fc565b60405180910390a160405180604001604052808281526020018b60ff1681525083838151811061261e5761261d616d52565b5b6020026020010181905250508061263490616db5565b90506124f8565b507ff7dd652110ab47a8985ee42eb817b24e6084a902c749934178ddf4795d91e21386868984604051612671949392919061753e565b60405180910390a1505050505050505050565b606060988054612693906167ce565b80601f01602080910402602001604051908101604052809291908181526020018280546126bf906167ce565b801561270c5780601f106126e15761010080835404028352916020019161270c565b820191906000526020600020905b8154815290600101906020018083116126ef57829003601f168201915b5050505050905090565b7fb0a2731da0d1e322a29f18fc41490da7914e8245c4e7d00155b630b2fbe5029361274081613b63565b60008411612783576040517f08c379a000000000000000000000000000000000000000000000000000000000815260040161277a906175d1565b60405180910390fd5b600061278d61440e565b73ffffffffffffffffffffffffffffffffffffffff166386c2b83d30866040518363ffffffff1660e01b81526004016127c792919061721f565b606060405180830381865afa1580156127e4573d6000803e3d6000fd5b505050506040513d601f19601f8201168201806040525081019061280891906172c6565b90506000816020015111612851576040517f08c379a00000000000000000000000000000000000000000000000000000000081526004016128489061733f565b60405180910390fd5b60006101cb60008660ff1660ff1681526020019081526020016000205490506000868261287e9190616d81565b905080836020015110156128c7576040517f08c379a00000000000000000000000000000000000000000000000000000000081526004016128be906173ab565b60405180910390fd5b806101cb60008860ff1660ff16815260200190815260200160002081905550600073ffffffffffffffffffffffffffffffffffffffff168573ffffffffffffffffffffffffffffffffffffffff160361291e573394505b60005b87811015612a2e5760006129366101ca6144a7565b90506129436101ca6144b5565b61294d87826144cb565b6101cc60008873ffffffffffffffffffffffffffffffffffffffff1673ffffffffffffffffffffffffffffffffffffffff168152602001908152602001600020819080600181540180825580915050600190039060005260206000200160009091909190915055876101ce600083815260200190815260200160002060006101000a81548160ff021916908360ff1602179055507fd5054ba42059be88c66c1a10236e5a0cea44d10897996e6040b6f41c57be134287828a604051612a14939291906173fc565b60405180910390a15080612a2790616db5565b9050612921565b5050505050505050565b6000801b81565b612a51612a4a61370a565b83836144e9565b5050565b6101d36020528060005260406000206000915090508054612a75906167ce565b80601f0160208091040260200160405190810160405280929190818152602001828054612aa1906167ce565b8015612aee5780601f10612ac357610100808354040283529160200191612aee565b820191906000526020600020905b815481529060010190602001808311612ad157829003601f168201915b505050505081565b60007fa49807205ce4d355092ef5a8a18f56e8913cf4a201fbe287825b095693c21775612b2281613b63565b6101d460009054906101000a900473ffffffffffffffffffffffffffffffffffffffff1691505090565b612b5461564d565b7fa49807205ce4d355092ef5a8a18f56e8913cf4a201fbe287825b095693c21775612b7e81613b63565b612b8661440e565b73ffffffffffffffffffffffffffffffffffffffff166386c2b83d30856040518363ffffffff1660e01b8152600401612bc092919061721f565b606060405180830381865afa158015612bdd573d6000803e3d6000fd5b505050506040513d601f19601f82011682018060405250810190612c0191906172c6565b915050919050565b7f3c11d16cbaffd01df69ce1c404f6340ee057498f5f00246190ea54220576a848612c3381613b63565b60005b8251811015612c7357612c62838281518110612c5557612c54616d52565b5b6020026020010151614655565b80612c6c90616db5565b9050612c36565b505050565b612c89612c8361370a565b836137cb565b612cc8576040517f08c379a0000000000000000000000000000000000000000000000000000000008152600401612cbf90616995565b60405180910390fd5b612cd48484848461466a565b50505050565b6101c360009054906101000a900473ffffffffffffffffffffffffffffffffffffffff1681565b6000612d0e6101ca6144a7565b905090565b7fa49807205ce4d355092ef5a8a18f56e8913cf4a201fbe287825b095693c21775612d3d81613b63565b73__$afec012158ebc01e771e0b8521b3c90181$__637a17125987878787876040518663ffffffff1660e01b8152600401612d7c9594939291906175f1565b602060405180830381865af4158015612d99573d6000803e3d6000fd5b505050506040513d601f19601f82011682018060405250810190612dbd9190616c51565b50505050505050565b6060612dd061440e565b73ffffffffffffffffffffffffffffffffffffffff1663a0da06b530846040518363ffffffff1660e01b8152600401612e0a929190615acd565b600060405180830381865afa158015612e27573d6000803e3d6000fd5b505050506040513d6000823e3d601f19601f82011682018060405250810190612e5091906176af565b9050919050565b612e60826110eb565b612e6981613b63565b612e738383613c58565b505050565b7fb0a2731da0d1e322a29f18fc41490da7914e8245c4e7d00155b630b2fbe50293612ea281613b63565b816101c7819055505050565b6101d05481565b7fb0a2731da0d1e322a29f18fc41490da7914e8245c4e7d00155b630b2fbe50293612edf81613b63565b816101c6819055505050565b6000609c60008473ffffffffffffffffffffffffffffffffffffffff1673ffffffffffffffffffffffffffffffffffffffff16815260200190815260200160002060008373ffffffffffffffffffffffffffffffffffffffff1673ffffffffffffffffffffffffffffffffffffffff16815260200190815260200160002060009054906101000a900460ff16905092915050565b6101c560009054906101000a900473ffffffffffffffffffffffffffffffffffffffff1681565b6101cc6020528160005260406000208181548110612fc357600080fd5b90600052602060002001600091509150505481565b612fe06142f7565b600073ffffffffffffffffffffffffffffffffffffffff168173ffffffffffffffffffffffffffffffffffffffff160361304f576040517f08c379a00000000000000000000000000000000000000000000000000000000081526004016130469061776a565b60405180910390fd5b6130588161404f565b50565b6000339050836101d260008473ffffffffffffffffffffffffffffffffffffffff1673ffffffffffffffffffffffffffffffffffffffff1681526020019081526020016000205410156130e3576040517f08c379a00000000000000000000000000000000000000000000000000000000081526004016130da906177fc565b60405180910390fd5b6101c754421015613129576040517f08c379a000000000000000000000000000000000000000000000000000000000815260040161312090617868565b60405180910390fd5b6101c85442111561316f576040517f08c379a0000000000000000000000000000000000000000000000000000000008152600401613166906178d4565b60405180910390fd5b60006101cd541115613204576101cd546101cc60008473ffffffffffffffffffffffffffffffffffffffff1673ffffffffffffffffffffffffffffffffffffffff1681526020019081526020016000208054905010613203576040517f08c379a00000000000000000000000000000000000000000000000000000000081526004016131fa90617940565b60405180910390fd5b5b600061320e61440e565b73ffffffffffffffffffffffffffffffffffffffff166386c2b83d30866040518363ffffffff1660e01b815260040161324892919061721f565b606060405180830381865afa158015613265573d6000803e3d6000fd5b505050506040513d601f19601f8201168201806040525081019061328991906172c6565b905060008160200151116132d2576040517f08c379a00000000000000000000000000000000000000000000000000000000081526004016132c99061733f565b60405180910390fd5b60006101cb60008660ff1660ff168152602001908152602001600020549050600086826132ff9190616d81565b90508083602001511015613348576040517f08c379a000000000000000000000000000000000000000000000000000000000815260040161333f906173ab565b60405180910390fd5b600087846040015161335a91906169e4565b90506101c960009054906101000a900473ffffffffffffffffffffffffffffffffffffffff1673ffffffffffffffffffffffffffffffffffffffff166370a08231866040518263ffffffff1660e01b81526004016133b89190615896565b602060405180830381865afa1580156133d5573d6000803e3d6000fd5b505050506040513d601f19601f820116820180604052508101906133f99190616c51565b81111561343b576040517f08c379a0000000000000000000000000000000000000000000000000000000008152600401613432906179d2565b60405180910390fd5b6101c960009054906101000a900473ffffffffffffffffffffffffffffffffffffffff1673ffffffffffffffffffffffffffffffffffffffff166323b872dd866101c560009054906101000a900473ffffffffffffffffffffffffffffffffffffffff16846040518463ffffffff1660e01b81526004016134be939291906179f2565b6020604051808303816000875af11580156134dd573d6000803e3d6000fd5b505050506040513d601f19601f820116820180604052508101906135019190616c93565b50876101d260008873ffffffffffffffffffffffffffffffffffffffff1673ffffffffffffffffffffffffffffffffffffffff16815260200190815260200160002060008282546135529190617a29565b92505081905550876101d1600082825461356c9190616d81565b92505081905550816101cb60008960ff1660ff1681526020019081526020016000208190555060005b888110156136a25760006135aa6101ca6144a7565b90506135b76101ca6144b5565b6135c188826144cb565b6101cc60008973ffffffffffffffffffffffffffffffffffffffff1673ffffffffffffffffffffffffffffffffffffffff168152602001908152602001600020819080600181540180825580915050600190039060005260206000200160009091909190915055886101ce600083815260200190815260200160002060006101000a81548160ff021916908360ff1602179055507fd5054ba42059be88c66c1a10236e5a0cea44d10897996e6040b6f41c57be134288828b604051613688939291906173fc565b60405180910390a1508061369b90616db5565b9050613595565b505050505050505050565b60006136b8826146c6565b9050919050565b6136c881614740565b613707576040517f08c379a00000000000000000000000000000000000000000000000000000000081526004016136fe90616fc3565b60405180910390fd5b50565b600033905090565b81609b600083815260200190815260200160002060006101000a81548173ffffffffffffffffffffffffffffffffffffffff021916908373ffffffffffffffffffffffffffffffffffffffff160217905550808273ffffffffffffffffffffffffffffffffffffffff1661378583611e63565b73ffffffffffffffffffffffffffffffffffffffff167f8c5be1e5ebec7d5bd14f71427d1e84f3dd0314c0f7b2291e5b200ac8c7c3b92560405160405180910390a45050565b6000806137d783611e63565b90508073ffffffffffffffffffffffffffffffffffffffff168473ffffffffffffffffffffffffffffffffffffffff16148061381957506138188185612eeb565b5b8061385757508373ffffffffffffffffffffffffffffffffffffffff1661383f84610f2e565b73ffffffffffffffffffffffffffffffffffffffff16145b91505092915050565b8273ffffffffffffffffffffffffffffffffffffffff1661388082611e63565b73ffffffffffffffffffffffffffffffffffffffff16146138d6576040517f08c379a00000000000000000000000000000000000000000000000000000000081526004016138cd90617acf565b60405180910390fd5b600073ffffffffffffffffffffffffffffffffffffffff168273ffffffffffffffffffffffffffffffffffffffff1603613945576040517f08c379a000000000000000000000000000000000000000000000000000000000815260040161393c90617b61565b60405180910390fd5b6139528383836001614781565b8273ffffffffffffffffffffffffffffffffffffffff1661397282611e63565b73ffffffffffffffffffffffffffffffffffffffff16146139c8576040517f08c379a00000000000000000000000000000000000000000000000000000000081526004016139bf90617acf565b60405180910390fd5b609b600082815260200190815260200160002060006101000a81549073ffffffffffffffffffffffffffffffffffffffff02191690556001609a60008573ffffffffffffffffffffffffffffffffffffffff1673ffffffffffffffffffffffffffffffffffffffff168152602001908152602001600020600082825403925050819055506001609a60008473ffffffffffffffffffffffffffffffffffffffff1673ffffffffffffffffffffffffffffffffffffffff16815260200190815260200160002060008282540192505081905550816099600083815260200190815260200160002060006101000a81548173ffffffffffffffffffffffffffffffffffffffff021916908373ffffffffffffffffffffffffffffffffffffffff160217905550808273ffffffffffffffffffffffffffffffffffffffff168473ffffffffffffffffffffffffffffffffffffffff167fddf252ad1be2c89b69c2b068fc378daa952ba7f163c4a11628f55a4df523b3ef60405160405180910390a4613b5483838360016148a7565b505050565b6000612710905090565b613b7481613b6f61370a565b6148ad565b50565b613b818282612253565b613c5457600160c9600084815260200190815260200160002060000160008373ffffffffffffffffffffffffffffffffffffffff1673ffffffffffffffffffffffffffffffffffffffff16815260200190815260200160002060006101000a81548160ff021916908315150217905550613bf961370a565b73ffffffffffffffffffffffffffffffffffffffff168173ffffffffffffffffffffffffffffffffffffffff16837f2f8788117e7eff1d82e926ec794901d17c78024a50270940304540a733656f0d60405160405180910390a45b5050565b613c628282612253565b15613d3657600060c9600084815260200190815260200160002060000160008373ffffffffffffffffffffffffffffffffffffffff1673ffffffffffffffffffffffffffffffffffffffff16815260200190815260200160002060006101000a81548160ff021916908315150217905550613cdb61370a565b73ffffffffffffffffffffffffffffffffffffffff168173ffffffffffffffffffffffffffffffffffffffff16837ff6391f5c32d9c69d2a47ea670b442974b53935d1edc7fd64eb21e047a839171b60405160405180910390a45b5050565b6000613d687f360894a13ba1a3210667c828492db98dca3e2076cc3735a920a3ca505d382bbc60001b614932565b60000160009054906101000a900473ffffffffffffffffffffffffffffffffffffffff16905090565b7fa49807205ce4d355092ef5a8a18f56e8913cf4a201fbe287825b095693c21775613dbb81613b63565b5050565b613deb7f4910fdfa16fed3260ed0e7147f7cc6da11a60208b5b9406d12a635614ffd914360001b61493c565b60000160009054906101000a900460ff1615613e0f57613e0a83614946565b613f28565b8273ffffffffffffffffffffffffffffffffffffffff166352d1902d6040518163ffffffff1660e01b8152600401602060405180830381865afa925050508015613e7757506040513d601f19601f82011682018060405250810190613e749190617b96565b60015b613eb6576040517f08c379a0000000000000000000000000000000000000000000000000000000008152600401613ead90617c35565b60405180910390fd5b7f360894a13ba1a3210667c828492db98dca3e2076cc3735a920a3ca505d382bbc60001b8114613f1b576040517f08c379a0000000000000000000000000000000000000000000000000000000008152600401613f1290617cc7565b60405180910390fd5b50613f278383836149ff565b5b505050565b6000808273ffffffffffffffffffffffffffffffffffffffff163b119050919050565b600060019054906101000a900460ff16613f9f576040517f08c379a0000000000000000000000000000000000000000000000000000000008152600401613f9690617d59565b60405180910390fd5b613fa98282614a2b565b5050565b600060019054906101000a900460ff16613ffc576040517f08c379a0000000000000000000000000000000000000000000000000000000008152600401613ff390617d59565b60405180910390fd5b565b600060019054906101000a900460ff1661404d576040517f08c379a000000000000000000000000000000000000000000000000000000000815260040161404490617d59565b60405180910390fd5b565b600061019160009054906101000a900473ffffffffffffffffffffffffffffffffffffffff1690508161019160006101000a81548173ffffffffffffffffffffffffffffffffffffffff021916908373ffffffffffffffffffffffffffffffffffffffff1602179055508173ffffffffffffffffffffffffffffffffffffffff168173ffffffffffffffffffffffffffffffffffffffff167f8be0079c531659141344cd1fd0a4f28419497f9722a3daafe3b4186f6b6457e060405160405180910390a35050565b6141218282613b77565b5050565b60006099600083815260200190815260200160002060009054906101000a900473ffffffffffffffffffffffffffffffffffffffff169050919050565b61416a613b59565b6bffffffffffffffffffffffff16816bffffffffffffffffffffffff1611156141c8576040517f08c379a00000000000000000000000000000000000000000000000000000000081526004016141bf90617deb565b60405180910390fd5b600073ffffffffffffffffffffffffffffffffffffffff168273ffffffffffffffffffffffffffffffffffffffff1603614237576040517f08c379a000000000000000000000000000000000000000000000000000000000815260040161422e90617e57565b60405180910390fd5b60405180604001604052808373ffffffffffffffffffffffffffffffffffffffff168152602001826bffffffffffffffffffffffff16815250606560008201518160000160006101000a81548173ffffffffffffffffffffffffffffffffffffffff021916908373ffffffffffffffffffffffffffffffffffffffff16021790555060208201518160000160146101000a8154816bffffffffffffffffffffffff02191690836bffffffffffffffffffffffff1602179055509050505050565b6142ff61370a565b73ffffffffffffffffffffffffffffffffffffffff1661431d612184565b73ffffffffffffffffffffffffffffffffffffffff1614614373576040517f08c379a000000000000000000000000000000000000000000000000000000000815260040161436a90617ec3565b60405180910390fd5b565b60006101d460009054906101000a900473ffffffffffffffffffffffffffffffffffffffff1673ffffffffffffffffffffffffffffffffffffffff166371efede96040518163ffffffff1660e01b8152600401602060405180830381865afa1580156143e5573d6000803e3d6000fd5b505050506040513d601f19601f820116820180604052508101906144099190617ef8565b905090565b60006101d460009054906101000a900473ffffffffffffffffffffffffffffffffffffffff1673ffffffffffffffffffffffffffffffffffffffff16639ee984ba6040518163ffffffff1660e01b8152600401602060405180830381865afa15801561447e573d6000803e3d6000fd5b505050506040513d601f19601f820116820180604052508101906144a29190617ef8565b905090565b600081600001549050919050565b6001816000016000828254019250508190555050565b6144e5828260405180602001604052806000815250614a9e565b5050565b8173ffffffffffffffffffffffffffffffffffffffff168373ffffffffffffffffffffffffffffffffffffffff1603614557576040517f08c379a000000000000000000000000000000000000000000000000000000000815260040161454e90617f71565b60405180910390fd5b80609c60008573ffffffffffffffffffffffffffffffffffffffff1673ffffffffffffffffffffffffffffffffffffffff16815260200190815260200160002060008473ffffffffffffffffffffffffffffffffffffffff1673ffffffffffffffffffffffffffffffffffffffff16815260200190815260200160002060006101000a81548160ff0219169083151502179055508173ffffffffffffffffffffffffffffffffffffffff168373ffffffffffffffffffffffffffffffffffffffff167f17307eab39ab6107e8899845ad3d59bd9653f200f220920489ca2b5937696c31836040516146489190615725565b60405180910390a3505050565b61465e81614af9565b61466781614b0e565b50565b614675848484613860565b61468184848484614b6d565b6146c0576040517f08c379a00000000000000000000000000000000000000000000000000000000081526004016146b790618003565b60405180910390fd5b50505050565b60007f7965db0b000000000000000000000000000000000000000000000000000000007bffffffffffffffffffffffffffffffffffffffffffffffffffffffff1916827bffffffffffffffffffffffffffffffffffffffffffffffffffffffff19161480614739575061473882614cf4565b5b9050919050565b60008073ffffffffffffffffffffffffffffffffffffffff1661476283614125565b73ffffffffffffffffffffffffffffffffffffffff1614159050919050565b60018111156148a157600073ffffffffffffffffffffffffffffffffffffffff168473ffffffffffffffffffffffffffffffffffffffff16146148155780609a60008673ffffffffffffffffffffffffffffffffffffffff1673ffffffffffffffffffffffffffffffffffffffff168152602001908152602001600020600082825461480d9190617a29565b925050819055505b600073ffffffffffffffffffffffffffffffffffffffff168373ffffffffffffffffffffffffffffffffffffffff16146148a05780609a60008573ffffffffffffffffffffffffffffffffffffffff1673ffffffffffffffffffffffffffffffffffffffff16815260200190815260200160002060008282546148989190616d81565b925050819055505b5b50505050565b50505050565b6148b78282612253565b61492e576148c481614dd6565b6148d28360001c6020614e03565b6040516020016148e39291906180f7565b6040516020818303038152906040526040517f08c379a000000000000000000000000000000000000000000000000000000000815260040161492591906157d0565b60405180910390fd5b5050565b6000819050919050565b6000819050919050565b61494f81613f2d565b61498e576040517f08c379a0000000000000000000000000000000000000000000000000000000008152600401614985906181a3565b60405180910390fd5b806149bb7f360894a13ba1a3210667c828492db98dca3e2076cc3735a920a3ca505d382bbc60001b614932565b60000160006101000a81548173ffffffffffffffffffffffffffffffffffffffff021916908373ffffffffffffffffffffffffffffffffffffffff16021790555050565b614a088361503f565b600082511180614a155750805b15614a2657614a24838361508e565b505b505050565b600060019054906101000a900460ff16614a7a576040517f08c379a0000000000000000000000000000000000000000000000000000000008152600401614a7190617d59565b60405180910390fd5b8160979081614a899190618365565b508060989081614a999190618365565b505050565b614aa88383615172565b614ab56000848484614b6d565b614af4576040517f08c379a0000000000000000000000000000000000000000000000000000000008152600401614aeb90618003565b60405180910390fd5b505050565b614b028161538f565b614b0b81614b0e565b50565b60666000828152602001908152602001600020600080820160006101000a81549073ffffffffffffffffffffffffffffffffffffffff02191690556000820160146101000a8154906bffffffffffffffffffffffff0219169055505050565b6000614b8e8473ffffffffffffffffffffffffffffffffffffffff16613f2d565b15614ce7578373ffffffffffffffffffffffffffffffffffffffff1663150b7a02614bb761370a565b8786866040518563ffffffff1660e01b8152600401614bd9949392919061848c565b6020604051808303816000875af1925050508015614c1557506040513d601f19601f82011682018060405250810190614c1291906184ed565b60015b614c97573d8060008114614c45576040519150601f19603f3d011682016040523d82523d6000602084013e614c4a565b606091505b506000815103614c8f576040517f08c379a0000000000000000000000000000000000000000000000000000000008152600401614c8690618003565b60405180910390fd5b805181602001fd5b63150b7a0260e01b7bffffffffffffffffffffffffffffffffffffffffffffffffffffffff1916817bffffffffffffffffffffffffffffffffffffffffffffffffffffffff191614915050614cec565b600190505b949350505050565b60007f80ac58cd000000000000000000000000000000000000000000000000000000007bffffffffffffffffffffffffffffffffffffffffffffffffffffffff1916827bffffffffffffffffffffffffffffffffffffffffffffffffffffffff19161480614dbf57507f5b5e139f000000000000000000000000000000000000000000000000000000007bffffffffffffffffffffffffffffffffffffffffffffffffffffffff1916827bffffffffffffffffffffffffffffffffffffffffffffffffffffffff1916145b80614dcf5750614dce826154dd565b5b9050919050565b6060614dfc8273ffffffffffffffffffffffffffffffffffffffff16601460ff16614e03565b9050919050565b606060006002836002614e1691906169e4565b614e209190616d81565b67ffffffffffffffff811115614e3957614e38615c2c565b5b6040519080825280601f01601f191660200182016040528015614e6b5781602001600182028036833780820191505090505b5090507f300000000000000000000000000000000000000000000000000000000000000081600081518110614ea357614ea2616d52565b5b60200101907effffffffffffffffffffffffffffffffffffffffffffffffffffffffffffff1916908160001a9053507f780000000000000000000000000000000000000000000000000000000000000081600181518110614f0757614f06616d52565b5b60200101907effffffffffffffffffffffffffffffffffffffffffffffffffffffffffffff1916908160001a90535060006001846002614f4791906169e4565b614f519190616d81565b90505b6001811115614ff1577f3031323334353637383961626364656600000000000000000000000000000000600f861660108110614f9357614f92616d52565b5b1a60f81b828281518110614faa57614fa9616d52565b5b60200101907effffffffffffffffffffffffffffffffffffffffffffffffffffffffffffff1916908160001a905350600485901c945080614fea9061851a565b9050614f54565b5060008414615035576040517f08c379a000000000000000000000000000000000000000000000000000000000815260040161502c9061858f565b60405180910390fd5b8091505092915050565b61504881614946565b8073ffffffffffffffffffffffffffffffffffffffff167fbc7cd75a20ee27fd9adebab32041f755214dbc6bffa90cc0225b39da2e5c2d3b60405160405180910390a250565b606061509983613f2d565b6150d8576040517f08c379a00000000000000000000000000000000000000000000000000000000081526004016150cf90618621565b60405180910390fd5b6000808473ffffffffffffffffffffffffffffffffffffffff1684604051615100919061867d565b600060405180830381855af49150503d806000811461513b576040519150601f19603f3d011682016040523d82523d6000602084013e615140565b606091505b5091509150615168828260405180606001604052806027815260200161876d60279139615557565b9250505092915050565b600073ffffffffffffffffffffffffffffffffffffffff168273ffffffffffffffffffffffffffffffffffffffff16036151e1576040517f08c379a00000000000000000000000000000000000000000000000000000000081526004016151d8906186e0565b60405180910390fd5b6151ea81614740565b1561522a576040517f08c379a00000000000000000000000000000000000000000000000000000000081526004016152219061874c565b60405180910390fd5b615238600083836001614781565b61524181614740565b15615281576040517f08c379a00000000000000000000000000000000000000000000000000000000081526004016152789061874c565b60405180910390fd5b6001609a60008473ffffffffffffffffffffffffffffffffffffffff1673ffffffffffffffffffffffffffffffffffffffff16815260200190815260200160002060008282540192505081905550816099600083815260200190815260200160002060006101000a81548173ffffffffffffffffffffffffffffffffffffffff021916908373ffffffffffffffffffffffffffffffffffffffff160217905550808273ffffffffffffffffffffffffffffffffffffffff16600073ffffffffffffffffffffffffffffffffffffffff167fddf252ad1be2c89b69c2b068fc378daa952ba7f163c4a11628f55a4df523b3ef60405160405180910390a461538b6000838360016148a7565b5050565b600061539a82611e63565b90506153aa816000846001614781565b6153b382611e63565b9050609b600083815260200190815260200160002060006101000a81549073ffffffffffffffffffffffffffffffffffffffff02191690556001609a60008373ffffffffffffffffffffffffffffffffffffffff1673ffffffffffffffffffffffffffffffffffffffff168152602001908152602001600020600082825403925050819055506099600083815260200190815260200160002060006101000a81549073ffffffffffffffffffffffffffffffffffffffff021916905581600073ffffffffffffffffffffffffffffffffffffffff168273ffffffffffffffffffffffffffffffffffffffff167fddf252ad1be2c89b69c2b068fc378daa952ba7f163c4a11628f55a4df523b3ef60405160405180910390a46154d98160008460016148a7565b5050565b60007f2a55205a000000000000000000000000000000000000000000000000000000007bffffffffffffffffffffffffffffffffffffffffffffffffffffffff1916827bffffffffffffffffffffffffffffffffffffffffffffffffffffffff19161480615550575061554f82615579565b5b9050919050565b6060831561556757829050615572565b61557183836155e3565b5b9392505050565b60007f01ffc9a7000000000000000000000000000000000000000000000000000000007bffffffffffffffffffffffffffffffffffffffffffffffffffffffff1916827bffffffffffffffffffffffffffffffffffffffffffffffffffffffff1916149050919050565b6000825111156155f65781518083602001fd5b806040517f08c379a000000000000000000000000000000000000000000000000000000000815260040161562a91906157d0565b60405180910390fd5b604051806040016040528060008152602001600081525090565b6040518060600160405280600060ff16815260200160008152602001600081525090565b6000604051905090565b600080fd5b600080fd5b60007fffffffff0000000000000000000000000000000000000000000000000000000082169050919050565b6156ba81615685565b81146156c557600080fd5b50565b6000813590506156d7816156b1565b92915050565b6000602082840312156156f3576156f261567b565b5b6000615701848285016156c8565b91505092915050565b60008115159050919050565b61571f8161570a565b82525050565b600060208201905061573a6000830184615716565b92915050565b600081519050919050565b600082825260208201905092915050565b60005b8381101561577a57808201518184015260208101905061575f565b60008484015250505050565b6000601f19601f8301169050919050565b60006157a282615740565b6157ac818561574b565b93506157bc81856020860161575c565b6157c581615786565b840191505092915050565b600060208201905081810360008301526157ea8184615797565b905092915050565b6000819050919050565b615805816157f2565b811461581057600080fd5b50565b600081359050615822816157fc565b92915050565b60006020828403121561583e5761583d61567b565b5b600061584c84828501615813565b91505092915050565b600073ffffffffffffffffffffffffffffffffffffffff82169050919050565b600061588082615855565b9050919050565b61589081615875565b82525050565b60006020820190506158ab6000830184615887565b92915050565b6158ba81615875565b81146158c557600080fd5b50565b6000813590506158d7816158b1565b92915050565b600080604083850312156158f4576158f361567b565b5b6000615902858286016158c8565b925050602061591385828601615813565b9150509250929050565b6000806000606084860312156159365761593561567b565b5b6000615944868287016158c8565b9350506020615955868287016158c8565b925050604061596686828701615813565b9150509250925092565b6000819050919050565b61598381615970565b811461598e57600080fd5b50565b6000813590506159a08161597a565b92915050565b6000602082840312156159bc576159bb61567b565b5b60006159ca84828501615991565b91505092915050565b6159dc81615970565b82525050565b60006020820190506159f760008301846159d3565b92915050565b600060ff82169050919050565b615a13816159fd565b8114615a1e57600080fd5b50565b600081359050615a3081615a0a565b92915050565b600060208284031215615a4c57615a4b61567b565b5b6000615a5a84828501615a21565b91505092915050565b615a6c816157f2565b82525050565b6000602082019050615a876000830184615a63565b92915050565b60008060408385031215615aa457615aa361567b565b5b6000615ab285828601615813565b9250506020615ac385828601615813565b9150509250929050565b6000604082019050615ae26000830185615887565b615aef6020830184615a63565b9392505050565b600060208284031215615b0c57615b0b61567b565b5b6000615b1a848285016158c8565b91505092915050565b60008060408385031215615b3a57615b3961567b565b5b6000615b4885828601615991565b9250506020615b59858286016158c8565b9150509250929050565b6000615b6e82615875565b9050919050565b615b7e81615b63565b8114615b8957600080fd5b50565b600081359050615b9b81615b75565b92915050565b600060208284031215615bb757615bb661567b565b5b6000615bc584828501615b8c565b91505092915050565b615bd78161570a565b8114615be257600080fd5b50565b600081359050615bf481615bce565b92915050565b600060208284031215615c1057615c0f61567b565b5b6000615c1e84828501615be5565b91505092915050565b600080fd5b7f4e487b7100000000000000000000000000000000000000000000000000000000600052604160045260246000fd5b615c6482615786565b810181811067ffffffffffffffff82111715615c8357615c82615c2c565b5b80604052505050565b6000615c96615671565b9050615ca28282615c5b565b919050565b600067ffffffffffffffff821115615cc257615cc1615c2c565b5b602082029050602081019050919050565b600080fd5b6000615ceb615ce684615ca7565b615c8c565b90508083825260208201905060208402830185811115615d0e57615d0d615cd3565b5b835b81811015615d375780615d2388826158c8565b845260208401935050602081019050615d10565b5050509392505050565b600082601f830112615d5657615d55615c27565b5b8135615d66848260208601615cd8565b91505092915050565b600067ffffffffffffffff821115615d8a57615d89615c2c565b5b602082029050602081019050919050565b6000615dae615da984615d6f565b615c8c565b90508083825260208201905060208402830185811115615dd157615dd0615cd3565b5b835b81811015615dfa5780615de68882615813565b845260208401935050602081019050615dd3565b5050509392505050565b600082601f830112615e1957615e18615c27565b5b8135615e29848260208601615d9b565b91505092915050565b60008060408385031215615e4957615e4861567b565b5b600083013567ffffffffffffffff811115615e6757615e66615680565b5b615e7385828601615d41565b925050602083013567ffffffffffffffff811115615e9457615e93615680565b5b615ea085828601615e04565b9150509250929050565b600080fd5b600067ffffffffffffffff821115615eca57615ec9615c2c565b5b615ed382615786565b9050602081019050919050565b82818337600083830152505050565b6000615f02615efd84615eaf565b615c8c565b905082815260208101848484011115615f1e57615f1d615eaa565b5b615f29848285615ee0565b509392505050565b600082601f830112615f4657615f45615c27565b5b8135615f56848260208601615eef565b91505092915050565b60008060408385031215615f7657615f7561567b565b5b6000615f84858286016158c8565b925050602083013567ffffffffffffffff811115615fa557615fa4615680565b5b615fb185828601615f31565b9150509250929050565b600067ffffffffffffffff821115615fd657615fd5615c2c565b5b615fdf82615786565b9050602081019050919050565b6000615fff615ffa84615fbb565b615c8c565b90508281526020810184848401111561601b5761601a615eaa565b5b616026848285615ee0565b509392505050565b600082601f83011261604357616042615c27565b5b8135616053848260208601615fec565b91505092915050565b600080600080600080600060e0888a03121561607b5761607a61567b565b5b60006160898a828b016158c8565b975050602061609a8a828b016158c8565b96505060406160ab8a828b01615b8c565b955050606088013567ffffffffffffffff8111156160cc576160cb615680565b5b6160d88a828b0161602e565b945050608088013567ffffffffffffffff8111156160f9576160f8615680565b5b6161058a828b0161602e565b93505060a06161168a828b016158c8565b92505060c06161278a828b016158c8565b91505092959891949750929550565b6000819050919050565b600061615b61615661615184615855565b616136565b615855565b9050919050565b600061616d82616140565b9050919050565b600061617f82616162565b9050919050565b61618f81616174565b82525050565b60006020820190506161aa6000830184616186565b92915050565b600081519050919050565b600082825260208201905092915050565b6000819050602082019050919050565b6161e5816157f2565b82525050565b60006161f783836161dc565b60208301905092915050565b6000602082019050919050565b600061621b826161b0565b61622581856161bb565b9350616230836161cc565b8060005b8381101561626157815161624888826161eb565b975061625383616203565b925050600181019050616234565b5085935050505092915050565b600060208201905081810360008301526162888184616210565b905092915050565b60006bffffffffffffffffffffffff82169050919050565b6162b181616290565b81146162bc57600080fd5b50565b6000813590506162ce816162a8565b92915050565b600080604083850312156162eb576162ea61567b565b5b60006162f9858286016158c8565b925050602061630a858286016162bf565b9150509250929050565b600080fd5b60008083601f84011261632f5761632e615c27565b5b8235905067ffffffffffffffff81111561634c5761634b616314565b5b60208301915083600182028301111561636857616367615cd3565b5b9250929050565b6002811061637c57600080fd5b50565b60008135905061638e8161636f565b92915050565b60008060008060008060a087890312156163b1576163b061567b565b5b60006163bf89828a016158c8565b96505060206163d089828a01615813565b95505060406163e189828a01615813565b945050606087013567ffffffffffffffff81111561640257616401615680565b5b61640e89828a01616319565b9350935050608061642189828a0161637f565b9150509295509295509295565b60008083601f84011261644457616443615c27565b5b8235905067ffffffffffffffff81111561646157616460616314565b5b60208301915083600182028301111561647d5761647c615cd3565b5b9250929050565b6000806000806000608086880312156164a05761649f61567b565b5b60006164ae88828901615813565b95505060206164bf88828901615a21565b94505060406164d0888289016158c8565b935050606086013567ffffffffffffffff8111156164f1576164f0615680565b5b6164fd8882890161642e565b92509250509295509295909350565b6000806000606084860312156165255761652461567b565b5b600061653386828701615813565b935050602061654486828701615a21565b9250506040616555868287016158c8565b9150509250925092565b600080604083850312156165765761657561567b565b5b6000616584858286016158c8565b925050602061659585828601615be5565b9150509250929050565b6165a8816159fd565b82525050565b6060820160008201516165c4600085018261659f565b5060208201516165d760208501826161dc565b5060408201516165ea60408501826161dc565b50505050565b600060608201905061660560008301846165ae565b92915050565b6000602082840312156166215761662061567b565b5b600082013567ffffffffffffffff81111561663f5761663e615680565b5b61664b84828501615e04565b91505092915050565b6000806000806080858703121561666e5761666d61567b565b5b600061667c878288016158c8565b945050602061668d878288016158c8565b935050604061669e87828801615813565b925050606085013567ffffffffffffffff8111156166bf576166be615680565b5b6166cb87828801615f31565b91505092959194509250565b6000806000806000608086880312156166f3576166f261567b565b5b6000616701888289016158c8565b955050602061671288828901615813565b945050604086013567ffffffffffffffff81111561673357616732615680565b5b61673f88828901616319565b935093505060606167528882890161637f565b9150509295509295909350565b600080604083850312156167765761677561567b565b5b6000616784858286016158c8565b9250506020616795858286016158c8565b9150509250929050565b7f4e487b7100000000000000000000000000000000000000000000000000000000600052602260045260246000fd5b600060028204905060018216806167e657607f821691505b6020821081036167f9576167f861679f565b5b50919050565b7f4552433732313a20617070726f76616c20746f2063757272656e74206f776e6560008201527f7200000000000000000000000000000000000000000000000000000000000000602082015250565b600061685b60218361574b565b9150616866826167ff565b604082019050919050565b6000602082019050818103600083015261688a8161684e565b9050919050565b7f4552433732313a20617070726f76652063616c6c6572206973206e6f7420746f60008201527f6b656e206f776e6572206f7220617070726f76656420666f7220616c6c000000602082015250565b60006168ed603d8361574b565b91506168f882616891565b604082019050919050565b6000602082019050818103600083015261691c816168e0565b9050919050565b7f4552433732313a2063616c6c6572206973206e6f7420746f6b656e206f776e6560008201527f72206f7220617070726f76656400000000000000000000000000000000000000602082015250565b600061697f602d8361574b565b915061698a82616923565b604082019050919050565b600060208201905081810360008301526169ae81616972565b9050919050565b7f4e487b7100000000000000000000000000000000000000000000000000000000600052601160045260246000fd5b60006169ef826157f2565b91506169fa836157f2565b9250828202616a08816157f2565b91508282048414831517616a1f57616a1e6169b5565b5b5092915050565b7f4e487b7100000000000000000000000000000000000000000000000000000000600052601260045260246000fd5b6000616a60826157f2565b9150616a6b836157f2565b925082616a7b57616a7a616a26565b5b828204905092915050565b7f416363657373436f6e74726f6c3a2063616e206f6e6c792072656e6f756e636560008201527f20726f6c657320666f722073656c660000000000000000000000000000000000602082015250565b6000616ae2602f8361574b565b9150616aed82616a86565b604082019050919050565b60006020820190508181036000830152616b1181616ad5565b9050919050565b7f46756e6374696f6e206d7573742062652063616c6c6564207468726f7567682060008201527f64656c656761746563616c6c0000000000000000000000000000000000000000602082015250565b6000616b74602c8361574b565b9150616b7f82616b18565b604082019050919050565b60006020820190508181036000830152616ba381616b67565b9050919050565b7f46756e6374696f6e206d7573742062652063616c6c6564207468726f7567682060008201527f6163746976652070726f78790000000000000000000000000000000000000000602082015250565b6000616c06602c8361574b565b9150616c1182616baa565b604082019050919050565b60006020820190508181036000830152616c3581616bf9565b9050919050565b600081519050616c4b816157fc565b92915050565b600060208284031215616c6757616c6661567b565b5b6000616c7584828501616c3c565b91505092915050565b600081519050616c8d81615bce565b92915050565b600060208284031215616ca957616ca861567b565b5b6000616cb784828501616c7e565b91505092915050565b7f57686974656c69737420616e642062757961626c6520616d6f756e74206c697360008201527f74206d7573742062652073616d65206c656e6774680000000000000000000000602082015250565b6000616d1c60358361574b565b9150616d2782616cc0565b604082019050919050565b60006020820190508181036000830152616d4b81616d0f565b9050919050565b7f4e487b7100000000000000000000000000000000000000000000000000000000600052603260045260246000fd5b6000616d8c826157f2565b9150616d97836157f2565b9250828201905080821115616daf57616dae6169b5565b5b92915050565b6000616dc0826157f2565b91507fffffffffffffffffffffffffffffffffffffffffffffffffffffffffffffffff8203616df257616df16169b5565b5b600182019050919050565b7f555550535570677261646561626c653a206d757374206e6f742062652063616c60008201527f6c6564207468726f7567682064656c656761746563616c6c0000000000000000602082015250565b6000616e5960388361574b565b9150616e6482616dfd565b604082019050919050565b60006020820190508181036000830152616e8881616e4c565b9050919050565b7f496e697469616c697a61626c653a20636f6e747261637420697320616c72656160008201527f647920696e697469616c697a6564000000000000000000000000000000000000602082015250565b6000616eeb602e8361574b565b9150616ef682616e8f565b604082019050919050565b60006020820190508181036000830152616f1a81616ede565b9050919050565b6000819050919050565b6000616f46616f41616f3c84616f21565b616136565b6159fd565b9050919050565b616f5681616f2b565b82525050565b6000602082019050616f716000830184616f4d565b92915050565b7f4552433732313a20696e76616c696420746f6b656e2049440000000000000000600082015250565b6000616fad60188361574b565b9150616fb882616f77565b602082019050919050565b60006020820190508181036000830152616fdc81616fa0565b9050919050565b7f4552433732313a2061646472657373207a65726f206973206e6f74206120766160008201527f6c6964206f776e65720000000000000000000000000000000000000000000000602082015250565b600061703f60298361574b565b915061704a82616fe3565b604082019050919050565b6000602082019050818103600083015261706e81617032565b9050919050565b61707e81615875565b82525050565b61708d816157f2565b82525050565b600082825260208201905092915050565b60006170b08385617093565b93506170bd838584615ee0565b6170c683615786565b840190509392505050565b7f4e487b7100000000000000000000000000000000000000000000000000000000600052602160045260246000fd5b60028110617111576171106170d1565b5b50565b600081905061712282617100565b919050565b600061713282617114565b9050919050565b61714281617127565b82525050565b600060a08201905061715d6000830189617075565b61716a6020830188617084565b6171776040830187617084565b818103606083015261718a8185876170a4565b90506171996080830184617139565b979650505050505050565b7f4e6f742062652063616c6c65642066726f6d20446161702043726561746f7200600082015250565b60006171da601f8361574b565b91506171e5826171a4565b602082019050919050565b60006020820190508181036000830152617209816171cd565b9050919050565b617219816159fd565b82525050565b60006040820190506172346000830185615887565b6172416020830184617210565b9392505050565b600080fd5b60008151905061725c81615a0a565b92915050565b60006060828403121561727857617277617248565b5b6172826060615c8c565b905060006172928482850161724d565b60008301525060206172a684828501616c3c565b60208301525060406172ba84828501616c3c565b60408301525092915050565b6000606082840312156172dc576172db61567b565b5b60006172ea84828501617262565b91505092915050565b7f546f6b656e207479706520646f6573206e6f7420657869737400000000000000600082015250565b600061732960198361574b565b9150617334826172f3565b602082019050919050565b600060208201905081810360008301526173588161731c565b9050919050565b7f4e4654207479706520736f6c64206f7574000000000000000000000000000000600082015250565b600061739560118361574b565b91506173a08261735f565b602082019050919050565b600060208201905081810360008301526173c481617388565b9050919050565b60006173e66173e16173dc846159fd565b616136565b6157f2565b9050919050565b6173f6816173cb565b82525050565b60006060820190506174116000830186615887565b61741e6020830185615a63565b61742b60408301846173ed565b949350505050565b600061743f838561574b565b935061744c838584615ee0565b61745583615786565b840190509392505050565b600081519050919050565b600082825260208201905092915050565b6000819050602082019050919050565b6040820160008201516174a260008501826161dc565b5060208201516174b560208501826161dc565b50505050565b60006174c7838361748c565b60408301905092915050565b6000602082019050919050565b60006174eb82617460565b6174f5818561746b565b93506175008361747c565b8060005b8381101561753157815161751888826174bb565b9750617523836174d3565b925050600181019050617504565b5085935050505092915050565b60006060820190508181036000830152617559818688617433565b90506175686020830185615887565b818103604083015261757a81846174e0565b905095945050505050565b7f4e6f20746f6b656e20746f206d696e7400000000000000000000000000000000600082015250565b60006175bb60108361574b565b91506175c682617585565b602082019050919050565b600060208201905081810360008301526175ea816175ae565b9050919050565b60006080820190506176066000830188617075565b6176136020830187617084565b81810360408301526176268185876170a4565b90506176356060830184617139565b9695505050505050565b600061765261764d84615fbb565b615c8c565b90508281526020810184848401111561766e5761766d615eaa565b5b61767984828561575c565b509392505050565b600082601f83011261769657617695615c27565b5b81516176a684826020860161763f565b91505092915050565b6000602082840312156176c5576176c461567b565b5b600082015167ffffffffffffffff8111156176e3576176e2615680565b5b6176ef84828501617681565b91505092915050565b7f4f776e61626c653a206e6577206f776e657220697320746865207a65726f206160008201527f6464726573730000000000000000000000000000000000000000000000000000602082015250565b600061775460268361574b565b915061775f826176f8565b604082019050919050565b6000602082019050818103600083015261778381617747565b9050919050565b7f55736572206e6f7420696e2077686974656c697374206f72206c696d6974207260008201527f6561636865640000000000000000000000000000000000000000000000000000602082015250565b60006177e660268361574b565b91506177f18261778a565b604082019050919050565b60006020820190508181036000830152617815816177d9565b9050919050565b7f49742773206e6f742074696d6520746f20627579207075626c69632073616c65600082015250565b600061785260208361574b565b915061785d8261781c565b602082019050919050565b6000602082019050818103600083015261788181617845565b9050919050565b7f49742773206e6f742074696d6520746f20627579000000000000000000000000600082015250565b60006178be60148361574b565b91506178c982617888565b602082019050919050565b600060208201905081810360008301526178ed816178b1565b9050919050565b7f427579206c696d69742072656163686564000000000000000000000000000000600082015250565b600061792a60118361574b565b9150617935826178f4565b602082019050919050565b600060208201905081810360008301526179598161791d565b9050919050565b7f55736572206e65656420686f6c6420656e6f75676820546f6b656e20746f206260008201527f75792074686973206e6674000000000000000000000000000000000000000000602082015250565b60006179bc602b8361574b565b91506179c782617960565b604082019050919050565b600060208201905081810360008301526179eb816179af565b9050919050565b6000606082019050617a076000830186615887565b617a146020830185615887565b617a216040830184615a63565b949350505050565b6000617a34826157f2565b9150617a3f836157f2565b9250828203905081811115617a5757617a566169b5565b5b92915050565b7f4552433732313a207472616e736665722066726f6d20696e636f72726563742060008201527f6f776e6572000000000000000000000000000000000000000000000000000000602082015250565b6000617ab960258361574b565b9150617ac482617a5d565b604082019050919050565b60006020820190508181036000830152617ae881617aac565b9050919050565b7f4552433732313a207472616e7366657220746f20746865207a65726f2061646460008201527f7265737300000000000000000000000000000000000000000000000000000000602082015250565b6000617b4b60248361574b565b9150617b5682617aef565b604082019050919050565b60006020820190508181036000830152617b7a81617b3e565b9050919050565b600081519050617b908161597a565b92915050565b600060208284031215617bac57617bab61567b565b5b6000617bba84828501617b81565b91505092915050565b7f45524331393637557067726164653a206e657720696d706c656d656e7461746960008201527f6f6e206973206e6f742055555053000000000000000000000000000000000000602082015250565b6000617c1f602e8361574b565b9150617c2a82617bc3565b604082019050919050565b60006020820190508181036000830152617c4e81617c12565b9050919050565b7f45524331393637557067726164653a20756e737570706f727465642070726f7860008201527f6961626c65555549440000000000000000000000000000000000000000000000602082015250565b6000617cb160298361574b565b9150617cbc82617c55565b604082019050919050565b60006020820190508181036000830152617ce081617ca4565b9050919050565b7f496e697469616c697a61626c653a20636f6e7472616374206973206e6f74206960008201527f6e697469616c697a696e67000000000000000000000000000000000000000000602082015250565b6000617d43602b8361574b565b9150617d4e82617ce7565b604082019050919050565b60006020820190508181036000830152617d7281617d36565b9050919050565b7f455243323938313a20726f79616c7479206665652077696c6c2065786365656460008201527f2073616c65507269636500000000000000000000000000000000000000000000602082015250565b6000617dd5602a8361574b565b9150617de082617d79565b604082019050919050565b60006020820190508181036000830152617e0481617dc8565b9050919050565b7f455243323938313a20696e76616c696420726563656976657200000000000000600082015250565b6000617e4160198361574b565b9150617e4c82617e0b565b602082019050919050565b60006020820190508181036000830152617e7081617e34565b9050919050565b7f4f776e61626c653a2063616c6c6572206973206e6f7420746865206f776e6572600082015250565b6000617ead60208361574b565b9150617eb882617e77565b602082019050919050565b60006020820190508181036000830152617edc81617ea0565b9050919050565b600081519050617ef2816158b1565b92915050565b600060208284031215617f0e57617f0d61567b565b5b6000617f1c84828501617ee3565b91505092915050565b7f4552433732313a20617070726f766520746f2063616c6c657200000000000000600082015250565b6000617f5b60198361574b565b9150617f6682617f25565b602082019050919050565b60006020820190508181036000830152617f8a81617f4e565b9050919050565b7f4552433732313a207472616e7366657220746f206e6f6e20455243373231526560008201527f63656976657220696d706c656d656e7465720000000000000000000000000000602082015250565b6000617fed60328361574b565b9150617ff882617f91565b604082019050919050565b6000602082019050818103600083015261801c81617fe0565b9050919050565b600081905092915050565b7f416363657373436f6e74726f6c3a206163636f756e7420000000000000000000600082015250565b6000618064601783618023565b915061806f8261802e565b601782019050919050565b600061808582615740565b61808f8185618023565b935061809f81856020860161575c565b80840191505092915050565b7f206973206d697373696e6720726f6c6520000000000000000000000000000000600082015250565b60006180e1601183618023565b91506180ec826180ab565b601182019050919050565b600061810282618057565b915061810e828561807a565b9150618119826180d4565b9150618125828461807a565b91508190509392505050565b7f455243313936373a206e657720696d706c656d656e746174696f6e206973206e60008201527f6f74206120636f6e747261637400000000000000000000000000000000000000602082015250565b600061818d602d8361574b565b915061819882618131565b604082019050919050565b600060208201905081810360008301526181bc81618180565b9050919050565b60008190508160005260206000209050919050565b60006020601f8301049050919050565b600082821b905092915050565b6000600883026182257fffffffffffffffffffffffffffffffffffffffffffffffffffffffffffffffff826181e8565b61822f86836181e8565b95508019841693508086168417925050509392505050565b600061826261825d618258846157f2565b616136565b6157f2565b9050919050565b6000819050919050565b61827c83618247565b61829061828882618269565b8484546181f5565b825550505050565b600090565b6182a5618298565b6182b0818484618273565b505050565b5b818110156182d4576182c960008261829d565b6001810190506182b6565b5050565b601f821115618319576182ea816181c3565b6182f3846181d8565b81016020851015618302578190505b61831661830e856181d8565b8301826182b5565b50505b505050565b600082821c905092915050565b600061833c6000198460080261831e565b1980831691505092915050565b6000618355838361832b565b9150826002028217905092915050565b61836e82615740565b67ffffffffffffffff81111561838757618386615c2c565b5b61839182546167ce565b61839c8282856182d8565b600060209050601f8311600181146183cf57600084156183bd578287015190505b6183c78582618349565b86555061842f565b601f1984166183dd866181c3565b60005b82811015618405578489015182556001820191506020850194506020810190506183e0565b86831015618422578489015161841e601f89168261832b565b8355505b6001600288020188555050505b505050505050565b600081519050919050565b600082825260208201905092915050565b600061845e82618437565b6184688185618442565b935061847881856020860161575c565b61848181615786565b840191505092915050565b60006080820190506184a16000830187615887565b6184ae6020830186615887565b6184bb6040830185615a63565b81810360608301526184cd8184618453565b905095945050505050565b6000815190506184e7816156b1565b92915050565b6000602082840312156185035761850261567b565b5b6000618511848285016184d8565b91505092915050565b6000618525826157f2565b915060008203618538576185376169b5565b5b600182039050919050565b7f537472696e67733a20686578206c656e67746820696e73756666696369656e74600082015250565b600061857960208361574b565b915061858482618543565b602082019050919050565b600060208201905081810360008301526185a88161856c565b9050919050565b7f416464726573733a2064656c65676174652063616c6c20746f206e6f6e2d636f60008201527f6e74726163740000000000000000000000000000000000000000000000000000602082015250565b600061860b60268361574b565b9150618616826185af565b604082019050919050565b6000602082019050818103600083015261863a816185fe565b9050919050565b600081905092915050565b600061865782618437565b6186618185618641565b935061867181856020860161575c565b80840191505092915050565b6000618689828461864c565b915081905092915050565b7f4552433732313a206d696e7420746f20746865207a65726f2061646472657373600082015250565b60006186ca60208361574b565b91506186d582618694565b602082019050919050565b600060208201905081810360008301526186f9816186bd565b9050919050565b7f4552433732313a20746f6b656e20616c7265616479206d696e74656400000000600082015250565b6000618736601c8361574b565b915061874182618700565b602082019050919050565b6000602082019050818103600083015261876581618729565b905091905056fe416464726573733a206c6f772d6c6576656c2064656c65676174652063616c6c206661696c6564a264697066735822122015c205aec95127e4d34e4d5215f3112a4465b5a00792fef70ffad8efcd6dee6d64736f6c63430008120033",
  "linkReferences": {
    "contracts/minting/utils/InterfaceFunction.sol": {
      "InterfaceFunction": [
        {
          "length": 20,
          "start": 8792
        },
        {
          "length": 20,
          "start": 11708
        }
      ]
    }
  },
  "deployedLinkReferences": {
    "contracts/minting/utils/InterfaceFunction.sol": {
      "InterfaceFunction": [
        {
          "length": 20,
          "start": 8667
        },
        {
          "length": 20,
          "start": 11583
        }
      ]
    }
  }
}