{
  "_format": "hh-sol-artifact-1",
  "contractName": "ExchangeUpgradeable",
  "sourceName": "contracts/mkp/ExchangeUpgradeable.sol",
  "abi": [
    {
      "anonymous": false,
      "inputs": [
        {
          "indexed": false,
          "internalType": "address[2]",
          "name": "fromTo",
          "type": "address[2]"
        },
        {
          "indexed": false,
          "internalType": "address",
          "name": "nftAddress",
          "type": "address"
        },
        {
          "indexed": false,
          "internalType": "uint256[2]",
          "name": "idAndAmount",
          "type": "uint256[2]"
        }
      ],
      "name": "Claim",
      "type": "event"
    },
    {
      "anonymous": false,
      "inputs": [
        {
          "indexed": false,
          "internalType": "uint8",
          "name": "version",
          "type": "uint8"
        }
      ],
      "name": "Initialized",
      "type": "event"
    },
    {
      "anonymous": false,
      "inputs": [
        {
          "indexed": true,
          "internalType": "bytes32",
          "name": "role",
          "type": "bytes32"
        },
        {
          "indexed": true,
          "internalType": "bytes32",
          "name": "previousAdminRole",
          "type": "bytes32"
        },
        {
          "indexed": true,
          "internalType": "bytes32",
          "name": "newAdminRole",
          "type": "bytes32"
        }
      ],
      "name": "RoleAdminChanged",
      "type": "event"
    },
    {
      "anonymous": false,
      "inputs": [
        {
          "indexed": true,
          "internalType": "bytes32",
          "name": "role",
          "type": "bytes32"
        },
        {
          "indexed": true,
          "internalType": "address",
          "name": "account",
          "type": "address"
        },
        {
          "indexed": true,
          "internalType": "address",
          "name": "sender",
          "type": "address"
        }
      ],
      "name": "RoleGranted",
      "type": "event"
    },
    {
      "anonymous": false,
      "inputs": [
        {
          "indexed": true,
          "internalType": "bytes32",
          "name": "role",
          "type": "bytes32"
        },
        {
          "indexed": true,
          "internalType": "address",
          "name": "account",
          "type": "address"
        },
        {
          "indexed": true,
          "internalType": "address",
          "name": "sender",
          "type": "address"
        }
      ],
      "name": "RoleRevoked",
      "type": "event"
    },
    {
      "anonymous": false,
      "inputs": [
        {
          "indexed": false,
          "internalType": "uint256",
          "name": "orderID",
          "type": "uint256"
        },
        {
          "indexed": false,
          "internalType": "address[2]",
          "name": "fromTo",
          "type": "address[2]"
        },
        {
          "indexed": false,
          "internalType": "address[2]",
          "name": "nftAndToken",
          "type": "address[2]"
        },
        {
          "indexed": false,
          "internalType": "uint256[2]",
          "name": "idAndAmount",
          "type": "uint256[2]"
        },
        {
          "indexed": false,
          "internalType": "address[]",
          "name": "additionalTokenReceivers",
          "type": "address[]"
        },
        {
          "indexed": false,
          "internalType": "uint256[]",
          "name": "allAmounts",
          "type": "uint256[]"
        }
      ],
      "name": "Trade",
      "type": "event"
    },
    {
      "inputs": [],
      "name": "DEFAULT_ADMIN_ROLE",
      "outputs": [
        {
          "internalType": "bytes32",
          "name": "",
          "type": "bytes32"
        }
      ],
      "stateMutability": "view",
      "type": "function"
    },
    {
      "inputs": [],
      "name": "SIGNER_ROLE",
      "outputs": [
        {
          "internalType": "bytes32",
          "name": "",
          "type": "bytes32"
        }
      ],
      "stateMutability": "view",
      "type": "function"
    },
    {
      "inputs": [
        {
          "internalType": "uint256",
          "name": "orderID",
          "type": "uint256"
        },
        {
          "internalType": "address[2]",
          "name": "fromTo",
          "type": "address[2]"
        },
        {
          "internalType": "address",
          "name": "nftAddress",
          "type": "address"
        },
        {
          "internalType": "uint256[2]",
          "name": "idAndAmount",
          "type": "uint256[2]"
        },
        {
          "internalType": "uint256",
          "name": "deadline",
          "type": "uint256"
        },
        {
          "internalType": "bytes",
          "name": "signature",
          "type": "bytes"
        }
      ],
      "name": "claimNFT",
      "outputs": [],
      "stateMutability": "payable",
      "type": "function"
    },
    {
      "inputs": [
        {
          "internalType": "address[2][]",
          "name": "fromTo",
          "type": "address[2][]"
        },
        {
          "internalType": "address[2][]",
          "name": "nftAndToken",
          "type": "address[2][]"
        },
        {
          "internalType": "uint256[2][]",
          "name": "idAndAmount",
          "type": "uint256[2][]"
        },
        {
          "internalType": "address[][]",
          "name": "additionalTokenReceivers",
          "type": "address[][]"
        },
        {
          "internalType": "uint256[][]",
          "name": "allAmounts",
          "type": "uint256[][]"
        }
      ],
      "name": "forceTradeBatch",
      "outputs": [],
      "stateMutability": "nonpayable",
      "type": "function"
    },
    {
      "inputs": [
        {
          "internalType": "bytes32",
          "name": "role",
          "type": "bytes32"
        }
      ],
      "name": "getRoleAdmin",
      "outputs": [
        {
          "internalType": "bytes32",
          "name": "",
          "type": "bytes32"
        }
      ],
      "stateMutability": "view",
      "type": "function"
    },
    {
      "inputs": [
        {
          "internalType": "bytes32",
          "name": "role",
          "type": "bytes32"
        },
        {
          "internalType": "address",
          "name": "account",
          "type": "address"
        }
      ],
      "name": "grantRole",
      "outputs": [],
      "stateMutability": "nonpayable",
      "type": "function"
    },
    {
      "inputs": [
        {
          "internalType": "bytes32",
          "name": "role",
          "type": "bytes32"
        },
        {
          "internalType": "address",
          "name": "account",
          "type": "address"
        }
      ],
      "name": "hasRole",
      "outputs": [
        {
          "internalType": "bool",
          "name": "",
          "type": "bool"
        }
      ],
      "stateMutability": "view",
      "type": "function"
    },
    {
      "inputs": [],
      "name": "initialize",
      "outputs": [],
      "stateMutability": "nonpayable",
      "type": "function"
    },
    {
      "inputs": [
        {
          "internalType": "uint256",
          "name": "",
          "type": "uint256"
        }
      ],
      "name": "orderIDUsed",
      "outputs": [
        {
          "internalType": "bool",
          "name": "",
          "type": "bool"
        }
      ],
      "stateMutability": "view",
      "type": "function"
    },
    {
      "inputs": [
        {
          "internalType": "bytes32",
          "name": "role",
          "type": "bytes32"
        },
        {
          "internalType": "address",
          "name": "account",
          "type": "address"
        }
      ],
      "name": "renounceRole",
      "outputs": [],
      "stateMutability": "nonpayable",
      "type": "function"
    },
    {
      "inputs": [
        {
          "internalType": "bytes32",
          "name": "role",
          "type": "bytes32"
        },
        {
          "internalType": "address",
          "name": "account",
          "type": "address"
        }
      ],
      "name": "revokeRole",
      "outputs": [],
      "stateMutability": "nonpayable",
      "type": "function"
    },
    {
      "inputs": [
        {
          "internalType": "bytes4",
          "name": "interfaceId",
          "type": "bytes4"
        }
      ],
      "name": "supportsInterface",
      "outputs": [
        {
          "internalType": "bool",
          "name": "",
          "type": "bool"
        }
      ],
      "stateMutability": "view",
      "type": "function"
    },
    {
      "inputs": [
        {
          "internalType": "uint256",
          "name": "orderID",
          "type": "uint256"
        },
        {
          "internalType": "address[2]",
          "name": "fromTo",
          "type": "address[2]"
        },
        {
          "internalType": "address[2]",
          "name": "nftAndToken",
          "type": "address[2]"
        },
        {
          "internalType": "uint256[2]",
          "name": "idAndAmount",
          "type": "uint256[2]"
        },
        {
          "internalType": "address[]",
          "name": "additionalTokenReceivers",
          "type": "address[]"
        },
        {
          "internalType": "uint256[]",
          "name": "allAmounts",
          "type": "uint256[]"
        },
        {
          "internalType": "uint256",
          "name": "deadline",
          "type": "uint256"
        },
        {
          "internalType": "bytes",
          "name": "signature",
          "type": "bytes"
        }
      ],
      "name": "trade",
      "outputs": [],
      "stateMutability": "payable",
      "type": "function"
    }
  ],
  "bytecode": "0x608060405234801561001057600080fd5b50613f15806100206000396000f3fe6080604052600436106100c25760003560e01c806389e1dceb1161007f57806399748a081161005957806399748a0814610269578063a1ebf35d14610285578063a217fddf146102b0578063d547741f146102db576100c2565b806389e1dceb146101c65780638e81386c1461020357806391d148541461022c576100c2565b806301ffc9a7146100c757806320a0889b14610104578063248a9ca3146101205780632f2ff15d1461015d57806336568abe146101865780638129fc1c146101af575b600080fd5b3480156100d357600080fd5b506100ee60048036038101906100e991906121f8565b610304565b6040516100fb9190612240565b60405180910390f35b61011e60048036038101906101199190612398565b61037e565b005b34801561012c57600080fd5b506101476004803603810190610142919061247e565b61059b565b60405161015491906124ba565b60405180910390f35b34801561016957600080fd5b50610184600480360381019061017f91906124d5565b6105bb565b005b34801561019257600080fd5b506101ad60048036038101906101a891906124d5565b6105dc565b005b3480156101bb57600080fd5b506101c461065f565b005b3480156101d257600080fd5b506101ed60048036038101906101e89190612515565b6107a9565b6040516101fa9190612240565b60405180910390f35b34801561020f57600080fd5b5061022a6004803603810190610225919061269a565b6107c9565b005b34801561023857600080fd5b50610253600480360381019061024e91906124d5565b61093a565b6040516102609190612240565b60405180910390f35b610283600480360381019061027e9190612863565b6109a5565b005b34801561029157600080fd5b5061029a610bdc565b6040516102a791906124ba565b60405180910390f35b3480156102bc57600080fd5b506102c5610c00565b6040516102d291906124ba565b60405180910390f35b3480156102e757600080fd5b5061030260048036038101906102fd91906124d5565b610c07565b005b60007f7965db0b000000000000000000000000000000000000000000000000000000007bffffffffffffffffffffffffffffffffffffffffffffffffffffffff1916827bffffffffffffffffffffffffffffffffffffffffffffffffffffffff19161480610377575061037682610c28565b5b9050919050565b610386610c92565b6104357fe2f4eaae4a9751e85a3e4a7b9587827a877f29914755229b07a7b2da98285f706104306103e6468b8b8b8b8b6040516020016103cb96959493929190612aca565b60405160208183030381529060405280519060200120610ce1565b85858080601f016020809104026020016040519081016040528093929190818152602001838380828437600081840152601f19601f82011690508083019250505050505050610d11565b61093a565b610474576040517f08c379a000000000000000000000000000000000000000000000000000000000815260040161046b90612b97565b60405180910390fd5b428310156104b7576040517f08c379a00000000000000000000000000000000000000000000000000000000081526004016104ae90612c03565b60405180910390fd5b60c9600088815260200190815260200160002060009054906101000a900460ff1615610518576040517f08c379a000000000000000000000000000000000000000000000000000000000815260040161050f90612c6f565b60405180910390fd5b600160c9600089815260200190815260200160002060006101000a81548160ff02191690831515021790555061054f868686610d38565b7f5bb36e33068ddc9c3bf36cef1ca898bb9ad7524e2e1532573c156c5bb4b3e14d86868660405161058293929190612d3f565b60405180910390a1610592610fbe565b50505050505050565b600060656000838152602001908152602001600020600101549050919050565b6105c48261059b565b6105cd81610fc8565b6105d78383610fdc565b505050565b6105e46110bd565b73ffffffffffffffffffffffffffffffffffffffff168173ffffffffffffffffffffffffffffffffffffffff1614610651576040517f08c379a000000000000000000000000000000000000000000000000000000000815260040161064890612de8565b60405180910390fd5b61065b82826110c5565b5050565b60008060019054906101000a900460ff161590508080156106905750600160008054906101000a900460ff1660ff16105b806106bd575061069f306111a7565b1580156106bc5750600160008054906101000a900460ff1660ff16145b5b6106fc576040517f08c379a00000000000000000000000000000000000000000000000000000000081526004016106f390612e7a565b60405180910390fd5b60016000806101000a81548160ff021916908360ff1602179055508015610739576001600060016101000a81548160ff0219169083151502179055505b61074d6000801b6107486110bd565b6111ca565b80156107a65760008060016101000a81548160ff0219169083151502179055507f7f26b83ff96e1f2b6a682f133852f6798a09c465da95921460cefb3847402498600160405161079d9190612eec565b60405180910390a15b50565b60c96020528060005260406000206000915054906101000a900460ff1681565b7fe2f4eaae4a9751e85a3e4a7b9587827a877f29914755229b07a7b2da98285f706107f381610fc8565b888890508b8b905014801561080d5750868690508b8b9050145b801561081e5750848490508b8b9050145b801561082f5750828290508b8b9050145b61086e576040517f08c379a000000000000000000000000000000000000000000000000000000000815260040161086590612f53565b60405180910390fd5b60005b8b8b905081101561092c576109198c8c8381811061089257610891612f73565b5b9050604002018b8b848181106108ab576108aa612f73565b5b9050604002018a8a858181106108c4576108c3612f73565b5b9050604002018989868181106108dd576108dc612f73565b5b90506020028101906108ef9190612fb1565b89898881811061090257610901612f73565b5b90506020028101906109149190613014565b6111d8565b8080610924906130a6565b915050610871565b505050505050505050505050565b60006065600084815260200190815260200160002060000160008373ffffffffffffffffffffffffffffffffffffffff1673ffffffffffffffffffffffffffffffffffffffff16815260200190815260200160002060009054906101000a900460ff16905092915050565b6109ad610c92565b610a647fe2f4eaae4a9751e85a3e4a7b9587827a877f29914755229b07a7b2da98285f70610a5f610a15468f8f8f8f8f8f8f8f8f6040516020016109fa9a999897969594939291906131d9565b60405160208183030381529060405280519060200120610ce1565b85858080601f016020809104026020016040519081016040528093929190818152602001838380828437600081840152601f19601f82011690508083019250505050505050610d11565b61093a565b610aa3576040517f08c379a0000000000000000000000000000000000000000000000000000000008152600401610a9a90612b97565b60405180910390fd5b42831015610ae6576040517f08c379a0000000000000000000000000000000000000000000000000000000008152600401610add90612c03565b60405180910390fd5b60c960008c815260200190815260200160002060009054906101000a900460ff1615610b47576040517f08c379a0000000000000000000000000000000000000000000000000000000008152600401610b3e90612c6f565b60405180910390fd5b600160c960008d815260200190815260200160002060006101000a81548160ff021916908315150217905550610b828a8a8a8a8a8a8a6111d8565b7f8aa712bdfae8a5e4c7a931f7c3d5183e3ba99fd97d37d72b5ce1bdc47244c0938b8b8b8b8b8b8b8b604051610bbf989796959493929190613351565b60405180910390a1610bcf610fbe565b5050505050505050505050565b7fe2f4eaae4a9751e85a3e4a7b9587827a877f29914755229b07a7b2da98285f7081565b6000801b81565b610c108261059b565b610c1981610fc8565b610c2383836110c5565b505050565b60007f01ffc9a7000000000000000000000000000000000000000000000000000000007bffffffffffffffffffffffffffffffffffffffffffffffffffffffff1916827bffffffffffffffffffffffffffffffffffffffffffffffffffffffff1916149050919050565b600260975403610cd7576040517f08c379a0000000000000000000000000000000000000000000000000000000008152600401610cce90613412565b60405180910390fd5b6002609781905550565b600081604051602001610cf491906134aa565b604051602081830303815290604052805190602001209050919050565b6000806000610d2085856118bf565b91509150610d2d81611910565b819250505092915050565b82600160028110610d4c57610d4b612f73565b5b602002016020810190610d5f91906134d0565b73ffffffffffffffffffffffffffffffffffffffff16610d7d6110bd565b73ffffffffffffffffffffffffffffffffffffffff1614610dd3576040517f08c379a0000000000000000000000000000000000000000000000000000000008152600401610dca90613549565b60405180910390fd5b600081600160028110610de957610de8612f73565b5b602002013503610ecb578173ffffffffffffffffffffffffffffffffffffffff166342842e0e84600060028110610e2357610e22612f73565b5b602002016020810190610e3691906134d0565b85600160028110610e4a57610e49612f73565b5b602002016020810190610e5d91906134d0565b84600060028110610e7157610e70612f73565b5b60200201356040518463ffffffff1660e01b8152600401610e9493929190613569565b600060405180830381600087803b158015610eae57600080fd5b505af1158015610ec2573d6000803e3d6000fd5b50505050610fb9565b8173ffffffffffffffffffffffffffffffffffffffff1663f242432a84600060028110610efb57610efa612f73565b5b602002016020810190610f0e91906134d0565b85600160028110610f2257610f21612f73565b5b602002016020810190610f3591906134d0565b84600060028110610f4957610f48612f73565b5b602002013585600160028110610f6257610f61612f73565b5b60200201356040518563ffffffff1660e01b8152600401610f8694939291906135d7565b600060405180830381600087803b158015610fa057600080fd5b505af1158015610fb4573d6000803e3d6000fd5b505050505b505050565b6001609781905550565b610fd981610fd46110bd565b611a76565b50565b610fe6828261093a565b6110b95760016065600084815260200190815260200160002060000160008373ffffffffffffffffffffffffffffffffffffffff1673ffffffffffffffffffffffffffffffffffffffff16815260200190815260200160002060006101000a81548160ff02191690831515021790555061105e6110bd565b73ffffffffffffffffffffffffffffffffffffffff168173ffffffffffffffffffffffffffffffffffffffff16837f2f8788117e7eff1d82e926ec794901d17c78024a50270940304540a733656f0d60405160405180910390a45b5050565b600033905090565b6110cf828261093a565b156111a35760006065600084815260200190815260200160002060000160008373ffffffffffffffffffffffffffffffffffffffff1673ffffffffffffffffffffffffffffffffffffffff16815260200190815260200160002060006101000a81548160ff0219169083151502179055506111486110bd565b73ffffffffffffffffffffffffffffffffffffffff168173ffffffffffffffffffffffffffffffffffffffff16837ff6391f5c32d9c69d2a47ea670b442974b53935d1edc7fd64eb21e047a839171b60405160405180910390a45b5050565b6000808273ffffffffffffffffffffffffffffffffffffffff163b119050919050565b6111d48282610fdc565b5050565b6001828290506111e8919061362f565b848490501461122c576040517f08c379a0000000000000000000000000000000000000000000000000000000008152600401611223906136af565b60405180910390fd5b866001600281106112405761123f612f73565b5b60200201602081019061125391906134d0565b73ffffffffffffffffffffffffffffffffffffffff166112716110bd565b73ffffffffffffffffffffffffffffffffffffffff16146112c7576040517f08c379a00000000000000000000000000000000000000000000000000000000081526004016112be90613549565b60405180910390fd5b73eeeeeeeeeeeeeeeeeeeeeeeeeeeeeeeeeeeeeeee73ffffffffffffffffffffffffffffffffffffffff168660016002811061130657611305612f73565b5b60200201602081019061131991906134d0565b73ffffffffffffffffffffffffffffffffffffffff16036114c05761133e8282611afb565b341461137f576040517f08c379a00000000000000000000000000000000000000000000000000000000081526004016113769061371b565b60405180910390fd5b8660006002811061139357611392612f73565b5b6020020160208101906113a691906134d0565b73ffffffffffffffffffffffffffffffffffffffff166108fc838360008181106113d3576113d2612f73565b5b905060200201359081150290604051600060405180830381858888f19350505050158015611405573d6000803e3d6000fd5b5060005b848490508110156114ba5784848281811061142757611426612f73565b5b905060200201602081019061143c91906134d0565b73ffffffffffffffffffffffffffffffffffffffff166108fc8484600185611464919061373b565b81811061147457611473612f73565b5b905060200201359081150290604051600060405180830381858888f193505050501580156114a6573d6000803e3d6000fd5b5080806114b2906130a6565b915050611409565b50611684565b60003414611503576040517f08c379a00000000000000000000000000000000000000000000000000000000081526004016114fa906137e1565b60405180910390fd5b60008660016002811061151957611518612f73565b5b60200201602081019061152c91906134d0565b90506115c18860016002811061154557611544612f73565b5b60200201602081019061155891906134d0565b8960006002811061156c5761156b612f73565b5b60200201602081019061157f91906134d0565b8585600081811061159357611592612f73565b5b905060200201358473ffffffffffffffffffffffffffffffffffffffff16611b51909392919063ffffffff16565b60005b858590508110156116815761166e896001600281106115e6576115e5612f73565b5b6020020160208101906115f991906134d0565b87878481811061160c5761160b612f73565b5b905060200201602081019061162191906134d0565b8686600186611630919061373b565b8181106116405761163f612f73565b5b905060200201358573ffffffffffffffffffffffffffffffffffffffff16611b51909392919063ffffffff16565b8080611679906130a6565b9150506115c4565b50505b60008560016002811061169a57611699612f73565b5b6020020135036117a257856000600281106116b8576116b7612f73565b5b6020020160208101906116cb91906134d0565b73ffffffffffffffffffffffffffffffffffffffff166342842e0e886000600281106116fa576116f9612f73565b5b60200201602081019061170d91906134d0565b8960016002811061172157611720612f73565b5b60200201602081019061173491906134d0565b8860006002811061174857611747612f73565b5b60200201356040518463ffffffff1660e01b815260040161176b93929190613569565b600060405180830381600087803b15801561178557600080fd5b505af1158015611799573d6000803e3d6000fd5b505050506118b6565b856000600281106117b6576117b5612f73565b5b6020020160208101906117c991906134d0565b73ffffffffffffffffffffffffffffffffffffffff1663f242432a886000600281106117f8576117f7612f73565b5b60200201602081019061180b91906134d0565b8960016002811061181f5761181e612f73565b5b60200201602081019061183291906134d0565b8860006002811061184657611845612f73565b5b60200201358960016002811061185f5761185e612f73565b5b60200201356040518563ffffffff1660e01b815260040161188394939291906135d7565b600060405180830381600087803b15801561189d57600080fd5b505af11580156118b1573d6000803e3d6000fd5b505050505b50505050505050565b60008060418351036119005760008060006020860151925060408601519150606086015160001a90506118f487828585611bda565b94509450505050611909565b60006002915091505b9250929050565b6000600481111561192457611923613801565b5b81600481111561193757611936613801565b5b0315611a73576001600481111561195157611950613801565b5b81600481111561196457611963613801565b5b036119a4576040517f08c379a000000000000000000000000000000000000000000000000000000000815260040161199b9061387c565b60405180910390fd5b600260048111156119b8576119b7613801565b5b8160048111156119cb576119ca613801565b5b03611a0b576040517f08c379a0000000000000000000000000000000000000000000000000000000008152600401611a02906138e8565b60405180910390fd5b60036004811115611a1f57611a1e613801565b5b816004811115611a3257611a31613801565b5b03611a72576040517f08c379a0000000000000000000000000000000000000000000000000000000008152600401611a699061397a565b60405180910390fd5b5b50565b611a80828261093a565b611af757611a8d81611cbc565b611a9b8360001c6020611ce9565b604051602001611aac929190613a98565b6040516020818303038152906040526040517f08c379a0000000000000000000000000000000000000000000000000000000008152600401611aee9190613b1c565b60405180910390fd5b5050565b60008060005b84849050811015611b4657848482818110611b1f57611b1e612f73565b5b9050602002013582611b31919061373b565b91508080611b3e906130a6565b915050611b01565b508091505092915050565b611bd4846323b872dd60e01b858585604051602401611b7293929190613569565b604051602081830303815290604052907bffffffffffffffffffffffffffffffffffffffffffffffffffffffff19166020820180517bffffffffffffffffffffffffffffffffffffffffffffffffffffffff8381831617835250505050611f25565b50505050565b6000807f7fffffffffffffffffffffffffffffff5d576e7357a4501ddfe92f46681b20a08360001c1115611c15576000600391509150611cb3565b600060018787878760405160008152602001604052604051611c3a9493929190613b4d565b6020604051602081039080840390855afa158015611c5c573d6000803e3d6000fd5b505050602060405103519050600073ffffffffffffffffffffffffffffffffffffffff168173ffffffffffffffffffffffffffffffffffffffff1603611caa57600060019250925050611cb3565b80600092509250505b94509492505050565b6060611ce28273ffffffffffffffffffffffffffffffffffffffff16601460ff16611ce9565b9050919050565b606060006002836002611cfc9190613b92565b611d06919061373b565b67ffffffffffffffff811115611d1f57611d1e613bd4565b5b6040519080825280601f01601f191660200182016040528015611d515781602001600182028036833780820191505090505b5090507f300000000000000000000000000000000000000000000000000000000000000081600081518110611d8957611d88612f73565b5b60200101907effffffffffffffffffffffffffffffffffffffffffffffffffffffffffffff1916908160001a9053507f780000000000000000000000000000000000000000000000000000000000000081600181518110611ded57611dec612f73565b5b60200101907effffffffffffffffffffffffffffffffffffffffffffffffffffffffffffff1916908160001a90535060006001846002611e2d9190613b92565b611e37919061373b565b90505b6001811115611ed7577f3031323334353637383961626364656600000000000000000000000000000000600f861660108110611e7957611e78612f73565b5b1a60f81b828281518110611e9057611e8f612f73565b5b60200101907effffffffffffffffffffffffffffffffffffffffffffffffffffffffffffff1916908160001a905350600485901c945080611ed090613c03565b9050611e3a565b5060008414611f1b576040517f08c379a0000000000000000000000000000000000000000000000000000000008152600401611f1290613c78565b60405180910390fd5b8091505092915050565b6000611f87826040518060400160405280602081526020017f5361666545524332303a206c6f772d6c6576656c2063616c6c206661696c65648152508573ffffffffffffffffffffffffffffffffffffffff16611fec9092919063ffffffff16565b9050600081511115611fe75780806020019051810190611fa79190613cc4565b611fe6576040517f08c379a0000000000000000000000000000000000000000000000000000000008152600401611fdd90613d63565b60405180910390fd5b5b505050565b6060611ffb8484600085612004565b90509392505050565b606082471015612049576040517f08c379a000000000000000000000000000000000000000000000000000000000815260040161204090613df5565b60405180910390fd5b6000808673ffffffffffffffffffffffffffffffffffffffff1685876040516120729190613e5c565b60006040518083038185875af1925050503d80600081146120af576040519150601f19603f3d011682016040523d82523d6000602084013e6120b4565b606091505b50915091506120c5878383876120d1565b92505050949350505050565b6060831561213357600083510361212b576120eb856111a7565b61212a576040517f08c379a000000000000000000000000000000000000000000000000000000000815260040161212190613ebf565b60405180910390fd5b5b82905061213e565b61213d8383612146565b5b949350505050565b6000825111156121595781518083602001fd5b806040517f08c379a000000000000000000000000000000000000000000000000000000000815260040161218d9190613b1c565b60405180910390fd5b600080fd5b600080fd5b60007fffffffff0000000000000000000000000000000000000000000000000000000082169050919050565b6121d5816121a0565b81146121e057600080fd5b50565b6000813590506121f2816121cc565b92915050565b60006020828403121561220e5761220d612196565b5b600061221c848285016121e3565b91505092915050565b60008115159050919050565b61223a81612225565b82525050565b60006020820190506122556000830184612231565b92915050565b6000819050919050565b61226e8161225b565b811461227957600080fd5b50565b60008135905061228b81612265565b92915050565b600080fd5b6000819050826020600202820111156122b2576122b1612291565b5b92915050565b600073ffffffffffffffffffffffffffffffffffffffff82169050919050565b60006122e3826122b8565b9050919050565b6122f3816122d8565b81146122fe57600080fd5b50565b600081359050612310816122ea565b92915050565b60008190508260206002028201111561233257612331612291565b5b92915050565b600080fd5b600080fd5b60008083601f84011261235857612357612338565b5b8235905067ffffffffffffffff8111156123755761237461233d565b5b60208301915083600182028301111561239157612390612291565b5b9250929050565b6000806000806000806000610100888a0312156123b8576123b7612196565b5b60006123c68a828b0161227c565b97505060206123d78a828b01612296565b96505060606123e88a828b01612301565b95505060806123f98a828b01612316565b94505060c061240a8a828b0161227c565b93505060e088013567ffffffffffffffff81111561242b5761242a61219b565b5b6124378a828b01612342565b925092505092959891949750929550565b6000819050919050565b61245b81612448565b811461246657600080fd5b50565b60008135905061247881612452565b92915050565b60006020828403121561249457612493612196565b5b60006124a284828501612469565b91505092915050565b6124b481612448565b82525050565b60006020820190506124cf60008301846124ab565b92915050565b600080604083850312156124ec576124eb612196565b5b60006124fa85828601612469565b925050602061250b85828601612301565b9150509250929050565b60006020828403121561252b5761252a612196565b5b60006125398482850161227c565b91505092915050565b60008083601f84011261255857612557612338565b5b8235905067ffffffffffffffff8111156125755761257461233d565b5b60208301915083604082028301111561259157612590612291565b5b9250929050565b60008083601f8401126125ae576125ad612338565b5b8235905067ffffffffffffffff8111156125cb576125ca61233d565b5b6020830191508360408202830111156125e7576125e6612291565b5b9250929050565b60008083601f84011261260457612603612338565b5b8235905067ffffffffffffffff8111156126215761262061233d565b5b60208301915083602082028301111561263d5761263c612291565b5b9250929050565b60008083601f84011261265a57612659612338565b5b8235905067ffffffffffffffff8111156126775761267661233d565b5b60208301915083602082028301111561269357612692612291565b5b9250929050565b60008060008060008060008060008060a08b8d0312156126bd576126bc612196565b5b60008b013567ffffffffffffffff8111156126db576126da61219b565b5b6126e78d828e01612542565b9a509a505060208b013567ffffffffffffffff81111561270a5761270961219b565b5b6127168d828e01612542565b985098505060408b013567ffffffffffffffff8111156127395761273861219b565b5b6127458d828e01612598565b965096505060608b013567ffffffffffffffff8111156127685761276761219b565b5b6127748d828e016125ee565b945094505060808b013567ffffffffffffffff8111156127975761279661219b565b5b6127a38d828e01612644565b92509250509295989b9194979a5092959850565b60008083601f8401126127cd576127cc612338565b5b8235905067ffffffffffffffff8111156127ea576127e961233d565b5b60208301915083602082028301111561280657612805612291565b5b9250929050565b60008083601f84011261282357612822612338565b5b8235905067ffffffffffffffff8111156128405761283f61233d565b5b60208301915083602082028301111561285c5761285b612291565b5b9250929050565b60008060008060008060008060008060006101608c8e03121561288957612888612196565b5b60006128978e828f0161227c565b9b505060206128a88e828f01612296565b9a505060606128b98e828f01612296565b99505060a06128ca8e828f01612316565b98505060e08c013567ffffffffffffffff8111156128eb576128ea61219b565b5b6128f78e828f016127b7565b97509750506101008c013567ffffffffffffffff81111561291b5761291a61219b565b5b6129278e828f0161280d565b955095505061012061293b8e828f0161227c565b9350506101408c013567ffffffffffffffff81111561295d5761295c61219b565b5b6129698e828f01612342565b92509250509295989b509295989b9093969950565b6000819050919050565b6129996129948261225b565b61297e565b82525050565b600060029050919050565b600081905092915050565b6000819050919050565b6129c8816122d8565b82525050565b60006129da83836129bf565b60208301905092915050565b60006129f56020840184612301565b905092915050565b6000602082019050919050565b612a138161299f565b612a1d81846129aa565b9250612a28826129b5565b8060005b83811015612a6157612a3e82846129e6565b612a4887826129ce565b9650612a53836129fd565b925050600181019050612a2c565b505050505050565b60008160601b9050919050565b6000612a8182612a69565b9050919050565b6000612a9382612a76565b9050919050565b612aab612aa6826122d8565b612a88565b82525050565b82818337505050565b612ac660408383612ab1565b5050565b6000612ad68289612988565b602082019150612ae68288612988565b602082019150612af68287612a0a565b604082019150612b068286612a9a565b601482019150612b168285612aba565b604082019150612b268284612988565b602082019150819050979650505050505050565b600082825260208201905092915050565b7f496e76616c6964207369676e6174757265000000000000000000000000000000600082015250565b6000612b81601183612b3a565b9150612b8c82612b4b565b602082019050919050565b60006020820190508181036000830152612bb081612b74565b9050919050565b7f446561646c696e65207061737365640000000000000000000000000000000000600082015250565b6000612bed600f83612b3a565b9150612bf882612bb7565b602082019050919050565b60006020820190508181036000830152612c1c81612be0565b9050919050565b7f4f7264657220494420616c726561647920757365640000000000000000000000600082015250565b6000612c59601583612b3a565b9150612c6482612c23565b602082019050919050565b60006020820190508181036000830152612c8881612c4c565b9050919050565b600081905092915050565b612ca3816122d8565b82525050565b6000612cb58383612c9a565b60208301905092915050565b612cca8161299f565b612cd48184612c8f565b9250612cdf826129b5565b8060005b83811015612d1857612cf582846129e6565b612cff8782612ca9565b9650612d0a836129fd565b925050600181019050612ce3565b505050505050565b612d29816122d8565b82525050565b612d3b60408383612ab1565b5050565b600060a082019050612d546000830186612cc1565b612d616040830185612d20565b612d6e6060830184612d2f565b949350505050565b7f416363657373436f6e74726f6c3a2063616e206f6e6c792072656e6f756e636560008201527f20726f6c657320666f722073656c660000000000000000000000000000000000602082015250565b6000612dd2602f83612b3a565b9150612ddd82612d76565b604082019050919050565b60006020820190508181036000830152612e0181612dc5565b9050919050565b7f496e697469616c697a61626c653a20636f6e747261637420697320616c72656160008201527f647920696e697469616c697a6564000000000000000000000000000000000000602082015250565b6000612e64602e83612b3a565b9150612e6f82612e08565b604082019050919050565b60006020820190508181036000830152612e9381612e57565b9050919050565b6000819050919050565b600060ff82169050919050565b6000819050919050565b6000612ed6612ed1612ecc84612e9a565b612eb1565b612ea4565b9050919050565b612ee681612ebb565b82525050565b6000602082019050612f016000830184612edd565b92915050565b7f4e6f6e2d6d61746368696e67206c656e67746800000000000000000000000000600082015250565b6000612f3d601383612b3a565b9150612f4882612f07565b602082019050919050565b60006020820190508181036000830152612f6c81612f30565b9050919050565b7f4e487b7100000000000000000000000000000000000000000000000000000000600052603260045260246000fd5b600080fd5b600080fd5b600080fd5b60008083356001602003843603038112612fce57612fcd612fa2565b5b80840192508235915067ffffffffffffffff821115612ff057612fef612fa7565b5b60208301925060208202360383131561300c5761300b612fac565b5b509250929050565b6000808335600160200384360303811261303157613030612fa2565b5b80840192508235915067ffffffffffffffff82111561305357613052612fa7565b5b60208301925060208202360383131561306f5761306e612fac565b5b509250929050565b7f4e487b7100000000000000000000000000000000000000000000000000000000600052601160045260246000fd5b60006130b18261225b565b91507fffffffffffffffffffffffffffffffffffffffffffffffffffffffffffffffff82036130e3576130e2613077565b5b600182019050919050565b600081905092915050565b6000819050919050565b6000602082019050919050565b600061311c83856130ee565b9350613127826130f9565b8060005b858110156131605761313d82846129e6565b61314788826129ce565b975061315283613103565b92505060018101905061312b565b5085925050509392505050565b600081905092915050565b600080fd5b6000613189838561316d565b93507f07ffffffffffffffffffffffffffffffffffffffffffffffffffffffffffffff8311156131bc576131bb613178565b5b6020830292506131cd838584612ab1565b82840190509392505050565b60006131e5828d612988565b6020820191506131f5828c612988565b602082019150613205828b612a0a565b604082019150613215828a612a0a565b6040820191506132258289612aba565b604082019150613236828789613110565b915061324382858761317d565b915061324f8284612988565b6020820191508190509b9a5050505050505050505050565b6132708161225b565b82525050565b600082825260208201905092915050565b60006132938385613276565b935061329e826130f9565b8060005b858110156132d7576132b482846129e6565b6132be8882612ca9565b97506132c983613103565b9250506001810190506132a2565b5085925050509392505050565b600082825260208201905092915050565b600061330183856132e4565b93507f07ffffffffffffffffffffffffffffffffffffffffffffffffffffffffffffff83111561333457613333613178565b5b602083029250613345838584612ab1565b82840190509392505050565b600061012082019050613367600083018b613267565b613374602083018a612cc1565b6133816060830189612cc1565b61338e60a0830188612d2f565b81810360e08301526133a1818688613287565b90508181036101008301526133b78184866132f5565b90509998505050505050505050565b7f5265656e7472616e637947756172643a207265656e7472616e742063616c6c00600082015250565b60006133fc601f83612b3a565b9150613407826133c6565b602082019050919050565b6000602082019050818103600083015261342b816133ef565b9050919050565b600081905092915050565b7f19457468657265756d205369676e6564204d6573736167653a0a333200000000600082015250565b6000613473601c83613432565b915061347e8261343d565b601c82019050919050565b6000819050919050565b6134a461349f82612448565b613489565b82525050565b60006134b582613466565b91506134c18284613493565b60208201915081905092915050565b6000602082840312156134e6576134e5612196565b5b60006134f484828501612301565b91505092915050565b7f57726f6e672073656e6465720000000000000000000000000000000000000000600082015250565b6000613533600c83612b3a565b915061353e826134fd565b602082019050919050565b6000602082019050818103600083015261356281613526565b9050919050565b600060608201905061357e6000830186612d20565b61358b6020830185612d20565b6135986040830184613267565b949350505050565b600082825260208201905092915050565b50565b60006135c16000836135a0565b91506135cc826135b1565b600082019050919050565b600060a0820190506135ec6000830187612d20565b6135f96020830186612d20565b6136066040830185613267565b6136136060830184613267565b8181036080830152613624816135b4565b905095945050505050565b600061363a8261225b565b91506136458361225b565b925082820390508181111561365d5761365c613077565b5b92915050565b7f496e76616c6964206c656e677468000000000000000000000000000000000000600082015250565b6000613699600e83612b3a565b91506136a482613663565b602082019050919050565b600060208201905081810360008301526136c88161368c565b9050919050565b7f57726f6e67207061796d656e7420616d6f756e74000000000000000000000000600082015250565b6000613705601483612b3a565b9150613710826136cf565b602082019050919050565b60006020820190508181036000830152613734816136f8565b9050919050565b60006137468261225b565b91506137518361225b565b925082820190508082111561376957613768613077565b5b92915050565b7f43616e6e6f742073656e64206e61746976652063757272656e6379207768696c60008201527f6520706179696e67207769746820746f6b656e00000000000000000000000000602082015250565b60006137cb603383612b3a565b91506137d68261376f565b604082019050919050565b600060208201905081810360008301526137fa816137be565b9050919050565b7f4e487b7100000000000000000000000000000000000000000000000000000000600052602160045260246000fd5b7f45434453413a20696e76616c6964207369676e61747572650000000000000000600082015250565b6000613866601883612b3a565b915061387182613830565b602082019050919050565b6000602082019050818103600083015261389581613859565b9050919050565b7f45434453413a20696e76616c6964207369676e6174757265206c656e67746800600082015250565b60006138d2601f83612b3a565b91506138dd8261389c565b602082019050919050565b60006020820190508181036000830152613901816138c5565b9050919050565b7f45434453413a20696e76616c6964207369676e6174757265202773272076616c60008201527f7565000000000000000000000000000000000000000000000000000000000000602082015250565b6000613964602283612b3a565b915061396f82613908565b604082019050919050565b6000602082019050818103600083015261399381613957565b9050919050565b7f416363657373436f6e74726f6c3a206163636f756e7420000000000000000000600082015250565b60006139d0601783613432565b91506139db8261399a565b601782019050919050565b600081519050919050565b60005b83811015613a0f5780820151818401526020810190506139f4565b60008484015250505050565b6000613a26826139e6565b613a308185613432565b9350613a408185602086016139f1565b80840191505092915050565b7f206973206d697373696e6720726f6c6520000000000000000000000000000000600082015250565b6000613a82601183613432565b9150613a8d82613a4c565b601182019050919050565b6000613aa3826139c3565b9150613aaf8285613a1b565b9150613aba82613a75565b9150613ac68284613a1b565b91508190509392505050565b6000601f19601f8301169050919050565b6000613aee826139e6565b613af88185612b3a565b9350613b088185602086016139f1565b613b1181613ad2565b840191505092915050565b60006020820190508181036000830152613b368184613ae3565b905092915050565b613b4781612ea4565b82525050565b6000608082019050613b6260008301876124ab565b613b6f6020830186613b3e565b613b7c60408301856124ab565b613b8960608301846124ab565b95945050505050565b6000613b9d8261225b565b9150613ba88361225b565b9250828202613bb68161225b565b91508282048414831517613bcd57613bcc613077565b5b5092915050565b7f4e487b7100000000000000000000000000000000000000000000000000000000600052604160045260246000fd5b6000613c0e8261225b565b915060008203613c2157613c20613077565b5b600182039050919050565b7f537472696e67733a20686578206c656e67746820696e73756666696369656e74600082015250565b6000613c62602083612b3a565b9150613c6d82613c2c565b602082019050919050565b60006020820190508181036000830152613c9181613c55565b9050919050565b613ca181612225565b8114613cac57600080fd5b50565b600081519050613cbe81613c98565b92915050565b600060208284031215613cda57613cd9612196565b5b6000613ce884828501613caf565b91505092915050565b7f5361666545524332303a204552433230206f7065726174696f6e20646964206e60008201527f6f74207375636365656400000000000000000000000000000000000000000000602082015250565b6000613d4d602a83612b3a565b9150613d5882613cf1565b604082019050919050565b60006020820190508181036000830152613d7c81613d40565b9050919050565b7f416464726573733a20696e73756666696369656e742062616c616e636520666f60008201527f722063616c6c0000000000000000000000000000000000000000000000000000602082015250565b6000613ddf602683612b3a565b9150613dea82613d83565b604082019050919050565b60006020820190508181036000830152613e0e81613dd2565b9050919050565b600081519050919050565b600081905092915050565b6000613e3682613e15565b613e408185613e20565b9350613e508185602086016139f1565b80840191505092915050565b6000613e688284613e2b565b915081905092915050565b7f416464726573733a2063616c6c20746f206e6f6e2d636f6e7472616374000000600082015250565b6000613ea9601d83612b3a565b9150613eb482613e73565b602082019050919050565b60006020820190508181036000830152613ed881613e9c565b905091905056fea264697066735822122074919c6153d47805cc523d7100b0fb38590ab278b375c5b6fcf54f2363a74aa764736f6c63430008120033",
  "linkReferences": {},
  "deployedLinkReferences": {}
}