{
	"data": {
		"bytecode": {
			"linkReferences": {
				"contracts/minting/utils/InterfaceFunction.sol": {
					"InterfaceFunction": [
						{
							"length": 20,
							"start": 23621
						},
						{
							"length": 20,
							"start": 26537
						},
						{
							"length": 20,
							"start": 58558
						},
						{
							"length": 20,
							"start": 62417
						},
						{
							"length": 20,
							"start": 91596
						},
						{
							"length": 20,
							"start": 93823
						}
					]
				}
			},
			"object": "60806040523480156200001157600080fd5b506040516201b5103803806201b51083398181016040528101906200003791906200042b565b80600c60006101000a81548173ffffffffffffffffffffffffffffffffffffffff021916908373ffffffffffffffffffffffffffffffffffffffff160217905550604051620000869062000383565b604051809103906000f080158015620000a3573d6000803e3d6000fd5b50600460006101000a81548173ffffffffffffffffffffffffffffffffffffffff021916908373ffffffffffffffffffffffffffffffffffffffff160217905550604051620000f29062000391565b604051809103906000f0801580156200010f573d6000803e3d6000fd5b50600560006101000a81548173ffffffffffffffffffffffffffffffffffffffff021916908373ffffffffffffffffffffffffffffffffffffffff1602179055506040516200015e906200039f565b604051809103906000f0801580156200017b573d6000803e3d6000fd5b50600a60006101000a81548173ffffffffffffffffffffffffffffffffffffffff021916908373ffffffffffffffffffffffffffffffffffffffff160217905550620001ee7fa49807205ce4d355092ef5a8a18f56e8913cf4a201fbe287825b095693c21775336200020a60201b60201c565b620002036000801b336200020a60201b60201c565b506200045d565b6200021c82826200022060201b60201c565b5050565b6200023282826200031160201b60201c565b6200030d57600160008084815260200190815260200160002060000160008373ffffffffffffffffffffffffffffffffffffffff1673ffffffffffffffffffffffffffffffffffffffff16815260200190815260200160002060006101000a81548160ff021916908315150217905550620002b26200037b60201b60201c565b73ffffffffffffffffffffffffffffffffffffffff168173ffffffffffffffffffffffffffffffffffffffff16837f2f8788117e7eff1d82e926ec794901d17c78024a50270940304540a733656f0d60405160405180910390a45b5050565b600080600084815260200190815260200160002060000160008373ffffffffffffffffffffffffffffffffffffffff1673ffffffffffffffffffffffffffffffffffffffff16815260200190815260200160002060009054906101000a900460ff16905092915050565b600033905090565b61884680620039ed83390190565b618f60806200c23383390190565b61637d806201519383390190565b600080fd5b600073ffffffffffffffffffffffffffffffffffffffff82169050919050565b6000620003df82620003b2565b9050919050565b6000620003f382620003d2565b9050919050565b6200040581620003e6565b81146200041157600080fd5b50565b6000815190506200042581620003fa565b92915050565b600060208284031215620004445762000443620003ad565b5b6000620004548482850162000414565b91505092915050565b613580806200046d6000396000f3fe608060405234801561001057600080fd5b50600436106101da5760003560e01c806375b238fc11610104578063a54cd2f6116100a2578063c49bf93211610071578063c49bf93214610581578063d547741f1461059d578063e4ae24a8146105b9578063f557c560146105d7576101da565b8063a54cd2f6146104e5578063ac4807ff14610503578063aedc2ddc14610521578063bbb2415614610551576101da565b80639ee984ba116100de5780639ee984ba1461046d578063a217fddf1461048b578063a2597109146104a9578063a3b7ebff146104c7576101da565b806375b238fc1461040157806391d148541461041f578063956236411461044f576101da565b80634587a6101161017c57806361b6cc3c1161014b57806361b6cc3c1461037b578063627f09c3146103ab57806371efede9146103c757806374f55d54146103e5576101da565b80634587a610146102f35780634d0bfcb31461031157806352afe4a11461032f5780635e96c7101461035f576101da565b806325c2bbfb116101b857806325c2bbfb1461026f5780632f2ff15d1461028b578063333671a4146102a757806336568abe146102d7576101da565b806301ffc9a7146101df578063085ba9a91461020f578063248a9ca31461023f575b600080fd5b6101f960048036038101906101f49190611f6f565b6105f3565b6040516102069190611fb7565b60405180910390f35b61022960048036038101906102249190612008565b610605565b6040516102369190612076565b60405180910390f35b610259600480360381019061025491906120c7565b610644565b6040516102669190612103565b60405180910390f35b610289600480360381019061028491906122ce565b610663565b005b6102a560048036038101906102a09190612418565b6107f0565b005b6102c160048036038101906102bc9190612008565b610811565b6040516102ce9190612076565b60405180910390f35b6102f160048036038101906102ec9190612418565b61082e565b005b6102fb6108b1565b60405161030891906124b7565b60405180910390f35b6103196108d7565b6040516103269190612590565b60405180910390f35b610349600480360381019061034491906125b2565b610990565b6040516103569190611fb7565b60405180910390f35b61037960048036038101906103749190612749565b6109ad565b005b61039560048036038101906103909190612008565b610f69565b6040516103a29190612076565b60405180910390f35b6103c560048036038101906103c09190612899565b610fa8565b005b6103cf6110bd565b6040516103dc9190612076565b60405180910390f35b6103ff60048036038101906103fa91906128c6565b611155565b005b610409611216565b6040516104169190612103565b60405180910390f35b61043960048036038101906104349190612418565b61123a565b6040516104469190611fb7565b60405180910390f35b6104576112a4565b6040516104649190612076565b60405180910390f35b6104756112ca565b6040516104829190612076565b60405180910390f35b6104936112f4565b6040516104a09190612103565b60405180910390f35b6104b16112fb565b6040516104be9190612076565b60405180910390f35b6104cf611321565b6040516104dc9190612590565b60405180910390f35b6104ed6113da565b6040516104fa9190612076565b60405180910390f35b61050b611400565b6040516105189190612076565b60405180910390f35b61053b600480360381019061053691906125b2565b611426565b6040516105489190612928565b60405180910390f35b61056b60048036038101906105669190612943565b6114a7565b6040516105789190612590565b60405180910390f35b61059b60048036038101906105969190612970565b611579565b005b6105b760048036038101906105b29190612418565b6115bb565b005b6105c16115dc565b6040516105ce9190612076565b60405180910390f35b6105f160048036038101906105ec9190612a19565b611602565b005b60006105fe826116c0565b9050919050565b6002818154811061061557600080fd5b906000526020600020016000915054906101000a900473ffffffffffffffffffffffffffffffffffffffff1681565b6000806000838152602001908152602001600020600101549050919050565b7fa49807205ce4d355092ef5a8a18f56e8913cf4a201fbe287825b095693c2177561068d8161173a565b60006106ba600a60009054906101000a900473ffffffffffffffffffffffffffffffffffffffff1661174e565b90508073ffffffffffffffffffffffffffffffffffffffff1663e4a4a2a38c8c8c8c8c8c8c8c8c6040518a63ffffffff1660e01b815260040161070599989796959493929190612b24565b600060405180830381600087803b15801561071f57600080fd5b505af1158015610733573d6000803e3d6000fd5b505050506002819080600181540180825580915050600190039060005260206000200160009091909190916101000a81548173ffffffffffffffffffffffffffffffffffffffff021916908373ffffffffffffffffffffffffffffffffffffffff1602179055507f0efb7d30e57f477ddbd1e449787aa826cc83f435bd41b49a3370ed9caf78d2e5818c8c8c8c8c8c8c8c8c6040516107db9a99989796959493929190612bc6565b60405180910390a15050505050505050505050565b6107f982610644565b6108028161173a565b61080c8383611808565b505050565b60006108278260076118e890919063ffffffff16565b9050919050565b610836611902565b73ffffffffffffffffffffffffffffffffffffffff168173ffffffffffffffffffffffffffffffffffffffff16146108a3576040517f08c379a000000000000000000000000000000000000000000000000000000000815260040161089a90612ce9565b60405180910390fd5b6108ad828261190a565b5050565b600c60009054906101000a900473ffffffffffffffffffffffffffffffffffffffff1681565b60607fa49807205ce4d355092ef5a8a18f56e8913cf4a201fbe287825b095693c217756109038161173a565b600280548060200260200160405190810160405280929190818152602001828054801561098557602002820191906000526020600020905b8160009054906101000a900473ffffffffffffffffffffffffffffffffffffffff1673ffffffffffffffffffffffffffffffffffffffff168152602001906001019080831161093b575b505050505091505090565b60006109a68260076119eb90919063ffffffff16565b9050919050565b7fa49807205ce4d355092ef5a8a18f56e8913cf4a201fbe287825b095693c217756109d78161173a565b600160ff168860ff1614806109f25750600260ff168860ff16145b610a31576040517f08c379a0000000000000000000000000000000000000000000000000000000008152600401610a2890612d55565b60405180910390fd5b6000600160ff168960ff1603610d0b57610a6c600460009054906101000a900473ffffffffffffffffffffffffffffffffffffffff1661174e565b90508073ffffffffffffffffffffffffffffffffffffffff1663538baeab600360009054906101000a900473ffffffffffffffffffffffffffffffffffffffff168a89898933306040518863ffffffff1660e01b8152600401610ad59796959493929190612d75565b600060405180830381600087803b158015610aef57600080fd5b505af1158015610b03573d6000803e3d6000fd5b5050505060066000600160ff1660ff168152602001908152602001600020819080600181540180825580915050600190039060005260206000200160009091909190916101000a81548173ffffffffffffffffffffffffffffffffffffffff021916908373ffffffffffffffffffffffffffffffffffffffff1602179055506001600960008373ffffffffffffffffffffffffffffffffffffffff1673ffffffffffffffffffffffffffffffffffffffff16815260200190815260200160002060006101000a81548160ff021916908360ff160217905550600c60009054906101000a900473ffffffffffffffffffffffffffffffffffffffff1673ffffffffffffffffffffffffffffffffffffffff1663d8708898826040518263ffffffff1660e01b8152600401610c369190612076565b600060405180830381600087803b158015610c5057600080fd5b505af1158015610c64573d6000803e3d6000fd5b50505050610c7c816007611a1b90919063ffffffff16565b5060005b8351811015610d0557610cf282858381518110610ca057610c9f612df2565b5b602002602001015160000151868481518110610cbf57610cbe612df2565b5b602002602001015160400151878581518110610cde57610cdd612df2565b5b6020026020010151602001518c338d611a4b565b8080610cfd90612e50565b915050610c80565b50610eb6565b6000806103e89050610d3e600560009054906101000a900473ffffffffffffffffffffffffffffffffffffffff1661174e565b92508273ffffffffffffffffffffffffffffffffffffffff1663c0f1c484600360009054906101000a900473ffffffffffffffffffffffffffffffffffffffff168b8d868d8d8d338e8b6040518b63ffffffff1660e01b8152600401610dad9a99989796959493929190612fa7565b600060405180830381600087803b158015610dc757600080fd5b505af1158015610ddb573d6000803e3d6000fd5b5050505060066000600260ff1660ff168152602001908152602001600020839080600181540180825580915050600190039060005260206000200160009091909190916101000a81548173ffffffffffffffffffffffffffffffffffffffff021916908373ffffffffffffffffffffffffffffffffffffffff1602179055506002600960008573ffffffffffffffffffffffffffffffffffffffff1673ffffffffffffffffffffffffffffffffffffffff16815260200190815260200160002060006101000a81548160ff021916908360ff16021790555050505b6001819080600181540180825580915050600190039060005260206000200160009091909190916101000a81548173ffffffffffffffffffffffffffffffffffffffff021916908373ffffffffffffffffffffffffffffffffffffffff1602179055507f6e07cd6654a2294009ceb005fc75cddc94000647735e24523a0804492d0cce2689828a868a8a8a33604051610f5698979695949392919061305f565b60405180910390a1505050505050505050565b60018181548110610f7957600080fd5b906000526020600020016000915054906101000a900473ffffffffffffffffffffffffffffffffffffffff1681565b7fa49807205ce4d355092ef5a8a18f56e8913cf4a201fbe287825b095693c21775610fd28161173a565b600073ffffffffffffffffffffffffffffffffffffffff168273ffffffffffffffffffffffffffffffffffffffff1603611041576040517f08c379a000000000000000000000000000000000000000000000000000000000815260040161103890613164565b60405180910390fd5b81600c60006101000a81548173ffffffffffffffffffffffffffffffffffffffff021916908373ffffffffffffffffffffffffffffffffffffffff1602179055507f63917b966ba08f88836a237f27084663bd4723bbb43b2baa5077c2f556623463826040516110b19190612076565b60405180910390a15050565b6000600c60009054906101000a900473ffffffffffffffffffffffffffffffffffffffff1673ffffffffffffffffffffffffffffffffffffffff16636f1e01e66040518163ffffffff1660e01b8152600401602060405180830381865afa15801561112c573d6000803e3d6000fd5b505050506040513d601f19601f820116820180604052508101906111509190613199565b905090565b7fa49807205ce4d355092ef5a8a18f56e8913cf4a201fbe287825b095693c2177561117f8161173a565b600c60009054906101000a900473ffffffffffffffffffffffffffffffffffffffff1673ffffffffffffffffffffffffffffffffffffffff1663bb0345e28585856040518463ffffffff1660e01b81526004016111de939291906131c6565b600060405180830381600087803b1580156111f857600080fd5b505af115801561120c573d6000803e3d6000fd5b5050505050505050565b7fa49807205ce4d355092ef5a8a18f56e8913cf4a201fbe287825b095693c2177581565b600080600084815260200190815260200160002060000160008373ffffffffffffffffffffffffffffffffffffffff1673ffffffffffffffffffffffffffffffffffffffff16815260200190815260200160002060009054906101000a900460ff16905092915050565b600360009054906101000a900473ffffffffffffffffffffffffffffffffffffffff1681565b6000600c60009054906101000a900473ffffffffffffffffffffffffffffffffffffffff16905090565b6000801b81565b600a60009054906101000a900473ffffffffffffffffffffffffffffffffffffffff1681565b60607fa49807205ce4d355092ef5a8a18f56e8913cf4a201fbe287825b095693c2177561134d8161173a565b60018054806020026020016040519081016040528092919081815260200182805480156113cf57602002820191906000526020600020905b8160009054906101000a900473ffffffffffffffffffffffffffffffffffffffff1673ffffffffffffffffffffffffffffffffffffffff1681526020019060010190808311611385575b505050505091505090565b600560009054906101000a900473ffffffffffffffffffffffffffffffffffffffff1681565b600b60009054906101000a900473ffffffffffffffffffffffffffffffffffffffff1681565b60007fa49807205ce4d355092ef5a8a18f56e8913cf4a201fbe287825b095693c217756114528161173a565b600960008473ffffffffffffffffffffffffffffffffffffffff1673ffffffffffffffffffffffffffffffffffffffff16815260200190815260200160002060009054906101000a900460ff16915050919050565b60607fa49807205ce4d355092ef5a8a18f56e8913cf4a201fbe287825b095693c217756114d38161173a565b600660008460ff1660ff16815260200190815260200160002080548060200260200160405190810160405280929190818152602001828054801561156c57602002820191906000526020600020905b8160009054906101000a900473ffffffffffffffffffffffffffffffffffffffff1673ffffffffffffffffffffffffffffffffffffffff1681526020019060010190808311611522575b5050505050915050919050565b7fa49807205ce4d355092ef5a8a18f56e8913cf4a201fbe287825b095693c217756115a38161173a565b6115b287878787873388611a4b565b50505050505050565b6115c482610644565b6115cd8161173a565b6115d7838361190a565b505050565b600460009054906101000a900473ffffffffffffffffffffffffffffffffffffffff1681565b7fa49807205ce4d355092ef5a8a18f56e8913cf4a201fbe287825b095693c2177561162c8161173a565b600c60009054906101000a900473ffffffffffffffffffffffffffffffffffffffff1673ffffffffffffffffffffffffffffffffffffffff1663fab9cdbf84846040518363ffffffff1660e01b81526004016116899291906131fd565b600060405180830381600087803b1580156116a357600080fd5b505af11580156116b7573d6000803e3d6000fd5b50505050505050565b60007f7965db0b000000000000000000000000000000000000000000000000000000007bffffffffffffffffffffffffffffffffffffffffffffffffffffffff1916827bffffffffffffffffffffffffffffffffffffffffffffffffffffffff19161480611733575061173282611aed565b5b9050919050565b61174b81611746611902565b611b57565b50565b6000763d602d80600a3d3981f3363d3d373d3d3d363d730000008260601b60e81c176000526e5af43d82803e903d91602b57fd5bf38260781b17602052603760096000f09050600073ffffffffffffffffffffffffffffffffffffffff168173ffffffffffffffffffffffffffffffffffffffff1603611803576040517f08c379a00000000000000000000000000000000000000000000000000000000081526004016117fa90613279565b60405180910390fd5b919050565b611812828261123a565b6118e457600160008084815260200190815260200160002060000160008373ffffffffffffffffffffffffffffffffffffffff1673ffffffffffffffffffffffffffffffffffffffff16815260200190815260200160002060006101000a81548160ff021916908315150217905550611889611902565b73ffffffffffffffffffffffffffffffffffffffff168173ffffffffffffffffffffffffffffffffffffffff16837f2f8788117e7eff1d82e926ec794901d17c78024a50270940304540a733656f0d60405160405180910390a45b5050565b60006118f78360000183611bdc565b60001c905092915050565b600033905090565b611914828261123a565b156119e757600080600084815260200190815260200160002060000160008373ffffffffffffffffffffffffffffffffffffffff1673ffffffffffffffffffffffffffffffffffffffff16815260200190815260200160002060006101000a81548160ff02191690831515021790555061198c611902565b73ffffffffffffffffffffffffffffffffffffffff168173ffffffffffffffffffffffffffffffffffffffff16837ff6391f5c32d9c69d2a47ea670b442974b53935d1edc7fd64eb21e047a839171b60405160405180910390a45b5050565b6000611a13836000018373ffffffffffffffffffffffffffffffffffffffff1660001b611c07565b905092915050565b6000611a43836000018373ffffffffffffffffffffffffffffffffffffffff1660001b611c2a565b905092915050565b600c60009054906101000a900473ffffffffffffffffffffffffffffffffffffffff1673ffffffffffffffffffffffffffffffffffffffff16633c88d904888888888888886040518863ffffffff1660e01b8152600401611ab29796959493929190613299565b600060405180830381600087803b158015611acc57600080fd5b505af1158015611ae0573d6000803e3d6000fd5b5050505050505050505050565b60007f01ffc9a7000000000000000000000000000000000000000000000000000000007bffffffffffffffffffffffffffffffffffffffffffffffffffffffff1916827bffffffffffffffffffffffffffffffffffffffffffffffffffffffff1916149050919050565b611b61828261123a565b611bd857611b6e81611c9a565b611b7c8360001c6020611cc7565b604051602001611b8d9291906133e3565b6040516020818303038152906040526040517f08c379a0000000000000000000000000000000000000000000000000000000008152600401611bcf919061341d565b60405180910390fd5b5050565b6000826000018281548110611bf457611bf3612df2565b5b9060005260206000200154905092915050565b600080836001016000848152602001908152602001600020541415905092915050565b6000611c368383611c07565b611c8f578260000182908060018154018082558091505060019003906000526020600020016000909190919091505582600001805490508360010160008481526020019081526020016000208190555060019050611c94565b600090505b92915050565b6060611cc08273ffffffffffffffffffffffffffffffffffffffff16601460ff16611cc7565b9050919050565b606060006002836002611cda919061343f565b611ce49190613481565b67ffffffffffffffff811115611cfd57611cfc612139565b5b6040519080825280601f01601f191660200182016040528015611d2f5781602001600182028036833780820191505090505b5090507f300000000000000000000000000000000000000000000000000000000000000081600081518110611d6757611d66612df2565b5b60200101907effffffffffffffffffffffffffffffffffffffffffffffffffffffffffffff1916908160001a9053507f780000000000000000000000000000000000000000000000000000000000000081600181518110611dcb57611dca612df2565b5b60200101907effffffffffffffffffffffffffffffffffffffffffffffffffffffffffffff1916908160001a90535060006001846002611e0b919061343f565b611e159190613481565b90505b6001811115611eb5577f3031323334353637383961626364656600000000000000000000000000000000600f861660108110611e5757611e56612df2565b5b1a60f81b828281518110611e6e57611e6d612df2565b5b60200101907effffffffffffffffffffffffffffffffffffffffffffffffffffffffffffff1916908160001a905350600485901c945080611eae906134b5565b9050611e18565b5060008414611ef9576040517f08c379a0000000000000000000000000000000000000000000000000000000008152600401611ef09061352a565b60405180910390fd5b8091505092915050565b6000604051905090565b600080fd5b600080fd5b60007fffffffff0000000000000000000000000000000000000000000000000000000082169050919050565b611f4c81611f17565b8114611f5757600080fd5b50565b600081359050611f6981611f43565b92915050565b600060208284031215611f8557611f84611f0d565b5b6000611f9384828501611f5a565b91505092915050565b60008115159050919050565b611fb181611f9c565b82525050565b6000602082019050611fcc6000830184611fa8565b92915050565b6000819050919050565b611fe581611fd2565b8114611ff057600080fd5b50565b60008135905061200281611fdc565b92915050565b60006020828403121561201e5761201d611f0d565b5b600061202c84828501611ff3565b91505092915050565b600073ffffffffffffffffffffffffffffffffffffffff82169050919050565b600061206082612035565b9050919050565b61207081612055565b82525050565b600060208201905061208b6000830184612067565b92915050565b6000819050919050565b6120a481612091565b81146120af57600080fd5b50565b6000813590506120c18161209b565b92915050565b6000602082840312156120dd576120dc611f0d565b5b60006120eb848285016120b2565b91505092915050565b6120fd81612091565b82525050565b600060208201905061211860008301846120f4565b92915050565b600080fd5b600080fd5b6000601f19601f8301169050919050565b7f4e487b7100000000000000000000000000000000000000000000000000000000600052604160045260246000fd5b61217182612128565b810181811067ffffffffffffffff821117156121905761218f612139565b5b80604052505050565b60006121a3611f03565b90506121af8282612168565b919050565b600067ffffffffffffffff8211156121cf576121ce612139565b5b6121d882612128565b9050602081019050919050565b82818337600083830152505050565b6000612207612202846121b4565b612199565b90508281526020810184848401111561222357612222612123565b5b61222e8482856121e5565b509392505050565b600082601f83011261224b5761224a61211e565b5b813561225b8482602086016121f4565b91505092915050565b600061226f82612055565b9050919050565b61227f81612264565b811461228a57600080fd5b50565b60008135905061229c81612276565b92915050565b6122ab81611f9c565b81146122b657600080fd5b50565b6000813590506122c8816122a2565b92915050565b60008060008060008060008060006101208a8c0312156122f1576122f0611f0d565b5b60008a013567ffffffffffffffff81111561230f5761230e611f12565b5b61231b8c828d01612236565b995050602061232c8c828d0161228d565b98505060408a013567ffffffffffffffff81111561234d5761234c611f12565b5b6123598c828d01612236565b97505060608a013567ffffffffffffffff81111561237a57612379611f12565b5b6123868c828d01612236565b96505060806123978c828d01611ff3565b95505060a06123a88c828d01611ff3565b94505060c06123b98c828d016122b9565b93505060e06123ca8c828d01611ff3565b9250506101006123dc8c828d01611ff3565b9150509295985092959850929598565b6123f581612055565b811461240057600080fd5b50565b600081359050612412816123ec565b92915050565b6000806040838503121561242f5761242e611f0d565b5b600061243d858286016120b2565b925050602061244e85828601612403565b9150509250929050565b6000819050919050565b600061247d61247861247384612035565b612458565b612035565b9050919050565b600061248f82612462565b9050919050565b60006124a182612484565b9050919050565b6124b181612496565b82525050565b60006020820190506124cc60008301846124a8565b92915050565b600081519050919050565b600082825260208201905092915050565b6000819050602082019050919050565b61250781612055565b82525050565b600061251983836124fe565b60208301905092915050565b6000602082019050919050565b600061253d826124d2565b61254781856124dd565b9350612552836124ee565b8060005b8381101561258357815161256a888261250d565b975061257583612525565b925050600181019050612556565b5085935050505092915050565b600060208201905081810360008301526125aa8184612532565b905092915050565b6000602082840312156125c8576125c7611f0d565b5b60006125d684828501612403565b91505092915050565b600060ff82169050919050565b6125f5816125df565b811461260057600080fd5b50565b600081359050612612816125ec565b92915050565b600067ffffffffffffffff82111561263357612632612139565b5b602082029050602081019050919050565b600080fd5b600080fd5b60006060828403121561266457612663612649565b5b61266e6060612199565b9050600061267e84828501612603565b600083015250602061269284828501611ff3565b60208301525060406126a684828501611ff3565b60408301525092915050565b60006126c56126c084612618565b612199565b905080838252602082019050606084028301858111156126e8576126e7612644565b5b835b8181101561271157806126fd888261264e565b8452602084019350506060810190506126ea565b5050509392505050565b600082601f8301126127305761272f61211e565b5b81356127408482602086016126b2565b91505092915050565b600080600080600080600060e0888a03121561276857612767611f0d565b5b60006127768a828b01612603565b97505060206127878a828b01612403565b965050604088013567ffffffffffffffff8111156127a8576127a7611f12565b5b6127b48a828b01612236565b95505060606127c58a828b0161228d565b945050608088013567ffffffffffffffff8111156127e6576127e5611f12565b5b6127f28a828b01612236565b93505060a088013567ffffffffffffffff81111561281357612812611f12565b5b61281f8a828b01612236565b92505060c088013567ffffffffffffffff8111156128405761283f611f12565b5b61284c8a828b0161271b565b91505092959891949750929550565b600061286682612055565b9050919050565b6128768161285b565b811461288157600080fd5b50565b6000813590506128938161286d565b92915050565b6000602082840312156128af576128ae611f0d565b5b60006128bd84828501612884565b91505092915050565b6000806000606084860312156128df576128de611f0d565b5b60006128ed86828701612403565b93505060206128fe86828701612403565b925050604061290f86828701612403565b9150509250925092565b612922816125df565b82525050565b600060208201905061293d6000830184612919565b92915050565b60006020828403121561295957612958611f0d565b5b600061296784828501612603565b91505092915050565b60008060008060008060c0878903121561298d5761298c611f0d565b5b600061299b89828a01612403565b96505060206129ac89828a01612603565b95505060406129bd89828a01611ff3565b94505060606129ce89828a01611ff3565b935050608087013567ffffffffffffffff8111156129ef576129ee611f12565b5b6129fb89828a01612236565b92505060a0612a0c89828a01612403565b9150509295509295509295565b60008060408385031215612a3057612a2f611f0d565b5b6000612a3e85828601612403565b925050602083013567ffffffffffffffff811115612a5f57612a5e611f12565b5b612a6b85828601612236565b9150509250929050565b600081519050919050565b600082825260208201905092915050565b60005b83811015612aaf578082015181840152602081019050612a94565b60008484015250505050565b6000612ac682612a75565b612ad08185612a80565b9350612ae0818560208601612a91565b612ae981612128565b840191505092915050565b6000612aff82612484565b9050919050565b612b0f81612af4565b82525050565b612b1e81611fd2565b82525050565b6000610120820190508181036000830152612b3f818c612abb565b9050612b4e602083018b612b06565b8181036040830152612b60818a612abb565b90508181036060830152612b748189612abb565b9050612b836080830188612b15565b612b9060a0830187612b15565b612b9d60c0830186611fa8565b612baa60e0830185612b15565b612bb8610100830184612b15565b9a9950505050505050505050565b600061014082019050612bdc600083018d612067565b8181036020830152612bee818c612abb565b9050612bfd604083018b612067565b8181036060830152612c0f818a612abb565b90508181036080830152612c238189612abb565b9050612c3260a0830188612b15565b612c3f60c0830187612b15565b612c4c60e0830186611fa8565b612c5a610100830185612b15565b612c68610120830184612b15565b9b9a5050505050505050505050565b7f416363657373436f6e74726f6c3a2063616e206f6e6c792072656e6f756e636560008201527f20726f6c657320666f722073656c660000000000000000000000000000000000602082015250565b6000612cd3602f83612a80565b9150612cde82612c77565b604082019050919050565b60006020820190508181036000830152612d0281612cc6565b9050919050565b7f7374616e646172644964206e6f7420737570706f727400000000000000000000600082015250565b6000612d3f601683612a80565b9150612d4a82612d09565b602082019050919050565b60006020820190508181036000830152612d6e81612d32565b9050919050565b600060e082019050612d8a600083018a612067565b612d976020830189612067565b612da46040830188612b06565b8181036060830152612db68187612abb565b90508181036080830152612dca8186612abb565b9050612dd960a0830185612067565b612de660c0830184612067565b98975050505050505050565b7f4e487b7100000000000000000000000000000000000000000000000000000000600052603260045260246000fd5b7f4e487b7100000000000000000000000000000000000000000000000000000000600052601160045260246000fd5b6000612e5b82611fd2565b91507fffffffffffffffffffffffffffffffffffffffffffffffffffffffffffffffff8203612e8d57612e8c612e21565b5b600182019050919050565b600081519050919050565b600082825260208201905092915050565b6000819050602082019050919050565b612ecd816125df565b82525050565b612edc81611fd2565b82525050565b606082016000820151612ef86000850182612ec4565b506020820151612f0b6020850182612ed3565b506040820151612f1e6040850182612ed3565b50505050565b6000612f308383612ee2565b60608301905092915050565b6000602082019050919050565b6000612f5482612e98565b612f5e8185612ea3565b9350612f6983612eb4565b8060005b83811015612f9a578151612f818882612f24565b9750612f8c83612f3c565b925050600181019050612f6d565b5085935050505092915050565b600061014082019050612fbd600083018d612067565b8181036020830152612fcf818c612abb565b9050612fde604083018b612067565b612feb606083018a611fa8565b612ff86080830189612b06565b81810360a083015261300a8188612abb565b905081810360c083015261301e8187612abb565b905061302d60e0830186612067565b8181036101008301526130408185612f49565b9050613050610120830184612b15565b9b9a5050505050505050505050565b600061010082019050613075600083018b612919565b613082602083018a612067565b61308f6040830189612067565b81810360608301526130a18188612f49565b90506130b06080830187612b06565b81810360a08301526130c28186612abb565b905081810360c08301526130d68185612abb565b90506130e560e0830184612067565b9998505050505050505050565b7f41646472657373206f6620636f6e66696775726174696f6e206d75737420626560008201527f2072657175697265642e00000000000000000000000000000000000000000000602082015250565b600061314e602a83612a80565b9150613159826130f2565b604082019050919050565b6000602082019050818103600083015261317d81613141565b9050919050565b600081519050613193816123ec565b92915050565b6000602082840312156131af576131ae611f0d565b5b60006131bd84828501613184565b91505092915050565b60006060820190506131db6000830186612067565b6131e86020830185612067565b6131f56040830184612067565b949350505050565b60006040820190506132126000830185612067565b81810360208301526132248184612abb565b90509392505050565b7f455243313136373a20637265617465206661696c656400000000000000000000600082015250565b6000613263601683612a80565b915061326e8261322d565b602082019050919050565b6000602082019050818103600083015261329281613256565b9050919050565b600060e0820190506132ae600083018a612067565b6132bb6020830189612919565b6132c86040830188612b15565b6132d56060830187612b15565b81810360808301526132e78186612abb565b90506132f660a0830185612067565b61330360c0830184612067565b98975050505050505050565b600081905092915050565b7f416363657373436f6e74726f6c3a206163636f756e7420000000000000000000600082015250565b600061335060178361330f565b915061335b8261331a565b601782019050919050565b600061337182612a75565b61337b818561330f565b935061338b818560208601612a91565b80840191505092915050565b7f206973206d697373696e6720726f6c6520000000000000000000000000000000600082015250565b60006133cd60118361330f565b91506133d882613397565b601182019050919050565b60006133ee82613343565b91506133fa8285613366565b9150613405826133c0565b91506134118284613366565b91508190509392505050565b600060208201905081810360008301526134378184612abb565b905092915050565b600061344a82611fd2565b915061345583611fd2565b925082820261346381611fd2565b9150828204841483151761347a57613479612e21565b5b5092915050565b600061348c82611fd2565b915061349783611fd2565b92508282019050808211156134af576134ae612e21565b5b92915050565b60006134c082611fd2565b9150600082036134d3576134d2612e21565b5b600182039050919050565b7f537472696e67733a20686578206c656e67746820696e73756666696369656e74600082015250565b6000613514602083612a80565b915061351f826134de565b602082019050919050565b6000602082019050818103600083015261354381613507565b905091905056fea2646970667358221220e1861460ecd16e70801763e31f5327da6dfa002d38fcb521a084ef56a3a1e25b64736f6c6343000812003360a06040523073ffffffffffffffffffffffffffffffffffffffff1660809073ffffffffffffffffffffffffffffffffffffffff168152503480156200004457600080fd5b506080516187c96200007d60003960008181611424015281816114b20152818161191a015281816119a80152611a5801526187c96000f3fe6080604052600436106103a25760003560e01c806376214140116101e7578063ad9e963f1161010d578063db8cc8fa116100a0578063ea4afb5c1161006f578063ea4afb5c14610dd0578063ef463b6414610dfb578063f2fde38b14610e38578063ffa0a02a14610e61576103a2565b8063db8cc8fa14610d16578063dd8a353014610d3f578063e2f0394714610d6a578063e985e9c514610d93576103a2565b8063c1292cc3116100dc578063c1292cc314610c5c578063c4ca3a9c14610c87578063c87b56dd14610cb0578063d547741f14610ced576103a2565b8063ad9e963f14610ba2578063b80f55c914610bdf578063b88d4fde14610c08578063bffadc2f14610c31576103a2565b80639292caaf11610185578063a217fddf11610154578063a217fddf14610ae6578063a22cb46514610b11578063a76e0db214610b3a578063a9c2e36c14610b77576103a2565b80639292caaf14610a3e57806392c0f3d714610a6957806395d89b4114610a925780639a94efd814610abd576103a2565b80638badfa93116101c15780638badfa93146109825780638da5cb5b146109ad5780638f0b7b68146109d857806391d1485414610a01576103a2565b80637621414014610903578063763c87bf1461092c57806388c7e39714610957576103a2565b806349d19648116102cc57806358797cb61161026a57806367f6860b1161023957806367f6860b1461085d57806370a0823114610886578063715018a6146108c357806372f12344146108da576103a2565b806358797cb61461078d5780635fd1bbc4146107b85780636352211e146107e357806366458d4a14610820576103a2565b80634f1ef286116102a65780634f1ef286146106e057806352d1902d146106fc578063538baeab14610727578063558008ab14610750576103a2565b806349d19648146106655780634c40a07b1461068e5780634e452475146106b7576103a2565b80632a55205a116103445780633659cfe6116103135780633659cfe6146105d15780633a1055ae146105fa5780633ccfd60b1461062557806342842e0e1461063c576103a2565b80632a55205a146105185780632ee4aa31146105565780632f2ff15d1461057f57806336568abe146105a8576103a2565b8063095ea7b311610380578063095ea7b31461044c57806323b872dd14610475578063248a9ca31461049e578063252b2d09146104db576103a2565b806301ffc9a7146103a757806306fdde03146103e4578063081812fc1461040f575b600080fd5b3480156103b357600080fd5b506103ce60048036038101906103c991906156dd565b610e8a565b6040516103db9190615725565b60405180910390f35b3480156103f057600080fd5b506103f9610e9c565b60405161040691906157d0565b60405180910390f35b34801561041b57600080fd5b5061043660048036038101906104319190615828565b610f2e565b6040516104439190615896565b60405180910390f35b34801561045857600080fd5b50610473600480360381019061046e91906158dd565b610f74565b005b34801561048157600080fd5b5061049c6004803603810190610497919061591d565b61108b565b005b3480156104aa57600080fd5b506104c560048036038101906104c091906159a6565b6110eb565b6040516104d291906159e2565b60405180910390f35b3480156104e757600080fd5b5061050260048036038101906104fd9190615a36565b61110b565b60405161050f9190615a72565b60405180910390f35b34801561052457600080fd5b5061053f600480360381019061053a9190615a8d565b611124565b60405161054d929190615acd565b60405180910390f35b34801561056257600080fd5b5061057d60048036038101906105789190615af6565b61130e565b005b34801561058b57600080fd5b506105a660048036038101906105a19190615b23565b61137e565b005b3480156105b457600080fd5b506105cf60048036038101906105ca9190615b23565b61139f565b005b3480156105dd57600080fd5b506105f860048036038101906105f39190615af6565b611422565b005b34801561060657600080fd5b5061060f6115aa565b60405161061c9190615a72565b60405180910390f35b34801561063157600080fd5b5061063a6115b1565b005b34801561064857600080fd5b50610663600480360381019061065e919061591d565b6116ff565b005b34801561067157600080fd5b5061068c60048036038101906106879190615ba1565b61171f565b005b34801561069a57600080fd5b506106b560048036038101906106b09190615bfa565b61178f565b005b3480156106c357600080fd5b506106de60048036038101906106d99190615e32565b6117d8565b005b6106fa60048036038101906106f59190615f5f565b611918565b005b34801561070857600080fd5b50610711611a54565b60405161071e91906159e2565b60405180910390f35b34801561073357600080fd5b5061074e6004803603810190610749919061605c565b611b0d565b005b34801561075c57600080fd5b5061077760048036038101906107729190615af6565b611e1c565b6040516107849190615a72565b60405180910390f35b34801561079957600080fd5b506107a2611e35565b6040516107af9190616195565b60405180910390f35b3480156107c457600080fd5b506107cd611e5c565b6040516107da9190615a72565b60405180910390f35b3480156107ef57600080fd5b5061080a60048036038101906108059190615828565b611e63565b6040516108179190615896565b60405180910390f35b34801561082c57600080fd5b5061084760048036038101906108429190615af6565b611ee9565b604051610854919061626e565b60405180910390f35b34801561086957600080fd5b50610884600480360381019061087f91906162d4565b611f87565b005b34801561089257600080fd5b506108ad60048036038101906108a89190615af6565b611fa3565b6040516108ba9190615a72565b60405180910390f35b3480156108cf57600080fd5b506108d861205a565b005b3480156108e657600080fd5b5061090160048036038101906108fc9190615828565b61206e565b005b34801561090f57600080fd5b5061092a60048036038101906109259190615828565b6120a4565b005b34801561093857600080fd5b506109416120da565b60405161094e91906157d0565b60405180910390f35b34801561096357600080fd5b5061096c612169565b6040516109799190615725565b60405180910390f35b34801561098e57600080fd5b5061099761217d565b6040516109a49190615a72565b60405180910390f35b3480156109b957600080fd5b506109c2612184565b6040516109cf9190615896565b60405180910390f35b3480156109e457600080fd5b506109ff60048036038101906109fa9190616394565b6121af565b005b348015610a0d57600080fd5b50610a286004803603810190610a239190615b23565b612253565b604051610a359190615725565b60405180910390f35b348015610a4a57600080fd5b50610a536122be565b604051610a609190615a72565b60405180910390f35b348015610a7557600080fd5b50610a906004803603810190610a8b9190616484565b6122c5565b005b348015610a9e57600080fd5b50610aa7612684565b604051610ab491906157d0565b60405180910390f35b348015610ac957600080fd5b50610ae46004803603810190610adf919061650c565b612716565b005b348015610af257600080fd5b50610afb612a38565b604051610b0891906159e2565b60405180910390f35b348015610b1d57600080fd5b50610b386004803603810190610b33919061655f565b612a3f565b005b348015610b4657600080fd5b50610b616004803603810190610b5c9190615a36565b612a55565b604051610b6e91906157d0565b60405180910390f35b348015610b8357600080fd5b50610b8c612af6565b604051610b999190615896565b60405180910390f35b348015610bae57600080fd5b50610bc96004803603810190610bc49190615a36565b612b4c565b604051610bd691906165f0565b60405180910390f35b348015610beb57600080fd5b50610c066004803603810190610c01919061660b565b612c09565b005b348015610c1457600080fd5b50610c2f6004803603810190610c2a9190616654565b612c78565b005b348015610c3d57600080fd5b50610c46612cda565b604051610c539190615896565b60405180910390f35b348015610c6857600080fd5b50610c71612d01565b604051610c7e9190615a72565b60405180910390f35b348015610c9357600080fd5b50610cae6004803603810190610ca991906166d7565b612d13565b005b348015610cbc57600080fd5b50610cd76004803603810190610cd29190615828565b612dc6565b604051610ce491906157d0565b60405180910390f35b348015610cf957600080fd5b50610d146004803603810190610d0f9190615b23565b612e57565b005b348015610d2257600080fd5b50610d3d6004803603810190610d389190615828565b612e78565b005b348015610d4b57600080fd5b50610d54612eae565b604051610d619190615a72565b60405180910390f35b348015610d7657600080fd5b50610d916004803603810190610d8c9190615828565b612eb5565b005b348015610d9f57600080fd5b50610dba6004803603810190610db5919061675f565b612eeb565b604051610dc79190615725565b60405180910390f35b348015610ddc57600080fd5b50610de5612f7f565b604051610df29190615896565b60405180910390f35b348015610e0757600080fd5b50610e226004803603810190610e1d91906158dd565b612fa6565b604051610e2f9190615a72565b60405180910390f35b348015610e4457600080fd5b50610e5f6004803603810190610e5a9190615af6565b612fd8565b005b348015610e6d57600080fd5b50610e886004803603810190610e83919061650c565b61305b565b005b6000610e95826136ad565b9050919050565b606060978054610eab906167ce565b80601f0160208091040260200160405190810160405280929190818152602001828054610ed7906167ce565b8015610f245780601f10610ef957610100808354040283529160200191610f24565b820191906000526020600020905b815481529060010190602001808311610f0757829003601f168201915b5050505050905090565b6000610f39826136bf565b609b600083815260200190815260200160002060009054906101000a900473ffffffffffffffffffffffffffffffffffffffff169050919050565b6000610f7f82611e63565b90508073ffffffffffffffffffffffffffffffffffffffff168373ffffffffffffffffffffffffffffffffffffffff1603610fef576040517f08c379a0000000000000000000000000000000000000000000000000000000008152600401610fe690616871565b60405180910390fd5b8073ffffffffffffffffffffffffffffffffffffffff1661100e61370a565b73ffffffffffffffffffffffffffffffffffffffff16148061103d575061103c8161103761370a565b612eeb565b5b61107c576040517f08c379a000000000000000000000000000000000000000000000000000000000815260040161107390616903565b60405180910390fd5b6110868383613712565b505050565b61109c61109661370a565b826137cb565b6110db576040517f08c379a00000000000000000000000000000000000000000000000000000000081526004016110d290616995565b60405180910390fd5b6110e6838383613860565b505050565b600060c96000838152602001908152602001600020600101549050919050565b6101cb6020528060005260406000206000915090505481565b6000806000606660008681526020019081526020016000206040518060400160405290816000820160009054906101000a900473ffffffffffffffffffffffffffffffffffffffff1673ffffffffffffffffffffffffffffffffffffffff1673ffffffffffffffffffffffffffffffffffffffff1681526020016000820160149054906101000a90046bffffffffffffffffffffffff166bffffffffffffffffffffffff166bffffffffffffffffffffffff16815250509050600073ffffffffffffffffffffffffffffffffffffffff16816000015173ffffffffffffffffffffffffffffffffffffffff16036112b95760656040518060400160405290816000820160009054906101000a900473ffffffffffffffffffffffffffffffffffffffff1673ffffffffffffffffffffffffffffffffffffffff1673ffffffffffffffffffffffffffffffffffffffff1681526020016000820160149054906101000a90046bffffffffffffffffffffffff166bffffffffffffffffffffffff166bffffffffffffffffffffffff168152505090505b60006112c3613b59565b6bffffffffffffffffffffffff1682602001516bffffffffffffffffffffffff16866112ef91906169e4565b6112f99190616a55565b90508160000151819350935050509250929050565b7fb0a2731da0d1e322a29f18fc41490da7914e8245c4e7d00155b630b2fbe5029361133881613b63565b816101c560006101000a81548173ffffffffffffffffffffffffffffffffffffffff021916908373ffffffffffffffffffffffffffffffffffffffff1602179055505050565b611387826110eb565b61139081613b63565b61139a8383613b77565b505050565b6113a761370a565b73ffffffffffffffffffffffffffffffffffffffff168173ffffffffffffffffffffffffffffffffffffffff1614611414576040517f08c379a000000000000000000000000000000000000000000000000000000000815260040161140b90616af8565b60405180910390fd5b61141e8282613c58565b5050565b7f000000000000000000000000000000000000000000000000000000000000000073ffffffffffffffffffffffffffffffffffffffff163073ffffffffffffffffffffffffffffffffffffffff16036114b0576040517f08c379a00000000000000000000000000000000000000000000000000000000081526004016114a790616b8a565b60405180910390fd5b7f000000000000000000000000000000000000000000000000000000000000000073ffffffffffffffffffffffffffffffffffffffff166114ef613d3a565b73ffffffffffffffffffffffffffffffffffffffff1614611545576040517f08c379a000000000000000000000000000000000000000000000000000000000815260040161153c90616c1c565b60405180910390fd5b61154e81613d91565b6115a781600067ffffffffffffffff81111561156d5761156c615c2c565b5b6040519080825280601f01601f19166020018201604052801561159f5781602001600182028036833780820191505090505b506000613dbf565b50565b6101c85481565b6000801b6115be81613b63565b6101c960009054906101000a900473ffffffffffffffffffffffffffffffffffffffff1673ffffffffffffffffffffffffffffffffffffffff1663a9059cbb336101c960009054906101000a900473ffffffffffffffffffffffffffffffffffffffff1673ffffffffffffffffffffffffffffffffffffffff166370a08231306040518263ffffffff1660e01b815260040161165a9190615896565b602060405180830381865afa158015611677573d6000803e3d6000fd5b505050506040513d601f19601f8201168201806040525081019061169b9190616c51565b6040518363ffffffff1660e01b81526004016116b8929190615acd565b6020604051808303816000875af11580156116d7573d6000803e3d6000fd5b505050506040513d601f19601f820116820180604052508101906116fb9190616c93565b5050565b61171a83838360405180602001604052806000815250612c78565b505050565b7fb0a2731da0d1e322a29f18fc41490da7914e8245c4e7d00155b630b2fbe5029361174981613b63565b816101c960006101000a81548173ffffffffffffffffffffffffffffffffffffffff021916908373ffffffffffffffffffffffffffffffffffffffff1602179055505050565b7fb0a2731da0d1e322a29f18fc41490da7914e8245c4e7d00155b630b2fbe502936117b981613b63565b816101cf60006101000a81548160ff0219169083151502179055505050565b7fa49807205ce4d355092ef5a8a18f56e8913cf4a201fbe287825b095693c2177561180281613b63565b8151835114611846576040517f08c379a000000000000000000000000000000000000000000000000000000000815260040161183d90616d32565b60405180910390fd5b60005b83518110156119125782818151811061186557611864616d52565b5b60200260200101516101d2600086848151811061188557611884616d52565b5b602002602001015173ffffffffffffffffffffffffffffffffffffffff1673ffffffffffffffffffffffffffffffffffffffff168152602001908152602001600020819055508281815181106118de576118dd616d52565b5b60200260200101516101d060008282546118f89190616d81565b92505081905550808061190a90616db5565b915050611849565b50505050565b7f000000000000000000000000000000000000000000000000000000000000000073ffffffffffffffffffffffffffffffffffffffff163073ffffffffffffffffffffffffffffffffffffffff16036119a6576040517f08c379a000000000000000000000000000000000000000000000000000000000815260040161199d90616b8a565b60405180910390fd5b7f000000000000000000000000000000000000000000000000000000000000000073ffffffffffffffffffffffffffffffffffffffff166119e5613d3a565b73ffffffffffffffffffffffffffffffffffffffff1614611a3b576040517f08c379a0000000000000000000000000000000000000000000000000000000008152600401611a3290616c1c565b60405180910390fd5b611a4482613d91565b611a5082826001613dbf565b5050565b60007f000000000000000000000000000000000000000000000000000000000000000073ffffffffffffffffffffffffffffffffffffffff163073ffffffffffffffffffffffffffffffffffffffff1614611ae4576040517f08c379a0000000000000000000000000000000000000000000000000000000008152600401611adb90616e6f565b60405180910390fd5b7f360894a13ba1a3210667c828492db98dca3e2076cc3735a920a3ca505d382bbc60001b905090565b60008060019054906101000a900460ff16159050808015611b3e5750600160008054906101000a900460ff1660ff16105b80611b6b5750611b4d30613f2d565b158015611b6a5750600160008054906101000a900460ff1660ff16145b5b611baa576040517f08c379a0000000000000000000000000000000000000000000000000000000008152600401611ba190616f01565b60405180910390fd5b60016000806101000a81548160ff021916908360ff1602179055508015611be7576001600060016101000a81548160ff0219169083151502179055505b611bf18486613f50565b611bf9613fad565b611c01613ffe565b611c0a8361404f565b876101c360006101000a81548173ffffffffffffffffffffffffffffffffffffffff021916908373ffffffffffffffffffffffffffffffffffffffff160217905550866101c560006101000a81548173ffffffffffffffffffffffffffffffffffffffff021916908373ffffffffffffffffffffffffffffffffffffffff160217905550856101c960006101000a81548173ffffffffffffffffffffffffffffffffffffffff021916908373ffffffffffffffffffffffffffffffffffffffff16021790555060006101cf60006101000a81548160ff021916908315150217905550816101d460006101000a81548173ffffffffffffffffffffffffffffffffffffffff021916908373ffffffffffffffffffffffffffffffffffffffff160217905550611d587fa49807205ce4d355092ef5a8a18f56e8913cf4a201fbe287825b095693c2177584614117565b611d656000801b84614117565b611d8f7fb0a2731da0d1e322a29f18fc41490da7914e8245c4e7d00155b630b2fbe5029384614117565b611db97f3c11d16cbaffd01df69ce1c404f6340ee057498f5f00246190ea54220576a84884614117565b8015611e125760008060016101000a81548160ff0219169083151502179055507f7f26b83ff96e1f2b6a682f133852f6798a09c465da95921460cefb38474024986001604051611e099190616f5c565b60405180910390a15b5050505050505050565b6101d26020528060005260406000206000915090505481565b6101c960009054906101000a900473ffffffffffffffffffffffffffffffffffffffff1681565b6101c75481565b600080611e6f83614125565b9050600073ffffffffffffffffffffffffffffffffffffffff168173ffffffffffffffffffffffffffffffffffffffff1603611ee0576040517f08c379a0000000000000000000000000000000000000000000000000000000008152600401611ed790616fc3565b60405180910390fd5b80915050919050565b606060006101cc60008473ffffffffffffffffffffffffffffffffffffffff1673ffffffffffffffffffffffffffffffffffffffff168152602001908152602001600020805480602002602001604051908101604052809291908181526020018280548015611f7757602002820191906000526020600020905b815481526020019060010190808311611f63575b5050505050905080915050919050565b6000801b611f9481613b63565b611f9e8383614162565b505050565b60008073ffffffffffffffffffffffffffffffffffffffff168273ffffffffffffffffffffffffffffffffffffffff1603612013576040517f08c379a000000000000000000000000000000000000000000000000000000000815260040161200a90617055565b60405180910390fd5b609a60008373ffffffffffffffffffffffffffffffffffffffff1673ffffffffffffffffffffffffffffffffffffffff168152602001908152602001600020549050919050565b6120626142f7565b61206c600061404f565b565b7fb0a2731da0d1e322a29f18fc41490da7914e8245c4e7d00155b630b2fbe5029361209881613b63565b816101cd819055505050565b7fb0a2731da0d1e322a29f18fc41490da7914e8245c4e7d00155b630b2fbe502936120ce81613b63565b816101c8819055505050565b6101c480546120e8906167ce565b80601f0160208091040260200160405190810160405280929190818152602001828054612114906167ce565b80156121615780601f1061213657610100808354040283529160200191612161565b820191906000526020600020905b81548152906001019060200180831161214457829003601f168201915b505050505081565b6101cf60009054906101000a900460ff1681565b6101d15481565b600061019160009054906101000a900473ffffffffffffffffffffffffffffffffffffffff16905090565b7fa49807205ce4d355092ef5a8a18f56e8913cf4a201fbe287825b095693c217756121d981613b63565b73__$afec012158ebc01e771e0b8521b3c90181$__6339d1efc68888888888886040518763ffffffff1660e01b815260040161221a96959493929190617148565b60006040518083038186803b15801561223257600080fd5b505af4158015612246573d6000803e3d6000fd5b5050505050505050505050565b600060c9600084815260200190815260200160002060000160008373ffffffffffffffffffffffffffffffffffffffff1673ffffffffffffffffffffffffffffffffffffffff16815260200190815260200160002060009054906101000a900460ff16905092915050565b6101c65481565b6122cd614375565b73ffffffffffffffffffffffffffffffffffffffff163373ffffffffffffffffffffffffffffffffffffffff161461233a576040517f08c379a0000000000000000000000000000000000000000000000000000000008152600401612331906171f0565b60405180910390fd5b600061234461440e565b73ffffffffffffffffffffffffffffffffffffffff166386c2b83d30876040518363ffffffff1660e01b815260040161237e92919061721f565b606060405180830381865afa15801561239b573d6000803e3d6000fd5b505050506040513d601f19601f820116820180604052508101906123bf91906172c6565b90506000816020015111612408576040517f08c379a00000000000000000000000000000000000000000000000000000000081526004016123ff9061733f565b60405180910390fd5b60006101cb60008760ff1660ff168152602001908152602001600020549050600087826124359190616d81565b9050808360200151101561247e576040517f08c379a0000000000000000000000000000000000000000000000000000000008152600401612475906173ab565b60405180910390fd5b806101cb60008960ff1660ff1681526020019081526020016000208190555060008867ffffffffffffffff8111156124b9576124b8615c2c565b5b6040519080825280602002602001820160405280156124f257816020015b6124df615633565b8152602001906001900390816124d75790505b50905060005b8981101561263b57600061250d6101ca6144a7565b905061251a6101ca6144b5565b61252489826144cb565b6101cc60008a73ffffffffffffffffffffffffffffffffffffffff1673ffffffffffffffffffffffffffffffffffffffff168152602001908152602001600020819080600181540180825580915050600190039060005260206000200160009091909190915055896101ce600083815260200190815260200160002060006101000a81548160ff021916908360ff1602179055507fd5054ba42059be88c66c1a10236e5a0cea44d10897996e6040b6f41c57be134289828c6040516125eb939291906173fc565b60405180910390a160405180604001604052808281526020018b60ff1681525083838151811061261e5761261d616d52565b5b6020026020010181905250508061263490616db5565b90506124f8565b507ff7dd652110ab47a8985ee42eb817b24e6084a902c749934178ddf4795d91e21386868984604051612671949392919061753e565b60405180910390a1505050505050505050565b606060988054612693906167ce565b80601f01602080910402602001604051908101604052809291908181526020018280546126bf906167ce565b801561270c5780601f106126e15761010080835404028352916020019161270c565b820191906000526020600020905b8154815290600101906020018083116126ef57829003601f168201915b5050505050905090565b7fb0a2731da0d1e322a29f18fc41490da7914e8245c4e7d00155b630b2fbe5029361274081613b63565b60008411612783576040517f08c379a000000000000000000000000000000000000000000000000000000000815260040161277a906175d1565b60405180910390fd5b600061278d61440e565b73ffffffffffffffffffffffffffffffffffffffff166386c2b83d30866040518363ffffffff1660e01b81526004016127c792919061721f565b606060405180830381865afa1580156127e4573d6000803e3d6000fd5b505050506040513d601f19601f8201168201806040525081019061280891906172c6565b90506000816020015111612851576040517f08c379a00000000000000000000000000000000000000000000000000000000081526004016128489061733f565b60405180910390fd5b60006101cb60008660ff1660ff1681526020019081526020016000205490506000868261287e9190616d81565b905080836020015110156128c7576040517f08c379a00000000000000000000000000000000000000000000000000000000081526004016128be906173ab565b60405180910390fd5b806101cb60008860ff1660ff16815260200190815260200160002081905550600073ffffffffffffffffffffffffffffffffffffffff168573ffffffffffffffffffffffffffffffffffffffff160361291e573394505b60005b87811015612a2e5760006129366101ca6144a7565b90506129436101ca6144b5565b61294d87826144cb565b6101cc60008873ffffffffffffffffffffffffffffffffffffffff1673ffffffffffffffffffffffffffffffffffffffff168152602001908152602001600020819080600181540180825580915050600190039060005260206000200160009091909190915055876101ce600083815260200190815260200160002060006101000a81548160ff021916908360ff1602179055507fd5054ba42059be88c66c1a10236e5a0cea44d10897996e6040b6f41c57be134287828a604051612a14939291906173fc565b60405180910390a15080612a2790616db5565b9050612921565b5050505050505050565b6000801b81565b612a51612a4a61370a565b83836144e9565b5050565b6101d36020528060005260406000206000915090508054612a75906167ce565b80601f0160208091040260200160405190810160405280929190818152602001828054612aa1906167ce565b8015612aee5780601f10612ac357610100808354040283529160200191612aee565b820191906000526020600020905b815481529060010190602001808311612ad157829003601f168201915b505050505081565b60007fa49807205ce4d355092ef5a8a18f56e8913cf4a201fbe287825b095693c21775612b2281613b63565b6101d460009054906101000a900473ffffffffffffffffffffffffffffffffffffffff1691505090565b612b5461564d565b7fa49807205ce4d355092ef5a8a18f56e8913cf4a201fbe287825b095693c21775612b7e81613b63565b612b8661440e565b73ffffffffffffffffffffffffffffffffffffffff166386c2b83d30856040518363ffffffff1660e01b8152600401612bc092919061721f565b606060405180830381865afa158015612bdd573d6000803e3d6000fd5b505050506040513d601f19601f82011682018060405250810190612c0191906172c6565b915050919050565b7f3c11d16cbaffd01df69ce1c404f6340ee057498f5f00246190ea54220576a848612c3381613b63565b60005b8251811015612c7357612c62838281518110612c5557612c54616d52565b5b6020026020010151614655565b80612c6c90616db5565b9050612c36565b505050565b612c89612c8361370a565b836137cb565b612cc8576040517f08c379a0000000000000000000000000000000000000000000000000000000008152600401612cbf90616995565b60405180910390fd5b612cd48484848461466a565b50505050565b6101c360009054906101000a900473ffffffffffffffffffffffffffffffffffffffff1681565b6000612d0e6101ca6144a7565b905090565b7fa49807205ce4d355092ef5a8a18f56e8913cf4a201fbe287825b095693c21775612d3d81613b63565b73__$afec012158ebc01e771e0b8521b3c90181$__637a17125987878787876040518663ffffffff1660e01b8152600401612d7c9594939291906175f1565b602060405180830381865af4158015612d99573d6000803e3d6000fd5b505050506040513d601f19601f82011682018060405250810190612dbd9190616c51565b50505050505050565b6060612dd061440e565b73ffffffffffffffffffffffffffffffffffffffff1663a0da06b530846040518363ffffffff1660e01b8152600401612e0a929190615acd565b600060405180830381865afa158015612e27573d6000803e3d6000fd5b505050506040513d6000823e3d601f19601f82011682018060405250810190612e5091906176af565b9050919050565b612e60826110eb565b612e6981613b63565b612e738383613c58565b505050565b7fb0a2731da0d1e322a29f18fc41490da7914e8245c4e7d00155b630b2fbe50293612ea281613b63565b816101c7819055505050565b6101d05481565b7fb0a2731da0d1e322a29f18fc41490da7914e8245c4e7d00155b630b2fbe50293612edf81613b63565b816101c6819055505050565b6000609c60008473ffffffffffffffffffffffffffffffffffffffff1673ffffffffffffffffffffffffffffffffffffffff16815260200190815260200160002060008373ffffffffffffffffffffffffffffffffffffffff1673ffffffffffffffffffffffffffffffffffffffff16815260200190815260200160002060009054906101000a900460ff16905092915050565b6101c560009054906101000a900473ffffffffffffffffffffffffffffffffffffffff1681565b6101cc6020528160005260406000208181548110612fc357600080fd5b90600052602060002001600091509150505481565b612fe06142f7565b600073ffffffffffffffffffffffffffffffffffffffff168173ffffffffffffffffffffffffffffffffffffffff160361304f576040517f08c379a00000000000000000000000000000000000000000000000000000000081526004016130469061776a565b60405180910390fd5b6130588161404f565b50565b6000339050836101d260008473ffffffffffffffffffffffffffffffffffffffff1673ffffffffffffffffffffffffffffffffffffffff1681526020019081526020016000205410156130e3576040517f08c379a00000000000000000000000000000000000000000000000000000000081526004016130da906177fc565b60405180910390fd5b6101c754421015613129576040517f08c379a000000000000000000000000000000000000000000000000000000000815260040161312090617868565b60405180910390fd5b6101c85442111561316f576040517f08c379a0000000000000000000000000000000000000000000000000000000008152600401613166906178d4565b60405180910390fd5b60006101cd541115613204576101cd546101cc60008473ffffffffffffffffffffffffffffffffffffffff1673ffffffffffffffffffffffffffffffffffffffff1681526020019081526020016000208054905010613203576040517f08c379a00000000000000000000000000000000000000000000000000000000081526004016131fa90617940565b60405180910390fd5b5b600061320e61440e565b73ffffffffffffffffffffffffffffffffffffffff166386c2b83d30866040518363ffffffff1660e01b815260040161324892919061721f565b606060405180830381865afa158015613265573d6000803e3d6000fd5b505050506040513d601f19601f8201168201806040525081019061328991906172c6565b905060008160200151116132d2576040517f08c379a00000000000000000000000000000000000000000000000000000000081526004016132c99061733f565b60405180910390fd5b60006101cb60008660ff1660ff168152602001908152602001600020549050600086826132ff9190616d81565b90508083602001511015613348576040517f08c379a000000000000000000000000000000000000000000000000000000000815260040161333f906173ab565b60405180910390fd5b600087846040015161335a91906169e4565b90506101c960009054906101000a900473ffffffffffffffffffffffffffffffffffffffff1673ffffffffffffffffffffffffffffffffffffffff166370a08231866040518263ffffffff1660e01b81526004016133b89190615896565b602060405180830381865afa1580156133d5573d6000803e3d6000fd5b505050506040513d601f19601f820116820180604052508101906133f99190616c51565b81111561343b576040517f08c379a0000000000000000000000000000000000000000000000000000000008152600401613432906179d2565b60405180910390fd5b6101c960009054906101000a900473ffffffffffffffffffffffffffffffffffffffff1673ffffffffffffffffffffffffffffffffffffffff166323b872dd866101c560009054906101000a900473ffffffffffffffffffffffffffffffffffffffff16846040518463ffffffff1660e01b81526004016134be939291906179f2565b6020604051808303816000875af11580156134dd573d6000803e3d6000fd5b505050506040513d601f19601f820116820180604052508101906135019190616c93565b50876101d260008873ffffffffffffffffffffffffffffffffffffffff1673ffffffffffffffffffffffffffffffffffffffff16815260200190815260200160002060008282546135529190617a29565b92505081905550876101d1600082825461356c9190616d81565b92505081905550816101cb60008960ff1660ff1681526020019081526020016000208190555060005b888110156136a25760006135aa6101ca6144a7565b90506135b76101ca6144b5565b6135c188826144cb565b6101cc60008973ffffffffffffffffffffffffffffffffffffffff1673ffffffffffffffffffffffffffffffffffffffff168152602001908152602001600020819080600181540180825580915050600190039060005260206000200160009091909190915055886101ce600083815260200190815260200160002060006101000a81548160ff021916908360ff1602179055507fd5054ba42059be88c66c1a10236e5a0cea44d10897996e6040b6f41c57be134288828b604051613688939291906173fc565b60405180910390a1508061369b90616db5565b9050613595565b505050505050505050565b60006136b8826146c6565b9050919050565b6136c881614740565b613707576040517f08c379a00000000000000000000000000000000000000000000000000000000081526004016136fe90616fc3565b60405180910390fd5b50565b600033905090565b81609b600083815260200190815260200160002060006101000a81548173ffffffffffffffffffffffffffffffffffffffff021916908373ffffffffffffffffffffffffffffffffffffffff160217905550808273ffffffffffffffffffffffffffffffffffffffff1661378583611e63565b73ffffffffffffffffffffffffffffffffffffffff167f8c5be1e5ebec7d5bd14f71427d1e84f3dd0314c0f7b2291e5b200ac8c7c3b92560405160405180910390a45050565b6000806137d783611e63565b90508073ffffffffffffffffffffffffffffffffffffffff168473ffffffffffffffffffffffffffffffffffffffff16148061381957506138188185612eeb565b5b8061385757508373ffffffffffffffffffffffffffffffffffffffff1661383f84610f2e565b73ffffffffffffffffffffffffffffffffffffffff16145b91505092915050565b8273ffffffffffffffffffffffffffffffffffffffff1661388082611e63565b73ffffffffffffffffffffffffffffffffffffffff16146138d6576040517f08c379a00000000000000000000000000000000000000000000000000000000081526004016138cd90617acf565b60405180910390fd5b600073ffffffffffffffffffffffffffffffffffffffff168273ffffffffffffffffffffffffffffffffffffffff1603613945576040517f08c379a000000000000000000000000000000000000000000000000000000000815260040161393c90617b61565b60405180910390fd5b6139528383836001614781565b8273ffffffffffffffffffffffffffffffffffffffff1661397282611e63565b73ffffffffffffffffffffffffffffffffffffffff16146139c8576040517f08c379a00000000000000000000000000000000000000000000000000000000081526004016139bf90617acf565b60405180910390fd5b609b600082815260200190815260200160002060006101000a81549073ffffffffffffffffffffffffffffffffffffffff02191690556001609a60008573ffffffffffffffffffffffffffffffffffffffff1673ffffffffffffffffffffffffffffffffffffffff168152602001908152602001600020600082825403925050819055506001609a60008473ffffffffffffffffffffffffffffffffffffffff1673ffffffffffffffffffffffffffffffffffffffff16815260200190815260200160002060008282540192505081905550816099600083815260200190815260200160002060006101000a81548173ffffffffffffffffffffffffffffffffffffffff021916908373ffffffffffffffffffffffffffffffffffffffff160217905550808273ffffffffffffffffffffffffffffffffffffffff168473ffffffffffffffffffffffffffffffffffffffff167fddf252ad1be2c89b69c2b068fc378daa952ba7f163c4a11628f55a4df523b3ef60405160405180910390a4613b5483838360016148a7565b505050565b6000612710905090565b613b7481613b6f61370a565b6148ad565b50565b613b818282612253565b613c5457600160c9600084815260200190815260200160002060000160008373ffffffffffffffffffffffffffffffffffffffff1673ffffffffffffffffffffffffffffffffffffffff16815260200190815260200160002060006101000a81548160ff021916908315150217905550613bf961370a565b73ffffffffffffffffffffffffffffffffffffffff168173ffffffffffffffffffffffffffffffffffffffff16837f2f8788117e7eff1d82e926ec794901d17c78024a50270940304540a733656f0d60405160405180910390a45b5050565b613c628282612253565b15613d3657600060c9600084815260200190815260200160002060000160008373ffffffffffffffffffffffffffffffffffffffff1673ffffffffffffffffffffffffffffffffffffffff16815260200190815260200160002060006101000a81548160ff021916908315150217905550613cdb61370a565b73ffffffffffffffffffffffffffffffffffffffff168173ffffffffffffffffffffffffffffffffffffffff16837ff6391f5c32d9c69d2a47ea670b442974b53935d1edc7fd64eb21e047a839171b60405160405180910390a45b5050565b6000613d687f360894a13ba1a3210667c828492db98dca3e2076cc3735a920a3ca505d382bbc60001b614932565b60000160009054906101000a900473ffffffffffffffffffffffffffffffffffffffff16905090565b7fa49807205ce4d355092ef5a8a18f56e8913cf4a201fbe287825b095693c21775613dbb81613b63565b5050565b613deb7f4910fdfa16fed3260ed0e7147f7cc6da11a60208b5b9406d12a635614ffd914360001b61493c565b60000160009054906101000a900460ff1615613e0f57613e0a83614946565b613f28565b8273ffffffffffffffffffffffffffffffffffffffff166352d1902d6040518163ffffffff1660e01b8152600401602060405180830381865afa925050508015613e7757506040513d601f19601f82011682018060405250810190613e749190617b96565b60015b613eb6576040517f08c379a0000000000000000000000000000000000000000000000000000000008152600401613ead90617c35565b60405180910390fd5b7f360894a13ba1a3210667c828492db98dca3e2076cc3735a920a3ca505d382bbc60001b8114613f1b576040517f08c379a0000000000000000000000000000000000000000000000000000000008152600401613f1290617cc7565b60405180910390fd5b50613f278383836149ff565b5b505050565b6000808273ffffffffffffffffffffffffffffffffffffffff163b119050919050565b600060019054906101000a900460ff16613f9f576040517f08c379a0000000000000000000000000000000000000000000000000000000008152600401613f9690617d59565b60405180910390fd5b613fa98282614a2b565b5050565b600060019054906101000a900460ff16613ffc576040517f08c379a0000000000000000000000000000000000000000000000000000000008152600401613ff390617d59565b60405180910390fd5b565b600060019054906101000a900460ff1661404d576040517f08c379a000000000000000000000000000000000000000000000000000000000815260040161404490617d59565b60405180910390fd5b565b600061019160009054906101000a900473ffffffffffffffffffffffffffffffffffffffff1690508161019160006101000a81548173ffffffffffffffffffffffffffffffffffffffff021916908373ffffffffffffffffffffffffffffffffffffffff1602179055508173ffffffffffffffffffffffffffffffffffffffff168173ffffffffffffffffffffffffffffffffffffffff167f8be0079c531659141344cd1fd0a4f28419497f9722a3daafe3b4186f6b6457e060405160405180910390a35050565b6141218282613b77565b5050565b60006099600083815260200190815260200160002060009054906101000a900473ffffffffffffffffffffffffffffffffffffffff169050919050565b61416a613b59565b6bffffffffffffffffffffffff16816bffffffffffffffffffffffff1611156141c8576040517f08c379a00000000000000000000000000000000000000000000000000000000081526004016141bf90617deb565b60405180910390fd5b600073ffffffffffffffffffffffffffffffffffffffff168273ffffffffffffffffffffffffffffffffffffffff1603614237576040517f08c379a000000000000000000000000000000000000000000000000000000000815260040161422e90617e57565b60405180910390fd5b60405180604001604052808373ffffffffffffffffffffffffffffffffffffffff168152602001826bffffffffffffffffffffffff16815250606560008201518160000160006101000a81548173ffffffffffffffffffffffffffffffffffffffff021916908373ffffffffffffffffffffffffffffffffffffffff16021790555060208201518160000160146101000a8154816bffffffffffffffffffffffff02191690836bffffffffffffffffffffffff1602179055509050505050565b6142ff61370a565b73ffffffffffffffffffffffffffffffffffffffff1661431d612184565b73ffffffffffffffffffffffffffffffffffffffff1614614373576040517f08c379a000000000000000000000000000000000000000000000000000000000815260040161436a90617ec3565b60405180910390fd5b565b60006101d460009054906101000a900473ffffffffffffffffffffffffffffffffffffffff1673ffffffffffffffffffffffffffffffffffffffff166371efede96040518163ffffffff1660e01b8152600401602060405180830381865afa1580156143e5573d6000803e3d6000fd5b505050506040513d601f19601f820116820180604052508101906144099190617ef8565b905090565b60006101d460009054906101000a900473ffffffffffffffffffffffffffffffffffffffff1673ffffffffffffffffffffffffffffffffffffffff16639ee984ba6040518163ffffffff1660e01b8152600401602060405180830381865afa15801561447e573d6000803e3d6000fd5b505050506040513d601f19601f820116820180604052508101906144a29190617ef8565b905090565b600081600001549050919050565b6001816000016000828254019250508190555050565b6144e5828260405180602001604052806000815250614a9e565b5050565b8173ffffffffffffffffffffffffffffffffffffffff168373ffffffffffffffffffffffffffffffffffffffff1603614557576040517f08c379a000000000000000000000000000000000000000000000000000000000815260040161454e90617f71565b60405180910390fd5b80609c60008573ffffffffffffffffffffffffffffffffffffffff1673ffffffffffffffffffffffffffffffffffffffff16815260200190815260200160002060008473ffffffffffffffffffffffffffffffffffffffff1673ffffffffffffffffffffffffffffffffffffffff16815260200190815260200160002060006101000a81548160ff0219169083151502179055508173ffffffffffffffffffffffffffffffffffffffff168373ffffffffffffffffffffffffffffffffffffffff167f17307eab39ab6107e8899845ad3d59bd9653f200f220920489ca2b5937696c31836040516146489190615725565b60405180910390a3505050565b61465e81614af9565b61466781614b0e565b50565b614675848484613860565b61468184848484614b6d565b6146c0576040517f08c379a00000000000000000000000000000000000000000000000000000000081526004016146b790618003565b60405180910390fd5b50505050565b60007f7965db0b000000000000000000000000000000000000000000000000000000007bffffffffffffffffffffffffffffffffffffffffffffffffffffffff1916827bffffffffffffffffffffffffffffffffffffffffffffffffffffffff19161480614739575061473882614cf4565b5b9050919050565b60008073ffffffffffffffffffffffffffffffffffffffff1661476283614125565b73ffffffffffffffffffffffffffffffffffffffff1614159050919050565b60018111156148a157600073ffffffffffffffffffffffffffffffffffffffff168473ffffffffffffffffffffffffffffffffffffffff16146148155780609a60008673ffffffffffffffffffffffffffffffffffffffff1673ffffffffffffffffffffffffffffffffffffffff168152602001908152602001600020600082825461480d9190617a29565b925050819055505b600073ffffffffffffffffffffffffffffffffffffffff168373ffffffffffffffffffffffffffffffffffffffff16146148a05780609a60008573ffffffffffffffffffffffffffffffffffffffff1673ffffffffffffffffffffffffffffffffffffffff16815260200190815260200160002060008282546148989190616d81565b925050819055505b5b50505050565b50505050565b6148b78282612253565b61492e576148c481614dd6565b6148d28360001c6020614e03565b6040516020016148e39291906180f7565b6040516020818303038152906040526040517f08c379a000000000000000000000000000000000000000000000000000000000815260040161492591906157d0565b60405180910390fd5b5050565b6000819050919050565b6000819050919050565b61494f81613f2d565b61498e576040517f08c379a0000000000000000000000000000000000000000000000000000000008152600401614985906181a3565b60405180910390fd5b806149bb7f360894a13ba1a3210667c828492db98dca3e2076cc3735a920a3ca505d382bbc60001b614932565b60000160006101000a81548173ffffffffffffffffffffffffffffffffffffffff021916908373ffffffffffffffffffffffffffffffffffffffff16021790555050565b614a088361503f565b600082511180614a155750805b15614a2657614a24838361508e565b505b505050565b600060019054906101000a900460ff16614a7a576040517f08c379a0000000000000000000000000000000000000000000000000000000008152600401614a7190617d59565b60405180910390fd5b8160979081614a899190618365565b508060989081614a999190618365565b505050565b614aa88383615172565b614ab56000848484614b6d565b614af4576040517f08c379a0000000000000000000000000000000000000000000000000000000008152600401614aeb90618003565b60405180910390fd5b505050565b614b028161538f565b614b0b81614b0e565b50565b60666000828152602001908152602001600020600080820160006101000a81549073ffffffffffffffffffffffffffffffffffffffff02191690556000820160146101000a8154906bffffffffffffffffffffffff0219169055505050565b6000614b8e8473ffffffffffffffffffffffffffffffffffffffff16613f2d565b15614ce7578373ffffffffffffffffffffffffffffffffffffffff1663150b7a02614bb761370a565b8786866040518563ffffffff1660e01b8152600401614bd9949392919061848c565b6020604051808303816000875af1925050508015614c1557506040513d601f19601f82011682018060405250810190614c1291906184ed565b60015b614c97573d8060008114614c45576040519150601f19603f3d011682016040523d82523d6000602084013e614c4a565b606091505b506000815103614c8f576040517f08c379a0000000000000000000000000000000000000000000000000000000008152600401614c8690618003565b60405180910390fd5b805181602001fd5b63150b7a0260e01b7bffffffffffffffffffffffffffffffffffffffffffffffffffffffff1916817bffffffffffffffffffffffffffffffffffffffffffffffffffffffff191614915050614cec565b600190505b949350505050565b60007f80ac58cd000000000000000000000000000000000000000000000000000000007bffffffffffffffffffffffffffffffffffffffffffffffffffffffff1916827bffffffffffffffffffffffffffffffffffffffffffffffffffffffff19161480614dbf57507f5b5e139f000000000000000000000000000000000000000000000000000000007bffffffffffffffffffffffffffffffffffffffffffffffffffffffff1916827bffffffffffffffffffffffffffffffffffffffffffffffffffffffff1916145b80614dcf5750614dce826154dd565b5b9050919050565b6060614dfc8273ffffffffffffffffffffffffffffffffffffffff16601460ff16614e03565b9050919050565b606060006002836002614e1691906169e4565b614e209190616d81565b67ffffffffffffffff811115614e3957614e38615c2c565b5b6040519080825280601f01601f191660200182016040528015614e6b5781602001600182028036833780820191505090505b5090507f300000000000000000000000000000000000000000000000000000000000000081600081518110614ea357614ea2616d52565b5b60200101907effffffffffffffffffffffffffffffffffffffffffffffffffffffffffffff1916908160001a9053507f780000000000000000000000000000000000000000000000000000000000000081600181518110614f0757614f06616d52565b5b60200101907effffffffffffffffffffffffffffffffffffffffffffffffffffffffffffff1916908160001a90535060006001846002614f4791906169e4565b614f519190616d81565b90505b6001811115614ff1577f3031323334353637383961626364656600000000000000000000000000000000600f861660108110614f9357614f92616d52565b5b1a60f81b828281518110614faa57614fa9616d52565b5b60200101907effffffffffffffffffffffffffffffffffffffffffffffffffffffffffffff1916908160001a905350600485901c945080614fea9061851a565b9050614f54565b5060008414615035576040517f08c379a000000000000000000000000000000000000000000000000000000000815260040161502c9061858f565b60405180910390fd5b8091505092915050565b61504881614946565b8073ffffffffffffffffffffffffffffffffffffffff167fbc7cd75a20ee27fd9adebab32041f755214dbc6bffa90cc0225b39da2e5c2d3b60405160405180910390a250565b606061509983613f2d565b6150d8576040517f08c379a00000000000000000000000000000000000000000000000000000000081526004016150cf90618621565b60405180910390fd5b6000808473ffffffffffffffffffffffffffffffffffffffff1684604051615100919061867d565b600060405180830381855af49150503d806000811461513b576040519150601f19603f3d011682016040523d82523d6000602084013e615140565b606091505b5091509150615168828260405180606001604052806027815260200161876d60279139615557565b9250505092915050565b600073ffffffffffffffffffffffffffffffffffffffff168273ffffffffffffffffffffffffffffffffffffffff16036151e1576040517f08c379a00000000000000000000000000000000000000000000000000000000081526004016151d8906186e0565b60405180910390fd5b6151ea81614740565b1561522a576040517f08c379a00000000000000000000000000000000000000000000000000000000081526004016152219061874c565b60405180910390fd5b615238600083836001614781565b61524181614740565b15615281576040517f08c379a00000000000000000000000000000000000000000000000000000000081526004016152789061874c565b60405180910390fd5b6001609a60008473ffffffffffffffffffffffffffffffffffffffff1673ffffffffffffffffffffffffffffffffffffffff16815260200190815260200160002060008282540192505081905550816099600083815260200190815260200160002060006101000a81548173ffffffffffffffffffffffffffffffffffffffff021916908373ffffffffffffffffffffffffffffffffffffffff160217905550808273ffffffffffffffffffffffffffffffffffffffff16600073ffffffffffffffffffffffffffffffffffffffff167fddf252ad1be2c89b69c2b068fc378daa952ba7f163c4a11628f55a4df523b3ef60405160405180910390a461538b6000838360016148a7565b5050565b600061539a82611e63565b90506153aa816000846001614781565b6153b382611e63565b9050609b600083815260200190815260200160002060006101000a81549073ffffffffffffffffffffffffffffffffffffffff02191690556001609a60008373ffffffffffffffffffffffffffffffffffffffff1673ffffffffffffffffffffffffffffffffffffffff168152602001908152602001600020600082825403925050819055506099600083815260200190815260200160002060006101000a81549073ffffffffffffffffffffffffffffffffffffffff021916905581600073ffffffffffffffffffffffffffffffffffffffff168273ffffffffffffffffffffffffffffffffffffffff167fddf252ad1be2c89b69c2b068fc378daa952ba7f163c4a11628f55a4df523b3ef60405160405180910390a46154d98160008460016148a7565b5050565b60007f2a55205a000000000000000000000000000000000000000000000000000000007bffffffffffffffffffffffffffffffffffffffffffffffffffffffff1916827bffffffffffffffffffffffffffffffffffffffffffffffffffffffff19161480615550575061554f82615579565b5b9050919050565b6060831561556757829050615572565b61557183836155e3565b5b9392505050565b60007f01ffc9a7000000000000000000000000000000000000000000000000000000007bffffffffffffffffffffffffffffffffffffffffffffffffffffffff1916827bffffffffffffffffffffffffffffffffffffffffffffffffffffffff1916149050919050565b6000825111156155f65781518083602001fd5b806040517f08c379a000000000000000000000000000000000000000000000000000000000815260040161562a91906157d0565b60405180910390fd5b604051806040016040528060008152602001600081525090565b6040518060600160405280600060ff16815260200160008152602001600081525090565b6000604051905090565b600080fd5b600080fd5b60007fffffffff0000000000000000000000000000000000000000000000000000000082169050919050565b6156ba81615685565b81146156c557600080fd5b50565b6000813590506156d7816156b1565b92915050565b6000602082840312156156f3576156f261567b565b5b6000615701848285016156c8565b91505092915050565b60008115159050919050565b61571f8161570a565b82525050565b600060208201905061573a6000830184615716565b92915050565b600081519050919050565b600082825260208201905092915050565b60005b8381101561577a57808201518184015260208101905061575f565b60008484015250505050565b6000601f19601f8301169050919050565b60006157a282615740565b6157ac818561574b565b93506157bc81856020860161575c565b6157c581615786565b840191505092915050565b600060208201905081810360008301526157ea8184615797565b905092915050565b6000819050919050565b615805816157f2565b811461581057600080fd5b50565b600081359050615822816157fc565b92915050565b60006020828403121561583e5761583d61567b565b5b600061584c84828501615813565b91505092915050565b600073ffffffffffffffffffffffffffffffffffffffff82169050919050565b600061588082615855565b9050919050565b61589081615875565b82525050565b60006020820190506158ab6000830184615887565b92915050565b6158ba81615875565b81146158c557600080fd5b50565b6000813590506158d7816158b1565b92915050565b600080604083850312156158f4576158f361567b565b5b6000615902858286016158c8565b925050602061591385828601615813565b9150509250929050565b6000806000606084860312156159365761593561567b565b5b6000615944868287016158c8565b9350506020615955868287016158c8565b925050604061596686828701615813565b9150509250925092565b6000819050919050565b61598381615970565b811461598e57600080fd5b50565b6000813590506159a08161597a565b92915050565b6000602082840312156159bc576159bb61567b565b5b60006159ca84828501615991565b91505092915050565b6159dc81615970565b82525050565b60006020820190506159f760008301846159d3565b92915050565b600060ff82169050919050565b615a13816159fd565b8114615a1e57600080fd5b50565b600081359050615a3081615a0a565b92915050565b600060208284031215615a4c57615a4b61567b565b5b6000615a5a84828501615a21565b91505092915050565b615a6c816157f2565b82525050565b6000602082019050615a876000830184615a63565b92915050565b60008060408385031215615aa457615aa361567b565b5b6000615ab285828601615813565b9250506020615ac385828601615813565b9150509250929050565b6000604082019050615ae26000830185615887565b615aef6020830184615a63565b9392505050565b600060208284031215615b0c57615b0b61567b565b5b6000615b1a848285016158c8565b91505092915050565b60008060408385031215615b3a57615b3961567b565b5b6000615b4885828601615991565b9250506020615b59858286016158c8565b9150509250929050565b6000615b6e82615875565b9050919050565b615b7e81615b63565b8114615b8957600080fd5b50565b600081359050615b9b81615b75565b92915050565b600060208284031215615bb757615bb661567b565b5b6000615bc584828501615b8c565b91505092915050565b615bd78161570a565b8114615be257600080fd5b50565b600081359050615bf481615bce565b92915050565b600060208284031215615c1057615c0f61567b565b5b6000615c1e84828501615be5565b91505092915050565b600080fd5b7f4e487b7100000000000000000000000000000000000000000000000000000000600052604160045260246000fd5b615c6482615786565b810181811067ffffffffffffffff82111715615c8357615c82615c2c565b5b80604052505050565b6000615c96615671565b9050615ca28282615c5b565b919050565b600067ffffffffffffffff821115615cc257615cc1615c2c565b5b602082029050602081019050919050565b600080fd5b6000615ceb615ce684615ca7565b615c8c565b90508083825260208201905060208402830185811115615d0e57615d0d615cd3565b5b835b81811015615d375780615d2388826158c8565b845260208401935050602081019050615d10565b5050509392505050565b600082601f830112615d5657615d55615c27565b5b8135615d66848260208601615cd8565b91505092915050565b600067ffffffffffffffff821115615d8a57615d89615c2c565b5b602082029050602081019050919050565b6000615dae615da984615d6f565b615c8c565b90508083825260208201905060208402830185811115615dd157615dd0615cd3565b5b835b81811015615dfa5780615de68882615813565b845260208401935050602081019050615dd3565b5050509392505050565b600082601f830112615e1957615e18615c27565b5b8135615e29848260208601615d9b565b91505092915050565b60008060408385031215615e4957615e4861567b565b5b600083013567ffffffffffffffff811115615e6757615e66615680565b5b615e7385828601615d41565b925050602083013567ffffffffffffffff811115615e9457615e93615680565b5b615ea085828601615e04565b9150509250929050565b600080fd5b600067ffffffffffffffff821115615eca57615ec9615c2c565b5b615ed382615786565b9050602081019050919050565b82818337600083830152505050565b6000615f02615efd84615eaf565b615c8c565b905082815260208101848484011115615f1e57615f1d615eaa565b5b615f29848285615ee0565b509392505050565b600082601f830112615f4657615f45615c27565b5b8135615f56848260208601615eef565b91505092915050565b60008060408385031215615f7657615f7561567b565b5b6000615f84858286016158c8565b925050602083013567ffffffffffffffff811115615fa557615fa4615680565b5b615fb185828601615f31565b9150509250929050565b600067ffffffffffffffff821115615fd657615fd5615c2c565b5b615fdf82615786565b9050602081019050919050565b6000615fff615ffa84615fbb565b615c8c565b90508281526020810184848401111561601b5761601a615eaa565b5b616026848285615ee0565b509392505050565b600082601f83011261604357616042615c27565b5b8135616053848260208601615fec565b91505092915050565b600080600080600080600060e0888a03121561607b5761607a61567b565b5b60006160898a828b016158c8565b975050602061609a8a828b016158c8565b96505060406160ab8a828b01615b8c565b955050606088013567ffffffffffffffff8111156160cc576160cb615680565b5b6160d88a828b0161602e565b945050608088013567ffffffffffffffff8111156160f9576160f8615680565b5b6161058a828b0161602e565b93505060a06161168a828b016158c8565b92505060c06161278a828b016158c8565b91505092959891949750929550565b6000819050919050565b600061615b61615661615184615855565b616136565b615855565b9050919050565b600061616d82616140565b9050919050565b600061617f82616162565b9050919050565b61618f81616174565b82525050565b60006020820190506161aa6000830184616186565b92915050565b600081519050919050565b600082825260208201905092915050565b6000819050602082019050919050565b6161e5816157f2565b82525050565b60006161f783836161dc565b60208301905092915050565b6000602082019050919050565b600061621b826161b0565b61622581856161bb565b9350616230836161cc565b8060005b8381101561626157815161624888826161eb565b975061625383616203565b925050600181019050616234565b5085935050505092915050565b600060208201905081810360008301526162888184616210565b905092915050565b60006bffffffffffffffffffffffff82169050919050565b6162b181616290565b81146162bc57600080fd5b50565b6000813590506162ce816162a8565b92915050565b600080604083850312156162eb576162ea61567b565b5b60006162f9858286016158c8565b925050602061630a858286016162bf565b9150509250929050565b600080fd5b60008083601f84011261632f5761632e615c27565b5b8235905067ffffffffffffffff81111561634c5761634b616314565b5b60208301915083600182028301111561636857616367615cd3565b5b9250929050565b6002811061637c57600080fd5b50565b60008135905061638e8161636f565b92915050565b60008060008060008060a087890312156163b1576163b061567b565b5b60006163bf89828a016158c8565b96505060206163d089828a01615813565b95505060406163e189828a01615813565b945050606087013567ffffffffffffffff81111561640257616401615680565b5b61640e89828a01616319565b9350935050608061642189828a0161637f565b9150509295509295509295565b60008083601f84011261644457616443615c27565b5b8235905067ffffffffffffffff81111561646157616460616314565b5b60208301915083600182028301111561647d5761647c615cd3565b5b9250929050565b6000806000806000608086880312156164a05761649f61567b565b5b60006164ae88828901615813565b95505060206164bf88828901615a21565b94505060406164d0888289016158c8565b935050606086013567ffffffffffffffff8111156164f1576164f0615680565b5b6164fd8882890161642e565b92509250509295509295909350565b6000806000606084860312156165255761652461567b565b5b600061653386828701615813565b935050602061654486828701615a21565b9250506040616555868287016158c8565b9150509250925092565b600080604083850312156165765761657561567b565b5b6000616584858286016158c8565b925050602061659585828601615be5565b9150509250929050565b6165a8816159fd565b82525050565b6060820160008201516165c4600085018261659f565b5060208201516165d760208501826161dc565b5060408201516165ea60408501826161dc565b50505050565b600060608201905061660560008301846165ae565b92915050565b6000602082840312156166215761662061567b565b5b600082013567ffffffffffffffff81111561663f5761663e615680565b5b61664b84828501615e04565b91505092915050565b6000806000806080858703121561666e5761666d61567b565b5b600061667c878288016158c8565b945050602061668d878288016158c8565b935050604061669e87828801615813565b925050606085013567ffffffffffffffff8111156166bf576166be615680565b5b6166cb87828801615f31565b91505092959194509250565b6000806000806000608086880312156166f3576166f261567b565b5b6000616701888289016158c8565b955050602061671288828901615813565b945050604086013567ffffffffffffffff81111561673357616732615680565b5b61673f88828901616319565b935093505060606167528882890161637f565b9150509295509295909350565b600080604083850312156167765761677561567b565b5b6000616784858286016158c8565b9250506020616795858286016158c8565b9150509250929050565b7f4e487b7100000000000000000000000000000000000000000000000000000000600052602260045260246000fd5b600060028204905060018216806167e657607f821691505b6020821081036167f9576167f861679f565b5b50919050565b7f4552433732313a20617070726f76616c20746f2063757272656e74206f776e6560008201527f7200000000000000000000000000000000000000000000000000000000000000602082015250565b600061685b60218361574b565b9150616866826167ff565b604082019050919050565b6000602082019050818103600083015261688a8161684e565b9050919050565b7f4552433732313a20617070726f76652063616c6c6572206973206e6f7420746f60008201527f6b656e206f776e6572206f7220617070726f76656420666f7220616c6c000000602082015250565b60006168ed603d8361574b565b91506168f882616891565b604082019050919050565b6000602082019050818103600083015261691c816168e0565b9050919050565b7f4552433732313a2063616c6c6572206973206e6f7420746f6b656e206f776e6560008201527f72206f7220617070726f76656400000000000000000000000000000000000000602082015250565b600061697f602d8361574b565b915061698a82616923565b604082019050919050565b600060208201905081810360008301526169ae81616972565b9050919050565b7f4e487b7100000000000000000000000000000000000000000000000000000000600052601160045260246000fd5b60006169ef826157f2565b91506169fa836157f2565b9250828202616a08816157f2565b91508282048414831517616a1f57616a1e6169b5565b5b5092915050565b7f4e487b7100000000000000000000000000000000000000000000000000000000600052601260045260246000fd5b6000616a60826157f2565b9150616a6b836157f2565b925082616a7b57616a7a616a26565b5b828204905092915050565b7f416363657373436f6e74726f6c3a2063616e206f6e6c792072656e6f756e636560008201527f20726f6c657320666f722073656c660000000000000000000000000000000000602082015250565b6000616ae2602f8361574b565b9150616aed82616a86565b604082019050919050565b60006020820190508181036000830152616b1181616ad5565b9050919050565b7f46756e6374696f6e206d7573742062652063616c6c6564207468726f7567682060008201527f64656c656761746563616c6c0000000000000000000000000000000000000000602082015250565b6000616b74602c8361574b565b9150616b7f82616b18565b604082019050919050565b60006020820190508181036000830152616ba381616b67565b9050919050565b7f46756e6374696f6e206d7573742062652063616c6c6564207468726f7567682060008201527f6163746976652070726f78790000000000000000000000000000000000000000602082015250565b6000616c06602c8361574b565b9150616c1182616baa565b604082019050919050565b60006020820190508181036000830152616c3581616bf9565b9050919050565b600081519050616c4b816157fc565b92915050565b600060208284031215616c6757616c6661567b565b5b6000616c7584828501616c3c565b91505092915050565b600081519050616c8d81615bce565b92915050565b600060208284031215616ca957616ca861567b565b5b6000616cb784828501616c7e565b91505092915050565b7f57686974656c69737420616e642062757961626c6520616d6f756e74206c697360008201527f74206d7573742062652073616d65206c656e6774680000000000000000000000602082015250565b6000616d1c60358361574b565b9150616d2782616cc0565b604082019050919050565b60006020820190508181036000830152616d4b81616d0f565b9050919050565b7f4e487b7100000000000000000000000000000000000000000000000000000000600052603260045260246000fd5b6000616d8c826157f2565b9150616d97836157f2565b9250828201905080821115616daf57616dae6169b5565b5b92915050565b6000616dc0826157f2565b91507fffffffffffffffffffffffffffffffffffffffffffffffffffffffffffffffff8203616df257616df16169b5565b5b600182019050919050565b7f555550535570677261646561626c653a206d757374206e6f742062652063616c60008201527f6c6564207468726f7567682064656c656761746563616c6c0000000000000000602082015250565b6000616e5960388361574b565b9150616e6482616dfd565b604082019050919050565b60006020820190508181036000830152616e8881616e4c565b9050919050565b7f496e697469616c697a61626c653a20636f6e747261637420697320616c72656160008201527f647920696e697469616c697a6564000000000000000000000000000000000000602082015250565b6000616eeb602e8361574b565b9150616ef682616e8f565b604082019050919050565b60006020820190508181036000830152616f1a81616ede565b9050919050565b6000819050919050565b6000616f46616f41616f3c84616f21565b616136565b6159fd565b9050919050565b616f5681616f2b565b82525050565b6000602082019050616f716000830184616f4d565b92915050565b7f4552433732313a20696e76616c696420746f6b656e2049440000000000000000600082015250565b6000616fad60188361574b565b9150616fb882616f77565b602082019050919050565b60006020820190508181036000830152616fdc81616fa0565b9050919050565b7f4552433732313a2061646472657373207a65726f206973206e6f74206120766160008201527f6c6964206f776e65720000000000000000000000000000000000000000000000602082015250565b600061703f60298361574b565b915061704a82616fe3565b604082019050919050565b6000602082019050818103600083015261706e81617032565b9050919050565b61707e81615875565b82525050565b61708d816157f2565b82525050565b600082825260208201905092915050565b60006170b08385617093565b93506170bd838584615ee0565b6170c683615786565b840190509392505050565b7f4e487b7100000000000000000000000000000000000000000000000000000000600052602160045260246000fd5b60028110617111576171106170d1565b5b50565b600081905061712282617100565b919050565b600061713282617114565b9050919050565b61714281617127565b82525050565b600060a08201905061715d6000830189617075565b61716a6020830188617084565b6171776040830187617084565b818103606083015261718a8185876170a4565b90506171996080830184617139565b979650505050505050565b7f4e6f742062652063616c6c65642066726f6d20446161702043726561746f7200600082015250565b60006171da601f8361574b565b91506171e5826171a4565b602082019050919050565b60006020820190508181036000830152617209816171cd565b9050919050565b617219816159fd565b82525050565b60006040820190506172346000830185615887565b6172416020830184617210565b9392505050565b600080fd5b60008151905061725c81615a0a565b92915050565b60006060828403121561727857617277617248565b5b6172826060615c8c565b905060006172928482850161724d565b60008301525060206172a684828501616c3c565b60208301525060406172ba84828501616c3c565b60408301525092915050565b6000606082840312156172dc576172db61567b565b5b60006172ea84828501617262565b91505092915050565b7f546f6b656e207479706520646f6573206e6f7420657869737400000000000000600082015250565b600061732960198361574b565b9150617334826172f3565b602082019050919050565b600060208201905081810360008301526173588161731c565b9050919050565b7f4e4654207479706520736f6c64206f7574000000000000000000000000000000600082015250565b600061739560118361574b565b91506173a08261735f565b602082019050919050565b600060208201905081810360008301526173c481617388565b9050919050565b60006173e66173e16173dc846159fd565b616136565b6157f2565b9050919050565b6173f6816173cb565b82525050565b60006060820190506174116000830186615887565b61741e6020830185615a63565b61742b60408301846173ed565b949350505050565b600061743f838561574b565b935061744c838584615ee0565b61745583615786565b840190509392505050565b600081519050919050565b600082825260208201905092915050565b6000819050602082019050919050565b6040820160008201516174a260008501826161dc565b5060208201516174b560208501826161dc565b50505050565b60006174c7838361748c565b60408301905092915050565b6000602082019050919050565b60006174eb82617460565b6174f5818561746b565b93506175008361747c565b8060005b8381101561753157815161751888826174bb565b9750617523836174d3565b925050600181019050617504565b5085935050505092915050565b60006060820190508181036000830152617559818688617433565b90506175686020830185615887565b818103604083015261757a81846174e0565b905095945050505050565b7f4e6f20746f6b656e20746f206d696e7400000000000000000000000000000000600082015250565b60006175bb60108361574b565b91506175c682617585565b602082019050919050565b600060208201905081810360008301526175ea816175ae565b9050919050565b60006080820190506176066000830188617075565b6176136020830187617084565b81810360408301526176268185876170a4565b90506176356060830184617139565b9695505050505050565b600061765261764d84615fbb565b615c8c565b90508281526020810184848401111561766e5761766d615eaa565b5b61767984828561575c565b509392505050565b600082601f83011261769657617695615c27565b5b81516176a684826020860161763f565b91505092915050565b6000602082840312156176c5576176c461567b565b5b600082015167ffffffffffffffff8111156176e3576176e2615680565b5b6176ef84828501617681565b91505092915050565b7f4f776e61626c653a206e6577206f776e657220697320746865207a65726f206160008201527f6464726573730000000000000000000000000000000000000000000000000000602082015250565b600061775460268361574b565b915061775f826176f8565b604082019050919050565b6000602082019050818103600083015261778381617747565b9050919050565b7f55736572206e6f7420696e2077686974656c697374206f72206c696d6974207260008201527f6561636865640000000000000000000000000000000000000000000000000000602082015250565b60006177e660268361574b565b91506177f18261778a565b604082019050919050565b60006020820190508181036000830152617815816177d9565b9050919050565b7f49742773206e6f742074696d6520746f20627579207075626c69632073616c65600082015250565b600061785260208361574b565b915061785d8261781c565b602082019050919050565b6000602082019050818103600083015261788181617845565b9050919050565b7f49742773206e6f742074696d6520746f20627579000000000000000000000000600082015250565b60006178be60148361574b565b91506178c982617888565b602082019050919050565b600060208201905081810360008301526178ed816178b1565b9050919050565b7f427579206c696d69742072656163686564000000000000000000000000000000600082015250565b600061792a60118361574b565b9150617935826178f4565b602082019050919050565b600060208201905081810360008301526179598161791d565b9050919050565b7f55736572206e65656420686f6c6420656e6f75676820546f6b656e20746f206260008201527f75792074686973206e6674000000000000000000000000000000000000000000602082015250565b60006179bc602b8361574b565b91506179c782617960565b604082019050919050565b600060208201905081810360008301526179eb816179af565b9050919050565b6000606082019050617a076000830186615887565b617a146020830185615887565b617a216040830184615a63565b949350505050565b6000617a34826157f2565b9150617a3f836157f2565b9250828203905081811115617a5757617a566169b5565b5b92915050565b7f4552433732313a207472616e736665722066726f6d20696e636f72726563742060008201527f6f776e6572000000000000000000000000000000000000000000000000000000602082015250565b6000617ab960258361574b565b9150617ac482617a5d565b604082019050919050565b60006020820190508181036000830152617ae881617aac565b9050919050565b7f4552433732313a207472616e7366657220746f20746865207a65726f2061646460008201527f7265737300000000000000000000000000000000000000000000000000000000602082015250565b6000617b4b60248361574b565b9150617b5682617aef565b604082019050919050565b60006020820190508181036000830152617b7a81617b3e565b9050919050565b600081519050617b908161597a565b92915050565b600060208284031215617bac57617bab61567b565b5b6000617bba84828501617b81565b91505092915050565b7f45524331393637557067726164653a206e657720696d706c656d656e7461746960008201527f6f6e206973206e6f742055555053000000000000000000000000000000000000602082015250565b6000617c1f602e8361574b565b9150617c2a82617bc3565b604082019050919050565b60006020820190508181036000830152617c4e81617c12565b9050919050565b7f45524331393637557067726164653a20756e737570706f727465642070726f7860008201527f6961626c65555549440000000000000000000000000000000000000000000000602082015250565b6000617cb160298361574b565b9150617cbc82617c55565b604082019050919050565b60006020820190508181036000830152617ce081617ca4565b9050919050565b7f496e697469616c697a61626c653a20636f6e7472616374206973206e6f74206960008201527f6e697469616c697a696e67000000000000000000000000000000000000000000602082015250565b6000617d43602b8361574b565b9150617d4e82617ce7565b604082019050919050565b60006020820190508181036000830152617d7281617d36565b9050919050565b7f455243323938313a20726f79616c7479206665652077696c6c2065786365656460008201527f2073616c65507269636500000000000000000000000000000000000000000000602082015250565b6000617dd5602a8361574b565b9150617de082617d79565b604082019050919050565b60006020820190508181036000830152617e0481617dc8565b9050919050565b7f455243323938313a20696e76616c696420726563656976657200000000000000600082015250565b6000617e4160198361574b565b9150617e4c82617e0b565b602082019050919050565b60006020820190508181036000830152617e7081617e34565b9050919050565b7f4f776e61626c653a2063616c6c6572206973206e6f7420746865206f776e6572600082015250565b6000617ead60208361574b565b9150617eb882617e77565b602082019050919050565b60006020820190508181036000830152617edc81617ea0565b9050919050565b600081519050617ef2816158b1565b92915050565b600060208284031215617f0e57617f0d61567b565b5b6000617f1c84828501617ee3565b91505092915050565b7f4552433732313a20617070726f766520746f2063616c6c657200000000000000600082015250565b6000617f5b60198361574b565b9150617f6682617f25565b602082019050919050565b60006020820190508181036000830152617f8a81617f4e565b9050919050565b7f4552433732313a207472616e7366657220746f206e6f6e20455243373231526560008201527f63656976657220696d706c656d656e7465720000000000000000000000000000602082015250565b6000617fed60328361574b565b9150617ff882617f91565b604082019050919050565b6000602082019050818103600083015261801c81617fe0565b9050919050565b600081905092915050565b7f416363657373436f6e74726f6c3a206163636f756e7420000000000000000000600082015250565b6000618064601783618023565b915061806f8261802e565b601782019050919050565b600061808582615740565b61808f8185618023565b935061809f81856020860161575c565b80840191505092915050565b7f206973206d697373696e6720726f6c6520000000000000000000000000000000600082015250565b60006180e1601183618023565b91506180ec826180ab565b601182019050919050565b600061810282618057565b915061810e828561807a565b9150618119826180d4565b9150618125828461807a565b91508190509392505050565b7f455243313936373a206e657720696d706c656d656e746174696f6e206973206e60008201527f6f74206120636f6e747261637400000000000000000000000000000000000000602082015250565b600061818d602d8361574b565b915061819882618131565b604082019050919050565b600060208201905081810360008301526181bc81618180565b9050919050565b60008190508160005260206000209050919050565b60006020601f8301049050919050565b600082821b905092915050565b6000600883026182257fffffffffffffffffffffffffffffffffffffffffffffffffffffffffffffffff826181e8565b61822f86836181e8565b95508019841693508086168417925050509392505050565b600061826261825d618258846157f2565b616136565b6157f2565b9050919050565b6000819050919050565b61827c83618247565b61829061828882618269565b8484546181f5565b825550505050565b600090565b6182a5618298565b6182b0818484618273565b505050565b5b818110156182d4576182c960008261829d565b6001810190506182b6565b5050565b601f821115618319576182ea816181c3565b6182f3846181d8565b81016020851015618302578190505b61831661830e856181d8565b8301826182b5565b50505b505050565b600082821c905092915050565b600061833c6000198460080261831e565b1980831691505092915050565b6000618355838361832b565b9150826002028217905092915050565b61836e82615740565b67ffffffffffffffff81111561838757618386615c2c565b5b61839182546167ce565b61839c8282856182d8565b600060209050601f8311600181146183cf57600084156183bd578287015190505b6183c78582618349565b86555061842f565b601f1984166183dd866181c3565b60005b82811015618405578489015182556001820191506020850194506020810190506183e0565b86831015618422578489015161841e601f89168261832b565b8355505b6001600288020188555050505b505050505050565b600081519050919050565b600082825260208201905092915050565b600061845e82618437565b6184688185618442565b935061847881856020860161575c565b61848181615786565b840191505092915050565b60006080820190506184a16000830187615887565b6184ae6020830186615887565b6184bb6040830185615a63565b81810360608301526184cd8184618453565b905095945050505050565b6000815190506184e7816156b1565b92915050565b6000602082840312156185035761850261567b565b5b6000618511848285016184d8565b91505092915050565b6000618525826157f2565b915060008203618538576185376169b5565b5b600182039050919050565b7f537472696e67733a20686578206c656e67746820696e73756666696369656e74600082015250565b600061857960208361574b565b915061858482618543565b602082019050919050565b600060208201905081810360008301526185a88161856c565b9050919050565b7f416464726573733a2064656c65676174652063616c6c20746f206e6f6e2d636f60008201527f6e74726163740000000000000000000000000000000000000000000000000000602082015250565b600061860b60268361574b565b9150618616826185af565b604082019050919050565b6000602082019050818103600083015261863a816185fe565b9050919050565b600081905092915050565b600061865782618437565b6186618185618641565b935061867181856020860161575c565b80840191505092915050565b6000618689828461864c565b915081905092915050565b7f4552433732313a206d696e7420746f20746865207a65726f2061646472657373600082015250565b60006186ca60208361574b565b91506186d582618694565b602082019050919050565b600060208201905081810360008301526186f9816186bd565b9050919050565b7f4552433732313a20746f6b656e20616c7265616479206d696e74656400000000600082015250565b6000618736601c8361574b565b915061874182618700565b602082019050919050565b6000602082019050818103600083015261876581618729565b905091905056fe416464726573733a206c6f772d6c6576656c2064656c65676174652063616c6c206661696c6564a264697066735822122015c205aec95127e4d34e4d5215f3112a4465b5a00792fef70ffad8efcd6dee6d64736f6c6343000812003360a06040523073ffffffffffffffffffffffffffffffffffffffff1660809073ffffffffffffffffffffffffffffffffffffffff168152503480156200004457600080fd5b50608051618ee36200007d60003960008181610e6901528181610ef701528181611323015281816113b1015261171c0152618ee36000f3fe6080604052600436106102715760003560e01c80638033491c1161014f578063c2c04ae2116100c1578063e985e9c51161007a578063e985e9c514610970578063f242432a146109ad578063f2fde38b146109d6578063f4ce2032146109ff578063fc314e3114610a2a578063ffa0a02a14610a6b57610271565b8063c2c04ae214610852578063c4ca3a9c1461088f578063d3bb24ae146108b8578063d547741f146108f5578063db8cc8fa1461091e578063e2f039471461094757610271565b806395d89b411161011357806395d89b4114610744578063a217fddf1461076f578063a22cb4651461079a578063a76e0db2146107c3578063afb30f3e14610800578063c0f1c4841461082957610271565b80638033491c1461065f578063835217a5146106885780638da5cb5b146106b35780638f0b7b68146106de57806391d148541461070757610271565b806342db9ca6116101e857806352d1902d116101ac57806352d1902d146105615780635642800c1461058c57806358797cb6146105cb578063715018a6146105f657806372f123441461060d578063762141401461063657610271565b806342db9ca61461047957806349d19648146104a25780634e1273f4146104cb5780634f1ef2861461050857806351d5b0141461052457610271565b80632eb2c2d61161023a5780632eb2c2d6146103955780632ee4aa31146103be5780632f2ff15d146103e757806336568abe146104105780633659cfe6146104395780633ccfd60b1461046257610271565b8062fdd58e1461027657806301ffc9a7146102b357806306fdde03146102f05780630e89341c1461031b578063248a9ca314610358575b600080fd5b34801561028257600080fd5b5061029d60048036038101906102989190615b19565b610a94565b6040516102aa9190615b68565b60405180910390f35b3480156102bf57600080fd5b506102da60048036038101906102d59190615bdb565b610b5d565b6040516102e79190615c23565b60405180910390f35b3480156102fc57600080fd5b50610305610b6f565b6040516103129190615cce565b60405180910390f35b34801561032757600080fd5b50610342600480360381019061033d9190615cf0565b610bfe565b60405161034f9190615cce565b60405180910390f35b34801561036457600080fd5b5061037f600480360381019061037a9190615d53565b610c92565b60405161038c9190615d8f565b60405180910390f35b3480156103a157600080fd5b506103bc60048036038101906103b79190615fa7565b610cb2565b005b3480156103ca57600080fd5b506103e560048036038101906103e09190616076565b610d53565b005b3480156103f357600080fd5b5061040e600480360381019061040991906160a3565b610dc3565b005b34801561041c57600080fd5b50610437600480360381019061043291906160a3565b610de4565b005b34801561044557600080fd5b50610460600480360381019061045b9190616076565b610e67565b005b34801561046e57600080fd5b50610477610fef565b005b34801561048557600080fd5b506104a0600480360381019061049b919061610f565b61113d565b005b3480156104ae57600080fd5b506104c960048036038101906104c4919061618d565b611198565b005b3480156104d757600080fd5b506104f260048036038101906104ed919061627d565b611208565b6040516104ff91906163b3565b60405180910390f35b610522600480360381019061051d91906163d5565b611321565b005b34801561053057600080fd5b5061054b60048036038101906105469190616076565b61145d565b6040516105589190616582565b60405180910390f35b34801561056d57600080fd5b50610576611718565b6040516105839190615d8f565b60405180910390f35b34801561059857600080fd5b506105b360048036038101906105ae91906165d0565b6117d1565b6040516105c2939291906165fd565b60405180910390f35b3480156105d757600080fd5b506105e0611862565b6040516105ed9190616693565b60405180910390f35b34801561060257600080fd5b5061060b611889565b005b34801561061957600080fd5b50610634600480360381019061062f9190615cf0565b61189d565b005b34801561064257600080fd5b5061065d60048036038101906106589190615cf0565b6118d3565b005b34801561066b57600080fd5b50610686600480360381019061068191906166ae565b611909565b005b34801561069457600080fd5b5061069d6121b0565b6040516106aa9190615b68565b60405180910390f35b3480156106bf57600080fd5b506106c86121b7565b6040516106d59190616710565b60405180910390f35b3480156106ea57600080fd5b50610705600480360381019061070091906167ab565b6121e2565b005b34801561071357600080fd5b5061072e600480360381019061072991906160a3565b612286565b60405161073b9190615c23565b60405180910390f35b34801561075057600080fd5b506107596122f1565b6040516107669190615cce565b60405180910390f35b34801561077b57600080fd5b50610784612380565b6040516107919190615d8f565b60405180910390f35b3480156107a657600080fd5b506107c160048036038101906107bc9190616845565b612387565b005b3480156107cf57600080fd5b506107ea60048036038101906107e591906165d0565b61239d565b6040516107f79190615cce565b60405180910390f35b34801561080c57600080fd5b506108276004803603810190610822919061627d565b61243e565b005b34801561083557600080fd5b50610850600480360381019061084b9190616a52565b61254a565b005b34801561085e57600080fd5b5061087960048036038101906108749190616ba1565b612a69565b6040516108869190615b68565b60405180910390f35b34801561089b57600080fd5b506108b660048036038101906108b19190616c24565b6130f5565b005b3480156108c457600080fd5b506108df60048036038101906108da9190615cf0565b6131a8565b6040516108ec9190615c23565b60405180910390f35b34801561090157600080fd5b5061091c600480360381019061091791906160a3565b6131fe565b005b34801561092a57600080fd5b5061094560048036038101906109409190615cf0565b61321f565b005b34801561095357600080fd5b5061096e60048036038101906109699190615cf0565b613255565b005b34801561097c57600080fd5b5061099760048036038101906109929190616cac565b61328b565b6040516109a49190615c23565b60405180910390f35b3480156109b957600080fd5b506109d460048036038101906109cf9190616cec565b61331f565b005b3480156109e257600080fd5b506109fd60048036038101906109f89190616076565b6133c0565b005b348015610a0b57600080fd5b50610a14613443565b604051610a219190616d92565b60405180910390f35b348015610a3657600080fd5b50610a516004803603810190610a4c9190615cf0565b613457565b604051610a62959493929190616dad565b60405180910390f35b348015610a7757600080fd5b50610a926004803603810190610a8d91906166ae565b6134c8565b005b60008073ffffffffffffffffffffffffffffffffffffffff168373ffffffffffffffffffffffffffffffffffffffff1603610b04576040517f08c379a0000000000000000000000000000000000000000000000000000000008152600401610afb90616e72565b60405180910390fd5b6065600083815260200190815260200160002060008473ffffffffffffffffffffffffffffffffffffffff1673ffffffffffffffffffffffffffffffffffffffff16815260200190815260200160002054905092915050565b6000610b6882613dd0565b9050919050565b6101678054610b7d90616ec1565b80601f0160208091040260200160405190810160405280929190818152602001828054610ba990616ec1565b8015610bf65780601f10610bcb57610100808354040283529160200191610bf6565b820191906000526020600020905b815481529060010190602001808311610bd957829003601f168201915b505050505081565b606060678054610c0d90616ec1565b80601f0160208091040260200160405190810160405280929190818152602001828054610c3990616ec1565b8015610c865780601f10610c5b57610100808354040283529160200191610c86565b820191906000526020600020905b815481529060010190602001808311610c6957829003601f168201915b50505050509050919050565b600060976000838152602001908152602001600020600101549050919050565b610cba613e4a565b73ffffffffffffffffffffffffffffffffffffffff168573ffffffffffffffffffffffffffffffffffffffff161480610d005750610cff85610cfa613e4a565b61328b565b5b610d3f576040517f08c379a0000000000000000000000000000000000000000000000000000000008152600401610d3690616f64565b60405180910390fd5b610d4c8585858585613e52565b5050505050565b7fb0a2731da0d1e322a29f18fc41490da7914e8245c4e7d00155b630b2fbe50293610d7d81614176565b8161016160006101000a81548173ffffffffffffffffffffffffffffffffffffffff021916908373ffffffffffffffffffffffffffffffffffffffff1602179055505050565b610dcc82610c92565b610dd581614176565b610ddf838361418a565b505050565b610dec613e4a565b73ffffffffffffffffffffffffffffffffffffffff168173ffffffffffffffffffffffffffffffffffffffff1614610e59576040517f08c379a0000000000000000000000000000000000000000000000000000000008152600401610e5090616ff6565b60405180910390fd5b610e63828261426b565b5050565b7f000000000000000000000000000000000000000000000000000000000000000073ffffffffffffffffffffffffffffffffffffffff163073ffffffffffffffffffffffffffffffffffffffff1603610ef5576040517f08c379a0000000000000000000000000000000000000000000000000000000008152600401610eec90617088565b60405180910390fd5b7f000000000000000000000000000000000000000000000000000000000000000073ffffffffffffffffffffffffffffffffffffffff16610f3461434d565b73ffffffffffffffffffffffffffffffffffffffff1614610f8a576040517f08c379a0000000000000000000000000000000000000000000000000000000008152600401610f819061711a565b60405180910390fd5b610f93816143a4565b610fec81600067ffffffffffffffff811115610fb257610fb1615daf565b5b6040519080825280601f01601f191660200182016040528015610fe45781602001600182028036833780820191505090505b5060006143d2565b50565b6000801b610ffc81614176565b61016560019054906101000a900473ffffffffffffffffffffffffffffffffffffffff1673ffffffffffffffffffffffffffffffffffffffff1663a9059cbb3361016560019054906101000a900473ffffffffffffffffffffffffffffffffffffffff1673ffffffffffffffffffffffffffffffffffffffff166370a08231306040518263ffffffff1660e01b81526004016110989190616710565b602060405180830381865afa1580156110b5573d6000803e3d6000fd5b505050506040513d601f19601f820116820180604052508101906110d9919061714f565b6040518363ffffffff1660e01b81526004016110f692919061717c565b6020604051808303816000875af1158015611115573d6000803e3d6000fd5b505050506040513d601f19601f8201168201806040525081019061113991906171ba565b5050565b7fb0a2731da0d1e322a29f18fc41490da7914e8245c4e7d00155b630b2fbe5029361116781614176565b8161016a600085815260200190815260200160002060006101000a81548160ff021916908315150217905550505050565b7fb0a2731da0d1e322a29f18fc41490da7914e8245c4e7d00155b630b2fbe502936111c281614176565b8161016560016101000a81548173ffffffffffffffffffffffffffffffffffffffff021916908373ffffffffffffffffffffffffffffffffffffffff1602179055505050565b6060815183511461124e576040517f08c379a000000000000000000000000000000000000000000000000000000000815260040161124590617259565b60405180910390fd5b6000835167ffffffffffffffff81111561126b5761126a615daf565b5b6040519080825280602002602001820160405280156112995781602001602082028036833780820191505090505b50905060005b8451811015611316576112e68582815181106112be576112bd617279565b5b60200260200101518583815181106112d9576112d8617279565b5b6020026020010151610a94565b8282815181106112f9576112f8617279565b5b6020026020010181815250508061130f906172d7565b905061129f565b508091505092915050565b7f000000000000000000000000000000000000000000000000000000000000000073ffffffffffffffffffffffffffffffffffffffff163073ffffffffffffffffffffffffffffffffffffffff16036113af576040517f08c379a00000000000000000000000000000000000000000000000000000000081526004016113a690617088565b60405180910390fd5b7f000000000000000000000000000000000000000000000000000000000000000073ffffffffffffffffffffffffffffffffffffffff166113ee61434d565b73ffffffffffffffffffffffffffffffffffffffff1614611444576040517f08c379a000000000000000000000000000000000000000000000000000000000815260040161143b9061711a565b60405180910390fd5b61144d826143a4565b611459828260016143d2565b5050565b6060600061016d60008473ffffffffffffffffffffffffffffffffffffffff1673ffffffffffffffffffffffffffffffffffffffff1681526020019081526020016000208054905067ffffffffffffffff8111156114be576114bd615daf565b5b6040519080825280602002602001820160405280156114f757816020015b6114e4615a03565b8152602001906001900390816114dc5790505b50905060005b61016d60008573ffffffffffffffffffffffffffffffffffffffff1673ffffffffffffffffffffffffffffffffffffffff1681526020019081526020016000208054905081101561170e5760006115b08561016d60008873ffffffffffffffffffffffffffffffffffffffff1673ffffffffffffffffffffffffffffffffffffffff16815260200190815260200160002084815481106115a05761159f617279565b5b9060005260206000200154610a94565b9050600081116115c057506116fd565b610170600061016d60008873ffffffffffffffffffffffffffffffffffffffff1673ffffffffffffffffffffffffffffffffffffffff168152602001908152602001600020848154811061161757611616617279565b5b906000526020600020015481526020019081526020016000206040518060a00160405290816000820160009054906101000a900460ff1660ff1660ff16815260200160018201548152602001600282015481526020016003820160009054906101000a900460ff161515151581526020016003820160019054906101000a900473ffffffffffffffffffffffffffffffffffffffff1673ffffffffffffffffffffffffffffffffffffffff1673ffffffffffffffffffffffffffffffffffffffff16815250508383815181106116f0576116ef617279565b5b6020026020010181905250505b80611707906172d7565b90506114fd565b5080915050919050565b60007f000000000000000000000000000000000000000000000000000000000000000073ffffffffffffffffffffffffffffffffffffffff163073ffffffffffffffffffffffffffffffffffffffff16146117a8576040517f08c379a000000000000000000000000000000000000000000000000000000000815260040161179f90617391565b60405180910390fd5b7f360894a13ba1a3210667c828492db98dca3e2076cc3735a920a3ca505d382bbc60001b905090565b60008060008061016b60008660ff1660ff1681526020019081526020016000206040518060600160405290816000820160009054906101000a900460ff1660ff1660ff168152602001600182015481526020016002820154815250509050806020015193508060400151915061016c60008660ff1660ff168152602001908152602001600020549250509193909250565b61016560019054906101000a900473ffffffffffffffffffffffffffffffffffffffff1681565b611891614540565b61189b60006145be565b565b7fb0a2731da0d1e322a29f18fc41490da7914e8245c4e7d00155b630b2fbe502936118c781614176565b8161016e819055505050565b7fb0a2731da0d1e322a29f18fc41490da7914e8245c4e7d00155b630b2fbe502936118fd81614176565b81610164819055505050565b600033905061016354421015611954576040517f08c379a000000000000000000000000000000000000000000000000000000000815260040161194b906173fd565b60405180910390fd5b6101645442111561199a576040517f08c379a000000000000000000000000000000000000000000000000000000000815260040161199190617469565b60405180910390fd5b600061016e541115611a2f5761016e5461016d60008473ffffffffffffffffffffffffffffffffffffffff1673ffffffffffffffffffffffffffffffffffffffff1681526020019081526020016000208054905010611a2e576040517f08c379a0000000000000000000000000000000000000000000000000000000008152600401611a25906174d5565b60405180910390fd5b5b600061016b60008560ff1660ff1681526020019081526020016000206040518060600160405290816000820160009054906101000a900460ff1660ff1660ff1681526020016001820154815260200160028201548152505090506000816020015111611ad0576040517f08c379a0000000000000000000000000000000000000000000000000000000008152600401611ac790617541565b60405180910390fd5b600061016c60008660ff1660ff16815260200190815260200160002054905080826020015111611b35576040517f08c379a0000000000000000000000000000000000000000000000000000000008152600401611b2c906175ad565b60405180910390fd5b61016160149054906101000a900460ff16611b6757611b55610168614686565b611b6061016861469c565b9550611bb0565b611b70866146aa565b611baf576040517f08c379a0000000000000000000000000000000000000000000000000000000008152600401611ba690617619565b60405180910390fd5b5b600061017060008881526020019081526020016000206040518060a00160405290816000820160009054906101000a900460ff1660ff1660ff16815260200160018201548152602001600282015481526020016003820160009054906101000a900460ff161515151581526020016003820160019054906101000a900473ffffffffffffffffffffffffffffffffffffffff1673ffffffffffffffffffffffffffffffffffffffff1673ffffffffffffffffffffffffffffffffffffffff168152505090506000816040015114611cbc576040517f08c379a0000000000000000000000000000000000000000000000000000000008152600401611cb390617685565b60405180910390fd5b6000611ccb84604001516146d5565b905061016560019054906101000a900473ffffffffffffffffffffffffffffffffffffffff1673ffffffffffffffffffffffffffffffffffffffff166370a08231876040518263ffffffff1660e01b8152600401611d299190616710565b602060405180830381865afa158015611d46573d6000803e3d6000fd5b505050506040513d601f19601f82011682018060405250810190611d6a919061714f565b84604001511115611db0576040517f08c379a0000000000000000000000000000000000000000000000000000000008152600401611da790617717565b60405180910390fd5b61016560019054906101000a900473ffffffffffffffffffffffffffffffffffffffff1673ffffffffffffffffffffffffffffffffffffffff166323b872dd8661015f60009054906101000a900473ffffffffffffffffffffffffffffffffffffffff16846040518463ffffffff1660e01b8152600401611e3393929190617737565b6020604051808303816000875af1158015611e52573d6000803e3d6000fd5b505050506040513d601f19601f82011682018060405250810190611e7691906171ba565b506000818560400151611e89919061776e565b905061016560019054906101000a900473ffffffffffffffffffffffffffffffffffffffff1673ffffffffffffffffffffffffffffffffffffffff166323b872dd8761016160009054906101000a900473ffffffffffffffffffffffffffffffffffffffff16846040518463ffffffff1660e01b8152600401611f0e93929190617737565b6020604051808303816000875af1158015611f2d573d6000803e3d6000fd5b505050506040513d601f19601f82011682018060405250810190611f5191906171ba565b50611f6e878a60016040518060200160405280600081525061479c565b61016d60008873ffffffffffffffffffffffffffffffffffffffff1673ffffffffffffffffffffffffffffffffffffffff168152602001908152602001600020899080600181540180825580915050600190039060005260206000200160009091909190915055600184611fe291906177a2565b61016c60008a60ff1660ff168152602001908152602001600020819055508761016f60008b815260200190815260200160002060006101000a81548160ff021916908360ff16021790555060006120388a610bfe565b90508984602001818152505088846000019060ff16908160ff1681525050600184604001818152505060008960ff161184606001901515908115158152505087846080019073ffffffffffffffffffffffffffffffffffffffff16908173ffffffffffffffffffffffffffffffffffffffff16815250508361017060008c815260200190815260200160002060008201518160000160006101000a81548160ff021916908360ff160217905550602082015181600101556040820151816002015560608201518160030160006101000a81548160ff02191690831515021790555060808201518160030160016101000a81548173ffffffffffffffffffffffffffffffffffffffff021916908373ffffffffffffffffffffffffffffffffffffffff1602179055509050507f2d4e120ea0e6aacf78e29b1ab8708eddff1b877753354538447ef8063a54ef45888b8b84868860405161219c969594939291906177d6565b60405180910390a150505050505050505050565b6101735481565b600061012d60009054906101000a900473ffffffffffffffffffffffffffffffffffffffff16905090565b7fa49807205ce4d355092ef5a8a18f56e8913cf4a201fbe287825b095693c2177561220c81614176565b73__$afec012158ebc01e771e0b8521b3c90181$__6339d1efc68888888888886040518763ffffffff1660e01b815260040161224d96959493929190617911565b60006040518083038186803b15801561226557600080fd5b505af4158015612279573d6000803e3d6000fd5b5050505050505050505050565b60006097600084815260200190815260200160002060000160008373ffffffffffffffffffffffffffffffffffffffff1673ffffffffffffffffffffffffffffffffffffffff16815260200190815260200160002060009054906101000a900460ff16905092915050565b61016680546122ff90616ec1565b80601f016020809104026020016040519081016040528092919081815260200182805461232b90616ec1565b80156123785780601f1061234d57610100808354040283529160200191612378565b820191906000526020600020905b81548152906001019060200180831161235b57829003601f168201915b505050505081565b6000801b81565b612399612392613e4a565b838361494d565b5050565b61017460205280600052604060002060009150905080546123bd90616ec1565b80601f01602080910402602001604051908101604052809291908181526020018280546123e990616ec1565b80156124365780601f1061240b57610100808354040283529160200191612436565b820191906000526020600020905b81548152906001019060200180831161241957829003601f168201915b505050505081565b7fa49807205ce4d355092ef5a8a18f56e8913cf4a201fbe287825b095693c2177561246881614176565b81518351146124ac576040517f08c379a00000000000000000000000000000000000000000000000000000000081526004016124a3906179df565b60405180910390fd5b60005b8351811015612544578281815181106124cb576124ca617279565b5b602002602001015161017260008684815181106124eb576124ea617279565b5b602002602001015173ffffffffffffffffffffffffffffffffffffffff1673ffffffffffffffffffffffffffffffffffffffff16815260200190815260200160002081905550808061253c906172d7565b9150506124af565b50505050565b60008060019054906101000a900460ff1615905080801561257b5750600160008054906101000a900460ff1660ff16105b806125a8575061258a30614ab9565b1580156125a75750600160008054906101000a900460ff1660ff16145b5b6125e7576040517f08c379a00000000000000000000000000000000000000000000000000000000081526004016125de90617a71565b60405180910390fd5b60016000806101000a81548160ff021916908360ff1602179055508015612624576001600060016101000a81548160ff0219169083151502179055505b61263c60405180602001604052806000815250614adc565b612644614b37565b61264c614b88565b612655846145be565b600080600090505b84518110156126a35784818151811061267957612678617279565b5b6020026020010151602001518261269091906177a2565b91508061269c906172d7565b905061265d565b508281146126e6576040517f08c379a00000000000000000000000000000000000000000000000000000000081526004016126dd90617add565b60405180910390fd5b60005b8451811015612862576126fa615a4d565b85828151811061270d5761270c617279565b5b60200260200101516040015181604001818152505085828151811061273557612734617279565b5b6020026020010151602001518160200181815250508061016b600088858151811061276357612762617279565b5b60200260200101516000015160ff1660ff16815260200190815260200160002060008201518160000160006101000a81548160ff021916908360ff16021790555060208201518160010155604082015181600201559050507fab9ceafa6f3a63a3fa4175dc0568fb22a90f89b34b4800540adb2822f5642aed8683815181106127ef576127ee617279565b5b60200260200101516000015187848151811061280e5761280d617279565b5b60200260200101516020015188858151811061282d5761282c617279565b5b60200260200101516040015160405161284893929190617afd565b60405180910390a1508061285b906172d7565b90506126e9565b508b61015f60006101000a81548173ffffffffffffffffffffffffffffffffffffffff021916908373ffffffffffffffffffffffffffffffffffffffff1602179055508a61016090816128b59190617cd6565b508961016160006101000a81548173ffffffffffffffffffffffffffffffffffffffff021916908373ffffffffffffffffffffffffffffffffffffffff1602179055508861016160146101000a81548160ff0219169083151502179055508761016560016101000a81548173ffffffffffffffffffffffffffffffffffffffff021916908373ffffffffffffffffffffffffffffffffffffffff1602179055508661016690816129659190617cd6565b508561016790816129769190617cd6565b506129a17fa49807205ce4d355092ef5a8a18f56e8913cf4a201fbe287825b095693c2177586614bd9565b6129ae6000801b86614bd9565b6129d87fb0a2731da0d1e322a29f18fc41490da7914e8245c4e7d00155b630b2fbe5029386614bd9565b612a027f3c11d16cbaffd01df69ce1c404f6340ee057498f5f00246190ea54220576a84886614bd9565b508015612a5c5760008060016101000a81548160ff0219169083151502179055507f7f26b83ff96e1f2b6a682f133852f6798a09c465da95921460cefb38474024986001604051612a539190617de3565b60405180910390a15b5050505050505050505050565b60007fa49807205ce4d355092ef5a8a18f56e8913cf4a201fbe287825b095693c21775612a9581614176565b61016354421015612adb576040517f08c379a0000000000000000000000000000000000000000000000000000000008152600401612ad2906173fd565b60405180910390fd5b61016454421115612b21576040517f08c379a0000000000000000000000000000000000000000000000000000000008152600401612b1890617469565b60405180910390fd5b61017183604051612b329190617e3a565b908152602001604051809103902060009054906101000a900460ff1615612b8e576040517f08c379a0000000000000000000000000000000000000000000000000000000008152600401612b8590617e9d565b60405180910390fd5b600061016b60008660ff1660ff1681526020019081526020016000206040518060600160405290816000820160009054906101000a900460ff1660ff1660ff1681526020016001820154815260200160028201548152505090506000816020015111612c2f576040517f08c379a0000000000000000000000000000000000000000000000000000000008152600401612c2690617541565b60405180910390fd5b600061016c60008760ff1660ff16815260200190815260200160002054905080826020015111612c94576040517f08c379a0000000000000000000000000000000000000000000000000000000008152600401612c8b906175ad565b60405180910390fd5b61016160149054906101000a900460ff16612cc657612cb4610168614686565b612cbf61016861469c565b9650612d0f565b612ccf876146aa565b612d0e576040517f08c379a0000000000000000000000000000000000000000000000000000000008152600401612d0590617619565b60405180910390fd5b5b600061017060008981526020019081526020016000206040518060a00160405290816000820160009054906101000a900460ff1660ff1660ff16815260200160018201548152602001600282015481526020016003820160009054906101000a900460ff161515151581526020016003820160019054906101000a900473ffffffffffffffffffffffffffffffffffffffff1673ffffffffffffffffffffffffffffffffffffffff1673ffffffffffffffffffffffffffffffffffffffff168152505090506000816040015114612e1b576040517f08c379a0000000000000000000000000000000000000000000000000000000008152600401612e1290617685565b60405180910390fd5b612e37898960016040518060200160405280600081525061479c565b61016d60008a73ffffffffffffffffffffffffffffffffffffffff1673ffffffffffffffffffffffffffffffffffffffff168152602001908152602001600020889080600181540180825580915050600190039060005260206000200160009091909190915055600182612eab91906177a2565b61016c60008960ff1660ff168152602001908152602001600020819055508661016f60008a815260200190815260200160002060006101000a81548160ff021916908360ff1602179055506000612f0189610bfe565b90508882602001818152505087826000019060ff16908160ff1681525050600182604001818152505060008860ff161182606001901515908115158152505089826080019073ffffffffffffffffffffffffffffffffffffffff16908173ffffffffffffffffffffffffffffffffffffffff16815250508161017060008b815260200190815260200160002060008201518160000160006101000a81548160ff021916908360ff160217905550602082015181600101556040820151816002015560608201518160030160006101000a81548160ff02191690831515021790555060808201518160030160016101000a81548173ffffffffffffffffffffffffffffffffffffffff021916908373ffffffffffffffffffffffffffffffffffffffff16021790555090505060016101718860405161303f9190617e3a565b908152602001604051809103902060006101000a81548160ff0219169083151502179055507f9b7d14b1e22bcd1e90132d871c08a86a7d439e4349ac2bbaea472e1ed9031f338a8a8a848b60405161309b959493929190617ebd565b60405180910390a17f2d4e120ea0e6aacf78e29b1ab8708eddff1b877753354538447ef8063a54ef458a8a8a846000806040516130dd96959493929190617f59565b60405180910390a18895505050505050949350505050565b7fa49807205ce4d355092ef5a8a18f56e8913cf4a201fbe287825b095693c2177561311f81614176565b73__$afec012158ebc01e771e0b8521b3c90181$__637a17125987878787876040518663ffffffff1660e01b815260040161315e959493929190617fc1565b602060405180830381865af415801561317b573d6000803e3d6000fd5b505050506040513d601f19601f8201168201806040525081019061319f919061714f565b50505050505050565b60007fb0a2731da0d1e322a29f18fc41490da7914e8245c4e7d00155b630b2fbe502936131d481614176565b61016a600084815260200190815260200160002060009054906101000a900460ff16915050919050565b61320782610c92565b61321081614176565b61321a838361426b565b505050565b7fb0a2731da0d1e322a29f18fc41490da7914e8245c4e7d00155b630b2fbe5029361324981614176565b81610163819055505050565b7fb0a2731da0d1e322a29f18fc41490da7914e8245c4e7d00155b630b2fbe5029361327f81614176565b81610162819055505050565b6000606660008473ffffffffffffffffffffffffffffffffffffffff1673ffffffffffffffffffffffffffffffffffffffff16815260200190815260200160002060008373ffffffffffffffffffffffffffffffffffffffff1673ffffffffffffffffffffffffffffffffffffffff16815260200190815260200160002060009054906101000a900460ff16905092915050565b613327613e4a565b73ffffffffffffffffffffffffffffffffffffffff168573ffffffffffffffffffffffffffffffffffffffff16148061336d575061336c85613367613e4a565b61328b565b5b6133ac576040517f08c379a00000000000000000000000000000000000000000000000000000000081526004016133a390616f64565b60405180910390fd5b6133b98585858585614be7565b5050505050565b6133c8614540565b600073ffffffffffffffffffffffffffffffffffffffff168173ffffffffffffffffffffffffffffffffffffffff1603613437576040517f08c379a000000000000000000000000000000000000000000000000000000000815260040161342e90618081565b60405180910390fd5b613440816145be565b50565b61016560009054906101000a900460ff1681565b6101706020528060005260406000206000915090508060000160009054906101000a900460ff16908060010154908060020154908060030160009054906101000a900460ff16908060030160019054906101000a900473ffffffffffffffffffffffffffffffffffffffff16905085565b600033905061016254421015613513576040517f08c379a000000000000000000000000000000000000000000000000000000000815260040161350a90618113565b60405180910390fd5b61016454421115613559576040517f08c379a000000000000000000000000000000000000000000000000000000000815260040161355090617469565b60405180910390fd5b600061017260008473ffffffffffffffffffffffffffffffffffffffff1673ffffffffffffffffffffffffffffffffffffffff16815260200190815260200160002054116135dc576040517f08c379a00000000000000000000000000000000000000000000000000000000081526004016135d3906181a5565b60405180910390fd5b600061016b60008560ff1660ff1681526020019081526020016000206040518060600160405290816000820160009054906101000a900460ff1660ff1660ff168152602001600182015481526020016002820154815250509050600081602001511161367d576040517f08c379a000000000000000000000000000000000000000000000000000000000815260040161367490617541565b60405180910390fd5b600061016c60008660ff1660ff168152602001908152602001600020549050808260200151116136e2576040517f08c379a00000000000000000000000000000000000000000000000000000000081526004016136d9906175ad565b60405180910390fd5b61016160149054906101000a900460ff1661371457613702610168614686565b61370d61016861469c565b955061375d565b61371d866146aa565b61375c576040517f08c379a000000000000000000000000000000000000000000000000000000000815260040161375390617619565b60405180910390fd5b5b600061017060008881526020019081526020016000206040518060a00160405290816000820160009054906101000a900460ff1660ff1660ff16815260200160018201548152602001600282015481526020016003820160009054906101000a900460ff161515151581526020016003820160019054906101000a900473ffffffffffffffffffffffffffffffffffffffff1673ffffffffffffffffffffffffffffffffffffffff1673ffffffffffffffffffffffffffffffffffffffff168152505090506000816040015114613869576040517f08c379a000000000000000000000000000000000000000000000000000000000815260040161386090617685565b60405180910390fd5b600061387884604001516146d5565b905061016560019054906101000a900473ffffffffffffffffffffffffffffffffffffffff1673ffffffffffffffffffffffffffffffffffffffff166370a08231866040518263ffffffff1660e01b81526004016138d69190616710565b602060405180830381865afa1580156138f3573d6000803e3d6000fd5b505050506040513d601f19601f82011682018060405250810190613917919061714f565b8460400151111561395d576040517f08c379a000000000000000000000000000000000000000000000000000000000815260040161395490617717565b60405180910390fd5b61016560019054906101000a900473ffffffffffffffffffffffffffffffffffffffff1673ffffffffffffffffffffffffffffffffffffffff166323b872dd8661015f60009054906101000a900473ffffffffffffffffffffffffffffffffffffffff16846040518463ffffffff1660e01b81526004016139e093929190617737565b6020604051808303816000875af11580156139ff573d6000803e3d6000fd5b505050506040513d601f19601f82011682018060405250810190613a2391906171ba565b506000818560400151613a36919061776e565b905061016560019054906101000a900473ffffffffffffffffffffffffffffffffffffffff1673ffffffffffffffffffffffffffffffffffffffff166323b872dd8761016160009054906101000a900473ffffffffffffffffffffffffffffffffffffffff16846040518463ffffffff1660e01b8152600401613abb93929190617737565b6020604051808303816000875af1158015613ada573d6000803e3d6000fd5b505050506040513d601f19601f82011682018060405250810190613afe91906171ba565b50613b1b878a60016040518060200160405280600081525061479c565b61016d60008873ffffffffffffffffffffffffffffffffffffffff1673ffffffffffffffffffffffffffffffffffffffff16815260200190815260200160002089908060018154018082558091505060019003906000526020600020016000909190919091505560016101736000828254613b9691906177a2565b92505081905550600161017260008973ffffffffffffffffffffffffffffffffffffffff1673ffffffffffffffffffffffffffffffffffffffff1681526020019081526020016000206000828254613bee919061776e565b92505081905550600184613c0291906177a2565b61016c60008a60ff1660ff168152602001908152602001600020819055508761016f60008b815260200190815260200160002060006101000a81548160ff021916908360ff1602179055506000613c588a610bfe565b90508984602001818152505088846000019060ff16908160ff1681525050600184604001818152505060008960ff161184606001901515908115158152505087846080019073ffffffffffffffffffffffffffffffffffffffff16908173ffffffffffffffffffffffffffffffffffffffff16815250508361017060008c815260200190815260200160002060008201518160000160006101000a81548160ff021916908360ff160217905550602082015181600101556040820151816002015560608201518160030160006101000a81548160ff02191690831515021790555060808201518160030160016101000a81548173ffffffffffffffffffffffffffffffffffffffff021916908373ffffffffffffffffffffffffffffffffffffffff1602179055509050507f2d4e120ea0e6aacf78e29b1ab8708eddff1b877753354538447ef8063a54ef45888b8b848688604051613dbc969594939291906177d6565b60405180910390a150505050505050505050565b60007f7965db0b000000000000000000000000000000000000000000000000000000007bffffffffffffffffffffffffffffffffffffffffffffffffffffffff1916827bffffffffffffffffffffffffffffffffffffffffffffffffffffffff19161480613e435750613e4282614e85565b5b9050919050565b600033905090565b8151835114613e96576040517f08c379a0000000000000000000000000000000000000000000000000000000008152600401613e8d90618237565b60405180910390fd5b600073ffffffffffffffffffffffffffffffffffffffff168473ffffffffffffffffffffffffffffffffffffffff1603613f05576040517f08c379a0000000000000000000000000000000000000000000000000000000008152600401613efc906182c9565b60405180910390fd5b6000613f0f613e4a565b9050613f1f818787878787614f67565b60005b84518110156140d3576000858281518110613f4057613f3f617279565b5b602002602001015190506000858381518110613f5f57613f5e617279565b5b6020026020010151905060006065600084815260200190815260200160002060008b73ffffffffffffffffffffffffffffffffffffffff1673ffffffffffffffffffffffffffffffffffffffff16815260200190815260200160002054905081811015614001576040517f08c379a0000000000000000000000000000000000000000000000000000000008152600401613ff89061835b565b60405180910390fd5b8181036065600085815260200190815260200160002060008c73ffffffffffffffffffffffffffffffffffffffff1673ffffffffffffffffffffffffffffffffffffffff16815260200190815260200160002081905550816065600085815260200190815260200160002060008b73ffffffffffffffffffffffffffffffffffffffff1673ffffffffffffffffffffffffffffffffffffffff16815260200190815260200160002060008282546140b891906177a2565b92505081905550505050806140cc906172d7565b9050613f22565b508473ffffffffffffffffffffffffffffffffffffffff168673ffffffffffffffffffffffffffffffffffffffff168273ffffffffffffffffffffffffffffffffffffffff167f4a39dc06d4c0dbc64b70af90fd698a233a518aa5d07e595d983b8c0526c8f7fb878760405161414a92919061837b565b60405180910390a4614160818787878787614f6f565b61416e818787878787614f77565b505050505050565b61418781614182613e4a565b61514e565b50565b6141948282612286565b6142675760016097600084815260200190815260200160002060000160008373ffffffffffffffffffffffffffffffffffffffff1673ffffffffffffffffffffffffffffffffffffffff16815260200190815260200160002060006101000a81548160ff02191690831515021790555061420c613e4a565b73ffffffffffffffffffffffffffffffffffffffff168173ffffffffffffffffffffffffffffffffffffffff16837f2f8788117e7eff1d82e926ec794901d17c78024a50270940304540a733656f0d60405160405180910390a45b5050565b6142758282612286565b156143495760006097600084815260200190815260200160002060000160008373ffffffffffffffffffffffffffffffffffffffff1673ffffffffffffffffffffffffffffffffffffffff16815260200190815260200160002060006101000a81548160ff0219169083151502179055506142ee613e4a565b73ffffffffffffffffffffffffffffffffffffffff168173ffffffffffffffffffffffffffffffffffffffff16837ff6391f5c32d9c69d2a47ea670b442974b53935d1edc7fd64eb21e047a839171b60405160405180910390a45b5050565b600061437b7f360894a13ba1a3210667c828492db98dca3e2076cc3735a920a3ca505d382bbc60001b6151d3565b60000160009054906101000a900473ffffffffffffffffffffffffffffffffffffffff16905090565b7fa49807205ce4d355092ef5a8a18f56e8913cf4a201fbe287825b095693c217756143ce81614176565b5050565b6143fe7f4910fdfa16fed3260ed0e7147f7cc6da11a60208b5b9406d12a635614ffd914360001b6151dd565b60000160009054906101000a900460ff16156144225761441d836151e7565b61453b565b8273ffffffffffffffffffffffffffffffffffffffff166352d1902d6040518163ffffffff1660e01b8152600401602060405180830381865afa92505050801561448a57506040513d601f19601f8201168201806040525081019061448791906183c7565b60015b6144c9576040517f08c379a00000000000000000000000000000000000000000000000000000000081526004016144c090618466565b60405180910390fd5b7f360894a13ba1a3210667c828492db98dca3e2076cc3735a920a3ca505d382bbc60001b811461452e576040517f08c379a0000000000000000000000000000000000000000000000000000000008152600401614525906184f8565b60405180910390fd5b5061453a8383836152a0565b5b505050565b614548613e4a565b73ffffffffffffffffffffffffffffffffffffffff166145666121b7565b73ffffffffffffffffffffffffffffffffffffffff16146145bc576040517f08c379a00000000000000000000000000000000000000000000000000000000081526004016145b390618564565b60405180910390fd5b565b600061012d60009054906101000a900473ffffffffffffffffffffffffffffffffffffffff1690508161012d60006101000a81548173ffffffffffffffffffffffffffffffffffffffff021916908373ffffffffffffffffffffffffffffffffffffffff1602179055508173ffffffffffffffffffffffffffffffffffffffff168173ffffffffffffffffffffffffffffffffffffffff167f8be0079c531659141344cd1fd0a4f28419497f9722a3daafe3b4186f6b6457e060405160405180910390a35050565b6001816000016000828254019250508190555050565b600081600001549050919050565b600061016a600083815260200190815260200160002060009054906101000a900460ff169050919050565b60008061015f60009054906101000a900473ffffffffffffffffffffffffffffffffffffffff1673ffffffffffffffffffffffffffffffffffffffff1663a8bcb8d8306040518263ffffffff1660e01b81526004016147349190616710565b602060405180830381865afa158015614751573d6000803e3d6000fd5b505050506040513d601f19601f8201168201806040525081019061477591906185be565b61ffff169050806127108461478a919061861a565b614794919061864b565b915050919050565b600073ffffffffffffffffffffffffffffffffffffffff168473ffffffffffffffffffffffffffffffffffffffff160361480b576040517f08c379a0000000000000000000000000000000000000000000000000000000008152600401614802906186ff565b60405180910390fd5b6000614815613e4a565b90506000614822856152cc565b9050600061482f856152cc565b905061484083600089858589614f67565b846065600088815260200190815260200160002060008973ffffffffffffffffffffffffffffffffffffffff1673ffffffffffffffffffffffffffffffffffffffff16815260200190815260200160002060008282546148a091906177a2565b925050819055508673ffffffffffffffffffffffffffffffffffffffff16600073ffffffffffffffffffffffffffffffffffffffff168473ffffffffffffffffffffffffffffffffffffffff167fc3d58168c5ae7397731d063d5bbf3d657854427343f4c083240f7aacaa2d0f62898960405161491e92919061871f565b60405180910390a461493583600089858589614f6f565b61494483600089898989615346565b50505050505050565b8173ffffffffffffffffffffffffffffffffffffffff168373ffffffffffffffffffffffffffffffffffffffff16036149bb576040517f08c379a00000000000000000000000000000000000000000000000000000000081526004016149b2906187ba565b60405180910390fd5b80606660008573ffffffffffffffffffffffffffffffffffffffff1673ffffffffffffffffffffffffffffffffffffffff16815260200190815260200160002060008473ffffffffffffffffffffffffffffffffffffffff1673ffffffffffffffffffffffffffffffffffffffff16815260200190815260200160002060006101000a81548160ff0219169083151502179055508173ffffffffffffffffffffffffffffffffffffffff168373ffffffffffffffffffffffffffffffffffffffff167f17307eab39ab6107e8899845ad3d59bd9653f200f220920489ca2b5937696c3183604051614aac9190615c23565b60405180910390a3505050565b6000808273ffffffffffffffffffffffffffffffffffffffff163b119050919050565b600060019054906101000a900460ff16614b2b576040517f08c379a0000000000000000000000000000000000000000000000000000000008152600401614b229061884c565b60405180910390fd5b614b348161551d565b50565b600060019054906101000a900460ff16614b86576040517f08c379a0000000000000000000000000000000000000000000000000000000008152600401614b7d9061884c565b60405180910390fd5b565b600060019054906101000a900460ff16614bd7576040517f08c379a0000000000000000000000000000000000000000000000000000000008152600401614bce9061884c565b60405180910390fd5b565b614be3828261418a565b5050565b600073ffffffffffffffffffffffffffffffffffffffff168473ffffffffffffffffffffffffffffffffffffffff1603614c56576040517f08c379a0000000000000000000000000000000000000000000000000000000008152600401614c4d906182c9565b60405180910390fd5b6000614c60613e4a565b90506000614c6d856152cc565b90506000614c7a856152cc565b9050614c8a838989858589614f67565b60006065600088815260200190815260200160002060008a73ffffffffffffffffffffffffffffffffffffffff1673ffffffffffffffffffffffffffffffffffffffff16815260200190815260200160002054905085811015614d22576040517f08c379a0000000000000000000000000000000000000000000000000000000008152600401614d199061835b565b60405180910390fd5b8581036065600089815260200190815260200160002060008b73ffffffffffffffffffffffffffffffffffffffff1673ffffffffffffffffffffffffffffffffffffffff16815260200190815260200160002081905550856065600089815260200190815260200160002060008a73ffffffffffffffffffffffffffffffffffffffff1673ffffffffffffffffffffffffffffffffffffffff1681526020019081526020016000206000828254614dd991906177a2565b925050819055508773ffffffffffffffffffffffffffffffffffffffff168973ffffffffffffffffffffffffffffffffffffffff168573ffffffffffffffffffffffffffffffffffffffff167fc3d58168c5ae7397731d063d5bbf3d657854427343f4c083240f7aacaa2d0f628a8a604051614e5692919061871f565b60405180910390a4614e6c848a8a86868a614f6f565b614e7a848a8a8a8a8a615346565b505050505050505050565b60007fd9b67a26000000000000000000000000000000000000000000000000000000007bffffffffffffffffffffffffffffffffffffffffffffffffffffffff1916827bffffffffffffffffffffffffffffffffffffffffffffffffffffffff19161480614f5057507f0e89341c000000000000000000000000000000000000000000000000000000007bffffffffffffffffffffffffffffffffffffffffffffffffffffffff1916827bffffffffffffffffffffffffffffffffffffffffffffffffffffffff1916145b80614f605750614f5f82615578565b5b9050919050565b505050505050565b505050505050565b614f968473ffffffffffffffffffffffffffffffffffffffff16614ab9565b15615146578373ffffffffffffffffffffffffffffffffffffffff1663bc197c8187878686866040518663ffffffff1660e01b8152600401614fdc9594939291906188c1565b6020604051808303816000875af192505050801561501857506040513d601f19601f82011682018060405250810190615015919061893e565b60015b6150bd57615024618978565b806308c379a003615080575061503861899a565b806150435750615082565b806040517f08c379a00000000000000000000000000000000000000000000000000000000081526004016150779190615cce565b60405180910390fd5b505b6040517f08c379a00000000000000000000000000000000000000000000000000000000081526004016150b490618a9c565b60405180910390fd5b63bc197c8160e01b7bffffffffffffffffffffffffffffffffffffffffffffffffffffffff1916817bffffffffffffffffffffffffffffffffffffffffffffffffffffffff191614615144576040517f08c379a000000000000000000000000000000000000000000000000000000000815260040161513b90618b2e565b60405180910390fd5b505b505050505050565b6151588282612286565b6151cf57615165816155e2565b6151738360001c602061560f565b604051602001615184929190618be6565b6040516020818303038152906040526040517f08c379a00000000000000000000000000000000000000000000000000000000081526004016151c69190615cce565b60405180910390fd5b5050565b6000819050919050565b6000819050919050565b6151f081614ab9565b61522f576040517f08c379a000000000000000000000000000000000000000000000000000000000815260040161522690618c92565b60405180910390fd5b8061525c7f360894a13ba1a3210667c828492db98dca3e2076cc3735a920a3ca505d382bbc60001b6151d3565b60000160006101000a81548173ffffffffffffffffffffffffffffffffffffffff021916908373ffffffffffffffffffffffffffffffffffffffff16021790555050565b6152a98361584b565b6000825111806152b65750805b156152c7576152c5838361589a565b505b505050565b60606000600167ffffffffffffffff8111156152eb576152ea615daf565b5b6040519080825280602002602001820160405280156153195781602001602082028036833780820191505090505b509050828160008151811061533157615330617279565b5b60200260200101818152505080915050919050565b6153658473ffffffffffffffffffffffffffffffffffffffff16614ab9565b15615515578373ffffffffffffffffffffffffffffffffffffffff1663f23a6e6187878686866040518663ffffffff1660e01b81526004016153ab959493929190618cb2565b6020604051808303816000875af19250505080156153e757506040513d601f19601f820116820180604052508101906153e4919061893e565b60015b61548c576153f3618978565b806308c379a00361544f575061540761899a565b806154125750615451565b806040517f08c379a00000000000000000000000000000000000000000000000000000000081526004016154469190615cce565b60405180910390fd5b505b6040517f08c379a000000000000000000000000000000000000000000000000000000000815260040161548390618a9c565b60405180910390fd5b63f23a6e6160e01b7bffffffffffffffffffffffffffffffffffffffffffffffffffffffff1916817bffffffffffffffffffffffffffffffffffffffffffffffffffffffff191614615513576040517f08c379a000000000000000000000000000000000000000000000000000000000815260040161550a90618b2e565b60405180910390fd5b505b505050505050565b600060019054906101000a900460ff1661556c576040517f08c379a00000000000000000000000000000000000000000000000000000000081526004016155639061884c565b60405180910390fd5b6155758161597e565b50565b60007f01ffc9a7000000000000000000000000000000000000000000000000000000007bffffffffffffffffffffffffffffffffffffffffffffffffffffffff1916827bffffffffffffffffffffffffffffffffffffffffffffffffffffffff1916149050919050565b60606156088273ffffffffffffffffffffffffffffffffffffffff16601460ff1661560f565b9050919050565b606060006002836002615622919061864b565b61562c91906177a2565b67ffffffffffffffff81111561564557615644615daf565b5b6040519080825280601f01601f1916602001820160405280156156775781602001600182028036833780820191505090505b5090507f3000000000000000000000000000000000000000000000000000000000000000816000815181106156af576156ae617279565b5b60200101907effffffffffffffffffffffffffffffffffffffffffffffffffffffffffffff1916908160001a9053507f78000000000000000000000000000000000000000000000000000000000000008160018151811061571357615712617279565b5b60200101907effffffffffffffffffffffffffffffffffffffffffffffffffffffffffffff1916908160001a90535060006001846002615753919061864b565b61575d91906177a2565b90505b60018111156157fd577f3031323334353637383961626364656600000000000000000000000000000000600f86166010811061579f5761579e617279565b5b1a60f81b8282815181106157b6576157b5617279565b5b60200101907effffffffffffffffffffffffffffffffffffffffffffffffffffffffffffff1916908160001a905350600485901c9450806157f690618d0c565b9050615760565b5060008414615841576040517f08c379a000000000000000000000000000000000000000000000000000000000815260040161583890618d81565b60405180910390fd5b8091505092915050565b615854816151e7565b8073ffffffffffffffffffffffffffffffffffffffff167fbc7cd75a20ee27fd9adebab32041f755214dbc6bffa90cc0225b39da2e5c2d3b60405160405180910390a250565b60606158a583614ab9565b6158e4576040517f08c379a00000000000000000000000000000000000000000000000000000000081526004016158db90618e13565b60405180910390fd5b6000808473ffffffffffffffffffffffffffffffffffffffff168460405161590c9190618e6f565b600060405180830381855af49150503d8060008114615947576040519150601f19603f3d011682016040523d82523d6000602084013e61594c565b606091505b50915091506159748282604051806060016040528060278152602001618e8760279139615991565b9250505092915050565b806067908161598d9190617cd6565b5050565b606083156159a1578290506159ac565b6159ab83836159b3565b5b9392505050565b6000825111156159c65781518083602001fd5b806040517f08c379a00000000000000000000000000000000000000000000000000000000081526004016159fa9190615cce565b60405180910390fd5b6040518060a00160405280600060ff1681526020016000815260200160008152602001600015158152602001600073ffffffffffffffffffffffffffffffffffffffff1681525090565b6040518060600160405280600060ff16815260200160008152602001600081525090565b6000604051905090565b600080fd5b600080fd5b600073ffffffffffffffffffffffffffffffffffffffff82169050919050565b6000615ab082615a85565b9050919050565b615ac081615aa5565b8114615acb57600080fd5b50565b600081359050615add81615ab7565b92915050565b6000819050919050565b615af681615ae3565b8114615b0157600080fd5b50565b600081359050615b1381615aed565b92915050565b60008060408385031215615b3057615b2f615a7b565b5b6000615b3e85828601615ace565b9250506020615b4f85828601615b04565b9150509250929050565b615b6281615ae3565b82525050565b6000602082019050615b7d6000830184615b59565b92915050565b60007fffffffff0000000000000000000000000000000000000000000000000000000082169050919050565b615bb881615b83565b8114615bc357600080fd5b50565b600081359050615bd581615baf565b92915050565b600060208284031215615bf157615bf0615a7b565b5b6000615bff84828501615bc6565b91505092915050565b60008115159050919050565b615c1d81615c08565b82525050565b6000602082019050615c386000830184615c14565b92915050565b600081519050919050565b600082825260208201905092915050565b60005b83811015615c78578082015181840152602081019050615c5d565b60008484015250505050565b6000601f19601f8301169050919050565b6000615ca082615c3e565b615caa8185615c49565b9350615cba818560208601615c5a565b615cc381615c84565b840191505092915050565b60006020820190508181036000830152615ce88184615c95565b905092915050565b600060208284031215615d0657615d05615a7b565b5b6000615d1484828501615b04565b91505092915050565b6000819050919050565b615d3081615d1d565b8114615d3b57600080fd5b50565b600081359050615d4d81615d27565b92915050565b600060208284031215615d6957615d68615a7b565b5b6000615d7784828501615d3e565b91505092915050565b615d8981615d1d565b82525050565b6000602082019050615da46000830184615d80565b92915050565b600080fd5b7f4e487b7100000000000000000000000000000000000000000000000000000000600052604160045260246000fd5b615de782615c84565b810181811067ffffffffffffffff82111715615e0657615e05615daf565b5b80604052505050565b6000615e19615a71565b9050615e258282615dde565b919050565b600067ffffffffffffffff821115615e4557615e44615daf565b5b602082029050602081019050919050565b600080fd5b6000615e6e615e6984615e2a565b615e0f565b90508083825260208201905060208402830185811115615e9157615e90615e56565b5b835b81811015615eba5780615ea68882615b04565b845260208401935050602081019050615e93565b5050509392505050565b600082601f830112615ed957615ed8615daa565b5b8135615ee9848260208601615e5b565b91505092915050565b600080fd5b600067ffffffffffffffff821115615f1257615f11615daf565b5b615f1b82615c84565b9050602081019050919050565b82818337600083830152505050565b6000615f4a615f4584615ef7565b615e0f565b905082815260208101848484011115615f6657615f65615ef2565b5b615f71848285615f28565b509392505050565b600082601f830112615f8e57615f8d615daa565b5b8135615f9e848260208601615f37565b91505092915050565b600080600080600060a08688031215615fc357615fc2615a7b565b5b6000615fd188828901615ace565b9550506020615fe288828901615ace565b945050604086013567ffffffffffffffff81111561600357616002615a80565b5b61600f88828901615ec4565b935050606086013567ffffffffffffffff8111156160305761602f615a80565b5b61603c88828901615ec4565b925050608086013567ffffffffffffffff81111561605d5761605c615a80565b5b61606988828901615f79565b9150509295509295909350565b60006020828403121561608c5761608b615a7b565b5b600061609a84828501615ace565b91505092915050565b600080604083850312156160ba576160b9615a7b565b5b60006160c885828601615d3e565b92505060206160d985828601615ace565b9150509250929050565b6160ec81615c08565b81146160f757600080fd5b50565b600081359050616109816160e3565b92915050565b6000806040838503121561612657616125615a7b565b5b600061613485828601615b04565b9250506020616145858286016160fa565b9150509250929050565b600061615a82615aa5565b9050919050565b61616a8161614f565b811461617557600080fd5b50565b60008135905061618781616161565b92915050565b6000602082840312156161a3576161a2615a7b565b5b60006161b184828501616178565b91505092915050565b600067ffffffffffffffff8211156161d5576161d4615daf565b5b602082029050602081019050919050565b60006161f96161f4846161ba565b615e0f565b9050808382526020820190506020840283018581111561621c5761621b615e56565b5b835b8181101561624557806162318882615ace565b84526020840193505060208101905061621e565b5050509392505050565b600082601f83011261626457616263615daa565b5b81356162748482602086016161e6565b91505092915050565b6000806040838503121561629457616293615a7b565b5b600083013567ffffffffffffffff8111156162b2576162b1615a80565b5b6162be8582860161624f565b925050602083013567ffffffffffffffff8111156162df576162de615a80565b5b6162eb85828601615ec4565b9150509250929050565b600081519050919050565b600082825260208201905092915050565b6000819050602082019050919050565b61632a81615ae3565b82525050565b600061633c8383616321565b60208301905092915050565b6000602082019050919050565b6000616360826162f5565b61636a8185616300565b935061637583616311565b8060005b838110156163a657815161638d8882616330565b975061639883616348565b925050600181019050616379565b5085935050505092915050565b600060208201905081810360008301526163cd8184616355565b905092915050565b600080604083850312156163ec576163eb615a7b565b5b60006163fa85828601615ace565b925050602083013567ffffffffffffffff81111561641b5761641a615a80565b5b61642785828601615f79565b9150509250929050565b600081519050919050565b600082825260208201905092915050565b6000819050602082019050919050565b600060ff82169050919050565b6164738161645d565b82525050565b61648281615c08565b82525050565b61649181615aa5565b82525050565b60a0820160008201516164ad600085018261646a565b5060208201516164c06020850182616321565b5060408201516164d36040850182616321565b5060608201516164e66060850182616479565b5060808201516164f96080850182616488565b50505050565b600061650b8383616497565b60a08301905092915050565b6000602082019050919050565b600061652f82616431565b616539818561643c565b93506165448361644d565b8060005b8381101561657557815161655c88826164ff565b975061656783616517565b925050600181019050616548565b5085935050505092915050565b6000602082019050818103600083015261659c8184616524565b905092915050565b6165ad8161645d565b81146165b857600080fd5b50565b6000813590506165ca816165a4565b92915050565b6000602082840312156165e6576165e5615a7b565b5b60006165f4848285016165bb565b91505092915050565b60006060820190506166126000830186615b59565b61661f6020830185615b59565b61662c6040830184615b59565b949350505050565b6000819050919050565b600061665961665461664f84615a85565b616634565b615a85565b9050919050565b600061666b8261663e565b9050919050565b600061667d82616660565b9050919050565b61668d81616672565b82525050565b60006020820190506166a86000830184616684565b92915050565b6000806000606084860312156166c7576166c6615a7b565b5b60006166d586828701615b04565b93505060206166e6868287016165bb565b92505060406166f786828701615ace565b9150509250925092565b61670a81615aa5565b82525050565b60006020820190506167256000830184616701565b92915050565b600080fd5b60008083601f84011261674657616745615daa565b5b8235905067ffffffffffffffff8111156167635761676261672b565b5b60208301915083600182028301111561677f5761677e615e56565b5b9250929050565b6002811061679357600080fd5b50565b6000813590506167a581616786565b92915050565b60008060008060008060a087890312156167c8576167c7615a7b565b5b60006167d689828a01615ace565b96505060206167e789828a01615b04565b95505060406167f889828a01615b04565b945050606087013567ffffffffffffffff81111561681957616818615a80565b5b61682589828a01616730565b9350935050608061683889828a01616796565b9150509295509295509295565b6000806040838503121561685c5761685b615a7b565b5b600061686a85828601615ace565b925050602061687b858286016160fa565b9150509250929050565b600067ffffffffffffffff8211156168a05761689f615daf565b5b6168a982615c84565b9050602081019050919050565b60006168c96168c484616885565b615e0f565b9050828152602081018484840111156168e5576168e4615ef2565b5b6168f0848285615f28565b509392505050565b600082601f83011261690d5761690c615daa565b5b813561691d8482602086016168b6565b91505092915050565b600067ffffffffffffffff82111561694157616940615daf565b5b602082029050602081019050919050565b600080fd5b60006060828403121561696d5761696c616952565b5b6169776060615e0f565b90506000616987848285016165bb565b600083015250602061699b84828501615b04565b60208301525060406169af84828501615b04565b60408301525092915050565b60006169ce6169c984616926565b615e0f565b905080838252602082019050606084028301858111156169f1576169f0615e56565b5b835b81811015616a1a5780616a068882616957565b8452602084019350506060810190506169f3565b5050509392505050565b600082601f830112616a3957616a38615daa565b5b8135616a498482602086016169bb565b91505092915050565b6000806000806000806000806000806101408b8d031215616a7657616a75615a7b565b5b6000616a848d828e01615ace565b9a505060208b013567ffffffffffffffff811115616aa557616aa4615a80565b5b616ab18d828e016168f8565b9950506040616ac28d828e01615ace565b9850506060616ad38d828e016160fa565b9750506080616ae48d828e01616178565b96505060a08b013567ffffffffffffffff811115616b0557616b04615a80565b5b616b118d828e016168f8565b95505060c08b013567ffffffffffffffff811115616b3257616b31615a80565b5b616b3e8d828e016168f8565b94505060e0616b4f8d828e01615ace565b9350506101008b013567ffffffffffffffff811115616b7157616b70615a80565b5b616b7d8d828e01616a24565b925050610120616b8f8d828e01615b04565b9150509295989b9194979a5092959850565b60008060008060808587031215616bbb57616bba615a7b565b5b6000616bc987828801615ace565b9450506020616bda87828801615b04565b9350506040616beb878288016165bb565b925050606085013567ffffffffffffffff811115616c0c57616c0b615a80565b5b616c18878288016168f8565b91505092959194509250565b600080600080600060808688031215616c4057616c3f615a7b565b5b6000616c4e88828901615ace565b9550506020616c5f88828901615b04565b945050604086013567ffffffffffffffff811115616c8057616c7f615a80565b5b616c8c88828901616730565b93509350506060616c9f88828901616796565b9150509295509295909350565b60008060408385031215616cc357616cc2615a7b565b5b6000616cd185828601615ace565b9250506020616ce285828601615ace565b9150509250929050565b600080600080600060a08688031215616d0857616d07615a7b565b5b6000616d1688828901615ace565b9550506020616d2788828901615ace565b9450506040616d3888828901615b04565b9350506060616d4988828901615b04565b925050608086013567ffffffffffffffff811115616d6a57616d69615a80565b5b616d7688828901615f79565b9150509295509295909350565b616d8c8161645d565b82525050565b6000602082019050616da76000830184616d83565b92915050565b600060a082019050616dc26000830188616d83565b616dcf6020830187615b59565b616ddc6040830186615b59565b616de96060830185615c14565b616df66080830184616701565b9695505050505050565b7f455243313135353a2061646472657373207a65726f206973206e6f742061207660008201527f616c6964206f776e657200000000000000000000000000000000000000000000602082015250565b6000616e5c602a83615c49565b9150616e6782616e00565b604082019050919050565b60006020820190508181036000830152616e8b81616e4f565b9050919050565b7f4e487b7100000000000000000000000000000000000000000000000000000000600052602260045260246000fd5b60006002820490506001821680616ed957607f821691505b602082108103616eec57616eeb616e92565b5b50919050565b7f455243313135353a2063616c6c6572206973206e6f7420746f6b656e206f776e60008201527f6572206f7220617070726f766564000000000000000000000000000000000000602082015250565b6000616f4e602e83615c49565b9150616f5982616ef2565b604082019050919050565b60006020820190508181036000830152616f7d81616f41565b9050919050565b7f416363657373436f6e74726f6c3a2063616e206f6e6c792072656e6f756e636560008201527f20726f6c657320666f722073656c660000000000000000000000000000000000602082015250565b6000616fe0602f83615c49565b9150616feb82616f84565b604082019050919050565b6000602082019050818103600083015261700f81616fd3565b9050919050565b7f46756e6374696f6e206d7573742062652063616c6c6564207468726f7567682060008201527f64656c656761746563616c6c0000000000000000000000000000000000000000602082015250565b6000617072602c83615c49565b915061707d82617016565b604082019050919050565b600060208201905081810360008301526170a181617065565b9050919050565b7f46756e6374696f6e206d7573742062652063616c6c6564207468726f7567682060008201527f6163746976652070726f78790000000000000000000000000000000000000000602082015250565b6000617104602c83615c49565b915061710f826170a8565b604082019050919050565b60006020820190508181036000830152617133816170f7565b9050919050565b60008151905061714981615aed565b92915050565b60006020828403121561716557617164615a7b565b5b60006171738482850161713a565b91505092915050565b60006040820190506171916000830185616701565b61719e6020830184615b59565b9392505050565b6000815190506171b4816160e3565b92915050565b6000602082840312156171d0576171cf615a7b565b5b60006171de848285016171a5565b91505092915050565b7f455243313135353a206163636f756e747320616e6420696473206c656e67746860008201527f206d69736d617463680000000000000000000000000000000000000000000000602082015250565b6000617243602983615c49565b915061724e826171e7565b604082019050919050565b6000602082019050818103600083015261727281617236565b9050919050565b7f4e487b7100000000000000000000000000000000000000000000000000000000600052603260045260246000fd5b7f4e487b7100000000000000000000000000000000000000000000000000000000600052601160045260246000fd5b60006172e282615ae3565b91507fffffffffffffffffffffffffffffffffffffffffffffffffffffffffffffffff8203617314576173136172a8565b5b600182019050919050565b7f555550535570677261646561626c653a206d757374206e6f742062652063616c60008201527f6c6564207468726f7567682064656c656761746563616c6c0000000000000000602082015250565b600061737b603883615c49565b91506173868261731f565b604082019050919050565b600060208201905081810360008301526173aa8161736e565b9050919050565b7f49742773206e6f742074696d6520746f20627579207075626c69632073616c65600082015250565b60006173e7602083615c49565b91506173f2826173b1565b602082019050919050565b60006020820190508181036000830152617416816173da565b9050919050565b7f49742773206e6f742074696d6520746f20627579000000000000000000000000600082015250565b6000617453601483615c49565b915061745e8261741d565b602082019050919050565b6000602082019050818103600083015261748281617446565b9050919050565b7f427579206c696d69742072656163686564000000000000000000000000000000600082015250565b60006174bf601183615c49565b91506174ca82617489565b602082019050919050565b600060208201905081810360008301526174ee816174b2565b9050919050565b7f546f6b656e207479706520646f6573206e6f7420657869737400000000000000600082015250565b600061752b601983615c49565b9150617536826174f5565b602082019050919050565b6000602082019050818103600083015261755a8161751e565b9050919050565b7f546f6b656e2072756e206f757400000000000000000000000000000000000000600082015250565b6000617597600d83615c49565b91506175a282617561565b602082019050919050565b600060208201905081810360008301526175c68161758a565b9050919050565b7f546f6b656e2069642069736e277420696e2077686974656c6973740000000000600082015250565b6000617603601b83615c49565b915061760e826175cd565b602082019050919050565b60006020820190508181036000830152617632816175f6565b9050919050565b7f546f6b656e206964206973206d696e7465640000000000000000000000000000600082015250565b600061766f601283615c49565b915061767a82617639565b602082019050919050565b6000602082019050818103600083015261769e81617662565b9050919050565b7f55736572206e65656420686f6c6420656e6f75676820546f6b656e20746f206260008201527f75792074686973206e6674000000000000000000000000000000000000000000602082015250565b6000617701602b83615c49565b915061770c826176a5565b604082019050919050565b60006020820190508181036000830152617730816176f4565b9050919050565b600060608201905061774c6000830186616701565b6177596020830185616701565b6177666040830184615b59565b949350505050565b600061777982615ae3565b915061778483615ae3565b925082820390508181111561779c5761779b6172a8565b5b92915050565b60006177ad82615ae3565b91506177b883615ae3565b92508282019050808211156177d0576177cf6172a8565b5b92915050565b600060c0820190506177eb6000830189616701565b6177f86020830188615b59565b6178056040830187616d83565b81810360608301526178178186615c95565b90506178266080830185615b59565b61783360a0830184615b59565b979650505050505050565b61784781615aa5565b82525050565b61785681615ae3565b82525050565b600082825260208201905092915050565b6000617879838561785c565b9350617886838584615f28565b61788f83615c84565b840190509392505050565b7f4e487b7100000000000000000000000000000000000000000000000000000000600052602160045260246000fd5b600281106178da576178d961789a565b5b50565b60008190506178eb826178c9565b919050565b60006178fb826178dd565b9050919050565b61790b816178f0565b82525050565b600060a082019050617926600083018961783e565b617933602083018861784d565b617940604083018761784d565b818103606083015261795381858761786d565b90506179626080830184617902565b979650505050505050565b7f57686974656c69737420616e642062757961626c6520616d6f756e74206c697360008201527f74206d7573742062652073616d65206c656e6774680000000000000000000000602082015250565b60006179c9603583615c49565b91506179d48261796d565b604082019050919050565b600060208201905081810360008301526179f8816179bc565b9050919050565b7f496e697469616c697a61626c653a20636f6e747261637420697320616c72656160008201527f647920696e697469616c697a6564000000000000000000000000000000000000602082015250565b6000617a5b602e83615c49565b9150617a66826179ff565b604082019050919050565b60006020820190508181036000830152617a8a81617a4e565b9050919050565b7f546f74616c20737570706c7920646f6573206e6f74206d617463680000000000600082015250565b6000617ac7601b83615c49565b9150617ad282617a91565b602082019050919050565b60006020820190508181036000830152617af681617aba565b9050919050565b6000606082019050617b126000830186616d83565b617b1f6020830185615b59565b617b2c6040830184615b59565b949350505050565b60008190508160005260206000209050919050565b60006020601f8301049050919050565b600082821b905092915050565b600060088302617b967fffffffffffffffffffffffffffffffffffffffffffffffffffffffffffffffff82617b59565b617ba08683617b59565b95508019841693508086168417925050509392505050565b6000617bd3617bce617bc984615ae3565b616634565b615ae3565b9050919050565b6000819050919050565b617bed83617bb8565b617c01617bf982617bda565b848454617b66565b825550505050565b600090565b617c16617c09565b617c21818484617be4565b505050565b5b81811015617c4557617c3a600082617c0e565b600181019050617c27565b5050565b601f821115617c8a57617c5b81617b34565b617c6484617b49565b81016020851015617c73578190505b617c87617c7f85617b49565b830182617c26565b50505b505050565b600082821c905092915050565b6000617cad60001984600802617c8f565b1980831691505092915050565b6000617cc68383617c9c565b9150826002028217905092915050565b617cdf82615c3e565b67ffffffffffffffff811115617cf857617cf7615daf565b5b617d028254616ec1565b617d0d828285617c49565b600060209050601f831160018114617d405760008415617d2e578287015190505b617d388582617cba565b865550617da0565b601f198416617d4e86617b34565b60005b82811015617d7657848901518255600182019150602085019450602081019050617d51565b86831015617d935784890151617d8f601f891682617c9c565b8355505b6001600288020188555050505b505050505050565b6000819050919050565b6000617dcd617dc8617dc384617da8565b616634565b61645d565b9050919050565b617ddd81617db2565b82525050565b6000602082019050617df86000830184617dd4565b92915050565b600081905092915050565b6000617e1482615c3e565b617e1e8185617dfe565b9350617e2e818560208601615c5a565b80840191505092915050565b6000617e468284617e09565b915081905092915050565b7f4769667420636f646520697320616c7265616479206163746976617465640000600082015250565b6000617e87601e83615c49565b9150617e9282617e51565b602082019050919050565b60006020820190508181036000830152617eb681617e7a565b9050919050565b600060a082019050617ed26000830188616701565b617edf6020830187615b59565b617eec6040830186616d83565b8181036060830152617efe8185615c95565b90508181036080830152617f128184615c95565b90509695505050505050565b6000819050919050565b6000617f43617f3e617f3984617f1e565b616634565b615ae3565b9050919050565b617f5381617f28565b82525050565b600060c082019050617f6e6000830189616701565b617f7b6020830188615b59565b617f886040830187616d83565b8181036060830152617f9a8186615c95565b9050617fa96080830185617f4a565b617fb660a0830184617f4a565b979650505050505050565b6000608082019050617fd6600083018861783e565b617fe3602083018761784d565b8181036040830152617ff681858761786d565b90506180056060830184617902565b9695505050505050565b7f4f776e61626c653a206e6577206f776e657220697320746865207a65726f206160008201527f6464726573730000000000000000000000000000000000000000000000000000602082015250565b600061806b602683615c49565b91506180768261800f565b604082019050919050565b6000602082019050818103600083015261809a8161805e565b9050919050565b7f49742773206e6f742074696d6520746f206275792077686974656c697374207360008201527f616c650000000000000000000000000000000000000000000000000000000000602082015250565b60006180fd602383615c49565b9150618108826180a1565b604082019050919050565b6000602082019050818103600083015261812c816180f0565b9050919050565b7f55736572206e6f7420696e2077686974656c697374206f72206c696d6974207260008201527f6561636865640000000000000000000000000000000000000000000000000000602082015250565b600061818f602683615c49565b915061819a82618133565b604082019050919050565b600060208201905081810360008301526181be81618182565b9050919050565b7f455243313135353a2069647320616e6420616d6f756e7473206c656e6774682060008201527f6d69736d61746368000000000000000000000000000000000000000000000000602082015250565b6000618221602883615c49565b915061822c826181c5565b604082019050919050565b6000602082019050818103600083015261825081618214565b9050919050565b7f455243313135353a207472616e7366657220746f20746865207a65726f20616460008201527f6472657373000000000000000000000000000000000000000000000000000000602082015250565b60006182b3602583615c49565b91506182be82618257565b604082019050919050565b600060208201905081810360008301526182e2816182a6565b9050919050565b7f455243313135353a20696e73756666696369656e742062616c616e636520666f60008201527f72207472616e7366657200000000000000000000000000000000000000000000602082015250565b6000618345602a83615c49565b9150618350826182e9565b604082019050919050565b6000602082019050818103600083015261837481618338565b9050919050565b600060408201905081810360008301526183958185616355565b905081810360208301526183a98184616355565b90509392505050565b6000815190506183c181615d27565b92915050565b6000602082840312156183dd576183dc615a7b565b5b60006183eb848285016183b2565b91505092915050565b7f45524331393637557067726164653a206e657720696d706c656d656e7461746960008201527f6f6e206973206e6f742055555053000000000000000000000000000000000000602082015250565b6000618450602e83615c49565b915061845b826183f4565b604082019050919050565b6000602082019050818103600083015261847f81618443565b9050919050565b7f45524331393637557067726164653a20756e737570706f727465642070726f7860008201527f6961626c65555549440000000000000000000000000000000000000000000000602082015250565b60006184e2602983615c49565b91506184ed82618486565b604082019050919050565b60006020820190508181036000830152618511816184d5565b9050919050565b7f4f776e61626c653a2063616c6c6572206973206e6f7420746865206f776e6572600082015250565b600061854e602083615c49565b915061855982618518565b602082019050919050565b6000602082019050818103600083015261857d81618541565b9050919050565b600061ffff82169050919050565b61859b81618584565b81146185a657600080fd5b50565b6000815190506185b881618592565b92915050565b6000602082840312156185d4576185d3615a7b565b5b60006185e2848285016185a9565b91505092915050565b7f4e487b7100000000000000000000000000000000000000000000000000000000600052601260045260246000fd5b600061862582615ae3565b915061863083615ae3565b9250826186405761863f6185eb565b5b828204905092915050565b600061865682615ae3565b915061866183615ae3565b925082820261866f81615ae3565b91508282048414831517618686576186856172a8565b5b5092915050565b7f455243313135353a206d696e7420746f20746865207a65726f2061646472657360008201527f7300000000000000000000000000000000000000000000000000000000000000602082015250565b60006186e9602183615c49565b91506186f48261868d565b604082019050919050565b60006020820190508181036000830152618718816186dc565b9050919050565b60006040820190506187346000830185615b59565b6187416020830184615b59565b9392505050565b7f455243313135353a2073657474696e6720617070726f76616c2073746174757360008201527f20666f722073656c660000000000000000000000000000000000000000000000602082015250565b60006187a4602983615c49565b91506187af82618748565b604082019050919050565b600060208201905081810360008301526187d381618797565b9050919050565b7f496e697469616c697a61626c653a20636f6e7472616374206973206e6f74206960008201527f6e697469616c697a696e67000000000000000000000000000000000000000000602082015250565b6000618836602b83615c49565b9150618841826187da565b604082019050919050565b6000602082019050818103600083015261886581618829565b9050919050565b600081519050919050565b600082825260208201905092915050565b60006188938261886c565b61889d8185618877565b93506188ad818560208601615c5a565b6188b681615c84565b840191505092915050565b600060a0820190506188d66000830188616701565b6188e36020830187616701565b81810360408301526188f58186616355565b905081810360608301526189098185616355565b9050818103608083015261891d8184618888565b90509695505050505050565b60008151905061893881615baf565b92915050565b60006020828403121561895457618953615a7b565b5b600061896284828501618929565b91505092915050565b60008160e01c9050919050565b600060033d11156189975760046000803e61899460005161896b565b90505b90565b600060443d10618a27576189ac615a71565b60043d036004823e80513d602482011167ffffffffffffffff821117156189d4575050618a27565b808201805167ffffffffffffffff8111156189f25750505050618a27565b80602083010160043d038501811115618a0f575050505050618a27565b618a1e82602001850186615dde565b82955050505050505b90565b7f455243313135353a207472616e7366657220746f206e6f6e2d4552433131353560008201527f526563656976657220696d706c656d656e746572000000000000000000000000602082015250565b6000618a86603483615c49565b9150618a9182618a2a565b604082019050919050565b60006020820190508181036000830152618ab581618a79565b9050919050565b7f455243313135353a204552433131353552656365697665722072656a6563746560008201527f6420746f6b656e73000000000000000000000000000000000000000000000000602082015250565b6000618b18602883615c49565b9150618b2382618abc565b604082019050919050565b60006020820190508181036000830152618b4781618b0b565b9050919050565b7f416363657373436f6e74726f6c3a206163636f756e7420000000000000000000600082015250565b6000618b84601783617dfe565b9150618b8f82618b4e565b601782019050919050565b7f206973206d697373696e6720726f6c6520000000000000000000000000000000600082015250565b6000618bd0601183617dfe565b9150618bdb82618b9a565b601182019050919050565b6000618bf182618b77565b9150618bfd8285617e09565b9150618c0882618bc3565b9150618c148284617e09565b91508190509392505050565b7f455243313936373a206e657720696d706c656d656e746174696f6e206973206e60008201527f6f74206120636f6e747261637400000000000000000000000000000000000000602082015250565b6000618c7c602d83615c49565b9150618c8782618c20565b604082019050919050565b60006020820190508181036000830152618cab81618c6f565b9050919050565b600060a082019050618cc76000830188616701565b618cd46020830187616701565b618ce16040830186615b59565b618cee6060830185615b59565b8181036080830152618d008184618888565b90509695505050505050565b6000618d1782615ae3565b915060008203618d2a57618d296172a8565b5b600182039050919050565b7f537472696e67733a20686578206c656e67746820696e73756666696369656e74600082015250565b6000618d6b602083615c49565b9150618d7682618d35565b602082019050919050565b60006020820190508181036000830152618d9a81618d5e565b9050919050565b7f416464726573733a2064656c65676174652063616c6c20746f206e6f6e2d636f60008201527f6e74726163740000000000000000000000000000000000000000000000000000602082015250565b6000618dfd602683615c49565b9150618e0882618da1565b604082019050919050565b60006020820190508181036000830152618e2c81618df0565b9050919050565b600081905092915050565b6000618e498261886c565b618e538185618e33565b9350618e63818560208601615c5a565b80840191505092915050565b6000618e7b8284618e3e565b91508190509291505056fe416464726573733a206c6f772d6c6576656c2064656c65676174652063616c6c206661696c6564a2646970667358221220808c350da006b8f538b6ae70e6d7263dc3b7bfefe7660952b52bc4c752adc20b64736f6c6343000812003360a06040523073ffffffffffffffffffffffffffffffffffffffff1660809073ffffffffffffffffffffffffffffffffffffffff1681525034801561004357600080fd5b506080516163016200007c60003960008181610b6e01528181610bfc01528181610d1601528181610da40152610e5401526163016000f3fe6080604052600436106102045760003560e01c80638da5cb5b11610118578063b1e5e2b7116100a0578063c87b56dd1161006f578063c87b56dd14610752578063d547741f1461078f578063e4a4a2a3146107b8578063e985e9c5146107e1578063f2fde38b1461081e57610204565b8063b1e5e2b7146106ac578063b224d82b146106d5578063b88d4fde14610700578063c4ca3a9c1461072957610204565b806395d89b41116100e757806395d89b41146105d9578063a0712d6814610604578063a217fddf1461062d578063a22cb46514610658578063b0952aff1461068157610204565b80638da5cb5b1461050b5780638f0b7b681461053657806391d148541461055f5780639254b8151461059c57610204565b80633659cfe61161019b5780636352211e1161016a5780636352211e146104285780636f96e99c1461046557806370a082311461048e578063715018a6146104cb57806388c63a57146104e257610204565b80633659cfe61461038f57806342842e0e146103b85780634f1ef286146103e157806352d1902d146103fd57610204565b806323b872dd116101d757806323b872dd146102d7578063248a9ca3146103005780632f2ff15d1461033d57806336568abe1461036657610204565b806301ffc9a71461020957806306fdde0314610246578063081812fc14610271578063095ea7b3146102ae575b600080fd5b34801561021557600080fd5b50610230600480360381019061022b9190613b8d565b610847565b60405161023d9190613bd5565b60405180910390f35b34801561025257600080fd5b5061025b610859565b6040516102689190613c80565b60405180910390f35b34801561027d57600080fd5b5061029860048036038101906102939190613cd8565b6108eb565b6040516102a59190613d46565b60405180910390f35b3480156102ba57600080fd5b506102d560048036038101906102d09190613d8d565b610931565b005b3480156102e357600080fd5b506102fe60048036038101906102f99190613dcd565b610a48565b005b34801561030c57600080fd5b5061032760048036038101906103229190613e56565b610aa8565b6040516103349190613e92565b60405180910390f35b34801561034957600080fd5b50610364600480360381019061035f9190613ead565b610ac8565b005b34801561037257600080fd5b5061038d60048036038101906103889190613ead565b610ae9565b005b34801561039b57600080fd5b506103b660048036038101906103b19190613eed565b610b6c565b005b3480156103c457600080fd5b506103df60048036038101906103da9190613dcd565b610cf4565b005b6103fb60048036038101906103f6919061404f565b610d14565b005b34801561040957600080fd5b50610412610e50565b60405161041f9190613e92565b60405180910390f35b34801561043457600080fd5b5061044f600480360381019061044a9190613cd8565b610f09565b60405161045c9190613d46565b60405180910390f35b34801561047157600080fd5b5061048c600480360381019061048791906140e9565b610f8f565b005b34801561049a57600080fd5b506104b560048036038101906104b09190613eed565b611115565b6040516104c29190614125565b60405180910390f35b3480156104d757600080fd5b506104e06111cc565b005b3480156104ee57600080fd5b506105096004803603810190610504919061417e565b6111e0565b005b34801561051757600080fd5b50610520611366565b60405161052d9190613d46565b60405180910390f35b34801561054257600080fd5b5061055d60048036038101906105589190614230565b611391565b005b34801561056b57600080fd5b5061058660048036038101906105819190613ead565b611435565b6040516105939190613bd5565b60405180910390f35b3480156105a857600080fd5b506105c360048036038101906105be9190613eed565b6114a0565b6040516105d09190614388565b60405180910390f35b3480156105e557600080fd5b506105ee611538565b6040516105fb9190613c80565b60405180910390f35b34801561061057600080fd5b5061062b60048036038101906106269190613cd8565b6115ca565b005b34801561063957600080fd5b506106426119a8565b60405161064f9190613e92565b60405180910390f35b34801561066457600080fd5b5061067f600480360381019061067a91906143d6565b6119af565b005b34801561068d57600080fd5b506106966119c5565b6040516106a39190614475565b60405180910390f35b3480156106b857600080fd5b506106d360048036038101906106ce9190613cd8565b6119ec565b005b3480156106e157600080fd5b506106ea611bbb565b6040516106f791906144b1565b60405180910390f35b34801561070c57600080fd5b50610727600480360381019061072291906144cc565b611be2565b005b34801561073557600080fd5b50610750600480360381019061074b919061454f565b611c44565b005b34801561075e57600080fd5b5061077960048036038101906107749190613cd8565b611cf7565b6040516107869190613c80565b60405180910390f35b34801561079b57600080fd5b506107b660048036038101906107b19190613ead565b611d95565b005b3480156107c457600080fd5b506107df60048036038101906107da9190614678565b611db6565b005b3480156107ed57600080fd5b5061080860048036038101906108039190614796565b612031565b6040516108159190613bd5565b60405180910390f35b34801561082a57600080fd5b5061084560048036038101906108409190613eed565b6120c5565b005b600061085282612148565b9050919050565b60606065805461086890614805565b80601f016020809104026020016040519081016040528092919081815260200182805461089490614805565b80156108e15780601f106108b6576101008083540402835291602001916108e1565b820191906000526020600020905b8154815290600101906020018083116108c457829003601f168201915b5050505050905090565b60006108f6826121c2565b6069600083815260200190815260200160002060009054906101000a900473ffffffffffffffffffffffffffffffffffffffff169050919050565b600061093c82610f09565b90508073ffffffffffffffffffffffffffffffffffffffff168373ffffffffffffffffffffffffffffffffffffffff16036109ac576040517f08c379a00000000000000000000000000000000000000000000000000000000081526004016109a3906148a8565b60405180910390fd5b8073ffffffffffffffffffffffffffffffffffffffff166109cb61220d565b73ffffffffffffffffffffffffffffffffffffffff1614806109fa57506109f9816109f461220d565b612031565b5b610a39576040517f08c379a0000000000000000000000000000000000000000000000000000000008152600401610a309061493a565b60405180910390fd5b610a438383612215565b505050565b610a59610a5361220d565b826122ce565b610a98576040517f08c379a0000000000000000000000000000000000000000000000000000000008152600401610a8f906149cc565b60405180910390fd5b610aa3838383612363565b505050565b600060976000838152602001908152602001600020600101549050919050565b610ad182610aa8565b610ada8161265c565b610ae48383612670565b505050565b610af161220d565b73ffffffffffffffffffffffffffffffffffffffff168173ffffffffffffffffffffffffffffffffffffffff1614610b5e576040517f08c379a0000000000000000000000000000000000000000000000000000000008152600401610b5590614a5e565b60405180910390fd5b610b688282612751565b5050565b7f000000000000000000000000000000000000000000000000000000000000000073ffffffffffffffffffffffffffffffffffffffff163073ffffffffffffffffffffffffffffffffffffffff1603610bfa576040517f08c379a0000000000000000000000000000000000000000000000000000000008152600401610bf190614af0565b60405180910390fd5b7f000000000000000000000000000000000000000000000000000000000000000073ffffffffffffffffffffffffffffffffffffffff16610c39612833565b73ffffffffffffffffffffffffffffffffffffffff1614610c8f576040517f08c379a0000000000000000000000000000000000000000000000000000000008152600401610c8690614b82565b60405180910390fd5b610c988161288a565b610cf181600067ffffffffffffffff811115610cb757610cb6613f24565b5b6040519080825280601f01601f191660200182016040528015610ce95781602001600182028036833780820191505090505b5060006128b8565b50565b610d0f83838360405180602001604052806000815250611be2565b505050565b7f000000000000000000000000000000000000000000000000000000000000000073ffffffffffffffffffffffffffffffffffffffff163073ffffffffffffffffffffffffffffffffffffffff1603610da2576040517f08c379a0000000000000000000000000000000000000000000000000000000008152600401610d9990614af0565b60405180910390fd5b7f000000000000000000000000000000000000000000000000000000000000000073ffffffffffffffffffffffffffffffffffffffff16610de1612833565b73ffffffffffffffffffffffffffffffffffffffff1614610e37576040517f08c379a0000000000000000000000000000000000000000000000000000000008152600401610e2e90614b82565b60405180910390fd5b610e408261288a565b610e4c828260016128b8565b5050565b60007f000000000000000000000000000000000000000000000000000000000000000073ffffffffffffffffffffffffffffffffffffffff163073ffffffffffffffffffffffffffffffffffffffff1614610ee0576040517f08c379a0000000000000000000000000000000000000000000000000000000008152600401610ed790614c14565b60405180910390fd5b7f360894a13ba1a3210667c828492db98dca3e2076cc3735a920a3ca505d382bbc60001b905090565b600080610f1583612a26565b9050600073ffffffffffffffffffffffffffffffffffffffff168173ffffffffffffffffffffffffffffffffffffffff1603610f86576040517f08c379a0000000000000000000000000000000000000000000000000000000008152600401610f7d90614c80565b60405180910390fd5b80915050919050565b7f22c69ab406805e70d07fb1a6502af760601d3b977beadb295a9d76d5852e16a3610fb98161265c565b61015f60009054906101000a900473ffffffffffffffffffffffffffffffffffffffff1673ffffffffffffffffffffffffffffffffffffffff168273ffffffffffffffffffffffffffffffffffffffff160361104a576040517f08c379a000000000000000000000000000000000000000000000000000000000815260040161104190614d38565b60405180910390fd5b600061015f60009054906101000a900473ffffffffffffffffffffffffffffffffffffffff1690508261015f60006101000a81548173ffffffffffffffffffffffffffffffffffffffff021916908373ffffffffffffffffffffffffffffffffffffffff1602179055507f95b51941f4e9b50395a323548e977103f9f32e909efa973665c8c2889c4e51068161016260009054906101000a900473ffffffffffffffffffffffffffffffffffffffff16604051611108929190614d58565b60405180910390a1505050565b60008073ffffffffffffffffffffffffffffffffffffffff168273ffffffffffffffffffffffffffffffffffffffff1603611185576040517f08c379a000000000000000000000000000000000000000000000000000000000815260040161117c90614df3565b60405180910390fd5b606860008373ffffffffffffffffffffffffffffffffffffffff1673ffffffffffffffffffffffffffffffffffffffff168152602001908152602001600020549050919050565b6111d4612a63565b6111de6000612ae1565b565b7f22c69ab406805e70d07fb1a6502af760601d3b977beadb295a9d76d5852e16a361120a8161265c565b61016260009054906101000a900473ffffffffffffffffffffffffffffffffffffffff1673ffffffffffffffffffffffffffffffffffffffff168273ffffffffffffffffffffffffffffffffffffffff160361129b576040517f08c379a000000000000000000000000000000000000000000000000000000000815260040161129290614eab565b60405180910390fd5b600061016260009054906101000a900473ffffffffffffffffffffffffffffffffffffffff1690508261016260006101000a81548173ffffffffffffffffffffffffffffffffffffffff021916908373ffffffffffffffffffffffffffffffffffffffff1602179055507fcd96411d27b0679c066181f5eada6e87b37923da830ba84a40dd98933e694fe18161016260009054906101000a900473ffffffffffffffffffffffffffffffffffffffff16604051611359929190614d58565b60405180910390a1505050565b600061012d60009054906101000a900473ffffffffffffffffffffffffffffffffffffffff16905090565b7fa49807205ce4d355092ef5a8a18f56e8913cf4a201fbe287825b095693c217756113bb8161265c565b73__$afec012158ebc01e771e0b8521b3c90181$__6339d1efc68888888888886040518763ffffffff1660e01b81526004016113fc96959493929190614f9e565b60006040518083038186803b15801561141457600080fd5b505af4158015611428573d6000803e3d6000fd5b5050505050505050505050565b60006097600084815260200190815260200160002060000160008373ffffffffffffffffffffffffffffffffffffffff1673ffffffffffffffffffffffffffffffffffffffff16815260200190815260200160002060009054906101000a900460ff16905092915050565b606061016360008373ffffffffffffffffffffffffffffffffffffffff1673ffffffffffffffffffffffffffffffffffffffff16815260200190815260200160002080548060200260200160405190810160405280929190818152602001828054801561152c57602002820191906000526020600020905b815481526020019060010190808311611518575b50505050509050919050565b60606066805461154790614805565b80601f016020809104026020016040519081016040528092919081815260200182805461157390614805565b80156115c05780601f10611595576101008083540402835291602001916115c0565b820191906000526020600020905b8154815290600101906020018083116115a357829003601f168201915b5050505050905090565b61015f60009054906101000a900473ffffffffffffffffffffffffffffffffffffffff16333061016754808473ffffffffffffffffffffffffffffffffffffffff1663dd62ed3e85856040518363ffffffff1660e01b8152600401611630929190614d58565b602060405180830381865afa15801561164d573d6000803e3d6000fd5b505050506040513d601f19601f82011682018060405250810190611671919061500f565b10156116b2576040517f08c379a00000000000000000000000000000000000000000000000000000000081526004016116a990615088565b60405180910390fd5b610169544210156116f8576040517f08c379a00000000000000000000000000000000000000000000000000000000081526004016116ef906150f4565b60405180910390fd5b61016a5442111561173e576040517f08c379a000000000000000000000000000000000000000000000000000000000815260040161173590615160565b60405180910390fd5b610166546101685410611786576040517f08c379a000000000000000000000000000000000000000000000000000000000815260040161177d906151cc565b60405180910390fd5b600061016560009054906101000a900460ff166117ee576117a686612ba9565b156117e6576040517f08c379a00000000000000000000000000000000000000000000000000000000081526004016117dd9061525e565b60405180910390fd5b859050611807565b6117f9610161612bea565b611804610161612c00565b90505b61015f60009054906101000a900473ffffffffffffffffffffffffffffffffffffffff1673ffffffffffffffffffffffffffffffffffffffff166323b872dd3330610167546040518463ffffffff1660e01b815260040161186a9392919061527e565b6020604051808303816000875af1158015611889573d6000803e3d6000fd5b505050506040513d601f19601f820116820180604052508101906118ad91906152ca565b506118b83382612c0e565b600161016860008282546118cc9190615326565b9250508190555061016360003373ffffffffffffffffffffffffffffffffffffffff1673ffffffffffffffffffffffffffffffffffffffff1681526020019081526020016000208190806001815401808255809150506001900390600052602060002001600090919091909150556000610164600083815260200190815260200160002060006101000a81548160ff0219169083151502179055507ffc12685c49cfeb42745015fd291b95815c183f87696b74009c88ed640a03b247338260405161199892919061535a565b60405180910390a1505050505050565b6000801b81565b6119c16119ba61220d565b8383612e2b565b5050565b61016260009054906101000a900473ffffffffffffffffffffffffffffffffffffffff1681565b3373ffffffffffffffffffffffffffffffffffffffff16611a0c82610f09565b73ffffffffffffffffffffffffffffffffffffffff1614611a62576040517f08c379a0000000000000000000000000000000000000000000000000000000008152600401611a59906153cf565b60405180910390fd5b610164600082815260200190815260200160002060009054906101000a900460ff1615611ac4576040517f08c379a0000000000000000000000000000000000000000000000000000000008152600401611abb9061543b565b60405180910390fd5b61016260009054906101000a900473ffffffffffffffffffffffffffffffffffffffff1673ffffffffffffffffffffffffffffffffffffffff1663d2318eae336040518263ffffffff1660e01b8152600401611b209190613d46565b600060405180830381600087803b158015611b3a57600080fd5b505af1158015611b4e573d6000803e3d6000fd5b505050506001610164600083815260200190815260200160002060006101000a81548160ff0219169083151502179055507f985873858e85c45546ea9ae9a4f36f740f1654da6c06d25bd88e3a1307ed22df3382604051611bb092919061535a565b60405180910390a150565b61015f60009054906101000a900473ffffffffffffffffffffffffffffffffffffffff1681565b611bf3611bed61220d565b836122ce565b611c32576040517f08c379a0000000000000000000000000000000000000000000000000000000008152600401611c29906149cc565b60405180910390fd5b611c3e84848484612f97565b50505050565b7fa49807205ce4d355092ef5a8a18f56e8913cf4a201fbe287825b095693c21775611c6e8161265c565b73__$afec012158ebc01e771e0b8521b3c90181$__637a17125987878787876040518663ffffffff1660e01b8152600401611cad95949392919061545b565b602060405180830381865af4158015611cca573d6000803e3d6000fd5b505050506040513d601f19601f82011682018060405250810190611cee919061500f565b50505050505050565b6060611d02826121c2565b6101608054611d1090614805565b80601f0160208091040260200160405190810160405280929190818152602001828054611d3c90614805565b8015611d895780601f10611d5e57610100808354040283529160200191611d89565b820191906000526020600020905b815481529060010190602001808311611d6c57829003601f168201915b50505050509050919050565b611d9e82610aa8565b611da78161265c565b611db18383612751565b505050565b60008060019054906101000a900460ff16159050808015611de75750600160008054906101000a900460ff1660ff16105b80611e145750611df630612ff3565b158015611e135750600160008054906101000a900460ff1660ff16145b5b611e53576040517f08c379a0000000000000000000000000000000000000000000000000000000008152600401611e4a9061551b565b60405180910390fd5b60016000806101000a81548160ff021916908360ff1602179055508015611e90576001600060016101000a81548160ff0219169083151502179055505b8861015f60006101000a81548173ffffffffffffffffffffffffffffffffffffffff021916908373ffffffffffffffffffffffffffffffffffffffff160217905550896101609081611ee291906156dd565b5085610169819055508461016a819055508361016560006101000a81548160ff02191690831515021790555082610166819055508161016781905550611f288888613016565b611f30613073565b611f386130c4565b611f4132612ae1565b611f4e6000801b32613115565b611f787fa49807205ce4d355092ef5a8a18f56e8913cf4a201fbe287825b095693c2177532613115565b611fa27f22c69ab406805e70d07fb1a6502af760601d3b977beadb295a9d76d5852e16a332613115565b611fcc7f5d8e12c39142ff96d79d04d15d1ba1269e4fe57bb9d26f43523628b34ba108ec32613115565b80156120255760008060016101000a81548160ff0219169083151502179055507f7f26b83ff96e1f2b6a682f133852f6798a09c465da95921460cefb3847402498600160405161201c91906157f7565b60405180910390a15b50505050505050505050565b6000606a60008473ffffffffffffffffffffffffffffffffffffffff1673ffffffffffffffffffffffffffffffffffffffff16815260200190815260200160002060008373ffffffffffffffffffffffffffffffffffffffff1673ffffffffffffffffffffffffffffffffffffffff16815260200190815260200160002060009054906101000a900460ff16905092915050565b6120cd612a63565b600073ffffffffffffffffffffffffffffffffffffffff168173ffffffffffffffffffffffffffffffffffffffff160361213c576040517f08c379a000000000000000000000000000000000000000000000000000000000815260040161213390615884565b60405180910390fd5b61214581612ae1565b50565b60007f7965db0b000000000000000000000000000000000000000000000000000000007bffffffffffffffffffffffffffffffffffffffffffffffffffffffff1916827bffffffffffffffffffffffffffffffffffffffffffffffffffffffff191614806121bb57506121ba82613123565b5b9050919050565b6121cb81612ba9565b61220a576040517f08c379a000000000000000000000000000000000000000000000000000000000815260040161220190614c80565b60405180910390fd5b50565b600033905090565b816069600083815260200190815260200160002060006101000a81548173ffffffffffffffffffffffffffffffffffffffff021916908373ffffffffffffffffffffffffffffffffffffffff160217905550808273ffffffffffffffffffffffffffffffffffffffff1661228883610f09565b73ffffffffffffffffffffffffffffffffffffffff167f8c5be1e5ebec7d5bd14f71427d1e84f3dd0314c0f7b2291e5b200ac8c7c3b92560405160405180910390a45050565b6000806122da83610f09565b90508073ffffffffffffffffffffffffffffffffffffffff168473ffffffffffffffffffffffffffffffffffffffff16148061231c575061231b8185612031565b5b8061235a57508373ffffffffffffffffffffffffffffffffffffffff16612342846108eb565b73ffffffffffffffffffffffffffffffffffffffff16145b91505092915050565b8273ffffffffffffffffffffffffffffffffffffffff1661238382610f09565b73ffffffffffffffffffffffffffffffffffffffff16146123d9576040517f08c379a00000000000000000000000000000000000000000000000000000000081526004016123d090615916565b60405180910390fd5b600073ffffffffffffffffffffffffffffffffffffffff168273ffffffffffffffffffffffffffffffffffffffff1603612448576040517f08c379a000000000000000000000000000000000000000000000000000000000815260040161243f906159a8565b60405180910390fd5b6124558383836001613205565b8273ffffffffffffffffffffffffffffffffffffffff1661247582610f09565b73ffffffffffffffffffffffffffffffffffffffff16146124cb576040517f08c379a00000000000000000000000000000000000000000000000000000000081526004016124c290615916565b60405180910390fd5b6069600082815260200190815260200160002060006101000a81549073ffffffffffffffffffffffffffffffffffffffff02191690556001606860008573ffffffffffffffffffffffffffffffffffffffff1673ffffffffffffffffffffffffffffffffffffffff168152602001908152602001600020600082825403925050819055506001606860008473ffffffffffffffffffffffffffffffffffffffff1673ffffffffffffffffffffffffffffffffffffffff16815260200190815260200160002060008282540192505081905550816067600083815260200190815260200160002060006101000a81548173ffffffffffffffffffffffffffffffffffffffff021916908373ffffffffffffffffffffffffffffffffffffffff160217905550808273ffffffffffffffffffffffffffffffffffffffff168473ffffffffffffffffffffffffffffffffffffffff167fddf252ad1be2c89b69c2b068fc378daa952ba7f163c4a11628f55a4df523b3ef60405160405180910390a4612657838383600161332b565b505050565b61266d8161266861220d565b613331565b50565b61267a8282611435565b61274d5760016097600084815260200190815260200160002060000160008373ffffffffffffffffffffffffffffffffffffffff1673ffffffffffffffffffffffffffffffffffffffff16815260200190815260200160002060006101000a81548160ff0219169083151502179055506126f261220d565b73ffffffffffffffffffffffffffffffffffffffff168173ffffffffffffffffffffffffffffffffffffffff16837f2f8788117e7eff1d82e926ec794901d17c78024a50270940304540a733656f0d60405160405180910390a45b5050565b61275b8282611435565b1561282f5760006097600084815260200190815260200160002060000160008373ffffffffffffffffffffffffffffffffffffffff1673ffffffffffffffffffffffffffffffffffffffff16815260200190815260200160002060006101000a81548160ff0219169083151502179055506127d461220d565b73ffffffffffffffffffffffffffffffffffffffff168173ffffffffffffffffffffffffffffffffffffffff16837ff6391f5c32d9c69d2a47ea670b442974b53935d1edc7fd64eb21e047a839171b60405160405180910390a45b5050565b60006128617f360894a13ba1a3210667c828492db98dca3e2076cc3735a920a3ca505d382bbc60001b6133b6565b60000160009054906101000a900473ffffffffffffffffffffffffffffffffffffffff16905090565b7fa49807205ce4d355092ef5a8a18f56e8913cf4a201fbe287825b095693c217756128b48161265c565b5050565b6128e47f4910fdfa16fed3260ed0e7147f7cc6da11a60208b5b9406d12a635614ffd914360001b6133c0565b60000160009054906101000a900460ff161561290857612903836133ca565b612a21565b8273ffffffffffffffffffffffffffffffffffffffff166352d1902d6040518163ffffffff1660e01b8152600401602060405180830381865afa92505050801561297057506040513d601f19601f8201168201806040525081019061296d91906159dd565b60015b6129af576040517f08c379a00000000000000000000000000000000000000000000000000000000081526004016129a690615a7c565b60405180910390fd5b7f360894a13ba1a3210667c828492db98dca3e2076cc3735a920a3ca505d382bbc60001b8114612a14576040517f08c379a0000000000000000000000000000000000000000000000000000000008152600401612a0b90615b0e565b60405180910390fd5b50612a20838383613483565b5b505050565b60006067600083815260200190815260200160002060009054906101000a900473ffffffffffffffffffffffffffffffffffffffff169050919050565b612a6b61220d565b73ffffffffffffffffffffffffffffffffffffffff16612a89611366565b73ffffffffffffffffffffffffffffffffffffffff1614612adf576040517f08c379a0000000000000000000000000000000000000000000000000000000008152600401612ad690615b7a565b60405180910390fd5b565b600061012d60009054906101000a900473ffffffffffffffffffffffffffffffffffffffff1690508161012d60006101000a81548173ffffffffffffffffffffffffffffffffffffffff021916908373ffffffffffffffffffffffffffffffffffffffff1602179055508173ffffffffffffffffffffffffffffffffffffffff168173ffffffffffffffffffffffffffffffffffffffff167f8be0079c531659141344cd1fd0a4f28419497f9722a3daafe3b4186f6b6457e060405160405180910390a35050565b60008073ffffffffffffffffffffffffffffffffffffffff16612bcb83612a26565b73ffffffffffffffffffffffffffffffffffffffff1614159050919050565b6001816000016000828254019250508190555050565b600081600001549050919050565b600073ffffffffffffffffffffffffffffffffffffffff168273ffffffffffffffffffffffffffffffffffffffff1603612c7d576040517f08c379a0000000000000000000000000000000000000000000000000000000008152600401612c7490615be6565b60405180910390fd5b612c8681612ba9565b15612cc6576040517f08c379a0000000000000000000000000000000000000000000000000000000008152600401612cbd90615c52565b60405180910390fd5b612cd4600083836001613205565b612cdd81612ba9565b15612d1d576040517f08c379a0000000000000000000000000000000000000000000000000000000008152600401612d1490615c52565b60405180910390fd5b6001606860008473ffffffffffffffffffffffffffffffffffffffff1673ffffffffffffffffffffffffffffffffffffffff16815260200190815260200160002060008282540192505081905550816067600083815260200190815260200160002060006101000a81548173ffffffffffffffffffffffffffffffffffffffff021916908373ffffffffffffffffffffffffffffffffffffffff160217905550808273ffffffffffffffffffffffffffffffffffffffff16600073ffffffffffffffffffffffffffffffffffffffff167fddf252ad1be2c89b69c2b068fc378daa952ba7f163c4a11628f55a4df523b3ef60405160405180910390a4612e2760008383600161332b565b5050565b8173ffffffffffffffffffffffffffffffffffffffff168373ffffffffffffffffffffffffffffffffffffffff1603612e99576040517f08c379a0000000000000000000000000000000000000000000000000000000008152600401612e9090615cbe565b60405180910390fd5b80606a60008573ffffffffffffffffffffffffffffffffffffffff1673ffffffffffffffffffffffffffffffffffffffff16815260200190815260200160002060008473ffffffffffffffffffffffffffffffffffffffff1673ffffffffffffffffffffffffffffffffffffffff16815260200190815260200160002060006101000a81548160ff0219169083151502179055508173ffffffffffffffffffffffffffffffffffffffff168373ffffffffffffffffffffffffffffffffffffffff167f17307eab39ab6107e8899845ad3d59bd9653f200f220920489ca2b5937696c3183604051612f8a9190613bd5565b60405180910390a3505050565b612fa2848484612363565b612fae848484846134af565b612fed576040517f08c379a0000000000000000000000000000000000000000000000000000000008152600401612fe490615d50565b60405180910390fd5b50505050565b6000808273ffffffffffffffffffffffffffffffffffffffff163b119050919050565b600060019054906101000a900460ff16613065576040517f08c379a000000000000000000000000000000000000000000000000000000000815260040161305c90615de2565b60405180910390fd5b61306f8282613636565b5050565b600060019054906101000a900460ff166130c2576040517f08c379a00000000000000000000000000000000000000000000000000000000081526004016130b990615de2565b60405180910390fd5b565b600060019054906101000a900460ff16613113576040517f08c379a000000000000000000000000000000000000000000000000000000000815260040161310a90615de2565b60405180910390fd5b565b61311f8282612670565b5050565b60007f80ac58cd000000000000000000000000000000000000000000000000000000007bffffffffffffffffffffffffffffffffffffffffffffffffffffffff1916827bffffffffffffffffffffffffffffffffffffffffffffffffffffffff191614806131ee57507f5b5e139f000000000000000000000000000000000000000000000000000000007bffffffffffffffffffffffffffffffffffffffffffffffffffffffff1916827bffffffffffffffffffffffffffffffffffffffffffffffffffffffff1916145b806131fe57506131fd826136a9565b5b9050919050565b600181111561332557600073ffffffffffffffffffffffffffffffffffffffff168473ffffffffffffffffffffffffffffffffffffffff16146132995780606860008673ffffffffffffffffffffffffffffffffffffffff1673ffffffffffffffffffffffffffffffffffffffff16815260200190815260200160002060008282546132919190615e02565b925050819055505b600073ffffffffffffffffffffffffffffffffffffffff168373ffffffffffffffffffffffffffffffffffffffff16146133245780606860008573ffffffffffffffffffffffffffffffffffffffff1673ffffffffffffffffffffffffffffffffffffffff168152602001908152602001600020600082825461331c9190615326565b925050819055505b5b50505050565b50505050565b61333b8282611435565b6133b25761334881613713565b6133568360001c6020613740565b604051602001613367929190615f0a565b6040516020818303038152906040526040517f08c379a00000000000000000000000000000000000000000000000000000000081526004016133a99190613c80565b60405180910390fd5b5050565b6000819050919050565b6000819050919050565b6133d381612ff3565b613412576040517f08c379a000000000000000000000000000000000000000000000000000000000815260040161340990615fb6565b60405180910390fd5b8061343f7f360894a13ba1a3210667c828492db98dca3e2076cc3735a920a3ca505d382bbc60001b6133b6565b60000160006101000a81548173ffffffffffffffffffffffffffffffffffffffff021916908373ffffffffffffffffffffffffffffffffffffffff16021790555050565b61348c8361397c565b6000825111806134995750805b156134aa576134a883836139cb565b505b505050565b60006134d08473ffffffffffffffffffffffffffffffffffffffff16612ff3565b15613629578373ffffffffffffffffffffffffffffffffffffffff1663150b7a026134f961220d565b8786866040518563ffffffff1660e01b815260040161351b949392919061602b565b6020604051808303816000875af192505050801561355757506040513d601f19601f82011682018060405250810190613554919061608c565b60015b6135d9573d8060008114613587576040519150601f19603f3d011682016040523d82523d6000602084013e61358c565b606091505b5060008151036135d1576040517f08c379a00000000000000000000000000000000000000000000000000000000081526004016135c890615d50565b60405180910390fd5b805181602001fd5b63150b7a0260e01b7bffffffffffffffffffffffffffffffffffffffffffffffffffffffff1916817bffffffffffffffffffffffffffffffffffffffffffffffffffffffff19161491505061362e565b600190505b949350505050565b600060019054906101000a900460ff16613685576040517f08c379a000000000000000000000000000000000000000000000000000000000815260040161367c90615de2565b60405180910390fd5b816065908161369491906156dd565b5080606690816136a491906156dd565b505050565b60007f01ffc9a7000000000000000000000000000000000000000000000000000000007bffffffffffffffffffffffffffffffffffffffffffffffffffffffff1916827bffffffffffffffffffffffffffffffffffffffffffffffffffffffff1916149050919050565b60606137398273ffffffffffffffffffffffffffffffffffffffff16601460ff16613740565b9050919050565b60606000600283600261375391906160b9565b61375d9190615326565b67ffffffffffffffff81111561377657613775613f24565b5b6040519080825280601f01601f1916602001820160405280156137a85781602001600182028036833780820191505090505b5090507f3000000000000000000000000000000000000000000000000000000000000000816000815181106137e0576137df6160fb565b5b60200101907effffffffffffffffffffffffffffffffffffffffffffffffffffffffffffff1916908160001a9053507f780000000000000000000000000000000000000000000000000000000000000081600181518110613844576138436160fb565b5b60200101907effffffffffffffffffffffffffffffffffffffffffffffffffffffffffffff1916908160001a9053506000600184600261388491906160b9565b61388e9190615326565b90505b600181111561392e577f3031323334353637383961626364656600000000000000000000000000000000600f8616601081106138d0576138cf6160fb565b5b1a60f81b8282815181106138e7576138e66160fb565b5b60200101907effffffffffffffffffffffffffffffffffffffffffffffffffffffffffffff1916908160001a905350600485901c9450806139279061612a565b9050613891565b5060008414613972576040517f08c379a00000000000000000000000000000000000000000000000000000000081526004016139699061619f565b60405180910390fd5b8091505092915050565b613985816133ca565b8073ffffffffffffffffffffffffffffffffffffffff167fbc7cd75a20ee27fd9adebab32041f755214dbc6bffa90cc0225b39da2e5c2d3b60405160405180910390a250565b60606139d683612ff3565b613a15576040517f08c379a0000000000000000000000000000000000000000000000000000000008152600401613a0c90616231565b60405180910390fd5b6000808473ffffffffffffffffffffffffffffffffffffffff1684604051613a3d919061628d565b600060405180830381855af49150503d8060008114613a78576040519150601f19603f3d011682016040523d82523d6000602084013e613a7d565b606091505b5091509150613aa582826040518060600160405280602781526020016162a560279139613aaf565b9250505092915050565b60608315613abf57829050613aca565b613ac98383613ad1565b5b9392505050565b600082511115613ae45781518083602001fd5b806040517f08c379a0000000000000000000000000000000000000000000000000000000008152600401613b189190613c80565b60405180910390fd5b6000604051905090565b600080fd5b600080fd5b60007fffffffff0000000000000000000000000000000000000000000000000000000082169050919050565b613b6a81613b35565b8114613b7557600080fd5b50565b600081359050613b8781613b61565b92915050565b600060208284031215613ba357613ba2613b2b565b5b6000613bb184828501613b78565b91505092915050565b60008115159050919050565b613bcf81613bba565b82525050565b6000602082019050613bea6000830184613bc6565b92915050565b600081519050919050565b600082825260208201905092915050565b60005b83811015613c2a578082015181840152602081019050613c0f565b60008484015250505050565b6000601f19601f8301169050919050565b6000613c5282613bf0565b613c5c8185613bfb565b9350613c6c818560208601613c0c565b613c7581613c36565b840191505092915050565b60006020820190508181036000830152613c9a8184613c47565b905092915050565b6000819050919050565b613cb581613ca2565b8114613cc057600080fd5b50565b600081359050613cd281613cac565b92915050565b600060208284031215613cee57613ced613b2b565b5b6000613cfc84828501613cc3565b91505092915050565b600073ffffffffffffffffffffffffffffffffffffffff82169050919050565b6000613d3082613d05565b9050919050565b613d4081613d25565b82525050565b6000602082019050613d5b6000830184613d37565b92915050565b613d6a81613d25565b8114613d7557600080fd5b50565b600081359050613d8781613d61565b92915050565b60008060408385031215613da457613da3613b2b565b5b6000613db285828601613d78565b9250506020613dc385828601613cc3565b9150509250929050565b600080600060608486031215613de657613de5613b2b565b5b6000613df486828701613d78565b9350506020613e0586828701613d78565b9250506040613e1686828701613cc3565b9150509250925092565b6000819050919050565b613e3381613e20565b8114613e3e57600080fd5b50565b600081359050613e5081613e2a565b92915050565b600060208284031215613e6c57613e6b613b2b565b5b6000613e7a84828501613e41565b91505092915050565b613e8c81613e20565b82525050565b6000602082019050613ea76000830184613e83565b92915050565b60008060408385031215613ec457613ec3613b2b565b5b6000613ed285828601613e41565b9250506020613ee385828601613d78565b9150509250929050565b600060208284031215613f0357613f02613b2b565b5b6000613f1184828501613d78565b91505092915050565b600080fd5b600080fd5b7f4e487b7100000000000000000000000000000000000000000000000000000000600052604160045260246000fd5b613f5c82613c36565b810181811067ffffffffffffffff82111715613f7b57613f7a613f24565b5b80604052505050565b6000613f8e613b21565b9050613f9a8282613f53565b919050565b600067ffffffffffffffff821115613fba57613fb9613f24565b5b613fc382613c36565b9050602081019050919050565b82818337600083830152505050565b6000613ff2613fed84613f9f565b613f84565b90508281526020810184848401111561400e5761400d613f1f565b5b614019848285613fd0565b509392505050565b600082601f83011261403657614035613f1a565b5b8135614046848260208601613fdf565b91505092915050565b6000806040838503121561406657614065613b2b565b5b600061407485828601613d78565b925050602083013567ffffffffffffffff81111561409557614094613b30565b5b6140a185828601614021565b9150509250929050565b60006140b682613d25565b9050919050565b6140c6816140ab565b81146140d157600080fd5b50565b6000813590506140e3816140bd565b92915050565b6000602082840312156140ff576140fe613b2b565b5b600061410d848285016140d4565b91505092915050565b61411f81613ca2565b82525050565b600060208201905061413a6000830184614116565b92915050565b600061414b82613d25565b9050919050565b61415b81614140565b811461416657600080fd5b50565b60008135905061417881614152565b92915050565b60006020828403121561419457614193613b2b565b5b60006141a284828501614169565b91505092915050565b600080fd5b600080fd5b60008083601f8401126141cb576141ca613f1a565b5b8235905067ffffffffffffffff8111156141e8576141e76141ab565b5b602083019150836001820283011115614204576142036141b0565b5b9250929050565b6002811061421857600080fd5b50565b60008135905061422a8161420b565b92915050565b60008060008060008060a0878903121561424d5761424c613b2b565b5b600061425b89828a01613d78565b965050602061426c89828a01613cc3565b955050604061427d89828a01613cc3565b945050606087013567ffffffffffffffff81111561429e5761429d613b30565b5b6142aa89828a016141b5565b935093505060806142bd89828a0161421b565b9150509295509295509295565b600081519050919050565b600082825260208201905092915050565b6000819050602082019050919050565b6142ff81613ca2565b82525050565b600061431183836142f6565b60208301905092915050565b6000602082019050919050565b6000614335826142ca565b61433f81856142d5565b935061434a836142e6565b8060005b8381101561437b5781516143628882614305565b975061436d8361431d565b92505060018101905061434e565b5085935050505092915050565b600060208201905081810360008301526143a2818461432a565b905092915050565b6143b381613bba565b81146143be57600080fd5b50565b6000813590506143d0816143aa565b92915050565b600080604083850312156143ed576143ec613b2b565b5b60006143fb85828601613d78565b925050602061440c858286016143c1565b9150509250929050565b6000819050919050565b600061443b61443661443184613d05565b614416565b613d05565b9050919050565b600061444d82614420565b9050919050565b600061445f82614442565b9050919050565b61446f81614454565b82525050565b600060208201905061448a6000830184614466565b92915050565b600061449b82614442565b9050919050565b6144ab81614490565b82525050565b60006020820190506144c660008301846144a2565b92915050565b600080600080608085870312156144e6576144e5613b2b565b5b60006144f487828801613d78565b945050602061450587828801613d78565b935050604061451687828801613cc3565b925050606085013567ffffffffffffffff81111561453757614536613b30565b5b61454387828801614021565b91505092959194509250565b60008060008060006080868803121561456b5761456a613b2b565b5b600061457988828901613d78565b955050602061458a88828901613cc3565b945050604086013567ffffffffffffffff8111156145ab576145aa613b30565b5b6145b7888289016141b5565b935093505060606145ca8882890161421b565b9150509295509295909350565b600067ffffffffffffffff8211156145f2576145f1613f24565b5b6145fb82613c36565b9050602081019050919050565b600061461b614616846145d7565b613f84565b90508281526020810184848401111561463757614636613f1f565b5b614642848285613fd0565b509392505050565b600082601f83011261465f5761465e613f1a565b5b813561466f848260208601614608565b91505092915050565b60008060008060008060008060006101208a8c03121561469b5761469a613b2b565b5b60008a013567ffffffffffffffff8111156146b9576146b8613b30565b5b6146c58c828d0161464a565b99505060206146d68c828d016140d4565b98505060408a013567ffffffffffffffff8111156146f7576146f6613b30565b5b6147038c828d0161464a565b97505060608a013567ffffffffffffffff81111561472457614723613b30565b5b6147308c828d0161464a565b96505060806147418c828d01613cc3565b95505060a06147528c828d01613cc3565b94505060c06147638c828d016143c1565b93505060e06147748c828d01613cc3565b9250506101006147868c828d01613cc3565b9150509295985092959850929598565b600080604083850312156147ad576147ac613b2b565b5b60006147bb85828601613d78565b92505060206147cc85828601613d78565b9150509250929050565b7f4e487b7100000000000000000000000000000000000000000000000000000000600052602260045260246000fd5b6000600282049050600182168061481d57607f821691505b6020821081036148305761482f6147d6565b5b50919050565b7f4552433732313a20617070726f76616c20746f2063757272656e74206f776e6560008201527f7200000000000000000000000000000000000000000000000000000000000000602082015250565b6000614892602183613bfb565b915061489d82614836565b604082019050919050565b600060208201905081810360008301526148c181614885565b9050919050565b7f4552433732313a20617070726f76652063616c6c6572206973206e6f7420746f60008201527f6b656e206f776e6572206f7220617070726f76656420666f7220616c6c000000602082015250565b6000614924603d83613bfb565b915061492f826148c8565b604082019050919050565b6000602082019050818103600083015261495381614917565b9050919050565b7f4552433732313a2063616c6c6572206973206e6f7420746f6b656e206f776e6560008201527f72206f7220617070726f76656400000000000000000000000000000000000000602082015250565b60006149b6602d83613bfb565b91506149c18261495a565b604082019050919050565b600060208201905081810360008301526149e5816149a9565b9050919050565b7f416363657373436f6e74726f6c3a2063616e206f6e6c792072656e6f756e636560008201527f20726f6c657320666f722073656c660000000000000000000000000000000000602082015250565b6000614a48602f83613bfb565b9150614a53826149ec565b604082019050919050565b60006020820190508181036000830152614a7781614a3b565b9050919050565b7f46756e6374696f6e206d7573742062652063616c6c6564207468726f7567682060008201527f64656c656761746563616c6c0000000000000000000000000000000000000000602082015250565b6000614ada602c83613bfb565b9150614ae582614a7e565b604082019050919050565b60006020820190508181036000830152614b0981614acd565b9050919050565b7f46756e6374696f6e206d7573742062652063616c6c6564207468726f7567682060008201527f6163746976652070726f78790000000000000000000000000000000000000000602082015250565b6000614b6c602c83613bfb565b9150614b7782614b10565b604082019050919050565b60006020820190508181036000830152614b9b81614b5f565b9050919050565b7f555550535570677261646561626c653a206d757374206e6f742062652063616c60008201527f6c6564207468726f7567682064656c656761746563616c6c0000000000000000602082015250565b6000614bfe603883613bfb565b9150614c0982614ba2565b604082019050919050565b60006020820190508181036000830152614c2d81614bf1565b9050919050565b7f4552433732313a20696e76616c696420746f6b656e2049440000000000000000600082015250565b6000614c6a601883613bfb565b9150614c7582614c34565b602082019050919050565b60006020820190508181036000830152614c9981614c5d565b9050919050565b7f536574204e65772050617920546f6b656e3a20546865206e6577206f6e65206d60008201527f75737420626520646966666572656e742066726f6d20746865206f6c64206f6e60208201527f6500000000000000000000000000000000000000000000000000000000000000604082015250565b6000614d22604183613bfb565b9150614d2d82614ca0565b606082019050919050565b60006020820190508181036000830152614d5181614d15565b9050919050565b6000604082019050614d6d6000830185613d37565b614d7a6020830184613d37565b9392505050565b7f4552433732313a2061646472657373207a65726f206973206e6f74206120766160008201527f6c6964206f776e65720000000000000000000000000000000000000000000000602082015250565b6000614ddd602983613bfb565b9150614de882614d81565b604082019050919050565b60006020820190508181036000830152614e0c81614dd0565b9050919050565b7f536574204e6577204e4654204f70656e696e67204974656d3a20546865206e6560008201527f77206f6e65206d75737420626520646966666572656e742066726f6d2074686560208201527f206f6c64206f6e65000000000000000000000000000000000000000000000000604082015250565b6000614e95604883613bfb565b9150614ea082614e13565b606082019050919050565b60006020820190508181036000830152614ec481614e88565b9050919050565b614ed481613d25565b82525050565b614ee381613ca2565b82525050565b600082825260208201905092915050565b6000614f068385614ee9565b9350614f13838584613fd0565b614f1c83613c36565b840190509392505050565b7f4e487b7100000000000000000000000000000000000000000000000000000000600052602160045260246000fd5b60028110614f6757614f66614f27565b5b50565b6000819050614f7882614f56565b919050565b6000614f8882614f6a565b9050919050565b614f9881614f7d565b82525050565b600060a082019050614fb36000830189614ecb565b614fc06020830188614eda565b614fcd6040830187614eda565b8181036060830152614fe0818587614efa565b9050614fef6080830184614f8f565b979650505050505050565b60008151905061500981613cac565b92915050565b60006020828403121561502557615024613b2b565b5b600061503384828501614ffa565b91505092915050565b7f4e6f7420617070726f766520656e6f75676820746f6b656e0000000000000000600082015250565b6000615072601883613bfb565b915061507d8261503c565b602082019050919050565b600060208201905081810360008301526150a181615065565b9050919050565b7f5468652063616d7061696e2773206e6f74207374617274656420796574000000600082015250565b60006150de601d83613bfb565b91506150e9826150a8565b602082019050919050565b6000602082019050818103600083015261510d816150d1565b9050919050565b7f5468652063616d706169676e277320616c726561647920656e64656400000000600082015250565b600061514a601c83613bfb565b915061515582615114565b602082019050919050565b600060208201905081810360008301526151798161513d565b9050919050565b7f536f6c64206f7574000000000000000000000000000000000000000000000000600082015250565b60006151b6600883613bfb565b91506151c182615180565b602082019050919050565b600060208201905081810360008301526151e5816151a9565b9050919050565b7f4d696e7420426f783a20746f6b656e4964277320616c7265616479206578697360008201527f7465640000000000000000000000000000000000000000000000000000000000602082015250565b6000615248602383613bfb565b9150615253826151ec565b604082019050919050565b600060208201905081810360008301526152778161523b565b9050919050565b60006060820190506152936000830186613d37565b6152a06020830185613d37565b6152ad6040830184614116565b949350505050565b6000815190506152c4816143aa565b92915050565b6000602082840312156152e0576152df613b2b565b5b60006152ee848285016152b5565b91505092915050565b7f4e487b7100000000000000000000000000000000000000000000000000000000600052601160045260246000fd5b600061533182613ca2565b915061533c83613ca2565b9250828201905080821115615354576153536152f7565b5b92915050565b600060408201905061536f6000830185613d37565b61537c6020830184614116565b9392505050565b7f596f7520646964206e6f74206f776e65642074686520746f6b656e0000000000600082015250565b60006153b9601b83613bfb565b91506153c482615383565b602082019050919050565b600060208201905081810360008301526153e8816153ac565b9050919050565b7f426f78277320616c7265616479206f70656e6564000000000000000000000000600082015250565b6000615425601483613bfb565b9150615430826153ef565b602082019050919050565b6000602082019050818103600083015261545481615418565b9050919050565b60006080820190506154706000830188614ecb565b61547d6020830187614eda565b8181036040830152615490818587614efa565b905061549f6060830184614f8f565b9695505050505050565b7f496e697469616c697a61626c653a20636f6e747261637420697320616c72656160008201527f647920696e697469616c697a6564000000000000000000000000000000000000602082015250565b6000615505602e83613bfb565b9150615510826154a9565b604082019050919050565b60006020820190508181036000830152615534816154f8565b9050919050565b60008190508160005260206000209050919050565b60006020601f8301049050919050565b600082821b905092915050565b60006008830261559d7fffffffffffffffffffffffffffffffffffffffffffffffffffffffffffffffff82615560565b6155a78683615560565b95508019841693508086168417925050509392505050565b60006155da6155d56155d084613ca2565b614416565b613ca2565b9050919050565b6000819050919050565b6155f4836155bf565b615608615600826155e1565b84845461556d565b825550505050565b600090565b61561d615610565b6156288184846155eb565b505050565b5b8181101561564c57615641600082615615565b60018101905061562e565b5050565b601f821115615691576156628161553b565b61566b84615550565b8101602085101561567a578190505b61568e61568685615550565b83018261562d565b50505b505050565b600082821c905092915050565b60006156b460001984600802615696565b1980831691505092915050565b60006156cd83836156a3565b9150826002028217905092915050565b6156e682613bf0565b67ffffffffffffffff8111156156ff576156fe613f24565b5b6157098254614805565b615714828285615650565b600060209050601f8311600181146157475760008415615735578287015190505b61573f85826156c1565b8655506157a7565b601f1984166157558661553b565b60005b8281101561577d57848901518255600182019150602085019450602081019050615758565b8683101561579a5784890151615796601f8916826156a3565b8355505b6001600288020188555050505b505050505050565b6000819050919050565b600060ff82169050919050565b60006157e16157dc6157d7846157af565b614416565b6157b9565b9050919050565b6157f1816157c6565b82525050565b600060208201905061580c60008301846157e8565b92915050565b7f4f776e61626c653a206e6577206f776e657220697320746865207a65726f206160008201527f6464726573730000000000000000000000000000000000000000000000000000602082015250565b600061586e602683613bfb565b915061587982615812565b604082019050919050565b6000602082019050818103600083015261589d81615861565b9050919050565b7f4552433732313a207472616e736665722066726f6d20696e636f72726563742060008201527f6f776e6572000000000000000000000000000000000000000000000000000000602082015250565b6000615900602583613bfb565b915061590b826158a4565b604082019050919050565b6000602082019050818103600083015261592f816158f3565b9050919050565b7f4552433732313a207472616e7366657220746f20746865207a65726f2061646460008201527f7265737300000000000000000000000000000000000000000000000000000000602082015250565b6000615992602483613bfb565b915061599d82615936565b604082019050919050565b600060208201905081810360008301526159c181615985565b9050919050565b6000815190506159d781613e2a565b92915050565b6000602082840312156159f3576159f2613b2b565b5b6000615a01848285016159c8565b91505092915050565b7f45524331393637557067726164653a206e657720696d706c656d656e7461746960008201527f6f6e206973206e6f742055555053000000000000000000000000000000000000602082015250565b6000615a66602e83613bfb565b9150615a7182615a0a565b604082019050919050565b60006020820190508181036000830152615a9581615a59565b9050919050565b7f45524331393637557067726164653a20756e737570706f727465642070726f7860008201527f6961626c65555549440000000000000000000000000000000000000000000000602082015250565b6000615af8602983613bfb565b9150615b0382615a9c565b604082019050919050565b60006020820190508181036000830152615b2781615aeb565b9050919050565b7f4f776e61626c653a2063616c6c6572206973206e6f7420746865206f776e6572600082015250565b6000615b64602083613bfb565b9150615b6f82615b2e565b602082019050919050565b60006020820190508181036000830152615b9381615b57565b9050919050565b7f4552433732313a206d696e7420746f20746865207a65726f2061646472657373600082015250565b6000615bd0602083613bfb565b9150615bdb82615b9a565b602082019050919050565b60006020820190508181036000830152615bff81615bc3565b9050919050565b7f4552433732313a20746f6b656e20616c7265616479206d696e74656400000000600082015250565b6000615c3c601c83613bfb565b9150615c4782615c06565b602082019050919050565b60006020820190508181036000830152615c6b81615c2f565b9050919050565b7f4552433732313a20617070726f766520746f2063616c6c657200000000000000600082015250565b6000615ca8601983613bfb565b9150615cb382615c72565b602082019050919050565b60006020820190508181036000830152615cd781615c9b565b9050919050565b7f4552433732313a207472616e7366657220746f206e6f6e20455243373231526560008201527f63656976657220696d706c656d656e7465720000000000000000000000000000602082015250565b6000615d3a603283613bfb565b9150615d4582615cde565b604082019050919050565b60006020820190508181036000830152615d6981615d2d565b9050919050565b7f496e697469616c697a61626c653a20636f6e7472616374206973206e6f74206960008201527f6e697469616c697a696e67000000000000000000000000000000000000000000602082015250565b6000615dcc602b83613bfb565b9150615dd782615d70565b604082019050919050565b60006020820190508181036000830152615dfb81615dbf565b9050919050565b6000615e0d82613ca2565b9150615e1883613ca2565b9250828203905081811115615e3057615e2f6152f7565b5b92915050565b600081905092915050565b7f416363657373436f6e74726f6c3a206163636f756e7420000000000000000000600082015250565b6000615e77601783615e36565b9150615e8282615e41565b601782019050919050565b6000615e9882613bf0565b615ea28185615e36565b9350615eb2818560208601613c0c565b80840191505092915050565b7f206973206d697373696e6720726f6c6520000000000000000000000000000000600082015250565b6000615ef4601183615e36565b9150615eff82615ebe565b601182019050919050565b6000615f1582615e6a565b9150615f218285615e8d565b9150615f2c82615ee7565b9150615f388284615e8d565b91508190509392505050565b7f455243313936373a206e657720696d706c656d656e746174696f6e206973206e60008201527f6f74206120636f6e747261637400000000000000000000000000000000000000602082015250565b6000615fa0602d83613bfb565b9150615fab82615f44565b604082019050919050565b60006020820190508181036000830152615fcf81615f93565b9050919050565b600081519050919050565b600082825260208201905092915050565b6000615ffd82615fd6565b6160078185615fe1565b9350616017818560208601613c0c565b61602081613c36565b840191505092915050565b60006080820190506160406000830187613d37565b61604d6020830186613d37565b61605a6040830185614116565b818103606083015261606c8184615ff2565b905095945050505050565b60008151905061608681613b61565b92915050565b6000602082840312156160a2576160a1613b2b565b5b60006160b084828501616077565b91505092915050565b60006160c482613ca2565b91506160cf83613ca2565b92508282026160dd81613ca2565b915082820484148315176160f4576160f36152f7565b5b5092915050565b7f4e487b7100000000000000000000000000000000000000000000000000000000600052603260045260246000fd5b600061613582613ca2565b915060008203616148576161476152f7565b5b600182039050919050565b7f537472696e67733a20686578206c656e67746820696e73756666696369656e74600082015250565b6000616189602083613bfb565b915061619482616153565b602082019050919050565b600060208201905081810360008301526161b88161617c565b9050919050565b7f416464726573733a2064656c65676174652063616c6c20746f206e6f6e2d636f60008201527f6e74726163740000000000000000000000000000000000000000000000000000602082015250565b600061621b602683613bfb565b9150616226826161bf565b604082019050919050565b6000602082019050818103600083015261624a8161620e565b9050919050565b600081905092915050565b600061626782615fd6565b6162718185616251565b9350616281818560208601613c0c565b80840191505092915050565b6000616299828461625c565b91508190509291505056fe416464726573733a206c6f772d6c6576656c2064656c65676174652063616c6c206661696c6564a26469706673582212204984fbf9406df47b2da0ec1d2a928785c144512be04c4a5bb6105d430eb9604764736f6c63430008120033",
			"opcodes": "PUSH1 0x80 PUSH1 0x40 MSTORE CALLVALUE DUP1 ISZERO PUSH3 0x11 JUMPI PUSH1 0x0 DUP1 REVERT JUMPDEST POP PUSH1 0x40 MLOAD PUSH3 0x1B510 CODESIZE SUB DUP1 PUSH3 0x1B510 DUP4 CODECOPY DUP2 DUP2 ADD PUSH1 0x40 MSTORE DUP2 ADD SWAP1 PUSH3 0x37 SWAP2 SWAP1 PUSH3 0x42B JUMP JUMPDEST DUP1 PUSH1 0xC PUSH1 0x0 PUSH2 0x100 EXP DUP2 SLOAD DUP2 PUSH20 0xFFFFFFFFFFFFFFFFFFFFFFFFFFFFFFFFFFFFFFFF MUL NOT AND SWAP1 DUP4 PUSH20 0xFFFFFFFFFFFFFFFFFFFFFFFFFFFFFFFFFFFFFFFF AND MUL OR SWAP1 SSTORE POP PUSH1 0x40 MLOAD PUSH3 0x86 SWAP1 PUSH3 0x383 JUMP JUMPDEST PUSH1 0x40 MLOAD DUP1 SWAP2 SUB SWAP1 PUSH1 0x0 CREATE DUP1 ISZERO DUP1 ISZERO PUSH3 0xA3 JUMPI RETURNDATASIZE PUSH1 0x0 DUP1 RETURNDATACOPY RETURNDATASIZE PUSH1 0x0 REVERT JUMPDEST POP PUSH1 0x4 PUSH1 0x0 PUSH2 0x100 EXP DUP2 SLOAD DUP2 PUSH20 0xFFFFFFFFFFFFFFFFFFFFFFFFFFFFFFFFFFFFFFFF MUL NOT AND SWAP1 DUP4 PUSH20 0xFFFFFFFFFFFFFFFFFFFFFFFFFFFFFFFFFFFFFFFF AND MUL OR SWAP1 SSTORE POP PUSH1 0x40 MLOAD PUSH3 0xF2 SWAP1 PUSH3 0x391 JUMP JUMPDEST PUSH1 0x40 MLOAD DUP1 SWAP2 SUB SWAP1 PUSH1 0x0 CREATE DUP1 ISZERO DUP1 ISZERO PUSH3 0x10F JUMPI RETURNDATASIZE PUSH1 0x0 DUP1 RETURNDATACOPY RETURNDATASIZE PUSH1 0x0 REVERT JUMPDEST POP PUSH1 0x5 PUSH1 0x0 PUSH2 0x100 EXP DUP2 SLOAD DUP2 PUSH20 0xFFFFFFFFFFFFFFFFFFFFFFFFFFFFFFFFFFFFFFFF MUL NOT AND SWAP1 DUP4 PUSH20 0xFFFFFFFFFFFFFFFFFFFFFFFFFFFFFFFFFFFFFFFF AND MUL OR SWAP1 SSTORE POP PUSH1 0x40 MLOAD PUSH3 0x15E SWAP1 PUSH3 0x39F JUMP JUMPDEST PUSH1 0x40 MLOAD DUP1 SWAP2 SUB SWAP1 PUSH1 0x0 CREATE DUP1 ISZERO DUP1 ISZERO PUSH3 0x17B JUMPI RETURNDATASIZE PUSH1 0x0 DUP1 RETURNDATACOPY RETURNDATASIZE PUSH1 0x0 REVERT JUMPDEST POP PUSH1 0xA PUSH1 0x0 PUSH2 0x100 EXP DUP2 SLOAD DUP2 PUSH20 0xFFFFFFFFFFFFFFFFFFFFFFFFFFFFFFFFFFFFFFFF MUL NOT AND SWAP1 DUP4 PUSH20 0xFFFFFFFFFFFFFFFFFFFFFFFFFFFFFFFFFFFFFFFF AND MUL OR SWAP1 SSTORE POP PUSH3 0x1EE PUSH32 0xA49807205CE4D355092EF5A8A18F56E8913CF4A201FBE287825B095693C21775 CALLER PUSH3 0x20A PUSH1 0x20 SHL PUSH1 0x20 SHR JUMP JUMPDEST PUSH3 0x203 PUSH1 0x0 DUP1 SHL CALLER PUSH3 0x20A PUSH1 0x20 SHL PUSH1 0x20 SHR JUMP JUMPDEST POP PUSH3 0x45D JUMP JUMPDEST PUSH3 0x21C DUP3 DUP3 PUSH3 0x220 PUSH1 0x20 SHL PUSH1 0x20 SHR JUMP JUMPDEST POP POP JUMP JUMPDEST PUSH3 0x232 DUP3 DUP3 PUSH3 0x311 PUSH1 0x20 SHL PUSH1 0x20 SHR JUMP JUMPDEST PUSH3 0x30D JUMPI PUSH1 0x1 PUSH1 0x0 DUP1 DUP5 DUP2 MSTORE PUSH1 0x20 ADD SWAP1 DUP2 MSTORE PUSH1 0x20 ADD PUSH1 0x0 KECCAK256 PUSH1 0x0 ADD PUSH1 0x0 DUP4 PUSH20 0xFFFFFFFFFFFFFFFFFFFFFFFFFFFFFFFFFFFFFFFF AND PUSH20 0xFFFFFFFFFFFFFFFFFFFFFFFFFFFFFFFFFFFFFFFF AND DUP2 MSTORE PUSH1 0x20 ADD SWAP1 DUP2 MSTORE PUSH1 0x20 ADD PUSH1 0x0 KECCAK256 PUSH1 0x0 PUSH2 0x100 EXP DUP2 SLOAD DUP2 PUSH1 0xFF MUL NOT AND SWAP1 DUP4 ISZERO ISZERO MUL OR SWAP1 SSTORE POP PUSH3 0x2B2 PUSH3 0x37B PUSH1 0x20 SHL PUSH1 0x20 SHR JUMP JUMPDEST PUSH20 0xFFFFFFFFFFFFFFFFFFFFFFFFFFFFFFFFFFFFFFFF AND DUP2 PUSH20 0xFFFFFFFFFFFFFFFFFFFFFFFFFFFFFFFFFFFFFFFF AND DUP4 PUSH32 0x2F8788117E7EFF1D82E926EC794901D17C78024A50270940304540A733656F0D PUSH1 0x40 MLOAD PUSH1 0x40 MLOAD DUP1 SWAP2 SUB SWAP1 LOG4 JUMPDEST POP POP JUMP JUMPDEST PUSH1 0x0 DUP1 PUSH1 0x0 DUP5 DUP2 MSTORE PUSH1 0x20 ADD SWAP1 DUP2 MSTORE PUSH1 0x20 ADD PUSH1 0x0 KECCAK256 PUSH1 0x0 ADD PUSH1 0x0 DUP4 PUSH20 0xFFFFFFFFFFFFFFFFFFFFFFFFFFFFFFFFFFFFFFFF AND PUSH20 0xFFFFFFFFFFFFFFFFFFFFFFFFFFFFFFFFFFFFFFFF AND DUP2 MSTORE PUSH1 0x20 ADD SWAP1 DUP2 MSTORE PUSH1 0x20 ADD PUSH1 0x0 KECCAK256 PUSH1 0x0 SWAP1 SLOAD SWAP1 PUSH2 0x100 EXP SWAP1 DIV PUSH1 0xFF AND SWAP1 POP SWAP3 SWAP2 POP POP JUMP JUMPDEST PUSH1 0x0 CALLER SWAP1 POP SWAP1 JUMP JUMPDEST PUSH2 0x8846 DUP1 PUSH3 0x39ED DUP4 CODECOPY ADD SWAP1 JUMP JUMPDEST PUSH2 0x8F60 DUP1 PUSH3 0xC233 DUP4 CODECOPY ADD SWAP1 JUMP JUMPDEST PUSH2 0x637D DUP1 PUSH3 0x15193 DUP4 CODECOPY ADD SWAP1 JUMP JUMPDEST PUSH1 0x0 DUP1 REVERT JUMPDEST PUSH1 0x0 PUSH20 0xFFFFFFFFFFFFFFFFFFFFFFFFFFFFFFFFFFFFFFFF DUP3 AND SWAP1 POP SWAP2 SWAP1 POP JUMP JUMPDEST PUSH1 0x0 PUSH3 0x3DF DUP3 PUSH3 0x3B2 JUMP JUMPDEST SWAP1 POP SWAP2 SWAP1 POP JUMP JUMPDEST PUSH1 0x0 PUSH3 0x3F3 DUP3 PUSH3 0x3D2 JUMP JUMPDEST SWAP1 POP SWAP2 SWAP1 POP JUMP JUMPDEST PUSH3 0x405 DUP2 PUSH3 0x3E6 JUMP JUMPDEST DUP2 EQ PUSH3 0x411 JUMPI PUSH1 0x0 DUP1 REVERT JUMPDEST POP JUMP JUMPDEST PUSH1 0x0 DUP2 MLOAD SWAP1 POP PUSH3 0x425 DUP2 PUSH3 0x3FA JUMP JUMPDEST SWAP3 SWAP2 POP POP JUMP JUMPDEST PUSH1 0x0 PUSH1 0x20 DUP3 DUP5 SUB SLT ISZERO PUSH3 0x444 JUMPI PUSH3 0x443 PUSH3 0x3AD JUMP JUMPDEST JUMPDEST PUSH1 0x0 PUSH3 0x454 DUP5 DUP3 DUP6 ADD PUSH3 0x414 JUMP JUMPDEST SWAP2 POP POP SWAP3 SWAP2 POP POP JUMP JUMPDEST PUSH2 0x3580 DUP1 PUSH3 0x46D PUSH1 0x0 CODECOPY PUSH1 0x0 RETURN INVALID PUSH1 0x80 PUSH1 0x40 MSTORE CALLVALUE DUP1 ISZERO PUSH2 0x10 JUMPI PUSH1 0x0 DUP1 REVERT JUMPDEST POP PUSH1 0x4 CALLDATASIZE LT PUSH2 0x1DA JUMPI PUSH1 0x0 CALLDATALOAD PUSH1 0xE0 SHR DUP1 PUSH4 0x75B238FC GT PUSH2 0x104 JUMPI DUP1 PUSH4 0xA54CD2F6 GT PUSH2 0xA2 JUMPI DUP1 PUSH4 0xC49BF932 GT PUSH2 0x71 JUMPI DUP1 PUSH4 0xC49BF932 EQ PUSH2 0x581 JUMPI DUP1 PUSH4 0xD547741F EQ PUSH2 0x59D JUMPI DUP1 PUSH4 0xE4AE24A8 EQ PUSH2 0x5B9 JUMPI DUP1 PUSH4 0xF557C560 EQ PUSH2 0x5D7 JUMPI PUSH2 0x1DA JUMP JUMPDEST DUP1 PUSH4 0xA54CD2F6 EQ PUSH2 0x4E5 JUMPI DUP1 PUSH4 0xAC4807FF EQ PUSH2 0x503 JUMPI DUP1 PUSH4 0xAEDC2DDC EQ PUSH2 0x521 JUMPI DUP1 PUSH4 0xBBB24156 EQ PUSH2 0x551 JUMPI PUSH2 0x1DA JUMP JUMPDEST DUP1 PUSH4 0x9EE984BA GT PUSH2 0xDE JUMPI DUP1 PUSH4 0x9EE984BA EQ PUSH2 0x46D JUMPI DUP1 PUSH4 0xA217FDDF EQ PUSH2 0x48B JUMPI DUP1 PUSH4 0xA2597109 EQ PUSH2 0x4A9 JUMPI DUP1 PUSH4 0xA3B7EBFF EQ PUSH2 0x4C7 JUMPI PUSH2 0x1DA JUMP JUMPDEST DUP1 PUSH4 0x75B238FC EQ PUSH2 0x401 JUMPI DUP1 PUSH4 0x91D14854 EQ PUSH2 0x41F JUMPI DUP1 PUSH4 0x95623641 EQ PUSH2 0x44F JUMPI PUSH2 0x1DA JUMP JUMPDEST DUP1 PUSH4 0x4587A610 GT PUSH2 0x17C JUMPI DUP1 PUSH4 0x61B6CC3C GT PUSH2 0x14B JUMPI DUP1 PUSH4 0x61B6CC3C EQ PUSH2 0x37B JUMPI DUP1 PUSH4 0x627F09C3 EQ PUSH2 0x3AB JUMPI DUP1 PUSH4 0x71EFEDE9 EQ PUSH2 0x3C7 JUMPI DUP1 PUSH4 0x74F55D54 EQ PUSH2 0x3E5 JUMPI PUSH2 0x1DA JUMP JUMPDEST DUP1 PUSH4 0x4587A610 EQ PUSH2 0x2F3 JUMPI DUP1 PUSH4 0x4D0BFCB3 EQ PUSH2 0x311 JUMPI DUP1 PUSH4 0x52AFE4A1 EQ PUSH2 0x32F JUMPI DUP1 PUSH4 0x5E96C710 EQ PUSH2 0x35F JUMPI PUSH2 0x1DA JUMP JUMPDEST DUP1 PUSH4 0x25C2BBFB GT PUSH2 0x1B8 JUMPI DUP1 PUSH4 0x25C2BBFB EQ PUSH2 0x26F JUMPI DUP1 PUSH4 0x2F2FF15D EQ PUSH2 0x28B JUMPI DUP1 PUSH4 0x333671A4 EQ PUSH2 0x2A7 JUMPI DUP1 PUSH4 0x36568ABE EQ PUSH2 0x2D7 JUMPI PUSH2 0x1DA JUMP JUMPDEST DUP1 PUSH4 0x1FFC9A7 EQ PUSH2 0x1DF JUMPI DUP1 PUSH4 0x85BA9A9 EQ PUSH2 0x20F JUMPI DUP1 PUSH4 0x248A9CA3 EQ PUSH2 0x23F JUMPI JUMPDEST PUSH1 0x0 DUP1 REVERT JUMPDEST PUSH2 0x1F9 PUSH1 0x4 DUP1 CALLDATASIZE SUB DUP2 ADD SWAP1 PUSH2 0x1F4 SWAP2 SWAP1 PUSH2 0x1F6F JUMP JUMPDEST PUSH2 0x5F3 JUMP JUMPDEST PUSH1 0x40 MLOAD PUSH2 0x206 SWAP2 SWAP1 PUSH2 0x1FB7 JUMP JUMPDEST PUSH1 0x40 MLOAD DUP1 SWAP2 SUB SWAP1 RETURN JUMPDEST PUSH2 0x229 PUSH1 0x4 DUP1 CALLDATASIZE SUB DUP2 ADD SWAP1 PUSH2 0x224 SWAP2 SWAP1 PUSH2 0x2008 JUMP JUMPDEST PUSH2 0x605 JUMP JUMPDEST PUSH1 0x40 MLOAD PUSH2 0x236 SWAP2 SWAP1 PUSH2 0x2076 JUMP JUMPDEST PUSH1 0x40 MLOAD DUP1 SWAP2 SUB SWAP1 RETURN JUMPDEST PUSH2 0x259 PUSH1 0x4 DUP1 CALLDATASIZE SUB DUP2 ADD SWAP1 PUSH2 0x254 SWAP2 SWAP1 PUSH2 0x20C7 JUMP JUMPDEST PUSH2 0x644 JUMP JUMPDEST PUSH1 0x40 MLOAD PUSH2 0x266 SWAP2 SWAP1 PUSH2 0x2103 JUMP JUMPDEST PUSH1 0x40 MLOAD DUP1 SWAP2 SUB SWAP1 RETURN JUMPDEST PUSH2 0x289 PUSH1 0x4 DUP1 CALLDATASIZE SUB DUP2 ADD SWAP1 PUSH2 0x284 SWAP2 SWAP1 PUSH2 0x22CE JUMP JUMPDEST PUSH2 0x663 JUMP JUMPDEST STOP JUMPDEST PUSH2 0x2A5 PUSH1 0x4 DUP1 CALLDATASIZE SUB DUP2 ADD SWAP1 PUSH2 0x2A0 SWAP2 SWAP1 PUSH2 0x2418 JUMP JUMPDEST PUSH2 0x7F0 JUMP JUMPDEST STOP JUMPDEST PUSH2 0x2C1 PUSH1 0x4 DUP1 CALLDATASIZE SUB DUP2 ADD SWAP1 PUSH2 0x2BC SWAP2 SWAP1 PUSH2 0x2008 JUMP JUMPDEST PUSH2 0x811 JUMP JUMPDEST PUSH1 0x40 MLOAD PUSH2 0x2CE SWAP2 SWAP1 PUSH2 0x2076 JUMP JUMPDEST PUSH1 0x40 MLOAD DUP1 SWAP2 SUB SWAP1 RETURN JUMPDEST PUSH2 0x2F1 PUSH1 0x4 DUP1 CALLDATASIZE SUB DUP2 ADD SWAP1 PUSH2 0x2EC SWAP2 SWAP1 PUSH2 0x2418 JUMP JUMPDEST PUSH2 0x82E JUMP JUMPDEST STOP JUMPDEST PUSH2 0x2FB PUSH2 0x8B1 JUMP JUMPDEST PUSH1 0x40 MLOAD PUSH2 0x308 SWAP2 SWAP1 PUSH2 0x24B7 JUMP JUMPDEST PUSH1 0x40 MLOAD DUP1 SWAP2 SUB SWAP1 RETURN JUMPDEST PUSH2 0x319 PUSH2 0x8D7 JUMP JUMPDEST PUSH1 0x40 MLOAD PUSH2 0x326 SWAP2 SWAP1 PUSH2 0x2590 JUMP JUMPDEST PUSH1 0x40 MLOAD DUP1 SWAP2 SUB SWAP1 RETURN JUMPDEST PUSH2 0x349 PUSH1 0x4 DUP1 CALLDATASIZE SUB DUP2 ADD SWAP1 PUSH2 0x344 SWAP2 SWAP1 PUSH2 0x25B2 JUMP JUMPDEST PUSH2 0x990 JUMP JUMPDEST PUSH1 0x40 MLOAD PUSH2 0x356 SWAP2 SWAP1 PUSH2 0x1FB7 JUMP JUMPDEST PUSH1 0x40 MLOAD DUP1 SWAP2 SUB SWAP1 RETURN JUMPDEST PUSH2 0x379 PUSH1 0x4 DUP1 CALLDATASIZE SUB DUP2 ADD SWAP1 PUSH2 0x374 SWAP2 SWAP1 PUSH2 0x2749 JUMP JUMPDEST PUSH2 0x9AD JUMP JUMPDEST STOP JUMPDEST PUSH2 0x395 PUSH1 0x4 DUP1 CALLDATASIZE SUB DUP2 ADD SWAP1 PUSH2 0x390 SWAP2 SWAP1 PUSH2 0x2008 JUMP JUMPDEST PUSH2 0xF69 JUMP JUMPDEST PUSH1 0x40 MLOAD PUSH2 0x3A2 SWAP2 SWAP1 PUSH2 0x2076 JUMP JUMPDEST PUSH1 0x40 MLOAD DUP1 SWAP2 SUB SWAP1 RETURN JUMPDEST PUSH2 0x3C5 PUSH1 0x4 DUP1 CALLDATASIZE SUB DUP2 ADD SWAP1 PUSH2 0x3C0 SWAP2 SWAP1 PUSH2 0x2899 JUMP JUMPDEST PUSH2 0xFA8 JUMP JUMPDEST STOP JUMPDEST PUSH2 0x3CF PUSH2 0x10BD JUMP JUMPDEST PUSH1 0x40 MLOAD PUSH2 0x3DC SWAP2 SWAP1 PUSH2 0x2076 JUMP JUMPDEST PUSH1 0x40 MLOAD DUP1 SWAP2 SUB SWAP1 RETURN JUMPDEST PUSH2 0x3FF PUSH1 0x4 DUP1 CALLDATASIZE SUB DUP2 ADD SWAP1 PUSH2 0x3FA SWAP2 SWAP1 PUSH2 0x28C6 JUMP JUMPDEST PUSH2 0x1155 JUMP JUMPDEST STOP JUMPDEST PUSH2 0x409 PUSH2 0x1216 JUMP JUMPDEST PUSH1 0x40 MLOAD PUSH2 0x416 SWAP2 SWAP1 PUSH2 0x2103 JUMP JUMPDEST PUSH1 0x40 MLOAD DUP1 SWAP2 SUB SWAP1 RETURN JUMPDEST PUSH2 0x439 PUSH1 0x4 DUP1 CALLDATASIZE SUB DUP2 ADD SWAP1 PUSH2 0x434 SWAP2 SWAP1 PUSH2 0x2418 JUMP JUMPDEST PUSH2 0x123A JUMP JUMPDEST PUSH1 0x40 MLOAD PUSH2 0x446 SWAP2 SWAP1 PUSH2 0x1FB7 JUMP JUMPDEST PUSH1 0x40 MLOAD DUP1 SWAP2 SUB SWAP1 RETURN JUMPDEST PUSH2 0x457 PUSH2 0x12A4 JUMP JUMPDEST PUSH1 0x40 MLOAD PUSH2 0x464 SWAP2 SWAP1 PUSH2 0x2076 JUMP JUMPDEST PUSH1 0x40 MLOAD DUP1 SWAP2 SUB SWAP1 RETURN JUMPDEST PUSH2 0x475 PUSH2 0x12CA JUMP JUMPDEST PUSH1 0x40 MLOAD PUSH2 0x482 SWAP2 SWAP1 PUSH2 0x2076 JUMP JUMPDEST PUSH1 0x40 MLOAD DUP1 SWAP2 SUB SWAP1 RETURN JUMPDEST PUSH2 0x493 PUSH2 0x12F4 JUMP JUMPDEST PUSH1 0x40 MLOAD PUSH2 0x4A0 SWAP2 SWAP1 PUSH2 0x2103 JUMP JUMPDEST PUSH1 0x40 MLOAD DUP1 SWAP2 SUB SWAP1 RETURN JUMPDEST PUSH2 0x4B1 PUSH2 0x12FB JUMP JUMPDEST PUSH1 0x40 MLOAD PUSH2 0x4BE SWAP2 SWAP1 PUSH2 0x2076 JUMP JUMPDEST PUSH1 0x40 MLOAD DUP1 SWAP2 SUB SWAP1 RETURN JUMPDEST PUSH2 0x4CF PUSH2 0x1321 JUMP JUMPDEST PUSH1 0x40 MLOAD PUSH2 0x4DC SWAP2 SWAP1 PUSH2 0x2590 JUMP JUMPDEST PUSH1 0x40 MLOAD DUP1 SWAP2 SUB SWAP1 RETURN JUMPDEST PUSH2 0x4ED PUSH2 0x13DA JUMP JUMPDEST PUSH1 0x40 MLOAD PUSH2 0x4FA SWAP2 SWAP1 PUSH2 0x2076 JUMP JUMPDEST PUSH1 0x40 MLOAD DUP1 SWAP2 SUB SWAP1 RETURN JUMPDEST PUSH2 0x50B PUSH2 0x1400 JUMP JUMPDEST PUSH1 0x40 MLOAD PUSH2 0x518 SWAP2 SWAP1 PUSH2 0x2076 JUMP JUMPDEST PUSH1 0x40 MLOAD DUP1 SWAP2 SUB SWAP1 RETURN JUMPDEST PUSH2 0x53B PUSH1 0x4 DUP1 CALLDATASIZE SUB DUP2 ADD SWAP1 PUSH2 0x536 SWAP2 SWAP1 PUSH2 0x25B2 JUMP JUMPDEST PUSH2 0x1426 JUMP JUMPDEST PUSH1 0x40 MLOAD PUSH2 0x548 SWAP2 SWAP1 PUSH2 0x2928 JUMP JUMPDEST PUSH1 0x40 MLOAD DUP1 SWAP2 SUB SWAP1 RETURN JUMPDEST PUSH2 0x56B PUSH1 0x4 DUP1 CALLDATASIZE SUB DUP2 ADD SWAP1 PUSH2 0x566 SWAP2 SWAP1 PUSH2 0x2943 JUMP JUMPDEST PUSH2 0x14A7 JUMP JUMPDEST PUSH1 0x40 MLOAD PUSH2 0x578 SWAP2 SWAP1 PUSH2 0x2590 JUMP JUMPDEST PUSH1 0x40 MLOAD DUP1 SWAP2 SUB SWAP1 RETURN JUMPDEST PUSH2 0x59B PUSH1 0x4 DUP1 CALLDATASIZE SUB DUP2 ADD SWAP1 PUSH2 0x596 SWAP2 SWAP1 PUSH2 0x2970 JUMP JUMPDEST PUSH2 0x1579 JUMP JUMPDEST STOP JUMPDEST PUSH2 0x5B7 PUSH1 0x4 DUP1 CALLDATASIZE SUB DUP2 ADD SWAP1 PUSH2 0x5B2 SWAP2 SWAP1 PUSH2 0x2418 JUMP JUMPDEST PUSH2 0x15BB JUMP JUMPDEST STOP JUMPDEST PUSH2 0x5C1 PUSH2 0x15DC JUMP JUMPDEST PUSH1 0x40 MLOAD PUSH2 0x5CE SWAP2 SWAP1 PUSH2 0x2076 JUMP JUMPDEST PUSH1 0x40 MLOAD DUP1 SWAP2 SUB SWAP1 RETURN JUMPDEST PUSH2 0x5F1 PUSH1 0x4 DUP1 CALLDATASIZE SUB DUP2 ADD SWAP1 PUSH2 0x5EC SWAP2 SWAP1 PUSH2 0x2A19 JUMP JUMPDEST PUSH2 0x1602 JUMP JUMPDEST STOP JUMPDEST PUSH1 0x0 PUSH2 0x5FE DUP3 PUSH2 0x16C0 JUMP JUMPDEST SWAP1 POP SWAP2 SWAP1 POP JUMP JUMPDEST PUSH1 0x2 DUP2 DUP2 SLOAD DUP2 LT PUSH2 0x615 JUMPI PUSH1 0x0 DUP1 REVERT JUMPDEST SWAP1 PUSH1 0x0 MSTORE PUSH1 0x20 PUSH1 0x0 KECCAK256 ADD PUSH1 0x0 SWAP2 POP SLOAD SWAP1 PUSH2 0x100 EXP SWAP1 DIV PUSH20 0xFFFFFFFFFFFFFFFFFFFFFFFFFFFFFFFFFFFFFFFF AND DUP2 JUMP JUMPDEST PUSH1 0x0 DUP1 PUSH1 0x0 DUP4 DUP2 MSTORE PUSH1 0x20 ADD SWAP1 DUP2 MSTORE PUSH1 0x20 ADD PUSH1 0x0 KECCAK256 PUSH1 0x1 ADD SLOAD SWAP1 POP SWAP2 SWAP1 POP JUMP JUMPDEST PUSH32 0xA49807205CE4D355092EF5A8A18F56E8913CF4A201FBE287825B095693C21775 PUSH2 0x68D DUP2 PUSH2 0x173A JUMP JUMPDEST PUSH1 0x0 PUSH2 0x6BA PUSH1 0xA PUSH1 0x0 SWAP1 SLOAD SWAP1 PUSH2 0x100 EXP SWAP1 DIV PUSH20 0xFFFFFFFFFFFFFFFFFFFFFFFFFFFFFFFFFFFFFFFF AND PUSH2 0x174E JUMP JUMPDEST SWAP1 POP DUP1 PUSH20 0xFFFFFFFFFFFFFFFFFFFFFFFFFFFFFFFFFFFFFFFF AND PUSH4 0xE4A4A2A3 DUP13 DUP13 DUP13 DUP13 DUP13 DUP13 DUP13 DUP13 DUP13 PUSH1 0x40 MLOAD DUP11 PUSH4 0xFFFFFFFF AND PUSH1 0xE0 SHL DUP2 MSTORE PUSH1 0x4 ADD PUSH2 0x705 SWAP10 SWAP9 SWAP8 SWAP7 SWAP6 SWAP5 SWAP4 SWAP3 SWAP2 SWAP1 PUSH2 0x2B24 JUMP JUMPDEST PUSH1 0x0 PUSH1 0x40 MLOAD DUP1 DUP4 SUB DUP2 PUSH1 0x0 DUP8 DUP1 EXTCODESIZE ISZERO DUP1 ISZERO PUSH2 0x71F JUMPI PUSH1 0x0 DUP1 REVERT JUMPDEST POP GAS CALL ISZERO DUP1 ISZERO PUSH2 0x733 JUMPI RETURNDATASIZE PUSH1 0x0 DUP1 RETURNDATACOPY RETURNDATASIZE PUSH1 0x0 REVERT JUMPDEST POP POP POP POP PUSH1 0x2 DUP2 SWAP1 DUP1 PUSH1 0x1 DUP2 SLOAD ADD DUP1 DUP3 SSTORE DUP1 SWAP2 POP POP PUSH1 0x1 SWAP1 SUB SWAP1 PUSH1 0x0 MSTORE PUSH1 0x20 PUSH1 0x0 KECCAK256 ADD PUSH1 0x0 SWAP1 SWAP2 SWAP1 SWAP2 SWAP1 SWAP2 PUSH2 0x100 EXP DUP2 SLOAD DUP2 PUSH20 0xFFFFFFFFFFFFFFFFFFFFFFFFFFFFFFFFFFFFFFFF MUL NOT AND SWAP1 DUP4 PUSH20 0xFFFFFFFFFFFFFFFFFFFFFFFFFFFFFFFFFFFFFFFF AND MUL OR SWAP1 SSTORE POP PUSH32 0xEFB7D30E57F477DDBD1E449787AA826CC83F435BD41B49A3370ED9CAF78D2E5 DUP2 DUP13 DUP13 DUP13 DUP13 DUP13 DUP13 DUP13 DUP13 DUP13 PUSH1 0x40 MLOAD PUSH2 0x7DB SWAP11 SWAP10 SWAP9 SWAP8 SWAP7 SWAP6 SWAP5 SWAP4 SWAP3 SWAP2 SWAP1 PUSH2 0x2BC6 JUMP JUMPDEST PUSH1 0x40 MLOAD DUP1 SWAP2 SUB SWAP1 LOG1 POP POP POP POP POP POP POP POP POP POP POP JUMP JUMPDEST PUSH2 0x7F9 DUP3 PUSH2 0x644 JUMP JUMPDEST PUSH2 0x802 DUP2 PUSH2 0x173A JUMP JUMPDEST PUSH2 0x80C DUP4 DUP4 PUSH2 0x1808 JUMP JUMPDEST POP POP POP JUMP JUMPDEST PUSH1 0x0 PUSH2 0x827 DUP3 PUSH1 0x7 PUSH2 0x18E8 SWAP1 SWAP2 SWAP1 PUSH4 0xFFFFFFFF AND JUMP JUMPDEST SWAP1 POP SWAP2 SWAP1 POP JUMP JUMPDEST PUSH2 0x836 PUSH2 0x1902 JUMP JUMPDEST PUSH20 0xFFFFFFFFFFFFFFFFFFFFFFFFFFFFFFFFFFFFFFFF AND DUP2 PUSH20 0xFFFFFFFFFFFFFFFFFFFFFFFFFFFFFFFFFFFFFFFF AND EQ PUSH2 0x8A3 JUMPI PUSH1 0x40 MLOAD PUSH32 0x8C379A000000000000000000000000000000000000000000000000000000000 DUP2 MSTORE PUSH1 0x4 ADD PUSH2 0x89A SWAP1 PUSH2 0x2CE9 JUMP JUMPDEST PUSH1 0x40 MLOAD DUP1 SWAP2 SUB SWAP1 REVERT JUMPDEST PUSH2 0x8AD DUP3 DUP3 PUSH2 0x190A JUMP JUMPDEST POP POP JUMP JUMPDEST PUSH1 0xC PUSH1 0x0 SWAP1 SLOAD SWAP1 PUSH2 0x100 EXP SWAP1 DIV PUSH20 0xFFFFFFFFFFFFFFFFFFFFFFFFFFFFFFFFFFFFFFFF AND DUP2 JUMP JUMPDEST PUSH1 0x60 PUSH32 0xA49807205CE4D355092EF5A8A18F56E8913CF4A201FBE287825B095693C21775 PUSH2 0x903 DUP2 PUSH2 0x173A JUMP JUMPDEST PUSH1 0x2 DUP1 SLOAD DUP1 PUSH1 0x20 MUL PUSH1 0x20 ADD PUSH1 0x40 MLOAD SWAP1 DUP2 ADD PUSH1 0x40 MSTORE DUP1 SWAP3 SWAP2 SWAP1 DUP2 DUP2 MSTORE PUSH1 0x20 ADD DUP3 DUP1 SLOAD DUP1 ISZERO PUSH2 0x985 JUMPI PUSH1 0x20 MUL DUP3 ADD SWAP2 SWAP1 PUSH1 0x0 MSTORE PUSH1 0x20 PUSH1 0x0 KECCAK256 SWAP1 JUMPDEST DUP2 PUSH1 0x0 SWAP1 SLOAD SWAP1 PUSH2 0x100 EXP SWAP1 DIV PUSH20 0xFFFFFFFFFFFFFFFFFFFFFFFFFFFFFFFFFFFFFFFF AND PUSH20 0xFFFFFFFFFFFFFFFFFFFFFFFFFFFFFFFFFFFFFFFF AND DUP2 MSTORE PUSH1 0x20 ADD SWAP1 PUSH1 0x1 ADD SWAP1 DUP1 DUP4 GT PUSH2 0x93B JUMPI JUMPDEST POP POP POP POP POP SWAP2 POP POP SWAP1 JUMP JUMPDEST PUSH1 0x0 PUSH2 0x9A6 DUP3 PUSH1 0x7 PUSH2 0x19EB SWAP1 SWAP2 SWAP1 PUSH4 0xFFFFFFFF AND JUMP JUMPDEST SWAP1 POP SWAP2 SWAP1 POP JUMP JUMPDEST PUSH32 0xA49807205CE4D355092EF5A8A18F56E8913CF4A201FBE287825B095693C21775 PUSH2 0x9D7 DUP2 PUSH2 0x173A JUMP JUMPDEST PUSH1 0x1 PUSH1 0xFF AND DUP9 PUSH1 0xFF AND EQ DUP1 PUSH2 0x9F2 JUMPI POP PUSH1 0x2 PUSH1 0xFF AND DUP9 PUSH1 0xFF AND EQ JUMPDEST PUSH2 0xA31 JUMPI PUSH1 0x40 MLOAD PUSH32 0x8C379A000000000000000000000000000000000000000000000000000000000 DUP2 MSTORE PUSH1 0x4 ADD PUSH2 0xA28 SWAP1 PUSH2 0x2D55 JUMP JUMPDEST PUSH1 0x40 MLOAD DUP1 SWAP2 SUB SWAP1 REVERT JUMPDEST PUSH1 0x0 PUSH1 0x1 PUSH1 0xFF AND DUP10 PUSH1 0xFF AND SUB PUSH2 0xD0B JUMPI PUSH2 0xA6C PUSH1 0x4 PUSH1 0x0 SWAP1 SLOAD SWAP1 PUSH2 0x100 EXP SWAP1 DIV PUSH20 0xFFFFFFFFFFFFFFFFFFFFFFFFFFFFFFFFFFFFFFFF AND PUSH2 0x174E JUMP JUMPDEST SWAP1 POP DUP1 PUSH20 0xFFFFFFFFFFFFFFFFFFFFFFFFFFFFFFFFFFFFFFFF AND PUSH4 0x538BAEAB PUSH1 0x3 PUSH1 0x0 SWAP1 SLOAD SWAP1 PUSH2 0x100 EXP SWAP1 DIV PUSH20 0xFFFFFFFFFFFFFFFFFFFFFFFFFFFFFFFFFFFFFFFF AND DUP11 DUP10 DUP10 DUP10 CALLER ADDRESS PUSH1 0x40 MLOAD DUP9 PUSH4 0xFFFFFFFF AND PUSH1 0xE0 SHL DUP2 MSTORE PUSH1 0x4 ADD PUSH2 0xAD5 SWAP8 SWAP7 SWAP6 SWAP5 SWAP4 SWAP3 SWAP2 SWAP1 PUSH2 0x2D75 JUMP JUMPDEST PUSH1 0x0 PUSH1 0x40 MLOAD DUP1 DUP4 SUB DUP2 PUSH1 0x0 DUP8 DUP1 EXTCODESIZE ISZERO DUP1 ISZERO PUSH2 0xAEF JUMPI PUSH1 0x0 DUP1 REVERT JUMPDEST POP GAS CALL ISZERO DUP1 ISZERO PUSH2 0xB03 JUMPI RETURNDATASIZE PUSH1 0x0 DUP1 RETURNDATACOPY RETURNDATASIZE PUSH1 0x0 REVERT JUMPDEST POP POP POP POP PUSH1 0x6 PUSH1 0x0 PUSH1 0x1 PUSH1 0xFF AND PUSH1 0xFF AND DUP2 MSTORE PUSH1 0x20 ADD SWAP1 DUP2 MSTORE PUSH1 0x20 ADD PUSH1 0x0 KECCAK256 DUP2 SWAP1 DUP1 PUSH1 0x1 DUP2 SLOAD ADD DUP1 DUP3 SSTORE DUP1 SWAP2 POP POP PUSH1 0x1 SWAP1 SUB SWAP1 PUSH1 0x0 MSTORE PUSH1 0x20 PUSH1 0x0 KECCAK256 ADD PUSH1 0x0 SWAP1 SWAP2 SWAP1 SWAP2 SWAP1 SWAP2 PUSH2 0x100 EXP DUP2 SLOAD DUP2 PUSH20 0xFFFFFFFFFFFFFFFFFFFFFFFFFFFFFFFFFFFFFFFF MUL NOT AND SWAP1 DUP4 PUSH20 0xFFFFFFFFFFFFFFFFFFFFFFFFFFFFFFFFFFFFFFFF AND MUL OR SWAP1 SSTORE POP PUSH1 0x1 PUSH1 0x9 PUSH1 0x0 DUP4 PUSH20 0xFFFFFFFFFFFFFFFFFFFFFFFFFFFFFFFFFFFFFFFF AND PUSH20 0xFFFFFFFFFFFFFFFFFFFFFFFFFFFFFFFFFFFFFFFF AND DUP2 MSTORE PUSH1 0x20 ADD SWAP1 DUP2 MSTORE PUSH1 0x20 ADD PUSH1 0x0 KECCAK256 PUSH1 0x0 PUSH2 0x100 EXP DUP2 SLOAD DUP2 PUSH1 0xFF MUL NOT AND SWAP1 DUP4 PUSH1 0xFF AND MUL OR SWAP1 SSTORE POP PUSH1 0xC PUSH1 0x0 SWAP1 SLOAD SWAP1 PUSH2 0x100 EXP SWAP1 DIV PUSH20 0xFFFFFFFFFFFFFFFFFFFFFFFFFFFFFFFFFFFFFFFF AND PUSH20 0xFFFFFFFFFFFFFFFFFFFFFFFFFFFFFFFFFFFFFFFF AND PUSH4 0xD8708898 DUP3 PUSH1 0x40 MLOAD DUP3 PUSH4 0xFFFFFFFF AND PUSH1 0xE0 SHL DUP2 MSTORE PUSH1 0x4 ADD PUSH2 0xC36 SWAP2 SWAP1 PUSH2 0x2076 JUMP JUMPDEST PUSH1 0x0 PUSH1 0x40 MLOAD DUP1 DUP4 SUB DUP2 PUSH1 0x0 DUP8 DUP1 EXTCODESIZE ISZERO DUP1 ISZERO PUSH2 0xC50 JUMPI PUSH1 0x0 DUP1 REVERT JUMPDEST POP GAS CALL ISZERO DUP1 ISZERO PUSH2 0xC64 JUMPI RETURNDATASIZE PUSH1 0x0 DUP1 RETURNDATACOPY RETURNDATASIZE PUSH1 0x0 REVERT JUMPDEST POP POP POP POP PUSH2 0xC7C DUP2 PUSH1 0x7 PUSH2 0x1A1B SWAP1 SWAP2 SWAP1 PUSH4 0xFFFFFFFF AND JUMP JUMPDEST POP PUSH1 0x0 JUMPDEST DUP4 MLOAD DUP2 LT ISZERO PUSH2 0xD05 JUMPI PUSH2 0xCF2 DUP3 DUP6 DUP4 DUP2 MLOAD DUP2 LT PUSH2 0xCA0 JUMPI PUSH2 0xC9F PUSH2 0x2DF2 JUMP JUMPDEST JUMPDEST PUSH1 0x20 MUL PUSH1 0x20 ADD ADD MLOAD PUSH1 0x0 ADD MLOAD DUP7 DUP5 DUP2 MLOAD DUP2 LT PUSH2 0xCBF JUMPI PUSH2 0xCBE PUSH2 0x2DF2 JUMP JUMPDEST JUMPDEST PUSH1 0x20 MUL PUSH1 0x20 ADD ADD MLOAD PUSH1 0x40 ADD MLOAD DUP8 DUP6 DUP2 MLOAD DUP2 LT PUSH2 0xCDE JUMPI PUSH2 0xCDD PUSH2 0x2DF2 JUMP JUMPDEST JUMPDEST PUSH1 0x20 MUL PUSH1 0x20 ADD ADD MLOAD PUSH1 0x20 ADD MLOAD DUP13 CALLER DUP14 PUSH2 0x1A4B JUMP JUMPDEST DUP1 DUP1 PUSH2 0xCFD SWAP1 PUSH2 0x2E50 JUMP JUMPDEST SWAP2 POP POP PUSH2 0xC80 JUMP JUMPDEST POP PUSH2 0xEB6 JUMP JUMPDEST PUSH1 0x0 DUP1 PUSH2 0x3E8 SWAP1 POP PUSH2 0xD3E PUSH1 0x5 PUSH1 0x0 SWAP1 SLOAD SWAP1 PUSH2 0x100 EXP SWAP1 DIV PUSH20 0xFFFFFFFFFFFFFFFFFFFFFFFFFFFFFFFFFFFFFFFF AND PUSH2 0x174E JUMP JUMPDEST SWAP3 POP DUP3 PUSH20 0xFFFFFFFFFFFFFFFFFFFFFFFFFFFFFFFFFFFFFFFF AND PUSH4 0xC0F1C484 PUSH1 0x3 PUSH1 0x0 SWAP1 SLOAD SWAP1 PUSH2 0x100 EXP SWAP1 DIV PUSH20 0xFFFFFFFFFFFFFFFFFFFFFFFFFFFFFFFFFFFFFFFF AND DUP12 DUP14 DUP7 DUP14 DUP14 DUP14 CALLER DUP15 DUP12 PUSH1 0x40 MLOAD DUP12 PUSH4 0xFFFFFFFF AND PUSH1 0xE0 SHL DUP2 MSTORE PUSH1 0x4 ADD PUSH2 0xDAD SWAP11 SWAP10 SWAP9 SWAP8 SWAP7 SWAP6 SWAP5 SWAP4 SWAP3 SWAP2 SWAP1 PUSH2 0x2FA7 JUMP JUMPDEST PUSH1 0x0 PUSH1 0x40 MLOAD DUP1 DUP4 SUB DUP2 PUSH1 0x0 DUP8 DUP1 EXTCODESIZE ISZERO DUP1 ISZERO PUSH2 0xDC7 JUMPI PUSH1 0x0 DUP1 REVERT JUMPDEST POP GAS CALL ISZERO DUP1 ISZERO PUSH2 0xDDB JUMPI RETURNDATASIZE PUSH1 0x0 DUP1 RETURNDATACOPY RETURNDATASIZE PUSH1 0x0 REVERT JUMPDEST POP POP POP POP PUSH1 0x6 PUSH1 0x0 PUSH1 0x2 PUSH1 0xFF AND PUSH1 0xFF AND DUP2 MSTORE PUSH1 0x20 ADD SWAP1 DUP2 MSTORE PUSH1 0x20 ADD PUSH1 0x0 KECCAK256 DUP4 SWAP1 DUP1 PUSH1 0x1 DUP2 SLOAD ADD DUP1 DUP3 SSTORE DUP1 SWAP2 POP POP PUSH1 0x1 SWAP1 SUB SWAP1 PUSH1 0x0 MSTORE PUSH1 0x20 PUSH1 0x0 KECCAK256 ADD PUSH1 0x0 SWAP1 SWAP2 SWAP1 SWAP2 SWAP1 SWAP2 PUSH2 0x100 EXP DUP2 SLOAD DUP2 PUSH20 0xFFFFFFFFFFFFFFFFFFFFFFFFFFFFFFFFFFFFFFFF MUL NOT AND SWAP1 DUP4 PUSH20 0xFFFFFFFFFFFFFFFFFFFFFFFFFFFFFFFFFFFFFFFF AND MUL OR SWAP1 SSTORE POP PUSH1 0x2 PUSH1 0x9 PUSH1 0x0 DUP6 PUSH20 0xFFFFFFFFFFFFFFFFFFFFFFFFFFFFFFFFFFFFFFFF AND PUSH20 0xFFFFFFFFFFFFFFFFFFFFFFFFFFFFFFFFFFFFFFFF AND DUP2 MSTORE PUSH1 0x20 ADD SWAP1 DUP2 MSTORE PUSH1 0x20 ADD PUSH1 0x0 KECCAK256 PUSH1 0x0 PUSH2 0x100 EXP DUP2 SLOAD DUP2 PUSH1 0xFF MUL NOT AND SWAP1 DUP4 PUSH1 0xFF AND MUL OR SWAP1 SSTORE POP POP POP JUMPDEST PUSH1 0x1 DUP2 SWAP1 DUP1 PUSH1 0x1 DUP2 SLOAD ADD DUP1 DUP3 SSTORE DUP1 SWAP2 POP POP PUSH1 0x1 SWAP1 SUB SWAP1 PUSH1 0x0 MSTORE PUSH1 0x20 PUSH1 0x0 KECCAK256 ADD PUSH1 0x0 SWAP1 SWAP2 SWAP1 SWAP2 SWAP1 SWAP2 PUSH2 0x100 EXP DUP2 SLOAD DUP2 PUSH20 0xFFFFFFFFFFFFFFFFFFFFFFFFFFFFFFFFFFFFFFFF MUL NOT AND SWAP1 DUP4 PUSH20 0xFFFFFFFFFFFFFFFFFFFFFFFFFFFFFFFFFFFFFFFF AND MUL OR SWAP1 SSTORE POP PUSH32 0x6E07CD6654A2294009CEB005FC75CDDC94000647735E24523A0804492D0CCE26 DUP10 DUP3 DUP11 DUP7 DUP11 DUP11 DUP11 CALLER PUSH1 0x40 MLOAD PUSH2 0xF56 SWAP9 SWAP8 SWAP7 SWAP6 SWAP5 SWAP4 SWAP3 SWAP2 SWAP1 PUSH2 0x305F JUMP JUMPDEST PUSH1 0x40 MLOAD DUP1 SWAP2 SUB SWAP1 LOG1 POP POP POP POP POP POP POP POP POP JUMP JUMPDEST PUSH1 0x1 DUP2 DUP2 SLOAD DUP2 LT PUSH2 0xF79 JUMPI PUSH1 0x0 DUP1 REVERT JUMPDEST SWAP1 PUSH1 0x0 MSTORE PUSH1 0x20 PUSH1 0x0 KECCAK256 ADD PUSH1 0x0 SWAP2 POP SLOAD SWAP1 PUSH2 0x100 EXP SWAP1 DIV PUSH20 0xFFFFFFFFFFFFFFFFFFFFFFFFFFFFFFFFFFFFFFFF AND DUP2 JUMP JUMPDEST PUSH32 0xA49807205CE4D355092EF5A8A18F56E8913CF4A201FBE287825B095693C21775 PUSH2 0xFD2 DUP2 PUSH2 0x173A JUMP JUMPDEST PUSH1 0x0 PUSH20 0xFFFFFFFFFFFFFFFFFFFFFFFFFFFFFFFFFFFFFFFF AND DUP3 PUSH20 0xFFFFFFFFFFFFFFFFFFFFFFFFFFFFFFFFFFFFFFFF AND SUB PUSH2 0x1041 JUMPI PUSH1 0x40 MLOAD PUSH32 0x8C379A000000000000000000000000000000000000000000000000000000000 DUP2 MSTORE PUSH1 0x4 ADD PUSH2 0x1038 SWAP1 PUSH2 0x3164 JUMP JUMPDEST PUSH1 0x40 MLOAD DUP1 SWAP2 SUB SWAP1 REVERT JUMPDEST DUP2 PUSH1 0xC PUSH1 0x0 PUSH2 0x100 EXP DUP2 SLOAD DUP2 PUSH20 0xFFFFFFFFFFFFFFFFFFFFFFFFFFFFFFFFFFFFFFFF MUL NOT AND SWAP1 DUP4 PUSH20 0xFFFFFFFFFFFFFFFFFFFFFFFFFFFFFFFFFFFFFFFF AND MUL OR SWAP1 SSTORE POP PUSH32 0x63917B966BA08F88836A237F27084663BD4723BBB43B2BAA5077C2F556623463 DUP3 PUSH1 0x40 MLOAD PUSH2 0x10B1 SWAP2 SWAP1 PUSH2 0x2076 JUMP JUMPDEST PUSH1 0x40 MLOAD DUP1 SWAP2 SUB SWAP1 LOG1 POP POP JUMP JUMPDEST PUSH1 0x0 PUSH1 0xC PUSH1 0x0 SWAP1 SLOAD SWAP1 PUSH2 0x100 EXP SWAP1 DIV PUSH20 0xFFFFFFFFFFFFFFFFFFFFFFFFFFFFFFFFFFFFFFFF AND PUSH20 0xFFFFFFFFFFFFFFFFFFFFFFFFFFFFFFFFFFFFFFFF AND PUSH4 0x6F1E01E6 PUSH1 0x40 MLOAD DUP2 PUSH4 0xFFFFFFFF AND PUSH1 0xE0 SHL DUP2 MSTORE PUSH1 0x4 ADD PUSH1 0x20 PUSH1 0x40 MLOAD DUP1 DUP4 SUB DUP2 DUP7 GAS STATICCALL ISZERO DUP1 ISZERO PUSH2 0x112C JUMPI RETURNDATASIZE PUSH1 0x0 DUP1 RETURNDATACOPY RETURNDATASIZE PUSH1 0x0 REVERT JUMPDEST POP POP POP POP PUSH1 0x40 MLOAD RETURNDATASIZE PUSH1 0x1F NOT PUSH1 0x1F DUP3 ADD AND DUP3 ADD DUP1 PUSH1 0x40 MSTORE POP DUP2 ADD SWAP1 PUSH2 0x1150 SWAP2 SWAP1 PUSH2 0x3199 JUMP JUMPDEST SWAP1 POP SWAP1 JUMP JUMPDEST PUSH32 0xA49807205CE4D355092EF5A8A18F56E8913CF4A201FBE287825B095693C21775 PUSH2 0x117F DUP2 PUSH2 0x173A JUMP JUMPDEST PUSH1 0xC PUSH1 0x0 SWAP1 SLOAD SWAP1 PUSH2 0x100 EXP SWAP1 DIV PUSH20 0xFFFFFFFFFFFFFFFFFFFFFFFFFFFFFFFFFFFFFFFF AND PUSH20 0xFFFFFFFFFFFFFFFFFFFFFFFFFFFFFFFFFFFFFFFF AND PUSH4 0xBB0345E2 DUP6 DUP6 DUP6 PUSH1 0x40 MLOAD DUP5 PUSH4 0xFFFFFFFF AND PUSH1 0xE0 SHL DUP2 MSTORE PUSH1 0x4 ADD PUSH2 0x11DE SWAP4 SWAP3 SWAP2 SWAP1 PUSH2 0x31C6 JUMP JUMPDEST PUSH1 0x0 PUSH1 0x40 MLOAD DUP1 DUP4 SUB DUP2 PUSH1 0x0 DUP8 DUP1 EXTCODESIZE ISZERO DUP1 ISZERO PUSH2 0x11F8 JUMPI PUSH1 0x0 DUP1 REVERT JUMPDEST POP GAS CALL ISZERO DUP1 ISZERO PUSH2 0x120C JUMPI RETURNDATASIZE PUSH1 0x0 DUP1 RETURNDATACOPY RETURNDATASIZE PUSH1 0x0 REVERT JUMPDEST POP POP POP POP POP POP POP POP JUMP JUMPDEST PUSH32 0xA49807205CE4D355092EF5A8A18F56E8913CF4A201FBE287825B095693C21775 DUP2 JUMP JUMPDEST PUSH1 0x0 DUP1 PUSH1 0x0 DUP5 DUP2 MSTORE PUSH1 0x20 ADD SWAP1 DUP2 MSTORE PUSH1 0x20 ADD PUSH1 0x0 KECCAK256 PUSH1 0x0 ADD PUSH1 0x0 DUP4 PUSH20 0xFFFFFFFFFFFFFFFFFFFFFFFFFFFFFFFFFFFFFFFF AND PUSH20 0xFFFFFFFFFFFFFFFFFFFFFFFFFFFFFFFFFFFFFFFF AND DUP2 MSTORE PUSH1 0x20 ADD SWAP1 DUP2 MSTORE PUSH1 0x20 ADD PUSH1 0x0 KECCAK256 PUSH1 0x0 SWAP1 SLOAD SWAP1 PUSH2 0x100 EXP SWAP1 DIV PUSH1 0xFF AND SWAP1 POP SWAP3 SWAP2 POP POP JUMP JUMPDEST PUSH1 0x3 PUSH1 0x0 SWAP1 SLOAD SWAP1 PUSH2 0x100 EXP SWAP1 DIV PUSH20 0xFFFFFFFFFFFFFFFFFFFFFFFFFFFFFFFFFFFFFFFF AND DUP2 JUMP JUMPDEST PUSH1 0x0 PUSH1 0xC PUSH1 0x0 SWAP1 SLOAD SWAP1 PUSH2 0x100 EXP SWAP1 DIV PUSH20 0xFFFFFFFFFFFFFFFFFFFFFFFFFFFFFFFFFFFFFFFF AND SWAP1 POP SWAP1 JUMP JUMPDEST PUSH1 0x0 DUP1 SHL DUP2 JUMP JUMPDEST PUSH1 0xA PUSH1 0x0 SWAP1 SLOAD SWAP1 PUSH2 0x100 EXP SWAP1 DIV PUSH20 0xFFFFFFFFFFFFFFFFFFFFFFFFFFFFFFFFFFFFFFFF AND DUP2 JUMP JUMPDEST PUSH1 0x60 PUSH32 0xA49807205CE4D355092EF5A8A18F56E8913CF4A201FBE287825B095693C21775 PUSH2 0x134D DUP2 PUSH2 0x173A JUMP JUMPDEST PUSH1 0x1 DUP1 SLOAD DUP1 PUSH1 0x20 MUL PUSH1 0x20 ADD PUSH1 0x40 MLOAD SWAP1 DUP2 ADD PUSH1 0x40 MSTORE DUP1 SWAP3 SWAP2 SWAP1 DUP2 DUP2 MSTORE PUSH1 0x20 ADD DUP3 DUP1 SLOAD DUP1 ISZERO PUSH2 0x13CF JUMPI PUSH1 0x20 MUL DUP3 ADD SWAP2 SWAP1 PUSH1 0x0 MSTORE PUSH1 0x20 PUSH1 0x0 KECCAK256 SWAP1 JUMPDEST DUP2 PUSH1 0x0 SWAP1 SLOAD SWAP1 PUSH2 0x100 EXP SWAP1 DIV PUSH20 0xFFFFFFFFFFFFFFFFFFFFFFFFFFFFFFFFFFFFFFFF AND PUSH20 0xFFFFFFFFFFFFFFFFFFFFFFFFFFFFFFFFFFFFFFFF AND DUP2 MSTORE PUSH1 0x20 ADD SWAP1 PUSH1 0x1 ADD SWAP1 DUP1 DUP4 GT PUSH2 0x1385 JUMPI JUMPDEST POP POP POP POP POP SWAP2 POP POP SWAP1 JUMP JUMPDEST PUSH1 0x5 PUSH1 0x0 SWAP1 SLOAD SWAP1 PUSH2 0x100 EXP SWAP1 DIV PUSH20 0xFFFFFFFFFFFFFFFFFFFFFFFFFFFFFFFFFFFFFFFF AND DUP2 JUMP JUMPDEST PUSH1 0xB PUSH1 0x0 SWAP1 SLOAD SWAP1 PUSH2 0x100 EXP SWAP1 DIV PUSH20 0xFFFFFFFFFFFFFFFFFFFFFFFFFFFFFFFFFFFFFFFF AND DUP2 JUMP JUMPDEST PUSH1 0x0 PUSH32 0xA49807205CE4D355092EF5A8A18F56E8913CF4A201FBE287825B095693C21775 PUSH2 0x1452 DUP2 PUSH2 0x173A JUMP JUMPDEST PUSH1 0x9 PUSH1 0x0 DUP5 PUSH20 0xFFFFFFFFFFFFFFFFFFFFFFFFFFFFFFFFFFFFFFFF AND PUSH20 0xFFFFFFFFFFFFFFFFFFFFFFFFFFFFFFFFFFFFFFFF AND DUP2 MSTORE PUSH1 0x20 ADD SWAP1 DUP2 MSTORE PUSH1 0x20 ADD PUSH1 0x0 KECCAK256 PUSH1 0x0 SWAP1 SLOAD SWAP1 PUSH2 0x100 EXP SWAP1 DIV PUSH1 0xFF AND SWAP2 POP POP SWAP2 SWAP1 POP JUMP JUMPDEST PUSH1 0x60 PUSH32 0xA49807205CE4D355092EF5A8A18F56E8913CF4A201FBE287825B095693C21775 PUSH2 0x14D3 DUP2 PUSH2 0x173A JUMP JUMPDEST PUSH1 0x6 PUSH1 0x0 DUP5 PUSH1 0xFF AND PUSH1 0xFF AND DUP2 MSTORE PUSH1 0x20 ADD SWAP1 DUP2 MSTORE PUSH1 0x20 ADD PUSH1 0x0 KECCAK256 DUP1 SLOAD DUP1 PUSH1 0x20 MUL PUSH1 0x20 ADD PUSH1 0x40 MLOAD SWAP1 DUP2 ADD PUSH1 0x40 MSTORE DUP1 SWAP3 SWAP2 SWAP1 DUP2 DUP2 MSTORE PUSH1 0x20 ADD DUP3 DUP1 SLOAD DUP1 ISZERO PUSH2 0x156C JUMPI PUSH1 0x20 MUL DUP3 ADD SWAP2 SWAP1 PUSH1 0x0 MSTORE PUSH1 0x20 PUSH1 0x0 KECCAK256 SWAP1 JUMPDEST DUP2 PUSH1 0x0 SWAP1 SLOAD SWAP1 PUSH2 0x100 EXP SWAP1 DIV PUSH20 0xFFFFFFFFFFFFFFFFFFFFFFFFFFFFFFFFFFFFFFFF AND PUSH20 0xFFFFFFFFFFFFFFFFFFFFFFFFFFFFFFFFFFFFFFFF AND DUP2 MSTORE PUSH1 0x20 ADD SWAP1 PUSH1 0x1 ADD SWAP1 DUP1 DUP4 GT PUSH2 0x1522 JUMPI JUMPDEST POP POP POP POP POP SWAP2 POP POP SWAP2 SWAP1 POP JUMP JUMPDEST PUSH32 0xA49807205CE4D355092EF5A8A18F56E8913CF4A201FBE287825B095693C21775 PUSH2 0x15A3 DUP2 PUSH2 0x173A JUMP JUMPDEST PUSH2 0x15B2 DUP8 DUP8 DUP8 DUP8 DUP8 CALLER DUP9 PUSH2 0x1A4B JUMP JUMPDEST POP POP POP POP POP POP POP JUMP JUMPDEST PUSH2 0x15C4 DUP3 PUSH2 0x644 JUMP JUMPDEST PUSH2 0x15CD DUP2 PUSH2 0x173A JUMP JUMPDEST PUSH2 0x15D7 DUP4 DUP4 PUSH2 0x190A JUMP JUMPDEST POP POP POP JUMP JUMPDEST PUSH1 0x4 PUSH1 0x0 SWAP1 SLOAD SWAP1 PUSH2 0x100 EXP SWAP1 DIV PUSH20 0xFFFFFFFFFFFFFFFFFFFFFFFFFFFFFFFFFFFFFFFF AND DUP2 JUMP JUMPDEST PUSH32 0xA49807205CE4D355092EF5A8A18F56E8913CF4A201FBE287825B095693C21775 PUSH2 0x162C DUP2 PUSH2 0x173A JUMP JUMPDEST PUSH1 0xC PUSH1 0x0 SWAP1 SLOAD SWAP1 PUSH2 0x100 EXP SWAP1 DIV PUSH20 0xFFFFFFFFFFFFFFFFFFFFFFFFFFFFFFFFFFFFFFFF AND PUSH20 0xFFFFFFFFFFFFFFFFFFFFFFFFFFFFFFFFFFFFFFFF AND PUSH4 0xFAB9CDBF DUP5 DUP5 PUSH1 0x40 MLOAD DUP4 PUSH4 0xFFFFFFFF AND PUSH1 0xE0 SHL DUP2 MSTORE PUSH1 0x4 ADD PUSH2 0x1689 SWAP3 SWAP2 SWAP1 PUSH2 0x31FD JUMP JUMPDEST PUSH1 0x0 PUSH1 0x40 MLOAD DUP1 DUP4 SUB DUP2 PUSH1 0x0 DUP8 DUP1 EXTCODESIZE ISZERO DUP1 ISZERO PUSH2 0x16A3 JUMPI PUSH1 0x0 DUP1 REVERT JUMPDEST POP GAS CALL ISZERO DUP1 ISZERO PUSH2 0x16B7 JUMPI RETURNDATASIZE PUSH1 0x0 DUP1 RETURNDATACOPY RETURNDATASIZE PUSH1 0x0 REVERT JUMPDEST POP POP POP POP POP POP POP JUMP JUMPDEST PUSH1 0x0 PUSH32 0x7965DB0B00000000000000000000000000000000000000000000000000000000 PUSH28 0xFFFFFFFFFFFFFFFFFFFFFFFFFFFFFFFFFFFFFFFFFFFFFFFFFFFFFFFF NOT AND DUP3 PUSH28 0xFFFFFFFFFFFFFFFFFFFFFFFFFFFFFFFFFFFFFFFFFFFFFFFFFFFFFFFF NOT AND EQ DUP1 PUSH2 0x1733 JUMPI POP PUSH2 0x1732 DUP3 PUSH2 0x1AED JUMP JUMPDEST JUMPDEST SWAP1 POP SWAP2 SWAP1 POP JUMP JUMPDEST PUSH2 0x174B DUP2 PUSH2 0x1746 PUSH2 0x1902 JUMP JUMPDEST PUSH2 0x1B57 JUMP JUMPDEST POP JUMP JUMPDEST PUSH1 0x0 PUSH23 0x3D602D80600A3D3981F3363D3D373D3D3D363D73000000 DUP3 PUSH1 0x60 SHL PUSH1 0xE8 SHR OR PUSH1 0x0 MSTORE PUSH15 0x5AF43D82803E903D91602B57FD5BF3 DUP3 PUSH1 0x78 SHL OR PUSH1 0x20 MSTORE PUSH1 0x37 PUSH1 0x9 PUSH1 0x0 CREATE SWAP1 POP PUSH1 0x0 PUSH20 0xFFFFFFFFFFFFFFFFFFFFFFFFFFFFFFFFFFFFFFFF AND DUP2 PUSH20 0xFFFFFFFFFFFFFFFFFFFFFFFFFFFFFFFFFFFFFFFF AND SUB PUSH2 0x1803 JUMPI PUSH1 0x40 MLOAD PUSH32 0x8C379A000000000000000000000000000000000000000000000000000000000 DUP2 MSTORE PUSH1 0x4 ADD PUSH2 0x17FA SWAP1 PUSH2 0x3279 JUMP JUMPDEST PUSH1 0x40 MLOAD DUP1 SWAP2 SUB SWAP1 REVERT JUMPDEST SWAP2 SWAP1 POP JUMP JUMPDEST PUSH2 0x1812 DUP3 DUP3 PUSH2 0x123A JUMP JUMPDEST PUSH2 0x18E4 JUMPI PUSH1 0x1 PUSH1 0x0 DUP1 DUP5 DUP2 MSTORE PUSH1 0x20 ADD SWAP1 DUP2 MSTORE PUSH1 0x20 ADD PUSH1 0x0 KECCAK256 PUSH1 0x0 ADD PUSH1 0x0 DUP4 PUSH20 0xFFFFFFFFFFFFFFFFFFFFFFFFFFFFFFFFFFFFFFFF AND PUSH20 0xFFFFFFFFFFFFFFFFFFFFFFFFFFFFFFFFFFFFFFFF AND DUP2 MSTORE PUSH1 0x20 ADD SWAP1 DUP2 MSTORE PUSH1 0x20 ADD PUSH1 0x0 KECCAK256 PUSH1 0x0 PUSH2 0x100 EXP DUP2 SLOAD DUP2 PUSH1 0xFF MUL NOT AND SWAP1 DUP4 ISZERO ISZERO MUL OR SWAP1 SSTORE POP PUSH2 0x1889 PUSH2 0x1902 JUMP JUMPDEST PUSH20 0xFFFFFFFFFFFFFFFFFFFFFFFFFFFFFFFFFFFFFFFF AND DUP2 PUSH20 0xFFFFFFFFFFFFFFFFFFFFFFFFFFFFFFFFFFFFFFFF AND DUP4 PUSH32 0x2F8788117E7EFF1D82E926EC794901D17C78024A50270940304540A733656F0D PUSH1 0x40 MLOAD PUSH1 0x40 MLOAD DUP1 SWAP2 SUB SWAP1 LOG4 JUMPDEST POP POP JUMP JUMPDEST PUSH1 0x0 PUSH2 0x18F7 DUP4 PUSH1 0x0 ADD DUP4 PUSH2 0x1BDC JUMP JUMPDEST PUSH1 0x0 SHR SWAP1 POP SWAP3 SWAP2 POP POP JUMP JUMPDEST PUSH1 0x0 CALLER SWAP1 POP SWAP1 JUMP JUMPDEST PUSH2 0x1914 DUP3 DUP3 PUSH2 0x123A JUMP JUMPDEST ISZERO PUSH2 0x19E7 JUMPI PUSH1 0x0 DUP1 PUSH1 0x0 DUP5 DUP2 MSTORE PUSH1 0x20 ADD SWAP1 DUP2 MSTORE PUSH1 0x20 ADD PUSH1 0x0 KECCAK256 PUSH1 0x0 ADD PUSH1 0x0 DUP4 PUSH20 0xFFFFFFFFFFFFFFFFFFFFFFFFFFFFFFFFFFFFFFFF AND PUSH20 0xFFFFFFFFFFFFFFFFFFFFFFFFFFFFFFFFFFFFFFFF AND DUP2 MSTORE PUSH1 0x20 ADD SWAP1 DUP2 MSTORE PUSH1 0x20 ADD PUSH1 0x0 KECCAK256 PUSH1 0x0 PUSH2 0x100 EXP DUP2 SLOAD DUP2 PUSH1 0xFF MUL NOT AND SWAP1 DUP4 ISZERO ISZERO MUL OR SWAP1 SSTORE POP PUSH2 0x198C PUSH2 0x1902 JUMP JUMPDEST PUSH20 0xFFFFFFFFFFFFFFFFFFFFFFFFFFFFFFFFFFFFFFFF AND DUP2 PUSH20 0xFFFFFFFFFFFFFFFFFFFFFFFFFFFFFFFFFFFFFFFF AND DUP4 PUSH32 0xF6391F5C32D9C69D2A47EA670B442974B53935D1EDC7FD64EB21E047A839171B PUSH1 0x40 MLOAD PUSH1 0x40 MLOAD DUP1 SWAP2 SUB SWAP1 LOG4 JUMPDEST POP POP JUMP JUMPDEST PUSH1 0x0 PUSH2 0x1A13 DUP4 PUSH1 0x0 ADD DUP4 PUSH20 0xFFFFFFFFFFFFFFFFFFFFFFFFFFFFFFFFFFFFFFFF AND PUSH1 0x0 SHL PUSH2 0x1C07 JUMP JUMPDEST SWAP1 POP SWAP3 SWAP2 POP POP JUMP JUMPDEST PUSH1 0x0 PUSH2 0x1A43 DUP4 PUSH1 0x0 ADD DUP4 PUSH20 0xFFFFFFFFFFFFFFFFFFFFFFFFFFFFFFFFFFFFFFFF AND PUSH1 0x0 SHL PUSH2 0x1C2A JUMP JUMPDEST SWAP1 POP SWAP3 SWAP2 POP POP JUMP JUMPDEST PUSH1 0xC PUSH1 0x0 SWAP1 SLOAD SWAP1 PUSH2 0x100 EXP SWAP1 DIV PUSH20 0xFFFFFFFFFFFFFFFFFFFFFFFFFFFFFFFFFFFFFFFF AND PUSH20 0xFFFFFFFFFFFFFFFFFFFFFFFFFFFFFFFFFFFFFFFF AND PUSH4 0x3C88D904 DUP9 DUP9 DUP9 DUP9 DUP9 DUP9 DUP9 PUSH1 0x40 MLOAD DUP9 PUSH4 0xFFFFFFFF AND PUSH1 0xE0 SHL DUP2 MSTORE PUSH1 0x4 ADD PUSH2 0x1AB2 SWAP8 SWAP7 SWAP6 SWAP5 SWAP4 SWAP3 SWAP2 SWAP1 PUSH2 0x3299 JUMP JUMPDEST PUSH1 0x0 PUSH1 0x40 MLOAD DUP1 DUP4 SUB DUP2 PUSH1 0x0 DUP8 DUP1 EXTCODESIZE ISZERO DUP1 ISZERO PUSH2 0x1ACC JUMPI PUSH1 0x0 DUP1 REVERT JUMPDEST POP GAS CALL ISZERO DUP1 ISZERO PUSH2 0x1AE0 JUMPI RETURNDATASIZE PUSH1 0x0 DUP1 RETURNDATACOPY RETURNDATASIZE PUSH1 0x0 REVERT JUMPDEST POP POP POP POP POP POP POP POP POP POP POP JUMP JUMPDEST PUSH1 0x0 PUSH32 0x1FFC9A700000000000000000000000000000000000000000000000000000000 PUSH28 0xFFFFFFFFFFFFFFFFFFFFFFFFFFFFFFFFFFFFFFFFFFFFFFFFFFFFFFFF NOT AND DUP3 PUSH28 0xFFFFFFFFFFFFFFFFFFFFFFFFFFFFFFFFFFFFFFFFFFFFFFFFFFFFFFFF NOT AND EQ SWAP1 POP SWAP2 SWAP1 POP JUMP JUMPDEST PUSH2 0x1B61 DUP3 DUP3 PUSH2 0x123A JUMP JUMPDEST PUSH2 0x1BD8 JUMPI PUSH2 0x1B6E DUP2 PUSH2 0x1C9A JUMP JUMPDEST PUSH2 0x1B7C DUP4 PUSH1 0x0 SHR PUSH1 0x20 PUSH2 0x1CC7 JUMP JUMPDEST PUSH1 0x40 MLOAD PUSH1 0x20 ADD PUSH2 0x1B8D SWAP3 SWAP2 SWAP1 PUSH2 0x33E3 JUMP JUMPDEST PUSH1 0x40 MLOAD PUSH1 0x20 DUP2 DUP4 SUB SUB DUP2 MSTORE SWAP1 PUSH1 0x40 MSTORE PUSH1 0x40 MLOAD PUSH32 0x8C379A000000000000000000000000000000000000000000000000000000000 DUP2 MSTORE PUSH1 0x4 ADD PUSH2 0x1BCF SWAP2 SWAP1 PUSH2 0x341D JUMP JUMPDEST PUSH1 0x40 MLOAD DUP1 SWAP2 SUB SWAP1 REVERT JUMPDEST POP POP JUMP JUMPDEST PUSH1 0x0 DUP3 PUSH1 0x0 ADD DUP3 DUP2 SLOAD DUP2 LT PUSH2 0x1BF4 JUMPI PUSH2 0x1BF3 PUSH2 0x2DF2 JUMP JUMPDEST JUMPDEST SWAP1 PUSH1 0x0 MSTORE PUSH1 0x20 PUSH1 0x0 KECCAK256 ADD SLOAD SWAP1 POP SWAP3 SWAP2 POP POP JUMP JUMPDEST PUSH1 0x0 DUP1 DUP4 PUSH1 0x1 ADD PUSH1 0x0 DUP5 DUP2 MSTORE PUSH1 0x20 ADD SWAP1 DUP2 MSTORE PUSH1 0x20 ADD PUSH1 0x0 KECCAK256 SLOAD EQ ISZERO SWAP1 POP SWAP3 SWAP2 POP POP JUMP JUMPDEST PUSH1 0x0 PUSH2 0x1C36 DUP4 DUP4 PUSH2 0x1C07 JUMP JUMPDEST PUSH2 0x1C8F JUMPI DUP3 PUSH1 0x0 ADD DUP3 SWAP1 DUP1 PUSH1 0x1 DUP2 SLOAD ADD DUP1 DUP3 SSTORE DUP1 SWAP2 POP POP PUSH1 0x1 SWAP1 SUB SWAP1 PUSH1 0x0 MSTORE PUSH1 0x20 PUSH1 0x0 KECCAK256 ADD PUSH1 0x0 SWAP1 SWAP2 SWAP1 SWAP2 SWAP1 SWAP2 POP SSTORE DUP3 PUSH1 0x0 ADD DUP1 SLOAD SWAP1 POP DUP4 PUSH1 0x1 ADD PUSH1 0x0 DUP5 DUP2 MSTORE PUSH1 0x20 ADD SWAP1 DUP2 MSTORE PUSH1 0x20 ADD PUSH1 0x0 KECCAK256 DUP2 SWAP1 SSTORE POP PUSH1 0x1 SWAP1 POP PUSH2 0x1C94 JUMP JUMPDEST PUSH1 0x0 SWAP1 POP JUMPDEST SWAP3 SWAP2 POP POP JUMP JUMPDEST PUSH1 0x60 PUSH2 0x1CC0 DUP3 PUSH20 0xFFFFFFFFFFFFFFFFFFFFFFFFFFFFFFFFFFFFFFFF AND PUSH1 0x14 PUSH1 0xFF AND PUSH2 0x1CC7 JUMP JUMPDEST SWAP1 POP SWAP2 SWAP1 POP JUMP JUMPDEST PUSH1 0x60 PUSH1 0x0 PUSH1 0x2 DUP4 PUSH1 0x2 PUSH2 0x1CDA SWAP2 SWAP1 PUSH2 0x343F JUMP JUMPDEST PUSH2 0x1CE4 SWAP2 SWAP1 PUSH2 0x3481 JUMP JUMPDEST PUSH8 0xFFFFFFFFFFFFFFFF DUP2 GT ISZERO PUSH2 0x1CFD JUMPI PUSH2 0x1CFC PUSH2 0x2139 JUMP JUMPDEST JUMPDEST PUSH1 0x40 MLOAD SWAP1 DUP1 DUP3 MSTORE DUP1 PUSH1 0x1F ADD PUSH1 0x1F NOT AND PUSH1 0x20 ADD DUP3 ADD PUSH1 0x40 MSTORE DUP1 ISZERO PUSH2 0x1D2F JUMPI DUP2 PUSH1 0x20 ADD PUSH1 0x1 DUP3 MUL DUP1 CALLDATASIZE DUP4 CALLDATACOPY DUP1 DUP3 ADD SWAP2 POP POP SWAP1 POP JUMPDEST POP SWAP1 POP PUSH32 0x3000000000000000000000000000000000000000000000000000000000000000 DUP2 PUSH1 0x0 DUP2 MLOAD DUP2 LT PUSH2 0x1D67 JUMPI PUSH2 0x1D66 PUSH2 0x2DF2 JUMP JUMPDEST JUMPDEST PUSH1 0x20 ADD ADD SWAP1 PUSH31 0xFFFFFFFFFFFFFFFFFFFFFFFFFFFFFFFFFFFFFFFFFFFFFFFFFFFFFFFFFFFFFF NOT AND SWAP1 DUP2 PUSH1 0x0 BYTE SWAP1 MSTORE8 POP PUSH32 0x7800000000000000000000000000000000000000000000000000000000000000 DUP2 PUSH1 0x1 DUP2 MLOAD DUP2 LT PUSH2 0x1DCB JUMPI PUSH2 0x1DCA PUSH2 0x2DF2 JUMP JUMPDEST JUMPDEST PUSH1 0x20 ADD ADD SWAP1 PUSH31 0xFFFFFFFFFFFFFFFFFFFFFFFFFFFFFFFFFFFFFFFFFFFFFFFFFFFFFFFFFFFFFF NOT AND SWAP1 DUP2 PUSH1 0x0 BYTE SWAP1 MSTORE8 POP PUSH1 0x0 PUSH1 0x1 DUP5 PUSH1 0x2 PUSH2 0x1E0B SWAP2 SWAP1 PUSH2 0x343F JUMP JUMPDEST PUSH2 0x1E15 SWAP2 SWAP1 PUSH2 0x3481 JUMP JUMPDEST SWAP1 POP JUMPDEST PUSH1 0x1 DUP2 GT ISZERO PUSH2 0x1EB5 JUMPI PUSH32 0x3031323334353637383961626364656600000000000000000000000000000000 PUSH1 0xF DUP7 AND PUSH1 0x10 DUP2 LT PUSH2 0x1E57 JUMPI PUSH2 0x1E56 PUSH2 0x2DF2 JUMP JUMPDEST JUMPDEST BYTE PUSH1 0xF8 SHL DUP3 DUP3 DUP2 MLOAD DUP2 LT PUSH2 0x1E6E JUMPI PUSH2 0x1E6D PUSH2 0x2DF2 JUMP JUMPDEST JUMPDEST PUSH1 0x20 ADD ADD SWAP1 PUSH31 0xFFFFFFFFFFFFFFFFFFFFFFFFFFFFFFFFFFFFFFFFFFFFFFFFFFFFFFFFFFFFFF NOT AND SWAP1 DUP2 PUSH1 0x0 BYTE SWAP1 MSTORE8 POP PUSH1 0x4 DUP6 SWAP1 SHR SWAP5 POP DUP1 PUSH2 0x1EAE SWAP1 PUSH2 0x34B5 JUMP JUMPDEST SWAP1 POP PUSH2 0x1E18 JUMP JUMPDEST POP PUSH1 0x0 DUP5 EQ PUSH2 0x1EF9 JUMPI PUSH1 0x40 MLOAD PUSH32 0x8C379A000000000000000000000000000000000000000000000000000000000 DUP2 MSTORE PUSH1 0x4 ADD PUSH2 0x1EF0 SWAP1 PUSH2 0x352A JUMP JUMPDEST PUSH1 0x40 MLOAD DUP1 SWAP2 SUB SWAP1 REVERT JUMPDEST DUP1 SWAP2 POP POP SWAP3 SWAP2 POP POP JUMP JUMPDEST PUSH1 0x0 PUSH1 0x40 MLOAD SWAP1 POP SWAP1 JUMP JUMPDEST PUSH1 0x0 DUP1 REVERT JUMPDEST PUSH1 0x0 DUP1 REVERT JUMPDEST PUSH1 0x0 PUSH32 0xFFFFFFFF00000000000000000000000000000000000000000000000000000000 DUP3 AND SWAP1 POP SWAP2 SWAP1 POP JUMP JUMPDEST PUSH2 0x1F4C DUP2 PUSH2 0x1F17 JUMP JUMPDEST DUP2 EQ PUSH2 0x1F57 JUMPI PUSH1 0x0 DUP1 REVERT JUMPDEST POP JUMP JUMPDEST PUSH1 0x0 DUP2 CALLDATALOAD SWAP1 POP PUSH2 0x1F69 DUP2 PUSH2 0x1F43 JUMP JUMPDEST SWAP3 SWAP2 POP POP JUMP JUMPDEST PUSH1 0x0 PUSH1 0x20 DUP3 DUP5 SUB SLT ISZERO PUSH2 0x1F85 JUMPI PUSH2 0x1F84 PUSH2 0x1F0D JUMP JUMPDEST JUMPDEST PUSH1 0x0 PUSH2 0x1F93 DUP5 DUP3 DUP6 ADD PUSH2 0x1F5A JUMP JUMPDEST SWAP2 POP POP SWAP3 SWAP2 POP POP JUMP JUMPDEST PUSH1 0x0 DUP2 ISZERO ISZERO SWAP1 POP SWAP2 SWAP1 POP JUMP JUMPDEST PUSH2 0x1FB1 DUP2 PUSH2 0x1F9C JUMP JUMPDEST DUP3 MSTORE POP POP JUMP JUMPDEST PUSH1 0x0 PUSH1 0x20 DUP3 ADD SWAP1 POP PUSH2 0x1FCC PUSH1 0x0 DUP4 ADD DUP5 PUSH2 0x1FA8 JUMP JUMPDEST SWAP3 SWAP2 POP POP JUMP JUMPDEST PUSH1 0x0 DUP2 SWAP1 POP SWAP2 SWAP1 POP JUMP JUMPDEST PUSH2 0x1FE5 DUP2 PUSH2 0x1FD2 JUMP JUMPDEST DUP2 EQ PUSH2 0x1FF0 JUMPI PUSH1 0x0 DUP1 REVERT JUMPDEST POP JUMP JUMPDEST PUSH1 0x0 DUP2 CALLDATALOAD SWAP1 POP PUSH2 0x2002 DUP2 PUSH2 0x1FDC JUMP JUMPDEST SWAP3 SWAP2 POP POP JUMP JUMPDEST PUSH1 0x0 PUSH1 0x20 DUP3 DUP5 SUB SLT ISZERO PUSH2 0x201E JUMPI PUSH2 0x201D PUSH2 0x1F0D JUMP JUMPDEST JUMPDEST PUSH1 0x0 PUSH2 0x202C DUP5 DUP3 DUP6 ADD PUSH2 0x1FF3 JUMP JUMPDEST SWAP2 POP POP SWAP3 SWAP2 POP POP JUMP JUMPDEST PUSH1 0x0 PUSH20 0xFFFFFFFFFFFFFFFFFFFFFFFFFFFFFFFFFFFFFFFF DUP3 AND SWAP1 POP SWAP2 SWAP1 POP JUMP JUMPDEST PUSH1 0x0 PUSH2 0x2060 DUP3 PUSH2 0x2035 JUMP JUMPDEST SWAP1 POP SWAP2 SWAP1 POP JUMP JUMPDEST PUSH2 0x2070 DUP2 PUSH2 0x2055 JUMP JUMPDEST DUP3 MSTORE POP POP JUMP JUMPDEST PUSH1 0x0 PUSH1 0x20 DUP3 ADD SWAP1 POP PUSH2 0x208B PUSH1 0x0 DUP4 ADD DUP5 PUSH2 0x2067 JUMP JUMPDEST SWAP3 SWAP2 POP POP JUMP JUMPDEST PUSH1 0x0 DUP2 SWAP1 POP SWAP2 SWAP1 POP JUMP JUMPDEST PUSH2 0x20A4 DUP2 PUSH2 0x2091 JUMP JUMPDEST DUP2 EQ PUSH2 0x20AF JUMPI PUSH1 0x0 DUP1 REVERT JUMPDEST POP JUMP JUMPDEST PUSH1 0x0 DUP2 CALLDATALOAD SWAP1 POP PUSH2 0x20C1 DUP2 PUSH2 0x209B JUMP JUMPDEST SWAP3 SWAP2 POP POP JUMP JUMPDEST PUSH1 0x0 PUSH1 0x20 DUP3 DUP5 SUB SLT ISZERO PUSH2 0x20DD JUMPI PUSH2 0x20DC PUSH2 0x1F0D JUMP JUMPDEST JUMPDEST PUSH1 0x0 PUSH2 0x20EB DUP5 DUP3 DUP6 ADD PUSH2 0x20B2 JUMP JUMPDEST SWAP2 POP POP SWAP3 SWAP2 POP POP JUMP JUMPDEST PUSH2 0x20FD DUP2 PUSH2 0x2091 JUMP JUMPDEST DUP3 MSTORE POP POP JUMP JUMPDEST PUSH1 0x0 PUSH1 0x20 DUP3 ADD SWAP1 POP PUSH2 0x2118 PUSH1 0x0 DUP4 ADD DUP5 PUSH2 0x20F4 JUMP JUMPDEST SWAP3 SWAP2 POP POP JUMP JUMPDEST PUSH1 0x0 DUP1 REVERT JUMPDEST PUSH1 0x0 DUP1 REVERT JUMPDEST PUSH1 0x0 PUSH1 0x1F NOT PUSH1 0x1F DUP4 ADD AND SWAP1 POP SWAP2 SWAP1 POP JUMP JUMPDEST PUSH32 0x4E487B7100000000000000000000000000000000000000000000000000000000 PUSH1 0x0 MSTORE PUSH1 0x41 PUSH1 0x4 MSTORE PUSH1 0x24 PUSH1 0x0 REVERT JUMPDEST PUSH2 0x2171 DUP3 PUSH2 0x2128 JUMP JUMPDEST DUP2 ADD DUP2 DUP2 LT PUSH8 0xFFFFFFFFFFFFFFFF DUP3 GT OR ISZERO PUSH2 0x2190 JUMPI PUSH2 0x218F PUSH2 0x2139 JUMP JUMPDEST JUMPDEST DUP1 PUSH1 0x40 MSTORE POP POP POP JUMP JUMPDEST PUSH1 0x0 PUSH2 0x21A3 PUSH2 0x1F03 JUMP JUMPDEST SWAP1 POP PUSH2 0x21AF DUP3 DUP3 PUSH2 0x2168 JUMP JUMPDEST SWAP2 SWAP1 POP JUMP JUMPDEST PUSH1 0x0 PUSH8 0xFFFFFFFFFFFFFFFF DUP3 GT ISZERO PUSH2 0x21CF JUMPI PUSH2 0x21CE PUSH2 0x2139 JUMP JUMPDEST JUMPDEST PUSH2 0x21D8 DUP3 PUSH2 0x2128 JUMP JUMPDEST SWAP1 POP PUSH1 0x20 DUP2 ADD SWAP1 POP SWAP2 SWAP1 POP JUMP JUMPDEST DUP3 DUP2 DUP4 CALLDATACOPY PUSH1 0x0 DUP4 DUP4 ADD MSTORE POP POP POP JUMP JUMPDEST PUSH1 0x0 PUSH2 0x2207 PUSH2 0x2202 DUP5 PUSH2 0x21B4 JUMP JUMPDEST PUSH2 0x2199 JUMP JUMPDEST SWAP1 POP DUP3 DUP2 MSTORE PUSH1 0x20 DUP2 ADD DUP5 DUP5 DUP5 ADD GT ISZERO PUSH2 0x2223 JUMPI PUSH2 0x2222 PUSH2 0x2123 JUMP JUMPDEST JUMPDEST PUSH2 0x222E DUP5 DUP3 DUP6 PUSH2 0x21E5 JUMP JUMPDEST POP SWAP4 SWAP3 POP POP POP JUMP JUMPDEST PUSH1 0x0 DUP3 PUSH1 0x1F DUP4 ADD SLT PUSH2 0x224B JUMPI PUSH2 0x224A PUSH2 0x211E JUMP JUMPDEST JUMPDEST DUP2 CALLDATALOAD PUSH2 0x225B DUP5 DUP3 PUSH1 0x20 DUP7 ADD PUSH2 0x21F4 JUMP JUMPDEST SWAP2 POP POP SWAP3 SWAP2 POP POP JUMP JUMPDEST PUSH1 0x0 PUSH2 0x226F DUP3 PUSH2 0x2055 JUMP JUMPDEST SWAP1 POP SWAP2 SWAP1 POP JUMP JUMPDEST PUSH2 0x227F DUP2 PUSH2 0x2264 JUMP JUMPDEST DUP2 EQ PUSH2 0x228A JUMPI PUSH1 0x0 DUP1 REVERT JUMPDEST POP JUMP JUMPDEST PUSH1 0x0 DUP2 CALLDATALOAD SWAP1 POP PUSH2 0x229C DUP2 PUSH2 0x2276 JUMP JUMPDEST SWAP3 SWAP2 POP POP JUMP JUMPDEST PUSH2 0x22AB DUP2 PUSH2 0x1F9C JUMP JUMPDEST DUP2 EQ PUSH2 0x22B6 JUMPI PUSH1 0x0 DUP1 REVERT JUMPDEST POP JUMP JUMPDEST PUSH1 0x0 DUP2 CALLDATALOAD SWAP1 POP PUSH2 0x22C8 DUP2 PUSH2 0x22A2 JUMP JUMPDEST SWAP3 SWAP2 POP POP JUMP JUMPDEST PUSH1 0x0 DUP1 PUSH1 0x0 DUP1 PUSH1 0x0 DUP1 PUSH1 0x0 DUP1 PUSH1 0x0 PUSH2 0x120 DUP11 DUP13 SUB SLT ISZERO PUSH2 0x22F1 JUMPI PUSH2 0x22F0 PUSH2 0x1F0D JUMP JUMPDEST JUMPDEST PUSH1 0x0 DUP11 ADD CALLDATALOAD PUSH8 0xFFFFFFFFFFFFFFFF DUP2 GT ISZERO PUSH2 0x230F JUMPI PUSH2 0x230E PUSH2 0x1F12 JUMP JUMPDEST JUMPDEST PUSH2 0x231B DUP13 DUP3 DUP14 ADD PUSH2 0x2236 JUMP JUMPDEST SWAP10 POP POP PUSH1 0x20 PUSH2 0x232C DUP13 DUP3 DUP14 ADD PUSH2 0x228D JUMP JUMPDEST SWAP9 POP POP PUSH1 0x40 DUP11 ADD CALLDATALOAD PUSH8 0xFFFFFFFFFFFFFFFF DUP2 GT ISZERO PUSH2 0x234D JUMPI PUSH2 0x234C PUSH2 0x1F12 JUMP JUMPDEST JUMPDEST PUSH2 0x2359 DUP13 DUP3 DUP14 ADD PUSH2 0x2236 JUMP JUMPDEST SWAP8 POP POP PUSH1 0x60 DUP11 ADD CALLDATALOAD PUSH8 0xFFFFFFFFFFFFFFFF DUP2 GT ISZERO PUSH2 0x237A JUMPI PUSH2 0x2379 PUSH2 0x1F12 JUMP JUMPDEST JUMPDEST PUSH2 0x2386 DUP13 DUP3 DUP14 ADD PUSH2 0x2236 JUMP JUMPDEST SWAP7 POP POP PUSH1 0x80 PUSH2 0x2397 DUP13 DUP3 DUP14 ADD PUSH2 0x1FF3 JUMP JUMPDEST SWAP6 POP POP PUSH1 0xA0 PUSH2 0x23A8 DUP13 DUP3 DUP14 ADD PUSH2 0x1FF3 JUMP JUMPDEST SWAP5 POP POP PUSH1 0xC0 PUSH2 0x23B9 DUP13 DUP3 DUP14 ADD PUSH2 0x22B9 JUMP JUMPDEST SWAP4 POP POP PUSH1 0xE0 PUSH2 0x23CA DUP13 DUP3 DUP14 ADD PUSH2 0x1FF3 JUMP JUMPDEST SWAP3 POP POP PUSH2 0x100 PUSH2 0x23DC DUP13 DUP3 DUP14 ADD PUSH2 0x1FF3 JUMP JUMPDEST SWAP2 POP POP SWAP3 SWAP6 SWAP9 POP SWAP3 SWAP6 SWAP9 POP SWAP3 SWAP6 SWAP9 JUMP JUMPDEST PUSH2 0x23F5 DUP2 PUSH2 0x2055 JUMP JUMPDEST DUP2 EQ PUSH2 0x2400 JUMPI PUSH1 0x0 DUP1 REVERT JUMPDEST POP JUMP JUMPDEST PUSH1 0x0 DUP2 CALLDATALOAD SWAP1 POP PUSH2 0x2412 DUP2 PUSH2 0x23EC JUMP JUMPDEST SWAP3 SWAP2 POP POP JUMP JUMPDEST PUSH1 0x0 DUP1 PUSH1 0x40 DUP4 DUP6 SUB SLT ISZERO PUSH2 0x242F JUMPI PUSH2 0x242E PUSH2 0x1F0D JUMP JUMPDEST JUMPDEST PUSH1 0x0 PUSH2 0x243D DUP6 DUP3 DUP7 ADD PUSH2 0x20B2 JUMP JUMPDEST SWAP3 POP POP PUSH1 0x20 PUSH2 0x244E DUP6 DUP3 DUP7 ADD PUSH2 0x2403 JUMP JUMPDEST SWAP2 POP POP SWAP3 POP SWAP3 SWAP1 POP JUMP JUMPDEST PUSH1 0x0 DUP2 SWAP1 POP SWAP2 SWAP1 POP JUMP JUMPDEST PUSH1 0x0 PUSH2 0x247D PUSH2 0x2478 PUSH2 0x2473 DUP5 PUSH2 0x2035 JUMP JUMPDEST PUSH2 0x2458 JUMP JUMPDEST PUSH2 0x2035 JUMP JUMPDEST SWAP1 POP SWAP2 SWAP1 POP JUMP JUMPDEST PUSH1 0x0 PUSH2 0x248F DUP3 PUSH2 0x2462 JUMP JUMPDEST SWAP1 POP SWAP2 SWAP1 POP JUMP JUMPDEST PUSH1 0x0 PUSH2 0x24A1 DUP3 PUSH2 0x2484 JUMP JUMPDEST SWAP1 POP SWAP2 SWAP1 POP JUMP JUMPDEST PUSH2 0x24B1 DUP2 PUSH2 0x2496 JUMP JUMPDEST DUP3 MSTORE POP POP JUMP JUMPDEST PUSH1 0x0 PUSH1 0x20 DUP3 ADD SWAP1 POP PUSH2 0x24CC PUSH1 0x0 DUP4 ADD DUP5 PUSH2 0x24A8 JUMP JUMPDEST SWAP3 SWAP2 POP POP JUMP JUMPDEST PUSH1 0x0 DUP2 MLOAD SWAP1 POP SWAP2 SWAP1 POP JUMP JUMPDEST PUSH1 0x0 DUP3 DUP3 MSTORE PUSH1 0x20 DUP3 ADD SWAP1 POP SWAP3 SWAP2 POP POP JUMP JUMPDEST PUSH1 0x0 DUP2 SWAP1 POP PUSH1 0x20 DUP3 ADD SWAP1 POP SWAP2 SWAP1 POP JUMP JUMPDEST PUSH2 0x2507 DUP2 PUSH2 0x2055 JUMP JUMPDEST DUP3 MSTORE POP POP JUMP JUMPDEST PUSH1 0x0 PUSH2 0x2519 DUP4 DUP4 PUSH2 0x24FE JUMP JUMPDEST PUSH1 0x20 DUP4 ADD SWAP1 POP SWAP3 SWAP2 POP POP JUMP JUMPDEST PUSH1 0x0 PUSH1 0x20 DUP3 ADD SWAP1 POP SWAP2 SWAP1 POP JUMP JUMPDEST PUSH1 0x0 PUSH2 0x253D DUP3 PUSH2 0x24D2 JUMP JUMPDEST PUSH2 0x2547 DUP2 DUP6 PUSH2 0x24DD JUMP JUMPDEST SWAP4 POP PUSH2 0x2552 DUP4 PUSH2 0x24EE JUMP JUMPDEST DUP1 PUSH1 0x0 JUMPDEST DUP4 DUP2 LT ISZERO PUSH2 0x2583 JUMPI DUP2 MLOAD PUSH2 0x256A DUP9 DUP3 PUSH2 0x250D JUMP JUMPDEST SWAP8 POP PUSH2 0x2575 DUP4 PUSH2 0x2525 JUMP JUMPDEST SWAP3 POP POP PUSH1 0x1 DUP2 ADD SWAP1 POP PUSH2 0x2556 JUMP JUMPDEST POP DUP6 SWAP4 POP POP POP POP SWAP3 SWAP2 POP POP JUMP JUMPDEST PUSH1 0x0 PUSH1 0x20 DUP3 ADD SWAP1 POP DUP2 DUP2 SUB PUSH1 0x0 DUP4 ADD MSTORE PUSH2 0x25AA DUP2 DUP5 PUSH2 0x2532 JUMP JUMPDEST SWAP1 POP SWAP3 SWAP2 POP POP JUMP JUMPDEST PUSH1 0x0 PUSH1 0x20 DUP3 DUP5 SUB SLT ISZERO PUSH2 0x25C8 JUMPI PUSH2 0x25C7 PUSH2 0x1F0D JUMP JUMPDEST JUMPDEST PUSH1 0x0 PUSH2 0x25D6 DUP5 DUP3 DUP6 ADD PUSH2 0x2403 JUMP JUMPDEST SWAP2 POP POP SWAP3 SWAP2 POP POP JUMP JUMPDEST PUSH1 0x0 PUSH1 0xFF DUP3 AND SWAP1 POP SWAP2 SWAP1 POP JUMP JUMPDEST PUSH2 0x25F5 DUP2 PUSH2 0x25DF JUMP JUMPDEST DUP2 EQ PUSH2 0x2600 JUMPI PUSH1 0x0 DUP1 REVERT JUMPDEST POP JUMP JUMPDEST PUSH1 0x0 DUP2 CALLDATALOAD SWAP1 POP PUSH2 0x2612 DUP2 PUSH2 0x25EC JUMP JUMPDEST SWAP3 SWAP2 POP POP JUMP JUMPDEST PUSH1 0x0 PUSH8 0xFFFFFFFFFFFFFFFF DUP3 GT ISZERO PUSH2 0x2633 JUMPI PUSH2 0x2632 PUSH2 0x2139 JUMP JUMPDEST JUMPDEST PUSH1 0x20 DUP3 MUL SWAP1 POP PUSH1 0x20 DUP2 ADD SWAP1 POP SWAP2 SWAP1 POP JUMP JUMPDEST PUSH1 0x0 DUP1 REVERT JUMPDEST PUSH1 0x0 DUP1 REVERT JUMPDEST PUSH1 0x0 PUSH1 0x60 DUP3 DUP5 SUB SLT ISZERO PUSH2 0x2664 JUMPI PUSH2 0x2663 PUSH2 0x2649 JUMP JUMPDEST JUMPDEST PUSH2 0x266E PUSH1 0x60 PUSH2 0x2199 JUMP JUMPDEST SWAP1 POP PUSH1 0x0 PUSH2 0x267E DUP5 DUP3 DUP6 ADD PUSH2 0x2603 JUMP JUMPDEST PUSH1 0x0 DUP4 ADD MSTORE POP PUSH1 0x20 PUSH2 0x2692 DUP5 DUP3 DUP6 ADD PUSH2 0x1FF3 JUMP JUMPDEST PUSH1 0x20 DUP4 ADD MSTORE POP PUSH1 0x40 PUSH2 0x26A6 DUP5 DUP3 DUP6 ADD PUSH2 0x1FF3 JUMP JUMPDEST PUSH1 0x40 DUP4 ADD MSTORE POP SWAP3 SWAP2 POP POP JUMP JUMPDEST PUSH1 0x0 PUSH2 0x26C5 PUSH2 0x26C0 DUP5 PUSH2 0x2618 JUMP JUMPDEST PUSH2 0x2199 JUMP JUMPDEST SWAP1 POP DUP1 DUP4 DUP3 MSTORE PUSH1 0x20 DUP3 ADD SWAP1 POP PUSH1 0x60 DUP5 MUL DUP4 ADD DUP6 DUP2 GT ISZERO PUSH2 0x26E8 JUMPI PUSH2 0x26E7 PUSH2 0x2644 JUMP JUMPDEST JUMPDEST DUP4 JUMPDEST DUP2 DUP2 LT ISZERO PUSH2 0x2711 JUMPI DUP1 PUSH2 0x26FD DUP9 DUP3 PUSH2 0x264E JUMP JUMPDEST DUP5 MSTORE PUSH1 0x20 DUP5 ADD SWAP4 POP POP PUSH1 0x60 DUP2 ADD SWAP1 POP PUSH2 0x26EA JUMP JUMPDEST POP POP POP SWAP4 SWAP3 POP POP POP JUMP JUMPDEST PUSH1 0x0 DUP3 PUSH1 0x1F DUP4 ADD SLT PUSH2 0x2730 JUMPI PUSH2 0x272F PUSH2 0x211E JUMP JUMPDEST JUMPDEST DUP2 CALLDATALOAD PUSH2 0x2740 DUP5 DUP3 PUSH1 0x20 DUP7 ADD PUSH2 0x26B2 JUMP JUMPDEST SWAP2 POP POP SWAP3 SWAP2 POP POP JUMP JUMPDEST PUSH1 0x0 DUP1 PUSH1 0x0 DUP1 PUSH1 0x0 DUP1 PUSH1 0x0 PUSH1 0xE0 DUP9 DUP11 SUB SLT ISZERO PUSH2 0x2768 JUMPI PUSH2 0x2767 PUSH2 0x1F0D JUMP JUMPDEST JUMPDEST PUSH1 0x0 PUSH2 0x2776 DUP11 DUP3 DUP12 ADD PUSH2 0x2603 JUMP JUMPDEST SWAP8 POP POP PUSH1 0x20 PUSH2 0x2787 DUP11 DUP3 DUP12 ADD PUSH2 0x2403 JUMP JUMPDEST SWAP7 POP POP PUSH1 0x40 DUP9 ADD CALLDATALOAD PUSH8 0xFFFFFFFFFFFFFFFF DUP2 GT ISZERO PUSH2 0x27A8 JUMPI PUSH2 0x27A7 PUSH2 0x1F12 JUMP JUMPDEST JUMPDEST PUSH2 0x27B4 DUP11 DUP3 DUP12 ADD PUSH2 0x2236 JUMP JUMPDEST SWAP6 POP POP PUSH1 0x60 PUSH2 0x27C5 DUP11 DUP3 DUP12 ADD PUSH2 0x228D JUMP JUMPDEST SWAP5 POP POP PUSH1 0x80 DUP9 ADD CALLDATALOAD PUSH8 0xFFFFFFFFFFFFFFFF DUP2 GT ISZERO PUSH2 0x27E6 JUMPI PUSH2 0x27E5 PUSH2 0x1F12 JUMP JUMPDEST JUMPDEST PUSH2 0x27F2 DUP11 DUP3 DUP12 ADD PUSH2 0x2236 JUMP JUMPDEST SWAP4 POP POP PUSH1 0xA0 DUP9 ADD CALLDATALOAD PUSH8 0xFFFFFFFFFFFFFFFF DUP2 GT ISZERO PUSH2 0x2813 JUMPI PUSH2 0x2812 PUSH2 0x1F12 JUMP JUMPDEST JUMPDEST PUSH2 0x281F DUP11 DUP3 DUP12 ADD PUSH2 0x2236 JUMP JUMPDEST SWAP3 POP POP PUSH1 0xC0 DUP9 ADD CALLDATALOAD PUSH8 0xFFFFFFFFFFFFFFFF DUP2 GT ISZERO PUSH2 0x2840 JUMPI PUSH2 0x283F PUSH2 0x1F12 JUMP JUMPDEST JUMPDEST PUSH2 0x284C DUP11 DUP3 DUP12 ADD PUSH2 0x271B JUMP JUMPDEST SWAP2 POP POP SWAP3 SWAP6 SWAP9 SWAP2 SWAP5 SWAP8 POP SWAP3 SWAP6 POP JUMP JUMPDEST PUSH1 0x0 PUSH2 0x2866 DUP3 PUSH2 0x2055 JUMP JUMPDEST SWAP1 POP SWAP2 SWAP1 POP JUMP JUMPDEST PUSH2 0x2876 DUP2 PUSH2 0x285B JUMP JUMPDEST DUP2 EQ PUSH2 0x2881 JUMPI PUSH1 0x0 DUP1 REVERT JUMPDEST POP JUMP JUMPDEST PUSH1 0x0 DUP2 CALLDATALOAD SWAP1 POP PUSH2 0x2893 DUP2 PUSH2 0x286D JUMP JUMPDEST SWAP3 SWAP2 POP POP JUMP JUMPDEST PUSH1 0x0 PUSH1 0x20 DUP3 DUP5 SUB SLT ISZERO PUSH2 0x28AF JUMPI PUSH2 0x28AE PUSH2 0x1F0D JUMP JUMPDEST JUMPDEST PUSH1 0x0 PUSH2 0x28BD DUP5 DUP3 DUP6 ADD PUSH2 0x2884 JUMP JUMPDEST SWAP2 POP POP SWAP3 SWAP2 POP POP JUMP JUMPDEST PUSH1 0x0 DUP1 PUSH1 0x0 PUSH1 0x60 DUP5 DUP7 SUB SLT ISZERO PUSH2 0x28DF JUMPI PUSH2 0x28DE PUSH2 0x1F0D JUMP JUMPDEST JUMPDEST PUSH1 0x0 PUSH2 0x28ED DUP7 DUP3 DUP8 ADD PUSH2 0x2403 JUMP JUMPDEST SWAP4 POP POP PUSH1 0x20 PUSH2 0x28FE DUP7 DUP3 DUP8 ADD PUSH2 0x2403 JUMP JUMPDEST SWAP3 POP POP PUSH1 0x40 PUSH2 0x290F DUP7 DUP3 DUP8 ADD PUSH2 0x2403 JUMP JUMPDEST SWAP2 POP POP SWAP3 POP SWAP3 POP SWAP3 JUMP JUMPDEST PUSH2 0x2922 DUP2 PUSH2 0x25DF JUMP JUMPDEST DUP3 MSTORE POP POP JUMP JUMPDEST PUSH1 0x0 PUSH1 0x20 DUP3 ADD SWAP1 POP PUSH2 0x293D PUSH1 0x0 DUP4 ADD DUP5 PUSH2 0x2919 JUMP JUMPDEST SWAP3 SWAP2 POP POP JUMP JUMPDEST PUSH1 0x0 PUSH1 0x20 DUP3 DUP5 SUB SLT ISZERO PUSH2 0x2959 JUMPI PUSH2 0x2958 PUSH2 0x1F0D JUMP JUMPDEST JUMPDEST PUSH1 0x0 PUSH2 0x2967 DUP5 DUP3 DUP6 ADD PUSH2 0x2603 JUMP JUMPDEST SWAP2 POP POP SWAP3 SWAP2 POP POP JUMP JUMPDEST PUSH1 0x0 DUP1 PUSH1 0x0 DUP1 PUSH1 0x0 DUP1 PUSH1 0xC0 DUP8 DUP10 SUB SLT ISZERO PUSH2 0x298D JUMPI PUSH2 0x298C PUSH2 0x1F0D JUMP JUMPDEST JUMPDEST PUSH1 0x0 PUSH2 0x299B DUP10 DUP3 DUP11 ADD PUSH2 0x2403 JUMP JUMPDEST SWAP7 POP POP PUSH1 0x20 PUSH2 0x29AC DUP10 DUP3 DUP11 ADD PUSH2 0x2603 JUMP JUMPDEST SWAP6 POP POP PUSH1 0x40 PUSH2 0x29BD DUP10 DUP3 DUP11 ADD PUSH2 0x1FF3 JUMP JUMPDEST SWAP5 POP POP PUSH1 0x60 PUSH2 0x29CE DUP10 DUP3 DUP11 ADD PUSH2 0x1FF3 JUMP JUMPDEST SWAP4 POP POP PUSH1 0x80 DUP8 ADD CALLDATALOAD PUSH8 0xFFFFFFFFFFFFFFFF DUP2 GT ISZERO PUSH2 0x29EF JUMPI PUSH2 0x29EE PUSH2 0x1F12 JUMP JUMPDEST JUMPDEST PUSH2 0x29FB DUP10 DUP3 DUP11 ADD PUSH2 0x2236 JUMP JUMPDEST SWAP3 POP POP PUSH1 0xA0 PUSH2 0x2A0C DUP10 DUP3 DUP11 ADD PUSH2 0x2403 JUMP JUMPDEST SWAP2 POP POP SWAP3 SWAP6 POP SWAP3 SWAP6 POP SWAP3 SWAP6 JUMP JUMPDEST PUSH1 0x0 DUP1 PUSH1 0x40 DUP4 DUP6 SUB SLT ISZERO PUSH2 0x2A30 JUMPI PUSH2 0x2A2F PUSH2 0x1F0D JUMP JUMPDEST JUMPDEST PUSH1 0x0 PUSH2 0x2A3E DUP6 DUP3 DUP7 ADD PUSH2 0x2403 JUMP JUMPDEST SWAP3 POP POP PUSH1 0x20 DUP4 ADD CALLDATALOAD PUSH8 0xFFFFFFFFFFFFFFFF DUP2 GT ISZERO PUSH2 0x2A5F JUMPI PUSH2 0x2A5E PUSH2 0x1F12 JUMP JUMPDEST JUMPDEST PUSH2 0x2A6B DUP6 DUP3 DUP7 ADD PUSH2 0x2236 JUMP JUMPDEST SWAP2 POP POP SWAP3 POP SWAP3 SWAP1 POP JUMP JUMPDEST PUSH1 0x0 DUP2 MLOAD SWAP1 POP SWAP2 SWAP1 POP JUMP JUMPDEST PUSH1 0x0 DUP3 DUP3 MSTORE PUSH1 0x20 DUP3 ADD SWAP1 POP SWAP3 SWAP2 POP POP JUMP JUMPDEST PUSH1 0x0 JUMPDEST DUP4 DUP2 LT ISZERO PUSH2 0x2AAF JUMPI DUP1 DUP3 ADD MLOAD DUP2 DUP5 ADD MSTORE PUSH1 0x20 DUP2 ADD SWAP1 POP PUSH2 0x2A94 JUMP JUMPDEST PUSH1 0x0 DUP5 DUP5 ADD MSTORE POP POP POP POP JUMP JUMPDEST PUSH1 0x0 PUSH2 0x2AC6 DUP3 PUSH2 0x2A75 JUMP JUMPDEST PUSH2 0x2AD0 DUP2 DUP6 PUSH2 0x2A80 JUMP JUMPDEST SWAP4 POP PUSH2 0x2AE0 DUP2 DUP6 PUSH1 0x20 DUP7 ADD PUSH2 0x2A91 JUMP JUMPDEST PUSH2 0x2AE9 DUP2 PUSH2 0x2128 JUMP JUMPDEST DUP5 ADD SWAP2 POP POP SWAP3 SWAP2 POP POP JUMP JUMPDEST PUSH1 0x0 PUSH2 0x2AFF DUP3 PUSH2 0x2484 JUMP JUMPDEST SWAP1 POP SWAP2 SWAP1 POP JUMP JUMPDEST PUSH2 0x2B0F DUP2 PUSH2 0x2AF4 JUMP JUMPDEST DUP3 MSTORE POP POP JUMP JUMPDEST PUSH2 0x2B1E DUP2 PUSH2 0x1FD2 JUMP JUMPDEST DUP3 MSTORE POP POP JUMP JUMPDEST PUSH1 0x0 PUSH2 0x120 DUP3 ADD SWAP1 POP DUP2 DUP2 SUB PUSH1 0x0 DUP4 ADD MSTORE PUSH2 0x2B3F DUP2 DUP13 PUSH2 0x2ABB JUMP JUMPDEST SWAP1 POP PUSH2 0x2B4E PUSH1 0x20 DUP4 ADD DUP12 PUSH2 0x2B06 JUMP JUMPDEST DUP2 DUP2 SUB PUSH1 0x40 DUP4 ADD MSTORE PUSH2 0x2B60 DUP2 DUP11 PUSH2 0x2ABB JUMP JUMPDEST SWAP1 POP DUP2 DUP2 SUB PUSH1 0x60 DUP4 ADD MSTORE PUSH2 0x2B74 DUP2 DUP10 PUSH2 0x2ABB JUMP JUMPDEST SWAP1 POP PUSH2 0x2B83 PUSH1 0x80 DUP4 ADD DUP9 PUSH2 0x2B15 JUMP JUMPDEST PUSH2 0x2B90 PUSH1 0xA0 DUP4 ADD DUP8 PUSH2 0x2B15 JUMP JUMPDEST PUSH2 0x2B9D PUSH1 0xC0 DUP4 ADD DUP7 PUSH2 0x1FA8 JUMP JUMPDEST PUSH2 0x2BAA PUSH1 0xE0 DUP4 ADD DUP6 PUSH2 0x2B15 JUMP JUMPDEST PUSH2 0x2BB8 PUSH2 0x100 DUP4 ADD DUP5 PUSH2 0x2B15 JUMP JUMPDEST SWAP11 SWAP10 POP POP POP POP POP POP POP POP POP POP JUMP JUMPDEST PUSH1 0x0 PUSH2 0x140 DUP3 ADD SWAP1 POP PUSH2 0x2BDC PUSH1 0x0 DUP4 ADD DUP14 PUSH2 0x2067 JUMP JUMPDEST DUP2 DUP2 SUB PUSH1 0x20 DUP4 ADD MSTORE PUSH2 0x2BEE DUP2 DUP13 PUSH2 0x2ABB JUMP JUMPDEST SWAP1 POP PUSH2 0x2BFD PUSH1 0x40 DUP4 ADD DUP12 PUSH2 0x2067 JUMP JUMPDEST DUP2 DUP2 SUB PUSH1 0x60 DUP4 ADD MSTORE PUSH2 0x2C0F DUP2 DUP11 PUSH2 0x2ABB JUMP JUMPDEST SWAP1 POP DUP2 DUP2 SUB PUSH1 0x80 DUP4 ADD MSTORE PUSH2 0x2C23 DUP2 DUP10 PUSH2 0x2ABB JUMP JUMPDEST SWAP1 POP PUSH2 0x2C32 PUSH1 0xA0 DUP4 ADD DUP9 PUSH2 0x2B15 JUMP JUMPDEST PUSH2 0x2C3F PUSH1 0xC0 DUP4 ADD DUP8 PUSH2 0x2B15 JUMP JUMPDEST PUSH2 0x2C4C PUSH1 0xE0 DUP4 ADD DUP7 PUSH2 0x1FA8 JUMP JUMPDEST PUSH2 0x2C5A PUSH2 0x100 DUP4 ADD DUP6 PUSH2 0x2B15 JUMP JUMPDEST PUSH2 0x2C68 PUSH2 0x120 DUP4 ADD DUP5 PUSH2 0x2B15 JUMP JUMPDEST SWAP12 SWAP11 POP POP POP POP POP POP POP POP POP POP POP JUMP JUMPDEST PUSH32 0x416363657373436F6E74726F6C3A2063616E206F6E6C792072656E6F756E6365 PUSH1 0x0 DUP3 ADD MSTORE PUSH32 0x20726F6C657320666F722073656C660000000000000000000000000000000000 PUSH1 0x20 DUP3 ADD MSTORE POP JUMP JUMPDEST PUSH1 0x0 PUSH2 0x2CD3 PUSH1 0x2F DUP4 PUSH2 0x2A80 JUMP JUMPDEST SWAP2 POP PUSH2 0x2CDE DUP3 PUSH2 0x2C77 JUMP JUMPDEST PUSH1 0x40 DUP3 ADD SWAP1 POP SWAP2 SWAP1 POP JUMP JUMPDEST PUSH1 0x0 PUSH1 0x20 DUP3 ADD SWAP1 POP DUP2 DUP2 SUB PUSH1 0x0 DUP4 ADD MSTORE PUSH2 0x2D02 DUP2 PUSH2 0x2CC6 JUMP JUMPDEST SWAP1 POP SWAP2 SWAP1 POP JUMP JUMPDEST PUSH32 0x7374616E646172644964206E6F7420737570706F727400000000000000000000 PUSH1 0x0 DUP3 ADD MSTORE POP JUMP JUMPDEST PUSH1 0x0 PUSH2 0x2D3F PUSH1 0x16 DUP4 PUSH2 0x2A80 JUMP JUMPDEST SWAP2 POP PUSH2 0x2D4A DUP3 PUSH2 0x2D09 JUMP JUMPDEST PUSH1 0x20 DUP3 ADD SWAP1 POP SWAP2 SWAP1 POP JUMP JUMPDEST PUSH1 0x0 PUSH1 0x20 DUP3 ADD SWAP1 POP DUP2 DUP2 SUB PUSH1 0x0 DUP4 ADD MSTORE PUSH2 0x2D6E DUP2 PUSH2 0x2D32 JUMP JUMPDEST SWAP1 POP SWAP2 SWAP1 POP JUMP JUMPDEST PUSH1 0x0 PUSH1 0xE0 DUP3 ADD SWAP1 POP PUSH2 0x2D8A PUSH1 0x0 DUP4 ADD DUP11 PUSH2 0x2067 JUMP JUMPDEST PUSH2 0x2D97 PUSH1 0x20 DUP4 ADD DUP10 PUSH2 0x2067 JUMP JUMPDEST PUSH2 0x2DA4 PUSH1 0x40 DUP4 ADD DUP9 PUSH2 0x2B06 JUMP JUMPDEST DUP2 DUP2 SUB PUSH1 0x60 DUP4 ADD MSTORE PUSH2 0x2DB6 DUP2 DUP8 PUSH2 0x2ABB JUMP JUMPDEST SWAP1 POP DUP2 DUP2 SUB PUSH1 0x80 DUP4 ADD MSTORE PUSH2 0x2DCA DUP2 DUP7 PUSH2 0x2ABB JUMP JUMPDEST SWAP1 POP PUSH2 0x2DD9 PUSH1 0xA0 DUP4 ADD DUP6 PUSH2 0x2067 JUMP JUMPDEST PUSH2 0x2DE6 PUSH1 0xC0 DUP4 ADD DUP5 PUSH2 0x2067 JUMP JUMPDEST SWAP9 SWAP8 POP POP POP POP POP POP POP POP JUMP JUMPDEST PUSH32 0x4E487B7100000000000000000000000000000000000000000000000000000000 PUSH1 0x0 MSTORE PUSH1 0x32 PUSH1 0x4 MSTORE PUSH1 0x24 PUSH1 0x0 REVERT JUMPDEST PUSH32 0x4E487B7100000000000000000000000000000000000000000000000000000000 PUSH1 0x0 MSTORE PUSH1 0x11 PUSH1 0x4 MSTORE PUSH1 0x24 PUSH1 0x0 REVERT JUMPDEST PUSH1 0x0 PUSH2 0x2E5B DUP3 PUSH2 0x1FD2 JUMP JUMPDEST SWAP2 POP PUSH32 0xFFFFFFFFFFFFFFFFFFFFFFFFFFFFFFFFFFFFFFFFFFFFFFFFFFFFFFFFFFFFFFFF DUP3 SUB PUSH2 0x2E8D JUMPI PUSH2 0x2E8C PUSH2 0x2E21 JUMP JUMPDEST JUMPDEST PUSH1 0x1 DUP3 ADD SWAP1 POP SWAP2 SWAP1 POP JUMP JUMPDEST PUSH1 0x0 DUP2 MLOAD SWAP1 POP SWAP2 SWAP1 POP JUMP JUMPDEST PUSH1 0x0 DUP3 DUP3 MSTORE PUSH1 0x20 DUP3 ADD SWAP1 POP SWAP3 SWAP2 POP POP JUMP JUMPDEST PUSH1 0x0 DUP2 SWAP1 POP PUSH1 0x20 DUP3 ADD SWAP1 POP SWAP2 SWAP1 POP JUMP JUMPDEST PUSH2 0x2ECD DUP2 PUSH2 0x25DF JUMP JUMPDEST DUP3 MSTORE POP POP JUMP JUMPDEST PUSH2 0x2EDC DUP2 PUSH2 0x1FD2 JUMP JUMPDEST DUP3 MSTORE POP POP JUMP JUMPDEST PUSH1 0x60 DUP3 ADD PUSH1 0x0 DUP3 ADD MLOAD PUSH2 0x2EF8 PUSH1 0x0 DUP6 ADD DUP3 PUSH2 0x2EC4 JUMP JUMPDEST POP PUSH1 0x20 DUP3 ADD MLOAD PUSH2 0x2F0B PUSH1 0x20 DUP6 ADD DUP3 PUSH2 0x2ED3 JUMP JUMPDEST POP PUSH1 0x40 DUP3 ADD MLOAD PUSH2 0x2F1E PUSH1 0x40 DUP6 ADD DUP3 PUSH2 0x2ED3 JUMP JUMPDEST POP POP POP POP JUMP JUMPDEST PUSH1 0x0 PUSH2 0x2F30 DUP4 DUP4 PUSH2 0x2EE2 JUMP JUMPDEST PUSH1 0x60 DUP4 ADD SWAP1 POP SWAP3 SWAP2 POP POP JUMP JUMPDEST PUSH1 0x0 PUSH1 0x20 DUP3 ADD SWAP1 POP SWAP2 SWAP1 POP JUMP JUMPDEST PUSH1 0x0 PUSH2 0x2F54 DUP3 PUSH2 0x2E98 JUMP JUMPDEST PUSH2 0x2F5E DUP2 DUP6 PUSH2 0x2EA3 JUMP JUMPDEST SWAP4 POP PUSH2 0x2F69 DUP4 PUSH2 0x2EB4 JUMP JUMPDEST DUP1 PUSH1 0x0 JUMPDEST DUP4 DUP2 LT ISZERO PUSH2 0x2F9A JUMPI DUP2 MLOAD PUSH2 0x2F81 DUP9 DUP3 PUSH2 0x2F24 JUMP JUMPDEST SWAP8 POP PUSH2 0x2F8C DUP4 PUSH2 0x2F3C JUMP JUMPDEST SWAP3 POP POP PUSH1 0x1 DUP2 ADD SWAP1 POP PUSH2 0x2F6D JUMP JUMPDEST POP DUP6 SWAP4 POP POP POP POP SWAP3 SWAP2 POP POP JUMP JUMPDEST PUSH1 0x0 PUSH2 0x140 DUP3 ADD SWAP1 POP PUSH2 0x2FBD PUSH1 0x0 DUP4 ADD DUP14 PUSH2 0x2067 JUMP JUMPDEST DUP2 DUP2 SUB PUSH1 0x20 DUP4 ADD MSTORE PUSH2 0x2FCF DUP2 DUP13 PUSH2 0x2ABB JUMP JUMPDEST SWAP1 POP PUSH2 0x2FDE PUSH1 0x40 DUP4 ADD DUP12 PUSH2 0x2067 JUMP JUMPDEST PUSH2 0x2FEB PUSH1 0x60 DUP4 ADD DUP11 PUSH2 0x1FA8 JUMP JUMPDEST PUSH2 0x2FF8 PUSH1 0x80 DUP4 ADD DUP10 PUSH2 0x2B06 JUMP JUMPDEST DUP2 DUP2 SUB PUSH1 0xA0 DUP4 ADD MSTORE PUSH2 0x300A DUP2 DUP9 PUSH2 0x2ABB JUMP JUMPDEST SWAP1 POP DUP2 DUP2 SUB PUSH1 0xC0 DUP4 ADD MSTORE PUSH2 0x301E DUP2 DUP8 PUSH2 0x2ABB JUMP JUMPDEST SWAP1 POP PUSH2 0x302D PUSH1 0xE0 DUP4 ADD DUP7 PUSH2 0x2067 JUMP JUMPDEST DUP2 DUP2 SUB PUSH2 0x100 DUP4 ADD MSTORE PUSH2 0x3040 DUP2 DUP6 PUSH2 0x2F49 JUMP JUMPDEST SWAP1 POP PUSH2 0x3050 PUSH2 0x120 DUP4 ADD DUP5 PUSH2 0x2B15 JUMP JUMPDEST SWAP12 SWAP11 POP POP POP POP POP POP POP POP POP POP POP JUMP JUMPDEST PUSH1 0x0 PUSH2 0x100 DUP3 ADD SWAP1 POP PUSH2 0x3075 PUSH1 0x0 DUP4 ADD DUP12 PUSH2 0x2919 JUMP JUMPDEST PUSH2 0x3082 PUSH1 0x20 DUP4 ADD DUP11 PUSH2 0x2067 JUMP JUMPDEST PUSH2 0x308F PUSH1 0x40 DUP4 ADD DUP10 PUSH2 0x2067 JUMP JUMPDEST DUP2 DUP2 SUB PUSH1 0x60 DUP4 ADD MSTORE PUSH2 0x30A1 DUP2 DUP9 PUSH2 0x2F49 JUMP JUMPDEST SWAP1 POP PUSH2 0x30B0 PUSH1 0x80 DUP4 ADD DUP8 PUSH2 0x2B06 JUMP JUMPDEST DUP2 DUP2 SUB PUSH1 0xA0 DUP4 ADD MSTORE PUSH2 0x30C2 DUP2 DUP7 PUSH2 0x2ABB JUMP JUMPDEST SWAP1 POP DUP2 DUP2 SUB PUSH1 0xC0 DUP4 ADD MSTORE PUSH2 0x30D6 DUP2 DUP6 PUSH2 0x2ABB JUMP JUMPDEST SWAP1 POP PUSH2 0x30E5 PUSH1 0xE0 DUP4 ADD DUP5 PUSH2 0x2067 JUMP JUMPDEST SWAP10 SWAP9 POP POP POP POP POP POP POP POP POP JUMP JUMPDEST PUSH32 0x41646472657373206F6620636F6E66696775726174696F6E206D757374206265 PUSH1 0x0 DUP3 ADD MSTORE PUSH32 0x2072657175697265642E00000000000000000000000000000000000000000000 PUSH1 0x20 DUP3 ADD MSTORE POP JUMP JUMPDEST PUSH1 0x0 PUSH2 0x314E PUSH1 0x2A DUP4 PUSH2 0x2A80 JUMP JUMPDEST SWAP2 POP PUSH2 0x3159 DUP3 PUSH2 0x30F2 JUMP JUMPDEST PUSH1 0x40 DUP3 ADD SWAP1 POP SWAP2 SWAP1 POP JUMP JUMPDEST PUSH1 0x0 PUSH1 0x20 DUP3 ADD SWAP1 POP DUP2 DUP2 SUB PUSH1 0x0 DUP4 ADD MSTORE PUSH2 0x317D DUP2 PUSH2 0x3141 JUMP JUMPDEST SWAP1 POP SWAP2 SWAP1 POP JUMP JUMPDEST PUSH1 0x0 DUP2 MLOAD SWAP1 POP PUSH2 0x3193 DUP2 PUSH2 0x23EC JUMP JUMPDEST SWAP3 SWAP2 POP POP JUMP JUMPDEST PUSH1 0x0 PUSH1 0x20 DUP3 DUP5 SUB SLT ISZERO PUSH2 0x31AF JUMPI PUSH2 0x31AE PUSH2 0x1F0D JUMP JUMPDEST JUMPDEST PUSH1 0x0 PUSH2 0x31BD DUP5 DUP3 DUP6 ADD PUSH2 0x3184 JUMP JUMPDEST SWAP2 POP POP SWAP3 SWAP2 POP POP JUMP JUMPDEST PUSH1 0x0 PUSH1 0x60 DUP3 ADD SWAP1 POP PUSH2 0x31DB PUSH1 0x0 DUP4 ADD DUP7 PUSH2 0x2067 JUMP JUMPDEST PUSH2 0x31E8 PUSH1 0x20 DUP4 ADD DUP6 PUSH2 0x2067 JUMP JUMPDEST PUSH2 0x31F5 PUSH1 0x40 DUP4 ADD DUP5 PUSH2 0x2067 JUMP JUMPDEST SWAP5 SWAP4 POP POP POP POP JUMP JUMPDEST PUSH1 0x0 PUSH1 0x40 DUP3 ADD SWAP1 POP PUSH2 0x3212 PUSH1 0x0 DUP4 ADD DUP6 PUSH2 0x2067 JUMP JUMPDEST DUP2 DUP2 SUB PUSH1 0x20 DUP4 ADD MSTORE PUSH2 0x3224 DUP2 DUP5 PUSH2 0x2ABB JUMP JUMPDEST SWAP1 POP SWAP4 SWAP3 POP POP POP JUMP JUMPDEST PUSH32 0x455243313136373A20637265617465206661696C656400000000000000000000 PUSH1 0x0 DUP3 ADD MSTORE POP JUMP JUMPDEST PUSH1 0x0 PUSH2 0x3263 PUSH1 0x16 DUP4 PUSH2 0x2A80 JUMP JUMPDEST SWAP2 POP PUSH2 0x326E DUP3 PUSH2 0x322D JUMP JUMPDEST PUSH1 0x20 DUP3 ADD SWAP1 POP SWAP2 SWAP1 POP JUMP JUMPDEST PUSH1 0x0 PUSH1 0x20 DUP3 ADD SWAP1 POP DUP2 DUP2 SUB PUSH1 0x0 DUP4 ADD MSTORE PUSH2 0x3292 DUP2 PUSH2 0x3256 JUMP JUMPDEST SWAP1 POP SWAP2 SWAP1 POP JUMP JUMPDEST PUSH1 0x0 PUSH1 0xE0 DUP3 ADD SWAP1 POP PUSH2 0x32AE PUSH1 0x0 DUP4 ADD DUP11 PUSH2 0x2067 JUMP JUMPDEST PUSH2 0x32BB PUSH1 0x20 DUP4 ADD DUP10 PUSH2 0x2919 JUMP JUMPDEST PUSH2 0x32C8 PUSH1 0x40 DUP4 ADD DUP9 PUSH2 0x2B15 JUMP JUMPDEST PUSH2 0x32D5 PUSH1 0x60 DUP4 ADD DUP8 PUSH2 0x2B15 JUMP JUMPDEST DUP2 DUP2 SUB PUSH1 0x80 DUP4 ADD MSTORE PUSH2 0x32E7 DUP2 DUP7 PUSH2 0x2ABB JUMP JUMPDEST SWAP1 POP PUSH2 0x32F6 PUSH1 0xA0 DUP4 ADD DUP6 PUSH2 0x2067 JUMP JUMPDEST PUSH2 0x3303 PUSH1 0xC0 DUP4 ADD DUP5 PUSH2 0x2067 JUMP JUMPDEST SWAP9 SWAP8 POP POP POP POP POP POP POP POP JUMP JUMPDEST PUSH1 0x0 DUP2 SWAP1 POP SWAP3 SWAP2 POP POP JUMP JUMPDEST PUSH32 0x416363657373436F6E74726F6C3A206163636F756E7420000000000000000000 PUSH1 0x0 DUP3 ADD MSTORE POP JUMP JUMPDEST PUSH1 0x0 PUSH2 0x3350 PUSH1 0x17 DUP4 PUSH2 0x330F JUMP JUMPDEST SWAP2 POP PUSH2 0x335B DUP3 PUSH2 0x331A JUMP JUMPDEST PUSH1 0x17 DUP3 ADD SWAP1 POP SWAP2 SWAP1 POP JUMP JUMPDEST PUSH1 0x0 PUSH2 0x3371 DUP3 PUSH2 0x2A75 JUMP JUMPDEST PUSH2 0x337B DUP2 DUP6 PUSH2 0x330F JUMP JUMPDEST SWAP4 POP PUSH2 0x338B DUP2 DUP6 PUSH1 0x20 DUP7 ADD PUSH2 0x2A91 JUMP JUMPDEST DUP1 DUP5 ADD SWAP2 POP POP SWAP3 SWAP2 POP POP JUMP JUMPDEST PUSH32 0x206973206D697373696E6720726F6C6520000000000000000000000000000000 PUSH1 0x0 DUP3 ADD MSTORE POP JUMP JUMPDEST PUSH1 0x0 PUSH2 0x33CD PUSH1 0x11 DUP4 PUSH2 0x330F JUMP JUMPDEST SWAP2 POP PUSH2 0x33D8 DUP3 PUSH2 0x3397 JUMP JUMPDEST PUSH1 0x11 DUP3 ADD SWAP1 POP SWAP2 SWAP1 POP JUMP JUMPDEST PUSH1 0x0 PUSH2 0x33EE DUP3 PUSH2 0x3343 JUMP JUMPDEST SWAP2 POP PUSH2 0x33FA DUP3 DUP6 PUSH2 0x3366 JUMP JUMPDEST SWAP2 POP PUSH2 0x3405 DUP3 PUSH2 0x33C0 JUMP JUMPDEST SWAP2 POP PUSH2 0x3411 DUP3 DUP5 PUSH2 0x3366 JUMP JUMPDEST SWAP2 POP DUP2 SWAP1 POP SWAP4 SWAP3 POP POP POP JUMP JUMPDEST PUSH1 0x0 PUSH1 0x20 DUP3 ADD SWAP1 POP DUP2 DUP2 SUB PUSH1 0x0 DUP4 ADD MSTORE PUSH2 0x3437 DUP2 DUP5 PUSH2 0x2ABB JUMP JUMPDEST SWAP1 POP SWAP3 SWAP2 POP POP JUMP JUMPDEST PUSH1 0x0 PUSH2 0x344A DUP3 PUSH2 0x1FD2 JUMP JUMPDEST SWAP2 POP PUSH2 0x3455 DUP4 PUSH2 0x1FD2 JUMP JUMPDEST SWAP3 POP DUP3 DUP3 MUL PUSH2 0x3463 DUP2 PUSH2 0x1FD2 JUMP JUMPDEST SWAP2 POP DUP3 DUP3 DIV DUP5 EQ DUP4 ISZERO OR PUSH2 0x347A JUMPI PUSH2 0x3479 PUSH2 0x2E21 JUMP JUMPDEST JUMPDEST POP SWAP3 SWAP2 POP POP JUMP JUMPDEST PUSH1 0x0 PUSH2 0x348C DUP3 PUSH2 0x1FD2 JUMP JUMPDEST SWAP2 POP PUSH2 0x3497 DUP4 PUSH2 0x1FD2 JUMP JUMPDEST SWAP3 POP DUP3 DUP3 ADD SWAP1 POP DUP1 DUP3 GT ISZERO PUSH2 0x34AF JUMPI PUSH2 0x34AE PUSH2 0x2E21 JUMP JUMPDEST JUMPDEST SWAP3 SWAP2 POP POP JUMP JUMPDEST PUSH1 0x0 PUSH2 0x34C0 DUP3 PUSH2 0x1FD2 JUMP JUMPDEST SWAP2 POP PUSH1 0x0 DUP3 SUB PUSH2 0x34D3 JUMPI PUSH2 0x34D2 PUSH2 0x2E21 JUMP JUMPDEST JUMPDEST PUSH1 0x1 DUP3 SUB SWAP1 POP SWAP2 SWAP1 POP JUMP JUMPDEST PUSH32 0x537472696E67733A20686578206C656E67746820696E73756666696369656E74 PUSH1 0x0 DUP3 ADD MSTORE POP JUMP JUMPDEST PUSH1 0x0 PUSH2 0x3514 PUSH1 0x20 DUP4 PUSH2 0x2A80 JUMP JUMPDEST SWAP2 POP PUSH2 0x351F DUP3 PUSH2 0x34DE JUMP JUMPDEST PUSH1 0x20 DUP3 ADD SWAP1 POP SWAP2 SWAP1 POP JUMP JUMPDEST PUSH1 0x0 PUSH1 0x20 DUP3 ADD SWAP1 POP DUP2 DUP2 SUB PUSH1 0x0 DUP4 ADD MSTORE PUSH2 0x3543 DUP2 PUSH2 0x3507 JUMP JUMPDEST SWAP1 POP SWAP2 SWAP1 POP JUMP INVALID LOG2 PUSH5 0x6970667358 0x22 SLT KECCAK256 0xE1 DUP7 EQ PUSH1 0xEC 0xD1 PUSH15 0x70801763E31F5327DA6DFA002D38FC 0xB5 0x21 LOG0 DUP5 0xEF JUMP LOG3 LOG1 0xE2 JUMPDEST PUSH5 0x736F6C6343 STOP ADDMOD SLT STOP CALLER PUSH1 0xA0 PUSH1 0x40 MSTORE ADDRESS PUSH20 0xFFFFFFFFFFFFFFFFFFFFFFFFFFFFFFFFFFFFFFFF AND PUSH1 0x80 SWAP1 PUSH20 0xFFFFFFFFFFFFFFFFFFFFFFFFFFFFFFFFFFFFFFFF AND DUP2 MSTORE POP CALLVALUE DUP1 ISZERO PUSH3 0x44 JUMPI PUSH1 0x0 DUP1 REVERT JUMPDEST POP PUSH1 0x80 MLOAD PUSH2 0x87C9 PUSH3 0x7D PUSH1 0x0 CODECOPY PUSH1 0x0 DUP2 DUP2 PUSH2 0x1424 ADD MSTORE DUP2 DUP2 PUSH2 0x14B2 ADD MSTORE DUP2 DUP2 PUSH2 0x191A ADD MSTORE DUP2 DUP2 PUSH2 0x19A8 ADD MSTORE PUSH2 0x1A58 ADD MSTORE PUSH2 0x87C9 PUSH1 0x0 RETURN INVALID PUSH1 0x80 PUSH1 0x40 MSTORE PUSH1 0x4 CALLDATASIZE LT PUSH2 0x3A2 JUMPI PUSH1 0x0 CALLDATALOAD PUSH1 0xE0 SHR DUP1 PUSH4 0x76214140 GT PUSH2 0x1E7 JUMPI DUP1 PUSH4 0xAD9E963F GT PUSH2 0x10D JUMPI DUP1 PUSH4 0xDB8CC8FA GT PUSH2 0xA0 JUMPI DUP1 PUSH4 0xEA4AFB5C GT PUSH2 0x6F JUMPI DUP1 PUSH4 0xEA4AFB5C EQ PUSH2 0xDD0 JUMPI DUP1 PUSH4 0xEF463B64 EQ PUSH2 0xDFB JUMPI DUP1 PUSH4 0xF2FDE38B EQ PUSH2 0xE38 JUMPI DUP1 PUSH4 0xFFA0A02A EQ PUSH2 0xE61 JUMPI PUSH2 0x3A2 JUMP JUMPDEST DUP1 PUSH4 0xDB8CC8FA EQ PUSH2 0xD16 JUMPI DUP1 PUSH4 0xDD8A3530 EQ PUSH2 0xD3F JUMPI DUP1 PUSH4 0xE2F03947 EQ PUSH2 0xD6A JUMPI DUP1 PUSH4 0xE985E9C5 EQ PUSH2 0xD93 JUMPI PUSH2 0x3A2 JUMP JUMPDEST DUP1 PUSH4 0xC1292CC3 GT PUSH2 0xDC JUMPI DUP1 PUSH4 0xC1292CC3 EQ PUSH2 0xC5C JUMPI DUP1 PUSH4 0xC4CA3A9C EQ PUSH2 0xC87 JUMPI DUP1 PUSH4 0xC87B56DD EQ PUSH2 0xCB0 JUMPI DUP1 PUSH4 0xD547741F EQ PUSH2 0xCED JUMPI PUSH2 0x3A2 JUMP JUMPDEST DUP1 PUSH4 0xAD9E963F EQ PUSH2 0xBA2 JUMPI DUP1 PUSH4 0xB80F55C9 EQ PUSH2 0xBDF JUMPI DUP1 PUSH4 0xB88D4FDE EQ PUSH2 0xC08 JUMPI DUP1 PUSH4 0xBFFADC2F EQ PUSH2 0xC31 JUMPI PUSH2 0x3A2 JUMP JUMPDEST DUP1 PUSH4 0x9292CAAF GT PUSH2 0x185 JUMPI DUP1 PUSH4 0xA217FDDF GT PUSH2 0x154 JUMPI DUP1 PUSH4 0xA217FDDF EQ PUSH2 0xAE6 JUMPI DUP1 PUSH4 0xA22CB465 EQ PUSH2 0xB11 JUMPI DUP1 PUSH4 0xA76E0DB2 EQ PUSH2 0xB3A JUMPI DUP1 PUSH4 0xA9C2E36C EQ PUSH2 0xB77 JUMPI PUSH2 0x3A2 JUMP JUMPDEST DUP1 PUSH4 0x9292CAAF EQ PUSH2 0xA3E JUMPI DUP1 PUSH4 0x92C0F3D7 EQ PUSH2 0xA69 JUMPI DUP1 PUSH4 0x95D89B41 EQ PUSH2 0xA92 JUMPI DUP1 PUSH4 0x9A94EFD8 EQ PUSH2 0xABD JUMPI PUSH2 0x3A2 JUMP JUMPDEST DUP1 PUSH4 0x8BADFA93 GT PUSH2 0x1C1 JUMPI DUP1 PUSH4 0x8BADFA93 EQ PUSH2 0x982 JUMPI DUP1 PUSH4 0x8DA5CB5B EQ PUSH2 0x9AD JUMPI DUP1 PUSH4 0x8F0B7B68 EQ PUSH2 0x9D8 JUMPI DUP1 PUSH4 0x91D14854 EQ PUSH2 0xA01 JUMPI PUSH2 0x3A2 JUMP JUMPDEST DUP1 PUSH4 0x76214140 EQ PUSH2 0x903 JUMPI DUP1 PUSH4 0x763C87BF EQ PUSH2 0x92C JUMPI DUP1 PUSH4 0x88C7E397 EQ PUSH2 0x957 JUMPI PUSH2 0x3A2 JUMP JUMPDEST DUP1 PUSH4 0x49D19648 GT PUSH2 0x2CC JUMPI DUP1 PUSH4 0x58797CB6 GT PUSH2 0x26A JUMPI DUP1 PUSH4 0x67F6860B GT PUSH2 0x239 JUMPI DUP1 PUSH4 0x67F6860B EQ PUSH2 0x85D JUMPI DUP1 PUSH4 0x70A08231 EQ PUSH2 0x886 JUMPI DUP1 PUSH4 0x715018A6 EQ PUSH2 0x8C3 JUMPI DUP1 PUSH4 0x72F12344 EQ PUSH2 0x8DA JUMPI PUSH2 0x3A2 JUMP JUMPDEST DUP1 PUSH4 0x58797CB6 EQ PUSH2 0x78D JUMPI DUP1 PUSH4 0x5FD1BBC4 EQ PUSH2 0x7B8 JUMPI DUP1 PUSH4 0x6352211E EQ PUSH2 0x7E3 JUMPI DUP1 PUSH4 0x66458D4A EQ PUSH2 0x820 JUMPI PUSH2 0x3A2 JUMP JUMPDEST DUP1 PUSH4 0x4F1EF286 GT PUSH2 0x2A6 JUMPI DUP1 PUSH4 0x4F1EF286 EQ PUSH2 0x6E0 JUMPI DUP1 PUSH4 0x52D1902D EQ PUSH2 0x6FC JUMPI DUP1 PUSH4 0x538BAEAB EQ PUSH2 0x727 JUMPI DUP1 PUSH4 0x558008AB EQ PUSH2 0x750 JUMPI PUSH2 0x3A2 JUMP JUMPDEST DUP1 PUSH4 0x49D19648 EQ PUSH2 0x665 JUMPI DUP1 PUSH4 0x4C40A07B EQ PUSH2 0x68E JUMPI DUP1 PUSH4 0x4E452475 EQ PUSH2 0x6B7 JUMPI PUSH2 0x3A2 JUMP JUMPDEST DUP1 PUSH4 0x2A55205A GT PUSH2 0x344 JUMPI DUP1 PUSH4 0x3659CFE6 GT PUSH2 0x313 JUMPI DUP1 PUSH4 0x3659CFE6 EQ PUSH2 0x5D1 JUMPI DUP1 PUSH4 0x3A1055AE EQ PUSH2 0x5FA JUMPI DUP1 PUSH4 0x3CCFD60B EQ PUSH2 0x625 JUMPI DUP1 PUSH4 0x42842E0E EQ PUSH2 0x63C JUMPI PUSH2 0x3A2 JUMP JUMPDEST DUP1 PUSH4 0x2A55205A EQ PUSH2 0x518 JUMPI DUP1 PUSH4 0x2EE4AA31 EQ PUSH2 0x556 JUMPI DUP1 PUSH4 0x2F2FF15D EQ PUSH2 0x57F JUMPI DUP1 PUSH4 0x36568ABE EQ PUSH2 0x5A8 JUMPI PUSH2 0x3A2 JUMP JUMPDEST DUP1 PUSH4 0x95EA7B3 GT PUSH2 0x380 JUMPI DUP1 PUSH4 0x95EA7B3 EQ PUSH2 0x44C JUMPI DUP1 PUSH4 0x23B872DD EQ PUSH2 0x475 JUMPI DUP1 PUSH4 0x248A9CA3 EQ PUSH2 0x49E JUMPI DUP1 PUSH4 0x252B2D09 EQ PUSH2 0x4DB JUMPI PUSH2 0x3A2 JUMP JUMPDEST DUP1 PUSH4 0x1FFC9A7 EQ PUSH2 0x3A7 JUMPI DUP1 PUSH4 0x6FDDE03 EQ PUSH2 0x3E4 JUMPI DUP1 PUSH4 0x81812FC EQ PUSH2 0x40F JUMPI JUMPDEST PUSH1 0x0 DUP1 REVERT JUMPDEST CALLVALUE DUP1 ISZERO PUSH2 0x3B3 JUMPI PUSH1 0x0 DUP1 REVERT JUMPDEST POP PUSH2 0x3CE PUSH1 0x4 DUP1 CALLDATASIZE SUB DUP2 ADD SWAP1 PUSH2 0x3C9 SWAP2 SWAP1 PUSH2 0x56DD JUMP JUMPDEST PUSH2 0xE8A JUMP JUMPDEST PUSH1 0x40 MLOAD PUSH2 0x3DB SWAP2 SWAP1 PUSH2 0x5725 JUMP JUMPDEST PUSH1 0x40 MLOAD DUP1 SWAP2 SUB SWAP1 RETURN JUMPDEST CALLVALUE DUP1 ISZERO PUSH2 0x3F0 JUMPI PUSH1 0x0 DUP1 REVERT JUMPDEST POP PUSH2 0x3F9 PUSH2 0xE9C JUMP JUMPDEST PUSH1 0x40 MLOAD PUSH2 0x406 SWAP2 SWAP1 PUSH2 0x57D0 JUMP JUMPDEST PUSH1 0x40 MLOAD DUP1 SWAP2 SUB SWAP1 RETURN JUMPDEST CALLVALUE DUP1 ISZERO PUSH2 0x41B JUMPI PUSH1 0x0 DUP1 REVERT JUMPDEST POP PUSH2 0x436 PUSH1 0x4 DUP1 CALLDATASIZE SUB DUP2 ADD SWAP1 PUSH2 0x431 SWAP2 SWAP1 PUSH2 0x5828 JUMP JUMPDEST PUSH2 0xF2E JUMP JUMPDEST PUSH1 0x40 MLOAD PUSH2 0x443 SWAP2 SWAP1 PUSH2 0x5896 JUMP JUMPDEST PUSH1 0x40 MLOAD DUP1 SWAP2 SUB SWAP1 RETURN JUMPDEST CALLVALUE DUP1 ISZERO PUSH2 0x458 JUMPI PUSH1 0x0 DUP1 REVERT JUMPDEST POP PUSH2 0x473 PUSH1 0x4 DUP1 CALLDATASIZE SUB DUP2 ADD SWAP1 PUSH2 0x46E SWAP2 SWAP1 PUSH2 0x58DD JUMP JUMPDEST PUSH2 0xF74 JUMP JUMPDEST STOP JUMPDEST CALLVALUE DUP1 ISZERO PUSH2 0x481 JUMPI PUSH1 0x0 DUP1 REVERT JUMPDEST POP PUSH2 0x49C PUSH1 0x4 DUP1 CALLDATASIZE SUB DUP2 ADD SWAP1 PUSH2 0x497 SWAP2 SWAP1 PUSH2 0x591D JUMP JUMPDEST PUSH2 0x108B JUMP JUMPDEST STOP JUMPDEST CALLVALUE DUP1 ISZERO PUSH2 0x4AA JUMPI PUSH1 0x0 DUP1 REVERT JUMPDEST POP PUSH2 0x4C5 PUSH1 0x4 DUP1 CALLDATASIZE SUB DUP2 ADD SWAP1 PUSH2 0x4C0 SWAP2 SWAP1 PUSH2 0x59A6 JUMP JUMPDEST PUSH2 0x10EB JUMP JUMPDEST PUSH1 0x40 MLOAD PUSH2 0x4D2 SWAP2 SWAP1 PUSH2 0x59E2 JUMP JUMPDEST PUSH1 0x40 MLOAD DUP1 SWAP2 SUB SWAP1 RETURN JUMPDEST CALLVALUE DUP1 ISZERO PUSH2 0x4E7 JUMPI PUSH1 0x0 DUP1 REVERT JUMPDEST POP PUSH2 0x502 PUSH1 0x4 DUP1 CALLDATASIZE SUB DUP2 ADD SWAP1 PUSH2 0x4FD SWAP2 SWAP1 PUSH2 0x5A36 JUMP JUMPDEST PUSH2 0x110B JUMP JUMPDEST PUSH1 0x40 MLOAD PUSH2 0x50F SWAP2 SWAP1 PUSH2 0x5A72 JUMP JUMPDEST PUSH1 0x40 MLOAD DUP1 SWAP2 SUB SWAP1 RETURN JUMPDEST CALLVALUE DUP1 ISZERO PUSH2 0x524 JUMPI PUSH1 0x0 DUP1 REVERT JUMPDEST POP PUSH2 0x53F PUSH1 0x4 DUP1 CALLDATASIZE SUB DUP2 ADD SWAP1 PUSH2 0x53A SWAP2 SWAP1 PUSH2 0x5A8D JUMP JUMPDEST PUSH2 0x1124 JUMP JUMPDEST PUSH1 0x40 MLOAD PUSH2 0x54D SWAP3 SWAP2 SWAP1 PUSH2 0x5ACD JUMP JUMPDEST PUSH1 0x40 MLOAD DUP1 SWAP2 SUB SWAP1 RETURN JUMPDEST CALLVALUE DUP1 ISZERO PUSH2 0x562 JUMPI PUSH1 0x0 DUP1 REVERT JUMPDEST POP PUSH2 0x57D PUSH1 0x4 DUP1 CALLDATASIZE SUB DUP2 ADD SWAP1 PUSH2 0x578 SWAP2 SWAP1 PUSH2 0x5AF6 JUMP JUMPDEST PUSH2 0x130E JUMP JUMPDEST STOP JUMPDEST CALLVALUE DUP1 ISZERO PUSH2 0x58B JUMPI PUSH1 0x0 DUP1 REVERT JUMPDEST POP PUSH2 0x5A6 PUSH1 0x4 DUP1 CALLDATASIZE SUB DUP2 ADD SWAP1 PUSH2 0x5A1 SWAP2 SWAP1 PUSH2 0x5B23 JUMP JUMPDEST PUSH2 0x137E JUMP JUMPDEST STOP JUMPDEST CALLVALUE DUP1 ISZERO PUSH2 0x5B4 JUMPI PUSH1 0x0 DUP1 REVERT JUMPDEST POP PUSH2 0x5CF PUSH1 0x4 DUP1 CALLDATASIZE SUB DUP2 ADD SWAP1 PUSH2 0x5CA SWAP2 SWAP1 PUSH2 0x5B23 JUMP JUMPDEST PUSH2 0x139F JUMP JUMPDEST STOP JUMPDEST CALLVALUE DUP1 ISZERO PUSH2 0x5DD JUMPI PUSH1 0x0 DUP1 REVERT JUMPDEST POP PUSH2 0x5F8 PUSH1 0x4 DUP1 CALLDATASIZE SUB DUP2 ADD SWAP1 PUSH2 0x5F3 SWAP2 SWAP1 PUSH2 0x5AF6 JUMP JUMPDEST PUSH2 0x1422 JUMP JUMPDEST STOP JUMPDEST CALLVALUE DUP1 ISZERO PUSH2 0x606 JUMPI PUSH1 0x0 DUP1 REVERT JUMPDEST POP PUSH2 0x60F PUSH2 0x15AA JUMP JUMPDEST PUSH1 0x40 MLOAD PUSH2 0x61C SWAP2 SWAP1 PUSH2 0x5A72 JUMP JUMPDEST PUSH1 0x40 MLOAD DUP1 SWAP2 SUB SWAP1 RETURN JUMPDEST CALLVALUE DUP1 ISZERO PUSH2 0x631 JUMPI PUSH1 0x0 DUP1 REVERT JUMPDEST POP PUSH2 0x63A PUSH2 0x15B1 JUMP JUMPDEST STOP JUMPDEST CALLVALUE DUP1 ISZERO PUSH2 0x648 JUMPI PUSH1 0x0 DUP1 REVERT JUMPDEST POP PUSH2 0x663 PUSH1 0x4 DUP1 CALLDATASIZE SUB DUP2 ADD SWAP1 PUSH2 0x65E SWAP2 SWAP1 PUSH2 0x591D JUMP JUMPDEST PUSH2 0x16FF JUMP JUMPDEST STOP JUMPDEST CALLVALUE DUP1 ISZERO PUSH2 0x671 JUMPI PUSH1 0x0 DUP1 REVERT JUMPDEST POP PUSH2 0x68C PUSH1 0x4 DUP1 CALLDATASIZE SUB DUP2 ADD SWAP1 PUSH2 0x687 SWAP2 SWAP1 PUSH2 0x5BA1 JUMP JUMPDEST PUSH2 0x171F JUMP JUMPDEST STOP JUMPDEST CALLVALUE DUP1 ISZERO PUSH2 0x69A JUMPI PUSH1 0x0 DUP1 REVERT JUMPDEST POP PUSH2 0x6B5 PUSH1 0x4 DUP1 CALLDATASIZE SUB DUP2 ADD SWAP1 PUSH2 0x6B0 SWAP2 SWAP1 PUSH2 0x5BFA JUMP JUMPDEST PUSH2 0x178F JUMP JUMPDEST STOP JUMPDEST CALLVALUE DUP1 ISZERO PUSH2 0x6C3 JUMPI PUSH1 0x0 DUP1 REVERT JUMPDEST POP PUSH2 0x6DE PUSH1 0x4 DUP1 CALLDATASIZE SUB DUP2 ADD SWAP1 PUSH2 0x6D9 SWAP2 SWAP1 PUSH2 0x5E32 JUMP JUMPDEST PUSH2 0x17D8 JUMP JUMPDEST STOP JUMPDEST PUSH2 0x6FA PUSH1 0x4 DUP1 CALLDATASIZE SUB DUP2 ADD SWAP1 PUSH2 0x6F5 SWAP2 SWAP1 PUSH2 0x5F5F JUMP JUMPDEST PUSH2 0x1918 JUMP JUMPDEST STOP JUMPDEST CALLVALUE DUP1 ISZERO PUSH2 0x708 JUMPI PUSH1 0x0 DUP1 REVERT JUMPDEST POP PUSH2 0x711 PUSH2 0x1A54 JUMP JUMPDEST PUSH1 0x40 MLOAD PUSH2 0x71E SWAP2 SWAP1 PUSH2 0x59E2 JUMP JUMPDEST PUSH1 0x40 MLOAD DUP1 SWAP2 SUB SWAP1 RETURN JUMPDEST CALLVALUE DUP1 ISZERO PUSH2 0x733 JUMPI PUSH1 0x0 DUP1 REVERT JUMPDEST POP PUSH2 0x74E PUSH1 0x4 DUP1 CALLDATASIZE SUB DUP2 ADD SWAP1 PUSH2 0x749 SWAP2 SWAP1 PUSH2 0x605C JUMP JUMPDEST PUSH2 0x1B0D JUMP JUMPDEST STOP JUMPDEST CALLVALUE DUP1 ISZERO PUSH2 0x75C JUMPI PUSH1 0x0 DUP1 REVERT JUMPDEST POP PUSH2 0x777 PUSH1 0x4 DUP1 CALLDATASIZE SUB DUP2 ADD SWAP1 PUSH2 0x772 SWAP2 SWAP1 PUSH2 0x5AF6 JUMP JUMPDEST PUSH2 0x1E1C JUMP JUMPDEST PUSH1 0x40 MLOAD PUSH2 0x784 SWAP2 SWAP1 PUSH2 0x5A72 JUMP JUMPDEST PUSH1 0x40 MLOAD DUP1 SWAP2 SUB SWAP1 RETURN JUMPDEST CALLVALUE DUP1 ISZERO PUSH2 0x799 JUMPI PUSH1 0x0 DUP1 REVERT JUMPDEST POP PUSH2 0x7A2 PUSH2 0x1E35 JUMP JUMPDEST PUSH1 0x40 MLOAD PUSH2 0x7AF SWAP2 SWAP1 PUSH2 0x6195 JUMP JUMPDEST PUSH1 0x40 MLOAD DUP1 SWAP2 SUB SWAP1 RETURN JUMPDEST CALLVALUE DUP1 ISZERO PUSH2 0x7C4 JUMPI PUSH1 0x0 DUP1 REVERT JUMPDEST POP PUSH2 0x7CD PUSH2 0x1E5C JUMP JUMPDEST PUSH1 0x40 MLOAD PUSH2 0x7DA SWAP2 SWAP1 PUSH2 0x5A72 JUMP JUMPDEST PUSH1 0x40 MLOAD DUP1 SWAP2 SUB SWAP1 RETURN JUMPDEST CALLVALUE DUP1 ISZERO PUSH2 0x7EF JUMPI PUSH1 0x0 DUP1 REVERT JUMPDEST POP PUSH2 0x80A PUSH1 0x4 DUP1 CALLDATASIZE SUB DUP2 ADD SWAP1 PUSH2 0x805 SWAP2 SWAP1 PUSH2 0x5828 JUMP JUMPDEST PUSH2 0x1E63 JUMP JUMPDEST PUSH1 0x40 MLOAD PUSH2 0x817 SWAP2 SWAP1 PUSH2 0x5896 JUMP JUMPDEST PUSH1 0x40 MLOAD DUP1 SWAP2 SUB SWAP1 RETURN JUMPDEST CALLVALUE DUP1 ISZERO PUSH2 0x82C JUMPI PUSH1 0x0 DUP1 REVERT JUMPDEST POP PUSH2 0x847 PUSH1 0x4 DUP1 CALLDATASIZE SUB DUP2 ADD SWAP1 PUSH2 0x842 SWAP2 SWAP1 PUSH2 0x5AF6 JUMP JUMPDEST PUSH2 0x1EE9 JUMP JUMPDEST PUSH1 0x40 MLOAD PUSH2 0x854 SWAP2 SWAP1 PUSH2 0x626E JUMP JUMPDEST PUSH1 0x40 MLOAD DUP1 SWAP2 SUB SWAP1 RETURN JUMPDEST CALLVALUE DUP1 ISZERO PUSH2 0x869 JUMPI PUSH1 0x0 DUP1 REVERT JUMPDEST POP PUSH2 0x884 PUSH1 0x4 DUP1 CALLDATASIZE SUB DUP2 ADD SWAP1 PUSH2 0x87F SWAP2 SWAP1 PUSH2 0x62D4 JUMP JUMPDEST PUSH2 0x1F87 JUMP JUMPDEST STOP JUMPDEST CALLVALUE DUP1 ISZERO PUSH2 0x892 JUMPI PUSH1 0x0 DUP1 REVERT JUMPDEST POP PUSH2 0x8AD PUSH1 0x4 DUP1 CALLDATASIZE SUB DUP2 ADD SWAP1 PUSH2 0x8A8 SWAP2 SWAP1 PUSH2 0x5AF6 JUMP JUMPDEST PUSH2 0x1FA3 JUMP JUMPDEST PUSH1 0x40 MLOAD PUSH2 0x8BA SWAP2 SWAP1 PUSH2 0x5A72 JUMP JUMPDEST PUSH1 0x40 MLOAD DUP1 SWAP2 SUB SWAP1 RETURN JUMPDEST CALLVALUE DUP1 ISZERO PUSH2 0x8CF JUMPI PUSH1 0x0 DUP1 REVERT JUMPDEST POP PUSH2 0x8D8 PUSH2 0x205A JUMP JUMPDEST STOP JUMPDEST CALLVALUE DUP1 ISZERO PUSH2 0x8E6 JUMPI PUSH1 0x0 DUP1 REVERT JUMPDEST POP PUSH2 0x901 PUSH1 0x4 DUP1 CALLDATASIZE SUB DUP2 ADD SWAP1 PUSH2 0x8FC SWAP2 SWAP1 PUSH2 0x5828 JUMP JUMPDEST PUSH2 0x206E JUMP JUMPDEST STOP JUMPDEST CALLVALUE DUP1 ISZERO PUSH2 0x90F JUMPI PUSH1 0x0 DUP1 REVERT JUMPDEST POP PUSH2 0x92A PUSH1 0x4 DUP1 CALLDATASIZE SUB DUP2 ADD SWAP1 PUSH2 0x925 SWAP2 SWAP1 PUSH2 0x5828 JUMP JUMPDEST PUSH2 0x20A4 JUMP JUMPDEST STOP JUMPDEST CALLVALUE DUP1 ISZERO PUSH2 0x938 JUMPI PUSH1 0x0 DUP1 REVERT JUMPDEST POP PUSH2 0x941 PUSH2 0x20DA JUMP JUMPDEST PUSH1 0x40 MLOAD PUSH2 0x94E SWAP2 SWAP1 PUSH2 0x57D0 JUMP JUMPDEST PUSH1 0x40 MLOAD DUP1 SWAP2 SUB SWAP1 RETURN JUMPDEST CALLVALUE DUP1 ISZERO PUSH2 0x963 JUMPI PUSH1 0x0 DUP1 REVERT JUMPDEST POP PUSH2 0x96C PUSH2 0x2169 JUMP JUMPDEST PUSH1 0x40 MLOAD PUSH2 0x979 SWAP2 SWAP1 PUSH2 0x5725 JUMP JUMPDEST PUSH1 0x40 MLOAD DUP1 SWAP2 SUB SWAP1 RETURN JUMPDEST CALLVALUE DUP1 ISZERO PUSH2 0x98E JUMPI PUSH1 0x0 DUP1 REVERT JUMPDEST POP PUSH2 0x997 PUSH2 0x217D JUMP JUMPDEST PUSH1 0x40 MLOAD PUSH2 0x9A4 SWAP2 SWAP1 PUSH2 0x5A72 JUMP JUMPDEST PUSH1 0x40 MLOAD DUP1 SWAP2 SUB SWAP1 RETURN JUMPDEST CALLVALUE DUP1 ISZERO PUSH2 0x9B9 JUMPI PUSH1 0x0 DUP1 REVERT JUMPDEST POP PUSH2 0x9C2 PUSH2 0x2184 JUMP JUMPDEST PUSH1 0x40 MLOAD PUSH2 0x9CF SWAP2 SWAP1 PUSH2 0x5896 JUMP JUMPDEST PUSH1 0x40 MLOAD DUP1 SWAP2 SUB SWAP1 RETURN JUMPDEST CALLVALUE DUP1 ISZERO PUSH2 0x9E4 JUMPI PUSH1 0x0 DUP1 REVERT JUMPDEST POP PUSH2 0x9FF PUSH1 0x4 DUP1 CALLDATASIZE SUB DUP2 ADD SWAP1 PUSH2 0x9FA SWAP2 SWAP1 PUSH2 0x6394 JUMP JUMPDEST PUSH2 0x21AF JUMP JUMPDEST STOP JUMPDEST CALLVALUE DUP1 ISZERO PUSH2 0xA0D JUMPI PUSH1 0x0 DUP1 REVERT JUMPDEST POP PUSH2 0xA28 PUSH1 0x4 DUP1 CALLDATASIZE SUB DUP2 ADD SWAP1 PUSH2 0xA23 SWAP2 SWAP1 PUSH2 0x5B23 JUMP JUMPDEST PUSH2 0x2253 JUMP JUMPDEST PUSH1 0x40 MLOAD PUSH2 0xA35 SWAP2 SWAP1 PUSH2 0x5725 JUMP JUMPDEST PUSH1 0x40 MLOAD DUP1 SWAP2 SUB SWAP1 RETURN JUMPDEST CALLVALUE DUP1 ISZERO PUSH2 0xA4A JUMPI PUSH1 0x0 DUP1 REVERT JUMPDEST POP PUSH2 0xA53 PUSH2 0x22BE JUMP JUMPDEST PUSH1 0x40 MLOAD PUSH2 0xA60 SWAP2 SWAP1 PUSH2 0x5A72 JUMP JUMPDEST PUSH1 0x40 MLOAD DUP1 SWAP2 SUB SWAP1 RETURN JUMPDEST CALLVALUE DUP1 ISZERO PUSH2 0xA75 JUMPI PUSH1 0x0 DUP1 REVERT JUMPDEST POP PUSH2 0xA90 PUSH1 0x4 DUP1 CALLDATASIZE SUB DUP2 ADD SWAP1 PUSH2 0xA8B SWAP2 SWAP1 PUSH2 0x6484 JUMP JUMPDEST PUSH2 0x22C5 JUMP JUMPDEST STOP JUMPDEST CALLVALUE DUP1 ISZERO PUSH2 0xA9E JUMPI PUSH1 0x0 DUP1 REVERT JUMPDEST POP PUSH2 0xAA7 PUSH2 0x2684 JUMP JUMPDEST PUSH1 0x40 MLOAD PUSH2 0xAB4 SWAP2 SWAP1 PUSH2 0x57D0 JUMP JUMPDEST PUSH1 0x40 MLOAD DUP1 SWAP2 SUB SWAP1 RETURN JUMPDEST CALLVALUE DUP1 ISZERO PUSH2 0xAC9 JUMPI PUSH1 0x0 DUP1 REVERT JUMPDEST POP PUSH2 0xAE4 PUSH1 0x4 DUP1 CALLDATASIZE SUB DUP2 ADD SWAP1 PUSH2 0xADF SWAP2 SWAP1 PUSH2 0x650C JUMP JUMPDEST PUSH2 0x2716 JUMP JUMPDEST STOP JUMPDEST CALLVALUE DUP1 ISZERO PUSH2 0xAF2 JUMPI PUSH1 0x0 DUP1 REVERT JUMPDEST POP PUSH2 0xAFB PUSH2 0x2A38 JUMP JUMPDEST PUSH1 0x40 MLOAD PUSH2 0xB08 SWAP2 SWAP1 PUSH2 0x59E2 JUMP JUMPDEST PUSH1 0x40 MLOAD DUP1 SWAP2 SUB SWAP1 RETURN JUMPDEST CALLVALUE DUP1 ISZERO PUSH2 0xB1D JUMPI PUSH1 0x0 DUP1 REVERT JUMPDEST POP PUSH2 0xB38 PUSH1 0x4 DUP1 CALLDATASIZE SUB DUP2 ADD SWAP1 PUSH2 0xB33 SWAP2 SWAP1 PUSH2 0x655F JUMP JUMPDEST PUSH2 0x2A3F JUMP JUMPDEST STOP JUMPDEST CALLVALUE DUP1 ISZERO PUSH2 0xB46 JUMPI PUSH1 0x0 DUP1 REVERT JUMPDEST POP PUSH2 0xB61 PUSH1 0x4 DUP1 CALLDATASIZE SUB DUP2 ADD SWAP1 PUSH2 0xB5C SWAP2 SWAP1 PUSH2 0x5A36 JUMP JUMPDEST PUSH2 0x2A55 JUMP JUMPDEST PUSH1 0x40 MLOAD PUSH2 0xB6E SWAP2 SWAP1 PUSH2 0x57D0 JUMP JUMPDEST PUSH1 0x40 MLOAD DUP1 SWAP2 SUB SWAP1 RETURN JUMPDEST CALLVALUE DUP1 ISZERO PUSH2 0xB83 JUMPI PUSH1 0x0 DUP1 REVERT JUMPDEST POP PUSH2 0xB8C PUSH2 0x2AF6 JUMP JUMPDEST PUSH1 0x40 MLOAD PUSH2 0xB99 SWAP2 SWAP1 PUSH2 0x5896 JUMP JUMPDEST PUSH1 0x40 MLOAD DUP1 SWAP2 SUB SWAP1 RETURN JUMPDEST CALLVALUE DUP1 ISZERO PUSH2 0xBAE JUMPI PUSH1 0x0 DUP1 REVERT JUMPDEST POP PUSH2 0xBC9 PUSH1 0x4 DUP1 CALLDATASIZE SUB DUP2 ADD SWAP1 PUSH2 0xBC4 SWAP2 SWAP1 PUSH2 0x5A36 JUMP JUMPDEST PUSH2 0x2B4C JUMP JUMPDEST PUSH1 0x40 MLOAD PUSH2 0xBD6 SWAP2 SWAP1 PUSH2 0x65F0 JUMP JUMPDEST PUSH1 0x40 MLOAD DUP1 SWAP2 SUB SWAP1 RETURN JUMPDEST CALLVALUE DUP1 ISZERO PUSH2 0xBEB JUMPI PUSH1 0x0 DUP1 REVERT JUMPDEST POP PUSH2 0xC06 PUSH1 0x4 DUP1 CALLDATASIZE SUB DUP2 ADD SWAP1 PUSH2 0xC01 SWAP2 SWAP1 PUSH2 0x660B JUMP JUMPDEST PUSH2 0x2C09 JUMP JUMPDEST STOP JUMPDEST CALLVALUE DUP1 ISZERO PUSH2 0xC14 JUMPI PUSH1 0x0 DUP1 REVERT JUMPDEST POP PUSH2 0xC2F PUSH1 0x4 DUP1 CALLDATASIZE SUB DUP2 ADD SWAP1 PUSH2 0xC2A SWAP2 SWAP1 PUSH2 0x6654 JUMP JUMPDEST PUSH2 0x2C78 JUMP JUMPDEST STOP JUMPDEST CALLVALUE DUP1 ISZERO PUSH2 0xC3D JUMPI PUSH1 0x0 DUP1 REVERT JUMPDEST POP PUSH2 0xC46 PUSH2 0x2CDA JUMP JUMPDEST PUSH1 0x40 MLOAD PUSH2 0xC53 SWAP2 SWAP1 PUSH2 0x5896 JUMP JUMPDEST PUSH1 0x40 MLOAD DUP1 SWAP2 SUB SWAP1 RETURN JUMPDEST CALLVALUE DUP1 ISZERO PUSH2 0xC68 JUMPI PUSH1 0x0 DUP1 REVERT JUMPDEST POP PUSH2 0xC71 PUSH2 0x2D01 JUMP JUMPDEST PUSH1 0x40 MLOAD PUSH2 0xC7E SWAP2 SWAP1 PUSH2 0x5A72 JUMP JUMPDEST PUSH1 0x40 MLOAD DUP1 SWAP2 SUB SWAP1 RETURN JUMPDEST CALLVALUE DUP1 ISZERO PUSH2 0xC93 JUMPI PUSH1 0x0 DUP1 REVERT JUMPDEST POP PUSH2 0xCAE PUSH1 0x4 DUP1 CALLDATASIZE SUB DUP2 ADD SWAP1 PUSH2 0xCA9 SWAP2 SWAP1 PUSH2 0x66D7 JUMP JUMPDEST PUSH2 0x2D13 JUMP JUMPDEST STOP JUMPDEST CALLVALUE DUP1 ISZERO PUSH2 0xCBC JUMPI PUSH1 0x0 DUP1 REVERT JUMPDEST POP PUSH2 0xCD7 PUSH1 0x4 DUP1 CALLDATASIZE SUB DUP2 ADD SWAP1 PUSH2 0xCD2 SWAP2 SWAP1 PUSH2 0x5828 JUMP JUMPDEST PUSH2 0x2DC6 JUMP JUMPDEST PUSH1 0x40 MLOAD PUSH2 0xCE4 SWAP2 SWAP1 PUSH2 0x57D0 JUMP JUMPDEST PUSH1 0x40 MLOAD DUP1 SWAP2 SUB SWAP1 RETURN JUMPDEST CALLVALUE DUP1 ISZERO PUSH2 0xCF9 JUMPI PUSH1 0x0 DUP1 REVERT JUMPDEST POP PUSH2 0xD14 PUSH1 0x4 DUP1 CALLDATASIZE SUB DUP2 ADD SWAP1 PUSH2 0xD0F SWAP2 SWAP1 PUSH2 0x5B23 JUMP JUMPDEST PUSH2 0x2E57 JUMP JUMPDEST STOP JUMPDEST CALLVALUE DUP1 ISZERO PUSH2 0xD22 JUMPI PUSH1 0x0 DUP1 REVERT JUMPDEST POP PUSH2 0xD3D PUSH1 0x4 DUP1 CALLDATASIZE SUB DUP2 ADD SWAP1 PUSH2 0xD38 SWAP2 SWAP1 PUSH2 0x5828 JUMP JUMPDEST PUSH2 0x2E78 JUMP JUMPDEST STOP JUMPDEST CALLVALUE DUP1 ISZERO PUSH2 0xD4B JUMPI PUSH1 0x0 DUP1 REVERT JUMPDEST POP PUSH2 0xD54 PUSH2 0x2EAE JUMP JUMPDEST PUSH1 0x40 MLOAD PUSH2 0xD61 SWAP2 SWAP1 PUSH2 0x5A72 JUMP JUMPDEST PUSH1 0x40 MLOAD DUP1 SWAP2 SUB SWAP1 RETURN JUMPDEST CALLVALUE DUP1 ISZERO PUSH2 0xD76 JUMPI PUSH1 0x0 DUP1 REVERT JUMPDEST POP PUSH2 0xD91 PUSH1 0x4 DUP1 CALLDATASIZE SUB DUP2 ADD SWAP1 PUSH2 0xD8C SWAP2 SWAP1 PUSH2 0x5828 JUMP JUMPDEST PUSH2 0x2EB5 JUMP JUMPDEST STOP JUMPDEST CALLVALUE DUP1 ISZERO PUSH2 0xD9F JUMPI PUSH1 0x0 DUP1 REVERT JUMPDEST POP PUSH2 0xDBA PUSH1 0x4 DUP1 CALLDATASIZE SUB DUP2 ADD SWAP1 PUSH2 0xDB5 SWAP2 SWAP1 PUSH2 0x675F JUMP JUMPDEST PUSH2 0x2EEB JUMP JUMPDEST PUSH1 0x40 MLOAD PUSH2 0xDC7 SWAP2 SWAP1 PUSH2 0x5725 JUMP JUMPDEST PUSH1 0x40 MLOAD DUP1 SWAP2 SUB SWAP1 RETURN JUMPDEST CALLVALUE DUP1 ISZERO PUSH2 0xDDC JUMPI PUSH1 0x0 DUP1 REVERT JUMPDEST POP PUSH2 0xDE5 PUSH2 0x2F7F JUMP JUMPDEST PUSH1 0x40 MLOAD PUSH2 0xDF2 SWAP2 SWAP1 PUSH2 0x5896 JUMP JUMPDEST PUSH1 0x40 MLOAD DUP1 SWAP2 SUB SWAP1 RETURN JUMPDEST CALLVALUE DUP1 ISZERO PUSH2 0xE07 JUMPI PUSH1 0x0 DUP1 REVERT JUMPDEST POP PUSH2 0xE22 PUSH1 0x4 DUP1 CALLDATASIZE SUB DUP2 ADD SWAP1 PUSH2 0xE1D SWAP2 SWAP1 PUSH2 0x58DD JUMP JUMPDEST PUSH2 0x2FA6 JUMP JUMPDEST PUSH1 0x40 MLOAD PUSH2 0xE2F SWAP2 SWAP1 PUSH2 0x5A72 JUMP JUMPDEST PUSH1 0x40 MLOAD DUP1 SWAP2 SUB SWAP1 RETURN JUMPDEST CALLVALUE DUP1 ISZERO PUSH2 0xE44 JUMPI PUSH1 0x0 DUP1 REVERT JUMPDEST POP PUSH2 0xE5F PUSH1 0x4 DUP1 CALLDATASIZE SUB DUP2 ADD SWAP1 PUSH2 0xE5A SWAP2 SWAP1 PUSH2 0x5AF6 JUMP JUMPDEST PUSH2 0x2FD8 JUMP JUMPDEST STOP JUMPDEST CALLVALUE DUP1 ISZERO PUSH2 0xE6D JUMPI PUSH1 0x0 DUP1 REVERT JUMPDEST POP PUSH2 0xE88 PUSH1 0x4 DUP1 CALLDATASIZE SUB DUP2 ADD SWAP1 PUSH2 0xE83 SWAP2 SWAP1 PUSH2 0x650C JUMP JUMPDEST PUSH2 0x305B JUMP JUMPDEST STOP JUMPDEST PUSH1 0x0 PUSH2 0xE95 DUP3 PUSH2 0x36AD JUMP JUMPDEST SWAP1 POP SWAP2 SWAP1 POP JUMP JUMPDEST PUSH1 0x60 PUSH1 0x97 DUP1 SLOAD PUSH2 0xEAB SWAP1 PUSH2 0x67CE JUMP JUMPDEST DUP1 PUSH1 0x1F ADD PUSH1 0x20 DUP1 SWAP2 DIV MUL PUSH1 0x20 ADD PUSH1 0x40 MLOAD SWAP1 DUP2 ADD PUSH1 0x40 MSTORE DUP1 SWAP3 SWAP2 SWAP1 DUP2 DUP2 MSTORE PUSH1 0x20 ADD DUP3 DUP1 SLOAD PUSH2 0xED7 SWAP1 PUSH2 0x67CE JUMP JUMPDEST DUP1 ISZERO PUSH2 0xF24 JUMPI DUP1 PUSH1 0x1F LT PUSH2 0xEF9 JUMPI PUSH2 0x100 DUP1 DUP4 SLOAD DIV MUL DUP4 MSTORE SWAP2 PUSH1 0x20 ADD SWAP2 PUSH2 0xF24 JUMP JUMPDEST DUP3 ADD SWAP2 SWAP1 PUSH1 0x0 MSTORE PUSH1 0x20 PUSH1 0x0 KECCAK256 SWAP1 JUMPDEST DUP2 SLOAD DUP2 MSTORE SWAP1 PUSH1 0x1 ADD SWAP1 PUSH1 0x20 ADD DUP1 DUP4 GT PUSH2 0xF07 JUMPI DUP3 SWAP1 SUB PUSH1 0x1F AND DUP3 ADD SWAP2 JUMPDEST POP POP POP POP POP SWAP1 POP SWAP1 JUMP JUMPDEST PUSH1 0x0 PUSH2 0xF39 DUP3 PUSH2 0x36BF JUMP JUMPDEST PUSH1 0x9B PUSH1 0x0 DUP4 DUP2 MSTORE PUSH1 0x20 ADD SWAP1 DUP2 MSTORE PUSH1 0x20 ADD PUSH1 0x0 KECCAK256 PUSH1 0x0 SWAP1 SLOAD SWAP1 PUSH2 0x100 EXP SWAP1 DIV PUSH20 0xFFFFFFFFFFFFFFFFFFFFFFFFFFFFFFFFFFFFFFFF AND SWAP1 POP SWAP2 SWAP1 POP JUMP JUMPDEST PUSH1 0x0 PUSH2 0xF7F DUP3 PUSH2 0x1E63 JUMP JUMPDEST SWAP1 POP DUP1 PUSH20 0xFFFFFFFFFFFFFFFFFFFFFFFFFFFFFFFFFFFFFFFF AND DUP4 PUSH20 0xFFFFFFFFFFFFFFFFFFFFFFFFFFFFFFFFFFFFFFFF AND SUB PUSH2 0xFEF JUMPI PUSH1 0x40 MLOAD PUSH32 0x8C379A000000000000000000000000000000000000000000000000000000000 DUP2 MSTORE PUSH1 0x4 ADD PUSH2 0xFE6 SWAP1 PUSH2 0x6871 JUMP JUMPDEST PUSH1 0x40 MLOAD DUP1 SWAP2 SUB SWAP1 REVERT JUMPDEST DUP1 PUSH20 0xFFFFFFFFFFFFFFFFFFFFFFFFFFFFFFFFFFFFFFFF AND PUSH2 0x100E PUSH2 0x370A JUMP JUMPDEST PUSH20 0xFFFFFFFFFFFFFFFFFFFFFFFFFFFFFFFFFFFFFFFF AND EQ DUP1 PUSH2 0x103D JUMPI POP PUSH2 0x103C DUP2 PUSH2 0x1037 PUSH2 0x370A JUMP JUMPDEST PUSH2 0x2EEB JUMP JUMPDEST JUMPDEST PUSH2 0x107C JUMPI PUSH1 0x40 MLOAD PUSH32 0x8C379A000000000000000000000000000000000000000000000000000000000 DUP2 MSTORE PUSH1 0x4 ADD PUSH2 0x1073 SWAP1 PUSH2 0x6903 JUMP JUMPDEST PUSH1 0x40 MLOAD DUP1 SWAP2 SUB SWAP1 REVERT JUMPDEST PUSH2 0x1086 DUP4 DUP4 PUSH2 0x3712 JUMP JUMPDEST POP POP POP JUMP JUMPDEST PUSH2 0x109C PUSH2 0x1096 PUSH2 0x370A JUMP JUMPDEST DUP3 PUSH2 0x37CB JUMP JUMPDEST PUSH2 0x10DB JUMPI PUSH1 0x40 MLOAD PUSH32 0x8C379A000000000000000000000000000000000000000000000000000000000 DUP2 MSTORE PUSH1 0x4 ADD PUSH2 0x10D2 SWAP1 PUSH2 0x6995 JUMP JUMPDEST PUSH1 0x40 MLOAD DUP1 SWAP2 SUB SWAP1 REVERT JUMPDEST PUSH2 0x10E6 DUP4 DUP4 DUP4 PUSH2 0x3860 JUMP JUMPDEST POP POP POP JUMP JUMPDEST PUSH1 0x0 PUSH1 0xC9 PUSH1 0x0 DUP4 DUP2 MSTORE PUSH1 0x20 ADD SWAP1 DUP2 MSTORE PUSH1 0x20 ADD PUSH1 0x0 KECCAK256 PUSH1 0x1 ADD SLOAD SWAP1 POP SWAP2 SWAP1 POP JUMP JUMPDEST PUSH2 0x1CB PUSH1 0x20 MSTORE DUP1 PUSH1 0x0 MSTORE PUSH1 0x40 PUSH1 0x0 KECCAK256 PUSH1 0x0 SWAP2 POP SWAP1 POP SLOAD DUP2 JUMP JUMPDEST PUSH1 0x0 DUP1 PUSH1 0x0 PUSH1 0x66 PUSH1 0x0 DUP7 DUP2 MSTORE PUSH1 0x20 ADD SWAP1 DUP2 MSTORE PUSH1 0x20 ADD PUSH1 0x0 KECCAK256 PUSH1 0x40 MLOAD DUP1 PUSH1 0x40 ADD PUSH1 0x40 MSTORE SWAP1 DUP2 PUSH1 0x0 DUP3 ADD PUSH1 0x0 SWAP1 SLOAD SWAP1 PUSH2 0x100 EXP SWAP1 DIV PUSH20 0xFFFFFFFFFFFFFFFFFFFFFFFFFFFFFFFFFFFFFFFF AND PUSH20 0xFFFFFFFFFFFFFFFFFFFFFFFFFFFFFFFFFFFFFFFF AND PUSH20 0xFFFFFFFFFFFFFFFFFFFFFFFFFFFFFFFFFFFFFFFF AND DUP2 MSTORE PUSH1 0x20 ADD PUSH1 0x0 DUP3 ADD PUSH1 0x14 SWAP1 SLOAD SWAP1 PUSH2 0x100 EXP SWAP1 DIV PUSH12 0xFFFFFFFFFFFFFFFFFFFFFFFF AND PUSH12 0xFFFFFFFFFFFFFFFFFFFFFFFF AND PUSH12 0xFFFFFFFFFFFFFFFFFFFFFFFF AND DUP2 MSTORE POP POP SWAP1 POP PUSH1 0x0 PUSH20 0xFFFFFFFFFFFFFFFFFFFFFFFFFFFFFFFFFFFFFFFF AND DUP2 PUSH1 0x0 ADD MLOAD PUSH20 0xFFFFFFFFFFFFFFFFFFFFFFFFFFFFFFFFFFFFFFFF AND SUB PUSH2 0x12B9 JUMPI PUSH1 0x65 PUSH1 0x40 MLOAD DUP1 PUSH1 0x40 ADD PUSH1 0x40 MSTORE SWAP1 DUP2 PUSH1 0x0 DUP3 ADD PUSH1 0x0 SWAP1 SLOAD SWAP1 PUSH2 0x100 EXP SWAP1 DIV PUSH20 0xFFFFFFFFFFFFFFFFFFFFFFFFFFFFFFFFFFFFFFFF AND PUSH20 0xFFFFFFFFFFFFFFFFFFFFFFFFFFFFFFFFFFFFFFFF AND PUSH20 0xFFFFFFFFFFFFFFFFFFFFFFFFFFFFFFFFFFFFFFFF AND DUP2 MSTORE PUSH1 0x20 ADD PUSH1 0x0 DUP3 ADD PUSH1 0x14 SWAP1 SLOAD SWAP1 PUSH2 0x100 EXP SWAP1 DIV PUSH12 0xFFFFFFFFFFFFFFFFFFFFFFFF AND PUSH12 0xFFFFFFFFFFFFFFFFFFFFFFFF AND PUSH12 0xFFFFFFFFFFFFFFFFFFFFFFFF AND DUP2 MSTORE POP POP SWAP1 POP JUMPDEST PUSH1 0x0 PUSH2 0x12C3 PUSH2 0x3B59 JUMP JUMPDEST PUSH12 0xFFFFFFFFFFFFFFFFFFFFFFFF AND DUP3 PUSH1 0x20 ADD MLOAD PUSH12 0xFFFFFFFFFFFFFFFFFFFFFFFF AND DUP7 PUSH2 0x12EF SWAP2 SWAP1 PUSH2 0x69E4 JUMP JUMPDEST PUSH2 0x12F9 SWAP2 SWAP1 PUSH2 0x6A55 JUMP JUMPDEST SWAP1 POP DUP2 PUSH1 0x0 ADD MLOAD DUP2 SWAP4 POP SWAP4 POP POP POP SWAP3 POP SWAP3 SWAP1 POP JUMP JUMPDEST PUSH32 0xB0A2731DA0D1E322A29F18FC41490DA7914E8245C4E7D00155B630B2FBE50293 PUSH2 0x1338 DUP2 PUSH2 0x3B63 JUMP JUMPDEST DUP2 PUSH2 0x1C5 PUSH1 0x0 PUSH2 0x100 EXP DUP2 SLOAD DUP2 PUSH20 0xFFFFFFFFFFFFFFFFFFFFFFFFFFFFFFFFFFFFFFFF MUL NOT AND SWAP1 DUP4 PUSH20 0xFFFFFFFFFFFFFFFFFFFFFFFFFFFFFFFFFFFFFFFF AND MUL OR SWAP1 SSTORE POP POP POP JUMP JUMPDEST PUSH2 0x1387 DUP3 PUSH2 0x10EB JUMP JUMPDEST PUSH2 0x1390 DUP2 PUSH2 0x3B63 JUMP JUMPDEST PUSH2 0x139A DUP4 DUP4 PUSH2 0x3B77 JUMP JUMPDEST POP POP POP JUMP JUMPDEST PUSH2 0x13A7 PUSH2 0x370A JUMP JUMPDEST PUSH20 0xFFFFFFFFFFFFFFFFFFFFFFFFFFFFFFFFFFFFFFFF AND DUP2 PUSH20 0xFFFFFFFFFFFFFFFFFFFFFFFFFFFFFFFFFFFFFFFF AND EQ PUSH2 0x1414 JUMPI PUSH1 0x40 MLOAD PUSH32 0x8C379A000000000000000000000000000000000000000000000000000000000 DUP2 MSTORE PUSH1 0x4 ADD PUSH2 0x140B SWAP1 PUSH2 0x6AF8 JUMP JUMPDEST PUSH1 0x40 MLOAD DUP1 SWAP2 SUB SWAP1 REVERT JUMPDEST PUSH2 0x141E DUP3 DUP3 PUSH2 0x3C58 JUMP JUMPDEST POP POP JUMP JUMPDEST PUSH32 0x0 PUSH20 0xFFFFFFFFFFFFFFFFFFFFFFFFFFFFFFFFFFFFFFFF AND ADDRESS PUSH20 0xFFFFFFFFFFFFFFFFFFFFFFFFFFFFFFFFFFFFFFFF AND SUB PUSH2 0x14B0 JUMPI PUSH1 0x40 MLOAD PUSH32 0x8C379A000000000000000000000000000000000000000000000000000000000 DUP2 MSTORE PUSH1 0x4 ADD PUSH2 0x14A7 SWAP1 PUSH2 0x6B8A JUMP JUMPDEST PUSH1 0x40 MLOAD DUP1 SWAP2 SUB SWAP1 REVERT JUMPDEST PUSH32 0x0 PUSH20 0xFFFFFFFFFFFFFFFFFFFFFFFFFFFFFFFFFFFFFFFF AND PUSH2 0x14EF PUSH2 0x3D3A JUMP JUMPDEST PUSH20 0xFFFFFFFFFFFFFFFFFFFFFFFFFFFFFFFFFFFFFFFF AND EQ PUSH2 0x1545 JUMPI PUSH1 0x40 MLOAD PUSH32 0x8C379A000000000000000000000000000000000000000000000000000000000 DUP2 MSTORE PUSH1 0x4 ADD PUSH2 0x153C SWAP1 PUSH2 0x6C1C JUMP JUMPDEST PUSH1 0x40 MLOAD DUP1 SWAP2 SUB SWAP1 REVERT JUMPDEST PUSH2 0x154E DUP2 PUSH2 0x3D91 JUMP JUMPDEST PUSH2 0x15A7 DUP2 PUSH1 0x0 PUSH8 0xFFFFFFFFFFFFFFFF DUP2 GT ISZERO PUSH2 0x156D JUMPI PUSH2 0x156C PUSH2 0x5C2C JUMP JUMPDEST JUMPDEST PUSH1 0x40 MLOAD SWAP1 DUP1 DUP3 MSTORE DUP1 PUSH1 0x1F ADD PUSH1 0x1F NOT AND PUSH1 0x20 ADD DUP3 ADD PUSH1 0x40 MSTORE DUP1 ISZERO PUSH2 0x159F JUMPI DUP2 PUSH1 0x20 ADD PUSH1 0x1 DUP3 MUL DUP1 CALLDATASIZE DUP4 CALLDATACOPY DUP1 DUP3 ADD SWAP2 POP POP SWAP1 POP JUMPDEST POP PUSH1 0x0 PUSH2 0x3DBF JUMP JUMPDEST POP JUMP JUMPDEST PUSH2 0x1C8 SLOAD DUP2 JUMP JUMPDEST PUSH1 0x0 DUP1 SHL PUSH2 0x15BE DUP2 PUSH2 0x3B63 JUMP JUMPDEST PUSH2 0x1C9 PUSH1 0x0 SWAP1 SLOAD SWAP1 PUSH2 0x100 EXP SWAP1 DIV PUSH20 0xFFFFFFFFFFFFFFFFFFFFFFFFFFFFFFFFFFFFFFFF AND PUSH20 0xFFFFFFFFFFFFFFFFFFFFFFFFFFFFFFFFFFFFFFFF AND PUSH4 0xA9059CBB CALLER PUSH2 0x1C9 PUSH1 0x0 SWAP1 SLOAD SWAP1 PUSH2 0x100 EXP SWAP1 DIV PUSH20 0xFFFFFFFFFFFFFFFFFFFFFFFFFFFFFFFFFFFFFFFF AND PUSH20 0xFFFFFFFFFFFFFFFFFFFFFFFFFFFFFFFFFFFFFFFF AND PUSH4 0x70A08231 ADDRESS PUSH1 0x40 MLOAD DUP3 PUSH4 0xFFFFFFFF AND PUSH1 0xE0 SHL DUP2 MSTORE PUSH1 0x4 ADD PUSH2 0x165A SWAP2 SWAP1 PUSH2 0x5896 JUMP JUMPDEST PUSH1 0x20 PUSH1 0x40 MLOAD DUP1 DUP4 SUB DUP2 DUP7 GAS STATICCALL ISZERO DUP1 ISZERO PUSH2 0x1677 JUMPI RETURNDATASIZE PUSH1 0x0 DUP1 RETURNDATACOPY RETURNDATASIZE PUSH1 0x0 REVERT JUMPDEST POP POP POP POP PUSH1 0x40 MLOAD RETURNDATASIZE PUSH1 0x1F NOT PUSH1 0x1F DUP3 ADD AND DUP3 ADD DUP1 PUSH1 0x40 MSTORE POP DUP2 ADD SWAP1 PUSH2 0x169B SWAP2 SWAP1 PUSH2 0x6C51 JUMP JUMPDEST PUSH1 0x40 MLOAD DUP4 PUSH4 0xFFFFFFFF AND PUSH1 0xE0 SHL DUP2 MSTORE PUSH1 0x4 ADD PUSH2 0x16B8 SWAP3 SWAP2 SWAP1 PUSH2 0x5ACD JUMP JUMPDEST PUSH1 0x20 PUSH1 0x40 MLOAD DUP1 DUP4 SUB DUP2 PUSH1 0x0 DUP8 GAS CALL ISZERO DUP1 ISZERO PUSH2 0x16D7 JUMPI RETURNDATASIZE PUSH1 0x0 DUP1 RETURNDATACOPY RETURNDATASIZE PUSH1 0x0 REVERT JUMPDEST POP POP POP POP PUSH1 0x40 MLOAD RETURNDATASIZE PUSH1 0x1F NOT PUSH1 0x1F DUP3 ADD AND DUP3 ADD DUP1 PUSH1 0x40 MSTORE POP DUP2 ADD SWAP1 PUSH2 0x16FB SWAP2 SWAP1 PUSH2 0x6C93 JUMP JUMPDEST POP POP JUMP JUMPDEST PUSH2 0x171A DUP4 DUP4 DUP4 PUSH1 0x40 MLOAD DUP1 PUSH1 0x20 ADD PUSH1 0x40 MSTORE DUP1 PUSH1 0x0 DUP2 MSTORE POP PUSH2 0x2C78 JUMP JUMPDEST POP POP POP JUMP JUMPDEST PUSH32 0xB0A2731DA0D1E322A29F18FC41490DA7914E8245C4E7D00155B630B2FBE50293 PUSH2 0x1749 DUP2 PUSH2 0x3B63 JUMP JUMPDEST DUP2 PUSH2 0x1C9 PUSH1 0x0 PUSH2 0x100 EXP DUP2 SLOAD DUP2 PUSH20 0xFFFFFFFFFFFFFFFFFFFFFFFFFFFFFFFFFFFFFFFF MUL NOT AND SWAP1 DUP4 PUSH20 0xFFFFFFFFFFFFFFFFFFFFFFFFFFFFFFFFFFFFFFFF AND MUL OR SWAP1 SSTORE POP POP POP JUMP JUMPDEST PUSH32 0xB0A2731DA0D1E322A29F18FC41490DA7914E8245C4E7D00155B630B2FBE50293 PUSH2 0x17B9 DUP2 PUSH2 0x3B63 JUMP JUMPDEST DUP2 PUSH2 0x1CF PUSH1 0x0 PUSH2 0x100 EXP DUP2 SLOAD DUP2 PUSH1 0xFF MUL NOT AND SWAP1 DUP4 ISZERO ISZERO MUL OR SWAP1 SSTORE POP POP POP JUMP JUMPDEST PUSH32 0xA49807205CE4D355092EF5A8A18F56E8913CF4A201FBE287825B095693C21775 PUSH2 0x1802 DUP2 PUSH2 0x3B63 JUMP JUMPDEST DUP2 MLOAD DUP4 MLOAD EQ PUSH2 0x1846 JUMPI PUSH1 0x40 MLOAD PUSH32 0x8C379A000000000000000000000000000000000000000000000000000000000 DUP2 MSTORE PUSH1 0x4 ADD PUSH2 0x183D SWAP1 PUSH2 0x6D32 JUMP JUMPDEST PUSH1 0x40 MLOAD DUP1 SWAP2 SUB SWAP1 REVERT JUMPDEST PUSH1 0x0 JUMPDEST DUP4 MLOAD DUP2 LT ISZERO PUSH2 0x1912 JUMPI DUP3 DUP2 DUP2 MLOAD DUP2 LT PUSH2 0x1865 JUMPI PUSH2 0x1864 PUSH2 0x6D52 JUMP JUMPDEST JUMPDEST PUSH1 0x20 MUL PUSH1 0x20 ADD ADD MLOAD PUSH2 0x1D2 PUSH1 0x0 DUP7 DUP5 DUP2 MLOAD DUP2 LT PUSH2 0x1885 JUMPI PUSH2 0x1884 PUSH2 0x6D52 JUMP JUMPDEST JUMPDEST PUSH1 0x20 MUL PUSH1 0x20 ADD ADD MLOAD PUSH20 0xFFFFFFFFFFFFFFFFFFFFFFFFFFFFFFFFFFFFFFFF AND PUSH20 0xFFFFFFFFFFFFFFFFFFFFFFFFFFFFFFFFFFFFFFFF AND DUP2 MSTORE PUSH1 0x20 ADD SWAP1 DUP2 MSTORE PUSH1 0x20 ADD PUSH1 0x0 KECCAK256 DUP2 SWAP1 SSTORE POP DUP3 DUP2 DUP2 MLOAD DUP2 LT PUSH2 0x18DE JUMPI PUSH2 0x18DD PUSH2 0x6D52 JUMP JUMPDEST JUMPDEST PUSH1 0x20 MUL PUSH1 0x20 ADD ADD MLOAD PUSH2 0x1D0 PUSH1 0x0 DUP3 DUP3 SLOAD PUSH2 0x18F8 SWAP2 SWAP1 PUSH2 0x6D81 JUMP JUMPDEST SWAP3 POP POP DUP2 SWAP1 SSTORE POP DUP1 DUP1 PUSH2 0x190A SWAP1 PUSH2 0x6DB5 JUMP JUMPDEST SWAP2 POP POP PUSH2 0x1849 JUMP JUMPDEST POP POP POP POP JUMP JUMPDEST PUSH32 0x0 PUSH20 0xFFFFFFFFFFFFFFFFFFFFFFFFFFFFFFFFFFFFFFFF AND ADDRESS PUSH20 0xFFFFFFFFFFFFFFFFFFFFFFFFFFFFFFFFFFFFFFFF AND SUB PUSH2 0x19A6 JUMPI PUSH1 0x40 MLOAD PUSH32 0x8C379A000000000000000000000000000000000000000000000000000000000 DUP2 MSTORE PUSH1 0x4 ADD PUSH2 0x199D SWAP1 PUSH2 0x6B8A JUMP JUMPDEST PUSH1 0x40 MLOAD DUP1 SWAP2 SUB SWAP1 REVERT JUMPDEST PUSH32 0x0 PUSH20 0xFFFFFFFFFFFFFFFFFFFFFFFFFFFFFFFFFFFFFFFF AND PUSH2 0x19E5 PUSH2 0x3D3A JUMP JUMPDEST PUSH20 0xFFFFFFFFFFFFFFFFFFFFFFFFFFFFFFFFFFFFFFFF AND EQ PUSH2 0x1A3B JUMPI PUSH1 0x40 MLOAD PUSH32 0x8C379A000000000000000000000000000000000000000000000000000000000 DUP2 MSTORE PUSH1 0x4 ADD PUSH2 0x1A32 SWAP1 PUSH2 0x6C1C JUMP JUMPDEST PUSH1 0x40 MLOAD DUP1 SWAP2 SUB SWAP1 REVERT JUMPDEST PUSH2 0x1A44 DUP3 PUSH2 0x3D91 JUMP JUMPDEST PUSH2 0x1A50 DUP3 DUP3 PUSH1 0x1 PUSH2 0x3DBF JUMP JUMPDEST POP POP JUMP JUMPDEST PUSH1 0x0 PUSH32 0x0 PUSH20 0xFFFFFFFFFFFFFFFFFFFFFFFFFFFFFFFFFFFFFFFF AND ADDRESS PUSH20 0xFFFFFFFFFFFFFFFFFFFFFFFFFFFFFFFFFFFFFFFF AND EQ PUSH2 0x1AE4 JUMPI PUSH1 0x40 MLOAD PUSH32 0x8C379A000000000000000000000000000000000000000000000000000000000 DUP2 MSTORE PUSH1 0x4 ADD PUSH2 0x1ADB SWAP1 PUSH2 0x6E6F JUMP JUMPDEST PUSH1 0x40 MLOAD DUP1 SWAP2 SUB SWAP1 REVERT JUMPDEST PUSH32 0x360894A13BA1A3210667C828492DB98DCA3E2076CC3735A920A3CA505D382BBC PUSH1 0x0 SHL SWAP1 POP SWAP1 JUMP JUMPDEST PUSH1 0x0 DUP1 PUSH1 0x1 SWAP1 SLOAD SWAP1 PUSH2 0x100 EXP SWAP1 DIV PUSH1 0xFF AND ISZERO SWAP1 POP DUP1 DUP1 ISZERO PUSH2 0x1B3E JUMPI POP PUSH1 0x1 PUSH1 0x0 DUP1 SLOAD SWAP1 PUSH2 0x100 EXP SWAP1 DIV PUSH1 0xFF AND PUSH1 0xFF AND LT JUMPDEST DUP1 PUSH2 0x1B6B JUMPI POP PUSH2 0x1B4D ADDRESS PUSH2 0x3F2D JUMP JUMPDEST ISZERO DUP1 ISZERO PUSH2 0x1B6A JUMPI POP PUSH1 0x1 PUSH1 0x0 DUP1 SLOAD SWAP1 PUSH2 0x100 EXP SWAP1 DIV PUSH1 0xFF AND PUSH1 0xFF AND EQ JUMPDEST JUMPDEST PUSH2 0x1BAA JUMPI PUSH1 0x40 MLOAD PUSH32 0x8C379A000000000000000000000000000000000000000000000000000000000 DUP2 MSTORE PUSH1 0x4 ADD PUSH2 0x1BA1 SWAP1 PUSH2 0x6F01 JUMP JUMPDEST PUSH1 0x40 MLOAD DUP1 SWAP2 SUB SWAP1 REVERT JUMPDEST PUSH1 0x1 PUSH1 0x0 DUP1 PUSH2 0x100 EXP DUP2 SLOAD DUP2 PUSH1 0xFF MUL NOT AND SWAP1 DUP4 PUSH1 0xFF AND MUL OR SWAP1 SSTORE POP DUP1 ISZERO PUSH2 0x1BE7 JUMPI PUSH1 0x1 PUSH1 0x0 PUSH1 0x1 PUSH2 0x100 EXP DUP2 SLOAD DUP2 PUSH1 0xFF MUL NOT AND SWAP1 DUP4 ISZERO ISZERO MUL OR SWAP1 SSTORE POP JUMPDEST PUSH2 0x1BF1 DUP5 DUP7 PUSH2 0x3F50 JUMP JUMPDEST PUSH2 0x1BF9 PUSH2 0x3FAD JUMP JUMPDEST PUSH2 0x1C01 PUSH2 0x3FFE JUMP JUMPDEST PUSH2 0x1C0A DUP4 PUSH2 0x404F JUMP JUMPDEST DUP8 PUSH2 0x1C3 PUSH1 0x0 PUSH2 0x100 EXP DUP2 SLOAD DUP2 PUSH20 0xFFFFFFFFFFFFFFFFFFFFFFFFFFFFFFFFFFFFFFFF MUL NOT AND SWAP1 DUP4 PUSH20 0xFFFFFFFFFFFFFFFFFFFFFFFFFFFFFFFFFFFFFFFF AND MUL OR SWAP1 SSTORE POP DUP7 PUSH2 0x1C5 PUSH1 0x0 PUSH2 0x100 EXP DUP2 SLOAD DUP2 PUSH20 0xFFFFFFFFFFFFFFFFFFFFFFFFFFFFFFFFFFFFFFFF MUL NOT AND SWAP1 DUP4 PUSH20 0xFFFFFFFFFFFFFFFFFFFFFFFFFFFFFFFFFFFFFFFF AND MUL OR SWAP1 SSTORE POP DUP6 PUSH2 0x1C9 PUSH1 0x0 PUSH2 0x100 EXP DUP2 SLOAD DUP2 PUSH20 0xFFFFFFFFFFFFFFFFFFFFFFFFFFFFFFFFFFFFFFFF MUL NOT AND SWAP1 DUP4 PUSH20 0xFFFFFFFFFFFFFFFFFFFFFFFFFFFFFFFFFFFFFFFF AND MUL OR SWAP1 SSTORE POP PUSH1 0x0 PUSH2 0x1CF PUSH1 0x0 PUSH2 0x100 EXP DUP2 SLOAD DUP2 PUSH1 0xFF MUL NOT AND SWAP1 DUP4 ISZERO ISZERO MUL OR SWAP1 SSTORE POP DUP2 PUSH2 0x1D4 PUSH1 0x0 PUSH2 0x100 EXP DUP2 SLOAD DUP2 PUSH20 0xFFFFFFFFFFFFFFFFFFFFFFFFFFFFFFFFFFFFFFFF MUL NOT AND SWAP1 DUP4 PUSH20 0xFFFFFFFFFFFFFFFFFFFFFFFFFFFFFFFFFFFFFFFF AND MUL OR SWAP1 SSTORE POP PUSH2 0x1D58 PUSH32 0xA49807205CE4D355092EF5A8A18F56E8913CF4A201FBE287825B095693C21775 DUP5 PUSH2 0x4117 JUMP JUMPDEST PUSH2 0x1D65 PUSH1 0x0 DUP1 SHL DUP5 PUSH2 0x4117 JUMP JUMPDEST PUSH2 0x1D8F PUSH32 0xB0A2731DA0D1E322A29F18FC41490DA7914E8245C4E7D00155B630B2FBE50293 DUP5 PUSH2 0x4117 JUMP JUMPDEST PUSH2 0x1DB9 PUSH32 0x3C11D16CBAFFD01DF69CE1C404F6340EE057498F5F00246190EA54220576A848 DUP5 PUSH2 0x4117 JUMP JUMPDEST DUP1 ISZERO PUSH2 0x1E12 JUMPI PUSH1 0x0 DUP1 PUSH1 0x1 PUSH2 0x100 EXP DUP2 SLOAD DUP2 PUSH1 0xFF MUL NOT AND SWAP1 DUP4 ISZERO ISZERO MUL OR SWAP1 SSTORE POP PUSH32 0x7F26B83FF96E1F2B6A682F133852F6798A09C465DA95921460CEFB3847402498 PUSH1 0x1 PUSH1 0x40 MLOAD PUSH2 0x1E09 SWAP2 SWAP1 PUSH2 0x6F5C JUMP JUMPDEST PUSH1 0x40 MLOAD DUP1 SWAP2 SUB SWAP1 LOG1 JUMPDEST POP POP POP POP POP POP POP POP JUMP JUMPDEST PUSH2 0x1D2 PUSH1 0x20 MSTORE DUP1 PUSH1 0x0 MSTORE PUSH1 0x40 PUSH1 0x0 KECCAK256 PUSH1 0x0 SWAP2 POP SWAP1 POP SLOAD DUP2 JUMP JUMPDEST PUSH2 0x1C9 PUSH1 0x0 SWAP1 SLOAD SWAP1 PUSH2 0x100 EXP SWAP1 DIV PUSH20 0xFFFFFFFFFFFFFFFFFFFFFFFFFFFFFFFFFFFFFFFF AND DUP2 JUMP JUMPDEST PUSH2 0x1C7 SLOAD DUP2 JUMP JUMPDEST PUSH1 0x0 DUP1 PUSH2 0x1E6F DUP4 PUSH2 0x4125 JUMP JUMPDEST SWAP1 POP PUSH1 0x0 PUSH20 0xFFFFFFFFFFFFFFFFFFFFFFFFFFFFFFFFFFFFFFFF AND DUP2 PUSH20 0xFFFFFFFFFFFFFFFFFFFFFFFFFFFFFFFFFFFFFFFF AND SUB PUSH2 0x1EE0 JUMPI PUSH1 0x40 MLOAD PUSH32 0x8C379A000000000000000000000000000000000000000000000000000000000 DUP2 MSTORE PUSH1 0x4 ADD PUSH2 0x1ED7 SWAP1 PUSH2 0x6FC3 JUMP JUMPDEST PUSH1 0x40 MLOAD DUP1 SWAP2 SUB SWAP1 REVERT JUMPDEST DUP1 SWAP2 POP POP SWAP2 SWAP1 POP JUMP JUMPDEST PUSH1 0x60 PUSH1 0x0 PUSH2 0x1CC PUSH1 0x0 DUP5 PUSH20 0xFFFFFFFFFFFFFFFFFFFFFFFFFFFFFFFFFFFFFFFF AND PUSH20 0xFFFFFFFFFFFFFFFFFFFFFFFFFFFFFFFFFFFFFFFF AND DUP2 MSTORE PUSH1 0x20 ADD SWAP1 DUP2 MSTORE PUSH1 0x20 ADD PUSH1 0x0 KECCAK256 DUP1 SLOAD DUP1 PUSH1 0x20 MUL PUSH1 0x20 ADD PUSH1 0x40 MLOAD SWAP1 DUP2 ADD PUSH1 0x40 MSTORE DUP1 SWAP3 SWAP2 SWAP1 DUP2 DUP2 MSTORE PUSH1 0x20 ADD DUP3 DUP1 SLOAD DUP1 ISZERO PUSH2 0x1F77 JUMPI PUSH1 0x20 MUL DUP3 ADD SWAP2 SWAP1 PUSH1 0x0 MSTORE PUSH1 0x20 PUSH1 0x0 KECCAK256 SWAP1 JUMPDEST DUP2 SLOAD DUP2 MSTORE PUSH1 0x20 ADD SWAP1 PUSH1 0x1 ADD SWAP1 DUP1 DUP4 GT PUSH2 0x1F63 JUMPI JUMPDEST POP POP POP POP POP SWAP1 POP DUP1 SWAP2 POP POP SWAP2 SWAP1 POP JUMP JUMPDEST PUSH1 0x0 DUP1 SHL PUSH2 0x1F94 DUP2 PUSH2 0x3B63 JUMP JUMPDEST PUSH2 0x1F9E DUP4 DUP4 PUSH2 0x4162 JUMP JUMPDEST POP POP POP JUMP JUMPDEST PUSH1 0x0 DUP1 PUSH20 0xFFFFFFFFFFFFFFFFFFFFFFFFFFFFFFFFFFFFFFFF AND DUP3 PUSH20 0xFFFFFFFFFFFFFFFFFFFFFFFFFFFFFFFFFFFFFFFF AND SUB PUSH2 0x2013 JUMPI PUSH1 0x40 MLOAD PUSH32 0x8C379A000000000000000000000000000000000000000000000000000000000 DUP2 MSTORE PUSH1 0x4 ADD PUSH2 0x200A SWAP1 PUSH2 0x7055 JUMP JUMPDEST PUSH1 0x40 MLOAD DUP1 SWAP2 SUB SWAP1 REVERT JUMPDEST PUSH1 0x9A PUSH1 0x0 DUP4 PUSH20 0xFFFFFFFFFFFFFFFFFFFFFFFFFFFFFFFFFFFFFFFF AND PUSH20 0xFFFFFFFFFFFFFFFFFFFFFFFFFFFFFFFFFFFFFFFF AND DUP2 MSTORE PUSH1 0x20 ADD SWAP1 DUP2 MSTORE PUSH1 0x20 ADD PUSH1 0x0 KECCAK256 SLOAD SWAP1 POP SWAP2 SWAP1 POP JUMP JUMPDEST PUSH2 0x2062 PUSH2 0x42F7 JUMP JUMPDEST PUSH2 0x206C PUSH1 0x0 PUSH2 0x404F JUMP JUMPDEST JUMP JUMPDEST PUSH32 0xB0A2731DA0D1E322A29F18FC41490DA7914E8245C4E7D00155B630B2FBE50293 PUSH2 0x2098 DUP2 PUSH2 0x3B63 JUMP JUMPDEST DUP2 PUSH2 0x1CD DUP2 SWAP1 SSTORE POP POP POP JUMP JUMPDEST PUSH32 0xB0A2731DA0D1E322A29F18FC41490DA7914E8245C4E7D00155B630B2FBE50293 PUSH2 0x20CE DUP2 PUSH2 0x3B63 JUMP JUMPDEST DUP2 PUSH2 0x1C8 DUP2 SWAP1 SSTORE POP POP POP JUMP JUMPDEST PUSH2 0x1C4 DUP1 SLOAD PUSH2 0x20E8 SWAP1 PUSH2 0x67CE JUMP JUMPDEST DUP1 PUSH1 0x1F ADD PUSH1 0x20 DUP1 SWAP2 DIV MUL PUSH1 0x20 ADD PUSH1 0x40 MLOAD SWAP1 DUP2 ADD PUSH1 0x40 MSTORE DUP1 SWAP3 SWAP2 SWAP1 DUP2 DUP2 MSTORE PUSH1 0x20 ADD DUP3 DUP1 SLOAD PUSH2 0x2114 SWAP1 PUSH2 0x67CE JUMP JUMPDEST DUP1 ISZERO PUSH2 0x2161 JUMPI DUP1 PUSH1 0x1F LT PUSH2 0x2136 JUMPI PUSH2 0x100 DUP1 DUP4 SLOAD DIV MUL DUP4 MSTORE SWAP2 PUSH1 0x20 ADD SWAP2 PUSH2 0x2161 JUMP JUMPDEST DUP3 ADD SWAP2 SWAP1 PUSH1 0x0 MSTORE PUSH1 0x20 PUSH1 0x0 KECCAK256 SWAP1 JUMPDEST DUP2 SLOAD DUP2 MSTORE SWAP1 PUSH1 0x1 ADD SWAP1 PUSH1 0x20 ADD DUP1 DUP4 GT PUSH2 0x2144 JUMPI DUP3 SWAP1 SUB PUSH1 0x1F AND DUP3 ADD SWAP2 JUMPDEST POP POP POP POP POP DUP2 JUMP JUMPDEST PUSH2 0x1CF PUSH1 0x0 SWAP1 SLOAD SWAP1 PUSH2 0x100 EXP SWAP1 DIV PUSH1 0xFF AND DUP2 JUMP JUMPDEST PUSH2 0x1D1 SLOAD DUP2 JUMP JUMPDEST PUSH1 0x0 PUSH2 0x191 PUSH1 0x0 SWAP1 SLOAD SWAP1 PUSH2 0x100 EXP SWAP1 DIV PUSH20 0xFFFFFFFFFFFFFFFFFFFFFFFFFFFFFFFFFFFFFFFF AND SWAP1 POP SWAP1 JUMP JUMPDEST PUSH32 0xA49807205CE4D355092EF5A8A18F56E8913CF4A201FBE287825B095693C21775 PUSH2 0x21D9 DUP2 PUSH2 0x3B63 JUMP JUMPDEST PUSH20 0x0 PUSH4 0x39D1EFC6 DUP9 DUP9 DUP9 DUP9 DUP9 DUP9 PUSH1 0x40 MLOAD DUP8 PUSH4 0xFFFFFFFF AND PUSH1 0xE0 SHL DUP2 MSTORE PUSH1 0x4 ADD PUSH2 0x221A SWAP7 SWAP6 SWAP5 SWAP4 SWAP3 SWAP2 SWAP1 PUSH2 0x7148 JUMP JUMPDEST PUSH1 0x0 PUSH1 0x40 MLOAD DUP1 DUP4 SUB DUP2 DUP7 DUP1 EXTCODESIZE ISZERO DUP1 ISZERO PUSH2 0x2232 JUMPI PUSH1 0x0 DUP1 REVERT JUMPDEST POP GAS DELEGATECALL ISZERO DUP1 ISZERO PUSH2 0x2246 JUMPI RETURNDATASIZE PUSH1 0x0 DUP1 RETURNDATACOPY RETURNDATASIZE PUSH1 0x0 REVERT JUMPDEST POP POP POP POP POP POP POP POP POP POP POP JUMP JUMPDEST PUSH1 0x0 PUSH1 0xC9 PUSH1 0x0 DUP5 DUP2 MSTORE PUSH1 0x20 ADD SWAP1 DUP2 MSTORE PUSH1 0x20 ADD PUSH1 0x0 KECCAK256 PUSH1 0x0 ADD PUSH1 0x0 DUP4 PUSH20 0xFFFFFFFFFFFFFFFFFFFFFFFFFFFFFFFFFFFFFFFF AND PUSH20 0xFFFFFFFFFFFFFFFFFFFFFFFFFFFFFFFFFFFFFFFF AND DUP2 MSTORE PUSH1 0x20 ADD SWAP1 DUP2 MSTORE PUSH1 0x20 ADD PUSH1 0x0 KECCAK256 PUSH1 0x0 SWAP1 SLOAD SWAP1 PUSH2 0x100 EXP SWAP1 DIV PUSH1 0xFF AND SWAP1 POP SWAP3 SWAP2 POP POP JUMP JUMPDEST PUSH2 0x1C6 SLOAD DUP2 JUMP JUMPDEST PUSH2 0x22CD PUSH2 0x4375 JUMP JUMPDEST PUSH20 0xFFFFFFFFFFFFFFFFFFFFFFFFFFFFFFFFFFFFFFFF AND CALLER PUSH20 0xFFFFFFFFFFFFFFFFFFFFFFFFFFFFFFFFFFFFFFFF AND EQ PUSH2 0x233A JUMPI PUSH1 0x40 MLOAD PUSH32 0x8C379A000000000000000000000000000000000000000000000000000000000 DUP2 MSTORE PUSH1 0x4 ADD PUSH2 0x2331 SWAP1 PUSH2 0x71F0 JUMP JUMPDEST PUSH1 0x40 MLOAD DUP1 SWAP2 SUB SWAP1 REVERT JUMPDEST PUSH1 0x0 PUSH2 0x2344 PUSH2 0x440E JUMP JUMPDEST PUSH20 0xFFFFFFFFFFFFFFFFFFFFFFFFFFFFFFFFFFFFFFFF AND PUSH4 0x86C2B83D ADDRESS DUP8 PUSH1 0x40 MLOAD DUP4 PUSH4 0xFFFFFFFF AND PUSH1 0xE0 SHL DUP2 MSTORE PUSH1 0x4 ADD PUSH2 0x237E SWAP3 SWAP2 SWAP1 PUSH2 0x721F JUMP JUMPDEST PUSH1 0x60 PUSH1 0x40 MLOAD DUP1 DUP4 SUB DUP2 DUP7 GAS STATICCALL ISZERO DUP1 ISZERO PUSH2 0x239B JUMPI RETURNDATASIZE PUSH1 0x0 DUP1 RETURNDATACOPY RETURNDATASIZE PUSH1 0x0 REVERT JUMPDEST POP POP POP POP PUSH1 0x40 MLOAD RETURNDATASIZE PUSH1 0x1F NOT PUSH1 0x1F DUP3 ADD AND DUP3 ADD DUP1 PUSH1 0x40 MSTORE POP DUP2 ADD SWAP1 PUSH2 0x23BF SWAP2 SWAP1 PUSH2 0x72C6 JUMP JUMPDEST SWAP1 POP PUSH1 0x0 DUP2 PUSH1 0x20 ADD MLOAD GT PUSH2 0x2408 JUMPI PUSH1 0x40 MLOAD PUSH32 0x8C379A000000000000000000000000000000000000000000000000000000000 DUP2 MSTORE PUSH1 0x4 ADD PUSH2 0x23FF SWAP1 PUSH2 0x733F JUMP JUMPDEST PUSH1 0x40 MLOAD DUP1 SWAP2 SUB SWAP1 REVERT JUMPDEST PUSH1 0x0 PUSH2 0x1CB PUSH1 0x0 DUP8 PUSH1 0xFF AND PUSH1 0xFF AND DUP2 MSTORE PUSH1 0x20 ADD SWAP1 DUP2 MSTORE PUSH1 0x20 ADD PUSH1 0x0 KECCAK256 SLOAD SWAP1 POP PUSH1 0x0 DUP8 DUP3 PUSH2 0x2435 SWAP2 SWAP1 PUSH2 0x6D81 JUMP JUMPDEST SWAP1 POP DUP1 DUP4 PUSH1 0x20 ADD MLOAD LT ISZERO PUSH2 0x247E JUMPI PUSH1 0x40 MLOAD PUSH32 0x8C379A000000000000000000000000000000000000000000000000000000000 DUP2 MSTORE PUSH1 0x4 ADD PUSH2 0x2475 SWAP1 PUSH2 0x73AB JUMP JUMPDEST PUSH1 0x40 MLOAD DUP1 SWAP2 SUB SWAP1 REVERT JUMPDEST DUP1 PUSH2 0x1CB PUSH1 0x0 DUP10 PUSH1 0xFF AND PUSH1 0xFF AND DUP2 MSTORE PUSH1 0x20 ADD SWAP1 DUP2 MSTORE PUSH1 0x20 ADD PUSH1 0x0 KECCAK256 DUP2 SWAP1 SSTORE POP PUSH1 0x0 DUP9 PUSH8 0xFFFFFFFFFFFFFFFF DUP2 GT ISZERO PUSH2 0x24B9 JUMPI PUSH2 0x24B8 PUSH2 0x5C2C JUMP JUMPDEST JUMPDEST PUSH1 0x40 MLOAD SWAP1 DUP1 DUP3 MSTORE DUP1 PUSH1 0x20 MUL PUSH1 0x20 ADD DUP3 ADD PUSH1 0x40 MSTORE DUP1 ISZERO PUSH2 0x24F2 JUMPI DUP2 PUSH1 0x20 ADD JUMPDEST PUSH2 0x24DF PUSH2 0x5633 JUMP JUMPDEST DUP2 MSTORE PUSH1 0x20 ADD SWAP1 PUSH1 0x1 SWAP1 SUB SWAP1 DUP2 PUSH2 0x24D7 JUMPI SWAP1 POP JUMPDEST POP SWAP1 POP PUSH1 0x0 JUMPDEST DUP10 DUP2 LT ISZERO PUSH2 0x263B JUMPI PUSH1 0x0 PUSH2 0x250D PUSH2 0x1CA PUSH2 0x44A7 JUMP JUMPDEST SWAP1 POP PUSH2 0x251A PUSH2 0x1CA PUSH2 0x44B5 JUMP JUMPDEST PUSH2 0x2524 DUP10 DUP3 PUSH2 0x44CB JUMP JUMPDEST PUSH2 0x1CC PUSH1 0x0 DUP11 PUSH20 0xFFFFFFFFFFFFFFFFFFFFFFFFFFFFFFFFFFFFFFFF AND PUSH20 0xFFFFFFFFFFFFFFFFFFFFFFFFFFFFFFFFFFFFFFFF AND DUP2 MSTORE PUSH1 0x20 ADD SWAP1 DUP2 MSTORE PUSH1 0x20 ADD PUSH1 0x0 KECCAK256 DUP2 SWAP1 DUP1 PUSH1 0x1 DUP2 SLOAD ADD DUP1 DUP3 SSTORE DUP1 SWAP2 POP POP PUSH1 0x1 SWAP1 SUB SWAP1 PUSH1 0x0 MSTORE PUSH1 0x20 PUSH1 0x0 KECCAK256 ADD PUSH1 0x0 SWAP1 SWAP2 SWAP1 SWAP2 SWAP1 SWAP2 POP SSTORE DUP10 PUSH2 0x1CE PUSH1 0x0 DUP4 DUP2 MSTORE PUSH1 0x20 ADD SWAP1 DUP2 MSTORE PUSH1 0x20 ADD PUSH1 0x0 KECCAK256 PUSH1 0x0 PUSH2 0x100 EXP DUP2 SLOAD DUP2 PUSH1 0xFF MUL NOT AND SWAP1 DUP4 PUSH1 0xFF AND MUL OR SWAP1 SSTORE POP PUSH32 0xD5054BA42059BE88C66C1A10236E5A0CEA44D10897996E6040B6F41C57BE1342 DUP10 DUP3 DUP13 PUSH1 0x40 MLOAD PUSH2 0x25EB SWAP4 SWAP3 SWAP2 SWAP1 PUSH2 0x73FC JUMP JUMPDEST PUSH1 0x40 MLOAD DUP1 SWAP2 SUB SWAP1 LOG1 PUSH1 0x40 MLOAD DUP1 PUSH1 0x40 ADD PUSH1 0x40 MSTORE DUP1 DUP3 DUP2 MSTORE PUSH1 0x20 ADD DUP12 PUSH1 0xFF AND DUP2 MSTORE POP DUP4 DUP4 DUP2 MLOAD DUP2 LT PUSH2 0x261E JUMPI PUSH2 0x261D PUSH2 0x6D52 JUMP JUMPDEST JUMPDEST PUSH1 0x20 MUL PUSH1 0x20 ADD ADD DUP2 SWAP1 MSTORE POP POP DUP1 PUSH2 0x2634 SWAP1 PUSH2 0x6DB5 JUMP JUMPDEST SWAP1 POP PUSH2 0x24F8 JUMP JUMPDEST POP PUSH32 0xF7DD652110AB47A8985EE42EB817B24E6084A902C749934178DDF4795D91E213 DUP7 DUP7 DUP10 DUP5 PUSH1 0x40 MLOAD PUSH2 0x2671 SWAP5 SWAP4 SWAP3 SWAP2 SWAP1 PUSH2 0x753E JUMP JUMPDEST PUSH1 0x40 MLOAD DUP1 SWAP2 SUB SWAP1 LOG1 POP POP POP POP POP POP POP POP POP JUMP JUMPDEST PUSH1 0x60 PUSH1 0x98 DUP1 SLOAD PUSH2 0x2693 SWAP1 PUSH2 0x67CE JUMP JUMPDEST DUP1 PUSH1 0x1F ADD PUSH1 0x20 DUP1 SWAP2 DIV MUL PUSH1 0x20 ADD PUSH1 0x40 MLOAD SWAP1 DUP2 ADD PUSH1 0x40 MSTORE DUP1 SWAP3 SWAP2 SWAP1 DUP2 DUP2 MSTORE PUSH1 0x20 ADD DUP3 DUP1 SLOAD PUSH2 0x26BF SWAP1 PUSH2 0x67CE JUMP JUMPDEST DUP1 ISZERO PUSH2 0x270C JUMPI DUP1 PUSH1 0x1F LT PUSH2 0x26E1 JUMPI PUSH2 0x100 DUP1 DUP4 SLOAD DIV MUL DUP4 MSTORE SWAP2 PUSH1 0x20 ADD SWAP2 PUSH2 0x270C JUMP JUMPDEST DUP3 ADD SWAP2 SWAP1 PUSH1 0x0 MSTORE PUSH1 0x20 PUSH1 0x0 KECCAK256 SWAP1 JUMPDEST DUP2 SLOAD DUP2 MSTORE SWAP1 PUSH1 0x1 ADD SWAP1 PUSH1 0x20 ADD DUP1 DUP4 GT PUSH2 0x26EF JUMPI DUP3 SWAP1 SUB PUSH1 0x1F AND DUP3 ADD SWAP2 JUMPDEST POP POP POP POP POP SWAP1 POP SWAP1 JUMP JUMPDEST PUSH32 0xB0A2731DA0D1E322A29F18FC41490DA7914E8245C4E7D00155B630B2FBE50293 PUSH2 0x2740 DUP2 PUSH2 0x3B63 JUMP JUMPDEST PUSH1 0x0 DUP5 GT PUSH2 0x2783 JUMPI PUSH1 0x40 MLOAD PUSH32 0x8C379A000000000000000000000000000000000000000000000000000000000 DUP2 MSTORE PUSH1 0x4 ADD PUSH2 0x277A SWAP1 PUSH2 0x75D1 JUMP JUMPDEST PUSH1 0x40 MLOAD DUP1 SWAP2 SUB SWAP1 REVERT JUMPDEST PUSH1 0x0 PUSH2 0x278D PUSH2 0x440E JUMP JUMPDEST PUSH20 0xFFFFFFFFFFFFFFFFFFFFFFFFFFFFFFFFFFFFFFFF AND PUSH4 0x86C2B83D ADDRESS DUP7 PUSH1 0x40 MLOAD DUP4 PUSH4 0xFFFFFFFF AND PUSH1 0xE0 SHL DUP2 MSTORE PUSH1 0x4 ADD PUSH2 0x27C7 SWAP3 SWAP2 SWAP1 PUSH2 0x721F JUMP JUMPDEST PUSH1 0x60 PUSH1 0x40 MLOAD DUP1 DUP4 SUB DUP2 DUP7 GAS STATICCALL ISZERO DUP1 ISZERO PUSH2 0x27E4 JUMPI RETURNDATASIZE PUSH1 0x0 DUP1 RETURNDATACOPY RETURNDATASIZE PUSH1 0x0 REVERT JUMPDEST POP POP POP POP PUSH1 0x40 MLOAD RETURNDATASIZE PUSH1 0x1F NOT PUSH1 0x1F DUP3 ADD AND DUP3 ADD DUP1 PUSH1 0x40 MSTORE POP DUP2 ADD SWAP1 PUSH2 0x2808 SWAP2 SWAP1 PUSH2 0x72C6 JUMP JUMPDEST SWAP1 POP PUSH1 0x0 DUP2 PUSH1 0x20 ADD MLOAD GT PUSH2 0x2851 JUMPI PUSH1 0x40 MLOAD PUSH32 0x8C379A000000000000000000000000000000000000000000000000000000000 DUP2 MSTORE PUSH1 0x4 ADD PUSH2 0x2848 SWAP1 PUSH2 0x733F JUMP JUMPDEST PUSH1 0x40 MLOAD DUP1 SWAP2 SUB SWAP1 REVERT JUMPDEST PUSH1 0x0 PUSH2 0x1CB PUSH1 0x0 DUP7 PUSH1 0xFF AND PUSH1 0xFF AND DUP2 MSTORE PUSH1 0x20 ADD SWAP1 DUP2 MSTORE PUSH1 0x20 ADD PUSH1 0x0 KECCAK256 SLOAD SWAP1 POP PUSH1 0x0 DUP7 DUP3 PUSH2 0x287E SWAP2 SWAP1 PUSH2 0x6D81 JUMP JUMPDEST SWAP1 POP DUP1 DUP4 PUSH1 0x20 ADD MLOAD LT ISZERO PUSH2 0x28C7 JUMPI PUSH1 0x40 MLOAD PUSH32 0x8C379A000000000000000000000000000000000000000000000000000000000 DUP2 MSTORE PUSH1 0x4 ADD PUSH2 0x28BE SWAP1 PUSH2 0x73AB JUMP JUMPDEST PUSH1 0x40 MLOAD DUP1 SWAP2 SUB SWAP1 REVERT JUMPDEST DUP1 PUSH2 0x1CB PUSH1 0x0 DUP9 PUSH1 0xFF AND PUSH1 0xFF AND DUP2 MSTORE PUSH1 0x20 ADD SWAP1 DUP2 MSTORE PUSH1 0x20 ADD PUSH1 0x0 KECCAK256 DUP2 SWAP1 SSTORE POP PUSH1 0x0 PUSH20 0xFFFFFFFFFFFFFFFFFFFFFFFFFFFFFFFFFFFFFFFF AND DUP6 PUSH20 0xFFFFFFFFFFFFFFFFFFFFFFFFFFFFFFFFFFFFFFFF AND SUB PUSH2 0x291E JUMPI CALLER SWAP5 POP JUMPDEST PUSH1 0x0 JUMPDEST DUP8 DUP2 LT ISZERO PUSH2 0x2A2E JUMPI PUSH1 0x0 PUSH2 0x2936 PUSH2 0x1CA PUSH2 0x44A7 JUMP JUMPDEST SWAP1 POP PUSH2 0x2943 PUSH2 0x1CA PUSH2 0x44B5 JUMP JUMPDEST PUSH2 0x294D DUP8 DUP3 PUSH2 0x44CB JUMP JUMPDEST PUSH2 0x1CC PUSH1 0x0 DUP9 PUSH20 0xFFFFFFFFFFFFFFFFFFFFFFFFFFFFFFFFFFFFFFFF AND PUSH20 0xFFFFFFFFFFFFFFFFFFFFFFFFFFFFFFFFFFFFFFFF AND DUP2 MSTORE PUSH1 0x20 ADD SWAP1 DUP2 MSTORE PUSH1 0x20 ADD PUSH1 0x0 KECCAK256 DUP2 SWAP1 DUP1 PUSH1 0x1 DUP2 SLOAD ADD DUP1 DUP3 SSTORE DUP1 SWAP2 POP POP PUSH1 0x1 SWAP1 SUB SWAP1 PUSH1 0x0 MSTORE PUSH1 0x20 PUSH1 0x0 KECCAK256 ADD PUSH1 0x0 SWAP1 SWAP2 SWAP1 SWAP2 SWAP1 SWAP2 POP SSTORE DUP8 PUSH2 0x1CE PUSH1 0x0 DUP4 DUP2 MSTORE PUSH1 0x20 ADD SWAP1 DUP2 MSTORE PUSH1 0x20 ADD PUSH1 0x0 KECCAK256 PUSH1 0x0 PUSH2 0x100 EXP DUP2 SLOAD DUP2 PUSH1 0xFF MUL NOT AND SWAP1 DUP4 PUSH1 0xFF AND MUL OR SWAP1 SSTORE POP PUSH32 0xD5054BA42059BE88C66C1A10236E5A0CEA44D10897996E6040B6F41C57BE1342 DUP8 DUP3 DUP11 PUSH1 0x40 MLOAD PUSH2 0x2A14 SWAP4 SWAP3 SWAP2 SWAP1 PUSH2 0x73FC JUMP JUMPDEST PUSH1 0x40 MLOAD DUP1 SWAP2 SUB SWAP1 LOG1 POP DUP1 PUSH2 0x2A27 SWAP1 PUSH2 0x6DB5 JUMP JUMPDEST SWAP1 POP PUSH2 0x2921 JUMP JUMPDEST POP POP POP POP POP POP POP POP JUMP JUMPDEST PUSH1 0x0 DUP1 SHL DUP2 JUMP JUMPDEST PUSH2 0x2A51 PUSH2 0x2A4A PUSH2 0x370A JUMP JUMPDEST DUP4 DUP4 PUSH2 0x44E9 JUMP JUMPDEST POP POP JUMP JUMPDEST PUSH2 0x1D3 PUSH1 0x20 MSTORE DUP1 PUSH1 0x0 MSTORE PUSH1 0x40 PUSH1 0x0 KECCAK256 PUSH1 0x0 SWAP2 POP SWAP1 POP DUP1 SLOAD PUSH2 0x2A75 SWAP1 PUSH2 0x67CE JUMP JUMPDEST DUP1 PUSH1 0x1F ADD PUSH1 0x20 DUP1 SWAP2 DIV MUL PUSH1 0x20 ADD PUSH1 0x40 MLOAD SWAP1 DUP2 ADD PUSH1 0x40 MSTORE DUP1 SWAP3 SWAP2 SWAP1 DUP2 DUP2 MSTORE PUSH1 0x20 ADD DUP3 DUP1 SLOAD PUSH2 0x2AA1 SWAP1 PUSH2 0x67CE JUMP JUMPDEST DUP1 ISZERO PUSH2 0x2AEE JUMPI DUP1 PUSH1 0x1F LT PUSH2 0x2AC3 JUMPI PUSH2 0x100 DUP1 DUP4 SLOAD DIV MUL DUP4 MSTORE SWAP2 PUSH1 0x20 ADD SWAP2 PUSH2 0x2AEE JUMP JUMPDEST DUP3 ADD SWAP2 SWAP1 PUSH1 0x0 MSTORE PUSH1 0x20 PUSH1 0x0 KECCAK256 SWAP1 JUMPDEST DUP2 SLOAD DUP2 MSTORE SWAP1 PUSH1 0x1 ADD SWAP1 PUSH1 0x20 ADD DUP1 DUP4 GT PUSH2 0x2AD1 JUMPI DUP3 SWAP1 SUB PUSH1 0x1F AND DUP3 ADD SWAP2 JUMPDEST POP POP POP POP POP DUP2 JUMP JUMPDEST PUSH1 0x0 PUSH32 0xA49807205CE4D355092EF5A8A18F56E8913CF4A201FBE287825B095693C21775 PUSH2 0x2B22 DUP2 PUSH2 0x3B63 JUMP JUMPDEST PUSH2 0x1D4 PUSH1 0x0 SWAP1 SLOAD SWAP1 PUSH2 0x100 EXP SWAP1 DIV PUSH20 0xFFFFFFFFFFFFFFFFFFFFFFFFFFFFFFFFFFFFFFFF AND SWAP2 POP POP SWAP1 JUMP JUMPDEST PUSH2 0x2B54 PUSH2 0x564D JUMP JUMPDEST PUSH32 0xA49807205CE4D355092EF5A8A18F56E8913CF4A201FBE287825B095693C21775 PUSH2 0x2B7E DUP2 PUSH2 0x3B63 JUMP JUMPDEST PUSH2 0x2B86 PUSH2 0x440E JUMP JUMPDEST PUSH20 0xFFFFFFFFFFFFFFFFFFFFFFFFFFFFFFFFFFFFFFFF AND PUSH4 0x86C2B83D ADDRESS DUP6 PUSH1 0x40 MLOAD DUP4 PUSH4 0xFFFFFFFF AND PUSH1 0xE0 SHL DUP2 MSTORE PUSH1 0x4 ADD PUSH2 0x2BC0 SWAP3 SWAP2 SWAP1 PUSH2 0x721F JUMP JUMPDEST PUSH1 0x60 PUSH1 0x40 MLOAD DUP1 DUP4 SUB DUP2 DUP7 GAS STATICCALL ISZERO DUP1 ISZERO PUSH2 0x2BDD JUMPI RETURNDATASIZE PUSH1 0x0 DUP1 RETURNDATACOPY RETURNDATASIZE PUSH1 0x0 REVERT JUMPDEST POP POP POP POP PUSH1 0x40 MLOAD RETURNDATASIZE PUSH1 0x1F NOT PUSH1 0x1F DUP3 ADD AND DUP3 ADD DUP1 PUSH1 0x40 MSTORE POP DUP2 ADD SWAP1 PUSH2 0x2C01 SWAP2 SWAP1 PUSH2 0x72C6 JUMP JUMPDEST SWAP2 POP POP SWAP2 SWAP1 POP JUMP JUMPDEST PUSH32 0x3C11D16CBAFFD01DF69CE1C404F6340EE057498F5F00246190EA54220576A848 PUSH2 0x2C33 DUP2 PUSH2 0x3B63 JUMP JUMPDEST PUSH1 0x0 JUMPDEST DUP3 MLOAD DUP2 LT ISZERO PUSH2 0x2C73 JUMPI PUSH2 0x2C62 DUP4 DUP3 DUP2 MLOAD DUP2 LT PUSH2 0x2C55 JUMPI PUSH2 0x2C54 PUSH2 0x6D52 JUMP JUMPDEST JUMPDEST PUSH1 0x20 MUL PUSH1 0x20 ADD ADD MLOAD PUSH2 0x4655 JUMP JUMPDEST DUP1 PUSH2 0x2C6C SWAP1 PUSH2 0x6DB5 JUMP JUMPDEST SWAP1 POP PUSH2 0x2C36 JUMP JUMPDEST POP POP POP JUMP JUMPDEST PUSH2 0x2C89 PUSH2 0x2C83 PUSH2 0x370A JUMP JUMPDEST DUP4 PUSH2 0x37CB JUMP JUMPDEST PUSH2 0x2CC8 JUMPI PUSH1 0x40 MLOAD PUSH32 0x8C379A000000000000000000000000000000000000000000000000000000000 DUP2 MSTORE PUSH1 0x4 ADD PUSH2 0x2CBF SWAP1 PUSH2 0x6995 JUMP JUMPDEST PUSH1 0x40 MLOAD DUP1 SWAP2 SUB SWAP1 REVERT JUMPDEST PUSH2 0x2CD4 DUP5 DUP5 DUP5 DUP5 PUSH2 0x466A JUMP JUMPDEST POP POP POP POP JUMP JUMPDEST PUSH2 0x1C3 PUSH1 0x0 SWAP1 SLOAD SWAP1 PUSH2 0x100 EXP SWAP1 DIV PUSH20 0xFFFFFFFFFFFFFFFFFFFFFFFFFFFFFFFFFFFFFFFF AND DUP2 JUMP JUMPDEST PUSH1 0x0 PUSH2 0x2D0E PUSH2 0x1CA PUSH2 0x44A7 JUMP JUMPDEST SWAP1 POP SWAP1 JUMP JUMPDEST PUSH32 0xA49807205CE4D355092EF5A8A18F56E8913CF4A201FBE287825B095693C21775 PUSH2 0x2D3D DUP2 PUSH2 0x3B63 JUMP JUMPDEST PUSH20 0x0 PUSH4 0x7A171259 DUP8 DUP8 DUP8 DUP8 DUP8 PUSH1 0x40 MLOAD DUP7 PUSH4 0xFFFFFFFF AND PUSH1 0xE0 SHL DUP2 MSTORE PUSH1 0x4 ADD PUSH2 0x2D7C SWAP6 SWAP5 SWAP4 SWAP3 SWAP2 SWAP1 PUSH2 0x75F1 JUMP JUMPDEST PUSH1 0x20 PUSH1 0x40 MLOAD DUP1 DUP4 SUB DUP2 DUP7 GAS DELEGATECALL ISZERO DUP1 ISZERO PUSH2 0x2D99 JUMPI RETURNDATASIZE PUSH1 0x0 DUP1 RETURNDATACOPY RETURNDATASIZE PUSH1 0x0 REVERT JUMPDEST POP POP POP POP PUSH1 0x40 MLOAD RETURNDATASIZE PUSH1 0x1F NOT PUSH1 0x1F DUP3 ADD AND DUP3 ADD DUP1 PUSH1 0x40 MSTORE POP DUP2 ADD SWAP1 PUSH2 0x2DBD SWAP2 SWAP1 PUSH2 0x6C51 JUMP JUMPDEST POP POP POP POP POP POP POP JUMP JUMPDEST PUSH1 0x60 PUSH2 0x2DD0 PUSH2 0x440E JUMP JUMPDEST PUSH20 0xFFFFFFFFFFFFFFFFFFFFFFFFFFFFFFFFFFFFFFFF AND PUSH4 0xA0DA06B5 ADDRESS DUP5 PUSH1 0x40 MLOAD DUP4 PUSH4 0xFFFFFFFF AND PUSH1 0xE0 SHL DUP2 MSTORE PUSH1 0x4 ADD PUSH2 0x2E0A SWAP3 SWAP2 SWAP1 PUSH2 0x5ACD JUMP JUMPDEST PUSH1 0x0 PUSH1 0x40 MLOAD DUP1 DUP4 SUB DUP2 DUP7 GAS STATICCALL ISZERO DUP1 ISZERO PUSH2 0x2E27 JUMPI RETURNDATASIZE PUSH1 0x0 DUP1 RETURNDATACOPY RETURNDATASIZE PUSH1 0x0 REVERT JUMPDEST POP POP POP POP PUSH1 0x40 MLOAD RETURNDATASIZE PUSH1 0x0 DUP3 RETURNDATACOPY RETURNDATASIZE PUSH1 0x1F NOT PUSH1 0x1F DUP3 ADD AND DUP3 ADD DUP1 PUSH1 0x40 MSTORE POP DUP2 ADD SWAP1 PUSH2 0x2E50 SWAP2 SWAP1 PUSH2 0x76AF JUMP JUMPDEST SWAP1 POP SWAP2 SWAP1 POP JUMP JUMPDEST PUSH2 0x2E60 DUP3 PUSH2 0x10EB JUMP JUMPDEST PUSH2 0x2E69 DUP2 PUSH2 0x3B63 JUMP JUMPDEST PUSH2 0x2E73 DUP4 DUP4 PUSH2 0x3C58 JUMP JUMPDEST POP POP POP JUMP JUMPDEST PUSH32 0xB0A2731DA0D1E322A29F18FC41490DA7914E8245C4E7D00155B630B2FBE50293 PUSH2 0x2EA2 DUP2 PUSH2 0x3B63 JUMP JUMPDEST DUP2 PUSH2 0x1C7 DUP2 SWAP1 SSTORE POP POP POP JUMP JUMPDEST PUSH2 0x1D0 SLOAD DUP2 JUMP JUMPDEST PUSH32 0xB0A2731DA0D1E322A29F18FC41490DA7914E8245C4E7D00155B630B2FBE50293 PUSH2 0x2EDF DUP2 PUSH2 0x3B63 JUMP JUMPDEST DUP2 PUSH2 0x1C6 DUP2 SWAP1 SSTORE POP POP POP JUMP JUMPDEST PUSH1 0x0 PUSH1 0x9C PUSH1 0x0 DUP5 PUSH20 0xFFFFFFFFFFFFFFFFFFFFFFFFFFFFFFFFFFFFFFFF AND PUSH20 0xFFFFFFFFFFFFFFFFFFFFFFFFFFFFFFFFFFFFFFFF AND DUP2 MSTORE PUSH1 0x20 ADD SWAP1 DUP2 MSTORE PUSH1 0x20 ADD PUSH1 0x0 KECCAK256 PUSH1 0x0 DUP4 PUSH20 0xFFFFFFFFFFFFFFFFFFFFFFFFFFFFFFFFFFFFFFFF AND PUSH20 0xFFFFFFFFFFFFFFFFFFFFFFFFFFFFFFFFFFFFFFFF AND DUP2 MSTORE PUSH1 0x20 ADD SWAP1 DUP2 MSTORE PUSH1 0x20 ADD PUSH1 0x0 KECCAK256 PUSH1 0x0 SWAP1 SLOAD SWAP1 PUSH2 0x100 EXP SWAP1 DIV PUSH1 0xFF AND SWAP1 POP SWAP3 SWAP2 POP POP JUMP JUMPDEST PUSH2 0x1C5 PUSH1 0x0 SWAP1 SLOAD SWAP1 PUSH2 0x100 EXP SWAP1 DIV PUSH20 0xFFFFFFFFFFFFFFFFFFFFFFFFFFFFFFFFFFFFFFFF AND DUP2 JUMP JUMPDEST PUSH2 0x1CC PUSH1 0x20 MSTORE DUP2 PUSH1 0x0 MSTORE PUSH1 0x40 PUSH1 0x0 KECCAK256 DUP2 DUP2 SLOAD DUP2 LT PUSH2 0x2FC3 JUMPI PUSH1 0x0 DUP1 REVERT JUMPDEST SWAP1 PUSH1 0x0 MSTORE PUSH1 0x20 PUSH1 0x0 KECCAK256 ADD PUSH1 0x0 SWAP2 POP SWAP2 POP POP SLOAD DUP2 JUMP JUMPDEST PUSH2 0x2FE0 PUSH2 0x42F7 JUMP JUMPDEST PUSH1 0x0 PUSH20 0xFFFFFFFFFFFFFFFFFFFFFFFFFFFFFFFFFFFFFFFF AND DUP2 PUSH20 0xFFFFFFFFFFFFFFFFFFFFFFFFFFFFFFFFFFFFFFFF AND SUB PUSH2 0x304F JUMPI PUSH1 0x40 MLOAD PUSH32 0x8C379A000000000000000000000000000000000000000000000000000000000 DUP2 MSTORE PUSH1 0x4 ADD PUSH2 0x3046 SWAP1 PUSH2 0x776A JUMP JUMPDEST PUSH1 0x40 MLOAD DUP1 SWAP2 SUB SWAP1 REVERT JUMPDEST PUSH2 0x3058 DUP2 PUSH2 0x404F JUMP JUMPDEST POP JUMP JUMPDEST PUSH1 0x0 CALLER SWAP1 POP DUP4 PUSH2 0x1D2 PUSH1 0x0 DUP5 PUSH20 0xFFFFFFFFFFFFFFFFFFFFFFFFFFFFFFFFFFFFFFFF AND PUSH20 0xFFFFFFFFFFFFFFFFFFFFFFFFFFFFFFFFFFFFFFFF AND DUP2 MSTORE PUSH1 0x20 ADD SWAP1 DUP2 MSTORE PUSH1 0x20 ADD PUSH1 0x0 KECCAK256 SLOAD LT ISZERO PUSH2 0x30E3 JUMPI PUSH1 0x40 MLOAD PUSH32 0x8C379A000000000000000000000000000000000000000000000000000000000 DUP2 MSTORE PUSH1 0x4 ADD PUSH2 0x30DA SWAP1 PUSH2 0x77FC JUMP JUMPDEST PUSH1 0x40 MLOAD DUP1 SWAP2 SUB SWAP1 REVERT JUMPDEST PUSH2 0x1C7 SLOAD TIMESTAMP LT ISZERO PUSH2 0x3129 JUMPI PUSH1 0x40 MLOAD PUSH32 0x8C379A000000000000000000000000000000000000000000000000000000000 DUP2 MSTORE PUSH1 0x4 ADD PUSH2 0x3120 SWAP1 PUSH2 0x7868 JUMP JUMPDEST PUSH1 0x40 MLOAD DUP1 SWAP2 SUB SWAP1 REVERT JUMPDEST PUSH2 0x1C8 SLOAD TIMESTAMP GT ISZERO PUSH2 0x316F JUMPI PUSH1 0x40 MLOAD PUSH32 0x8C379A000000000000000000000000000000000000000000000000000000000 DUP2 MSTORE PUSH1 0x4 ADD PUSH2 0x3166 SWAP1 PUSH2 0x78D4 JUMP JUMPDEST PUSH1 0x40 MLOAD DUP1 SWAP2 SUB SWAP1 REVERT JUMPDEST PUSH1 0x0 PUSH2 0x1CD SLOAD GT ISZERO PUSH2 0x3204 JUMPI PUSH2 0x1CD SLOAD PUSH2 0x1CC PUSH1 0x0 DUP5 PUSH20 0xFFFFFFFFFFFFFFFFFFFFFFFFFFFFFFFFFFFFFFFF AND PUSH20 0xFFFFFFFFFFFFFFFFFFFFFFFFFFFFFFFFFFFFFFFF AND DUP2 MSTORE PUSH1 0x20 ADD SWAP1 DUP2 MSTORE PUSH1 0x20 ADD PUSH1 0x0 KECCAK256 DUP1 SLOAD SWAP1 POP LT PUSH2 0x3203 JUMPI PUSH1 0x40 MLOAD PUSH32 0x8C379A000000000000000000000000000000000000000000000000000000000 DUP2 MSTORE PUSH1 0x4 ADD PUSH2 0x31FA SWAP1 PUSH2 0x7940 JUMP JUMPDEST PUSH1 0x40 MLOAD DUP1 SWAP2 SUB SWAP1 REVERT JUMPDEST JUMPDEST PUSH1 0x0 PUSH2 0x320E PUSH2 0x440E JUMP JUMPDEST PUSH20 0xFFFFFFFFFFFFFFFFFFFFFFFFFFFFFFFFFFFFFFFF AND PUSH4 0x86C2B83D ADDRESS DUP7 PUSH1 0x40 MLOAD DUP4 PUSH4 0xFFFFFFFF AND PUSH1 0xE0 SHL DUP2 MSTORE PUSH1 0x4 ADD PUSH2 0x3248 SWAP3 SWAP2 SWAP1 PUSH2 0x721F JUMP JUMPDEST PUSH1 0x60 PUSH1 0x40 MLOAD DUP1 DUP4 SUB DUP2 DUP7 GAS STATICCALL ISZERO DUP1 ISZERO PUSH2 0x3265 JUMPI RETURNDATASIZE PUSH1 0x0 DUP1 RETURNDATACOPY RETURNDATASIZE PUSH1 0x0 REVERT JUMPDEST POP POP POP POP PUSH1 0x40 MLOAD RETURNDATASIZE PUSH1 0x1F NOT PUSH1 0x1F DUP3 ADD AND DUP3 ADD DUP1 PUSH1 0x40 MSTORE POP DUP2 ADD SWAP1 PUSH2 0x3289 SWAP2 SWAP1 PUSH2 0x72C6 JUMP JUMPDEST SWAP1 POP PUSH1 0x0 DUP2 PUSH1 0x20 ADD MLOAD GT PUSH2 0x32D2 JUMPI PUSH1 0x40 MLOAD PUSH32 0x8C379A000000000000000000000000000000000000000000000000000000000 DUP2 MSTORE PUSH1 0x4 ADD PUSH2 0x32C9 SWAP1 PUSH2 0x733F JUMP JUMPDEST PUSH1 0x40 MLOAD DUP1 SWAP2 SUB SWAP1 REVERT JUMPDEST PUSH1 0x0 PUSH2 0x1CB PUSH1 0x0 DUP7 PUSH1 0xFF AND PUSH1 0xFF AND DUP2 MSTORE PUSH1 0x20 ADD SWAP1 DUP2 MSTORE PUSH1 0x20 ADD PUSH1 0x0 KECCAK256 SLOAD SWAP1 POP PUSH1 0x0 DUP7 DUP3 PUSH2 0x32FF SWAP2 SWAP1 PUSH2 0x6D81 JUMP JUMPDEST SWAP1 POP DUP1 DUP4 PUSH1 0x20 ADD MLOAD LT ISZERO PUSH2 0x3348 JUMPI PUSH1 0x40 MLOAD PUSH32 0x8C379A000000000000000000000000000000000000000000000000000000000 DUP2 MSTORE PUSH1 0x4 ADD PUSH2 0x333F SWAP1 PUSH2 0x73AB JUMP JUMPDEST PUSH1 0x40 MLOAD DUP1 SWAP2 SUB SWAP1 REVERT JUMPDEST PUSH1 0x0 DUP8 DUP5 PUSH1 0x40 ADD MLOAD PUSH2 0x335A SWAP2 SWAP1 PUSH2 0x69E4 JUMP JUMPDEST SWAP1 POP PUSH2 0x1C9 PUSH1 0x0 SWAP1 SLOAD SWAP1 PUSH2 0x100 EXP SWAP1 DIV PUSH20 0xFFFFFFFFFFFFFFFFFFFFFFFFFFFFFFFFFFFFFFFF AND PUSH20 0xFFFFFFFFFFFFFFFFFFFFFFFFFFFFFFFFFFFFFFFF AND PUSH4 0x70A08231 DUP7 PUSH1 0x40 MLOAD DUP3 PUSH4 0xFFFFFFFF AND PUSH1 0xE0 SHL DUP2 MSTORE PUSH1 0x4 ADD PUSH2 0x33B8 SWAP2 SWAP1 PUSH2 0x5896 JUMP JUMPDEST PUSH1 0x20 PUSH1 0x40 MLOAD DUP1 DUP4 SUB DUP2 DUP7 GAS STATICCALL ISZERO DUP1 ISZERO PUSH2 0x33D5 JUMPI RETURNDATASIZE PUSH1 0x0 DUP1 RETURNDATACOPY RETURNDATASIZE PUSH1 0x0 REVERT JUMPDEST POP POP POP POP PUSH1 0x40 MLOAD RETURNDATASIZE PUSH1 0x1F NOT PUSH1 0x1F DUP3 ADD AND DUP3 ADD DUP1 PUSH1 0x40 MSTORE POP DUP2 ADD SWAP1 PUSH2 0x33F9 SWAP2 SWAP1 PUSH2 0x6C51 JUMP JUMPDEST DUP2 GT ISZERO PUSH2 0x343B JUMPI PUSH1 0x40 MLOAD PUSH32 0x8C379A000000000000000000000000000000000000000000000000000000000 DUP2 MSTORE PUSH1 0x4 ADD PUSH2 0x3432 SWAP1 PUSH2 0x79D2 JUMP JUMPDEST PUSH1 0x40 MLOAD DUP1 SWAP2 SUB SWAP1 REVERT JUMPDEST PUSH2 0x1C9 PUSH1 0x0 SWAP1 SLOAD SWAP1 PUSH2 0x100 EXP SWAP1 DIV PUSH20 0xFFFFFFFFFFFFFFFFFFFFFFFFFFFFFFFFFFFFFFFF AND PUSH20 0xFFFFFFFFFFFFFFFFFFFFFFFFFFFFFFFFFFFFFFFF AND PUSH4 0x23B872DD DUP7 PUSH2 0x1C5 PUSH1 0x0 SWAP1 SLOAD SWAP1 PUSH2 0x100 EXP SWAP1 DIV PUSH20 0xFFFFFFFFFFFFFFFFFFFFFFFFFFFFFFFFFFFFFFFF AND DUP5 PUSH1 0x40 MLOAD DUP5 PUSH4 0xFFFFFFFF AND PUSH1 0xE0 SHL DUP2 MSTORE PUSH1 0x4 ADD PUSH2 0x34BE SWAP4 SWAP3 SWAP2 SWAP1 PUSH2 0x79F2 JUMP JUMPDEST PUSH1 0x20 PUSH1 0x40 MLOAD DUP1 DUP4 SUB DUP2 PUSH1 0x0 DUP8 GAS CALL ISZERO DUP1 ISZERO PUSH2 0x34DD JUMPI RETURNDATASIZE PUSH1 0x0 DUP1 RETURNDATACOPY RETURNDATASIZE PUSH1 0x0 REVERT JUMPDEST POP POP POP POP PUSH1 0x40 MLOAD RETURNDATASIZE PUSH1 0x1F NOT PUSH1 0x1F DUP3 ADD AND DUP3 ADD DUP1 PUSH1 0x40 MSTORE POP DUP2 ADD SWAP1 PUSH2 0x3501 SWAP2 SWAP1 PUSH2 0x6C93 JUMP JUMPDEST POP DUP8 PUSH2 0x1D2 PUSH1 0x0 DUP9 PUSH20 0xFFFFFFFFFFFFFFFFFFFFFFFFFFFFFFFFFFFFFFFF AND PUSH20 0xFFFFFFFFFFFFFFFFFFFFFFFFFFFFFFFFFFFFFFFF AND DUP2 MSTORE PUSH1 0x20 ADD SWAP1 DUP2 MSTORE PUSH1 0x20 ADD PUSH1 0x0 KECCAK256 PUSH1 0x0 DUP3 DUP3 SLOAD PUSH2 0x3552 SWAP2 SWAP1 PUSH2 0x7A29 JUMP JUMPDEST SWAP3 POP POP DUP2 SWAP1 SSTORE POP DUP8 PUSH2 0x1D1 PUSH1 0x0 DUP3 DUP3 SLOAD PUSH2 0x356C SWAP2 SWAP1 PUSH2 0x6D81 JUMP JUMPDEST SWAP3 POP POP DUP2 SWAP1 SSTORE POP DUP2 PUSH2 0x1CB PUSH1 0x0 DUP10 PUSH1 0xFF AND PUSH1 0xFF AND DUP2 MSTORE PUSH1 0x20 ADD SWAP1 DUP2 MSTORE PUSH1 0x20 ADD PUSH1 0x0 KECCAK256 DUP2 SWAP1 SSTORE POP PUSH1 0x0 JUMPDEST DUP9 DUP2 LT ISZERO PUSH2 0x36A2 JUMPI PUSH1 0x0 PUSH2 0x35AA PUSH2 0x1CA PUSH2 0x44A7 JUMP JUMPDEST SWAP1 POP PUSH2 0x35B7 PUSH2 0x1CA PUSH2 0x44B5 JUMP JUMPDEST PUSH2 0x35C1 DUP9 DUP3 PUSH2 0x44CB JUMP JUMPDEST PUSH2 0x1CC PUSH1 0x0 DUP10 PUSH20 0xFFFFFFFFFFFFFFFFFFFFFFFFFFFFFFFFFFFFFFFF AND PUSH20 0xFFFFFFFFFFFFFFFFFFFFFFFFFFFFFFFFFFFFFFFF AND DUP2 MSTORE PUSH1 0x20 ADD SWAP1 DUP2 MSTORE PUSH1 0x20 ADD PUSH1 0x0 KECCAK256 DUP2 SWAP1 DUP1 PUSH1 0x1 DUP2 SLOAD ADD DUP1 DUP3 SSTORE DUP1 SWAP2 POP POP PUSH1 0x1 SWAP1 SUB SWAP1 PUSH1 0x0 MSTORE PUSH1 0x20 PUSH1 0x0 KECCAK256 ADD PUSH1 0x0 SWAP1 SWAP2 SWAP1 SWAP2 SWAP1 SWAP2 POP SSTORE DUP9 PUSH2 0x1CE PUSH1 0x0 DUP4 DUP2 MSTORE PUSH1 0x20 ADD SWAP1 DUP2 MSTORE PUSH1 0x20 ADD PUSH1 0x0 KECCAK256 PUSH1 0x0 PUSH2 0x100 EXP DUP2 SLOAD DUP2 PUSH1 0xFF MUL NOT AND SWAP1 DUP4 PUSH1 0xFF AND MUL OR SWAP1 SSTORE POP PUSH32 0xD5054BA42059BE88C66C1A10236E5A0CEA44D10897996E6040B6F41C57BE1342 DUP9 DUP3 DUP12 PUSH1 0x40 MLOAD PUSH2 0x3688 SWAP4 SWAP3 SWAP2 SWAP1 PUSH2 0x73FC JUMP JUMPDEST PUSH1 0x40 MLOAD DUP1 SWAP2 SUB SWAP1 LOG1 POP DUP1 PUSH2 0x369B SWAP1 PUSH2 0x6DB5 JUMP JUMPDEST SWAP1 POP PUSH2 0x3595 JUMP JUMPDEST POP POP POP POP POP POP POP POP POP JUMP JUMPDEST PUSH1 0x0 PUSH2 0x36B8 DUP3 PUSH2 0x46C6 JUMP JUMPDEST SWAP1 POP SWAP2 SWAP1 POP JUMP JUMPDEST PUSH2 0x36C8 DUP2 PUSH2 0x4740 JUMP JUMPDEST PUSH2 0x3707 JUMPI PUSH1 0x40 MLOAD PUSH32 0x8C379A000000000000000000000000000000000000000000000000000000000 DUP2 MSTORE PUSH1 0x4 ADD PUSH2 0x36FE SWAP1 PUSH2 0x6FC3 JUMP JUMPDEST PUSH1 0x40 MLOAD DUP1 SWAP2 SUB SWAP1 REVERT JUMPDEST POP JUMP JUMPDEST PUSH1 0x0 CALLER SWAP1 POP SWAP1 JUMP JUMPDEST DUP2 PUSH1 0x9B PUSH1 0x0 DUP4 DUP2 MSTORE PUSH1 0x20 ADD SWAP1 DUP2 MSTORE PUSH1 0x20 ADD PUSH1 0x0 KECCAK256 PUSH1 0x0 PUSH2 0x100 EXP DUP2 SLOAD DUP2 PUSH20 0xFFFFFFFFFFFFFFFFFFFFFFFFFFFFFFFFFFFFFFFF MUL NOT AND SWAP1 DUP4 PUSH20 0xFFFFFFFFFFFFFFFFFFFFFFFFFFFFFFFFFFFFFFFF AND MUL OR SWAP1 SSTORE POP DUP1 DUP3 PUSH20 0xFFFFFFFFFFFFFFFFFFFFFFFFFFFFFFFFFFFFFFFF AND PUSH2 0x3785 DUP4 PUSH2 0x1E63 JUMP JUMPDEST PUSH20 0xFFFFFFFFFFFFFFFFFFFFFFFFFFFFFFFFFFFFFFFF AND PUSH32 0x8C5BE1E5EBEC7D5BD14F71427D1E84F3DD0314C0F7B2291E5B200AC8C7C3B925 PUSH1 0x40 MLOAD PUSH1 0x40 MLOAD DUP1 SWAP2 SUB SWAP1 LOG4 POP POP JUMP JUMPDEST PUSH1 0x0 DUP1 PUSH2 0x37D7 DUP4 PUSH2 0x1E63 JUMP JUMPDEST SWAP1 POP DUP1 PUSH20 0xFFFFFFFFFFFFFFFFFFFFFFFFFFFFFFFFFFFFFFFF AND DUP5 PUSH20 0xFFFFFFFFFFFFFFFFFFFFFFFFFFFFFFFFFFFFFFFF AND EQ DUP1 PUSH2 0x3819 JUMPI POP PUSH2 0x3818 DUP2 DUP6 PUSH2 0x2EEB JUMP JUMPDEST JUMPDEST DUP1 PUSH2 0x3857 JUMPI POP DUP4 PUSH20 0xFFFFFFFFFFFFFFFFFFFFFFFFFFFFFFFFFFFFFFFF AND PUSH2 0x383F DUP5 PUSH2 0xF2E JUMP JUMPDEST PUSH20 0xFFFFFFFFFFFFFFFFFFFFFFFFFFFFFFFFFFFFFFFF AND EQ JUMPDEST SWAP2 POP POP SWAP3 SWAP2 POP POP JUMP JUMPDEST DUP3 PUSH20 0xFFFFFFFFFFFFFFFFFFFFFFFFFFFFFFFFFFFFFFFF AND PUSH2 0x3880 DUP3 PUSH2 0x1E63 JUMP JUMPDEST PUSH20 0xFFFFFFFFFFFFFFFFFFFFFFFFFFFFFFFFFFFFFFFF AND EQ PUSH2 0x38D6 JUMPI PUSH1 0x40 MLOAD PUSH32 0x8C379A000000000000000000000000000000000000000000000000000000000 DUP2 MSTORE PUSH1 0x4 ADD PUSH2 0x38CD SWAP1 PUSH2 0x7ACF JUMP JUMPDEST PUSH1 0x40 MLOAD DUP1 SWAP2 SUB SWAP1 REVERT JUMPDEST PUSH1 0x0 PUSH20 0xFFFFFFFFFFFFFFFFFFFFFFFFFFFFFFFFFFFFFFFF AND DUP3 PUSH20 0xFFFFFFFFFFFFFFFFFFFFFFFFFFFFFFFFFFFFFFFF AND SUB PUSH2 0x3945 JUMPI PUSH1 0x40 MLOAD PUSH32 0x8C379A000000000000000000000000000000000000000000000000000000000 DUP2 MSTORE PUSH1 0x4 ADD PUSH2 0x393C SWAP1 PUSH2 0x7B61 JUMP JUMPDEST PUSH1 0x40 MLOAD DUP1 SWAP2 SUB SWAP1 REVERT JUMPDEST PUSH2 0x3952 DUP4 DUP4 DUP4 PUSH1 0x1 PUSH2 0x4781 JUMP JUMPDEST DUP3 PUSH20 0xFFFFFFFFFFFFFFFFFFFFFFFFFFFFFFFFFFFFFFFF AND PUSH2 0x3972 DUP3 PUSH2 0x1E63 JUMP JUMPDEST PUSH20 0xFFFFFFFFFFFFFFFFFFFFFFFFFFFFFFFFFFFFFFFF AND EQ PUSH2 0x39C8 JUMPI PUSH1 0x40 MLOAD PUSH32 0x8C379A000000000000000000000000000000000000000000000000000000000 DUP2 MSTORE PUSH1 0x4 ADD PUSH2 0x39BF SWAP1 PUSH2 0x7ACF JUMP JUMPDEST PUSH1 0x40 MLOAD DUP1 SWAP2 SUB SWAP1 REVERT JUMPDEST PUSH1 0x9B PUSH1 0x0 DUP3 DUP2 MSTORE PUSH1 0x20 ADD SWAP1 DUP2 MSTORE PUSH1 0x20 ADD PUSH1 0x0 KECCAK256 PUSH1 0x0 PUSH2 0x100 EXP DUP2 SLOAD SWAP1 PUSH20 0xFFFFFFFFFFFFFFFFFFFFFFFFFFFFFFFFFFFFFFFF MUL NOT AND SWAP1 SSTORE PUSH1 0x1 PUSH1 0x9A PUSH1 0x0 DUP6 PUSH20 0xFFFFFFFFFFFFFFFFFFFFFFFFFFFFFFFFFFFFFFFF AND PUSH20 0xFFFFFFFFFFFFFFFFFFFFFFFFFFFFFFFFFFFFFFFF AND DUP2 MSTORE PUSH1 0x20 ADD SWAP1 DUP2 MSTORE PUSH1 0x20 ADD PUSH1 0x0 KECCAK256 PUSH1 0x0 DUP3 DUP3 SLOAD SUB SWAP3 POP POP DUP2 SWAP1 SSTORE POP PUSH1 0x1 PUSH1 0x9A PUSH1 0x0 DUP5 PUSH20 0xFFFFFFFFFFFFFFFFFFFFFFFFFFFFFFFFFFFFFFFF AND PUSH20 0xFFFFFFFFFFFFFFFFFFFFFFFFFFFFFFFFFFFFFFFF AND DUP2 MSTORE PUSH1 0x20 ADD SWAP1 DUP2 MSTORE PUSH1 0x20 ADD PUSH1 0x0 KECCAK256 PUSH1 0x0 DUP3 DUP3 SLOAD ADD SWAP3 POP POP DUP2 SWAP1 SSTORE POP DUP2 PUSH1 0x99 PUSH1 0x0 DUP4 DUP2 MSTORE PUSH1 0x20 ADD SWAP1 DUP2 MSTORE PUSH1 0x20 ADD PUSH1 0x0 KECCAK256 PUSH1 0x0 PUSH2 0x100 EXP DUP2 SLOAD DUP2 PUSH20 0xFFFFFFFFFFFFFFFFFFFFFFFFFFFFFFFFFFFFFFFF MUL NOT AND SWAP1 DUP4 PUSH20 0xFFFFFFFFFFFFFFFFFFFFFFFFFFFFFFFFFFFFFFFF AND MUL OR SWAP1 SSTORE POP DUP1 DUP3 PUSH20 0xFFFFFFFFFFFFFFFFFFFFFFFFFFFFFFFFFFFFFFFF AND DUP5 PUSH20 0xFFFFFFFFFFFFFFFFFFFFFFFFFFFFFFFFFFFFFFFF AND PUSH32 0xDDF252AD1BE2C89B69C2B068FC378DAA952BA7F163C4A11628F55A4DF523B3EF PUSH1 0x40 MLOAD PUSH1 0x40 MLOAD DUP1 SWAP2 SUB SWAP1 LOG4 PUSH2 0x3B54 DUP4 DUP4 DUP4 PUSH1 0x1 PUSH2 0x48A7 JUMP JUMPDEST POP POP POP JUMP JUMPDEST PUSH1 0x0 PUSH2 0x2710 SWAP1 POP SWAP1 JUMP JUMPDEST PUSH2 0x3B74 DUP2 PUSH2 0x3B6F PUSH2 0x370A JUMP JUMPDEST PUSH2 0x48AD JUMP JUMPDEST POP JUMP JUMPDEST PUSH2 0x3B81 DUP3 DUP3 PUSH2 0x2253 JUMP JUMPDEST PUSH2 0x3C54 JUMPI PUSH1 0x1 PUSH1 0xC9 PUSH1 0x0 DUP5 DUP2 MSTORE PUSH1 0x20 ADD SWAP1 DUP2 MSTORE PUSH1 0x20 ADD PUSH1 0x0 KECCAK256 PUSH1 0x0 ADD PUSH1 0x0 DUP4 PUSH20 0xFFFFFFFFFFFFFFFFFFFFFFFFFFFFFFFFFFFFFFFF AND PUSH20 0xFFFFFFFFFFFFFFFFFFFFFFFFFFFFFFFFFFFFFFFF AND DUP2 MSTORE PUSH1 0x20 ADD SWAP1 DUP2 MSTORE PUSH1 0x20 ADD PUSH1 0x0 KECCAK256 PUSH1 0x0 PUSH2 0x100 EXP DUP2 SLOAD DUP2 PUSH1 0xFF MUL NOT AND SWAP1 DUP4 ISZERO ISZERO MUL OR SWAP1 SSTORE POP PUSH2 0x3BF9 PUSH2 0x370A JUMP JUMPDEST PUSH20 0xFFFFFFFFFFFFFFFFFFFFFFFFFFFFFFFFFFFFFFFF AND DUP2 PUSH20 0xFFFFFFFFFFFFFFFFFFFFFFFFFFFFFFFFFFFFFFFF AND DUP4 PUSH32 0x2F8788117E7EFF1D82E926EC794901D17C78024A50270940304540A733656F0D PUSH1 0x40 MLOAD PUSH1 0x40 MLOAD DUP1 SWAP2 SUB SWAP1 LOG4 JUMPDEST POP POP JUMP JUMPDEST PUSH2 0x3C62 DUP3 DUP3 PUSH2 0x2253 JUMP JUMPDEST ISZERO PUSH2 0x3D36 JUMPI PUSH1 0x0 PUSH1 0xC9 PUSH1 0x0 DUP5 DUP2 MSTORE PUSH1 0x20 ADD SWAP1 DUP2 MSTORE PUSH1 0x20 ADD PUSH1 0x0 KECCAK256 PUSH1 0x0 ADD PUSH1 0x0 DUP4 PUSH20 0xFFFFFFFFFFFFFFFFFFFFFFFFFFFFFFFFFFFFFFFF AND PUSH20 0xFFFFFFFFFFFFFFFFFFFFFFFFFFFFFFFFFFFFFFFF AND DUP2 MSTORE PUSH1 0x20 ADD SWAP1 DUP2 MSTORE PUSH1 0x20 ADD PUSH1 0x0 KECCAK256 PUSH1 0x0 PUSH2 0x100 EXP DUP2 SLOAD DUP2 PUSH1 0xFF MUL NOT AND SWAP1 DUP4 ISZERO ISZERO MUL OR SWAP1 SSTORE POP PUSH2 0x3CDB PUSH2 0x370A JUMP JUMPDEST PUSH20 0xFFFFFFFFFFFFFFFFFFFFFFFFFFFFFFFFFFFFFFFF AND DUP2 PUSH20 0xFFFFFFFFFFFFFFFFFFFFFFFFFFFFFFFFFFFFFFFF AND DUP4 PUSH32 0xF6391F5C32D9C69D2A47EA670B442974B53935D1EDC7FD64EB21E047A839171B PUSH1 0x40 MLOAD PUSH1 0x40 MLOAD DUP1 SWAP2 SUB SWAP1 LOG4 JUMPDEST POP POP JUMP JUMPDEST PUSH1 0x0 PUSH2 0x3D68 PUSH32 0x360894A13BA1A3210667C828492DB98DCA3E2076CC3735A920A3CA505D382BBC PUSH1 0x0 SHL PUSH2 0x4932 JUMP JUMPDEST PUSH1 0x0 ADD PUSH1 0x0 SWAP1 SLOAD SWAP1 PUSH2 0x100 EXP SWAP1 DIV PUSH20 0xFFFFFFFFFFFFFFFFFFFFFFFFFFFFFFFFFFFFFFFF AND SWAP1 POP SWAP1 JUMP JUMPDEST PUSH32 0xA49807205CE4D355092EF5A8A18F56E8913CF4A201FBE287825B095693C21775 PUSH2 0x3DBB DUP2 PUSH2 0x3B63 JUMP JUMPDEST POP POP JUMP JUMPDEST PUSH2 0x3DEB PUSH32 0x4910FDFA16FED3260ED0E7147F7CC6DA11A60208B5B9406D12A635614FFD9143 PUSH1 0x0 SHL PUSH2 0x493C JUMP JUMPDEST PUSH1 0x0 ADD PUSH1 0x0 SWAP1 SLOAD SWAP1 PUSH2 0x100 EXP SWAP1 DIV PUSH1 0xFF AND ISZERO PUSH2 0x3E0F JUMPI PUSH2 0x3E0A DUP4 PUSH2 0x4946 JUMP JUMPDEST PUSH2 0x3F28 JUMP JUMPDEST DUP3 PUSH20 0xFFFFFFFFFFFFFFFFFFFFFFFFFFFFFFFFFFFFFFFF AND PUSH4 0x52D1902D PUSH1 0x40 MLOAD DUP2 PUSH4 0xFFFFFFFF AND PUSH1 0xE0 SHL DUP2 MSTORE PUSH1 0x4 ADD PUSH1 0x20 PUSH1 0x40 MLOAD DUP1 DUP4 SUB DUP2 DUP7 GAS STATICCALL SWAP3 POP POP POP DUP1 ISZERO PUSH2 0x3E77 JUMPI POP PUSH1 0x40 MLOAD RETURNDATASIZE PUSH1 0x1F NOT PUSH1 0x1F DUP3 ADD AND DUP3 ADD DUP1 PUSH1 0x40 MSTORE POP DUP2 ADD SWAP1 PUSH2 0x3E74 SWAP2 SWAP1 PUSH2 0x7B96 JUMP JUMPDEST PUSH1 0x1 JUMPDEST PUSH2 0x3EB6 JUMPI PUSH1 0x40 MLOAD PUSH32 0x8C379A000000000000000000000000000000000000000000000000000000000 DUP2 MSTORE PUSH1 0x4 ADD PUSH2 0x3EAD SWAP1 PUSH2 0x7C35 JUMP JUMPDEST PUSH1 0x40 MLOAD DUP1 SWAP2 SUB SWAP1 REVERT JUMPDEST PUSH32 0x360894A13BA1A3210667C828492DB98DCA3E2076CC3735A920A3CA505D382BBC PUSH1 0x0 SHL DUP2 EQ PUSH2 0x3F1B JUMPI PUSH1 0x40 MLOAD PUSH32 0x8C379A000000000000000000000000000000000000000000000000000000000 DUP2 MSTORE PUSH1 0x4 ADD PUSH2 0x3F12 SWAP1 PUSH2 0x7CC7 JUMP JUMPDEST PUSH1 0x40 MLOAD DUP1 SWAP2 SUB SWAP1 REVERT JUMPDEST POP PUSH2 0x3F27 DUP4 DUP4 DUP4 PUSH2 0x49FF JUMP JUMPDEST JUMPDEST POP POP POP JUMP JUMPDEST PUSH1 0x0 DUP1 DUP3 PUSH20 0xFFFFFFFFFFFFFFFFFFFFFFFFFFFFFFFFFFFFFFFF AND EXTCODESIZE GT SWAP1 POP SWAP2 SWAP1 POP JUMP JUMPDEST PUSH1 0x0 PUSH1 0x1 SWAP1 SLOAD SWAP1 PUSH2 0x100 EXP SWAP1 DIV PUSH1 0xFF AND PUSH2 0x3F9F JUMPI PUSH1 0x40 MLOAD PUSH32 0x8C379A000000000000000000000000000000000000000000000000000000000 DUP2 MSTORE PUSH1 0x4 ADD PUSH2 0x3F96 SWAP1 PUSH2 0x7D59 JUMP JUMPDEST PUSH1 0x40 MLOAD DUP1 SWAP2 SUB SWAP1 REVERT JUMPDEST PUSH2 0x3FA9 DUP3 DUP3 PUSH2 0x4A2B JUMP JUMPDEST POP POP JUMP JUMPDEST PUSH1 0x0 PUSH1 0x1 SWAP1 SLOAD SWAP1 PUSH2 0x100 EXP SWAP1 DIV PUSH1 0xFF AND PUSH2 0x3FFC JUMPI PUSH1 0x40 MLOAD PUSH32 0x8C379A000000000000000000000000000000000000000000000000000000000 DUP2 MSTORE PUSH1 0x4 ADD PUSH2 0x3FF3 SWAP1 PUSH2 0x7D59 JUMP JUMPDEST PUSH1 0x40 MLOAD DUP1 SWAP2 SUB SWAP1 REVERT JUMPDEST JUMP JUMPDEST PUSH1 0x0 PUSH1 0x1 SWAP1 SLOAD SWAP1 PUSH2 0x100 EXP SWAP1 DIV PUSH1 0xFF AND PUSH2 0x404D JUMPI PUSH1 0x40 MLOAD PUSH32 0x8C379A000000000000000000000000000000000000000000000000000000000 DUP2 MSTORE PUSH1 0x4 ADD PUSH2 0x4044 SWAP1 PUSH2 0x7D59 JUMP JUMPDEST PUSH1 0x40 MLOAD DUP1 SWAP2 SUB SWAP1 REVERT JUMPDEST JUMP JUMPDEST PUSH1 0x0 PUSH2 0x191 PUSH1 0x0 SWAP1 SLOAD SWAP1 PUSH2 0x100 EXP SWAP1 DIV PUSH20 0xFFFFFFFFFFFFFFFFFFFFFFFFFFFFFFFFFFFFFFFF AND SWAP1 POP DUP2 PUSH2 0x191 PUSH1 0x0 PUSH2 0x100 EXP DUP2 SLOAD DUP2 PUSH20 0xFFFFFFFFFFFFFFFFFFFFFFFFFFFFFFFFFFFFFFFF MUL NOT AND SWAP1 DUP4 PUSH20 0xFFFFFFFFFFFFFFFFFFFFFFFFFFFFFFFFFFFFFFFF AND MUL OR SWAP1 SSTORE POP DUP2 PUSH20 0xFFFFFFFFFFFFFFFFFFFFFFFFFFFFFFFFFFFFFFFF AND DUP2 PUSH20 0xFFFFFFFFFFFFFFFFFFFFFFFFFFFFFFFFFFFFFFFF AND PUSH32 0x8BE0079C531659141344CD1FD0A4F28419497F9722A3DAAFE3B4186F6B6457E0 PUSH1 0x40 MLOAD PUSH1 0x40 MLOAD DUP1 SWAP2 SUB SWAP1 LOG3 POP POP JUMP JUMPDEST PUSH2 0x4121 DUP3 DUP3 PUSH2 0x3B77 JUMP JUMPDEST POP POP JUMP JUMPDEST PUSH1 0x0 PUSH1 0x99 PUSH1 0x0 DUP4 DUP2 MSTORE PUSH1 0x20 ADD SWAP1 DUP2 MSTORE PUSH1 0x20 ADD PUSH1 0x0 KECCAK256 PUSH1 0x0 SWAP1 SLOAD SWAP1 PUSH2 0x100 EXP SWAP1 DIV PUSH20 0xFFFFFFFFFFFFFFFFFFFFFFFFFFFFFFFFFFFFFFFF AND SWAP1 POP SWAP2 SWAP1 POP JUMP JUMPDEST PUSH2 0x416A PUSH2 0x3B59 JUMP JUMPDEST PUSH12 0xFFFFFFFFFFFFFFFFFFFFFFFF AND DUP2 PUSH12 0xFFFFFFFFFFFFFFFFFFFFFFFF AND GT ISZERO PUSH2 0x41C8 JUMPI PUSH1 0x40 MLOAD PUSH32 0x8C379A000000000000000000000000000000000000000000000000000000000 DUP2 MSTORE PUSH1 0x4 ADD PUSH2 0x41BF SWAP1 PUSH2 0x7DEB JUMP JUMPDEST PUSH1 0x40 MLOAD DUP1 SWAP2 SUB SWAP1 REVERT JUMPDEST PUSH1 0x0 PUSH20 0xFFFFFFFFFFFFFFFFFFFFFFFFFFFFFFFFFFFFFFFF AND DUP3 PUSH20 0xFFFFFFFFFFFFFFFFFFFFFFFFFFFFFFFFFFFFFFFF AND SUB PUSH2 0x4237 JUMPI PUSH1 0x40 MLOAD PUSH32 0x8C379A000000000000000000000000000000000000000000000000000000000 DUP2 MSTORE PUSH1 0x4 ADD PUSH2 0x422E SWAP1 PUSH2 0x7E57 JUMP JUMPDEST PUSH1 0x40 MLOAD DUP1 SWAP2 SUB SWAP1 REVERT JUMPDEST PUSH1 0x40 MLOAD DUP1 PUSH1 0x40 ADD PUSH1 0x40 MSTORE DUP1 DUP4 PUSH20 0xFFFFFFFFFFFFFFFFFFFFFFFFFFFFFFFFFFFFFFFF AND DUP2 MSTORE PUSH1 0x20 ADD DUP3 PUSH12 0xFFFFFFFFFFFFFFFFFFFFFFFF AND DUP2 MSTORE POP PUSH1 0x65 PUSH1 0x0 DUP3 ADD MLOAD DUP2 PUSH1 0x0 ADD PUSH1 0x0 PUSH2 0x100 EXP DUP2 SLOAD DUP2 PUSH20 0xFFFFFFFFFFFFFFFFFFFFFFFFFFFFFFFFFFFFFFFF MUL NOT AND SWAP1 DUP4 PUSH20 0xFFFFFFFFFFFFFFFFFFFFFFFFFFFFFFFFFFFFFFFF AND MUL OR SWAP1 SSTORE POP PUSH1 0x20 DUP3 ADD MLOAD DUP2 PUSH1 0x0 ADD PUSH1 0x14 PUSH2 0x100 EXP DUP2 SLOAD DUP2 PUSH12 0xFFFFFFFFFFFFFFFFFFFFFFFF MUL NOT AND SWAP1 DUP4 PUSH12 0xFFFFFFFFFFFFFFFFFFFFFFFF AND MUL OR SWAP1 SSTORE POP SWAP1 POP POP POP POP JUMP JUMPDEST PUSH2 0x42FF PUSH2 0x370A JUMP JUMPDEST PUSH20 0xFFFFFFFFFFFFFFFFFFFFFFFFFFFFFFFFFFFFFFFF AND PUSH2 0x431D PUSH2 0x2184 JUMP JUMPDEST PUSH20 0xFFFFFFFFFFFFFFFFFFFFFFFFFFFFFFFFFFFFFFFF AND EQ PUSH2 0x4373 JUMPI PUSH1 0x40 MLOAD PUSH32 0x8C379A000000000000000000000000000000000000000000000000000000000 DUP2 MSTORE PUSH1 0x4 ADD PUSH2 0x436A SWAP1 PUSH2 0x7EC3 JUMP JUMPDEST PUSH1 0x40 MLOAD DUP1 SWAP2 SUB SWAP1 REVERT JUMPDEST JUMP JUMPDEST PUSH1 0x0 PUSH2 0x1D4 PUSH1 0x0 SWAP1 SLOAD SWAP1 PUSH2 0x100 EXP SWAP1 DIV PUSH20 0xFFFFFFFFFFFFFFFFFFFFFFFFFFFFFFFFFFFFFFFF AND PUSH20 0xFFFFFFFFFFFFFFFFFFFFFFFFFFFFFFFFFFFFFFFF AND PUSH4 0x71EFEDE9 PUSH1 0x40 MLOAD DUP2 PUSH4 0xFFFFFFFF AND PUSH1 0xE0 SHL DUP2 MSTORE PUSH1 0x4 ADD PUSH1 0x20 PUSH1 0x40 MLOAD DUP1 DUP4 SUB DUP2 DUP7 GAS STATICCALL ISZERO DUP1 ISZERO PUSH2 0x43E5 JUMPI RETURNDATASIZE PUSH1 0x0 DUP1 RETURNDATACOPY RETURNDATASIZE PUSH1 0x0 REVERT JUMPDEST POP POP POP POP PUSH1 0x40 MLOAD RETURNDATASIZE PUSH1 0x1F NOT PUSH1 0x1F DUP3 ADD AND DUP3 ADD DUP1 PUSH1 0x40 MSTORE POP DUP2 ADD SWAP1 PUSH2 0x4409 SWAP2 SWAP1 PUSH2 0x7EF8 JUMP JUMPDEST SWAP1 POP SWAP1 JUMP JUMPDEST PUSH1 0x0 PUSH2 0x1D4 PUSH1 0x0 SWAP1 SLOAD SWAP1 PUSH2 0x100 EXP SWAP1 DIV PUSH20 0xFFFFFFFFFFFFFFFFFFFFFFFFFFFFFFFFFFFFFFFF AND PUSH20 0xFFFFFFFFFFFFFFFFFFFFFFFFFFFFFFFFFFFFFFFF AND PUSH4 0x9EE984BA PUSH1 0x40 MLOAD DUP2 PUSH4 0xFFFFFFFF AND PUSH1 0xE0 SHL DUP2 MSTORE PUSH1 0x4 ADD PUSH1 0x20 PUSH1 0x40 MLOAD DUP1 DUP4 SUB DUP2 DUP7 GAS STATICCALL ISZERO DUP1 ISZERO PUSH2 0x447E JUMPI RETURNDATASIZE PUSH1 0x0 DUP1 RETURNDATACOPY RETURNDATASIZE PUSH1 0x0 REVERT JUMPDEST POP POP POP POP PUSH1 0x40 MLOAD RETURNDATASIZE PUSH1 0x1F NOT PUSH1 0x1F DUP3 ADD AND DUP3 ADD DUP1 PUSH1 0x40 MSTORE POP DUP2 ADD SWAP1 PUSH2 0x44A2 SWAP2 SWAP1 PUSH2 0x7EF8 JUMP JUMPDEST SWAP1 POP SWAP1 JUMP JUMPDEST PUSH1 0x0 DUP2 PUSH1 0x0 ADD SLOAD SWAP1 POP SWAP2 SWAP1 POP JUMP JUMPDEST PUSH1 0x1 DUP2 PUSH1 0x0 ADD PUSH1 0x0 DUP3 DUP3 SLOAD ADD SWAP3 POP POP DUP2 SWAP1 SSTORE POP POP JUMP JUMPDEST PUSH2 0x44E5 DUP3 DUP3 PUSH1 0x40 MLOAD DUP1 PUSH1 0x20 ADD PUSH1 0x40 MSTORE DUP1 PUSH1 0x0 DUP2 MSTORE POP PUSH2 0x4A9E JUMP JUMPDEST POP POP JUMP JUMPDEST DUP2 PUSH20 0xFFFFFFFFFFFFFFFFFFFFFFFFFFFFFFFFFFFFFFFF AND DUP4 PUSH20 0xFFFFFFFFFFFFFFFFFFFFFFFFFFFFFFFFFFFFFFFF AND SUB PUSH2 0x4557 JUMPI PUSH1 0x40 MLOAD PUSH32 0x8C379A000000000000000000000000000000000000000000000000000000000 DUP2 MSTORE PUSH1 0x4 ADD PUSH2 0x454E SWAP1 PUSH2 0x7F71 JUMP JUMPDEST PUSH1 0x40 MLOAD DUP1 SWAP2 SUB SWAP1 REVERT JUMPDEST DUP1 PUSH1 0x9C PUSH1 0x0 DUP6 PUSH20 0xFFFFFFFFFFFFFFFFFFFFFFFFFFFFFFFFFFFFFFFF AND PUSH20 0xFFFFFFFFFFFFFFFFFFFFFFFFFFFFFFFFFFFFFFFF AND DUP2 MSTORE PUSH1 0x20 ADD SWAP1 DUP2 MSTORE PUSH1 0x20 ADD PUSH1 0x0 KECCAK256 PUSH1 0x0 DUP5 PUSH20 0xFFFFFFFFFFFFFFFFFFFFFFFFFFFFFFFFFFFFFFFF AND PUSH20 0xFFFFFFFFFFFFFFFFFFFFFFFFFFFFFFFFFFFFFFFF AND DUP2 MSTORE PUSH1 0x20 ADD SWAP1 DUP2 MSTORE PUSH1 0x20 ADD PUSH1 0x0 KECCAK256 PUSH1 0x0 PUSH2 0x100 EXP DUP2 SLOAD DUP2 PUSH1 0xFF MUL NOT AND SWAP1 DUP4 ISZERO ISZERO MUL OR SWAP1 SSTORE POP DUP2 PUSH20 0xFFFFFFFFFFFFFFFFFFFFFFFFFFFFFFFFFFFFFFFF AND DUP4 PUSH20 0xFFFFFFFFFFFFFFFFFFFFFFFFFFFFFFFFFFFFFFFF AND PUSH32 0x17307EAB39AB6107E8899845AD3D59BD9653F200F220920489CA2B5937696C31 DUP4 PUSH1 0x40 MLOAD PUSH2 0x4648 SWAP2 SWAP1 PUSH2 0x5725 JUMP JUMPDEST PUSH1 0x40 MLOAD DUP1 SWAP2 SUB SWAP1 LOG3 POP POP POP JUMP JUMPDEST PUSH2 0x465E DUP2 PUSH2 0x4AF9 JUMP JUMPDEST PUSH2 0x4667 DUP2 PUSH2 0x4B0E JUMP JUMPDEST POP JUMP JUMPDEST PUSH2 0x4675 DUP5 DUP5 DUP5 PUSH2 0x3860 JUMP JUMPDEST PUSH2 0x4681 DUP5 DUP5 DUP5 DUP5 PUSH2 0x4B6D JUMP JUMPDEST PUSH2 0x46C0 JUMPI PUSH1 0x40 MLOAD PUSH32 0x8C379A000000000000000000000000000000000000000000000000000000000 DUP2 MSTORE PUSH1 0x4 ADD PUSH2 0x46B7 SWAP1 PUSH2 0x8003 JUMP JUMPDEST PUSH1 0x40 MLOAD DUP1 SWAP2 SUB SWAP1 REVERT JUMPDEST POP POP POP POP JUMP JUMPDEST PUSH1 0x0 PUSH32 0x7965DB0B00000000000000000000000000000000000000000000000000000000 PUSH28 0xFFFFFFFFFFFFFFFFFFFFFFFFFFFFFFFFFFFFFFFFFFFFFFFFFFFFFFFF NOT AND DUP3 PUSH28 0xFFFFFFFFFFFFFFFFFFFFFFFFFFFFFFFFFFFFFFFFFFFFFFFFFFFFFFFF NOT AND EQ DUP1 PUSH2 0x4739 JUMPI POP PUSH2 0x4738 DUP3 PUSH2 0x4CF4 JUMP JUMPDEST JUMPDEST SWAP1 POP SWAP2 SWAP1 POP JUMP JUMPDEST PUSH1 0x0 DUP1 PUSH20 0xFFFFFFFFFFFFFFFFFFFFFFFFFFFFFFFFFFFFFFFF AND PUSH2 0x4762 DUP4 PUSH2 0x4125 JUMP JUMPDEST PUSH20 0xFFFFFFFFFFFFFFFFFFFFFFFFFFFFFFFFFFFFFFFF AND EQ ISZERO SWAP1 POP SWAP2 SWAP1 POP JUMP JUMPDEST PUSH1 0x1 DUP2 GT ISZERO PUSH2 0x48A1 JUMPI PUSH1 0x0 PUSH20 0xFFFFFFFFFFFFFFFFFFFFFFFFFFFFFFFFFFFFFFFF AND DUP5 PUSH20 0xFFFFFFFFFFFFFFFFFFFFFFFFFFFFFFFFFFFFFFFF AND EQ PUSH2 0x4815 JUMPI DUP1 PUSH1 0x9A PUSH1 0x0 DUP7 PUSH20 0xFFFFFFFFFFFFFFFFFFFFFFFFFFFFFFFFFFFFFFFF AND PUSH20 0xFFFFFFFFFFFFFFFFFFFFFFFFFFFFFFFFFFFFFFFF AND DUP2 MSTORE PUSH1 0x20 ADD SWAP1 DUP2 MSTORE PUSH1 0x20 ADD PUSH1 0x0 KECCAK256 PUSH1 0x0 DUP3 DUP3 SLOAD PUSH2 0x480D SWAP2 SWAP1 PUSH2 0x7A29 JUMP JUMPDEST SWAP3 POP POP DUP2 SWAP1 SSTORE POP JUMPDEST PUSH1 0x0 PUSH20 0xFFFFFFFFFFFFFFFFFFFFFFFFFFFFFFFFFFFFFFFF AND DUP4 PUSH20 0xFFFFFFFFFFFFFFFFFFFFFFFFFFFFFFFFFFFFFFFF AND EQ PUSH2 0x48A0 JUMPI DUP1 PUSH1 0x9A PUSH1 0x0 DUP6 PUSH20 0xFFFFFFFFFFFFFFFFFFFFFFFFFFFFFFFFFFFFFFFF AND PUSH20 0xFFFFFFFFFFFFFFFFFFFFFFFFFFFFFFFFFFFFFFFF AND DUP2 MSTORE PUSH1 0x20 ADD SWAP1 DUP2 MSTORE PUSH1 0x20 ADD PUSH1 0x0 KECCAK256 PUSH1 0x0 DUP3 DUP3 SLOAD PUSH2 0x4898 SWAP2 SWAP1 PUSH2 0x6D81 JUMP JUMPDEST SWAP3 POP POP DUP2 SWAP1 SSTORE POP JUMPDEST JUMPDEST POP POP POP POP JUMP JUMPDEST POP POP POP POP JUMP JUMPDEST PUSH2 0x48B7 DUP3 DUP3 PUSH2 0x2253 JUMP JUMPDEST PUSH2 0x492E JUMPI PUSH2 0x48C4 DUP2 PUSH2 0x4DD6 JUMP JUMPDEST PUSH2 0x48D2 DUP4 PUSH1 0x0 SHR PUSH1 0x20 PUSH2 0x4E03 JUMP JUMPDEST PUSH1 0x40 MLOAD PUSH1 0x20 ADD PUSH2 0x48E3 SWAP3 SWAP2 SWAP1 PUSH2 0x80F7 JUMP JUMPDEST PUSH1 0x40 MLOAD PUSH1 0x20 DUP2 DUP4 SUB SUB DUP2 MSTORE SWAP1 PUSH1 0x40 MSTORE PUSH1 0x40 MLOAD PUSH32 0x8C379A000000000000000000000000000000000000000000000000000000000 DUP2 MSTORE PUSH1 0x4 ADD PUSH2 0x4925 SWAP2 SWAP1 PUSH2 0x57D0 JUMP JUMPDEST PUSH1 0x40 MLOAD DUP1 SWAP2 SUB SWAP1 REVERT JUMPDEST POP POP JUMP JUMPDEST PUSH1 0x0 DUP2 SWAP1 POP SWAP2 SWAP1 POP JUMP JUMPDEST PUSH1 0x0 DUP2 SWAP1 POP SWAP2 SWAP1 POP JUMP JUMPDEST PUSH2 0x494F DUP2 PUSH2 0x3F2D JUMP JUMPDEST PUSH2 0x498E JUMPI PUSH1 0x40 MLOAD PUSH32 0x8C379A000000000000000000000000000000000000000000000000000000000 DUP2 MSTORE PUSH1 0x4 ADD PUSH2 0x4985 SWAP1 PUSH2 0x81A3 JUMP JUMPDEST PUSH1 0x40 MLOAD DUP1 SWAP2 SUB SWAP1 REVERT JUMPDEST DUP1 PUSH2 0x49BB PUSH32 0x360894A13BA1A3210667C828492DB98DCA3E2076CC3735A920A3CA505D382BBC PUSH1 0x0 SHL PUSH2 0x4932 JUMP JUMPDEST PUSH1 0x0 ADD PUSH1 0x0 PUSH2 0x100 EXP DUP2 SLOAD DUP2 PUSH20 0xFFFFFFFFFFFFFFFFFFFFFFFFFFFFFFFFFFFFFFFF MUL NOT AND SWAP1 DUP4 PUSH20 0xFFFFFFFFFFFFFFFFFFFFFFFFFFFFFFFFFFFFFFFF AND MUL OR SWAP1 SSTORE POP POP JUMP JUMPDEST PUSH2 0x4A08 DUP4 PUSH2 0x503F JUMP JUMPDEST PUSH1 0x0 DUP3 MLOAD GT DUP1 PUSH2 0x4A15 JUMPI POP DUP1 JUMPDEST ISZERO PUSH2 0x4A26 JUMPI PUSH2 0x4A24 DUP4 DUP4 PUSH2 0x508E JUMP JUMPDEST POP JUMPDEST POP POP POP JUMP JUMPDEST PUSH1 0x0 PUSH1 0x1 SWAP1 SLOAD SWAP1 PUSH2 0x100 EXP SWAP1 DIV PUSH1 0xFF AND PUSH2 0x4A7A JUMPI PUSH1 0x40 MLOAD PUSH32 0x8C379A000000000000000000000000000000000000000000000000000000000 DUP2 MSTORE PUSH1 0x4 ADD PUSH2 0x4A71 SWAP1 PUSH2 0x7D59 JUMP JUMPDEST PUSH1 0x40 MLOAD DUP1 SWAP2 SUB SWAP1 REVERT JUMPDEST DUP2 PUSH1 0x97 SWAP1 DUP2 PUSH2 0x4A89 SWAP2 SWAP1 PUSH2 0x8365 JUMP JUMPDEST POP DUP1 PUSH1 0x98 SWAP1 DUP2 PUSH2 0x4A99 SWAP2 SWAP1 PUSH2 0x8365 JUMP JUMPDEST POP POP POP JUMP JUMPDEST PUSH2 0x4AA8 DUP4 DUP4 PUSH2 0x5172 JUMP JUMPDEST PUSH2 0x4AB5 PUSH1 0x0 DUP5 DUP5 DUP5 PUSH2 0x4B6D JUMP JUMPDEST PUSH2 0x4AF4 JUMPI PUSH1 0x40 MLOAD PUSH32 0x8C379A000000000000000000000000000000000000000000000000000000000 DUP2 MSTORE PUSH1 0x4 ADD PUSH2 0x4AEB SWAP1 PUSH2 0x8003 JUMP JUMPDEST PUSH1 0x40 MLOAD DUP1 SWAP2 SUB SWAP1 REVERT JUMPDEST POP POP POP JUMP JUMPDEST PUSH2 0x4B02 DUP2 PUSH2 0x538F JUMP JUMPDEST PUSH2 0x4B0B DUP2 PUSH2 0x4B0E JUMP JUMPDEST POP JUMP JUMPDEST PUSH1 0x66 PUSH1 0x0 DUP3 DUP2 MSTORE PUSH1 0x20 ADD SWAP1 DUP2 MSTORE PUSH1 0x20 ADD PUSH1 0x0 KECCAK256 PUSH1 0x0 DUP1 DUP3 ADD PUSH1 0x0 PUSH2 0x100 EXP DUP2 SLOAD SWAP1 PUSH20 0xFFFFFFFFFFFFFFFFFFFFFFFFFFFFFFFFFFFFFFFF MUL NOT AND SWAP1 SSTORE PUSH1 0x0 DUP3 ADD PUSH1 0x14 PUSH2 0x100 EXP DUP2 SLOAD SWAP1 PUSH12 0xFFFFFFFFFFFFFFFFFFFFFFFF MUL NOT AND SWAP1 SSTORE POP POP POP JUMP JUMPDEST PUSH1 0x0 PUSH2 0x4B8E DUP5 PUSH20 0xFFFFFFFFFFFFFFFFFFFFFFFFFFFFFFFFFFFFFFFF AND PUSH2 0x3F2D JUMP JUMPDEST ISZERO PUSH2 0x4CE7 JUMPI DUP4 PUSH20 0xFFFFFFFFFFFFFFFFFFFFFFFFFFFFFFFFFFFFFFFF AND PUSH4 0x150B7A02 PUSH2 0x4BB7 PUSH2 0x370A JUMP JUMPDEST DUP8 DUP7 DUP7 PUSH1 0x40 MLOAD DUP6 PUSH4 0xFFFFFFFF AND PUSH1 0xE0 SHL DUP2 MSTORE PUSH1 0x4 ADD PUSH2 0x4BD9 SWAP5 SWAP4 SWAP3 SWAP2 SWAP1 PUSH2 0x848C JUMP JUMPDEST PUSH1 0x20 PUSH1 0x40 MLOAD DUP1 DUP4 SUB DUP2 PUSH1 0x0 DUP8 GAS CALL SWAP3 POP POP POP DUP1 ISZERO PUSH2 0x4C15 JUMPI POP PUSH1 0x40 MLOAD RETURNDATASIZE PUSH1 0x1F NOT PUSH1 0x1F DUP3 ADD AND DUP3 ADD DUP1 PUSH1 0x40 MSTORE POP DUP2 ADD SWAP1 PUSH2 0x4C12 SWAP2 SWAP1 PUSH2 0x84ED JUMP JUMPDEST PUSH1 0x1 JUMPDEST PUSH2 0x4C97 JUMPI RETURNDATASIZE DUP1 PUSH1 0x0 DUP2 EQ PUSH2 0x4C45 JUMPI PUSH1 0x40 MLOAD SWAP2 POP PUSH1 0x1F NOT PUSH1 0x3F RETURNDATASIZE ADD AND DUP3 ADD PUSH1 0x40 MSTORE RETURNDATASIZE DUP3 MSTORE RETURNDATASIZE PUSH1 0x0 PUSH1 0x20 DUP5 ADD RETURNDATACOPY PUSH2 0x4C4A JUMP JUMPDEST PUSH1 0x60 SWAP2 POP JUMPDEST POP PUSH1 0x0 DUP2 MLOAD SUB PUSH2 0x4C8F JUMPI PUSH1 0x40 MLOAD PUSH32 0x8C379A000000000000000000000000000000000000000000000000000000000 DUP2 MSTORE PUSH1 0x4 ADD PUSH2 0x4C86 SWAP1 PUSH2 0x8003 JUMP JUMPDEST PUSH1 0x40 MLOAD DUP1 SWAP2 SUB SWAP1 REVERT JUMPDEST DUP1 MLOAD DUP2 PUSH1 0x20 ADD REVERT JUMPDEST PUSH4 0x150B7A02 PUSH1 0xE0 SHL PUSH28 0xFFFFFFFFFFFFFFFFFFFFFFFFFFFFFFFFFFFFFFFFFFFFFFFFFFFFFFFF NOT AND DUP2 PUSH28 0xFFFFFFFFFFFFFFFFFFFFFFFFFFFFFFFFFFFFFFFFFFFFFFFFFFFFFFFF NOT AND EQ SWAP2 POP POP PUSH2 0x4CEC JUMP JUMPDEST PUSH1 0x1 SWAP1 POP JUMPDEST SWAP5 SWAP4 POP POP POP POP JUMP JUMPDEST PUSH1 0x0 PUSH32 0x80AC58CD00000000000000000000000000000000000000000000000000000000 PUSH28 0xFFFFFFFFFFFFFFFFFFFFFFFFFFFFFFFFFFFFFFFFFFFFFFFFFFFFFFFF NOT AND DUP3 PUSH28 0xFFFFFFFFFFFFFFFFFFFFFFFFFFFFFFFFFFFFFFFFFFFFFFFFFFFFFFFF NOT AND EQ DUP1 PUSH2 0x4DBF JUMPI POP PUSH32 0x5B5E139F00000000000000000000000000000000000000000000000000000000 PUSH28 0xFFFFFFFFFFFFFFFFFFFFFFFFFFFFFFFFFFFFFFFFFFFFFFFFFFFFFFFF NOT AND DUP3 PUSH28 0xFFFFFFFFFFFFFFFFFFFFFFFFFFFFFFFFFFFFFFFFFFFFFFFFFFFFFFFF NOT AND EQ JUMPDEST DUP1 PUSH2 0x4DCF JUMPI POP PUSH2 0x4DCE DUP3 PUSH2 0x54DD JUMP JUMPDEST JUMPDEST SWAP1 POP SWAP2 SWAP1 POP JUMP JUMPDEST PUSH1 0x60 PUSH2 0x4DFC DUP3 PUSH20 0xFFFFFFFFFFFFFFFFFFFFFFFFFFFFFFFFFFFFFFFF AND PUSH1 0x14 PUSH1 0xFF AND PUSH2 0x4E03 JUMP JUMPDEST SWAP1 POP SWAP2 SWAP1 POP JUMP JUMPDEST PUSH1 0x60 PUSH1 0x0 PUSH1 0x2 DUP4 PUSH1 0x2 PUSH2 0x4E16 SWAP2 SWAP1 PUSH2 0x69E4 JUMP JUMPDEST PUSH2 0x4E20 SWAP2 SWAP1 PUSH2 0x6D81 JUMP JUMPDEST PUSH8 0xFFFFFFFFFFFFFFFF DUP2 GT ISZERO PUSH2 0x4E39 JUMPI PUSH2 0x4E38 PUSH2 0x5C2C JUMP JUMPDEST JUMPDEST PUSH1 0x40 MLOAD SWAP1 DUP1 DUP3 MSTORE DUP1 PUSH1 0x1F ADD PUSH1 0x1F NOT AND PUSH1 0x20 ADD DUP3 ADD PUSH1 0x40 MSTORE DUP1 ISZERO PUSH2 0x4E6B JUMPI DUP2 PUSH1 0x20 ADD PUSH1 0x1 DUP3 MUL DUP1 CALLDATASIZE DUP4 CALLDATACOPY DUP1 DUP3 ADD SWAP2 POP POP SWAP1 POP JUMPDEST POP SWAP1 POP PUSH32 0x3000000000000000000000000000000000000000000000000000000000000000 DUP2 PUSH1 0x0 DUP2 MLOAD DUP2 LT PUSH2 0x4EA3 JUMPI PUSH2 0x4EA2 PUSH2 0x6D52 JUMP JUMPDEST JUMPDEST PUSH1 0x20 ADD ADD SWAP1 PUSH31 0xFFFFFFFFFFFFFFFFFFFFFFFFFFFFFFFFFFFFFFFFFFFFFFFFFFFFFFFFFFFFFF NOT AND SWAP1 DUP2 PUSH1 0x0 BYTE SWAP1 MSTORE8 POP PUSH32 0x7800000000000000000000000000000000000000000000000000000000000000 DUP2 PUSH1 0x1 DUP2 MLOAD DUP2 LT PUSH2 0x4F07 JUMPI PUSH2 0x4F06 PUSH2 0x6D52 JUMP JUMPDEST JUMPDEST PUSH1 0x20 ADD ADD SWAP1 PUSH31 0xFFFFFFFFFFFFFFFFFFFFFFFFFFFFFFFFFFFFFFFFFFFFFFFFFFFFFFFFFFFFFF NOT AND SWAP1 DUP2 PUSH1 0x0 BYTE SWAP1 MSTORE8 POP PUSH1 0x0 PUSH1 0x1 DUP5 PUSH1 0x2 PUSH2 0x4F47 SWAP2 SWAP1 PUSH2 0x69E4 JUMP JUMPDEST PUSH2 0x4F51 SWAP2 SWAP1 PUSH2 0x6D81 JUMP JUMPDEST SWAP1 POP JUMPDEST PUSH1 0x1 DUP2 GT ISZERO PUSH2 0x4FF1 JUMPI PUSH32 0x3031323334353637383961626364656600000000000000000000000000000000 PUSH1 0xF DUP7 AND PUSH1 0x10 DUP2 LT PUSH2 0x4F93 JUMPI PUSH2 0x4F92 PUSH2 0x6D52 JUMP JUMPDEST JUMPDEST BYTE PUSH1 0xF8 SHL DUP3 DUP3 DUP2 MLOAD DUP2 LT PUSH2 0x4FAA JUMPI PUSH2 0x4FA9 PUSH2 0x6D52 JUMP JUMPDEST JUMPDEST PUSH1 0x20 ADD ADD SWAP1 PUSH31 0xFFFFFFFFFFFFFFFFFFFFFFFFFFFFFFFFFFFFFFFFFFFFFFFFFFFFFFFFFFFFFF NOT AND SWAP1 DUP2 PUSH1 0x0 BYTE SWAP1 MSTORE8 POP PUSH1 0x4 DUP6 SWAP1 SHR SWAP5 POP DUP1 PUSH2 0x4FEA SWAP1 PUSH2 0x851A JUMP JUMPDEST SWAP1 POP PUSH2 0x4F54 JUMP JUMPDEST POP PUSH1 0x0 DUP5 EQ PUSH2 0x5035 JUMPI PUSH1 0x40 MLOAD PUSH32 0x8C379A000000000000000000000000000000000000000000000000000000000 DUP2 MSTORE PUSH1 0x4 ADD PUSH2 0x502C SWAP1 PUSH2 0x858F JUMP JUMPDEST PUSH1 0x40 MLOAD DUP1 SWAP2 SUB SWAP1 REVERT JUMPDEST DUP1 SWAP2 POP POP SWAP3 SWAP2 POP POP JUMP JUMPDEST PUSH2 0x5048 DUP2 PUSH2 0x4946 JUMP JUMPDEST DUP1 PUSH20 0xFFFFFFFFFFFFFFFFFFFFFFFFFFFFFFFFFFFFFFFF AND PUSH32 0xBC7CD75A20EE27FD9ADEBAB32041F755214DBC6BFFA90CC0225B39DA2E5C2D3B PUSH1 0x40 MLOAD PUSH1 0x40 MLOAD DUP1 SWAP2 SUB SWAP1 LOG2 POP JUMP JUMPDEST PUSH1 0x60 PUSH2 0x5099 DUP4 PUSH2 0x3F2D JUMP JUMPDEST PUSH2 0x50D8 JUMPI PUSH1 0x40 MLOAD PUSH32 0x8C379A000000000000000000000000000000000000000000000000000000000 DUP2 MSTORE PUSH1 0x4 ADD PUSH2 0x50CF SWAP1 PUSH2 0x8621 JUMP JUMPDEST PUSH1 0x40 MLOAD DUP1 SWAP2 SUB SWAP1 REVERT JUMPDEST PUSH1 0x0 DUP1 DUP5 PUSH20 0xFFFFFFFFFFFFFFFFFFFFFFFFFFFFFFFFFFFFFFFF AND DUP5 PUSH1 0x40 MLOAD PUSH2 0x5100 SWAP2 SWAP1 PUSH2 0x867D JUMP JUMPDEST PUSH1 0x0 PUSH1 0x40 MLOAD DUP1 DUP4 SUB DUP2 DUP6 GAS DELEGATECALL SWAP2 POP POP RETURNDATASIZE DUP1 PUSH1 0x0 DUP2 EQ PUSH2 0x513B JUMPI PUSH1 0x40 MLOAD SWAP2 POP PUSH1 0x1F NOT PUSH1 0x3F RETURNDATASIZE ADD AND DUP3 ADD PUSH1 0x40 MSTORE RETURNDATASIZE DUP3 MSTORE RETURNDATASIZE PUSH1 0x0 PUSH1 0x20 DUP5 ADD RETURNDATACOPY PUSH2 0x5140 JUMP JUMPDEST PUSH1 0x60 SWAP2 POP JUMPDEST POP SWAP2 POP SWAP2 POP PUSH2 0x5168 DUP3 DUP3 PUSH1 0x40 MLOAD DUP1 PUSH1 0x60 ADD PUSH1 0x40 MSTORE DUP1 PUSH1 0x27 DUP2 MSTORE PUSH1 0x20 ADD PUSH2 0x876D PUSH1 0x27 SWAP2 CODECOPY PUSH2 0x5557 JUMP JUMPDEST SWAP3 POP POP POP SWAP3 SWAP2 POP POP JUMP JUMPDEST PUSH1 0x0 PUSH20 0xFFFFFFFFFFFFFFFFFFFFFFFFFFFFFFFFFFFFFFFF AND DUP3 PUSH20 0xFFFFFFFFFFFFFFFFFFFFFFFFFFFFFFFFFFFFFFFF AND SUB PUSH2 0x51E1 JUMPI PUSH1 0x40 MLOAD PUSH32 0x8C379A000000000000000000000000000000000000000000000000000000000 DUP2 MSTORE PUSH1 0x4 ADD PUSH2 0x51D8 SWAP1 PUSH2 0x86E0 JUMP JUMPDEST PUSH1 0x40 MLOAD DUP1 SWAP2 SUB SWAP1 REVERT JUMPDEST PUSH2 0x51EA DUP2 PUSH2 0x4740 JUMP JUMPDEST ISZERO PUSH2 0x522A JUMPI PUSH1 0x40 MLOAD PUSH32 0x8C379A000000000000000000000000000000000000000000000000000000000 DUP2 MSTORE PUSH1 0x4 ADD PUSH2 0x5221 SWAP1 PUSH2 0x874C JUMP JUMPDEST PUSH1 0x40 MLOAD DUP1 SWAP2 SUB SWAP1 REVERT JUMPDEST PUSH2 0x5238 PUSH1 0x0 DUP4 DUP4 PUSH1 0x1 PUSH2 0x4781 JUMP JUMPDEST PUSH2 0x5241 DUP2 PUSH2 0x4740 JUMP JUMPDEST ISZERO PUSH2 0x5281 JUMPI PUSH1 0x40 MLOAD PUSH32 0x8C379A000000000000000000000000000000000000000000000000000000000 DUP2 MSTORE PUSH1 0x4 ADD PUSH2 0x5278 SWAP1 PUSH2 0x874C JUMP JUMPDEST PUSH1 0x40 MLOAD DUP1 SWAP2 SUB SWAP1 REVERT JUMPDEST PUSH1 0x1 PUSH1 0x9A PUSH1 0x0 DUP5 PUSH20 0xFFFFFFFFFFFFFFFFFFFFFFFFFFFFFFFFFFFFFFFF AND PUSH20 0xFFFFFFFFFFFFFFFFFFFFFFFFFFFFFFFFFFFFFFFF AND DUP2 MSTORE PUSH1 0x20 ADD SWAP1 DUP2 MSTORE PUSH1 0x20 ADD PUSH1 0x0 KECCAK256 PUSH1 0x0 DUP3 DUP3 SLOAD ADD SWAP3 POP POP DUP2 SWAP1 SSTORE POP DUP2 PUSH1 0x99 PUSH1 0x0 DUP4 DUP2 MSTORE PUSH1 0x20 ADD SWAP1 DUP2 MSTORE PUSH1 0x20 ADD PUSH1 0x0 KECCAK256 PUSH1 0x0 PUSH2 0x100 EXP DUP2 SLOAD DUP2 PUSH20 0xFFFFFFFFFFFFFFFFFFFFFFFFFFFFFFFFFFFFFFFF MUL NOT AND SWAP1 DUP4 PUSH20 0xFFFFFFFFFFFFFFFFFFFFFFFFFFFFFFFFFFFFFFFF AND MUL OR SWAP1 SSTORE POP DUP1 DUP3 PUSH20 0xFFFFFFFFFFFFFFFFFFFFFFFFFFFFFFFFFFFFFFFF AND PUSH1 0x0 PUSH20 0xFFFFFFFFFFFFFFFFFFFFFFFFFFFFFFFFFFFFFFFF AND PUSH32 0xDDF252AD1BE2C89B69C2B068FC378DAA952BA7F163C4A11628F55A4DF523B3EF PUSH1 0x40 MLOAD PUSH1 0x40 MLOAD DUP1 SWAP2 SUB SWAP1 LOG4 PUSH2 0x538B PUSH1 0x0 DUP4 DUP4 PUSH1 0x1 PUSH2 0x48A7 JUMP JUMPDEST POP POP JUMP JUMPDEST PUSH1 0x0 PUSH2 0x539A DUP3 PUSH2 0x1E63 JUMP JUMPDEST SWAP1 POP PUSH2 0x53AA DUP2 PUSH1 0x0 DUP5 PUSH1 0x1 PUSH2 0x4781 JUMP JUMPDEST PUSH2 0x53B3 DUP3 PUSH2 0x1E63 JUMP JUMPDEST SWAP1 POP PUSH1 0x9B PUSH1 0x0 DUP4 DUP2 MSTORE PUSH1 0x20 ADD SWAP1 DUP2 MSTORE PUSH1 0x20 ADD PUSH1 0x0 KECCAK256 PUSH1 0x0 PUSH2 0x100 EXP DUP2 SLOAD SWAP1 PUSH20 0xFFFFFFFFFFFFFFFFFFFFFFFFFFFFFFFFFFFFFFFF MUL NOT AND SWAP1 SSTORE PUSH1 0x1 PUSH1 0x9A PUSH1 0x0 DUP4 PUSH20 0xFFFFFFFFFFFFFFFFFFFFFFFFFFFFFFFFFFFFFFFF AND PUSH20 0xFFFFFFFFFFFFFFFFFFFFFFFFFFFFFFFFFFFFFFFF AND DUP2 MSTORE PUSH1 0x20 ADD SWAP1 DUP2 MSTORE PUSH1 0x20 ADD PUSH1 0x0 KECCAK256 PUSH1 0x0 DUP3 DUP3 SLOAD SUB SWAP3 POP POP DUP2 SWAP1 SSTORE POP PUSH1 0x99 PUSH1 0x0 DUP4 DUP2 MSTORE PUSH1 0x20 ADD SWAP1 DUP2 MSTORE PUSH1 0x20 ADD PUSH1 0x0 KECCAK256 PUSH1 0x0 PUSH2 0x100 EXP DUP2 SLOAD SWAP1 PUSH20 0xFFFFFFFFFFFFFFFFFFFFFFFFFFFFFFFFFFFFFFFF MUL NOT AND SWAP1 SSTORE DUP2 PUSH1 0x0 PUSH20 0xFFFFFFFFFFFFFFFFFFFFFFFFFFFFFFFFFFFFFFFF AND DUP3 PUSH20 0xFFFFFFFFFFFFFFFFFFFFFFFFFFFFFFFFFFFFFFFF AND PUSH32 0xDDF252AD1BE2C89B69C2B068FC378DAA952BA7F163C4A11628F55A4DF523B3EF PUSH1 0x40 MLOAD PUSH1 0x40 MLOAD DUP1 SWAP2 SUB SWAP1 LOG4 PUSH2 0x54D9 DUP2 PUSH1 0x0 DUP5 PUSH1 0x1 PUSH2 0x48A7 JUMP JUMPDEST POP POP JUMP JUMPDEST PUSH1 0x0 PUSH32 0x2A55205A00000000000000000000000000000000000000000000000000000000 PUSH28 0xFFFFFFFFFFFFFFFFFFFFFFFFFFFFFFFFFFFFFFFFFFFFFFFFFFFFFFFF NOT AND DUP3 PUSH28 0xFFFFFFFFFFFFFFFFFFFFFFFFFFFFFFFFFFFFFFFFFFFFFFFFFFFFFFFF NOT AND EQ DUP1 PUSH2 0x5550 JUMPI POP PUSH2 0x554F DUP3 PUSH2 0x5579 JUMP JUMPDEST JUMPDEST SWAP1 POP SWAP2 SWAP1 POP JUMP JUMPDEST PUSH1 0x60 DUP4 ISZERO PUSH2 0x5567 JUMPI DUP3 SWAP1 POP PUSH2 0x5572 JUMP JUMPDEST PUSH2 0x5571 DUP4 DUP4 PUSH2 0x55E3 JUMP JUMPDEST JUMPDEST SWAP4 SWAP3 POP POP POP JUMP JUMPDEST PUSH1 0x0 PUSH32 0x1FFC9A700000000000000000000000000000000000000000000000000000000 PUSH28 0xFFFFFFFFFFFFFFFFFFFFFFFFFFFFFFFFFFFFFFFFFFFFFFFFFFFFFFFF NOT AND DUP3 PUSH28 0xFFFFFFFFFFFFFFFFFFFFFFFFFFFFFFFFFFFFFFFFFFFFFFFFFFFFFFFF NOT AND EQ SWAP1 POP SWAP2 SWAP1 POP JUMP JUMPDEST PUSH1 0x0 DUP3 MLOAD GT ISZERO PUSH2 0x55F6 JUMPI DUP2 MLOAD DUP1 DUP4 PUSH1 0x20 ADD REVERT JUMPDEST DUP1 PUSH1 0x40 MLOAD PUSH32 0x8C379A000000000000000000000000000000000000000000000000000000000 DUP2 MSTORE PUSH1 0x4 ADD PUSH2 0x562A SWAP2 SWAP1 PUSH2 0x57D0 JUMP JUMPDEST PUSH1 0x40 MLOAD DUP1 SWAP2 SUB SWAP1 REVERT JUMPDEST PUSH1 0x40 MLOAD DUP1 PUSH1 0x40 ADD PUSH1 0x40 MSTORE DUP1 PUSH1 0x0 DUP2 MSTORE PUSH1 0x20 ADD PUSH1 0x0 DUP2 MSTORE POP SWAP1 JUMP JUMPDEST PUSH1 0x40 MLOAD DUP1 PUSH1 0x60 ADD PUSH1 0x40 MSTORE DUP1 PUSH1 0x0 PUSH1 0xFF AND DUP2 MSTORE PUSH1 0x20 ADD PUSH1 0x0 DUP2 MSTORE PUSH1 0x20 ADD PUSH1 0x0 DUP2 MSTORE POP SWAP1 JUMP JUMPDEST PUSH1 0x0 PUSH1 0x40 MLOAD SWAP1 POP SWAP1 JUMP JUMPDEST PUSH1 0x0 DUP1 REVERT JUMPDEST PUSH1 0x0 DUP1 REVERT JUMPDEST PUSH1 0x0 PUSH32 0xFFFFFFFF00000000000000000000000000000000000000000000000000000000 DUP3 AND SWAP1 POP SWAP2 SWAP1 POP JUMP JUMPDEST PUSH2 0x56BA DUP2 PUSH2 0x5685 JUMP JUMPDEST DUP2 EQ PUSH2 0x56C5 JUMPI PUSH1 0x0 DUP1 REVERT JUMPDEST POP JUMP JUMPDEST PUSH1 0x0 DUP2 CALLDATALOAD SWAP1 POP PUSH2 0x56D7 DUP2 PUSH2 0x56B1 JUMP JUMPDEST SWAP3 SWAP2 POP POP JUMP JUMPDEST PUSH1 0x0 PUSH1 0x20 DUP3 DUP5 SUB SLT ISZERO PUSH2 0x56F3 JUMPI PUSH2 0x56F2 PUSH2 0x567B JUMP JUMPDEST JUMPDEST PUSH1 0x0 PUSH2 0x5701 DUP5 DUP3 DUP6 ADD PUSH2 0x56C8 JUMP JUMPDEST SWAP2 POP POP SWAP3 SWAP2 POP POP JUMP JUMPDEST PUSH1 0x0 DUP2 ISZERO ISZERO SWAP1 POP SWAP2 SWAP1 POP JUMP JUMPDEST PUSH2 0x571F DUP2 PUSH2 0x570A JUMP JUMPDEST DUP3 MSTORE POP POP JUMP JUMPDEST PUSH1 0x0 PUSH1 0x20 DUP3 ADD SWAP1 POP PUSH2 0x573A PUSH1 0x0 DUP4 ADD DUP5 PUSH2 0x5716 JUMP JUMPDEST SWAP3 SWAP2 POP POP JUMP JUMPDEST PUSH1 0x0 DUP2 MLOAD SWAP1 POP SWAP2 SWAP1 POP JUMP JUMPDEST PUSH1 0x0 DUP3 DUP3 MSTORE PUSH1 0x20 DUP3 ADD SWAP1 POP SWAP3 SWAP2 POP POP JUMP JUMPDEST PUSH1 0x0 JUMPDEST DUP4 DUP2 LT ISZERO PUSH2 0x577A JUMPI DUP1 DUP3 ADD MLOAD DUP2 DUP5 ADD MSTORE PUSH1 0x20 DUP2 ADD SWAP1 POP PUSH2 0x575F JUMP JUMPDEST PUSH1 0x0 DUP5 DUP5 ADD MSTORE POP POP POP POP JUMP JUMPDEST PUSH1 0x0 PUSH1 0x1F NOT PUSH1 0x1F DUP4 ADD AND SWAP1 POP SWAP2 SWAP1 POP JUMP JUMPDEST PUSH1 0x0 PUSH2 0x57A2 DUP3 PUSH2 0x5740 JUMP JUMPDEST PUSH2 0x57AC DUP2 DUP6 PUSH2 0x574B JUMP JUMPDEST SWAP4 POP PUSH2 0x57BC DUP2 DUP6 PUSH1 0x20 DUP7 ADD PUSH2 0x575C JUMP JUMPDEST PUSH2 0x57C5 DUP2 PUSH2 0x5786 JUMP JUMPDEST DUP5 ADD SWAP2 POP POP SWAP3 SWAP2 POP POP JUMP JUMPDEST PUSH1 0x0 PUSH1 0x20 DUP3 ADD SWAP1 POP DUP2 DUP2 SUB PUSH1 0x0 DUP4 ADD MSTORE PUSH2 0x57EA DUP2 DUP5 PUSH2 0x5797 JUMP JUMPDEST SWAP1 POP SWAP3 SWAP2 POP POP JUMP JUMPDEST PUSH1 0x0 DUP2 SWAP1 POP SWAP2 SWAP1 POP JUMP JUMPDEST PUSH2 0x5805 DUP2 PUSH2 0x57F2 JUMP JUMPDEST DUP2 EQ PUSH2 0x5810 JUMPI PUSH1 0x0 DUP1 REVERT JUMPDEST POP JUMP JUMPDEST PUSH1 0x0 DUP2 CALLDATALOAD SWAP1 POP PUSH2 0x5822 DUP2 PUSH2 0x57FC JUMP JUMPDEST SWAP3 SWAP2 POP POP JUMP JUMPDEST PUSH1 0x0 PUSH1 0x20 DUP3 DUP5 SUB SLT ISZERO PUSH2 0x583E JUMPI PUSH2 0x583D PUSH2 0x567B JUMP JUMPDEST JUMPDEST PUSH1 0x0 PUSH2 0x584C DUP5 DUP3 DUP6 ADD PUSH2 0x5813 JUMP JUMPDEST SWAP2 POP POP SWAP3 SWAP2 POP POP JUMP JUMPDEST PUSH1 0x0 PUSH20 0xFFFFFFFFFFFFFFFFFFFFFFFFFFFFFFFFFFFFFFFF DUP3 AND SWAP1 POP SWAP2 SWAP1 POP JUMP JUMPDEST PUSH1 0x0 PUSH2 0x5880 DUP3 PUSH2 0x5855 JUMP JUMPDEST SWAP1 POP SWAP2 SWAP1 POP JUMP JUMPDEST PUSH2 0x5890 DUP2 PUSH2 0x5875 JUMP JUMPDEST DUP3 MSTORE POP POP JUMP JUMPDEST PUSH1 0x0 PUSH1 0x20 DUP3 ADD SWAP1 POP PUSH2 0x58AB PUSH1 0x0 DUP4 ADD DUP5 PUSH2 0x5887 JUMP JUMPDEST SWAP3 SWAP2 POP POP JUMP JUMPDEST PUSH2 0x58BA DUP2 PUSH2 0x5875 JUMP JUMPDEST DUP2 EQ PUSH2 0x58C5 JUMPI PUSH1 0x0 DUP1 REVERT JUMPDEST POP JUMP JUMPDEST PUSH1 0x0 DUP2 CALLDATALOAD SWAP1 POP PUSH2 0x58D7 DUP2 PUSH2 0x58B1 JUMP JUMPDEST SWAP3 SWAP2 POP POP JUMP JUMPDEST PUSH1 0x0 DUP1 PUSH1 0x40 DUP4 DUP6 SUB SLT ISZERO PUSH2 0x58F4 JUMPI PUSH2 0x58F3 PUSH2 0x567B JUMP JUMPDEST JUMPDEST PUSH1 0x0 PUSH2 0x5902 DUP6 DUP3 DUP7 ADD PUSH2 0x58C8 JUMP JUMPDEST SWAP3 POP POP PUSH1 0x20 PUSH2 0x5913 DUP6 DUP3 DUP7 ADD PUSH2 0x5813 JUMP JUMPDEST SWAP2 POP POP SWAP3 POP SWAP3 SWAP1 POP JUMP JUMPDEST PUSH1 0x0 DUP1 PUSH1 0x0 PUSH1 0x60 DUP5 DUP7 SUB SLT ISZERO PUSH2 0x5936 JUMPI PUSH2 0x5935 PUSH2 0x567B JUMP JUMPDEST JUMPDEST PUSH1 0x0 PUSH2 0x5944 DUP7 DUP3 DUP8 ADD PUSH2 0x58C8 JUMP JUMPDEST SWAP4 POP POP PUSH1 0x20 PUSH2 0x5955 DUP7 DUP3 DUP8 ADD PUSH2 0x58C8 JUMP JUMPDEST SWAP3 POP POP PUSH1 0x40 PUSH2 0x5966 DUP7 DUP3 DUP8 ADD PUSH2 0x5813 JUMP JUMPDEST SWAP2 POP POP SWAP3 POP SWAP3 POP SWAP3 JUMP JUMPDEST PUSH1 0x0 DUP2 SWAP1 POP SWAP2 SWAP1 POP JUMP JUMPDEST PUSH2 0x5983 DUP2 PUSH2 0x5970 JUMP JUMPDEST DUP2 EQ PUSH2 0x598E JUMPI PUSH1 0x0 DUP1 REVERT JUMPDEST POP JUMP JUMPDEST PUSH1 0x0 DUP2 CALLDATALOAD SWAP1 POP PUSH2 0x59A0 DUP2 PUSH2 0x597A JUMP JUMPDEST SWAP3 SWAP2 POP POP JUMP JUMPDEST PUSH1 0x0 PUSH1 0x20 DUP3 DUP5 SUB SLT ISZERO PUSH2 0x59BC JUMPI PUSH2 0x59BB PUSH2 0x567B JUMP JUMPDEST JUMPDEST PUSH1 0x0 PUSH2 0x59CA DUP5 DUP3 DUP6 ADD PUSH2 0x5991 JUMP JUMPDEST SWAP2 POP POP SWAP3 SWAP2 POP POP JUMP JUMPDEST PUSH2 0x59DC DUP2 PUSH2 0x5970 JUMP JUMPDEST DUP3 MSTORE POP POP JUMP JUMPDEST PUSH1 0x0 PUSH1 0x20 DUP3 ADD SWAP1 POP PUSH2 0x59F7 PUSH1 0x0 DUP4 ADD DUP5 PUSH2 0x59D3 JUMP JUMPDEST SWAP3 SWAP2 POP POP JUMP JUMPDEST PUSH1 0x0 PUSH1 0xFF DUP3 AND SWAP1 POP SWAP2 SWAP1 POP JUMP JUMPDEST PUSH2 0x5A13 DUP2 PUSH2 0x59FD JUMP JUMPDEST DUP2 EQ PUSH2 0x5A1E JUMPI PUSH1 0x0 DUP1 REVERT JUMPDEST POP JUMP JUMPDEST PUSH1 0x0 DUP2 CALLDATALOAD SWAP1 POP PUSH2 0x5A30 DUP2 PUSH2 0x5A0A JUMP JUMPDEST SWAP3 SWAP2 POP POP JUMP JUMPDEST PUSH1 0x0 PUSH1 0x20 DUP3 DUP5 SUB SLT ISZERO PUSH2 0x5A4C JUMPI PUSH2 0x5A4B PUSH2 0x567B JUMP JUMPDEST JUMPDEST PUSH1 0x0 PUSH2 0x5A5A DUP5 DUP3 DUP6 ADD PUSH2 0x5A21 JUMP JUMPDEST SWAP2 POP POP SWAP3 SWAP2 POP POP JUMP JUMPDEST PUSH2 0x5A6C DUP2 PUSH2 0x57F2 JUMP JUMPDEST DUP3 MSTORE POP POP JUMP JUMPDEST PUSH1 0x0 PUSH1 0x20 DUP3 ADD SWAP1 POP PUSH2 0x5A87 PUSH1 0x0 DUP4 ADD DUP5 PUSH2 0x5A63 JUMP JUMPDEST SWAP3 SWAP2 POP POP JUMP JUMPDEST PUSH1 0x0 DUP1 PUSH1 0x40 DUP4 DUP6 SUB SLT ISZERO PUSH2 0x5AA4 JUMPI PUSH2 0x5AA3 PUSH2 0x567B JUMP JUMPDEST JUMPDEST PUSH1 0x0 PUSH2 0x5AB2 DUP6 DUP3 DUP7 ADD PUSH2 0x5813 JUMP JUMPDEST SWAP3 POP POP PUSH1 0x20 PUSH2 0x5AC3 DUP6 DUP3 DUP7 ADD PUSH2 0x5813 JUMP JUMPDEST SWAP2 POP POP SWAP3 POP SWAP3 SWAP1 POP JUMP JUMPDEST PUSH1 0x0 PUSH1 0x40 DUP3 ADD SWAP1 POP PUSH2 0x5AE2 PUSH1 0x0 DUP4 ADD DUP6 PUSH2 0x5887 JUMP JUMPDEST PUSH2 0x5AEF PUSH1 0x20 DUP4 ADD DUP5 PUSH2 0x5A63 JUMP JUMPDEST SWAP4 SWAP3 POP POP POP JUMP JUMPDEST PUSH1 0x0 PUSH1 0x20 DUP3 DUP5 SUB SLT ISZERO PUSH2 0x5B0C JUMPI PUSH2 0x5B0B PUSH2 0x567B JUMP JUMPDEST JUMPDEST PUSH1 0x0 PUSH2 0x5B1A DUP5 DUP3 DUP6 ADD PUSH2 0x58C8 JUMP JUMPDEST SWAP2 POP POP SWAP3 SWAP2 POP POP JUMP JUMPDEST PUSH1 0x0 DUP1 PUSH1 0x40 DUP4 DUP6 SUB SLT ISZERO PUSH2 0x5B3A JUMPI PUSH2 0x5B39 PUSH2 0x567B JUMP JUMPDEST JUMPDEST PUSH1 0x0 PUSH2 0x5B48 DUP6 DUP3 DUP7 ADD PUSH2 0x5991 JUMP JUMPDEST SWAP3 POP POP PUSH1 0x20 PUSH2 0x5B59 DUP6 DUP3 DUP7 ADD PUSH2 0x58C8 JUMP JUMPDEST SWAP2 POP POP SWAP3 POP SWAP3 SWAP1 POP JUMP JUMPDEST PUSH1 0x0 PUSH2 0x5B6E DUP3 PUSH2 0x5875 JUMP JUMPDEST SWAP1 POP SWAP2 SWAP1 POP JUMP JUMPDEST PUSH2 0x5B7E DUP2 PUSH2 0x5B63 JUMP JUMPDEST DUP2 EQ PUSH2 0x5B89 JUMPI PUSH1 0x0 DUP1 REVERT JUMPDEST POP JUMP JUMPDEST PUSH1 0x0 DUP2 CALLDATALOAD SWAP1 POP PUSH2 0x5B9B DUP2 PUSH2 0x5B75 JUMP JUMPDEST SWAP3 SWAP2 POP POP JUMP JUMPDEST PUSH1 0x0 PUSH1 0x20 DUP3 DUP5 SUB SLT ISZERO PUSH2 0x5BB7 JUMPI PUSH2 0x5BB6 PUSH2 0x567B JUMP JUMPDEST JUMPDEST PUSH1 0x0 PUSH2 0x5BC5 DUP5 DUP3 DUP6 ADD PUSH2 0x5B8C JUMP JUMPDEST SWAP2 POP POP SWAP3 SWAP2 POP POP JUMP JUMPDEST PUSH2 0x5BD7 DUP2 PUSH2 0x570A JUMP JUMPDEST DUP2 EQ PUSH2 0x5BE2 JUMPI PUSH1 0x0 DUP1 REVERT JUMPDEST POP JUMP JUMPDEST PUSH1 0x0 DUP2 CALLDATALOAD SWAP1 POP PUSH2 0x5BF4 DUP2 PUSH2 0x5BCE JUMP JUMPDEST SWAP3 SWAP2 POP POP JUMP JUMPDEST PUSH1 0x0 PUSH1 0x20 DUP3 DUP5 SUB SLT ISZERO PUSH2 0x5C10 JUMPI PUSH2 0x5C0F PUSH2 0x567B JUMP JUMPDEST JUMPDEST PUSH1 0x0 PUSH2 0x5C1E DUP5 DUP3 DUP6 ADD PUSH2 0x5BE5 JUMP JUMPDEST SWAP2 POP POP SWAP3 SWAP2 POP POP JUMP JUMPDEST PUSH1 0x0 DUP1 REVERT JUMPDEST PUSH32 0x4E487B7100000000000000000000000000000000000000000000000000000000 PUSH1 0x0 MSTORE PUSH1 0x41 PUSH1 0x4 MSTORE PUSH1 0x24 PUSH1 0x0 REVERT JUMPDEST PUSH2 0x5C64 DUP3 PUSH2 0x5786 JUMP JUMPDEST DUP2 ADD DUP2 DUP2 LT PUSH8 0xFFFFFFFFFFFFFFFF DUP3 GT OR ISZERO PUSH2 0x5C83 JUMPI PUSH2 0x5C82 PUSH2 0x5C2C JUMP JUMPDEST JUMPDEST DUP1 PUSH1 0x40 MSTORE POP POP POP JUMP JUMPDEST PUSH1 0x0 PUSH2 0x5C96 PUSH2 0x5671 JUMP JUMPDEST SWAP1 POP PUSH2 0x5CA2 DUP3 DUP3 PUSH2 0x5C5B JUMP JUMPDEST SWAP2 SWAP1 POP JUMP JUMPDEST PUSH1 0x0 PUSH8 0xFFFFFFFFFFFFFFFF DUP3 GT ISZERO PUSH2 0x5CC2 JUMPI PUSH2 0x5CC1 PUSH2 0x5C2C JUMP JUMPDEST JUMPDEST PUSH1 0x20 DUP3 MUL SWAP1 POP PUSH1 0x20 DUP2 ADD SWAP1 POP SWAP2 SWAP1 POP JUMP JUMPDEST PUSH1 0x0 DUP1 REVERT JUMPDEST PUSH1 0x0 PUSH2 0x5CEB PUSH2 0x5CE6 DUP5 PUSH2 0x5CA7 JUMP JUMPDEST PUSH2 0x5C8C JUMP JUMPDEST SWAP1 POP DUP1 DUP4 DUP3 MSTORE PUSH1 0x20 DUP3 ADD SWAP1 POP PUSH1 0x20 DUP5 MUL DUP4 ADD DUP6 DUP2 GT ISZERO PUSH2 0x5D0E JUMPI PUSH2 0x5D0D PUSH2 0x5CD3 JUMP JUMPDEST JUMPDEST DUP4 JUMPDEST DUP2 DUP2 LT ISZERO PUSH2 0x5D37 JUMPI DUP1 PUSH2 0x5D23 DUP9 DUP3 PUSH2 0x58C8 JUMP JUMPDEST DUP5 MSTORE PUSH1 0x20 DUP5 ADD SWAP4 POP POP PUSH1 0x20 DUP2 ADD SWAP1 POP PUSH2 0x5D10 JUMP JUMPDEST POP POP POP SWAP4 SWAP3 POP POP POP JUMP JUMPDEST PUSH1 0x0 DUP3 PUSH1 0x1F DUP4 ADD SLT PUSH2 0x5D56 JUMPI PUSH2 0x5D55 PUSH2 0x5C27 JUMP JUMPDEST JUMPDEST DUP2 CALLDATALOAD PUSH2 0x5D66 DUP5 DUP3 PUSH1 0x20 DUP7 ADD PUSH2 0x5CD8 JUMP JUMPDEST SWAP2 POP POP SWAP3 SWAP2 POP POP JUMP JUMPDEST PUSH1 0x0 PUSH8 0xFFFFFFFFFFFFFFFF DUP3 GT ISZERO PUSH2 0x5D8A JUMPI PUSH2 0x5D89 PUSH2 0x5C2C JUMP JUMPDEST JUMPDEST PUSH1 0x20 DUP3 MUL SWAP1 POP PUSH1 0x20 DUP2 ADD SWAP1 POP SWAP2 SWAP1 POP JUMP JUMPDEST PUSH1 0x0 PUSH2 0x5DAE PUSH2 0x5DA9 DUP5 PUSH2 0x5D6F JUMP JUMPDEST PUSH2 0x5C8C JUMP JUMPDEST SWAP1 POP DUP1 DUP4 DUP3 MSTORE PUSH1 0x20 DUP3 ADD SWAP1 POP PUSH1 0x20 DUP5 MUL DUP4 ADD DUP6 DUP2 GT ISZERO PUSH2 0x5DD1 JUMPI PUSH2 0x5DD0 PUSH2 0x5CD3 JUMP JUMPDEST JUMPDEST DUP4 JUMPDEST DUP2 DUP2 LT ISZERO PUSH2 0x5DFA JUMPI DUP1 PUSH2 0x5DE6 DUP9 DUP3 PUSH2 0x5813 JUMP JUMPDEST DUP5 MSTORE PUSH1 0x20 DUP5 ADD SWAP4 POP POP PUSH1 0x20 DUP2 ADD SWAP1 POP PUSH2 0x5DD3 JUMP JUMPDEST POP POP POP SWAP4 SWAP3 POP POP POP JUMP JUMPDEST PUSH1 0x0 DUP3 PUSH1 0x1F DUP4 ADD SLT PUSH2 0x5E19 JUMPI PUSH2 0x5E18 PUSH2 0x5C27 JUMP JUMPDEST JUMPDEST DUP2 CALLDATALOAD PUSH2 0x5E29 DUP5 DUP3 PUSH1 0x20 DUP7 ADD PUSH2 0x5D9B JUMP JUMPDEST SWAP2 POP POP SWAP3 SWAP2 POP POP JUMP JUMPDEST PUSH1 0x0 DUP1 PUSH1 0x40 DUP4 DUP6 SUB SLT ISZERO PUSH2 0x5E49 JUMPI PUSH2 0x5E48 PUSH2 0x567B JUMP JUMPDEST JUMPDEST PUSH1 0x0 DUP4 ADD CALLDATALOAD PUSH8 0xFFFFFFFFFFFFFFFF DUP2 GT ISZERO PUSH2 0x5E67 JUMPI PUSH2 0x5E66 PUSH2 0x5680 JUMP JUMPDEST JUMPDEST PUSH2 0x5E73 DUP6 DUP3 DUP7 ADD PUSH2 0x5D41 JUMP JUMPDEST SWAP3 POP POP PUSH1 0x20 DUP4 ADD CALLDATALOAD PUSH8 0xFFFFFFFFFFFFFFFF DUP2 GT ISZERO PUSH2 0x5E94 JUMPI PUSH2 0x5E93 PUSH2 0x5680 JUMP JUMPDEST JUMPDEST PUSH2 0x5EA0 DUP6 DUP3 DUP7 ADD PUSH2 0x5E04 JUMP JUMPDEST SWAP2 POP POP SWAP3 POP SWAP3 SWAP1 POP JUMP JUMPDEST PUSH1 0x0 DUP1 REVERT JUMPDEST PUSH1 0x0 PUSH8 0xFFFFFFFFFFFFFFFF DUP3 GT ISZERO PUSH2 0x5ECA JUMPI PUSH2 0x5EC9 PUSH2 0x5C2C JUMP JUMPDEST JUMPDEST PUSH2 0x5ED3 DUP3 PUSH2 0x5786 JUMP JUMPDEST SWAP1 POP PUSH1 0x20 DUP2 ADD SWAP1 POP SWAP2 SWAP1 POP JUMP JUMPDEST DUP3 DUP2 DUP4 CALLDATACOPY PUSH1 0x0 DUP4 DUP4 ADD MSTORE POP POP POP JUMP JUMPDEST PUSH1 0x0 PUSH2 0x5F02 PUSH2 0x5EFD DUP5 PUSH2 0x5EAF JUMP JUMPDEST PUSH2 0x5C8C JUMP JUMPDEST SWAP1 POP DUP3 DUP2 MSTORE PUSH1 0x20 DUP2 ADD DUP5 DUP5 DUP5 ADD GT ISZERO PUSH2 0x5F1E JUMPI PUSH2 0x5F1D PUSH2 0x5EAA JUMP JUMPDEST JUMPDEST PUSH2 0x5F29 DUP5 DUP3 DUP6 PUSH2 0x5EE0 JUMP JUMPDEST POP SWAP4 SWAP3 POP POP POP JUMP JUMPDEST PUSH1 0x0 DUP3 PUSH1 0x1F DUP4 ADD SLT PUSH2 0x5F46 JUMPI PUSH2 0x5F45 PUSH2 0x5C27 JUMP JUMPDEST JUMPDEST DUP2 CALLDATALOAD PUSH2 0x5F56 DUP5 DUP3 PUSH1 0x20 DUP7 ADD PUSH2 0x5EEF JUMP JUMPDEST SWAP2 POP POP SWAP3 SWAP2 POP POP JUMP JUMPDEST PUSH1 0x0 DUP1 PUSH1 0x40 DUP4 DUP6 SUB SLT ISZERO PUSH2 0x5F76 JUMPI PUSH2 0x5F75 PUSH2 0x567B JUMP JUMPDEST JUMPDEST PUSH1 0x0 PUSH2 0x5F84 DUP6 DUP3 DUP7 ADD PUSH2 0x58C8 JUMP JUMPDEST SWAP3 POP POP PUSH1 0x20 DUP4 ADD CALLDATALOAD PUSH8 0xFFFFFFFFFFFFFFFF DUP2 GT ISZERO PUSH2 0x5FA5 JUMPI PUSH2 0x5FA4 PUSH2 0x5680 JUMP JUMPDEST JUMPDEST PUSH2 0x5FB1 DUP6 DUP3 DUP7 ADD PUSH2 0x5F31 JUMP JUMPDEST SWAP2 POP POP SWAP3 POP SWAP3 SWAP1 POP JUMP JUMPDEST PUSH1 0x0 PUSH8 0xFFFFFFFFFFFFFFFF DUP3 GT ISZERO PUSH2 0x5FD6 JUMPI PUSH2 0x5FD5 PUSH2 0x5C2C JUMP JUMPDEST JUMPDEST PUSH2 0x5FDF DUP3 PUSH2 0x5786 JUMP JUMPDEST SWAP1 POP PUSH1 0x20 DUP2 ADD SWAP1 POP SWAP2 SWAP1 POP JUMP JUMPDEST PUSH1 0x0 PUSH2 0x5FFF PUSH2 0x5FFA DUP5 PUSH2 0x5FBB JUMP JUMPDEST PUSH2 0x5C8C JUMP JUMPDEST SWAP1 POP DUP3 DUP2 MSTORE PUSH1 0x20 DUP2 ADD DUP5 DUP5 DUP5 ADD GT ISZERO PUSH2 0x601B JUMPI PUSH2 0x601A PUSH2 0x5EAA JUMP JUMPDEST JUMPDEST PUSH2 0x6026 DUP5 DUP3 DUP6 PUSH2 0x5EE0 JUMP JUMPDEST POP SWAP4 SWAP3 POP POP POP JUMP JUMPDEST PUSH1 0x0 DUP3 PUSH1 0x1F DUP4 ADD SLT PUSH2 0x6043 JUMPI PUSH2 0x6042 PUSH2 0x5C27 JUMP JUMPDEST JUMPDEST DUP2 CALLDATALOAD PUSH2 0x6053 DUP5 DUP3 PUSH1 0x20 DUP7 ADD PUSH2 0x5FEC JUMP JUMPDEST SWAP2 POP POP SWAP3 SWAP2 POP POP JUMP JUMPDEST PUSH1 0x0 DUP1 PUSH1 0x0 DUP1 PUSH1 0x0 DUP1 PUSH1 0x0 PUSH1 0xE0 DUP9 DUP11 SUB SLT ISZERO PUSH2 0x607B JUMPI PUSH2 0x607A PUSH2 0x567B JUMP JUMPDEST JUMPDEST PUSH1 0x0 PUSH2 0x6089 DUP11 DUP3 DUP12 ADD PUSH2 0x58C8 JUMP JUMPDEST SWAP8 POP POP PUSH1 0x20 PUSH2 0x609A DUP11 DUP3 DUP12 ADD PUSH2 0x58C8 JUMP JUMPDEST SWAP7 POP POP PUSH1 0x40 PUSH2 0x60AB DUP11 DUP3 DUP12 ADD PUSH2 0x5B8C JUMP JUMPDEST SWAP6 POP POP PUSH1 0x60 DUP9 ADD CALLDATALOAD PUSH8 0xFFFFFFFFFFFFFFFF DUP2 GT ISZERO PUSH2 0x60CC JUMPI PUSH2 0x60CB PUSH2 0x5680 JUMP JUMPDEST JUMPDEST PUSH2 0x60D8 DUP11 DUP3 DUP12 ADD PUSH2 0x602E JUMP JUMPDEST SWAP5 POP POP PUSH1 0x80 DUP9 ADD CALLDATALOAD PUSH8 0xFFFFFFFFFFFFFFFF DUP2 GT ISZERO PUSH2 0x60F9 JUMPI PUSH2 0x60F8 PUSH2 0x5680 JUMP JUMPDEST JUMPDEST PUSH2 0x6105 DUP11 DUP3 DUP12 ADD PUSH2 0x602E JUMP JUMPDEST SWAP4 POP POP PUSH1 0xA0 PUSH2 0x6116 DUP11 DUP3 DUP12 ADD PUSH2 0x58C8 JUMP JUMPDEST SWAP3 POP POP PUSH1 0xC0 PUSH2 0x6127 DUP11 DUP3 DUP12 ADD PUSH2 0x58C8 JUMP JUMPDEST SWAP2 POP POP SWAP3 SWAP6 SWAP9 SWAP2 SWAP5 SWAP8 POP SWAP3 SWAP6 POP JUMP JUMPDEST PUSH1 0x0 DUP2 SWAP1 POP SWAP2 SWAP1 POP JUMP JUMPDEST PUSH1 0x0 PUSH2 0x615B PUSH2 0x6156 PUSH2 0x6151 DUP5 PUSH2 0x5855 JUMP JUMPDEST PUSH2 0x6136 JUMP JUMPDEST PUSH2 0x5855 JUMP JUMPDEST SWAP1 POP SWAP2 SWAP1 POP JUMP JUMPDEST PUSH1 0x0 PUSH2 0x616D DUP3 PUSH2 0x6140 JUMP JUMPDEST SWAP1 POP SWAP2 SWAP1 POP JUMP JUMPDEST PUSH1 0x0 PUSH2 0x617F DUP3 PUSH2 0x6162 JUMP JUMPDEST SWAP1 POP SWAP2 SWAP1 POP JUMP JUMPDEST PUSH2 0x618F DUP2 PUSH2 0x6174 JUMP JUMPDEST DUP3 MSTORE POP POP JUMP JUMPDEST PUSH1 0x0 PUSH1 0x20 DUP3 ADD SWAP1 POP PUSH2 0x61AA PUSH1 0x0 DUP4 ADD DUP5 PUSH2 0x6186 JUMP JUMPDEST SWAP3 SWAP2 POP POP JUMP JUMPDEST PUSH1 0x0 DUP2 MLOAD SWAP1 POP SWAP2 SWAP1 POP JUMP JUMPDEST PUSH1 0x0 DUP3 DUP3 MSTORE PUSH1 0x20 DUP3 ADD SWAP1 POP SWAP3 SWAP2 POP POP JUMP JUMPDEST PUSH1 0x0 DUP2 SWAP1 POP PUSH1 0x20 DUP3 ADD SWAP1 POP SWAP2 SWAP1 POP JUMP JUMPDEST PUSH2 0x61E5 DUP2 PUSH2 0x57F2 JUMP JUMPDEST DUP3 MSTORE POP POP JUMP JUMPDEST PUSH1 0x0 PUSH2 0x61F7 DUP4 DUP4 PUSH2 0x61DC JUMP JUMPDEST PUSH1 0x20 DUP4 ADD SWAP1 POP SWAP3 SWAP2 POP POP JUMP JUMPDEST PUSH1 0x0 PUSH1 0x20 DUP3 ADD SWAP1 POP SWAP2 SWAP1 POP JUMP JUMPDEST PUSH1 0x0 PUSH2 0x621B DUP3 PUSH2 0x61B0 JUMP JUMPDEST PUSH2 0x6225 DUP2 DUP6 PUSH2 0x61BB JUMP JUMPDEST SWAP4 POP PUSH2 0x6230 DUP4 PUSH2 0x61CC JUMP JUMPDEST DUP1 PUSH1 0x0 JUMPDEST DUP4 DUP2 LT ISZERO PUSH2 0x6261 JUMPI DUP2 MLOAD PUSH2 0x6248 DUP9 DUP3 PUSH2 0x61EB JUMP JUMPDEST SWAP8 POP PUSH2 0x6253 DUP4 PUSH2 0x6203 JUMP JUMPDEST SWAP3 POP POP PUSH1 0x1 DUP2 ADD SWAP1 POP PUSH2 0x6234 JUMP JUMPDEST POP DUP6 SWAP4 POP POP POP POP SWAP3 SWAP2 POP POP JUMP JUMPDEST PUSH1 0x0 PUSH1 0x20 DUP3 ADD SWAP1 POP DUP2 DUP2 SUB PUSH1 0x0 DUP4 ADD MSTORE PUSH2 0x6288 DUP2 DUP5 PUSH2 0x6210 JUMP JUMPDEST SWAP1 POP SWAP3 SWAP2 POP POP JUMP JUMPDEST PUSH1 0x0 PUSH12 0xFFFFFFFFFFFFFFFFFFFFFFFF DUP3 AND SWAP1 POP SWAP2 SWAP1 POP JUMP JUMPDEST PUSH2 0x62B1 DUP2 PUSH2 0x6290 JUMP JUMPDEST DUP2 EQ PUSH2 0x62BC JUMPI PUSH1 0x0 DUP1 REVERT JUMPDEST POP JUMP JUMPDEST PUSH1 0x0 DUP2 CALLDATALOAD SWAP1 POP PUSH2 0x62CE DUP2 PUSH2 0x62A8 JUMP JUMPDEST SWAP3 SWAP2 POP POP JUMP JUMPDEST PUSH1 0x0 DUP1 PUSH1 0x40 DUP4 DUP6 SUB SLT ISZERO PUSH2 0x62EB JUMPI PUSH2 0x62EA PUSH2 0x567B JUMP JUMPDEST JUMPDEST PUSH1 0x0 PUSH2 0x62F9 DUP6 DUP3 DUP7 ADD PUSH2 0x58C8 JUMP JUMPDEST SWAP3 POP POP PUSH1 0x20 PUSH2 0x630A DUP6 DUP3 DUP7 ADD PUSH2 0x62BF JUMP JUMPDEST SWAP2 POP POP SWAP3 POP SWAP3 SWAP1 POP JUMP JUMPDEST PUSH1 0x0 DUP1 REVERT JUMPDEST PUSH1 0x0 DUP1 DUP4 PUSH1 0x1F DUP5 ADD SLT PUSH2 0x632F JUMPI PUSH2 0x632E PUSH2 0x5C27 JUMP JUMPDEST JUMPDEST DUP3 CALLDATALOAD SWAP1 POP PUSH8 0xFFFFFFFFFFFFFFFF DUP2 GT ISZERO PUSH2 0x634C JUMPI PUSH2 0x634B PUSH2 0x6314 JUMP JUMPDEST JUMPDEST PUSH1 0x20 DUP4 ADD SWAP2 POP DUP4 PUSH1 0x1 DUP3 MUL DUP4 ADD GT ISZERO PUSH2 0x6368 JUMPI PUSH2 0x6367 PUSH2 0x5CD3 JUMP JUMPDEST JUMPDEST SWAP3 POP SWAP3 SWAP1 POP JUMP JUMPDEST PUSH1 0x2 DUP2 LT PUSH2 0x637C JUMPI PUSH1 0x0 DUP1 REVERT JUMPDEST POP JUMP JUMPDEST PUSH1 0x0 DUP2 CALLDATALOAD SWAP1 POP PUSH2 0x638E DUP2 PUSH2 0x636F JUMP JUMPDEST SWAP3 SWAP2 POP POP JUMP JUMPDEST PUSH1 0x0 DUP1 PUSH1 0x0 DUP1 PUSH1 0x0 DUP1 PUSH1 0xA0 DUP8 DUP10 SUB SLT ISZERO PUSH2 0x63B1 JUMPI PUSH2 0x63B0 PUSH2 0x567B JUMP JUMPDEST JUMPDEST PUSH1 0x0 PUSH2 0x63BF DUP10 DUP3 DUP11 ADD PUSH2 0x58C8 JUMP JUMPDEST SWAP7 POP POP PUSH1 0x20 PUSH2 0x63D0 DUP10 DUP3 DUP11 ADD PUSH2 0x5813 JUMP JUMPDEST SWAP6 POP POP PUSH1 0x40 PUSH2 0x63E1 DUP10 DUP3 DUP11 ADD PUSH2 0x5813 JUMP JUMPDEST SWAP5 POP POP PUSH1 0x60 DUP8 ADD CALLDATALOAD PUSH8 0xFFFFFFFFFFFFFFFF DUP2 GT ISZERO PUSH2 0x6402 JUMPI PUSH2 0x6401 PUSH2 0x5680 JUMP JUMPDEST JUMPDEST PUSH2 0x640E DUP10 DUP3 DUP11 ADD PUSH2 0x6319 JUMP JUMPDEST SWAP4 POP SWAP4 POP POP PUSH1 0x80 PUSH2 0x6421 DUP10 DUP3 DUP11 ADD PUSH2 0x637F JUMP JUMPDEST SWAP2 POP POP SWAP3 SWAP6 POP SWAP3 SWAP6 POP SWAP3 SWAP6 JUMP JUMPDEST PUSH1 0x0 DUP1 DUP4 PUSH1 0x1F DUP5 ADD SLT PUSH2 0x6444 JUMPI PUSH2 0x6443 PUSH2 0x5C27 JUMP JUMPDEST JUMPDEST DUP3 CALLDATALOAD SWAP1 POP PUSH8 0xFFFFFFFFFFFFFFFF DUP2 GT ISZERO PUSH2 0x6461 JUMPI PUSH2 0x6460 PUSH2 0x6314 JUMP JUMPDEST JUMPDEST PUSH1 0x20 DUP4 ADD SWAP2 POP DUP4 PUSH1 0x1 DUP3 MUL DUP4 ADD GT ISZERO PUSH2 0x647D JUMPI PUSH2 0x647C PUSH2 0x5CD3 JUMP JUMPDEST JUMPDEST SWAP3 POP SWAP3 SWAP1 POP JUMP JUMPDEST PUSH1 0x0 DUP1 PUSH1 0x0 DUP1 PUSH1 0x0 PUSH1 0x80 DUP7 DUP9 SUB SLT ISZERO PUSH2 0x64A0 JUMPI PUSH2 0x649F PUSH2 0x567B JUMP JUMPDEST JUMPDEST PUSH1 0x0 PUSH2 0x64AE DUP9 DUP3 DUP10 ADD PUSH2 0x5813 JUMP JUMPDEST SWAP6 POP POP PUSH1 0x20 PUSH2 0x64BF DUP9 DUP3 DUP10 ADD PUSH2 0x5A21 JUMP JUMPDEST SWAP5 POP POP PUSH1 0x40 PUSH2 0x64D0 DUP9 DUP3 DUP10 ADD PUSH2 0x58C8 JUMP JUMPDEST SWAP4 POP POP PUSH1 0x60 DUP7 ADD CALLDATALOAD PUSH8 0xFFFFFFFFFFFFFFFF DUP2 GT ISZERO PUSH2 0x64F1 JUMPI PUSH2 0x64F0 PUSH2 0x5680 JUMP JUMPDEST JUMPDEST PUSH2 0x64FD DUP9 DUP3 DUP10 ADD PUSH2 0x642E JUMP JUMPDEST SWAP3 POP SWAP3 POP POP SWAP3 SWAP6 POP SWAP3 SWAP6 SWAP1 SWAP4 POP JUMP JUMPDEST PUSH1 0x0 DUP1 PUSH1 0x0 PUSH1 0x60 DUP5 DUP7 SUB SLT ISZERO PUSH2 0x6525 JUMPI PUSH2 0x6524 PUSH2 0x567B JUMP JUMPDEST JUMPDEST PUSH1 0x0 PUSH2 0x6533 DUP7 DUP3 DUP8 ADD PUSH2 0x5813 JUMP JUMPDEST SWAP4 POP POP PUSH1 0x20 PUSH2 0x6544 DUP7 DUP3 DUP8 ADD PUSH2 0x5A21 JUMP JUMPDEST SWAP3 POP POP PUSH1 0x40 PUSH2 0x6555 DUP7 DUP3 DUP8 ADD PUSH2 0x58C8 JUMP JUMPDEST SWAP2 POP POP SWAP3 POP SWAP3 POP SWAP3 JUMP JUMPDEST PUSH1 0x0 DUP1 PUSH1 0x40 DUP4 DUP6 SUB SLT ISZERO PUSH2 0x6576 JUMPI PUSH2 0x6575 PUSH2 0x567B JUMP JUMPDEST JUMPDEST PUSH1 0x0 PUSH2 0x6584 DUP6 DUP3 DUP7 ADD PUSH2 0x58C8 JUMP JUMPDEST SWAP3 POP POP PUSH1 0x20 PUSH2 0x6595 DUP6 DUP3 DUP7 ADD PUSH2 0x5BE5 JUMP JUMPDEST SWAP2 POP POP SWAP3 POP SWAP3 SWAP1 POP JUMP JUMPDEST PUSH2 0x65A8 DUP2 PUSH2 0x59FD JUMP JUMPDEST DUP3 MSTORE POP POP JUMP JUMPDEST PUSH1 0x60 DUP3 ADD PUSH1 0x0 DUP3 ADD MLOAD PUSH2 0x65C4 PUSH1 0x0 DUP6 ADD DUP3 PUSH2 0x659F JUMP JUMPDEST POP PUSH1 0x20 DUP3 ADD MLOAD PUSH2 0x65D7 PUSH1 0x20 DUP6 ADD DUP3 PUSH2 0x61DC JUMP JUMPDEST POP PUSH1 0x40 DUP3 ADD MLOAD PUSH2 0x65EA PUSH1 0x40 DUP6 ADD DUP3 PUSH2 0x61DC JUMP JUMPDEST POP POP POP POP JUMP JUMPDEST PUSH1 0x0 PUSH1 0x60 DUP3 ADD SWAP1 POP PUSH2 0x6605 PUSH1 0x0 DUP4 ADD DUP5 PUSH2 0x65AE JUMP JUMPDEST SWAP3 SWAP2 POP POP JUMP JUMPDEST PUSH1 0x0 PUSH1 0x20 DUP3 DUP5 SUB SLT ISZERO PUSH2 0x6621 JUMPI PUSH2 0x6620 PUSH2 0x567B JUMP JUMPDEST JUMPDEST PUSH1 0x0 DUP3 ADD CALLDATALOAD PUSH8 0xFFFFFFFFFFFFFFFF DUP2 GT ISZERO PUSH2 0x663F JUMPI PUSH2 0x663E PUSH2 0x5680 JUMP JUMPDEST JUMPDEST PUSH2 0x664B DUP5 DUP3 DUP6 ADD PUSH2 0x5E04 JUMP JUMPDEST SWAP2 POP POP SWAP3 SWAP2 POP POP JUMP JUMPDEST PUSH1 0x0 DUP1 PUSH1 0x0 DUP1 PUSH1 0x80 DUP6 DUP8 SUB SLT ISZERO PUSH2 0x666E JUMPI PUSH2 0x666D PUSH2 0x567B JUMP JUMPDEST JUMPDEST PUSH1 0x0 PUSH2 0x667C DUP8 DUP3 DUP9 ADD PUSH2 0x58C8 JUMP JUMPDEST SWAP5 POP POP PUSH1 0x20 PUSH2 0x668D DUP8 DUP3 DUP9 ADD PUSH2 0x58C8 JUMP JUMPDEST SWAP4 POP POP PUSH1 0x40 PUSH2 0x669E DUP8 DUP3 DUP9 ADD PUSH2 0x5813 JUMP JUMPDEST SWAP3 POP POP PUSH1 0x60 DUP6 ADD CALLDATALOAD PUSH8 0xFFFFFFFFFFFFFFFF DUP2 GT ISZERO PUSH2 0x66BF JUMPI PUSH2 0x66BE PUSH2 0x5680 JUMP JUMPDEST JUMPDEST PUSH2 0x66CB DUP8 DUP3 DUP9 ADD PUSH2 0x5F31 JUMP JUMPDEST SWAP2 POP POP SWAP3 SWAP6 SWAP2 SWAP5 POP SWAP3 POP JUMP JUMPDEST PUSH1 0x0 DUP1 PUSH1 0x0 DUP1 PUSH1 0x0 PUSH1 0x80 DUP7 DUP9 SUB SLT ISZERO PUSH2 0x66F3 JUMPI PUSH2 0x66F2 PUSH2 0x567B JUMP JUMPDEST JUMPDEST PUSH1 0x0 PUSH2 0x6701 DUP9 DUP3 DUP10 ADD PUSH2 0x58C8 JUMP JUMPDEST SWAP6 POP POP PUSH1 0x20 PUSH2 0x6712 DUP9 DUP3 DUP10 ADD PUSH2 0x5813 JUMP JUMPDEST SWAP5 POP POP PUSH1 0x40 DUP7 ADD CALLDATALOAD PUSH8 0xFFFFFFFFFFFFFFFF DUP2 GT ISZERO PUSH2 0x6733 JUMPI PUSH2 0x6732 PUSH2 0x5680 JUMP JUMPDEST JUMPDEST PUSH2 0x673F DUP9 DUP3 DUP10 ADD PUSH2 0x6319 JUMP JUMPDEST SWAP4 POP SWAP4 POP POP PUSH1 0x60 PUSH2 0x6752 DUP9 DUP3 DUP10 ADD PUSH2 0x637F JUMP JUMPDEST SWAP2 POP POP SWAP3 SWAP6 POP SWAP3 SWAP6 SWAP1 SWAP4 POP JUMP JUMPDEST PUSH1 0x0 DUP1 PUSH1 0x40 DUP4 DUP6 SUB SLT ISZERO PUSH2 0x6776 JUMPI PUSH2 0x6775 PUSH2 0x567B JUMP JUMPDEST JUMPDEST PUSH1 0x0 PUSH2 0x6784 DUP6 DUP3 DUP7 ADD PUSH2 0x58C8 JUMP JUMPDEST SWAP3 POP POP PUSH1 0x20 PUSH2 0x6795 DUP6 DUP3 DUP7 ADD PUSH2 0x58C8 JUMP JUMPDEST SWAP2 POP POP SWAP3 POP SWAP3 SWAP1 POP JUMP JUMPDEST PUSH32 0x4E487B7100000000000000000000000000000000000000000000000000000000 PUSH1 0x0 MSTORE PUSH1 0x22 PUSH1 0x4 MSTORE PUSH1 0x24 PUSH1 0x0 REVERT JUMPDEST PUSH1 0x0 PUSH1 0x2 DUP3 DIV SWAP1 POP PUSH1 0x1 DUP3 AND DUP1 PUSH2 0x67E6 JUMPI PUSH1 0x7F DUP3 AND SWAP2 POP JUMPDEST PUSH1 0x20 DUP3 LT DUP2 SUB PUSH2 0x67F9 JUMPI PUSH2 0x67F8 PUSH2 0x679F JUMP JUMPDEST JUMPDEST POP SWAP2 SWAP1 POP JUMP JUMPDEST PUSH32 0x4552433732313A20617070726F76616C20746F2063757272656E74206F776E65 PUSH1 0x0 DUP3 ADD MSTORE PUSH32 0x7200000000000000000000000000000000000000000000000000000000000000 PUSH1 0x20 DUP3 ADD MSTORE POP JUMP JUMPDEST PUSH1 0x0 PUSH2 0x685B PUSH1 0x21 DUP4 PUSH2 0x574B JUMP JUMPDEST SWAP2 POP PUSH2 0x6866 DUP3 PUSH2 0x67FF JUMP JUMPDEST PUSH1 0x40 DUP3 ADD SWAP1 POP SWAP2 SWAP1 POP JUMP JUMPDEST PUSH1 0x0 PUSH1 0x20 DUP3 ADD SWAP1 POP DUP2 DUP2 SUB PUSH1 0x0 DUP4 ADD MSTORE PUSH2 0x688A DUP2 PUSH2 0x684E JUMP JUMPDEST SWAP1 POP SWAP2 SWAP1 POP JUMP JUMPDEST PUSH32 0x4552433732313A20617070726F76652063616C6C6572206973206E6F7420746F PUSH1 0x0 DUP3 ADD MSTORE PUSH32 0x6B656E206F776E6572206F7220617070726F76656420666F7220616C6C000000 PUSH1 0x20 DUP3 ADD MSTORE POP JUMP JUMPDEST PUSH1 0x0 PUSH2 0x68ED PUSH1 0x3D DUP4 PUSH2 0x574B JUMP JUMPDEST SWAP2 POP PUSH2 0x68F8 DUP3 PUSH2 0x6891 JUMP JUMPDEST PUSH1 0x40 DUP3 ADD SWAP1 POP SWAP2 SWAP1 POP JUMP JUMPDEST PUSH1 0x0 PUSH1 0x20 DUP3 ADD SWAP1 POP DUP2 DUP2 SUB PUSH1 0x0 DUP4 ADD MSTORE PUSH2 0x691C DUP2 PUSH2 0x68E0 JUMP JUMPDEST SWAP1 POP SWAP2 SWAP1 POP JUMP JUMPDEST PUSH32 0x4552433732313A2063616C6C6572206973206E6F7420746F6B656E206F776E65 PUSH1 0x0 DUP3 ADD MSTORE PUSH32 0x72206F7220617070726F76656400000000000000000000000000000000000000 PUSH1 0x20 DUP3 ADD MSTORE POP JUMP JUMPDEST PUSH1 0x0 PUSH2 0x697F PUSH1 0x2D DUP4 PUSH2 0x574B JUMP JUMPDEST SWAP2 POP PUSH2 0x698A DUP3 PUSH2 0x6923 JUMP JUMPDEST PUSH1 0x40 DUP3 ADD SWAP1 POP SWAP2 SWAP1 POP JUMP JUMPDEST PUSH1 0x0 PUSH1 0x20 DUP3 ADD SWAP1 POP DUP2 DUP2 SUB PUSH1 0x0 DUP4 ADD MSTORE PUSH2 0x69AE DUP2 PUSH2 0x6972 JUMP JUMPDEST SWAP1 POP SWAP2 SWAP1 POP JUMP JUMPDEST PUSH32 0x4E487B7100000000000000000000000000000000000000000000000000000000 PUSH1 0x0 MSTORE PUSH1 0x11 PUSH1 0x4 MSTORE PUSH1 0x24 PUSH1 0x0 REVERT JUMPDEST PUSH1 0x0 PUSH2 0x69EF DUP3 PUSH2 0x57F2 JUMP JUMPDEST SWAP2 POP PUSH2 0x69FA DUP4 PUSH2 0x57F2 JUMP JUMPDEST SWAP3 POP DUP3 DUP3 MUL PUSH2 0x6A08 DUP2 PUSH2 0x57F2 JUMP JUMPDEST SWAP2 POP DUP3 DUP3 DIV DUP5 EQ DUP4 ISZERO OR PUSH2 0x6A1F JUMPI PUSH2 0x6A1E PUSH2 0x69B5 JUMP JUMPDEST JUMPDEST POP SWAP3 SWAP2 POP POP JUMP JUMPDEST PUSH32 0x4E487B7100000000000000000000000000000000000000000000000000000000 PUSH1 0x0 MSTORE PUSH1 0x12 PUSH1 0x4 MSTORE PUSH1 0x24 PUSH1 0x0 REVERT JUMPDEST PUSH1 0x0 PUSH2 0x6A60 DUP3 PUSH2 0x57F2 JUMP JUMPDEST SWAP2 POP PUSH2 0x6A6B DUP4 PUSH2 0x57F2 JUMP JUMPDEST SWAP3 POP DUP3 PUSH2 0x6A7B JUMPI PUSH2 0x6A7A PUSH2 0x6A26 JUMP JUMPDEST JUMPDEST DUP3 DUP3 DIV SWAP1 POP SWAP3 SWAP2 POP POP JUMP JUMPDEST PUSH32 0x416363657373436F6E74726F6C3A2063616E206F6E6C792072656E6F756E6365 PUSH1 0x0 DUP3 ADD MSTORE PUSH32 0x20726F6C657320666F722073656C660000000000000000000000000000000000 PUSH1 0x20 DUP3 ADD MSTORE POP JUMP JUMPDEST PUSH1 0x0 PUSH2 0x6AE2 PUSH1 0x2F DUP4 PUSH2 0x574B JUMP JUMPDEST SWAP2 POP PUSH2 0x6AED DUP3 PUSH2 0x6A86 JUMP JUMPDEST PUSH1 0x40 DUP3 ADD SWAP1 POP SWAP2 SWAP1 POP JUMP JUMPDEST PUSH1 0x0 PUSH1 0x20 DUP3 ADD SWAP1 POP DUP2 DUP2 SUB PUSH1 0x0 DUP4 ADD MSTORE PUSH2 0x6B11 DUP2 PUSH2 0x6AD5 JUMP JUMPDEST SWAP1 POP SWAP2 SWAP1 POP JUMP JUMPDEST PUSH32 0x46756E6374696F6E206D7573742062652063616C6C6564207468726F75676820 PUSH1 0x0 DUP3 ADD MSTORE PUSH32 0x64656C656761746563616C6C0000000000000000000000000000000000000000 PUSH1 0x20 DUP3 ADD MSTORE POP JUMP JUMPDEST PUSH1 0x0 PUSH2 0x6B74 PUSH1 0x2C DUP4 PUSH2 0x574B JUMP JUMPDEST SWAP2 POP PUSH2 0x6B7F DUP3 PUSH2 0x6B18 JUMP JUMPDEST PUSH1 0x40 DUP3 ADD SWAP1 POP SWAP2 SWAP1 POP JUMP JUMPDEST PUSH1 0x0 PUSH1 0x20 DUP3 ADD SWAP1 POP DUP2 DUP2 SUB PUSH1 0x0 DUP4 ADD MSTORE PUSH2 0x6BA3 DUP2 PUSH2 0x6B67 JUMP JUMPDEST SWAP1 POP SWAP2 SWAP1 POP JUMP JUMPDEST PUSH32 0x46756E6374696F6E206D7573742062652063616C6C6564207468726F75676820 PUSH1 0x0 DUP3 ADD MSTORE PUSH32 0x6163746976652070726F78790000000000000000000000000000000000000000 PUSH1 0x20 DUP3 ADD MSTORE POP JUMP JUMPDEST PUSH1 0x0 PUSH2 0x6C06 PUSH1 0x2C DUP4 PUSH2 0x574B JUMP JUMPDEST SWAP2 POP PUSH2 0x6C11 DUP3 PUSH2 0x6BAA JUMP JUMPDEST PUSH1 0x40 DUP3 ADD SWAP1 POP SWAP2 SWAP1 POP JUMP JUMPDEST PUSH1 0x0 PUSH1 0x20 DUP3 ADD SWAP1 POP DUP2 DUP2 SUB PUSH1 0x0 DUP4 ADD MSTORE PUSH2 0x6C35 DUP2 PUSH2 0x6BF9 JUMP JUMPDEST SWAP1 POP SWAP2 SWAP1 POP JUMP JUMPDEST PUSH1 0x0 DUP2 MLOAD SWAP1 POP PUSH2 0x6C4B DUP2 PUSH2 0x57FC JUMP JUMPDEST SWAP3 SWAP2 POP POP JUMP JUMPDEST PUSH1 0x0 PUSH1 0x20 DUP3 DUP5 SUB SLT ISZERO PUSH2 0x6C67 JUMPI PUSH2 0x6C66 PUSH2 0x567B JUMP JUMPDEST JUMPDEST PUSH1 0x0 PUSH2 0x6C75 DUP5 DUP3 DUP6 ADD PUSH2 0x6C3C JUMP JUMPDEST SWAP2 POP POP SWAP3 SWAP2 POP POP JUMP JUMPDEST PUSH1 0x0 DUP2 MLOAD SWAP1 POP PUSH2 0x6C8D DUP2 PUSH2 0x5BCE JUMP JUMPDEST SWAP3 SWAP2 POP POP JUMP JUMPDEST PUSH1 0x0 PUSH1 0x20 DUP3 DUP5 SUB SLT ISZERO PUSH2 0x6CA9 JUMPI PUSH2 0x6CA8 PUSH2 0x567B JUMP JUMPDEST JUMPDEST PUSH1 0x0 PUSH2 0x6CB7 DUP5 DUP3 DUP6 ADD PUSH2 0x6C7E JUMP JUMPDEST SWAP2 POP POP SWAP3 SWAP2 POP POP JUMP JUMPDEST PUSH32 0x57686974656C69737420616E642062757961626C6520616D6F756E74206C6973 PUSH1 0x0 DUP3 ADD MSTORE PUSH32 0x74206D7573742062652073616D65206C656E6774680000000000000000000000 PUSH1 0x20 DUP3 ADD MSTORE POP JUMP JUMPDEST PUSH1 0x0 PUSH2 0x6D1C PUSH1 0x35 DUP4 PUSH2 0x574B JUMP JUMPDEST SWAP2 POP PUSH2 0x6D27 DUP3 PUSH2 0x6CC0 JUMP JUMPDEST PUSH1 0x40 DUP3 ADD SWAP1 POP SWAP2 SWAP1 POP JUMP JUMPDEST PUSH1 0x0 PUSH1 0x20 DUP3 ADD SWAP1 POP DUP2 DUP2 SUB PUSH1 0x0 DUP4 ADD MSTORE PUSH2 0x6D4B DUP2 PUSH2 0x6D0F JUMP JUMPDEST SWAP1 POP SWAP2 SWAP1 POP JUMP JUMPDEST PUSH32 0x4E487B7100000000000000000000000000000000000000000000000000000000 PUSH1 0x0 MSTORE PUSH1 0x32 PUSH1 0x4 MSTORE PUSH1 0x24 PUSH1 0x0 REVERT JUMPDEST PUSH1 0x0 PUSH2 0x6D8C DUP3 PUSH2 0x57F2 JUMP JUMPDEST SWAP2 POP PUSH2 0x6D97 DUP4 PUSH2 0x57F2 JUMP JUMPDEST SWAP3 POP DUP3 DUP3 ADD SWAP1 POP DUP1 DUP3 GT ISZERO PUSH2 0x6DAF JUMPI PUSH2 0x6DAE PUSH2 0x69B5 JUMP JUMPDEST JUMPDEST SWAP3 SWAP2 POP POP JUMP JUMPDEST PUSH1 0x0 PUSH2 0x6DC0 DUP3 PUSH2 0x57F2 JUMP JUMPDEST SWAP2 POP PUSH32 0xFFFFFFFFFFFFFFFFFFFFFFFFFFFFFFFFFFFFFFFFFFFFFFFFFFFFFFFFFFFFFFFF DUP3 SUB PUSH2 0x6DF2 JUMPI PUSH2 0x6DF1 PUSH2 0x69B5 JUMP JUMPDEST JUMPDEST PUSH1 0x1 DUP3 ADD SWAP1 POP SWAP2 SWAP1 POP JUMP JUMPDEST PUSH32 0x555550535570677261646561626C653A206D757374206E6F742062652063616C PUSH1 0x0 DUP3 ADD MSTORE PUSH32 0x6C6564207468726F7567682064656C656761746563616C6C0000000000000000 PUSH1 0x20 DUP3 ADD MSTORE POP JUMP JUMPDEST PUSH1 0x0 PUSH2 0x6E59 PUSH1 0x38 DUP4 PUSH2 0x574B JUMP JUMPDEST SWAP2 POP PUSH2 0x6E64 DUP3 PUSH2 0x6DFD JUMP JUMPDEST PUSH1 0x40 DUP3 ADD SWAP1 POP SWAP2 SWAP1 POP JUMP JUMPDEST PUSH1 0x0 PUSH1 0x20 DUP3 ADD SWAP1 POP DUP2 DUP2 SUB PUSH1 0x0 DUP4 ADD MSTORE PUSH2 0x6E88 DUP2 PUSH2 0x6E4C JUMP JUMPDEST SWAP1 POP SWAP2 SWAP1 POP JUMP JUMPDEST PUSH32 0x496E697469616C697A61626C653A20636F6E747261637420697320616C726561 PUSH1 0x0 DUP3 ADD MSTORE PUSH32 0x647920696E697469616C697A6564000000000000000000000000000000000000 PUSH1 0x20 DUP3 ADD MSTORE POP JUMP JUMPDEST PUSH1 0x0 PUSH2 0x6EEB PUSH1 0x2E DUP4 PUSH2 0x574B JUMP JUMPDEST SWAP2 POP PUSH2 0x6EF6 DUP3 PUSH2 0x6E8F JUMP JUMPDEST PUSH1 0x40 DUP3 ADD SWAP1 POP SWAP2 SWAP1 POP JUMP JUMPDEST PUSH1 0x0 PUSH1 0x20 DUP3 ADD SWAP1 POP DUP2 DUP2 SUB PUSH1 0x0 DUP4 ADD MSTORE PUSH2 0x6F1A DUP2 PUSH2 0x6EDE JUMP JUMPDEST SWAP1 POP SWAP2 SWAP1 POP JUMP JUMPDEST PUSH1 0x0 DUP2 SWAP1 POP SWAP2 SWAP1 POP JUMP JUMPDEST PUSH1 0x0 PUSH2 0x6F46 PUSH2 0x6F41 PUSH2 0x6F3C DUP5 PUSH2 0x6F21 JUMP JUMPDEST PUSH2 0x6136 JUMP JUMPDEST PUSH2 0x59FD JUMP JUMPDEST SWAP1 POP SWAP2 SWAP1 POP JUMP JUMPDEST PUSH2 0x6F56 DUP2 PUSH2 0x6F2B JUMP JUMPDEST DUP3 MSTORE POP POP JUMP JUMPDEST PUSH1 0x0 PUSH1 0x20 DUP3 ADD SWAP1 POP PUSH2 0x6F71 PUSH1 0x0 DUP4 ADD DUP5 PUSH2 0x6F4D JUMP JUMPDEST SWAP3 SWAP2 POP POP JUMP JUMPDEST PUSH32 0x4552433732313A20696E76616C696420746F6B656E2049440000000000000000 PUSH1 0x0 DUP3 ADD MSTORE POP JUMP JUMPDEST PUSH1 0x0 PUSH2 0x6FAD PUSH1 0x18 DUP4 PUSH2 0x574B JUMP JUMPDEST SWAP2 POP PUSH2 0x6FB8 DUP3 PUSH2 0x6F77 JUMP JUMPDEST PUSH1 0x20 DUP3 ADD SWAP1 POP SWAP2 SWAP1 POP JUMP JUMPDEST PUSH1 0x0 PUSH1 0x20 DUP3 ADD SWAP1 POP DUP2 DUP2 SUB PUSH1 0x0 DUP4 ADD MSTORE PUSH2 0x6FDC DUP2 PUSH2 0x6FA0 JUMP JUMPDEST SWAP1 POP SWAP2 SWAP1 POP JUMP JUMPDEST PUSH32 0x4552433732313A2061646472657373207A65726F206973206E6F742061207661 PUSH1 0x0 DUP3 ADD MSTORE PUSH32 0x6C6964206F776E65720000000000000000000000000000000000000000000000 PUSH1 0x20 DUP3 ADD MSTORE POP JUMP JUMPDEST PUSH1 0x0 PUSH2 0x703F PUSH1 0x29 DUP4 PUSH2 0x574B JUMP JUMPDEST SWAP2 POP PUSH2 0x704A DUP3 PUSH2 0x6FE3 JUMP JUMPDEST PUSH1 0x40 DUP3 ADD SWAP1 POP SWAP2 SWAP1 POP JUMP JUMPDEST PUSH1 0x0 PUSH1 0x20 DUP3 ADD SWAP1 POP DUP2 DUP2 SUB PUSH1 0x0 DUP4 ADD MSTORE PUSH2 0x706E DUP2 PUSH2 0x7032 JUMP JUMPDEST SWAP1 POP SWAP2 SWAP1 POP JUMP JUMPDEST PUSH2 0x707E DUP2 PUSH2 0x5875 JUMP JUMPDEST DUP3 MSTORE POP POP JUMP JUMPDEST PUSH2 0x708D DUP2 PUSH2 0x57F2 JUMP JUMPDEST DUP3 MSTORE POP POP JUMP JUMPDEST PUSH1 0x0 DUP3 DUP3 MSTORE PUSH1 0x20 DUP3 ADD SWAP1 POP SWAP3 SWAP2 POP POP JUMP JUMPDEST PUSH1 0x0 PUSH2 0x70B0 DUP4 DUP6 PUSH2 0x7093 JUMP JUMPDEST SWAP4 POP PUSH2 0x70BD DUP4 DUP6 DUP5 PUSH2 0x5EE0 JUMP JUMPDEST PUSH2 0x70C6 DUP4 PUSH2 0x5786 JUMP JUMPDEST DUP5 ADD SWAP1 POP SWAP4 SWAP3 POP POP POP JUMP JUMPDEST PUSH32 0x4E487B7100000000000000000000000000000000000000000000000000000000 PUSH1 0x0 MSTORE PUSH1 0x21 PUSH1 0x4 MSTORE PUSH1 0x24 PUSH1 0x0 REVERT JUMPDEST PUSH1 0x2 DUP2 LT PUSH2 0x7111 JUMPI PUSH2 0x7110 PUSH2 0x70D1 JUMP JUMPDEST JUMPDEST POP JUMP JUMPDEST PUSH1 0x0 DUP2 SWAP1 POP PUSH2 0x7122 DUP3 PUSH2 0x7100 JUMP JUMPDEST SWAP2 SWAP1 POP JUMP JUMPDEST PUSH1 0x0 PUSH2 0x7132 DUP3 PUSH2 0x7114 JUMP JUMPDEST SWAP1 POP SWAP2 SWAP1 POP JUMP JUMPDEST PUSH2 0x7142 DUP2 PUSH2 0x7127 JUMP JUMPDEST DUP3 MSTORE POP POP JUMP JUMPDEST PUSH1 0x0 PUSH1 0xA0 DUP3 ADD SWAP1 POP PUSH2 0x715D PUSH1 0x0 DUP4 ADD DUP10 PUSH2 0x7075 JUMP JUMPDEST PUSH2 0x716A PUSH1 0x20 DUP4 ADD DUP9 PUSH2 0x7084 JUMP JUMPDEST PUSH2 0x7177 PUSH1 0x40 DUP4 ADD DUP8 PUSH2 0x7084 JUMP JUMPDEST DUP2 DUP2 SUB PUSH1 0x60 DUP4 ADD MSTORE PUSH2 0x718A DUP2 DUP6 DUP8 PUSH2 0x70A4 JUMP JUMPDEST SWAP1 POP PUSH2 0x7199 PUSH1 0x80 DUP4 ADD DUP5 PUSH2 0x7139 JUMP JUMPDEST SWAP8 SWAP7 POP POP POP POP POP POP POP JUMP JUMPDEST PUSH32 0x4E6F742062652063616C6C65642066726F6D20446161702043726561746F7200 PUSH1 0x0 DUP3 ADD MSTORE POP JUMP JUMPDEST PUSH1 0x0 PUSH2 0x71DA PUSH1 0x1F DUP4 PUSH2 0x574B JUMP JUMPDEST SWAP2 POP PUSH2 0x71E5 DUP3 PUSH2 0x71A4 JUMP JUMPDEST PUSH1 0x20 DUP3 ADD SWAP1 POP SWAP2 SWAP1 POP JUMP JUMPDEST PUSH1 0x0 PUSH1 0x20 DUP3 ADD SWAP1 POP DUP2 DUP2 SUB PUSH1 0x0 DUP4 ADD MSTORE PUSH2 0x7209 DUP2 PUSH2 0x71CD JUMP JUMPDEST SWAP1 POP SWAP2 SWAP1 POP JUMP JUMPDEST PUSH2 0x7219 DUP2 PUSH2 0x59FD JUMP JUMPDEST DUP3 MSTORE POP POP JUMP JUMPDEST PUSH1 0x0 PUSH1 0x40 DUP3 ADD SWAP1 POP PUSH2 0x7234 PUSH1 0x0 DUP4 ADD DUP6 PUSH2 0x5887 JUMP JUMPDEST PUSH2 0x7241 PUSH1 0x20 DUP4 ADD DUP5 PUSH2 0x7210 JUMP JUMPDEST SWAP4 SWAP3 POP POP POP JUMP JUMPDEST PUSH1 0x0 DUP1 REVERT JUMPDEST PUSH1 0x0 DUP2 MLOAD SWAP1 POP PUSH2 0x725C DUP2 PUSH2 0x5A0A JUMP JUMPDEST SWAP3 SWAP2 POP POP JUMP JUMPDEST PUSH1 0x0 PUSH1 0x60 DUP3 DUP5 SUB SLT ISZERO PUSH2 0x7278 JUMPI PUSH2 0x7277 PUSH2 0x7248 JUMP JUMPDEST JUMPDEST PUSH2 0x7282 PUSH1 0x60 PUSH2 0x5C8C JUMP JUMPDEST SWAP1 POP PUSH1 0x0 PUSH2 0x7292 DUP5 DUP3 DUP6 ADD PUSH2 0x724D JUMP JUMPDEST PUSH1 0x0 DUP4 ADD MSTORE POP PUSH1 0x20 PUSH2 0x72A6 DUP5 DUP3 DUP6 ADD PUSH2 0x6C3C JUMP JUMPDEST PUSH1 0x20 DUP4 ADD MSTORE POP PUSH1 0x40 PUSH2 0x72BA DUP5 DUP3 DUP6 ADD PUSH2 0x6C3C JUMP JUMPDEST PUSH1 0x40 DUP4 ADD MSTORE POP SWAP3 SWAP2 POP POP JUMP JUMPDEST PUSH1 0x0 PUSH1 0x60 DUP3 DUP5 SUB SLT ISZERO PUSH2 0x72DC JUMPI PUSH2 0x72DB PUSH2 0x567B JUMP JUMPDEST JUMPDEST PUSH1 0x0 PUSH2 0x72EA DUP5 DUP3 DUP6 ADD PUSH2 0x7262 JUMP JUMPDEST SWAP2 POP POP SWAP3 SWAP2 POP POP JUMP JUMPDEST PUSH32 0x546F6B656E207479706520646F6573206E6F7420657869737400000000000000 PUSH1 0x0 DUP3 ADD MSTORE POP JUMP JUMPDEST PUSH1 0x0 PUSH2 0x7329 PUSH1 0x19 DUP4 PUSH2 0x574B JUMP JUMPDEST SWAP2 POP PUSH2 0x7334 DUP3 PUSH2 0x72F3 JUMP JUMPDEST PUSH1 0x20 DUP3 ADD SWAP1 POP SWAP2 SWAP1 POP JUMP JUMPDEST PUSH1 0x0 PUSH1 0x20 DUP3 ADD SWAP1 POP DUP2 DUP2 SUB PUSH1 0x0 DUP4 ADD MSTORE PUSH2 0x7358 DUP2 PUSH2 0x731C JUMP JUMPDEST SWAP1 POP SWAP2 SWAP1 POP JUMP JUMPDEST PUSH32 0x4E4654207479706520736F6C64206F7574000000000000000000000000000000 PUSH1 0x0 DUP3 ADD MSTORE POP JUMP JUMPDEST PUSH1 0x0 PUSH2 0x7395 PUSH1 0x11 DUP4 PUSH2 0x574B JUMP JUMPDEST SWAP2 POP PUSH2 0x73A0 DUP3 PUSH2 0x735F JUMP JUMPDEST PUSH1 0x20 DUP3 ADD SWAP1 POP SWAP2 SWAP1 POP JUMP JUMPDEST PUSH1 0x0 PUSH1 0x20 DUP3 ADD SWAP1 POP DUP2 DUP2 SUB PUSH1 0x0 DUP4 ADD MSTORE PUSH2 0x73C4 DUP2 PUSH2 0x7388 JUMP JUMPDEST SWAP1 POP SWAP2 SWAP1 POP JUMP JUMPDEST PUSH1 0x0 PUSH2 0x73E6 PUSH2 0x73E1 PUSH2 0x73DC DUP5 PUSH2 0x59FD JUMP JUMPDEST PUSH2 0x6136 JUMP JUMPDEST PUSH2 0x57F2 JUMP JUMPDEST SWAP1 POP SWAP2 SWAP1 POP JUMP JUMPDEST PUSH2 0x73F6 DUP2 PUSH2 0x73CB JUMP JUMPDEST DUP3 MSTORE POP POP JUMP JUMPDEST PUSH1 0x0 PUSH1 0x60 DUP3 ADD SWAP1 POP PUSH2 0x7411 PUSH1 0x0 DUP4 ADD DUP7 PUSH2 0x5887 JUMP JUMPDEST PUSH2 0x741E PUSH1 0x20 DUP4 ADD DUP6 PUSH2 0x5A63 JUMP JUMPDEST PUSH2 0x742B PUSH1 0x40 DUP4 ADD DUP5 PUSH2 0x73ED JUMP JUMPDEST SWAP5 SWAP4 POP POP POP POP JUMP JUMPDEST PUSH1 0x0 PUSH2 0x743F DUP4 DUP6 PUSH2 0x574B JUMP JUMPDEST SWAP4 POP PUSH2 0x744C DUP4 DUP6 DUP5 PUSH2 0x5EE0 JUMP JUMPDEST PUSH2 0x7455 DUP4 PUSH2 0x5786 JUMP JUMPDEST DUP5 ADD SWAP1 POP SWAP4 SWAP3 POP POP POP JUMP JUMPDEST PUSH1 0x0 DUP2 MLOAD SWAP1 POP SWAP2 SWAP1 POP JUMP JUMPDEST PUSH1 0x0 DUP3 DUP3 MSTORE PUSH1 0x20 DUP3 ADD SWAP1 POP SWAP3 SWAP2 POP POP JUMP JUMPDEST PUSH1 0x0 DUP2 SWAP1 POP PUSH1 0x20 DUP3 ADD SWAP1 POP SWAP2 SWAP1 POP JUMP JUMPDEST PUSH1 0x40 DUP3 ADD PUSH1 0x0 DUP3 ADD MLOAD PUSH2 0x74A2 PUSH1 0x0 DUP6 ADD DUP3 PUSH2 0x61DC JUMP JUMPDEST POP PUSH1 0x20 DUP3 ADD MLOAD PUSH2 0x74B5 PUSH1 0x20 DUP6 ADD DUP3 PUSH2 0x61DC JUMP JUMPDEST POP POP POP POP JUMP JUMPDEST PUSH1 0x0 PUSH2 0x74C7 DUP4 DUP4 PUSH2 0x748C JUMP JUMPDEST PUSH1 0x40 DUP4 ADD SWAP1 POP SWAP3 SWAP2 POP POP JUMP JUMPDEST PUSH1 0x0 PUSH1 0x20 DUP3 ADD SWAP1 POP SWAP2 SWAP1 POP JUMP JUMPDEST PUSH1 0x0 PUSH2 0x74EB DUP3 PUSH2 0x7460 JUMP JUMPDEST PUSH2 0x74F5 DUP2 DUP6 PUSH2 0x746B JUMP JUMPDEST SWAP4 POP PUSH2 0x7500 DUP4 PUSH2 0x747C JUMP JUMPDEST DUP1 PUSH1 0x0 JUMPDEST DUP4 DUP2 LT ISZERO PUSH2 0x7531 JUMPI DUP2 MLOAD PUSH2 0x7518 DUP9 DUP3 PUSH2 0x74BB JUMP JUMPDEST SWAP8 POP PUSH2 0x7523 DUP4 PUSH2 0x74D3 JUMP JUMPDEST SWAP3 POP POP PUSH1 0x1 DUP2 ADD SWAP1 POP PUSH2 0x7504 JUMP JUMPDEST POP DUP6 SWAP4 POP POP POP POP SWAP3 SWAP2 POP POP JUMP JUMPDEST PUSH1 0x0 PUSH1 0x60 DUP3 ADD SWAP1 POP DUP2 DUP2 SUB PUSH1 0x0 DUP4 ADD MSTORE PUSH2 0x7559 DUP2 DUP7 DUP9 PUSH2 0x7433 JUMP JUMPDEST SWAP1 POP PUSH2 0x7568 PUSH1 0x20 DUP4 ADD DUP6 PUSH2 0x5887 JUMP JUMPDEST DUP2 DUP2 SUB PUSH1 0x40 DUP4 ADD MSTORE PUSH2 0x757A DUP2 DUP5 PUSH2 0x74E0 JUMP JUMPDEST SWAP1 POP SWAP6 SWAP5 POP POP POP POP POP JUMP JUMPDEST PUSH32 0x4E6F20746F6B656E20746F206D696E7400000000000000000000000000000000 PUSH1 0x0 DUP3 ADD MSTORE POP JUMP JUMPDEST PUSH1 0x0 PUSH2 0x75BB PUSH1 0x10 DUP4 PUSH2 0x574B JUMP JUMPDEST SWAP2 POP PUSH2 0x75C6 DUP3 PUSH2 0x7585 JUMP JUMPDEST PUSH1 0x20 DUP3 ADD SWAP1 POP SWAP2 SWAP1 POP JUMP JUMPDEST PUSH1 0x0 PUSH1 0x20 DUP3 ADD SWAP1 POP DUP2 DUP2 SUB PUSH1 0x0 DUP4 ADD MSTORE PUSH2 0x75EA DUP2 PUSH2 0x75AE JUMP JUMPDEST SWAP1 POP SWAP2 SWAP1 POP JUMP JUMPDEST PUSH1 0x0 PUSH1 0x80 DUP3 ADD SWAP1 POP PUSH2 0x7606 PUSH1 0x0 DUP4 ADD DUP9 PUSH2 0x7075 JUMP JUMPDEST PUSH2 0x7613 PUSH1 0x20 DUP4 ADD DUP8 PUSH2 0x7084 JUMP JUMPDEST DUP2 DUP2 SUB PUSH1 0x40 DUP4 ADD MSTORE PUSH2 0x7626 DUP2 DUP6 DUP8 PUSH2 0x70A4 JUMP JUMPDEST SWAP1 POP PUSH2 0x7635 PUSH1 0x60 DUP4 ADD DUP5 PUSH2 0x7139 JUMP JUMPDEST SWAP7 SWAP6 POP POP POP POP POP POP JUMP JUMPDEST PUSH1 0x0 PUSH2 0x7652 PUSH2 0x764D DUP5 PUSH2 0x5FBB JUMP JUMPDEST PUSH2 0x5C8C JUMP JUMPDEST SWAP1 POP DUP3 DUP2 MSTORE PUSH1 0x20 DUP2 ADD DUP5 DUP5 DUP5 ADD GT ISZERO PUSH2 0x766E JUMPI PUSH2 0x766D PUSH2 0x5EAA JUMP JUMPDEST JUMPDEST PUSH2 0x7679 DUP5 DUP3 DUP6 PUSH2 0x575C JUMP JUMPDEST POP SWAP4 SWAP3 POP POP POP JUMP JUMPDEST PUSH1 0x0 DUP3 PUSH1 0x1F DUP4 ADD SLT PUSH2 0x7696 JUMPI PUSH2 0x7695 PUSH2 0x5C27 JUMP JUMPDEST JUMPDEST DUP2 MLOAD PUSH2 0x76A6 DUP5 DUP3 PUSH1 0x20 DUP7 ADD PUSH2 0x763F JUMP JUMPDEST SWAP2 POP POP SWAP3 SWAP2 POP POP JUMP JUMPDEST PUSH1 0x0 PUSH1 0x20 DUP3 DUP5 SUB SLT ISZERO PUSH2 0x76C5 JUMPI PUSH2 0x76C4 PUSH2 0x567B JUMP JUMPDEST JUMPDEST PUSH1 0x0 DUP3 ADD MLOAD PUSH8 0xFFFFFFFFFFFFFFFF DUP2 GT ISZERO PUSH2 0x76E3 JUMPI PUSH2 0x76E2 PUSH2 0x5680 JUMP JUMPDEST JUMPDEST PUSH2 0x76EF DUP5 DUP3 DUP6 ADD PUSH2 0x7681 JUMP JUMPDEST SWAP2 POP POP SWAP3 SWAP2 POP POP JUMP JUMPDEST PUSH32 0x4F776E61626C653A206E6577206F776E657220697320746865207A65726F2061 PUSH1 0x0 DUP3 ADD MSTORE PUSH32 0x6464726573730000000000000000000000000000000000000000000000000000 PUSH1 0x20 DUP3 ADD MSTORE POP JUMP JUMPDEST PUSH1 0x0 PUSH2 0x7754 PUSH1 0x26 DUP4 PUSH2 0x574B JUMP JUMPDEST SWAP2 POP PUSH2 0x775F DUP3 PUSH2 0x76F8 JUMP JUMPDEST PUSH1 0x40 DUP3 ADD SWAP1 POP SWAP2 SWAP1 POP JUMP JUMPDEST PUSH1 0x0 PUSH1 0x20 DUP3 ADD SWAP1 POP DUP2 DUP2 SUB PUSH1 0x0 DUP4 ADD MSTORE PUSH2 0x7783 DUP2 PUSH2 0x7747 JUMP JUMPDEST SWAP1 POP SWAP2 SWAP1 POP JUMP JUMPDEST PUSH32 0x55736572206E6F7420696E2077686974656C697374206F72206C696D69742072 PUSH1 0x0 DUP3 ADD MSTORE PUSH32 0x6561636865640000000000000000000000000000000000000000000000000000 PUSH1 0x20 DUP3 ADD MSTORE POP JUMP JUMPDEST PUSH1 0x0 PUSH2 0x77E6 PUSH1 0x26 DUP4 PUSH2 0x574B JUMP JUMPDEST SWAP2 POP PUSH2 0x77F1 DUP3 PUSH2 0x778A JUMP JUMPDEST PUSH1 0x40 DUP3 ADD SWAP1 POP SWAP2 SWAP1 POP JUMP JUMPDEST PUSH1 0x0 PUSH1 0x20 DUP3 ADD SWAP1 POP DUP2 DUP2 SUB PUSH1 0x0 DUP4 ADD MSTORE PUSH2 0x7815 DUP2 PUSH2 0x77D9 JUMP JUMPDEST SWAP1 POP SWAP2 SWAP1 POP JUMP JUMPDEST PUSH32 0x49742773206E6F742074696D6520746F20627579207075626C69632073616C65 PUSH1 0x0 DUP3 ADD MSTORE POP JUMP JUMPDEST PUSH1 0x0 PUSH2 0x7852 PUSH1 0x20 DUP4 PUSH2 0x574B JUMP JUMPDEST SWAP2 POP PUSH2 0x785D DUP3 PUSH2 0x781C JUMP JUMPDEST PUSH1 0x20 DUP3 ADD SWAP1 POP SWAP2 SWAP1 POP JUMP JUMPDEST PUSH1 0x0 PUSH1 0x20 DUP3 ADD SWAP1 POP DUP2 DUP2 SUB PUSH1 0x0 DUP4 ADD MSTORE PUSH2 0x7881 DUP2 PUSH2 0x7845 JUMP JUMPDEST SWAP1 POP SWAP2 SWAP1 POP JUMP JUMPDEST PUSH32 0x49742773206E6F742074696D6520746F20627579000000000000000000000000 PUSH1 0x0 DUP3 ADD MSTORE POP JUMP JUMPDEST PUSH1 0x0 PUSH2 0x78BE PUSH1 0x14 DUP4 PUSH2 0x574B JUMP JUMPDEST SWAP2 POP PUSH2 0x78C9 DUP3 PUSH2 0x7888 JUMP JUMPDEST PUSH1 0x20 DUP3 ADD SWAP1 POP SWAP2 SWAP1 POP JUMP JUMPDEST PUSH1 0x0 PUSH1 0x20 DUP3 ADD SWAP1 POP DUP2 DUP2 SUB PUSH1 0x0 DUP4 ADD MSTORE PUSH2 0x78ED DUP2 PUSH2 0x78B1 JUMP JUMPDEST SWAP1 POP SWAP2 SWAP1 POP JUMP JUMPDEST PUSH32 0x427579206C696D69742072656163686564000000000000000000000000000000 PUSH1 0x0 DUP3 ADD MSTORE POP JUMP JUMPDEST PUSH1 0x0 PUSH2 0x792A PUSH1 0x11 DUP4 PUSH2 0x574B JUMP JUMPDEST SWAP2 POP PUSH2 0x7935 DUP3 PUSH2 0x78F4 JUMP JUMPDEST PUSH1 0x20 DUP3 ADD SWAP1 POP SWAP2 SWAP1 POP JUMP JUMPDEST PUSH1 0x0 PUSH1 0x20 DUP3 ADD SWAP1 POP DUP2 DUP2 SUB PUSH1 0x0 DUP4 ADD MSTORE PUSH2 0x7959 DUP2 PUSH2 0x791D JUMP JUMPDEST SWAP1 POP SWAP2 SWAP1 POP JUMP JUMPDEST PUSH32 0x55736572206E65656420686F6C6420656E6F75676820546F6B656E20746F2062 PUSH1 0x0 DUP3 ADD MSTORE PUSH32 0x75792074686973206E6674000000000000000000000000000000000000000000 PUSH1 0x20 DUP3 ADD MSTORE POP JUMP JUMPDEST PUSH1 0x0 PUSH2 0x79BC PUSH1 0x2B DUP4 PUSH2 0x574B JUMP JUMPDEST SWAP2 POP PUSH2 0x79C7 DUP3 PUSH2 0x7960 JUMP JUMPDEST PUSH1 0x40 DUP3 ADD SWAP1 POP SWAP2 SWAP1 POP JUMP JUMPDEST PUSH1 0x0 PUSH1 0x20 DUP3 ADD SWAP1 POP DUP2 DUP2 SUB PUSH1 0x0 DUP4 ADD MSTORE PUSH2 0x79EB DUP2 PUSH2 0x79AF JUMP JUMPDEST SWAP1 POP SWAP2 SWAP1 POP JUMP JUMPDEST PUSH1 0x0 PUSH1 0x60 DUP3 ADD SWAP1 POP PUSH2 0x7A07 PUSH1 0x0 DUP4 ADD DUP7 PUSH2 0x5887 JUMP JUMPDEST PUSH2 0x7A14 PUSH1 0x20 DUP4 ADD DUP6 PUSH2 0x5887 JUMP JUMPDEST PUSH2 0x7A21 PUSH1 0x40 DUP4 ADD DUP5 PUSH2 0x5A63 JUMP JUMPDEST SWAP5 SWAP4 POP POP POP POP JUMP JUMPDEST PUSH1 0x0 PUSH2 0x7A34 DUP3 PUSH2 0x57F2 JUMP JUMPDEST SWAP2 POP PUSH2 0x7A3F DUP4 PUSH2 0x57F2 JUMP JUMPDEST SWAP3 POP DUP3 DUP3 SUB SWAP1 POP DUP2 DUP2 GT ISZERO PUSH2 0x7A57 JUMPI PUSH2 0x7A56 PUSH2 0x69B5 JUMP JUMPDEST JUMPDEST SWAP3 SWAP2 POP POP JUMP JUMPDEST PUSH32 0x4552433732313A207472616E736665722066726F6D20696E636F727265637420 PUSH1 0x0 DUP3 ADD MSTORE PUSH32 0x6F776E6572000000000000000000000000000000000000000000000000000000 PUSH1 0x20 DUP3 ADD MSTORE POP JUMP JUMPDEST PUSH1 0x0 PUSH2 0x7AB9 PUSH1 0x25 DUP4 PUSH2 0x574B JUMP JUMPDEST SWAP2 POP PUSH2 0x7AC4 DUP3 PUSH2 0x7A5D JUMP JUMPDEST PUSH1 0x40 DUP3 ADD SWAP1 POP SWAP2 SWAP1 POP JUMP JUMPDEST PUSH1 0x0 PUSH1 0x20 DUP3 ADD SWAP1 POP DUP2 DUP2 SUB PUSH1 0x0 DUP4 ADD MSTORE PUSH2 0x7AE8 DUP2 PUSH2 0x7AAC JUMP JUMPDEST SWAP1 POP SWAP2 SWAP1 POP JUMP JUMPDEST PUSH32 0x4552433732313A207472616E7366657220746F20746865207A65726F20616464 PUSH1 0x0 DUP3 ADD MSTORE PUSH32 0x7265737300000000000000000000000000000000000000000000000000000000 PUSH1 0x20 DUP3 ADD MSTORE POP JUMP JUMPDEST PUSH1 0x0 PUSH2 0x7B4B PUSH1 0x24 DUP4 PUSH2 0x574B JUMP JUMPDEST SWAP2 POP PUSH2 0x7B56 DUP3 PUSH2 0x7AEF JUMP JUMPDEST PUSH1 0x40 DUP3 ADD SWAP1 POP SWAP2 SWAP1 POP JUMP JUMPDEST PUSH1 0x0 PUSH1 0x20 DUP3 ADD SWAP1 POP DUP2 DUP2 SUB PUSH1 0x0 DUP4 ADD MSTORE PUSH2 0x7B7A DUP2 PUSH2 0x7B3E JUMP JUMPDEST SWAP1 POP SWAP2 SWAP1 POP JUMP JUMPDEST PUSH1 0x0 DUP2 MLOAD SWAP1 POP PUSH2 0x7B90 DUP2 PUSH2 0x597A JUMP JUMPDEST SWAP3 SWAP2 POP POP JUMP JUMPDEST PUSH1 0x0 PUSH1 0x20 DUP3 DUP5 SUB SLT ISZERO PUSH2 0x7BAC JUMPI PUSH2 0x7BAB PUSH2 0x567B JUMP JUMPDEST JUMPDEST PUSH1 0x0 PUSH2 0x7BBA DUP5 DUP3 DUP6 ADD PUSH2 0x7B81 JUMP JUMPDEST SWAP2 POP POP SWAP3 SWAP2 POP POP JUMP JUMPDEST PUSH32 0x45524331393637557067726164653A206E657720696D706C656D656E74617469 PUSH1 0x0 DUP3 ADD MSTORE PUSH32 0x6F6E206973206E6F742055555053000000000000000000000000000000000000 PUSH1 0x20 DUP3 ADD MSTORE POP JUMP JUMPDEST PUSH1 0x0 PUSH2 0x7C1F PUSH1 0x2E DUP4 PUSH2 0x574B JUMP JUMPDEST SWAP2 POP PUSH2 0x7C2A DUP3 PUSH2 0x7BC3 JUMP JUMPDEST PUSH1 0x40 DUP3 ADD SWAP1 POP SWAP2 SWAP1 POP JUMP JUMPDEST PUSH1 0x0 PUSH1 0x20 DUP3 ADD SWAP1 POP DUP2 DUP2 SUB PUSH1 0x0 DUP4 ADD MSTORE PUSH2 0x7C4E DUP2 PUSH2 0x7C12 JUMP JUMPDEST SWAP1 POP SWAP2 SWAP1 POP JUMP JUMPDEST PUSH32 0x45524331393637557067726164653A20756E737570706F727465642070726F78 PUSH1 0x0 DUP3 ADD MSTORE PUSH32 0x6961626C65555549440000000000000000000000000000000000000000000000 PUSH1 0x20 DUP3 ADD MSTORE POP JUMP JUMPDEST PUSH1 0x0 PUSH2 0x7CB1 PUSH1 0x29 DUP4 PUSH2 0x574B JUMP JUMPDEST SWAP2 POP PUSH2 0x7CBC DUP3 PUSH2 0x7C55 JUMP JUMPDEST PUSH1 0x40 DUP3 ADD SWAP1 POP SWAP2 SWAP1 POP JUMP JUMPDEST PUSH1 0x0 PUSH1 0x20 DUP3 ADD SWAP1 POP DUP2 DUP2 SUB PUSH1 0x0 DUP4 ADD MSTORE PUSH2 0x7CE0 DUP2 PUSH2 0x7CA4 JUMP JUMPDEST SWAP1 POP SWAP2 SWAP1 POP JUMP JUMPDEST PUSH32 0x496E697469616C697A61626C653A20636F6E7472616374206973206E6F742069 PUSH1 0x0 DUP3 ADD MSTORE PUSH32 0x6E697469616C697A696E67000000000000000000000000000000000000000000 PUSH1 0x20 DUP3 ADD MSTORE POP JUMP JUMPDEST PUSH1 0x0 PUSH2 0x7D43 PUSH1 0x2B DUP4 PUSH2 0x574B JUMP JUMPDEST SWAP2 POP PUSH2 0x7D4E DUP3 PUSH2 0x7CE7 JUMP JUMPDEST PUSH1 0x40 DUP3 ADD SWAP1 POP SWAP2 SWAP1 POP JUMP JUMPDEST PUSH1 0x0 PUSH1 0x20 DUP3 ADD SWAP1 POP DUP2 DUP2 SUB PUSH1 0x0 DUP4 ADD MSTORE PUSH2 0x7D72 DUP2 PUSH2 0x7D36 JUMP JUMPDEST SWAP1 POP SWAP2 SWAP1 POP JUMP JUMPDEST PUSH32 0x455243323938313A20726F79616C7479206665652077696C6C20657863656564 PUSH1 0x0 DUP3 ADD MSTORE PUSH32 0x2073616C65507269636500000000000000000000000000000000000000000000 PUSH1 0x20 DUP3 ADD MSTORE POP JUMP JUMPDEST PUSH1 0x0 PUSH2 0x7DD5 PUSH1 0x2A DUP4 PUSH2 0x574B JUMP JUMPDEST SWAP2 POP PUSH2 0x7DE0 DUP3 PUSH2 0x7D79 JUMP JUMPDEST PUSH1 0x40 DUP3 ADD SWAP1 POP SWAP2 SWAP1 POP JUMP JUMPDEST PUSH1 0x0 PUSH1 0x20 DUP3 ADD SWAP1 POP DUP2 DUP2 SUB PUSH1 0x0 DUP4 ADD MSTORE PUSH2 0x7E04 DUP2 PUSH2 0x7DC8 JUMP JUMPDEST SWAP1 POP SWAP2 SWAP1 POP JUMP JUMPDEST PUSH32 0x455243323938313A20696E76616C696420726563656976657200000000000000 PUSH1 0x0 DUP3 ADD MSTORE POP JUMP JUMPDEST PUSH1 0x0 PUSH2 0x7E41 PUSH1 0x19 DUP4 PUSH2 0x574B JUMP JUMPDEST SWAP2 POP PUSH2 0x7E4C DUP3 PUSH2 0x7E0B JUMP JUMPDEST PUSH1 0x20 DUP3 ADD SWAP1 POP SWAP2 SWAP1 POP JUMP JUMPDEST PUSH1 0x0 PUSH1 0x20 DUP3 ADD SWAP1 POP DUP2 DUP2 SUB PUSH1 0x0 DUP4 ADD MSTORE PUSH2 0x7E70 DUP2 PUSH2 0x7E34 JUMP JUMPDEST SWAP1 POP SWAP2 SWAP1 POP JUMP JUMPDEST PUSH32 0x4F776E61626C653A2063616C6C6572206973206E6F7420746865206F776E6572 PUSH1 0x0 DUP3 ADD MSTORE POP JUMP JUMPDEST PUSH1 0x0 PUSH2 0x7EAD PUSH1 0x20 DUP4 PUSH2 0x574B JUMP JUMPDEST SWAP2 POP PUSH2 0x7EB8 DUP3 PUSH2 0x7E77 JUMP JUMPDEST PUSH1 0x20 DUP3 ADD SWAP1 POP SWAP2 SWAP1 POP JUMP JUMPDEST PUSH1 0x0 PUSH1 0x20 DUP3 ADD SWAP1 POP DUP2 DUP2 SUB PUSH1 0x0 DUP4 ADD MSTORE PUSH2 0x7EDC DUP2 PUSH2 0x7EA0 JUMP JUMPDEST SWAP1 POP SWAP2 SWAP1 POP JUMP JUMPDEST PUSH1 0x0 DUP2 MLOAD SWAP1 POP PUSH2 0x7EF2 DUP2 PUSH2 0x58B1 JUMP JUMPDEST SWAP3 SWAP2 POP POP JUMP JUMPDEST PUSH1 0x0 PUSH1 0x20 DUP3 DUP5 SUB SLT ISZERO PUSH2 0x7F0E JUMPI PUSH2 0x7F0D PUSH2 0x567B JUMP JUMPDEST JUMPDEST PUSH1 0x0 PUSH2 0x7F1C DUP5 DUP3 DUP6 ADD PUSH2 0x7EE3 JUMP JUMPDEST SWAP2 POP POP SWAP3 SWAP2 POP POP JUMP JUMPDEST PUSH32 0x4552433732313A20617070726F766520746F2063616C6C657200000000000000 PUSH1 0x0 DUP3 ADD MSTORE POP JUMP JUMPDEST PUSH1 0x0 PUSH2 0x7F5B PUSH1 0x19 DUP4 PUSH2 0x574B JUMP JUMPDEST SWAP2 POP PUSH2 0x7F66 DUP3 PUSH2 0x7F25 JUMP JUMPDEST PUSH1 0x20 DUP3 ADD SWAP1 POP SWAP2 SWAP1 POP JUMP JUMPDEST PUSH1 0x0 PUSH1 0x20 DUP3 ADD SWAP1 POP DUP2 DUP2 SUB PUSH1 0x0 DUP4 ADD MSTORE PUSH2 0x7F8A DUP2 PUSH2 0x7F4E JUMP JUMPDEST SWAP1 POP SWAP2 SWAP1 POP JUMP JUMPDEST PUSH32 0x4552433732313A207472616E7366657220746F206E6F6E204552433732315265 PUSH1 0x0 DUP3 ADD MSTORE PUSH32 0x63656976657220696D706C656D656E7465720000000000000000000000000000 PUSH1 0x20 DUP3 ADD MSTORE POP JUMP JUMPDEST PUSH1 0x0 PUSH2 0x7FED PUSH1 0x32 DUP4 PUSH2 0x574B JUMP JUMPDEST SWAP2 POP PUSH2 0x7FF8 DUP3 PUSH2 0x7F91 JUMP JUMPDEST PUSH1 0x40 DUP3 ADD SWAP1 POP SWAP2 SWAP1 POP JUMP JUMPDEST PUSH1 0x0 PUSH1 0x20 DUP3 ADD SWAP1 POP DUP2 DUP2 SUB PUSH1 0x0 DUP4 ADD MSTORE PUSH2 0x801C DUP2 PUSH2 0x7FE0 JUMP JUMPDEST SWAP1 POP SWAP2 SWAP1 POP JUMP JUMPDEST PUSH1 0x0 DUP2 SWAP1 POP SWAP3 SWAP2 POP POP JUMP JUMPDEST PUSH32 0x416363657373436F6E74726F6C3A206163636F756E7420000000000000000000 PUSH1 0x0 DUP3 ADD MSTORE POP JUMP JUMPDEST PUSH1 0x0 PUSH2 0x8064 PUSH1 0x17 DUP4 PUSH2 0x8023 JUMP JUMPDEST SWAP2 POP PUSH2 0x806F DUP3 PUSH2 0x802E JUMP JUMPDEST PUSH1 0x17 DUP3 ADD SWAP1 POP SWAP2 SWAP1 POP JUMP JUMPDEST PUSH1 0x0 PUSH2 0x8085 DUP3 PUSH2 0x5740 JUMP JUMPDEST PUSH2 0x808F DUP2 DUP6 PUSH2 0x8023 JUMP JUMPDEST SWAP4 POP PUSH2 0x809F DUP2 DUP6 PUSH1 0x20 DUP7 ADD PUSH2 0x575C JUMP JUMPDEST DUP1 DUP5 ADD SWAP2 POP POP SWAP3 SWAP2 POP POP JUMP JUMPDEST PUSH32 0x206973206D697373696E6720726F6C6520000000000000000000000000000000 PUSH1 0x0 DUP3 ADD MSTORE POP JUMP JUMPDEST PUSH1 0x0 PUSH2 0x80E1 PUSH1 0x11 DUP4 PUSH2 0x8023 JUMP JUMPDEST SWAP2 POP PUSH2 0x80EC DUP3 PUSH2 0x80AB JUMP JUMPDEST PUSH1 0x11 DUP3 ADD SWAP1 POP SWAP2 SWAP1 POP JUMP JUMPDEST PUSH1 0x0 PUSH2 0x8102 DUP3 PUSH2 0x8057 JUMP JUMPDEST SWAP2 POP PUSH2 0x810E DUP3 DUP6 PUSH2 0x807A JUMP JUMPDEST SWAP2 POP PUSH2 0x8119 DUP3 PUSH2 0x80D4 JUMP JUMPDEST SWAP2 POP PUSH2 0x8125 DUP3 DUP5 PUSH2 0x807A JUMP JUMPDEST SWAP2 POP DUP2 SWAP1 POP SWAP4 SWAP3 POP POP POP JUMP JUMPDEST PUSH32 0x455243313936373A206E657720696D706C656D656E746174696F6E206973206E PUSH1 0x0 DUP3 ADD MSTORE PUSH32 0x6F74206120636F6E747261637400000000000000000000000000000000000000 PUSH1 0x20 DUP3 ADD MSTORE POP JUMP JUMPDEST PUSH1 0x0 PUSH2 0x818D PUSH1 0x2D DUP4 PUSH2 0x574B JUMP JUMPDEST SWAP2 POP PUSH2 0x8198 DUP3 PUSH2 0x8131 JUMP JUMPDEST PUSH1 0x40 DUP3 ADD SWAP1 POP SWAP2 SWAP1 POP JUMP JUMPDEST PUSH1 0x0 PUSH1 0x20 DUP3 ADD SWAP1 POP DUP2 DUP2 SUB PUSH1 0x0 DUP4 ADD MSTORE PUSH2 0x81BC DUP2 PUSH2 0x8180 JUMP JUMPDEST SWAP1 POP SWAP2 SWAP1 POP JUMP JUMPDEST PUSH1 0x0 DUP2 SWAP1 POP DUP2 PUSH1 0x0 MSTORE PUSH1 0x20 PUSH1 0x0 KECCAK256 SWAP1 POP SWAP2 SWAP1 POP JUMP JUMPDEST PUSH1 0x0 PUSH1 0x20 PUSH1 0x1F DUP4 ADD DIV SWAP1 POP SWAP2 SWAP1 POP JUMP JUMPDEST PUSH1 0x0 DUP3 DUP3 SHL SWAP1 POP SWAP3 SWAP2 POP POP JUMP JUMPDEST PUSH1 0x0 PUSH1 0x8 DUP4 MUL PUSH2 0x8225 PUSH32 0xFFFFFFFFFFFFFFFFFFFFFFFFFFFFFFFFFFFFFFFFFFFFFFFFFFFFFFFFFFFFFFFF DUP3 PUSH2 0x81E8 JUMP JUMPDEST PUSH2 0x822F DUP7 DUP4 PUSH2 0x81E8 JUMP JUMPDEST SWAP6 POP DUP1 NOT DUP5 AND SWAP4 POP DUP1 DUP7 AND DUP5 OR SWAP3 POP POP POP SWAP4 SWAP3 POP POP POP JUMP JUMPDEST PUSH1 0x0 PUSH2 0x8262 PUSH2 0x825D PUSH2 0x8258 DUP5 PUSH2 0x57F2 JUMP JUMPDEST PUSH2 0x6136 JUMP JUMPDEST PUSH2 0x57F2 JUMP JUMPDEST SWAP1 POP SWAP2 SWAP1 POP JUMP JUMPDEST PUSH1 0x0 DUP2 SWAP1 POP SWAP2 SWAP1 POP JUMP JUMPDEST PUSH2 0x827C DUP4 PUSH2 0x8247 JUMP JUMPDEST PUSH2 0x8290 PUSH2 0x8288 DUP3 PUSH2 0x8269 JUMP JUMPDEST DUP5 DUP5 SLOAD PUSH2 0x81F5 JUMP JUMPDEST DUP3 SSTORE POP POP POP POP JUMP JUMPDEST PUSH1 0x0 SWAP1 JUMP JUMPDEST PUSH2 0x82A5 PUSH2 0x8298 JUMP JUMPDEST PUSH2 0x82B0 DUP2 DUP5 DUP5 PUSH2 0x8273 JUMP JUMPDEST POP POP POP JUMP JUMPDEST JUMPDEST DUP2 DUP2 LT ISZERO PUSH2 0x82D4 JUMPI PUSH2 0x82C9 PUSH1 0x0 DUP3 PUSH2 0x829D JUMP JUMPDEST PUSH1 0x1 DUP2 ADD SWAP1 POP PUSH2 0x82B6 JUMP JUMPDEST POP POP JUMP JUMPDEST PUSH1 0x1F DUP3 GT ISZERO PUSH2 0x8319 JUMPI PUSH2 0x82EA DUP2 PUSH2 0x81C3 JUMP JUMPDEST PUSH2 0x82F3 DUP5 PUSH2 0x81D8 JUMP JUMPDEST DUP2 ADD PUSH1 0x20 DUP6 LT ISZERO PUSH2 0x8302 JUMPI DUP2 SWAP1 POP JUMPDEST PUSH2 0x8316 PUSH2 0x830E DUP6 PUSH2 0x81D8 JUMP JUMPDEST DUP4 ADD DUP3 PUSH2 0x82B5 JUMP JUMPDEST POP POP JUMPDEST POP POP POP JUMP JUMPDEST PUSH1 0x0 DUP3 DUP3 SHR SWAP1 POP SWAP3 SWAP2 POP POP JUMP JUMPDEST PUSH1 0x0 PUSH2 0x833C PUSH1 0x0 NOT DUP5 PUSH1 0x8 MUL PUSH2 0x831E JUMP JUMPDEST NOT DUP1 DUP4 AND SWAP2 POP POP SWAP3 SWAP2 POP POP JUMP JUMPDEST PUSH1 0x0 PUSH2 0x8355 DUP4 DUP4 PUSH2 0x832B JUMP JUMPDEST SWAP2 POP DUP3 PUSH1 0x2 MUL DUP3 OR SWAP1 POP SWAP3 SWAP2 POP POP JUMP JUMPDEST PUSH2 0x836E DUP3 PUSH2 0x5740 JUMP JUMPDEST PUSH8 0xFFFFFFFFFFFFFFFF DUP2 GT ISZERO PUSH2 0x8387 JUMPI PUSH2 0x8386 PUSH2 0x5C2C JUMP JUMPDEST JUMPDEST PUSH2 0x8391 DUP3 SLOAD PUSH2 0x67CE JUMP JUMPDEST PUSH2 0x839C DUP3 DUP3 DUP6 PUSH2 0x82D8 JUMP JUMPDEST PUSH1 0x0 PUSH1 0x20 SWAP1 POP PUSH1 0x1F DUP4 GT PUSH1 0x1 DUP2 EQ PUSH2 0x83CF JUMPI PUSH1 0x0 DUP5 ISZERO PUSH2 0x83BD JUMPI DUP3 DUP8 ADD MLOAD SWAP1 POP JUMPDEST PUSH2 0x83C7 DUP6 DUP3 PUSH2 0x8349 JUMP JUMPDEST DUP7 SSTORE POP PUSH2 0x842F JUMP JUMPDEST PUSH1 0x1F NOT DUP5 AND PUSH2 0x83DD DUP7 PUSH2 0x81C3 JUMP JUMPDEST PUSH1 0x0 JUMPDEST DUP3 DUP2 LT ISZERO PUSH2 0x8405 JUMPI DUP5 DUP10 ADD MLOAD DUP3 SSTORE PUSH1 0x1 DUP3 ADD SWAP2 POP PUSH1 0x20 DUP6 ADD SWAP5 POP PUSH1 0x20 DUP2 ADD SWAP1 POP PUSH2 0x83E0 JUMP JUMPDEST DUP7 DUP4 LT ISZERO PUSH2 0x8422 JUMPI DUP5 DUP10 ADD MLOAD PUSH2 0x841E PUSH1 0x1F DUP10 AND DUP3 PUSH2 0x832B JUMP JUMPDEST DUP4 SSTORE POP JUMPDEST PUSH1 0x1 PUSH1 0x2 DUP9 MUL ADD DUP9 SSTORE POP POP POP JUMPDEST POP POP POP POP POP POP JUMP JUMPDEST PUSH1 0x0 DUP2 MLOAD SWAP1 POP SWAP2 SWAP1 POP JUMP JUMPDEST PUSH1 0x0 DUP3 DUP3 MSTORE PUSH1 0x20 DUP3 ADD SWAP1 POP SWAP3 SWAP2 POP POP JUMP JUMPDEST PUSH1 0x0 PUSH2 0x845E DUP3 PUSH2 0x8437 JUMP JUMPDEST PUSH2 0x8468 DUP2 DUP6 PUSH2 0x8442 JUMP JUMPDEST SWAP4 POP PUSH2 0x8478 DUP2 DUP6 PUSH1 0x20 DUP7 ADD PUSH2 0x575C JUMP JUMPDEST PUSH2 0x8481 DUP2 PUSH2 0x5786 JUMP JUMPDEST DUP5 ADD SWAP2 POP POP SWAP3 SWAP2 POP POP JUMP JUMPDEST PUSH1 0x0 PUSH1 0x80 DUP3 ADD SWAP1 POP PUSH2 0x84A1 PUSH1 0x0 DUP4 ADD DUP8 PUSH2 0x5887 JUMP JUMPDEST PUSH2 0x84AE PUSH1 0x20 DUP4 ADD DUP7 PUSH2 0x5887 JUMP JUMPDEST PUSH2 0x84BB PUSH1 0x40 DUP4 ADD DUP6 PUSH2 0x5A63 JUMP JUMPDEST DUP2 DUP2 SUB PUSH1 0x60 DUP4 ADD MSTORE PUSH2 0x84CD DUP2 DUP5 PUSH2 0x8453 JUMP JUMPDEST SWAP1 POP SWAP6 SWAP5 POP POP POP POP POP JUMP JUMPDEST PUSH1 0x0 DUP2 MLOAD SWAP1 POP PUSH2 0x84E7 DUP2 PUSH2 0x56B1 JUMP JUMPDEST SWAP3 SWAP2 POP POP JUMP JUMPDEST PUSH1 0x0 PUSH1 0x20 DUP3 DUP5 SUB SLT ISZERO PUSH2 0x8503 JUMPI PUSH2 0x8502 PUSH2 0x567B JUMP JUMPDEST JUMPDEST PUSH1 0x0 PUSH2 0x8511 DUP5 DUP3 DUP6 ADD PUSH2 0x84D8 JUMP JUMPDEST SWAP2 POP POP SWAP3 SWAP2 POP POP JUMP JUMPDEST PUSH1 0x0 PUSH2 0x8525 DUP3 PUSH2 0x57F2 JUMP JUMPDEST SWAP2 POP PUSH1 0x0 DUP3 SUB PUSH2 0x8538 JUMPI PUSH2 0x8537 PUSH2 0x69B5 JUMP JUMPDEST JUMPDEST PUSH1 0x1 DUP3 SUB SWAP1 POP SWAP2 SWAP1 POP JUMP JUMPDEST PUSH32 0x537472696E67733A20686578206C656E67746820696E73756666696369656E74 PUSH1 0x0 DUP3 ADD MSTORE POP JUMP JUMPDEST PUSH1 0x0 PUSH2 0x8579 PUSH1 0x20 DUP4 PUSH2 0x574B JUMP JUMPDEST SWAP2 POP PUSH2 0x8584 DUP3 PUSH2 0x8543 JUMP JUMPDEST PUSH1 0x20 DUP3 ADD SWAP1 POP SWAP2 SWAP1 POP JUMP JUMPDEST PUSH1 0x0 PUSH1 0x20 DUP3 ADD SWAP1 POP DUP2 DUP2 SUB PUSH1 0x0 DUP4 ADD MSTORE PUSH2 0x85A8 DUP2 PUSH2 0x856C JUMP JUMPDEST SWAP1 POP SWAP2 SWAP1 POP JUMP JUMPDEST PUSH32 0x416464726573733A2064656C65676174652063616C6C20746F206E6F6E2D636F PUSH1 0x0 DUP3 ADD MSTORE PUSH32 0x6E74726163740000000000000000000000000000000000000000000000000000 PUSH1 0x20 DUP3 ADD MSTORE POP JUMP JUMPDEST PUSH1 0x0 PUSH2 0x860B PUSH1 0x26 DUP4 PUSH2 0x574B JUMP JUMPDEST SWAP2 POP PUSH2 0x8616 DUP3 PUSH2 0x85AF JUMP JUMPDEST PUSH1 0x40 DUP3 ADD SWAP1 POP SWAP2 SWAP1 POP JUMP JUMPDEST PUSH1 0x0 PUSH1 0x20 DUP3 ADD SWAP1 POP DUP2 DUP2 SUB PUSH1 0x0 DUP4 ADD MSTORE PUSH2 0x863A DUP2 PUSH2 0x85FE JUMP JUMPDEST SWAP1 POP SWAP2 SWAP1 POP JUMP JUMPDEST PUSH1 0x0 DUP2 SWAP1 POP SWAP3 SWAP2 POP POP JUMP JUMPDEST PUSH1 0x0 PUSH2 0x8657 DUP3 PUSH2 0x8437 JUMP JUMPDEST PUSH2 0x8661 DUP2 DUP6 PUSH2 0x8641 JUMP JUMPDEST SWAP4 POP PUSH2 0x8671 DUP2 DUP6 PUSH1 0x20 DUP7 ADD PUSH2 0x575C JUMP JUMPDEST DUP1 DUP5 ADD SWAP2 POP POP SWAP3 SWAP2 POP POP JUMP JUMPDEST PUSH1 0x0 PUSH2 0x8689 DUP3 DUP5 PUSH2 0x864C JUMP JUMPDEST SWAP2 POP DUP2 SWAP1 POP SWAP3 SWAP2 POP POP JUMP JUMPDEST PUSH32 0x4552433732313A206D696E7420746F20746865207A65726F2061646472657373 PUSH1 0x0 DUP3 ADD MSTORE POP JUMP JUMPDEST PUSH1 0x0 PUSH2 0x86CA PUSH1 0x20 DUP4 PUSH2 0x574B JUMP JUMPDEST SWAP2 POP PUSH2 0x86D5 DUP3 PUSH2 0x8694 JUMP JUMPDEST PUSH1 0x20 DUP3 ADD SWAP1 POP SWAP2 SWAP1 POP JUMP JUMPDEST PUSH1 0x0 PUSH1 0x20 DUP3 ADD SWAP1 POP DUP2 DUP2 SUB PUSH1 0x0 DUP4 ADD MSTORE PUSH2 0x86F9 DUP2 PUSH2 0x86BD JUMP JUMPDEST SWAP1 POP SWAP2 SWAP1 POP JUMP JUMPDEST PUSH32 0x4552433732313A20746F6B656E20616C7265616479206D696E74656400000000 PUSH1 0x0 DUP3 ADD MSTORE POP JUMP JUMPDEST PUSH1 0x0 PUSH2 0x8736 PUSH1 0x1C DUP4 PUSH2 0x574B JUMP JUMPDEST SWAP2 POP PUSH2 0x8741 DUP3 PUSH2 0x8700 JUMP JUMPDEST PUSH1 0x20 DUP3 ADD SWAP1 POP SWAP2 SWAP1 POP JUMP JUMPDEST PUSH1 0x0 PUSH1 0x20 DUP3 ADD SWAP1 POP DUP2 DUP2 SUB PUSH1 0x0 DUP4 ADD MSTORE PUSH2 0x8765 DUP2 PUSH2 0x8729 JUMP JUMPDEST SWAP1 POP SWAP2 SWAP1 POP JUMP INVALID COINBASE PUSH5 0x6472657373 GASPRICE KECCAK256 PUSH13 0x6F772D6C6576656C2064656C65 PUSH8 0x6174652063616C6C KECCAK256 PUSH7 0x61696C6564A264 PUSH10 0x7066735822122015C205 0xAE 0xC9 MLOAD 0x27 0xE4 0xD3 0x4E 0x4D MSTORE ISZERO RETURN GT 0x2A PREVRANDAO PUSH6 0xB5A00792FEF7 0xF STATICCALL 0xD8 0xEF 0xCD PUSH14 0xEE6D64736F6C6343000812003360 LOG0 PUSH1 0x40 MSTORE ADDRESS PUSH20 0xFFFFFFFFFFFFFFFFFFFFFFFFFFFFFFFFFFFFFFFF AND PUSH1 0x80 SWAP1 PUSH20 0xFFFFFFFFFFFFFFFFFFFFFFFFFFFFFFFFFFFFFFFF AND DUP2 MSTORE POP CALLVALUE DUP1 ISZERO PUSH3 0x44 JUMPI PUSH1 0x0 DUP1 REVERT JUMPDEST POP PUSH1 0x80 MLOAD PUSH2 0x8EE3 PUSH3 0x7D PUSH1 0x0 CODECOPY PUSH1 0x0 DUP2 DUP2 PUSH2 0xE69 ADD MSTORE DUP2 DUP2 PUSH2 0xEF7 ADD MSTORE DUP2 DUP2 PUSH2 0x1323 ADD MSTORE DUP2 DUP2 PUSH2 0x13B1 ADD MSTORE PUSH2 0x171C ADD MSTORE PUSH2 0x8EE3 PUSH1 0x0 RETURN INVALID PUSH1 0x80 PUSH1 0x40 MSTORE PUSH1 0x4 CALLDATASIZE LT PUSH2 0x271 JUMPI PUSH1 0x0 CALLDATALOAD PUSH1 0xE0 SHR DUP1 PUSH4 0x8033491C GT PUSH2 0x14F JUMPI DUP1 PUSH4 0xC2C04AE2 GT PUSH2 0xC1 JUMPI DUP1 PUSH4 0xE985E9C5 GT PUSH2 0x7A JUMPI DUP1 PUSH4 0xE985E9C5 EQ PUSH2 0x970 JUMPI DUP1 PUSH4 0xF242432A EQ PUSH2 0x9AD JUMPI DUP1 PUSH4 0xF2FDE38B EQ PUSH2 0x9D6 JUMPI DUP1 PUSH4 0xF4CE2032 EQ PUSH2 0x9FF JUMPI DUP1 PUSH4 0xFC314E31 EQ PUSH2 0xA2A JUMPI DUP1 PUSH4 0xFFA0A02A EQ PUSH2 0xA6B JUMPI PUSH2 0x271 JUMP JUMPDEST DUP1 PUSH4 0xC2C04AE2 EQ PUSH2 0x852 JUMPI DUP1 PUSH4 0xC4CA3A9C EQ PUSH2 0x88F JUMPI DUP1 PUSH4 0xD3BB24AE EQ PUSH2 0x8B8 JUMPI DUP1 PUSH4 0xD547741F EQ PUSH2 0x8F5 JUMPI DUP1 PUSH4 0xDB8CC8FA EQ PUSH2 0x91E JUMPI DUP1 PUSH4 0xE2F03947 EQ PUSH2 0x947 JUMPI PUSH2 0x271 JUMP JUMPDEST DUP1 PUSH4 0x95D89B41 GT PUSH2 0x113 JUMPI DUP1 PUSH4 0x95D89B41 EQ PUSH2 0x744 JUMPI DUP1 PUSH4 0xA217FDDF EQ PUSH2 0x76F JUMPI DUP1 PUSH4 0xA22CB465 EQ PUSH2 0x79A JUMPI DUP1 PUSH4 0xA76E0DB2 EQ PUSH2 0x7C3 JUMPI DUP1 PUSH4 0xAFB30F3E EQ PUSH2 0x800 JUMPI DUP1 PUSH4 0xC0F1C484 EQ PUSH2 0x829 JUMPI PUSH2 0x271 JUMP JUMPDEST DUP1 PUSH4 0x8033491C EQ PUSH2 0x65F JUMPI DUP1 PUSH4 0x835217A5 EQ PUSH2 0x688 JUMPI DUP1 PUSH4 0x8DA5CB5B EQ PUSH2 0x6B3 JUMPI DUP1 PUSH4 0x8F0B7B68 EQ PUSH2 0x6DE JUMPI DUP1 PUSH4 0x91D14854 EQ PUSH2 0x707 JUMPI PUSH2 0x271 JUMP JUMPDEST DUP1 PUSH4 0x42DB9CA6 GT PUSH2 0x1E8 JUMPI DUP1 PUSH4 0x52D1902D GT PUSH2 0x1AC JUMPI DUP1 PUSH4 0x52D1902D EQ PUSH2 0x561 JUMPI DUP1 PUSH4 0x5642800C EQ PUSH2 0x58C JUMPI DUP1 PUSH4 0x58797CB6 EQ PUSH2 0x5CB JUMPI DUP1 PUSH4 0x715018A6 EQ PUSH2 0x5F6 JUMPI DUP1 PUSH4 0x72F12344 EQ PUSH2 0x60D JUMPI DUP1 PUSH4 0x76214140 EQ PUSH2 0x636 JUMPI PUSH2 0x271 JUMP JUMPDEST DUP1 PUSH4 0x42DB9CA6 EQ PUSH2 0x479 JUMPI DUP1 PUSH4 0x49D19648 EQ PUSH2 0x4A2 JUMPI DUP1 PUSH4 0x4E1273F4 EQ PUSH2 0x4CB JUMPI DUP1 PUSH4 0x4F1EF286 EQ PUSH2 0x508 JUMPI DUP1 PUSH4 0x51D5B014 EQ PUSH2 0x524 JUMPI PUSH2 0x271 JUMP JUMPDEST DUP1 PUSH4 0x2EB2C2D6 GT PUSH2 0x23A JUMPI DUP1 PUSH4 0x2EB2C2D6 EQ PUSH2 0x395 JUMPI DUP1 PUSH4 0x2EE4AA31 EQ PUSH2 0x3BE JUMPI DUP1 PUSH4 0x2F2FF15D EQ PUSH2 0x3E7 JUMPI DUP1 PUSH4 0x36568ABE EQ PUSH2 0x410 JUMPI DUP1 PUSH4 0x3659CFE6 EQ PUSH2 0x439 JUMPI DUP1 PUSH4 0x3CCFD60B EQ PUSH2 0x462 JUMPI PUSH2 0x271 JUMP JUMPDEST DUP1 PUSH3 0xFDD58E EQ PUSH2 0x276 JUMPI DUP1 PUSH4 0x1FFC9A7 EQ PUSH2 0x2B3 JUMPI DUP1 PUSH4 0x6FDDE03 EQ PUSH2 0x2F0 JUMPI DUP1 PUSH4 0xE89341C EQ PUSH2 0x31B JUMPI DUP1 PUSH4 0x248A9CA3 EQ PUSH2 0x358 JUMPI JUMPDEST PUSH1 0x0 DUP1 REVERT JUMPDEST CALLVALUE DUP1 ISZERO PUSH2 0x282 JUMPI PUSH1 0x0 DUP1 REVERT JUMPDEST POP PUSH2 0x29D PUSH1 0x4 DUP1 CALLDATASIZE SUB DUP2 ADD SWAP1 PUSH2 0x298 SWAP2 SWAP1 PUSH2 0x5B19 JUMP JUMPDEST PUSH2 0xA94 JUMP JUMPDEST PUSH1 0x40 MLOAD PUSH2 0x2AA SWAP2 SWAP1 PUSH2 0x5B68 JUMP JUMPDEST PUSH1 0x40 MLOAD DUP1 SWAP2 SUB SWAP1 RETURN JUMPDEST CALLVALUE DUP1 ISZERO PUSH2 0x2BF JUMPI PUSH1 0x0 DUP1 REVERT JUMPDEST POP PUSH2 0x2DA PUSH1 0x4 DUP1 CALLDATASIZE SUB DUP2 ADD SWAP1 PUSH2 0x2D5 SWAP2 SWAP1 PUSH2 0x5BDB JUMP JUMPDEST PUSH2 0xB5D JUMP JUMPDEST PUSH1 0x40 MLOAD PUSH2 0x2E7 SWAP2 SWAP1 PUSH2 0x5C23 JUMP JUMPDEST PUSH1 0x40 MLOAD DUP1 SWAP2 SUB SWAP1 RETURN JUMPDEST CALLVALUE DUP1 ISZERO PUSH2 0x2FC JUMPI PUSH1 0x0 DUP1 REVERT JUMPDEST POP PUSH2 0x305 PUSH2 0xB6F JUMP JUMPDEST PUSH1 0x40 MLOAD PUSH2 0x312 SWAP2 SWAP1 PUSH2 0x5CCE JUMP JUMPDEST PUSH1 0x40 MLOAD DUP1 SWAP2 SUB SWAP1 RETURN JUMPDEST CALLVALUE DUP1 ISZERO PUSH2 0x327 JUMPI PUSH1 0x0 DUP1 REVERT JUMPDEST POP PUSH2 0x342 PUSH1 0x4 DUP1 CALLDATASIZE SUB DUP2 ADD SWAP1 PUSH2 0x33D SWAP2 SWAP1 PUSH2 0x5CF0 JUMP JUMPDEST PUSH2 0xBFE JUMP JUMPDEST PUSH1 0x40 MLOAD PUSH2 0x34F SWAP2 SWAP1 PUSH2 0x5CCE JUMP JUMPDEST PUSH1 0x40 MLOAD DUP1 SWAP2 SUB SWAP1 RETURN JUMPDEST CALLVALUE DUP1 ISZERO PUSH2 0x364 JUMPI PUSH1 0x0 DUP1 REVERT JUMPDEST POP PUSH2 0x37F PUSH1 0x4 DUP1 CALLDATASIZE SUB DUP2 ADD SWAP1 PUSH2 0x37A SWAP2 SWAP1 PUSH2 0x5D53 JUMP JUMPDEST PUSH2 0xC92 JUMP JUMPDEST PUSH1 0x40 MLOAD PUSH2 0x38C SWAP2 SWAP1 PUSH2 0x5D8F JUMP JUMPDEST PUSH1 0x40 MLOAD DUP1 SWAP2 SUB SWAP1 RETURN JUMPDEST CALLVALUE DUP1 ISZERO PUSH2 0x3A1 JUMPI PUSH1 0x0 DUP1 REVERT JUMPDEST POP PUSH2 0x3BC PUSH1 0x4 DUP1 CALLDATASIZE SUB DUP2 ADD SWAP1 PUSH2 0x3B7 SWAP2 SWAP1 PUSH2 0x5FA7 JUMP JUMPDEST PUSH2 0xCB2 JUMP JUMPDEST STOP JUMPDEST CALLVALUE DUP1 ISZERO PUSH2 0x3CA JUMPI PUSH1 0x0 DUP1 REVERT JUMPDEST POP PUSH2 0x3E5 PUSH1 0x4 DUP1 CALLDATASIZE SUB DUP2 ADD SWAP1 PUSH2 0x3E0 SWAP2 SWAP1 PUSH2 0x6076 JUMP JUMPDEST PUSH2 0xD53 JUMP JUMPDEST STOP JUMPDEST CALLVALUE DUP1 ISZERO PUSH2 0x3F3 JUMPI PUSH1 0x0 DUP1 REVERT JUMPDEST POP PUSH2 0x40E PUSH1 0x4 DUP1 CALLDATASIZE SUB DUP2 ADD SWAP1 PUSH2 0x409 SWAP2 SWAP1 PUSH2 0x60A3 JUMP JUMPDEST PUSH2 0xDC3 JUMP JUMPDEST STOP JUMPDEST CALLVALUE DUP1 ISZERO PUSH2 0x41C JUMPI PUSH1 0x0 DUP1 REVERT JUMPDEST POP PUSH2 0x437 PUSH1 0x4 DUP1 CALLDATASIZE SUB DUP2 ADD SWAP1 PUSH2 0x432 SWAP2 SWAP1 PUSH2 0x60A3 JUMP JUMPDEST PUSH2 0xDE4 JUMP JUMPDEST STOP JUMPDEST CALLVALUE DUP1 ISZERO PUSH2 0x445 JUMPI PUSH1 0x0 DUP1 REVERT JUMPDEST POP PUSH2 0x460 PUSH1 0x4 DUP1 CALLDATASIZE SUB DUP2 ADD SWAP1 PUSH2 0x45B SWAP2 SWAP1 PUSH2 0x6076 JUMP JUMPDEST PUSH2 0xE67 JUMP JUMPDEST STOP JUMPDEST CALLVALUE DUP1 ISZERO PUSH2 0x46E JUMPI PUSH1 0x0 DUP1 REVERT JUMPDEST POP PUSH2 0x477 PUSH2 0xFEF JUMP JUMPDEST STOP JUMPDEST CALLVALUE DUP1 ISZERO PUSH2 0x485 JUMPI PUSH1 0x0 DUP1 REVERT JUMPDEST POP PUSH2 0x4A0 PUSH1 0x4 DUP1 CALLDATASIZE SUB DUP2 ADD SWAP1 PUSH2 0x49B SWAP2 SWAP1 PUSH2 0x610F JUMP JUMPDEST PUSH2 0x113D JUMP JUMPDEST STOP JUMPDEST CALLVALUE DUP1 ISZERO PUSH2 0x4AE JUMPI PUSH1 0x0 DUP1 REVERT JUMPDEST POP PUSH2 0x4C9 PUSH1 0x4 DUP1 CALLDATASIZE SUB DUP2 ADD SWAP1 PUSH2 0x4C4 SWAP2 SWAP1 PUSH2 0x618D JUMP JUMPDEST PUSH2 0x1198 JUMP JUMPDEST STOP JUMPDEST CALLVALUE DUP1 ISZERO PUSH2 0x4D7 JUMPI PUSH1 0x0 DUP1 REVERT JUMPDEST POP PUSH2 0x4F2 PUSH1 0x4 DUP1 CALLDATASIZE SUB DUP2 ADD SWAP1 PUSH2 0x4ED SWAP2 SWAP1 PUSH2 0x627D JUMP JUMPDEST PUSH2 0x1208 JUMP JUMPDEST PUSH1 0x40 MLOAD PUSH2 0x4FF SWAP2 SWAP1 PUSH2 0x63B3 JUMP JUMPDEST PUSH1 0x40 MLOAD DUP1 SWAP2 SUB SWAP1 RETURN JUMPDEST PUSH2 0x522 PUSH1 0x4 DUP1 CALLDATASIZE SUB DUP2 ADD SWAP1 PUSH2 0x51D SWAP2 SWAP1 PUSH2 0x63D5 JUMP JUMPDEST PUSH2 0x1321 JUMP JUMPDEST STOP JUMPDEST CALLVALUE DUP1 ISZERO PUSH2 0x530 JUMPI PUSH1 0x0 DUP1 REVERT JUMPDEST POP PUSH2 0x54B PUSH1 0x4 DUP1 CALLDATASIZE SUB DUP2 ADD SWAP1 PUSH2 0x546 SWAP2 SWAP1 PUSH2 0x6076 JUMP JUMPDEST PUSH2 0x145D JUMP JUMPDEST PUSH1 0x40 MLOAD PUSH2 0x558 SWAP2 SWAP1 PUSH2 0x6582 JUMP JUMPDEST PUSH1 0x40 MLOAD DUP1 SWAP2 SUB SWAP1 RETURN JUMPDEST CALLVALUE DUP1 ISZERO PUSH2 0x56D JUMPI PUSH1 0x0 DUP1 REVERT JUMPDEST POP PUSH2 0x576 PUSH2 0x1718 JUMP JUMPDEST PUSH1 0x40 MLOAD PUSH2 0x583 SWAP2 SWAP1 PUSH2 0x5D8F JUMP JUMPDEST PUSH1 0x40 MLOAD DUP1 SWAP2 SUB SWAP1 RETURN JUMPDEST CALLVALUE DUP1 ISZERO PUSH2 0x598 JUMPI PUSH1 0x0 DUP1 REVERT JUMPDEST POP PUSH2 0x5B3 PUSH1 0x4 DUP1 CALLDATASIZE SUB DUP2 ADD SWAP1 PUSH2 0x5AE SWAP2 SWAP1 PUSH2 0x65D0 JUMP JUMPDEST PUSH2 0x17D1 JUMP JUMPDEST PUSH1 0x40 MLOAD PUSH2 0x5C2 SWAP4 SWAP3 SWAP2 SWAP1 PUSH2 0x65FD JUMP JUMPDEST PUSH1 0x40 MLOAD DUP1 SWAP2 SUB SWAP1 RETURN JUMPDEST CALLVALUE DUP1 ISZERO PUSH2 0x5D7 JUMPI PUSH1 0x0 DUP1 REVERT JUMPDEST POP PUSH2 0x5E0 PUSH2 0x1862 JUMP JUMPDEST PUSH1 0x40 MLOAD PUSH2 0x5ED SWAP2 SWAP1 PUSH2 0x6693 JUMP JUMPDEST PUSH1 0x40 MLOAD DUP1 SWAP2 SUB SWAP1 RETURN JUMPDEST CALLVALUE DUP1 ISZERO PUSH2 0x602 JUMPI PUSH1 0x0 DUP1 REVERT JUMPDEST POP PUSH2 0x60B PUSH2 0x1889 JUMP JUMPDEST STOP JUMPDEST CALLVALUE DUP1 ISZERO PUSH2 0x619 JUMPI PUSH1 0x0 DUP1 REVERT JUMPDEST POP PUSH2 0x634 PUSH1 0x4 DUP1 CALLDATASIZE SUB DUP2 ADD SWAP1 PUSH2 0x62F SWAP2 SWAP1 PUSH2 0x5CF0 JUMP JUMPDEST PUSH2 0x189D JUMP JUMPDEST STOP JUMPDEST CALLVALUE DUP1 ISZERO PUSH2 0x642 JUMPI PUSH1 0x0 DUP1 REVERT JUMPDEST POP PUSH2 0x65D PUSH1 0x4 DUP1 CALLDATASIZE SUB DUP2 ADD SWAP1 PUSH2 0x658 SWAP2 SWAP1 PUSH2 0x5CF0 JUMP JUMPDEST PUSH2 0x18D3 JUMP JUMPDEST STOP JUMPDEST CALLVALUE DUP1 ISZERO PUSH2 0x66B JUMPI PUSH1 0x0 DUP1 REVERT JUMPDEST POP PUSH2 0x686 PUSH1 0x4 DUP1 CALLDATASIZE SUB DUP2 ADD SWAP1 PUSH2 0x681 SWAP2 SWAP1 PUSH2 0x66AE JUMP JUMPDEST PUSH2 0x1909 JUMP JUMPDEST STOP JUMPDEST CALLVALUE DUP1 ISZERO PUSH2 0x694 JUMPI PUSH1 0x0 DUP1 REVERT JUMPDEST POP PUSH2 0x69D PUSH2 0x21B0 JUMP JUMPDEST PUSH1 0x40 MLOAD PUSH2 0x6AA SWAP2 SWAP1 PUSH2 0x5B68 JUMP JUMPDEST PUSH1 0x40 MLOAD DUP1 SWAP2 SUB SWAP1 RETURN JUMPDEST CALLVALUE DUP1 ISZERO PUSH2 0x6BF JUMPI PUSH1 0x0 DUP1 REVERT JUMPDEST POP PUSH2 0x6C8 PUSH2 0x21B7 JUMP JUMPDEST PUSH1 0x40 MLOAD PUSH2 0x6D5 SWAP2 SWAP1 PUSH2 0x6710 JUMP JUMPDEST PUSH1 0x40 MLOAD DUP1 SWAP2 SUB SWAP1 RETURN JUMPDEST CALLVALUE DUP1 ISZERO PUSH2 0x6EA JUMPI PUSH1 0x0 DUP1 REVERT JUMPDEST POP PUSH2 0x705 PUSH1 0x4 DUP1 CALLDATASIZE SUB DUP2 ADD SWAP1 PUSH2 0x700 SWAP2 SWAP1 PUSH2 0x67AB JUMP JUMPDEST PUSH2 0x21E2 JUMP JUMPDEST STOP JUMPDEST CALLVALUE DUP1 ISZERO PUSH2 0x713 JUMPI PUSH1 0x0 DUP1 REVERT JUMPDEST POP PUSH2 0x72E PUSH1 0x4 DUP1 CALLDATASIZE SUB DUP2 ADD SWAP1 PUSH2 0x729 SWAP2 SWAP1 PUSH2 0x60A3 JUMP JUMPDEST PUSH2 0x2286 JUMP JUMPDEST PUSH1 0x40 MLOAD PUSH2 0x73B SWAP2 SWAP1 PUSH2 0x5C23 JUMP JUMPDEST PUSH1 0x40 MLOAD DUP1 SWAP2 SUB SWAP1 RETURN JUMPDEST CALLVALUE DUP1 ISZERO PUSH2 0x750 JUMPI PUSH1 0x0 DUP1 REVERT JUMPDEST POP PUSH2 0x759 PUSH2 0x22F1 JUMP JUMPDEST PUSH1 0x40 MLOAD PUSH2 0x766 SWAP2 SWAP1 PUSH2 0x5CCE JUMP JUMPDEST PUSH1 0x40 MLOAD DUP1 SWAP2 SUB SWAP1 RETURN JUMPDEST CALLVALUE DUP1 ISZERO PUSH2 0x77B JUMPI PUSH1 0x0 DUP1 REVERT JUMPDEST POP PUSH2 0x784 PUSH2 0x2380 JUMP JUMPDEST PUSH1 0x40 MLOAD PUSH2 0x791 SWAP2 SWAP1 PUSH2 0x5D8F JUMP JUMPDEST PUSH1 0x40 MLOAD DUP1 SWAP2 SUB SWAP1 RETURN JUMPDEST CALLVALUE DUP1 ISZERO PUSH2 0x7A6 JUMPI PUSH1 0x0 DUP1 REVERT JUMPDEST POP PUSH2 0x7C1 PUSH1 0x4 DUP1 CALLDATASIZE SUB DUP2 ADD SWAP1 PUSH2 0x7BC SWAP2 SWAP1 PUSH2 0x6845 JUMP JUMPDEST PUSH2 0x2387 JUMP JUMPDEST STOP JUMPDEST CALLVALUE DUP1 ISZERO PUSH2 0x7CF JUMPI PUSH1 0x0 DUP1 REVERT JUMPDEST POP PUSH2 0x7EA PUSH1 0x4 DUP1 CALLDATASIZE SUB DUP2 ADD SWAP1 PUSH2 0x7E5 SWAP2 SWAP1 PUSH2 0x65D0 JUMP JUMPDEST PUSH2 0x239D JUMP JUMPDEST PUSH1 0x40 MLOAD PUSH2 0x7F7 SWAP2 SWAP1 PUSH2 0x5CCE JUMP JUMPDEST PUSH1 0x40 MLOAD DUP1 SWAP2 SUB SWAP1 RETURN JUMPDEST CALLVALUE DUP1 ISZERO PUSH2 0x80C JUMPI PUSH1 0x0 DUP1 REVERT JUMPDEST POP PUSH2 0x827 PUSH1 0x4 DUP1 CALLDATASIZE SUB DUP2 ADD SWAP1 PUSH2 0x822 SWAP2 SWAP1 PUSH2 0x627D JUMP JUMPDEST PUSH2 0x243E JUMP JUMPDEST STOP JUMPDEST CALLVALUE DUP1 ISZERO PUSH2 0x835 JUMPI PUSH1 0x0 DUP1 REVERT JUMPDEST POP PUSH2 0x850 PUSH1 0x4 DUP1 CALLDATASIZE SUB DUP2 ADD SWAP1 PUSH2 0x84B SWAP2 SWAP1 PUSH2 0x6A52 JUMP JUMPDEST PUSH2 0x254A JUMP JUMPDEST STOP JUMPDEST CALLVALUE DUP1 ISZERO PUSH2 0x85E JUMPI PUSH1 0x0 DUP1 REVERT JUMPDEST POP PUSH2 0x879 PUSH1 0x4 DUP1 CALLDATASIZE SUB DUP2 ADD SWAP1 PUSH2 0x874 SWAP2 SWAP1 PUSH2 0x6BA1 JUMP JUMPDEST PUSH2 0x2A69 JUMP JUMPDEST PUSH1 0x40 MLOAD PUSH2 0x886 SWAP2 SWAP1 PUSH2 0x5B68 JUMP JUMPDEST PUSH1 0x40 MLOAD DUP1 SWAP2 SUB SWAP1 RETURN JUMPDEST CALLVALUE DUP1 ISZERO PUSH2 0x89B JUMPI PUSH1 0x0 DUP1 REVERT JUMPDEST POP PUSH2 0x8B6 PUSH1 0x4 DUP1 CALLDATASIZE SUB DUP2 ADD SWAP1 PUSH2 0x8B1 SWAP2 SWAP1 PUSH2 0x6C24 JUMP JUMPDEST PUSH2 0x30F5 JUMP JUMPDEST STOP JUMPDEST CALLVALUE DUP1 ISZERO PUSH2 0x8C4 JUMPI PUSH1 0x0 DUP1 REVERT JUMPDEST POP PUSH2 0x8DF PUSH1 0x4 DUP1 CALLDATASIZE SUB DUP2 ADD SWAP1 PUSH2 0x8DA SWAP2 SWAP1 PUSH2 0x5CF0 JUMP JUMPDEST PUSH2 0x31A8 JUMP JUMPDEST PUSH1 0x40 MLOAD PUSH2 0x8EC SWAP2 SWAP1 PUSH2 0x5C23 JUMP JUMPDEST PUSH1 0x40 MLOAD DUP1 SWAP2 SUB SWAP1 RETURN JUMPDEST CALLVALUE DUP1 ISZERO PUSH2 0x901 JUMPI PUSH1 0x0 DUP1 REVERT JUMPDEST POP PUSH2 0x91C PUSH1 0x4 DUP1 CALLDATASIZE SUB DUP2 ADD SWAP1 PUSH2 0x917 SWAP2 SWAP1 PUSH2 0x60A3 JUMP JUMPDEST PUSH2 0x31FE JUMP JUMPDEST STOP JUMPDEST CALLVALUE DUP1 ISZERO PUSH2 0x92A JUMPI PUSH1 0x0 DUP1 REVERT JUMPDEST POP PUSH2 0x945 PUSH1 0x4 DUP1 CALLDATASIZE SUB DUP2 ADD SWAP1 PUSH2 0x940 SWAP2 SWAP1 PUSH2 0x5CF0 JUMP JUMPDEST PUSH2 0x321F JUMP JUMPDEST STOP JUMPDEST CALLVALUE DUP1 ISZERO PUSH2 0x953 JUMPI PUSH1 0x0 DUP1 REVERT JUMPDEST POP PUSH2 0x96E PUSH1 0x4 DUP1 CALLDATASIZE SUB DUP2 ADD SWAP1 PUSH2 0x969 SWAP2 SWAP1 PUSH2 0x5CF0 JUMP JUMPDEST PUSH2 0x3255 JUMP JUMPDEST STOP JUMPDEST CALLVALUE DUP1 ISZERO PUSH2 0x97C JUMPI PUSH1 0x0 DUP1 REVERT JUMPDEST POP PUSH2 0x997 PUSH1 0x4 DUP1 CALLDATASIZE SUB DUP2 ADD SWAP1 PUSH2 0x992 SWAP2 SWAP1 PUSH2 0x6CAC JUMP JUMPDEST PUSH2 0x328B JUMP JUMPDEST PUSH1 0x40 MLOAD PUSH2 0x9A4 SWAP2 SWAP1 PUSH2 0x5C23 JUMP JUMPDEST PUSH1 0x40 MLOAD DUP1 SWAP2 SUB SWAP1 RETURN JUMPDEST CALLVALUE DUP1 ISZERO PUSH2 0x9B9 JUMPI PUSH1 0x0 DUP1 REVERT JUMPDEST POP PUSH2 0x9D4 PUSH1 0x4 DUP1 CALLDATASIZE SUB DUP2 ADD SWAP1 PUSH2 0x9CF SWAP2 SWAP1 PUSH2 0x6CEC JUMP JUMPDEST PUSH2 0x331F JUMP JUMPDEST STOP JUMPDEST CALLVALUE DUP1 ISZERO PUSH2 0x9E2 JUMPI PUSH1 0x0 DUP1 REVERT JUMPDEST POP PUSH2 0x9FD PUSH1 0x4 DUP1 CALLDATASIZE SUB DUP2 ADD SWAP1 PUSH2 0x9F8 SWAP2 SWAP1 PUSH2 0x6076 JUMP JUMPDEST PUSH2 0x33C0 JUMP JUMPDEST STOP JUMPDEST CALLVALUE DUP1 ISZERO PUSH2 0xA0B JUMPI PUSH1 0x0 DUP1 REVERT JUMPDEST POP PUSH2 0xA14 PUSH2 0x3443 JUMP JUMPDEST PUSH1 0x40 MLOAD PUSH2 0xA21 SWAP2 SWAP1 PUSH2 0x6D92 JUMP JUMPDEST PUSH1 0x40 MLOAD DUP1 SWAP2 SUB SWAP1 RETURN JUMPDEST CALLVALUE DUP1 ISZERO PUSH2 0xA36 JUMPI PUSH1 0x0 DUP1 REVERT JUMPDEST POP PUSH2 0xA51 PUSH1 0x4 DUP1 CALLDATASIZE SUB DUP2 ADD SWAP1 PUSH2 0xA4C SWAP2 SWAP1 PUSH2 0x5CF0 JUMP JUMPDEST PUSH2 0x3457 JUMP JUMPDEST PUSH1 0x40 MLOAD PUSH2 0xA62 SWAP6 SWAP5 SWAP4 SWAP3 SWAP2 SWAP1 PUSH2 0x6DAD JUMP JUMPDEST PUSH1 0x40 MLOAD DUP1 SWAP2 SUB SWAP1 RETURN JUMPDEST CALLVALUE DUP1 ISZERO PUSH2 0xA77 JUMPI PUSH1 0x0 DUP1 REVERT JUMPDEST POP PUSH2 0xA92 PUSH1 0x4 DUP1 CALLDATASIZE SUB DUP2 ADD SWAP1 PUSH2 0xA8D SWAP2 SWAP1 PUSH2 0x66AE JUMP JUMPDEST PUSH2 0x34C8 JUMP JUMPDEST STOP JUMPDEST PUSH1 0x0 DUP1 PUSH20 0xFFFFFFFFFFFFFFFFFFFFFFFFFFFFFFFFFFFFFFFF AND DUP4 PUSH20 0xFFFFFFFFFFFFFFFFFFFFFFFFFFFFFFFFFFFFFFFF AND SUB PUSH2 0xB04 JUMPI PUSH1 0x40 MLOAD PUSH32 0x8C379A000000000000000000000000000000000000000000000000000000000 DUP2 MSTORE PUSH1 0x4 ADD PUSH2 0xAFB SWAP1 PUSH2 0x6E72 JUMP JUMPDEST PUSH1 0x40 MLOAD DUP1 SWAP2 SUB SWAP1 REVERT JUMPDEST PUSH1 0x65 PUSH1 0x0 DUP4 DUP2 MSTORE PUSH1 0x20 ADD SWAP1 DUP2 MSTORE PUSH1 0x20 ADD PUSH1 0x0 KECCAK256 PUSH1 0x0 DUP5 PUSH20 0xFFFFFFFFFFFFFFFFFFFFFFFFFFFFFFFFFFFFFFFF AND PUSH20 0xFFFFFFFFFFFFFFFFFFFFFFFFFFFFFFFFFFFFFFFF AND DUP2 MSTORE PUSH1 0x20 ADD SWAP1 DUP2 MSTORE PUSH1 0x20 ADD PUSH1 0x0 KECCAK256 SLOAD SWAP1 POP SWAP3 SWAP2 POP POP JUMP JUMPDEST PUSH1 0x0 PUSH2 0xB68 DUP3 PUSH2 0x3DD0 JUMP JUMPDEST SWAP1 POP SWAP2 SWAP1 POP JUMP JUMPDEST PUSH2 0x167 DUP1 SLOAD PUSH2 0xB7D SWAP1 PUSH2 0x6EC1 JUMP JUMPDEST DUP1 PUSH1 0x1F ADD PUSH1 0x20 DUP1 SWAP2 DIV MUL PUSH1 0x20 ADD PUSH1 0x40 MLOAD SWAP1 DUP2 ADD PUSH1 0x40 MSTORE DUP1 SWAP3 SWAP2 SWAP1 DUP2 DUP2 MSTORE PUSH1 0x20 ADD DUP3 DUP1 SLOAD PUSH2 0xBA9 SWAP1 PUSH2 0x6EC1 JUMP JUMPDEST DUP1 ISZERO PUSH2 0xBF6 JUMPI DUP1 PUSH1 0x1F LT PUSH2 0xBCB JUMPI PUSH2 0x100 DUP1 DUP4 SLOAD DIV MUL DUP4 MSTORE SWAP2 PUSH1 0x20 ADD SWAP2 PUSH2 0xBF6 JUMP JUMPDEST DUP3 ADD SWAP2 SWAP1 PUSH1 0x0 MSTORE PUSH1 0x20 PUSH1 0x0 KECCAK256 SWAP1 JUMPDEST DUP2 SLOAD DUP2 MSTORE SWAP1 PUSH1 0x1 ADD SWAP1 PUSH1 0x20 ADD DUP1 DUP4 GT PUSH2 0xBD9 JUMPI DUP3 SWAP1 SUB PUSH1 0x1F AND DUP3 ADD SWAP2 JUMPDEST POP POP POP POP POP DUP2 JUMP JUMPDEST PUSH1 0x60 PUSH1 0x67 DUP1 SLOAD PUSH2 0xC0D SWAP1 PUSH2 0x6EC1 JUMP JUMPDEST DUP1 PUSH1 0x1F ADD PUSH1 0x20 DUP1 SWAP2 DIV MUL PUSH1 0x20 ADD PUSH1 0x40 MLOAD SWAP1 DUP2 ADD PUSH1 0x40 MSTORE DUP1 SWAP3 SWAP2 SWAP1 DUP2 DUP2 MSTORE PUSH1 0x20 ADD DUP3 DUP1 SLOAD PUSH2 0xC39 SWAP1 PUSH2 0x6EC1 JUMP JUMPDEST DUP1 ISZERO PUSH2 0xC86 JUMPI DUP1 PUSH1 0x1F LT PUSH2 0xC5B JUMPI PUSH2 0x100 DUP1 DUP4 SLOAD DIV MUL DUP4 MSTORE SWAP2 PUSH1 0x20 ADD SWAP2 PUSH2 0xC86 JUMP JUMPDEST DUP3 ADD SWAP2 SWAP1 PUSH1 0x0 MSTORE PUSH1 0x20 PUSH1 0x0 KECCAK256 SWAP1 JUMPDEST DUP2 SLOAD DUP2 MSTORE SWAP1 PUSH1 0x1 ADD SWAP1 PUSH1 0x20 ADD DUP1 DUP4 GT PUSH2 0xC69 JUMPI DUP3 SWAP1 SUB PUSH1 0x1F AND DUP3 ADD SWAP2 JUMPDEST POP POP POP POP POP SWAP1 POP SWAP2 SWAP1 POP JUMP JUMPDEST PUSH1 0x0 PUSH1 0x97 PUSH1 0x0 DUP4 DUP2 MSTORE PUSH1 0x20 ADD SWAP1 DUP2 MSTORE PUSH1 0x20 ADD PUSH1 0x0 KECCAK256 PUSH1 0x1 ADD SLOAD SWAP1 POP SWAP2 SWAP1 POP JUMP JUMPDEST PUSH2 0xCBA PUSH2 0x3E4A JUMP JUMPDEST PUSH20 0xFFFFFFFFFFFFFFFFFFFFFFFFFFFFFFFFFFFFFFFF AND DUP6 PUSH20 0xFFFFFFFFFFFFFFFFFFFFFFFFFFFFFFFFFFFFFFFF AND EQ DUP1 PUSH2 0xD00 JUMPI POP PUSH2 0xCFF DUP6 PUSH2 0xCFA PUSH2 0x3E4A JUMP JUMPDEST PUSH2 0x328B JUMP JUMPDEST JUMPDEST PUSH2 0xD3F JUMPI PUSH1 0x40 MLOAD PUSH32 0x8C379A000000000000000000000000000000000000000000000000000000000 DUP2 MSTORE PUSH1 0x4 ADD PUSH2 0xD36 SWAP1 PUSH2 0x6F64 JUMP JUMPDEST PUSH1 0x40 MLOAD DUP1 SWAP2 SUB SWAP1 REVERT JUMPDEST PUSH2 0xD4C DUP6 DUP6 DUP6 DUP6 DUP6 PUSH2 0x3E52 JUMP JUMPDEST POP POP POP POP POP JUMP JUMPDEST PUSH32 0xB0A2731DA0D1E322A29F18FC41490DA7914E8245C4E7D00155B630B2FBE50293 PUSH2 0xD7D DUP2 PUSH2 0x4176 JUMP JUMPDEST DUP2 PUSH2 0x161 PUSH1 0x0 PUSH2 0x100 EXP DUP2 SLOAD DUP2 PUSH20 0xFFFFFFFFFFFFFFFFFFFFFFFFFFFFFFFFFFFFFFFF MUL NOT AND SWAP1 DUP4 PUSH20 0xFFFFFFFFFFFFFFFFFFFFFFFFFFFFFFFFFFFFFFFF AND MUL OR SWAP1 SSTORE POP POP POP JUMP JUMPDEST PUSH2 0xDCC DUP3 PUSH2 0xC92 JUMP JUMPDEST PUSH2 0xDD5 DUP2 PUSH2 0x4176 JUMP JUMPDEST PUSH2 0xDDF DUP4 DUP4 PUSH2 0x418A JUMP JUMPDEST POP POP POP JUMP JUMPDEST PUSH2 0xDEC PUSH2 0x3E4A JUMP JUMPDEST PUSH20 0xFFFFFFFFFFFFFFFFFFFFFFFFFFFFFFFFFFFFFFFF AND DUP2 PUSH20 0xFFFFFFFFFFFFFFFFFFFFFFFFFFFFFFFFFFFFFFFF AND EQ PUSH2 0xE59 JUMPI PUSH1 0x40 MLOAD PUSH32 0x8C379A000000000000000000000000000000000000000000000000000000000 DUP2 MSTORE PUSH1 0x4 ADD PUSH2 0xE50 SWAP1 PUSH2 0x6FF6 JUMP JUMPDEST PUSH1 0x40 MLOAD DUP1 SWAP2 SUB SWAP1 REVERT JUMPDEST PUSH2 0xE63 DUP3 DUP3 PUSH2 0x426B JUMP JUMPDEST POP POP JUMP JUMPDEST PUSH32 0x0 PUSH20 0xFFFFFFFFFFFFFFFFFFFFFFFFFFFFFFFFFFFFFFFF AND ADDRESS PUSH20 0xFFFFFFFFFFFFFFFFFFFFFFFFFFFFFFFFFFFFFFFF AND SUB PUSH2 0xEF5 JUMPI PUSH1 0x40 MLOAD PUSH32 0x8C379A000000000000000000000000000000000000000000000000000000000 DUP2 MSTORE PUSH1 0x4 ADD PUSH2 0xEEC SWAP1 PUSH2 0x7088 JUMP JUMPDEST PUSH1 0x40 MLOAD DUP1 SWAP2 SUB SWAP1 REVERT JUMPDEST PUSH32 0x0 PUSH20 0xFFFFFFFFFFFFFFFFFFFFFFFFFFFFFFFFFFFFFFFF AND PUSH2 0xF34 PUSH2 0x434D JUMP JUMPDEST PUSH20 0xFFFFFFFFFFFFFFFFFFFFFFFFFFFFFFFFFFFFFFFF AND EQ PUSH2 0xF8A JUMPI PUSH1 0x40 MLOAD PUSH32 0x8C379A000000000000000000000000000000000000000000000000000000000 DUP2 MSTORE PUSH1 0x4 ADD PUSH2 0xF81 SWAP1 PUSH2 0x711A JUMP JUMPDEST PUSH1 0x40 MLOAD DUP1 SWAP2 SUB SWAP1 REVERT JUMPDEST PUSH2 0xF93 DUP2 PUSH2 0x43A4 JUMP JUMPDEST PUSH2 0xFEC DUP2 PUSH1 0x0 PUSH8 0xFFFFFFFFFFFFFFFF DUP2 GT ISZERO PUSH2 0xFB2 JUMPI PUSH2 0xFB1 PUSH2 0x5DAF JUMP JUMPDEST JUMPDEST PUSH1 0x40 MLOAD SWAP1 DUP1 DUP3 MSTORE DUP1 PUSH1 0x1F ADD PUSH1 0x1F NOT AND PUSH1 0x20 ADD DUP3 ADD PUSH1 0x40 MSTORE DUP1 ISZERO PUSH2 0xFE4 JUMPI DUP2 PUSH1 0x20 ADD PUSH1 0x1 DUP3 MUL DUP1 CALLDATASIZE DUP4 CALLDATACOPY DUP1 DUP3 ADD SWAP2 POP POP SWAP1 POP JUMPDEST POP PUSH1 0x0 PUSH2 0x43D2 JUMP JUMPDEST POP JUMP JUMPDEST PUSH1 0x0 DUP1 SHL PUSH2 0xFFC DUP2 PUSH2 0x4176 JUMP JUMPDEST PUSH2 0x165 PUSH1 0x1 SWAP1 SLOAD SWAP1 PUSH2 0x100 EXP SWAP1 DIV PUSH20 0xFFFFFFFFFFFFFFFFFFFFFFFFFFFFFFFFFFFFFFFF AND PUSH20 0xFFFFFFFFFFFFFFFFFFFFFFFFFFFFFFFFFFFFFFFF AND PUSH4 0xA9059CBB CALLER PUSH2 0x165 PUSH1 0x1 SWAP1 SLOAD SWAP1 PUSH2 0x100 EXP SWAP1 DIV PUSH20 0xFFFFFFFFFFFFFFFFFFFFFFFFFFFFFFFFFFFFFFFF AND PUSH20 0xFFFFFFFFFFFFFFFFFFFFFFFFFFFFFFFFFFFFFFFF AND PUSH4 0x70A08231 ADDRESS PUSH1 0x40 MLOAD DUP3 PUSH4 0xFFFFFFFF AND PUSH1 0xE0 SHL DUP2 MSTORE PUSH1 0x4 ADD PUSH2 0x1098 SWAP2 SWAP1 PUSH2 0x6710 JUMP JUMPDEST PUSH1 0x20 PUSH1 0x40 MLOAD DUP1 DUP4 SUB DUP2 DUP7 GAS STATICCALL ISZERO DUP1 ISZERO PUSH2 0x10B5 JUMPI RETURNDATASIZE PUSH1 0x0 DUP1 RETURNDATACOPY RETURNDATASIZE PUSH1 0x0 REVERT JUMPDEST POP POP POP POP PUSH1 0x40 MLOAD RETURNDATASIZE PUSH1 0x1F NOT PUSH1 0x1F DUP3 ADD AND DUP3 ADD DUP1 PUSH1 0x40 MSTORE POP DUP2 ADD SWAP1 PUSH2 0x10D9 SWAP2 SWAP1 PUSH2 0x714F JUMP JUMPDEST PUSH1 0x40 MLOAD DUP4 PUSH4 0xFFFFFFFF AND PUSH1 0xE0 SHL DUP2 MSTORE PUSH1 0x4 ADD PUSH2 0x10F6 SWAP3 SWAP2 SWAP1 PUSH2 0x717C JUMP JUMPDEST PUSH1 0x20 PUSH1 0x40 MLOAD DUP1 DUP4 SUB DUP2 PUSH1 0x0 DUP8 GAS CALL ISZERO DUP1 ISZERO PUSH2 0x1115 JUMPI RETURNDATASIZE PUSH1 0x0 DUP1 RETURNDATACOPY RETURNDATASIZE PUSH1 0x0 REVERT JUMPDEST POP POP POP POP PUSH1 0x40 MLOAD RETURNDATASIZE PUSH1 0x1F NOT PUSH1 0x1F DUP3 ADD AND DUP3 ADD DUP1 PUSH1 0x40 MSTORE POP DUP2 ADD SWAP1 PUSH2 0x1139 SWAP2 SWAP1 PUSH2 0x71BA JUMP JUMPDEST POP POP JUMP JUMPDEST PUSH32 0xB0A2731DA0D1E322A29F18FC41490DA7914E8245C4E7D00155B630B2FBE50293 PUSH2 0x1167 DUP2 PUSH2 0x4176 JUMP JUMPDEST DUP2 PUSH2 0x16A PUSH1 0x0 DUP6 DUP2 MSTORE PUSH1 0x20 ADD SWAP1 DUP2 MSTORE PUSH1 0x20 ADD PUSH1 0x0 KECCAK256 PUSH1 0x0 PUSH2 0x100 EXP DUP2 SLOAD DUP2 PUSH1 0xFF MUL NOT AND SWAP1 DUP4 ISZERO ISZERO MUL OR SWAP1 SSTORE POP POP POP POP JUMP JUMPDEST PUSH32 0xB0A2731DA0D1E322A29F18FC41490DA7914E8245C4E7D00155B630B2FBE50293 PUSH2 0x11C2 DUP2 PUSH2 0x4176 JUMP JUMPDEST DUP2 PUSH2 0x165 PUSH1 0x1 PUSH2 0x100 EXP DUP2 SLOAD DUP2 PUSH20 0xFFFFFFFFFFFFFFFFFFFFFFFFFFFFFFFFFFFFFFFF MUL NOT AND SWAP1 DUP4 PUSH20 0xFFFFFFFFFFFFFFFFFFFFFFFFFFFFFFFFFFFFFFFF AND MUL OR SWAP1 SSTORE POP POP POP JUMP JUMPDEST PUSH1 0x60 DUP2 MLOAD DUP4 MLOAD EQ PUSH2 0x124E JUMPI PUSH1 0x40 MLOAD PUSH32 0x8C379A000000000000000000000000000000000000000000000000000000000 DUP2 MSTORE PUSH1 0x4 ADD PUSH2 0x1245 SWAP1 PUSH2 0x7259 JUMP JUMPDEST PUSH1 0x40 MLOAD DUP1 SWAP2 SUB SWAP1 REVERT JUMPDEST PUSH1 0x0 DUP4 MLOAD PUSH8 0xFFFFFFFFFFFFFFFF DUP2 GT ISZERO PUSH2 0x126B JUMPI PUSH2 0x126A PUSH2 0x5DAF JUMP JUMPDEST JUMPDEST PUSH1 0x40 MLOAD SWAP1 DUP1 DUP3 MSTORE DUP1 PUSH1 0x20 MUL PUSH1 0x20 ADD DUP3 ADD PUSH1 0x40 MSTORE DUP1 ISZERO PUSH2 0x1299 JUMPI DUP2 PUSH1 0x20 ADD PUSH1 0x20 DUP3 MUL DUP1 CALLDATASIZE DUP4 CALLDATACOPY DUP1 DUP3 ADD SWAP2 POP POP SWAP1 POP JUMPDEST POP SWAP1 POP PUSH1 0x0 JUMPDEST DUP5 MLOAD DUP2 LT ISZERO PUSH2 0x1316 JUMPI PUSH2 0x12E6 DUP6 DUP3 DUP2 MLOAD DUP2 LT PUSH2 0x12BE JUMPI PUSH2 0x12BD PUSH2 0x7279 JUMP JUMPDEST JUMPDEST PUSH1 0x20 MUL PUSH1 0x20 ADD ADD MLOAD DUP6 DUP4 DUP2 MLOAD DUP2 LT PUSH2 0x12D9 JUMPI PUSH2 0x12D8 PUSH2 0x7279 JUMP JUMPDEST JUMPDEST PUSH1 0x20 MUL PUSH1 0x20 ADD ADD MLOAD PUSH2 0xA94 JUMP JUMPDEST DUP3 DUP3 DUP2 MLOAD DUP2 LT PUSH2 0x12F9 JUMPI PUSH2 0x12F8 PUSH2 0x7279 JUMP JUMPDEST JUMPDEST PUSH1 0x20 MUL PUSH1 0x20 ADD ADD DUP2 DUP2 MSTORE POP POP DUP1 PUSH2 0x130F SWAP1 PUSH2 0x72D7 JUMP JUMPDEST SWAP1 POP PUSH2 0x129F JUMP JUMPDEST POP DUP1 SWAP2 POP POP SWAP3 SWAP2 POP POP JUMP JUMPDEST PUSH32 0x0 PUSH20 0xFFFFFFFFFFFFFFFFFFFFFFFFFFFFFFFFFFFFFFFF AND ADDRESS PUSH20 0xFFFFFFFFFFFFFFFFFFFFFFFFFFFFFFFFFFFFFFFF AND SUB PUSH2 0x13AF JUMPI PUSH1 0x40 MLOAD PUSH32 0x8C379A000000000000000000000000000000000000000000000000000000000 DUP2 MSTORE PUSH1 0x4 ADD PUSH2 0x13A6 SWAP1 PUSH2 0x7088 JUMP JUMPDEST PUSH1 0x40 MLOAD DUP1 SWAP2 SUB SWAP1 REVERT JUMPDEST PUSH32 0x0 PUSH20 0xFFFFFFFFFFFFFFFFFFFFFFFFFFFFFFFFFFFFFFFF AND PUSH2 0x13EE PUSH2 0x434D JUMP JUMPDEST PUSH20 0xFFFFFFFFFFFFFFFFFFFFFFFFFFFFFFFFFFFFFFFF AND EQ PUSH2 0x1444 JUMPI PUSH1 0x40 MLOAD PUSH32 0x8C379A000000000000000000000000000000000000000000000000000000000 DUP2 MSTORE PUSH1 0x4 ADD PUSH2 0x143B SWAP1 PUSH2 0x711A JUMP JUMPDEST PUSH1 0x40 MLOAD DUP1 SWAP2 SUB SWAP1 REVERT JUMPDEST PUSH2 0x144D DUP3 PUSH2 0x43A4 JUMP JUMPDEST PUSH2 0x1459 DUP3 DUP3 PUSH1 0x1 PUSH2 0x43D2 JUMP JUMPDEST POP POP JUMP JUMPDEST PUSH1 0x60 PUSH1 0x0 PUSH2 0x16D PUSH1 0x0 DUP5 PUSH20 0xFFFFFFFFFFFFFFFFFFFFFFFFFFFFFFFFFFFFFFFF AND PUSH20 0xFFFFFFFFFFFFFFFFFFFFFFFFFFFFFFFFFFFFFFFF AND DUP2 MSTORE PUSH1 0x20 ADD SWAP1 DUP2 MSTORE PUSH1 0x20 ADD PUSH1 0x0 KECCAK256 DUP1 SLOAD SWAP1 POP PUSH8 0xFFFFFFFFFFFFFFFF DUP2 GT ISZERO PUSH2 0x14BE JUMPI PUSH2 0x14BD PUSH2 0x5DAF JUMP JUMPDEST JUMPDEST PUSH1 0x40 MLOAD SWAP1 DUP1 DUP3 MSTORE DUP1 PUSH1 0x20 MUL PUSH1 0x20 ADD DUP3 ADD PUSH1 0x40 MSTORE DUP1 ISZERO PUSH2 0x14F7 JUMPI DUP2 PUSH1 0x20 ADD JUMPDEST PUSH2 0x14E4 PUSH2 0x5A03 JUMP JUMPDEST DUP2 MSTORE PUSH1 0x20 ADD SWAP1 PUSH1 0x1 SWAP1 SUB SWAP1 DUP2 PUSH2 0x14DC JUMPI SWAP1 POP JUMPDEST POP SWAP1 POP PUSH1 0x0 JUMPDEST PUSH2 0x16D PUSH1 0x0 DUP6 PUSH20 0xFFFFFFFFFFFFFFFFFFFFFFFFFFFFFFFFFFFFFFFF AND PUSH20 0xFFFFFFFFFFFFFFFFFFFFFFFFFFFFFFFFFFFFFFFF AND DUP2 MSTORE PUSH1 0x20 ADD SWAP1 DUP2 MSTORE PUSH1 0x20 ADD PUSH1 0x0 KECCAK256 DUP1 SLOAD SWAP1 POP DUP2 LT ISZERO PUSH2 0x170E JUMPI PUSH1 0x0 PUSH2 0x15B0 DUP6 PUSH2 0x16D PUSH1 0x0 DUP9 PUSH20 0xFFFFFFFFFFFFFFFFFFFFFFFFFFFFFFFFFFFFFFFF AND PUSH20 0xFFFFFFFFFFFFFFFFFFFFFFFFFFFFFFFFFFFFFFFF AND DUP2 MSTORE PUSH1 0x20 ADD SWAP1 DUP2 MSTORE PUSH1 0x20 ADD PUSH1 0x0 KECCAK256 DUP5 DUP2 SLOAD DUP2 LT PUSH2 0x15A0 JUMPI PUSH2 0x159F PUSH2 0x7279 JUMP JUMPDEST JUMPDEST SWAP1 PUSH1 0x0 MSTORE PUSH1 0x20 PUSH1 0x0 KECCAK256 ADD SLOAD PUSH2 0xA94 JUMP JUMPDEST SWAP1 POP PUSH1 0x0 DUP2 GT PUSH2 0x15C0 JUMPI POP PUSH2 0x16FD JUMP JUMPDEST PUSH2 0x170 PUSH1 0x0 PUSH2 0x16D PUSH1 0x0 DUP9 PUSH20 0xFFFFFFFFFFFFFFFFFFFFFFFFFFFFFFFFFFFFFFFF AND PUSH20 0xFFFFFFFFFFFFFFFFFFFFFFFFFFFFFFFFFFFFFFFF AND DUP2 MSTORE PUSH1 0x20 ADD SWAP1 DUP2 MSTORE PUSH1 0x20 ADD PUSH1 0x0 KECCAK256 DUP5 DUP2 SLOAD DUP2 LT PUSH2 0x1617 JUMPI PUSH2 0x1616 PUSH2 0x7279 JUMP JUMPDEST JUMPDEST SWAP1 PUSH1 0x0 MSTORE PUSH1 0x20 PUSH1 0x0 KECCAK256 ADD SLOAD DUP2 MSTORE PUSH1 0x20 ADD SWAP1 DUP2 MSTORE PUSH1 0x20 ADD PUSH1 0x0 KECCAK256 PUSH1 0x40 MLOAD DUP1 PUSH1 0xA0 ADD PUSH1 0x40 MSTORE SWAP1 DUP2 PUSH1 0x0 DUP3 ADD PUSH1 0x0 SWAP1 SLOAD SWAP1 PUSH2 0x100 EXP SWAP1 DIV PUSH1 0xFF AND PUSH1 0xFF AND PUSH1 0xFF AND DUP2 MSTORE PUSH1 0x20 ADD PUSH1 0x1 DUP3 ADD SLOAD DUP2 MSTORE PUSH1 0x20 ADD PUSH1 0x2 DUP3 ADD SLOAD DUP2 MSTORE PUSH1 0x20 ADD PUSH1 0x3 DUP3 ADD PUSH1 0x0 SWAP1 SLOAD SWAP1 PUSH2 0x100 EXP SWAP1 DIV PUSH1 0xFF AND ISZERO ISZERO ISZERO ISZERO DUP2 MSTORE PUSH1 0x20 ADD PUSH1 0x3 DUP3 ADD PUSH1 0x1 SWAP1 SLOAD SWAP1 PUSH2 0x100 EXP SWAP1 DIV PUSH20 0xFFFFFFFFFFFFFFFFFFFFFFFFFFFFFFFFFFFFFFFF AND PUSH20 0xFFFFFFFFFFFFFFFFFFFFFFFFFFFFFFFFFFFFFFFF AND PUSH20 0xFFFFFFFFFFFFFFFFFFFFFFFFFFFFFFFFFFFFFFFF AND DUP2 MSTORE POP POP DUP4 DUP4 DUP2 MLOAD DUP2 LT PUSH2 0x16F0 JUMPI PUSH2 0x16EF PUSH2 0x7279 JUMP JUMPDEST JUMPDEST PUSH1 0x20 MUL PUSH1 0x20 ADD ADD DUP2 SWAP1 MSTORE POP POP JUMPDEST DUP1 PUSH2 0x1707 SWAP1 PUSH2 0x72D7 JUMP JUMPDEST SWAP1 POP PUSH2 0x14FD JUMP JUMPDEST POP DUP1 SWAP2 POP POP SWAP2 SWAP1 POP JUMP JUMPDEST PUSH1 0x0 PUSH32 0x0 PUSH20 0xFFFFFFFFFFFFFFFFFFFFFFFFFFFFFFFFFFFFFFFF AND ADDRESS PUSH20 0xFFFFFFFFFFFFFFFFFFFFFFFFFFFFFFFFFFFFFFFF AND EQ PUSH2 0x17A8 JUMPI PUSH1 0x40 MLOAD PUSH32 0x8C379A000000000000000000000000000000000000000000000000000000000 DUP2 MSTORE PUSH1 0x4 ADD PUSH2 0x179F SWAP1 PUSH2 0x7391 JUMP JUMPDEST PUSH1 0x40 MLOAD DUP1 SWAP2 SUB SWAP1 REVERT JUMPDEST PUSH32 0x360894A13BA1A3210667C828492DB98DCA3E2076CC3735A920A3CA505D382BBC PUSH1 0x0 SHL SWAP1 POP SWAP1 JUMP JUMPDEST PUSH1 0x0 DUP1 PUSH1 0x0 DUP1 PUSH2 0x16B PUSH1 0x0 DUP7 PUSH1 0xFF AND PUSH1 0xFF AND DUP2 MSTORE PUSH1 0x20 ADD SWAP1 DUP2 MSTORE PUSH1 0x20 ADD PUSH1 0x0 KECCAK256 PUSH1 0x40 MLOAD DUP1 PUSH1 0x60 ADD PUSH1 0x40 MSTORE SWAP1 DUP2 PUSH1 0x0 DUP3 ADD PUSH1 0x0 SWAP1 SLOAD SWAP1 PUSH2 0x100 EXP SWAP1 DIV PUSH1 0xFF AND PUSH1 0xFF AND PUSH1 0xFF AND DUP2 MSTORE PUSH1 0x20 ADD PUSH1 0x1 DUP3 ADD SLOAD DUP2 MSTORE PUSH1 0x20 ADD PUSH1 0x2 DUP3 ADD SLOAD DUP2 MSTORE POP POP SWAP1 POP DUP1 PUSH1 0x20 ADD MLOAD SWAP4 POP DUP1 PUSH1 0x40 ADD MLOAD SWAP2 POP PUSH2 0x16C PUSH1 0x0 DUP7 PUSH1 0xFF AND PUSH1 0xFF AND DUP2 MSTORE PUSH1 0x20 ADD SWAP1 DUP2 MSTORE PUSH1 0x20 ADD PUSH1 0x0 KECCAK256 SLOAD SWAP3 POP POP SWAP2 SWAP4 SWAP1 SWAP3 POP JUMP JUMPDEST PUSH2 0x165 PUSH1 0x1 SWAP1 SLOAD SWAP1 PUSH2 0x100 EXP SWAP1 DIV PUSH20 0xFFFFFFFFFFFFFFFFFFFFFFFFFFFFFFFFFFFFFFFF AND DUP2 JUMP JUMPDEST PUSH2 0x1891 PUSH2 0x4540 JUMP JUMPDEST PUSH2 0x189B PUSH1 0x0 PUSH2 0x45BE JUMP JUMPDEST JUMP JUMPDEST PUSH32 0xB0A2731DA0D1E322A29F18FC41490DA7914E8245C4E7D00155B630B2FBE50293 PUSH2 0x18C7 DUP2 PUSH2 0x4176 JUMP JUMPDEST DUP2 PUSH2 0x16E DUP2 SWAP1 SSTORE POP POP POP JUMP JUMPDEST PUSH32 0xB0A2731DA0D1E322A29F18FC41490DA7914E8245C4E7D00155B630B2FBE50293 PUSH2 0x18FD DUP2 PUSH2 0x4176 JUMP JUMPDEST DUP2 PUSH2 0x164 DUP2 SWAP1 SSTORE POP POP POP JUMP JUMPDEST PUSH1 0x0 CALLER SWAP1 POP PUSH2 0x163 SLOAD TIMESTAMP LT ISZERO PUSH2 0x1954 JUMPI PUSH1 0x40 MLOAD PUSH32 0x8C379A000000000000000000000000000000000000000000000000000000000 DUP2 MSTORE PUSH1 0x4 ADD PUSH2 0x194B SWAP1 PUSH2 0x73FD JUMP JUMPDEST PUSH1 0x40 MLOAD DUP1 SWAP2 SUB SWAP1 REVERT JUMPDEST PUSH2 0x164 SLOAD TIMESTAMP GT ISZERO PUSH2 0x199A JUMPI PUSH1 0x40 MLOAD PUSH32 0x8C379A000000000000000000000000000000000000000000000000000000000 DUP2 MSTORE PUSH1 0x4 ADD PUSH2 0x1991 SWAP1 PUSH2 0x7469 JUMP JUMPDEST PUSH1 0x40 MLOAD DUP1 SWAP2 SUB SWAP1 REVERT JUMPDEST PUSH1 0x0 PUSH2 0x16E SLOAD GT ISZERO PUSH2 0x1A2F JUMPI PUSH2 0x16E SLOAD PUSH2 0x16D PUSH1 0x0 DUP5 PUSH20 0xFFFFFFFFFFFFFFFFFFFFFFFFFFFFFFFFFFFFFFFF AND PUSH20 0xFFFFFFFFFFFFFFFFFFFFFFFFFFFFFFFFFFFFFFFF AND DUP2 MSTORE PUSH1 0x20 ADD SWAP1 DUP2 MSTORE PUSH1 0x20 ADD PUSH1 0x0 KECCAK256 DUP1 SLOAD SWAP1 POP LT PUSH2 0x1A2E JUMPI PUSH1 0x40 MLOAD PUSH32 0x8C379A000000000000000000000000000000000000000000000000000000000 DUP2 MSTORE PUSH1 0x4 ADD PUSH2 0x1A25 SWAP1 PUSH2 0x74D5 JUMP JUMPDEST PUSH1 0x40 MLOAD DUP1 SWAP2 SUB SWAP1 REVERT JUMPDEST JUMPDEST PUSH1 0x0 PUSH2 0x16B PUSH1 0x0 DUP6 PUSH1 0xFF AND PUSH1 0xFF AND DUP2 MSTORE PUSH1 0x20 ADD SWAP1 DUP2 MSTORE PUSH1 0x20 ADD PUSH1 0x0 KECCAK256 PUSH1 0x40 MLOAD DUP1 PUSH1 0x60 ADD PUSH1 0x40 MSTORE SWAP1 DUP2 PUSH1 0x0 DUP3 ADD PUSH1 0x0 SWAP1 SLOAD SWAP1 PUSH2 0x100 EXP SWAP1 DIV PUSH1 0xFF AND PUSH1 0xFF AND PUSH1 0xFF AND DUP2 MSTORE PUSH1 0x20 ADD PUSH1 0x1 DUP3 ADD SLOAD DUP2 MSTORE PUSH1 0x20 ADD PUSH1 0x2 DUP3 ADD SLOAD DUP2 MSTORE POP POP SWAP1 POP PUSH1 0x0 DUP2 PUSH1 0x20 ADD MLOAD GT PUSH2 0x1AD0 JUMPI PUSH1 0x40 MLOAD PUSH32 0x8C379A000000000000000000000000000000000000000000000000000000000 DUP2 MSTORE PUSH1 0x4 ADD PUSH2 0x1AC7 SWAP1 PUSH2 0x7541 JUMP JUMPDEST PUSH1 0x40 MLOAD DUP1 SWAP2 SUB SWAP1 REVERT JUMPDEST PUSH1 0x0 PUSH2 0x16C PUSH1 0x0 DUP7 PUSH1 0xFF AND PUSH1 0xFF AND DUP2 MSTORE PUSH1 0x20 ADD SWAP1 DUP2 MSTORE PUSH1 0x20 ADD PUSH1 0x0 KECCAK256 SLOAD SWAP1 POP DUP1 DUP3 PUSH1 0x20 ADD MLOAD GT PUSH2 0x1B35 JUMPI PUSH1 0x40 MLOAD PUSH32 0x8C379A000000000000000000000000000000000000000000000000000000000 DUP2 MSTORE PUSH1 0x4 ADD PUSH2 0x1B2C SWAP1 PUSH2 0x75AD JUMP JUMPDEST PUSH1 0x40 MLOAD DUP1 SWAP2 SUB SWAP1 REVERT JUMPDEST PUSH2 0x161 PUSH1 0x14 SWAP1 SLOAD SWAP1 PUSH2 0x100 EXP SWAP1 DIV PUSH1 0xFF AND PUSH2 0x1B67 JUMPI PUSH2 0x1B55 PUSH2 0x168 PUSH2 0x4686 JUMP JUMPDEST PUSH2 0x1B60 PUSH2 0x168 PUSH2 0x469C JUMP JUMPDEST SWAP6 POP PUSH2 0x1BB0 JUMP JUMPDEST PUSH2 0x1B70 DUP7 PUSH2 0x46AA JUMP JUMPDEST PUSH2 0x1BAF JUMPI PUSH1 0x40 MLOAD PUSH32 0x8C379A000000000000000000000000000000000000000000000000000000000 DUP2 MSTORE PUSH1 0x4 ADD PUSH2 0x1BA6 SWAP1 PUSH2 0x7619 JUMP JUMPDEST PUSH1 0x40 MLOAD DUP1 SWAP2 SUB SWAP1 REVERT JUMPDEST JUMPDEST PUSH1 0x0 PUSH2 0x170 PUSH1 0x0 DUP9 DUP2 MSTORE PUSH1 0x20 ADD SWAP1 DUP2 MSTORE PUSH1 0x20 ADD PUSH1 0x0 KECCAK256 PUSH1 0x40 MLOAD DUP1 PUSH1 0xA0 ADD PUSH1 0x40 MSTORE SWAP1 DUP2 PUSH1 0x0 DUP3 ADD PUSH1 0x0 SWAP1 SLOAD SWAP1 PUSH2 0x100 EXP SWAP1 DIV PUSH1 0xFF AND PUSH1 0xFF AND PUSH1 0xFF AND DUP2 MSTORE PUSH1 0x20 ADD PUSH1 0x1 DUP3 ADD SLOAD DUP2 MSTORE PUSH1 0x20 ADD PUSH1 0x2 DUP3 ADD SLOAD DUP2 MSTORE PUSH1 0x20 ADD PUSH1 0x3 DUP3 ADD PUSH1 0x0 SWAP1 SLOAD SWAP1 PUSH2 0x100 EXP SWAP1 DIV PUSH1 0xFF AND ISZERO ISZERO ISZERO ISZERO DUP2 MSTORE PUSH1 0x20 ADD PUSH1 0x3 DUP3 ADD PUSH1 0x1 SWAP1 SLOAD SWAP1 PUSH2 0x100 EXP SWAP1 DIV PUSH20 0xFFFFFFFFFFFFFFFFFFFFFFFFFFFFFFFFFFFFFFFF AND PUSH20 0xFFFFFFFFFFFFFFFFFFFFFFFFFFFFFFFFFFFFFFFF AND PUSH20 0xFFFFFFFFFFFFFFFFFFFFFFFFFFFFFFFFFFFFFFFF AND DUP2 MSTORE POP POP SWAP1 POP PUSH1 0x0 DUP2 PUSH1 0x40 ADD MLOAD EQ PUSH2 0x1CBC JUMPI PUSH1 0x40 MLOAD PUSH32 0x8C379A000000000000000000000000000000000000000000000000000000000 DUP2 MSTORE PUSH1 0x4 ADD PUSH2 0x1CB3 SWAP1 PUSH2 0x7685 JUMP JUMPDEST PUSH1 0x40 MLOAD DUP1 SWAP2 SUB SWAP1 REVERT JUMPDEST PUSH1 0x0 PUSH2 0x1CCB DUP5 PUSH1 0x40 ADD MLOAD PUSH2 0x46D5 JUMP JUMPDEST SWAP1 POP PUSH2 0x165 PUSH1 0x1 SWAP1 SLOAD SWAP1 PUSH2 0x100 EXP SWAP1 DIV PUSH20 0xFFFFFFFFFFFFFFFFFFFFFFFFFFFFFFFFFFFFFFFF AND PUSH20 0xFFFFFFFFFFFFFFFFFFFFFFFFFFFFFFFFFFFFFFFF AND PUSH4 0x70A08231 DUP8 PUSH1 0x40 MLOAD DUP3 PUSH4 0xFFFFFFFF AND PUSH1 0xE0 SHL DUP2 MSTORE PUSH1 0x4 ADD PUSH2 0x1D29 SWAP2 SWAP1 PUSH2 0x6710 JUMP JUMPDEST PUSH1 0x20 PUSH1 0x40 MLOAD DUP1 DUP4 SUB DUP2 DUP7 GAS STATICCALL ISZERO DUP1 ISZERO PUSH2 0x1D46 JUMPI RETURNDATASIZE PUSH1 0x0 DUP1 RETURNDATACOPY RETURNDATASIZE PUSH1 0x0 REVERT JUMPDEST POP POP POP POP PUSH1 0x40 MLOAD RETURNDATASIZE PUSH1 0x1F NOT PUSH1 0x1F DUP3 ADD AND DUP3 ADD DUP1 PUSH1 0x40 MSTORE POP DUP2 ADD SWAP1 PUSH2 0x1D6A SWAP2 SWAP1 PUSH2 0x714F JUMP JUMPDEST DUP5 PUSH1 0x40 ADD MLOAD GT ISZERO PUSH2 0x1DB0 JUMPI PUSH1 0x40 MLOAD PUSH32 0x8C379A000000000000000000000000000000000000000000000000000000000 DUP2 MSTORE PUSH1 0x4 ADD PUSH2 0x1DA7 SWAP1 PUSH2 0x7717 JUMP JUMPDEST PUSH1 0x40 MLOAD DUP1 SWAP2 SUB SWAP1 REVERT JUMPDEST PUSH2 0x165 PUSH1 0x1 SWAP1 SLOAD SWAP1 PUSH2 0x100 EXP SWAP1 DIV PUSH20 0xFFFFFFFFFFFFFFFFFFFFFFFFFFFFFFFFFFFFFFFF AND PUSH20 0xFFFFFFFFFFFFFFFFFFFFFFFFFFFFFFFFFFFFFFFF AND PUSH4 0x23B872DD DUP7 PUSH2 0x15F PUSH1 0x0 SWAP1 SLOAD SWAP1 PUSH2 0x100 EXP SWAP1 DIV PUSH20 0xFFFFFFFFFFFFFFFFFFFFFFFFFFFFFFFFFFFFFFFF AND DUP5 PUSH1 0x40 MLOAD DUP5 PUSH4 0xFFFFFFFF AND PUSH1 0xE0 SHL DUP2 MSTORE PUSH1 0x4 ADD PUSH2 0x1E33 SWAP4 SWAP3 SWAP2 SWAP1 PUSH2 0x7737 JUMP JUMPDEST PUSH1 0x20 PUSH1 0x40 MLOAD DUP1 DUP4 SUB DUP2 PUSH1 0x0 DUP8 GAS CALL ISZERO DUP1 ISZERO PUSH2 0x1E52 JUMPI RETURNDATASIZE PUSH1 0x0 DUP1 RETURNDATACOPY RETURNDATASIZE PUSH1 0x0 REVERT JUMPDEST POP POP POP POP PUSH1 0x40 MLOAD RETURNDATASIZE PUSH1 0x1F NOT PUSH1 0x1F DUP3 ADD AND DUP3 ADD DUP1 PUSH1 0x40 MSTORE POP DUP2 ADD SWAP1 PUSH2 0x1E76 SWAP2 SWAP1 PUSH2 0x71BA JUMP JUMPDEST POP PUSH1 0x0 DUP2 DUP6 PUSH1 0x40 ADD MLOAD PUSH2 0x1E89 SWAP2 SWAP1 PUSH2 0x776E JUMP JUMPDEST SWAP1 POP PUSH2 0x165 PUSH1 0x1 SWAP1 SLOAD SWAP1 PUSH2 0x100 EXP SWAP1 DIV PUSH20 0xFFFFFFFFFFFFFFFFFFFFFFFFFFFFFFFFFFFFFFFF AND PUSH20 0xFFFFFFFFFFFFFFFFFFFFFFFFFFFFFFFFFFFFFFFF AND PUSH4 0x23B872DD DUP8 PUSH2 0x161 PUSH1 0x0 SWAP1 SLOAD SWAP1 PUSH2 0x100 EXP SWAP1 DIV PUSH20 0xFFFFFFFFFFFFFFFFFFFFFFFFFFFFFFFFFFFFFFFF AND DUP5 PUSH1 0x40 MLOAD DUP5 PUSH4 0xFFFFFFFF AND PUSH1 0xE0 SHL DUP2 MSTORE PUSH1 0x4 ADD PUSH2 0x1F0E SWAP4 SWAP3 SWAP2 SWAP1 PUSH2 0x7737 JUMP JUMPDEST PUSH1 0x20 PUSH1 0x40 MLOAD DUP1 DUP4 SUB DUP2 PUSH1 0x0 DUP8 GAS CALL ISZERO DUP1 ISZERO PUSH2 0x1F2D JUMPI RETURNDATASIZE PUSH1 0x0 DUP1 RETURNDATACOPY RETURNDATASIZE PUSH1 0x0 REVERT JUMPDEST POP POP POP POP PUSH1 0x40 MLOAD RETURNDATASIZE PUSH1 0x1F NOT PUSH1 0x1F DUP3 ADD AND DUP3 ADD DUP1 PUSH1 0x40 MSTORE POP DUP2 ADD SWAP1 PUSH2 0x1F51 SWAP2 SWAP1 PUSH2 0x71BA JUMP JUMPDEST POP PUSH2 0x1F6E DUP8 DUP11 PUSH1 0x1 PUSH1 0x40 MLOAD DUP1 PUSH1 0x20 ADD PUSH1 0x40 MSTORE DUP1 PUSH1 0x0 DUP2 MSTORE POP PUSH2 0x479C JUMP JUMPDEST PUSH2 0x16D PUSH1 0x0 DUP9 PUSH20 0xFFFFFFFFFFFFFFFFFFFFFFFFFFFFFFFFFFFFFFFF AND PUSH20 0xFFFFFFFFFFFFFFFFFFFFFFFFFFFFFFFFFFFFFFFF AND DUP2 MSTORE PUSH1 0x20 ADD SWAP1 DUP2 MSTORE PUSH1 0x20 ADD PUSH1 0x0 KECCAK256 DUP10 SWAP1 DUP1 PUSH1 0x1 DUP2 SLOAD ADD DUP1 DUP3 SSTORE DUP1 SWAP2 POP POP PUSH1 0x1 SWAP1 SUB SWAP1 PUSH1 0x0 MSTORE PUSH1 0x20 PUSH1 0x0 KECCAK256 ADD PUSH1 0x0 SWAP1 SWAP2 SWAP1 SWAP2 SWAP1 SWAP2 POP SSTORE PUSH1 0x1 DUP5 PUSH2 0x1FE2 SWAP2 SWAP1 PUSH2 0x77A2 JUMP JUMPDEST PUSH2 0x16C PUSH1 0x0 DUP11 PUSH1 0xFF AND PUSH1 0xFF AND DUP2 MSTORE PUSH1 0x20 ADD SWAP1 DUP2 MSTORE PUSH1 0x20 ADD PUSH1 0x0 KECCAK256 DUP2 SWAP1 SSTORE POP DUP8 PUSH2 0x16F PUSH1 0x0 DUP12 DUP2 MSTORE PUSH1 0x20 ADD SWAP1 DUP2 MSTORE PUSH1 0x20 ADD PUSH1 0x0 KECCAK256 PUSH1 0x0 PUSH2 0x100 EXP DUP2 SLOAD DUP2 PUSH1 0xFF MUL NOT AND SWAP1 DUP4 PUSH1 0xFF AND MUL OR SWAP1 SSTORE POP PUSH1 0x0 PUSH2 0x2038 DUP11 PUSH2 0xBFE JUMP JUMPDEST SWAP1 POP DUP10 DUP5 PUSH1 0x20 ADD DUP2 DUP2 MSTORE POP POP DUP9 DUP5 PUSH1 0x0 ADD SWAP1 PUSH1 0xFF AND SWAP1 DUP2 PUSH1 0xFF AND DUP2 MSTORE POP POP PUSH1 0x1 DUP5 PUSH1 0x40 ADD DUP2 DUP2 MSTORE POP POP PUSH1 0x0 DUP10 PUSH1 0xFF AND GT DUP5 PUSH1 0x60 ADD SWAP1 ISZERO ISZERO SWAP1 DUP2 ISZERO ISZERO DUP2 MSTORE POP POP DUP8 DUP5 PUSH1 0x80 ADD SWAP1 PUSH20 0xFFFFFFFFFFFFFFFFFFFFFFFFFFFFFFFFFFFFFFFF AND SWAP1 DUP2 PUSH20 0xFFFFFFFFFFFFFFFFFFFFFFFFFFFFFFFFFFFFFFFF AND DUP2 MSTORE POP POP DUP4 PUSH2 0x170 PUSH1 0x0 DUP13 DUP2 MSTORE PUSH1 0x20 ADD SWAP1 DUP2 MSTORE PUSH1 0x20 ADD PUSH1 0x0 KECCAK256 PUSH1 0x0 DUP3 ADD MLOAD DUP2 PUSH1 0x0 ADD PUSH1 0x0 PUSH2 0x100 EXP DUP2 SLOAD DUP2 PUSH1 0xFF MUL NOT AND SWAP1 DUP4 PUSH1 0xFF AND MUL OR SWAP1 SSTORE POP PUSH1 0x20 DUP3 ADD MLOAD DUP2 PUSH1 0x1 ADD SSTORE PUSH1 0x40 DUP3 ADD MLOAD DUP2 PUSH1 0x2 ADD SSTORE PUSH1 0x60 DUP3 ADD MLOAD DUP2 PUSH1 0x3 ADD PUSH1 0x0 PUSH2 0x100 EXP DUP2 SLOAD DUP2 PUSH1 0xFF MUL NOT AND SWAP1 DUP4 ISZERO ISZERO MUL OR SWAP1 SSTORE POP PUSH1 0x80 DUP3 ADD MLOAD DUP2 PUSH1 0x3 ADD PUSH1 0x1 PUSH2 0x100 EXP DUP2 SLOAD DUP2 PUSH20 0xFFFFFFFFFFFFFFFFFFFFFFFFFFFFFFFFFFFFFFFF MUL NOT AND SWAP1 DUP4 PUSH20 0xFFFFFFFFFFFFFFFFFFFFFFFFFFFFFFFFFFFFFFFF AND MUL OR SWAP1 SSTORE POP SWAP1 POP POP PUSH32 0x2D4E120EA0E6AACF78E29B1AB8708EDDFF1B877753354538447EF8063A54EF45 DUP9 DUP12 DUP12 DUP5 DUP7 DUP9 PUSH1 0x40 MLOAD PUSH2 0x219C SWAP7 SWAP6 SWAP5 SWAP4 SWAP3 SWAP2 SWAP1 PUSH2 0x77D6 JUMP JUMPDEST PUSH1 0x40 MLOAD DUP1 SWAP2 SUB SWAP1 LOG1 POP POP POP POP POP POP POP POP POP POP JUMP JUMPDEST PUSH2 0x173 SLOAD DUP2 JUMP JUMPDEST PUSH1 0x0 PUSH2 0x12D PUSH1 0x0 SWAP1 SLOAD SWAP1 PUSH2 0x100 EXP SWAP1 DIV PUSH20 0xFFFFFFFFFFFFFFFFFFFFFFFFFFFFFFFFFFFFFFFF AND SWAP1 POP SWAP1 JUMP JUMPDEST PUSH32 0xA49807205CE4D355092EF5A8A18F56E8913CF4A201FBE287825B095693C21775 PUSH2 0x220C DUP2 PUSH2 0x4176 JUMP JUMPDEST PUSH20 0x0 PUSH4 0x39D1EFC6 DUP9 DUP9 DUP9 DUP9 DUP9 DUP9 PUSH1 0x40 MLOAD DUP8 PUSH4 0xFFFFFFFF AND PUSH1 0xE0 SHL DUP2 MSTORE PUSH1 0x4 ADD PUSH2 0x224D SWAP7 SWAP6 SWAP5 SWAP4 SWAP3 SWAP2 SWAP1 PUSH2 0x7911 JUMP JUMPDEST PUSH1 0x0 PUSH1 0x40 MLOAD DUP1 DUP4 SUB DUP2 DUP7 DUP1 EXTCODESIZE ISZERO DUP1 ISZERO PUSH2 0x2265 JUMPI PUSH1 0x0 DUP1 REVERT JUMPDEST POP GAS DELEGATECALL ISZERO DUP1 ISZERO PUSH2 0x2279 JUMPI RETURNDATASIZE PUSH1 0x0 DUP1 RETURNDATACOPY RETURNDATASIZE PUSH1 0x0 REVERT JUMPDEST POP POP POP POP POP POP POP POP POP POP POP JUMP JUMPDEST PUSH1 0x0 PUSH1 0x97 PUSH1 0x0 DUP5 DUP2 MSTORE PUSH1 0x20 ADD SWAP1 DUP2 MSTORE PUSH1 0x20 ADD PUSH1 0x0 KECCAK256 PUSH1 0x0 ADD PUSH1 0x0 DUP4 PUSH20 0xFFFFFFFFFFFFFFFFFFFFFFFFFFFFFFFFFFFFFFFF AND PUSH20 0xFFFFFFFFFFFFFFFFFFFFFFFFFFFFFFFFFFFFFFFF AND DUP2 MSTORE PUSH1 0x20 ADD SWAP1 DUP2 MSTORE PUSH1 0x20 ADD PUSH1 0x0 KECCAK256 PUSH1 0x0 SWAP1 SLOAD SWAP1 PUSH2 0x100 EXP SWAP1 DIV PUSH1 0xFF AND SWAP1 POP SWAP3 SWAP2 POP POP JUMP JUMPDEST PUSH2 0x166 DUP1 SLOAD PUSH2 0x22FF SWAP1 PUSH2 0x6EC1 JUMP JUMPDEST DUP1 PUSH1 0x1F ADD PUSH1 0x20 DUP1 SWAP2 DIV MUL PUSH1 0x20 ADD PUSH1 0x40 MLOAD SWAP1 DUP2 ADD PUSH1 0x40 MSTORE DUP1 SWAP3 SWAP2 SWAP1 DUP2 DUP2 MSTORE PUSH1 0x20 ADD DUP3 DUP1 SLOAD PUSH2 0x232B SWAP1 PUSH2 0x6EC1 JUMP JUMPDEST DUP1 ISZERO PUSH2 0x2378 JUMPI DUP1 PUSH1 0x1F LT PUSH2 0x234D JUMPI PUSH2 0x100 DUP1 DUP4 SLOAD DIV MUL DUP4 MSTORE SWAP2 PUSH1 0x20 ADD SWAP2 PUSH2 0x2378 JUMP JUMPDEST DUP3 ADD SWAP2 SWAP1 PUSH1 0x0 MSTORE PUSH1 0x20 PUSH1 0x0 KECCAK256 SWAP1 JUMPDEST DUP2 SLOAD DUP2 MSTORE SWAP1 PUSH1 0x1 ADD SWAP1 PUSH1 0x20 ADD DUP1 DUP4 GT PUSH2 0x235B JUMPI DUP3 SWAP1 SUB PUSH1 0x1F AND DUP3 ADD SWAP2 JUMPDEST POP POP POP POP POP DUP2 JUMP JUMPDEST PUSH1 0x0 DUP1 SHL DUP2 JUMP JUMPDEST PUSH2 0x2399 PUSH2 0x2392 PUSH2 0x3E4A JUMP JUMPDEST DUP4 DUP4 PUSH2 0x494D JUMP JUMPDEST POP POP JUMP JUMPDEST PUSH2 0x174 PUSH1 0x20 MSTORE DUP1 PUSH1 0x0 MSTORE PUSH1 0x40 PUSH1 0x0 KECCAK256 PUSH1 0x0 SWAP2 POP SWAP1 POP DUP1 SLOAD PUSH2 0x23BD SWAP1 PUSH2 0x6EC1 JUMP JUMPDEST DUP1 PUSH1 0x1F ADD PUSH1 0x20 DUP1 SWAP2 DIV MUL PUSH1 0x20 ADD PUSH1 0x40 MLOAD SWAP1 DUP2 ADD PUSH1 0x40 MSTORE DUP1 SWAP3 SWAP2 SWAP1 DUP2 DUP2 MSTORE PUSH1 0x20 ADD DUP3 DUP1 SLOAD PUSH2 0x23E9 SWAP1 PUSH2 0x6EC1 JUMP JUMPDEST DUP1 ISZERO PUSH2 0x2436 JUMPI DUP1 PUSH1 0x1F LT PUSH2 0x240B JUMPI PUSH2 0x100 DUP1 DUP4 SLOAD DIV MUL DUP4 MSTORE SWAP2 PUSH1 0x20 ADD SWAP2 PUSH2 0x2436 JUMP JUMPDEST DUP3 ADD SWAP2 SWAP1 PUSH1 0x0 MSTORE PUSH1 0x20 PUSH1 0x0 KECCAK256 SWAP1 JUMPDEST DUP2 SLOAD DUP2 MSTORE SWAP1 PUSH1 0x1 ADD SWAP1 PUSH1 0x20 ADD DUP1 DUP4 GT PUSH2 0x2419 JUMPI DUP3 SWAP1 SUB PUSH1 0x1F AND DUP3 ADD SWAP2 JUMPDEST POP POP POP POP POP DUP2 JUMP JUMPDEST PUSH32 0xA49807205CE4D355092EF5A8A18F56E8913CF4A201FBE287825B095693C21775 PUSH2 0x2468 DUP2 PUSH2 0x4176 JUMP JUMPDEST DUP2 MLOAD DUP4 MLOAD EQ PUSH2 0x24AC JUMPI PUSH1 0x40 MLOAD PUSH32 0x8C379A000000000000000000000000000000000000000000000000000000000 DUP2 MSTORE PUSH1 0x4 ADD PUSH2 0x24A3 SWAP1 PUSH2 0x79DF JUMP JUMPDEST PUSH1 0x40 MLOAD DUP1 SWAP2 SUB SWAP1 REVERT JUMPDEST PUSH1 0x0 JUMPDEST DUP4 MLOAD DUP2 LT ISZERO PUSH2 0x2544 JUMPI DUP3 DUP2 DUP2 MLOAD DUP2 LT PUSH2 0x24CB JUMPI PUSH2 0x24CA PUSH2 0x7279 JUMP JUMPDEST JUMPDEST PUSH1 0x20 MUL PUSH1 0x20 ADD ADD MLOAD PUSH2 0x172 PUSH1 0x0 DUP7 DUP5 DUP2 MLOAD DUP2 LT PUSH2 0x24EB JUMPI PUSH2 0x24EA PUSH2 0x7279 JUMP JUMPDEST JUMPDEST PUSH1 0x20 MUL PUSH1 0x20 ADD ADD MLOAD PUSH20 0xFFFFFFFFFFFFFFFFFFFFFFFFFFFFFFFFFFFFFFFF AND PUSH20 0xFFFFFFFFFFFFFFFFFFFFFFFFFFFFFFFFFFFFFFFF AND DUP2 MSTORE PUSH1 0x20 ADD SWAP1 DUP2 MSTORE PUSH1 0x20 ADD PUSH1 0x0 KECCAK256 DUP2 SWAP1 SSTORE POP DUP1 DUP1 PUSH2 0x253C SWAP1 PUSH2 0x72D7 JUMP JUMPDEST SWAP2 POP POP PUSH2 0x24AF JUMP JUMPDEST POP POP POP POP JUMP JUMPDEST PUSH1 0x0 DUP1 PUSH1 0x1 SWAP1 SLOAD SWAP1 PUSH2 0x100 EXP SWAP1 DIV PUSH1 0xFF AND ISZERO SWAP1 POP DUP1 DUP1 ISZERO PUSH2 0x257B JUMPI POP PUSH1 0x1 PUSH1 0x0 DUP1 SLOAD SWAP1 PUSH2 0x100 EXP SWAP1 DIV PUSH1 0xFF AND PUSH1 0xFF AND LT JUMPDEST DUP1 PUSH2 0x25A8 JUMPI POP PUSH2 0x258A ADDRESS PUSH2 0x4AB9 JUMP JUMPDEST ISZERO DUP1 ISZERO PUSH2 0x25A7 JUMPI POP PUSH1 0x1 PUSH1 0x0 DUP1 SLOAD SWAP1 PUSH2 0x100 EXP SWAP1 DIV PUSH1 0xFF AND PUSH1 0xFF AND EQ JUMPDEST JUMPDEST PUSH2 0x25E7 JUMPI PUSH1 0x40 MLOAD PUSH32 0x8C379A000000000000000000000000000000000000000000000000000000000 DUP2 MSTORE PUSH1 0x4 ADD PUSH2 0x25DE SWAP1 PUSH2 0x7A71 JUMP JUMPDEST PUSH1 0x40 MLOAD DUP1 SWAP2 SUB SWAP1 REVERT JUMPDEST PUSH1 0x1 PUSH1 0x0 DUP1 PUSH2 0x100 EXP DUP2 SLOAD DUP2 PUSH1 0xFF MUL NOT AND SWAP1 DUP4 PUSH1 0xFF AND MUL OR SWAP1 SSTORE POP DUP1 ISZERO PUSH2 0x2624 JUMPI PUSH1 0x1 PUSH1 0x0 PUSH1 0x1 PUSH2 0x100 EXP DUP2 SLOAD DUP2 PUSH1 0xFF MUL NOT AND SWAP1 DUP4 ISZERO ISZERO MUL OR SWAP1 SSTORE POP JUMPDEST PUSH2 0x263C PUSH1 0x40 MLOAD DUP1 PUSH1 0x20 ADD PUSH1 0x40 MSTORE DUP1 PUSH1 0x0 DUP2 MSTORE POP PUSH2 0x4ADC JUMP JUMPDEST PUSH2 0x2644 PUSH2 0x4B37 JUMP JUMPDEST PUSH2 0x264C PUSH2 0x4B88 JUMP JUMPDEST PUSH2 0x2655 DUP5 PUSH2 0x45BE JUMP JUMPDEST PUSH1 0x0 DUP1 PUSH1 0x0 SWAP1 POP JUMPDEST DUP5 MLOAD DUP2 LT ISZERO PUSH2 0x26A3 JUMPI DUP5 DUP2 DUP2 MLOAD DUP2 LT PUSH2 0x2679 JUMPI PUSH2 0x2678 PUSH2 0x7279 JUMP JUMPDEST JUMPDEST PUSH1 0x20 MUL PUSH1 0x20 ADD ADD MLOAD PUSH1 0x20 ADD MLOAD DUP3 PUSH2 0x2690 SWAP2 SWAP1 PUSH2 0x77A2 JUMP JUMPDEST SWAP2 POP DUP1 PUSH2 0x269C SWAP1 PUSH2 0x72D7 JUMP JUMPDEST SWAP1 POP PUSH2 0x265D JUMP JUMPDEST POP DUP3 DUP2 EQ PUSH2 0x26E6 JUMPI PUSH1 0x40 MLOAD PUSH32 0x8C379A000000000000000000000000000000000000000000000000000000000 DUP2 MSTORE PUSH1 0x4 ADD PUSH2 0x26DD SWAP1 PUSH2 0x7ADD JUMP JUMPDEST PUSH1 0x40 MLOAD DUP1 SWAP2 SUB SWAP1 REVERT JUMPDEST PUSH1 0x0 JUMPDEST DUP5 MLOAD DUP2 LT ISZERO PUSH2 0x2862 JUMPI PUSH2 0x26FA PUSH2 0x5A4D JUMP JUMPDEST DUP6 DUP3 DUP2 MLOAD DUP2 LT PUSH2 0x270D JUMPI PUSH2 0x270C PUSH2 0x7279 JUMP JUMPDEST JUMPDEST PUSH1 0x20 MUL PUSH1 0x20 ADD ADD MLOAD PUSH1 0x40 ADD MLOAD DUP2 PUSH1 0x40 ADD DUP2 DUP2 MSTORE POP POP DUP6 DUP3 DUP2 MLOAD DUP2 LT PUSH2 0x2735 JUMPI PUSH2 0x2734 PUSH2 0x7279 JUMP JUMPDEST JUMPDEST PUSH1 0x20 MUL PUSH1 0x20 ADD ADD MLOAD PUSH1 0x20 ADD MLOAD DUP2 PUSH1 0x20 ADD DUP2 DUP2 MSTORE POP POP DUP1 PUSH2 0x16B PUSH1 0x0 DUP9 DUP6 DUP2 MLOAD DUP2 LT PUSH2 0x2763 JUMPI PUSH2 0x2762 PUSH2 0x7279 JUMP JUMPDEST JUMPDEST PUSH1 0x20 MUL PUSH1 0x20 ADD ADD MLOAD PUSH1 0x0 ADD MLOAD PUSH1 0xFF AND PUSH1 0xFF AND DUP2 MSTORE PUSH1 0x20 ADD SWAP1 DUP2 MSTORE PUSH1 0x20 ADD PUSH1 0x0 KECCAK256 PUSH1 0x0 DUP3 ADD MLOAD DUP2 PUSH1 0x0 ADD PUSH1 0x0 PUSH2 0x100 EXP DUP2 SLOAD DUP2 PUSH1 0xFF MUL NOT AND SWAP1 DUP4 PUSH1 0xFF AND MUL OR SWAP1 SSTORE POP PUSH1 0x20 DUP3 ADD MLOAD DUP2 PUSH1 0x1 ADD SSTORE PUSH1 0x40 DUP3 ADD MLOAD DUP2 PUSH1 0x2 ADD SSTORE SWAP1 POP POP PUSH32 0xAB9CEAFA6F3A63A3FA4175DC0568FB22A90F89B34B4800540ADB2822F5642AED DUP7 DUP4 DUP2 MLOAD DUP2 LT PUSH2 0x27EF JUMPI PUSH2 0x27EE PUSH2 0x7279 JUMP JUMPDEST JUMPDEST PUSH1 0x20 MUL PUSH1 0x20 ADD ADD MLOAD PUSH1 0x0 ADD MLOAD DUP8 DUP5 DUP2 MLOAD DUP2 LT PUSH2 0x280E JUMPI PUSH2 0x280D PUSH2 0x7279 JUMP JUMPDEST JUMPDEST PUSH1 0x20 MUL PUSH1 0x20 ADD ADD MLOAD PUSH1 0x20 ADD MLOAD DUP9 DUP6 DUP2 MLOAD DUP2 LT PUSH2 0x282D JUMPI PUSH2 0x282C PUSH2 0x7279 JUMP JUMPDEST JUMPDEST PUSH1 0x20 MUL PUSH1 0x20 ADD ADD MLOAD PUSH1 0x40 ADD MLOAD PUSH1 0x40 MLOAD PUSH2 0x2848 SWAP4 SWAP3 SWAP2 SWAP1 PUSH2 0x7AFD JUMP JUMPDEST PUSH1 0x40 MLOAD DUP1 SWAP2 SUB SWAP1 LOG1 POP DUP1 PUSH2 0x285B SWAP1 PUSH2 0x72D7 JUMP JUMPDEST SWAP1 POP PUSH2 0x26E9 JUMP JUMPDEST POP DUP12 PUSH2 0x15F PUSH1 0x0 PUSH2 0x100 EXP DUP2 SLOAD DUP2 PUSH20 0xFFFFFFFFFFFFFFFFFFFFFFFFFFFFFFFFFFFFFFFF MUL NOT AND SWAP1 DUP4 PUSH20 0xFFFFFFFFFFFFFFFFFFFFFFFFFFFFFFFFFFFFFFFF AND MUL OR SWAP1 SSTORE POP DUP11 PUSH2 0x160 SWAP1 DUP2 PUSH2 0x28B5 SWAP2 SWAP1 PUSH2 0x7CD6 JUMP JUMPDEST POP DUP10 PUSH2 0x161 PUSH1 0x0 PUSH2 0x100 EXP DUP2 SLOAD DUP2 PUSH20 0xFFFFFFFFFFFFFFFFFFFFFFFFFFFFFFFFFFFFFFFF MUL NOT AND SWAP1 DUP4 PUSH20 0xFFFFFFFFFFFFFFFFFFFFFFFFFFFFFFFFFFFFFFFF AND MUL OR SWAP1 SSTORE POP DUP9 PUSH2 0x161 PUSH1 0x14 PUSH2 0x100 EXP DUP2 SLOAD DUP2 PUSH1 0xFF MUL NOT AND SWAP1 DUP4 ISZERO ISZERO MUL OR SWAP1 SSTORE POP DUP8 PUSH2 0x165 PUSH1 0x1 PUSH2 0x100 EXP DUP2 SLOAD DUP2 PUSH20 0xFFFFFFFFFFFFFFFFFFFFFFFFFFFFFFFFFFFFFFFF MUL NOT AND SWAP1 DUP4 PUSH20 0xFFFFFFFFFFFFFFFFFFFFFFFFFFFFFFFFFFFFFFFF AND MUL OR SWAP1 SSTORE POP DUP7 PUSH2 0x166 SWAP1 DUP2 PUSH2 0x2965 SWAP2 SWAP1 PUSH2 0x7CD6 JUMP JUMPDEST POP DUP6 PUSH2 0x167 SWAP1 DUP2 PUSH2 0x2976 SWAP2 SWAP1 PUSH2 0x7CD6 JUMP JUMPDEST POP PUSH2 0x29A1 PUSH32 0xA49807205CE4D355092EF5A8A18F56E8913CF4A201FBE287825B095693C21775 DUP7 PUSH2 0x4BD9 JUMP JUMPDEST PUSH2 0x29AE PUSH1 0x0 DUP1 SHL DUP7 PUSH2 0x4BD9 JUMP JUMPDEST PUSH2 0x29D8 PUSH32 0xB0A2731DA0D1E322A29F18FC41490DA7914E8245C4E7D00155B630B2FBE50293 DUP7 PUSH2 0x4BD9 JUMP JUMPDEST PUSH2 0x2A02 PUSH32 0x3C11D16CBAFFD01DF69CE1C404F6340EE057498F5F00246190EA54220576A848 DUP7 PUSH2 0x4BD9 JUMP JUMPDEST POP DUP1 ISZERO PUSH2 0x2A5C JUMPI PUSH1 0x0 DUP1 PUSH1 0x1 PUSH2 0x100 EXP DUP2 SLOAD DUP2 PUSH1 0xFF MUL NOT AND SWAP1 DUP4 ISZERO ISZERO MUL OR SWAP1 SSTORE POP PUSH32 0x7F26B83FF96E1F2B6A682F133852F6798A09C465DA95921460CEFB3847402498 PUSH1 0x1 PUSH1 0x40 MLOAD PUSH2 0x2A53 SWAP2 SWAP1 PUSH2 0x7DE3 JUMP JUMPDEST PUSH1 0x40 MLOAD DUP1 SWAP2 SUB SWAP1 LOG1 JUMPDEST POP POP POP POP POP POP POP POP POP POP POP JUMP JUMPDEST PUSH1 0x0 PUSH32 0xA49807205CE4D355092EF5A8A18F56E8913CF4A201FBE287825B095693C21775 PUSH2 0x2A95 DUP2 PUSH2 0x4176 JUMP JUMPDEST PUSH2 0x163 SLOAD TIMESTAMP LT ISZERO PUSH2 0x2ADB JUMPI PUSH1 0x40 MLOAD PUSH32 0x8C379A000000000000000000000000000000000000000000000000000000000 DUP2 MSTORE PUSH1 0x4 ADD PUSH2 0x2AD2 SWAP1 PUSH2 0x73FD JUMP JUMPDEST PUSH1 0x40 MLOAD DUP1 SWAP2 SUB SWAP1 REVERT JUMPDEST PUSH2 0x164 SLOAD TIMESTAMP GT ISZERO PUSH2 0x2B21 JUMPI PUSH1 0x40 MLOAD PUSH32 0x8C379A000000000000000000000000000000000000000000000000000000000 DUP2 MSTORE PUSH1 0x4 ADD PUSH2 0x2B18 SWAP1 PUSH2 0x7469 JUMP JUMPDEST PUSH1 0x40 MLOAD DUP1 SWAP2 SUB SWAP1 REVERT JUMPDEST PUSH2 0x171 DUP4 PUSH1 0x40 MLOAD PUSH2 0x2B32 SWAP2 SWAP1 PUSH2 0x7E3A JUMP JUMPDEST SWAP1 DUP2 MSTORE PUSH1 0x20 ADD PUSH1 0x40 MLOAD DUP1 SWAP2 SUB SWAP1 KECCAK256 PUSH1 0x0 SWAP1 SLOAD SWAP1 PUSH2 0x100 EXP SWAP1 DIV PUSH1 0xFF AND ISZERO PUSH2 0x2B8E JUMPI PUSH1 0x40 MLOAD PUSH32 0x8C379A000000000000000000000000000000000000000000000000000000000 DUP2 MSTORE PUSH1 0x4 ADD PUSH2 0x2B85 SWAP1 PUSH2 0x7E9D JUMP JUMPDEST PUSH1 0x40 MLOAD DUP1 SWAP2 SUB SWAP1 REVERT JUMPDEST PUSH1 0x0 PUSH2 0x16B PUSH1 0x0 DUP7 PUSH1 0xFF AND PUSH1 0xFF AND DUP2 MSTORE PUSH1 0x20 ADD SWAP1 DUP2 MSTORE PUSH1 0x20 ADD PUSH1 0x0 KECCAK256 PUSH1 0x40 MLOAD DUP1 PUSH1 0x60 ADD PUSH1 0x40 MSTORE SWAP1 DUP2 PUSH1 0x0 DUP3 ADD PUSH1 0x0 SWAP1 SLOAD SWAP1 PUSH2 0x100 EXP SWAP1 DIV PUSH1 0xFF AND PUSH1 0xFF AND PUSH1 0xFF AND DUP2 MSTORE PUSH1 0x20 ADD PUSH1 0x1 DUP3 ADD SLOAD DUP2 MSTORE PUSH1 0x20 ADD PUSH1 0x2 DUP3 ADD SLOAD DUP2 MSTORE POP POP SWAP1 POP PUSH1 0x0 DUP2 PUSH1 0x20 ADD MLOAD GT PUSH2 0x2C2F JUMPI PUSH1 0x40 MLOAD PUSH32 0x8C379A000000000000000000000000000000000000000000000000000000000 DUP2 MSTORE PUSH1 0x4 ADD PUSH2 0x2C26 SWAP1 PUSH2 0x7541 JUMP JUMPDEST PUSH1 0x40 MLOAD DUP1 SWAP2 SUB SWAP1 REVERT JUMPDEST PUSH1 0x0 PUSH2 0x16C PUSH1 0x0 DUP8 PUSH1 0xFF AND PUSH1 0xFF AND DUP2 MSTORE PUSH1 0x20 ADD SWAP1 DUP2 MSTORE PUSH1 0x20 ADD PUSH1 0x0 KECCAK256 SLOAD SWAP1 POP DUP1 DUP3 PUSH1 0x20 ADD MLOAD GT PUSH2 0x2C94 JUMPI PUSH1 0x40 MLOAD PUSH32 0x8C379A000000000000000000000000000000000000000000000000000000000 DUP2 MSTORE PUSH1 0x4 ADD PUSH2 0x2C8B SWAP1 PUSH2 0x75AD JUMP JUMPDEST PUSH1 0x40 MLOAD DUP1 SWAP2 SUB SWAP1 REVERT JUMPDEST PUSH2 0x161 PUSH1 0x14 SWAP1 SLOAD SWAP1 PUSH2 0x100 EXP SWAP1 DIV PUSH1 0xFF AND PUSH2 0x2CC6 JUMPI PUSH2 0x2CB4 PUSH2 0x168 PUSH2 0x4686 JUMP JUMPDEST PUSH2 0x2CBF PUSH2 0x168 PUSH2 0x469C JUMP JUMPDEST SWAP7 POP PUSH2 0x2D0F JUMP JUMPDEST PUSH2 0x2CCF DUP8 PUSH2 0x46AA JUMP JUMPDEST PUSH2 0x2D0E JUMPI PUSH1 0x40 MLOAD PUSH32 0x8C379A000000000000000000000000000000000000000000000000000000000 DUP2 MSTORE PUSH1 0x4 ADD PUSH2 0x2D05 SWAP1 PUSH2 0x7619 JUMP JUMPDEST PUSH1 0x40 MLOAD DUP1 SWAP2 SUB SWAP1 REVERT JUMPDEST JUMPDEST PUSH1 0x0 PUSH2 0x170 PUSH1 0x0 DUP10 DUP2 MSTORE PUSH1 0x20 ADD SWAP1 DUP2 MSTORE PUSH1 0x20 ADD PUSH1 0x0 KECCAK256 PUSH1 0x40 MLOAD DUP1 PUSH1 0xA0 ADD PUSH1 0x40 MSTORE SWAP1 DUP2 PUSH1 0x0 DUP3 ADD PUSH1 0x0 SWAP1 SLOAD SWAP1 PUSH2 0x100 EXP SWAP1 DIV PUSH1 0xFF AND PUSH1 0xFF AND PUSH1 0xFF AND DUP2 MSTORE PUSH1 0x20 ADD PUSH1 0x1 DUP3 ADD SLOAD DUP2 MSTORE PUSH1 0x20 ADD PUSH1 0x2 DUP3 ADD SLOAD DUP2 MSTORE PUSH1 0x20 ADD PUSH1 0x3 DUP3 ADD PUSH1 0x0 SWAP1 SLOAD SWAP1 PUSH2 0x100 EXP SWAP1 DIV PUSH1 0xFF AND ISZERO ISZERO ISZERO ISZERO DUP2 MSTORE PUSH1 0x20 ADD PUSH1 0x3 DUP3 ADD PUSH1 0x1 SWAP1 SLOAD SWAP1 PUSH2 0x100 EXP SWAP1 DIV PUSH20 0xFFFFFFFFFFFFFFFFFFFFFFFFFFFFFFFFFFFFFFFF AND PUSH20 0xFFFFFFFFFFFFFFFFFFFFFFFFFFFFFFFFFFFFFFFF AND PUSH20 0xFFFFFFFFFFFFFFFFFFFFFFFFFFFFFFFFFFFFFFFF AND DUP2 MSTORE POP POP SWAP1 POP PUSH1 0x0 DUP2 PUSH1 0x40 ADD MLOAD EQ PUSH2 0x2E1B JUMPI PUSH1 0x40 MLOAD PUSH32 0x8C379A000000000000000000000000000000000000000000000000000000000 DUP2 MSTORE PUSH1 0x4 ADD PUSH2 0x2E12 SWAP1 PUSH2 0x7685 JUMP JUMPDEST PUSH1 0x40 MLOAD DUP1 SWAP2 SUB SWAP1 REVERT JUMPDEST PUSH2 0x2E37 DUP10 DUP10 PUSH1 0x1 PUSH1 0x40 MLOAD DUP1 PUSH1 0x20 ADD PUSH1 0x40 MSTORE DUP1 PUSH1 0x0 DUP2 MSTORE POP PUSH2 0x479C JUMP JUMPDEST PUSH2 0x16D PUSH1 0x0 DUP11 PUSH20 0xFFFFFFFFFFFFFFFFFFFFFFFFFFFFFFFFFFFFFFFF AND PUSH20 0xFFFFFFFFFFFFFFFFFFFFFFFFFFFFFFFFFFFFFFFF AND DUP2 MSTORE PUSH1 0x20 ADD SWAP1 DUP2 MSTORE PUSH1 0x20 ADD PUSH1 0x0 KECCAK256 DUP9 SWAP1 DUP1 PUSH1 0x1 DUP2 SLOAD ADD DUP1 DUP3 SSTORE DUP1 SWAP2 POP POP PUSH1 0x1 SWAP1 SUB SWAP1 PUSH1 0x0 MSTORE PUSH1 0x20 PUSH1 0x0 KECCAK256 ADD PUSH1 0x0 SWAP1 SWAP2 SWAP1 SWAP2 SWAP1 SWAP2 POP SSTORE PUSH1 0x1 DUP3 PUSH2 0x2EAB SWAP2 SWAP1 PUSH2 0x77A2 JUMP JUMPDEST PUSH2 0x16C PUSH1 0x0 DUP10 PUSH1 0xFF AND PUSH1 0xFF AND DUP2 MSTORE PUSH1 0x20 ADD SWAP1 DUP2 MSTORE PUSH1 0x20 ADD PUSH1 0x0 KECCAK256 DUP2 SWAP1 SSTORE POP DUP7 PUSH2 0x16F PUSH1 0x0 DUP11 DUP2 MSTORE PUSH1 0x20 ADD SWAP1 DUP2 MSTORE PUSH1 0x20 ADD PUSH1 0x0 KECCAK256 PUSH1 0x0 PUSH2 0x100 EXP DUP2 SLOAD DUP2 PUSH1 0xFF MUL NOT AND SWAP1 DUP4 PUSH1 0xFF AND MUL OR SWAP1 SSTORE POP PUSH1 0x0 PUSH2 0x2F01 DUP10 PUSH2 0xBFE JUMP JUMPDEST SWAP1 POP DUP9 DUP3 PUSH1 0x20 ADD DUP2 DUP2 MSTORE POP POP DUP8 DUP3 PUSH1 0x0 ADD SWAP1 PUSH1 0xFF AND SWAP1 DUP2 PUSH1 0xFF AND DUP2 MSTORE POP POP PUSH1 0x1 DUP3 PUSH1 0x40 ADD DUP2 DUP2 MSTORE POP POP PUSH1 0x0 DUP9 PUSH1 0xFF AND GT DUP3 PUSH1 0x60 ADD SWAP1 ISZERO ISZERO SWAP1 DUP2 ISZERO ISZERO DUP2 MSTORE POP POP DUP10 DUP3 PUSH1 0x80 ADD SWAP1 PUSH20 0xFFFFFFFFFFFFFFFFFFFFFFFFFFFFFFFFFFFFFFFF AND SWAP1 DUP2 PUSH20 0xFFFFFFFFFFFFFFFFFFFFFFFFFFFFFFFFFFFFFFFF AND DUP2 MSTORE POP POP DUP2 PUSH2 0x170 PUSH1 0x0 DUP12 DUP2 MSTORE PUSH1 0x20 ADD SWAP1 DUP2 MSTORE PUSH1 0x20 ADD PUSH1 0x0 KECCAK256 PUSH1 0x0 DUP3 ADD MLOAD DUP2 PUSH1 0x0 ADD PUSH1 0x0 PUSH2 0x100 EXP DUP2 SLOAD DUP2 PUSH1 0xFF MUL NOT AND SWAP1 DUP4 PUSH1 0xFF AND MUL OR SWAP1 SSTORE POP PUSH1 0x20 DUP3 ADD MLOAD DUP2 PUSH1 0x1 ADD SSTORE PUSH1 0x40 DUP3 ADD MLOAD DUP2 PUSH1 0x2 ADD SSTORE PUSH1 0x60 DUP3 ADD MLOAD DUP2 PUSH1 0x3 ADD PUSH1 0x0 PUSH2 0x100 EXP DUP2 SLOAD DUP2 PUSH1 0xFF MUL NOT AND SWAP1 DUP4 ISZERO ISZERO MUL OR SWAP1 SSTORE POP PUSH1 0x80 DUP3 ADD MLOAD DUP2 PUSH1 0x3 ADD PUSH1 0x1 PUSH2 0x100 EXP DUP2 SLOAD DUP2 PUSH20 0xFFFFFFFFFFFFFFFFFFFFFFFFFFFFFFFFFFFFFFFF MUL NOT AND SWAP1 DUP4 PUSH20 0xFFFFFFFFFFFFFFFFFFFFFFFFFFFFFFFFFFFFFFFF AND MUL OR SWAP1 SSTORE POP SWAP1 POP POP PUSH1 0x1 PUSH2 0x171 DUP9 PUSH1 0x40 MLOAD PUSH2 0x303F SWAP2 SWAP1 PUSH2 0x7E3A JUMP JUMPDEST SWAP1 DUP2 MSTORE PUSH1 0x20 ADD PUSH1 0x40 MLOAD DUP1 SWAP2 SUB SWAP1 KECCAK256 PUSH1 0x0 PUSH2 0x100 EXP DUP2 SLOAD DUP2 PUSH1 0xFF MUL NOT AND SWAP1 DUP4 ISZERO ISZERO MUL OR SWAP1 SSTORE POP PUSH32 0x9B7D14B1E22BCD1E90132D871C08A86A7D439E4349AC2BBAEA472E1ED9031F33 DUP11 DUP11 DUP11 DUP5 DUP12 PUSH1 0x40 MLOAD PUSH2 0x309B SWAP6 SWAP5 SWAP4 SWAP3 SWAP2 SWAP1 PUSH2 0x7EBD JUMP JUMPDEST PUSH1 0x40 MLOAD DUP1 SWAP2 SUB SWAP1 LOG1 PUSH32 0x2D4E120EA0E6AACF78E29B1AB8708EDDFF1B877753354538447EF8063A54EF45 DUP11 DUP11 DUP11 DUP5 PUSH1 0x0 DUP1 PUSH1 0x40 MLOAD PUSH2 0x30DD SWAP7 SWAP6 SWAP5 SWAP4 SWAP3 SWAP2 SWAP1 PUSH2 0x7F59 JUMP JUMPDEST PUSH1 0x40 MLOAD DUP1 SWAP2 SUB SWAP1 LOG1 DUP9 SWAP6 POP POP POP POP POP POP SWAP5 SWAP4 POP POP POP POP JUMP JUMPDEST PUSH32 0xA49807205CE4D355092EF5A8A18F56E8913CF4A201FBE287825B095693C21775 PUSH2 0x311F DUP2 PUSH2 0x4176 JUMP JUMPDEST PUSH20 0x0 PUSH4 0x7A171259 DUP8 DUP8 DUP8 DUP8 DUP8 PUSH1 0x40 MLOAD DUP7 PUSH4 0xFFFFFFFF AND PUSH1 0xE0 SHL DUP2 MSTORE PUSH1 0x4 ADD PUSH2 0x315E SWAP6 SWAP5 SWAP4 SWAP3 SWAP2 SWAP1 PUSH2 0x7FC1 JUMP JUMPDEST PUSH1 0x20 PUSH1 0x40 MLOAD DUP1 DUP4 SUB DUP2 DUP7 GAS DELEGATECALL ISZERO DUP1 ISZERO PUSH2 0x317B JUMPI RETURNDATASIZE PUSH1 0x0 DUP1 RETURNDATACOPY RETURNDATASIZE PUSH1 0x0 REVERT JUMPDEST POP POP POP POP PUSH1 0x40 MLOAD RETURNDATASIZE PUSH1 0x1F NOT PUSH1 0x1F DUP3 ADD AND DUP3 ADD DUP1 PUSH1 0x40 MSTORE POP DUP2 ADD SWAP1 PUSH2 0x319F SWAP2 SWAP1 PUSH2 0x714F JUMP JUMPDEST POP POP POP POP POP POP POP JUMP JUMPDEST PUSH1 0x0 PUSH32 0xB0A2731DA0D1E322A29F18FC41490DA7914E8245C4E7D00155B630B2FBE50293 PUSH2 0x31D4 DUP2 PUSH2 0x4176 JUMP JUMPDEST PUSH2 0x16A PUSH1 0x0 DUP5 DUP2 MSTORE PUSH1 0x20 ADD SWAP1 DUP2 MSTORE PUSH1 0x20 ADD PUSH1 0x0 KECCAK256 PUSH1 0x0 SWAP1 SLOAD SWAP1 PUSH2 0x100 EXP SWAP1 DIV PUSH1 0xFF AND SWAP2 POP POP SWAP2 SWAP1 POP JUMP JUMPDEST PUSH2 0x3207 DUP3 PUSH2 0xC92 JUMP JUMPDEST PUSH2 0x3210 DUP2 PUSH2 0x4176 JUMP JUMPDEST PUSH2 0x321A DUP4 DUP4 PUSH2 0x426B JUMP JUMPDEST POP POP POP JUMP JUMPDEST PUSH32 0xB0A2731DA0D1E322A29F18FC41490DA7914E8245C4E7D00155B630B2FBE50293 PUSH2 0x3249 DUP2 PUSH2 0x4176 JUMP JUMPDEST DUP2 PUSH2 0x163 DUP2 SWAP1 SSTORE POP POP POP JUMP JUMPDEST PUSH32 0xB0A2731DA0D1E322A29F18FC41490DA7914E8245C4E7D00155B630B2FBE50293 PUSH2 0x327F DUP2 PUSH2 0x4176 JUMP JUMPDEST DUP2 PUSH2 0x162 DUP2 SWAP1 SSTORE POP POP POP JUMP JUMPDEST PUSH1 0x0 PUSH1 0x66 PUSH1 0x0 DUP5 PUSH20 0xFFFFFFFFFFFFFFFFFFFFFFFFFFFFFFFFFFFFFFFF AND PUSH20 0xFFFFFFFFFFFFFFFFFFFFFFFFFFFFFFFFFFFFFFFF AND DUP2 MSTORE PUSH1 0x20 ADD SWAP1 DUP2 MSTORE PUSH1 0x20 ADD PUSH1 0x0 KECCAK256 PUSH1 0x0 DUP4 PUSH20 0xFFFFFFFFFFFFFFFFFFFFFFFFFFFFFFFFFFFFFFFF AND PUSH20 0xFFFFFFFFFFFFFFFFFFFFFFFFFFFFFFFFFFFFFFFF AND DUP2 MSTORE PUSH1 0x20 ADD SWAP1 DUP2 MSTORE PUSH1 0x20 ADD PUSH1 0x0 KECCAK256 PUSH1 0x0 SWAP1 SLOAD SWAP1 PUSH2 0x100 EXP SWAP1 DIV PUSH1 0xFF AND SWAP1 POP SWAP3 SWAP2 POP POP JUMP JUMPDEST PUSH2 0x3327 PUSH2 0x3E4A JUMP JUMPDEST PUSH20 0xFFFFFFFFFFFFFFFFFFFFFFFFFFFFFFFFFFFFFFFF AND DUP6 PUSH20 0xFFFFFFFFFFFFFFFFFFFFFFFFFFFFFFFFFFFFFFFF AND EQ DUP1 PUSH2 0x336D JUMPI POP PUSH2 0x336C DUP6 PUSH2 0x3367 PUSH2 0x3E4A JUMP JUMPDEST PUSH2 0x328B JUMP JUMPDEST JUMPDEST PUSH2 0x33AC JUMPI PUSH1 0x40 MLOAD PUSH32 0x8C379A000000000000000000000000000000000000000000000000000000000 DUP2 MSTORE PUSH1 0x4 ADD PUSH2 0x33A3 SWAP1 PUSH2 0x6F64 JUMP JUMPDEST PUSH1 0x40 MLOAD DUP1 SWAP2 SUB SWAP1 REVERT JUMPDEST PUSH2 0x33B9 DUP6 DUP6 DUP6 DUP6 DUP6 PUSH2 0x4BE7 JUMP JUMPDEST POP POP POP POP POP JUMP JUMPDEST PUSH2 0x33C8 PUSH2 0x4540 JUMP JUMPDEST PUSH1 0x0 PUSH20 0xFFFFFFFFFFFFFFFFFFFFFFFFFFFFFFFFFFFFFFFF AND DUP2 PUSH20 0xFFFFFFFFFFFFFFFFFFFFFFFFFFFFFFFFFFFFFFFF AND SUB PUSH2 0x3437 JUMPI PUSH1 0x40 MLOAD PUSH32 0x8C379A000000000000000000000000000000000000000000000000000000000 DUP2 MSTORE PUSH1 0x4 ADD PUSH2 0x342E SWAP1 PUSH2 0x8081 JUMP JUMPDEST PUSH1 0x40 MLOAD DUP1 SWAP2 SUB SWAP1 REVERT JUMPDEST PUSH2 0x3440 DUP2 PUSH2 0x45BE JUMP JUMPDEST POP JUMP JUMPDEST PUSH2 0x165 PUSH1 0x0 SWAP1 SLOAD SWAP1 PUSH2 0x100 EXP SWAP1 DIV PUSH1 0xFF AND DUP2 JUMP JUMPDEST PUSH2 0x170 PUSH1 0x20 MSTORE DUP1 PUSH1 0x0 MSTORE PUSH1 0x40 PUSH1 0x0 KECCAK256 PUSH1 0x0 SWAP2 POP SWAP1 POP DUP1 PUSH1 0x0 ADD PUSH1 0x0 SWAP1 SLOAD SWAP1 PUSH2 0x100 EXP SWAP1 DIV PUSH1 0xFF AND SWAP1 DUP1 PUSH1 0x1 ADD SLOAD SWAP1 DUP1 PUSH1 0x2 ADD SLOAD SWAP1 DUP1 PUSH1 0x3 ADD PUSH1 0x0 SWAP1 SLOAD SWAP1 PUSH2 0x100 EXP SWAP1 DIV PUSH1 0xFF AND SWAP1 DUP1 PUSH1 0x3 ADD PUSH1 0x1 SWAP1 SLOAD SWAP1 PUSH2 0x100 EXP SWAP1 DIV PUSH20 0xFFFFFFFFFFFFFFFFFFFFFFFFFFFFFFFFFFFFFFFF AND SWAP1 POP DUP6 JUMP JUMPDEST PUSH1 0x0 CALLER SWAP1 POP PUSH2 0x162 SLOAD TIMESTAMP LT ISZERO PUSH2 0x3513 JUMPI PUSH1 0x40 MLOAD PUSH32 0x8C379A000000000000000000000000000000000000000000000000000000000 DUP2 MSTORE PUSH1 0x4 ADD PUSH2 0x350A SWAP1 PUSH2 0x8113 JUMP JUMPDEST PUSH1 0x40 MLOAD DUP1 SWAP2 SUB SWAP1 REVERT JUMPDEST PUSH2 0x164 SLOAD TIMESTAMP GT ISZERO PUSH2 0x3559 JUMPI PUSH1 0x40 MLOAD PUSH32 0x8C379A000000000000000000000000000000000000000000000000000000000 DUP2 MSTORE PUSH1 0x4 ADD PUSH2 0x3550 SWAP1 PUSH2 0x7469 JUMP JUMPDEST PUSH1 0x40 MLOAD DUP1 SWAP2 SUB SWAP1 REVERT JUMPDEST PUSH1 0x0 PUSH2 0x172 PUSH1 0x0 DUP5 PUSH20 0xFFFFFFFFFFFFFFFFFFFFFFFFFFFFFFFFFFFFFFFF AND PUSH20 0xFFFFFFFFFFFFFFFFFFFFFFFFFFFFFFFFFFFFFFFF AND DUP2 MSTORE PUSH1 0x20 ADD SWAP1 DUP2 MSTORE PUSH1 0x20 ADD PUSH1 0x0 KECCAK256 SLOAD GT PUSH2 0x35DC JUMPI PUSH1 0x40 MLOAD PUSH32 0x8C379A000000000000000000000000000000000000000000000000000000000 DUP2 MSTORE PUSH1 0x4 ADD PUSH2 0x35D3 SWAP1 PUSH2 0x81A5 JUMP JUMPDEST PUSH1 0x40 MLOAD DUP1 SWAP2 SUB SWAP1 REVERT JUMPDEST PUSH1 0x0 PUSH2 0x16B PUSH1 0x0 DUP6 PUSH1 0xFF AND PUSH1 0xFF AND DUP2 MSTORE PUSH1 0x20 ADD SWAP1 DUP2 MSTORE PUSH1 0x20 ADD PUSH1 0x0 KECCAK256 PUSH1 0x40 MLOAD DUP1 PUSH1 0x60 ADD PUSH1 0x40 MSTORE SWAP1 DUP2 PUSH1 0x0 DUP3 ADD PUSH1 0x0 SWAP1 SLOAD SWAP1 PUSH2 0x100 EXP SWAP1 DIV PUSH1 0xFF AND PUSH1 0xFF AND PUSH1 0xFF AND DUP2 MSTORE PUSH1 0x20 ADD PUSH1 0x1 DUP3 ADD SLOAD DUP2 MSTORE PUSH1 0x20 ADD PUSH1 0x2 DUP3 ADD SLOAD DUP2 MSTORE POP POP SWAP1 POP PUSH1 0x0 DUP2 PUSH1 0x20 ADD MLOAD GT PUSH2 0x367D JUMPI PUSH1 0x40 MLOAD PUSH32 0x8C379A000000000000000000000000000000000000000000000000000000000 DUP2 MSTORE PUSH1 0x4 ADD PUSH2 0x3674 SWAP1 PUSH2 0x7541 JUMP JUMPDEST PUSH1 0x40 MLOAD DUP1 SWAP2 SUB SWAP1 REVERT JUMPDEST PUSH1 0x0 PUSH2 0x16C PUSH1 0x0 DUP7 PUSH1 0xFF AND PUSH1 0xFF AND DUP2 MSTORE PUSH1 0x20 ADD SWAP1 DUP2 MSTORE PUSH1 0x20 ADD PUSH1 0x0 KECCAK256 SLOAD SWAP1 POP DUP1 DUP3 PUSH1 0x20 ADD MLOAD GT PUSH2 0x36E2 JUMPI PUSH1 0x40 MLOAD PUSH32 0x8C379A000000000000000000000000000000000000000000000000000000000 DUP2 MSTORE PUSH1 0x4 ADD PUSH2 0x36D9 SWAP1 PUSH2 0x75AD JUMP JUMPDEST PUSH1 0x40 MLOAD DUP1 SWAP2 SUB SWAP1 REVERT JUMPDEST PUSH2 0x161 PUSH1 0x14 SWAP1 SLOAD SWAP1 PUSH2 0x100 EXP SWAP1 DIV PUSH1 0xFF AND PUSH2 0x3714 JUMPI PUSH2 0x3702 PUSH2 0x168 PUSH2 0x4686 JUMP JUMPDEST PUSH2 0x370D PUSH2 0x168 PUSH2 0x469C JUMP JUMPDEST SWAP6 POP PUSH2 0x375D JUMP JUMPDEST PUSH2 0x371D DUP7 PUSH2 0x46AA JUMP JUMPDEST PUSH2 0x375C JUMPI PUSH1 0x40 MLOAD PUSH32 0x8C379A000000000000000000000000000000000000000000000000000000000 DUP2 MSTORE PUSH1 0x4 ADD PUSH2 0x3753 SWAP1 PUSH2 0x7619 JUMP JUMPDEST PUSH1 0x40 MLOAD DUP1 SWAP2 SUB SWAP1 REVERT JUMPDEST JUMPDEST PUSH1 0x0 PUSH2 0x170 PUSH1 0x0 DUP9 DUP2 MSTORE PUSH1 0x20 ADD SWAP1 DUP2 MSTORE PUSH1 0x20 ADD PUSH1 0x0 KECCAK256 PUSH1 0x40 MLOAD DUP1 PUSH1 0xA0 ADD PUSH1 0x40 MSTORE SWAP1 DUP2 PUSH1 0x0 DUP3 ADD PUSH1 0x0 SWAP1 SLOAD SWAP1 PUSH2 0x100 EXP SWAP1 DIV PUSH1 0xFF AND PUSH1 0xFF AND PUSH1 0xFF AND DUP2 MSTORE PUSH1 0x20 ADD PUSH1 0x1 DUP3 ADD SLOAD DUP2 MSTORE PUSH1 0x20 ADD PUSH1 0x2 DUP3 ADD SLOAD DUP2 MSTORE PUSH1 0x20 ADD PUSH1 0x3 DUP3 ADD PUSH1 0x0 SWAP1 SLOAD SWAP1 PUSH2 0x100 EXP SWAP1 DIV PUSH1 0xFF AND ISZERO ISZERO ISZERO ISZERO DUP2 MSTORE PUSH1 0x20 ADD PUSH1 0x3 DUP3 ADD PUSH1 0x1 SWAP1 SLOAD SWAP1 PUSH2 0x100 EXP SWAP1 DIV PUSH20 0xFFFFFFFFFFFFFFFFFFFFFFFFFFFFFFFFFFFFFFFF AND PUSH20 0xFFFFFFFFFFFFFFFFFFFFFFFFFFFFFFFFFFFFFFFF AND PUSH20 0xFFFFFFFFFFFFFFFFFFFFFFFFFFFFFFFFFFFFFFFF AND DUP2 MSTORE POP POP SWAP1 POP PUSH1 0x0 DUP2 PUSH1 0x40 ADD MLOAD EQ PUSH2 0x3869 JUMPI PUSH1 0x40 MLOAD PUSH32 0x8C379A000000000000000000000000000000000000000000000000000000000 DUP2 MSTORE PUSH1 0x4 ADD PUSH2 0x3860 SWAP1 PUSH2 0x7685 JUMP JUMPDEST PUSH1 0x40 MLOAD DUP1 SWAP2 SUB SWAP1 REVERT JUMPDEST PUSH1 0x0 PUSH2 0x3878 DUP5 PUSH1 0x40 ADD MLOAD PUSH2 0x46D5 JUMP JUMPDEST SWAP1 POP PUSH2 0x165 PUSH1 0x1 SWAP1 SLOAD SWAP1 PUSH2 0x100 EXP SWAP1 DIV PUSH20 0xFFFFFFFFFFFFFFFFFFFFFFFFFFFFFFFFFFFFFFFF AND PUSH20 0xFFFFFFFFFFFFFFFFFFFFFFFFFFFFFFFFFFFFFFFF AND PUSH4 0x70A08231 DUP7 PUSH1 0x40 MLOAD DUP3 PUSH4 0xFFFFFFFF AND PUSH1 0xE0 SHL DUP2 MSTORE PUSH1 0x4 ADD PUSH2 0x38D6 SWAP2 SWAP1 PUSH2 0x6710 JUMP JUMPDEST PUSH1 0x20 PUSH1 0x40 MLOAD DUP1 DUP4 SUB DUP2 DUP7 GAS STATICCALL ISZERO DUP1 ISZERO PUSH2 0x38F3 JUMPI RETURNDATASIZE PUSH1 0x0 DUP1 RETURNDATACOPY RETURNDATASIZE PUSH1 0x0 REVERT JUMPDEST POP POP POP POP PUSH1 0x40 MLOAD RETURNDATASIZE PUSH1 0x1F NOT PUSH1 0x1F DUP3 ADD AND DUP3 ADD DUP1 PUSH1 0x40 MSTORE POP DUP2 ADD SWAP1 PUSH2 0x3917 SWAP2 SWAP1 PUSH2 0x714F JUMP JUMPDEST DUP5 PUSH1 0x40 ADD MLOAD GT ISZERO PUSH2 0x395D JUMPI PUSH1 0x40 MLOAD PUSH32 0x8C379A000000000000000000000000000000000000000000000000000000000 DUP2 MSTORE PUSH1 0x4 ADD PUSH2 0x3954 SWAP1 PUSH2 0x7717 JUMP JUMPDEST PUSH1 0x40 MLOAD DUP1 SWAP2 SUB SWAP1 REVERT JUMPDEST PUSH2 0x165 PUSH1 0x1 SWAP1 SLOAD SWAP1 PUSH2 0x100 EXP SWAP1 DIV PUSH20 0xFFFFFFFFFFFFFFFFFFFFFFFFFFFFFFFFFFFFFFFF AND PUSH20 0xFFFFFFFFFFFFFFFFFFFFFFFFFFFFFFFFFFFFFFFF AND PUSH4 0x23B872DD DUP7 PUSH2 0x15F PUSH1 0x0 SWAP1 SLOAD SWAP1 PUSH2 0x100 EXP SWAP1 DIV PUSH20 0xFFFFFFFFFFFFFFFFFFFFFFFFFFFFFFFFFFFFFFFF AND DUP5 PUSH1 0x40 MLOAD DUP5 PUSH4 0xFFFFFFFF AND PUSH1 0xE0 SHL DUP2 MSTORE PUSH1 0x4 ADD PUSH2 0x39E0 SWAP4 SWAP3 SWAP2 SWAP1 PUSH2 0x7737 JUMP JUMPDEST PUSH1 0x20 PUSH1 0x40 MLOAD DUP1 DUP4 SUB DUP2 PUSH1 0x0 DUP8 GAS CALL ISZERO DUP1 ISZERO PUSH2 0x39FF JUMPI RETURNDATASIZE PUSH1 0x0 DUP1 RETURNDATACOPY RETURNDATASIZE PUSH1 0x0 REVERT JUMPDEST POP POP POP POP PUSH1 0x40 MLOAD RETURNDATASIZE PUSH1 0x1F NOT PUSH1 0x1F DUP3 ADD AND DUP3 ADD DUP1 PUSH1 0x40 MSTORE POP DUP2 ADD SWAP1 PUSH2 0x3A23 SWAP2 SWAP1 PUSH2 0x71BA JUMP JUMPDEST POP PUSH1 0x0 DUP2 DUP6 PUSH1 0x40 ADD MLOAD PUSH2 0x3A36 SWAP2 SWAP1 PUSH2 0x776E JUMP JUMPDEST SWAP1 POP PUSH2 0x165 PUSH1 0x1 SWAP1 SLOAD SWAP1 PUSH2 0x100 EXP SWAP1 DIV PUSH20 0xFFFFFFFFFFFFFFFFFFFFFFFFFFFFFFFFFFFFFFFF AND PUSH20 0xFFFFFFFFFFFFFFFFFFFFFFFFFFFFFFFFFFFFFFFF AND PUSH4 0x23B872DD DUP8 PUSH2 0x161 PUSH1 0x0 SWAP1 SLOAD SWAP1 PUSH2 0x100 EXP SWAP1 DIV PUSH20 0xFFFFFFFFFFFFFFFFFFFFFFFFFFFFFFFFFFFFFFFF AND DUP5 PUSH1 0x40 MLOAD DUP5 PUSH4 0xFFFFFFFF AND PUSH1 0xE0 SHL DUP2 MSTORE PUSH1 0x4 ADD PUSH2 0x3ABB SWAP4 SWAP3 SWAP2 SWAP1 PUSH2 0x7737 JUMP JUMPDEST PUSH1 0x20 PUSH1 0x40 MLOAD DUP1 DUP4 SUB DUP2 PUSH1 0x0 DUP8 GAS CALL ISZERO DUP1 ISZERO PUSH2 0x3ADA JUMPI RETURNDATASIZE PUSH1 0x0 DUP1 RETURNDATACOPY RETURNDATASIZE PUSH1 0x0 REVERT JUMPDEST POP POP POP POP PUSH1 0x40 MLOAD RETURNDATASIZE PUSH1 0x1F NOT PUSH1 0x1F DUP3 ADD AND DUP3 ADD DUP1 PUSH1 0x40 MSTORE POP DUP2 ADD SWAP1 PUSH2 0x3AFE SWAP2 SWAP1 PUSH2 0x71BA JUMP JUMPDEST POP PUSH2 0x3B1B DUP8 DUP11 PUSH1 0x1 PUSH1 0x40 MLOAD DUP1 PUSH1 0x20 ADD PUSH1 0x40 MSTORE DUP1 PUSH1 0x0 DUP2 MSTORE POP PUSH2 0x479C JUMP JUMPDEST PUSH2 0x16D PUSH1 0x0 DUP9 PUSH20 0xFFFFFFFFFFFFFFFFFFFFFFFFFFFFFFFFFFFFFFFF AND PUSH20 0xFFFFFFFFFFFFFFFFFFFFFFFFFFFFFFFFFFFFFFFF AND DUP2 MSTORE PUSH1 0x20 ADD SWAP1 DUP2 MSTORE PUSH1 0x20 ADD PUSH1 0x0 KECCAK256 DUP10 SWAP1 DUP1 PUSH1 0x1 DUP2 SLOAD ADD DUP1 DUP3 SSTORE DUP1 SWAP2 POP POP PUSH1 0x1 SWAP1 SUB SWAP1 PUSH1 0x0 MSTORE PUSH1 0x20 PUSH1 0x0 KECCAK256 ADD PUSH1 0x0 SWAP1 SWAP2 SWAP1 SWAP2 SWAP1 SWAP2 POP SSTORE PUSH1 0x1 PUSH2 0x173 PUSH1 0x0 DUP3 DUP3 SLOAD PUSH2 0x3B96 SWAP2 SWAP1 PUSH2 0x77A2 JUMP JUMPDEST SWAP3 POP POP DUP2 SWAP1 SSTORE POP PUSH1 0x1 PUSH2 0x172 PUSH1 0x0 DUP10 PUSH20 0xFFFFFFFFFFFFFFFFFFFFFFFFFFFFFFFFFFFFFFFF AND PUSH20 0xFFFFFFFFFFFFFFFFFFFFFFFFFFFFFFFFFFFFFFFF AND DUP2 MSTORE PUSH1 0x20 ADD SWAP1 DUP2 MSTORE PUSH1 0x20 ADD PUSH1 0x0 KECCAK256 PUSH1 0x0 DUP3 DUP3 SLOAD PUSH2 0x3BEE SWAP2 SWAP1 PUSH2 0x776E JUMP JUMPDEST SWAP3 POP POP DUP2 SWAP1 SSTORE POP PUSH1 0x1 DUP5 PUSH2 0x3C02 SWAP2 SWAP1 PUSH2 0x77A2 JUMP JUMPDEST PUSH2 0x16C PUSH1 0x0 DUP11 PUSH1 0xFF AND PUSH1 0xFF AND DUP2 MSTORE PUSH1 0x20 ADD SWAP1 DUP2 MSTORE PUSH1 0x20 ADD PUSH1 0x0 KECCAK256 DUP2 SWAP1 SSTORE POP DUP8 PUSH2 0x16F PUSH1 0x0 DUP12 DUP2 MSTORE PUSH1 0x20 ADD SWAP1 DUP2 MSTORE PUSH1 0x20 ADD PUSH1 0x0 KECCAK256 PUSH1 0x0 PUSH2 0x100 EXP DUP2 SLOAD DUP2 PUSH1 0xFF MUL NOT AND SWAP1 DUP4 PUSH1 0xFF AND MUL OR SWAP1 SSTORE POP PUSH1 0x0 PUSH2 0x3C58 DUP11 PUSH2 0xBFE JUMP JUMPDEST SWAP1 POP DUP10 DUP5 PUSH1 0x20 ADD DUP2 DUP2 MSTORE POP POP DUP9 DUP5 PUSH1 0x0 ADD SWAP1 PUSH1 0xFF AND SWAP1 DUP2 PUSH1 0xFF AND DUP2 MSTORE POP POP PUSH1 0x1 DUP5 PUSH1 0x40 ADD DUP2 DUP2 MSTORE POP POP PUSH1 0x0 DUP10 PUSH1 0xFF AND GT DUP5 PUSH1 0x60 ADD SWAP1 ISZERO ISZERO SWAP1 DUP2 ISZERO ISZERO DUP2 MSTORE POP POP DUP8 DUP5 PUSH1 0x80 ADD SWAP1 PUSH20 0xFFFFFFFFFFFFFFFFFFFFFFFFFFFFFFFFFFFFFFFF AND SWAP1 DUP2 PUSH20 0xFFFFFFFFFFFFFFFFFFFFFFFFFFFFFFFFFFFFFFFF AND DUP2 MSTORE POP POP DUP4 PUSH2 0x170 PUSH1 0x0 DUP13 DUP2 MSTORE PUSH1 0x20 ADD SWAP1 DUP2 MSTORE PUSH1 0x20 ADD PUSH1 0x0 KECCAK256 PUSH1 0x0 DUP3 ADD MLOAD DUP2 PUSH1 0x0 ADD PUSH1 0x0 PUSH2 0x100 EXP DUP2 SLOAD DUP2 PUSH1 0xFF MUL NOT AND SWAP1 DUP4 PUSH1 0xFF AND MUL OR SWAP1 SSTORE POP PUSH1 0x20 DUP3 ADD MLOAD DUP2 PUSH1 0x1 ADD SSTORE PUSH1 0x40 DUP3 ADD MLOAD DUP2 PUSH1 0x2 ADD SSTORE PUSH1 0x60 DUP3 ADD MLOAD DUP2 PUSH1 0x3 ADD PUSH1 0x0 PUSH2 0x100 EXP DUP2 SLOAD DUP2 PUSH1 0xFF MUL NOT AND SWAP1 DUP4 ISZERO ISZERO MUL OR SWAP1 SSTORE POP PUSH1 0x80 DUP3 ADD MLOAD DUP2 PUSH1 0x3 ADD PUSH1 0x1 PUSH2 0x100 EXP DUP2 SLOAD DUP2 PUSH20 0xFFFFFFFFFFFFFFFFFFFFFFFFFFFFFFFFFFFFFFFF MUL NOT AND SWAP1 DUP4 PUSH20 0xFFFFFFFFFFFFFFFFFFFFFFFFFFFFFFFFFFFFFFFF AND MUL OR SWAP1 SSTORE POP SWAP1 POP POP PUSH32 0x2D4E120EA0E6AACF78E29B1AB8708EDDFF1B877753354538447EF8063A54EF45 DUP9 DUP12 DUP12 DUP5 DUP7 DUP9 PUSH1 0x40 MLOAD PUSH2 0x3DBC SWAP7 SWAP6 SWAP5 SWAP4 SWAP3 SWAP2 SWAP1 PUSH2 0x77D6 JUMP JUMPDEST PUSH1 0x40 MLOAD DUP1 SWAP2 SUB SWAP1 LOG1 POP POP POP POP POP POP POP POP POP POP JUMP JUMPDEST PUSH1 0x0 PUSH32 0x7965DB0B00000000000000000000000000000000000000000000000000000000 PUSH28 0xFFFFFFFFFFFFFFFFFFFFFFFFFFFFFFFFFFFFFFFFFFFFFFFFFFFFFFFF NOT AND DUP3 PUSH28 0xFFFFFFFFFFFFFFFFFFFFFFFFFFFFFFFFFFFFFFFFFFFFFFFFFFFFFFFF NOT AND EQ DUP1 PUSH2 0x3E43 JUMPI POP PUSH2 0x3E42 DUP3 PUSH2 0x4E85 JUMP JUMPDEST JUMPDEST SWAP1 POP SWAP2 SWAP1 POP JUMP JUMPDEST PUSH1 0x0 CALLER SWAP1 POP SWAP1 JUMP JUMPDEST DUP2 MLOAD DUP4 MLOAD EQ PUSH2 0x3E96 JUMPI PUSH1 0x40 MLOAD PUSH32 0x8C379A000000000000000000000000000000000000000000000000000000000 DUP2 MSTORE PUSH1 0x4 ADD PUSH2 0x3E8D SWAP1 PUSH2 0x8237 JUMP JUMPDEST PUSH1 0x40 MLOAD DUP1 SWAP2 SUB SWAP1 REVERT JUMPDEST PUSH1 0x0 PUSH20 0xFFFFFFFFFFFFFFFFFFFFFFFFFFFFFFFFFFFFFFFF AND DUP5 PUSH20 0xFFFFFFFFFFFFFFFFFFFFFFFFFFFFFFFFFFFFFFFF AND SUB PUSH2 0x3F05 JUMPI PUSH1 0x40 MLOAD PUSH32 0x8C379A000000000000000000000000000000000000000000000000000000000 DUP2 MSTORE PUSH1 0x4 ADD PUSH2 0x3EFC SWAP1 PUSH2 0x82C9 JUMP JUMPDEST PUSH1 0x40 MLOAD DUP1 SWAP2 SUB SWAP1 REVERT JUMPDEST PUSH1 0x0 PUSH2 0x3F0F PUSH2 0x3E4A JUMP JUMPDEST SWAP1 POP PUSH2 0x3F1F DUP2 DUP8 DUP8 DUP8 DUP8 DUP8 PUSH2 0x4F67 JUMP JUMPDEST PUSH1 0x0 JUMPDEST DUP5 MLOAD DUP2 LT ISZERO PUSH2 0x40D3 JUMPI PUSH1 0x0 DUP6 DUP3 DUP2 MLOAD DUP2 LT PUSH2 0x3F40 JUMPI PUSH2 0x3F3F PUSH2 0x7279 JUMP JUMPDEST JUMPDEST PUSH1 0x20 MUL PUSH1 0x20 ADD ADD MLOAD SWAP1 POP PUSH1 0x0 DUP6 DUP4 DUP2 MLOAD DUP2 LT PUSH2 0x3F5F JUMPI PUSH2 0x3F5E PUSH2 0x7279 JUMP JUMPDEST JUMPDEST PUSH1 0x20 MUL PUSH1 0x20 ADD ADD MLOAD SWAP1 POP PUSH1 0x0 PUSH1 0x65 PUSH1 0x0 DUP5 DUP2 MSTORE PUSH1 0x20 ADD SWAP1 DUP2 MSTORE PUSH1 0x20 ADD PUSH1 0x0 KECCAK256 PUSH1 0x0 DUP12 PUSH20 0xFFFFFFFFFFFFFFFFFFFFFFFFFFFFFFFFFFFFFFFF AND PUSH20 0xFFFFFFFFFFFFFFFFFFFFFFFFFFFFFFFFFFFFFFFF AND DUP2 MSTORE PUSH1 0x20 ADD SWAP1 DUP2 MSTORE PUSH1 0x20 ADD PUSH1 0x0 KECCAK256 SLOAD SWAP1 POP DUP2 DUP2 LT ISZERO PUSH2 0x4001 JUMPI PUSH1 0x40 MLOAD PUSH32 0x8C379A000000000000000000000000000000000000000000000000000000000 DUP2 MSTORE PUSH1 0x4 ADD PUSH2 0x3FF8 SWAP1 PUSH2 0x835B JUMP JUMPDEST PUSH1 0x40 MLOAD DUP1 SWAP2 SUB SWAP1 REVERT JUMPDEST DUP2 DUP2 SUB PUSH1 0x65 PUSH1 0x0 DUP6 DUP2 MSTORE PUSH1 0x20 ADD SWAP1 DUP2 MSTORE PUSH1 0x20 ADD PUSH1 0x0 KECCAK256 PUSH1 0x0 DUP13 PUSH20 0xFFFFFFFFFFFFFFFFFFFFFFFFFFFFFFFFFFFFFFFF AND PUSH20 0xFFFFFFFFFFFFFFFFFFFFFFFFFFFFFFFFFFFFFFFF AND DUP2 MSTORE PUSH1 0x20 ADD SWAP1 DUP2 MSTORE PUSH1 0x20 ADD PUSH1 0x0 KECCAK256 DUP2 SWAP1 SSTORE POP DUP2 PUSH1 0x65 PUSH1 0x0 DUP6 DUP2 MSTORE PUSH1 0x20 ADD SWAP1 DUP2 MSTORE PUSH1 0x20 ADD PUSH1 0x0 KECCAK256 PUSH1 0x0 DUP12 PUSH20 0xFFFFFFFFFFFFFFFFFFFFFFFFFFFFFFFFFFFFFFFF AND PUSH20 0xFFFFFFFFFFFFFFFFFFFFFFFFFFFFFFFFFFFFFFFF AND DUP2 MSTORE PUSH1 0x20 ADD SWAP1 DUP2 MSTORE PUSH1 0x20 ADD PUSH1 0x0 KECCAK256 PUSH1 0x0 DUP3 DUP3 SLOAD PUSH2 0x40B8 SWAP2 SWAP1 PUSH2 0x77A2 JUMP JUMPDEST SWAP3 POP POP DUP2 SWAP1 SSTORE POP POP POP POP DUP1 PUSH2 0x40CC SWAP1 PUSH2 0x72D7 JUMP JUMPDEST SWAP1 POP PUSH2 0x3F22 JUMP JUMPDEST POP DUP5 PUSH20 0xFFFFFFFFFFFFFFFFFFFFFFFFFFFFFFFFFFFFFFFF AND DUP7 PUSH20 0xFFFFFFFFFFFFFFFFFFFFFFFFFFFFFFFFFFFFFFFF AND DUP3 PUSH20 0xFFFFFFFFFFFFFFFFFFFFFFFFFFFFFFFFFFFFFFFF AND PUSH32 0x4A39DC06D4C0DBC64B70AF90FD698A233A518AA5D07E595D983B8C0526C8F7FB DUP8 DUP8 PUSH1 0x40 MLOAD PUSH2 0x414A SWAP3 SWAP2 SWAP1 PUSH2 0x837B JUMP JUMPDEST PUSH1 0x40 MLOAD DUP1 SWAP2 SUB SWAP1 LOG4 PUSH2 0x4160 DUP2 DUP8 DUP8 DUP8 DUP8 DUP8 PUSH2 0x4F6F JUMP JUMPDEST PUSH2 0x416E DUP2 DUP8 DUP8 DUP8 DUP8 DUP8 PUSH2 0x4F77 JUMP JUMPDEST POP POP POP POP POP POP JUMP JUMPDEST PUSH2 0x4187 DUP2 PUSH2 0x4182 PUSH2 0x3E4A JUMP JUMPDEST PUSH2 0x514E JUMP JUMPDEST POP JUMP JUMPDEST PUSH2 0x4194 DUP3 DUP3 PUSH2 0x2286 JUMP JUMPDEST PUSH2 0x4267 JUMPI PUSH1 0x1 PUSH1 0x97 PUSH1 0x0 DUP5 DUP2 MSTORE PUSH1 0x20 ADD SWAP1 DUP2 MSTORE PUSH1 0x20 ADD PUSH1 0x0 KECCAK256 PUSH1 0x0 ADD PUSH1 0x0 DUP4 PUSH20 0xFFFFFFFFFFFFFFFFFFFFFFFFFFFFFFFFFFFFFFFF AND PUSH20 0xFFFFFFFFFFFFFFFFFFFFFFFFFFFFFFFFFFFFFFFF AND DUP2 MSTORE PUSH1 0x20 ADD SWAP1 DUP2 MSTORE PUSH1 0x20 ADD PUSH1 0x0 KECCAK256 PUSH1 0x0 PUSH2 0x100 EXP DUP2 SLOAD DUP2 PUSH1 0xFF MUL NOT AND SWAP1 DUP4 ISZERO ISZERO MUL OR SWAP1 SSTORE POP PUSH2 0x420C PUSH2 0x3E4A JUMP JUMPDEST PUSH20 0xFFFFFFFFFFFFFFFFFFFFFFFFFFFFFFFFFFFFFFFF AND DUP2 PUSH20 0xFFFFFFFFFFFFFFFFFFFFFFFFFFFFFFFFFFFFFFFF AND DUP4 PUSH32 0x2F8788117E7EFF1D82E926EC794901D17C78024A50270940304540A733656F0D PUSH1 0x40 MLOAD PUSH1 0x40 MLOAD DUP1 SWAP2 SUB SWAP1 LOG4 JUMPDEST POP POP JUMP JUMPDEST PUSH2 0x4275 DUP3 DUP3 PUSH2 0x2286 JUMP JUMPDEST ISZERO PUSH2 0x4349 JUMPI PUSH1 0x0 PUSH1 0x97 PUSH1 0x0 DUP5 DUP2 MSTORE PUSH1 0x20 ADD SWAP1 DUP2 MSTORE PUSH1 0x20 ADD PUSH1 0x0 KECCAK256 PUSH1 0x0 ADD PUSH1 0x0 DUP4 PUSH20 0xFFFFFFFFFFFFFFFFFFFFFFFFFFFFFFFFFFFFFFFF AND PUSH20 0xFFFFFFFFFFFFFFFFFFFFFFFFFFFFFFFFFFFFFFFF AND DUP2 MSTORE PUSH1 0x20 ADD SWAP1 DUP2 MSTORE PUSH1 0x20 ADD PUSH1 0x0 KECCAK256 PUSH1 0x0 PUSH2 0x100 EXP DUP2 SLOAD DUP2 PUSH1 0xFF MUL NOT AND SWAP1 DUP4 ISZERO ISZERO MUL OR SWAP1 SSTORE POP PUSH2 0x42EE PUSH2 0x3E4A JUMP JUMPDEST PUSH20 0xFFFFFFFFFFFFFFFFFFFFFFFFFFFFFFFFFFFFFFFF AND DUP2 PUSH20 0xFFFFFFFFFFFFFFFFFFFFFFFFFFFFFFFFFFFFFFFF AND DUP4 PUSH32 0xF6391F5C32D9C69D2A47EA670B442974B53935D1EDC7FD64EB21E047A839171B PUSH1 0x40 MLOAD PUSH1 0x40 MLOAD DUP1 SWAP2 SUB SWAP1 LOG4 JUMPDEST POP POP JUMP JUMPDEST PUSH1 0x0 PUSH2 0x437B PUSH32 0x360894A13BA1A3210667C828492DB98DCA3E2076CC3735A920A3CA505D382BBC PUSH1 0x0 SHL PUSH2 0x51D3 JUMP JUMPDEST PUSH1 0x0 ADD PUSH1 0x0 SWAP1 SLOAD SWAP1 PUSH2 0x100 EXP SWAP1 DIV PUSH20 0xFFFFFFFFFFFFFFFFFFFFFFFFFFFFFFFFFFFFFFFF AND SWAP1 POP SWAP1 JUMP JUMPDEST PUSH32 0xA49807205CE4D355092EF5A8A18F56E8913CF4A201FBE287825B095693C21775 PUSH2 0x43CE DUP2 PUSH2 0x4176 JUMP JUMPDEST POP POP JUMP JUMPDEST PUSH2 0x43FE PUSH32 0x4910FDFA16FED3260ED0E7147F7CC6DA11A60208B5B9406D12A635614FFD9143 PUSH1 0x0 SHL PUSH2 0x51DD JUMP JUMPDEST PUSH1 0x0 ADD PUSH1 0x0 SWAP1 SLOAD SWAP1 PUSH2 0x100 EXP SWAP1 DIV PUSH1 0xFF AND ISZERO PUSH2 0x4422 JUMPI PUSH2 0x441D DUP4 PUSH2 0x51E7 JUMP JUMPDEST PUSH2 0x453B JUMP JUMPDEST DUP3 PUSH20 0xFFFFFFFFFFFFFFFFFFFFFFFFFFFFFFFFFFFFFFFF AND PUSH4 0x52D1902D PUSH1 0x40 MLOAD DUP2 PUSH4 0xFFFFFFFF AND PUSH1 0xE0 SHL DUP2 MSTORE PUSH1 0x4 ADD PUSH1 0x20 PUSH1 0x40 MLOAD DUP1 DUP4 SUB DUP2 DUP7 GAS STATICCALL SWAP3 POP POP POP DUP1 ISZERO PUSH2 0x448A JUMPI POP PUSH1 0x40 MLOAD RETURNDATASIZE PUSH1 0x1F NOT PUSH1 0x1F DUP3 ADD AND DUP3 ADD DUP1 PUSH1 0x40 MSTORE POP DUP2 ADD SWAP1 PUSH2 0x4487 SWAP2 SWAP1 PUSH2 0x83C7 JUMP JUMPDEST PUSH1 0x1 JUMPDEST PUSH2 0x44C9 JUMPI PUSH1 0x40 MLOAD PUSH32 0x8C379A000000000000000000000000000000000000000000000000000000000 DUP2 MSTORE PUSH1 0x4 ADD PUSH2 0x44C0 SWAP1 PUSH2 0x8466 JUMP JUMPDEST PUSH1 0x40 MLOAD DUP1 SWAP2 SUB SWAP1 REVERT JUMPDEST PUSH32 0x360894A13BA1A3210667C828492DB98DCA3E2076CC3735A920A3CA505D382BBC PUSH1 0x0 SHL DUP2 EQ PUSH2 0x452E JUMPI PUSH1 0x40 MLOAD PUSH32 0x8C379A000000000000000000000000000000000000000000000000000000000 DUP2 MSTORE PUSH1 0x4 ADD PUSH2 0x4525 SWAP1 PUSH2 0x84F8 JUMP JUMPDEST PUSH1 0x40 MLOAD DUP1 SWAP2 SUB SWAP1 REVERT JUMPDEST POP PUSH2 0x453A DUP4 DUP4 DUP4 PUSH2 0x52A0 JUMP JUMPDEST JUMPDEST POP POP POP JUMP JUMPDEST PUSH2 0x4548 PUSH2 0x3E4A JUMP JUMPDEST PUSH20 0xFFFFFFFFFFFFFFFFFFFFFFFFFFFFFFFFFFFFFFFF AND PUSH2 0x4566 PUSH2 0x21B7 JUMP JUMPDEST PUSH20 0xFFFFFFFFFFFFFFFFFFFFFFFFFFFFFFFFFFFFFFFF AND EQ PUSH2 0x45BC JUMPI PUSH1 0x40 MLOAD PUSH32 0x8C379A000000000000000000000000000000000000000000000000000000000 DUP2 MSTORE PUSH1 0x4 ADD PUSH2 0x45B3 SWAP1 PUSH2 0x8564 JUMP JUMPDEST PUSH1 0x40 MLOAD DUP1 SWAP2 SUB SWAP1 REVERT JUMPDEST JUMP JUMPDEST PUSH1 0x0 PUSH2 0x12D PUSH1 0x0 SWAP1 SLOAD SWAP1 PUSH2 0x100 EXP SWAP1 DIV PUSH20 0xFFFFFFFFFFFFFFFFFFFFFFFFFFFFFFFFFFFFFFFF AND SWAP1 POP DUP2 PUSH2 0x12D PUSH1 0x0 PUSH2 0x100 EXP DUP2 SLOAD DUP2 PUSH20 0xFFFFFFFFFFFFFFFFFFFFFFFFFFFFFFFFFFFFFFFF MUL NOT AND SWAP1 DUP4 PUSH20 0xFFFFFFFFFFFFFFFFFFFFFFFFFFFFFFFFFFFFFFFF AND MUL OR SWAP1 SSTORE POP DUP2 PUSH20 0xFFFFFFFFFFFFFFFFFFFFFFFFFFFFFFFFFFFFFFFF AND DUP2 PUSH20 0xFFFFFFFFFFFFFFFFFFFFFFFFFFFFFFFFFFFFFFFF AND PUSH32 0x8BE0079C531659141344CD1FD0A4F28419497F9722A3DAAFE3B4186F6B6457E0 PUSH1 0x40 MLOAD PUSH1 0x40 MLOAD DUP1 SWAP2 SUB SWAP1 LOG3 POP POP JUMP JUMPDEST PUSH1 0x1 DUP2 PUSH1 0x0 ADD PUSH1 0x0 DUP3 DUP3 SLOAD ADD SWAP3 POP POP DUP2 SWAP1 SSTORE POP POP JUMP JUMPDEST PUSH1 0x0 DUP2 PUSH1 0x0 ADD SLOAD SWAP1 POP SWAP2 SWAP1 POP JUMP JUMPDEST PUSH1 0x0 PUSH2 0x16A PUSH1 0x0 DUP4 DUP2 MSTORE PUSH1 0x20 ADD SWAP1 DUP2 MSTORE PUSH1 0x20 ADD PUSH1 0x0 KECCAK256 PUSH1 0x0 SWAP1 SLOAD SWAP1 PUSH2 0x100 EXP SWAP1 DIV PUSH1 0xFF AND SWAP1 POP SWAP2 SWAP1 POP JUMP JUMPDEST PUSH1 0x0 DUP1 PUSH2 0x15F PUSH1 0x0 SWAP1 SLOAD SWAP1 PUSH2 0x100 EXP SWAP1 DIV PUSH20 0xFFFFFFFFFFFFFFFFFFFFFFFFFFFFFFFFFFFFFFFF AND PUSH20 0xFFFFFFFFFFFFFFFFFFFFFFFFFFFFFFFFFFFFFFFF AND PUSH4 0xA8BCB8D8 ADDRESS PUSH1 0x40 MLOAD DUP3 PUSH4 0xFFFFFFFF AND PUSH1 0xE0 SHL DUP2 MSTORE PUSH1 0x4 ADD PUSH2 0x4734 SWAP2 SWAP1 PUSH2 0x6710 JUMP JUMPDEST PUSH1 0x20 PUSH1 0x40 MLOAD DUP1 DUP4 SUB DUP2 DUP7 GAS STATICCALL ISZERO DUP1 ISZERO PUSH2 0x4751 JUMPI RETURNDATASIZE PUSH1 0x0 DUP1 RETURNDATACOPY RETURNDATASIZE PUSH1 0x0 REVERT JUMPDEST POP POP POP POP PUSH1 0x40 MLOAD RETURNDATASIZE PUSH1 0x1F NOT PUSH1 0x1F DUP3 ADD AND DUP3 ADD DUP1 PUSH1 0x40 MSTORE POP DUP2 ADD SWAP1 PUSH2 0x4775 SWAP2 SWAP1 PUSH2 0x85BE JUMP JUMPDEST PUSH2 0xFFFF AND SWAP1 POP DUP1 PUSH2 0x2710 DUP5 PUSH2 0x478A SWAP2 SWAP1 PUSH2 0x861A JUMP JUMPDEST PUSH2 0x4794 SWAP2 SWAP1 PUSH2 0x864B JUMP JUMPDEST SWAP2 POP POP SWAP2 SWAP1 POP JUMP JUMPDEST PUSH1 0x0 PUSH20 0xFFFFFFFFFFFFFFFFFFFFFFFFFFFFFFFFFFFFFFFF AND DUP5 PUSH20 0xFFFFFFFFFFFFFFFFFFFFFFFFFFFFFFFFFFFFFFFF AND SUB PUSH2 0x480B JUMPI PUSH1 0x40 MLOAD PUSH32 0x8C379A000000000000000000000000000000000000000000000000000000000 DUP2 MSTORE PUSH1 0x4 ADD PUSH2 0x4802 SWAP1 PUSH2 0x86FF JUMP JUMPDEST PUSH1 0x40 MLOAD DUP1 SWAP2 SUB SWAP1 REVERT JUMPDEST PUSH1 0x0 PUSH2 0x4815 PUSH2 0x3E4A JUMP JUMPDEST SWAP1 POP PUSH1 0x0 PUSH2 0x4822 DUP6 PUSH2 0x52CC JUMP JUMPDEST SWAP1 POP PUSH1 0x0 PUSH2 0x482F DUP6 PUSH2 0x52CC JUMP JUMPDEST SWAP1 POP PUSH2 0x4840 DUP4 PUSH1 0x0 DUP10 DUP6 DUP6 DUP10 PUSH2 0x4F67 JUMP JUMPDEST DUP5 PUSH1 0x65 PUSH1 0x0 DUP9 DUP2 MSTORE PUSH1 0x20 ADD SWAP1 DUP2 MSTORE PUSH1 0x20 ADD PUSH1 0x0 KECCAK256 PUSH1 0x0 DUP10 PUSH20 0xFFFFFFFFFFFFFFFFFFFFFFFFFFFFFFFFFFFFFFFF AND PUSH20 0xFFFFFFFFFFFFFFFFFFFFFFFFFFFFFFFFFFFFFFFF AND DUP2 MSTORE PUSH1 0x20 ADD SWAP1 DUP2 MSTORE PUSH1 0x20 ADD PUSH1 0x0 KECCAK256 PUSH1 0x0 DUP3 DUP3 SLOAD PUSH2 0x48A0 SWAP2 SWAP1 PUSH2 0x77A2 JUMP JUMPDEST SWAP3 POP POP DUP2 SWAP1 SSTORE POP DUP7 PUSH20 0xFFFFFFFFFFFFFFFFFFFFFFFFFFFFFFFFFFFFFFFF AND PUSH1 0x0 PUSH20 0xFFFFFFFFFFFFFFFFFFFFFFFFFFFFFFFFFFFFFFFF AND DUP5 PUSH20 0xFFFFFFFFFFFFFFFFFFFFFFFFFFFFFFFFFFFFFFFF AND PUSH32 0xC3D58168C5AE7397731D063D5BBF3D657854427343F4C083240F7AACAA2D0F62 DUP10 DUP10 PUSH1 0x40 MLOAD PUSH2 0x491E SWAP3 SWAP2 SWAP1 PUSH2 0x871F JUMP JUMPDEST PUSH1 0x40 MLOAD DUP1 SWAP2 SUB SWAP1 LOG4 PUSH2 0x4935 DUP4 PUSH1 0x0 DUP10 DUP6 DUP6 DUP10 PUSH2 0x4F6F JUMP JUMPDEST PUSH2 0x4944 DUP4 PUSH1 0x0 DUP10 DUP10 DUP10 DUP10 PUSH2 0x5346 JUMP JUMPDEST POP POP POP POP POP POP POP JUMP JUMPDEST DUP2 PUSH20 0xFFFFFFFFFFFFFFFFFFFFFFFFFFFFFFFFFFFFFFFF AND DUP4 PUSH20 0xFFFFFFFFFFFFFFFFFFFFFFFFFFFFFFFFFFFFFFFF AND SUB PUSH2 0x49BB JUMPI PUSH1 0x40 MLOAD PUSH32 0x8C379A000000000000000000000000000000000000000000000000000000000 DUP2 MSTORE PUSH1 0x4 ADD PUSH2 0x49B2 SWAP1 PUSH2 0x87BA JUMP JUMPDEST PUSH1 0x40 MLOAD DUP1 SWAP2 SUB SWAP1 REVERT JUMPDEST DUP1 PUSH1 0x66 PUSH1 0x0 DUP6 PUSH20 0xFFFFFFFFFFFFFFFFFFFFFFFFFFFFFFFFFFFFFFFF AND PUSH20 0xFFFFFFFFFFFFFFFFFFFFFFFFFFFFFFFFFFFFFFFF AND DUP2 MSTORE PUSH1 0x20 ADD SWAP1 DUP2 MSTORE PUSH1 0x20 ADD PUSH1 0x0 KECCAK256 PUSH1 0x0 DUP5 PUSH20 0xFFFFFFFFFFFFFFFFFFFFFFFFFFFFFFFFFFFFFFFF AND PUSH20 0xFFFFFFFFFFFFFFFFFFFFFFFFFFFFFFFFFFFFFFFF AND DUP2 MSTORE PUSH1 0x20 ADD SWAP1 DUP2 MSTORE PUSH1 0x20 ADD PUSH1 0x0 KECCAK256 PUSH1 0x0 PUSH2 0x100 EXP DUP2 SLOAD DUP2 PUSH1 0xFF MUL NOT AND SWAP1 DUP4 ISZERO ISZERO MUL OR SWAP1 SSTORE POP DUP2 PUSH20 0xFFFFFFFFFFFFFFFFFFFFFFFFFFFFFFFFFFFFFFFF AND DUP4 PUSH20 0xFFFFFFFFFFFFFFFFFFFFFFFFFFFFFFFFFFFFFFFF AND PUSH32 0x17307EAB39AB6107E8899845AD3D59BD9653F200F220920489CA2B5937696C31 DUP4 PUSH1 0x40 MLOAD PUSH2 0x4AAC SWAP2 SWAP1 PUSH2 0x5C23 JUMP JUMPDEST PUSH1 0x40 MLOAD DUP1 SWAP2 SUB SWAP1 LOG3 POP POP POP JUMP JUMPDEST PUSH1 0x0 DUP1 DUP3 PUSH20 0xFFFFFFFFFFFFFFFFFFFFFFFFFFFFFFFFFFFFFFFF AND EXTCODESIZE GT SWAP1 POP SWAP2 SWAP1 POP JUMP JUMPDEST PUSH1 0x0 PUSH1 0x1 SWAP1 SLOAD SWAP1 PUSH2 0x100 EXP SWAP1 DIV PUSH1 0xFF AND PUSH2 0x4B2B JUMPI PUSH1 0x40 MLOAD PUSH32 0x8C379A000000000000000000000000000000000000000000000000000000000 DUP2 MSTORE PUSH1 0x4 ADD PUSH2 0x4B22 SWAP1 PUSH2 0x884C JUMP JUMPDEST PUSH1 0x40 MLOAD DUP1 SWAP2 SUB SWAP1 REVERT JUMPDEST PUSH2 0x4B34 DUP2 PUSH2 0x551D JUMP JUMPDEST POP JUMP JUMPDEST PUSH1 0x0 PUSH1 0x1 SWAP1 SLOAD SWAP1 PUSH2 0x100 EXP SWAP1 DIV PUSH1 0xFF AND PUSH2 0x4B86 JUMPI PUSH1 0x40 MLOAD PUSH32 0x8C379A000000000000000000000000000000000000000000000000000000000 DUP2 MSTORE PUSH1 0x4 ADD PUSH2 0x4B7D SWAP1 PUSH2 0x884C JUMP JUMPDEST PUSH1 0x40 MLOAD DUP1 SWAP2 SUB SWAP1 REVERT JUMPDEST JUMP JUMPDEST PUSH1 0x0 PUSH1 0x1 SWAP1 SLOAD SWAP1 PUSH2 0x100 EXP SWAP1 DIV PUSH1 0xFF AND PUSH2 0x4BD7 JUMPI PUSH1 0x40 MLOAD PUSH32 0x8C379A000000000000000000000000000000000000000000000000000000000 DUP2 MSTORE PUSH1 0x4 ADD PUSH2 0x4BCE SWAP1 PUSH2 0x884C JUMP JUMPDEST PUSH1 0x40 MLOAD DUP1 SWAP2 SUB SWAP1 REVERT JUMPDEST JUMP JUMPDEST PUSH2 0x4BE3 DUP3 DUP3 PUSH2 0x418A JUMP JUMPDEST POP POP JUMP JUMPDEST PUSH1 0x0 PUSH20 0xFFFFFFFFFFFFFFFFFFFFFFFFFFFFFFFFFFFFFFFF AND DUP5 PUSH20 0xFFFFFFFFFFFFFFFFFFFFFFFFFFFFFFFFFFFFFFFF AND SUB PUSH2 0x4C56 JUMPI PUSH1 0x40 MLOAD PUSH32 0x8C379A000000000000000000000000000000000000000000000000000000000 DUP2 MSTORE PUSH1 0x4 ADD PUSH2 0x4C4D SWAP1 PUSH2 0x82C9 JUMP JUMPDEST PUSH1 0x40 MLOAD DUP1 SWAP2 SUB SWAP1 REVERT JUMPDEST PUSH1 0x0 PUSH2 0x4C60 PUSH2 0x3E4A JUMP JUMPDEST SWAP1 POP PUSH1 0x0 PUSH2 0x4C6D DUP6 PUSH2 0x52CC JUMP JUMPDEST SWAP1 POP PUSH1 0x0 PUSH2 0x4C7A DUP6 PUSH2 0x52CC JUMP JUMPDEST SWAP1 POP PUSH2 0x4C8A DUP4 DUP10 DUP10 DUP6 DUP6 DUP10 PUSH2 0x4F67 JUMP JUMPDEST PUSH1 0x0 PUSH1 0x65 PUSH1 0x0 DUP9 DUP2 MSTORE PUSH1 0x20 ADD SWAP1 DUP2 MSTORE PUSH1 0x20 ADD PUSH1 0x0 KECCAK256 PUSH1 0x0 DUP11 PUSH20 0xFFFFFFFFFFFFFFFFFFFFFFFFFFFFFFFFFFFFFFFF AND PUSH20 0xFFFFFFFFFFFFFFFFFFFFFFFFFFFFFFFFFFFFFFFF AND DUP2 MSTORE PUSH1 0x20 ADD SWAP1 DUP2 MSTORE PUSH1 0x20 ADD PUSH1 0x0 KECCAK256 SLOAD SWAP1 POP DUP6 DUP2 LT ISZERO PUSH2 0x4D22 JUMPI PUSH1 0x40 MLOAD PUSH32 0x8C379A000000000000000000000000000000000000000000000000000000000 DUP2 MSTORE PUSH1 0x4 ADD PUSH2 0x4D19 SWAP1 PUSH2 0x835B JUMP JUMPDEST PUSH1 0x40 MLOAD DUP1 SWAP2 SUB SWAP1 REVERT JUMPDEST DUP6 DUP2 SUB PUSH1 0x65 PUSH1 0x0 DUP10 DUP2 MSTORE PUSH1 0x20 ADD SWAP1 DUP2 MSTORE PUSH1 0x20 ADD PUSH1 0x0 KECCAK256 PUSH1 0x0 DUP12 PUSH20 0xFFFFFFFFFFFFFFFFFFFFFFFFFFFFFFFFFFFFFFFF AND PUSH20 0xFFFFFFFFFFFFFFFFFFFFFFFFFFFFFFFFFFFFFFFF AND DUP2 MSTORE PUSH1 0x20 ADD SWAP1 DUP2 MSTORE PUSH1 0x20 ADD PUSH1 0x0 KECCAK256 DUP2 SWAP1 SSTORE POP DUP6 PUSH1 0x65 PUSH1 0x0 DUP10 DUP2 MSTORE PUSH1 0x20 ADD SWAP1 DUP2 MSTORE PUSH1 0x20 ADD PUSH1 0x0 KECCAK256 PUSH1 0x0 DUP11 PUSH20 0xFFFFFFFFFFFFFFFFFFFFFFFFFFFFFFFFFFFFFFFF AND PUSH20 0xFFFFFFFFFFFFFFFFFFFFFFFFFFFFFFFFFFFFFFFF AND DUP2 MSTORE PUSH1 0x20 ADD SWAP1 DUP2 MSTORE PUSH1 0x20 ADD PUSH1 0x0 KECCAK256 PUSH1 0x0 DUP3 DUP3 SLOAD PUSH2 0x4DD9 SWAP2 SWAP1 PUSH2 0x77A2 JUMP JUMPDEST SWAP3 POP POP DUP2 SWAP1 SSTORE POP DUP8 PUSH20 0xFFFFFFFFFFFFFFFFFFFFFFFFFFFFFFFFFFFFFFFF AND DUP10 PUSH20 0xFFFFFFFFFFFFFFFFFFFFFFFFFFFFFFFFFFFFFFFF AND DUP6 PUSH20 0xFFFFFFFFFFFFFFFFFFFFFFFFFFFFFFFFFFFFFFFF AND PUSH32 0xC3D58168C5AE7397731D063D5BBF3D657854427343F4C083240F7AACAA2D0F62 DUP11 DUP11 PUSH1 0x40 MLOAD PUSH2 0x4E56 SWAP3 SWAP2 SWAP1 PUSH2 0x871F JUMP JUMPDEST PUSH1 0x40 MLOAD DUP1 SWAP2 SUB SWAP1 LOG4 PUSH2 0x4E6C DUP5 DUP11 DUP11 DUP7 DUP7 DUP11 PUSH2 0x4F6F JUMP JUMPDEST PUSH2 0x4E7A DUP5 DUP11 DUP11 DUP11 DUP11 DUP11 PUSH2 0x5346 JUMP JUMPDEST POP POP POP POP POP POP POP POP POP JUMP JUMPDEST PUSH1 0x0 PUSH32 0xD9B67A2600000000000000000000000000000000000000000000000000000000 PUSH28 0xFFFFFFFFFFFFFFFFFFFFFFFFFFFFFFFFFFFFFFFFFFFFFFFFFFFFFFFF NOT AND DUP3 PUSH28 0xFFFFFFFFFFFFFFFFFFFFFFFFFFFFFFFFFFFFFFFFFFFFFFFFFFFFFFFF NOT AND EQ DUP1 PUSH2 0x4F50 JUMPI POP PUSH32 0xE89341C00000000000000000000000000000000000000000000000000000000 PUSH28 0xFFFFFFFFFFFFFFFFFFFFFFFFFFFFFFFFFFFFFFFFFFFFFFFFFFFFFFFF NOT AND DUP3 PUSH28 0xFFFFFFFFFFFFFFFFFFFFFFFFFFFFFFFFFFFFFFFFFFFFFFFFFFFFFFFF NOT AND EQ JUMPDEST DUP1 PUSH2 0x4F60 JUMPI POP PUSH2 0x4F5F DUP3 PUSH2 0x5578 JUMP JUMPDEST JUMPDEST SWAP1 POP SWAP2 SWAP1 POP JUMP JUMPDEST POP POP POP POP POP POP JUMP JUMPDEST POP POP POP POP POP POP JUMP JUMPDEST PUSH2 0x4F96 DUP5 PUSH20 0xFFFFFFFFFFFFFFFFFFFFFFFFFFFFFFFFFFFFFFFF AND PUSH2 0x4AB9 JUMP JUMPDEST ISZERO PUSH2 0x5146 JUMPI DUP4 PUSH20 0xFFFFFFFFFFFFFFFFFFFFFFFFFFFFFFFFFFFFFFFF AND PUSH4 0xBC197C81 DUP8 DUP8 DUP7 DUP7 DUP7 PUSH1 0x40 MLOAD DUP7 PUSH4 0xFFFFFFFF AND PUSH1 0xE0 SHL DUP2 MSTORE PUSH1 0x4 ADD PUSH2 0x4FDC SWAP6 SWAP5 SWAP4 SWAP3 SWAP2 SWAP1 PUSH2 0x88C1 JUMP JUMPDEST PUSH1 0x20 PUSH1 0x40 MLOAD DUP1 DUP4 SUB DUP2 PUSH1 0x0 DUP8 GAS CALL SWAP3 POP POP POP DUP1 ISZERO PUSH2 0x5018 JUMPI POP PUSH1 0x40 MLOAD RETURNDATASIZE PUSH1 0x1F NOT PUSH1 0x1F DUP3 ADD AND DUP3 ADD DUP1 PUSH1 0x40 MSTORE POP DUP2 ADD SWAP1 PUSH2 0x5015 SWAP2 SWAP1 PUSH2 0x893E JUMP JUMPDEST PUSH1 0x1 JUMPDEST PUSH2 0x50BD JUMPI PUSH2 0x5024 PUSH2 0x8978 JUMP JUMPDEST DUP1 PUSH4 0x8C379A0 SUB PUSH2 0x5080 JUMPI POP PUSH2 0x5038 PUSH2 0x899A JUMP JUMPDEST DUP1 PUSH2 0x5043 JUMPI POP PUSH2 0x5082 JUMP JUMPDEST DUP1 PUSH1 0x40 MLOAD PUSH32 0x8C379A000000000000000000000000000000000000000000000000000000000 DUP2 MSTORE PUSH1 0x4 ADD PUSH2 0x5077 SWAP2 SWAP1 PUSH2 0x5CCE JUMP JUMPDEST PUSH1 0x40 MLOAD DUP1 SWAP2 SUB SWAP1 REVERT JUMPDEST POP JUMPDEST PUSH1 0x40 MLOAD PUSH32 0x8C379A000000000000000000000000000000000000000000000000000000000 DUP2 MSTORE PUSH1 0x4 ADD PUSH2 0x50B4 SWAP1 PUSH2 0x8A9C JUMP JUMPDEST PUSH1 0x40 MLOAD DUP1 SWAP2 SUB SWAP1 REVERT JUMPDEST PUSH4 0xBC197C81 PUSH1 0xE0 SHL PUSH28 0xFFFFFFFFFFFFFFFFFFFFFFFFFFFFFFFFFFFFFFFFFFFFFFFFFFFFFFFF NOT AND DUP2 PUSH28 0xFFFFFFFFFFFFFFFFFFFFFFFFFFFFFFFFFFFFFFFFFFFFFFFFFFFFFFFF NOT AND EQ PUSH2 0x5144 JUMPI PUSH1 0x40 MLOAD PUSH32 0x8C379A000000000000000000000000000000000000000000000000000000000 DUP2 MSTORE PUSH1 0x4 ADD PUSH2 0x513B SWAP1 PUSH2 0x8B2E JUMP JUMPDEST PUSH1 0x40 MLOAD DUP1 SWAP2 SUB SWAP1 REVERT JUMPDEST POP JUMPDEST POP POP POP POP POP POP JUMP JUMPDEST PUSH2 0x5158 DUP3 DUP3 PUSH2 0x2286 JUMP JUMPDEST PUSH2 0x51CF JUMPI PUSH2 0x5165 DUP2 PUSH2 0x55E2 JUMP JUMPDEST PUSH2 0x5173 DUP4 PUSH1 0x0 SHR PUSH1 0x20 PUSH2 0x560F JUMP JUMPDEST PUSH1 0x40 MLOAD PUSH1 0x20 ADD PUSH2 0x5184 SWAP3 SWAP2 SWAP1 PUSH2 0x8BE6 JUMP JUMPDEST PUSH1 0x40 MLOAD PUSH1 0x20 DUP2 DUP4 SUB SUB DUP2 MSTORE SWAP1 PUSH1 0x40 MSTORE PUSH1 0x40 MLOAD PUSH32 0x8C379A000000000000000000000000000000000000000000000000000000000 DUP2 MSTORE PUSH1 0x4 ADD PUSH2 0x51C6 SWAP2 SWAP1 PUSH2 0x5CCE JUMP JUMPDEST PUSH1 0x40 MLOAD DUP1 SWAP2 SUB SWAP1 REVERT JUMPDEST POP POP JUMP JUMPDEST PUSH1 0x0 DUP2 SWAP1 POP SWAP2 SWAP1 POP JUMP JUMPDEST PUSH1 0x0 DUP2 SWAP1 POP SWAP2 SWAP1 POP JUMP JUMPDEST PUSH2 0x51F0 DUP2 PUSH2 0x4AB9 JUMP JUMPDEST PUSH2 0x522F JUMPI PUSH1 0x40 MLOAD PUSH32 0x8C379A000000000000000000000000000000000000000000000000000000000 DUP2 MSTORE PUSH1 0x4 ADD PUSH2 0x5226 SWAP1 PUSH2 0x8C92 JUMP JUMPDEST PUSH1 0x40 MLOAD DUP1 SWAP2 SUB SWAP1 REVERT JUMPDEST DUP1 PUSH2 0x525C PUSH32 0x360894A13BA1A3210667C828492DB98DCA3E2076CC3735A920A3CA505D382BBC PUSH1 0x0 SHL PUSH2 0x51D3 JUMP JUMPDEST PUSH1 0x0 ADD PUSH1 0x0 PUSH2 0x100 EXP DUP2 SLOAD DUP2 PUSH20 0xFFFFFFFFFFFFFFFFFFFFFFFFFFFFFFFFFFFFFFFF MUL NOT AND SWAP1 DUP4 PUSH20 0xFFFFFFFFFFFFFFFFFFFFFFFFFFFFFFFFFFFFFFFF AND MUL OR SWAP1 SSTORE POP POP JUMP JUMPDEST PUSH2 0x52A9 DUP4 PUSH2 0x584B JUMP JUMPDEST PUSH1 0x0 DUP3 MLOAD GT DUP1 PUSH2 0x52B6 JUMPI POP DUP1 JUMPDEST ISZERO PUSH2 0x52C7 JUMPI PUSH2 0x52C5 DUP4 DUP4 PUSH2 0x589A JUMP JUMPDEST POP JUMPDEST POP POP POP JUMP JUMPDEST PUSH1 0x60 PUSH1 0x0 PUSH1 0x1 PUSH8 0xFFFFFFFFFFFFFFFF DUP2 GT ISZERO PUSH2 0x52EB JUMPI PUSH2 0x52EA PUSH2 0x5DAF JUMP JUMPDEST JUMPDEST PUSH1 0x40 MLOAD SWAP1 DUP1 DUP3 MSTORE DUP1 PUSH1 0x20 MUL PUSH1 0x20 ADD DUP3 ADD PUSH1 0x40 MSTORE DUP1 ISZERO PUSH2 0x5319 JUMPI DUP2 PUSH1 0x20 ADD PUSH1 0x20 DUP3 MUL DUP1 CALLDATASIZE DUP4 CALLDATACOPY DUP1 DUP3 ADD SWAP2 POP POP SWAP1 POP JUMPDEST POP SWAP1 POP DUP3 DUP2 PUSH1 0x0 DUP2 MLOAD DUP2 LT PUSH2 0x5331 JUMPI PUSH2 0x5330 PUSH2 0x7279 JUMP JUMPDEST JUMPDEST PUSH1 0x20 MUL PUSH1 0x20 ADD ADD DUP2 DUP2 MSTORE POP POP DUP1 SWAP2 POP POP SWAP2 SWAP1 POP JUMP JUMPDEST PUSH2 0x5365 DUP5 PUSH20 0xFFFFFFFFFFFFFFFFFFFFFFFFFFFFFFFFFFFFFFFF AND PUSH2 0x4AB9 JUMP JUMPDEST ISZERO PUSH2 0x5515 JUMPI DUP4 PUSH20 0xFFFFFFFFFFFFFFFFFFFFFFFFFFFFFFFFFFFFFFFF AND PUSH4 0xF23A6E61 DUP8 DUP8 DUP7 DUP7 DUP7 PUSH1 0x40 MLOAD DUP7 PUSH4 0xFFFFFFFF AND PUSH1 0xE0 SHL DUP2 MSTORE PUSH1 0x4 ADD PUSH2 0x53AB SWAP6 SWAP5 SWAP4 SWAP3 SWAP2 SWAP1 PUSH2 0x8CB2 JUMP JUMPDEST PUSH1 0x20 PUSH1 0x40 MLOAD DUP1 DUP4 SUB DUP2 PUSH1 0x0 DUP8 GAS CALL SWAP3 POP POP POP DUP1 ISZERO PUSH2 0x53E7 JUMPI POP PUSH1 0x40 MLOAD RETURNDATASIZE PUSH1 0x1F NOT PUSH1 0x1F DUP3 ADD AND DUP3 ADD DUP1 PUSH1 0x40 MSTORE POP DUP2 ADD SWAP1 PUSH2 0x53E4 SWAP2 SWAP1 PUSH2 0x893E JUMP JUMPDEST PUSH1 0x1 JUMPDEST PUSH2 0x548C JUMPI PUSH2 0x53F3 PUSH2 0x8978 JUMP JUMPDEST DUP1 PUSH4 0x8C379A0 SUB PUSH2 0x544F JUMPI POP PUSH2 0x5407 PUSH2 0x899A JUMP JUMPDEST DUP1 PUSH2 0x5412 JUMPI POP PUSH2 0x5451 JUMP JUMPDEST DUP1 PUSH1 0x40 MLOAD PUSH32 0x8C379A000000000000000000000000000000000000000000000000000000000 DUP2 MSTORE PUSH1 0x4 ADD PUSH2 0x5446 SWAP2 SWAP1 PUSH2 0x5CCE JUMP JUMPDEST PUSH1 0x40 MLOAD DUP1 SWAP2 SUB SWAP1 REVERT JUMPDEST POP JUMPDEST PUSH1 0x40 MLOAD PUSH32 0x8C379A000000000000000000000000000000000000000000000000000000000 DUP2 MSTORE PUSH1 0x4 ADD PUSH2 0x5483 SWAP1 PUSH2 0x8A9C JUMP JUMPDEST PUSH1 0x40 MLOAD DUP1 SWAP2 SUB SWAP1 REVERT JUMPDEST PUSH4 0xF23A6E61 PUSH1 0xE0 SHL PUSH28 0xFFFFFFFFFFFFFFFFFFFFFFFFFFFFFFFFFFFFFFFFFFFFFFFFFFFFFFFF NOT AND DUP2 PUSH28 0xFFFFFFFFFFFFFFFFFFFFFFFFFFFFFFFFFFFFFFFFFFFFFFFFFFFFFFFF NOT AND EQ PUSH2 0x5513 JUMPI PUSH1 0x40 MLOAD PUSH32 0x8C379A000000000000000000000000000000000000000000000000000000000 DUP2 MSTORE PUSH1 0x4 ADD PUSH2 0x550A SWAP1 PUSH2 0x8B2E JUMP JUMPDEST PUSH1 0x40 MLOAD DUP1 SWAP2 SUB SWAP1 REVERT JUMPDEST POP JUMPDEST POP POP POP POP POP POP JUMP JUMPDEST PUSH1 0x0 PUSH1 0x1 SWAP1 SLOAD SWAP1 PUSH2 0x100 EXP SWAP1 DIV PUSH1 0xFF AND PUSH2 0x556C JUMPI PUSH1 0x40 MLOAD PUSH32 0x8C379A000000000000000000000000000000000000000000000000000000000 DUP2 MSTORE PUSH1 0x4 ADD PUSH2 0x5563 SWAP1 PUSH2 0x884C JUMP JUMPDEST PUSH1 0x40 MLOAD DUP1 SWAP2 SUB SWAP1 REVERT JUMPDEST PUSH2 0x5575 DUP2 PUSH2 0x597E JUMP JUMPDEST POP JUMP JUMPDEST PUSH1 0x0 PUSH32 0x1FFC9A700000000000000000000000000000000000000000000000000000000 PUSH28 0xFFFFFFFFFFFFFFFFFFFFFFFFFFFFFFFFFFFFFFFFFFFFFFFFFFFFFFFF NOT AND DUP3 PUSH28 0xFFFFFFFFFFFFFFFFFFFFFFFFFFFFFFFFFFFFFFFFFFFFFFFFFFFFFFFF NOT AND EQ SWAP1 POP SWAP2 SWAP1 POP JUMP JUMPDEST PUSH1 0x60 PUSH2 0x5608 DUP3 PUSH20 0xFFFFFFFFFFFFFFFFFFFFFFFFFFFFFFFFFFFFFFFF AND PUSH1 0x14 PUSH1 0xFF AND PUSH2 0x560F JUMP JUMPDEST SWAP1 POP SWAP2 SWAP1 POP JUMP JUMPDEST PUSH1 0x60 PUSH1 0x0 PUSH1 0x2 DUP4 PUSH1 0x2 PUSH2 0x5622 SWAP2 SWAP1 PUSH2 0x864B JUMP JUMPDEST PUSH2 0x562C SWAP2 SWAP1 PUSH2 0x77A2 JUMP JUMPDEST PUSH8 0xFFFFFFFFFFFFFFFF DUP2 GT ISZERO PUSH2 0x5645 JUMPI PUSH2 0x5644 PUSH2 0x5DAF JUMP JUMPDEST JUMPDEST PUSH1 0x40 MLOAD SWAP1 DUP1 DUP3 MSTORE DUP1 PUSH1 0x1F ADD PUSH1 0x1F NOT AND PUSH1 0x20 ADD DUP3 ADD PUSH1 0x40 MSTORE DUP1 ISZERO PUSH2 0x5677 JUMPI DUP2 PUSH1 0x20 ADD PUSH1 0x1 DUP3 MUL DUP1 CALLDATASIZE DUP4 CALLDATACOPY DUP1 DUP3 ADD SWAP2 POP POP SWAP1 POP JUMPDEST POP SWAP1 POP PUSH32 0x3000000000000000000000000000000000000000000000000000000000000000 DUP2 PUSH1 0x0 DUP2 MLOAD DUP2 LT PUSH2 0x56AF JUMPI PUSH2 0x56AE PUSH2 0x7279 JUMP JUMPDEST JUMPDEST PUSH1 0x20 ADD ADD SWAP1 PUSH31 0xFFFFFFFFFFFFFFFFFFFFFFFFFFFFFFFFFFFFFFFFFFFFFFFFFFFFFFFFFFFFFF NOT AND SWAP1 DUP2 PUSH1 0x0 BYTE SWAP1 MSTORE8 POP PUSH32 0x7800000000000000000000000000000000000000000000000000000000000000 DUP2 PUSH1 0x1 DUP2 MLOAD DUP2 LT PUSH2 0x5713 JUMPI PUSH2 0x5712 PUSH2 0x7279 JUMP JUMPDEST JUMPDEST PUSH1 0x20 ADD ADD SWAP1 PUSH31 0xFFFFFFFFFFFFFFFFFFFFFFFFFFFFFFFFFFFFFFFFFFFFFFFFFFFFFFFFFFFFFF NOT AND SWAP1 DUP2 PUSH1 0x0 BYTE SWAP1 MSTORE8 POP PUSH1 0x0 PUSH1 0x1 DUP5 PUSH1 0x2 PUSH2 0x5753 SWAP2 SWAP1 PUSH2 0x864B JUMP JUMPDEST PUSH2 0x575D SWAP2 SWAP1 PUSH2 0x77A2 JUMP JUMPDEST SWAP1 POP JUMPDEST PUSH1 0x1 DUP2 GT ISZERO PUSH2 0x57FD JUMPI PUSH32 0x3031323334353637383961626364656600000000000000000000000000000000 PUSH1 0xF DUP7 AND PUSH1 0x10 DUP2 LT PUSH2 0x579F JUMPI PUSH2 0x579E PUSH2 0x7279 JUMP JUMPDEST JUMPDEST BYTE PUSH1 0xF8 SHL DUP3 DUP3 DUP2 MLOAD DUP2 LT PUSH2 0x57B6 JUMPI PUSH2 0x57B5 PUSH2 0x7279 JUMP JUMPDEST JUMPDEST PUSH1 0x20 ADD ADD SWAP1 PUSH31 0xFFFFFFFFFFFFFFFFFFFFFFFFFFFFFFFFFFFFFFFFFFFFFFFFFFFFFFFFFFFFFF NOT AND SWAP1 DUP2 PUSH1 0x0 BYTE SWAP1 MSTORE8 POP PUSH1 0x4 DUP6 SWAP1 SHR SWAP5 POP DUP1 PUSH2 0x57F6 SWAP1 PUSH2 0x8D0C JUMP JUMPDEST SWAP1 POP PUSH2 0x5760 JUMP JUMPDEST POP PUSH1 0x0 DUP5 EQ PUSH2 0x5841 JUMPI PUSH1 0x40 MLOAD PUSH32 0x8C379A000000000000000000000000000000000000000000000000000000000 DUP2 MSTORE PUSH1 0x4 ADD PUSH2 0x5838 SWAP1 PUSH2 0x8D81 JUMP JUMPDEST PUSH1 0x40 MLOAD DUP1 SWAP2 SUB SWAP1 REVERT JUMPDEST DUP1 SWAP2 POP POP SWAP3 SWAP2 POP POP JUMP JUMPDEST PUSH2 0x5854 DUP2 PUSH2 0x51E7 JUMP JUMPDEST DUP1 PUSH20 0xFFFFFFFFFFFFFFFFFFFFFFFFFFFFFFFFFFFFFFFF AND PUSH32 0xBC7CD75A20EE27FD9ADEBAB32041F755214DBC6BFFA90CC0225B39DA2E5C2D3B PUSH1 0x40 MLOAD PUSH1 0x40 MLOAD DUP1 SWAP2 SUB SWAP1 LOG2 POP JUMP JUMPDEST PUSH1 0x60 PUSH2 0x58A5 DUP4 PUSH2 0x4AB9 JUMP JUMPDEST PUSH2 0x58E4 JUMPI PUSH1 0x40 MLOAD PUSH32 0x8C379A000000000000000000000000000000000000000000000000000000000 DUP2 MSTORE PUSH1 0x4 ADD PUSH2 0x58DB SWAP1 PUSH2 0x8E13 JUMP JUMPDEST PUSH1 0x40 MLOAD DUP1 SWAP2 SUB SWAP1 REVERT JUMPDEST PUSH1 0x0 DUP1 DUP5 PUSH20 0xFFFFFFFFFFFFFFFFFFFFFFFFFFFFFFFFFFFFFFFF AND DUP5 PUSH1 0x40 MLOAD PUSH2 0x590C SWAP2 SWAP1 PUSH2 0x8E6F JUMP JUMPDEST PUSH1 0x0 PUSH1 0x40 MLOAD DUP1 DUP4 SUB DUP2 DUP6 GAS DELEGATECALL SWAP2 POP POP RETURNDATASIZE DUP1 PUSH1 0x0 DUP2 EQ PUSH2 0x5947 JUMPI PUSH1 0x40 MLOAD SWAP2 POP PUSH1 0x1F NOT PUSH1 0x3F RETURNDATASIZE ADD AND DUP3 ADD PUSH1 0x40 MSTORE RETURNDATASIZE DUP3 MSTORE RETURNDATASIZE PUSH1 0x0 PUSH1 0x20 DUP5 ADD RETURNDATACOPY PUSH2 0x594C JUMP JUMPDEST PUSH1 0x60 SWAP2 POP JUMPDEST POP SWAP2 POP SWAP2 POP PUSH2 0x5974 DUP3 DUP3 PUSH1 0x40 MLOAD DUP1 PUSH1 0x60 ADD PUSH1 0x40 MSTORE DUP1 PUSH1 0x27 DUP2 MSTORE PUSH1 0x20 ADD PUSH2 0x8E87 PUSH1 0x27 SWAP2 CODECOPY PUSH2 0x5991 JUMP JUMPDEST SWAP3 POP POP POP SWAP3 SWAP2 POP POP JUMP JUMPDEST DUP1 PUSH1 0x67 SWAP1 DUP2 PUSH2 0x598D SWAP2 SWAP1 PUSH2 0x7CD6 JUMP JUMPDEST POP POP JUMP JUMPDEST PUSH1 0x60 DUP4 ISZERO PUSH2 0x59A1 JUMPI DUP3 SWAP1 POP PUSH2 0x59AC JUMP JUMPDEST PUSH2 0x59AB DUP4 DUP4 PUSH2 0x59B3 JUMP JUMPDEST JUMPDEST SWAP4 SWAP3 POP POP POP JUMP JUMPDEST PUSH1 0x0 DUP3 MLOAD GT ISZERO PUSH2 0x59C6 JUMPI DUP2 MLOAD DUP1 DUP4 PUSH1 0x20 ADD REVERT JUMPDEST DUP1 PUSH1 0x40 MLOAD PUSH32 0x8C379A000000000000000000000000000000000000000000000000000000000 DUP2 MSTORE PUSH1 0x4 ADD PUSH2 0x59FA SWAP2 SWAP1 PUSH2 0x5CCE JUMP JUMPDEST PUSH1 0x40 MLOAD DUP1 SWAP2 SUB SWAP1 REVERT JUMPDEST PUSH1 0x40 MLOAD DUP1 PUSH1 0xA0 ADD PUSH1 0x40 MSTORE DUP1 PUSH1 0x0 PUSH1 0xFF AND DUP2 MSTORE PUSH1 0x20 ADD PUSH1 0x0 DUP2 MSTORE PUSH1 0x20 ADD PUSH1 0x0 DUP2 MSTORE PUSH1 0x20 ADD PUSH1 0x0 ISZERO ISZERO DUP2 MSTORE PUSH1 0x20 ADD PUSH1 0x0 PUSH20 0xFFFFFFFFFFFFFFFFFFFFFFFFFFFFFFFFFFFFFFFF AND DUP2 MSTORE POP SWAP1 JUMP JUMPDEST PUSH1 0x40 MLOAD DUP1 PUSH1 0x60 ADD PUSH1 0x40 MSTORE DUP1 PUSH1 0x0 PUSH1 0xFF AND DUP2 MSTORE PUSH1 0x20 ADD PUSH1 0x0 DUP2 MSTORE PUSH1 0x20 ADD PUSH1 0x0 DUP2 MSTORE POP SWAP1 JUMP JUMPDEST PUSH1 0x0 PUSH1 0x40 MLOAD SWAP1 POP SWAP1 JUMP JUMPDEST PUSH1 0x0 DUP1 REVERT JUMPDEST PUSH1 0x0 DUP1 REVERT JUMPDEST PUSH1 0x0 PUSH20 0xFFFFFFFFFFFFFFFFFFFFFFFFFFFFFFFFFFFFFFFF DUP3 AND SWAP1 POP SWAP2 SWAP1 POP JUMP JUMPDEST PUSH1 0x0 PUSH2 0x5AB0 DUP3 PUSH2 0x5A85 JUMP JUMPDEST SWAP1 POP SWAP2 SWAP1 POP JUMP JUMPDEST PUSH2 0x5AC0 DUP2 PUSH2 0x5AA5 JUMP JUMPDEST DUP2 EQ PUSH2 0x5ACB JUMPI PUSH1 0x0 DUP1 REVERT JUMPDEST POP JUMP JUMPDEST PUSH1 0x0 DUP2 CALLDATALOAD SWAP1 POP PUSH2 0x5ADD DUP2 PUSH2 0x5AB7 JUMP JUMPDEST SWAP3 SWAP2 POP POP JUMP JUMPDEST PUSH1 0x0 DUP2 SWAP1 POP SWAP2 SWAP1 POP JUMP JUMPDEST PUSH2 0x5AF6 DUP2 PUSH2 0x5AE3 JUMP JUMPDEST DUP2 EQ PUSH2 0x5B01 JUMPI PUSH1 0x0 DUP1 REVERT JUMPDEST POP JUMP JUMPDEST PUSH1 0x0 DUP2 CALLDATALOAD SWAP1 POP PUSH2 0x5B13 DUP2 PUSH2 0x5AED JUMP JUMPDEST SWAP3 SWAP2 POP POP JUMP JUMPDEST PUSH1 0x0 DUP1 PUSH1 0x40 DUP4 DUP6 SUB SLT ISZERO PUSH2 0x5B30 JUMPI PUSH2 0x5B2F PUSH2 0x5A7B JUMP JUMPDEST JUMPDEST PUSH1 0x0 PUSH2 0x5B3E DUP6 DUP3 DUP7 ADD PUSH2 0x5ACE JUMP JUMPDEST SWAP3 POP POP PUSH1 0x20 PUSH2 0x5B4F DUP6 DUP3 DUP7 ADD PUSH2 0x5B04 JUMP JUMPDEST SWAP2 POP POP SWAP3 POP SWAP3 SWAP1 POP JUMP JUMPDEST PUSH2 0x5B62 DUP2 PUSH2 0x5AE3 JUMP JUMPDEST DUP3 MSTORE POP POP JUMP JUMPDEST PUSH1 0x0 PUSH1 0x20 DUP3 ADD SWAP1 POP PUSH2 0x5B7D PUSH1 0x0 DUP4 ADD DUP5 PUSH2 0x5B59 JUMP JUMPDEST SWAP3 SWAP2 POP POP JUMP JUMPDEST PUSH1 0x0 PUSH32 0xFFFFFFFF00000000000000000000000000000000000000000000000000000000 DUP3 AND SWAP1 POP SWAP2 SWAP1 POP JUMP JUMPDEST PUSH2 0x5BB8 DUP2 PUSH2 0x5B83 JUMP JUMPDEST DUP2 EQ PUSH2 0x5BC3 JUMPI PUSH1 0x0 DUP1 REVERT JUMPDEST POP JUMP JUMPDEST PUSH1 0x0 DUP2 CALLDATALOAD SWAP1 POP PUSH2 0x5BD5 DUP2 PUSH2 0x5BAF JUMP JUMPDEST SWAP3 SWAP2 POP POP JUMP JUMPDEST PUSH1 0x0 PUSH1 0x20 DUP3 DUP5 SUB SLT ISZERO PUSH2 0x5BF1 JUMPI PUSH2 0x5BF0 PUSH2 0x5A7B JUMP JUMPDEST JUMPDEST PUSH1 0x0 PUSH2 0x5BFF DUP5 DUP3 DUP6 ADD PUSH2 0x5BC6 JUMP JUMPDEST SWAP2 POP POP SWAP3 SWAP2 POP POP JUMP JUMPDEST PUSH1 0x0 DUP2 ISZERO ISZERO SWAP1 POP SWAP2 SWAP1 POP JUMP JUMPDEST PUSH2 0x5C1D DUP2 PUSH2 0x5C08 JUMP JUMPDEST DUP3 MSTORE POP POP JUMP JUMPDEST PUSH1 0x0 PUSH1 0x20 DUP3 ADD SWAP1 POP PUSH2 0x5C38 PUSH1 0x0 DUP4 ADD DUP5 PUSH2 0x5C14 JUMP JUMPDEST SWAP3 SWAP2 POP POP JUMP JUMPDEST PUSH1 0x0 DUP2 MLOAD SWAP1 POP SWAP2 SWAP1 POP JUMP JUMPDEST PUSH1 0x0 DUP3 DUP3 MSTORE PUSH1 0x20 DUP3 ADD SWAP1 POP SWAP3 SWAP2 POP POP JUMP JUMPDEST PUSH1 0x0 JUMPDEST DUP4 DUP2 LT ISZERO PUSH2 0x5C78 JUMPI DUP1 DUP3 ADD MLOAD DUP2 DUP5 ADD MSTORE PUSH1 0x20 DUP2 ADD SWAP1 POP PUSH2 0x5C5D JUMP JUMPDEST PUSH1 0x0 DUP5 DUP5 ADD MSTORE POP POP POP POP JUMP JUMPDEST PUSH1 0x0 PUSH1 0x1F NOT PUSH1 0x1F DUP4 ADD AND SWAP1 POP SWAP2 SWAP1 POP JUMP JUMPDEST PUSH1 0x0 PUSH2 0x5CA0 DUP3 PUSH2 0x5C3E JUMP JUMPDEST PUSH2 0x5CAA DUP2 DUP6 PUSH2 0x5C49 JUMP JUMPDEST SWAP4 POP PUSH2 0x5CBA DUP2 DUP6 PUSH1 0x20 DUP7 ADD PUSH2 0x5C5A JUMP JUMPDEST PUSH2 0x5CC3 DUP2 PUSH2 0x5C84 JUMP JUMPDEST DUP5 ADD SWAP2 POP POP SWAP3 SWAP2 POP POP JUMP JUMPDEST PUSH1 0x0 PUSH1 0x20 DUP3 ADD SWAP1 POP DUP2 DUP2 SUB PUSH1 0x0 DUP4 ADD MSTORE PUSH2 0x5CE8 DUP2 DUP5 PUSH2 0x5C95 JUMP JUMPDEST SWAP1 POP SWAP3 SWAP2 POP POP JUMP JUMPDEST PUSH1 0x0 PUSH1 0x20 DUP3 DUP5 SUB SLT ISZERO PUSH2 0x5D06 JUMPI PUSH2 0x5D05 PUSH2 0x5A7B JUMP JUMPDEST JUMPDEST PUSH1 0x0 PUSH2 0x5D14 DUP5 DUP3 DUP6 ADD PUSH2 0x5B04 JUMP JUMPDEST SWAP2 POP POP SWAP3 SWAP2 POP POP JUMP JUMPDEST PUSH1 0x0 DUP2 SWAP1 POP SWAP2 SWAP1 POP JUMP JUMPDEST PUSH2 0x5D30 DUP2 PUSH2 0x5D1D JUMP JUMPDEST DUP2 EQ PUSH2 0x5D3B JUMPI PUSH1 0x0 DUP1 REVERT JUMPDEST POP JUMP JUMPDEST PUSH1 0x0 DUP2 CALLDATALOAD SWAP1 POP PUSH2 0x5D4D DUP2 PUSH2 0x5D27 JUMP JUMPDEST SWAP3 SWAP2 POP POP JUMP JUMPDEST PUSH1 0x0 PUSH1 0x20 DUP3 DUP5 SUB SLT ISZERO PUSH2 0x5D69 JUMPI PUSH2 0x5D68 PUSH2 0x5A7B JUMP JUMPDEST JUMPDEST PUSH1 0x0 PUSH2 0x5D77 DUP5 DUP3 DUP6 ADD PUSH2 0x5D3E JUMP JUMPDEST SWAP2 POP POP SWAP3 SWAP2 POP POP JUMP JUMPDEST PUSH2 0x5D89 DUP2 PUSH2 0x5D1D JUMP JUMPDEST DUP3 MSTORE POP POP JUMP JUMPDEST PUSH1 0x0 PUSH1 0x20 DUP3 ADD SWAP1 POP PUSH2 0x5DA4 PUSH1 0x0 DUP4 ADD DUP5 PUSH2 0x5D80 JUMP JUMPDEST SWAP3 SWAP2 POP POP JUMP JUMPDEST PUSH1 0x0 DUP1 REVERT JUMPDEST PUSH32 0x4E487B7100000000000000000000000000000000000000000000000000000000 PUSH1 0x0 MSTORE PUSH1 0x41 PUSH1 0x4 MSTORE PUSH1 0x24 PUSH1 0x0 REVERT JUMPDEST PUSH2 0x5DE7 DUP3 PUSH2 0x5C84 JUMP JUMPDEST DUP2 ADD DUP2 DUP2 LT PUSH8 0xFFFFFFFFFFFFFFFF DUP3 GT OR ISZERO PUSH2 0x5E06 JUMPI PUSH2 0x5E05 PUSH2 0x5DAF JUMP JUMPDEST JUMPDEST DUP1 PUSH1 0x40 MSTORE POP POP POP JUMP JUMPDEST PUSH1 0x0 PUSH2 0x5E19 PUSH2 0x5A71 JUMP JUMPDEST SWAP1 POP PUSH2 0x5E25 DUP3 DUP3 PUSH2 0x5DDE JUMP JUMPDEST SWAP2 SWAP1 POP JUMP JUMPDEST PUSH1 0x0 PUSH8 0xFFFFFFFFFFFFFFFF DUP3 GT ISZERO PUSH2 0x5E45 JUMPI PUSH2 0x5E44 PUSH2 0x5DAF JUMP JUMPDEST JUMPDEST PUSH1 0x20 DUP3 MUL SWAP1 POP PUSH1 0x20 DUP2 ADD SWAP1 POP SWAP2 SWAP1 POP JUMP JUMPDEST PUSH1 0x0 DUP1 REVERT JUMPDEST PUSH1 0x0 PUSH2 0x5E6E PUSH2 0x5E69 DUP5 PUSH2 0x5E2A JUMP JUMPDEST PUSH2 0x5E0F JUMP JUMPDEST SWAP1 POP DUP1 DUP4 DUP3 MSTORE PUSH1 0x20 DUP3 ADD SWAP1 POP PUSH1 0x20 DUP5 MUL DUP4 ADD DUP6 DUP2 GT ISZERO PUSH2 0x5E91 JUMPI PUSH2 0x5E90 PUSH2 0x5E56 JUMP JUMPDEST JUMPDEST DUP4 JUMPDEST DUP2 DUP2 LT ISZERO PUSH2 0x5EBA JUMPI DUP1 PUSH2 0x5EA6 DUP9 DUP3 PUSH2 0x5B04 JUMP JUMPDEST DUP5 MSTORE PUSH1 0x20 DUP5 ADD SWAP4 POP POP PUSH1 0x20 DUP2 ADD SWAP1 POP PUSH2 0x5E93 JUMP JUMPDEST POP POP POP SWAP4 SWAP3 POP POP POP JUMP JUMPDEST PUSH1 0x0 DUP3 PUSH1 0x1F DUP4 ADD SLT PUSH2 0x5ED9 JUMPI PUSH2 0x5ED8 PUSH2 0x5DAA JUMP JUMPDEST JUMPDEST DUP2 CALLDATALOAD PUSH2 0x5EE9 DUP5 DUP3 PUSH1 0x20 DUP7 ADD PUSH2 0x5E5B JUMP JUMPDEST SWAP2 POP POP SWAP3 SWAP2 POP POP JUMP JUMPDEST PUSH1 0x0 DUP1 REVERT JUMPDEST PUSH1 0x0 PUSH8 0xFFFFFFFFFFFFFFFF DUP3 GT ISZERO PUSH2 0x5F12 JUMPI PUSH2 0x5F11 PUSH2 0x5DAF JUMP JUMPDEST JUMPDEST PUSH2 0x5F1B DUP3 PUSH2 0x5C84 JUMP JUMPDEST SWAP1 POP PUSH1 0x20 DUP2 ADD SWAP1 POP SWAP2 SWAP1 POP JUMP JUMPDEST DUP3 DUP2 DUP4 CALLDATACOPY PUSH1 0x0 DUP4 DUP4 ADD MSTORE POP POP POP JUMP JUMPDEST PUSH1 0x0 PUSH2 0x5F4A PUSH2 0x5F45 DUP5 PUSH2 0x5EF7 JUMP JUMPDEST PUSH2 0x5E0F JUMP JUMPDEST SWAP1 POP DUP3 DUP2 MSTORE PUSH1 0x20 DUP2 ADD DUP5 DUP5 DUP5 ADD GT ISZERO PUSH2 0x5F66 JUMPI PUSH2 0x5F65 PUSH2 0x5EF2 JUMP JUMPDEST JUMPDEST PUSH2 0x5F71 DUP5 DUP3 DUP6 PUSH2 0x5F28 JUMP JUMPDEST POP SWAP4 SWAP3 POP POP POP JUMP JUMPDEST PUSH1 0x0 DUP3 PUSH1 0x1F DUP4 ADD SLT PUSH2 0x5F8E JUMPI PUSH2 0x5F8D PUSH2 0x5DAA JUMP JUMPDEST JUMPDEST DUP2 CALLDATALOAD PUSH2 0x5F9E DUP5 DUP3 PUSH1 0x20 DUP7 ADD PUSH2 0x5F37 JUMP JUMPDEST SWAP2 POP POP SWAP3 SWAP2 POP POP JUMP JUMPDEST PUSH1 0x0 DUP1 PUSH1 0x0 DUP1 PUSH1 0x0 PUSH1 0xA0 DUP7 DUP9 SUB SLT ISZERO PUSH2 0x5FC3 JUMPI PUSH2 0x5FC2 PUSH2 0x5A7B JUMP JUMPDEST JUMPDEST PUSH1 0x0 PUSH2 0x5FD1 DUP9 DUP3 DUP10 ADD PUSH2 0x5ACE JUMP JUMPDEST SWAP6 POP POP PUSH1 0x20 PUSH2 0x5FE2 DUP9 DUP3 DUP10 ADD PUSH2 0x5ACE JUMP JUMPDEST SWAP5 POP POP PUSH1 0x40 DUP7 ADD CALLDATALOAD PUSH8 0xFFFFFFFFFFFFFFFF DUP2 GT ISZERO PUSH2 0x6003 JUMPI PUSH2 0x6002 PUSH2 0x5A80 JUMP JUMPDEST JUMPDEST PUSH2 0x600F DUP9 DUP3 DUP10 ADD PUSH2 0x5EC4 JUMP JUMPDEST SWAP4 POP POP PUSH1 0x60 DUP7 ADD CALLDATALOAD PUSH8 0xFFFFFFFFFFFFFFFF DUP2 GT ISZERO PUSH2 0x6030 JUMPI PUSH2 0x602F PUSH2 0x5A80 JUMP JUMPDEST JUMPDEST PUSH2 0x603C DUP9 DUP3 DUP10 ADD PUSH2 0x5EC4 JUMP JUMPDEST SWAP3 POP POP PUSH1 0x80 DUP7 ADD CALLDATALOAD PUSH8 0xFFFFFFFFFFFFFFFF DUP2 GT ISZERO PUSH2 0x605D JUMPI PUSH2 0x605C PUSH2 0x5A80 JUMP JUMPDEST JUMPDEST PUSH2 0x6069 DUP9 DUP3 DUP10 ADD PUSH2 0x5F79 JUMP JUMPDEST SWAP2 POP POP SWAP3 SWAP6 POP SWAP3 SWAP6 SWAP1 SWAP4 POP JUMP JUMPDEST PUSH1 0x0 PUSH1 0x20 DUP3 DUP5 SUB SLT ISZERO PUSH2 0x608C JUMPI PUSH2 0x608B PUSH2 0x5A7B JUMP JUMPDEST JUMPDEST PUSH1 0x0 PUSH2 0x609A DUP5 DUP3 DUP6 ADD PUSH2 0x5ACE JUMP JUMPDEST SWAP2 POP POP SWAP3 SWAP2 POP POP JUMP JUMPDEST PUSH1 0x0 DUP1 PUSH1 0x40 DUP4 DUP6 SUB SLT ISZERO PUSH2 0x60BA JUMPI PUSH2 0x60B9 PUSH2 0x5A7B JUMP JUMPDEST JUMPDEST PUSH1 0x0 PUSH2 0x60C8 DUP6 DUP3 DUP7 ADD PUSH2 0x5D3E JUMP JUMPDEST SWAP3 POP POP PUSH1 0x20 PUSH2 0x60D9 DUP6 DUP3 DUP7 ADD PUSH2 0x5ACE JUMP JUMPDEST SWAP2 POP POP SWAP3 POP SWAP3 SWAP1 POP JUMP JUMPDEST PUSH2 0x60EC DUP2 PUSH2 0x5C08 JUMP JUMPDEST DUP2 EQ PUSH2 0x60F7 JUMPI PUSH1 0x0 DUP1 REVERT JUMPDEST POP JUMP JUMPDEST PUSH1 0x0 DUP2 CALLDATALOAD SWAP1 POP PUSH2 0x6109 DUP2 PUSH2 0x60E3 JUMP JUMPDEST SWAP3 SWAP2 POP POP JUMP JUMPDEST PUSH1 0x0 DUP1 PUSH1 0x40 DUP4 DUP6 SUB SLT ISZERO PUSH2 0x6126 JUMPI PUSH2 0x6125 PUSH2 0x5A7B JUMP JUMPDEST JUMPDEST PUSH1 0x0 PUSH2 0x6134 DUP6 DUP3 DUP7 ADD PUSH2 0x5B04 JUMP JUMPDEST SWAP3 POP POP PUSH1 0x20 PUSH2 0x6145 DUP6 DUP3 DUP7 ADD PUSH2 0x60FA JUMP JUMPDEST SWAP2 POP POP SWAP3 POP SWAP3 SWAP1 POP JUMP JUMPDEST PUSH1 0x0 PUSH2 0x615A DUP3 PUSH2 0x5AA5 JUMP JUMPDEST SWAP1 POP SWAP2 SWAP1 POP JUMP JUMPDEST PUSH2 0x616A DUP2 PUSH2 0x614F JUMP JUMPDEST DUP2 EQ PUSH2 0x6175 JUMPI PUSH1 0x0 DUP1 REVERT JUMPDEST POP JUMP JUMPDEST PUSH1 0x0 DUP2 CALLDATALOAD SWAP1 POP PUSH2 0x6187 DUP2 PUSH2 0x6161 JUMP JUMPDEST SWAP3 SWAP2 POP POP JUMP JUMPDEST PUSH1 0x0 PUSH1 0x20 DUP3 DUP5 SUB SLT ISZERO PUSH2 0x61A3 JUMPI PUSH2 0x61A2 PUSH2 0x5A7B JUMP JUMPDEST JUMPDEST PUSH1 0x0 PUSH2 0x61B1 DUP5 DUP3 DUP6 ADD PUSH2 0x6178 JUMP JUMPDEST SWAP2 POP POP SWAP3 SWAP2 POP POP JUMP JUMPDEST PUSH1 0x0 PUSH8 0xFFFFFFFFFFFFFFFF DUP3 GT ISZERO PUSH2 0x61D5 JUMPI PUSH2 0x61D4 PUSH2 0x5DAF JUMP JUMPDEST JUMPDEST PUSH1 0x20 DUP3 MUL SWAP1 POP PUSH1 0x20 DUP2 ADD SWAP1 POP SWAP2 SWAP1 POP JUMP JUMPDEST PUSH1 0x0 PUSH2 0x61F9 PUSH2 0x61F4 DUP5 PUSH2 0x61BA JUMP JUMPDEST PUSH2 0x5E0F JUMP JUMPDEST SWAP1 POP DUP1 DUP4 DUP3 MSTORE PUSH1 0x20 DUP3 ADD SWAP1 POP PUSH1 0x20 DUP5 MUL DUP4 ADD DUP6 DUP2 GT ISZERO PUSH2 0x621C JUMPI PUSH2 0x621B PUSH2 0x5E56 JUMP JUMPDEST JUMPDEST DUP4 JUMPDEST DUP2 DUP2 LT ISZERO PUSH2 0x6245 JUMPI DUP1 PUSH2 0x6231 DUP9 DUP3 PUSH2 0x5ACE JUMP JUMPDEST DUP5 MSTORE PUSH1 0x20 DUP5 ADD SWAP4 POP POP PUSH1 0x20 DUP2 ADD SWAP1 POP PUSH2 0x621E JUMP JUMPDEST POP POP POP SWAP4 SWAP3 POP POP POP JUMP JUMPDEST PUSH1 0x0 DUP3 PUSH1 0x1F DUP4 ADD SLT PUSH2 0x6264 JUMPI PUSH2 0x6263 PUSH2 0x5DAA JUMP JUMPDEST JUMPDEST DUP2 CALLDATALOAD PUSH2 0x6274 DUP5 DUP3 PUSH1 0x20 DUP7 ADD PUSH2 0x61E6 JUMP JUMPDEST SWAP2 POP POP SWAP3 SWAP2 POP POP JUMP JUMPDEST PUSH1 0x0 DUP1 PUSH1 0x40 DUP4 DUP6 SUB SLT ISZERO PUSH2 0x6294 JUMPI PUSH2 0x6293 PUSH2 0x5A7B JUMP JUMPDEST JUMPDEST PUSH1 0x0 DUP4 ADD CALLDATALOAD PUSH8 0xFFFFFFFFFFFFFFFF DUP2 GT ISZERO PUSH2 0x62B2 JUMPI PUSH2 0x62B1 PUSH2 0x5A80 JUMP JUMPDEST JUMPDEST PUSH2 0x62BE DUP6 DUP3 DUP7 ADD PUSH2 0x624F JUMP JUMPDEST SWAP3 POP POP PUSH1 0x20 DUP4 ADD CALLDATALOAD PUSH8 0xFFFFFFFFFFFFFFFF DUP2 GT ISZERO PUSH2 0x62DF JUMPI PUSH2 0x62DE PUSH2 0x5A80 JUMP JUMPDEST JUMPDEST PUSH2 0x62EB DUP6 DUP3 DUP7 ADD PUSH2 0x5EC4 JUMP JUMPDEST SWAP2 POP POP SWAP3 POP SWAP3 SWAP1 POP JUMP JUMPDEST PUSH1 0x0 DUP2 MLOAD SWAP1 POP SWAP2 SWAP1 POP JUMP JUMPDEST PUSH1 0x0 DUP3 DUP3 MSTORE PUSH1 0x20 DUP3 ADD SWAP1 POP SWAP3 SWAP2 POP POP JUMP JUMPDEST PUSH1 0x0 DUP2 SWAP1 POP PUSH1 0x20 DUP3 ADD SWAP1 POP SWAP2 SWAP1 POP JUMP JUMPDEST PUSH2 0x632A DUP2 PUSH2 0x5AE3 JUMP JUMPDEST DUP3 MSTORE POP POP JUMP JUMPDEST PUSH1 0x0 PUSH2 0x633C DUP4 DUP4 PUSH2 0x6321 JUMP JUMPDEST PUSH1 0x20 DUP4 ADD SWAP1 POP SWAP3 SWAP2 POP POP JUMP JUMPDEST PUSH1 0x0 PUSH1 0x20 DUP3 ADD SWAP1 POP SWAP2 SWAP1 POP JUMP JUMPDEST PUSH1 0x0 PUSH2 0x6360 DUP3 PUSH2 0x62F5 JUMP JUMPDEST PUSH2 0x636A DUP2 DUP6 PUSH2 0x6300 JUMP JUMPDEST SWAP4 POP PUSH2 0x6375 DUP4 PUSH2 0x6311 JUMP JUMPDEST DUP1 PUSH1 0x0 JUMPDEST DUP4 DUP2 LT ISZERO PUSH2 0x63A6 JUMPI DUP2 MLOAD PUSH2 0x638D DUP9 DUP3 PUSH2 0x6330 JUMP JUMPDEST SWAP8 POP PUSH2 0x6398 DUP4 PUSH2 0x6348 JUMP JUMPDEST SWAP3 POP POP PUSH1 0x1 DUP2 ADD SWAP1 POP PUSH2 0x6379 JUMP JUMPDEST POP DUP6 SWAP4 POP POP POP POP SWAP3 SWAP2 POP POP JUMP JUMPDEST PUSH1 0x0 PUSH1 0x20 DUP3 ADD SWAP1 POP DUP2 DUP2 SUB PUSH1 0x0 DUP4 ADD MSTORE PUSH2 0x63CD DUP2 DUP5 PUSH2 0x6355 JUMP JUMPDEST SWAP1 POP SWAP3 SWAP2 POP POP JUMP JUMPDEST PUSH1 0x0 DUP1 PUSH1 0x40 DUP4 DUP6 SUB SLT ISZERO PUSH2 0x63EC JUMPI PUSH2 0x63EB PUSH2 0x5A7B JUMP JUMPDEST JUMPDEST PUSH1 0x0 PUSH2 0x63FA DUP6 DUP3 DUP7 ADD PUSH2 0x5ACE JUMP JUMPDEST SWAP3 POP POP PUSH1 0x20 DUP4 ADD CALLDATALOAD PUSH8 0xFFFFFFFFFFFFFFFF DUP2 GT ISZERO PUSH2 0x641B JUMPI PUSH2 0x641A PUSH2 0x5A80 JUMP JUMPDEST JUMPDEST PUSH2 0x6427 DUP6 DUP3 DUP7 ADD PUSH2 0x5F79 JUMP JUMPDEST SWAP2 POP POP SWAP3 POP SWAP3 SWAP1 POP JUMP JUMPDEST PUSH1 0x0 DUP2 MLOAD SWAP1 POP SWAP2 SWAP1 POP JUMP JUMPDEST PUSH1 0x0 DUP3 DUP3 MSTORE PUSH1 0x20 DUP3 ADD SWAP1 POP SWAP3 SWAP2 POP POP JUMP JUMPDEST PUSH1 0x0 DUP2 SWAP1 POP PUSH1 0x20 DUP3 ADD SWAP1 POP SWAP2 SWAP1 POP JUMP JUMPDEST PUSH1 0x0 PUSH1 0xFF DUP3 AND SWAP1 POP SWAP2 SWAP1 POP JUMP JUMPDEST PUSH2 0x6473 DUP2 PUSH2 0x645D JUMP JUMPDEST DUP3 MSTORE POP POP JUMP JUMPDEST PUSH2 0x6482 DUP2 PUSH2 0x5C08 JUMP JUMPDEST DUP3 MSTORE POP POP JUMP JUMPDEST PUSH2 0x6491 DUP2 PUSH2 0x5AA5 JUMP JUMPDEST DUP3 MSTORE POP POP JUMP JUMPDEST PUSH1 0xA0 DUP3 ADD PUSH1 0x0 DUP3 ADD MLOAD PUSH2 0x64AD PUSH1 0x0 DUP6 ADD DUP3 PUSH2 0x646A JUMP JUMPDEST POP PUSH1 0x20 DUP3 ADD MLOAD PUSH2 0x64C0 PUSH1 0x20 DUP6 ADD DUP3 PUSH2 0x6321 JUMP JUMPDEST POP PUSH1 0x40 DUP3 ADD MLOAD PUSH2 0x64D3 PUSH1 0x40 DUP6 ADD DUP3 PUSH2 0x6321 JUMP JUMPDEST POP PUSH1 0x60 DUP3 ADD MLOAD PUSH2 0x64E6 PUSH1 0x60 DUP6 ADD DUP3 PUSH2 0x6479 JUMP JUMPDEST POP PUSH1 0x80 DUP3 ADD MLOAD PUSH2 0x64F9 PUSH1 0x80 DUP6 ADD DUP3 PUSH2 0x6488 JUMP JUMPDEST POP POP POP POP JUMP JUMPDEST PUSH1 0x0 PUSH2 0x650B DUP4 DUP4 PUSH2 0x6497 JUMP JUMPDEST PUSH1 0xA0 DUP4 ADD SWAP1 POP SWAP3 SWAP2 POP POP JUMP JUMPDEST PUSH1 0x0 PUSH1 0x20 DUP3 ADD SWAP1 POP SWAP2 SWAP1 POP JUMP JUMPDEST PUSH1 0x0 PUSH2 0x652F DUP3 PUSH2 0x6431 JUMP JUMPDEST PUSH2 0x6539 DUP2 DUP6 PUSH2 0x643C JUMP JUMPDEST SWAP4 POP PUSH2 0x6544 DUP4 PUSH2 0x644D JUMP JUMPDEST DUP1 PUSH1 0x0 JUMPDEST DUP4 DUP2 LT ISZERO PUSH2 0x6575 JUMPI DUP2 MLOAD PUSH2 0x655C DUP9 DUP3 PUSH2 0x64FF JUMP JUMPDEST SWAP8 POP PUSH2 0x6567 DUP4 PUSH2 0x6517 JUMP JUMPDEST SWAP3 POP POP PUSH1 0x1 DUP2 ADD SWAP1 POP PUSH2 0x6548 JUMP JUMPDEST POP DUP6 SWAP4 POP POP POP POP SWAP3 SWAP2 POP POP JUMP JUMPDEST PUSH1 0x0 PUSH1 0x20 DUP3 ADD SWAP1 POP DUP2 DUP2 SUB PUSH1 0x0 DUP4 ADD MSTORE PUSH2 0x659C DUP2 DUP5 PUSH2 0x6524 JUMP JUMPDEST SWAP1 POP SWAP3 SWAP2 POP POP JUMP JUMPDEST PUSH2 0x65AD DUP2 PUSH2 0x645D JUMP JUMPDEST DUP2 EQ PUSH2 0x65B8 JUMPI PUSH1 0x0 DUP1 REVERT JUMPDEST POP JUMP JUMPDEST PUSH1 0x0 DUP2 CALLDATALOAD SWAP1 POP PUSH2 0x65CA DUP2 PUSH2 0x65A4 JUMP JUMPDEST SWAP3 SWAP2 POP POP JUMP JUMPDEST PUSH1 0x0 PUSH1 0x20 DUP3 DUP5 SUB SLT ISZERO PUSH2 0x65E6 JUMPI PUSH2 0x65E5 PUSH2 0x5A7B JUMP JUMPDEST JUMPDEST PUSH1 0x0 PUSH2 0x65F4 DUP5 DUP3 DUP6 ADD PUSH2 0x65BB JUMP JUMPDEST SWAP2 POP POP SWAP3 SWAP2 POP POP JUMP JUMPDEST PUSH1 0x0 PUSH1 0x60 DUP3 ADD SWAP1 POP PUSH2 0x6612 PUSH1 0x0 DUP4 ADD DUP7 PUSH2 0x5B59 JUMP JUMPDEST PUSH2 0x661F PUSH1 0x20 DUP4 ADD DUP6 PUSH2 0x5B59 JUMP JUMPDEST PUSH2 0x662C PUSH1 0x40 DUP4 ADD DUP5 PUSH2 0x5B59 JUMP JUMPDEST SWAP5 SWAP4 POP POP POP POP JUMP JUMPDEST PUSH1 0x0 DUP2 SWAP1 POP SWAP2 SWAP1 POP JUMP JUMPDEST PUSH1 0x0 PUSH2 0x6659 PUSH2 0x6654 PUSH2 0x664F DUP5 PUSH2 0x5A85 JUMP JUMPDEST PUSH2 0x6634 JUMP JUMPDEST PUSH2 0x5A85 JUMP JUMPDEST SWAP1 POP SWAP2 SWAP1 POP JUMP JUMPDEST PUSH1 0x0 PUSH2 0x666B DUP3 PUSH2 0x663E JUMP JUMPDEST SWAP1 POP SWAP2 SWAP1 POP JUMP JUMPDEST PUSH1 0x0 PUSH2 0x667D DUP3 PUSH2 0x6660 JUMP JUMPDEST SWAP1 POP SWAP2 SWAP1 POP JUMP JUMPDEST PUSH2 0x668D DUP2 PUSH2 0x6672 JUMP JUMPDEST DUP3 MSTORE POP POP JUMP JUMPDEST PUSH1 0x0 PUSH1 0x20 DUP3 ADD SWAP1 POP PUSH2 0x66A8 PUSH1 0x0 DUP4 ADD DUP5 PUSH2 0x6684 JUMP JUMPDEST SWAP3 SWAP2 POP POP JUMP JUMPDEST PUSH1 0x0 DUP1 PUSH1 0x0 PUSH1 0x60 DUP5 DUP7 SUB SLT ISZERO PUSH2 0x66C7 JUMPI PUSH2 0x66C6 PUSH2 0x5A7B JUMP JUMPDEST JUMPDEST PUSH1 0x0 PUSH2 0x66D5 DUP7 DUP3 DUP8 ADD PUSH2 0x5B04 JUMP JUMPDEST SWAP4 POP POP PUSH1 0x20 PUSH2 0x66E6 DUP7 DUP3 DUP8 ADD PUSH2 0x65BB JUMP JUMPDEST SWAP3 POP POP PUSH1 0x40 PUSH2 0x66F7 DUP7 DUP3 DUP8 ADD PUSH2 0x5ACE JUMP JUMPDEST SWAP2 POP POP SWAP3 POP SWAP3 POP SWAP3 JUMP JUMPDEST PUSH2 0x670A DUP2 PUSH2 0x5AA5 JUMP JUMPDEST DUP3 MSTORE POP POP JUMP JUMPDEST PUSH1 0x0 PUSH1 0x20 DUP3 ADD SWAP1 POP PUSH2 0x6725 PUSH1 0x0 DUP4 ADD DUP5 PUSH2 0x6701 JUMP JUMPDEST SWAP3 SWAP2 POP POP JUMP JUMPDEST PUSH1 0x0 DUP1 REVERT JUMPDEST PUSH1 0x0 DUP1 DUP4 PUSH1 0x1F DUP5 ADD SLT PUSH2 0x6746 JUMPI PUSH2 0x6745 PUSH2 0x5DAA JUMP JUMPDEST JUMPDEST DUP3 CALLDATALOAD SWAP1 POP PUSH8 0xFFFFFFFFFFFFFFFF DUP2 GT ISZERO PUSH2 0x6763 JUMPI PUSH2 0x6762 PUSH2 0x672B JUMP JUMPDEST JUMPDEST PUSH1 0x20 DUP4 ADD SWAP2 POP DUP4 PUSH1 0x1 DUP3 MUL DUP4 ADD GT ISZERO PUSH2 0x677F JUMPI PUSH2 0x677E PUSH2 0x5E56 JUMP JUMPDEST JUMPDEST SWAP3 POP SWAP3 SWAP1 POP JUMP JUMPDEST PUSH1 0x2 DUP2 LT PUSH2 0x6793 JUMPI PUSH1 0x0 DUP1 REVERT JUMPDEST POP JUMP JUMPDEST PUSH1 0x0 DUP2 CALLDATALOAD SWAP1 POP PUSH2 0x67A5 DUP2 PUSH2 0x6786 JUMP JUMPDEST SWAP3 SWAP2 POP POP JUMP JUMPDEST PUSH1 0x0 DUP1 PUSH1 0x0 DUP1 PUSH1 0x0 DUP1 PUSH1 0xA0 DUP8 DUP10 SUB SLT ISZERO PUSH2 0x67C8 JUMPI PUSH2 0x67C7 PUSH2 0x5A7B JUMP JUMPDEST JUMPDEST PUSH1 0x0 PUSH2 0x67D6 DUP10 DUP3 DUP11 ADD PUSH2 0x5ACE JUMP JUMPDEST SWAP7 POP POP PUSH1 0x20 PUSH2 0x67E7 DUP10 DUP3 DUP11 ADD PUSH2 0x5B04 JUMP JUMPDEST SWAP6 POP POP PUSH1 0x40 PUSH2 0x67F8 DUP10 DUP3 DUP11 ADD PUSH2 0x5B04 JUMP JUMPDEST SWAP5 POP POP PUSH1 0x60 DUP8 ADD CALLDATALOAD PUSH8 0xFFFFFFFFFFFFFFFF DUP2 GT ISZERO PUSH2 0x6819 JUMPI PUSH2 0x6818 PUSH2 0x5A80 JUMP JUMPDEST JUMPDEST PUSH2 0x6825 DUP10 DUP3 DUP11 ADD PUSH2 0x6730 JUMP JUMPDEST SWAP4 POP SWAP4 POP POP PUSH1 0x80 PUSH2 0x6838 DUP10 DUP3 DUP11 ADD PUSH2 0x6796 JUMP JUMPDEST SWAP2 POP POP SWAP3 SWAP6 POP SWAP3 SWAP6 POP SWAP3 SWAP6 JUMP JUMPDEST PUSH1 0x0 DUP1 PUSH1 0x40 DUP4 DUP6 SUB SLT ISZERO PUSH2 0x685C JUMPI PUSH2 0x685B PUSH2 0x5A7B JUMP JUMPDEST JUMPDEST PUSH1 0x0 PUSH2 0x686A DUP6 DUP3 DUP7 ADD PUSH2 0x5ACE JUMP JUMPDEST SWAP3 POP POP PUSH1 0x20 PUSH2 0x687B DUP6 DUP3 DUP7 ADD PUSH2 0x60FA JUMP JUMPDEST SWAP2 POP POP SWAP3 POP SWAP3 SWAP1 POP JUMP JUMPDEST PUSH1 0x0 PUSH8 0xFFFFFFFFFFFFFFFF DUP3 GT ISZERO PUSH2 0x68A0 JUMPI PUSH2 0x689F PUSH2 0x5DAF JUMP JUMPDEST JUMPDEST PUSH2 0x68A9 DUP3 PUSH2 0x5C84 JUMP JUMPDEST SWAP1 POP PUSH1 0x20 DUP2 ADD SWAP1 POP SWAP2 SWAP1 POP JUMP JUMPDEST PUSH1 0x0 PUSH2 0x68C9 PUSH2 0x68C4 DUP5 PUSH2 0x6885 JUMP JUMPDEST PUSH2 0x5E0F JUMP JUMPDEST SWAP1 POP DUP3 DUP2 MSTORE PUSH1 0x20 DUP2 ADD DUP5 DUP5 DUP5 ADD GT ISZERO PUSH2 0x68E5 JUMPI PUSH2 0x68E4 PUSH2 0x5EF2 JUMP JUMPDEST JUMPDEST PUSH2 0x68F0 DUP5 DUP3 DUP6 PUSH2 0x5F28 JUMP JUMPDEST POP SWAP4 SWAP3 POP POP POP JUMP JUMPDEST PUSH1 0x0 DUP3 PUSH1 0x1F DUP4 ADD SLT PUSH2 0x690D JUMPI PUSH2 0x690C PUSH2 0x5DAA JUMP JUMPDEST JUMPDEST DUP2 CALLDATALOAD PUSH2 0x691D DUP5 DUP3 PUSH1 0x20 DUP7 ADD PUSH2 0x68B6 JUMP JUMPDEST SWAP2 POP POP SWAP3 SWAP2 POP POP JUMP JUMPDEST PUSH1 0x0 PUSH8 0xFFFFFFFFFFFFFFFF DUP3 GT ISZERO PUSH2 0x6941 JUMPI PUSH2 0x6940 PUSH2 0x5DAF JUMP JUMPDEST JUMPDEST PUSH1 0x20 DUP3 MUL SWAP1 POP PUSH1 0x20 DUP2 ADD SWAP1 POP SWAP2 SWAP1 POP JUMP JUMPDEST PUSH1 0x0 DUP1 REVERT JUMPDEST PUSH1 0x0 PUSH1 0x60 DUP3 DUP5 SUB SLT ISZERO PUSH2 0x696D JUMPI PUSH2 0x696C PUSH2 0x6952 JUMP JUMPDEST JUMPDEST PUSH2 0x6977 PUSH1 0x60 PUSH2 0x5E0F JUMP JUMPDEST SWAP1 POP PUSH1 0x0 PUSH2 0x6987 DUP5 DUP3 DUP6 ADD PUSH2 0x65BB JUMP JUMPDEST PUSH1 0x0 DUP4 ADD MSTORE POP PUSH1 0x20 PUSH2 0x699B DUP5 DUP3 DUP6 ADD PUSH2 0x5B04 JUMP JUMPDEST PUSH1 0x20 DUP4 ADD MSTORE POP PUSH1 0x40 PUSH2 0x69AF DUP5 DUP3 DUP6 ADD PUSH2 0x5B04 JUMP JUMPDEST PUSH1 0x40 DUP4 ADD MSTORE POP SWAP3 SWAP2 POP POP JUMP JUMPDEST PUSH1 0x0 PUSH2 0x69CE PUSH2 0x69C9 DUP5 PUSH2 0x6926 JUMP JUMPDEST PUSH2 0x5E0F JUMP JUMPDEST SWAP1 POP DUP1 DUP4 DUP3 MSTORE PUSH1 0x20 DUP3 ADD SWAP1 POP PUSH1 0x60 DUP5 MUL DUP4 ADD DUP6 DUP2 GT ISZERO PUSH2 0x69F1 JUMPI PUSH2 0x69F0 PUSH2 0x5E56 JUMP JUMPDEST JUMPDEST DUP4 JUMPDEST DUP2 DUP2 LT ISZERO PUSH2 0x6A1A JUMPI DUP1 PUSH2 0x6A06 DUP9 DUP3 PUSH2 0x6957 JUMP JUMPDEST DUP5 MSTORE PUSH1 0x20 DUP5 ADD SWAP4 POP POP PUSH1 0x60 DUP2 ADD SWAP1 POP PUSH2 0x69F3 JUMP JUMPDEST POP POP POP SWAP4 SWAP3 POP POP POP JUMP JUMPDEST PUSH1 0x0 DUP3 PUSH1 0x1F DUP4 ADD SLT PUSH2 0x6A39 JUMPI PUSH2 0x6A38 PUSH2 0x5DAA JUMP JUMPDEST JUMPDEST DUP2 CALLDATALOAD PUSH2 0x6A49 DUP5 DUP3 PUSH1 0x20 DUP7 ADD PUSH2 0x69BB JUMP JUMPDEST SWAP2 POP POP SWAP3 SWAP2 POP POP JUMP JUMPDEST PUSH1 0x0 DUP1 PUSH1 0x0 DUP1 PUSH1 0x0 DUP1 PUSH1 0x0 DUP1 PUSH1 0x0 DUP1 PUSH2 0x140 DUP12 DUP14 SUB SLT ISZERO PUSH2 0x6A76 JUMPI PUSH2 0x6A75 PUSH2 0x5A7B JUMP JUMPDEST JUMPDEST PUSH1 0x0 PUSH2 0x6A84 DUP14 DUP3 DUP15 ADD PUSH2 0x5ACE JUMP JUMPDEST SWAP11 POP POP PUSH1 0x20 DUP12 ADD CALLDATALOAD PUSH8 0xFFFFFFFFFFFFFFFF DUP2 GT ISZERO PUSH2 0x6AA5 JUMPI PUSH2 0x6AA4 PUSH2 0x5A80 JUMP JUMPDEST JUMPDEST PUSH2 0x6AB1 DUP14 DUP3 DUP15 ADD PUSH2 0x68F8 JUMP JUMPDEST SWAP10 POP POP PUSH1 0x40 PUSH2 0x6AC2 DUP14 DUP3 DUP15 ADD PUSH2 0x5ACE JUMP JUMPDEST SWAP9 POP POP PUSH1 0x60 PUSH2 0x6AD3 DUP14 DUP3 DUP15 ADD PUSH2 0x60FA JUMP JUMPDEST SWAP8 POP POP PUSH1 0x80 PUSH2 0x6AE4 DUP14 DUP3 DUP15 ADD PUSH2 0x6178 JUMP JUMPDEST SWAP7 POP POP PUSH1 0xA0 DUP12 ADD CALLDATALOAD PUSH8 0xFFFFFFFFFFFFFFFF DUP2 GT ISZERO PUSH2 0x6B05 JUMPI PUSH2 0x6B04 PUSH2 0x5A80 JUMP JUMPDEST JUMPDEST PUSH2 0x6B11 DUP14 DUP3 DUP15 ADD PUSH2 0x68F8 JUMP JUMPDEST SWAP6 POP POP PUSH1 0xC0 DUP12 ADD CALLDATALOAD PUSH8 0xFFFFFFFFFFFFFFFF DUP2 GT ISZERO PUSH2 0x6B32 JUMPI PUSH2 0x6B31 PUSH2 0x5A80 JUMP JUMPDEST JUMPDEST PUSH2 0x6B3E DUP14 DUP3 DUP15 ADD PUSH2 0x68F8 JUMP JUMPDEST SWAP5 POP POP PUSH1 0xE0 PUSH2 0x6B4F DUP14 DUP3 DUP15 ADD PUSH2 0x5ACE JUMP JUMPDEST SWAP4 POP POP PUSH2 0x100 DUP12 ADD CALLDATALOAD PUSH8 0xFFFFFFFFFFFFFFFF DUP2 GT ISZERO PUSH2 0x6B71 JUMPI PUSH2 0x6B70 PUSH2 0x5A80 JUMP JUMPDEST JUMPDEST PUSH2 0x6B7D DUP14 DUP3 DUP15 ADD PUSH2 0x6A24 JUMP JUMPDEST SWAP3 POP POP PUSH2 0x120 PUSH2 0x6B8F DUP14 DUP3 DUP15 ADD PUSH2 0x5B04 JUMP JUMPDEST SWAP2 POP POP SWAP3 SWAP6 SWAP9 SWAP12 SWAP2 SWAP5 SWAP8 SWAP11 POP SWAP3 SWAP6 SWAP9 POP JUMP JUMPDEST PUSH1 0x0 DUP1 PUSH1 0x0 DUP1 PUSH1 0x80 DUP6 DUP8 SUB SLT ISZERO PUSH2 0x6BBB JUMPI PUSH2 0x6BBA PUSH2 0x5A7B JUMP JUMPDEST JUMPDEST PUSH1 0x0 PUSH2 0x6BC9 DUP8 DUP3 DUP9 ADD PUSH2 0x5ACE JUMP JUMPDEST SWAP5 POP POP PUSH1 0x20 PUSH2 0x6BDA DUP8 DUP3 DUP9 ADD PUSH2 0x5B04 JUMP JUMPDEST SWAP4 POP POP PUSH1 0x40 PUSH2 0x6BEB DUP8 DUP3 DUP9 ADD PUSH2 0x65BB JUMP JUMPDEST SWAP3 POP POP PUSH1 0x60 DUP6 ADD CALLDATALOAD PUSH8 0xFFFFFFFFFFFFFFFF DUP2 GT ISZERO PUSH2 0x6C0C JUMPI PUSH2 0x6C0B PUSH2 0x5A80 JUMP JUMPDEST JUMPDEST PUSH2 0x6C18 DUP8 DUP3 DUP9 ADD PUSH2 0x68F8 JUMP JUMPDEST SWAP2 POP POP SWAP3 SWAP6 SWAP2 SWAP5 POP SWAP3 POP JUMP JUMPDEST PUSH1 0x0 DUP1 PUSH1 0x0 DUP1 PUSH1 0x0 PUSH1 0x80 DUP7 DUP9 SUB SLT ISZERO PUSH2 0x6C40 JUMPI PUSH2 0x6C3F PUSH2 0x5A7B JUMP JUMPDEST JUMPDEST PUSH1 0x0 PUSH2 0x6C4E DUP9 DUP3 DUP10 ADD PUSH2 0x5ACE JUMP JUMPDEST SWAP6 POP POP PUSH1 0x20 PUSH2 0x6C5F DUP9 DUP3 DUP10 ADD PUSH2 0x5B04 JUMP JUMPDEST SWAP5 POP POP PUSH1 0x40 DUP7 ADD CALLDATALOAD PUSH8 0xFFFFFFFFFFFFFFFF DUP2 GT ISZERO PUSH2 0x6C80 JUMPI PUSH2 0x6C7F PUSH2 0x5A80 JUMP JUMPDEST JUMPDEST PUSH2 0x6C8C DUP9 DUP3 DUP10 ADD PUSH2 0x6730 JUMP JUMPDEST SWAP4 POP SWAP4 POP POP PUSH1 0x60 PUSH2 0x6C9F DUP9 DUP3 DUP10 ADD PUSH2 0x6796 JUMP JUMPDEST SWAP2 POP POP SWAP3 SWAP6 POP SWAP3 SWAP6 SWAP1 SWAP4 POP JUMP JUMPDEST PUSH1 0x0 DUP1 PUSH1 0x40 DUP4 DUP6 SUB SLT ISZERO PUSH2 0x6CC3 JUMPI PUSH2 0x6CC2 PUSH2 0x5A7B JUMP JUMPDEST JUMPDEST PUSH1 0x0 PUSH2 0x6CD1 DUP6 DUP3 DUP7 ADD PUSH2 0x5ACE JUMP JUMPDEST SWAP3 POP POP PUSH1 0x20 PUSH2 0x6CE2 DUP6 DUP3 DUP7 ADD PUSH2 0x5ACE JUMP JUMPDEST SWAP2 POP POP SWAP3 POP SWAP3 SWAP1 POP JUMP JUMPDEST PUSH1 0x0 DUP1 PUSH1 0x0 DUP1 PUSH1 0x0 PUSH1 0xA0 DUP7 DUP9 SUB SLT ISZERO PUSH2 0x6D08 JUMPI PUSH2 0x6D07 PUSH2 0x5A7B JUMP JUMPDEST JUMPDEST PUSH1 0x0 PUSH2 0x6D16 DUP9 DUP3 DUP10 ADD PUSH2 0x5ACE JUMP JUMPDEST SWAP6 POP POP PUSH1 0x20 PUSH2 0x6D27 DUP9 DUP3 DUP10 ADD PUSH2 0x5ACE JUMP JUMPDEST SWAP5 POP POP PUSH1 0x40 PUSH2 0x6D38 DUP9 DUP3 DUP10 ADD PUSH2 0x5B04 JUMP JUMPDEST SWAP4 POP POP PUSH1 0x60 PUSH2 0x6D49 DUP9 DUP3 DUP10 ADD PUSH2 0x5B04 JUMP JUMPDEST SWAP3 POP POP PUSH1 0x80 DUP7 ADD CALLDATALOAD PUSH8 0xFFFFFFFFFFFFFFFF DUP2 GT ISZERO PUSH2 0x6D6A JUMPI PUSH2 0x6D69 PUSH2 0x5A80 JUMP JUMPDEST JUMPDEST PUSH2 0x6D76 DUP9 DUP3 DUP10 ADD PUSH2 0x5F79 JUMP JUMPDEST SWAP2 POP POP SWAP3 SWAP6 POP SWAP3 SWAP6 SWAP1 SWAP4 POP JUMP JUMPDEST PUSH2 0x6D8C DUP2 PUSH2 0x645D JUMP JUMPDEST DUP3 MSTORE POP POP JUMP JUMPDEST PUSH1 0x0 PUSH1 0x20 DUP3 ADD SWAP1 POP PUSH2 0x6DA7 PUSH1 0x0 DUP4 ADD DUP5 PUSH2 0x6D83 JUMP JUMPDEST SWAP3 SWAP2 POP POP JUMP JUMPDEST PUSH1 0x0 PUSH1 0xA0 DUP3 ADD SWAP1 POP PUSH2 0x6DC2 PUSH1 0x0 DUP4 ADD DUP9 PUSH2 0x6D83 JUMP JUMPDEST PUSH2 0x6DCF PUSH1 0x20 DUP4 ADD DUP8 PUSH2 0x5B59 JUMP JUMPDEST PUSH2 0x6DDC PUSH1 0x40 DUP4 ADD DUP7 PUSH2 0x5B59 JUMP JUMPDEST PUSH2 0x6DE9 PUSH1 0x60 DUP4 ADD DUP6 PUSH2 0x5C14 JUMP JUMPDEST PUSH2 0x6DF6 PUSH1 0x80 DUP4 ADD DUP5 PUSH2 0x6701 JUMP JUMPDEST SWAP7 SWAP6 POP POP POP POP POP POP JUMP JUMPDEST PUSH32 0x455243313135353A2061646472657373207A65726F206973206E6F7420612076 PUSH1 0x0 DUP3 ADD MSTORE PUSH32 0x616C6964206F776E657200000000000000000000000000000000000000000000 PUSH1 0x20 DUP3 ADD MSTORE POP JUMP JUMPDEST PUSH1 0x0 PUSH2 0x6E5C PUSH1 0x2A DUP4 PUSH2 0x5C49 JUMP JUMPDEST SWAP2 POP PUSH2 0x6E67 DUP3 PUSH2 0x6E00 JUMP JUMPDEST PUSH1 0x40 DUP3 ADD SWAP1 POP SWAP2 SWAP1 POP JUMP JUMPDEST PUSH1 0x0 PUSH1 0x20 DUP3 ADD SWAP1 POP DUP2 DUP2 SUB PUSH1 0x0 DUP4 ADD MSTORE PUSH2 0x6E8B DUP2 PUSH2 0x6E4F JUMP JUMPDEST SWAP1 POP SWAP2 SWAP1 POP JUMP JUMPDEST PUSH32 0x4E487B7100000000000000000000000000000000000000000000000000000000 PUSH1 0x0 MSTORE PUSH1 0x22 PUSH1 0x4 MSTORE PUSH1 0x24 PUSH1 0x0 REVERT JUMPDEST PUSH1 0x0 PUSH1 0x2 DUP3 DIV SWAP1 POP PUSH1 0x1 DUP3 AND DUP1 PUSH2 0x6ED9 JUMPI PUSH1 0x7F DUP3 AND SWAP2 POP JUMPDEST PUSH1 0x20 DUP3 LT DUP2 SUB PUSH2 0x6EEC JUMPI PUSH2 0x6EEB PUSH2 0x6E92 JUMP JUMPDEST JUMPDEST POP SWAP2 SWAP1 POP JUMP JUMPDEST PUSH32 0x455243313135353A2063616C6C6572206973206E6F7420746F6B656E206F776E PUSH1 0x0 DUP3 ADD MSTORE PUSH32 0x6572206F7220617070726F766564000000000000000000000000000000000000 PUSH1 0x20 DUP3 ADD MSTORE POP JUMP JUMPDEST PUSH1 0x0 PUSH2 0x6F4E PUSH1 0x2E DUP4 PUSH2 0x5C49 JUMP JUMPDEST SWAP2 POP PUSH2 0x6F59 DUP3 PUSH2 0x6EF2 JUMP JUMPDEST PUSH1 0x40 DUP3 ADD SWAP1 POP SWAP2 SWAP1 POP JUMP JUMPDEST PUSH1 0x0 PUSH1 0x20 DUP3 ADD SWAP1 POP DUP2 DUP2 SUB PUSH1 0x0 DUP4 ADD MSTORE PUSH2 0x6F7D DUP2 PUSH2 0x6F41 JUMP JUMPDEST SWAP1 POP SWAP2 SWAP1 POP JUMP JUMPDEST PUSH32 0x416363657373436F6E74726F6C3A2063616E206F6E6C792072656E6F756E6365 PUSH1 0x0 DUP3 ADD MSTORE PUSH32 0x20726F6C657320666F722073656C660000000000000000000000000000000000 PUSH1 0x20 DUP3 ADD MSTORE POP JUMP JUMPDEST PUSH1 0x0 PUSH2 0x6FE0 PUSH1 0x2F DUP4 PUSH2 0x5C49 JUMP JUMPDEST SWAP2 POP PUSH2 0x6FEB DUP3 PUSH2 0x6F84 JUMP JUMPDEST PUSH1 0x40 DUP3 ADD SWAP1 POP SWAP2 SWAP1 POP JUMP JUMPDEST PUSH1 0x0 PUSH1 0x20 DUP3 ADD SWAP1 POP DUP2 DUP2 SUB PUSH1 0x0 DUP4 ADD MSTORE PUSH2 0x700F DUP2 PUSH2 0x6FD3 JUMP JUMPDEST SWAP1 POP SWAP2 SWAP1 POP JUMP JUMPDEST PUSH32 0x46756E6374696F6E206D7573742062652063616C6C6564207468726F75676820 PUSH1 0x0 DUP3 ADD MSTORE PUSH32 0x64656C656761746563616C6C0000000000000000000000000000000000000000 PUSH1 0x20 DUP3 ADD MSTORE POP JUMP JUMPDEST PUSH1 0x0 PUSH2 0x7072 PUSH1 0x2C DUP4 PUSH2 0x5C49 JUMP JUMPDEST SWAP2 POP PUSH2 0x707D DUP3 PUSH2 0x7016 JUMP JUMPDEST PUSH1 0x40 DUP3 ADD SWAP1 POP SWAP2 SWAP1 POP JUMP JUMPDEST PUSH1 0x0 PUSH1 0x20 DUP3 ADD SWAP1 POP DUP2 DUP2 SUB PUSH1 0x0 DUP4 ADD MSTORE PUSH2 0x70A1 DUP2 PUSH2 0x7065 JUMP JUMPDEST SWAP1 POP SWAP2 SWAP1 POP JUMP JUMPDEST PUSH32 0x46756E6374696F6E206D7573742062652063616C6C6564207468726F75676820 PUSH1 0x0 DUP3 ADD MSTORE PUSH32 0x6163746976652070726F78790000000000000000000000000000000000000000 PUSH1 0x20 DUP3 ADD MSTORE POP JUMP JUMPDEST PUSH1 0x0 PUSH2 0x7104 PUSH1 0x2C DUP4 PUSH2 0x5C49 JUMP JUMPDEST SWAP2 POP PUSH2 0x710F DUP3 PUSH2 0x70A8 JUMP JUMPDEST PUSH1 0x40 DUP3 ADD SWAP1 POP SWAP2 SWAP1 POP JUMP JUMPDEST PUSH1 0x0 PUSH1 0x20 DUP3 ADD SWAP1 POP DUP2 DUP2 SUB PUSH1 0x0 DUP4 ADD MSTORE PUSH2 0x7133 DUP2 PUSH2 0x70F7 JUMP JUMPDEST SWAP1 POP SWAP2 SWAP1 POP JUMP JUMPDEST PUSH1 0x0 DUP2 MLOAD SWAP1 POP PUSH2 0x7149 DUP2 PUSH2 0x5AED JUMP JUMPDEST SWAP3 SWAP2 POP POP JUMP JUMPDEST PUSH1 0x0 PUSH1 0x20 DUP3 DUP5 SUB SLT ISZERO PUSH2 0x7165 JUMPI PUSH2 0x7164 PUSH2 0x5A7B JUMP JUMPDEST JUMPDEST PUSH1 0x0 PUSH2 0x7173 DUP5 DUP3 DUP6 ADD PUSH2 0x713A JUMP JUMPDEST SWAP2 POP POP SWAP3 SWAP2 POP POP JUMP JUMPDEST PUSH1 0x0 PUSH1 0x40 DUP3 ADD SWAP1 POP PUSH2 0x7191 PUSH1 0x0 DUP4 ADD DUP6 PUSH2 0x6701 JUMP JUMPDEST PUSH2 0x719E PUSH1 0x20 DUP4 ADD DUP5 PUSH2 0x5B59 JUMP JUMPDEST SWAP4 SWAP3 POP POP POP JUMP JUMPDEST PUSH1 0x0 DUP2 MLOAD SWAP1 POP PUSH2 0x71B4 DUP2 PUSH2 0x60E3 JUMP JUMPDEST SWAP3 SWAP2 POP POP JUMP JUMPDEST PUSH1 0x0 PUSH1 0x20 DUP3 DUP5 SUB SLT ISZERO PUSH2 0x71D0 JUMPI PUSH2 0x71CF PUSH2 0x5A7B JUMP JUMPDEST JUMPDEST PUSH1 0x0 PUSH2 0x71DE DUP5 DUP3 DUP6 ADD PUSH2 0x71A5 JUMP JUMPDEST SWAP2 POP POP SWAP3 SWAP2 POP POP JUMP JUMPDEST PUSH32 0x455243313135353A206163636F756E747320616E6420696473206C656E677468 PUSH1 0x0 DUP3 ADD MSTORE PUSH32 0x206D69736D617463680000000000000000000000000000000000000000000000 PUSH1 0x20 DUP3 ADD MSTORE POP JUMP JUMPDEST PUSH1 0x0 PUSH2 0x7243 PUSH1 0x29 DUP4 PUSH2 0x5C49 JUMP JUMPDEST SWAP2 POP PUSH2 0x724E DUP3 PUSH2 0x71E7 JUMP JUMPDEST PUSH1 0x40 DUP3 ADD SWAP1 POP SWAP2 SWAP1 POP JUMP JUMPDEST PUSH1 0x0 PUSH1 0x20 DUP3 ADD SWAP1 POP DUP2 DUP2 SUB PUSH1 0x0 DUP4 ADD MSTORE PUSH2 0x7272 DUP2 PUSH2 0x7236 JUMP JUMPDEST SWAP1 POP SWAP2 SWAP1 POP JUMP JUMPDEST PUSH32 0x4E487B7100000000000000000000000000000000000000000000000000000000 PUSH1 0x0 MSTORE PUSH1 0x32 PUSH1 0x4 MSTORE PUSH1 0x24 PUSH1 0x0 REVERT JUMPDEST PUSH32 0x4E487B7100000000000000000000000000000000000000000000000000000000 PUSH1 0x0 MSTORE PUSH1 0x11 PUSH1 0x4 MSTORE PUSH1 0x24 PUSH1 0x0 REVERT JUMPDEST PUSH1 0x0 PUSH2 0x72E2 DUP3 PUSH2 0x5AE3 JUMP JUMPDEST SWAP2 POP PUSH32 0xFFFFFFFFFFFFFFFFFFFFFFFFFFFFFFFFFFFFFFFFFFFFFFFFFFFFFFFFFFFFFFFF DUP3 SUB PUSH2 0x7314 JUMPI PUSH2 0x7313 PUSH2 0x72A8 JUMP JUMPDEST JUMPDEST PUSH1 0x1 DUP3 ADD SWAP1 POP SWAP2 SWAP1 POP JUMP JUMPDEST PUSH32 0x555550535570677261646561626C653A206D757374206E6F742062652063616C PUSH1 0x0 DUP3 ADD MSTORE PUSH32 0x6C6564207468726F7567682064656C656761746563616C6C0000000000000000 PUSH1 0x20 DUP3 ADD MSTORE POP JUMP JUMPDEST PUSH1 0x0 PUSH2 0x737B PUSH1 0x38 DUP4 PUSH2 0x5C49 JUMP JUMPDEST SWAP2 POP PUSH2 0x7386 DUP3 PUSH2 0x731F JUMP JUMPDEST PUSH1 0x40 DUP3 ADD SWAP1 POP SWAP2 SWAP1 POP JUMP JUMPDEST PUSH1 0x0 PUSH1 0x20 DUP3 ADD SWAP1 POP DUP2 DUP2 SUB PUSH1 0x0 DUP4 ADD MSTORE PUSH2 0x73AA DUP2 PUSH2 0x736E JUMP JUMPDEST SWAP1 POP SWAP2 SWAP1 POP JUMP JUMPDEST PUSH32 0x49742773206E6F742074696D6520746F20627579207075626C69632073616C65 PUSH1 0x0 DUP3 ADD MSTORE POP JUMP JUMPDEST PUSH1 0x0 PUSH2 0x73E7 PUSH1 0x20 DUP4 PUSH2 0x5C49 JUMP JUMPDEST SWAP2 POP PUSH2 0x73F2 DUP3 PUSH2 0x73B1 JUMP JUMPDEST PUSH1 0x20 DUP3 ADD SWAP1 POP SWAP2 SWAP1 POP JUMP JUMPDEST PUSH1 0x0 PUSH1 0x20 DUP3 ADD SWAP1 POP DUP2 DUP2 SUB PUSH1 0x0 DUP4 ADD MSTORE PUSH2 0x7416 DUP2 PUSH2 0x73DA JUMP JUMPDEST SWAP1 POP SWAP2 SWAP1 POP JUMP JUMPDEST PUSH32 0x49742773206E6F742074696D6520746F20627579000000000000000000000000 PUSH1 0x0 DUP3 ADD MSTORE POP JUMP JUMPDEST PUSH1 0x0 PUSH2 0x7453 PUSH1 0x14 DUP4 PUSH2 0x5C49 JUMP JUMPDEST SWAP2 POP PUSH2 0x745E DUP3 PUSH2 0x741D JUMP JUMPDEST PUSH1 0x20 DUP3 ADD SWAP1 POP SWAP2 SWAP1 POP JUMP JUMPDEST PUSH1 0x0 PUSH1 0x20 DUP3 ADD SWAP1 POP DUP2 DUP2 SUB PUSH1 0x0 DUP4 ADD MSTORE PUSH2 0x7482 DUP2 PUSH2 0x7446 JUMP JUMPDEST SWAP1 POP SWAP2 SWAP1 POP JUMP JUMPDEST PUSH32 0x427579206C696D69742072656163686564000000000000000000000000000000 PUSH1 0x0 DUP3 ADD MSTORE POP JUMP JUMPDEST PUSH1 0x0 PUSH2 0x74BF PUSH1 0x11 DUP4 PUSH2 0x5C49 JUMP JUMPDEST SWAP2 POP PUSH2 0x74CA DUP3 PUSH2 0x7489 JUMP JUMPDEST PUSH1 0x20 DUP3 ADD SWAP1 POP SWAP2 SWAP1 POP JUMP JUMPDEST PUSH1 0x0 PUSH1 0x20 DUP3 ADD SWAP1 POP DUP2 DUP2 SUB PUSH1 0x0 DUP4 ADD MSTORE PUSH2 0x74EE DUP2 PUSH2 0x74B2 JUMP JUMPDEST SWAP1 POP SWAP2 SWAP1 POP JUMP JUMPDEST PUSH32 0x546F6B656E207479706520646F6573206E6F7420657869737400000000000000 PUSH1 0x0 DUP3 ADD MSTORE POP JUMP JUMPDEST PUSH1 0x0 PUSH2 0x752B PUSH1 0x19 DUP4 PUSH2 0x5C49 JUMP JUMPDEST SWAP2 POP PUSH2 0x7536 DUP3 PUSH2 0x74F5 JUMP JUMPDEST PUSH1 0x20 DUP3 ADD SWAP1 POP SWAP2 SWAP1 POP JUMP JUMPDEST PUSH1 0x0 PUSH1 0x20 DUP3 ADD SWAP1 POP DUP2 DUP2 SUB PUSH1 0x0 DUP4 ADD MSTORE PUSH2 0x755A DUP2 PUSH2 0x751E JUMP JUMPDEST SWAP1 POP SWAP2 SWAP1 POP JUMP JUMPDEST PUSH32 0x546F6B656E2072756E206F757400000000000000000000000000000000000000 PUSH1 0x0 DUP3 ADD MSTORE POP JUMP JUMPDEST PUSH1 0x0 PUSH2 0x7597 PUSH1 0xD DUP4 PUSH2 0x5C49 JUMP JUMPDEST SWAP2 POP PUSH2 0x75A2 DUP3 PUSH2 0x7561 JUMP JUMPDEST PUSH1 0x20 DUP3 ADD SWAP1 POP SWAP2 SWAP1 POP JUMP JUMPDEST PUSH1 0x0 PUSH1 0x20 DUP3 ADD SWAP1 POP DUP2 DUP2 SUB PUSH1 0x0 DUP4 ADD MSTORE PUSH2 0x75C6 DUP2 PUSH2 0x758A JUMP JUMPDEST SWAP1 POP SWAP2 SWAP1 POP JUMP JUMPDEST PUSH32 0x546F6B656E2069642069736E277420696E2077686974656C6973740000000000 PUSH1 0x0 DUP3 ADD MSTORE POP JUMP JUMPDEST PUSH1 0x0 PUSH2 0x7603 PUSH1 0x1B DUP4 PUSH2 0x5C49 JUMP JUMPDEST SWAP2 POP PUSH2 0x760E DUP3 PUSH2 0x75CD JUMP JUMPDEST PUSH1 0x20 DUP3 ADD SWAP1 POP SWAP2 SWAP1 POP JUMP JUMPDEST PUSH1 0x0 PUSH1 0x20 DUP3 ADD SWAP1 POP DUP2 DUP2 SUB PUSH1 0x0 DUP4 ADD MSTORE PUSH2 0x7632 DUP2 PUSH2 0x75F6 JUMP JUMPDEST SWAP1 POP SWAP2 SWAP1 POP JUMP JUMPDEST PUSH32 0x546F6B656E206964206973206D696E7465640000000000000000000000000000 PUSH1 0x0 DUP3 ADD MSTORE POP JUMP JUMPDEST PUSH1 0x0 PUSH2 0x766F PUSH1 0x12 DUP4 PUSH2 0x5C49 JUMP JUMPDEST SWAP2 POP PUSH2 0x767A DUP3 PUSH2 0x7639 JUMP JUMPDEST PUSH1 0x20 DUP3 ADD SWAP1 POP SWAP2 SWAP1 POP JUMP JUMPDEST PUSH1 0x0 PUSH1 0x20 DUP3 ADD SWAP1 POP DUP2 DUP2 SUB PUSH1 0x0 DUP4 ADD MSTORE PUSH2 0x769E DUP2 PUSH2 0x7662 JUMP JUMPDEST SWAP1 POP SWAP2 SWAP1 POP JUMP JUMPDEST PUSH32 0x55736572206E65656420686F6C6420656E6F75676820546F6B656E20746F2062 PUSH1 0x0 DUP3 ADD MSTORE PUSH32 0x75792074686973206E6674000000000000000000000000000000000000000000 PUSH1 0x20 DUP3 ADD MSTORE POP JUMP JUMPDEST PUSH1 0x0 PUSH2 0x7701 PUSH1 0x2B DUP4 PUSH2 0x5C49 JUMP JUMPDEST SWAP2 POP PUSH2 0x770C DUP3 PUSH2 0x76A5 JUMP JUMPDEST PUSH1 0x40 DUP3 ADD SWAP1 POP SWAP2 SWAP1 POP JUMP JUMPDEST PUSH1 0x0 PUSH1 0x20 DUP3 ADD SWAP1 POP DUP2 DUP2 SUB PUSH1 0x0 DUP4 ADD MSTORE PUSH2 0x7730 DUP2 PUSH2 0x76F4 JUMP JUMPDEST SWAP1 POP SWAP2 SWAP1 POP JUMP JUMPDEST PUSH1 0x0 PUSH1 0x60 DUP3 ADD SWAP1 POP PUSH2 0x774C PUSH1 0x0 DUP4 ADD DUP7 PUSH2 0x6701 JUMP JUMPDEST PUSH2 0x7759 PUSH1 0x20 DUP4 ADD DUP6 PUSH2 0x6701 JUMP JUMPDEST PUSH2 0x7766 PUSH1 0x40 DUP4 ADD DUP5 PUSH2 0x5B59 JUMP JUMPDEST SWAP5 SWAP4 POP POP POP POP JUMP JUMPDEST PUSH1 0x0 PUSH2 0x7779 DUP3 PUSH2 0x5AE3 JUMP JUMPDEST SWAP2 POP PUSH2 0x7784 DUP4 PUSH2 0x5AE3 JUMP JUMPDEST SWAP3 POP DUP3 DUP3 SUB SWAP1 POP DUP2 DUP2 GT ISZERO PUSH2 0x779C JUMPI PUSH2 0x779B PUSH2 0x72A8 JUMP JUMPDEST JUMPDEST SWAP3 SWAP2 POP POP JUMP JUMPDEST PUSH1 0x0 PUSH2 0x77AD DUP3 PUSH2 0x5AE3 JUMP JUMPDEST SWAP2 POP PUSH2 0x77B8 DUP4 PUSH2 0x5AE3 JUMP JUMPDEST SWAP3 POP DUP3 DUP3 ADD SWAP1 POP DUP1 DUP3 GT ISZERO PUSH2 0x77D0 JUMPI PUSH2 0x77CF PUSH2 0x72A8 JUMP JUMPDEST JUMPDEST SWAP3 SWAP2 POP POP JUMP JUMPDEST PUSH1 0x0 PUSH1 0xC0 DUP3 ADD SWAP1 POP PUSH2 0x77EB PUSH1 0x0 DUP4 ADD DUP10 PUSH2 0x6701 JUMP JUMPDEST PUSH2 0x77F8 PUSH1 0x20 DUP4 ADD DUP9 PUSH2 0x5B59 JUMP JUMPDEST PUSH2 0x7805 PUSH1 0x40 DUP4 ADD DUP8 PUSH2 0x6D83 JUMP JUMPDEST DUP2 DUP2 SUB PUSH1 0x60 DUP4 ADD MSTORE PUSH2 0x7817 DUP2 DUP7 PUSH2 0x5C95 JUMP JUMPDEST SWAP1 POP PUSH2 0x7826 PUSH1 0x80 DUP4 ADD DUP6 PUSH2 0x5B59 JUMP JUMPDEST PUSH2 0x7833 PUSH1 0xA0 DUP4 ADD DUP5 PUSH2 0x5B59 JUMP JUMPDEST SWAP8 SWAP7 POP POP POP POP POP POP POP JUMP JUMPDEST PUSH2 0x7847 DUP2 PUSH2 0x5AA5 JUMP JUMPDEST DUP3 MSTORE POP POP JUMP JUMPDEST PUSH2 0x7856 DUP2 PUSH2 0x5AE3 JUMP JUMPDEST DUP3 MSTORE POP POP JUMP JUMPDEST PUSH1 0x0 DUP3 DUP3 MSTORE PUSH1 0x20 DUP3 ADD SWAP1 POP SWAP3 SWAP2 POP POP JUMP JUMPDEST PUSH1 0x0 PUSH2 0x7879 DUP4 DUP6 PUSH2 0x785C JUMP JUMPDEST SWAP4 POP PUSH2 0x7886 DUP4 DUP6 DUP5 PUSH2 0x5F28 JUMP JUMPDEST PUSH2 0x788F DUP4 PUSH2 0x5C84 JUMP JUMPDEST DUP5 ADD SWAP1 POP SWAP4 SWAP3 POP POP POP JUMP JUMPDEST PUSH32 0x4E487B7100000000000000000000000000000000000000000000000000000000 PUSH1 0x0 MSTORE PUSH1 0x21 PUSH1 0x4 MSTORE PUSH1 0x24 PUSH1 0x0 REVERT JUMPDEST PUSH1 0x2 DUP2 LT PUSH2 0x78DA JUMPI PUSH2 0x78D9 PUSH2 0x789A JUMP JUMPDEST JUMPDEST POP JUMP JUMPDEST PUSH1 0x0 DUP2 SWAP1 POP PUSH2 0x78EB DUP3 PUSH2 0x78C9 JUMP JUMPDEST SWAP2 SWAP1 POP JUMP JUMPDEST PUSH1 0x0 PUSH2 0x78FB DUP3 PUSH2 0x78DD JUMP JUMPDEST SWAP1 POP SWAP2 SWAP1 POP JUMP JUMPDEST PUSH2 0x790B DUP2 PUSH2 0x78F0 JUMP JUMPDEST DUP3 MSTORE POP POP JUMP JUMPDEST PUSH1 0x0 PUSH1 0xA0 DUP3 ADD SWAP1 POP PUSH2 0x7926 PUSH1 0x0 DUP4 ADD DUP10 PUSH2 0x783E JUMP JUMPDEST PUSH2 0x7933 PUSH1 0x20 DUP4 ADD DUP9 PUSH2 0x784D JUMP JUMPDEST PUSH2 0x7940 PUSH1 0x40 DUP4 ADD DUP8 PUSH2 0x784D JUMP JUMPDEST DUP2 DUP2 SUB PUSH1 0x60 DUP4 ADD MSTORE PUSH2 0x7953 DUP2 DUP6 DUP8 PUSH2 0x786D JUMP JUMPDEST SWAP1 POP PUSH2 0x7962 PUSH1 0x80 DUP4 ADD DUP5 PUSH2 0x7902 JUMP JUMPDEST SWAP8 SWAP7 POP POP POP POP POP POP POP JUMP JUMPDEST PUSH32 0x57686974656C69737420616E642062757961626C6520616D6F756E74206C6973 PUSH1 0x0 DUP3 ADD MSTORE PUSH32 0x74206D7573742062652073616D65206C656E6774680000000000000000000000 PUSH1 0x20 DUP3 ADD MSTORE POP JUMP JUMPDEST PUSH1 0x0 PUSH2 0x79C9 PUSH1 0x35 DUP4 PUSH2 0x5C49 JUMP JUMPDEST SWAP2 POP PUSH2 0x79D4 DUP3 PUSH2 0x796D JUMP JUMPDEST PUSH1 0x40 DUP3 ADD SWAP1 POP SWAP2 SWAP1 POP JUMP JUMPDEST PUSH1 0x0 PUSH1 0x20 DUP3 ADD SWAP1 POP DUP2 DUP2 SUB PUSH1 0x0 DUP4 ADD MSTORE PUSH2 0x79F8 DUP2 PUSH2 0x79BC JUMP JUMPDEST SWAP1 POP SWAP2 SWAP1 POP JUMP JUMPDEST PUSH32 0x496E697469616C697A61626C653A20636F6E747261637420697320616C726561 PUSH1 0x0 DUP3 ADD MSTORE PUSH32 0x647920696E697469616C697A6564000000000000000000000000000000000000 PUSH1 0x20 DUP3 ADD MSTORE POP JUMP JUMPDEST PUSH1 0x0 PUSH2 0x7A5B PUSH1 0x2E DUP4 PUSH2 0x5C49 JUMP JUMPDEST SWAP2 POP PUSH2 0x7A66 DUP3 PUSH2 0x79FF JUMP JUMPDEST PUSH1 0x40 DUP3 ADD SWAP1 POP SWAP2 SWAP1 POP JUMP JUMPDEST PUSH1 0x0 PUSH1 0x20 DUP3 ADD SWAP1 POP DUP2 DUP2 SUB PUSH1 0x0 DUP4 ADD MSTORE PUSH2 0x7A8A DUP2 PUSH2 0x7A4E JUMP JUMPDEST SWAP1 POP SWAP2 SWAP1 POP JUMP JUMPDEST PUSH32 0x546F74616C20737570706C7920646F6573206E6F74206D617463680000000000 PUSH1 0x0 DUP3 ADD MSTORE POP JUMP JUMPDEST PUSH1 0x0 PUSH2 0x7AC7 PUSH1 0x1B DUP4 PUSH2 0x5C49 JUMP JUMPDEST SWAP2 POP PUSH2 0x7AD2 DUP3 PUSH2 0x7A91 JUMP JUMPDEST PUSH1 0x20 DUP3 ADD SWAP1 POP SWAP2 SWAP1 POP JUMP JUMPDEST PUSH1 0x0 PUSH1 0x20 DUP3 ADD SWAP1 POP DUP2 DUP2 SUB PUSH1 0x0 DUP4 ADD MSTORE PUSH2 0x7AF6 DUP2 PUSH2 0x7ABA JUMP JUMPDEST SWAP1 POP SWAP2 SWAP1 POP JUMP JUMPDEST PUSH1 0x0 PUSH1 0x60 DUP3 ADD SWAP1 POP PUSH2 0x7B12 PUSH1 0x0 DUP4 ADD DUP7 PUSH2 0x6D83 JUMP JUMPDEST PUSH2 0x7B1F PUSH1 0x20 DUP4 ADD DUP6 PUSH2 0x5B59 JUMP JUMPDEST PUSH2 0x7B2C PUSH1 0x40 DUP4 ADD DUP5 PUSH2 0x5B59 JUMP JUMPDEST SWAP5 SWAP4 POP POP POP POP JUMP JUMPDEST PUSH1 0x0 DUP2 SWAP1 POP DUP2 PUSH1 0x0 MSTORE PUSH1 0x20 PUSH1 0x0 KECCAK256 SWAP1 POP SWAP2 SWAP1 POP JUMP JUMPDEST PUSH1 0x0 PUSH1 0x20 PUSH1 0x1F DUP4 ADD DIV SWAP1 POP SWAP2 SWAP1 POP JUMP JUMPDEST PUSH1 0x0 DUP3 DUP3 SHL SWAP1 POP SWAP3 SWAP2 POP POP JUMP JUMPDEST PUSH1 0x0 PUSH1 0x8 DUP4 MUL PUSH2 0x7B96 PUSH32 0xFFFFFFFFFFFFFFFFFFFFFFFFFFFFFFFFFFFFFFFFFFFFFFFFFFFFFFFFFFFFFFFF DUP3 PUSH2 0x7B59 JUMP JUMPDEST PUSH2 0x7BA0 DUP7 DUP4 PUSH2 0x7B59 JUMP JUMPDEST SWAP6 POP DUP1 NOT DUP5 AND SWAP4 POP DUP1 DUP7 AND DUP5 OR SWAP3 POP POP POP SWAP4 SWAP3 POP POP POP JUMP JUMPDEST PUSH1 0x0 PUSH2 0x7BD3 PUSH2 0x7BCE PUSH2 0x7BC9 DUP5 PUSH2 0x5AE3 JUMP JUMPDEST PUSH2 0x6634 JUMP JUMPDEST PUSH2 0x5AE3 JUMP JUMPDEST SWAP1 POP SWAP2 SWAP1 POP JUMP JUMPDEST PUSH1 0x0 DUP2 SWAP1 POP SWAP2 SWAP1 POP JUMP JUMPDEST PUSH2 0x7BED DUP4 PUSH2 0x7BB8 JUMP JUMPDEST PUSH2 0x7C01 PUSH2 0x7BF9 DUP3 PUSH2 0x7BDA JUMP JUMPDEST DUP5 DUP5 SLOAD PUSH2 0x7B66 JUMP JUMPDEST DUP3 SSTORE POP POP POP POP JUMP JUMPDEST PUSH1 0x0 SWAP1 JUMP JUMPDEST PUSH2 0x7C16 PUSH2 0x7C09 JUMP JUMPDEST PUSH2 0x7C21 DUP2 DUP5 DUP5 PUSH2 0x7BE4 JUMP JUMPDEST POP POP POP JUMP JUMPDEST JUMPDEST DUP2 DUP2 LT ISZERO PUSH2 0x7C45 JUMPI PUSH2 0x7C3A PUSH1 0x0 DUP3 PUSH2 0x7C0E JUMP JUMPDEST PUSH1 0x1 DUP2 ADD SWAP1 POP PUSH2 0x7C27 JUMP JUMPDEST POP POP JUMP JUMPDEST PUSH1 0x1F DUP3 GT ISZERO PUSH2 0x7C8A JUMPI PUSH2 0x7C5B DUP2 PUSH2 0x7B34 JUMP JUMPDEST PUSH2 0x7C64 DUP5 PUSH2 0x7B49 JUMP JUMPDEST DUP2 ADD PUSH1 0x20 DUP6 LT ISZERO PUSH2 0x7C73 JUMPI DUP2 SWAP1 POP JUMPDEST PUSH2 0x7C87 PUSH2 0x7C7F DUP6 PUSH2 0x7B49 JUMP JUMPDEST DUP4 ADD DUP3 PUSH2 0x7C26 JUMP JUMPDEST POP POP JUMPDEST POP POP POP JUMP JUMPDEST PUSH1 0x0 DUP3 DUP3 SHR SWAP1 POP SWAP3 SWAP2 POP POP JUMP JUMPDEST PUSH1 0x0 PUSH2 0x7CAD PUSH1 0x0 NOT DUP5 PUSH1 0x8 MUL PUSH2 0x7C8F JUMP JUMPDEST NOT DUP1 DUP4 AND SWAP2 POP POP SWAP3 SWAP2 POP POP JUMP JUMPDEST PUSH1 0x0 PUSH2 0x7CC6 DUP4 DUP4 PUSH2 0x7C9C JUMP JUMPDEST SWAP2 POP DUP3 PUSH1 0x2 MUL DUP3 OR SWAP1 POP SWAP3 SWAP2 POP POP JUMP JUMPDEST PUSH2 0x7CDF DUP3 PUSH2 0x5C3E JUMP JUMPDEST PUSH8 0xFFFFFFFFFFFFFFFF DUP2 GT ISZERO PUSH2 0x7CF8 JUMPI PUSH2 0x7CF7 PUSH2 0x5DAF JUMP JUMPDEST JUMPDEST PUSH2 0x7D02 DUP3 SLOAD PUSH2 0x6EC1 JUMP JUMPDEST PUSH2 0x7D0D DUP3 DUP3 DUP6 PUSH2 0x7C49 JUMP JUMPDEST PUSH1 0x0 PUSH1 0x20 SWAP1 POP PUSH1 0x1F DUP4 GT PUSH1 0x1 DUP2 EQ PUSH2 0x7D40 JUMPI PUSH1 0x0 DUP5 ISZERO PUSH2 0x7D2E JUMPI DUP3 DUP8 ADD MLOAD SWAP1 POP JUMPDEST PUSH2 0x7D38 DUP6 DUP3 PUSH2 0x7CBA JUMP JUMPDEST DUP7 SSTORE POP PUSH2 0x7DA0 JUMP JUMPDEST PUSH1 0x1F NOT DUP5 AND PUSH2 0x7D4E DUP7 PUSH2 0x7B34 JUMP JUMPDEST PUSH1 0x0 JUMPDEST DUP3 DUP2 LT ISZERO PUSH2 0x7D76 JUMPI DUP5 DUP10 ADD MLOAD DUP3 SSTORE PUSH1 0x1 DUP3 ADD SWAP2 POP PUSH1 0x20 DUP6 ADD SWAP5 POP PUSH1 0x20 DUP2 ADD SWAP1 POP PUSH2 0x7D51 JUMP JUMPDEST DUP7 DUP4 LT ISZERO PUSH2 0x7D93 JUMPI DUP5 DUP10 ADD MLOAD PUSH2 0x7D8F PUSH1 0x1F DUP10 AND DUP3 PUSH2 0x7C9C JUMP JUMPDEST DUP4 SSTORE POP JUMPDEST PUSH1 0x1 PUSH1 0x2 DUP9 MUL ADD DUP9 SSTORE POP POP POP JUMPDEST POP POP POP POP POP POP JUMP JUMPDEST PUSH1 0x0 DUP2 SWAP1 POP SWAP2 SWAP1 POP JUMP JUMPDEST PUSH1 0x0 PUSH2 0x7DCD PUSH2 0x7DC8 PUSH2 0x7DC3 DUP5 PUSH2 0x7DA8 JUMP JUMPDEST PUSH2 0x6634 JUMP JUMPDEST PUSH2 0x645D JUMP JUMPDEST SWAP1 POP SWAP2 SWAP1 POP JUMP JUMPDEST PUSH2 0x7DDD DUP2 PUSH2 0x7DB2 JUMP JUMPDEST DUP3 MSTORE POP POP JUMP JUMPDEST PUSH1 0x0 PUSH1 0x20 DUP3 ADD SWAP1 POP PUSH2 0x7DF8 PUSH1 0x0 DUP4 ADD DUP5 PUSH2 0x7DD4 JUMP JUMPDEST SWAP3 SWAP2 POP POP JUMP JUMPDEST PUSH1 0x0 DUP2 SWAP1 POP SWAP3 SWAP2 POP POP JUMP JUMPDEST PUSH1 0x0 PUSH2 0x7E14 DUP3 PUSH2 0x5C3E JUMP JUMPDEST PUSH2 0x7E1E DUP2 DUP6 PUSH2 0x7DFE JUMP JUMPDEST SWAP4 POP PUSH2 0x7E2E DUP2 DUP6 PUSH1 0x20 DUP7 ADD PUSH2 0x5C5A JUMP JUMPDEST DUP1 DUP5 ADD SWAP2 POP POP SWAP3 SWAP2 POP POP JUMP JUMPDEST PUSH1 0x0 PUSH2 0x7E46 DUP3 DUP5 PUSH2 0x7E09 JUMP JUMPDEST SWAP2 POP DUP2 SWAP1 POP SWAP3 SWAP2 POP POP JUMP JUMPDEST PUSH32 0x4769667420636F646520697320616C7265616479206163746976617465640000 PUSH1 0x0 DUP3 ADD MSTORE POP JUMP JUMPDEST PUSH1 0x0 PUSH2 0x7E87 PUSH1 0x1E DUP4 PUSH2 0x5C49 JUMP JUMPDEST SWAP2 POP PUSH2 0x7E92 DUP3 PUSH2 0x7E51 JUMP JUMPDEST PUSH1 0x20 DUP3 ADD SWAP1 POP SWAP2 SWAP1 POP JUMP JUMPDEST PUSH1 0x0 PUSH1 0x20 DUP3 ADD SWAP1 POP DUP2 DUP2 SUB PUSH1 0x0 DUP4 ADD MSTORE PUSH2 0x7EB6 DUP2 PUSH2 0x7E7A JUMP JUMPDEST SWAP1 POP SWAP2 SWAP1 POP JUMP JUMPDEST PUSH1 0x0 PUSH1 0xA0 DUP3 ADD SWAP1 POP PUSH2 0x7ED2 PUSH1 0x0 DUP4 ADD DUP9 PUSH2 0x6701 JUMP JUMPDEST PUSH2 0x7EDF PUSH1 0x20 DUP4 ADD DUP8 PUSH2 0x5B59 JUMP JUMPDEST PUSH2 0x7EEC PUSH1 0x40 DUP4 ADD DUP7 PUSH2 0x6D83 JUMP JUMPDEST DUP2 DUP2 SUB PUSH1 0x60 DUP4 ADD MSTORE PUSH2 0x7EFE DUP2 DUP6 PUSH2 0x5C95 JUMP JUMPDEST SWAP1 POP DUP2 DUP2 SUB PUSH1 0x80 DUP4 ADD MSTORE PUSH2 0x7F12 DUP2 DUP5 PUSH2 0x5C95 JUMP JUMPDEST SWAP1 POP SWAP7 SWAP6 POP POP POP POP POP POP JUMP JUMPDEST PUSH1 0x0 DUP2 SWAP1 POP SWAP2 SWAP1 POP JUMP JUMPDEST PUSH1 0x0 PUSH2 0x7F43 PUSH2 0x7F3E PUSH2 0x7F39 DUP5 PUSH2 0x7F1E JUMP JUMPDEST PUSH2 0x6634 JUMP JUMPDEST PUSH2 0x5AE3 JUMP JUMPDEST SWAP1 POP SWAP2 SWAP1 POP JUMP JUMPDEST PUSH2 0x7F53 DUP2 PUSH2 0x7F28 JUMP JUMPDEST DUP3 MSTORE POP POP JUMP JUMPDEST PUSH1 0x0 PUSH1 0xC0 DUP3 ADD SWAP1 POP PUSH2 0x7F6E PUSH1 0x0 DUP4 ADD DUP10 PUSH2 0x6701 JUMP JUMPDEST PUSH2 0x7F7B PUSH1 0x20 DUP4 ADD DUP9 PUSH2 0x5B59 JUMP JUMPDEST PUSH2 0x7F88 PUSH1 0x40 DUP4 ADD DUP8 PUSH2 0x6D83 JUMP JUMPDEST DUP2 DUP2 SUB PUSH1 0x60 DUP4 ADD MSTORE PUSH2 0x7F9A DUP2 DUP7 PUSH2 0x5C95 JUMP JUMPDEST SWAP1 POP PUSH2 0x7FA9 PUSH1 0x80 DUP4 ADD DUP6 PUSH2 0x7F4A JUMP JUMPDEST PUSH2 0x7FB6 PUSH1 0xA0 DUP4 ADD DUP5 PUSH2 0x7F4A JUMP JUMPDEST SWAP8 SWAP7 POP POP POP POP POP POP POP JUMP JUMPDEST PUSH1 0x0 PUSH1 0x80 DUP3 ADD SWAP1 POP PUSH2 0x7FD6 PUSH1 0x0 DUP4 ADD DUP9 PUSH2 0x783E JUMP JUMPDEST PUSH2 0x7FE3 PUSH1 0x20 DUP4 ADD DUP8 PUSH2 0x784D JUMP JUMPDEST DUP2 DUP2 SUB PUSH1 0x40 DUP4 ADD MSTORE PUSH2 0x7FF6 DUP2 DUP6 DUP8 PUSH2 0x786D JUMP JUMPDEST SWAP1 POP PUSH2 0x8005 PUSH1 0x60 DUP4 ADD DUP5 PUSH2 0x7902 JUMP JUMPDEST SWAP7 SWAP6 POP POP POP POP POP POP JUMP JUMPDEST PUSH32 0x4F776E61626C653A206E6577206F776E657220697320746865207A65726F2061 PUSH1 0x0 DUP3 ADD MSTORE PUSH32 0x6464726573730000000000000000000000000000000000000000000000000000 PUSH1 0x20 DUP3 ADD MSTORE POP JUMP JUMPDEST PUSH1 0x0 PUSH2 0x806B PUSH1 0x26 DUP4 PUSH2 0x5C49 JUMP JUMPDEST SWAP2 POP PUSH2 0x8076 DUP3 PUSH2 0x800F JUMP JUMPDEST PUSH1 0x40 DUP3 ADD SWAP1 POP SWAP2 SWAP1 POP JUMP JUMPDEST PUSH1 0x0 PUSH1 0x20 DUP3 ADD SWAP1 POP DUP2 DUP2 SUB PUSH1 0x0 DUP4 ADD MSTORE PUSH2 0x809A DUP2 PUSH2 0x805E JUMP JUMPDEST SWAP1 POP SWAP2 SWAP1 POP JUMP JUMPDEST PUSH32 0x49742773206E6F742074696D6520746F206275792077686974656C6973742073 PUSH1 0x0 DUP3 ADD MSTORE PUSH32 0x616C650000000000000000000000000000000000000000000000000000000000 PUSH1 0x20 DUP3 ADD MSTORE POP JUMP JUMPDEST PUSH1 0x0 PUSH2 0x80FD PUSH1 0x23 DUP4 PUSH2 0x5C49 JUMP JUMPDEST SWAP2 POP PUSH2 0x8108 DUP3 PUSH2 0x80A1 JUMP JUMPDEST PUSH1 0x40 DUP3 ADD SWAP1 POP SWAP2 SWAP1 POP JUMP JUMPDEST PUSH1 0x0 PUSH1 0x20 DUP3 ADD SWAP1 POP DUP2 DUP2 SUB PUSH1 0x0 DUP4 ADD MSTORE PUSH2 0x812C DUP2 PUSH2 0x80F0 JUMP JUMPDEST SWAP1 POP SWAP2 SWAP1 POP JUMP JUMPDEST PUSH32 0x55736572206E6F7420696E2077686974656C697374206F72206C696D69742072 PUSH1 0x0 DUP3 ADD MSTORE PUSH32 0x6561636865640000000000000000000000000000000000000000000000000000 PUSH1 0x20 DUP3 ADD MSTORE POP JUMP JUMPDEST PUSH1 0x0 PUSH2 0x818F PUSH1 0x26 DUP4 PUSH2 0x5C49 JUMP JUMPDEST SWAP2 POP PUSH2 0x819A DUP3 PUSH2 0x8133 JUMP JUMPDEST PUSH1 0x40 DUP3 ADD SWAP1 POP SWAP2 SWAP1 POP JUMP JUMPDEST PUSH1 0x0 PUSH1 0x20 DUP3 ADD SWAP1 POP DUP2 DUP2 SUB PUSH1 0x0 DUP4 ADD MSTORE PUSH2 0x81BE DUP2 PUSH2 0x8182 JUMP JUMPDEST SWAP1 POP SWAP2 SWAP1 POP JUMP JUMPDEST PUSH32 0x455243313135353A2069647320616E6420616D6F756E7473206C656E67746820 PUSH1 0x0 DUP3 ADD MSTORE PUSH32 0x6D69736D61746368000000000000000000000000000000000000000000000000 PUSH1 0x20 DUP3 ADD MSTORE POP JUMP JUMPDEST PUSH1 0x0 PUSH2 0x8221 PUSH1 0x28 DUP4 PUSH2 0x5C49 JUMP JUMPDEST SWAP2 POP PUSH2 0x822C DUP3 PUSH2 0x81C5 JUMP JUMPDEST PUSH1 0x40 DUP3 ADD SWAP1 POP SWAP2 SWAP1 POP JUMP JUMPDEST PUSH1 0x0 PUSH1 0x20 DUP3 ADD SWAP1 POP DUP2 DUP2 SUB PUSH1 0x0 DUP4 ADD MSTORE PUSH2 0x8250 DUP2 PUSH2 0x8214 JUMP JUMPDEST SWAP1 POP SWAP2 SWAP1 POP JUMP JUMPDEST PUSH32 0x455243313135353A207472616E7366657220746F20746865207A65726F206164 PUSH1 0x0 DUP3 ADD MSTORE PUSH32 0x6472657373000000000000000000000000000000000000000000000000000000 PUSH1 0x20 DUP3 ADD MSTORE POP JUMP JUMPDEST PUSH1 0x0 PUSH2 0x82B3 PUSH1 0x25 DUP4 PUSH2 0x5C49 JUMP JUMPDEST SWAP2 POP PUSH2 0x82BE DUP3 PUSH2 0x8257 JUMP JUMPDEST PUSH1 0x40 DUP3 ADD SWAP1 POP SWAP2 SWAP1 POP JUMP JUMPDEST PUSH1 0x0 PUSH1 0x20 DUP3 ADD SWAP1 POP DUP2 DUP2 SUB PUSH1 0x0 DUP4 ADD MSTORE PUSH2 0x82E2 DUP2 PUSH2 0x82A6 JUMP JUMPDEST SWAP1 POP SWAP2 SWAP1 POP JUMP JUMPDEST PUSH32 0x455243313135353A20696E73756666696369656E742062616C616E636520666F PUSH1 0x0 DUP3 ADD MSTORE PUSH32 0x72207472616E7366657200000000000000000000000000000000000000000000 PUSH1 0x20 DUP3 ADD MSTORE POP JUMP JUMPDEST PUSH1 0x0 PUSH2 0x8345 PUSH1 0x2A DUP4 PUSH2 0x5C49 JUMP JUMPDEST SWAP2 POP PUSH2 0x8350 DUP3 PUSH2 0x82E9 JUMP JUMPDEST PUSH1 0x40 DUP3 ADD SWAP1 POP SWAP2 SWAP1 POP JUMP JUMPDEST PUSH1 0x0 PUSH1 0x20 DUP3 ADD SWAP1 POP DUP2 DUP2 SUB PUSH1 0x0 DUP4 ADD MSTORE PUSH2 0x8374 DUP2 PUSH2 0x8338 JUMP JUMPDEST SWAP1 POP SWAP2 SWAP1 POP JUMP JUMPDEST PUSH1 0x0 PUSH1 0x40 DUP3 ADD SWAP1 POP DUP2 DUP2 SUB PUSH1 0x0 DUP4 ADD MSTORE PUSH2 0x8395 DUP2 DUP6 PUSH2 0x6355 JUMP JUMPDEST SWAP1 POP DUP2 DUP2 SUB PUSH1 0x20 DUP4 ADD MSTORE PUSH2 0x83A9 DUP2 DUP5 PUSH2 0x6355 JUMP JUMPDEST SWAP1 POP SWAP4 SWAP3 POP POP POP JUMP JUMPDEST PUSH1 0x0 DUP2 MLOAD SWAP1 POP PUSH2 0x83C1 DUP2 PUSH2 0x5D27 JUMP JUMPDEST SWAP3 SWAP2 POP POP JUMP JUMPDEST PUSH1 0x0 PUSH1 0x20 DUP3 DUP5 SUB SLT ISZERO PUSH2 0x83DD JUMPI PUSH2 0x83DC PUSH2 0x5A7B JUMP JUMPDEST JUMPDEST PUSH1 0x0 PUSH2 0x83EB DUP5 DUP3 DUP6 ADD PUSH2 0x83B2 JUMP JUMPDEST SWAP2 POP POP SWAP3 SWAP2 POP POP JUMP JUMPDEST PUSH32 0x45524331393637557067726164653A206E657720696D706C656D656E74617469 PUSH1 0x0 DUP3 ADD MSTORE PUSH32 0x6F6E206973206E6F742055555053000000000000000000000000000000000000 PUSH1 0x20 DUP3 ADD MSTORE POP JUMP JUMPDEST PUSH1 0x0 PUSH2 0x8450 PUSH1 0x2E DUP4 PUSH2 0x5C49 JUMP JUMPDEST SWAP2 POP PUSH2 0x845B DUP3 PUSH2 0x83F4 JUMP JUMPDEST PUSH1 0x40 DUP3 ADD SWAP1 POP SWAP2 SWAP1 POP JUMP JUMPDEST PUSH1 0x0 PUSH1 0x20 DUP3 ADD SWAP1 POP DUP2 DUP2 SUB PUSH1 0x0 DUP4 ADD MSTORE PUSH2 0x847F DUP2 PUSH2 0x8443 JUMP JUMPDEST SWAP1 POP SWAP2 SWAP1 POP JUMP JUMPDEST PUSH32 0x45524331393637557067726164653A20756E737570706F727465642070726F78 PUSH1 0x0 DUP3 ADD MSTORE PUSH32 0x6961626C65555549440000000000000000000000000000000000000000000000 PUSH1 0x20 DUP3 ADD MSTORE POP JUMP JUMPDEST PUSH1 0x0 PUSH2 0x84E2 PUSH1 0x29 DUP4 PUSH2 0x5C49 JUMP JUMPDEST SWAP2 POP PUSH2 0x84ED DUP3 PUSH2 0x8486 JUMP JUMPDEST PUSH1 0x40 DUP3 ADD SWAP1 POP SWAP2 SWAP1 POP JUMP JUMPDEST PUSH1 0x0 PUSH1 0x20 DUP3 ADD SWAP1 POP DUP2 DUP2 SUB PUSH1 0x0 DUP4 ADD MSTORE PUSH2 0x8511 DUP2 PUSH2 0x84D5 JUMP JUMPDEST SWAP1 POP SWAP2 SWAP1 POP JUMP JUMPDEST PUSH32 0x4F776E61626C653A2063616C6C6572206973206E6F7420746865206F776E6572 PUSH1 0x0 DUP3 ADD MSTORE POP JUMP JUMPDEST PUSH1 0x0 PUSH2 0x854E PUSH1 0x20 DUP4 PUSH2 0x5C49 JUMP JUMPDEST SWAP2 POP PUSH2 0x8559 DUP3 PUSH2 0x8518 JUMP JUMPDEST PUSH1 0x20 DUP3 ADD SWAP1 POP SWAP2 SWAP1 POP JUMP JUMPDEST PUSH1 0x0 PUSH1 0x20 DUP3 ADD SWAP1 POP DUP2 DUP2 SUB PUSH1 0x0 DUP4 ADD MSTORE PUSH2 0x857D DUP2 PUSH2 0x8541 JUMP JUMPDEST SWAP1 POP SWAP2 SWAP1 POP JUMP JUMPDEST PUSH1 0x0 PUSH2 0xFFFF DUP3 AND SWAP1 POP SWAP2 SWAP1 POP JUMP JUMPDEST PUSH2 0x859B DUP2 PUSH2 0x8584 JUMP JUMPDEST DUP2 EQ PUSH2 0x85A6 JUMPI PUSH1 0x0 DUP1 REVERT JUMPDEST POP JUMP JUMPDEST PUSH1 0x0 DUP2 MLOAD SWAP1 POP PUSH2 0x85B8 DUP2 PUSH2 0x8592 JUMP JUMPDEST SWAP3 SWAP2 POP POP JUMP JUMPDEST PUSH1 0x0 PUSH1 0x20 DUP3 DUP5 SUB SLT ISZERO PUSH2 0x85D4 JUMPI PUSH2 0x85D3 PUSH2 0x5A7B JUMP JUMPDEST JUMPDEST PUSH1 0x0 PUSH2 0x85E2 DUP5 DUP3 DUP6 ADD PUSH2 0x85A9 JUMP JUMPDEST SWAP2 POP POP SWAP3 SWAP2 POP POP JUMP JUMPDEST PUSH32 0x4E487B7100000000000000000000000000000000000000000000000000000000 PUSH1 0x0 MSTORE PUSH1 0x12 PUSH1 0x4 MSTORE PUSH1 0x24 PUSH1 0x0 REVERT JUMPDEST PUSH1 0x0 PUSH2 0x8625 DUP3 PUSH2 0x5AE3 JUMP JUMPDEST SWAP2 POP PUSH2 0x8630 DUP4 PUSH2 0x5AE3 JUMP JUMPDEST SWAP3 POP DUP3 PUSH2 0x8640 JUMPI PUSH2 0x863F PUSH2 0x85EB JUMP JUMPDEST JUMPDEST DUP3 DUP3 DIV SWAP1 POP SWAP3 SWAP2 POP POP JUMP JUMPDEST PUSH1 0x0 PUSH2 0x8656 DUP3 PUSH2 0x5AE3 JUMP JUMPDEST SWAP2 POP PUSH2 0x8661 DUP4 PUSH2 0x5AE3 JUMP JUMPDEST SWAP3 POP DUP3 DUP3 MUL PUSH2 0x866F DUP2 PUSH2 0x5AE3 JUMP JUMPDEST SWAP2 POP DUP3 DUP3 DIV DUP5 EQ DUP4 ISZERO OR PUSH2 0x8686 JUMPI PUSH2 0x8685 PUSH2 0x72A8 JUMP JUMPDEST JUMPDEST POP SWAP3 SWAP2 POP POP JUMP JUMPDEST PUSH32 0x455243313135353A206D696E7420746F20746865207A65726F20616464726573 PUSH1 0x0 DUP3 ADD MSTORE PUSH32 0x7300000000000000000000000000000000000000000000000000000000000000 PUSH1 0x20 DUP3 ADD MSTORE POP JUMP JUMPDEST PUSH1 0x0 PUSH2 0x86E9 PUSH1 0x21 DUP4 PUSH2 0x5C49 JUMP JUMPDEST SWAP2 POP PUSH2 0x86F4 DUP3 PUSH2 0x868D JUMP JUMPDEST PUSH1 0x40 DUP3 ADD SWAP1 POP SWAP2 SWAP1 POP JUMP JUMPDEST PUSH1 0x0 PUSH1 0x20 DUP3 ADD SWAP1 POP DUP2 DUP2 SUB PUSH1 0x0 DUP4 ADD MSTORE PUSH2 0x8718 DUP2 PUSH2 0x86DC JUMP JUMPDEST SWAP1 POP SWAP2 SWAP1 POP JUMP JUMPDEST PUSH1 0x0 PUSH1 0x40 DUP3 ADD SWAP1 POP PUSH2 0x8734 PUSH1 0x0 DUP4 ADD DUP6 PUSH2 0x5B59 JUMP JUMPDEST PUSH2 0x8741 PUSH1 0x20 DUP4 ADD DUP5 PUSH2 0x5B59 JUMP JUMPDEST SWAP4 SWAP3 POP POP POP JUMP JUMPDEST PUSH32 0x455243313135353A2073657474696E6720617070726F76616C20737461747573 PUSH1 0x0 DUP3 ADD MSTORE PUSH32 0x20666F722073656C660000000000000000000000000000000000000000000000 PUSH1 0x20 DUP3 ADD MSTORE POP JUMP JUMPDEST PUSH1 0x0 PUSH2 0x87A4 PUSH1 0x29 DUP4 PUSH2 0x5C49 JUMP JUMPDEST SWAP2 POP PUSH2 0x87AF DUP3 PUSH2 0x8748 JUMP JUMPDEST PUSH1 0x40 DUP3 ADD SWAP1 POP SWAP2 SWAP1 POP JUMP JUMPDEST PUSH1 0x0 PUSH1 0x20 DUP3 ADD SWAP1 POP DUP2 DUP2 SUB PUSH1 0x0 DUP4 ADD MSTORE PUSH2 0x87D3 DUP2 PUSH2 0x8797 JUMP JUMPDEST SWAP1 POP SWAP2 SWAP1 POP JUMP JUMPDEST PUSH32 0x496E697469616C697A61626C653A20636F6E7472616374206973206E6F742069 PUSH1 0x0 DUP3 ADD MSTORE PUSH32 0x6E697469616C697A696E67000000000000000000000000000000000000000000 PUSH1 0x20 DUP3 ADD MSTORE POP JUMP JUMPDEST PUSH1 0x0 PUSH2 0x8836 PUSH1 0x2B DUP4 PUSH2 0x5C49 JUMP JUMPDEST SWAP2 POP PUSH2 0x8841 DUP3 PUSH2 0x87DA JUMP JUMPDEST PUSH1 0x40 DUP3 ADD SWAP1 POP SWAP2 SWAP1 POP JUMP JUMPDEST PUSH1 0x0 PUSH1 0x20 DUP3 ADD SWAP1 POP DUP2 DUP2 SUB PUSH1 0x0 DUP4 ADD MSTORE PUSH2 0x8865 DUP2 PUSH2 0x8829 JUMP JUMPDEST SWAP1 POP SWAP2 SWAP1 POP JUMP JUMPDEST PUSH1 0x0 DUP2 MLOAD SWAP1 POP SWAP2 SWAP1 POP JUMP JUMPDEST PUSH1 0x0 DUP3 DUP3 MSTORE PUSH1 0x20 DUP3 ADD SWAP1 POP SWAP3 SWAP2 POP POP JUMP JUMPDEST PUSH1 0x0 PUSH2 0x8893 DUP3 PUSH2 0x886C JUMP JUMPDEST PUSH2 0x889D DUP2 DUP6 PUSH2 0x8877 JUMP JUMPDEST SWAP4 POP PUSH2 0x88AD DUP2 DUP6 PUSH1 0x20 DUP7 ADD PUSH2 0x5C5A JUMP JUMPDEST PUSH2 0x88B6 DUP2 PUSH2 0x5C84 JUMP JUMPDEST DUP5 ADD SWAP2 POP POP SWAP3 SWAP2 POP POP JUMP JUMPDEST PUSH1 0x0 PUSH1 0xA0 DUP3 ADD SWAP1 POP PUSH2 0x88D6 PUSH1 0x0 DUP4 ADD DUP9 PUSH2 0x6701 JUMP JUMPDEST PUSH2 0x88E3 PUSH1 0x20 DUP4 ADD DUP8 PUSH2 0x6701 JUMP JUMPDEST DUP2 DUP2 SUB PUSH1 0x40 DUP4 ADD MSTORE PUSH2 0x88F5 DUP2 DUP7 PUSH2 0x6355 JUMP JUMPDEST SWAP1 POP DUP2 DUP2 SUB PUSH1 0x60 DUP4 ADD MSTORE PUSH2 0x8909 DUP2 DUP6 PUSH2 0x6355 JUMP JUMPDEST SWAP1 POP DUP2 DUP2 SUB PUSH1 0x80 DUP4 ADD MSTORE PUSH2 0x891D DUP2 DUP5 PUSH2 0x8888 JUMP JUMPDEST SWAP1 POP SWAP7 SWAP6 POP POP POP POP POP POP JUMP JUMPDEST PUSH1 0x0 DUP2 MLOAD SWAP1 POP PUSH2 0x8938 DUP2 PUSH2 0x5BAF JUMP JUMPDEST SWAP3 SWAP2 POP POP JUMP JUMPDEST PUSH1 0x0 PUSH1 0x20 DUP3 DUP5 SUB SLT ISZERO PUSH2 0x8954 JUMPI PUSH2 0x8953 PUSH2 0x5A7B JUMP JUMPDEST JUMPDEST PUSH1 0x0 PUSH2 0x8962 DUP5 DUP3 DUP6 ADD PUSH2 0x8929 JUMP JUMPDEST SWAP2 POP POP SWAP3 SWAP2 POP POP JUMP JUMPDEST PUSH1 0x0 DUP2 PUSH1 0xE0 SHR SWAP1 POP SWAP2 SWAP1 POP JUMP JUMPDEST PUSH1 0x0 PUSH1 0x3 RETURNDATASIZE GT ISZERO PUSH2 0x8997 JUMPI PUSH1 0x4 PUSH1 0x0 DUP1 RETURNDATACOPY PUSH2 0x8994 PUSH1 0x0 MLOAD PUSH2 0x896B JUMP JUMPDEST SWAP1 POP JUMPDEST SWAP1 JUMP JUMPDEST PUSH1 0x0 PUSH1 0x44 RETURNDATASIZE LT PUSH2 0x8A27 JUMPI PUSH2 0x89AC PUSH2 0x5A71 JUMP JUMPDEST PUSH1 0x4 RETURNDATASIZE SUB PUSH1 0x4 DUP3 RETURNDATACOPY DUP1 MLOAD RETURNDATASIZE PUSH1 0x24 DUP3 ADD GT PUSH8 0xFFFFFFFFFFFFFFFF DUP3 GT OR ISZERO PUSH2 0x89D4 JUMPI POP POP PUSH2 0x8A27 JUMP JUMPDEST DUP1 DUP3 ADD DUP1 MLOAD PUSH8 0xFFFFFFFFFFFFFFFF DUP2 GT ISZERO PUSH2 0x89F2 JUMPI POP POP POP POP PUSH2 0x8A27 JUMP JUMPDEST DUP1 PUSH1 0x20 DUP4 ADD ADD PUSH1 0x4 RETURNDATASIZE SUB DUP6 ADD DUP2 GT ISZERO PUSH2 0x8A0F JUMPI POP POP POP POP POP PUSH2 0x8A27 JUMP JUMPDEST PUSH2 0x8A1E DUP3 PUSH1 0x20 ADD DUP6 ADD DUP7 PUSH2 0x5DDE JUMP JUMPDEST DUP3 SWAP6 POP POP POP POP POP POP JUMPDEST SWAP1 JUMP JUMPDEST PUSH32 0x455243313135353A207472616E7366657220746F206E6F6E2D45524331313535 PUSH1 0x0 DUP3 ADD MSTORE PUSH32 0x526563656976657220696D706C656D656E746572000000000000000000000000 PUSH1 0x20 DUP3 ADD MSTORE POP JUMP JUMPDEST PUSH1 0x0 PUSH2 0x8A86 PUSH1 0x34 DUP4 PUSH2 0x5C49 JUMP JUMPDEST SWAP2 POP PUSH2 0x8A91 DUP3 PUSH2 0x8A2A JUMP JUMPDEST PUSH1 0x40 DUP3 ADD SWAP1 POP SWAP2 SWAP1 POP JUMP JUMPDEST PUSH1 0x0 PUSH1 0x20 DUP3 ADD SWAP1 POP DUP2 DUP2 SUB PUSH1 0x0 DUP4 ADD MSTORE PUSH2 0x8AB5 DUP2 PUSH2 0x8A79 JUMP JUMPDEST SWAP1 POP SWAP2 SWAP1 POP JUMP JUMPDEST PUSH32 0x455243313135353A204552433131353552656365697665722072656A65637465 PUSH1 0x0 DUP3 ADD MSTORE PUSH32 0x6420746F6B656E73000000000000000000000000000000000000000000000000 PUSH1 0x20 DUP3 ADD MSTORE POP JUMP JUMPDEST PUSH1 0x0 PUSH2 0x8B18 PUSH1 0x28 DUP4 PUSH2 0x5C49 JUMP JUMPDEST SWAP2 POP PUSH2 0x8B23 DUP3 PUSH2 0x8ABC JUMP JUMPDEST PUSH1 0x40 DUP3 ADD SWAP1 POP SWAP2 SWAP1 POP JUMP JUMPDEST PUSH1 0x0 PUSH1 0x20 DUP3 ADD SWAP1 POP DUP2 DUP2 SUB PUSH1 0x0 DUP4 ADD MSTORE PUSH2 0x8B47 DUP2 PUSH2 0x8B0B JUMP JUMPDEST SWAP1 POP SWAP2 SWAP1 POP JUMP JUMPDEST PUSH32 0x416363657373436F6E74726F6C3A206163636F756E7420000000000000000000 PUSH1 0x0 DUP3 ADD MSTORE POP JUMP JUMPDEST PUSH1 0x0 PUSH2 0x8B84 PUSH1 0x17 DUP4 PUSH2 0x7DFE JUMP JUMPDEST SWAP2 POP PUSH2 0x8B8F DUP3 PUSH2 0x8B4E JUMP JUMPDEST PUSH1 0x17 DUP3 ADD SWAP1 POP SWAP2 SWAP1 POP JUMP JUMPDEST PUSH32 0x206973206D697373696E6720726F6C6520000000000000000000000000000000 PUSH1 0x0 DUP3 ADD MSTORE POP JUMP JUMPDEST PUSH1 0x0 PUSH2 0x8BD0 PUSH1 0x11 DUP4 PUSH2 0x7DFE JUMP JUMPDEST SWAP2 POP PUSH2 0x8BDB DUP3 PUSH2 0x8B9A JUMP JUMPDEST PUSH1 0x11 DUP3 ADD SWAP1 POP SWAP2 SWAP1 POP JUMP JUMPDEST PUSH1 0x0 PUSH2 0x8BF1 DUP3 PUSH2 0x8B77 JUMP JUMPDEST SWAP2 POP PUSH2 0x8BFD DUP3 DUP6 PUSH2 0x7E09 JUMP JUMPDEST SWAP2 POP PUSH2 0x8C08 DUP3 PUSH2 0x8BC3 JUMP JUMPDEST SWAP2 POP PUSH2 0x8C14 DUP3 DUP5 PUSH2 0x7E09 JUMP JUMPDEST SWAP2 POP DUP2 SWAP1 POP SWAP4 SWAP3 POP POP POP JUMP JUMPDEST PUSH32 0x455243313936373A206E657720696D706C656D656E746174696F6E206973206E PUSH1 0x0 DUP3 ADD MSTORE PUSH32 0x6F74206120636F6E747261637400000000000000000000000000000000000000 PUSH1 0x20 DUP3 ADD MSTORE POP JUMP JUMPDEST PUSH1 0x0 PUSH2 0x8C7C PUSH1 0x2D DUP4 PUSH2 0x5C49 JUMP JUMPDEST SWAP2 POP PUSH2 0x8C87 DUP3 PUSH2 0x8C20 JUMP JUMPDEST PUSH1 0x40 DUP3 ADD SWAP1 POP SWAP2 SWAP1 POP JUMP JUMPDEST PUSH1 0x0 PUSH1 0x20 DUP3 ADD SWAP1 POP DUP2 DUP2 SUB PUSH1 0x0 DUP4 ADD MSTORE PUSH2 0x8CAB DUP2 PUSH2 0x8C6F JUMP JUMPDEST SWAP1 POP SWAP2 SWAP1 POP JUMP JUMPDEST PUSH1 0x0 PUSH1 0xA0 DUP3 ADD SWAP1 POP PUSH2 0x8CC7 PUSH1 0x0 DUP4 ADD DUP9 PUSH2 0x6701 JUMP JUMPDEST PUSH2 0x8CD4 PUSH1 0x20 DUP4 ADD DUP8 PUSH2 0x6701 JUMP JUMPDEST PUSH2 0x8CE1 PUSH1 0x40 DUP4 ADD DUP7 PUSH2 0x5B59 JUMP JUMPDEST PUSH2 0x8CEE PUSH1 0x60 DUP4 ADD DUP6 PUSH2 0x5B59 JUMP JUMPDEST DUP2 DUP2 SUB PUSH1 0x80 DUP4 ADD MSTORE PUSH2 0x8D00 DUP2 DUP5 PUSH2 0x8888 JUMP JUMPDEST SWAP1 POP SWAP7 SWAP6 POP POP POP POP POP POP JUMP JUMPDEST PUSH1 0x0 PUSH2 0x8D17 DUP3 PUSH2 0x5AE3 JUMP JUMPDEST SWAP2 POP PUSH1 0x0 DUP3 SUB PUSH2 0x8D2A JUMPI PUSH2 0x8D29 PUSH2 0x72A8 JUMP JUMPDEST JUMPDEST PUSH1 0x1 DUP3 SUB SWAP1 POP SWAP2 SWAP1 POP JUMP JUMPDEST PUSH32 0x537472696E67733A20686578206C656E67746820696E73756666696369656E74 PUSH1 0x0 DUP3 ADD MSTORE POP JUMP JUMPDEST PUSH1 0x0 PUSH2 0x8D6B PUSH1 0x20 DUP4 PUSH2 0x5C49 JUMP JUMPDEST SWAP2 POP PUSH2 0x8D76 DUP3 PUSH2 0x8D35 JUMP JUMPDEST PUSH1 0x20 DUP3 ADD SWAP1 POP SWAP2 SWAP1 POP JUMP JUMPDEST PUSH1 0x0 PUSH1 0x20 DUP3 ADD SWAP1 POP DUP2 DUP2 SUB PUSH1 0x0 DUP4 ADD MSTORE PUSH2 0x8D9A DUP2 PUSH2 0x8D5E JUMP JUMPDEST SWAP1 POP SWAP2 SWAP1 POP JUMP JUMPDEST PUSH32 0x416464726573733A2064656C65676174652063616C6C20746F206E6F6E2D636F PUSH1 0x0 DUP3 ADD MSTORE PUSH32 0x6E74726163740000000000000000000000000000000000000000000000000000 PUSH1 0x20 DUP3 ADD MSTORE POP JUMP JUMPDEST PUSH1 0x0 PUSH2 0x8DFD PUSH1 0x26 DUP4 PUSH2 0x5C49 JUMP JUMPDEST SWAP2 POP PUSH2 0x8E08 DUP3 PUSH2 0x8DA1 JUMP JUMPDEST PUSH1 0x40 DUP3 ADD SWAP1 POP SWAP2 SWAP1 POP JUMP JUMPDEST PUSH1 0x0 PUSH1 0x20 DUP3 ADD SWAP1 POP DUP2 DUP2 SUB PUSH1 0x0 DUP4 ADD MSTORE PUSH2 0x8E2C DUP2 PUSH2 0x8DF0 JUMP JUMPDEST SWAP1 POP SWAP2 SWAP1 POP JUMP JUMPDEST PUSH1 0x0 DUP2 SWAP1 POP SWAP3 SWAP2 POP POP JUMP JUMPDEST PUSH1 0x0 PUSH2 0x8E49 DUP3 PUSH2 0x886C JUMP JUMPDEST PUSH2 0x8E53 DUP2 DUP6 PUSH2 0x8E33 JUMP JUMPDEST SWAP4 POP PUSH2 0x8E63 DUP2 DUP6 PUSH1 0x20 DUP7 ADD PUSH2 0x5C5A JUMP JUMPDEST DUP1 DUP5 ADD SWAP2 POP POP SWAP3 SWAP2 POP POP JUMP JUMPDEST PUSH1 0x0 PUSH2 0x8E7B DUP3 DUP5 PUSH2 0x8E3E JUMP JUMPDEST SWAP2 POP DUP2 SWAP1 POP SWAP3 SWAP2 POP POP JUMP INVALID COINBASE PUSH5 0x6472657373 GASPRICE KECCAK256 PUSH13 0x6F772D6C6576656C2064656C65 PUSH8 0x6174652063616C6C KECCAK256 PUSH7 0x61696C6564A264 PUSH10 0x70667358221220808C35 0xD LOG0 MOD 0xB8 CREATE2 CODESIZE 0xB6 0xAE PUSH17 0xE6D7263DC3B7BFEFE7660952B52BC4C752 0xAD 0xC2 SIGNEXTEND PUSH5 0x736F6C6343 STOP ADDMOD SLT STOP CALLER PUSH1 0xA0 PUSH1 0x40 MSTORE ADDRESS PUSH20 0xFFFFFFFFFFFFFFFFFFFFFFFFFFFFFFFFFFFFFFFF AND PUSH1 0x80 SWAP1 PUSH20 0xFFFFFFFFFFFFFFFFFFFFFFFFFFFFFFFFFFFFFFFF AND DUP2 MSTORE POP CALLVALUE DUP1 ISZERO PUSH2 0x43 JUMPI PUSH1 0x0 DUP1 REVERT JUMPDEST POP PUSH1 0x80 MLOAD PUSH2 0x6301 PUSH3 0x7C PUSH1 0x0 CODECOPY PUSH1 0x0 DUP2 DUP2 PUSH2 0xB6E ADD MSTORE DUP2 DUP2 PUSH2 0xBFC ADD MSTORE DUP2 DUP2 PUSH2 0xD16 ADD MSTORE DUP2 DUP2 PUSH2 0xDA4 ADD MSTORE PUSH2 0xE54 ADD MSTORE PUSH2 0x6301 PUSH1 0x0 RETURN INVALID PUSH1 0x80 PUSH1 0x40 MSTORE PUSH1 0x4 CALLDATASIZE LT PUSH2 0x204 JUMPI PUSH1 0x0 CALLDATALOAD PUSH1 0xE0 SHR DUP1 PUSH4 0x8DA5CB5B GT PUSH2 0x118 JUMPI DUP1 PUSH4 0xB1E5E2B7 GT PUSH2 0xA0 JUMPI DUP1 PUSH4 0xC87B56DD GT PUSH2 0x6F JUMPI DUP1 PUSH4 0xC87B56DD EQ PUSH2 0x752 JUMPI DUP1 PUSH4 0xD547741F EQ PUSH2 0x78F JUMPI DUP1 PUSH4 0xE4A4A2A3 EQ PUSH2 0x7B8 JUMPI DUP1 PUSH4 0xE985E9C5 EQ PUSH2 0x7E1 JUMPI DUP1 PUSH4 0xF2FDE38B EQ PUSH2 0x81E JUMPI PUSH2 0x204 JUMP JUMPDEST DUP1 PUSH4 0xB1E5E2B7 EQ PUSH2 0x6AC JUMPI DUP1 PUSH4 0xB224D82B EQ PUSH2 0x6D5 JUMPI DUP1 PUSH4 0xB88D4FDE EQ PUSH2 0x700 JUMPI DUP1 PUSH4 0xC4CA3A9C EQ PUSH2 0x729 JUMPI PUSH2 0x204 JUMP JUMPDEST DUP1 PUSH4 0x95D89B41 GT PUSH2 0xE7 JUMPI DUP1 PUSH4 0x95D89B41 EQ PUSH2 0x5D9 JUMPI DUP1 PUSH4 0xA0712D68 EQ PUSH2 0x604 JUMPI DUP1 PUSH4 0xA217FDDF EQ PUSH2 0x62D JUMPI DUP1 PUSH4 0xA22CB465 EQ PUSH2 0x658 JUMPI DUP1 PUSH4 0xB0952AFF EQ PUSH2 0x681 JUMPI PUSH2 0x204 JUMP JUMPDEST DUP1 PUSH4 0x8DA5CB5B EQ PUSH2 0x50B JUMPI DUP1 PUSH4 0x8F0B7B68 EQ PUSH2 0x536 JUMPI DUP1 PUSH4 0x91D14854 EQ PUSH2 0x55F JUMPI DUP1 PUSH4 0x9254B815 EQ PUSH2 0x59C JUMPI PUSH2 0x204 JUMP JUMPDEST DUP1 PUSH4 0x3659CFE6 GT PUSH2 0x19B JUMPI DUP1 PUSH4 0x6352211E GT PUSH2 0x16A JUMPI DUP1 PUSH4 0x6352211E EQ PUSH2 0x428 JUMPI DUP1 PUSH4 0x6F96E99C EQ PUSH2 0x465 JUMPI DUP1 PUSH4 0x70A08231 EQ PUSH2 0x48E JUMPI DUP1 PUSH4 0x715018A6 EQ PUSH2 0x4CB JUMPI DUP1 PUSH4 0x88C63A57 EQ PUSH2 0x4E2 JUMPI PUSH2 0x204 JUMP JUMPDEST DUP1 PUSH4 0x3659CFE6 EQ PUSH2 0x38F JUMPI DUP1 PUSH4 0x42842E0E EQ PUSH2 0x3B8 JUMPI DUP1 PUSH4 0x4F1EF286 EQ PUSH2 0x3E1 JUMPI DUP1 PUSH4 0x52D1902D EQ PUSH2 0x3FD JUMPI PUSH2 0x204 JUMP JUMPDEST DUP1 PUSH4 0x23B872DD GT PUSH2 0x1D7 JUMPI DUP1 PUSH4 0x23B872DD EQ PUSH2 0x2D7 JUMPI DUP1 PUSH4 0x248A9CA3 EQ PUSH2 0x300 JUMPI DUP1 PUSH4 0x2F2FF15D EQ PUSH2 0x33D JUMPI DUP1 PUSH4 0x36568ABE EQ PUSH2 0x366 JUMPI PUSH2 0x204 JUMP JUMPDEST DUP1 PUSH4 0x1FFC9A7 EQ PUSH2 0x209 JUMPI DUP1 PUSH4 0x6FDDE03 EQ PUSH2 0x246 JUMPI DUP1 PUSH4 0x81812FC EQ PUSH2 0x271 JUMPI DUP1 PUSH4 0x95EA7B3 EQ PUSH2 0x2AE JUMPI JUMPDEST PUSH1 0x0 DUP1 REVERT JUMPDEST CALLVALUE DUP1 ISZERO PUSH2 0x215 JUMPI PUSH1 0x0 DUP1 REVERT JUMPDEST POP PUSH2 0x230 PUSH1 0x4 DUP1 CALLDATASIZE SUB DUP2 ADD SWAP1 PUSH2 0x22B SWAP2 SWAP1 PUSH2 0x3B8D JUMP JUMPDEST PUSH2 0x847 JUMP JUMPDEST PUSH1 0x40 MLOAD PUSH2 0x23D SWAP2 SWAP1 PUSH2 0x3BD5 JUMP JUMPDEST PUSH1 0x40 MLOAD DUP1 SWAP2 SUB SWAP1 RETURN JUMPDEST CALLVALUE DUP1 ISZERO PUSH2 0x252 JUMPI PUSH1 0x0 DUP1 REVERT JUMPDEST POP PUSH2 0x25B PUSH2 0x859 JUMP JUMPDEST PUSH1 0x40 MLOAD PUSH2 0x268 SWAP2 SWAP1 PUSH2 0x3C80 JUMP JUMPDEST PUSH1 0x40 MLOAD DUP1 SWAP2 SUB SWAP1 RETURN JUMPDEST CALLVALUE DUP1 ISZERO PUSH2 0x27D JUMPI PUSH1 0x0 DUP1 REVERT JUMPDEST POP PUSH2 0x298 PUSH1 0x4 DUP1 CALLDATASIZE SUB DUP2 ADD SWAP1 PUSH2 0x293 SWAP2 SWAP1 PUSH2 0x3CD8 JUMP JUMPDEST PUSH2 0x8EB JUMP JUMPDEST PUSH1 0x40 MLOAD PUSH2 0x2A5 SWAP2 SWAP1 PUSH2 0x3D46 JUMP JUMPDEST PUSH1 0x40 MLOAD DUP1 SWAP2 SUB SWAP1 RETURN JUMPDEST CALLVALUE DUP1 ISZERO PUSH2 0x2BA JUMPI PUSH1 0x0 DUP1 REVERT JUMPDEST POP PUSH2 0x2D5 PUSH1 0x4 DUP1 CALLDATASIZE SUB DUP2 ADD SWAP1 PUSH2 0x2D0 SWAP2 SWAP1 PUSH2 0x3D8D JUMP JUMPDEST PUSH2 0x931 JUMP JUMPDEST STOP JUMPDEST CALLVALUE DUP1 ISZERO PUSH2 0x2E3 JUMPI PUSH1 0x0 DUP1 REVERT JUMPDEST POP PUSH2 0x2FE PUSH1 0x4 DUP1 CALLDATASIZE SUB DUP2 ADD SWAP1 PUSH2 0x2F9 SWAP2 SWAP1 PUSH2 0x3DCD JUMP JUMPDEST PUSH2 0xA48 JUMP JUMPDEST STOP JUMPDEST CALLVALUE DUP1 ISZERO PUSH2 0x30C JUMPI PUSH1 0x0 DUP1 REVERT JUMPDEST POP PUSH2 0x327 PUSH1 0x4 DUP1 CALLDATASIZE SUB DUP2 ADD SWAP1 PUSH2 0x322 SWAP2 SWAP1 PUSH2 0x3E56 JUMP JUMPDEST PUSH2 0xAA8 JUMP JUMPDEST PUSH1 0x40 MLOAD PUSH2 0x334 SWAP2 SWAP1 PUSH2 0x3E92 JUMP JUMPDEST PUSH1 0x40 MLOAD DUP1 SWAP2 SUB SWAP1 RETURN JUMPDEST CALLVALUE DUP1 ISZERO PUSH2 0x349 JUMPI PUSH1 0x0 DUP1 REVERT JUMPDEST POP PUSH2 0x364 PUSH1 0x4 DUP1 CALLDATASIZE SUB DUP2 ADD SWAP1 PUSH2 0x35F SWAP2 SWAP1 PUSH2 0x3EAD JUMP JUMPDEST PUSH2 0xAC8 JUMP JUMPDEST STOP JUMPDEST CALLVALUE DUP1 ISZERO PUSH2 0x372 JUMPI PUSH1 0x0 DUP1 REVERT JUMPDEST POP PUSH2 0x38D PUSH1 0x4 DUP1 CALLDATASIZE SUB DUP2 ADD SWAP1 PUSH2 0x388 SWAP2 SWAP1 PUSH2 0x3EAD JUMP JUMPDEST PUSH2 0xAE9 JUMP JUMPDEST STOP JUMPDEST CALLVALUE DUP1 ISZERO PUSH2 0x39B JUMPI PUSH1 0x0 DUP1 REVERT JUMPDEST POP PUSH2 0x3B6 PUSH1 0x4 DUP1 CALLDATASIZE SUB DUP2 ADD SWAP1 PUSH2 0x3B1 SWAP2 SWAP1 PUSH2 0x3EED JUMP JUMPDEST PUSH2 0xB6C JUMP JUMPDEST STOP JUMPDEST CALLVALUE DUP1 ISZERO PUSH2 0x3C4 JUMPI PUSH1 0x0 DUP1 REVERT JUMPDEST POP PUSH2 0x3DF PUSH1 0x4 DUP1 CALLDATASIZE SUB DUP2 ADD SWAP1 PUSH2 0x3DA SWAP2 SWAP1 PUSH2 0x3DCD JUMP JUMPDEST PUSH2 0xCF4 JUMP JUMPDEST STOP JUMPDEST PUSH2 0x3FB PUSH1 0x4 DUP1 CALLDATASIZE SUB DUP2 ADD SWAP1 PUSH2 0x3F6 SWAP2 SWAP1 PUSH2 0x404F JUMP JUMPDEST PUSH2 0xD14 JUMP JUMPDEST STOP JUMPDEST CALLVALUE DUP1 ISZERO PUSH2 0x409 JUMPI PUSH1 0x0 DUP1 REVERT JUMPDEST POP PUSH2 0x412 PUSH2 0xE50 JUMP JUMPDEST PUSH1 0x40 MLOAD PUSH2 0x41F SWAP2 SWAP1 PUSH2 0x3E92 JUMP JUMPDEST PUSH1 0x40 MLOAD DUP1 SWAP2 SUB SWAP1 RETURN JUMPDEST CALLVALUE DUP1 ISZERO PUSH2 0x434 JUMPI PUSH1 0x0 DUP1 REVERT JUMPDEST POP PUSH2 0x44F PUSH1 0x4 DUP1 CALLDATASIZE SUB DUP2 ADD SWAP1 PUSH2 0x44A SWAP2 SWAP1 PUSH2 0x3CD8 JUMP JUMPDEST PUSH2 0xF09 JUMP JUMPDEST PUSH1 0x40 MLOAD PUSH2 0x45C SWAP2 SWAP1 PUSH2 0x3D46 JUMP JUMPDEST PUSH1 0x40 MLOAD DUP1 SWAP2 SUB SWAP1 RETURN JUMPDEST CALLVALUE DUP1 ISZERO PUSH2 0x471 JUMPI PUSH1 0x0 DUP1 REVERT JUMPDEST POP PUSH2 0x48C PUSH1 0x4 DUP1 CALLDATASIZE SUB DUP2 ADD SWAP1 PUSH2 0x487 SWAP2 SWAP1 PUSH2 0x40E9 JUMP JUMPDEST PUSH2 0xF8F JUMP JUMPDEST STOP JUMPDEST CALLVALUE DUP1 ISZERO PUSH2 0x49A JUMPI PUSH1 0x0 DUP1 REVERT JUMPDEST POP PUSH2 0x4B5 PUSH1 0x4 DUP1 CALLDATASIZE SUB DUP2 ADD SWAP1 PUSH2 0x4B0 SWAP2 SWAP1 PUSH2 0x3EED JUMP JUMPDEST PUSH2 0x1115 JUMP JUMPDEST PUSH1 0x40 MLOAD PUSH2 0x4C2 SWAP2 SWAP1 PUSH2 0x4125 JUMP JUMPDEST PUSH1 0x40 MLOAD DUP1 SWAP2 SUB SWAP1 RETURN JUMPDEST CALLVALUE DUP1 ISZERO PUSH2 0x4D7 JUMPI PUSH1 0x0 DUP1 REVERT JUMPDEST POP PUSH2 0x4E0 PUSH2 0x11CC JUMP JUMPDEST STOP JUMPDEST CALLVALUE DUP1 ISZERO PUSH2 0x4EE JUMPI PUSH1 0x0 DUP1 REVERT JUMPDEST POP PUSH2 0x509 PUSH1 0x4 DUP1 CALLDATASIZE SUB DUP2 ADD SWAP1 PUSH2 0x504 SWAP2 SWAP1 PUSH2 0x417E JUMP JUMPDEST PUSH2 0x11E0 JUMP JUMPDEST STOP JUMPDEST CALLVALUE DUP1 ISZERO PUSH2 0x517 JUMPI PUSH1 0x0 DUP1 REVERT JUMPDEST POP PUSH2 0x520 PUSH2 0x1366 JUMP JUMPDEST PUSH1 0x40 MLOAD PUSH2 0x52D SWAP2 SWAP1 PUSH2 0x3D46 JUMP JUMPDEST PUSH1 0x40 MLOAD DUP1 SWAP2 SUB SWAP1 RETURN JUMPDEST CALLVALUE DUP1 ISZERO PUSH2 0x542 JUMPI PUSH1 0x0 DUP1 REVERT JUMPDEST POP PUSH2 0x55D PUSH1 0x4 DUP1 CALLDATASIZE SUB DUP2 ADD SWAP1 PUSH2 0x558 SWAP2 SWAP1 PUSH2 0x4230 JUMP JUMPDEST PUSH2 0x1391 JUMP JUMPDEST STOP JUMPDEST CALLVALUE DUP1 ISZERO PUSH2 0x56B JUMPI PUSH1 0x0 DUP1 REVERT JUMPDEST POP PUSH2 0x586 PUSH1 0x4 DUP1 CALLDATASIZE SUB DUP2 ADD SWAP1 PUSH2 0x581 SWAP2 SWAP1 PUSH2 0x3EAD JUMP JUMPDEST PUSH2 0x1435 JUMP JUMPDEST PUSH1 0x40 MLOAD PUSH2 0x593 SWAP2 SWAP1 PUSH2 0x3BD5 JUMP JUMPDEST PUSH1 0x40 MLOAD DUP1 SWAP2 SUB SWAP1 RETURN JUMPDEST CALLVALUE DUP1 ISZERO PUSH2 0x5A8 JUMPI PUSH1 0x0 DUP1 REVERT JUMPDEST POP PUSH2 0x5C3 PUSH1 0x4 DUP1 CALLDATASIZE SUB DUP2 ADD SWAP1 PUSH2 0x5BE SWAP2 SWAP1 PUSH2 0x3EED JUMP JUMPDEST PUSH2 0x14A0 JUMP JUMPDEST PUSH1 0x40 MLOAD PUSH2 0x5D0 SWAP2 SWAP1 PUSH2 0x4388 JUMP JUMPDEST PUSH1 0x40 MLOAD DUP1 SWAP2 SUB SWAP1 RETURN JUMPDEST CALLVALUE DUP1 ISZERO PUSH2 0x5E5 JUMPI PUSH1 0x0 DUP1 REVERT JUMPDEST POP PUSH2 0x5EE PUSH2 0x1538 JUMP JUMPDEST PUSH1 0x40 MLOAD PUSH2 0x5FB SWAP2 SWAP1 PUSH2 0x3C80 JUMP JUMPDEST PUSH1 0x40 MLOAD DUP1 SWAP2 SUB SWAP1 RETURN JUMPDEST CALLVALUE DUP1 ISZERO PUSH2 0x610 JUMPI PUSH1 0x0 DUP1 REVERT JUMPDEST POP PUSH2 0x62B PUSH1 0x4 DUP1 CALLDATASIZE SUB DUP2 ADD SWAP1 PUSH2 0x626 SWAP2 SWAP1 PUSH2 0x3CD8 JUMP JUMPDEST PUSH2 0x15CA JUMP JUMPDEST STOP JUMPDEST CALLVALUE DUP1 ISZERO PUSH2 0x639 JUMPI PUSH1 0x0 DUP1 REVERT JUMPDEST POP PUSH2 0x642 PUSH2 0x19A8 JUMP JUMPDEST PUSH1 0x40 MLOAD PUSH2 0x64F SWAP2 SWAP1 PUSH2 0x3E92 JUMP JUMPDEST PUSH1 0x40 MLOAD DUP1 SWAP2 SUB SWAP1 RETURN JUMPDEST CALLVALUE DUP1 ISZERO PUSH2 0x664 JUMPI PUSH1 0x0 DUP1 REVERT JUMPDEST POP PUSH2 0x67F PUSH1 0x4 DUP1 CALLDATASIZE SUB DUP2 ADD SWAP1 PUSH2 0x67A SWAP2 SWAP1 PUSH2 0x43D6 JUMP JUMPDEST PUSH2 0x19AF JUMP JUMPDEST STOP JUMPDEST CALLVALUE DUP1 ISZERO PUSH2 0x68D JUMPI PUSH1 0x0 DUP1 REVERT JUMPDEST POP PUSH2 0x696 PUSH2 0x19C5 JUMP JUMPDEST PUSH1 0x40 MLOAD PUSH2 0x6A3 SWAP2 SWAP1 PUSH2 0x4475 JUMP JUMPDEST PUSH1 0x40 MLOAD DUP1 SWAP2 SUB SWAP1 RETURN JUMPDEST CALLVALUE DUP1 ISZERO PUSH2 0x6B8 JUMPI PUSH1 0x0 DUP1 REVERT JUMPDEST POP PUSH2 0x6D3 PUSH1 0x4 DUP1 CALLDATASIZE SUB DUP2 ADD SWAP1 PUSH2 0x6CE SWAP2 SWAP1 PUSH2 0x3CD8 JUMP JUMPDEST PUSH2 0x19EC JUMP JUMPDEST STOP JUMPDEST CALLVALUE DUP1 ISZERO PUSH2 0x6E1 JUMPI PUSH1 0x0 DUP1 REVERT JUMPDEST POP PUSH2 0x6EA PUSH2 0x1BBB JUMP JUMPDEST PUSH1 0x40 MLOAD PUSH2 0x6F7 SWAP2 SWAP1 PUSH2 0x44B1 JUMP JUMPDEST PUSH1 0x40 MLOAD DUP1 SWAP2 SUB SWAP1 RETURN JUMPDEST CALLVALUE DUP1 ISZERO PUSH2 0x70C JUMPI PUSH1 0x0 DUP1 REVERT JUMPDEST POP PUSH2 0x727 PUSH1 0x4 DUP1 CALLDATASIZE SUB DUP2 ADD SWAP1 PUSH2 0x722 SWAP2 SWAP1 PUSH2 0x44CC JUMP JUMPDEST PUSH2 0x1BE2 JUMP JUMPDEST STOP JUMPDEST CALLVALUE DUP1 ISZERO PUSH2 0x735 JUMPI PUSH1 0x0 DUP1 REVERT JUMPDEST POP PUSH2 0x750 PUSH1 0x4 DUP1 CALLDATASIZE SUB DUP2 ADD SWAP1 PUSH2 0x74B SWAP2 SWAP1 PUSH2 0x454F JUMP JUMPDEST PUSH2 0x1C44 JUMP JUMPDEST STOP JUMPDEST CALLVALUE DUP1 ISZERO PUSH2 0x75E JUMPI PUSH1 0x0 DUP1 REVERT JUMPDEST POP PUSH2 0x779 PUSH1 0x4 DUP1 CALLDATASIZE SUB DUP2 ADD SWAP1 PUSH2 0x774 SWAP2 SWAP1 PUSH2 0x3CD8 JUMP JUMPDEST PUSH2 0x1CF7 JUMP JUMPDEST PUSH1 0x40 MLOAD PUSH2 0x786 SWAP2 SWAP1 PUSH2 0x3C80 JUMP JUMPDEST PUSH1 0x40 MLOAD DUP1 SWAP2 SUB SWAP1 RETURN JUMPDEST CALLVALUE DUP1 ISZERO PUSH2 0x79B JUMPI PUSH1 0x0 DUP1 REVERT JUMPDEST POP PUSH2 0x7B6 PUSH1 0x4 DUP1 CALLDATASIZE SUB DUP2 ADD SWAP1 PUSH2 0x7B1 SWAP2 SWAP1 PUSH2 0x3EAD JUMP JUMPDEST PUSH2 0x1D95 JUMP JUMPDEST STOP JUMPDEST CALLVALUE DUP1 ISZERO PUSH2 0x7C4 JUMPI PUSH1 0x0 DUP1 REVERT JUMPDEST POP PUSH2 0x7DF PUSH1 0x4 DUP1 CALLDATASIZE SUB DUP2 ADD SWAP1 PUSH2 0x7DA SWAP2 SWAP1 PUSH2 0x4678 JUMP JUMPDEST PUSH2 0x1DB6 JUMP JUMPDEST STOP JUMPDEST CALLVALUE DUP1 ISZERO PUSH2 0x7ED JUMPI PUSH1 0x0 DUP1 REVERT JUMPDEST POP PUSH2 0x808 PUSH1 0x4 DUP1 CALLDATASIZE SUB DUP2 ADD SWAP1 PUSH2 0x803 SWAP2 SWAP1 PUSH2 0x4796 JUMP JUMPDEST PUSH2 0x2031 JUMP JUMPDEST PUSH1 0x40 MLOAD PUSH2 0x815 SWAP2 SWAP1 PUSH2 0x3BD5 JUMP JUMPDEST PUSH1 0x40 MLOAD DUP1 SWAP2 SUB SWAP1 RETURN JUMPDEST CALLVALUE DUP1 ISZERO PUSH2 0x82A JUMPI PUSH1 0x0 DUP1 REVERT JUMPDEST POP PUSH2 0x845 PUSH1 0x4 DUP1 CALLDATASIZE SUB DUP2 ADD SWAP1 PUSH2 0x840 SWAP2 SWAP1 PUSH2 0x3EED JUMP JUMPDEST PUSH2 0x20C5 JUMP JUMPDEST STOP JUMPDEST PUSH1 0x0 PUSH2 0x852 DUP3 PUSH2 0x2148 JUMP JUMPDEST SWAP1 POP SWAP2 SWAP1 POP JUMP JUMPDEST PUSH1 0x60 PUSH1 0x65 DUP1 SLOAD PUSH2 0x868 SWAP1 PUSH2 0x4805 JUMP JUMPDEST DUP1 PUSH1 0x1F ADD PUSH1 0x20 DUP1 SWAP2 DIV MUL PUSH1 0x20 ADD PUSH1 0x40 MLOAD SWAP1 DUP2 ADD PUSH1 0x40 MSTORE DUP1 SWAP3 SWAP2 SWAP1 DUP2 DUP2 MSTORE PUSH1 0x20 ADD DUP3 DUP1 SLOAD PUSH2 0x894 SWAP1 PUSH2 0x4805 JUMP JUMPDEST DUP1 ISZERO PUSH2 0x8E1 JUMPI DUP1 PUSH1 0x1F LT PUSH2 0x8B6 JUMPI PUSH2 0x100 DUP1 DUP4 SLOAD DIV MUL DUP4 MSTORE SWAP2 PUSH1 0x20 ADD SWAP2 PUSH2 0x8E1 JUMP JUMPDEST DUP3 ADD SWAP2 SWAP1 PUSH1 0x0 MSTORE PUSH1 0x20 PUSH1 0x0 KECCAK256 SWAP1 JUMPDEST DUP2 SLOAD DUP2 MSTORE SWAP1 PUSH1 0x1 ADD SWAP1 PUSH1 0x20 ADD DUP1 DUP4 GT PUSH2 0x8C4 JUMPI DUP3 SWAP1 SUB PUSH1 0x1F AND DUP3 ADD SWAP2 JUMPDEST POP POP POP POP POP SWAP1 POP SWAP1 JUMP JUMPDEST PUSH1 0x0 PUSH2 0x8F6 DUP3 PUSH2 0x21C2 JUMP JUMPDEST PUSH1 0x69 PUSH1 0x0 DUP4 DUP2 MSTORE PUSH1 0x20 ADD SWAP1 DUP2 MSTORE PUSH1 0x20 ADD PUSH1 0x0 KECCAK256 PUSH1 0x0 SWAP1 SLOAD SWAP1 PUSH2 0x100 EXP SWAP1 DIV PUSH20 0xFFFFFFFFFFFFFFFFFFFFFFFFFFFFFFFFFFFFFFFF AND SWAP1 POP SWAP2 SWAP1 POP JUMP JUMPDEST PUSH1 0x0 PUSH2 0x93C DUP3 PUSH2 0xF09 JUMP JUMPDEST SWAP1 POP DUP1 PUSH20 0xFFFFFFFFFFFFFFFFFFFFFFFFFFFFFFFFFFFFFFFF AND DUP4 PUSH20 0xFFFFFFFFFFFFFFFFFFFFFFFFFFFFFFFFFFFFFFFF AND SUB PUSH2 0x9AC JUMPI PUSH1 0x40 MLOAD PUSH32 0x8C379A000000000000000000000000000000000000000000000000000000000 DUP2 MSTORE PUSH1 0x4 ADD PUSH2 0x9A3 SWAP1 PUSH2 0x48A8 JUMP JUMPDEST PUSH1 0x40 MLOAD DUP1 SWAP2 SUB SWAP1 REVERT JUMPDEST DUP1 PUSH20 0xFFFFFFFFFFFFFFFFFFFFFFFFFFFFFFFFFFFFFFFF AND PUSH2 0x9CB PUSH2 0x220D JUMP JUMPDEST PUSH20 0xFFFFFFFFFFFFFFFFFFFFFFFFFFFFFFFFFFFFFFFF AND EQ DUP1 PUSH2 0x9FA JUMPI POP PUSH2 0x9F9 DUP2 PUSH2 0x9F4 PUSH2 0x220D JUMP JUMPDEST PUSH2 0x2031 JUMP JUMPDEST JUMPDEST PUSH2 0xA39 JUMPI PUSH1 0x40 MLOAD PUSH32 0x8C379A000000000000000000000000000000000000000000000000000000000 DUP2 MSTORE PUSH1 0x4 ADD PUSH2 0xA30 SWAP1 PUSH2 0x493A JUMP JUMPDEST PUSH1 0x40 MLOAD DUP1 SWAP2 SUB SWAP1 REVERT JUMPDEST PUSH2 0xA43 DUP4 DUP4 PUSH2 0x2215 JUMP JUMPDEST POP POP POP JUMP JUMPDEST PUSH2 0xA59 PUSH2 0xA53 PUSH2 0x220D JUMP JUMPDEST DUP3 PUSH2 0x22CE JUMP JUMPDEST PUSH2 0xA98 JUMPI PUSH1 0x40 MLOAD PUSH32 0x8C379A000000000000000000000000000000000000000000000000000000000 DUP2 MSTORE PUSH1 0x4 ADD PUSH2 0xA8F SWAP1 PUSH2 0x49CC JUMP JUMPDEST PUSH1 0x40 MLOAD DUP1 SWAP2 SUB SWAP1 REVERT JUMPDEST PUSH2 0xAA3 DUP4 DUP4 DUP4 PUSH2 0x2363 JUMP JUMPDEST POP POP POP JUMP JUMPDEST PUSH1 0x0 PUSH1 0x97 PUSH1 0x0 DUP4 DUP2 MSTORE PUSH1 0x20 ADD SWAP1 DUP2 MSTORE PUSH1 0x20 ADD PUSH1 0x0 KECCAK256 PUSH1 0x1 ADD SLOAD SWAP1 POP SWAP2 SWAP1 POP JUMP JUMPDEST PUSH2 0xAD1 DUP3 PUSH2 0xAA8 JUMP JUMPDEST PUSH2 0xADA DUP2 PUSH2 0x265C JUMP JUMPDEST PUSH2 0xAE4 DUP4 DUP4 PUSH2 0x2670 JUMP JUMPDEST POP POP POP JUMP JUMPDEST PUSH2 0xAF1 PUSH2 0x220D JUMP JUMPDEST PUSH20 0xFFFFFFFFFFFFFFFFFFFFFFFFFFFFFFFFFFFFFFFF AND DUP2 PUSH20 0xFFFFFFFFFFFFFFFFFFFFFFFFFFFFFFFFFFFFFFFF AND EQ PUSH2 0xB5E JUMPI PUSH1 0x40 MLOAD PUSH32 0x8C379A000000000000000000000000000000000000000000000000000000000 DUP2 MSTORE PUSH1 0x4 ADD PUSH2 0xB55 SWAP1 PUSH2 0x4A5E JUMP JUMPDEST PUSH1 0x40 MLOAD DUP1 SWAP2 SUB SWAP1 REVERT JUMPDEST PUSH2 0xB68 DUP3 DUP3 PUSH2 0x2751 JUMP JUMPDEST POP POP JUMP JUMPDEST PUSH32 0x0 PUSH20 0xFFFFFFFFFFFFFFFFFFFFFFFFFFFFFFFFFFFFFFFF AND ADDRESS PUSH20 0xFFFFFFFFFFFFFFFFFFFFFFFFFFFFFFFFFFFFFFFF AND SUB PUSH2 0xBFA JUMPI PUSH1 0x40 MLOAD PUSH32 0x8C379A000000000000000000000000000000000000000000000000000000000 DUP2 MSTORE PUSH1 0x4 ADD PUSH2 0xBF1 SWAP1 PUSH2 0x4AF0 JUMP JUMPDEST PUSH1 0x40 MLOAD DUP1 SWAP2 SUB SWAP1 REVERT JUMPDEST PUSH32 0x0 PUSH20 0xFFFFFFFFFFFFFFFFFFFFFFFFFFFFFFFFFFFFFFFF AND PUSH2 0xC39 PUSH2 0x2833 JUMP JUMPDEST PUSH20 0xFFFFFFFFFFFFFFFFFFFFFFFFFFFFFFFFFFFFFFFF AND EQ PUSH2 0xC8F JUMPI PUSH1 0x40 MLOAD PUSH32 0x8C379A000000000000000000000000000000000000000000000000000000000 DUP2 MSTORE PUSH1 0x4 ADD PUSH2 0xC86 SWAP1 PUSH2 0x4B82 JUMP JUMPDEST PUSH1 0x40 MLOAD DUP1 SWAP2 SUB SWAP1 REVERT JUMPDEST PUSH2 0xC98 DUP2 PUSH2 0x288A JUMP JUMPDEST PUSH2 0xCF1 DUP2 PUSH1 0x0 PUSH8 0xFFFFFFFFFFFFFFFF DUP2 GT ISZERO PUSH2 0xCB7 JUMPI PUSH2 0xCB6 PUSH2 0x3F24 JUMP JUMPDEST JUMPDEST PUSH1 0x40 MLOAD SWAP1 DUP1 DUP3 MSTORE DUP1 PUSH1 0x1F ADD PUSH1 0x1F NOT AND PUSH1 0x20 ADD DUP3 ADD PUSH1 0x40 MSTORE DUP1 ISZERO PUSH2 0xCE9 JUMPI DUP2 PUSH1 0x20 ADD PUSH1 0x1 DUP3 MUL DUP1 CALLDATASIZE DUP4 CALLDATACOPY DUP1 DUP3 ADD SWAP2 POP POP SWAP1 POP JUMPDEST POP PUSH1 0x0 PUSH2 0x28B8 JUMP JUMPDEST POP JUMP JUMPDEST PUSH2 0xD0F DUP4 DUP4 DUP4 PUSH1 0x40 MLOAD DUP1 PUSH1 0x20 ADD PUSH1 0x40 MSTORE DUP1 PUSH1 0x0 DUP2 MSTORE POP PUSH2 0x1BE2 JUMP JUMPDEST POP POP POP JUMP JUMPDEST PUSH32 0x0 PUSH20 0xFFFFFFFFFFFFFFFFFFFFFFFFFFFFFFFFFFFFFFFF AND ADDRESS PUSH20 0xFFFFFFFFFFFFFFFFFFFFFFFFFFFFFFFFFFFFFFFF AND SUB PUSH2 0xDA2 JUMPI PUSH1 0x40 MLOAD PUSH32 0x8C379A000000000000000000000000000000000000000000000000000000000 DUP2 MSTORE PUSH1 0x4 ADD PUSH2 0xD99 SWAP1 PUSH2 0x4AF0 JUMP JUMPDEST PUSH1 0x40 MLOAD DUP1 SWAP2 SUB SWAP1 REVERT JUMPDEST PUSH32 0x0 PUSH20 0xFFFFFFFFFFFFFFFFFFFFFFFFFFFFFFFFFFFFFFFF AND PUSH2 0xDE1 PUSH2 0x2833 JUMP JUMPDEST PUSH20 0xFFFFFFFFFFFFFFFFFFFFFFFFFFFFFFFFFFFFFFFF AND EQ PUSH2 0xE37 JUMPI PUSH1 0x40 MLOAD PUSH32 0x8C379A000000000000000000000000000000000000000000000000000000000 DUP2 MSTORE PUSH1 0x4 ADD PUSH2 0xE2E SWAP1 PUSH2 0x4B82 JUMP JUMPDEST PUSH1 0x40 MLOAD DUP1 SWAP2 SUB SWAP1 REVERT JUMPDEST PUSH2 0xE40 DUP3 PUSH2 0x288A JUMP JUMPDEST PUSH2 0xE4C DUP3 DUP3 PUSH1 0x1 PUSH2 0x28B8 JUMP JUMPDEST POP POP JUMP JUMPDEST PUSH1 0x0 PUSH32 0x0 PUSH20 0xFFFFFFFFFFFFFFFFFFFFFFFFFFFFFFFFFFFFFFFF AND ADDRESS PUSH20 0xFFFFFFFFFFFFFFFFFFFFFFFFFFFFFFFFFFFFFFFF AND EQ PUSH2 0xEE0 JUMPI PUSH1 0x40 MLOAD PUSH32 0x8C379A000000000000000000000000000000000000000000000000000000000 DUP2 MSTORE PUSH1 0x4 ADD PUSH2 0xED7 SWAP1 PUSH2 0x4C14 JUMP JUMPDEST PUSH1 0x40 MLOAD DUP1 SWAP2 SUB SWAP1 REVERT JUMPDEST PUSH32 0x360894A13BA1A3210667C828492DB98DCA3E2076CC3735A920A3CA505D382BBC PUSH1 0x0 SHL SWAP1 POP SWAP1 JUMP JUMPDEST PUSH1 0x0 DUP1 PUSH2 0xF15 DUP4 PUSH2 0x2A26 JUMP JUMPDEST SWAP1 POP PUSH1 0x0 PUSH20 0xFFFFFFFFFFFFFFFFFFFFFFFFFFFFFFFFFFFFFFFF AND DUP2 PUSH20 0xFFFFFFFFFFFFFFFFFFFFFFFFFFFFFFFFFFFFFFFF AND SUB PUSH2 0xF86 JUMPI PUSH1 0x40 MLOAD PUSH32 0x8C379A000000000000000000000000000000000000000000000000000000000 DUP2 MSTORE PUSH1 0x4 ADD PUSH2 0xF7D SWAP1 PUSH2 0x4C80 JUMP JUMPDEST PUSH1 0x40 MLOAD DUP1 SWAP2 SUB SWAP1 REVERT JUMPDEST DUP1 SWAP2 POP POP SWAP2 SWAP1 POP JUMP JUMPDEST PUSH32 0x22C69AB406805E70D07FB1A6502AF760601D3B977BEADB295A9D76D5852E16A3 PUSH2 0xFB9 DUP2 PUSH2 0x265C JUMP JUMPDEST PUSH2 0x15F PUSH1 0x0 SWAP1 SLOAD SWAP1 PUSH2 0x100 EXP SWAP1 DIV PUSH20 0xFFFFFFFFFFFFFFFFFFFFFFFFFFFFFFFFFFFFFFFF AND PUSH20 0xFFFFFFFFFFFFFFFFFFFFFFFFFFFFFFFFFFFFFFFF AND DUP3 PUSH20 0xFFFFFFFFFFFFFFFFFFFFFFFFFFFFFFFFFFFFFFFF AND SUB PUSH2 0x104A JUMPI PUSH1 0x40 MLOAD PUSH32 0x8C379A000000000000000000000000000000000000000000000000000000000 DUP2 MSTORE PUSH1 0x4 ADD PUSH2 0x1041 SWAP1 PUSH2 0x4D38 JUMP JUMPDEST PUSH1 0x40 MLOAD DUP1 SWAP2 SUB SWAP1 REVERT JUMPDEST PUSH1 0x0 PUSH2 0x15F PUSH1 0x0 SWAP1 SLOAD SWAP1 PUSH2 0x100 EXP SWAP1 DIV PUSH20 0xFFFFFFFFFFFFFFFFFFFFFFFFFFFFFFFFFFFFFFFF AND SWAP1 POP DUP3 PUSH2 0x15F PUSH1 0x0 PUSH2 0x100 EXP DUP2 SLOAD DUP2 PUSH20 0xFFFFFFFFFFFFFFFFFFFFFFFFFFFFFFFFFFFFFFFF MUL NOT AND SWAP1 DUP4 PUSH20 0xFFFFFFFFFFFFFFFFFFFFFFFFFFFFFFFFFFFFFFFF AND MUL OR SWAP1 SSTORE POP PUSH32 0x95B51941F4E9B50395A323548E977103F9F32E909EFA973665C8C2889C4E5106 DUP2 PUSH2 0x162 PUSH1 0x0 SWAP1 SLOAD SWAP1 PUSH2 0x100 EXP SWAP1 DIV PUSH20 0xFFFFFFFFFFFFFFFFFFFFFFFFFFFFFFFFFFFFFFFF AND PUSH1 0x40 MLOAD PUSH2 0x1108 SWAP3 SWAP2 SWAP1 PUSH2 0x4D58 JUMP JUMPDEST PUSH1 0x40 MLOAD DUP1 SWAP2 SUB SWAP1 LOG1 POP POP POP JUMP JUMPDEST PUSH1 0x0 DUP1 PUSH20 0xFFFFFFFFFFFFFFFFFFFFFFFFFFFFFFFFFFFFFFFF AND DUP3 PUSH20 0xFFFFFFFFFFFFFFFFFFFFFFFFFFFFFFFFFFFFFFFF AND SUB PUSH2 0x1185 JUMPI PUSH1 0x40 MLOAD PUSH32 0x8C379A000000000000000000000000000000000000000000000000000000000 DUP2 MSTORE PUSH1 0x4 ADD PUSH2 0x117C SWAP1 PUSH2 0x4DF3 JUMP JUMPDEST PUSH1 0x40 MLOAD DUP1 SWAP2 SUB SWAP1 REVERT JUMPDEST PUSH1 0x68 PUSH1 0x0 DUP4 PUSH20 0xFFFFFFFFFFFFFFFFFFFFFFFFFFFFFFFFFFFFFFFF AND PUSH20 0xFFFFFFFFFFFFFFFFFFFFFFFFFFFFFFFFFFFFFFFF AND DUP2 MSTORE PUSH1 0x20 ADD SWAP1 DUP2 MSTORE PUSH1 0x20 ADD PUSH1 0x0 KECCAK256 SLOAD SWAP1 POP SWAP2 SWAP1 POP JUMP JUMPDEST PUSH2 0x11D4 PUSH2 0x2A63 JUMP JUMPDEST PUSH2 0x11DE PUSH1 0x0 PUSH2 0x2AE1 JUMP JUMPDEST JUMP JUMPDEST PUSH32 0x22C69AB406805E70D07FB1A6502AF760601D3B977BEADB295A9D76D5852E16A3 PUSH2 0x120A DUP2 PUSH2 0x265C JUMP JUMPDEST PUSH2 0x162 PUSH1 0x0 SWAP1 SLOAD SWAP1 PUSH2 0x100 EXP SWAP1 DIV PUSH20 0xFFFFFFFFFFFFFFFFFFFFFFFFFFFFFFFFFFFFFFFF AND PUSH20 0xFFFFFFFFFFFFFFFFFFFFFFFFFFFFFFFFFFFFFFFF AND DUP3 PUSH20 0xFFFFFFFFFFFFFFFFFFFFFFFFFFFFFFFFFFFFFFFF AND SUB PUSH2 0x129B JUMPI PUSH1 0x40 MLOAD PUSH32 0x8C379A000000000000000000000000000000000000000000000000000000000 DUP2 MSTORE PUSH1 0x4 ADD PUSH2 0x1292 SWAP1 PUSH2 0x4EAB JUMP JUMPDEST PUSH1 0x40 MLOAD DUP1 SWAP2 SUB SWAP1 REVERT JUMPDEST PUSH1 0x0 PUSH2 0x162 PUSH1 0x0 SWAP1 SLOAD SWAP1 PUSH2 0x100 EXP SWAP1 DIV PUSH20 0xFFFFFFFFFFFFFFFFFFFFFFFFFFFFFFFFFFFFFFFF AND SWAP1 POP DUP3 PUSH2 0x162 PUSH1 0x0 PUSH2 0x100 EXP DUP2 SLOAD DUP2 PUSH20 0xFFFFFFFFFFFFFFFFFFFFFFFFFFFFFFFFFFFFFFFF MUL NOT AND SWAP1 DUP4 PUSH20 0xFFFFFFFFFFFFFFFFFFFFFFFFFFFFFFFFFFFFFFFF AND MUL OR SWAP1 SSTORE POP PUSH32 0xCD96411D27B0679C066181F5EADA6E87B37923DA830BA84A40DD98933E694FE1 DUP2 PUSH2 0x162 PUSH1 0x0 SWAP1 SLOAD SWAP1 PUSH2 0x100 EXP SWAP1 DIV PUSH20 0xFFFFFFFFFFFFFFFFFFFFFFFFFFFFFFFFFFFFFFFF AND PUSH1 0x40 MLOAD PUSH2 0x1359 SWAP3 SWAP2 SWAP1 PUSH2 0x4D58 JUMP JUMPDEST PUSH1 0x40 MLOAD DUP1 SWAP2 SUB SWAP1 LOG1 POP POP POP JUMP JUMPDEST PUSH1 0x0 PUSH2 0x12D PUSH1 0x0 SWAP1 SLOAD SWAP1 PUSH2 0x100 EXP SWAP1 DIV PUSH20 0xFFFFFFFFFFFFFFFFFFFFFFFFFFFFFFFFFFFFFFFF AND SWAP1 POP SWAP1 JUMP JUMPDEST PUSH32 0xA49807205CE4D355092EF5A8A18F56E8913CF4A201FBE287825B095693C21775 PUSH2 0x13BB DUP2 PUSH2 0x265C JUMP JUMPDEST PUSH20 0x0 PUSH4 0x39D1EFC6 DUP9 DUP9 DUP9 DUP9 DUP9 DUP9 PUSH1 0x40 MLOAD DUP8 PUSH4 0xFFFFFFFF AND PUSH1 0xE0 SHL DUP2 MSTORE PUSH1 0x4 ADD PUSH2 0x13FC SWAP7 SWAP6 SWAP5 SWAP4 SWAP3 SWAP2 SWAP1 PUSH2 0x4F9E JUMP JUMPDEST PUSH1 0x0 PUSH1 0x40 MLOAD DUP1 DUP4 SUB DUP2 DUP7 DUP1 EXTCODESIZE ISZERO DUP1 ISZERO PUSH2 0x1414 JUMPI PUSH1 0x0 DUP1 REVERT JUMPDEST POP GAS DELEGATECALL ISZERO DUP1 ISZERO PUSH2 0x1428 JUMPI RETURNDATASIZE PUSH1 0x0 DUP1 RETURNDATACOPY RETURNDATASIZE PUSH1 0x0 REVERT JUMPDEST POP POP POP POP POP POP POP POP POP POP POP JUMP JUMPDEST PUSH1 0x0 PUSH1 0x97 PUSH1 0x0 DUP5 DUP2 MSTORE PUSH1 0x20 ADD SWAP1 DUP2 MSTORE PUSH1 0x20 ADD PUSH1 0x0 KECCAK256 PUSH1 0x0 ADD PUSH1 0x0 DUP4 PUSH20 0xFFFFFFFFFFFFFFFFFFFFFFFFFFFFFFFFFFFFFFFF AND PUSH20 0xFFFFFFFFFFFFFFFFFFFFFFFFFFFFFFFFFFFFFFFF AND DUP2 MSTORE PUSH1 0x20 ADD SWAP1 DUP2 MSTORE PUSH1 0x20 ADD PUSH1 0x0 KECCAK256 PUSH1 0x0 SWAP1 SLOAD SWAP1 PUSH2 0x100 EXP SWAP1 DIV PUSH1 0xFF AND SWAP1 POP SWAP3 SWAP2 POP POP JUMP JUMPDEST PUSH1 0x60 PUSH2 0x163 PUSH1 0x0 DUP4 PUSH20 0xFFFFFFFFFFFFFFFFFFFFFFFFFFFFFFFFFFFFFFFF AND PUSH20 0xFFFFFFFFFFFFFFFFFFFFFFFFFFFFFFFFFFFFFFFF AND DUP2 MSTORE PUSH1 0x20 ADD SWAP1 DUP2 MSTORE PUSH1 0x20 ADD PUSH1 0x0 KECCAK256 DUP1 SLOAD DUP1 PUSH1 0x20 MUL PUSH1 0x20 ADD PUSH1 0x40 MLOAD SWAP1 DUP2 ADD PUSH1 0x40 MSTORE DUP1 SWAP3 SWAP2 SWAP1 DUP2 DUP2 MSTORE PUSH1 0x20 ADD DUP3 DUP1 SLOAD DUP1 ISZERO PUSH2 0x152C JUMPI PUSH1 0x20 MUL DUP3 ADD SWAP2 SWAP1 PUSH1 0x0 MSTORE PUSH1 0x20 PUSH1 0x0 KECCAK256 SWAP1 JUMPDEST DUP2 SLOAD DUP2 MSTORE PUSH1 0x20 ADD SWAP1 PUSH1 0x1 ADD SWAP1 DUP1 DUP4 GT PUSH2 0x1518 JUMPI JUMPDEST POP POP POP POP POP SWAP1 POP SWAP2 SWAP1 POP JUMP JUMPDEST PUSH1 0x60 PUSH1 0x66 DUP1 SLOAD PUSH2 0x1547 SWAP1 PUSH2 0x4805 JUMP JUMPDEST DUP1 PUSH1 0x1F ADD PUSH1 0x20 DUP1 SWAP2 DIV MUL PUSH1 0x20 ADD PUSH1 0x40 MLOAD SWAP1 DUP2 ADD PUSH1 0x40 MSTORE DUP1 SWAP3 SWAP2 SWAP1 DUP2 DUP2 MSTORE PUSH1 0x20 ADD DUP3 DUP1 SLOAD PUSH2 0x1573 SWAP1 PUSH2 0x4805 JUMP JUMPDEST DUP1 ISZERO PUSH2 0x15C0 JUMPI DUP1 PUSH1 0x1F LT PUSH2 0x1595 JUMPI PUSH2 0x100 DUP1 DUP4 SLOAD DIV MUL DUP4 MSTORE SWAP2 PUSH1 0x20 ADD SWAP2 PUSH2 0x15C0 JUMP JUMPDEST DUP3 ADD SWAP2 SWAP1 PUSH1 0x0 MSTORE PUSH1 0x20 PUSH1 0x0 KECCAK256 SWAP1 JUMPDEST DUP2 SLOAD DUP2 MSTORE SWAP1 PUSH1 0x1 ADD SWAP1 PUSH1 0x20 ADD DUP1 DUP4 GT PUSH2 0x15A3 JUMPI DUP3 SWAP1 SUB PUSH1 0x1F AND DUP3 ADD SWAP2 JUMPDEST POP POP POP POP POP SWAP1 POP SWAP1 JUMP JUMPDEST PUSH2 0x15F PUSH1 0x0 SWAP1 SLOAD SWAP1 PUSH2 0x100 EXP SWAP1 DIV PUSH20 0xFFFFFFFFFFFFFFFFFFFFFFFFFFFFFFFFFFFFFFFF AND CALLER ADDRESS PUSH2 0x167 SLOAD DUP1 DUP5 PUSH20 0xFFFFFFFFFFFFFFFFFFFFFFFFFFFFFFFFFFFFFFFF AND PUSH4 0xDD62ED3E DUP6 DUP6 PUSH1 0x40 MLOAD DUP4 PUSH4 0xFFFFFFFF AND PUSH1 0xE0 SHL DUP2 MSTORE PUSH1 0x4 ADD PUSH2 0x1630 SWAP3 SWAP2 SWAP1 PUSH2 0x4D58 JUMP JUMPDEST PUSH1 0x20 PUSH1 0x40 MLOAD DUP1 DUP4 SUB DUP2 DUP7 GAS STATICCALL ISZERO DUP1 ISZERO PUSH2 0x164D JUMPI RETURNDATASIZE PUSH1 0x0 DUP1 RETURNDATACOPY RETURNDATASIZE PUSH1 0x0 REVERT JUMPDEST POP POP POP POP PUSH1 0x40 MLOAD RETURNDATASIZE PUSH1 0x1F NOT PUSH1 0x1F DUP3 ADD AND DUP3 ADD DUP1 PUSH1 0x40 MSTORE POP DUP2 ADD SWAP1 PUSH2 0x1671 SWAP2 SWAP1 PUSH2 0x500F JUMP JUMPDEST LT ISZERO PUSH2 0x16B2 JUMPI PUSH1 0x40 MLOAD PUSH32 0x8C379A000000000000000000000000000000000000000000000000000000000 DUP2 MSTORE PUSH1 0x4 ADD PUSH2 0x16A9 SWAP1 PUSH2 0x5088 JUMP JUMPDEST PUSH1 0x40 MLOAD DUP1 SWAP2 SUB SWAP1 REVERT JUMPDEST PUSH2 0x169 SLOAD TIMESTAMP LT ISZERO PUSH2 0x16F8 JUMPI PUSH1 0x40 MLOAD PUSH32 0x8C379A000000000000000000000000000000000000000000000000000000000 DUP2 MSTORE PUSH1 0x4 ADD PUSH2 0x16EF SWAP1 PUSH2 0x50F4 JUMP JUMPDEST PUSH1 0x40 MLOAD DUP1 SWAP2 SUB SWAP1 REVERT JUMPDEST PUSH2 0x16A SLOAD TIMESTAMP GT ISZERO PUSH2 0x173E JUMPI PUSH1 0x40 MLOAD PUSH32 0x8C379A000000000000000000000000000000000000000000000000000000000 DUP2 MSTORE PUSH1 0x4 ADD PUSH2 0x1735 SWAP1 PUSH2 0x5160 JUMP JUMPDEST PUSH1 0x40 MLOAD DUP1 SWAP2 SUB SWAP1 REVERT JUMPDEST PUSH2 0x166 SLOAD PUSH2 0x168 SLOAD LT PUSH2 0x1786 JUMPI PUSH1 0x40 MLOAD PUSH32 0x8C379A000000000000000000000000000000000000000000000000000000000 DUP2 MSTORE PUSH1 0x4 ADD PUSH2 0x177D SWAP1 PUSH2 0x51CC JUMP JUMPDEST PUSH1 0x40 MLOAD DUP1 SWAP2 SUB SWAP1 REVERT JUMPDEST PUSH1 0x0 PUSH2 0x165 PUSH1 0x0 SWAP1 SLOAD SWAP1 PUSH2 0x100 EXP SWAP1 DIV PUSH1 0xFF AND PUSH2 0x17EE JUMPI PUSH2 0x17A6 DUP7 PUSH2 0x2BA9 JUMP JUMPDEST ISZERO PUSH2 0x17E6 JUMPI PUSH1 0x40 MLOAD PUSH32 0x8C379A000000000000000000000000000000000000000000000000000000000 DUP2 MSTORE PUSH1 0x4 ADD PUSH2 0x17DD SWAP1 PUSH2 0x525E JUMP JUMPDEST PUSH1 0x40 MLOAD DUP1 SWAP2 SUB SWAP1 REVERT JUMPDEST DUP6 SWAP1 POP PUSH2 0x1807 JUMP JUMPDEST PUSH2 0x17F9 PUSH2 0x161 PUSH2 0x2BEA JUMP JUMPDEST PUSH2 0x1804 PUSH2 0x161 PUSH2 0x2C00 JUMP JUMPDEST SWAP1 POP JUMPDEST PUSH2 0x15F PUSH1 0x0 SWAP1 SLOAD SWAP1 PUSH2 0x100 EXP SWAP1 DIV PUSH20 0xFFFFFFFFFFFFFFFFFFFFFFFFFFFFFFFFFFFFFFFF AND PUSH20 0xFFFFFFFFFFFFFFFFFFFFFFFFFFFFFFFFFFFFFFFF AND PUSH4 0x23B872DD CALLER ADDRESS PUSH2 0x167 SLOAD PUSH1 0x40 MLOAD DUP5 PUSH4 0xFFFFFFFF AND PUSH1 0xE0 SHL DUP2 MSTORE PUSH1 0x4 ADD PUSH2 0x186A SWAP4 SWAP3 SWAP2 SWAP1 PUSH2 0x527E JUMP JUMPDEST PUSH1 0x20 PUSH1 0x40 MLOAD DUP1 DUP4 SUB DUP2 PUSH1 0x0 DUP8 GAS CALL ISZERO DUP1 ISZERO PUSH2 0x1889 JUMPI RETURNDATASIZE PUSH1 0x0 DUP1 RETURNDATACOPY RETURNDATASIZE PUSH1 0x0 REVERT JUMPDEST POP POP POP POP PUSH1 0x40 MLOAD RETURNDATASIZE PUSH1 0x1F NOT PUSH1 0x1F DUP3 ADD AND DUP3 ADD DUP1 PUSH1 0x40 MSTORE POP DUP2 ADD SWAP1 PUSH2 0x18AD SWAP2 SWAP1 PUSH2 0x52CA JUMP JUMPDEST POP PUSH2 0x18B8 CALLER DUP3 PUSH2 0x2C0E JUMP JUMPDEST PUSH1 0x1 PUSH2 0x168 PUSH1 0x0 DUP3 DUP3 SLOAD PUSH2 0x18CC SWAP2 SWAP1 PUSH2 0x5326 JUMP JUMPDEST SWAP3 POP POP DUP2 SWAP1 SSTORE POP PUSH2 0x163 PUSH1 0x0 CALLER PUSH20 0xFFFFFFFFFFFFFFFFFFFFFFFFFFFFFFFFFFFFFFFF AND PUSH20 0xFFFFFFFFFFFFFFFFFFFFFFFFFFFFFFFFFFFFFFFF AND DUP2 MSTORE PUSH1 0x20 ADD SWAP1 DUP2 MSTORE PUSH1 0x20 ADD PUSH1 0x0 KECCAK256 DUP2 SWAP1 DUP1 PUSH1 0x1 DUP2 SLOAD ADD DUP1 DUP3 SSTORE DUP1 SWAP2 POP POP PUSH1 0x1 SWAP1 SUB SWAP1 PUSH1 0x0 MSTORE PUSH1 0x20 PUSH1 0x0 KECCAK256 ADD PUSH1 0x0 SWAP1 SWAP2 SWAP1 SWAP2 SWAP1 SWAP2 POP SSTORE PUSH1 0x0 PUSH2 0x164 PUSH1 0x0 DUP4 DUP2 MSTORE PUSH1 0x20 ADD SWAP1 DUP2 MSTORE PUSH1 0x20 ADD PUSH1 0x0 KECCAK256 PUSH1 0x0 PUSH2 0x100 EXP DUP2 SLOAD DUP2 PUSH1 0xFF MUL NOT AND SWAP1 DUP4 ISZERO ISZERO MUL OR SWAP1 SSTORE POP PUSH32 0xFC12685C49CFEB42745015FD291B95815C183F87696B74009C88ED640A03B247 CALLER DUP3 PUSH1 0x40 MLOAD PUSH2 0x1998 SWAP3 SWAP2 SWAP1 PUSH2 0x535A JUMP JUMPDEST PUSH1 0x40 MLOAD DUP1 SWAP2 SUB SWAP1 LOG1 POP POP POP POP POP POP JUMP JUMPDEST PUSH1 0x0 DUP1 SHL DUP2 JUMP JUMPDEST PUSH2 0x19C1 PUSH2 0x19BA PUSH2 0x220D JUMP JUMPDEST DUP4 DUP4 PUSH2 0x2E2B JUMP JUMPDEST POP POP JUMP JUMPDEST PUSH2 0x162 PUSH1 0x0 SWAP1 SLOAD SWAP1 PUSH2 0x100 EXP SWAP1 DIV PUSH20 0xFFFFFFFFFFFFFFFFFFFFFFFFFFFFFFFFFFFFFFFF AND DUP2 JUMP JUMPDEST CALLER PUSH20 0xFFFFFFFFFFFFFFFFFFFFFFFFFFFFFFFFFFFFFFFF AND PUSH2 0x1A0C DUP3 PUSH2 0xF09 JUMP JUMPDEST PUSH20 0xFFFFFFFFFFFFFFFFFFFFFFFFFFFFFFFFFFFFFFFF AND EQ PUSH2 0x1A62 JUMPI PUSH1 0x40 MLOAD PUSH32 0x8C379A000000000000000000000000000000000000000000000000000000000 DUP2 MSTORE PUSH1 0x4 ADD PUSH2 0x1A59 SWAP1 PUSH2 0x53CF JUMP JUMPDEST PUSH1 0x40 MLOAD DUP1 SWAP2 SUB SWAP1 REVERT JUMPDEST PUSH2 0x164 PUSH1 0x0 DUP3 DUP2 MSTORE PUSH1 0x20 ADD SWAP1 DUP2 MSTORE PUSH1 0x20 ADD PUSH1 0x0 KECCAK256 PUSH1 0x0 SWAP1 SLOAD SWAP1 PUSH2 0x100 EXP SWAP1 DIV PUSH1 0xFF AND ISZERO PUSH2 0x1AC4 JUMPI PUSH1 0x40 MLOAD PUSH32 0x8C379A000000000000000000000000000000000000000000000000000000000 DUP2 MSTORE PUSH1 0x4 ADD PUSH2 0x1ABB SWAP1 PUSH2 0x543B JUMP JUMPDEST PUSH1 0x40 MLOAD DUP1 SWAP2 SUB SWAP1 REVERT JUMPDEST PUSH2 0x162 PUSH1 0x0 SWAP1 SLOAD SWAP1 PUSH2 0x100 EXP SWAP1 DIV PUSH20 0xFFFFFFFFFFFFFFFFFFFFFFFFFFFFFFFFFFFFFFFF AND PUSH20 0xFFFFFFFFFFFFFFFFFFFFFFFFFFFFFFFFFFFFFFFF AND PUSH4 0xD2318EAE CALLER PUSH1 0x40 MLOAD DUP3 PUSH4 0xFFFFFFFF AND PUSH1 0xE0 SHL DUP2 MSTORE PUSH1 0x4 ADD PUSH2 0x1B20 SWAP2 SWAP1 PUSH2 0x3D46 JUMP JUMPDEST PUSH1 0x0 PUSH1 0x40 MLOAD DUP1 DUP4 SUB DUP2 PUSH1 0x0 DUP8 DUP1 EXTCODESIZE ISZERO DUP1 ISZERO PUSH2 0x1B3A JUMPI PUSH1 0x0 DUP1 REVERT JUMPDEST POP GAS CALL ISZERO DUP1 ISZERO PUSH2 0x1B4E JUMPI RETURNDATASIZE PUSH1 0x0 DUP1 RETURNDATACOPY RETURNDATASIZE PUSH1 0x0 REVERT JUMPDEST POP POP POP POP PUSH1 0x1 PUSH2 0x164 PUSH1 0x0 DUP4 DUP2 MSTORE PUSH1 0x20 ADD SWAP1 DUP2 MSTORE PUSH1 0x20 ADD PUSH1 0x0 KECCAK256 PUSH1 0x0 PUSH2 0x100 EXP DUP2 SLOAD DUP2 PUSH1 0xFF MUL NOT AND SWAP1 DUP4 ISZERO ISZERO MUL OR SWAP1 SSTORE POP PUSH32 0x985873858E85C45546EA9AE9A4F36F740F1654DA6C06D25BD88E3A1307ED22DF CALLER DUP3 PUSH1 0x40 MLOAD PUSH2 0x1BB0 SWAP3 SWAP2 SWAP1 PUSH2 0x535A JUMP JUMPDEST PUSH1 0x40 MLOAD DUP1 SWAP2 SUB SWAP1 LOG1 POP JUMP JUMPDEST PUSH2 0x15F PUSH1 0x0 SWAP1 SLOAD SWAP1 PUSH2 0x100 EXP SWAP1 DIV PUSH20 0xFFFFFFFFFFFFFFFFFFFFFFFFFFFFFFFFFFFFFFFF AND DUP2 JUMP JUMPDEST PUSH2 0x1BF3 PUSH2 0x1BED PUSH2 0x220D JUMP JUMPDEST DUP4 PUSH2 0x22CE JUMP JUMPDEST PUSH2 0x1C32 JUMPI PUSH1 0x40 MLOAD PUSH32 0x8C379A000000000000000000000000000000000000000000000000000000000 DUP2 MSTORE PUSH1 0x4 ADD PUSH2 0x1C29 SWAP1 PUSH2 0x49CC JUMP JUMPDEST PUSH1 0x40 MLOAD DUP1 SWAP2 SUB SWAP1 REVERT JUMPDEST PUSH2 0x1C3E DUP5 DUP5 DUP5 DUP5 PUSH2 0x2F97 JUMP JUMPDEST POP POP POP POP JUMP JUMPDEST PUSH32 0xA49807205CE4D355092EF5A8A18F56E8913CF4A201FBE287825B095693C21775 PUSH2 0x1C6E DUP2 PUSH2 0x265C JUMP JUMPDEST PUSH20 0x0 PUSH4 0x7A171259 DUP8 DUP8 DUP8 DUP8 DUP8 PUSH1 0x40 MLOAD DUP7 PUSH4 0xFFFFFFFF AND PUSH1 0xE0 SHL DUP2 MSTORE PUSH1 0x4 ADD PUSH2 0x1CAD SWAP6 SWAP5 SWAP4 SWAP3 SWAP2 SWAP1 PUSH2 0x545B JUMP JUMPDEST PUSH1 0x20 PUSH1 0x40 MLOAD DUP1 DUP4 SUB DUP2 DUP7 GAS DELEGATECALL ISZERO DUP1 ISZERO PUSH2 0x1CCA JUMPI RETURNDATASIZE PUSH1 0x0 DUP1 RETURNDATACOPY RETURNDATASIZE PUSH1 0x0 REVERT JUMPDEST POP POP POP POP PUSH1 0x40 MLOAD RETURNDATASIZE PUSH1 0x1F NOT PUSH1 0x1F DUP3 ADD AND DUP3 ADD DUP1 PUSH1 0x40 MSTORE POP DUP2 ADD SWAP1 PUSH2 0x1CEE SWAP2 SWAP1 PUSH2 0x500F JUMP JUMPDEST POP POP POP POP POP POP POP JUMP JUMPDEST PUSH1 0x60 PUSH2 0x1D02 DUP3 PUSH2 0x21C2 JUMP JUMPDEST PUSH2 0x160 DUP1 SLOAD PUSH2 0x1D10 SWAP1 PUSH2 0x4805 JUMP JUMPDEST DUP1 PUSH1 0x1F ADD PUSH1 0x20 DUP1 SWAP2 DIV MUL PUSH1 0x20 ADD PUSH1 0x40 MLOAD SWAP1 DUP2 ADD PUSH1 0x40 MSTORE DUP1 SWAP3 SWAP2 SWAP1 DUP2 DUP2 MSTORE PUSH1 0x20 ADD DUP3 DUP1 SLOAD PUSH2 0x1D3C SWAP1 PUSH2 0x4805 JUMP JUMPDEST DUP1 ISZERO PUSH2 0x1D89 JUMPI DUP1 PUSH1 0x1F LT PUSH2 0x1D5E JUMPI PUSH2 0x100 DUP1 DUP4 SLOAD DIV MUL DUP4 MSTORE SWAP2 PUSH1 0x20 ADD SWAP2 PUSH2 0x1D89 JUMP JUMPDEST DUP3 ADD SWAP2 SWAP1 PUSH1 0x0 MSTORE PUSH1 0x20 PUSH1 0x0 KECCAK256 SWAP1 JUMPDEST DUP2 SLOAD DUP2 MSTORE SWAP1 PUSH1 0x1 ADD SWAP1 PUSH1 0x20 ADD DUP1 DUP4 GT PUSH2 0x1D6C JUMPI DUP3 SWAP1 SUB PUSH1 0x1F AND DUP3 ADD SWAP2 JUMPDEST POP POP POP POP POP SWAP1 POP SWAP2 SWAP1 POP JUMP JUMPDEST PUSH2 0x1D9E DUP3 PUSH2 0xAA8 JUMP JUMPDEST PUSH2 0x1DA7 DUP2 PUSH2 0x265C JUMP JUMPDEST PUSH2 0x1DB1 DUP4 DUP4 PUSH2 0x2751 JUMP JUMPDEST POP POP POP JUMP JUMPDEST PUSH1 0x0 DUP1 PUSH1 0x1 SWAP1 SLOAD SWAP1 PUSH2 0x100 EXP SWAP1 DIV PUSH1 0xFF AND ISZERO SWAP1 POP DUP1 DUP1 ISZERO PUSH2 0x1DE7 JUMPI POP PUSH1 0x1 PUSH1 0x0 DUP1 SLOAD SWAP1 PUSH2 0x100 EXP SWAP1 DIV PUSH1 0xFF AND PUSH1 0xFF AND LT JUMPDEST DUP1 PUSH2 0x1E14 JUMPI POP PUSH2 0x1DF6 ADDRESS PUSH2 0x2FF3 JUMP JUMPDEST ISZERO DUP1 ISZERO PUSH2 0x1E13 JUMPI POP PUSH1 0x1 PUSH1 0x0 DUP1 SLOAD SWAP1 PUSH2 0x100 EXP SWAP1 DIV PUSH1 0xFF AND PUSH1 0xFF AND EQ JUMPDEST JUMPDEST PUSH2 0x1E53 JUMPI PUSH1 0x40 MLOAD PUSH32 0x8C379A000000000000000000000000000000000000000000000000000000000 DUP2 MSTORE PUSH1 0x4 ADD PUSH2 0x1E4A SWAP1 PUSH2 0x551B JUMP JUMPDEST PUSH1 0x40 MLOAD DUP1 SWAP2 SUB SWAP1 REVERT JUMPDEST PUSH1 0x1 PUSH1 0x0 DUP1 PUSH2 0x100 EXP DUP2 SLOAD DUP2 PUSH1 0xFF MUL NOT AND SWAP1 DUP4 PUSH1 0xFF AND MUL OR SWAP1 SSTORE POP DUP1 ISZERO PUSH2 0x1E90 JUMPI PUSH1 0x1 PUSH1 0x0 PUSH1 0x1 PUSH2 0x100 EXP DUP2 SLOAD DUP2 PUSH1 0xFF MUL NOT AND SWAP1 DUP4 ISZERO ISZERO MUL OR SWAP1 SSTORE POP JUMPDEST DUP9 PUSH2 0x15F PUSH1 0x0 PUSH2 0x100 EXP DUP2 SLOAD DUP2 PUSH20 0xFFFFFFFFFFFFFFFFFFFFFFFFFFFFFFFFFFFFFFFF MUL NOT AND SWAP1 DUP4 PUSH20 0xFFFFFFFFFFFFFFFFFFFFFFFFFFFFFFFFFFFFFFFF AND MUL OR SWAP1 SSTORE POP DUP10 PUSH2 0x160 SWAP1 DUP2 PUSH2 0x1EE2 SWAP2 SWAP1 PUSH2 0x56DD JUMP JUMPDEST POP DUP6 PUSH2 0x169 DUP2 SWAP1 SSTORE POP DUP5 PUSH2 0x16A DUP2 SWAP1 SSTORE POP DUP4 PUSH2 0x165 PUSH1 0x0 PUSH2 0x100 EXP DUP2 SLOAD DUP2 PUSH1 0xFF MUL NOT AND SWAP1 DUP4 ISZERO ISZERO MUL OR SWAP1 SSTORE POP DUP3 PUSH2 0x166 DUP2 SWAP1 SSTORE POP DUP2 PUSH2 0x167 DUP2 SWAP1 SSTORE POP PUSH2 0x1F28 DUP9 DUP9 PUSH2 0x3016 JUMP JUMPDEST PUSH2 0x1F30 PUSH2 0x3073 JUMP JUMPDEST PUSH2 0x1F38 PUSH2 0x30C4 JUMP JUMPDEST PUSH2 0x1F41 ORIGIN PUSH2 0x2AE1 JUMP JUMPDEST PUSH2 0x1F4E PUSH1 0x0 DUP1 SHL ORIGIN PUSH2 0x3115 JUMP JUMPDEST PUSH2 0x1F78 PUSH32 0xA49807205CE4D355092EF5A8A18F56E8913CF4A201FBE287825B095693C21775 ORIGIN PUSH2 0x3115 JUMP JUMPDEST PUSH2 0x1FA2 PUSH32 0x22C69AB406805E70D07FB1A6502AF760601D3B977BEADB295A9D76D5852E16A3 ORIGIN PUSH2 0x3115 JUMP JUMPDEST PUSH2 0x1FCC PUSH32 0x5D8E12C39142FF96D79D04D15D1BA1269E4FE57BB9D26F43523628B34BA108EC ORIGIN PUSH2 0x3115 JUMP JUMPDEST DUP1 ISZERO PUSH2 0x2025 JUMPI PUSH1 0x0 DUP1 PUSH1 0x1 PUSH2 0x100 EXP DUP2 SLOAD DUP2 PUSH1 0xFF MUL NOT AND SWAP1 DUP4 ISZERO ISZERO MUL OR SWAP1 SSTORE POP PUSH32 0x7F26B83FF96E1F2B6A682F133852F6798A09C465DA95921460CEFB3847402498 PUSH1 0x1 PUSH1 0x40 MLOAD PUSH2 0x201C SWAP2 SWAP1 PUSH2 0x57F7 JUMP JUMPDEST PUSH1 0x40 MLOAD DUP1 SWAP2 SUB SWAP1 LOG1 JUMPDEST POP POP POP POP POP POP POP POP POP POP JUMP JUMPDEST PUSH1 0x0 PUSH1 0x6A PUSH1 0x0 DUP5 PUSH20 0xFFFFFFFFFFFFFFFFFFFFFFFFFFFFFFFFFFFFFFFF AND PUSH20 0xFFFFFFFFFFFFFFFFFFFFFFFFFFFFFFFFFFFFFFFF AND DUP2 MSTORE PUSH1 0x20 ADD SWAP1 DUP2 MSTORE PUSH1 0x20 ADD PUSH1 0x0 KECCAK256 PUSH1 0x0 DUP4 PUSH20 0xFFFFFFFFFFFFFFFFFFFFFFFFFFFFFFFFFFFFFFFF AND PUSH20 0xFFFFFFFFFFFFFFFFFFFFFFFFFFFFFFFFFFFFFFFF AND DUP2 MSTORE PUSH1 0x20 ADD SWAP1 DUP2 MSTORE PUSH1 0x20 ADD PUSH1 0x0 KECCAK256 PUSH1 0x0 SWAP1 SLOAD SWAP1 PUSH2 0x100 EXP SWAP1 DIV PUSH1 0xFF AND SWAP1 POP SWAP3 SWAP2 POP POP JUMP JUMPDEST PUSH2 0x20CD PUSH2 0x2A63 JUMP JUMPDEST PUSH1 0x0 PUSH20 0xFFFFFFFFFFFFFFFFFFFFFFFFFFFFFFFFFFFFFFFF AND DUP2 PUSH20 0xFFFFFFFFFFFFFFFFFFFFFFFFFFFFFFFFFFFFFFFF AND SUB PUSH2 0x213C JUMPI PUSH1 0x40 MLOAD PUSH32 0x8C379A000000000000000000000000000000000000000000000000000000000 DUP2 MSTORE PUSH1 0x4 ADD PUSH2 0x2133 SWAP1 PUSH2 0x5884 JUMP JUMPDEST PUSH1 0x40 MLOAD DUP1 SWAP2 SUB SWAP1 REVERT JUMPDEST PUSH2 0x2145 DUP2 PUSH2 0x2AE1 JUMP JUMPDEST POP JUMP JUMPDEST PUSH1 0x0 PUSH32 0x7965DB0B00000000000000000000000000000000000000000000000000000000 PUSH28 0xFFFFFFFFFFFFFFFFFFFFFFFFFFFFFFFFFFFFFFFFFFFFFFFFFFFFFFFF NOT AND DUP3 PUSH28 0xFFFFFFFFFFFFFFFFFFFFFFFFFFFFFFFFFFFFFFFFFFFFFFFFFFFFFFFF NOT AND EQ DUP1 PUSH2 0x21BB JUMPI POP PUSH2 0x21BA DUP3 PUSH2 0x3123 JUMP JUMPDEST JUMPDEST SWAP1 POP SWAP2 SWAP1 POP JUMP JUMPDEST PUSH2 0x21CB DUP2 PUSH2 0x2BA9 JUMP JUMPDEST PUSH2 0x220A JUMPI PUSH1 0x40 MLOAD PUSH32 0x8C379A000000000000000000000000000000000000000000000000000000000 DUP2 MSTORE PUSH1 0x4 ADD PUSH2 0x2201 SWAP1 PUSH2 0x4C80 JUMP JUMPDEST PUSH1 0x40 MLOAD DUP1 SWAP2 SUB SWAP1 REVERT JUMPDEST POP JUMP JUMPDEST PUSH1 0x0 CALLER SWAP1 POP SWAP1 JUMP JUMPDEST DUP2 PUSH1 0x69 PUSH1 0x0 DUP4 DUP2 MSTORE PUSH1 0x20 ADD SWAP1 DUP2 MSTORE PUSH1 0x20 ADD PUSH1 0x0 KECCAK256 PUSH1 0x0 PUSH2 0x100 EXP DUP2 SLOAD DUP2 PUSH20 0xFFFFFFFFFFFFFFFFFFFFFFFFFFFFFFFFFFFFFFFF MUL NOT AND SWAP1 DUP4 PUSH20 0xFFFFFFFFFFFFFFFFFFFFFFFFFFFFFFFFFFFFFFFF AND MUL OR SWAP1 SSTORE POP DUP1 DUP3 PUSH20 0xFFFFFFFFFFFFFFFFFFFFFFFFFFFFFFFFFFFFFFFF AND PUSH2 0x2288 DUP4 PUSH2 0xF09 JUMP JUMPDEST PUSH20 0xFFFFFFFFFFFFFFFFFFFFFFFFFFFFFFFFFFFFFFFF AND PUSH32 0x8C5BE1E5EBEC7D5BD14F71427D1E84F3DD0314C0F7B2291E5B200AC8C7C3B925 PUSH1 0x40 MLOAD PUSH1 0x40 MLOAD DUP1 SWAP2 SUB SWAP1 LOG4 POP POP JUMP JUMPDEST PUSH1 0x0 DUP1 PUSH2 0x22DA DUP4 PUSH2 0xF09 JUMP JUMPDEST SWAP1 POP DUP1 PUSH20 0xFFFFFFFFFFFFFFFFFFFFFFFFFFFFFFFFFFFFFFFF AND DUP5 PUSH20 0xFFFFFFFFFFFFFFFFFFFFFFFFFFFFFFFFFFFFFFFF AND EQ DUP1 PUSH2 0x231C JUMPI POP PUSH2 0x231B DUP2 DUP6 PUSH2 0x2031 JUMP JUMPDEST JUMPDEST DUP1 PUSH2 0x235A JUMPI POP DUP4 PUSH20 0xFFFFFFFFFFFFFFFFFFFFFFFFFFFFFFFFFFFFFFFF AND PUSH2 0x2342 DUP5 PUSH2 0x8EB JUMP JUMPDEST PUSH20 0xFFFFFFFFFFFFFFFFFFFFFFFFFFFFFFFFFFFFFFFF AND EQ JUMPDEST SWAP2 POP POP SWAP3 SWAP2 POP POP JUMP JUMPDEST DUP3 PUSH20 0xFFFFFFFFFFFFFFFFFFFFFFFFFFFFFFFFFFFFFFFF AND PUSH2 0x2383 DUP3 PUSH2 0xF09 JUMP JUMPDEST PUSH20 0xFFFFFFFFFFFFFFFFFFFFFFFFFFFFFFFFFFFFFFFF AND EQ PUSH2 0x23D9 JUMPI PUSH1 0x40 MLOAD PUSH32 0x8C379A000000000000000000000000000000000000000000000000000000000 DUP2 MSTORE PUSH1 0x4 ADD PUSH2 0x23D0 SWAP1 PUSH2 0x5916 JUMP JUMPDEST PUSH1 0x40 MLOAD DUP1 SWAP2 SUB SWAP1 REVERT JUMPDEST PUSH1 0x0 PUSH20 0xFFFFFFFFFFFFFFFFFFFFFFFFFFFFFFFFFFFFFFFF AND DUP3 PUSH20 0xFFFFFFFFFFFFFFFFFFFFFFFFFFFFFFFFFFFFFFFF AND SUB PUSH2 0x2448 JUMPI PUSH1 0x40 MLOAD PUSH32 0x8C379A000000000000000000000000000000000000000000000000000000000 DUP2 MSTORE PUSH1 0x4 ADD PUSH2 0x243F SWAP1 PUSH2 0x59A8 JUMP JUMPDEST PUSH1 0x40 MLOAD DUP1 SWAP2 SUB SWAP1 REVERT JUMPDEST PUSH2 0x2455 DUP4 DUP4 DUP4 PUSH1 0x1 PUSH2 0x3205 JUMP JUMPDEST DUP3 PUSH20 0xFFFFFFFFFFFFFFFFFFFFFFFFFFFFFFFFFFFFFFFF AND PUSH2 0x2475 DUP3 PUSH2 0xF09 JUMP JUMPDEST PUSH20 0xFFFFFFFFFFFFFFFFFFFFFFFFFFFFFFFFFFFFFFFF AND EQ PUSH2 0x24CB JUMPI PUSH1 0x40 MLOAD PUSH32 0x8C379A000000000000000000000000000000000000000000000000000000000 DUP2 MSTORE PUSH1 0x4 ADD PUSH2 0x24C2 SWAP1 PUSH2 0x5916 JUMP JUMPDEST PUSH1 0x40 MLOAD DUP1 SWAP2 SUB SWAP1 REVERT JUMPDEST PUSH1 0x69 PUSH1 0x0 DUP3 DUP2 MSTORE PUSH1 0x20 ADD SWAP1 DUP2 MSTORE PUSH1 0x20 ADD PUSH1 0x0 KECCAK256 PUSH1 0x0 PUSH2 0x100 EXP DUP2 SLOAD SWAP1 PUSH20 0xFFFFFFFFFFFFFFFFFFFFFFFFFFFFFFFFFFFFFFFF MUL NOT AND SWAP1 SSTORE PUSH1 0x1 PUSH1 0x68 PUSH1 0x0 DUP6 PUSH20 0xFFFFFFFFFFFFFFFFFFFFFFFFFFFFFFFFFFFFFFFF AND PUSH20 0xFFFFFFFFFFFFFFFFFFFFFFFFFFFFFFFFFFFFFFFF AND DUP2 MSTORE PUSH1 0x20 ADD SWAP1 DUP2 MSTORE PUSH1 0x20 ADD PUSH1 0x0 KECCAK256 PUSH1 0x0 DUP3 DUP3 SLOAD SUB SWAP3 POP POP DUP2 SWAP1 SSTORE POP PUSH1 0x1 PUSH1 0x68 PUSH1 0x0 DUP5 PUSH20 0xFFFFFFFFFFFFFFFFFFFFFFFFFFFFFFFFFFFFFFFF AND PUSH20 0xFFFFFFFFFFFFFFFFFFFFFFFFFFFFFFFFFFFFFFFF AND DUP2 MSTORE PUSH1 0x20 ADD SWAP1 DUP2 MSTORE PUSH1 0x20 ADD PUSH1 0x0 KECCAK256 PUSH1 0x0 DUP3 DUP3 SLOAD ADD SWAP3 POP POP DUP2 SWAP1 SSTORE POP DUP2 PUSH1 0x67 PUSH1 0x0 DUP4 DUP2 MSTORE PUSH1 0x20 ADD SWAP1 DUP2 MSTORE PUSH1 0x20 ADD PUSH1 0x0 KECCAK256 PUSH1 0x0 PUSH2 0x100 EXP DUP2 SLOAD DUP2 PUSH20 0xFFFFFFFFFFFFFFFFFFFFFFFFFFFFFFFFFFFFFFFF MUL NOT AND SWAP1 DUP4 PUSH20 0xFFFFFFFFFFFFFFFFFFFFFFFFFFFFFFFFFFFFFFFF AND MUL OR SWAP1 SSTORE POP DUP1 DUP3 PUSH20 0xFFFFFFFFFFFFFFFFFFFFFFFFFFFFFFFFFFFFFFFF AND DUP5 PUSH20 0xFFFFFFFFFFFFFFFFFFFFFFFFFFFFFFFFFFFFFFFF AND PUSH32 0xDDF252AD1BE2C89B69C2B068FC378DAA952BA7F163C4A11628F55A4DF523B3EF PUSH1 0x40 MLOAD PUSH1 0x40 MLOAD DUP1 SWAP2 SUB SWAP1 LOG4 PUSH2 0x2657 DUP4 DUP4 DUP4 PUSH1 0x1 PUSH2 0x332B JUMP JUMPDEST POP POP POP JUMP JUMPDEST PUSH2 0x266D DUP2 PUSH2 0x2668 PUSH2 0x220D JUMP JUMPDEST PUSH2 0x3331 JUMP JUMPDEST POP JUMP JUMPDEST PUSH2 0x267A DUP3 DUP3 PUSH2 0x1435 JUMP JUMPDEST PUSH2 0x274D JUMPI PUSH1 0x1 PUSH1 0x97 PUSH1 0x0 DUP5 DUP2 MSTORE PUSH1 0x20 ADD SWAP1 DUP2 MSTORE PUSH1 0x20 ADD PUSH1 0x0 KECCAK256 PUSH1 0x0 ADD PUSH1 0x0 DUP4 PUSH20 0xFFFFFFFFFFFFFFFFFFFFFFFFFFFFFFFFFFFFFFFF AND PUSH20 0xFFFFFFFFFFFFFFFFFFFFFFFFFFFFFFFFFFFFFFFF AND DUP2 MSTORE PUSH1 0x20 ADD SWAP1 DUP2 MSTORE PUSH1 0x20 ADD PUSH1 0x0 KECCAK256 PUSH1 0x0 PUSH2 0x100 EXP DUP2 SLOAD DUP2 PUSH1 0xFF MUL NOT AND SWAP1 DUP4 ISZERO ISZERO MUL OR SWAP1 SSTORE POP PUSH2 0x26F2 PUSH2 0x220D JUMP JUMPDEST PUSH20 0xFFFFFFFFFFFFFFFFFFFFFFFFFFFFFFFFFFFFFFFF AND DUP2 PUSH20 0xFFFFFFFFFFFFFFFFFFFFFFFFFFFFFFFFFFFFFFFF AND DUP4 PUSH32 0x2F8788117E7EFF1D82E926EC794901D17C78024A50270940304540A733656F0D PUSH1 0x40 MLOAD PUSH1 0x40 MLOAD DUP1 SWAP2 SUB SWAP1 LOG4 JUMPDEST POP POP JUMP JUMPDEST PUSH2 0x275B DUP3 DUP3 PUSH2 0x1435 JUMP JUMPDEST ISZERO PUSH2 0x282F JUMPI PUSH1 0x0 PUSH1 0x97 PUSH1 0x0 DUP5 DUP2 MSTORE PUSH1 0x20 ADD SWAP1 DUP2 MSTORE PUSH1 0x20 ADD PUSH1 0x0 KECCAK256 PUSH1 0x0 ADD PUSH1 0x0 DUP4 PUSH20 0xFFFFFFFFFFFFFFFFFFFFFFFFFFFFFFFFFFFFFFFF AND PUSH20 0xFFFFFFFFFFFFFFFFFFFFFFFFFFFFFFFFFFFFFFFF AND DUP2 MSTORE PUSH1 0x20 ADD SWAP1 DUP2 MSTORE PUSH1 0x20 ADD PUSH1 0x0 KECCAK256 PUSH1 0x0 PUSH2 0x100 EXP DUP2 SLOAD DUP2 PUSH1 0xFF MUL NOT AND SWAP1 DUP4 ISZERO ISZERO MUL OR SWAP1 SSTORE POP PUSH2 0x27D4 PUSH2 0x220D JUMP JUMPDEST PUSH20 0xFFFFFFFFFFFFFFFFFFFFFFFFFFFFFFFFFFFFFFFF AND DUP2 PUSH20 0xFFFFFFFFFFFFFFFFFFFFFFFFFFFFFFFFFFFFFFFF AND DUP4 PUSH32 0xF6391F5C32D9C69D2A47EA670B442974B53935D1EDC7FD64EB21E047A839171B PUSH1 0x40 MLOAD PUSH1 0x40 MLOAD DUP1 SWAP2 SUB SWAP1 LOG4 JUMPDEST POP POP JUMP JUMPDEST PUSH1 0x0 PUSH2 0x2861 PUSH32 0x360894A13BA1A3210667C828492DB98DCA3E2076CC3735A920A3CA505D382BBC PUSH1 0x0 SHL PUSH2 0x33B6 JUMP JUMPDEST PUSH1 0x0 ADD PUSH1 0x0 SWAP1 SLOAD SWAP1 PUSH2 0x100 EXP SWAP1 DIV PUSH20 0xFFFFFFFFFFFFFFFFFFFFFFFFFFFFFFFFFFFFFFFF AND SWAP1 POP SWAP1 JUMP JUMPDEST PUSH32 0xA49807205CE4D355092EF5A8A18F56E8913CF4A201FBE287825B095693C21775 PUSH2 0x28B4 DUP2 PUSH2 0x265C JUMP JUMPDEST POP POP JUMP JUMPDEST PUSH2 0x28E4 PUSH32 0x4910FDFA16FED3260ED0E7147F7CC6DA11A60208B5B9406D12A635614FFD9143 PUSH1 0x0 SHL PUSH2 0x33C0 JUMP JUMPDEST PUSH1 0x0 ADD PUSH1 0x0 SWAP1 SLOAD SWAP1 PUSH2 0x100 EXP SWAP1 DIV PUSH1 0xFF AND ISZERO PUSH2 0x2908 JUMPI PUSH2 0x2903 DUP4 PUSH2 0x33CA JUMP JUMPDEST PUSH2 0x2A21 JUMP JUMPDEST DUP3 PUSH20 0xFFFFFFFFFFFFFFFFFFFFFFFFFFFFFFFFFFFFFFFF AND PUSH4 0x52D1902D PUSH1 0x40 MLOAD DUP2 PUSH4 0xFFFFFFFF AND PUSH1 0xE0 SHL DUP2 MSTORE PUSH1 0x4 ADD PUSH1 0x20 PUSH1 0x40 MLOAD DUP1 DUP4 SUB DUP2 DUP7 GAS STATICCALL SWAP3 POP POP POP DUP1 ISZERO PUSH2 0x2970 JUMPI POP PUSH1 0x40 MLOAD RETURNDATASIZE PUSH1 0x1F NOT PUSH1 0x1F DUP3 ADD AND DUP3 ADD DUP1 PUSH1 0x40 MSTORE POP DUP2 ADD SWAP1 PUSH2 0x296D SWAP2 SWAP1 PUSH2 0x59DD JUMP JUMPDEST PUSH1 0x1 JUMPDEST PUSH2 0x29AF JUMPI PUSH1 0x40 MLOAD PUSH32 0x8C379A000000000000000000000000000000000000000000000000000000000 DUP2 MSTORE PUSH1 0x4 ADD PUSH2 0x29A6 SWAP1 PUSH2 0x5A7C JUMP JUMPDEST PUSH1 0x40 MLOAD DUP1 SWAP2 SUB SWAP1 REVERT JUMPDEST PUSH32 0x360894A13BA1A3210667C828492DB98DCA3E2076CC3735A920A3CA505D382BBC PUSH1 0x0 SHL DUP2 EQ PUSH2 0x2A14 JUMPI PUSH1 0x40 MLOAD PUSH32 0x8C379A000000000000000000000000000000000000000000000000000000000 DUP2 MSTORE PUSH1 0x4 ADD PUSH2 0x2A0B SWAP1 PUSH2 0x5B0E JUMP JUMPDEST PUSH1 0x40 MLOAD DUP1 SWAP2 SUB SWAP1 REVERT JUMPDEST POP PUSH2 0x2A20 DUP4 DUP4 DUP4 PUSH2 0x3483 JUMP JUMPDEST JUMPDEST POP POP POP JUMP JUMPDEST PUSH1 0x0 PUSH1 0x67 PUSH1 0x0 DUP4 DUP2 MSTORE PUSH1 0x20 ADD SWAP1 DUP2 MSTORE PUSH1 0x20 ADD PUSH1 0x0 KECCAK256 PUSH1 0x0 SWAP1 SLOAD SWAP1 PUSH2 0x100 EXP SWAP1 DIV PUSH20 0xFFFFFFFFFFFFFFFFFFFFFFFFFFFFFFFFFFFFFFFF AND SWAP1 POP SWAP2 SWAP1 POP JUMP JUMPDEST PUSH2 0x2A6B PUSH2 0x220D JUMP JUMPDEST PUSH20 0xFFFFFFFFFFFFFFFFFFFFFFFFFFFFFFFFFFFFFFFF AND PUSH2 0x2A89 PUSH2 0x1366 JUMP JUMPDEST PUSH20 0xFFFFFFFFFFFFFFFFFFFFFFFFFFFFFFFFFFFFFFFF AND EQ PUSH2 0x2ADF JUMPI PUSH1 0x40 MLOAD PUSH32 0x8C379A000000000000000000000000000000000000000000000000000000000 DUP2 MSTORE PUSH1 0x4 ADD PUSH2 0x2AD6 SWAP1 PUSH2 0x5B7A JUMP JUMPDEST PUSH1 0x40 MLOAD DUP1 SWAP2 SUB SWAP1 REVERT JUMPDEST JUMP JUMPDEST PUSH1 0x0 PUSH2 0x12D PUSH1 0x0 SWAP1 SLOAD SWAP1 PUSH2 0x100 EXP SWAP1 DIV PUSH20 0xFFFFFFFFFFFFFFFFFFFFFFFFFFFFFFFFFFFFFFFF AND SWAP1 POP DUP2 PUSH2 0x12D PUSH1 0x0 PUSH2 0x100 EXP DUP2 SLOAD DUP2 PUSH20 0xFFFFFFFFFFFFFFFFFFFFFFFFFFFFFFFFFFFFFFFF MUL NOT AND SWAP1 DUP4 PUSH20 0xFFFFFFFFFFFFFFFFFFFFFFFFFFFFFFFFFFFFFFFF AND MUL OR SWAP1 SSTORE POP DUP2 PUSH20 0xFFFFFFFFFFFFFFFFFFFFFFFFFFFFFFFFFFFFFFFF AND DUP2 PUSH20 0xFFFFFFFFFFFFFFFFFFFFFFFFFFFFFFFFFFFFFFFF AND PUSH32 0x8BE0079C531659141344CD1FD0A4F28419497F9722A3DAAFE3B4186F6B6457E0 PUSH1 0x40 MLOAD PUSH1 0x40 MLOAD DUP1 SWAP2 SUB SWAP1 LOG3 POP POP JUMP JUMPDEST PUSH1 0x0 DUP1 PUSH20 0xFFFFFFFFFFFFFFFFFFFFFFFFFFFFFFFFFFFFFFFF AND PUSH2 0x2BCB DUP4 PUSH2 0x2A26 JUMP JUMPDEST PUSH20 0xFFFFFFFFFFFFFFFFFFFFFFFFFFFFFFFFFFFFFFFF AND EQ ISZERO SWAP1 POP SWAP2 SWAP1 POP JUMP JUMPDEST PUSH1 0x1 DUP2 PUSH1 0x0 ADD PUSH1 0x0 DUP3 DUP3 SLOAD ADD SWAP3 POP POP DUP2 SWAP1 SSTORE POP POP JUMP JUMPDEST PUSH1 0x0 DUP2 PUSH1 0x0 ADD SLOAD SWAP1 POP SWAP2 SWAP1 POP JUMP JUMPDEST PUSH1 0x0 PUSH20 0xFFFFFFFFFFFFFFFFFFFFFFFFFFFFFFFFFFFFFFFF AND DUP3 PUSH20 0xFFFFFFFFFFFFFFFFFFFFFFFFFFFFFFFFFFFFFFFF AND SUB PUSH2 0x2C7D JUMPI PUSH1 0x40 MLOAD PUSH32 0x8C379A000000000000000000000000000000000000000000000000000000000 DUP2 MSTORE PUSH1 0x4 ADD PUSH2 0x2C74 SWAP1 PUSH2 0x5BE6 JUMP JUMPDEST PUSH1 0x40 MLOAD DUP1 SWAP2 SUB SWAP1 REVERT JUMPDEST PUSH2 0x2C86 DUP2 PUSH2 0x2BA9 JUMP JUMPDEST ISZERO PUSH2 0x2CC6 JUMPI PUSH1 0x40 MLOAD PUSH32 0x8C379A000000000000000000000000000000000000000000000000000000000 DUP2 MSTORE PUSH1 0x4 ADD PUSH2 0x2CBD SWAP1 PUSH2 0x5C52 JUMP JUMPDEST PUSH1 0x40 MLOAD DUP1 SWAP2 SUB SWAP1 REVERT JUMPDEST PUSH2 0x2CD4 PUSH1 0x0 DUP4 DUP4 PUSH1 0x1 PUSH2 0x3205 JUMP JUMPDEST PUSH2 0x2CDD DUP2 PUSH2 0x2BA9 JUMP JUMPDEST ISZERO PUSH2 0x2D1D JUMPI PUSH1 0x40 MLOAD PUSH32 0x8C379A000000000000000000000000000000000000000000000000000000000 DUP2 MSTORE PUSH1 0x4 ADD PUSH2 0x2D14 SWAP1 PUSH2 0x5C52 JUMP JUMPDEST PUSH1 0x40 MLOAD DUP1 SWAP2 SUB SWAP1 REVERT JUMPDEST PUSH1 0x1 PUSH1 0x68 PUSH1 0x0 DUP5 PUSH20 0xFFFFFFFFFFFFFFFFFFFFFFFFFFFFFFFFFFFFFFFF AND PUSH20 0xFFFFFFFFFFFFFFFFFFFFFFFFFFFFFFFFFFFFFFFF AND DUP2 MSTORE PUSH1 0x20 ADD SWAP1 DUP2 MSTORE PUSH1 0x20 ADD PUSH1 0x0 KECCAK256 PUSH1 0x0 DUP3 DUP3 SLOAD ADD SWAP3 POP POP DUP2 SWAP1 SSTORE POP DUP2 PUSH1 0x67 PUSH1 0x0 DUP4 DUP2 MSTORE PUSH1 0x20 ADD SWAP1 DUP2 MSTORE PUSH1 0x20 ADD PUSH1 0x0 KECCAK256 PUSH1 0x0 PUSH2 0x100 EXP DUP2 SLOAD DUP2 PUSH20 0xFFFFFFFFFFFFFFFFFFFFFFFFFFFFFFFFFFFFFFFF MUL NOT AND SWAP1 DUP4 PUSH20 0xFFFFFFFFFFFFFFFFFFFFFFFFFFFFFFFFFFFFFFFF AND MUL OR SWAP1 SSTORE POP DUP1 DUP3 PUSH20 0xFFFFFFFFFFFFFFFFFFFFFFFFFFFFFFFFFFFFFFFF AND PUSH1 0x0 PUSH20 0xFFFFFFFFFFFFFFFFFFFFFFFFFFFFFFFFFFFFFFFF AND PUSH32 0xDDF252AD1BE2C89B69C2B068FC378DAA952BA7F163C4A11628F55A4DF523B3EF PUSH1 0x40 MLOAD PUSH1 0x40 MLOAD DUP1 SWAP2 SUB SWAP1 LOG4 PUSH2 0x2E27 PUSH1 0x0 DUP4 DUP4 PUSH1 0x1 PUSH2 0x332B JUMP JUMPDEST POP POP JUMP JUMPDEST DUP2 PUSH20 0xFFFFFFFFFFFFFFFFFFFFFFFFFFFFFFFFFFFFFFFF AND DUP4 PUSH20 0xFFFFFFFFFFFFFFFFFFFFFFFFFFFFFFFFFFFFFFFF AND SUB PUSH2 0x2E99 JUMPI PUSH1 0x40 MLOAD PUSH32 0x8C379A000000000000000000000000000000000000000000000000000000000 DUP2 MSTORE PUSH1 0x4 ADD PUSH2 0x2E90 SWAP1 PUSH2 0x5CBE JUMP JUMPDEST PUSH1 0x40 MLOAD DUP1 SWAP2 SUB SWAP1 REVERT JUMPDEST DUP1 PUSH1 0x6A PUSH1 0x0 DUP6 PUSH20 0xFFFFFFFFFFFFFFFFFFFFFFFFFFFFFFFFFFFFFFFF AND PUSH20 0xFFFFFFFFFFFFFFFFFFFFFFFFFFFFFFFFFFFFFFFF AND DUP2 MSTORE PUSH1 0x20 ADD SWAP1 DUP2 MSTORE PUSH1 0x20 ADD PUSH1 0x0 KECCAK256 PUSH1 0x0 DUP5 PUSH20 0xFFFFFFFFFFFFFFFFFFFFFFFFFFFFFFFFFFFFFFFF AND PUSH20 0xFFFFFFFFFFFFFFFFFFFFFFFFFFFFFFFFFFFFFFFF AND DUP2 MSTORE PUSH1 0x20 ADD SWAP1 DUP2 MSTORE PUSH1 0x20 ADD PUSH1 0x0 KECCAK256 PUSH1 0x0 PUSH2 0x100 EXP DUP2 SLOAD DUP2 PUSH1 0xFF MUL NOT AND SWAP1 DUP4 ISZERO ISZERO MUL OR SWAP1 SSTORE POP DUP2 PUSH20 0xFFFFFFFFFFFFFFFFFFFFFFFFFFFFFFFFFFFFFFFF AND DUP4 PUSH20 0xFFFFFFFFFFFFFFFFFFFFFFFFFFFFFFFFFFFFFFFF AND PUSH32 0x17307EAB39AB6107E8899845AD3D59BD9653F200F220920489CA2B5937696C31 DUP4 PUSH1 0x40 MLOAD PUSH2 0x2F8A SWAP2 SWAP1 PUSH2 0x3BD5 JUMP JUMPDEST PUSH1 0x40 MLOAD DUP1 SWAP2 SUB SWAP1 LOG3 POP POP POP JUMP JUMPDEST PUSH2 0x2FA2 DUP5 DUP5 DUP5 PUSH2 0x2363 JUMP JUMPDEST PUSH2 0x2FAE DUP5 DUP5 DUP5 DUP5 PUSH2 0x34AF JUMP JUMPDEST PUSH2 0x2FED JUMPI PUSH1 0x40 MLOAD PUSH32 0x8C379A000000000000000000000000000000000000000000000000000000000 DUP2 MSTORE PUSH1 0x4 ADD PUSH2 0x2FE4 SWAP1 PUSH2 0x5D50 JUMP JUMPDEST PUSH1 0x40 MLOAD DUP1 SWAP2 SUB SWAP1 REVERT JUMPDEST POP POP POP POP JUMP JUMPDEST PUSH1 0x0 DUP1 DUP3 PUSH20 0xFFFFFFFFFFFFFFFFFFFFFFFFFFFFFFFFFFFFFFFF AND EXTCODESIZE GT SWAP1 POP SWAP2 SWAP1 POP JUMP JUMPDEST PUSH1 0x0 PUSH1 0x1 SWAP1 SLOAD SWAP1 PUSH2 0x100 EXP SWAP1 DIV PUSH1 0xFF AND PUSH2 0x3065 JUMPI PUSH1 0x40 MLOAD PUSH32 0x8C379A000000000000000000000000000000000000000000000000000000000 DUP2 MSTORE PUSH1 0x4 ADD PUSH2 0x305C SWAP1 PUSH2 0x5DE2 JUMP JUMPDEST PUSH1 0x40 MLOAD DUP1 SWAP2 SUB SWAP1 REVERT JUMPDEST PUSH2 0x306F DUP3 DUP3 PUSH2 0x3636 JUMP JUMPDEST POP POP JUMP JUMPDEST PUSH1 0x0 PUSH1 0x1 SWAP1 SLOAD SWAP1 PUSH2 0x100 EXP SWAP1 DIV PUSH1 0xFF AND PUSH2 0x30C2 JUMPI PUSH1 0x40 MLOAD PUSH32 0x8C379A000000000000000000000000000000000000000000000000000000000 DUP2 MSTORE PUSH1 0x4 ADD PUSH2 0x30B9 SWAP1 PUSH2 0x5DE2 JUMP JUMPDEST PUSH1 0x40 MLOAD DUP1 SWAP2 SUB SWAP1 REVERT JUMPDEST JUMP JUMPDEST PUSH1 0x0 PUSH1 0x1 SWAP1 SLOAD SWAP1 PUSH2 0x100 EXP SWAP1 DIV PUSH1 0xFF AND PUSH2 0x3113 JUMPI PUSH1 0x40 MLOAD PUSH32 0x8C379A000000000000000000000000000000000000000000000000000000000 DUP2 MSTORE PUSH1 0x4 ADD PUSH2 0x310A SWAP1 PUSH2 0x5DE2 JUMP JUMPDEST PUSH1 0x40 MLOAD DUP1 SWAP2 SUB SWAP1 REVERT JUMPDEST JUMP JUMPDEST PUSH2 0x311F DUP3 DUP3 PUSH2 0x2670 JUMP JUMPDEST POP POP JUMP JUMPDEST PUSH1 0x0 PUSH32 0x80AC58CD00000000000000000000000000000000000000000000000000000000 PUSH28 0xFFFFFFFFFFFFFFFFFFFFFFFFFFFFFFFFFFFFFFFFFFFFFFFFFFFFFFFF NOT AND DUP3 PUSH28 0xFFFFFFFFFFFFFFFFFFFFFFFFFFFFFFFFFFFFFFFFFFFFFFFFFFFFFFFF NOT AND EQ DUP1 PUSH2 0x31EE JUMPI POP PUSH32 0x5B5E139F00000000000000000000000000000000000000000000000000000000 PUSH28 0xFFFFFFFFFFFFFFFFFFFFFFFFFFFFFFFFFFFFFFFFFFFFFFFFFFFFFFFF NOT AND DUP3 PUSH28 0xFFFFFFFFFFFFFFFFFFFFFFFFFFFFFFFFFFFFFFFFFFFFFFFFFFFFFFFF NOT AND EQ JUMPDEST DUP1 PUSH2 0x31FE JUMPI POP PUSH2 0x31FD DUP3 PUSH2 0x36A9 JUMP JUMPDEST JUMPDEST SWAP1 POP SWAP2 SWAP1 POP JUMP JUMPDEST PUSH1 0x1 DUP2 GT ISZERO PUSH2 0x3325 JUMPI PUSH1 0x0 PUSH20 0xFFFFFFFFFFFFFFFFFFFFFFFFFFFFFFFFFFFFFFFF AND DUP5 PUSH20 0xFFFFFFFFFFFFFFFFFFFFFFFFFFFFFFFFFFFFFFFF AND EQ PUSH2 0x3299 JUMPI DUP1 PUSH1 0x68 PUSH1 0x0 DUP7 PUSH20 0xFFFFFFFFFFFFFFFFFFFFFFFFFFFFFFFFFFFFFFFF AND PUSH20 0xFFFFFFFFFFFFFFFFFFFFFFFFFFFFFFFFFFFFFFFF AND DUP2 MSTORE PUSH1 0x20 ADD SWAP1 DUP2 MSTORE PUSH1 0x20 ADD PUSH1 0x0 KECCAK256 PUSH1 0x0 DUP3 DUP3 SLOAD PUSH2 0x3291 SWAP2 SWAP1 PUSH2 0x5E02 JUMP JUMPDEST SWAP3 POP POP DUP2 SWAP1 SSTORE POP JUMPDEST PUSH1 0x0 PUSH20 0xFFFFFFFFFFFFFFFFFFFFFFFFFFFFFFFFFFFFFFFF AND DUP4 PUSH20 0xFFFFFFFFFFFFFFFFFFFFFFFFFFFFFFFFFFFFFFFF AND EQ PUSH2 0x3324 JUMPI DUP1 PUSH1 0x68 PUSH1 0x0 DUP6 PUSH20 0xFFFFFFFFFFFFFFFFFFFFFFFFFFFFFFFFFFFFFFFF AND PUSH20 0xFFFFFFFFFFFFFFFFFFFFFFFFFFFFFFFFFFFFFFFF AND DUP2 MSTORE PUSH1 0x20 ADD SWAP1 DUP2 MSTORE PUSH1 0x20 ADD PUSH1 0x0 KECCAK256 PUSH1 0x0 DUP3 DUP3 SLOAD PUSH2 0x331C SWAP2 SWAP1 PUSH2 0x5326 JUMP JUMPDEST SWAP3 POP POP DUP2 SWAP1 SSTORE POP JUMPDEST JUMPDEST POP POP POP POP JUMP JUMPDEST POP POP POP POP JUMP JUMPDEST PUSH2 0x333B DUP3 DUP3 PUSH2 0x1435 JUMP JUMPDEST PUSH2 0x33B2 JUMPI PUSH2 0x3348 DUP2 PUSH2 0x3713 JUMP JUMPDEST PUSH2 0x3356 DUP4 PUSH1 0x0 SHR PUSH1 0x20 PUSH2 0x3740 JUMP JUMPDEST PUSH1 0x40 MLOAD PUSH1 0x20 ADD PUSH2 0x3367 SWAP3 SWAP2 SWAP1 PUSH2 0x5F0A JUMP JUMPDEST PUSH1 0x40 MLOAD PUSH1 0x20 DUP2 DUP4 SUB SUB DUP2 MSTORE SWAP1 PUSH1 0x40 MSTORE PUSH1 0x40 MLOAD PUSH32 0x8C379A000000000000000000000000000000000000000000000000000000000 DUP2 MSTORE PUSH1 0x4 ADD PUSH2 0x33A9 SWAP2 SWAP1 PUSH2 0x3C80 JUMP JUMPDEST PUSH1 0x40 MLOAD DUP1 SWAP2 SUB SWAP1 REVERT JUMPDEST POP POP JUMP JUMPDEST PUSH1 0x0 DUP2 SWAP1 POP SWAP2 SWAP1 POP JUMP JUMPDEST PUSH1 0x0 DUP2 SWAP1 POP SWAP2 SWAP1 POP JUMP JUMPDEST PUSH2 0x33D3 DUP2 PUSH2 0x2FF3 JUMP JUMPDEST PUSH2 0x3412 JUMPI PUSH1 0x40 MLOAD PUSH32 0x8C379A000000000000000000000000000000000000000000000000000000000 DUP2 MSTORE PUSH1 0x4 ADD PUSH2 0x3409 SWAP1 PUSH2 0x5FB6 JUMP JUMPDEST PUSH1 0x40 MLOAD DUP1 SWAP2 SUB SWAP1 REVERT JUMPDEST DUP1 PUSH2 0x343F PUSH32 0x360894A13BA1A3210667C828492DB98DCA3E2076CC3735A920A3CA505D382BBC PUSH1 0x0 SHL PUSH2 0x33B6 JUMP JUMPDEST PUSH1 0x0 ADD PUSH1 0x0 PUSH2 0x100 EXP DUP2 SLOAD DUP2 PUSH20 0xFFFFFFFFFFFFFFFFFFFFFFFFFFFFFFFFFFFFFFFF MUL NOT AND SWAP1 DUP4 PUSH20 0xFFFFFFFFFFFFFFFFFFFFFFFFFFFFFFFFFFFFFFFF AND MUL OR SWAP1 SSTORE POP POP JUMP JUMPDEST PUSH2 0x348C DUP4 PUSH2 0x397C JUMP JUMPDEST PUSH1 0x0 DUP3 MLOAD GT DUP1 PUSH2 0x3499 JUMPI POP DUP1 JUMPDEST ISZERO PUSH2 0x34AA JUMPI PUSH2 0x34A8 DUP4 DUP4 PUSH2 0x39CB JUMP JUMPDEST POP JUMPDEST POP POP POP JUMP JUMPDEST PUSH1 0x0 PUSH2 0x34D0 DUP5 PUSH20 0xFFFFFFFFFFFFFFFFFFFFFFFFFFFFFFFFFFFFFFFF AND PUSH2 0x2FF3 JUMP JUMPDEST ISZERO PUSH2 0x3629 JUMPI DUP4 PUSH20 0xFFFFFFFFFFFFFFFFFFFFFFFFFFFFFFFFFFFFFFFF AND PUSH4 0x150B7A02 PUSH2 0x34F9 PUSH2 0x220D JUMP JUMPDEST DUP8 DUP7 DUP7 PUSH1 0x40 MLOAD DUP6 PUSH4 0xFFFFFFFF AND PUSH1 0xE0 SHL DUP2 MSTORE PUSH1 0x4 ADD PUSH2 0x351B SWAP5 SWAP4 SWAP3 SWAP2 SWAP1 PUSH2 0x602B JUMP JUMPDEST PUSH1 0x20 PUSH1 0x40 MLOAD DUP1 DUP4 SUB DUP2 PUSH1 0x0 DUP8 GAS CALL SWAP3 POP POP POP DUP1 ISZERO PUSH2 0x3557 JUMPI POP PUSH1 0x40 MLOAD RETURNDATASIZE PUSH1 0x1F NOT PUSH1 0x1F DUP3 ADD AND DUP3 ADD DUP1 PUSH1 0x40 MSTORE POP DUP2 ADD SWAP1 PUSH2 0x3554 SWAP2 SWAP1 PUSH2 0x608C JUMP JUMPDEST PUSH1 0x1 JUMPDEST PUSH2 0x35D9 JUMPI RETURNDATASIZE DUP1 PUSH1 0x0 DUP2 EQ PUSH2 0x3587 JUMPI PUSH1 0x40 MLOAD SWAP2 POP PUSH1 0x1F NOT PUSH1 0x3F RETURNDATASIZE ADD AND DUP3 ADD PUSH1 0x40 MSTORE RETURNDATASIZE DUP3 MSTORE RETURNDATASIZE PUSH1 0x0 PUSH1 0x20 DUP5 ADD RETURNDATACOPY PUSH2 0x358C JUMP JUMPDEST PUSH1 0x60 SWAP2 POP JUMPDEST POP PUSH1 0x0 DUP2 MLOAD SUB PUSH2 0x35D1 JUMPI PUSH1 0x40 MLOAD PUSH32 0x8C379A000000000000000000000000000000000000000000000000000000000 DUP2 MSTORE PUSH1 0x4 ADD PUSH2 0x35C8 SWAP1 PUSH2 0x5D50 JUMP JUMPDEST PUSH1 0x40 MLOAD DUP1 SWAP2 SUB SWAP1 REVERT JUMPDEST DUP1 MLOAD DUP2 PUSH1 0x20 ADD REVERT JUMPDEST PUSH4 0x150B7A02 PUSH1 0xE0 SHL PUSH28 0xFFFFFFFFFFFFFFFFFFFFFFFFFFFFFFFFFFFFFFFFFFFFFFFFFFFFFFFF NOT AND DUP2 PUSH28 0xFFFFFFFFFFFFFFFFFFFFFFFFFFFFFFFFFFFFFFFFFFFFFFFFFFFFFFFF NOT AND EQ SWAP2 POP POP PUSH2 0x362E JUMP JUMPDEST PUSH1 0x1 SWAP1 POP JUMPDEST SWAP5 SWAP4 POP POP POP POP JUMP JUMPDEST PUSH1 0x0 PUSH1 0x1 SWAP1 SLOAD SWAP1 PUSH2 0x100 EXP SWAP1 DIV PUSH1 0xFF AND PUSH2 0x3685 JUMPI PUSH1 0x40 MLOAD PUSH32 0x8C379A000000000000000000000000000000000000000000000000000000000 DUP2 MSTORE PUSH1 0x4 ADD PUSH2 0x367C SWAP1 PUSH2 0x5DE2 JUMP JUMPDEST PUSH1 0x40 MLOAD DUP1 SWAP2 SUB SWAP1 REVERT JUMPDEST DUP2 PUSH1 0x65 SWAP1 DUP2 PUSH2 0x3694 SWAP2 SWAP1 PUSH2 0x56DD JUMP JUMPDEST POP DUP1 PUSH1 0x66 SWAP1 DUP2 PUSH2 0x36A4 SWAP2 SWAP1 PUSH2 0x56DD JUMP JUMPDEST POP POP POP JUMP JUMPDEST PUSH1 0x0 PUSH32 0x1FFC9A700000000000000000000000000000000000000000000000000000000 PUSH28 0xFFFFFFFFFFFFFFFFFFFFFFFFFFFFFFFFFFFFFFFFFFFFFFFFFFFFFFFF NOT AND DUP3 PUSH28 0xFFFFFFFFFFFFFFFFFFFFFFFFFFFFFFFFFFFFFFFFFFFFFFFFFFFFFFFF NOT AND EQ SWAP1 POP SWAP2 SWAP1 POP JUMP JUMPDEST PUSH1 0x60 PUSH2 0x3739 DUP3 PUSH20 0xFFFFFFFFFFFFFFFFFFFFFFFFFFFFFFFFFFFFFFFF AND PUSH1 0x14 PUSH1 0xFF AND PUSH2 0x3740 JUMP JUMPDEST SWAP1 POP SWAP2 SWAP1 POP JUMP JUMPDEST PUSH1 0x60 PUSH1 0x0 PUSH1 0x2 DUP4 PUSH1 0x2 PUSH2 0x3753 SWAP2 SWAP1 PUSH2 0x60B9 JUMP JUMPDEST PUSH2 0x375D SWAP2 SWAP1 PUSH2 0x5326 JUMP JUMPDEST PUSH8 0xFFFFFFFFFFFFFFFF DUP2 GT ISZERO PUSH2 0x3776 JUMPI PUSH2 0x3775 PUSH2 0x3F24 JUMP JUMPDEST JUMPDEST PUSH1 0x40 MLOAD SWAP1 DUP1 DUP3 MSTORE DUP1 PUSH1 0x1F ADD PUSH1 0x1F NOT AND PUSH1 0x20 ADD DUP3 ADD PUSH1 0x40 MSTORE DUP1 ISZERO PUSH2 0x37A8 JUMPI DUP2 PUSH1 0x20 ADD PUSH1 0x1 DUP3 MUL DUP1 CALLDATASIZE DUP4 CALLDATACOPY DUP1 DUP3 ADD SWAP2 POP POP SWAP1 POP JUMPDEST POP SWAP1 POP PUSH32 0x3000000000000000000000000000000000000000000000000000000000000000 DUP2 PUSH1 0x0 DUP2 MLOAD DUP2 LT PUSH2 0x37E0 JUMPI PUSH2 0x37DF PUSH2 0x60FB JUMP JUMPDEST JUMPDEST PUSH1 0x20 ADD ADD SWAP1 PUSH31 0xFFFFFFFFFFFFFFFFFFFFFFFFFFFFFFFFFFFFFFFFFFFFFFFFFFFFFFFFFFFFFF NOT AND SWAP1 DUP2 PUSH1 0x0 BYTE SWAP1 MSTORE8 POP PUSH32 0x7800000000000000000000000000000000000000000000000000000000000000 DUP2 PUSH1 0x1 DUP2 MLOAD DUP2 LT PUSH2 0x3844 JUMPI PUSH2 0x3843 PUSH2 0x60FB JUMP JUMPDEST JUMPDEST PUSH1 0x20 ADD ADD SWAP1 PUSH31 0xFFFFFFFFFFFFFFFFFFFFFFFFFFFFFFFFFFFFFFFFFFFFFFFFFFFFFFFFFFFFFF NOT AND SWAP1 DUP2 PUSH1 0x0 BYTE SWAP1 MSTORE8 POP PUSH1 0x0 PUSH1 0x1 DUP5 PUSH1 0x2 PUSH2 0x3884 SWAP2 SWAP1 PUSH2 0x60B9 JUMP JUMPDEST PUSH2 0x388E SWAP2 SWAP1 PUSH2 0x5326 JUMP JUMPDEST SWAP1 POP JUMPDEST PUSH1 0x1 DUP2 GT ISZERO PUSH2 0x392E JUMPI PUSH32 0x3031323334353637383961626364656600000000000000000000000000000000 PUSH1 0xF DUP7 AND PUSH1 0x10 DUP2 LT PUSH2 0x38D0 JUMPI PUSH2 0x38CF PUSH2 0x60FB JUMP JUMPDEST JUMPDEST BYTE PUSH1 0xF8 SHL DUP3 DUP3 DUP2 MLOAD DUP2 LT PUSH2 0x38E7 JUMPI PUSH2 0x38E6 PUSH2 0x60FB JUMP JUMPDEST JUMPDEST PUSH1 0x20 ADD ADD SWAP1 PUSH31 0xFFFFFFFFFFFFFFFFFFFFFFFFFFFFFFFFFFFFFFFFFFFFFFFFFFFFFFFFFFFFFF NOT AND SWAP1 DUP2 PUSH1 0x0 BYTE SWAP1 MSTORE8 POP PUSH1 0x4 DUP6 SWAP1 SHR SWAP5 POP DUP1 PUSH2 0x3927 SWAP1 PUSH2 0x612A JUMP JUMPDEST SWAP1 POP PUSH2 0x3891 JUMP JUMPDEST POP PUSH1 0x0 DUP5 EQ PUSH2 0x3972 JUMPI PUSH1 0x40 MLOAD PUSH32 0x8C379A000000000000000000000000000000000000000000000000000000000 DUP2 MSTORE PUSH1 0x4 ADD PUSH2 0x3969 SWAP1 PUSH2 0x619F JUMP JUMPDEST PUSH1 0x40 MLOAD DUP1 SWAP2 SUB SWAP1 REVERT JUMPDEST DUP1 SWAP2 POP POP SWAP3 SWAP2 POP POP JUMP JUMPDEST PUSH2 0x3985 DUP2 PUSH2 0x33CA JUMP JUMPDEST DUP1 PUSH20 0xFFFFFFFFFFFFFFFFFFFFFFFFFFFFFFFFFFFFFFFF AND PUSH32 0xBC7CD75A20EE27FD9ADEBAB32041F755214DBC6BFFA90CC0225B39DA2E5C2D3B PUSH1 0x40 MLOAD PUSH1 0x40 MLOAD DUP1 SWAP2 SUB SWAP1 LOG2 POP JUMP JUMPDEST PUSH1 0x60 PUSH2 0x39D6 DUP4 PUSH2 0x2FF3 JUMP JUMPDEST PUSH2 0x3A15 JUMPI PUSH1 0x40 MLOAD PUSH32 0x8C379A000000000000000000000000000000000000000000000000000000000 DUP2 MSTORE PUSH1 0x4 ADD PUSH2 0x3A0C SWAP1 PUSH2 0x6231 JUMP JUMPDEST PUSH1 0x40 MLOAD DUP1 SWAP2 SUB SWAP1 REVERT JUMPDEST PUSH1 0x0 DUP1 DUP5 PUSH20 0xFFFFFFFFFFFFFFFFFFFFFFFFFFFFFFFFFFFFFFFF AND DUP5 PUSH1 0x40 MLOAD PUSH2 0x3A3D SWAP2 SWAP1 PUSH2 0x628D JUMP JUMPDEST PUSH1 0x0 PUSH1 0x40 MLOAD DUP1 DUP4 SUB DUP2 DUP6 GAS DELEGATECALL SWAP2 POP POP RETURNDATASIZE DUP1 PUSH1 0x0 DUP2 EQ PUSH2 0x3A78 JUMPI PUSH1 0x40 MLOAD SWAP2 POP PUSH1 0x1F NOT PUSH1 0x3F RETURNDATASIZE ADD AND DUP3 ADD PUSH1 0x40 MSTORE RETURNDATASIZE DUP3 MSTORE RETURNDATASIZE PUSH1 0x0 PUSH1 0x20 DUP5 ADD RETURNDATACOPY PUSH2 0x3A7D JUMP JUMPDEST PUSH1 0x60 SWAP2 POP JUMPDEST POP SWAP2 POP SWAP2 POP PUSH2 0x3AA5 DUP3 DUP3 PUSH1 0x40 MLOAD DUP1 PUSH1 0x60 ADD PUSH1 0x40 MSTORE DUP1 PUSH1 0x27 DUP2 MSTORE PUSH1 0x20 ADD PUSH2 0x62A5 PUSH1 0x27 SWAP2 CODECOPY PUSH2 0x3AAF JUMP JUMPDEST SWAP3 POP POP POP SWAP3 SWAP2 POP POP JUMP JUMPDEST PUSH1 0x60 DUP4 ISZERO PUSH2 0x3ABF JUMPI DUP3 SWAP1 POP PUSH2 0x3ACA JUMP JUMPDEST PUSH2 0x3AC9 DUP4 DUP4 PUSH2 0x3AD1 JUMP JUMPDEST JUMPDEST SWAP4 SWAP3 POP POP POP JUMP JUMPDEST PUSH1 0x0 DUP3 MLOAD GT ISZERO PUSH2 0x3AE4 JUMPI DUP2 MLOAD DUP1 DUP4 PUSH1 0x20 ADD REVERT JUMPDEST DUP1 PUSH1 0x40 MLOAD PUSH32 0x8C379A000000000000000000000000000000000000000000000000000000000 DUP2 MSTORE PUSH1 0x4 ADD PUSH2 0x3B18 SWAP2 SWAP1 PUSH2 0x3C80 JUMP JUMPDEST PUSH1 0x40 MLOAD DUP1 SWAP2 SUB SWAP1 REVERT JUMPDEST PUSH1 0x0 PUSH1 0x40 MLOAD SWAP1 POP SWAP1 JUMP JUMPDEST PUSH1 0x0 DUP1 REVERT JUMPDEST PUSH1 0x0 DUP1 REVERT JUMPDEST PUSH1 0x0 PUSH32 0xFFFFFFFF00000000000000000000000000000000000000000000000000000000 DUP3 AND SWAP1 POP SWAP2 SWAP1 POP JUMP JUMPDEST PUSH2 0x3B6A DUP2 PUSH2 0x3B35 JUMP JUMPDEST DUP2 EQ PUSH2 0x3B75 JUMPI PUSH1 0x0 DUP1 REVERT JUMPDEST POP JUMP JUMPDEST PUSH1 0x0 DUP2 CALLDATALOAD SWAP1 POP PUSH2 0x3B87 DUP2 PUSH2 0x3B61 JUMP JUMPDEST SWAP3 SWAP2 POP POP JUMP JUMPDEST PUSH1 0x0 PUSH1 0x20 DUP3 DUP5 SUB SLT ISZERO PUSH2 0x3BA3 JUMPI PUSH2 0x3BA2 PUSH2 0x3B2B JUMP JUMPDEST JUMPDEST PUSH1 0x0 PUSH2 0x3BB1 DUP5 DUP3 DUP6 ADD PUSH2 0x3B78 JUMP JUMPDEST SWAP2 POP POP SWAP3 SWAP2 POP POP JUMP JUMPDEST PUSH1 0x0 DUP2 ISZERO ISZERO SWAP1 POP SWAP2 SWAP1 POP JUMP JUMPDEST PUSH2 0x3BCF DUP2 PUSH2 0x3BBA JUMP JUMPDEST DUP3 MSTORE POP POP JUMP JUMPDEST PUSH1 0x0 PUSH1 0x20 DUP3 ADD SWAP1 POP PUSH2 0x3BEA PUSH1 0x0 DUP4 ADD DUP5 PUSH2 0x3BC6 JUMP JUMPDEST SWAP3 SWAP2 POP POP JUMP JUMPDEST PUSH1 0x0 DUP2 MLOAD SWAP1 POP SWAP2 SWAP1 POP JUMP JUMPDEST PUSH1 0x0 DUP3 DUP3 MSTORE PUSH1 0x20 DUP3 ADD SWAP1 POP SWAP3 SWAP2 POP POP JUMP JUMPDEST PUSH1 0x0 JUMPDEST DUP4 DUP2 LT ISZERO PUSH2 0x3C2A JUMPI DUP1 DUP3 ADD MLOAD DUP2 DUP5 ADD MSTORE PUSH1 0x20 DUP2 ADD SWAP1 POP PUSH2 0x3C0F JUMP JUMPDEST PUSH1 0x0 DUP5 DUP5 ADD MSTORE POP POP POP POP JUMP JUMPDEST PUSH1 0x0 PUSH1 0x1F NOT PUSH1 0x1F DUP4 ADD AND SWAP1 POP SWAP2 SWAP1 POP JUMP JUMPDEST PUSH1 0x0 PUSH2 0x3C52 DUP3 PUSH2 0x3BF0 JUMP JUMPDEST PUSH2 0x3C5C DUP2 DUP6 PUSH2 0x3BFB JUMP JUMPDEST SWAP4 POP PUSH2 0x3C6C DUP2 DUP6 PUSH1 0x20 DUP7 ADD PUSH2 0x3C0C JUMP JUMPDEST PUSH2 0x3C75 DUP2 PUSH2 0x3C36 JUMP JUMPDEST DUP5 ADD SWAP2 POP POP SWAP3 SWAP2 POP POP JUMP JUMPDEST PUSH1 0x0 PUSH1 0x20 DUP3 ADD SWAP1 POP DUP2 DUP2 SUB PUSH1 0x0 DUP4 ADD MSTORE PUSH2 0x3C9A DUP2 DUP5 PUSH2 0x3C47 JUMP JUMPDEST SWAP1 POP SWAP3 SWAP2 POP POP JUMP JUMPDEST PUSH1 0x0 DUP2 SWAP1 POP SWAP2 SWAP1 POP JUMP JUMPDEST PUSH2 0x3CB5 DUP2 PUSH2 0x3CA2 JUMP JUMPDEST DUP2 EQ PUSH2 0x3CC0 JUMPI PUSH1 0x0 DUP1 REVERT JUMPDEST POP JUMP JUMPDEST PUSH1 0x0 DUP2 CALLDATALOAD SWAP1 POP PUSH2 0x3CD2 DUP2 PUSH2 0x3CAC JUMP JUMPDEST SWAP3 SWAP2 POP POP JUMP JUMPDEST PUSH1 0x0 PUSH1 0x20 DUP3 DUP5 SUB SLT ISZERO PUSH2 0x3CEE JUMPI PUSH2 0x3CED PUSH2 0x3B2B JUMP JUMPDEST JUMPDEST PUSH1 0x0 PUSH2 0x3CFC DUP5 DUP3 DUP6 ADD PUSH2 0x3CC3 JUMP JUMPDEST SWAP2 POP POP SWAP3 SWAP2 POP POP JUMP JUMPDEST PUSH1 0x0 PUSH20 0xFFFFFFFFFFFFFFFFFFFFFFFFFFFFFFFFFFFFFFFF DUP3 AND SWAP1 POP SWAP2 SWAP1 POP JUMP JUMPDEST PUSH1 0x0 PUSH2 0x3D30 DUP3 PUSH2 0x3D05 JUMP JUMPDEST SWAP1 POP SWAP2 SWAP1 POP JUMP JUMPDEST PUSH2 0x3D40 DUP2 PUSH2 0x3D25 JUMP JUMPDEST DUP3 MSTORE POP POP JUMP JUMPDEST PUSH1 0x0 PUSH1 0x20 DUP3 ADD SWAP1 POP PUSH2 0x3D5B PUSH1 0x0 DUP4 ADD DUP5 PUSH2 0x3D37 JUMP JUMPDEST SWAP3 SWAP2 POP POP JUMP JUMPDEST PUSH2 0x3D6A DUP2 PUSH2 0x3D25 JUMP JUMPDEST DUP2 EQ PUSH2 0x3D75 JUMPI PUSH1 0x0 DUP1 REVERT JUMPDEST POP JUMP JUMPDEST PUSH1 0x0 DUP2 CALLDATALOAD SWAP1 POP PUSH2 0x3D87 DUP2 PUSH2 0x3D61 JUMP JUMPDEST SWAP3 SWAP2 POP POP JUMP JUMPDEST PUSH1 0x0 DUP1 PUSH1 0x40 DUP4 DUP6 SUB SLT ISZERO PUSH2 0x3DA4 JUMPI PUSH2 0x3DA3 PUSH2 0x3B2B JUMP JUMPDEST JUMPDEST PUSH1 0x0 PUSH2 0x3DB2 DUP6 DUP3 DUP7 ADD PUSH2 0x3D78 JUMP JUMPDEST SWAP3 POP POP PUSH1 0x20 PUSH2 0x3DC3 DUP6 DUP3 DUP7 ADD PUSH2 0x3CC3 JUMP JUMPDEST SWAP2 POP POP SWAP3 POP SWAP3 SWAP1 POP JUMP JUMPDEST PUSH1 0x0 DUP1 PUSH1 0x0 PUSH1 0x60 DUP5 DUP7 SUB SLT ISZERO PUSH2 0x3DE6 JUMPI PUSH2 0x3DE5 PUSH2 0x3B2B JUMP JUMPDEST JUMPDEST PUSH1 0x0 PUSH2 0x3DF4 DUP7 DUP3 DUP8 ADD PUSH2 0x3D78 JUMP JUMPDEST SWAP4 POP POP PUSH1 0x20 PUSH2 0x3E05 DUP7 DUP3 DUP8 ADD PUSH2 0x3D78 JUMP JUMPDEST SWAP3 POP POP PUSH1 0x40 PUSH2 0x3E16 DUP7 DUP3 DUP8 ADD PUSH2 0x3CC3 JUMP JUMPDEST SWAP2 POP POP SWAP3 POP SWAP3 POP SWAP3 JUMP JUMPDEST PUSH1 0x0 DUP2 SWAP1 POP SWAP2 SWAP1 POP JUMP JUMPDEST PUSH2 0x3E33 DUP2 PUSH2 0x3E20 JUMP JUMPDEST DUP2 EQ PUSH2 0x3E3E JUMPI PUSH1 0x0 DUP1 REVERT JUMPDEST POP JUMP JUMPDEST PUSH1 0x0 DUP2 CALLDATALOAD SWAP1 POP PUSH2 0x3E50 DUP2 PUSH2 0x3E2A JUMP JUMPDEST SWAP3 SWAP2 POP POP JUMP JUMPDEST PUSH1 0x0 PUSH1 0x20 DUP3 DUP5 SUB SLT ISZERO PUSH2 0x3E6C JUMPI PUSH2 0x3E6B PUSH2 0x3B2B JUMP JUMPDEST JUMPDEST PUSH1 0x0 PUSH2 0x3E7A DUP5 DUP3 DUP6 ADD PUSH2 0x3E41 JUMP JUMPDEST SWAP2 POP POP SWAP3 SWAP2 POP POP JUMP JUMPDEST PUSH2 0x3E8C DUP2 PUSH2 0x3E20 JUMP JUMPDEST DUP3 MSTORE POP POP JUMP JUMPDEST PUSH1 0x0 PUSH1 0x20 DUP3 ADD SWAP1 POP PUSH2 0x3EA7 PUSH1 0x0 DUP4 ADD DUP5 PUSH2 0x3E83 JUMP JUMPDEST SWAP3 SWAP2 POP POP JUMP JUMPDEST PUSH1 0x0 DUP1 PUSH1 0x40 DUP4 DUP6 SUB SLT ISZERO PUSH2 0x3EC4 JUMPI PUSH2 0x3EC3 PUSH2 0x3B2B JUMP JUMPDEST JUMPDEST PUSH1 0x0 PUSH2 0x3ED2 DUP6 DUP3 DUP7 ADD PUSH2 0x3E41 JUMP JUMPDEST SWAP3 POP POP PUSH1 0x20 PUSH2 0x3EE3 DUP6 DUP3 DUP7 ADD PUSH2 0x3D78 JUMP JUMPDEST SWAP2 POP POP SWAP3 POP SWAP3 SWAP1 POP JUMP JUMPDEST PUSH1 0x0 PUSH1 0x20 DUP3 DUP5 SUB SLT ISZERO PUSH2 0x3F03 JUMPI PUSH2 0x3F02 PUSH2 0x3B2B JUMP JUMPDEST JUMPDEST PUSH1 0x0 PUSH2 0x3F11 DUP5 DUP3 DUP6 ADD PUSH2 0x3D78 JUMP JUMPDEST SWAP2 POP POP SWAP3 SWAP2 POP POP JUMP JUMPDEST PUSH1 0x0 DUP1 REVERT JUMPDEST PUSH1 0x0 DUP1 REVERT JUMPDEST PUSH32 0x4E487B7100000000000000000000000000000000000000000000000000000000 PUSH1 0x0 MSTORE PUSH1 0x41 PUSH1 0x4 MSTORE PUSH1 0x24 PUSH1 0x0 REVERT JUMPDEST PUSH2 0x3F5C DUP3 PUSH2 0x3C36 JUMP JUMPDEST DUP2 ADD DUP2 DUP2 LT PUSH8 0xFFFFFFFFFFFFFFFF DUP3 GT OR ISZERO PUSH2 0x3F7B JUMPI PUSH2 0x3F7A PUSH2 0x3F24 JUMP JUMPDEST JUMPDEST DUP1 PUSH1 0x40 MSTORE POP POP POP JUMP JUMPDEST PUSH1 0x0 PUSH2 0x3F8E PUSH2 0x3B21 JUMP JUMPDEST SWAP1 POP PUSH2 0x3F9A DUP3 DUP3 PUSH2 0x3F53 JUMP JUMPDEST SWAP2 SWAP1 POP JUMP JUMPDEST PUSH1 0x0 PUSH8 0xFFFFFFFFFFFFFFFF DUP3 GT ISZERO PUSH2 0x3FBA JUMPI PUSH2 0x3FB9 PUSH2 0x3F24 JUMP JUMPDEST JUMPDEST PUSH2 0x3FC3 DUP3 PUSH2 0x3C36 JUMP JUMPDEST SWAP1 POP PUSH1 0x20 DUP2 ADD SWAP1 POP SWAP2 SWAP1 POP JUMP JUMPDEST DUP3 DUP2 DUP4 CALLDATACOPY PUSH1 0x0 DUP4 DUP4 ADD MSTORE POP POP POP JUMP JUMPDEST PUSH1 0x0 PUSH2 0x3FF2 PUSH2 0x3FED DUP5 PUSH2 0x3F9F JUMP JUMPDEST PUSH2 0x3F84 JUMP JUMPDEST SWAP1 POP DUP3 DUP2 MSTORE PUSH1 0x20 DUP2 ADD DUP5 DUP5 DUP5 ADD GT ISZERO PUSH2 0x400E JUMPI PUSH2 0x400D PUSH2 0x3F1F JUMP JUMPDEST JUMPDEST PUSH2 0x4019 DUP5 DUP3 DUP6 PUSH2 0x3FD0 JUMP JUMPDEST POP SWAP4 SWAP3 POP POP POP JUMP JUMPDEST PUSH1 0x0 DUP3 PUSH1 0x1F DUP4 ADD SLT PUSH2 0x4036 JUMPI PUSH2 0x4035 PUSH2 0x3F1A JUMP JUMPDEST JUMPDEST DUP2 CALLDATALOAD PUSH2 0x4046 DUP5 DUP3 PUSH1 0x20 DUP7 ADD PUSH2 0x3FDF JUMP JUMPDEST SWAP2 POP POP SWAP3 SWAP2 POP POP JUMP JUMPDEST PUSH1 0x0 DUP1 PUSH1 0x40 DUP4 DUP6 SUB SLT ISZERO PUSH2 0x4066 JUMPI PUSH2 0x4065 PUSH2 0x3B2B JUMP JUMPDEST JUMPDEST PUSH1 0x0 PUSH2 0x4074 DUP6 DUP3 DUP7 ADD PUSH2 0x3D78 JUMP JUMPDEST SWAP3 POP POP PUSH1 0x20 DUP4 ADD CALLDATALOAD PUSH8 0xFFFFFFFFFFFFFFFF DUP2 GT ISZERO PUSH2 0x4095 JUMPI PUSH2 0x4094 PUSH2 0x3B30 JUMP JUMPDEST JUMPDEST PUSH2 0x40A1 DUP6 DUP3 DUP7 ADD PUSH2 0x4021 JUMP JUMPDEST SWAP2 POP POP SWAP3 POP SWAP3 SWAP1 POP JUMP JUMPDEST PUSH1 0x0 PUSH2 0x40B6 DUP3 PUSH2 0x3D25 JUMP JUMPDEST SWAP1 POP SWAP2 SWAP1 POP JUMP JUMPDEST PUSH2 0x40C6 DUP2 PUSH2 0x40AB JUMP JUMPDEST DUP2 EQ PUSH2 0x40D1 JUMPI PUSH1 0x0 DUP1 REVERT JUMPDEST POP JUMP JUMPDEST PUSH1 0x0 DUP2 CALLDATALOAD SWAP1 POP PUSH2 0x40E3 DUP2 PUSH2 0x40BD JUMP JUMPDEST SWAP3 SWAP2 POP POP JUMP JUMPDEST PUSH1 0x0 PUSH1 0x20 DUP3 DUP5 SUB SLT ISZERO PUSH2 0x40FF JUMPI PUSH2 0x40FE PUSH2 0x3B2B JUMP JUMPDEST JUMPDEST PUSH1 0x0 PUSH2 0x410D DUP5 DUP3 DUP6 ADD PUSH2 0x40D4 JUMP JUMPDEST SWAP2 POP POP SWAP3 SWAP2 POP POP JUMP JUMPDEST PUSH2 0x411F DUP2 PUSH2 0x3CA2 JUMP JUMPDEST DUP3 MSTORE POP POP JUMP JUMPDEST PUSH1 0x0 PUSH1 0x20 DUP3 ADD SWAP1 POP PUSH2 0x413A PUSH1 0x0 DUP4 ADD DUP5 PUSH2 0x4116 JUMP JUMPDEST SWAP3 SWAP2 POP POP JUMP JUMPDEST PUSH1 0x0 PUSH2 0x414B DUP3 PUSH2 0x3D25 JUMP JUMPDEST SWAP1 POP SWAP2 SWAP1 POP JUMP JUMPDEST PUSH2 0x415B DUP2 PUSH2 0x4140 JUMP JUMPDEST DUP2 EQ PUSH2 0x4166 JUMPI PUSH1 0x0 DUP1 REVERT JUMPDEST POP JUMP JUMPDEST PUSH1 0x0 DUP2 CALLDATALOAD SWAP1 POP PUSH2 0x4178 DUP2 PUSH2 0x4152 JUMP JUMPDEST SWAP3 SWAP2 POP POP JUMP JUMPDEST PUSH1 0x0 PUSH1 0x20 DUP3 DUP5 SUB SLT ISZERO PUSH2 0x4194 JUMPI PUSH2 0x4193 PUSH2 0x3B2B JUMP JUMPDEST JUMPDEST PUSH1 0x0 PUSH2 0x41A2 DUP5 DUP3 DUP6 ADD PUSH2 0x4169 JUMP JUMPDEST SWAP2 POP POP SWAP3 SWAP2 POP POP JUMP JUMPDEST PUSH1 0x0 DUP1 REVERT JUMPDEST PUSH1 0x0 DUP1 REVERT JUMPDEST PUSH1 0x0 DUP1 DUP4 PUSH1 0x1F DUP5 ADD SLT PUSH2 0x41CB JUMPI PUSH2 0x41CA PUSH2 0x3F1A JUMP JUMPDEST JUMPDEST DUP3 CALLDATALOAD SWAP1 POP PUSH8 0xFFFFFFFFFFFFFFFF DUP2 GT ISZERO PUSH2 0x41E8 JUMPI PUSH2 0x41E7 PUSH2 0x41AB JUMP JUMPDEST JUMPDEST PUSH1 0x20 DUP4 ADD SWAP2 POP DUP4 PUSH1 0x1 DUP3 MUL DUP4 ADD GT ISZERO PUSH2 0x4204 JUMPI PUSH2 0x4203 PUSH2 0x41B0 JUMP JUMPDEST JUMPDEST SWAP3 POP SWAP3 SWAP1 POP JUMP JUMPDEST PUSH1 0x2 DUP2 LT PUSH2 0x4218 JUMPI PUSH1 0x0 DUP1 REVERT JUMPDEST POP JUMP JUMPDEST PUSH1 0x0 DUP2 CALLDATALOAD SWAP1 POP PUSH2 0x422A DUP2 PUSH2 0x420B JUMP JUMPDEST SWAP3 SWAP2 POP POP JUMP JUMPDEST PUSH1 0x0 DUP1 PUSH1 0x0 DUP1 PUSH1 0x0 DUP1 PUSH1 0xA0 DUP8 DUP10 SUB SLT ISZERO PUSH2 0x424D JUMPI PUSH2 0x424C PUSH2 0x3B2B JUMP JUMPDEST JUMPDEST PUSH1 0x0 PUSH2 0x425B DUP10 DUP3 DUP11 ADD PUSH2 0x3D78 JUMP JUMPDEST SWAP7 POP POP PUSH1 0x20 PUSH2 0x426C DUP10 DUP3 DUP11 ADD PUSH2 0x3CC3 JUMP JUMPDEST SWAP6 POP POP PUSH1 0x40 PUSH2 0x427D DUP10 DUP3 DUP11 ADD PUSH2 0x3CC3 JUMP JUMPDEST SWAP5 POP POP PUSH1 0x60 DUP8 ADD CALLDATALOAD PUSH8 0xFFFFFFFFFFFFFFFF DUP2 GT ISZERO PUSH2 0x429E JUMPI PUSH2 0x429D PUSH2 0x3B30 JUMP JUMPDEST JUMPDEST PUSH2 0x42AA DUP10 DUP3 DUP11 ADD PUSH2 0x41B5 JUMP JUMPDEST SWAP4 POP SWAP4 POP POP PUSH1 0x80 PUSH2 0x42BD DUP10 DUP3 DUP11 ADD PUSH2 0x421B JUMP JUMPDEST SWAP2 POP POP SWAP3 SWAP6 POP SWAP3 SWAP6 POP SWAP3 SWAP6 JUMP JUMPDEST PUSH1 0x0 DUP2 MLOAD SWAP1 POP SWAP2 SWAP1 POP JUMP JUMPDEST PUSH1 0x0 DUP3 DUP3 MSTORE PUSH1 0x20 DUP3 ADD SWAP1 POP SWAP3 SWAP2 POP POP JUMP JUMPDEST PUSH1 0x0 DUP2 SWAP1 POP PUSH1 0x20 DUP3 ADD SWAP1 POP SWAP2 SWAP1 POP JUMP JUMPDEST PUSH2 0x42FF DUP2 PUSH2 0x3CA2 JUMP JUMPDEST DUP3 MSTORE POP POP JUMP JUMPDEST PUSH1 0x0 PUSH2 0x4311 DUP4 DUP4 PUSH2 0x42F6 JUMP JUMPDEST PUSH1 0x20 DUP4 ADD SWAP1 POP SWAP3 SWAP2 POP POP JUMP JUMPDEST PUSH1 0x0 PUSH1 0x20 DUP3 ADD SWAP1 POP SWAP2 SWAP1 POP JUMP JUMPDEST PUSH1 0x0 PUSH2 0x4335 DUP3 PUSH2 0x42CA JUMP JUMPDEST PUSH2 0x433F DUP2 DUP6 PUSH2 0x42D5 JUMP JUMPDEST SWAP4 POP PUSH2 0x434A DUP4 PUSH2 0x42E6 JUMP JUMPDEST DUP1 PUSH1 0x0 JUMPDEST DUP4 DUP2 LT ISZERO PUSH2 0x437B JUMPI DUP2 MLOAD PUSH2 0x4362 DUP9 DUP3 PUSH2 0x4305 JUMP JUMPDEST SWAP8 POP PUSH2 0x436D DUP4 PUSH2 0x431D JUMP JUMPDEST SWAP3 POP POP PUSH1 0x1 DUP2 ADD SWAP1 POP PUSH2 0x434E JUMP JUMPDEST POP DUP6 SWAP4 POP POP POP POP SWAP3 SWAP2 POP POP JUMP JUMPDEST PUSH1 0x0 PUSH1 0x20 DUP3 ADD SWAP1 POP DUP2 DUP2 SUB PUSH1 0x0 DUP4 ADD MSTORE PUSH2 0x43A2 DUP2 DUP5 PUSH2 0x432A JUMP JUMPDEST SWAP1 POP SWAP3 SWAP2 POP POP JUMP JUMPDEST PUSH2 0x43B3 DUP2 PUSH2 0x3BBA JUMP JUMPDEST DUP2 EQ PUSH2 0x43BE JUMPI PUSH1 0x0 DUP1 REVERT JUMPDEST POP JUMP JUMPDEST PUSH1 0x0 DUP2 CALLDATALOAD SWAP1 POP PUSH2 0x43D0 DUP2 PUSH2 0x43AA JUMP JUMPDEST SWAP3 SWAP2 POP POP JUMP JUMPDEST PUSH1 0x0 DUP1 PUSH1 0x40 DUP4 DUP6 SUB SLT ISZERO PUSH2 0x43ED JUMPI PUSH2 0x43EC PUSH2 0x3B2B JUMP JUMPDEST JUMPDEST PUSH1 0x0 PUSH2 0x43FB DUP6 DUP3 DUP7 ADD PUSH2 0x3D78 JUMP JUMPDEST SWAP3 POP POP PUSH1 0x20 PUSH2 0x440C DUP6 DUP3 DUP7 ADD PUSH2 0x43C1 JUMP JUMPDEST SWAP2 POP POP SWAP3 POP SWAP3 SWAP1 POP JUMP JUMPDEST PUSH1 0x0 DUP2 SWAP1 POP SWAP2 SWAP1 POP JUMP JUMPDEST PUSH1 0x0 PUSH2 0x443B PUSH2 0x4436 PUSH2 0x4431 DUP5 PUSH2 0x3D05 JUMP JUMPDEST PUSH2 0x4416 JUMP JUMPDEST PUSH2 0x3D05 JUMP JUMPDEST SWAP1 POP SWAP2 SWAP1 POP JUMP JUMPDEST PUSH1 0x0 PUSH2 0x444D DUP3 PUSH2 0x4420 JUMP JUMPDEST SWAP1 POP SWAP2 SWAP1 POP JUMP JUMPDEST PUSH1 0x0 PUSH2 0x445F DUP3 PUSH2 0x4442 JUMP JUMPDEST SWAP1 POP SWAP2 SWAP1 POP JUMP JUMPDEST PUSH2 0x446F DUP2 PUSH2 0x4454 JUMP JUMPDEST DUP3 MSTORE POP POP JUMP JUMPDEST PUSH1 0x0 PUSH1 0x20 DUP3 ADD SWAP1 POP PUSH2 0x448A PUSH1 0x0 DUP4 ADD DUP5 PUSH2 0x4466 JUMP JUMPDEST SWAP3 SWAP2 POP POP JUMP JUMPDEST PUSH1 0x0 PUSH2 0x449B DUP3 PUSH2 0x4442 JUMP JUMPDEST SWAP1 POP SWAP2 SWAP1 POP JUMP JUMPDEST PUSH2 0x44AB DUP2 PUSH2 0x4490 JUMP JUMPDEST DUP3 MSTORE POP POP JUMP JUMPDEST PUSH1 0x0 PUSH1 0x20 DUP3 ADD SWAP1 POP PUSH2 0x44C6 PUSH1 0x0 DUP4 ADD DUP5 PUSH2 0x44A2 JUMP JUMPDEST SWAP3 SWAP2 POP POP JUMP JUMPDEST PUSH1 0x0 DUP1 PUSH1 0x0 DUP1 PUSH1 0x80 DUP6 DUP8 SUB SLT ISZERO PUSH2 0x44E6 JUMPI PUSH2 0x44E5 PUSH2 0x3B2B JUMP JUMPDEST JUMPDEST PUSH1 0x0 PUSH2 0x44F4 DUP8 DUP3 DUP9 ADD PUSH2 0x3D78 JUMP JUMPDEST SWAP5 POP POP PUSH1 0x20 PUSH2 0x4505 DUP8 DUP3 DUP9 ADD PUSH2 0x3D78 JUMP JUMPDEST SWAP4 POP POP PUSH1 0x40 PUSH2 0x4516 DUP8 DUP3 DUP9 ADD PUSH2 0x3CC3 JUMP JUMPDEST SWAP3 POP POP PUSH1 0x60 DUP6 ADD CALLDATALOAD PUSH8 0xFFFFFFFFFFFFFFFF DUP2 GT ISZERO PUSH2 0x4537 JUMPI PUSH2 0x4536 PUSH2 0x3B30 JUMP JUMPDEST JUMPDEST PUSH2 0x4543 DUP8 DUP3 DUP9 ADD PUSH2 0x4021 JUMP JUMPDEST SWAP2 POP POP SWAP3 SWAP6 SWAP2 SWAP5 POP SWAP3 POP JUMP JUMPDEST PUSH1 0x0 DUP1 PUSH1 0x0 DUP1 PUSH1 0x0 PUSH1 0x80 DUP7 DUP9 SUB SLT ISZERO PUSH2 0x456B JUMPI PUSH2 0x456A PUSH2 0x3B2B JUMP JUMPDEST JUMPDEST PUSH1 0x0 PUSH2 0x4579 DUP9 DUP3 DUP10 ADD PUSH2 0x3D78 JUMP JUMPDEST SWAP6 POP POP PUSH1 0x20 PUSH2 0x458A DUP9 DUP3 DUP10 ADD PUSH2 0x3CC3 JUMP JUMPDEST SWAP5 POP POP PUSH1 0x40 DUP7 ADD CALLDATALOAD PUSH8 0xFFFFFFFFFFFFFFFF DUP2 GT ISZERO PUSH2 0x45AB JUMPI PUSH2 0x45AA PUSH2 0x3B30 JUMP JUMPDEST JUMPDEST PUSH2 0x45B7 DUP9 DUP3 DUP10 ADD PUSH2 0x41B5 JUMP JUMPDEST SWAP4 POP SWAP4 POP POP PUSH1 0x60 PUSH2 0x45CA DUP9 DUP3 DUP10 ADD PUSH2 0x421B JUMP JUMPDEST SWAP2 POP POP SWAP3 SWAP6 POP SWAP3 SWAP6 SWAP1 SWAP4 POP JUMP JUMPDEST PUSH1 0x0 PUSH8 0xFFFFFFFFFFFFFFFF DUP3 GT ISZERO PUSH2 0x45F2 JUMPI PUSH2 0x45F1 PUSH2 0x3F24 JUMP JUMPDEST JUMPDEST PUSH2 0x45FB DUP3 PUSH2 0x3C36 JUMP JUMPDEST SWAP1 POP PUSH1 0x20 DUP2 ADD SWAP1 POP SWAP2 SWAP1 POP JUMP JUMPDEST PUSH1 0x0 PUSH2 0x461B PUSH2 0x4616 DUP5 PUSH2 0x45D7 JUMP JUMPDEST PUSH2 0x3F84 JUMP JUMPDEST SWAP1 POP DUP3 DUP2 MSTORE PUSH1 0x20 DUP2 ADD DUP5 DUP5 DUP5 ADD GT ISZERO PUSH2 0x4637 JUMPI PUSH2 0x4636 PUSH2 0x3F1F JUMP JUMPDEST JUMPDEST PUSH2 0x4642 DUP5 DUP3 DUP6 PUSH2 0x3FD0 JUMP JUMPDEST POP SWAP4 SWAP3 POP POP POP JUMP JUMPDEST PUSH1 0x0 DUP3 PUSH1 0x1F DUP4 ADD SLT PUSH2 0x465F JUMPI PUSH2 0x465E PUSH2 0x3F1A JUMP JUMPDEST JUMPDEST DUP2 CALLDATALOAD PUSH2 0x466F DUP5 DUP3 PUSH1 0x20 DUP7 ADD PUSH2 0x4608 JUMP JUMPDEST SWAP2 POP POP SWAP3 SWAP2 POP POP JUMP JUMPDEST PUSH1 0x0 DUP1 PUSH1 0x0 DUP1 PUSH1 0x0 DUP1 PUSH1 0x0 DUP1 PUSH1 0x0 PUSH2 0x120 DUP11 DUP13 SUB SLT ISZERO PUSH2 0x469B JUMPI PUSH2 0x469A PUSH2 0x3B2B JUMP JUMPDEST JUMPDEST PUSH1 0x0 DUP11 ADD CALLDATALOAD PUSH8 0xFFFFFFFFFFFFFFFF DUP2 GT ISZERO PUSH2 0x46B9 JUMPI PUSH2 0x46B8 PUSH2 0x3B30 JUMP JUMPDEST JUMPDEST PUSH2 0x46C5 DUP13 DUP3 DUP14 ADD PUSH2 0x464A JUMP JUMPDEST SWAP10 POP POP PUSH1 0x20 PUSH2 0x46D6 DUP13 DUP3 DUP14 ADD PUSH2 0x40D4 JUMP JUMPDEST SWAP9 POP POP PUSH1 0x40 DUP11 ADD CALLDATALOAD PUSH8 0xFFFFFFFFFFFFFFFF DUP2 GT ISZERO PUSH2 0x46F7 JUMPI PUSH2 0x46F6 PUSH2 0x3B30 JUMP JUMPDEST JUMPDEST PUSH2 0x4703 DUP13 DUP3 DUP14 ADD PUSH2 0x464A JUMP JUMPDEST SWAP8 POP POP PUSH1 0x60 DUP11 ADD CALLDATALOAD PUSH8 0xFFFFFFFFFFFFFFFF DUP2 GT ISZERO PUSH2 0x4724 JUMPI PUSH2 0x4723 PUSH2 0x3B30 JUMP JUMPDEST JUMPDEST PUSH2 0x4730 DUP13 DUP3 DUP14 ADD PUSH2 0x464A JUMP JUMPDEST SWAP7 POP POP PUSH1 0x80 PUSH2 0x4741 DUP13 DUP3 DUP14 ADD PUSH2 0x3CC3 JUMP JUMPDEST SWAP6 POP POP PUSH1 0xA0 PUSH2 0x4752 DUP13 DUP3 DUP14 ADD PUSH2 0x3CC3 JUMP JUMPDEST SWAP5 POP POP PUSH1 0xC0 PUSH2 0x4763 DUP13 DUP3 DUP14 ADD PUSH2 0x43C1 JUMP JUMPDEST SWAP4 POP POP PUSH1 0xE0 PUSH2 0x4774 DUP13 DUP3 DUP14 ADD PUSH2 0x3CC3 JUMP JUMPDEST SWAP3 POP POP PUSH2 0x100 PUSH2 0x4786 DUP13 DUP3 DUP14 ADD PUSH2 0x3CC3 JUMP JUMPDEST SWAP2 POP POP SWAP3 SWAP6 SWAP9 POP SWAP3 SWAP6 SWAP9 POP SWAP3 SWAP6 SWAP9 JUMP JUMPDEST PUSH1 0x0 DUP1 PUSH1 0x40 DUP4 DUP6 SUB SLT ISZERO PUSH2 0x47AD JUMPI PUSH2 0x47AC PUSH2 0x3B2B JUMP JUMPDEST JUMPDEST PUSH1 0x0 PUSH2 0x47BB DUP6 DUP3 DUP7 ADD PUSH2 0x3D78 JUMP JUMPDEST SWAP3 POP POP PUSH1 0x20 PUSH2 0x47CC DUP6 DUP3 DUP7 ADD PUSH2 0x3D78 JUMP JUMPDEST SWAP2 POP POP SWAP3 POP SWAP3 SWAP1 POP JUMP JUMPDEST PUSH32 0x4E487B7100000000000000000000000000000000000000000000000000000000 PUSH1 0x0 MSTORE PUSH1 0x22 PUSH1 0x4 MSTORE PUSH1 0x24 PUSH1 0x0 REVERT JUMPDEST PUSH1 0x0 PUSH1 0x2 DUP3 DIV SWAP1 POP PUSH1 0x1 DUP3 AND DUP1 PUSH2 0x481D JUMPI PUSH1 0x7F DUP3 AND SWAP2 POP JUMPDEST PUSH1 0x20 DUP3 LT DUP2 SUB PUSH2 0x4830 JUMPI PUSH2 0x482F PUSH2 0x47D6 JUMP JUMPDEST JUMPDEST POP SWAP2 SWAP1 POP JUMP JUMPDEST PUSH32 0x4552433732313A20617070726F76616C20746F2063757272656E74206F776E65 PUSH1 0x0 DUP3 ADD MSTORE PUSH32 0x7200000000000000000000000000000000000000000000000000000000000000 PUSH1 0x20 DUP3 ADD MSTORE POP JUMP JUMPDEST PUSH1 0x0 PUSH2 0x4892 PUSH1 0x21 DUP4 PUSH2 0x3BFB JUMP JUMPDEST SWAP2 POP PUSH2 0x489D DUP3 PUSH2 0x4836 JUMP JUMPDEST PUSH1 0x40 DUP3 ADD SWAP1 POP SWAP2 SWAP1 POP JUMP JUMPDEST PUSH1 0x0 PUSH1 0x20 DUP3 ADD SWAP1 POP DUP2 DUP2 SUB PUSH1 0x0 DUP4 ADD MSTORE PUSH2 0x48C1 DUP2 PUSH2 0x4885 JUMP JUMPDEST SWAP1 POP SWAP2 SWAP1 POP JUMP JUMPDEST PUSH32 0x4552433732313A20617070726F76652063616C6C6572206973206E6F7420746F PUSH1 0x0 DUP3 ADD MSTORE PUSH32 0x6B656E206F776E6572206F7220617070726F76656420666F7220616C6C000000 PUSH1 0x20 DUP3 ADD MSTORE POP JUMP JUMPDEST PUSH1 0x0 PUSH2 0x4924 PUSH1 0x3D DUP4 PUSH2 0x3BFB JUMP JUMPDEST SWAP2 POP PUSH2 0x492F DUP3 PUSH2 0x48C8 JUMP JUMPDEST PUSH1 0x40 DUP3 ADD SWAP1 POP SWAP2 SWAP1 POP JUMP JUMPDEST PUSH1 0x0 PUSH1 0x20 DUP3 ADD SWAP1 POP DUP2 DUP2 SUB PUSH1 0x0 DUP4 ADD MSTORE PUSH2 0x4953 DUP2 PUSH2 0x4917 JUMP JUMPDEST SWAP1 POP SWAP2 SWAP1 POP JUMP JUMPDEST PUSH32 0x4552433732313A2063616C6C6572206973206E6F7420746F6B656E206F776E65 PUSH1 0x0 DUP3 ADD MSTORE PUSH32 0x72206F7220617070726F76656400000000000000000000000000000000000000 PUSH1 0x20 DUP3 ADD MSTORE POP JUMP JUMPDEST PUSH1 0x0 PUSH2 0x49B6 PUSH1 0x2D DUP4 PUSH2 0x3BFB JUMP JUMPDEST SWAP2 POP PUSH2 0x49C1 DUP3 PUSH2 0x495A JUMP JUMPDEST PUSH1 0x40 DUP3 ADD SWAP1 POP SWAP2 SWAP1 POP JUMP JUMPDEST PUSH1 0x0 PUSH1 0x20 DUP3 ADD SWAP1 POP DUP2 DUP2 SUB PUSH1 0x0 DUP4 ADD MSTORE PUSH2 0x49E5 DUP2 PUSH2 0x49A9 JUMP JUMPDEST SWAP1 POP SWAP2 SWAP1 POP JUMP JUMPDEST PUSH32 0x416363657373436F6E74726F6C3A2063616E206F6E6C792072656E6F756E6365 PUSH1 0x0 DUP3 ADD MSTORE PUSH32 0x20726F6C657320666F722073656C660000000000000000000000000000000000 PUSH1 0x20 DUP3 ADD MSTORE POP JUMP JUMPDEST PUSH1 0x0 PUSH2 0x4A48 PUSH1 0x2F DUP4 PUSH2 0x3BFB JUMP JUMPDEST SWAP2 POP PUSH2 0x4A53 DUP3 PUSH2 0x49EC JUMP JUMPDEST PUSH1 0x40 DUP3 ADD SWAP1 POP SWAP2 SWAP1 POP JUMP JUMPDEST PUSH1 0x0 PUSH1 0x20 DUP3 ADD SWAP1 POP DUP2 DUP2 SUB PUSH1 0x0 DUP4 ADD MSTORE PUSH2 0x4A77 DUP2 PUSH2 0x4A3B JUMP JUMPDEST SWAP1 POP SWAP2 SWAP1 POP JUMP JUMPDEST PUSH32 0x46756E6374696F6E206D7573742062652063616C6C6564207468726F75676820 PUSH1 0x0 DUP3 ADD MSTORE PUSH32 0x64656C656761746563616C6C0000000000000000000000000000000000000000 PUSH1 0x20 DUP3 ADD MSTORE POP JUMP JUMPDEST PUSH1 0x0 PUSH2 0x4ADA PUSH1 0x2C DUP4 PUSH2 0x3BFB JUMP JUMPDEST SWAP2 POP PUSH2 0x4AE5 DUP3 PUSH2 0x4A7E JUMP JUMPDEST PUSH1 0x40 DUP3 ADD SWAP1 POP SWAP2 SWAP1 POP JUMP JUMPDEST PUSH1 0x0 PUSH1 0x20 DUP3 ADD SWAP1 POP DUP2 DUP2 SUB PUSH1 0x0 DUP4 ADD MSTORE PUSH2 0x4B09 DUP2 PUSH2 0x4ACD JUMP JUMPDEST SWAP1 POP SWAP2 SWAP1 POP JUMP JUMPDEST PUSH32 0x46756E6374696F6E206D7573742062652063616C6C6564207468726F75676820 PUSH1 0x0 DUP3 ADD MSTORE PUSH32 0x6163746976652070726F78790000000000000000000000000000000000000000 PUSH1 0x20 DUP3 ADD MSTORE POP JUMP JUMPDEST PUSH1 0x0 PUSH2 0x4B6C PUSH1 0x2C DUP4 PUSH2 0x3BFB JUMP JUMPDEST SWAP2 POP PUSH2 0x4B77 DUP3 PUSH2 0x4B10 JUMP JUMPDEST PUSH1 0x40 DUP3 ADD SWAP1 POP SWAP2 SWAP1 POP JUMP JUMPDEST PUSH1 0x0 PUSH1 0x20 DUP3 ADD SWAP1 POP DUP2 DUP2 SUB PUSH1 0x0 DUP4 ADD MSTORE PUSH2 0x4B9B DUP2 PUSH2 0x4B5F JUMP JUMPDEST SWAP1 POP SWAP2 SWAP1 POP JUMP JUMPDEST PUSH32 0x555550535570677261646561626C653A206D757374206E6F742062652063616C PUSH1 0x0 DUP3 ADD MSTORE PUSH32 0x6C6564207468726F7567682064656C656761746563616C6C0000000000000000 PUSH1 0x20 DUP3 ADD MSTORE POP JUMP JUMPDEST PUSH1 0x0 PUSH2 0x4BFE PUSH1 0x38 DUP4 PUSH2 0x3BFB JUMP JUMPDEST SWAP2 POP PUSH2 0x4C09 DUP3 PUSH2 0x4BA2 JUMP JUMPDEST PUSH1 0x40 DUP3 ADD SWAP1 POP SWAP2 SWAP1 POP JUMP JUMPDEST PUSH1 0x0 PUSH1 0x20 DUP3 ADD SWAP1 POP DUP2 DUP2 SUB PUSH1 0x0 DUP4 ADD MSTORE PUSH2 0x4C2D DUP2 PUSH2 0x4BF1 JUMP JUMPDEST SWAP1 POP SWAP2 SWAP1 POP JUMP JUMPDEST PUSH32 0x4552433732313A20696E76616C696420746F6B656E2049440000000000000000 PUSH1 0x0 DUP3 ADD MSTORE POP JUMP JUMPDEST PUSH1 0x0 PUSH2 0x4C6A PUSH1 0x18 DUP4 PUSH2 0x3BFB JUMP JUMPDEST SWAP2 POP PUSH2 0x4C75 DUP3 PUSH2 0x4C34 JUMP JUMPDEST PUSH1 0x20 DUP3 ADD SWAP1 POP SWAP2 SWAP1 POP JUMP JUMPDEST PUSH1 0x0 PUSH1 0x20 DUP3 ADD SWAP1 POP DUP2 DUP2 SUB PUSH1 0x0 DUP4 ADD MSTORE PUSH2 0x4C99 DUP2 PUSH2 0x4C5D JUMP JUMPDEST SWAP1 POP SWAP2 SWAP1 POP JUMP JUMPDEST PUSH32 0x536574204E65772050617920546F6B656E3A20546865206E6577206F6E65206D PUSH1 0x0 DUP3 ADD MSTORE PUSH32 0x75737420626520646966666572656E742066726F6D20746865206F6C64206F6E PUSH1 0x20 DUP3 ADD MSTORE PUSH32 0x6500000000000000000000000000000000000000000000000000000000000000 PUSH1 0x40 DUP3 ADD MSTORE POP JUMP JUMPDEST PUSH1 0x0 PUSH2 0x4D22 PUSH1 0x41 DUP4 PUSH2 0x3BFB JUMP JUMPDEST SWAP2 POP PUSH2 0x4D2D DUP3 PUSH2 0x4CA0 JUMP JUMPDEST PUSH1 0x60 DUP3 ADD SWAP1 POP SWAP2 SWAP1 POP JUMP JUMPDEST PUSH1 0x0 PUSH1 0x20 DUP3 ADD SWAP1 POP DUP2 DUP2 SUB PUSH1 0x0 DUP4 ADD MSTORE PUSH2 0x4D51 DUP2 PUSH2 0x4D15 JUMP JUMPDEST SWAP1 POP SWAP2 SWAP1 POP JUMP JUMPDEST PUSH1 0x0 PUSH1 0x40 DUP3 ADD SWAP1 POP PUSH2 0x4D6D PUSH1 0x0 DUP4 ADD DUP6 PUSH2 0x3D37 JUMP JUMPDEST PUSH2 0x4D7A PUSH1 0x20 DUP4 ADD DUP5 PUSH2 0x3D37 JUMP JUMPDEST SWAP4 SWAP3 POP POP POP JUMP JUMPDEST PUSH32 0x4552433732313A2061646472657373207A65726F206973206E6F742061207661 PUSH1 0x0 DUP3 ADD MSTORE PUSH32 0x6C6964206F776E65720000000000000000000000000000000000000000000000 PUSH1 0x20 DUP3 ADD MSTORE POP JUMP JUMPDEST PUSH1 0x0 PUSH2 0x4DDD PUSH1 0x29 DUP4 PUSH2 0x3BFB JUMP JUMPDEST SWAP2 POP PUSH2 0x4DE8 DUP3 PUSH2 0x4D81 JUMP JUMPDEST PUSH1 0x40 DUP3 ADD SWAP1 POP SWAP2 SWAP1 POP JUMP JUMPDEST PUSH1 0x0 PUSH1 0x20 DUP3 ADD SWAP1 POP DUP2 DUP2 SUB PUSH1 0x0 DUP4 ADD MSTORE PUSH2 0x4E0C DUP2 PUSH2 0x4DD0 JUMP JUMPDEST SWAP1 POP SWAP2 SWAP1 POP JUMP JUMPDEST PUSH32 0x536574204E6577204E4654204F70656E696E67204974656D3A20546865206E65 PUSH1 0x0 DUP3 ADD MSTORE PUSH32 0x77206F6E65206D75737420626520646966666572656E742066726F6D20746865 PUSH1 0x20 DUP3 ADD MSTORE PUSH32 0x206F6C64206F6E65000000000000000000000000000000000000000000000000 PUSH1 0x40 DUP3 ADD MSTORE POP JUMP JUMPDEST PUSH1 0x0 PUSH2 0x4E95 PUSH1 0x48 DUP4 PUSH2 0x3BFB JUMP JUMPDEST SWAP2 POP PUSH2 0x4EA0 DUP3 PUSH2 0x4E13 JUMP JUMPDEST PUSH1 0x60 DUP3 ADD SWAP1 POP SWAP2 SWAP1 POP JUMP JUMPDEST PUSH1 0x0 PUSH1 0x20 DUP3 ADD SWAP1 POP DUP2 DUP2 SUB PUSH1 0x0 DUP4 ADD MSTORE PUSH2 0x4EC4 DUP2 PUSH2 0x4E88 JUMP JUMPDEST SWAP1 POP SWAP2 SWAP1 POP JUMP JUMPDEST PUSH2 0x4ED4 DUP2 PUSH2 0x3D25 JUMP JUMPDEST DUP3 MSTORE POP POP JUMP JUMPDEST PUSH2 0x4EE3 DUP2 PUSH2 0x3CA2 JUMP JUMPDEST DUP3 MSTORE POP POP JUMP JUMPDEST PUSH1 0x0 DUP3 DUP3 MSTORE PUSH1 0x20 DUP3 ADD SWAP1 POP SWAP3 SWAP2 POP POP JUMP JUMPDEST PUSH1 0x0 PUSH2 0x4F06 DUP4 DUP6 PUSH2 0x4EE9 JUMP JUMPDEST SWAP4 POP PUSH2 0x4F13 DUP4 DUP6 DUP5 PUSH2 0x3FD0 JUMP JUMPDEST PUSH2 0x4F1C DUP4 PUSH2 0x3C36 JUMP JUMPDEST DUP5 ADD SWAP1 POP SWAP4 SWAP3 POP POP POP JUMP JUMPDEST PUSH32 0x4E487B7100000000000000000000000000000000000000000000000000000000 PUSH1 0x0 MSTORE PUSH1 0x21 PUSH1 0x4 MSTORE PUSH1 0x24 PUSH1 0x0 REVERT JUMPDEST PUSH1 0x2 DUP2 LT PUSH2 0x4F67 JUMPI PUSH2 0x4F66 PUSH2 0x4F27 JUMP JUMPDEST JUMPDEST POP JUMP JUMPDEST PUSH1 0x0 DUP2 SWAP1 POP PUSH2 0x4F78 DUP3 PUSH2 0x4F56 JUMP JUMPDEST SWAP2 SWAP1 POP JUMP JUMPDEST PUSH1 0x0 PUSH2 0x4F88 DUP3 PUSH2 0x4F6A JUMP JUMPDEST SWAP1 POP SWAP2 SWAP1 POP JUMP JUMPDEST PUSH2 0x4F98 DUP2 PUSH2 0x4F7D JUMP JUMPDEST DUP3 MSTORE POP POP JUMP JUMPDEST PUSH1 0x0 PUSH1 0xA0 DUP3 ADD SWAP1 POP PUSH2 0x4FB3 PUSH1 0x0 DUP4 ADD DUP10 PUSH2 0x4ECB JUMP JUMPDEST PUSH2 0x4FC0 PUSH1 0x20 DUP4 ADD DUP9 PUSH2 0x4EDA JUMP JUMPDEST PUSH2 0x4FCD PUSH1 0x40 DUP4 ADD DUP8 PUSH2 0x4EDA JUMP JUMPDEST DUP2 DUP2 SUB PUSH1 0x60 DUP4 ADD MSTORE PUSH2 0x4FE0 DUP2 DUP6 DUP8 PUSH2 0x4EFA JUMP JUMPDEST SWAP1 POP PUSH2 0x4FEF PUSH1 0x80 DUP4 ADD DUP5 PUSH2 0x4F8F JUMP JUMPDEST SWAP8 SWAP7 POP POP POP POP POP POP POP JUMP JUMPDEST PUSH1 0x0 DUP2 MLOAD SWAP1 POP PUSH2 0x5009 DUP2 PUSH2 0x3CAC JUMP JUMPDEST SWAP3 SWAP2 POP POP JUMP JUMPDEST PUSH1 0x0 PUSH1 0x20 DUP3 DUP5 SUB SLT ISZERO PUSH2 0x5025 JUMPI PUSH2 0x5024 PUSH2 0x3B2B JUMP JUMPDEST JUMPDEST PUSH1 0x0 PUSH2 0x5033 DUP5 DUP3 DUP6 ADD PUSH2 0x4FFA JUMP JUMPDEST SWAP2 POP POP SWAP3 SWAP2 POP POP JUMP JUMPDEST PUSH32 0x4E6F7420617070726F766520656E6F75676820746F6B656E0000000000000000 PUSH1 0x0 DUP3 ADD MSTORE POP JUMP JUMPDEST PUSH1 0x0 PUSH2 0x5072 PUSH1 0x18 DUP4 PUSH2 0x3BFB JUMP JUMPDEST SWAP2 POP PUSH2 0x507D DUP3 PUSH2 0x503C JUMP JUMPDEST PUSH1 0x20 DUP3 ADD SWAP1 POP SWAP2 SWAP1 POP JUMP JUMPDEST PUSH1 0x0 PUSH1 0x20 DUP3 ADD SWAP1 POP DUP2 DUP2 SUB PUSH1 0x0 DUP4 ADD MSTORE PUSH2 0x50A1 DUP2 PUSH2 0x5065 JUMP JUMPDEST SWAP1 POP SWAP2 SWAP1 POP JUMP JUMPDEST PUSH32 0x5468652063616D7061696E2773206E6F74207374617274656420796574000000 PUSH1 0x0 DUP3 ADD MSTORE POP JUMP JUMPDEST PUSH1 0x0 PUSH2 0x50DE PUSH1 0x1D DUP4 PUSH2 0x3BFB JUMP JUMPDEST SWAP2 POP PUSH2 0x50E9 DUP3 PUSH2 0x50A8 JUMP JUMPDEST PUSH1 0x20 DUP3 ADD SWAP1 POP SWAP2 SWAP1 POP JUMP JUMPDEST PUSH1 0x0 PUSH1 0x20 DUP3 ADD SWAP1 POP DUP2 DUP2 SUB PUSH1 0x0 DUP4 ADD MSTORE PUSH2 0x510D DUP2 PUSH2 0x50D1 JUMP JUMPDEST SWAP1 POP SWAP2 SWAP1 POP JUMP JUMPDEST PUSH32 0x5468652063616D706169676E277320616C726561647920656E64656400000000 PUSH1 0x0 DUP3 ADD MSTORE POP JUMP JUMPDEST PUSH1 0x0 PUSH2 0x514A PUSH1 0x1C DUP4 PUSH2 0x3BFB JUMP JUMPDEST SWAP2 POP PUSH2 0x5155 DUP3 PUSH2 0x5114 JUMP JUMPDEST PUSH1 0x20 DUP3 ADD SWAP1 POP SWAP2 SWAP1 POP JUMP JUMPDEST PUSH1 0x0 PUSH1 0x20 DUP3 ADD SWAP1 POP DUP2 DUP2 SUB PUSH1 0x0 DUP4 ADD MSTORE PUSH2 0x5179 DUP2 PUSH2 0x513D JUMP JUMPDEST SWAP1 POP SWAP2 SWAP1 POP JUMP JUMPDEST PUSH32 0x536F6C64206F7574000000000000000000000000000000000000000000000000 PUSH1 0x0 DUP3 ADD MSTORE POP JUMP JUMPDEST PUSH1 0x0 PUSH2 0x51B6 PUSH1 0x8 DUP4 PUSH2 0x3BFB JUMP JUMPDEST SWAP2 POP PUSH2 0x51C1 DUP3 PUSH2 0x5180 JUMP JUMPDEST PUSH1 0x20 DUP3 ADD SWAP1 POP SWAP2 SWAP1 POP JUMP JUMPDEST PUSH1 0x0 PUSH1 0x20 DUP3 ADD SWAP1 POP DUP2 DUP2 SUB PUSH1 0x0 DUP4 ADD MSTORE PUSH2 0x51E5 DUP2 PUSH2 0x51A9 JUMP JUMPDEST SWAP1 POP SWAP2 SWAP1 POP JUMP JUMPDEST PUSH32 0x4D696E7420426F783A20746F6B656E4964277320616C72656164792065786973 PUSH1 0x0 DUP3 ADD MSTORE PUSH32 0x7465640000000000000000000000000000000000000000000000000000000000 PUSH1 0x20 DUP3 ADD MSTORE POP JUMP JUMPDEST PUSH1 0x0 PUSH2 0x5248 PUSH1 0x23 DUP4 PUSH2 0x3BFB JUMP JUMPDEST SWAP2 POP PUSH2 0x5253 DUP3 PUSH2 0x51EC JUMP JUMPDEST PUSH1 0x40 DUP3 ADD SWAP1 POP SWAP2 SWAP1 POP JUMP JUMPDEST PUSH1 0x0 PUSH1 0x20 DUP3 ADD SWAP1 POP DUP2 DUP2 SUB PUSH1 0x0 DUP4 ADD MSTORE PUSH2 0x5277 DUP2 PUSH2 0x523B JUMP JUMPDEST SWAP1 POP SWAP2 SWAP1 POP JUMP JUMPDEST PUSH1 0x0 PUSH1 0x60 DUP3 ADD SWAP1 POP PUSH2 0x5293 PUSH1 0x0 DUP4 ADD DUP7 PUSH2 0x3D37 JUMP JUMPDEST PUSH2 0x52A0 PUSH1 0x20 DUP4 ADD DUP6 PUSH2 0x3D37 JUMP JUMPDEST PUSH2 0x52AD PUSH1 0x40 DUP4 ADD DUP5 PUSH2 0x4116 JUMP JUMPDEST SWAP5 SWAP4 POP POP POP POP JUMP JUMPDEST PUSH1 0x0 DUP2 MLOAD SWAP1 POP PUSH2 0x52C4 DUP2 PUSH2 0x43AA JUMP JUMPDEST SWAP3 SWAP2 POP POP JUMP JUMPDEST PUSH1 0x0 PUSH1 0x20 DUP3 DUP5 SUB SLT ISZERO PUSH2 0x52E0 JUMPI PUSH2 0x52DF PUSH2 0x3B2B JUMP JUMPDEST JUMPDEST PUSH1 0x0 PUSH2 0x52EE DUP5 DUP3 DUP6 ADD PUSH2 0x52B5 JUMP JUMPDEST SWAP2 POP POP SWAP3 SWAP2 POP POP JUMP JUMPDEST PUSH32 0x4E487B7100000000000000000000000000000000000000000000000000000000 PUSH1 0x0 MSTORE PUSH1 0x11 PUSH1 0x4 MSTORE PUSH1 0x24 PUSH1 0x0 REVERT JUMPDEST PUSH1 0x0 PUSH2 0x5331 DUP3 PUSH2 0x3CA2 JUMP JUMPDEST SWAP2 POP PUSH2 0x533C DUP4 PUSH2 0x3CA2 JUMP JUMPDEST SWAP3 POP DUP3 DUP3 ADD SWAP1 POP DUP1 DUP3 GT ISZERO PUSH2 0x5354 JUMPI PUSH2 0x5353 PUSH2 0x52F7 JUMP JUMPDEST JUMPDEST SWAP3 SWAP2 POP POP JUMP JUMPDEST PUSH1 0x0 PUSH1 0x40 DUP3 ADD SWAP1 POP PUSH2 0x536F PUSH1 0x0 DUP4 ADD DUP6 PUSH2 0x3D37 JUMP JUMPDEST PUSH2 0x537C PUSH1 0x20 DUP4 ADD DUP5 PUSH2 0x4116 JUMP JUMPDEST SWAP4 SWAP3 POP POP POP JUMP JUMPDEST PUSH32 0x596F7520646964206E6F74206F776E65642074686520746F6B656E0000000000 PUSH1 0x0 DUP3 ADD MSTORE POP JUMP JUMPDEST PUSH1 0x0 PUSH2 0x53B9 PUSH1 0x1B DUP4 PUSH2 0x3BFB JUMP JUMPDEST SWAP2 POP PUSH2 0x53C4 DUP3 PUSH2 0x5383 JUMP JUMPDEST PUSH1 0x20 DUP3 ADD SWAP1 POP SWAP2 SWAP1 POP JUMP JUMPDEST PUSH1 0x0 PUSH1 0x20 DUP3 ADD SWAP1 POP DUP2 DUP2 SUB PUSH1 0x0 DUP4 ADD MSTORE PUSH2 0x53E8 DUP2 PUSH2 0x53AC JUMP JUMPDEST SWAP1 POP SWAP2 SWAP1 POP JUMP JUMPDEST PUSH32 0x426F78277320616C7265616479206F70656E6564000000000000000000000000 PUSH1 0x0 DUP3 ADD MSTORE POP JUMP JUMPDEST PUSH1 0x0 PUSH2 0x5425 PUSH1 0x14 DUP4 PUSH2 0x3BFB JUMP JUMPDEST SWAP2 POP PUSH2 0x5430 DUP3 PUSH2 0x53EF JUMP JUMPDEST PUSH1 0x20 DUP3 ADD SWAP1 POP SWAP2 SWAP1 POP JUMP JUMPDEST PUSH1 0x0 PUSH1 0x20 DUP3 ADD SWAP1 POP DUP2 DUP2 SUB PUSH1 0x0 DUP4 ADD MSTORE PUSH2 0x5454 DUP2 PUSH2 0x5418 JUMP JUMPDEST SWAP1 POP SWAP2 SWAP1 POP JUMP JUMPDEST PUSH1 0x0 PUSH1 0x80 DUP3 ADD SWAP1 POP PUSH2 0x5470 PUSH1 0x0 DUP4 ADD DUP9 PUSH2 0x4ECB JUMP JUMPDEST PUSH2 0x547D PUSH1 0x20 DUP4 ADD DUP8 PUSH2 0x4EDA JUMP JUMPDEST DUP2 DUP2 SUB PUSH1 0x40 DUP4 ADD MSTORE PUSH2 0x5490 DUP2 DUP6 DUP8 PUSH2 0x4EFA JUMP JUMPDEST SWAP1 POP PUSH2 0x549F PUSH1 0x60 DUP4 ADD DUP5 PUSH2 0x4F8F JUMP JUMPDEST SWAP7 SWAP6 POP POP POP POP POP POP JUMP JUMPDEST PUSH32 0x496E697469616C697A61626C653A20636F6E747261637420697320616C726561 PUSH1 0x0 DUP3 ADD MSTORE PUSH32 0x647920696E697469616C697A6564000000000000000000000000000000000000 PUSH1 0x20 DUP3 ADD MSTORE POP JUMP JUMPDEST PUSH1 0x0 PUSH2 0x5505 PUSH1 0x2E DUP4 PUSH2 0x3BFB JUMP JUMPDEST SWAP2 POP PUSH2 0x5510 DUP3 PUSH2 0x54A9 JUMP JUMPDEST PUSH1 0x40 DUP3 ADD SWAP1 POP SWAP2 SWAP1 POP JUMP JUMPDEST PUSH1 0x0 PUSH1 0x20 DUP3 ADD SWAP1 POP DUP2 DUP2 SUB PUSH1 0x0 DUP4 ADD MSTORE PUSH2 0x5534 DUP2 PUSH2 0x54F8 JUMP JUMPDEST SWAP1 POP SWAP2 SWAP1 POP JUMP JUMPDEST PUSH1 0x0 DUP2 SWAP1 POP DUP2 PUSH1 0x0 MSTORE PUSH1 0x20 PUSH1 0x0 KECCAK256 SWAP1 POP SWAP2 SWAP1 POP JUMP JUMPDEST PUSH1 0x0 PUSH1 0x20 PUSH1 0x1F DUP4 ADD DIV SWAP1 POP SWAP2 SWAP1 POP JUMP JUMPDEST PUSH1 0x0 DUP3 DUP3 SHL SWAP1 POP SWAP3 SWAP2 POP POP JUMP JUMPDEST PUSH1 0x0 PUSH1 0x8 DUP4 MUL PUSH2 0x559D PUSH32 0xFFFFFFFFFFFFFFFFFFFFFFFFFFFFFFFFFFFFFFFFFFFFFFFFFFFFFFFFFFFFFFFF DUP3 PUSH2 0x5560 JUMP JUMPDEST PUSH2 0x55A7 DUP7 DUP4 PUSH2 0x5560 JUMP JUMPDEST SWAP6 POP DUP1 NOT DUP5 AND SWAP4 POP DUP1 DUP7 AND DUP5 OR SWAP3 POP POP POP SWAP4 SWAP3 POP POP POP JUMP JUMPDEST PUSH1 0x0 PUSH2 0x55DA PUSH2 0x55D5 PUSH2 0x55D0 DUP5 PUSH2 0x3CA2 JUMP JUMPDEST PUSH2 0x4416 JUMP JUMPDEST PUSH2 0x3CA2 JUMP JUMPDEST SWAP1 POP SWAP2 SWAP1 POP JUMP JUMPDEST PUSH1 0x0 DUP2 SWAP1 POP SWAP2 SWAP1 POP JUMP JUMPDEST PUSH2 0x55F4 DUP4 PUSH2 0x55BF JUMP JUMPDEST PUSH2 0x5608 PUSH2 0x5600 DUP3 PUSH2 0x55E1 JUMP JUMPDEST DUP5 DUP5 SLOAD PUSH2 0x556D JUMP JUMPDEST DUP3 SSTORE POP POP POP POP JUMP JUMPDEST PUSH1 0x0 SWAP1 JUMP JUMPDEST PUSH2 0x561D PUSH2 0x5610 JUMP JUMPDEST PUSH2 0x5628 DUP2 DUP5 DUP5 PUSH2 0x55EB JUMP JUMPDEST POP POP POP JUMP JUMPDEST JUMPDEST DUP2 DUP2 LT ISZERO PUSH2 0x564C JUMPI PUSH2 0x5641 PUSH1 0x0 DUP3 PUSH2 0x5615 JUMP JUMPDEST PUSH1 0x1 DUP2 ADD SWAP1 POP PUSH2 0x562E JUMP JUMPDEST POP POP JUMP JUMPDEST PUSH1 0x1F DUP3 GT ISZERO PUSH2 0x5691 JUMPI PUSH2 0x5662 DUP2 PUSH2 0x553B JUMP JUMPDEST PUSH2 0x566B DUP5 PUSH2 0x5550 JUMP JUMPDEST DUP2 ADD PUSH1 0x20 DUP6 LT ISZERO PUSH2 0x567A JUMPI DUP2 SWAP1 POP JUMPDEST PUSH2 0x568E PUSH2 0x5686 DUP6 PUSH2 0x5550 JUMP JUMPDEST DUP4 ADD DUP3 PUSH2 0x562D JUMP JUMPDEST POP POP JUMPDEST POP POP POP JUMP JUMPDEST PUSH1 0x0 DUP3 DUP3 SHR SWAP1 POP SWAP3 SWAP2 POP POP JUMP JUMPDEST PUSH1 0x0 PUSH2 0x56B4 PUSH1 0x0 NOT DUP5 PUSH1 0x8 MUL PUSH2 0x5696 JUMP JUMPDEST NOT DUP1 DUP4 AND SWAP2 POP POP SWAP3 SWAP2 POP POP JUMP JUMPDEST PUSH1 0x0 PUSH2 0x56CD DUP4 DUP4 PUSH2 0x56A3 JUMP JUMPDEST SWAP2 POP DUP3 PUSH1 0x2 MUL DUP3 OR SWAP1 POP SWAP3 SWAP2 POP POP JUMP JUMPDEST PUSH2 0x56E6 DUP3 PUSH2 0x3BF0 JUMP JUMPDEST PUSH8 0xFFFFFFFFFFFFFFFF DUP2 GT ISZERO PUSH2 0x56FF JUMPI PUSH2 0x56FE PUSH2 0x3F24 JUMP JUMPDEST JUMPDEST PUSH2 0x5709 DUP3 SLOAD PUSH2 0x4805 JUMP JUMPDEST PUSH2 0x5714 DUP3 DUP3 DUP6 PUSH2 0x5650 JUMP JUMPDEST PUSH1 0x0 PUSH1 0x20 SWAP1 POP PUSH1 0x1F DUP4 GT PUSH1 0x1 DUP2 EQ PUSH2 0x5747 JUMPI PUSH1 0x0 DUP5 ISZERO PUSH2 0x5735 JUMPI DUP3 DUP8 ADD MLOAD SWAP1 POP JUMPDEST PUSH2 0x573F DUP6 DUP3 PUSH2 0x56C1 JUMP JUMPDEST DUP7 SSTORE POP PUSH2 0x57A7 JUMP JUMPDEST PUSH1 0x1F NOT DUP5 AND PUSH2 0x5755 DUP7 PUSH2 0x553B JUMP JUMPDEST PUSH1 0x0 JUMPDEST DUP3 DUP2 LT ISZERO PUSH2 0x577D JUMPI DUP5 DUP10 ADD MLOAD DUP3 SSTORE PUSH1 0x1 DUP3 ADD SWAP2 POP PUSH1 0x20 DUP6 ADD SWAP5 POP PUSH1 0x20 DUP2 ADD SWAP1 POP PUSH2 0x5758 JUMP JUMPDEST DUP7 DUP4 LT ISZERO PUSH2 0x579A JUMPI DUP5 DUP10 ADD MLOAD PUSH2 0x5796 PUSH1 0x1F DUP10 AND DUP3 PUSH2 0x56A3 JUMP JUMPDEST DUP4 SSTORE POP JUMPDEST PUSH1 0x1 PUSH1 0x2 DUP9 MUL ADD DUP9 SSTORE POP POP POP JUMPDEST POP POP POP POP POP POP JUMP JUMPDEST PUSH1 0x0 DUP2 SWAP1 POP SWAP2 SWAP1 POP JUMP JUMPDEST PUSH1 0x0 PUSH1 0xFF DUP3 AND SWAP1 POP SWAP2 SWAP1 POP JUMP JUMPDEST PUSH1 0x0 PUSH2 0x57E1 PUSH2 0x57DC PUSH2 0x57D7 DUP5 PUSH2 0x57AF JUMP JUMPDEST PUSH2 0x4416 JUMP JUMPDEST PUSH2 0x57B9 JUMP JUMPDEST SWAP1 POP SWAP2 SWAP1 POP JUMP JUMPDEST PUSH2 0x57F1 DUP2 PUSH2 0x57C6 JUMP JUMPDEST DUP3 MSTORE POP POP JUMP JUMPDEST PUSH1 0x0 PUSH1 0x20 DUP3 ADD SWAP1 POP PUSH2 0x580C PUSH1 0x0 DUP4 ADD DUP5 PUSH2 0x57E8 JUMP JUMPDEST SWAP3 SWAP2 POP POP JUMP JUMPDEST PUSH32 0x4F776E61626C653A206E6577206F776E657220697320746865207A65726F2061 PUSH1 0x0 DUP3 ADD MSTORE PUSH32 0x6464726573730000000000000000000000000000000000000000000000000000 PUSH1 0x20 DUP3 ADD MSTORE POP JUMP JUMPDEST PUSH1 0x0 PUSH2 0x586E PUSH1 0x26 DUP4 PUSH2 0x3BFB JUMP JUMPDEST SWAP2 POP PUSH2 0x5879 DUP3 PUSH2 0x5812 JUMP JUMPDEST PUSH1 0x40 DUP3 ADD SWAP1 POP SWAP2 SWAP1 POP JUMP JUMPDEST PUSH1 0x0 PUSH1 0x20 DUP3 ADD SWAP1 POP DUP2 DUP2 SUB PUSH1 0x0 DUP4 ADD MSTORE PUSH2 0x589D DUP2 PUSH2 0x5861 JUMP JUMPDEST SWAP1 POP SWAP2 SWAP1 POP JUMP JUMPDEST PUSH32 0x4552433732313A207472616E736665722066726F6D20696E636F727265637420 PUSH1 0x0 DUP3 ADD MSTORE PUSH32 0x6F776E6572000000000000000000000000000000000000000000000000000000 PUSH1 0x20 DUP3 ADD MSTORE POP JUMP JUMPDEST PUSH1 0x0 PUSH2 0x5900 PUSH1 0x25 DUP4 PUSH2 0x3BFB JUMP JUMPDEST SWAP2 POP PUSH2 0x590B DUP3 PUSH2 0x58A4 JUMP JUMPDEST PUSH1 0x40 DUP3 ADD SWAP1 POP SWAP2 SWAP1 POP JUMP JUMPDEST PUSH1 0x0 PUSH1 0x20 DUP3 ADD SWAP1 POP DUP2 DUP2 SUB PUSH1 0x0 DUP4 ADD MSTORE PUSH2 0x592F DUP2 PUSH2 0x58F3 JUMP JUMPDEST SWAP1 POP SWAP2 SWAP1 POP JUMP JUMPDEST PUSH32 0x4552433732313A207472616E7366657220746F20746865207A65726F20616464 PUSH1 0x0 DUP3 ADD MSTORE PUSH32 0x7265737300000000000000000000000000000000000000000000000000000000 PUSH1 0x20 DUP3 ADD MSTORE POP JUMP JUMPDEST PUSH1 0x0 PUSH2 0x5992 PUSH1 0x24 DUP4 PUSH2 0x3BFB JUMP JUMPDEST SWAP2 POP PUSH2 0x599D DUP3 PUSH2 0x5936 JUMP JUMPDEST PUSH1 0x40 DUP3 ADD SWAP1 POP SWAP2 SWAP1 POP JUMP JUMPDEST PUSH1 0x0 PUSH1 0x20 DUP3 ADD SWAP1 POP DUP2 DUP2 SUB PUSH1 0x0 DUP4 ADD MSTORE PUSH2 0x59C1 DUP2 PUSH2 0x5985 JUMP JUMPDEST SWAP1 POP SWAP2 SWAP1 POP JUMP JUMPDEST PUSH1 0x0 DUP2 MLOAD SWAP1 POP PUSH2 0x59D7 DUP2 PUSH2 0x3E2A JUMP JUMPDEST SWAP3 SWAP2 POP POP JUMP JUMPDEST PUSH1 0x0 PUSH1 0x20 DUP3 DUP5 SUB SLT ISZERO PUSH2 0x59F3 JUMPI PUSH2 0x59F2 PUSH2 0x3B2B JUMP JUMPDEST JUMPDEST PUSH1 0x0 PUSH2 0x5A01 DUP5 DUP3 DUP6 ADD PUSH2 0x59C8 JUMP JUMPDEST SWAP2 POP POP SWAP3 SWAP2 POP POP JUMP JUMPDEST PUSH32 0x45524331393637557067726164653A206E657720696D706C656D656E74617469 PUSH1 0x0 DUP3 ADD MSTORE PUSH32 0x6F6E206973206E6F742055555053000000000000000000000000000000000000 PUSH1 0x20 DUP3 ADD MSTORE POP JUMP JUMPDEST PUSH1 0x0 PUSH2 0x5A66 PUSH1 0x2E DUP4 PUSH2 0x3BFB JUMP JUMPDEST SWAP2 POP PUSH2 0x5A71 DUP3 PUSH2 0x5A0A JUMP JUMPDEST PUSH1 0x40 DUP3 ADD SWAP1 POP SWAP2 SWAP1 POP JUMP JUMPDEST PUSH1 0x0 PUSH1 0x20 DUP3 ADD SWAP1 POP DUP2 DUP2 SUB PUSH1 0x0 DUP4 ADD MSTORE PUSH2 0x5A95 DUP2 PUSH2 0x5A59 JUMP JUMPDEST SWAP1 POP SWAP2 SWAP1 POP JUMP JUMPDEST PUSH32 0x45524331393637557067726164653A20756E737570706F727465642070726F78 PUSH1 0x0 DUP3 ADD MSTORE PUSH32 0x6961626C65555549440000000000000000000000000000000000000000000000 PUSH1 0x20 DUP3 ADD MSTORE POP JUMP JUMPDEST PUSH1 0x0 PUSH2 0x5AF8 PUSH1 0x29 DUP4 PUSH2 0x3BFB JUMP JUMPDEST SWAP2 POP PUSH2 0x5B03 DUP3 PUSH2 0x5A9C JUMP JUMPDEST PUSH1 0x40 DUP3 ADD SWAP1 POP SWAP2 SWAP1 POP JUMP JUMPDEST PUSH1 0x0 PUSH1 0x20 DUP3 ADD SWAP1 POP DUP2 DUP2 SUB PUSH1 0x0 DUP4 ADD MSTORE PUSH2 0x5B27 DUP2 PUSH2 0x5AEB JUMP JUMPDEST SWAP1 POP SWAP2 SWAP1 POP JUMP JUMPDEST PUSH32 0x4F776E61626C653A2063616C6C6572206973206E6F7420746865206F776E6572 PUSH1 0x0 DUP3 ADD MSTORE POP JUMP JUMPDEST PUSH1 0x0 PUSH2 0x5B64 PUSH1 0x20 DUP4 PUSH2 0x3BFB JUMP JUMPDEST SWAP2 POP PUSH2 0x5B6F DUP3 PUSH2 0x5B2E JUMP JUMPDEST PUSH1 0x20 DUP3 ADD SWAP1 POP SWAP2 SWAP1 POP JUMP JUMPDEST PUSH1 0x0 PUSH1 0x20 DUP3 ADD SWAP1 POP DUP2 DUP2 SUB PUSH1 0x0 DUP4 ADD MSTORE PUSH2 0x5B93 DUP2 PUSH2 0x5B57 JUMP JUMPDEST SWAP1 POP SWAP2 SWAP1 POP JUMP JUMPDEST PUSH32 0x4552433732313A206D696E7420746F20746865207A65726F2061646472657373 PUSH1 0x0 DUP3 ADD MSTORE POP JUMP JUMPDEST PUSH1 0x0 PUSH2 0x5BD0 PUSH1 0x20 DUP4 PUSH2 0x3BFB JUMP JUMPDEST SWAP2 POP PUSH2 0x5BDB DUP3 PUSH2 0x5B9A JUMP JUMPDEST PUSH1 0x20 DUP3 ADD SWAP1 POP SWAP2 SWAP1 POP JUMP JUMPDEST PUSH1 0x0 PUSH1 0x20 DUP3 ADD SWAP1 POP DUP2 DUP2 SUB PUSH1 0x0 DUP4 ADD MSTORE PUSH2 0x5BFF DUP2 PUSH2 0x5BC3 JUMP JUMPDEST SWAP1 POP SWAP2 SWAP1 POP JUMP JUMPDEST PUSH32 0x4552433732313A20746F6B656E20616C7265616479206D696E74656400000000 PUSH1 0x0 DUP3 ADD MSTORE POP JUMP JUMPDEST PUSH1 0x0 PUSH2 0x5C3C PUSH1 0x1C DUP4 PUSH2 0x3BFB JUMP JUMPDEST SWAP2 POP PUSH2 0x5C47 DUP3 PUSH2 0x5C06 JUMP JUMPDEST PUSH1 0x20 DUP3 ADD SWAP1 POP SWAP2 SWAP1 POP JUMP JUMPDEST PUSH1 0x0 PUSH1 0x20 DUP3 ADD SWAP1 POP DUP2 DUP2 SUB PUSH1 0x0 DUP4 ADD MSTORE PUSH2 0x5C6B DUP2 PUSH2 0x5C2F JUMP JUMPDEST SWAP1 POP SWAP2 SWAP1 POP JUMP JUMPDEST PUSH32 0x4552433732313A20617070726F766520746F2063616C6C657200000000000000 PUSH1 0x0 DUP3 ADD MSTORE POP JUMP JUMPDEST PUSH1 0x0 PUSH2 0x5CA8 PUSH1 0x19 DUP4 PUSH2 0x3BFB JUMP JUMPDEST SWAP2 POP PUSH2 0x5CB3 DUP3 PUSH2 0x5C72 JUMP JUMPDEST PUSH1 0x20 DUP3 ADD SWAP1 POP SWAP2 SWAP1 POP JUMP JUMPDEST PUSH1 0x0 PUSH1 0x20 DUP3 ADD SWAP1 POP DUP2 DUP2 SUB PUSH1 0x0 DUP4 ADD MSTORE PUSH2 0x5CD7 DUP2 PUSH2 0x5C9B JUMP JUMPDEST SWAP1 POP SWAP2 SWAP1 POP JUMP JUMPDEST PUSH32 0x4552433732313A207472616E7366657220746F206E6F6E204552433732315265 PUSH1 0x0 DUP3 ADD MSTORE PUSH32 0x63656976657220696D706C656D656E7465720000000000000000000000000000 PUSH1 0x20 DUP3 ADD MSTORE POP JUMP JUMPDEST PUSH1 0x0 PUSH2 0x5D3A PUSH1 0x32 DUP4 PUSH2 0x3BFB JUMP JUMPDEST SWAP2 POP PUSH2 0x5D45 DUP3 PUSH2 0x5CDE JUMP JUMPDEST PUSH1 0x40 DUP3 ADD SWAP1 POP SWAP2 SWAP1 POP JUMP JUMPDEST PUSH1 0x0 PUSH1 0x20 DUP3 ADD SWAP1 POP DUP2 DUP2 SUB PUSH1 0x0 DUP4 ADD MSTORE PUSH2 0x5D69 DUP2 PUSH2 0x5D2D JUMP JUMPDEST SWAP1 POP SWAP2 SWAP1 POP JUMP JUMPDEST PUSH32 0x496E697469616C697A61626C653A20636F6E7472616374206973206E6F742069 PUSH1 0x0 DUP3 ADD MSTORE PUSH32 0x6E697469616C697A696E67000000000000000000000000000000000000000000 PUSH1 0x20 DUP3 ADD MSTORE POP JUMP JUMPDEST PUSH1 0x0 PUSH2 0x5DCC PUSH1 0x2B DUP4 PUSH2 0x3BFB JUMP JUMPDEST SWAP2 POP PUSH2 0x5DD7 DUP3 PUSH2 0x5D70 JUMP JUMPDEST PUSH1 0x40 DUP3 ADD SWAP1 POP SWAP2 SWAP1 POP JUMP JUMPDEST PUSH1 0x0 PUSH1 0x20 DUP3 ADD SWAP1 POP DUP2 DUP2 SUB PUSH1 0x0 DUP4 ADD MSTORE PUSH2 0x5DFB DUP2 PUSH2 0x5DBF JUMP JUMPDEST SWAP1 POP SWAP2 SWAP1 POP JUMP JUMPDEST PUSH1 0x0 PUSH2 0x5E0D DUP3 PUSH2 0x3CA2 JUMP JUMPDEST SWAP2 POP PUSH2 0x5E18 DUP4 PUSH2 0x3CA2 JUMP JUMPDEST SWAP3 POP DUP3 DUP3 SUB SWAP1 POP DUP2 DUP2 GT ISZERO PUSH2 0x5E30 JUMPI PUSH2 0x5E2F PUSH2 0x52F7 JUMP JUMPDEST JUMPDEST SWAP3 SWAP2 POP POP JUMP JUMPDEST PUSH1 0x0 DUP2 SWAP1 POP SWAP3 SWAP2 POP POP JUMP JUMPDEST PUSH32 0x416363657373436F6E74726F6C3A206163636F756E7420000000000000000000 PUSH1 0x0 DUP3 ADD MSTORE POP JUMP JUMPDEST PUSH1 0x0 PUSH2 0x5E77 PUSH1 0x17 DUP4 PUSH2 0x5E36 JUMP JUMPDEST SWAP2 POP PUSH2 0x5E82 DUP3 PUSH2 0x5E41 JUMP JUMPDEST PUSH1 0x17 DUP3 ADD SWAP1 POP SWAP2 SWAP1 POP JUMP JUMPDEST PUSH1 0x0 PUSH2 0x5E98 DUP3 PUSH2 0x3BF0 JUMP JUMPDEST PUSH2 0x5EA2 DUP2 DUP6 PUSH2 0x5E36 JUMP JUMPDEST SWAP4 POP PUSH2 0x5EB2 DUP2 DUP6 PUSH1 0x20 DUP7 ADD PUSH2 0x3C0C JUMP JUMPDEST DUP1 DUP5 ADD SWAP2 POP POP SWAP3 SWAP2 POP POP JUMP JUMPDEST PUSH32 0x206973206D697373696E6720726F6C6520000000000000000000000000000000 PUSH1 0x0 DUP3 ADD MSTORE POP JUMP JUMPDEST PUSH1 0x0 PUSH2 0x5EF4 PUSH1 0x11 DUP4 PUSH2 0x5E36 JUMP JUMPDEST SWAP2 POP PUSH2 0x5EFF DUP3 PUSH2 0x5EBE JUMP JUMPDEST PUSH1 0x11 DUP3 ADD SWAP1 POP SWAP2 SWAP1 POP JUMP JUMPDEST PUSH1 0x0 PUSH2 0x5F15 DUP3 PUSH2 0x5E6A JUMP JUMPDEST SWAP2 POP PUSH2 0x5F21 DUP3 DUP6 PUSH2 0x5E8D JUMP JUMPDEST SWAP2 POP PUSH2 0x5F2C DUP3 PUSH2 0x5EE7 JUMP JUMPDEST SWAP2 POP PUSH2 0x5F38 DUP3 DUP5 PUSH2 0x5E8D JUMP JUMPDEST SWAP2 POP DUP2 SWAP1 POP SWAP4 SWAP3 POP POP POP JUMP JUMPDEST PUSH32 0x455243313936373A206E657720696D706C656D656E746174696F6E206973206E PUSH1 0x0 DUP3 ADD MSTORE PUSH32 0x6F74206120636F6E747261637400000000000000000000000000000000000000 PUSH1 0x20 DUP3 ADD MSTORE POP JUMP JUMPDEST PUSH1 0x0 PUSH2 0x5FA0 PUSH1 0x2D DUP4 PUSH2 0x3BFB JUMP JUMPDEST SWAP2 POP PUSH2 0x5FAB DUP3 PUSH2 0x5F44 JUMP JUMPDEST PUSH1 0x40 DUP3 ADD SWAP1 POP SWAP2 SWAP1 POP JUMP JUMPDEST PUSH1 0x0 PUSH1 0x20 DUP3 ADD SWAP1 POP DUP2 DUP2 SUB PUSH1 0x0 DUP4 ADD MSTORE PUSH2 0x5FCF DUP2 PUSH2 0x5F93 JUMP JUMPDEST SWAP1 POP SWAP2 SWAP1 POP JUMP JUMPDEST PUSH1 0x0 DUP2 MLOAD SWAP1 POP SWAP2 SWAP1 POP JUMP JUMPDEST PUSH1 0x0 DUP3 DUP3 MSTORE PUSH1 0x20 DUP3 ADD SWAP1 POP SWAP3 SWAP2 POP POP JUMP JUMPDEST PUSH1 0x0 PUSH2 0x5FFD DUP3 PUSH2 0x5FD6 JUMP JUMPDEST PUSH2 0x6007 DUP2 DUP6 PUSH2 0x5FE1 JUMP JUMPDEST SWAP4 POP PUSH2 0x6017 DUP2 DUP6 PUSH1 0x20 DUP7 ADD PUSH2 0x3C0C JUMP JUMPDEST PUSH2 0x6020 DUP2 PUSH2 0x3C36 JUMP JUMPDEST DUP5 ADD SWAP2 POP POP SWAP3 SWAP2 POP POP JUMP JUMPDEST PUSH1 0x0 PUSH1 0x80 DUP3 ADD SWAP1 POP PUSH2 0x6040 PUSH1 0x0 DUP4 ADD DUP8 PUSH2 0x3D37 JUMP JUMPDEST PUSH2 0x604D PUSH1 0x20 DUP4 ADD DUP7 PUSH2 0x3D37 JUMP JUMPDEST PUSH2 0x605A PUSH1 0x40 DUP4 ADD DUP6 PUSH2 0x4116 JUMP JUMPDEST DUP2 DUP2 SUB PUSH1 0x60 DUP4 ADD MSTORE PUSH2 0x606C DUP2 DUP5 PUSH2 0x5FF2 JUMP JUMPDEST SWAP1 POP SWAP6 SWAP5 POP POP POP POP POP JUMP JUMPDEST PUSH1 0x0 DUP2 MLOAD SWAP1 POP PUSH2 0x6086 DUP2 PUSH2 0x3B61 JUMP JUMPDEST SWAP3 SWAP2 POP POP JUMP JUMPDEST PUSH1 0x0 PUSH1 0x20 DUP3 DUP5 SUB SLT ISZERO PUSH2 0x60A2 JUMPI PUSH2 0x60A1 PUSH2 0x3B2B JUMP JUMPDEST JUMPDEST PUSH1 0x0 PUSH2 0x60B0 DUP5 DUP3 DUP6 ADD PUSH2 0x6077 JUMP JUMPDEST SWAP2 POP POP SWAP3 SWAP2 POP POP JUMP JUMPDEST PUSH1 0x0 PUSH2 0x60C4 DUP3 PUSH2 0x3CA2 JUMP JUMPDEST SWAP2 POP PUSH2 0x60CF DUP4 PUSH2 0x3CA2 JUMP JUMPDEST SWAP3 POP DUP3 DUP3 MUL PUSH2 0x60DD DUP2 PUSH2 0x3CA2 JUMP JUMPDEST SWAP2 POP DUP3 DUP3 DIV DUP5 EQ DUP4 ISZERO OR PUSH2 0x60F4 JUMPI PUSH2 0x60F3 PUSH2 0x52F7 JUMP JUMPDEST JUMPDEST POP SWAP3 SWAP2 POP POP JUMP JUMPDEST PUSH32 0x4E487B7100000000000000000000000000000000000000000000000000000000 PUSH1 0x0 MSTORE PUSH1 0x32 PUSH1 0x4 MSTORE PUSH1 0x24 PUSH1 0x0 REVERT JUMPDEST PUSH1 0x0 PUSH2 0x6135 DUP3 PUSH2 0x3CA2 JUMP JUMPDEST SWAP2 POP PUSH1 0x0 DUP3 SUB PUSH2 0x6148 JUMPI PUSH2 0x6147 PUSH2 0x52F7 JUMP JUMPDEST JUMPDEST PUSH1 0x1 DUP3 SUB SWAP1 POP SWAP2 SWAP1 POP JUMP JUMPDEST PUSH32 0x537472696E67733A20686578206C656E67746820696E73756666696369656E74 PUSH1 0x0 DUP3 ADD MSTORE POP JUMP JUMPDEST PUSH1 0x0 PUSH2 0x6189 PUSH1 0x20 DUP4 PUSH2 0x3BFB JUMP JUMPDEST SWAP2 POP PUSH2 0x6194 DUP3 PUSH2 0x6153 JUMP JUMPDEST PUSH1 0x20 DUP3 ADD SWAP1 POP SWAP2 SWAP1 POP JUMP JUMPDEST PUSH1 0x0 PUSH1 0x20 DUP3 ADD SWAP1 POP DUP2 DUP2 SUB PUSH1 0x0 DUP4 ADD MSTORE PUSH2 0x61B8 DUP2 PUSH2 0x617C JUMP JUMPDEST SWAP1 POP SWAP2 SWAP1 POP JUMP JUMPDEST PUSH32 0x416464726573733A2064656C65676174652063616C6C20746F206E6F6E2D636F PUSH1 0x0 DUP3 ADD MSTORE PUSH32 0x6E74726163740000000000000000000000000000000000000000000000000000 PUSH1 0x20 DUP3 ADD MSTORE POP JUMP JUMPDEST PUSH1 0x0 PUSH2 0x621B PUSH1 0x26 DUP4 PUSH2 0x3BFB JUMP JUMPDEST SWAP2 POP PUSH2 0x6226 DUP3 PUSH2 0x61BF JUMP JUMPDEST PUSH1 0x40 DUP3 ADD SWAP1 POP SWAP2 SWAP1 POP JUMP JUMPDEST PUSH1 0x0 PUSH1 0x20 DUP3 ADD SWAP1 POP DUP2 DUP2 SUB PUSH1 0x0 DUP4 ADD MSTORE PUSH2 0x624A DUP2 PUSH2 0x620E JUMP JUMPDEST SWAP1 POP SWAP2 SWAP1 POP JUMP JUMPDEST PUSH1 0x0 DUP2 SWAP1 POP SWAP3 SWAP2 POP POP JUMP JUMPDEST PUSH1 0x0 PUSH2 0x6267 DUP3 PUSH2 0x5FD6 JUMP JUMPDEST PUSH2 0x6271 DUP2 DUP6 PUSH2 0x6251 JUMP JUMPDEST SWAP4 POP PUSH2 0x6281 DUP2 DUP6 PUSH1 0x20 DUP7 ADD PUSH2 0x3C0C JUMP JUMPDEST DUP1 DUP5 ADD SWAP2 POP POP SWAP3 SWAP2 POP POP JUMP JUMPDEST PUSH1 0x0 PUSH2 0x6299 DUP3 DUP5 PUSH2 0x625C JUMP JUMPDEST SWAP2 POP DUP2 SWAP1 POP SWAP3 SWAP2 POP POP JUMP INVALID COINBASE PUSH5 0x6472657373 GASPRICE KECCAK256 PUSH13 0x6F772D6C6576656C2064656C65 PUSH8 0x6174652063616C6C KECCAK256 PUSH7 0x61696C6564A264 PUSH10 0x706673582212204984FB 0xF9 BLOCKHASH PUSH14 0xF47B2DA0EC1D2A928785C144512B 0xE0 0x4C 0x4A JUMPDEST 0xB6 LT 0x5D NUMBER 0xE 0xB9 PUSH1 0x47 PUSH5 0x736F6C6343 STOP ADDMOD SLT STOP CALLER "
		},
		"gasEstimates": {
			"creation": {
				"codeDepositCost": "2739200",
				"executionCost": "infinite",
				"totalCost": "infinite"
			},
			"external": {
				"ADMIN_ROLE()": "375",
				"DEFAULT_ADMIN_ROLE()": "402",
				"boxImplementationAddress()": "2603",
				"configCollection(address,uint8,uint256,uint256,string,address)": "infinite",
				"configNftCollectionURI(address,string)": "infinite",
				"createBox(string,address,string,string,uint256,uint256,bool,uint256,uint256)": "infinite",
				"createCampaign(uint8,address,string,address,string,string,(uint8,uint256,uint256)[])": "infinite",
				"dappCreatorAddress()": "2581",
				"getAllBoxCampaign()": "infinite",
				"getAllNFTCampaign()": "infinite",
				"getCollectionAddress(uint256)": "infinite",
				"getCurrentConfiguration()": "2567",
				"getCurrentDappCreatorAddress()": "infinite",
				"getNFTCampaignsByStandardId(uint8)": "infinite",
				"getRoleAdmin(bytes32)": "infinite",
				"getStandardIdByCampaign(address)": "infinite",
				"grantRole(bytes32,address)": "infinite",
				"hasRole(bytes32,address)": "3208",
				"inZBoxCampaignsAddress(uint256)": "5025",
				"inZNftCampaignsAddress(uint256)": "5001",
				"isValidNftCollection(address)": "infinite",
				"marketAddress()": "2604",
				"nftConfiguration()": "infinite",
				"nftImplementationAddressERC1155()": "2559",
				"nftImplementationAddressERC721()": "2602",
				"renounceRole(bytes32,address)": "infinite",
				"revokeRole(bytes32,address)": "infinite",
				"setConfiguration(address)": "infinite",
				"supportsInterface(bytes4)": "817",
				"updateNftConfigContract(address,address,address)": "infinite"
			},
			"internal": {
				"_configOneCollection(address,uint8,uint256,uint256,string memory,address,address)": "infinite"
			}
		},
		"methodIdentifiers": {
			"ADMIN_ROLE()": "75b238fc",
			"DEFAULT_ADMIN_ROLE()": "a217fddf",
			"boxImplementationAddress()": "a2597109",
			"configCollection(address,uint8,uint256,uint256,string,address)": "c49bf932",
			"configNftCollectionURI(address,string)": "f557c560",
			"createBox(string,address,string,string,uint256,uint256,bool,uint256,uint256)": "25c2bbfb",
			"createCampaign(uint8,address,string,address,string,string,(uint8,uint256,uint256)[])": "5e96c710",
			"dappCreatorAddress()": "ac4807ff",
			"getAllBoxCampaign()": "4d0bfcb3",
			"getAllNFTCampaign()": "a3b7ebff",
			"getCollectionAddress(uint256)": "333671a4",
			"getCurrentConfiguration()": "9ee984ba",
			"getCurrentDappCreatorAddress()": "71efede9",
			"getNFTCampaignsByStandardId(uint8)": "bbb24156",
			"getRoleAdmin(bytes32)": "248a9ca3",
			"getStandardIdByCampaign(address)": "aedc2ddc",
			"grantRole(bytes32,address)": "2f2ff15d",
			"hasRole(bytes32,address)": "91d14854",
			"inZBoxCampaignsAddress(uint256)": "085ba9a9",
			"inZNftCampaignsAddress(uint256)": "61b6cc3c",
			"isValidNftCollection(address)": "52afe4a1",
			"marketAddress()": "95623641",
			"nftConfiguration()": "4587a610",
			"nftImplementationAddressERC1155()": "a54cd2f6",
			"nftImplementationAddressERC721()": "e4ae24a8",
			"renounceRole(bytes32,address)": "36568abe",
			"revokeRole(bytes32,address)": "d547741f",
			"setConfiguration(address)": "627f09c3",
			"supportsInterface(bytes4)": "01ffc9a7",
			"updateNftConfigContract(address,address,address)": "74f55d54"
		}
	},
	"abi": [
		{
			"inputs": [
				{
					"internalType": "contract IConfiguration",
					"name": "_nftConfiguration",
					"type": "address"
				}
			],
			"stateMutability": "nonpayable",
			"type": "constructor"
		},
		{
			"anonymous": false,
			"inputs": [
				{
					"indexed": false,
					"internalType": "address",
					"name": "newBoxAddress",
					"type": "address"
				},
				{
					"indexed": false,
					"internalType": "string",
					"name": "uri",
					"type": "string"
				},
				{
					"indexed": false,
					"internalType": "address",
					"name": "payToken",
					"type": "address"
				},
				{
					"indexed": false,
					"internalType": "string",
					"name": "name",
					"type": "string"
				},
				{
					"indexed": false,
					"internalType": "string",
					"name": "symbol",
					"type": "string"
				},
				{
					"indexed": false,
					"internalType": "uint256",
					"name": "startTime",
					"type": "uint256"
				},
				{
					"indexed": false,
					"internalType": "uint256",
					"name": "endTime",
					"type": "uint256"
				},
				{
					"indexed": false,
					"internalType": "bool",
					"name": "isAutoIncreaseId",
					"type": "bool"
				},
				{
					"indexed": false,
					"internalType": "uint256",
					"name": "totalSupply",
					"type": "uint256"
				},
				{
					"indexed": false,
					"internalType": "uint256",
					"name": "price",
					"type": "uint256"
				}
			],
			"name": "NewBox",
			"type": "event"
		},
		{
			"anonymous": false,
			"inputs": [
				{
					"indexed": false,
					"internalType": "uint8",
					"name": "startdardId",
					"type": "uint8"
				},
				{
					"indexed": false,
					"internalType": "address",
					"name": "campaignAddress",
					"type": "address"
				},
				{
					"indexed": false,
					"internalType": "address",
					"name": "campaignPaymentAddress",
					"type": "address"
				},
				{
					"components": [
						{
							"internalType": "uint8",
							"name": "nftType",
							"type": "uint8"
						},
						{
							"internalType": "uint256",
							"name": "totalSupply",
							"type": "uint256"
						},
						{
							"internalType": "uint256",
							"name": "price",
							"type": "uint256"
						}
					],
					"indexed": false,
					"internalType": "struct InZNFTTypeDetail.NFTTypeDetail[]",
					"name": "nftTypesDetail",
					"type": "tuple[]"
				},
				{
					"indexed": false,
					"internalType": "contract IERC20",
					"name": "coinToken",
					"type": "address"
				},
				{
					"indexed": false,
					"internalType": "string",
					"name": "symbol",
					"type": "string"
				},
				{
					"indexed": false,
					"internalType": "string",
					"name": "name",
					"type": "string"
				},
				{
					"indexed": false,
					"internalType": "address",
					"name": "adminAddress",
					"type": "address"
				}
			],
			"name": "NewNFT",
			"type": "event"
		},
		{
			"anonymous": false,
			"inputs": [
				{
					"indexed": true,
					"internalType": "bytes32",
					"name": "role",
					"type": "bytes32"
				},
				{
					"indexed": true,
					"internalType": "bytes32",
					"name": "previousAdminRole",
					"type": "bytes32"
				},
				{
					"indexed": true,
					"internalType": "bytes32",
					"name": "newAdminRole",
					"type": "bytes32"
				}
			],
			"name": "RoleAdminChanged",
			"type": "event"
		},
		{
			"anonymous": false,
			"inputs": [
				{
					"indexed": true,
					"internalType": "bytes32",
					"name": "role",
					"type": "bytes32"
				},
				{
					"indexed": true,
					"internalType": "address",
					"name": "account",
					"type": "address"
				},
				{
					"indexed": true,
					"internalType": "address",
					"name": "sender",
					"type": "address"
				}
			],
			"name": "RoleGranted",
			"type": "event"
		},
		{
			"anonymous": false,
			"inputs": [
				{
					"indexed": true,
					"internalType": "bytes32",
					"name": "role",
					"type": "bytes32"
				},
				{
					"indexed": true,
					"internalType": "address",
					"name": "account",
					"type": "address"
				},
				{
					"indexed": true,
					"internalType": "address",
					"name": "sender",
					"type": "address"
				}
			],
			"name": "RoleRevoked",
			"type": "event"
		},
		{
			"anonymous": false,
			"inputs": [
				{
					"indexed": false,
					"internalType": "address",
					"name": "newConfiguration",
					"type": "address"
				}
			],
			"name": "SetConfiguration",
			"type": "event"
		},
		{
			"inputs": [],
			"name": "ADMIN_ROLE",
			"outputs": [
				{
					"internalType": "bytes32",
					"name": "",
					"type": "bytes32"
				}
			],
			"stateMutability": "view",
			"type": "function"
		},
		{
			"inputs": [],
			"name": "DEFAULT_ADMIN_ROLE",
			"outputs": [
				{
					"internalType": "bytes32",
					"name": "",
					"type": "bytes32"
				}
			],
			"stateMutability": "view",
			"type": "function"
		},
		{
			"inputs": [],
			"name": "boxImplementationAddress",
			"outputs": [
				{
					"internalType": "address",
					"name": "",
					"type": "address"
				}
			],
			"stateMutability": "view",
			"type": "function"
		},
		{
			"inputs": [
				{
					"internalType": "address",
					"name": "_collectionAddress",
					"type": "address"
				},
				{
					"internalType": "uint8",
					"name": "_nftType",
					"type": "uint8"
				},
				{
					"internalType": "uint256",
					"name": "_price",
					"type": "uint256"
				},
				{
					"internalType": "uint256",
					"name": "_totalSupply",
					"type": "uint256"
				},
				{
					"internalType": "string",
					"name": "_baseMetadataUri",
					"type": "string"
				},
				{
					"internalType": "address",
					"name": "_payToken",
					"type": "address"
				}
			],
			"name": "configCollection",
			"outputs": [],
			"stateMutability": "nonpayable",
			"type": "function"
		},
		{
			"inputs": [
				{
					"internalType": "address",
					"name": "_collectionAddress",
					"type": "address"
				},
				{
					"internalType": "string",
					"name": "_baseMetadataUri",
					"type": "string"
				}
			],
			"name": "configNftCollectionURI",
			"outputs": [],
			"stateMutability": "nonpayable",
			"type": "function"
		},
		{
			"inputs": [
				{
					"internalType": "string",
					"name": "_boxUri",
					"type": "string"
				},
				{
					"internalType": "contract IERC20",
					"name": "_payToken",
					"type": "address"
				},
				{
					"internalType": "string",
					"name": "_name",
					"type": "string"
				},
				{
					"internalType": "string",
					"name": "_symbol",
					"type": "string"
				},
				{
					"internalType": "uint256",
					"name": "_startTime",
					"type": "uint256"
				},
				{
					"internalType": "uint256",
					"name": "_endTime",
					"type": "uint256"
				},
				{
					"internalType": "bool",
					"name": "_isAutoIncreaseId",
					"type": "bool"
				},
				{
					"internalType": "uint256",
					"name": "_totalSupply",
					"type": "uint256"
				},
				{
					"internalType": "uint256",
					"name": "_price",
					"type": "uint256"
				}
			],
			"name": "createBox",
			"outputs": [],
			"stateMutability": "nonpayable",
			"type": "function"
		},
		{
			"inputs": [
				{
					"internalType": "uint8",
					"name": "_standardId",
					"type": "uint8"
				},
				{
					"internalType": "address",
					"name": "_campaignPaymentAddress",
					"type": "address"
				},
				{
					"internalType": "string",
					"name": "_baseMetadataUri",
					"type": "string"
				},
				{
					"internalType": "contract IERC20",
					"name": "_coinToken",
					"type": "address"
				},
				{
					"internalType": "string",
					"name": "_symbol",
					"type": "string"
				},
				{
					"internalType": "string",
					"name": "_name",
					"type": "string"
				},
				{
					"components": [
						{
							"internalType": "uint8",
							"name": "nftType",
							"type": "uint8"
						},
						{
							"internalType": "uint256",
							"name": "totalSupply",
							"type": "uint256"
						},
						{
							"internalType": "uint256",
							"name": "price",
							"type": "uint256"
						}
					],
					"internalType": "struct InZNFTTypeDetail.NFTTypeDetail[]",
					"name": "_nftTypesDetail",
					"type": "tuple[]"
				}
			],
			"name": "createCampaign",
			"outputs": [],
			"stateMutability": "nonpayable",
			"type": "function"
		},
		{
			"inputs": [],
			"name": "dappCreatorAddress",
			"outputs": [
				{
					"internalType": "address",
					"name": "",
					"type": "address"
				}
			],
			"stateMutability": "view",
			"type": "function"
		},
		{
			"inputs": [],
			"name": "getAllBoxCampaign",
			"outputs": [
				{
					"internalType": "address[]",
					"name": "",
					"type": "address[]"
				}
			],
			"stateMutability": "view",
			"type": "function"
		},
		{
			"inputs": [],
			"name": "getAllNFTCampaign",
			"outputs": [
				{
					"internalType": "address[]",
					"name": "",
					"type": "address[]"
				}
			],
			"stateMutability": "view",
			"type": "function"
		},
		{
			"inputs": [
				{
					"internalType": "uint256",
					"name": "index",
					"type": "uint256"
				}
			],
			"name": "getCollectionAddress",
			"outputs": [
				{
					"internalType": "address",
					"name": "",
					"type": "address"
				}
			],
			"stateMutability": "view",
			"type": "function"
		},
		{
			"inputs": [],
			"name": "getCurrentConfiguration",
			"outputs": [
				{
					"internalType": "address",
					"name": "",
					"type": "address"
				}
			],
			"stateMutability": "view",
			"type": "function"
		},
		{
			"inputs": [],
			"name": "getCurrentDappCreatorAddress",
			"outputs": [
				{
					"internalType": "address",
					"name": "",
					"type": "address"
				}
			],
			"stateMutability": "view",
			"type": "function"
		},
		{
			"inputs": [
				{
					"internalType": "uint8",
					"name": "_standardId",
					"type": "uint8"
				}
			],
			"name": "getNFTCampaignsByStandardId",
			"outputs": [
				{
					"internalType": "address[]",
					"name": "",
					"type": "address[]"
				}
			],
			"stateMutability": "view",
			"type": "function"
		},
		{
			"inputs": [
				{
					"internalType": "bytes32",
					"name": "role",
					"type": "bytes32"
				}
			],
			"name": "getRoleAdmin",
			"outputs": [
				{
					"internalType": "bytes32",
					"name": "",
					"type": "bytes32"
				}
			],
			"stateMutability": "view",
			"type": "function"
		},
		{
			"inputs": [
				{
					"internalType": "address",
					"name": "_campaignAddress",
					"type": "address"
				}
			],
			"name": "getStandardIdByCampaign",
			"outputs": [
				{
					"internalType": "uint8",
					"name": "",
					"type": "uint8"
				}
			],
			"stateMutability": "view",
			"type": "function"
		},
		{
			"inputs": [
				{
					"internalType": "bytes32",
					"name": "role",
					"type": "bytes32"
				},
				{
					"internalType": "address",
					"name": "account",
					"type": "address"
				}
			],
			"name": "grantRole",
			"outputs": [],
			"stateMutability": "nonpayable",
			"type": "function"
		},
		{
			"inputs": [
				{
					"internalType": "bytes32",
					"name": "role",
					"type": "bytes32"
				},
				{
					"internalType": "address",
					"name": "account",
					"type": "address"
				}
			],
			"name": "hasRole",
			"outputs": [
				{
					"internalType": "bool",
					"name": "",
					"type": "bool"
				}
			],
			"stateMutability": "view",
			"type": "function"
		},
		{
			"inputs": [
				{
					"internalType": "uint256",
					"name": "",
					"type": "uint256"
				}
			],
			"name": "inZBoxCampaignsAddress",
			"outputs": [
				{
					"internalType": "address",
					"name": "",
					"type": "address"
				}
			],
			"stateMutability": "view",
			"type": "function"
		},
		{
			"inputs": [
				{
					"internalType": "uint256",
					"name": "",
					"type": "uint256"
				}
			],
			"name": "inZNftCampaignsAddress",
			"outputs": [
				{
					"internalType": "address",
					"name": "",
					"type": "address"
				}
			],
			"stateMutability": "view",
			"type": "function"
		},
		{
			"inputs": [
				{
					"internalType": "address",
					"name": "_nftCollection",
					"type": "address"
				}
			],
			"name": "isValidNftCollection",
			"outputs": [
				{
					"internalType": "bool",
					"name": "",
					"type": "bool"
				}
			],
			"stateMutability": "view",
			"type": "function"
		},
		{
			"inputs": [],
			"name": "marketAddress",
			"outputs": [
				{
					"internalType": "address",
					"name": "",
					"type": "address"
				}
			],
			"stateMutability": "view",
			"type": "function"
		},
		{
			"inputs": [],
			"name": "nftConfiguration",
			"outputs": [
				{
					"internalType": "contract IConfiguration",
					"name": "",
					"type": "address"
				}
			],
			"stateMutability": "view",
			"type": "function"
		},
		{
			"inputs": [],
			"name": "nftImplementationAddressERC1155",
			"outputs": [
				{
					"internalType": "address",
					"name": "",
					"type": "address"
				}
			],
			"stateMutability": "view",
			"type": "function"
		},
		{
			"inputs": [],
			"name": "nftImplementationAddressERC721",
			"outputs": [
				{
					"internalType": "address",
					"name": "",
					"type": "address"
				}
			],
			"stateMutability": "view",
			"type": "function"
		},
		{
			"inputs": [
				{
					"internalType": "bytes32",
					"name": "role",
					"type": "bytes32"
				},
				{
					"internalType": "address",
					"name": "account",
					"type": "address"
				}
			],
			"name": "renounceRole",
			"outputs": [],
			"stateMutability": "nonpayable",
			"type": "function"
		},
		{
			"inputs": [
				{
					"internalType": "bytes32",
					"name": "role",
					"type": "bytes32"
				},
				{
					"internalType": "address",
					"name": "account",
					"type": "address"
				}
			],
			"name": "revokeRole",
			"outputs": [],
			"stateMutability": "nonpayable",
			"type": "function"
		},
		{
			"inputs": [
				{
					"internalType": "contract IConfiguration",
					"name": "_nftConfiguration",
					"type": "address"
				}
			],
			"name": "setConfiguration",
			"outputs": [],
			"stateMutability": "nonpayable",
			"type": "function"
		},
		{
			"inputs": [
				{
					"internalType": "bytes4",
					"name": "interfaceId",
					"type": "bytes4"
				}
			],
			"name": "supportsInterface",
			"outputs": [
				{
					"internalType": "bool",
					"name": "",
					"type": "bool"
				}
			],
			"stateMutability": "view",
			"type": "function"
		},
		{
			"inputs": [
				{
					"internalType": "address",
					"name": "_nftFactory",
					"type": "address"
				},
				{
					"internalType": "address",
					"name": "_dappCreator",
					"type": "address"
				},
				{
					"internalType": "address",
					"name": "_treasury",
					"type": "address"
				}
			],
			"name": "updateNftConfigContract",
			"outputs": [],
			"stateMutability": "nonpayable",
			"type": "function"
		}
	]
}