{
  "_format": "hh-sol-artifact-1",
  "contractName": "InzCampaignTypesNFT1155",
  "sourceName": "contracts/minting/campaignNFT/InzCampaignTypesNFT1155.sol",
  "abi": [
    {
      "anonymous": false,
      "inputs": [
        {
          "indexed": false,
          "internalType": "address",
          "name": "to",
          "type": "address"
        },
        {
          "indexed": false,
          "internalType": "uint256",
          "name": "tokenId",
          "type": "uint256"
        },
        {
          "indexed": false,
          "internalType": "uint8",
          "name": "tokenType",
          "type": "uint8"
        },
        {
          "indexed": false,
          "internalType": "string",
          "name": "uri",
          "type": "string"
        },
        {
          "indexed": false,
          "internalType": "string",
          "name": "giftCode",
          "type": "string"
        }
      ],
      "name": "ActiveGiftCode",
      "type": "event"
    },
    {
      "anonymous": false,
      "inputs": [
        {
          "indexed": false,
          "internalType": "uint8",
          "name": "tokenType",
          "type": "uint8"
        },
        {
          "indexed": false,
          "internalType": "uint256",
          "name": "totalSupply",
          "type": "uint256"
        },
        {
          "indexed": false,
          "internalType": "uint256",
          "name": "price",
          "type": "uint256"
        }
      ],
      "name": "AddNftType",
      "type": "event"
    },
    {
      "anonymous": false,
      "inputs": [
        {
          "indexed": false,
          "internalType": "address",
          "name": "previousAdmin",
          "type": "address"
        },
        {
          "indexed": false,
          "internalType": "address",
          "name": "newAdmin",
          "type": "address"
        }
      ],
      "name": "AdminChanged",
      "type": "event"
    },
    {
      "anonymous": false,
      "inputs": [
        {
          "indexed": true,
          "internalType": "address",
          "name": "account",
          "type": "address"
        },
        {
          "indexed": true,
          "internalType": "address",
          "name": "operator",
          "type": "address"
        },
        {
          "indexed": false,
          "internalType": "bool",
          "name": "approved",
          "type": "bool"
        }
      ],
      "name": "ApprovalForAll",
      "type": "event"
    },
    {
      "anonymous": false,
      "inputs": [
        {
          "indexed": true,
          "internalType": "address",
          "name": "beacon",
          "type": "address"
        }
      ],
      "name": "BeaconUpgraded",
      "type": "event"
    },
    {
      "anonymous": false,
      "inputs": [
        {
          "indexed": false,
          "internalType": "uint8",
          "name": "version",
          "type": "uint8"
        }
      ],
      "name": "Initialized",
      "type": "event"
    },
    {
      "anonymous": false,
      "inputs": [
        {
          "indexed": false,
          "internalType": "address",
          "name": "to",
          "type": "address"
        },
        {
          "indexed": false,
          "internalType": "uint256",
          "name": "tokenId",
          "type": "uint256"
        },
        {
          "indexed": false,
          "internalType": "uint8",
          "name": "tokenType",
          "type": "uint8"
        },
        {
          "indexed": false,
          "internalType": "string",
          "name": "uri",
          "type": "string"
        },
        {
          "indexed": false,
          "internalType": "uint256",
          "name": "kolProfit",
          "type": "uint256"
        },
        {
          "indexed": false,
          "internalType": "uint256",
          "name": "marketFee",
          "type": "uint256"
        }
      ],
      "name": "Mint",
      "type": "event"
    },
    {
      "anonymous": false,
      "inputs": [
        {
          "indexed": true,
          "internalType": "address",
          "name": "previousOwner",
          "type": "address"
        },
        {
          "indexed": true,
          "internalType": "address",
          "name": "newOwner",
          "type": "address"
        }
      ],
      "name": "OwnershipTransferred",
      "type": "event"
    },
    {
      "anonymous": false,
      "inputs": [
        {
          "indexed": true,
          "internalType": "bytes32",
          "name": "role",
          "type": "bytes32"
        },
        {
          "indexed": true,
          "internalType": "bytes32",
          "name": "previousAdminRole",
          "type": "bytes32"
        },
        {
          "indexed": true,
          "internalType": "bytes32",
          "name": "newAdminRole",
          "type": "bytes32"
        }
      ],
      "name": "RoleAdminChanged",
      "type": "event"
    },
    {
      "anonymous": false,
      "inputs": [
        {
          "indexed": true,
          "internalType": "bytes32",
          "name": "role",
          "type": "bytes32"
        },
        {
          "indexed": true,
          "internalType": "address",
          "name": "account",
          "type": "address"
        },
        {
          "indexed": true,
          "internalType": "address",
          "name": "sender",
          "type": "address"
        }
      ],
      "name": "RoleGranted",
      "type": "event"
    },
    {
      "anonymous": false,
      "inputs": [
        {
          "indexed": true,
          "internalType": "bytes32",
          "name": "role",
          "type": "bytes32"
        },
        {
          "indexed": true,
          "internalType": "address",
          "name": "account",
          "type": "address"
        },
        {
          "indexed": true,
          "internalType": "address",
          "name": "sender",
          "type": "address"
        }
      ],
      "name": "RoleRevoked",
      "type": "event"
    },
    {
      "anonymous": false,
      "inputs": [
        {
          "indexed": true,
          "internalType": "address",
          "name": "operator",
          "type": "address"
        },
        {
          "indexed": true,
          "internalType": "address",
          "name": "from",
          "type": "address"
        },
        {
          "indexed": true,
          "internalType": "address",
          "name": "to",
          "type": "address"
        },
        {
          "indexed": false,
          "internalType": "uint256[]",
          "name": "ids",
          "type": "uint256[]"
        },
        {
          "indexed": false,
          "internalType": "uint256[]",
          "name": "values",
          "type": "uint256[]"
        }
      ],
      "name": "TransferBatch",
      "type": "event"
    },
    {
      "anonymous": false,
      "inputs": [
        {
          "indexed": true,
          "internalType": "address",
          "name": "operator",
          "type": "address"
        },
        {
          "indexed": true,
          "internalType": "address",
          "name": "from",
          "type": "address"
        },
        {
          "indexed": true,
          "internalType": "address",
          "name": "to",
          "type": "address"
        },
        {
          "indexed": false,
          "internalType": "uint256",
          "name": "id",
          "type": "uint256"
        },
        {
          "indexed": false,
          "internalType": "uint256",
          "name": "value",
          "type": "uint256"
        }
      ],
      "name": "TransferSingle",
      "type": "event"
    },
    {
      "anonymous": false,
      "inputs": [
        {
          "indexed": false,
          "internalType": "string",
          "name": "value",
          "type": "string"
        },
        {
          "indexed": true,
          "internalType": "uint256",
          "name": "id",
          "type": "uint256"
        }
      ],
      "name": "URI",
      "type": "event"
    },
    {
      "anonymous": false,
      "inputs": [
        {
          "indexed": true,
          "internalType": "address",
          "name": "implementation",
          "type": "address"
        }
      ],
      "name": "Upgraded",
      "type": "event"
    },
    {
      "inputs": [],
      "name": "DEFAULT_ADMIN_ROLE",
      "outputs": [
        {
          "internalType": "bytes32",
          "name": "",
          "type": "bytes32"
        }
      ],
      "stateMutability": "view",
      "type": "function"
    },
    {
      "inputs": [
        {
          "internalType": "address",
          "name": "account",
          "type": "address"
        },
        {
          "internalType": "uint256",
          "name": "id",
          "type": "uint256"
        }
      ],
      "name": "balanceOf",
      "outputs": [
        {
          "internalType": "uint256",
          "name": "",
          "type": "uint256"
        }
      ],
      "stateMutability": "view",
      "type": "function"
    },
    {
      "inputs": [
        {
          "internalType": "address[]",
          "name": "accounts",
          "type": "address[]"
        },
        {
          "internalType": "uint256[]",
          "name": "ids",
          "type": "uint256[]"
        }
      ],
      "name": "balanceOfBatch",
      "outputs": [
        {
          "internalType": "uint256[]",
          "name": "",
          "type": "uint256[]"
        }
      ],
      "stateMutability": "view",
      "type": "function"
    },
    {
      "inputs": [],
      "name": "coinToken",
      "outputs": [
        {
          "internalType": "contract IERC20",
          "name": "",
          "type": "address"
        }
      ],
      "stateMutability": "view",
      "type": "function"
    },
    {
      "inputs": [
        {
          "internalType": "uint256",
          "name": "_tokenId",
          "type": "uint256"
        },
        {
          "internalType": "bool",
          "name": "_isActive",
          "type": "bool"
        }
      ],
      "name": "customTokenIdToWhiteList",
      "outputs": [],
      "stateMutability": "nonpayable",
      "type": "function"
    },
    {
      "inputs": [
        {
          "internalType": "address",
          "name": "to",
          "type": "address"
        },
        {
          "internalType": "uint256",
          "name": "value",
          "type": "uint256"
        },
        {
          "internalType": "uint256",
          "name": "txGas",
          "type": "uint256"
        },
        {
          "internalType": "bytes",
          "name": "data",
          "type": "bytes"
        },
        {
          "internalType": "enum InterfaceFunction.Operation",
          "name": "operation",
          "type": "uint8"
        }
      ],
      "name": "execTx",
      "outputs": [],
      "stateMutability": "nonpayable",
      "type": "function"
    },
    {
      "inputs": [
        {
          "internalType": "uint8",
          "name": "_tokenType",
          "type": "uint8"
        }
      ],
      "name": "getNFTTypeInfo",
      "outputs": [
        {
          "internalType": "uint256",
          "name": "_totalSupply",
          "type": "uint256"
        },
        {
          "internalType": "uint256",
          "name": "_mintedSupply",
          "type": "uint256"
        },
        {
          "internalType": "uint256",
          "name": "_pricePerItem",
          "type": "uint256"
        }
      ],
      "stateMutability": "view",
      "type": "function"
    },
    {
      "inputs": [
        {
          "internalType": "address",
          "name": "_owner",
          "type": "address"
        }
      ],
      "name": "getNftByOwner",
      "outputs": [
        {
          "components": [
            {
              "internalType": "uint8",
              "name": "tokenType",
              "type": "uint8"
            },
            {
              "internalType": "uint256",
              "name": "tokenId",
              "type": "uint256"
            },
            {
              "internalType": "uint256",
              "name": "quantity",
              "type": "uint256"
            },
            {
              "internalType": "bool",
              "name": "isOpened",
              "type": "bool"
            },
            {
              "internalType": "address",
              "name": "owner",
              "type": "address"
            }
          ],
          "internalType": "struct InZNFTDetail.NFTDetail[]",
          "name": "",
          "type": "tuple[]"
        }
      ],
      "stateMutability": "view",
      "type": "function"
    },
    {
      "inputs": [
        {
          "internalType": "bytes32",
          "name": "role",
          "type": "bytes32"
        }
      ],
      "name": "getRoleAdmin",
      "outputs": [
        {
          "internalType": "bytes32",
          "name": "",
          "type": "bytes32"
        }
      ],
      "stateMutability": "view",
      "type": "function"
    },
    {
      "inputs": [
        {
          "internalType": "bytes32",
          "name": "role",
          "type": "bytes32"
        },
        {
          "internalType": "address",
          "name": "account",
          "type": "address"
        }
      ],
      "name": "grantRole",
      "outputs": [],
      "stateMutability": "nonpayable",
      "type": "function"
    },
    {
      "inputs": [
        {
          "internalType": "bytes32",
          "name": "role",
          "type": "bytes32"
        },
        {
          "internalType": "address",
          "name": "account",
          "type": "address"
        }
      ],
      "name": "hasRole",
      "outputs": [
        {
          "internalType": "bool",
          "name": "",
          "type": "bool"
        }
      ],
      "stateMutability": "view",
      "type": "function"
    },
    {
      "inputs": [
        {
          "internalType": "address",
          "name": "_marketOwnerAddress",
          "type": "address"
        },
        {
          "internalType": "string",
          "name": "_baseMetadataUri",
          "type": "string"
        },
        {
          "internalType": "address",
          "name": "_campaignPaymentAddress",
          "type": "address"
        },
        {
          "internalType": "bool",
          "name": "_isFixedTokenId",
          "type": "bool"
        },
        {
          "internalType": "contract IERC20",
          "name": "_coinToken",
          "type": "address"
        },
        {
          "internalType": "string",
          "name": "_symbol",
          "type": "string"
        },
        {
          "internalType": "string",
          "name": "_name",
          "type": "string"
        },
        {
          "internalType": "address",
          "name": "_adminAddress",
          "type": "address"
        },
        {
          "components": [
            {
              "internalType": "uint8",
              "name": "nftType",
              "type": "uint8"
            },
            {
              "internalType": "uint256",
              "name": "totalSupply",
              "type": "uint256"
            },
            {
              "internalType": "uint256",
              "name": "price",
              "type": "uint256"
            }
          ],
          "internalType": "struct InZNFTTypeDetail.NFTTypeDetail[]",
          "name": "_nftTypesDetail",
          "type": "tuple[]"
        },
        {
          "internalType": "uint256",
          "name": "_nftTotalSupply",
          "type": "uint256"
        }
      ],
      "name": "initialize",
      "outputs": [],
      "stateMutability": "nonpayable",
      "type": "function"
    },
    {
      "inputs": [
        {
          "internalType": "address",
          "name": "account",
          "type": "address"
        },
        {
          "internalType": "address",
          "name": "operator",
          "type": "address"
        }
      ],
      "name": "isApprovedForAll",
      "outputs": [
        {
          "internalType": "bool",
          "name": "",
          "type": "bool"
        }
      ],
      "stateMutability": "view",
      "type": "function"
    },
    {
      "inputs": [],
      "name": "maxNFTType",
      "outputs": [
        {
          "internalType": "uint8",
          "name": "",
          "type": "uint8"
        }
      ],
      "stateMutability": "view",
      "type": "function"
    },
    {
      "inputs": [
        {
          "internalType": "uint256",
          "name": "_tokenId",
          "type": "uint256"
        },
        {
          "internalType": "uint8",
          "name": "_tokenType",
          "type": "uint8"
        },
        {
          "internalType": "address",
          "name": "_to",
          "type": "address"
        }
      ],
      "name": "mint",
      "outputs": [],
      "stateMutability": "nonpayable",
      "type": "function"
    },
    {
      "inputs": [
        {
          "internalType": "address",
          "name": "_to",
          "type": "address"
        },
        {
          "internalType": "uint256",
          "name": "_tokenId",
          "type": "uint256"
        },
        {
          "internalType": "uint8",
          "name": "_tokenType",
          "type": "uint8"
        },
        {
          "internalType": "string",
          "name": "_giftCode",
          "type": "string"
        }
      ],
      "name": "mintByGiftCode",
      "outputs": [
        {
          "internalType": "uint256",
          "name": "",
          "type": "uint256"
        }
      ],
      "stateMutability": "nonpayable",
      "type": "function"
    },
    {
      "inputs": [],
      "name": "name",
      "outputs": [
        {
          "internalType": "string",
          "name": "",
          "type": "string"
        }
      ],
      "stateMutability": "view",
      "type": "function"
    },
    {
      "inputs": [],
      "name": "owner",
      "outputs": [
        {
          "internalType": "address",
          "name": "",
          "type": "address"
        }
      ],
      "stateMutability": "view",
      "type": "function"
    },
    {
      "inputs": [],
      "name": "proxiableUUID",
      "outputs": [
        {
          "internalType": "bytes32",
          "name": "",
          "type": "bytes32"
        }
      ],
      "stateMutability": "view",
      "type": "function"
    },
    {
      "inputs": [],
      "name": "renounceOwnership",
      "outputs": [],
      "stateMutability": "nonpayable",
      "type": "function"
    },
    {
      "inputs": [
        {
          "internalType": "bytes32",
          "name": "role",
          "type": "bytes32"
        },
        {
          "internalType": "address",
          "name": "account",
          "type": "address"
        }
      ],
      "name": "renounceRole",
      "outputs": [],
      "stateMutability": "nonpayable",
      "type": "function"
    },
    {
      "inputs": [
        {
          "internalType": "address",
          "name": "to",
          "type": "address"
        },
        {
          "internalType": "uint256",
          "name": "value",
          "type": "uint256"
        },
        {
          "internalType": "bytes",
          "name": "data",
          "type": "bytes"
        },
        {
          "internalType": "enum InterfaceFunction.Operation",
          "name": "operation",
          "type": "uint8"
        }
      ],
      "name": "requiredTxGas",
      "outputs": [],
      "stateMutability": "nonpayable",
      "type": "function"
    },
    {
      "inputs": [
        {
          "internalType": "bytes32",
          "name": "role",
          "type": "bytes32"
        },
        {
          "internalType": "address",
          "name": "account",
          "type": "address"
        }
      ],
      "name": "revokeRole",
      "outputs": [],
      "stateMutability": "nonpayable",
      "type": "function"
    },
    {
      "inputs": [
        {
          "internalType": "address",
          "name": "from",
          "type": "address"
        },
        {
          "internalType": "address",
          "name": "to",
          "type": "address"
        },
        {
          "internalType": "uint256[]",
          "name": "ids",
          "type": "uint256[]"
        },
        {
          "internalType": "uint256[]",
          "name": "amounts",
          "type": "uint256[]"
        },
        {
          "internalType": "bytes",
          "name": "data",
          "type": "bytes"
        }
      ],
      "name": "safeBatchTransferFrom",
      "outputs": [],
      "stateMutability": "nonpayable",
      "type": "function"
    },
    {
      "inputs": [
        {
          "internalType": "address",
          "name": "from",
          "type": "address"
        },
        {
          "internalType": "address",
          "name": "to",
          "type": "address"
        },
        {
          "internalType": "uint256",
          "name": "id",
          "type": "uint256"
        },
        {
          "internalType": "uint256",
          "name": "amount",
          "type": "uint256"
        },
        {
          "internalType": "bytes",
          "name": "data",
          "type": "bytes"
        }
      ],
      "name": "safeTransferFrom",
      "outputs": [],
      "stateMutability": "nonpayable",
      "type": "function"
    },
    {
      "inputs": [
        {
          "internalType": "address",
          "name": "operator",
          "type": "address"
        },
        {
          "internalType": "bool",
          "name": "approved",
          "type": "bool"
        }
      ],
      "name": "setApprovalForAll",
      "outputs": [],
      "stateMutability": "nonpayable",
      "type": "function"
    },
    {
      "inputs": [
        {
          "internalType": "address",
          "name": "_campaignPaymentAddress",
          "type": "address"
        }
      ],
      "name": "setCampaignPaymentAddress",
      "outputs": [],
      "stateMutability": "nonpayable",
      "type": "function"
    },
    {
      "inputs": [
        {
          "internalType": "contract IERC20",
          "name": "_coinToken",
          "type": "address"
        }
      ],
      "name": "setCoinToken",
      "outputs": [],
      "stateMutability": "nonpayable",
      "type": "function"
    },
    {
      "inputs": [
        {
          "internalType": "uint256",
          "name": "_endTimeToBuy",
          "type": "uint256"
        }
      ],
      "name": "setEndTimeToBuy",
      "outputs": [],
      "stateMutability": "nonpayable",
      "type": "function"
    },
    {
      "inputs": [
        {
          "internalType": "uint256",
          "name": "_maxAllocation",
          "type": "uint256"
        }
      ],
      "name": "setMaxAllocation",
      "outputs": [],
      "stateMutability": "nonpayable",
      "type": "function"
    },
    {
      "inputs": [
        {
          "internalType": "uint256",
          "name": "_publicStartTime",
          "type": "uint256"
        }
      ],
      "name": "setPublicStartTime",
      "outputs": [],
      "stateMutability": "nonpayable",
      "type": "function"
    },
    {
      "inputs": [
        {
          "internalType": "uint256",
          "name": "_whitelistStartTime",
          "type": "uint256"
        }
      ],
      "name": "setWhiteListStartTime",
      "outputs": [],
      "stateMutability": "nonpayable",
      "type": "function"
    },
    {
      "inputs": [
        {
          "internalType": "address[]",
          "name": "_whitelistAddresses",
          "type": "address[]"
        },
        {
          "internalType": "uint256[]",
          "name": "_buyableAmountList",
          "type": "uint256[]"
        }
      ],
      "name": "setWhitelistBuyable",
      "outputs": [],
      "stateMutability": "nonpayable",
      "type": "function"
    },
    {
      "inputs": [
        {
          "internalType": "bytes4",
          "name": "interfaceId",
          "type": "bytes4"
        }
      ],
      "name": "supportsInterface",
      "outputs": [
        {
          "internalType": "bool",
          "name": "",
          "type": "bool"
        }
      ],
      "stateMutability": "view",
      "type": "function"
    },
    {
      "inputs": [],
      "name": "symbol",
      "outputs": [
        {
          "internalType": "string",
          "name": "",
          "type": "string"
        }
      ],
      "stateMutability": "view",
      "type": "function"
    },
    {
      "inputs": [
        {
          "internalType": "uint256",
          "name": "",
          "type": "uint256"
        }
      ],
      "name": "tokenDetails",
      "outputs": [
        {
          "internalType": "uint8",
          "name": "tokenType",
          "type": "uint8"
        },
        {
          "internalType": "uint256",
          "name": "tokenId",
          "type": "uint256"
        },
        {
          "internalType": "uint256",
          "name": "quantity",
          "type": "uint256"
        },
        {
          "internalType": "bool",
          "name": "isOpened",
          "type": "bool"
        },
        {
          "internalType": "address",
          "name": "owner",
          "type": "address"
        }
      ],
      "stateMutability": "view",
      "type": "function"
    },
    {
      "inputs": [
        {
          "internalType": "uint256",
          "name": "_tokenId",
          "type": "uint256"
        }
      ],
      "name": "tokenIdIsInWhiteList",
      "outputs": [
        {
          "internalType": "bool",
          "name": "",
          "type": "bool"
        }
      ],
      "stateMutability": "view",
      "type": "function"
    },
    {
      "inputs": [
        {
          "internalType": "address",
          "name": "newOwner",
          "type": "address"
        }
      ],
      "name": "transferOwnership",
      "outputs": [],
      "stateMutability": "nonpayable",
      "type": "function"
    },
    {
      "inputs": [
        {
          "internalType": "address",
          "name": "newImplementation",
          "type": "address"
        }
      ],
      "name": "upgradeTo",
      "outputs": [],
      "stateMutability": "nonpayable",
      "type": "function"
    },
    {
      "inputs": [
        {
          "internalType": "address",
          "name": "newImplementation",
          "type": "address"
        },
        {
          "internalType": "bytes",
          "name": "data",
          "type": "bytes"
        }
      ],
      "name": "upgradeToAndCall",
      "outputs": [],
      "stateMutability": "payable",
      "type": "function"
    },
    {
      "inputs": [
        {
          "internalType": "uint256",
          "name": "",
          "type": "uint256"
        }
      ],
      "name": "uri",
      "outputs": [
        {
          "internalType": "string",
          "name": "",
          "type": "string"
        }
      ],
      "stateMutability": "view",
      "type": "function"
    },
    {
      "inputs": [
        {
          "internalType": "uint8",
          "name": "",
          "type": "uint8"
        }
      ],
      "name": "uriByType",
      "outputs": [
        {
          "internalType": "string",
          "name": "",
          "type": "string"
        }
      ],
      "stateMutability": "view",
      "type": "function"
    },
    {
      "inputs": [
        {
          "internalType": "uint256",
          "name": "_tokenId",
          "type": "uint256"
        },
        {
          "internalType": "uint8",
          "name": "_tokenType",
          "type": "uint8"
        },
        {
          "internalType": "address",
          "name": "_to",
          "type": "address"
        }
      ],
      "name": "whitelistMint",
      "outputs": [],
      "stateMutability": "nonpayable",
      "type": "function"
    },
    {
      "inputs": [],
      "name": "whitelistRoundBought",
      "outputs": [
        {
          "internalType": "uint256",
          "name": "",
          "type": "uint256"
        }
      ],
      "stateMutability": "view",
      "type": "function"
    },
    {
      "inputs": [],
      "name": "withdraw",
      "outputs": [],
      "stateMutability": "nonpayable",
      "type": "function"
    }
  ],
  "bytecode": "0x60a06040523073ffffffffffffffffffffffffffffffffffffffff1660809073ffffffffffffffffffffffffffffffffffffffff168152503480156200004457600080fd5b50608051618ee36200007d60003960008181610e6901528181610ef701528181611323015281816113b1015261171c0152618ee36000f3fe6080604052600436106102715760003560e01c80638033491c1161014f578063c2c04ae2116100c1578063e985e9c51161007a578063e985e9c514610970578063f242432a146109ad578063f2fde38b146109d6578063f4ce2032146109ff578063fc314e3114610a2a578063ffa0a02a14610a6b57610271565b8063c2c04ae214610852578063c4ca3a9c1461088f578063d3bb24ae146108b8578063d547741f146108f5578063db8cc8fa1461091e578063e2f039471461094757610271565b806395d89b411161011357806395d89b4114610744578063a217fddf1461076f578063a22cb4651461079a578063a76e0db2146107c3578063afb30f3e14610800578063c0f1c4841461082957610271565b80638033491c1461065f578063835217a5146106885780638da5cb5b146106b35780638f0b7b68146106de57806391d148541461070757610271565b806342db9ca6116101e857806352d1902d116101ac57806352d1902d146105615780635642800c1461058c57806358797cb6146105cb578063715018a6146105f657806372f123441461060d578063762141401461063657610271565b806342db9ca61461047957806349d19648146104a25780634e1273f4146104cb5780634f1ef2861461050857806351d5b0141461052457610271565b80632eb2c2d61161023a5780632eb2c2d6146103955780632ee4aa31146103be5780632f2ff15d146103e757806336568abe146104105780633659cfe6146104395780633ccfd60b1461046257610271565b8062fdd58e1461027657806301ffc9a7146102b357806306fdde03146102f05780630e89341c1461031b578063248a9ca314610358575b600080fd5b34801561028257600080fd5b5061029d60048036038101906102989190615b19565b610a94565b6040516102aa9190615b68565b60405180910390f35b3480156102bf57600080fd5b506102da60048036038101906102d59190615bdb565b610b5d565b6040516102e79190615c23565b60405180910390f35b3480156102fc57600080fd5b50610305610b6f565b6040516103129190615cce565b60405180910390f35b34801561032757600080fd5b50610342600480360381019061033d9190615cf0565b610bfe565b60405161034f9190615cce565b60405180910390f35b34801561036457600080fd5b5061037f600480360381019061037a9190615d53565b610c92565b60405161038c9190615d8f565b60405180910390f35b3480156103a157600080fd5b506103bc60048036038101906103b79190615fa7565b610cb2565b005b3480156103ca57600080fd5b506103e560048036038101906103e09190616076565b610d53565b005b3480156103f357600080fd5b5061040e600480360381019061040991906160a3565b610dc3565b005b34801561041c57600080fd5b50610437600480360381019061043291906160a3565b610de4565b005b34801561044557600080fd5b50610460600480360381019061045b9190616076565b610e67565b005b34801561046e57600080fd5b50610477610fef565b005b34801561048557600080fd5b506104a0600480360381019061049b919061610f565b61113d565b005b3480156104ae57600080fd5b506104c960048036038101906104c4919061618d565b611198565b005b3480156104d757600080fd5b506104f260048036038101906104ed919061627d565b611208565b6040516104ff91906163b3565b60405180910390f35b610522600480360381019061051d91906163d5565b611321565b005b34801561053057600080fd5b5061054b60048036038101906105469190616076565b61145d565b6040516105589190616582565b60405180910390f35b34801561056d57600080fd5b50610576611718565b6040516105839190615d8f565b60405180910390f35b34801561059857600080fd5b506105b360048036038101906105ae91906165d0565b6117d1565b6040516105c2939291906165fd565b60405180910390f35b3480156105d757600080fd5b506105e0611862565b6040516105ed9190616693565b60405180910390f35b34801561060257600080fd5b5061060b611889565b005b34801561061957600080fd5b50610634600480360381019061062f9190615cf0565b61189d565b005b34801561064257600080fd5b5061065d60048036038101906106589190615cf0565b6118d3565b005b34801561066b57600080fd5b50610686600480360381019061068191906166ae565b611909565b005b34801561069457600080fd5b5061069d6121b0565b6040516106aa9190615b68565b60405180910390f35b3480156106bf57600080fd5b506106c86121b7565b6040516106d59190616710565b60405180910390f35b3480156106ea57600080fd5b50610705600480360381019061070091906167ab565b6121e2565b005b34801561071357600080fd5b5061072e600480360381019061072991906160a3565b612286565b60405161073b9190615c23565b60405180910390f35b34801561075057600080fd5b506107596122f1565b6040516107669190615cce565b60405180910390f35b34801561077b57600080fd5b50610784612380565b6040516107919190615d8f565b60405180910390f35b3480156107a657600080fd5b506107c160048036038101906107bc9190616845565b612387565b005b3480156107cf57600080fd5b506107ea60048036038101906107e591906165d0565b61239d565b6040516107f79190615cce565b60405180910390f35b34801561080c57600080fd5b506108276004803603810190610822919061627d565b61243e565b005b34801561083557600080fd5b50610850600480360381019061084b9190616a52565b61254a565b005b34801561085e57600080fd5b5061087960048036038101906108749190616ba1565b612a69565b6040516108869190615b68565b60405180910390f35b34801561089b57600080fd5b506108b660048036038101906108b19190616c24565b6130f5565b005b3480156108c457600080fd5b506108df60048036038101906108da9190615cf0565b6131a8565b6040516108ec9190615c23565b60405180910390f35b34801561090157600080fd5b5061091c600480360381019061091791906160a3565b6131fe565b005b34801561092a57600080fd5b5061094560048036038101906109409190615cf0565b61321f565b005b34801561095357600080fd5b5061096e60048036038101906109699190615cf0565b613255565b005b34801561097c57600080fd5b5061099760048036038101906109929190616cac565b61328b565b6040516109a49190615c23565b60405180910390f35b3480156109b957600080fd5b506109d460048036038101906109cf9190616cec565b61331f565b005b3480156109e257600080fd5b506109fd60048036038101906109f89190616076565b6133c0565b005b348015610a0b57600080fd5b50610a14613443565b604051610a219190616d92565b60405180910390f35b348015610a3657600080fd5b50610a516004803603810190610a4c9190615cf0565b613457565b604051610a62959493929190616dad565b60405180910390f35b348015610a7757600080fd5b50610a926004803603810190610a8d91906166ae565b6134c8565b005b60008073ffffffffffffffffffffffffffffffffffffffff168373ffffffffffffffffffffffffffffffffffffffff1603610b04576040517f08c379a0000000000000000000000000000000000000000000000000000000008152600401610afb90616e72565b60405180910390fd5b6065600083815260200190815260200160002060008473ffffffffffffffffffffffffffffffffffffffff1673ffffffffffffffffffffffffffffffffffffffff16815260200190815260200160002054905092915050565b6000610b6882613dd0565b9050919050565b6101678054610b7d90616ec1565b80601f0160208091040260200160405190810160405280929190818152602001828054610ba990616ec1565b8015610bf65780601f10610bcb57610100808354040283529160200191610bf6565b820191906000526020600020905b815481529060010190602001808311610bd957829003601f168201915b505050505081565b606060678054610c0d90616ec1565b80601f0160208091040260200160405190810160405280929190818152602001828054610c3990616ec1565b8015610c865780601f10610c5b57610100808354040283529160200191610c86565b820191906000526020600020905b815481529060010190602001808311610c6957829003601f168201915b50505050509050919050565b600060976000838152602001908152602001600020600101549050919050565b610cba613e4a565b73ffffffffffffffffffffffffffffffffffffffff168573ffffffffffffffffffffffffffffffffffffffff161480610d005750610cff85610cfa613e4a565b61328b565b5b610d3f576040517f08c379a0000000000000000000000000000000000000000000000000000000008152600401610d3690616f64565b60405180910390fd5b610d4c8585858585613e52565b5050505050565b7fb0a2731da0d1e322a29f18fc41490da7914e8245c4e7d00155b630b2fbe50293610d7d81614176565b8161016160006101000a81548173ffffffffffffffffffffffffffffffffffffffff021916908373ffffffffffffffffffffffffffffffffffffffff1602179055505050565b610dcc82610c92565b610dd581614176565b610ddf838361418a565b505050565b610dec613e4a565b73ffffffffffffffffffffffffffffffffffffffff168173ffffffffffffffffffffffffffffffffffffffff1614610e59576040517f08c379a0000000000000000000000000000000000000000000000000000000008152600401610e5090616ff6565b60405180910390fd5b610e63828261426b565b5050565b7f000000000000000000000000000000000000000000000000000000000000000073ffffffffffffffffffffffffffffffffffffffff163073ffffffffffffffffffffffffffffffffffffffff1603610ef5576040517f08c379a0000000000000000000000000000000000000000000000000000000008152600401610eec90617088565b60405180910390fd5b7f000000000000000000000000000000000000000000000000000000000000000073ffffffffffffffffffffffffffffffffffffffff16610f3461434d565b73ffffffffffffffffffffffffffffffffffffffff1614610f8a576040517f08c379a0000000000000000000000000000000000000000000000000000000008152600401610f819061711a565b60405180910390fd5b610f93816143a4565b610fec81600067ffffffffffffffff811115610fb257610fb1615daf565b5b6040519080825280601f01601f191660200182016040528015610fe45781602001600182028036833780820191505090505b5060006143d2565b50565b6000801b610ffc81614176565b61016560019054906101000a900473ffffffffffffffffffffffffffffffffffffffff1673ffffffffffffffffffffffffffffffffffffffff1663a9059cbb3361016560019054906101000a900473ffffffffffffffffffffffffffffffffffffffff1673ffffffffffffffffffffffffffffffffffffffff166370a08231306040518263ffffffff1660e01b81526004016110989190616710565b602060405180830381865afa1580156110b5573d6000803e3d6000fd5b505050506040513d601f19601f820116820180604052508101906110d9919061714f565b6040518363ffffffff1660e01b81526004016110f692919061717c565b6020604051808303816000875af1158015611115573d6000803e3d6000fd5b505050506040513d601f19601f8201168201806040525081019061113991906171ba565b5050565b7fb0a2731da0d1e322a29f18fc41490da7914e8245c4e7d00155b630b2fbe5029361116781614176565b8161016a600085815260200190815260200160002060006101000a81548160ff021916908315150217905550505050565b7fb0a2731da0d1e322a29f18fc41490da7914e8245c4e7d00155b630b2fbe502936111c281614176565b8161016560016101000a81548173ffffffffffffffffffffffffffffffffffffffff021916908373ffffffffffffffffffffffffffffffffffffffff1602179055505050565b6060815183511461124e576040517f08c379a000000000000000000000000000000000000000000000000000000000815260040161124590617259565b60405180910390fd5b6000835167ffffffffffffffff81111561126b5761126a615daf565b5b6040519080825280602002602001820160405280156112995781602001602082028036833780820191505090505b50905060005b8451811015611316576112e68582815181106112be576112bd617279565b5b60200260200101518583815181106112d9576112d8617279565b5b6020026020010151610a94565b8282815181106112f9576112f8617279565b5b6020026020010181815250508061130f906172d7565b905061129f565b508091505092915050565b7f000000000000000000000000000000000000000000000000000000000000000073ffffffffffffffffffffffffffffffffffffffff163073ffffffffffffffffffffffffffffffffffffffff16036113af576040517f08c379a00000000000000000000000000000000000000000000000000000000081526004016113a690617088565b60405180910390fd5b7f000000000000000000000000000000000000000000000000000000000000000073ffffffffffffffffffffffffffffffffffffffff166113ee61434d565b73ffffffffffffffffffffffffffffffffffffffff1614611444576040517f08c379a000000000000000000000000000000000000000000000000000000000815260040161143b9061711a565b60405180910390fd5b61144d826143a4565b611459828260016143d2565b5050565b6060600061016d60008473ffffffffffffffffffffffffffffffffffffffff1673ffffffffffffffffffffffffffffffffffffffff1681526020019081526020016000208054905067ffffffffffffffff8111156114be576114bd615daf565b5b6040519080825280602002602001820160405280156114f757816020015b6114e4615a03565b8152602001906001900390816114dc5790505b50905060005b61016d60008573ffffffffffffffffffffffffffffffffffffffff1673ffffffffffffffffffffffffffffffffffffffff1681526020019081526020016000208054905081101561170e5760006115b08561016d60008873ffffffffffffffffffffffffffffffffffffffff1673ffffffffffffffffffffffffffffffffffffffff16815260200190815260200160002084815481106115a05761159f617279565b5b9060005260206000200154610a94565b9050600081116115c057506116fd565b610170600061016d60008873ffffffffffffffffffffffffffffffffffffffff1673ffffffffffffffffffffffffffffffffffffffff168152602001908152602001600020848154811061161757611616617279565b5b906000526020600020015481526020019081526020016000206040518060a00160405290816000820160009054906101000a900460ff1660ff1660ff16815260200160018201548152602001600282015481526020016003820160009054906101000a900460ff161515151581526020016003820160019054906101000a900473ffffffffffffffffffffffffffffffffffffffff1673ffffffffffffffffffffffffffffffffffffffff1673ffffffffffffffffffffffffffffffffffffffff16815250508383815181106116f0576116ef617279565b5b6020026020010181905250505b80611707906172d7565b90506114fd565b5080915050919050565b60007f000000000000000000000000000000000000000000000000000000000000000073ffffffffffffffffffffffffffffffffffffffff163073ffffffffffffffffffffffffffffffffffffffff16146117a8576040517f08c379a000000000000000000000000000000000000000000000000000000000815260040161179f90617391565b60405180910390fd5b7f360894a13ba1a3210667c828492db98dca3e2076cc3735a920a3ca505d382bbc60001b905090565b60008060008061016b60008660ff1660ff1681526020019081526020016000206040518060600160405290816000820160009054906101000a900460ff1660ff1660ff168152602001600182015481526020016002820154815250509050806020015193508060400151915061016c60008660ff1660ff168152602001908152602001600020549250509193909250565b61016560019054906101000a900473ffffffffffffffffffffffffffffffffffffffff1681565b611891614540565b61189b60006145be565b565b7fb0a2731da0d1e322a29f18fc41490da7914e8245c4e7d00155b630b2fbe502936118c781614176565b8161016e819055505050565b7fb0a2731da0d1e322a29f18fc41490da7914e8245c4e7d00155b630b2fbe502936118fd81614176565b81610164819055505050565b600033905061016354421015611954576040517f08c379a000000000000000000000000000000000000000000000000000000000815260040161194b906173fd565b60405180910390fd5b6101645442111561199a576040517f08c379a000000000000000000000000000000000000000000000000000000000815260040161199190617469565b60405180910390fd5b600061016e541115611a2f5761016e5461016d60008473ffffffffffffffffffffffffffffffffffffffff1673ffffffffffffffffffffffffffffffffffffffff1681526020019081526020016000208054905010611a2e576040517f08c379a0000000000000000000000000000000000000000000000000000000008152600401611a25906174d5565b60405180910390fd5b5b600061016b60008560ff1660ff1681526020019081526020016000206040518060600160405290816000820160009054906101000a900460ff1660ff1660ff1681526020016001820154815260200160028201548152505090506000816020015111611ad0576040517f08c379a0000000000000000000000000000000000000000000000000000000008152600401611ac790617541565b60405180910390fd5b600061016c60008660ff1660ff16815260200190815260200160002054905080826020015111611b35576040517f08c379a0000000000000000000000000000000000000000000000000000000008152600401611b2c906175ad565b60405180910390fd5b61016160149054906101000a900460ff16611b6757611b55610168614686565b611b6061016861469c565b9550611bb0565b611b70866146aa565b611baf576040517f08c379a0000000000000000000000000000000000000000000000000000000008152600401611ba690617619565b60405180910390fd5b5b600061017060008881526020019081526020016000206040518060a00160405290816000820160009054906101000a900460ff1660ff1660ff16815260200160018201548152602001600282015481526020016003820160009054906101000a900460ff161515151581526020016003820160019054906101000a900473ffffffffffffffffffffffffffffffffffffffff1673ffffffffffffffffffffffffffffffffffffffff1673ffffffffffffffffffffffffffffffffffffffff168152505090506000816040015114611cbc576040517f08c379a0000000000000000000000000000000000000000000000000000000008152600401611cb390617685565b60405180910390fd5b6000611ccb84604001516146d5565b905061016560019054906101000a900473ffffffffffffffffffffffffffffffffffffffff1673ffffffffffffffffffffffffffffffffffffffff166370a08231876040518263ffffffff1660e01b8152600401611d299190616710565b602060405180830381865afa158015611d46573d6000803e3d6000fd5b505050506040513d601f19601f82011682018060405250810190611d6a919061714f565b84604001511115611db0576040517f08c379a0000000000000000000000000000000000000000000000000000000008152600401611da790617717565b60405180910390fd5b61016560019054906101000a900473ffffffffffffffffffffffffffffffffffffffff1673ffffffffffffffffffffffffffffffffffffffff166323b872dd8661015f60009054906101000a900473ffffffffffffffffffffffffffffffffffffffff16846040518463ffffffff1660e01b8152600401611e3393929190617737565b6020604051808303816000875af1158015611e52573d6000803e3d6000fd5b505050506040513d601f19601f82011682018060405250810190611e7691906171ba565b506000818560400151611e89919061776e565b905061016560019054906101000a900473ffffffffffffffffffffffffffffffffffffffff1673ffffffffffffffffffffffffffffffffffffffff166323b872dd8761016160009054906101000a900473ffffffffffffffffffffffffffffffffffffffff16846040518463ffffffff1660e01b8152600401611f0e93929190617737565b6020604051808303816000875af1158015611f2d573d6000803e3d6000fd5b505050506040513d601f19601f82011682018060405250810190611f5191906171ba565b50611f6e878a60016040518060200160405280600081525061479c565b61016d60008873ffffffffffffffffffffffffffffffffffffffff1673ffffffffffffffffffffffffffffffffffffffff168152602001908152602001600020899080600181540180825580915050600190039060005260206000200160009091909190915055600184611fe291906177a2565b61016c60008a60ff1660ff168152602001908152602001600020819055508761016f60008b815260200190815260200160002060006101000a81548160ff021916908360ff16021790555060006120388a610bfe565b90508984602001818152505088846000019060ff16908160ff1681525050600184604001818152505060008960ff161184606001901515908115158152505087846080019073ffffffffffffffffffffffffffffffffffffffff16908173ffffffffffffffffffffffffffffffffffffffff16815250508361017060008c815260200190815260200160002060008201518160000160006101000a81548160ff021916908360ff160217905550602082015181600101556040820151816002015560608201518160030160006101000a81548160ff02191690831515021790555060808201518160030160016101000a81548173ffffffffffffffffffffffffffffffffffffffff021916908373ffffffffffffffffffffffffffffffffffffffff1602179055509050507f2d4e120ea0e6aacf78e29b1ab8708eddff1b877753354538447ef8063a54ef45888b8b84868860405161219c969594939291906177d6565b60405180910390a150505050505050505050565b6101735481565b600061012d60009054906101000a900473ffffffffffffffffffffffffffffffffffffffff16905090565b7fa49807205ce4d355092ef5a8a18f56e8913cf4a201fbe287825b095693c2177561220c81614176565b73__$afec012158ebc01e771e0b8521b3c90181$__6339d1efc68888888888886040518763ffffffff1660e01b815260040161224d96959493929190617911565b60006040518083038186803b15801561226557600080fd5b505af4158015612279573d6000803e3d6000fd5b5050505050505050505050565b60006097600084815260200190815260200160002060000160008373ffffffffffffffffffffffffffffffffffffffff1673ffffffffffffffffffffffffffffffffffffffff16815260200190815260200160002060009054906101000a900460ff16905092915050565b61016680546122ff90616ec1565b80601f016020809104026020016040519081016040528092919081815260200182805461232b90616ec1565b80156123785780601f1061234d57610100808354040283529160200191612378565b820191906000526020600020905b81548152906001019060200180831161235b57829003601f168201915b505050505081565b6000801b81565b612399612392613e4a565b838361494d565b5050565b61017460205280600052604060002060009150905080546123bd90616ec1565b80601f01602080910402602001604051908101604052809291908181526020018280546123e990616ec1565b80156124365780601f1061240b57610100808354040283529160200191612436565b820191906000526020600020905b81548152906001019060200180831161241957829003601f168201915b505050505081565b7fa49807205ce4d355092ef5a8a18f56e8913cf4a201fbe287825b095693c2177561246881614176565b81518351146124ac576040517f08c379a00000000000000000000000000000000000000000000000000000000081526004016124a3906179df565b60405180910390fd5b60005b8351811015612544578281815181106124cb576124ca617279565b5b602002602001015161017260008684815181106124eb576124ea617279565b5b602002602001015173ffffffffffffffffffffffffffffffffffffffff1673ffffffffffffffffffffffffffffffffffffffff16815260200190815260200160002081905550808061253c906172d7565b9150506124af565b50505050565b60008060019054906101000a900460ff1615905080801561257b5750600160008054906101000a900460ff1660ff16105b806125a8575061258a30614ab9565b1580156125a75750600160008054906101000a900460ff1660ff16145b5b6125e7576040517f08c379a00000000000000000000000000000000000000000000000000000000081526004016125de90617a71565b60405180910390fd5b60016000806101000a81548160ff021916908360ff1602179055508015612624576001600060016101000a81548160ff0219169083151502179055505b61263c60405180602001604052806000815250614adc565b612644614b37565b61264c614b88565b612655846145be565b600080600090505b84518110156126a35784818151811061267957612678617279565b5b6020026020010151602001518261269091906177a2565b91508061269c906172d7565b905061265d565b508281146126e6576040517f08c379a00000000000000000000000000000000000000000000000000000000081526004016126dd90617add565b60405180910390fd5b60005b8451811015612862576126fa615a4d565b85828151811061270d5761270c617279565b5b60200260200101516040015181604001818152505085828151811061273557612734617279565b5b6020026020010151602001518160200181815250508061016b600088858151811061276357612762617279565b5b60200260200101516000015160ff1660ff16815260200190815260200160002060008201518160000160006101000a81548160ff021916908360ff16021790555060208201518160010155604082015181600201559050507fab9ceafa6f3a63a3fa4175dc0568fb22a90f89b34b4800540adb2822f5642aed8683815181106127ef576127ee617279565b5b60200260200101516000015187848151811061280e5761280d617279565b5b60200260200101516020015188858151811061282d5761282c617279565b5b60200260200101516040015160405161284893929190617afd565b60405180910390a1508061285b906172d7565b90506126e9565b508b61015f60006101000a81548173ffffffffffffffffffffffffffffffffffffffff021916908373ffffffffffffffffffffffffffffffffffffffff1602179055508a61016090816128b59190617cd6565b508961016160006101000a81548173ffffffffffffffffffffffffffffffffffffffff021916908373ffffffffffffffffffffffffffffffffffffffff1602179055508861016160146101000a81548160ff0219169083151502179055508761016560016101000a81548173ffffffffffffffffffffffffffffffffffffffff021916908373ffffffffffffffffffffffffffffffffffffffff1602179055508661016690816129659190617cd6565b508561016790816129769190617cd6565b506129a17fa49807205ce4d355092ef5a8a18f56e8913cf4a201fbe287825b095693c2177586614bd9565b6129ae6000801b86614bd9565b6129d87fb0a2731da0d1e322a29f18fc41490da7914e8245c4e7d00155b630b2fbe5029386614bd9565b612a027f3c11d16cbaffd01df69ce1c404f6340ee057498f5f00246190ea54220576a84886614bd9565b508015612a5c5760008060016101000a81548160ff0219169083151502179055507f7f26b83ff96e1f2b6a682f133852f6798a09c465da95921460cefb38474024986001604051612a539190617de3565b60405180910390a15b5050505050505050505050565b60007fa49807205ce4d355092ef5a8a18f56e8913cf4a201fbe287825b095693c21775612a9581614176565b61016354421015612adb576040517f08c379a0000000000000000000000000000000000000000000000000000000008152600401612ad2906173fd565b60405180910390fd5b61016454421115612b21576040517f08c379a0000000000000000000000000000000000000000000000000000000008152600401612b1890617469565b60405180910390fd5b61017183604051612b329190617e3a565b908152602001604051809103902060009054906101000a900460ff1615612b8e576040517f08c379a0000000000000000000000000000000000000000000000000000000008152600401612b8590617e9d565b60405180910390fd5b600061016b60008660ff1660ff1681526020019081526020016000206040518060600160405290816000820160009054906101000a900460ff1660ff1660ff1681526020016001820154815260200160028201548152505090506000816020015111612c2f576040517f08c379a0000000000000000000000000000000000000000000000000000000008152600401612c2690617541565b60405180910390fd5b600061016c60008760ff1660ff16815260200190815260200160002054905080826020015111612c94576040517f08c379a0000000000000000000000000000000000000000000000000000000008152600401612c8b906175ad565b60405180910390fd5b61016160149054906101000a900460ff16612cc657612cb4610168614686565b612cbf61016861469c565b9650612d0f565b612ccf876146aa565b612d0e576040517f08c379a0000000000000000000000000000000000000000000000000000000008152600401612d0590617619565b60405180910390fd5b5b600061017060008981526020019081526020016000206040518060a00160405290816000820160009054906101000a900460ff1660ff1660ff16815260200160018201548152602001600282015481526020016003820160009054906101000a900460ff161515151581526020016003820160019054906101000a900473ffffffffffffffffffffffffffffffffffffffff1673ffffffffffffffffffffffffffffffffffffffff1673ffffffffffffffffffffffffffffffffffffffff168152505090506000816040015114612e1b576040517f08c379a0000000000000000000000000000000000000000000000000000000008152600401612e1290617685565b60405180910390fd5b612e37898960016040518060200160405280600081525061479c565b61016d60008a73ffffffffffffffffffffffffffffffffffffffff1673ffffffffffffffffffffffffffffffffffffffff168152602001908152602001600020889080600181540180825580915050600190039060005260206000200160009091909190915055600182612eab91906177a2565b61016c60008960ff1660ff168152602001908152602001600020819055508661016f60008a815260200190815260200160002060006101000a81548160ff021916908360ff1602179055506000612f0189610bfe565b90508882602001818152505087826000019060ff16908160ff1681525050600182604001818152505060008860ff161182606001901515908115158152505089826080019073ffffffffffffffffffffffffffffffffffffffff16908173ffffffffffffffffffffffffffffffffffffffff16815250508161017060008b815260200190815260200160002060008201518160000160006101000a81548160ff021916908360ff160217905550602082015181600101556040820151816002015560608201518160030160006101000a81548160ff02191690831515021790555060808201518160030160016101000a81548173ffffffffffffffffffffffffffffffffffffffff021916908373ffffffffffffffffffffffffffffffffffffffff16021790555090505060016101718860405161303f9190617e3a565b908152602001604051809103902060006101000a81548160ff0219169083151502179055507f9b7d14b1e22bcd1e90132d871c08a86a7d439e4349ac2bbaea472e1ed9031f338a8a8a848b60405161309b959493929190617ebd565b60405180910390a17f2d4e120ea0e6aacf78e29b1ab8708eddff1b877753354538447ef8063a54ef458a8a8a846000806040516130dd96959493929190617f59565b60405180910390a18895505050505050949350505050565b7fa49807205ce4d355092ef5a8a18f56e8913cf4a201fbe287825b095693c2177561311f81614176565b73__$afec012158ebc01e771e0b8521b3c90181$__637a17125987878787876040518663ffffffff1660e01b815260040161315e959493929190617fc1565b602060405180830381865af415801561317b573d6000803e3d6000fd5b505050506040513d601f19601f8201168201806040525081019061319f919061714f565b50505050505050565b60007fb0a2731da0d1e322a29f18fc41490da7914e8245c4e7d00155b630b2fbe502936131d481614176565b61016a600084815260200190815260200160002060009054906101000a900460ff16915050919050565b61320782610c92565b61321081614176565b61321a838361426b565b505050565b7fb0a2731da0d1e322a29f18fc41490da7914e8245c4e7d00155b630b2fbe5029361324981614176565b81610163819055505050565b7fb0a2731da0d1e322a29f18fc41490da7914e8245c4e7d00155b630b2fbe5029361327f81614176565b81610162819055505050565b6000606660008473ffffffffffffffffffffffffffffffffffffffff1673ffffffffffffffffffffffffffffffffffffffff16815260200190815260200160002060008373ffffffffffffffffffffffffffffffffffffffff1673ffffffffffffffffffffffffffffffffffffffff16815260200190815260200160002060009054906101000a900460ff16905092915050565b613327613e4a565b73ffffffffffffffffffffffffffffffffffffffff168573ffffffffffffffffffffffffffffffffffffffff16148061336d575061336c85613367613e4a565b61328b565b5b6133ac576040517f08c379a00000000000000000000000000000000000000000000000000000000081526004016133a390616f64565b60405180910390fd5b6133b98585858585614be7565b5050505050565b6133c8614540565b600073ffffffffffffffffffffffffffffffffffffffff168173ffffffffffffffffffffffffffffffffffffffff1603613437576040517f08c379a000000000000000000000000000000000000000000000000000000000815260040161342e90618081565b60405180910390fd5b613440816145be565b50565b61016560009054906101000a900460ff1681565b6101706020528060005260406000206000915090508060000160009054906101000a900460ff16908060010154908060020154908060030160009054906101000a900460ff16908060030160019054906101000a900473ffffffffffffffffffffffffffffffffffffffff16905085565b600033905061016254421015613513576040517f08c379a000000000000000000000000000000000000000000000000000000000815260040161350a90618113565b60405180910390fd5b61016454421115613559576040517f08c379a000000000000000000000000000000000000000000000000000000000815260040161355090617469565b60405180910390fd5b600061017260008473ffffffffffffffffffffffffffffffffffffffff1673ffffffffffffffffffffffffffffffffffffffff16815260200190815260200160002054116135dc576040517f08c379a00000000000000000000000000000000000000000000000000000000081526004016135d3906181a5565b60405180910390fd5b600061016b60008560ff1660ff1681526020019081526020016000206040518060600160405290816000820160009054906101000a900460ff1660ff1660ff168152602001600182015481526020016002820154815250509050600081602001511161367d576040517f08c379a000000000000000000000000000000000000000000000000000000000815260040161367490617541565b60405180910390fd5b600061016c60008660ff1660ff168152602001908152602001600020549050808260200151116136e2576040517f08c379a00000000000000000000000000000000000000000000000000000000081526004016136d9906175ad565b60405180910390fd5b61016160149054906101000a900460ff1661371457613702610168614686565b61370d61016861469c565b955061375d565b61371d866146aa565b61375c576040517f08c379a000000000000000000000000000000000000000000000000000000000815260040161375390617619565b60405180910390fd5b5b600061017060008881526020019081526020016000206040518060a00160405290816000820160009054906101000a900460ff1660ff1660ff16815260200160018201548152602001600282015481526020016003820160009054906101000a900460ff161515151581526020016003820160019054906101000a900473ffffffffffffffffffffffffffffffffffffffff1673ffffffffffffffffffffffffffffffffffffffff1673ffffffffffffffffffffffffffffffffffffffff168152505090506000816040015114613869576040517f08c379a000000000000000000000000000000000000000000000000000000000815260040161386090617685565b60405180910390fd5b600061387884604001516146d5565b905061016560019054906101000a900473ffffffffffffffffffffffffffffffffffffffff1673ffffffffffffffffffffffffffffffffffffffff166370a08231866040518263ffffffff1660e01b81526004016138d69190616710565b602060405180830381865afa1580156138f3573d6000803e3d6000fd5b505050506040513d601f19601f82011682018060405250810190613917919061714f565b8460400151111561395d576040517f08c379a000000000000000000000000000000000000000000000000000000000815260040161395490617717565b60405180910390fd5b61016560019054906101000a900473ffffffffffffffffffffffffffffffffffffffff1673ffffffffffffffffffffffffffffffffffffffff166323b872dd8661015f60009054906101000a900473ffffffffffffffffffffffffffffffffffffffff16846040518463ffffffff1660e01b81526004016139e093929190617737565b6020604051808303816000875af11580156139ff573d6000803e3d6000fd5b505050506040513d601f19601f82011682018060405250810190613a2391906171ba565b506000818560400151613a36919061776e565b905061016560019054906101000a900473ffffffffffffffffffffffffffffffffffffffff1673ffffffffffffffffffffffffffffffffffffffff166323b872dd8761016160009054906101000a900473ffffffffffffffffffffffffffffffffffffffff16846040518463ffffffff1660e01b8152600401613abb93929190617737565b6020604051808303816000875af1158015613ada573d6000803e3d6000fd5b505050506040513d601f19601f82011682018060405250810190613afe91906171ba565b50613b1b878a60016040518060200160405280600081525061479c565b61016d60008873ffffffffffffffffffffffffffffffffffffffff1673ffffffffffffffffffffffffffffffffffffffff16815260200190815260200160002089908060018154018082558091505060019003906000526020600020016000909190919091505560016101736000828254613b9691906177a2565b92505081905550600161017260008973ffffffffffffffffffffffffffffffffffffffff1673ffffffffffffffffffffffffffffffffffffffff1681526020019081526020016000206000828254613bee919061776e565b92505081905550600184613c0291906177a2565b61016c60008a60ff1660ff168152602001908152602001600020819055508761016f60008b815260200190815260200160002060006101000a81548160ff021916908360ff1602179055506000613c588a610bfe565b90508984602001818152505088846000019060ff16908160ff1681525050600184604001818152505060008960ff161184606001901515908115158152505087846080019073ffffffffffffffffffffffffffffffffffffffff16908173ffffffffffffffffffffffffffffffffffffffff16815250508361017060008c815260200190815260200160002060008201518160000160006101000a81548160ff021916908360ff160217905550602082015181600101556040820151816002015560608201518160030160006101000a81548160ff02191690831515021790555060808201518160030160016101000a81548173ffffffffffffffffffffffffffffffffffffffff021916908373ffffffffffffffffffffffffffffffffffffffff1602179055509050507f2d4e120ea0e6aacf78e29b1ab8708eddff1b877753354538447ef8063a54ef45888b8b848688604051613dbc969594939291906177d6565b60405180910390a150505050505050505050565b60007f7965db0b000000000000000000000000000000000000000000000000000000007bffffffffffffffffffffffffffffffffffffffffffffffffffffffff1916827bffffffffffffffffffffffffffffffffffffffffffffffffffffffff19161480613e435750613e4282614e85565b5b9050919050565b600033905090565b8151835114613e96576040517f08c379a0000000000000000000000000000000000000000000000000000000008152600401613e8d90618237565b60405180910390fd5b600073ffffffffffffffffffffffffffffffffffffffff168473ffffffffffffffffffffffffffffffffffffffff1603613f05576040517f08c379a0000000000000000000000000000000000000000000000000000000008152600401613efc906182c9565b60405180910390fd5b6000613f0f613e4a565b9050613f1f818787878787614f67565b60005b84518110156140d3576000858281518110613f4057613f3f617279565b5b602002602001015190506000858381518110613f5f57613f5e617279565b5b6020026020010151905060006065600084815260200190815260200160002060008b73ffffffffffffffffffffffffffffffffffffffff1673ffffffffffffffffffffffffffffffffffffffff16815260200190815260200160002054905081811015614001576040517f08c379a0000000000000000000000000000000000000000000000000000000008152600401613ff89061835b565b60405180910390fd5b8181036065600085815260200190815260200160002060008c73ffffffffffffffffffffffffffffffffffffffff1673ffffffffffffffffffffffffffffffffffffffff16815260200190815260200160002081905550816065600085815260200190815260200160002060008b73ffffffffffffffffffffffffffffffffffffffff1673ffffffffffffffffffffffffffffffffffffffff16815260200190815260200160002060008282546140b891906177a2565b92505081905550505050806140cc906172d7565b9050613f22565b508473ffffffffffffffffffffffffffffffffffffffff168673ffffffffffffffffffffffffffffffffffffffff168273ffffffffffffffffffffffffffffffffffffffff167f4a39dc06d4c0dbc64b70af90fd698a233a518aa5d07e595d983b8c0526c8f7fb878760405161414a92919061837b565b60405180910390a4614160818787878787614f6f565b61416e818787878787614f77565b505050505050565b61418781614182613e4a565b61514e565b50565b6141948282612286565b6142675760016097600084815260200190815260200160002060000160008373ffffffffffffffffffffffffffffffffffffffff1673ffffffffffffffffffffffffffffffffffffffff16815260200190815260200160002060006101000a81548160ff02191690831515021790555061420c613e4a565b73ffffffffffffffffffffffffffffffffffffffff168173ffffffffffffffffffffffffffffffffffffffff16837f2f8788117e7eff1d82e926ec794901d17c78024a50270940304540a733656f0d60405160405180910390a45b5050565b6142758282612286565b156143495760006097600084815260200190815260200160002060000160008373ffffffffffffffffffffffffffffffffffffffff1673ffffffffffffffffffffffffffffffffffffffff16815260200190815260200160002060006101000a81548160ff0219169083151502179055506142ee613e4a565b73ffffffffffffffffffffffffffffffffffffffff168173ffffffffffffffffffffffffffffffffffffffff16837ff6391f5c32d9c69d2a47ea670b442974b53935d1edc7fd64eb21e047a839171b60405160405180910390a45b5050565b600061437b7f360894a13ba1a3210667c828492db98dca3e2076cc3735a920a3ca505d382bbc60001b6151d3565b60000160009054906101000a900473ffffffffffffffffffffffffffffffffffffffff16905090565b7fa49807205ce4d355092ef5a8a18f56e8913cf4a201fbe287825b095693c217756143ce81614176565b5050565b6143fe7f4910fdfa16fed3260ed0e7147f7cc6da11a60208b5b9406d12a635614ffd914360001b6151dd565b60000160009054906101000a900460ff16156144225761441d836151e7565b61453b565b8273ffffffffffffffffffffffffffffffffffffffff166352d1902d6040518163ffffffff1660e01b8152600401602060405180830381865afa92505050801561448a57506040513d601f19601f8201168201806040525081019061448791906183c7565b60015b6144c9576040517f08c379a00000000000000000000000000000000000000000000000000000000081526004016144c090618466565b60405180910390fd5b7f360894a13ba1a3210667c828492db98dca3e2076cc3735a920a3ca505d382bbc60001b811461452e576040517f08c379a0000000000000000000000000000000000000000000000000000000008152600401614525906184f8565b60405180910390fd5b5061453a8383836152a0565b5b505050565b614548613e4a565b73ffffffffffffffffffffffffffffffffffffffff166145666121b7565b73ffffffffffffffffffffffffffffffffffffffff16146145bc576040517f08c379a00000000000000000000000000000000000000000000000000000000081526004016145b390618564565b60405180910390fd5b565b600061012d60009054906101000a900473ffffffffffffffffffffffffffffffffffffffff1690508161012d60006101000a81548173ffffffffffffffffffffffffffffffffffffffff021916908373ffffffffffffffffffffffffffffffffffffffff1602179055508173ffffffffffffffffffffffffffffffffffffffff168173ffffffffffffffffffffffffffffffffffffffff167f8be0079c531659141344cd1fd0a4f28419497f9722a3daafe3b4186f6b6457e060405160405180910390a35050565b6001816000016000828254019250508190555050565b600081600001549050919050565b600061016a600083815260200190815260200160002060009054906101000a900460ff169050919050565b60008061015f60009054906101000a900473ffffffffffffffffffffffffffffffffffffffff1673ffffffffffffffffffffffffffffffffffffffff1663a8bcb8d8306040518263ffffffff1660e01b81526004016147349190616710565b602060405180830381865afa158015614751573d6000803e3d6000fd5b505050506040513d601f19601f8201168201806040525081019061477591906185be565b61ffff169050806127108461478a919061861a565b614794919061864b565b915050919050565b600073ffffffffffffffffffffffffffffffffffffffff168473ffffffffffffffffffffffffffffffffffffffff160361480b576040517f08c379a0000000000000000000000000000000000000000000000000000000008152600401614802906186ff565b60405180910390fd5b6000614815613e4a565b90506000614822856152cc565b9050600061482f856152cc565b905061484083600089858589614f67565b846065600088815260200190815260200160002060008973ffffffffffffffffffffffffffffffffffffffff1673ffffffffffffffffffffffffffffffffffffffff16815260200190815260200160002060008282546148a091906177a2565b925050819055508673ffffffffffffffffffffffffffffffffffffffff16600073ffffffffffffffffffffffffffffffffffffffff168473ffffffffffffffffffffffffffffffffffffffff167fc3d58168c5ae7397731d063d5bbf3d657854427343f4c083240f7aacaa2d0f62898960405161491e92919061871f565b60405180910390a461493583600089858589614f6f565b61494483600089898989615346565b50505050505050565b8173ffffffffffffffffffffffffffffffffffffffff168373ffffffffffffffffffffffffffffffffffffffff16036149bb576040517f08c379a00000000000000000000000000000000000000000000000000000000081526004016149b2906187ba565b60405180910390fd5b80606660008573ffffffffffffffffffffffffffffffffffffffff1673ffffffffffffffffffffffffffffffffffffffff16815260200190815260200160002060008473ffffffffffffffffffffffffffffffffffffffff1673ffffffffffffffffffffffffffffffffffffffff16815260200190815260200160002060006101000a81548160ff0219169083151502179055508173ffffffffffffffffffffffffffffffffffffffff168373ffffffffffffffffffffffffffffffffffffffff167f17307eab39ab6107e8899845ad3d59bd9653f200f220920489ca2b5937696c3183604051614aac9190615c23565b60405180910390a3505050565b6000808273ffffffffffffffffffffffffffffffffffffffff163b119050919050565b600060019054906101000a900460ff16614b2b576040517f08c379a0000000000000000000000000000000000000000000000000000000008152600401614b229061884c565b60405180910390fd5b614b348161551d565b50565b600060019054906101000a900460ff16614b86576040517f08c379a0000000000000000000000000000000000000000000000000000000008152600401614b7d9061884c565b60405180910390fd5b565b600060019054906101000a900460ff16614bd7576040517f08c379a0000000000000000000000000000000000000000000000000000000008152600401614bce9061884c565b60405180910390fd5b565b614be3828261418a565b5050565b600073ffffffffffffffffffffffffffffffffffffffff168473ffffffffffffffffffffffffffffffffffffffff1603614c56576040517f08c379a0000000000000000000000000000000000000000000000000000000008152600401614c4d906182c9565b60405180910390fd5b6000614c60613e4a565b90506000614c6d856152cc565b90506000614c7a856152cc565b9050614c8a838989858589614f67565b60006065600088815260200190815260200160002060008a73ffffffffffffffffffffffffffffffffffffffff1673ffffffffffffffffffffffffffffffffffffffff16815260200190815260200160002054905085811015614d22576040517f08c379a0000000000000000000000000000000000000000000000000000000008152600401614d199061835b565b60405180910390fd5b8581036065600089815260200190815260200160002060008b73ffffffffffffffffffffffffffffffffffffffff1673ffffffffffffffffffffffffffffffffffffffff16815260200190815260200160002081905550856065600089815260200190815260200160002060008a73ffffffffffffffffffffffffffffffffffffffff1673ffffffffffffffffffffffffffffffffffffffff1681526020019081526020016000206000828254614dd991906177a2565b925050819055508773ffffffffffffffffffffffffffffffffffffffff168973ffffffffffffffffffffffffffffffffffffffff168573ffffffffffffffffffffffffffffffffffffffff167fc3d58168c5ae7397731d063d5bbf3d657854427343f4c083240f7aacaa2d0f628a8a604051614e5692919061871f565b60405180910390a4614e6c848a8a86868a614f6f565b614e7a848a8a8a8a8a615346565b505050505050505050565b60007fd9b67a26000000000000000000000000000000000000000000000000000000007bffffffffffffffffffffffffffffffffffffffffffffffffffffffff1916827bffffffffffffffffffffffffffffffffffffffffffffffffffffffff19161480614f5057507f0e89341c000000000000000000000000000000000000000000000000000000007bffffffffffffffffffffffffffffffffffffffffffffffffffffffff1916827bffffffffffffffffffffffffffffffffffffffffffffffffffffffff1916145b80614f605750614f5f82615578565b5b9050919050565b505050505050565b505050505050565b614f968473ffffffffffffffffffffffffffffffffffffffff16614ab9565b15615146578373ffffffffffffffffffffffffffffffffffffffff1663bc197c8187878686866040518663ffffffff1660e01b8152600401614fdc9594939291906188c1565b6020604051808303816000875af192505050801561501857506040513d601f19601f82011682018060405250810190615015919061893e565b60015b6150bd57615024618978565b806308c379a003615080575061503861899a565b806150435750615082565b806040517f08c379a00000000000000000000000000000000000000000000000000000000081526004016150779190615cce565b60405180910390fd5b505b6040517f08c379a00000000000000000000000000000000000000000000000000000000081526004016150b490618a9c565b60405180910390fd5b63bc197c8160e01b7bffffffffffffffffffffffffffffffffffffffffffffffffffffffff1916817bffffffffffffffffffffffffffffffffffffffffffffffffffffffff191614615144576040517f08c379a000000000000000000000000000000000000000000000000000000000815260040161513b90618b2e565b60405180910390fd5b505b505050505050565b6151588282612286565b6151cf57615165816155e2565b6151738360001c602061560f565b604051602001615184929190618be6565b6040516020818303038152906040526040517f08c379a00000000000000000000000000000000000000000000000000000000081526004016151c69190615cce565b60405180910390fd5b5050565b6000819050919050565b6000819050919050565b6151f081614ab9565b61522f576040517f08c379a000000000000000000000000000000000000000000000000000000000815260040161522690618c92565b60405180910390fd5b8061525c7f360894a13ba1a3210667c828492db98dca3e2076cc3735a920a3ca505d382bbc60001b6151d3565b60000160006101000a81548173ffffffffffffffffffffffffffffffffffffffff021916908373ffffffffffffffffffffffffffffffffffffffff16021790555050565b6152a98361584b565b6000825111806152b65750805b156152c7576152c5838361589a565b505b505050565b60606000600167ffffffffffffffff8111156152eb576152ea615daf565b5b6040519080825280602002602001820160405280156153195781602001602082028036833780820191505090505b509050828160008151811061533157615330617279565b5b60200260200101818152505080915050919050565b6153658473ffffffffffffffffffffffffffffffffffffffff16614ab9565b15615515578373ffffffffffffffffffffffffffffffffffffffff1663f23a6e6187878686866040518663ffffffff1660e01b81526004016153ab959493929190618cb2565b6020604051808303816000875af19250505080156153e757506040513d601f19601f820116820180604052508101906153e4919061893e565b60015b61548c576153f3618978565b806308c379a00361544f575061540761899a565b806154125750615451565b806040517f08c379a00000000000000000000000000000000000000000000000000000000081526004016154469190615cce565b60405180910390fd5b505b6040517f08c379a000000000000000000000000000000000000000000000000000000000815260040161548390618a9c565b60405180910390fd5b63f23a6e6160e01b7bffffffffffffffffffffffffffffffffffffffffffffffffffffffff1916817bffffffffffffffffffffffffffffffffffffffffffffffffffffffff191614615513576040517f08c379a000000000000000000000000000000000000000000000000000000000815260040161550a90618b2e565b60405180910390fd5b505b505050505050565b600060019054906101000a900460ff1661556c576040517f08c379a00000000000000000000000000000000000000000000000000000000081526004016155639061884c565b60405180910390fd5b6155758161597e565b50565b60007f01ffc9a7000000000000000000000000000000000000000000000000000000007bffffffffffffffffffffffffffffffffffffffffffffffffffffffff1916827bffffffffffffffffffffffffffffffffffffffffffffffffffffffff1916149050919050565b60606156088273ffffffffffffffffffffffffffffffffffffffff16601460ff1661560f565b9050919050565b606060006002836002615622919061864b565b61562c91906177a2565b67ffffffffffffffff81111561564557615644615daf565b5b6040519080825280601f01601f1916602001820160405280156156775781602001600182028036833780820191505090505b5090507f3000000000000000000000000000000000000000000000000000000000000000816000815181106156af576156ae617279565b5b60200101907effffffffffffffffffffffffffffffffffffffffffffffffffffffffffffff1916908160001a9053507f78000000000000000000000000000000000000000000000000000000000000008160018151811061571357615712617279565b5b60200101907effffffffffffffffffffffffffffffffffffffffffffffffffffffffffffff1916908160001a90535060006001846002615753919061864b565b61575d91906177a2565b90505b60018111156157fd577f3031323334353637383961626364656600000000000000000000000000000000600f86166010811061579f5761579e617279565b5b1a60f81b8282815181106157b6576157b5617279565b5b60200101907effffffffffffffffffffffffffffffffffffffffffffffffffffffffffffff1916908160001a905350600485901c9450806157f690618d0c565b9050615760565b5060008414615841576040517f08c379a000000000000000000000000000000000000000000000000000000000815260040161583890618d81565b60405180910390fd5b8091505092915050565b615854816151e7565b8073ffffffffffffffffffffffffffffffffffffffff167fbc7cd75a20ee27fd9adebab32041f755214dbc6bffa90cc0225b39da2e5c2d3b60405160405180910390a250565b60606158a583614ab9565b6158e4576040517f08c379a00000000000000000000000000000000000000000000000000000000081526004016158db90618e13565b60405180910390fd5b6000808473ffffffffffffffffffffffffffffffffffffffff168460405161590c9190618e6f565b600060405180830381855af49150503d8060008114615947576040519150601f19603f3d011682016040523d82523d6000602084013e61594c565b606091505b50915091506159748282604051806060016040528060278152602001618e8760279139615991565b9250505092915050565b806067908161598d9190617cd6565b5050565b606083156159a1578290506159ac565b6159ab83836159b3565b5b9392505050565b6000825111156159c65781518083602001fd5b806040517f08c379a00000000000000000000000000000000000000000000000000000000081526004016159fa9190615cce565b60405180910390fd5b6040518060a00160405280600060ff1681526020016000815260200160008152602001600015158152602001600073ffffffffffffffffffffffffffffffffffffffff1681525090565b6040518060600160405280600060ff16815260200160008152602001600081525090565b6000604051905090565b600080fd5b600080fd5b600073ffffffffffffffffffffffffffffffffffffffff82169050919050565b6000615ab082615a85565b9050919050565b615ac081615aa5565b8114615acb57600080fd5b50565b600081359050615add81615ab7565b92915050565b6000819050919050565b615af681615ae3565b8114615b0157600080fd5b50565b600081359050615b1381615aed565b92915050565b60008060408385031215615b3057615b2f615a7b565b5b6000615b3e85828601615ace565b9250506020615b4f85828601615b04565b9150509250929050565b615b6281615ae3565b82525050565b6000602082019050615b7d6000830184615b59565b92915050565b60007fffffffff0000000000000000000000000000000000000000000000000000000082169050919050565b615bb881615b83565b8114615bc357600080fd5b50565b600081359050615bd581615baf565b92915050565b600060208284031215615bf157615bf0615a7b565b5b6000615bff84828501615bc6565b91505092915050565b60008115159050919050565b615c1d81615c08565b82525050565b6000602082019050615c386000830184615c14565b92915050565b600081519050919050565b600082825260208201905092915050565b60005b83811015615c78578082015181840152602081019050615c5d565b60008484015250505050565b6000601f19601f8301169050919050565b6000615ca082615c3e565b615caa8185615c49565b9350615cba818560208601615c5a565b615cc381615c84565b840191505092915050565b60006020820190508181036000830152615ce88184615c95565b905092915050565b600060208284031215615d0657615d05615a7b565b5b6000615d1484828501615b04565b91505092915050565b6000819050919050565b615d3081615d1d565b8114615d3b57600080fd5b50565b600081359050615d4d81615d27565b92915050565b600060208284031215615d6957615d68615a7b565b5b6000615d7784828501615d3e565b91505092915050565b615d8981615d1d565b82525050565b6000602082019050615da46000830184615d80565b92915050565b600080fd5b7f4e487b7100000000000000000000000000000000000000000000000000000000600052604160045260246000fd5b615de782615c84565b810181811067ffffffffffffffff82111715615e0657615e05615daf565b5b80604052505050565b6000615e19615a71565b9050615e258282615dde565b919050565b600067ffffffffffffffff821115615e4557615e44615daf565b5b602082029050602081019050919050565b600080fd5b6000615e6e615e6984615e2a565b615e0f565b90508083825260208201905060208402830185811115615e9157615e90615e56565b5b835b81811015615eba5780615ea68882615b04565b845260208401935050602081019050615e93565b5050509392505050565b600082601f830112615ed957615ed8615daa565b5b8135615ee9848260208601615e5b565b91505092915050565b600080fd5b600067ffffffffffffffff821115615f1257615f11615daf565b5b615f1b82615c84565b9050602081019050919050565b82818337600083830152505050565b6000615f4a615f4584615ef7565b615e0f565b905082815260208101848484011115615f6657615f65615ef2565b5b615f71848285615f28565b509392505050565b600082601f830112615f8e57615f8d615daa565b5b8135615f9e848260208601615f37565b91505092915050565b600080600080600060a08688031215615fc357615fc2615a7b565b5b6000615fd188828901615ace565b9550506020615fe288828901615ace565b945050604086013567ffffffffffffffff81111561600357616002615a80565b5b61600f88828901615ec4565b935050606086013567ffffffffffffffff8111156160305761602f615a80565b5b61603c88828901615ec4565b925050608086013567ffffffffffffffff81111561605d5761605c615a80565b5b61606988828901615f79565b9150509295509295909350565b60006020828403121561608c5761608b615a7b565b5b600061609a84828501615ace565b91505092915050565b600080604083850312156160ba576160b9615a7b565b5b60006160c885828601615d3e565b92505060206160d985828601615ace565b9150509250929050565b6160ec81615c08565b81146160f757600080fd5b50565b600081359050616109816160e3565b92915050565b6000806040838503121561612657616125615a7b565b5b600061613485828601615b04565b9250506020616145858286016160fa565b9150509250929050565b600061615a82615aa5565b9050919050565b61616a8161614f565b811461617557600080fd5b50565b60008135905061618781616161565b92915050565b6000602082840312156161a3576161a2615a7b565b5b60006161b184828501616178565b91505092915050565b600067ffffffffffffffff8211156161d5576161d4615daf565b5b602082029050602081019050919050565b60006161f96161f4846161ba565b615e0f565b9050808382526020820190506020840283018581111561621c5761621b615e56565b5b835b8181101561624557806162318882615ace565b84526020840193505060208101905061621e565b5050509392505050565b600082601f83011261626457616263615daa565b5b81356162748482602086016161e6565b91505092915050565b6000806040838503121561629457616293615a7b565b5b600083013567ffffffffffffffff8111156162b2576162b1615a80565b5b6162be8582860161624f565b925050602083013567ffffffffffffffff8111156162df576162de615a80565b5b6162eb85828601615ec4565b9150509250929050565b600081519050919050565b600082825260208201905092915050565b6000819050602082019050919050565b61632a81615ae3565b82525050565b600061633c8383616321565b60208301905092915050565b6000602082019050919050565b6000616360826162f5565b61636a8185616300565b935061637583616311565b8060005b838110156163a657815161638d8882616330565b975061639883616348565b925050600181019050616379565b5085935050505092915050565b600060208201905081810360008301526163cd8184616355565b905092915050565b600080604083850312156163ec576163eb615a7b565b5b60006163fa85828601615ace565b925050602083013567ffffffffffffffff81111561641b5761641a615a80565b5b61642785828601615f79565b9150509250929050565b600081519050919050565b600082825260208201905092915050565b6000819050602082019050919050565b600060ff82169050919050565b6164738161645d565b82525050565b61648281615c08565b82525050565b61649181615aa5565b82525050565b60a0820160008201516164ad600085018261646a565b5060208201516164c06020850182616321565b5060408201516164d36040850182616321565b5060608201516164e66060850182616479565b5060808201516164f96080850182616488565b50505050565b600061650b8383616497565b60a08301905092915050565b6000602082019050919050565b600061652f82616431565b616539818561643c565b93506165448361644d565b8060005b8381101561657557815161655c88826164ff565b975061656783616517565b925050600181019050616548565b5085935050505092915050565b6000602082019050818103600083015261659c8184616524565b905092915050565b6165ad8161645d565b81146165b857600080fd5b50565b6000813590506165ca816165a4565b92915050565b6000602082840312156165e6576165e5615a7b565b5b60006165f4848285016165bb565b91505092915050565b60006060820190506166126000830186615b59565b61661f6020830185615b59565b61662c6040830184615b59565b949350505050565b6000819050919050565b600061665961665461664f84615a85565b616634565b615a85565b9050919050565b600061666b8261663e565b9050919050565b600061667d82616660565b9050919050565b61668d81616672565b82525050565b60006020820190506166a86000830184616684565b92915050565b6000806000606084860312156166c7576166c6615a7b565b5b60006166d586828701615b04565b93505060206166e6868287016165bb565b92505060406166f786828701615ace565b9150509250925092565b61670a81615aa5565b82525050565b60006020820190506167256000830184616701565b92915050565b600080fd5b60008083601f84011261674657616745615daa565b5b8235905067ffffffffffffffff8111156167635761676261672b565b5b60208301915083600182028301111561677f5761677e615e56565b5b9250929050565b6002811061679357600080fd5b50565b6000813590506167a581616786565b92915050565b60008060008060008060a087890312156167c8576167c7615a7b565b5b60006167d689828a01615ace565b96505060206167e789828a01615b04565b95505060406167f889828a01615b04565b945050606087013567ffffffffffffffff81111561681957616818615a80565b5b61682589828a01616730565b9350935050608061683889828a01616796565b9150509295509295509295565b6000806040838503121561685c5761685b615a7b565b5b600061686a85828601615ace565b925050602061687b858286016160fa565b9150509250929050565b600067ffffffffffffffff8211156168a05761689f615daf565b5b6168a982615c84565b9050602081019050919050565b60006168c96168c484616885565b615e0f565b9050828152602081018484840111156168e5576168e4615ef2565b5b6168f0848285615f28565b509392505050565b600082601f83011261690d5761690c615daa565b5b813561691d8482602086016168b6565b91505092915050565b600067ffffffffffffffff82111561694157616940615daf565b5b602082029050602081019050919050565b600080fd5b60006060828403121561696d5761696c616952565b5b6169776060615e0f565b90506000616987848285016165bb565b600083015250602061699b84828501615b04565b60208301525060406169af84828501615b04565b60408301525092915050565b60006169ce6169c984616926565b615e0f565b905080838252602082019050606084028301858111156169f1576169f0615e56565b5b835b81811015616a1a5780616a068882616957565b8452602084019350506060810190506169f3565b5050509392505050565b600082601f830112616a3957616a38615daa565b5b8135616a498482602086016169bb565b91505092915050565b6000806000806000806000806000806101408b8d031215616a7657616a75615a7b565b5b6000616a848d828e01615ace565b9a505060208b013567ffffffffffffffff811115616aa557616aa4615a80565b5b616ab18d828e016168f8565b9950506040616ac28d828e01615ace565b9850506060616ad38d828e016160fa565b9750506080616ae48d828e01616178565b96505060a08b013567ffffffffffffffff811115616b0557616b04615a80565b5b616b118d828e016168f8565b95505060c08b013567ffffffffffffffff811115616b3257616b31615a80565b5b616b3e8d828e016168f8565b94505060e0616b4f8d828e01615ace565b9350506101008b013567ffffffffffffffff811115616b7157616b70615a80565b5b616b7d8d828e01616a24565b925050610120616b8f8d828e01615b04565b9150509295989b9194979a5092959850565b60008060008060808587031215616bbb57616bba615a7b565b5b6000616bc987828801615ace565b9450506020616bda87828801615b04565b9350506040616beb878288016165bb565b925050606085013567ffffffffffffffff811115616c0c57616c0b615a80565b5b616c18878288016168f8565b91505092959194509250565b600080600080600060808688031215616c4057616c3f615a7b565b5b6000616c4e88828901615ace565b9550506020616c5f88828901615b04565b945050604086013567ffffffffffffffff811115616c8057616c7f615a80565b5b616c8c88828901616730565b93509350506060616c9f88828901616796565b9150509295509295909350565b60008060408385031215616cc357616cc2615a7b565b5b6000616cd185828601615ace565b9250506020616ce285828601615ace565b9150509250929050565b600080600080600060a08688031215616d0857616d07615a7b565b5b6000616d1688828901615ace565b9550506020616d2788828901615ace565b9450506040616d3888828901615b04565b9350506060616d4988828901615b04565b925050608086013567ffffffffffffffff811115616d6a57616d69615a80565b5b616d7688828901615f79565b9150509295509295909350565b616d8c8161645d565b82525050565b6000602082019050616da76000830184616d83565b92915050565b600060a082019050616dc26000830188616d83565b616dcf6020830187615b59565b616ddc6040830186615b59565b616de96060830185615c14565b616df66080830184616701565b9695505050505050565b7f455243313135353a2061646472657373207a65726f206973206e6f742061207660008201527f616c6964206f776e657200000000000000000000000000000000000000000000602082015250565b6000616e5c602a83615c49565b9150616e6782616e00565b604082019050919050565b60006020820190508181036000830152616e8b81616e4f565b9050919050565b7f4e487b7100000000000000000000000000000000000000000000000000000000600052602260045260246000fd5b60006002820490506001821680616ed957607f821691505b602082108103616eec57616eeb616e92565b5b50919050565b7f455243313135353a2063616c6c6572206973206e6f7420746f6b656e206f776e60008201527f6572206f7220617070726f766564000000000000000000000000000000000000602082015250565b6000616f4e602e83615c49565b9150616f5982616ef2565b604082019050919050565b60006020820190508181036000830152616f7d81616f41565b9050919050565b7f416363657373436f6e74726f6c3a2063616e206f6e6c792072656e6f756e636560008201527f20726f6c657320666f722073656c660000000000000000000000000000000000602082015250565b6000616fe0602f83615c49565b9150616feb82616f84565b604082019050919050565b6000602082019050818103600083015261700f81616fd3565b9050919050565b7f46756e6374696f6e206d7573742062652063616c6c6564207468726f7567682060008201527f64656c656761746563616c6c0000000000000000000000000000000000000000602082015250565b6000617072602c83615c49565b915061707d82617016565b604082019050919050565b600060208201905081810360008301526170a181617065565b9050919050565b7f46756e6374696f6e206d7573742062652063616c6c6564207468726f7567682060008201527f6163746976652070726f78790000000000000000000000000000000000000000602082015250565b6000617104602c83615c49565b915061710f826170a8565b604082019050919050565b60006020820190508181036000830152617133816170f7565b9050919050565b60008151905061714981615aed565b92915050565b60006020828403121561716557617164615a7b565b5b60006171738482850161713a565b91505092915050565b60006040820190506171916000830185616701565b61719e6020830184615b59565b9392505050565b6000815190506171b4816160e3565b92915050565b6000602082840312156171d0576171cf615a7b565b5b60006171de848285016171a5565b91505092915050565b7f455243313135353a206163636f756e747320616e6420696473206c656e67746860008201527f206d69736d617463680000000000000000000000000000000000000000000000602082015250565b6000617243602983615c49565b915061724e826171e7565b604082019050919050565b6000602082019050818103600083015261727281617236565b9050919050565b7f4e487b7100000000000000000000000000000000000000000000000000000000600052603260045260246000fd5b7f4e487b7100000000000000000000000000000000000000000000000000000000600052601160045260246000fd5b60006172e282615ae3565b91507fffffffffffffffffffffffffffffffffffffffffffffffffffffffffffffffff8203617314576173136172a8565b5b600182019050919050565b7f555550535570677261646561626c653a206d757374206e6f742062652063616c60008201527f6c6564207468726f7567682064656c656761746563616c6c0000000000000000602082015250565b600061737b603883615c49565b91506173868261731f565b604082019050919050565b600060208201905081810360008301526173aa8161736e565b9050919050565b7f49742773206e6f742074696d6520746f20627579207075626c69632073616c65600082015250565b60006173e7602083615c49565b91506173f2826173b1565b602082019050919050565b60006020820190508181036000830152617416816173da565b9050919050565b7f49742773206e6f742074696d6520746f20627579000000000000000000000000600082015250565b6000617453601483615c49565b915061745e8261741d565b602082019050919050565b6000602082019050818103600083015261748281617446565b9050919050565b7f427579206c696d69742072656163686564000000000000000000000000000000600082015250565b60006174bf601183615c49565b91506174ca82617489565b602082019050919050565b600060208201905081810360008301526174ee816174b2565b9050919050565b7f546f6b656e207479706520646f6573206e6f7420657869737400000000000000600082015250565b600061752b601983615c49565b9150617536826174f5565b602082019050919050565b6000602082019050818103600083015261755a8161751e565b9050919050565b7f546f6b656e2072756e206f757400000000000000000000000000000000000000600082015250565b6000617597600d83615c49565b91506175a282617561565b602082019050919050565b600060208201905081810360008301526175c68161758a565b9050919050565b7f546f6b656e2069642069736e277420696e2077686974656c6973740000000000600082015250565b6000617603601b83615c49565b915061760e826175cd565b602082019050919050565b60006020820190508181036000830152617632816175f6565b9050919050565b7f546f6b656e206964206973206d696e7465640000000000000000000000000000600082015250565b600061766f601283615c49565b915061767a82617639565b602082019050919050565b6000602082019050818103600083015261769e81617662565b9050919050565b7f55736572206e65656420686f6c6420656e6f75676820546f6b656e20746f206260008201527f75792074686973206e6674000000000000000000000000000000000000000000602082015250565b6000617701602b83615c49565b915061770c826176a5565b604082019050919050565b60006020820190508181036000830152617730816176f4565b9050919050565b600060608201905061774c6000830186616701565b6177596020830185616701565b6177666040830184615b59565b949350505050565b600061777982615ae3565b915061778483615ae3565b925082820390508181111561779c5761779b6172a8565b5b92915050565b60006177ad82615ae3565b91506177b883615ae3565b92508282019050808211156177d0576177cf6172a8565b5b92915050565b600060c0820190506177eb6000830189616701565b6177f86020830188615b59565b6178056040830187616d83565b81810360608301526178178186615c95565b90506178266080830185615b59565b61783360a0830184615b59565b979650505050505050565b61784781615aa5565b82525050565b61785681615ae3565b82525050565b600082825260208201905092915050565b6000617879838561785c565b9350617886838584615f28565b61788f83615c84565b840190509392505050565b7f4e487b7100000000000000000000000000000000000000000000000000000000600052602160045260246000fd5b600281106178da576178d961789a565b5b50565b60008190506178eb826178c9565b919050565b60006178fb826178dd565b9050919050565b61790b816178f0565b82525050565b600060a082019050617926600083018961783e565b617933602083018861784d565b617940604083018761784d565b818103606083015261795381858761786d565b90506179626080830184617902565b979650505050505050565b7f57686974656c69737420616e642062757961626c6520616d6f756e74206c697360008201527f74206d7573742062652073616d65206c656e6774680000000000000000000000602082015250565b60006179c9603583615c49565b91506179d48261796d565b604082019050919050565b600060208201905081810360008301526179f8816179bc565b9050919050565b7f496e697469616c697a61626c653a20636f6e747261637420697320616c72656160008201527f647920696e697469616c697a6564000000000000000000000000000000000000602082015250565b6000617a5b602e83615c49565b9150617a66826179ff565b604082019050919050565b60006020820190508181036000830152617a8a81617a4e565b9050919050565b7f546f74616c20737570706c7920646f6573206e6f74206d617463680000000000600082015250565b6000617ac7601b83615c49565b9150617ad282617a91565b602082019050919050565b60006020820190508181036000830152617af681617aba565b9050919050565b6000606082019050617b126000830186616d83565b617b1f6020830185615b59565b617b2c6040830184615b59565b949350505050565b60008190508160005260206000209050919050565b60006020601f8301049050919050565b600082821b905092915050565b600060088302617b967fffffffffffffffffffffffffffffffffffffffffffffffffffffffffffffffff82617b59565b617ba08683617b59565b95508019841693508086168417925050509392505050565b6000617bd3617bce617bc984615ae3565b616634565b615ae3565b9050919050565b6000819050919050565b617bed83617bb8565b617c01617bf982617bda565b848454617b66565b825550505050565b600090565b617c16617c09565b617c21818484617be4565b505050565b5b81811015617c4557617c3a600082617c0e565b600181019050617c27565b5050565b601f821115617c8a57617c5b81617b34565b617c6484617b49565b81016020851015617c73578190505b617c87617c7f85617b49565b830182617c26565b50505b505050565b600082821c905092915050565b6000617cad60001984600802617c8f565b1980831691505092915050565b6000617cc68383617c9c565b9150826002028217905092915050565b617cdf82615c3e565b67ffffffffffffffff811115617cf857617cf7615daf565b5b617d028254616ec1565b617d0d828285617c49565b600060209050601f831160018114617d405760008415617d2e578287015190505b617d388582617cba565b865550617da0565b601f198416617d4e86617b34565b60005b82811015617d7657848901518255600182019150602085019450602081019050617d51565b86831015617d935784890151617d8f601f891682617c9c565b8355505b6001600288020188555050505b505050505050565b6000819050919050565b6000617dcd617dc8617dc384617da8565b616634565b61645d565b9050919050565b617ddd81617db2565b82525050565b6000602082019050617df86000830184617dd4565b92915050565b600081905092915050565b6000617e1482615c3e565b617e1e8185617dfe565b9350617e2e818560208601615c5a565b80840191505092915050565b6000617e468284617e09565b915081905092915050565b7f4769667420636f646520697320616c7265616479206163746976617465640000600082015250565b6000617e87601e83615c49565b9150617e9282617e51565b602082019050919050565b60006020820190508181036000830152617eb681617e7a565b9050919050565b600060a082019050617ed26000830188616701565b617edf6020830187615b59565b617eec6040830186616d83565b8181036060830152617efe8185615c95565b90508181036080830152617f128184615c95565b90509695505050505050565b6000819050919050565b6000617f43617f3e617f3984617f1e565b616634565b615ae3565b9050919050565b617f5381617f28565b82525050565b600060c082019050617f6e6000830189616701565b617f7b6020830188615b59565b617f886040830187616d83565b8181036060830152617f9a8186615c95565b9050617fa96080830185617f4a565b617fb660a0830184617f4a565b979650505050505050565b6000608082019050617fd6600083018861783e565b617fe3602083018761784d565b8181036040830152617ff681858761786d565b90506180056060830184617902565b9695505050505050565b7f4f776e61626c653a206e6577206f776e657220697320746865207a65726f206160008201527f6464726573730000000000000000000000000000000000000000000000000000602082015250565b600061806b602683615c49565b91506180768261800f565b604082019050919050565b6000602082019050818103600083015261809a8161805e565b9050919050565b7f49742773206e6f742074696d6520746f206275792077686974656c697374207360008201527f616c650000000000000000000000000000000000000000000000000000000000602082015250565b60006180fd602383615c49565b9150618108826180a1565b604082019050919050565b6000602082019050818103600083015261812c816180f0565b9050919050565b7f55736572206e6f7420696e2077686974656c697374206f72206c696d6974207260008201527f6561636865640000000000000000000000000000000000000000000000000000602082015250565b600061818f602683615c49565b915061819a82618133565b604082019050919050565b600060208201905081810360008301526181be81618182565b9050919050565b7f455243313135353a2069647320616e6420616d6f756e7473206c656e6774682060008201527f6d69736d61746368000000000000000000000000000000000000000000000000602082015250565b6000618221602883615c49565b915061822c826181c5565b604082019050919050565b6000602082019050818103600083015261825081618214565b9050919050565b7f455243313135353a207472616e7366657220746f20746865207a65726f20616460008201527f6472657373000000000000000000000000000000000000000000000000000000602082015250565b60006182b3602583615c49565b91506182be82618257565b604082019050919050565b600060208201905081810360008301526182e2816182a6565b9050919050565b7f455243313135353a20696e73756666696369656e742062616c616e636520666f60008201527f72207472616e7366657200000000000000000000000000000000000000000000602082015250565b6000618345602a83615c49565b9150618350826182e9565b604082019050919050565b6000602082019050818103600083015261837481618338565b9050919050565b600060408201905081810360008301526183958185616355565b905081810360208301526183a98184616355565b90509392505050565b6000815190506183c181615d27565b92915050565b6000602082840312156183dd576183dc615a7b565b5b60006183eb848285016183b2565b91505092915050565b7f45524331393637557067726164653a206e657720696d706c656d656e7461746960008201527f6f6e206973206e6f742055555053000000000000000000000000000000000000602082015250565b6000618450602e83615c49565b915061845b826183f4565b604082019050919050565b6000602082019050818103600083015261847f81618443565b9050919050565b7f45524331393637557067726164653a20756e737570706f727465642070726f7860008201527f6961626c65555549440000000000000000000000000000000000000000000000602082015250565b60006184e2602983615c49565b91506184ed82618486565b604082019050919050565b60006020820190508181036000830152618511816184d5565b9050919050565b7f4f776e61626c653a2063616c6c6572206973206e6f7420746865206f776e6572600082015250565b600061854e602083615c49565b915061855982618518565b602082019050919050565b6000602082019050818103600083015261857d81618541565b9050919050565b600061ffff82169050919050565b61859b81618584565b81146185a657600080fd5b50565b6000815190506185b881618592565b92915050565b6000602082840312156185d4576185d3615a7b565b5b60006185e2848285016185a9565b91505092915050565b7f4e487b7100000000000000000000000000000000000000000000000000000000600052601260045260246000fd5b600061862582615ae3565b915061863083615ae3565b9250826186405761863f6185eb565b5b828204905092915050565b600061865682615ae3565b915061866183615ae3565b925082820261866f81615ae3565b91508282048414831517618686576186856172a8565b5b5092915050565b7f455243313135353a206d696e7420746f20746865207a65726f2061646472657360008201527f7300000000000000000000000000000000000000000000000000000000000000602082015250565b60006186e9602183615c49565b91506186f48261868d565b604082019050919050565b60006020820190508181036000830152618718816186dc565b9050919050565b60006040820190506187346000830185615b59565b6187416020830184615b59565b9392505050565b7f455243313135353a2073657474696e6720617070726f76616c2073746174757360008201527f20666f722073656c660000000000000000000000000000000000000000000000602082015250565b60006187a4602983615c49565b91506187af82618748565b604082019050919050565b600060208201905081810360008301526187d381618797565b9050919050565b7f496e697469616c697a61626c653a20636f6e7472616374206973206e6f74206960008201527f6e697469616c697a696e67000000000000000000000000000000000000000000602082015250565b6000618836602b83615c49565b9150618841826187da565b604082019050919050565b6000602082019050818103600083015261886581618829565b9050919050565b600081519050919050565b600082825260208201905092915050565b60006188938261886c565b61889d8185618877565b93506188ad818560208601615c5a565b6188b681615c84565b840191505092915050565b600060a0820190506188d66000830188616701565b6188e36020830187616701565b81810360408301526188f58186616355565b905081810360608301526189098185616355565b9050818103608083015261891d8184618888565b90509695505050505050565b60008151905061893881615baf565b92915050565b60006020828403121561895457618953615a7b565b5b600061896284828501618929565b91505092915050565b60008160e01c9050919050565b600060033d11156189975760046000803e61899460005161896b565b90505b90565b600060443d10618a27576189ac615a71565b60043d036004823e80513d602482011167ffffffffffffffff821117156189d4575050618a27565b808201805167ffffffffffffffff8111156189f25750505050618a27565b80602083010160043d038501811115618a0f575050505050618a27565b618a1e82602001850186615dde565b82955050505050505b90565b7f455243313135353a207472616e7366657220746f206e6f6e2d4552433131353560008201527f526563656976657220696d706c656d656e746572000000000000000000000000602082015250565b6000618a86603483615c49565b9150618a9182618a2a565b604082019050919050565b60006020820190508181036000830152618ab581618a79565b9050919050565b7f455243313135353a204552433131353552656365697665722072656a6563746560008201527f6420746f6b656e73000000000000000000000000000000000000000000000000602082015250565b6000618b18602883615c49565b9150618b2382618abc565b604082019050919050565b60006020820190508181036000830152618b4781618b0b565b9050919050565b7f416363657373436f6e74726f6c3a206163636f756e7420000000000000000000600082015250565b6000618b84601783617dfe565b9150618b8f82618b4e565b601782019050919050565b7f206973206d697373696e6720726f6c6520000000000000000000000000000000600082015250565b6000618bd0601183617dfe565b9150618bdb82618b9a565b601182019050919050565b6000618bf182618b77565b9150618bfd8285617e09565b9150618c0882618bc3565b9150618c148284617e09565b91508190509392505050565b7f455243313936373a206e657720696d706c656d656e746174696f6e206973206e60008201527f6f74206120636f6e747261637400000000000000000000000000000000000000602082015250565b6000618c7c602d83615c49565b9150618c8782618c20565b604082019050919050565b60006020820190508181036000830152618cab81618c6f565b9050919050565b600060a082019050618cc76000830188616701565b618cd46020830187616701565b618ce16040830186615b59565b618cee6060830185615b59565b8181036080830152618d008184618888565b90509695505050505050565b6000618d1782615ae3565b915060008203618d2a57618d296172a8565b5b600182039050919050565b7f537472696e67733a20686578206c656e67746820696e73756666696369656e74600082015250565b6000618d6b602083615c49565b9150618d7682618d35565b602082019050919050565b60006020820190508181036000830152618d9a81618d5e565b9050919050565b7f416464726573733a2064656c65676174652063616c6c20746f206e6f6e2d636f60008201527f6e74726163740000000000000000000000000000000000000000000000000000602082015250565b6000618dfd602683615c49565b9150618e0882618da1565b604082019050919050565b60006020820190508181036000830152618e2c81618df0565b9050919050565b600081905092915050565b6000618e498261886c565b618e538185618e33565b9350618e63818560208601615c5a565b80840191505092915050565b6000618e7b8284618e3e565b91508190509291505056fe416464726573733a206c6f772d6c6576656c2064656c65676174652063616c6c206661696c6564a2646970667358221220808c350da006b8f538b6ae70e6d7263dc3b7bfefe7660952b52bc4c752adc20b64736f6c63430008120033",
  "linkReferences": {
    "contracts/minting/utils/InterfaceFunction.sol": {
      "InterfaceFunction": [
        {
          "length": 20,
          "start": 8843
        },
        {
          "length": 20,
          "start": 12702
        }
      ]
    }
  },
  "deployedLinkReferences": {
    "contracts/minting/utils/InterfaceFunction.sol": {
      "InterfaceFunction": [
        {
          "length": 20,
          "start": 8718
        },
        {
          "length": 20,
          "start": 12577
        }
      ]
    }
  }
}