{
  "_format": "hh-sol-artifact-1",
  "contractName": "InZCampaignFactory",
  "sourceName": "contracts/minting/InZCampaignFactory.sol",
  "abi": [
    {
      "inputs": [
        {
          "internalType": "contract IConfiguration",
          "name": "_nftConfiguration",
          "type": "address"
        }
      ],
      "stateMutability": "nonpayable",
      "type": "constructor"
    },
    {
      "anonymous": false,
      "inputs": [
        {
          "indexed": false,
          "internalType": "address",
          "name": "newBoxAddress",
          "type": "address"
        },
        {
          "indexed": false,
          "internalType": "string",
          "name": "uri",
          "type": "string"
        },
        {
          "indexed": false,
          "internalType": "address",
          "name": "payToken",
          "type": "address"
        },
        {
          "indexed": false,
          "internalType": "string",
          "name": "name",
          "type": "string"
        },
        {
          "indexed": false,
          "internalType": "string",
          "name": "symbol",
          "type": "string"
        },
        {
          "indexed": false,
          "internalType": "uint256",
          "name": "startTime",
          "type": "uint256"
        },
        {
          "indexed": false,
          "internalType": "uint256",
          "name": "endTime",
          "type": "uint256"
        },
        {
          "indexed": false,
          "internalType": "bool",
          "name": "isAutoIncreaseId",
          "type": "bool"
        },
        {
          "indexed": false,
          "internalType": "uint256",
          "name": "totalSupply",
          "type": "uint256"
        },
        {
          "indexed": false,
          "internalType": "uint256",
          "name": "price",
          "type": "uint256"
        }
      ],
      "name": "NewBox",
      "type": "event"
    },
    {
      "anonymous": false,
      "inputs": [
        {
          "indexed": false,
          "internalType": "uint8",
          "name": "startdardId",
          "type": "uint8"
        },
        {
          "indexed": false,
          "internalType": "address",
          "name": "campaignAddress",
          "type": "address"
        },
        {
          "indexed": false,
          "internalType": "address",
          "name": "campaignPaymentAddress",
          "type": "address"
        },
        {
          "components": [
            {
              "internalType": "uint8",
              "name": "nftType",
              "type": "uint8"
            },
            {
              "internalType": "uint256",
              "name": "totalSupply",
              "type": "uint256"
            },
            {
              "internalType": "uint256",
              "name": "price",
              "type": "uint256"
            }
          ],
          "indexed": false,
          "internalType": "struct InZNFTTypeDetail.NFTTypeDetail[]",
          "name": "nftTypesDetail",
          "type": "tuple[]"
        },
        {
          "indexed": false,
          "internalType": "contract IERC20",
          "name": "coinToken",
          "type": "address"
        },
        {
          "indexed": false,
          "internalType": "string",
          "name": "symbol",
          "type": "string"
        },
        {
          "indexed": false,
          "internalType": "string",
          "name": "name",
          "type": "string"
        },
        {
          "indexed": false,
          "internalType": "address",
          "name": "adminAddress",
          "type": "address"
        }
      ],
      "name": "NewNFT",
      "type": "event"
    },
    {
      "anonymous": false,
      "inputs": [
        {
          "indexed": true,
          "internalType": "bytes32",
          "name": "role",
          "type": "bytes32"
        },
        {
          "indexed": true,
          "internalType": "bytes32",
          "name": "previousAdminRole",
          "type": "bytes32"
        },
        {
          "indexed": true,
          "internalType": "bytes32",
          "name": "newAdminRole",
          "type": "bytes32"
        }
      ],
      "name": "RoleAdminChanged",
      "type": "event"
    },
    {
      "anonymous": false,
      "inputs": [
        {
          "indexed": true,
          "internalType": "bytes32",
          "name": "role",
          "type": "bytes32"
        },
        {
          "indexed": true,
          "internalType": "address",
          "name": "account",
          "type": "address"
        },
        {
          "indexed": true,
          "internalType": "address",
          "name": "sender",
          "type": "address"
        }
      ],
      "name": "RoleGranted",
      "type": "event"
    },
    {
      "anonymous": false,
      "inputs": [
        {
          "indexed": true,
          "internalType": "bytes32",
          "name": "role",
          "type": "bytes32"
        },
        {
          "indexed": true,
          "internalType": "address",
          "name": "account",
          "type": "address"
        },
        {
          "indexed": true,
          "internalType": "address",
          "name": "sender",
          "type": "address"
        }
      ],
      "name": "RoleRevoked",
      "type": "event"
    },
    {
      "anonymous": false,
      "inputs": [
        {
          "indexed": false,
          "internalType": "address",
          "name": "newConfiguration",
          "type": "address"
        }
      ],
      "name": "SetConfiguration",
      "type": "event"
    },
    {
      "inputs": [],
      "name": "ADMIN_ROLE",
      "outputs": [
        {
          "internalType": "bytes32",
          "name": "",
          "type": "bytes32"
        }
      ],
      "stateMutability": "view",
      "type": "function"
    },
    {
      "inputs": [],
      "name": "DEFAULT_ADMIN_ROLE",
      "outputs": [
        {
          "internalType": "bytes32",
          "name": "",
          "type": "bytes32"
        }
      ],
      "stateMutability": "view",
      "type": "function"
    },
    {
      "inputs": [],
      "name": "boxImplementationAddress",
      "outputs": [
        {
          "internalType": "address",
          "name": "",
          "type": "address"
        }
      ],
      "stateMutability": "view",
      "type": "function"
    },
    {
      "inputs": [
        {
          "internalType": "address",
          "name": "_collectionAddress",
          "type": "address"
        },
        {
          "internalType": "uint8",
          "name": "_nftType",
          "type": "uint8"
        },
        {
          "internalType": "uint256",
          "name": "_price",
          "type": "uint256"
        },
        {
          "internalType": "uint256",
          "name": "_totalSupply",
          "type": "uint256"
        },
        {
          "internalType": "string",
          "name": "_baseMetadataUri",
          "type": "string"
        },
        {
          "internalType": "address",
          "name": "_payToken",
          "type": "address"
        }
      ],
      "name": "configCollection",
      "outputs": [],
      "stateMutability": "nonpayable",
      "type": "function"
    },
    {
      "inputs": [
        {
          "internalType": "address",
          "name": "_collectionAddress",
          "type": "address"
        },
        {
          "internalType": "string",
          "name": "_baseMetadataUri",
          "type": "string"
        }
      ],
      "name": "configNftCollectionURI",
      "outputs": [],
      "stateMutability": "nonpayable",
      "type": "function"
    },
    {
      "inputs": [
        {
          "internalType": "string",
          "name": "_boxUri",
          "type": "string"
        },
        {
          "internalType": "contract IERC20",
          "name": "_payToken",
          "type": "address"
        },
        {
          "internalType": "string",
          "name": "_name",
          "type": "string"
        },
        {
          "internalType": "string",
          "name": "_symbol",
          "type": "string"
        },
        {
          "internalType": "uint256",
          "name": "_startTime",
          "type": "uint256"
        },
        {
          "internalType": "uint256",
          "name": "_endTime",
          "type": "uint256"
        },
        {
          "internalType": "bool",
          "name": "_isAutoIncreaseId",
          "type": "bool"
        },
        {
          "internalType": "uint256",
          "name": "_totalSupply",
          "type": "uint256"
        },
        {
          "internalType": "uint256",
          "name": "_price",
          "type": "uint256"
        }
      ],
      "name": "createBox",
      "outputs": [],
      "stateMutability": "nonpayable",
      "type": "function"
    },
    {
      "inputs": [
        {
          "internalType": "uint8",
          "name": "_standardId",
          "type": "uint8"
        },
        {
          "internalType": "address",
          "name": "_campaignPaymentAddress",
          "type": "address"
        },
        {
          "internalType": "string",
          "name": "_baseMetadataUri",
          "type": "string"
        },
        {
          "internalType": "contract IERC20",
          "name": "_coinToken",
          "type": "address"
        },
        {
          "internalType": "string",
          "name": "_symbol",
          "type": "string"
        },
        {
          "internalType": "string",
          "name": "_name",
          "type": "string"
        },
        {
          "components": [
            {
              "internalType": "uint8",
              "name": "nftType",
              "type": "uint8"
            },
            {
              "internalType": "uint256",
              "name": "totalSupply",
              "type": "uint256"
            },
            {
              "internalType": "uint256",
              "name": "price",
              "type": "uint256"
            }
          ],
          "internalType": "struct InZNFTTypeDetail.NFTTypeDetail[]",
          "name": "_nftTypesDetail",
          "type": "tuple[]"
        }
      ],
      "name": "createCampaign",
      "outputs": [],
      "stateMutability": "nonpayable",
      "type": "function"
    },
    {
      "inputs": [],
      "name": "dappCreatorAddress",
      "outputs": [
        {
          "internalType": "address",
          "name": "",
          "type": "address"
        }
      ],
      "stateMutability": "view",
      "type": "function"
    },
    {
      "inputs": [],
      "name": "getAllBoxCampaign",
      "outputs": [
        {
          "internalType": "address[]",
          "name": "",
          "type": "address[]"
        }
      ],
      "stateMutability": "view",
      "type": "function"
    },
    {
      "inputs": [],
      "name": "getAllNFTCampaign",
      "outputs": [
        {
          "internalType": "address[]",
          "name": "",
          "type": "address[]"
        }
      ],
      "stateMutability": "view",
      "type": "function"
    },
    {
      "inputs": [
        {
          "internalType": "uint256",
          "name": "index",
          "type": "uint256"
        }
      ],
      "name": "getCollectionAddress",
      "outputs": [
        {
          "internalType": "address",
          "name": "",
          "type": "address"
        }
      ],
      "stateMutability": "view",
      "type": "function"
    },
    {
      "inputs": [],
      "name": "getCurrentConfiguration",
      "outputs": [
        {
          "internalType": "address",
          "name": "",
          "type": "address"
        }
      ],
      "stateMutability": "view",
      "type": "function"
    },
    {
      "inputs": [],
      "name": "getCurrentDappCreatorAddress",
      "outputs": [
        {
          "internalType": "address",
          "name": "",
          "type": "address"
        }
      ],
      "stateMutability": "view",
      "type": "function"
    },
    {
      "inputs": [
        {
          "internalType": "uint8",
          "name": "_standardId",
          "type": "uint8"
        }
      ],
      "name": "getNFTCampaignsByStandardId",
      "outputs": [
        {
          "internalType": "address[]",
          "name": "",
          "type": "address[]"
        }
      ],
      "stateMutability": "view",
      "type": "function"
    },
    {
      "inputs": [
        {
          "internalType": "bytes32",
          "name": "role",
          "type": "bytes32"
        }
      ],
      "name": "getRoleAdmin",
      "outputs": [
        {
          "internalType": "bytes32",
          "name": "",
          "type": "bytes32"
        }
      ],
      "stateMutability": "view",
      "type": "function"
    },
    {
      "inputs": [
        {
          "internalType": "address",
          "name": "_campaignAddress",
          "type": "address"
        }
      ],
      "name": "getStandardIdByCampaign",
      "outputs": [
        {
          "internalType": "uint8",
          "name": "",
          "type": "uint8"
        }
      ],
      "stateMutability": "view",
      "type": "function"
    },
    {
      "inputs": [
        {
          "internalType": "bytes32",
          "name": "role",
          "type": "bytes32"
        },
        {
          "internalType": "address",
          "name": "account",
          "type": "address"
        }
      ],
      "name": "grantRole",
      "outputs": [],
      "stateMutability": "nonpayable",
      "type": "function"
    },
    {
      "inputs": [
        {
          "internalType": "bytes32",
          "name": "role",
          "type": "bytes32"
        },
        {
          "internalType": "address",
          "name": "account",
          "type": "address"
        }
      ],
      "name": "hasRole",
      "outputs": [
        {
          "internalType": "bool",
          "name": "",
          "type": "bool"
        }
      ],
      "stateMutability": "view",
      "type": "function"
    },
    {
      "inputs": [
        {
          "internalType": "uint256",
          "name": "",
          "type": "uint256"
        }
      ],
      "name": "inZBoxCampaignsAddress",
      "outputs": [
        {
          "internalType": "address",
          "name": "",
          "type": "address"
        }
      ],
      "stateMutability": "view",
      "type": "function"
    },
    {
      "inputs": [
        {
          "internalType": "uint256",
          "name": "",
          "type": "uint256"
        }
      ],
      "name": "inZNftCampaignsAddress",
      "outputs": [
        {
          "internalType": "address",
          "name": "",
          "type": "address"
        }
      ],
      "stateMutability": "view",
      "type": "function"
    },
    {
      "inputs": [
        {
          "internalType": "address",
          "name": "_nftCollection",
          "type": "address"
        }
      ],
      "name": "isValidNftCollection",
      "outputs": [
        {
          "internalType": "bool",
          "name": "",
          "type": "bool"
        }
      ],
      "stateMutability": "view",
      "type": "function"
    },
    {
      "inputs": [],
      "name": "marketAddress",
      "outputs": [
        {
          "internalType": "address",
          "name": "",
          "type": "address"
        }
      ],
      "stateMutability": "view",
      "type": "function"
    },
    {
      "inputs": [],
      "name": "nftConfiguration",
      "outputs": [
        {
          "internalType": "contract IConfiguration",
          "name": "",
          "type": "address"
        }
      ],
      "stateMutability": "view",
      "type": "function"
    },
    {
      "inputs": [],
      "name": "nftImplementationAddressERC1155",
      "outputs": [
        {
          "internalType": "address",
          "name": "",
          "type": "address"
        }
      ],
      "stateMutability": "view",
      "type": "function"
    },
    {
      "inputs": [],
      "name": "nftImplementationAddressERC721",
      "outputs": [
        {
          "internalType": "address",
          "name": "",
          "type": "address"
        }
      ],
      "stateMutability": "view",
      "type": "function"
    },
    {
      "inputs": [
        {
          "internalType": "bytes32",
          "name": "role",
          "type": "bytes32"
        },
        {
          "internalType": "address",
          "name": "account",
          "type": "address"
        }
      ],
      "name": "renounceRole",
      "outputs": [],
      "stateMutability": "nonpayable",
      "type": "function"
    },
    {
      "inputs": [
        {
          "internalType": "bytes32",
          "name": "role",
          "type": "bytes32"
        },
        {
          "internalType": "address",
          "name": "account",
          "type": "address"
        }
      ],
      "name": "revokeRole",
      "outputs": [],
      "stateMutability": "nonpayable",
      "type": "function"
    },
    {
      "inputs": [
        {
          "internalType": "contract IConfiguration",
          "name": "_nftConfiguration",
          "type": "address"
        }
      ],
      "name": "setConfiguration",
      "outputs": [],
      "stateMutability": "nonpayable",
      "type": "function"
    },
    {
      "inputs": [
        {
          "internalType": "bytes4",
          "name": "interfaceId",
          "type": "bytes4"
        }
      ],
      "name": "supportsInterface",
      "outputs": [
        {
          "internalType": "bool",
          "name": "",
          "type": "bool"
        }
      ],
      "stateMutability": "view",
      "type": "function"
    },
    {
      "inputs": [
        {
          "internalType": "address",
          "name": "_nftFactory",
          "type": "address"
        },
        {
          "internalType": "address",
          "name": "_dappCreator",
          "type": "address"
        },
        {
          "internalType": "address",
          "name": "_treasury",
          "type": "address"
        }
      ],
      "name": "updateNftConfigContract",
      "outputs": [],
      "stateMutability": "nonpayable",
      "type": "function"
    }
  ],
  "bytecode": "0x60806040523480156200001157600080fd5b506040516201b5103803806201b51083398181016040528101906200003791906200042b565b80600c60006101000a81548173ffffffffffffffffffffffffffffffffffffffff021916908373ffffffffffffffffffffffffffffffffffffffff160217905550604051620000869062000383565b604051809103906000f080158015620000a3573d6000803e3d6000fd5b50600460006101000a81548173ffffffffffffffffffffffffffffffffffffffff021916908373ffffffffffffffffffffffffffffffffffffffff160217905550604051620000f29062000391565b604051809103906000f0801580156200010f573d6000803e3d6000fd5b50600560006101000a81548173ffffffffffffffffffffffffffffffffffffffff021916908373ffffffffffffffffffffffffffffffffffffffff1602179055506040516200015e906200039f565b604051809103906000f0801580156200017b573d6000803e3d6000fd5b50600a60006101000a81548173ffffffffffffffffffffffffffffffffffffffff021916908373ffffffffffffffffffffffffffffffffffffffff160217905550620001ee7fa49807205ce4d355092ef5a8a18f56e8913cf4a201fbe287825b095693c21775336200020a60201b60201c565b620002036000801b336200020a60201b60201c565b506200045d565b6200021c82826200022060201b60201c565b5050565b6200023282826200031160201b60201c565b6200030d57600160008084815260200190815260200160002060000160008373ffffffffffffffffffffffffffffffffffffffff1673ffffffffffffffffffffffffffffffffffffffff16815260200190815260200160002060006101000a81548160ff021916908315150217905550620002b26200037b60201b60201c565b73ffffffffffffffffffffffffffffffffffffffff168173ffffffffffffffffffffffffffffffffffffffff16837f2f8788117e7eff1d82e926ec794901d17c78024a50270940304540a733656f0d60405160405180910390a45b5050565b600080600084815260200190815260200160002060000160008373ffffffffffffffffffffffffffffffffffffffff1673ffffffffffffffffffffffffffffffffffffffff16815260200190815260200160002060009054906101000a900460ff16905092915050565b600033905090565b61884680620039ed83390190565b618f60806200c23383390190565b61637d806201519383390190565b600080fd5b600073ffffffffffffffffffffffffffffffffffffffff82169050919050565b6000620003df82620003b2565b9050919050565b6000620003f382620003d2565b9050919050565b6200040581620003e6565b81146200041157600080fd5b50565b6000815190506200042581620003fa565b92915050565b600060208284031215620004445762000443620003ad565b5b6000620004548482850162000414565b91505092915050565b613580806200046d6000396000f3fe608060405234801561001057600080fd5b50600436106101da5760003560e01c806375b238fc11610104578063a54cd2f6116100a2578063c49bf93211610071578063c49bf93214610581578063d547741f1461059d578063e4ae24a8146105b9578063f557c560146105d7576101da565b8063a54cd2f6146104e5578063ac4807ff14610503578063aedc2ddc14610521578063bbb2415614610551576101da565b80639ee984ba116100de5780639ee984ba1461046d578063a217fddf1461048b578063a2597109146104a9578063a3b7ebff146104c7576101da565b806375b238fc1461040157806391d148541461041f578063956236411461044f576101da565b80634587a6101161017c57806361b6cc3c1161014b57806361b6cc3c1461037b578063627f09c3146103ab57806371efede9146103c757806374f55d54146103e5576101da565b80634587a610146102f35780634d0bfcb31461031157806352afe4a11461032f5780635e96c7101461035f576101da565b806325c2bbfb116101b857806325c2bbfb1461026f5780632f2ff15d1461028b578063333671a4146102a757806336568abe146102d7576101da565b806301ffc9a7146101df578063085ba9a91461020f578063248a9ca31461023f575b600080fd5b6101f960048036038101906101f49190611f6f565b6105f3565b6040516102069190611fb7565b60405180910390f35b61022960048036038101906102249190612008565b610605565b6040516102369190612076565b60405180910390f35b610259600480360381019061025491906120c7565b610644565b6040516102669190612103565b60405180910390f35b610289600480360381019061028491906122ce565b610663565b005b6102a560048036038101906102a09190612418565b6107f0565b005b6102c160048036038101906102bc9190612008565b610811565b6040516102ce9190612076565b60405180910390f35b6102f160048036038101906102ec9190612418565b61082e565b005b6102fb6108b1565b60405161030891906124b7565b60405180910390f35b6103196108d7565b6040516103269190612590565b60405180910390f35b610349600480360381019061034491906125b2565b610990565b6040516103569190611fb7565b60405180910390f35b61037960048036038101906103749190612749565b6109ad565b005b61039560048036038101906103909190612008565b610f69565b6040516103a29190612076565b60405180910390f35b6103c560048036038101906103c09190612899565b610fa8565b005b6103cf6110bd565b6040516103dc9190612076565b60405180910390f35b6103ff60048036038101906103fa91906128c6565b611155565b005b610409611216565b6040516104169190612103565b60405180910390f35b61043960048036038101906104349190612418565b61123a565b6040516104469190611fb7565b60405180910390f35b6104576112a4565b6040516104649190612076565b60405180910390f35b6104756112ca565b6040516104829190612076565b60405180910390f35b6104936112f4565b6040516104a09190612103565b60405180910390f35b6104b16112fb565b6040516104be9190612076565b60405180910390f35b6104cf611321565b6040516104dc9190612590565b60405180910390f35b6104ed6113da565b6040516104fa9190612076565b60405180910390f35b61050b611400565b6040516105189190612076565b60405180910390f35b61053b600480360381019061053691906125b2565b611426565b6040516105489190612928565b60405180910390f35b61056b60048036038101906105669190612943565b6114a7565b6040516105789190612590565b60405180910390f35b61059b60048036038101906105969190612970565b611579565b005b6105b760048036038101906105b29190612418565b6115bb565b005b6105c16115dc565b6040516105ce9190612076565b60405180910390f35b6105f160048036038101906105ec9190612a19565b611602565b005b60006105fe826116c0565b9050919050565b6002818154811061061557600080fd5b906000526020600020016000915054906101000a900473ffffffffffffffffffffffffffffffffffffffff1681565b6000806000838152602001908152602001600020600101549050919050565b7fa49807205ce4d355092ef5a8a18f56e8913cf4a201fbe287825b095693c2177561068d8161173a565b60006106ba600a60009054906101000a900473ffffffffffffffffffffffffffffffffffffffff1661174e565b90508073ffffffffffffffffffffffffffffffffffffffff1663e4a4a2a38c8c8c8c8c8c8c8c8c6040518a63ffffffff1660e01b815260040161070599989796959493929190612b24565b600060405180830381600087803b15801561071f57600080fd5b505af1158015610733573d6000803e3d6000fd5b505050506002819080600181540180825580915050600190039060005260206000200160009091909190916101000a81548173ffffffffffffffffffffffffffffffffffffffff021916908373ffffffffffffffffffffffffffffffffffffffff1602179055507f0efb7d30e57f477ddbd1e449787aa826cc83f435bd41b49a3370ed9caf78d2e5818c8c8c8c8c8c8c8c8c6040516107db9a99989796959493929190612bc6565b60405180910390a15050505050505050505050565b6107f982610644565b6108028161173a565b61080c8383611808565b505050565b60006108278260076118e890919063ffffffff16565b9050919050565b610836611902565b73ffffffffffffffffffffffffffffffffffffffff168173ffffffffffffffffffffffffffffffffffffffff16146108a3576040517f08c379a000000000000000000000000000000000000000000000000000000000815260040161089a90612ce9565b60405180910390fd5b6108ad828261190a565b5050565b600c60009054906101000a900473ffffffffffffffffffffffffffffffffffffffff1681565b60607fa49807205ce4d355092ef5a8a18f56e8913cf4a201fbe287825b095693c217756109038161173a565b600280548060200260200160405190810160405280929190818152602001828054801561098557602002820191906000526020600020905b8160009054906101000a900473ffffffffffffffffffffffffffffffffffffffff1673ffffffffffffffffffffffffffffffffffffffff168152602001906001019080831161093b575b505050505091505090565b60006109a68260076119eb90919063ffffffff16565b9050919050565b7fa49807205ce4d355092ef5a8a18f56e8913cf4a201fbe287825b095693c217756109d78161173a565b600160ff168860ff1614806109f25750600260ff168860ff16145b610a31576040517f08c379a0000000000000000000000000000000000000000000000000000000008152600401610a2890612d55565b60405180910390fd5b6000600160ff168960ff1603610d0b57610a6c600460009054906101000a900473ffffffffffffffffffffffffffffffffffffffff1661174e565b90508073ffffffffffffffffffffffffffffffffffffffff1663538baeab600360009054906101000a900473ffffffffffffffffffffffffffffffffffffffff168a89898933306040518863ffffffff1660e01b8152600401610ad59796959493929190612d75565b600060405180830381600087803b158015610aef57600080fd5b505af1158015610b03573d6000803e3d6000fd5b5050505060066000600160ff1660ff168152602001908152602001600020819080600181540180825580915050600190039060005260206000200160009091909190916101000a81548173ffffffffffffffffffffffffffffffffffffffff021916908373ffffffffffffffffffffffffffffffffffffffff1602179055506001600960008373ffffffffffffffffffffffffffffffffffffffff1673ffffffffffffffffffffffffffffffffffffffff16815260200190815260200160002060006101000a81548160ff021916908360ff160217905550600c60009054906101000a900473ffffffffffffffffffffffffffffffffffffffff1673ffffffffffffffffffffffffffffffffffffffff1663d8708898826040518263ffffffff1660e01b8152600401610c369190612076565b600060405180830381600087803b158015610c5057600080fd5b505af1158015610c64573d6000803e3d6000fd5b50505050610c7c816007611a1b90919063ffffffff16565b5060005b8351811015610d0557610cf282858381518110610ca057610c9f612df2565b5b602002602001015160000151868481518110610cbf57610cbe612df2565b5b602002602001015160400151878581518110610cde57610cdd612df2565b5b6020026020010151602001518c338d611a4b565b8080610cfd90612e50565b915050610c80565b50610eb6565b6000806103e89050610d3e600560009054906101000a900473ffffffffffffffffffffffffffffffffffffffff1661174e565b92508273ffffffffffffffffffffffffffffffffffffffff1663c0f1c484600360009054906101000a900473ffffffffffffffffffffffffffffffffffffffff168b8d868d8d8d338e8b6040518b63ffffffff1660e01b8152600401610dad9a99989796959493929190612fa7565b600060405180830381600087803b158015610dc757600080fd5b505af1158015610ddb573d6000803e3d6000fd5b5050505060066000600260ff1660ff168152602001908152602001600020839080600181540180825580915050600190039060005260206000200160009091909190916101000a81548173ffffffffffffffffffffffffffffffffffffffff021916908373ffffffffffffffffffffffffffffffffffffffff1602179055506002600960008573ffffffffffffffffffffffffffffffffffffffff1673ffffffffffffffffffffffffffffffffffffffff16815260200190815260200160002060006101000a81548160ff021916908360ff16021790555050505b6001819080600181540180825580915050600190039060005260206000200160009091909190916101000a81548173ffffffffffffffffffffffffffffffffffffffff021916908373ffffffffffffffffffffffffffffffffffffffff1602179055507f6e07cd6654a2294009ceb005fc75cddc94000647735e24523a0804492d0cce2689828a868a8a8a33604051610f5698979695949392919061305f565b60405180910390a1505050505050505050565b60018181548110610f7957600080fd5b906000526020600020016000915054906101000a900473ffffffffffffffffffffffffffffffffffffffff1681565b7fa49807205ce4d355092ef5a8a18f56e8913cf4a201fbe287825b095693c21775610fd28161173a565b600073ffffffffffffffffffffffffffffffffffffffff168273ffffffffffffffffffffffffffffffffffffffff1603611041576040517f08c379a000000000000000000000000000000000000000000000000000000000815260040161103890613164565b60405180910390fd5b81600c60006101000a81548173ffffffffffffffffffffffffffffffffffffffff021916908373ffffffffffffffffffffffffffffffffffffffff1602179055507f63917b966ba08f88836a237f27084663bd4723bbb43b2baa5077c2f556623463826040516110b19190612076565b60405180910390a15050565b6000600c60009054906101000a900473ffffffffffffffffffffffffffffffffffffffff1673ffffffffffffffffffffffffffffffffffffffff16636f1e01e66040518163ffffffff1660e01b8152600401602060405180830381865afa15801561112c573d6000803e3d6000fd5b505050506040513d601f19601f820116820180604052508101906111509190613199565b905090565b7fa49807205ce4d355092ef5a8a18f56e8913cf4a201fbe287825b095693c2177561117f8161173a565b600c60009054906101000a900473ffffffffffffffffffffffffffffffffffffffff1673ffffffffffffffffffffffffffffffffffffffff1663bb0345e28585856040518463ffffffff1660e01b81526004016111de939291906131c6565b600060405180830381600087803b1580156111f857600080fd5b505af115801561120c573d6000803e3d6000fd5b5050505050505050565b7fa49807205ce4d355092ef5a8a18f56e8913cf4a201fbe287825b095693c2177581565b600080600084815260200190815260200160002060000160008373ffffffffffffffffffffffffffffffffffffffff1673ffffffffffffffffffffffffffffffffffffffff16815260200190815260200160002060009054906101000a900460ff16905092915050565b600360009054906101000a900473ffffffffffffffffffffffffffffffffffffffff1681565b6000600c60009054906101000a900473ffffffffffffffffffffffffffffffffffffffff16905090565b6000801b81565b600a60009054906101000a900473ffffffffffffffffffffffffffffffffffffffff1681565b60607fa49807205ce4d355092ef5a8a18f56e8913cf4a201fbe287825b095693c2177561134d8161173a565b60018054806020026020016040519081016040528092919081815260200182805480156113cf57602002820191906000526020600020905b8160009054906101000a900473ffffffffffffffffffffffffffffffffffffffff1673ffffffffffffffffffffffffffffffffffffffff1681526020019060010190808311611385575b505050505091505090565b600560009054906101000a900473ffffffffffffffffffffffffffffffffffffffff1681565b600b60009054906101000a900473ffffffffffffffffffffffffffffffffffffffff1681565b60007fa49807205ce4d355092ef5a8a18f56e8913cf4a201fbe287825b095693c217756114528161173a565b600960008473ffffffffffffffffffffffffffffffffffffffff1673ffffffffffffffffffffffffffffffffffffffff16815260200190815260200160002060009054906101000a900460ff16915050919050565b60607fa49807205ce4d355092ef5a8a18f56e8913cf4a201fbe287825b095693c217756114d38161173a565b600660008460ff1660ff16815260200190815260200160002080548060200260200160405190810160405280929190818152602001828054801561156c57602002820191906000526020600020905b8160009054906101000a900473ffffffffffffffffffffffffffffffffffffffff1673ffffffffffffffffffffffffffffffffffffffff1681526020019060010190808311611522575b5050505050915050919050565b7fa49807205ce4d355092ef5a8a18f56e8913cf4a201fbe287825b095693c217756115a38161173a565b6115b287878787873388611a4b565b50505050505050565b6115c482610644565b6115cd8161173a565b6115d7838361190a565b505050565b600460009054906101000a900473ffffffffffffffffffffffffffffffffffffffff1681565b7fa49807205ce4d355092ef5a8a18f56e8913cf4a201fbe287825b095693c2177561162c8161173a565b600c60009054906101000a900473ffffffffffffffffffffffffffffffffffffffff1673ffffffffffffffffffffffffffffffffffffffff1663fab9cdbf84846040518363ffffffff1660e01b81526004016116899291906131fd565b600060405180830381600087803b1580156116a357600080fd5b505af11580156116b7573d6000803e3d6000fd5b50505050505050565b60007f7965db0b000000000000000000000000000000000000000000000000000000007bffffffffffffffffffffffffffffffffffffffffffffffffffffffff1916827bffffffffffffffffffffffffffffffffffffffffffffffffffffffff19161480611733575061173282611aed565b5b9050919050565b61174b81611746611902565b611b57565b50565b6000763d602d80600a3d3981f3363d3d373d3d3d363d730000008260601b60e81c176000526e5af43d82803e903d91602b57fd5bf38260781b17602052603760096000f09050600073ffffffffffffffffffffffffffffffffffffffff168173ffffffffffffffffffffffffffffffffffffffff1603611803576040517f08c379a00000000000000000000000000000000000000000000000000000000081526004016117fa90613279565b60405180910390fd5b919050565b611812828261123a565b6118e457600160008084815260200190815260200160002060000160008373ffffffffffffffffffffffffffffffffffffffff1673ffffffffffffffffffffffffffffffffffffffff16815260200190815260200160002060006101000a81548160ff021916908315150217905550611889611902565b73ffffffffffffffffffffffffffffffffffffffff168173ffffffffffffffffffffffffffffffffffffffff16837f2f8788117e7eff1d82e926ec794901d17c78024a50270940304540a733656f0d60405160405180910390a45b5050565b60006118f78360000183611bdc565b60001c905092915050565b600033905090565b611914828261123a565b156119e757600080600084815260200190815260200160002060000160008373ffffffffffffffffffffffffffffffffffffffff1673ffffffffffffffffffffffffffffffffffffffff16815260200190815260200160002060006101000a81548160ff02191690831515021790555061198c611902565b73ffffffffffffffffffffffffffffffffffffffff168173ffffffffffffffffffffffffffffffffffffffff16837ff6391f5c32d9c69d2a47ea670b442974b53935d1edc7fd64eb21e047a839171b60405160405180910390a45b5050565b6000611a13836000018373ffffffffffffffffffffffffffffffffffffffff1660001b611c07565b905092915050565b6000611a43836000018373ffffffffffffffffffffffffffffffffffffffff1660001b611c2a565b905092915050565b600c60009054906101000a900473ffffffffffffffffffffffffffffffffffffffff1673ffffffffffffffffffffffffffffffffffffffff16633c88d904888888888888886040518863ffffffff1660e01b8152600401611ab29796959493929190613299565b600060405180830381600087803b158015611acc57600080fd5b505af1158015611ae0573d6000803e3d6000fd5b5050505050505050505050565b60007f01ffc9a7000000000000000000000000000000000000000000000000000000007bffffffffffffffffffffffffffffffffffffffffffffffffffffffff1916827bffffffffffffffffffffffffffffffffffffffffffffffffffffffff1916149050919050565b611b61828261123a565b611bd857611b6e81611c9a565b611b7c8360001c6020611cc7565b604051602001611b8d9291906133e3565b6040516020818303038152906040526040517f08c379a0000000000000000000000000000000000000000000000000000000008152600401611bcf919061341d565b60405180910390fd5b5050565b6000826000018281548110611bf457611bf3612df2565b5b9060005260206000200154905092915050565b600080836001016000848152602001908152602001600020541415905092915050565b6000611c368383611c07565b611c8f578260000182908060018154018082558091505060019003906000526020600020016000909190919091505582600001805490508360010160008481526020019081526020016000208190555060019050611c94565b600090505b92915050565b6060611cc08273ffffffffffffffffffffffffffffffffffffffff16601460ff16611cc7565b9050919050565b606060006002836002611cda919061343f565b611ce49190613481565b67ffffffffffffffff811115611cfd57611cfc612139565b5b6040519080825280601f01601f191660200182016040528015611d2f5781602001600182028036833780820191505090505b5090507f300000000000000000000000000000000000000000000000000000000000000081600081518110611d6757611d66612df2565b5b60200101907effffffffffffffffffffffffffffffffffffffffffffffffffffffffffffff1916908160001a9053507f780000000000000000000000000000000000000000000000000000000000000081600181518110611dcb57611dca612df2565b5b60200101907effffffffffffffffffffffffffffffffffffffffffffffffffffffffffffff1916908160001a90535060006001846002611e0b919061343f565b611e159190613481565b90505b6001811115611eb5577f3031323334353637383961626364656600000000000000000000000000000000600f861660108110611e5757611e56612df2565b5b1a60f81b828281518110611e6e57611e6d612df2565b5b60200101907effffffffffffffffffffffffffffffffffffffffffffffffffffffffffffff1916908160001a905350600485901c945080611eae906134b5565b9050611e18565b5060008414611ef9576040517f08c379a0000000000000000000000000000000000000000000000000000000008152600401611ef09061352a565b60405180910390fd5b8091505092915050565b6000604051905090565b600080fd5b600080fd5b60007fffffffff0000000000000000000000000000000000000000000000000000000082169050919050565b611f4c81611f17565b8114611f5757600080fd5b50565b600081359050611f6981611f43565b92915050565b600060208284031215611f8557611f84611f0d565b5b6000611f9384828501611f5a565b91505092915050565b60008115159050919050565b611fb181611f9c565b82525050565b6000602082019050611fcc6000830184611fa8565b92915050565b6000819050919050565b611fe581611fd2565b8114611ff057600080fd5b50565b60008135905061200281611fdc565b92915050565b60006020828403121561201e5761201d611f0d565b5b600061202c84828501611ff3565b91505092915050565b600073ffffffffffffffffffffffffffffffffffffffff82169050919050565b600061206082612035565b9050919050565b61207081612055565b82525050565b600060208201905061208b6000830184612067565b92915050565b6000819050919050565b6120a481612091565b81146120af57600080fd5b50565b6000813590506120c18161209b565b92915050565b6000602082840312156120dd576120dc611f0d565b5b60006120eb848285016120b2565b91505092915050565b6120fd81612091565b82525050565b600060208201905061211860008301846120f4565b92915050565b600080fd5b600080fd5b6000601f19601f8301169050919050565b7f4e487b7100000000000000000000000000000000000000000000000000000000600052604160045260246000fd5b61217182612128565b810181811067ffffffffffffffff821117156121905761218f612139565b5b80604052505050565b60006121a3611f03565b90506121af8282612168565b919050565b600067ffffffffffffffff8211156121cf576121ce612139565b5b6121d882612128565b9050602081019050919050565b82818337600083830152505050565b6000612207612202846121b4565b612199565b90508281526020810184848401111561222357612222612123565b5b61222e8482856121e5565b509392505050565b600082601f83011261224b5761224a61211e565b5b813561225b8482602086016121f4565b91505092915050565b600061226f82612055565b9050919050565b61227f81612264565b811461228a57600080fd5b50565b60008135905061229c81612276565b92915050565b6122ab81611f9c565b81146122b657600080fd5b50565b6000813590506122c8816122a2565b92915050565b60008060008060008060008060006101208a8c0312156122f1576122f0611f0d565b5b60008a013567ffffffffffffffff81111561230f5761230e611f12565b5b61231b8c828d01612236565b995050602061232c8c828d0161228d565b98505060408a013567ffffffffffffffff81111561234d5761234c611f12565b5b6123598c828d01612236565b97505060608a013567ffffffffffffffff81111561237a57612379611f12565b5b6123868c828d01612236565b96505060806123978c828d01611ff3565b95505060a06123a88c828d01611ff3565b94505060c06123b98c828d016122b9565b93505060e06123ca8c828d01611ff3565b9250506101006123dc8c828d01611ff3565b9150509295985092959850929598565b6123f581612055565b811461240057600080fd5b50565b600081359050612412816123ec565b92915050565b6000806040838503121561242f5761242e611f0d565b5b600061243d858286016120b2565b925050602061244e85828601612403565b9150509250929050565b6000819050919050565b600061247d61247861247384612035565b612458565b612035565b9050919050565b600061248f82612462565b9050919050565b60006124a182612484565b9050919050565b6124b181612496565b82525050565b60006020820190506124cc60008301846124a8565b92915050565b600081519050919050565b600082825260208201905092915050565b6000819050602082019050919050565b61250781612055565b82525050565b600061251983836124fe565b60208301905092915050565b6000602082019050919050565b600061253d826124d2565b61254781856124dd565b9350612552836124ee565b8060005b8381101561258357815161256a888261250d565b975061257583612525565b925050600181019050612556565b5085935050505092915050565b600060208201905081810360008301526125aa8184612532565b905092915050565b6000602082840312156125c8576125c7611f0d565b5b60006125d684828501612403565b91505092915050565b600060ff82169050919050565b6125f5816125df565b811461260057600080fd5b50565b600081359050612612816125ec565b92915050565b600067ffffffffffffffff82111561263357612632612139565b5b602082029050602081019050919050565b600080fd5b600080fd5b60006060828403121561266457612663612649565b5b61266e6060612199565b9050600061267e84828501612603565b600083015250602061269284828501611ff3565b60208301525060406126a684828501611ff3565b60408301525092915050565b60006126c56126c084612618565b612199565b905080838252602082019050606084028301858111156126e8576126e7612644565b5b835b8181101561271157806126fd888261264e565b8452602084019350506060810190506126ea565b5050509392505050565b600082601f8301126127305761272f61211e565b5b81356127408482602086016126b2565b91505092915050565b600080600080600080600060e0888a03121561276857612767611f0d565b5b60006127768a828b01612603565b97505060206127878a828b01612403565b965050604088013567ffffffffffffffff8111156127a8576127a7611f12565b5b6127b48a828b01612236565b95505060606127c58a828b0161228d565b945050608088013567ffffffffffffffff8111156127e6576127e5611f12565b5b6127f28a828b01612236565b93505060a088013567ffffffffffffffff81111561281357612812611f12565b5b61281f8a828b01612236565b92505060c088013567ffffffffffffffff8111156128405761283f611f12565b5b61284c8a828b0161271b565b91505092959891949750929550565b600061286682612055565b9050919050565b6128768161285b565b811461288157600080fd5b50565b6000813590506128938161286d565b92915050565b6000602082840312156128af576128ae611f0d565b5b60006128bd84828501612884565b91505092915050565b6000806000606084860312156128df576128de611f0d565b5b60006128ed86828701612403565b93505060206128fe86828701612403565b925050604061290f86828701612403565b9150509250925092565b612922816125df565b82525050565b600060208201905061293d6000830184612919565b92915050565b60006020828403121561295957612958611f0d565b5b600061296784828501612603565b91505092915050565b60008060008060008060c0878903121561298d5761298c611f0d565b5b600061299b89828a01612403565b96505060206129ac89828a01612603565b95505060406129bd89828a01611ff3565b94505060606129ce89828a01611ff3565b935050608087013567ffffffffffffffff8111156129ef576129ee611f12565b5b6129fb89828a01612236565b92505060a0612a0c89828a01612403565b9150509295509295509295565b60008060408385031215612a3057612a2f611f0d565b5b6000612a3e85828601612403565b925050602083013567ffffffffffffffff811115612a5f57612a5e611f12565b5b612a6b85828601612236565b9150509250929050565b600081519050919050565b600082825260208201905092915050565b60005b83811015612aaf578082015181840152602081019050612a94565b60008484015250505050565b6000612ac682612a75565b612ad08185612a80565b9350612ae0818560208601612a91565b612ae981612128565b840191505092915050565b6000612aff82612484565b9050919050565b612b0f81612af4565b82525050565b612b1e81611fd2565b82525050565b6000610120820190508181036000830152612b3f818c612abb565b9050612b4e602083018b612b06565b8181036040830152612b60818a612abb565b90508181036060830152612b748189612abb565b9050612b836080830188612b15565b612b9060a0830187612b15565b612b9d60c0830186611fa8565b612baa60e0830185612b15565b612bb8610100830184612b15565b9a9950505050505050505050565b600061014082019050612bdc600083018d612067565b8181036020830152612bee818c612abb565b9050612bfd604083018b612067565b8181036060830152612c0f818a612abb565b90508181036080830152612c238189612abb565b9050612c3260a0830188612b15565b612c3f60c0830187612b15565b612c4c60e0830186611fa8565b612c5a610100830185612b15565b612c68610120830184612b15565b9b9a5050505050505050505050565b7f416363657373436f6e74726f6c3a2063616e206f6e6c792072656e6f756e636560008201527f20726f6c657320666f722073656c660000000000000000000000000000000000602082015250565b6000612cd3602f83612a80565b9150612cde82612c77565b604082019050919050565b60006020820190508181036000830152612d0281612cc6565b9050919050565b7f7374616e646172644964206e6f7420737570706f727400000000000000000000600082015250565b6000612d3f601683612a80565b9150612d4a82612d09565b602082019050919050565b60006020820190508181036000830152612d6e81612d32565b9050919050565b600060e082019050612d8a600083018a612067565b612d976020830189612067565b612da46040830188612b06565b8181036060830152612db68187612abb565b90508181036080830152612dca8186612abb565b9050612dd960a0830185612067565b612de660c0830184612067565b98975050505050505050565b7f4e487b7100000000000000000000000000000000000000000000000000000000600052603260045260246000fd5b7f4e487b7100000000000000000000000000000000000000000000000000000000600052601160045260246000fd5b6000612e5b82611fd2565b91507fffffffffffffffffffffffffffffffffffffffffffffffffffffffffffffffff8203612e8d57612e8c612e21565b5b600182019050919050565b600081519050919050565b600082825260208201905092915050565b6000819050602082019050919050565b612ecd816125df565b82525050565b612edc81611fd2565b82525050565b606082016000820151612ef86000850182612ec4565b506020820151612f0b6020850182612ed3565b506040820151612f1e6040850182612ed3565b50505050565b6000612f308383612ee2565b60608301905092915050565b6000602082019050919050565b6000612f5482612e98565b612f5e8185612ea3565b9350612f6983612eb4565b8060005b83811015612f9a578151612f818882612f24565b9750612f8c83612f3c565b925050600181019050612f6d565b5085935050505092915050565b600061014082019050612fbd600083018d612067565b8181036020830152612fcf818c612abb565b9050612fde604083018b612067565b612feb606083018a611fa8565b612ff86080830189612b06565b81810360a083015261300a8188612abb565b905081810360c083015261301e8187612abb565b905061302d60e0830186612067565b8181036101008301526130408185612f49565b9050613050610120830184612b15565b9b9a5050505050505050505050565b600061010082019050613075600083018b612919565b613082602083018a612067565b61308f6040830189612067565b81810360608301526130a18188612f49565b90506130b06080830187612b06565b81810360a08301526130c28186612abb565b905081810360c08301526130d68185612abb565b90506130e560e0830184612067565b9998505050505050505050565b7f41646472657373206f6620636f6e66696775726174696f6e206d75737420626560008201527f2072657175697265642e00000000000000000000000000000000000000000000602082015250565b600061314e602a83612a80565b9150613159826130f2565b604082019050919050565b6000602082019050818103600083015261317d81613141565b9050919050565b600081519050613193816123ec565b92915050565b6000602082840312156131af576131ae611f0d565b5b60006131bd84828501613184565b91505092915050565b60006060820190506131db6000830186612067565b6131e86020830185612067565b6131f56040830184612067565b949350505050565b60006040820190506132126000830185612067565b81810360208301526132248184612abb565b90509392505050565b7f455243313136373a20637265617465206661696c656400000000000000000000600082015250565b6000613263601683612a80565b915061326e8261322d565b602082019050919050565b6000602082019050818103600083015261329281613256565b9050919050565b600060e0820190506132ae600083018a612067565b6132bb6020830189612919565b6132c86040830188612b15565b6132d56060830187612b15565b81810360808301526132e78186612abb565b90506132f660a0830185612067565b61330360c0830184612067565b98975050505050505050565b600081905092915050565b7f416363657373436f6e74726f6c3a206163636f756e7420000000000000000000600082015250565b600061335060178361330f565b915061335b8261331a565b601782019050919050565b600061337182612a75565b61337b818561330f565b935061338b818560208601612a91565b80840191505092915050565b7f206973206d697373696e6720726f6c6520000000000000000000000000000000600082015250565b60006133cd60118361330f565b91506133d882613397565b601182019050919050565b60006133ee82613343565b91506133fa8285613366565b9150613405826133c0565b91506134118284613366565b91508190509392505050565b600060208201905081810360008301526134378184612abb565b905092915050565b600061344a82611fd2565b915061345583611fd2565b925082820261346381611fd2565b9150828204841483151761347a57613479612e21565b5b5092915050565b600061348c82611fd2565b915061349783611fd2565b92508282019050808211156134af576134ae612e21565b5b92915050565b60006134c082611fd2565b9150600082036134d3576134d2612e21565b5b600182039050919050565b7f537472696e67733a20686578206c656e67746820696e73756666696369656e74600082015250565b6000613514602083612a80565b915061351f826134de565b602082019050919050565b6000602082019050818103600083015261354381613507565b905091905056fea2646970667358221220e1861460ecd16e70801763e31f5327da6dfa002d38fcb521a084ef56a3a1e25b64736f6c6343000812003360a06040523073ffffffffffffffffffffffffffffffffffffffff1660809073ffffffffffffffffffffffffffffffffffffffff168152503480156200004457600080fd5b506080516187c96200007d60003960008181611424015281816114b20152818161191a015281816119a80152611a5801526187c96000f3fe6080604052600436106103a25760003560e01c806376214140116101e7578063ad9e963f1161010d578063db8cc8fa116100a0578063ea4afb5c1161006f578063ea4afb5c14610dd0578063ef463b6414610dfb578063f2fde38b14610e38578063ffa0a02a14610e61576103a2565b8063db8cc8fa14610d16578063dd8a353014610d3f578063e2f0394714610d6a578063e985e9c514610d93576103a2565b8063c1292cc3116100dc578063c1292cc314610c5c578063c4ca3a9c14610c87578063c87b56dd14610cb0578063d547741f14610ced576103a2565b8063ad9e963f14610ba2578063b80f55c914610bdf578063b88d4fde14610c08578063bffadc2f14610c31576103a2565b80639292caaf11610185578063a217fddf11610154578063a217fddf14610ae6578063a22cb46514610b11578063a76e0db214610b3a578063a9c2e36c14610b77576103a2565b80639292caaf14610a3e57806392c0f3d714610a6957806395d89b4114610a925780639a94efd814610abd576103a2565b80638badfa93116101c15780638badfa93146109825780638da5cb5b146109ad5780638f0b7b68146109d857806391d1485414610a01576103a2565b80637621414014610903578063763c87bf1461092c57806388c7e39714610957576103a2565b806349d19648116102cc57806358797cb61161026a57806367f6860b1161023957806367f6860b1461085d57806370a0823114610886578063715018a6146108c357806372f12344146108da576103a2565b806358797cb61461078d5780635fd1bbc4146107b85780636352211e146107e357806366458d4a14610820576103a2565b80634f1ef286116102a65780634f1ef286146106e057806352d1902d146106fc578063538baeab14610727578063558008ab14610750576103a2565b806349d19648146106655780634c40a07b1461068e5780634e452475146106b7576103a2565b80632a55205a116103445780633659cfe6116103135780633659cfe6146105d15780633a1055ae146105fa5780633ccfd60b1461062557806342842e0e1461063c576103a2565b80632a55205a146105185780632ee4aa31146105565780632f2ff15d1461057f57806336568abe146105a8576103a2565b8063095ea7b311610380578063095ea7b31461044c57806323b872dd14610475578063248a9ca31461049e578063252b2d09146104db576103a2565b806301ffc9a7146103a757806306fdde03146103e4578063081812fc1461040f575b600080fd5b3480156103b357600080fd5b506103ce60048036038101906103c991906156dd565b610e8a565b6040516103db9190615725565b60405180910390f35b3480156103f057600080fd5b506103f9610e9c565b60405161040691906157d0565b60405180910390f35b34801561041b57600080fd5b5061043660048036038101906104319190615828565b610f2e565b6040516104439190615896565b60405180910390f35b34801561045857600080fd5b50610473600480360381019061046e91906158dd565b610f74565b005b34801561048157600080fd5b5061049c6004803603810190610497919061591d565b61108b565b005b3480156104aa57600080fd5b506104c560048036038101906104c091906159a6565b6110eb565b6040516104d291906159e2565b60405180910390f35b3480156104e757600080fd5b5061050260048036038101906104fd9190615a36565b61110b565b60405161050f9190615a72565b60405180910390f35b34801561052457600080fd5b5061053f600480360381019061053a9190615a8d565b611124565b60405161054d929190615acd565b60405180910390f35b34801561056257600080fd5b5061057d60048036038101906105789190615af6565b61130e565b005b34801561058b57600080fd5b506105a660048036038101906105a19190615b23565b61137e565b005b3480156105b457600080fd5b506105cf60048036038101906105ca9190615b23565b61139f565b005b3480156105dd57600080fd5b506105f860048036038101906105f39190615af6565b611422565b005b34801561060657600080fd5b5061060f6115aa565b60405161061c9190615a72565b60405180910390f35b34801561063157600080fd5b5061063a6115b1565b005b34801561064857600080fd5b50610663600480360381019061065e919061591d565b6116ff565b005b34801561067157600080fd5b5061068c60048036038101906106879190615ba1565b61171f565b005b34801561069a57600080fd5b506106b560048036038101906106b09190615bfa565b61178f565b005b3480156106c357600080fd5b506106de60048036038101906106d99190615e32565b6117d8565b005b6106fa60048036038101906106f59190615f5f565b611918565b005b34801561070857600080fd5b50610711611a54565b60405161071e91906159e2565b60405180910390f35b34801561073357600080fd5b5061074e6004803603810190610749919061605c565b611b0d565b005b34801561075c57600080fd5b5061077760048036038101906107729190615af6565b611e1c565b6040516107849190615a72565b60405180910390f35b34801561079957600080fd5b506107a2611e35565b6040516107af9190616195565b60405180910390f35b3480156107c457600080fd5b506107cd611e5c565b6040516107da9190615a72565b60405180910390f35b3480156107ef57600080fd5b5061080a60048036038101906108059190615828565b611e63565b6040516108179190615896565b60405180910390f35b34801561082c57600080fd5b5061084760048036038101906108429190615af6565b611ee9565b604051610854919061626e565b60405180910390f35b34801561086957600080fd5b50610884600480360381019061087f91906162d4565b611f87565b005b34801561089257600080fd5b506108ad60048036038101906108a89190615af6565b611fa3565b6040516108ba9190615a72565b60405180910390f35b3480156108cf57600080fd5b506108d861205a565b005b3480156108e657600080fd5b5061090160048036038101906108fc9190615828565b61206e565b005b34801561090f57600080fd5b5061092a60048036038101906109259190615828565b6120a4565b005b34801561093857600080fd5b506109416120da565b60405161094e91906157d0565b60405180910390f35b34801561096357600080fd5b5061096c612169565b6040516109799190615725565b60405180910390f35b34801561098e57600080fd5b5061099761217d565b6040516109a49190615a72565b60405180910390f35b3480156109b957600080fd5b506109c2612184565b6040516109cf9190615896565b60405180910390f35b3480156109e457600080fd5b506109ff60048036038101906109fa9190616394565b6121af565b005b348015610a0d57600080fd5b50610a286004803603810190610a239190615b23565b612253565b604051610a359190615725565b60405180910390f35b348015610a4a57600080fd5b50610a536122be565b604051610a609190615a72565b60405180910390f35b348015610a7557600080fd5b50610a906004803603810190610a8b9190616484565b6122c5565b005b348015610a9e57600080fd5b50610aa7612684565b604051610ab491906157d0565b60405180910390f35b348015610ac957600080fd5b50610ae46004803603810190610adf919061650c565b612716565b005b348015610af257600080fd5b50610afb612a38565b604051610b0891906159e2565b60405180910390f35b348015610b1d57600080fd5b50610b386004803603810190610b33919061655f565b612a3f565b005b348015610b4657600080fd5b50610b616004803603810190610b5c9190615a36565b612a55565b604051610b6e91906157d0565b60405180910390f35b348015610b8357600080fd5b50610b8c612af6565b604051610b999190615896565b60405180910390f35b348015610bae57600080fd5b50610bc96004803603810190610bc49190615a36565b612b4c565b604051610bd691906165f0565b60405180910390f35b348015610beb57600080fd5b50610c066004803603810190610c01919061660b565b612c09565b005b348015610c1457600080fd5b50610c2f6004803603810190610c2a9190616654565b612c78565b005b348015610c3d57600080fd5b50610c46612cda565b604051610c539190615896565b60405180910390f35b348015610c6857600080fd5b50610c71612d01565b604051610c7e9190615a72565b60405180910390f35b348015610c9357600080fd5b50610cae6004803603810190610ca991906166d7565b612d13565b005b348015610cbc57600080fd5b50610cd76004803603810190610cd29190615828565b612dc6565b604051610ce491906157d0565b60405180910390f35b348015610cf957600080fd5b50610d146004803603810190610d0f9190615b23565b612e57565b005b348015610d2257600080fd5b50610d3d6004803603810190610d389190615828565b612e78565b005b348015610d4b57600080fd5b50610d54612eae565b604051610d619190615a72565b60405180910390f35b348015610d7657600080fd5b50610d916004803603810190610d8c9190615828565b612eb5565b005b348015610d9f57600080fd5b50610dba6004803603810190610db5919061675f565b612eeb565b604051610dc79190615725565b60405180910390f35b348015610ddc57600080fd5b50610de5612f7f565b604051610df29190615896565b60405180910390f35b348015610e0757600080fd5b50610e226004803603810190610e1d91906158dd565b612fa6565b604051610e2f9190615a72565b60405180910390f35b348015610e4457600080fd5b50610e5f6004803603810190610e5a9190615af6565b612fd8565b005b348015610e6d57600080fd5b50610e886004803603810190610e83919061650c565b61305b565b005b6000610e95826136ad565b9050919050565b606060978054610eab906167ce565b80601f0160208091040260200160405190810160405280929190818152602001828054610ed7906167ce565b8015610f245780601f10610ef957610100808354040283529160200191610f24565b820191906000526020600020905b815481529060010190602001808311610f0757829003601f168201915b5050505050905090565b6000610f39826136bf565b609b600083815260200190815260200160002060009054906101000a900473ffffffffffffffffffffffffffffffffffffffff169050919050565b6000610f7f82611e63565b90508073ffffffffffffffffffffffffffffffffffffffff168373ffffffffffffffffffffffffffffffffffffffff1603610fef576040517f08c379a0000000000000000000000000000000000000000000000000000000008152600401610fe690616871565b60405180910390fd5b8073ffffffffffffffffffffffffffffffffffffffff1661100e61370a565b73ffffffffffffffffffffffffffffffffffffffff16148061103d575061103c8161103761370a565b612eeb565b5b61107c576040517f08c379a000000000000000000000000000000000000000000000000000000000815260040161107390616903565b60405180910390fd5b6110868383613712565b505050565b61109c61109661370a565b826137cb565b6110db576040517f08c379a00000000000000000000000000000000000000000000000000000000081526004016110d290616995565b60405180910390fd5b6110e6838383613860565b505050565b600060c96000838152602001908152602001600020600101549050919050565b6101cb6020528060005260406000206000915090505481565b6000806000606660008681526020019081526020016000206040518060400160405290816000820160009054906101000a900473ffffffffffffffffffffffffffffffffffffffff1673ffffffffffffffffffffffffffffffffffffffff1673ffffffffffffffffffffffffffffffffffffffff1681526020016000820160149054906101000a90046bffffffffffffffffffffffff166bffffffffffffffffffffffff166bffffffffffffffffffffffff16815250509050600073ffffffffffffffffffffffffffffffffffffffff16816000015173ffffffffffffffffffffffffffffffffffffffff16036112b95760656040518060400160405290816000820160009054906101000a900473ffffffffffffffffffffffffffffffffffffffff1673ffffffffffffffffffffffffffffffffffffffff1673ffffffffffffffffffffffffffffffffffffffff1681526020016000820160149054906101000a90046bffffffffffffffffffffffff166bffffffffffffffffffffffff166bffffffffffffffffffffffff168152505090505b60006112c3613b59565b6bffffffffffffffffffffffff1682602001516bffffffffffffffffffffffff16866112ef91906169e4565b6112f99190616a55565b90508160000151819350935050509250929050565b7fb0a2731da0d1e322a29f18fc41490da7914e8245c4e7d00155b630b2fbe5029361133881613b63565b816101c560006101000a81548173ffffffffffffffffffffffffffffffffffffffff021916908373ffffffffffffffffffffffffffffffffffffffff1602179055505050565b611387826110eb565b61139081613b63565b61139a8383613b77565b505050565b6113a761370a565b73ffffffffffffffffffffffffffffffffffffffff168173ffffffffffffffffffffffffffffffffffffffff1614611414576040517f08c379a000000000000000000000000000000000000000000000000000000000815260040161140b90616af8565b60405180910390fd5b61141e8282613c58565b5050565b7f000000000000000000000000000000000000000000000000000000000000000073ffffffffffffffffffffffffffffffffffffffff163073ffffffffffffffffffffffffffffffffffffffff16036114b0576040517f08c379a00000000000000000000000000000000000000000000000000000000081526004016114a790616b8a565b60405180910390fd5b7f000000000000000000000000000000000000000000000000000000000000000073ffffffffffffffffffffffffffffffffffffffff166114ef613d3a565b73ffffffffffffffffffffffffffffffffffffffff1614611545576040517f08c379a000000000000000000000000000000000000000000000000000000000815260040161153c90616c1c565b60405180910390fd5b61154e81613d91565b6115a781600067ffffffffffffffff81111561156d5761156c615c2c565b5b6040519080825280601f01601f19166020018201604052801561159f5781602001600182028036833780820191505090505b506000613dbf565b50565b6101c85481565b6000801b6115be81613b63565b6101c960009054906101000a900473ffffffffffffffffffffffffffffffffffffffff1673ffffffffffffffffffffffffffffffffffffffff1663a9059cbb336101c960009054906101000a900473ffffffffffffffffffffffffffffffffffffffff1673ffffffffffffffffffffffffffffffffffffffff166370a08231306040518263ffffffff1660e01b815260040161165a9190615896565b602060405180830381865afa158015611677573d6000803e3d6000fd5b505050506040513d601f19601f8201168201806040525081019061169b9190616c51565b6040518363ffffffff1660e01b81526004016116b8929190615acd565b6020604051808303816000875af11580156116d7573d6000803e3d6000fd5b505050506040513d601f19601f820116820180604052508101906116fb9190616c93565b5050565b61171a83838360405180602001604052806000815250612c78565b505050565b7fb0a2731da0d1e322a29f18fc41490da7914e8245c4e7d00155b630b2fbe5029361174981613b63565b816101c960006101000a81548173ffffffffffffffffffffffffffffffffffffffff021916908373ffffffffffffffffffffffffffffffffffffffff1602179055505050565b7fb0a2731da0d1e322a29f18fc41490da7914e8245c4e7d00155b630b2fbe502936117b981613b63565b816101cf60006101000a81548160ff0219169083151502179055505050565b7fa49807205ce4d355092ef5a8a18f56e8913cf4a201fbe287825b095693c2177561180281613b63565b8151835114611846576040517f08c379a000000000000000000000000000000000000000000000000000000000815260040161183d90616d32565b60405180910390fd5b60005b83518110156119125782818151811061186557611864616d52565b5b60200260200101516101d2600086848151811061188557611884616d52565b5b602002602001015173ffffffffffffffffffffffffffffffffffffffff1673ffffffffffffffffffffffffffffffffffffffff168152602001908152602001600020819055508281815181106118de576118dd616d52565b5b60200260200101516101d060008282546118f89190616d81565b92505081905550808061190a90616db5565b915050611849565b50505050565b7f000000000000000000000000000000000000000000000000000000000000000073ffffffffffffffffffffffffffffffffffffffff163073ffffffffffffffffffffffffffffffffffffffff16036119a6576040517f08c379a000000000000000000000000000000000000000000000000000000000815260040161199d90616b8a565b60405180910390fd5b7f000000000000000000000000000000000000000000000000000000000000000073ffffffffffffffffffffffffffffffffffffffff166119e5613d3a565b73ffffffffffffffffffffffffffffffffffffffff1614611a3b576040517f08c379a0000000000000000000000000000000000000000000000000000000008152600401611a3290616c1c565b60405180910390fd5b611a4482613d91565b611a5082826001613dbf565b5050565b60007f000000000000000000000000000000000000000000000000000000000000000073ffffffffffffffffffffffffffffffffffffffff163073ffffffffffffffffffffffffffffffffffffffff1614611ae4576040517f08c379a0000000000000000000000000000000000000000000000000000000008152600401611adb90616e6f565b60405180910390fd5b7f360894a13ba1a3210667c828492db98dca3e2076cc3735a920a3ca505d382bbc60001b905090565b60008060019054906101000a900460ff16159050808015611b3e5750600160008054906101000a900460ff1660ff16105b80611b6b5750611b4d30613f2d565b158015611b6a5750600160008054906101000a900460ff1660ff16145b5b611baa576040517f08c379a0000000000000000000000000000000000000000000000000000000008152600401611ba190616f01565b60405180910390fd5b60016000806101000a81548160ff021916908360ff1602179055508015611be7576001600060016101000a81548160ff0219169083151502179055505b611bf18486613f50565b611bf9613fad565b611c01613ffe565b611c0a8361404f565b876101c360006101000a81548173ffffffffffffffffffffffffffffffffffffffff021916908373ffffffffffffffffffffffffffffffffffffffff160217905550866101c560006101000a81548173ffffffffffffffffffffffffffffffffffffffff021916908373ffffffffffffffffffffffffffffffffffffffff160217905550856101c960006101000a81548173ffffffffffffffffffffffffffffffffffffffff021916908373ffffffffffffffffffffffffffffffffffffffff16021790555060006101cf60006101000a81548160ff021916908315150217905550816101d460006101000a81548173ffffffffffffffffffffffffffffffffffffffff021916908373ffffffffffffffffffffffffffffffffffffffff160217905550611d587fa49807205ce4d355092ef5a8a18f56e8913cf4a201fbe287825b095693c2177584614117565b611d656000801b84614117565b611d8f7fb0a2731da0d1e322a29f18fc41490da7914e8245c4e7d00155b630b2fbe5029384614117565b611db97f3c11d16cbaffd01df69ce1c404f6340ee057498f5f00246190ea54220576a84884614117565b8015611e125760008060016101000a81548160ff0219169083151502179055507f7f26b83ff96e1f2b6a682f133852f6798a09c465da95921460cefb38474024986001604051611e099190616f5c565b60405180910390a15b5050505050505050565b6101d26020528060005260406000206000915090505481565b6101c960009054906101000a900473ffffffffffffffffffffffffffffffffffffffff1681565b6101c75481565b600080611e6f83614125565b9050600073ffffffffffffffffffffffffffffffffffffffff168173ffffffffffffffffffffffffffffffffffffffff1603611ee0576040517f08c379a0000000000000000000000000000000000000000000000000000000008152600401611ed790616fc3565b60405180910390fd5b80915050919050565b606060006101cc60008473ffffffffffffffffffffffffffffffffffffffff1673ffffffffffffffffffffffffffffffffffffffff168152602001908152602001600020805480602002602001604051908101604052809291908181526020018280548015611f7757602002820191906000526020600020905b815481526020019060010190808311611f63575b5050505050905080915050919050565b6000801b611f9481613b63565b611f9e8383614162565b505050565b60008073ffffffffffffffffffffffffffffffffffffffff168273ffffffffffffffffffffffffffffffffffffffff1603612013576040517f08c379a000000000000000000000000000000000000000000000000000000000815260040161200a90617055565b60405180910390fd5b609a60008373ffffffffffffffffffffffffffffffffffffffff1673ffffffffffffffffffffffffffffffffffffffff168152602001908152602001600020549050919050565b6120626142f7565b61206c600061404f565b565b7fb0a2731da0d1e322a29f18fc41490da7914e8245c4e7d00155b630b2fbe5029361209881613b63565b816101cd819055505050565b7fb0a2731da0d1e322a29f18fc41490da7914e8245c4e7d00155b630b2fbe502936120ce81613b63565b816101c8819055505050565b6101c480546120e8906167ce565b80601f0160208091040260200160405190810160405280929190818152602001828054612114906167ce565b80156121615780601f1061213657610100808354040283529160200191612161565b820191906000526020600020905b81548152906001019060200180831161214457829003601f168201915b505050505081565b6101cf60009054906101000a900460ff1681565b6101d15481565b600061019160009054906101000a900473ffffffffffffffffffffffffffffffffffffffff16905090565b7fa49807205ce4d355092ef5a8a18f56e8913cf4a201fbe287825b095693c217756121d981613b63565b73__$afec012158ebc01e771e0b8521b3c90181$__6339d1efc68888888888886040518763ffffffff1660e01b815260040161221a96959493929190617148565b60006040518083038186803b15801561223257600080fd5b505af4158015612246573d6000803e3d6000fd5b5050505050505050505050565b600060c9600084815260200190815260200160002060000160008373ffffffffffffffffffffffffffffffffffffffff1673ffffffffffffffffffffffffffffffffffffffff16815260200190815260200160002060009054906101000a900460ff16905092915050565b6101c65481565b6122cd614375565b73ffffffffffffffffffffffffffffffffffffffff163373ffffffffffffffffffffffffffffffffffffffff161461233a576040517f08c379a0000000000000000000000000000000000000000000000000000000008152600401612331906171f0565b60405180910390fd5b600061234461440e565b73ffffffffffffffffffffffffffffffffffffffff166386c2b83d30876040518363ffffffff1660e01b815260040161237e92919061721f565b606060405180830381865afa15801561239b573d6000803e3d6000fd5b505050506040513d601f19601f820116820180604052508101906123bf91906172c6565b90506000816020015111612408576040517f08c379a00000000000000000000000000000000000000000000000000000000081526004016123ff9061733f565b60405180910390fd5b60006101cb60008760ff1660ff168152602001908152602001600020549050600087826124359190616d81565b9050808360200151101561247e576040517f08c379a0000000000000000000000000000000000000000000000000000000008152600401612475906173ab565b60405180910390fd5b806101cb60008960ff1660ff1681526020019081526020016000208190555060008867ffffffffffffffff8111156124b9576124b8615c2c565b5b6040519080825280602002602001820160405280156124f257816020015b6124df615633565b8152602001906001900390816124d75790505b50905060005b8981101561263b57600061250d6101ca6144a7565b905061251a6101ca6144b5565b61252489826144cb565b6101cc60008a73ffffffffffffffffffffffffffffffffffffffff1673ffffffffffffffffffffffffffffffffffffffff168152602001908152602001600020819080600181540180825580915050600190039060005260206000200160009091909190915055896101ce600083815260200190815260200160002060006101000a81548160ff021916908360ff1602179055507fd5054ba42059be88c66c1a10236e5a0cea44d10897996e6040b6f41c57be134289828c6040516125eb939291906173fc565b60405180910390a160405180604001604052808281526020018b60ff1681525083838151811061261e5761261d616d52565b5b6020026020010181905250508061263490616db5565b90506124f8565b507ff7dd652110ab47a8985ee42eb817b24e6084a902c749934178ddf4795d91e21386868984604051612671949392919061753e565b60405180910390a1505050505050505050565b606060988054612693906167ce565b80601f01602080910402602001604051908101604052809291908181526020018280546126bf906167ce565b801561270c5780601f106126e15761010080835404028352916020019161270c565b820191906000526020600020905b8154815290600101906020018083116126ef57829003601f168201915b5050505050905090565b7fb0a2731da0d1e322a29f18fc41490da7914e8245c4e7d00155b630b2fbe5029361274081613b63565b60008411612783576040517f08c379a000000000000000000000000000000000000000000000000000000000815260040161277a906175d1565b60405180910390fd5b600061278d61440e565b73ffffffffffffffffffffffffffffffffffffffff166386c2b83d30866040518363ffffffff1660e01b81526004016127c792919061721f565b606060405180830381865afa1580156127e4573d6000803e3d6000fd5b505050506040513d601f19601f8201168201806040525081019061280891906172c6565b90506000816020015111612851576040517f08c379a00000000000000000000000000000000000000000000000000000000081526004016128489061733f565b60405180910390fd5b60006101cb60008660ff1660ff1681526020019081526020016000205490506000868261287e9190616d81565b905080836020015110156128c7576040517f08c379a00000000000000000000000000000000000000000000000000000000081526004016128be906173ab565b60405180910390fd5b806101cb60008860ff1660ff16815260200190815260200160002081905550600073ffffffffffffffffffffffffffffffffffffffff168573ffffffffffffffffffffffffffffffffffffffff160361291e573394505b60005b87811015612a2e5760006129366101ca6144a7565b90506129436101ca6144b5565b61294d87826144cb565b6101cc60008873ffffffffffffffffffffffffffffffffffffffff1673ffffffffffffffffffffffffffffffffffffffff168152602001908152602001600020819080600181540180825580915050600190039060005260206000200160009091909190915055876101ce600083815260200190815260200160002060006101000a81548160ff021916908360ff1602179055507fd5054ba42059be88c66c1a10236e5a0cea44d10897996e6040b6f41c57be134287828a604051612a14939291906173fc565b60405180910390a15080612a2790616db5565b9050612921565b5050505050505050565b6000801b81565b612a51612a4a61370a565b83836144e9565b5050565b6101d36020528060005260406000206000915090508054612a75906167ce565b80601f0160208091040260200160405190810160405280929190818152602001828054612aa1906167ce565b8015612aee5780601f10612ac357610100808354040283529160200191612aee565b820191906000526020600020905b815481529060010190602001808311612ad157829003601f168201915b505050505081565b60007fa49807205ce4d355092ef5a8a18f56e8913cf4a201fbe287825b095693c21775612b2281613b63565b6101d460009054906101000a900473ffffffffffffffffffffffffffffffffffffffff1691505090565b612b5461564d565b7fa49807205ce4d355092ef5a8a18f56e8913cf4a201fbe287825b095693c21775612b7e81613b63565b612b8661440e565b73ffffffffffffffffffffffffffffffffffffffff166386c2b83d30856040518363ffffffff1660e01b8152600401612bc092919061721f565b606060405180830381865afa158015612bdd573d6000803e3d6000fd5b505050506040513d601f19601f82011682018060405250810190612c0191906172c6565b915050919050565b7f3c11d16cbaffd01df69ce1c404f6340ee057498f5f00246190ea54220576a848612c3381613b63565b60005b8251811015612c7357612c62838281518110612c5557612c54616d52565b5b6020026020010151614655565b80612c6c90616db5565b9050612c36565b505050565b612c89612c8361370a565b836137cb565b612cc8576040517f08c379a0000000000000000000000000000000000000000000000000000000008152600401612cbf90616995565b60405180910390fd5b612cd48484848461466a565b50505050565b6101c360009054906101000a900473ffffffffffffffffffffffffffffffffffffffff1681565b6000612d0e6101ca6144a7565b905090565b7fa49807205ce4d355092ef5a8a18f56e8913cf4a201fbe287825b095693c21775612d3d81613b63565b73__$afec012158ebc01e771e0b8521b3c90181$__637a17125987878787876040518663ffffffff1660e01b8152600401612d7c9594939291906175f1565b602060405180830381865af4158015612d99573d6000803e3d6000fd5b505050506040513d601f19601f82011682018060405250810190612dbd9190616c51565b50505050505050565b6060612dd061440e565b73ffffffffffffffffffffffffffffffffffffffff1663a0da06b530846040518363ffffffff1660e01b8152600401612e0a929190615acd565b600060405180830381865afa158015612e27573d6000803e3d6000fd5b505050506040513d6000823e3d601f19601f82011682018060405250810190612e5091906176af565b9050919050565b612e60826110eb565b612e6981613b63565b612e738383613c58565b505050565b7fb0a2731da0d1e322a29f18fc41490da7914e8245c4e7d00155b630b2fbe50293612ea281613b63565b816101c7819055505050565b6101d05481565b7fb0a2731da0d1e322a29f18fc41490da7914e8245c4e7d00155b630b2fbe50293612edf81613b63565b816101c6819055505050565b6000609c60008473ffffffffffffffffffffffffffffffffffffffff1673ffffffffffffffffffffffffffffffffffffffff16815260200190815260200160002060008373ffffffffffffffffffffffffffffffffffffffff1673ffffffffffffffffffffffffffffffffffffffff16815260200190815260200160002060009054906101000a900460ff16905092915050565b6101c560009054906101000a900473ffffffffffffffffffffffffffffffffffffffff1681565b6101cc6020528160005260406000208181548110612fc357600080fd5b90600052602060002001600091509150505481565b612fe06142f7565b600073ffffffffffffffffffffffffffffffffffffffff168173ffffffffffffffffffffffffffffffffffffffff160361304f576040517f08c379a00000000000000000000000000000000000000000000000000000000081526004016130469061776a565b60405180910390fd5b6130588161404f565b50565b6000339050836101d260008473ffffffffffffffffffffffffffffffffffffffff1673ffffffffffffffffffffffffffffffffffffffff1681526020019081526020016000205410156130e3576040517f08c379a00000000000000000000000000000000000000000000000000000000081526004016130da906177fc565b60405180910390fd5b6101c754421015613129576040517f08c379a000000000000000000000000000000000000000000000000000000000815260040161312090617868565b60405180910390fd5b6101c85442111561316f576040517f08c379a0000000000000000000000000000000000000000000000000000000008152600401613166906178d4565b60405180910390fd5b60006101cd541115613204576101cd546101cc60008473ffffffffffffffffffffffffffffffffffffffff1673ffffffffffffffffffffffffffffffffffffffff1681526020019081526020016000208054905010613203576040517f08c379a00000000000000000000000000000000000000000000000000000000081526004016131fa90617940565b60405180910390fd5b5b600061320e61440e565b73ffffffffffffffffffffffffffffffffffffffff166386c2b83d30866040518363ffffffff1660e01b815260040161324892919061721f565b606060405180830381865afa158015613265573d6000803e3d6000fd5b505050506040513d601f19601f8201168201806040525081019061328991906172c6565b905060008160200151116132d2576040517f08c379a00000000000000000000000000000000000000000000000000000000081526004016132c99061733f565b60405180910390fd5b60006101cb60008660ff1660ff168152602001908152602001600020549050600086826132ff9190616d81565b90508083602001511015613348576040517f08c379a000000000000000000000000000000000000000000000000000000000815260040161333f906173ab565b60405180910390fd5b600087846040015161335a91906169e4565b90506101c960009054906101000a900473ffffffffffffffffffffffffffffffffffffffff1673ffffffffffffffffffffffffffffffffffffffff166370a08231866040518263ffffffff1660e01b81526004016133b89190615896565b602060405180830381865afa1580156133d5573d6000803e3d6000fd5b505050506040513d601f19601f820116820180604052508101906133f99190616c51565b81111561343b576040517f08c379a0000000000000000000000000000000000000000000000000000000008152600401613432906179d2565b60405180910390fd5b6101c960009054906101000a900473ffffffffffffffffffffffffffffffffffffffff1673ffffffffffffffffffffffffffffffffffffffff166323b872dd866101c560009054906101000a900473ffffffffffffffffffffffffffffffffffffffff16846040518463ffffffff1660e01b81526004016134be939291906179f2565b6020604051808303816000875af11580156134dd573d6000803e3d6000fd5b505050506040513d601f19601f820116820180604052508101906135019190616c93565b50876101d260008873ffffffffffffffffffffffffffffffffffffffff1673ffffffffffffffffffffffffffffffffffffffff16815260200190815260200160002060008282546135529190617a29565b92505081905550876101d1600082825461356c9190616d81565b92505081905550816101cb60008960ff1660ff1681526020019081526020016000208190555060005b888110156136a25760006135aa6101ca6144a7565b90506135b76101ca6144b5565b6135c188826144cb565b6101cc60008973ffffffffffffffffffffffffffffffffffffffff1673ffffffffffffffffffffffffffffffffffffffff168152602001908152602001600020819080600181540180825580915050600190039060005260206000200160009091909190915055886101ce600083815260200190815260200160002060006101000a81548160ff021916908360ff1602179055507fd5054ba42059be88c66c1a10236e5a0cea44d10897996e6040b6f41c57be134288828b604051613688939291906173fc565b60405180910390a1508061369b90616db5565b9050613595565b505050505050505050565b60006136b8826146c6565b9050919050565b6136c881614740565b613707576040517f08c379a00000000000000000000000000000000000000000000000000000000081526004016136fe90616fc3565b60405180910390fd5b50565b600033905090565b81609b600083815260200190815260200160002060006101000a81548173ffffffffffffffffffffffffffffffffffffffff021916908373ffffffffffffffffffffffffffffffffffffffff160217905550808273ffffffffffffffffffffffffffffffffffffffff1661378583611e63565b73ffffffffffffffffffffffffffffffffffffffff167f8c5be1e5ebec7d5bd14f71427d1e84f3dd0314c0f7b2291e5b200ac8c7c3b92560405160405180910390a45050565b6000806137d783611e63565b90508073ffffffffffffffffffffffffffffffffffffffff168473ffffffffffffffffffffffffffffffffffffffff16148061381957506138188185612eeb565b5b8061385757508373ffffffffffffffffffffffffffffffffffffffff1661383f84610f2e565b73ffffffffffffffffffffffffffffffffffffffff16145b91505092915050565b8273ffffffffffffffffffffffffffffffffffffffff1661388082611e63565b73ffffffffffffffffffffffffffffffffffffffff16146138d6576040517f08c379a00000000000000000000000000000000000000000000000000000000081526004016138cd90617acf565b60405180910390fd5b600073ffffffffffffffffffffffffffffffffffffffff168273ffffffffffffffffffffffffffffffffffffffff1603613945576040517f08c379a000000000000000000000000000000000000000000000000000000000815260040161393c90617b61565b60405180910390fd5b6139528383836001614781565b8273ffffffffffffffffffffffffffffffffffffffff1661397282611e63565b73ffffffffffffffffffffffffffffffffffffffff16146139c8576040517f08c379a00000000000000000000000000000000000000000000000000000000081526004016139bf90617acf565b60405180910390fd5b609b600082815260200190815260200160002060006101000a81549073ffffffffffffffffffffffffffffffffffffffff02191690556001609a60008573ffffffffffffffffffffffffffffffffffffffff1673ffffffffffffffffffffffffffffffffffffffff168152602001908152602001600020600082825403925050819055506001609a60008473ffffffffffffffffffffffffffffffffffffffff1673ffffffffffffffffffffffffffffffffffffffff16815260200190815260200160002060008282540192505081905550816099600083815260200190815260200160002060006101000a81548173ffffffffffffffffffffffffffffffffffffffff021916908373ffffffffffffffffffffffffffffffffffffffff160217905550808273ffffffffffffffffffffffffffffffffffffffff168473ffffffffffffffffffffffffffffffffffffffff167fddf252ad1be2c89b69c2b068fc378daa952ba7f163c4a11628f55a4df523b3ef60405160405180910390a4613b5483838360016148a7565b505050565b6000612710905090565b613b7481613b6f61370a565b6148ad565b50565b613b818282612253565b613c5457600160c9600084815260200190815260200160002060000160008373ffffffffffffffffffffffffffffffffffffffff1673ffffffffffffffffffffffffffffffffffffffff16815260200190815260200160002060006101000a81548160ff021916908315150217905550613bf961370a565b73ffffffffffffffffffffffffffffffffffffffff168173ffffffffffffffffffffffffffffffffffffffff16837f2f8788117e7eff1d82e926ec794901d17c78024a50270940304540a733656f0d60405160405180910390a45b5050565b613c628282612253565b15613d3657600060c9600084815260200190815260200160002060000160008373ffffffffffffffffffffffffffffffffffffffff1673ffffffffffffffffffffffffffffffffffffffff16815260200190815260200160002060006101000a81548160ff021916908315150217905550613cdb61370a565b73ffffffffffffffffffffffffffffffffffffffff168173ffffffffffffffffffffffffffffffffffffffff16837ff6391f5c32d9c69d2a47ea670b442974b53935d1edc7fd64eb21e047a839171b60405160405180910390a45b5050565b6000613d687f360894a13ba1a3210667c828492db98dca3e2076cc3735a920a3ca505d382bbc60001b614932565b60000160009054906101000a900473ffffffffffffffffffffffffffffffffffffffff16905090565b7fa49807205ce4d355092ef5a8a18f56e8913cf4a201fbe287825b095693c21775613dbb81613b63565b5050565b613deb7f4910fdfa16fed3260ed0e7147f7cc6da11a60208b5b9406d12a635614ffd914360001b61493c565b60000160009054906101000a900460ff1615613e0f57613e0a83614946565b613f28565b8273ffffffffffffffffffffffffffffffffffffffff166352d1902d6040518163ffffffff1660e01b8152600401602060405180830381865afa925050508015613e7757506040513d601f19601f82011682018060405250810190613e749190617b96565b60015b613eb6576040517f08c379a0000000000000000000000000000000000000000000000000000000008152600401613ead90617c35565b60405180910390fd5b7f360894a13ba1a3210667c828492db98dca3e2076cc3735a920a3ca505d382bbc60001b8114613f1b576040517f08c379a0000000000000000000000000000000000000000000000000000000008152600401613f1290617cc7565b60405180910390fd5b50613f278383836149ff565b5b505050565b6000808273ffffffffffffffffffffffffffffffffffffffff163b119050919050565b600060019054906101000a900460ff16613f9f576040517f08c379a0000000000000000000000000000000000000000000000000000000008152600401613f9690617d59565b60405180910390fd5b613fa98282614a2b565b5050565b600060019054906101000a900460ff16613ffc576040517f08c379a0000000000000000000000000000000000000000000000000000000008152600401613ff390617d59565b60405180910390fd5b565b600060019054906101000a900460ff1661404d576040517f08c379a000000000000000000000000000000000000000000000000000000000815260040161404490617d59565b60405180910390fd5b565b600061019160009054906101000a900473ffffffffffffffffffffffffffffffffffffffff1690508161019160006101000a81548173ffffffffffffffffffffffffffffffffffffffff021916908373ffffffffffffffffffffffffffffffffffffffff1602179055508173ffffffffffffffffffffffffffffffffffffffff168173ffffffffffffffffffffffffffffffffffffffff167f8be0079c531659141344cd1fd0a4f28419497f9722a3daafe3b4186f6b6457e060405160405180910390a35050565b6141218282613b77565b5050565b60006099600083815260200190815260200160002060009054906101000a900473ffffffffffffffffffffffffffffffffffffffff169050919050565b61416a613b59565b6bffffffffffffffffffffffff16816bffffffffffffffffffffffff1611156141c8576040517f08c379a00000000000000000000000000000000000000000000000000000000081526004016141bf90617deb565b60405180910390fd5b600073ffffffffffffffffffffffffffffffffffffffff168273ffffffffffffffffffffffffffffffffffffffff1603614237576040517f08c379a000000000000000000000000000000000000000000000000000000000815260040161422e90617e57565b60405180910390fd5b60405180604001604052808373ffffffffffffffffffffffffffffffffffffffff168152602001826bffffffffffffffffffffffff16815250606560008201518160000160006101000a81548173ffffffffffffffffffffffffffffffffffffffff021916908373ffffffffffffffffffffffffffffffffffffffff16021790555060208201518160000160146101000a8154816bffffffffffffffffffffffff02191690836bffffffffffffffffffffffff1602179055509050505050565b6142ff61370a565b73ffffffffffffffffffffffffffffffffffffffff1661431d612184565b73ffffffffffffffffffffffffffffffffffffffff1614614373576040517f08c379a000000000000000000000000000000000000000000000000000000000815260040161436a90617ec3565b60405180910390fd5b565b60006101d460009054906101000a900473ffffffffffffffffffffffffffffffffffffffff1673ffffffffffffffffffffffffffffffffffffffff166371efede96040518163ffffffff1660e01b8152600401602060405180830381865afa1580156143e5573d6000803e3d6000fd5b505050506040513d601f19601f820116820180604052508101906144099190617ef8565b905090565b60006101d460009054906101000a900473ffffffffffffffffffffffffffffffffffffffff1673ffffffffffffffffffffffffffffffffffffffff16639ee984ba6040518163ffffffff1660e01b8152600401602060405180830381865afa15801561447e573d6000803e3d6000fd5b505050506040513d601f19601f820116820180604052508101906144a29190617ef8565b905090565b600081600001549050919050565b6001816000016000828254019250508190555050565b6144e5828260405180602001604052806000815250614a9e565b5050565b8173ffffffffffffffffffffffffffffffffffffffff168373ffffffffffffffffffffffffffffffffffffffff1603614557576040517f08c379a000000000000000000000000000000000000000000000000000000000815260040161454e90617f71565b60405180910390fd5b80609c60008573ffffffffffffffffffffffffffffffffffffffff1673ffffffffffffffffffffffffffffffffffffffff16815260200190815260200160002060008473ffffffffffffffffffffffffffffffffffffffff1673ffffffffffffffffffffffffffffffffffffffff16815260200190815260200160002060006101000a81548160ff0219169083151502179055508173ffffffffffffffffffffffffffffffffffffffff168373ffffffffffffffffffffffffffffffffffffffff167f17307eab39ab6107e8899845ad3d59bd9653f200f220920489ca2b5937696c31836040516146489190615725565b60405180910390a3505050565b61465e81614af9565b61466781614b0e565b50565b614675848484613860565b61468184848484614b6d565b6146c0576040517f08c379a00000000000000000000000000000000000000000000000000000000081526004016146b790618003565b60405180910390fd5b50505050565b60007f7965db0b000000000000000000000000000000000000000000000000000000007bffffffffffffffffffffffffffffffffffffffffffffffffffffffff1916827bffffffffffffffffffffffffffffffffffffffffffffffffffffffff19161480614739575061473882614cf4565b5b9050919050565b60008073ffffffffffffffffffffffffffffffffffffffff1661476283614125565b73ffffffffffffffffffffffffffffffffffffffff1614159050919050565b60018111156148a157600073ffffffffffffffffffffffffffffffffffffffff168473ffffffffffffffffffffffffffffffffffffffff16146148155780609a60008673ffffffffffffffffffffffffffffffffffffffff1673ffffffffffffffffffffffffffffffffffffffff168152602001908152602001600020600082825461480d9190617a29565b925050819055505b600073ffffffffffffffffffffffffffffffffffffffff168373ffffffffffffffffffffffffffffffffffffffff16146148a05780609a60008573ffffffffffffffffffffffffffffffffffffffff1673ffffffffffffffffffffffffffffffffffffffff16815260200190815260200160002060008282546148989190616d81565b925050819055505b5b50505050565b50505050565b6148b78282612253565b61492e576148c481614dd6565b6148d28360001c6020614e03565b6040516020016148e39291906180f7565b6040516020818303038152906040526040517f08c379a000000000000000000000000000000000000000000000000000000000815260040161492591906157d0565b60405180910390fd5b5050565b6000819050919050565b6000819050919050565b61494f81613f2d565b61498e576040517f08c379a0000000000000000000000000000000000000000000000000000000008152600401614985906181a3565b60405180910390fd5b806149bb7f360894a13ba1a3210667c828492db98dca3e2076cc3735a920a3ca505d382bbc60001b614932565b60000160006101000a81548173ffffffffffffffffffffffffffffffffffffffff021916908373ffffffffffffffffffffffffffffffffffffffff16021790555050565b614a088361503f565b600082511180614a155750805b15614a2657614a24838361508e565b505b505050565b600060019054906101000a900460ff16614a7a576040517f08c379a0000000000000000000000000000000000000000000000000000000008152600401614a7190617d59565b60405180910390fd5b8160979081614a899190618365565b508060989081614a999190618365565b505050565b614aa88383615172565b614ab56000848484614b6d565b614af4576040517f08c379a0000000000000000000000000000000000000000000000000000000008152600401614aeb90618003565b60405180910390fd5b505050565b614b028161538f565b614b0b81614b0e565b50565b60666000828152602001908152602001600020600080820160006101000a81549073ffffffffffffffffffffffffffffffffffffffff02191690556000820160146101000a8154906bffffffffffffffffffffffff0219169055505050565b6000614b8e8473ffffffffffffffffffffffffffffffffffffffff16613f2d565b15614ce7578373ffffffffffffffffffffffffffffffffffffffff1663150b7a02614bb761370a565b8786866040518563ffffffff1660e01b8152600401614bd9949392919061848c565b6020604051808303816000875af1925050508015614c1557506040513d601f19601f82011682018060405250810190614c1291906184ed565b60015b614c97573d8060008114614c45576040519150601f19603f3d011682016040523d82523d6000602084013e614c4a565b606091505b506000815103614c8f576040517f08c379a0000000000000000000000000000000000000000000000000000000008152600401614c8690618003565b60405180910390fd5b805181602001fd5b63150b7a0260e01b7bffffffffffffffffffffffffffffffffffffffffffffffffffffffff1916817bffffffffffffffffffffffffffffffffffffffffffffffffffffffff191614915050614cec565b600190505b949350505050565b60007f80ac58cd000000000000000000000000000000000000000000000000000000007bffffffffffffffffffffffffffffffffffffffffffffffffffffffff1916827bffffffffffffffffffffffffffffffffffffffffffffffffffffffff19161480614dbf57507f5b5e139f000000000000000000000000000000000000000000000000000000007bffffffffffffffffffffffffffffffffffffffffffffffffffffffff1916827bffffffffffffffffffffffffffffffffffffffffffffffffffffffff1916145b80614dcf5750614dce826154dd565b5b9050919050565b6060614dfc8273ffffffffffffffffffffffffffffffffffffffff16601460ff16614e03565b9050919050565b606060006002836002614e1691906169e4565b614e209190616d81565b67ffffffffffffffff811115614e3957614e38615c2c565b5b6040519080825280601f01601f191660200182016040528015614e6b5781602001600182028036833780820191505090505b5090507f300000000000000000000000000000000000000000000000000000000000000081600081518110614ea357614ea2616d52565b5b60200101907effffffffffffffffffffffffffffffffffffffffffffffffffffffffffffff1916908160001a9053507f780000000000000000000000000000000000000000000000000000000000000081600181518110614f0757614f06616d52565b5b60200101907effffffffffffffffffffffffffffffffffffffffffffffffffffffffffffff1916908160001a90535060006001846002614f4791906169e4565b614f519190616d81565b90505b6001811115614ff1577f3031323334353637383961626364656600000000000000000000000000000000600f861660108110614f9357614f92616d52565b5b1a60f81b828281518110614faa57614fa9616d52565b5b60200101907effffffffffffffffffffffffffffffffffffffffffffffffffffffffffffff1916908160001a905350600485901c945080614fea9061851a565b9050614f54565b5060008414615035576040517f08c379a000000000000000000000000000000000000000000000000000000000815260040161502c9061858f565b60405180910390fd5b8091505092915050565b61504881614946565b8073ffffffffffffffffffffffffffffffffffffffff167fbc7cd75a20ee27fd9adebab32041f755214dbc6bffa90cc0225b39da2e5c2d3b60405160405180910390a250565b606061509983613f2d565b6150d8576040517f08c379a00000000000000000000000000000000000000000000000000000000081526004016150cf90618621565b60405180910390fd5b6000808473ffffffffffffffffffffffffffffffffffffffff1684604051615100919061867d565b600060405180830381855af49150503d806000811461513b576040519150601f19603f3d011682016040523d82523d6000602084013e615140565b606091505b5091509150615168828260405180606001604052806027815260200161876d60279139615557565b9250505092915050565b600073ffffffffffffffffffffffffffffffffffffffff168273ffffffffffffffffffffffffffffffffffffffff16036151e1576040517f08c379a00000000000000000000000000000000000000000000000000000000081526004016151d8906186e0565b60405180910390fd5b6151ea81614740565b1561522a576040517f08c379a00000000000000000000000000000000000000000000000000000000081526004016152219061874c565b60405180910390fd5b615238600083836001614781565b61524181614740565b15615281576040517f08c379a00000000000000000000000000000000000000000000000000000000081526004016152789061874c565b60405180910390fd5b6001609a60008473ffffffffffffffffffffffffffffffffffffffff1673ffffffffffffffffffffffffffffffffffffffff16815260200190815260200160002060008282540192505081905550816099600083815260200190815260200160002060006101000a81548173ffffffffffffffffffffffffffffffffffffffff021916908373ffffffffffffffffffffffffffffffffffffffff160217905550808273ffffffffffffffffffffffffffffffffffffffff16600073ffffffffffffffffffffffffffffffffffffffff167fddf252ad1be2c89b69c2b068fc378daa952ba7f163c4a11628f55a4df523b3ef60405160405180910390a461538b6000838360016148a7565b5050565b600061539a82611e63565b90506153aa816000846001614781565b6153b382611e63565b9050609b600083815260200190815260200160002060006101000a81549073ffffffffffffffffffffffffffffffffffffffff02191690556001609a60008373ffffffffffffffffffffffffffffffffffffffff1673ffffffffffffffffffffffffffffffffffffffff168152602001908152602001600020600082825403925050819055506099600083815260200190815260200160002060006101000a81549073ffffffffffffffffffffffffffffffffffffffff021916905581600073ffffffffffffffffffffffffffffffffffffffff168273ffffffffffffffffffffffffffffffffffffffff167fddf252ad1be2c89b69c2b068fc378daa952ba7f163c4a11628f55a4df523b3ef60405160405180910390a46154d98160008460016148a7565b5050565b60007f2a55205a000000000000000000000000000000000000000000000000000000007bffffffffffffffffffffffffffffffffffffffffffffffffffffffff1916827bffffffffffffffffffffffffffffffffffffffffffffffffffffffff19161480615550575061554f82615579565b5b9050919050565b6060831561556757829050615572565b61557183836155e3565b5b9392505050565b60007f01ffc9a7000000000000000000000000000000000000000000000000000000007bffffffffffffffffffffffffffffffffffffffffffffffffffffffff1916827bffffffffffffffffffffffffffffffffffffffffffffffffffffffff1916149050919050565b6000825111156155f65781518083602001fd5b806040517f08c379a000000000000000000000000000000000000000000000000000000000815260040161562a91906157d0565b60405180910390fd5b604051806040016040528060008152602001600081525090565b6040518060600160405280600060ff16815260200160008152602001600081525090565b6000604051905090565b600080fd5b600080fd5b60007fffffffff0000000000000000000000000000000000000000000000000000000082169050919050565b6156ba81615685565b81146156c557600080fd5b50565b6000813590506156d7816156b1565b92915050565b6000602082840312156156f3576156f261567b565b5b6000615701848285016156c8565b91505092915050565b60008115159050919050565b61571f8161570a565b82525050565b600060208201905061573a6000830184615716565b92915050565b600081519050919050565b600082825260208201905092915050565b60005b8381101561577a57808201518184015260208101905061575f565b60008484015250505050565b6000601f19601f8301169050919050565b60006157a282615740565b6157ac818561574b565b93506157bc81856020860161575c565b6157c581615786565b840191505092915050565b600060208201905081810360008301526157ea8184615797565b905092915050565b6000819050919050565b615805816157f2565b811461581057600080fd5b50565b600081359050615822816157fc565b92915050565b60006020828403121561583e5761583d61567b565b5b600061584c84828501615813565b91505092915050565b600073ffffffffffffffffffffffffffffffffffffffff82169050919050565b600061588082615855565b9050919050565b61589081615875565b82525050565b60006020820190506158ab6000830184615887565b92915050565b6158ba81615875565b81146158c557600080fd5b50565b6000813590506158d7816158b1565b92915050565b600080604083850312156158f4576158f361567b565b5b6000615902858286016158c8565b925050602061591385828601615813565b9150509250929050565b6000806000606084860312156159365761593561567b565b5b6000615944868287016158c8565b9350506020615955868287016158c8565b925050604061596686828701615813565b9150509250925092565b6000819050919050565b61598381615970565b811461598e57600080fd5b50565b6000813590506159a08161597a565b92915050565b6000602082840312156159bc576159bb61567b565b5b60006159ca84828501615991565b91505092915050565b6159dc81615970565b82525050565b60006020820190506159f760008301846159d3565b92915050565b600060ff82169050919050565b615a13816159fd565b8114615a1e57600080fd5b50565b600081359050615a3081615a0a565b92915050565b600060208284031215615a4c57615a4b61567b565b5b6000615a5a84828501615a21565b91505092915050565b615a6c816157f2565b82525050565b6000602082019050615a876000830184615a63565b92915050565b60008060408385031215615aa457615aa361567b565b5b6000615ab285828601615813565b9250506020615ac385828601615813565b9150509250929050565b6000604082019050615ae26000830185615887565b615aef6020830184615a63565b9392505050565b600060208284031215615b0c57615b0b61567b565b5b6000615b1a848285016158c8565b91505092915050565b60008060408385031215615b3a57615b3961567b565b5b6000615b4885828601615991565b9250506020615b59858286016158c8565b9150509250929050565b6000615b6e82615875565b9050919050565b615b7e81615b63565b8114615b8957600080fd5b50565b600081359050615b9b81615b75565b92915050565b600060208284031215615bb757615bb661567b565b5b6000615bc584828501615b8c565b91505092915050565b615bd78161570a565b8114615be257600080fd5b50565b600081359050615bf481615bce565b92915050565b600060208284031215615c1057615c0f61567b565b5b6000615c1e84828501615be5565b91505092915050565b600080fd5b7f4e487b7100000000000000000000000000000000000000000000000000000000600052604160045260246000fd5b615c6482615786565b810181811067ffffffffffffffff82111715615c8357615c82615c2c565b5b80604052505050565b6000615c96615671565b9050615ca28282615c5b565b919050565b600067ffffffffffffffff821115615cc257615cc1615c2c565b5b602082029050602081019050919050565b600080fd5b6000615ceb615ce684615ca7565b615c8c565b90508083825260208201905060208402830185811115615d0e57615d0d615cd3565b5b835b81811015615d375780615d2388826158c8565b845260208401935050602081019050615d10565b5050509392505050565b600082601f830112615d5657615d55615c27565b5b8135615d66848260208601615cd8565b91505092915050565b600067ffffffffffffffff821115615d8a57615d89615c2c565b5b602082029050602081019050919050565b6000615dae615da984615d6f565b615c8c565b90508083825260208201905060208402830185811115615dd157615dd0615cd3565b5b835b81811015615dfa5780615de68882615813565b845260208401935050602081019050615dd3565b5050509392505050565b600082601f830112615e1957615e18615c27565b5b8135615e29848260208601615d9b565b91505092915050565b60008060408385031215615e4957615e4861567b565b5b600083013567ffffffffffffffff811115615e6757615e66615680565b5b615e7385828601615d41565b925050602083013567ffffffffffffffff811115615e9457615e93615680565b5b615ea085828601615e04565b9150509250929050565b600080fd5b600067ffffffffffffffff821115615eca57615ec9615c2c565b5b615ed382615786565b9050602081019050919050565b82818337600083830152505050565b6000615f02615efd84615eaf565b615c8c565b905082815260208101848484011115615f1e57615f1d615eaa565b5b615f29848285615ee0565b509392505050565b600082601f830112615f4657615f45615c27565b5b8135615f56848260208601615eef565b91505092915050565b60008060408385031215615f7657615f7561567b565b5b6000615f84858286016158c8565b925050602083013567ffffffffffffffff811115615fa557615fa4615680565b5b615fb185828601615f31565b9150509250929050565b600067ffffffffffffffff821115615fd657615fd5615c2c565b5b615fdf82615786565b9050602081019050919050565b6000615fff615ffa84615fbb565b615c8c565b90508281526020810184848401111561601b5761601a615eaa565b5b616026848285615ee0565b509392505050565b600082601f83011261604357616042615c27565b5b8135616053848260208601615fec565b91505092915050565b600080600080600080600060e0888a03121561607b5761607a61567b565b5b60006160898a828b016158c8565b975050602061609a8a828b016158c8565b96505060406160ab8a828b01615b8c565b955050606088013567ffffffffffffffff8111156160cc576160cb615680565b5b6160d88a828b0161602e565b945050608088013567ffffffffffffffff8111156160f9576160f8615680565b5b6161058a828b0161602e565b93505060a06161168a828b016158c8565b92505060c06161278a828b016158c8565b91505092959891949750929550565b6000819050919050565b600061615b61615661615184615855565b616136565b615855565b9050919050565b600061616d82616140565b9050919050565b600061617f82616162565b9050919050565b61618f81616174565b82525050565b60006020820190506161aa6000830184616186565b92915050565b600081519050919050565b600082825260208201905092915050565b6000819050602082019050919050565b6161e5816157f2565b82525050565b60006161f783836161dc565b60208301905092915050565b6000602082019050919050565b600061621b826161b0565b61622581856161bb565b9350616230836161cc565b8060005b8381101561626157815161624888826161eb565b975061625383616203565b925050600181019050616234565b5085935050505092915050565b600060208201905081810360008301526162888184616210565b905092915050565b60006bffffffffffffffffffffffff82169050919050565b6162b181616290565b81146162bc57600080fd5b50565b6000813590506162ce816162a8565b92915050565b600080604083850312156162eb576162ea61567b565b5b60006162f9858286016158c8565b925050602061630a858286016162bf565b9150509250929050565b600080fd5b60008083601f84011261632f5761632e615c27565b5b8235905067ffffffffffffffff81111561634c5761634b616314565b5b60208301915083600182028301111561636857616367615cd3565b5b9250929050565b6002811061637c57600080fd5b50565b60008135905061638e8161636f565b92915050565b60008060008060008060a087890312156163b1576163b061567b565b5b60006163bf89828a016158c8565b96505060206163d089828a01615813565b95505060406163e189828a01615813565b945050606087013567ffffffffffffffff81111561640257616401615680565b5b61640e89828a01616319565b9350935050608061642189828a0161637f565b9150509295509295509295565b60008083601f84011261644457616443615c27565b5b8235905067ffffffffffffffff81111561646157616460616314565b5b60208301915083600182028301111561647d5761647c615cd3565b5b9250929050565b6000806000806000608086880312156164a05761649f61567b565b5b60006164ae88828901615813565b95505060206164bf88828901615a21565b94505060406164d0888289016158c8565b935050606086013567ffffffffffffffff8111156164f1576164f0615680565b5b6164fd8882890161642e565b92509250509295509295909350565b6000806000606084860312156165255761652461567b565b5b600061653386828701615813565b935050602061654486828701615a21565b9250506040616555868287016158c8565b9150509250925092565b600080604083850312156165765761657561567b565b5b6000616584858286016158c8565b925050602061659585828601615be5565b9150509250929050565b6165a8816159fd565b82525050565b6060820160008201516165c4600085018261659f565b5060208201516165d760208501826161dc565b5060408201516165ea60408501826161dc565b50505050565b600060608201905061660560008301846165ae565b92915050565b6000602082840312156166215761662061567b565b5b600082013567ffffffffffffffff81111561663f5761663e615680565b5b61664b84828501615e04565b91505092915050565b6000806000806080858703121561666e5761666d61567b565b5b600061667c878288016158c8565b945050602061668d878288016158c8565b935050604061669e87828801615813565b925050606085013567ffffffffffffffff8111156166bf576166be615680565b5b6166cb87828801615f31565b91505092959194509250565b6000806000806000608086880312156166f3576166f261567b565b5b6000616701888289016158c8565b955050602061671288828901615813565b945050604086013567ffffffffffffffff81111561673357616732615680565b5b61673f88828901616319565b935093505060606167528882890161637f565b9150509295509295909350565b600080604083850312156167765761677561567b565b5b6000616784858286016158c8565b9250506020616795858286016158c8565b9150509250929050565b7f4e487b7100000000000000000000000000000000000000000000000000000000600052602260045260246000fd5b600060028204905060018216806167e657607f821691505b6020821081036167f9576167f861679f565b5b50919050565b7f4552433732313a20617070726f76616c20746f2063757272656e74206f776e6560008201527f7200000000000000000000000000000000000000000000000000000000000000602082015250565b600061685b60218361574b565b9150616866826167ff565b604082019050919050565b6000602082019050818103600083015261688a8161684e565b9050919050565b7f4552433732313a20617070726f76652063616c6c6572206973206e6f7420746f60008201527f6b656e206f776e6572206f7220617070726f76656420666f7220616c6c000000602082015250565b60006168ed603d8361574b565b91506168f882616891565b604082019050919050565b6000602082019050818103600083015261691c816168e0565b9050919050565b7f4552433732313a2063616c6c6572206973206e6f7420746f6b656e206f776e6560008201527f72206f7220617070726f76656400000000000000000000000000000000000000602082015250565b600061697f602d8361574b565b915061698a82616923565b604082019050919050565b600060208201905081810360008301526169ae81616972565b9050919050565b7f4e487b7100000000000000000000000000000000000000000000000000000000600052601160045260246000fd5b60006169ef826157f2565b91506169fa836157f2565b9250828202616a08816157f2565b91508282048414831517616a1f57616a1e6169b5565b5b5092915050565b7f4e487b7100000000000000000000000000000000000000000000000000000000600052601260045260246000fd5b6000616a60826157f2565b9150616a6b836157f2565b925082616a7b57616a7a616a26565b5b828204905092915050565b7f416363657373436f6e74726f6c3a2063616e206f6e6c792072656e6f756e636560008201527f20726f6c657320666f722073656c660000000000000000000000000000000000602082015250565b6000616ae2602f8361574b565b9150616aed82616a86565b604082019050919050565b60006020820190508181036000830152616b1181616ad5565b9050919050565b7f46756e6374696f6e206d7573742062652063616c6c6564207468726f7567682060008201527f64656c656761746563616c6c0000000000000000000000000000000000000000602082015250565b6000616b74602c8361574b565b9150616b7f82616b18565b604082019050919050565b60006020820190508181036000830152616ba381616b67565b9050919050565b7f46756e6374696f6e206d7573742062652063616c6c6564207468726f7567682060008201527f6163746976652070726f78790000000000000000000000000000000000000000602082015250565b6000616c06602c8361574b565b9150616c1182616baa565b604082019050919050565b60006020820190508181036000830152616c3581616bf9565b9050919050565b600081519050616c4b816157fc565b92915050565b600060208284031215616c6757616c6661567b565b5b6000616c7584828501616c3c565b91505092915050565b600081519050616c8d81615bce565b92915050565b600060208284031215616ca957616ca861567b565b5b6000616cb784828501616c7e565b91505092915050565b7f57686974656c69737420616e642062757961626c6520616d6f756e74206c697360008201527f74206d7573742062652073616d65206c656e6774680000000000000000000000602082015250565b6000616d1c60358361574b565b9150616d2782616cc0565b604082019050919050565b60006020820190508181036000830152616d4b81616d0f565b9050919050565b7f4e487b7100000000000000000000000000000000000000000000000000000000600052603260045260246000fd5b6000616d8c826157f2565b9150616d97836157f2565b9250828201905080821115616daf57616dae6169b5565b5b92915050565b6000616dc0826157f2565b91507fffffffffffffffffffffffffffffffffffffffffffffffffffffffffffffffff8203616df257616df16169b5565b5b600182019050919050565b7f555550535570677261646561626c653a206d757374206e6f742062652063616c60008201527f6c6564207468726f7567682064656c656761746563616c6c0000000000000000602082015250565b6000616e5960388361574b565b9150616e6482616dfd565b604082019050919050565b60006020820190508181036000830152616e8881616e4c565b9050919050565b7f496e697469616c697a61626c653a20636f6e747261637420697320616c72656160008201527f647920696e697469616c697a6564000000000000000000000000000000000000602082015250565b6000616eeb602e8361574b565b9150616ef682616e8f565b604082019050919050565b60006020820190508181036000830152616f1a81616ede565b9050919050565b6000819050919050565b6000616f46616f41616f3c84616f21565b616136565b6159fd565b9050919050565b616f5681616f2b565b82525050565b6000602082019050616f716000830184616f4d565b92915050565b7f4552433732313a20696e76616c696420746f6b656e2049440000000000000000600082015250565b6000616fad60188361574b565b9150616fb882616f77565b602082019050919050565b60006020820190508181036000830152616fdc81616fa0565b9050919050565b7f4552433732313a2061646472657373207a65726f206973206e6f74206120766160008201527f6c6964206f776e65720000000000000000000000000000000000000000000000602082015250565b600061703f60298361574b565b915061704a82616fe3565b604082019050919050565b6000602082019050818103600083015261706e81617032565b9050919050565b61707e81615875565b82525050565b61708d816157f2565b82525050565b600082825260208201905092915050565b60006170b08385617093565b93506170bd838584615ee0565b6170c683615786565b840190509392505050565b7f4e487b7100000000000000000000000000000000000000000000000000000000600052602160045260246000fd5b60028110617111576171106170d1565b5b50565b600081905061712282617100565b919050565b600061713282617114565b9050919050565b61714281617127565b82525050565b600060a08201905061715d6000830189617075565b61716a6020830188617084565b6171776040830187617084565b818103606083015261718a8185876170a4565b90506171996080830184617139565b979650505050505050565b7f4e6f742062652063616c6c65642066726f6d20446161702043726561746f7200600082015250565b60006171da601f8361574b565b91506171e5826171a4565b602082019050919050565b60006020820190508181036000830152617209816171cd565b9050919050565b617219816159fd565b82525050565b60006040820190506172346000830185615887565b6172416020830184617210565b9392505050565b600080fd5b60008151905061725c81615a0a565b92915050565b60006060828403121561727857617277617248565b5b6172826060615c8c565b905060006172928482850161724d565b60008301525060206172a684828501616c3c565b60208301525060406172ba84828501616c3c565b60408301525092915050565b6000606082840312156172dc576172db61567b565b5b60006172ea84828501617262565b91505092915050565b7f546f6b656e207479706520646f6573206e6f7420657869737400000000000000600082015250565b600061732960198361574b565b9150617334826172f3565b602082019050919050565b600060208201905081810360008301526173588161731c565b9050919050565b7f4e4654207479706520736f6c64206f7574000000000000000000000000000000600082015250565b600061739560118361574b565b91506173a08261735f565b602082019050919050565b600060208201905081810360008301526173c481617388565b9050919050565b60006173e66173e16173dc846159fd565b616136565b6157f2565b9050919050565b6173f6816173cb565b82525050565b60006060820190506174116000830186615887565b61741e6020830185615a63565b61742b60408301846173ed565b949350505050565b600061743f838561574b565b935061744c838584615ee0565b61745583615786565b840190509392505050565b600081519050919050565b600082825260208201905092915050565b6000819050602082019050919050565b6040820160008201516174a260008501826161dc565b5060208201516174b560208501826161dc565b50505050565b60006174c7838361748c565b60408301905092915050565b6000602082019050919050565b60006174eb82617460565b6174f5818561746b565b93506175008361747c565b8060005b8381101561753157815161751888826174bb565b9750617523836174d3565b925050600181019050617504565b5085935050505092915050565b60006060820190508181036000830152617559818688617433565b90506175686020830185615887565b818103604083015261757a81846174e0565b905095945050505050565b7f4e6f20746f6b656e20746f206d696e7400000000000000000000000000000000600082015250565b60006175bb60108361574b565b91506175c682617585565b602082019050919050565b600060208201905081810360008301526175ea816175ae565b9050919050565b60006080820190506176066000830188617075565b6176136020830187617084565b81810360408301526176268185876170a4565b90506176356060830184617139565b9695505050505050565b600061765261764d84615fbb565b615c8c565b90508281526020810184848401111561766e5761766d615eaa565b5b61767984828561575c565b509392505050565b600082601f83011261769657617695615c27565b5b81516176a684826020860161763f565b91505092915050565b6000602082840312156176c5576176c461567b565b5b600082015167ffffffffffffffff8111156176e3576176e2615680565b5b6176ef84828501617681565b91505092915050565b7f4f776e61626c653a206e6577206f776e657220697320746865207a65726f206160008201527f6464726573730000000000000000000000000000000000000000000000000000602082015250565b600061775460268361574b565b915061775f826176f8565b604082019050919050565b6000602082019050818103600083015261778381617747565b9050919050565b7f55736572206e6f7420696e2077686974656c697374206f72206c696d6974207260008201527f6561636865640000000000000000000000000000000000000000000000000000602082015250565b60006177e660268361574b565b91506177f18261778a565b604082019050919050565b60006020820190508181036000830152617815816177d9565b9050919050565b7f49742773206e6f742074696d6520746f20627579207075626c69632073616c65600082015250565b600061785260208361574b565b915061785d8261781c565b602082019050919050565b6000602082019050818103600083015261788181617845565b9050919050565b7f49742773206e6f742074696d6520746f20627579000000000000000000000000600082015250565b60006178be60148361574b565b91506178c982617888565b602082019050919050565b600060208201905081810360008301526178ed816178b1565b9050919050565b7f427579206c696d69742072656163686564000000000000000000000000000000600082015250565b600061792a60118361574b565b9150617935826178f4565b602082019050919050565b600060208201905081810360008301526179598161791d565b9050919050565b7f55736572206e65656420686f6c6420656e6f75676820546f6b656e20746f206260008201527f75792074686973206e6674000000000000000000000000000000000000000000602082015250565b60006179bc602b8361574b565b91506179c782617960565b604082019050919050565b600060208201905081810360008301526179eb816179af565b9050919050565b6000606082019050617a076000830186615887565b617a146020830185615887565b617a216040830184615a63565b949350505050565b6000617a34826157f2565b9150617a3f836157f2565b9250828203905081811115617a5757617a566169b5565b5b92915050565b7f4552433732313a207472616e736665722066726f6d20696e636f72726563742060008201527f6f776e6572000000000000000000000000000000000000000000000000000000602082015250565b6000617ab960258361574b565b9150617ac482617a5d565b604082019050919050565b60006020820190508181036000830152617ae881617aac565b9050919050565b7f4552433732313a207472616e7366657220746f20746865207a65726f2061646460008201527f7265737300000000000000000000000000000000000000000000000000000000602082015250565b6000617b4b60248361574b565b9150617b5682617aef565b604082019050919050565b60006020820190508181036000830152617b7a81617b3e565b9050919050565b600081519050617b908161597a565b92915050565b600060208284031215617bac57617bab61567b565b5b6000617bba84828501617b81565b91505092915050565b7f45524331393637557067726164653a206e657720696d706c656d656e7461746960008201527f6f6e206973206e6f742055555053000000000000000000000000000000000000602082015250565b6000617c1f602e8361574b565b9150617c2a82617bc3565b604082019050919050565b60006020820190508181036000830152617c4e81617c12565b9050919050565b7f45524331393637557067726164653a20756e737570706f727465642070726f7860008201527f6961626c65555549440000000000000000000000000000000000000000000000602082015250565b6000617cb160298361574b565b9150617cbc82617c55565b604082019050919050565b60006020820190508181036000830152617ce081617ca4565b9050919050565b7f496e697469616c697a61626c653a20636f6e7472616374206973206e6f74206960008201527f6e697469616c697a696e67000000000000000000000000000000000000000000602082015250565b6000617d43602b8361574b565b9150617d4e82617ce7565b604082019050919050565b60006020820190508181036000830152617d7281617d36565b9050919050565b7f455243323938313a20726f79616c7479206665652077696c6c2065786365656460008201527f2073616c65507269636500000000000000000000000000000000000000000000602082015250565b6000617dd5602a8361574b565b9150617de082617d79565b604082019050919050565b60006020820190508181036000830152617e0481617dc8565b9050919050565b7f455243323938313a20696e76616c696420726563656976657200000000000000600082015250565b6000617e4160198361574b565b9150617e4c82617e0b565b602082019050919050565b60006020820190508181036000830152617e7081617e34565b9050919050565b7f4f776e61626c653a2063616c6c6572206973206e6f7420746865206f776e6572600082015250565b6000617ead60208361574b565b9150617eb882617e77565b602082019050919050565b60006020820190508181036000830152617edc81617ea0565b9050919050565b600081519050617ef2816158b1565b92915050565b600060208284031215617f0e57617f0d61567b565b5b6000617f1c84828501617ee3565b91505092915050565b7f4552433732313a20617070726f766520746f2063616c6c657200000000000000600082015250565b6000617f5b60198361574b565b9150617f6682617f25565b602082019050919050565b60006020820190508181036000830152617f8a81617f4e565b9050919050565b7f4552433732313a207472616e7366657220746f206e6f6e20455243373231526560008201527f63656976657220696d706c656d656e7465720000000000000000000000000000602082015250565b6000617fed60328361574b565b9150617ff882617f91565b604082019050919050565b6000602082019050818103600083015261801c81617fe0565b9050919050565b600081905092915050565b7f416363657373436f6e74726f6c3a206163636f756e7420000000000000000000600082015250565b6000618064601783618023565b915061806f8261802e565b601782019050919050565b600061808582615740565b61808f8185618023565b935061809f81856020860161575c565b80840191505092915050565b7f206973206d697373696e6720726f6c6520000000000000000000000000000000600082015250565b60006180e1601183618023565b91506180ec826180ab565b601182019050919050565b600061810282618057565b915061810e828561807a565b9150618119826180d4565b9150618125828461807a565b91508190509392505050565b7f455243313936373a206e657720696d706c656d656e746174696f6e206973206e60008201527f6f74206120636f6e747261637400000000000000000000000000000000000000602082015250565b600061818d602d8361574b565b915061819882618131565b604082019050919050565b600060208201905081810360008301526181bc81618180565b9050919050565b60008190508160005260206000209050919050565b60006020601f8301049050919050565b600082821b905092915050565b6000600883026182257fffffffffffffffffffffffffffffffffffffffffffffffffffffffffffffffff826181e8565b61822f86836181e8565b95508019841693508086168417925050509392505050565b600061826261825d618258846157f2565b616136565b6157f2565b9050919050565b6000819050919050565b61827c83618247565b61829061828882618269565b8484546181f5565b825550505050565b600090565b6182a5618298565b6182b0818484618273565b505050565b5b818110156182d4576182c960008261829d565b6001810190506182b6565b5050565b601f821115618319576182ea816181c3565b6182f3846181d8565b81016020851015618302578190505b61831661830e856181d8565b8301826182b5565b50505b505050565b600082821c905092915050565b600061833c6000198460080261831e565b1980831691505092915050565b6000618355838361832b565b9150826002028217905092915050565b61836e82615740565b67ffffffffffffffff81111561838757618386615c2c565b5b61839182546167ce565b61839c8282856182d8565b600060209050601f8311600181146183cf57600084156183bd578287015190505b6183c78582618349565b86555061842f565b601f1984166183dd866181c3565b60005b82811015618405578489015182556001820191506020850194506020810190506183e0565b86831015618422578489015161841e601f89168261832b565b8355505b6001600288020188555050505b505050505050565b600081519050919050565b600082825260208201905092915050565b600061845e82618437565b6184688185618442565b935061847881856020860161575c565b61848181615786565b840191505092915050565b60006080820190506184a16000830187615887565b6184ae6020830186615887565b6184bb6040830185615a63565b81810360608301526184cd8184618453565b905095945050505050565b6000815190506184e7816156b1565b92915050565b6000602082840312156185035761850261567b565b5b6000618511848285016184d8565b91505092915050565b6000618525826157f2565b915060008203618538576185376169b5565b5b600182039050919050565b7f537472696e67733a20686578206c656e67746820696e73756666696369656e74600082015250565b600061857960208361574b565b915061858482618543565b602082019050919050565b600060208201905081810360008301526185a88161856c565b9050919050565b7f416464726573733a2064656c65676174652063616c6c20746f206e6f6e2d636f60008201527f6e74726163740000000000000000000000000000000000000000000000000000602082015250565b600061860b60268361574b565b9150618616826185af565b604082019050919050565b6000602082019050818103600083015261863a816185fe565b9050919050565b600081905092915050565b600061865782618437565b6186618185618641565b935061867181856020860161575c565b80840191505092915050565b6000618689828461864c565b915081905092915050565b7f4552433732313a206d696e7420746f20746865207a65726f2061646472657373600082015250565b60006186ca60208361574b565b91506186d582618694565b602082019050919050565b600060208201905081810360008301526186f9816186bd565b9050919050565b7f4552433732313a20746f6b656e20616c7265616479206d696e74656400000000600082015250565b6000618736601c8361574b565b915061874182618700565b602082019050919050565b6000602082019050818103600083015261876581618729565b905091905056fe416464726573733a206c6f772d6c6576656c2064656c65676174652063616c6c206661696c6564a264697066735822122015c205aec95127e4d34e4d5215f3112a4465b5a00792fef70ffad8efcd6dee6d64736f6c6343000812003360a06040523073ffffffffffffffffffffffffffffffffffffffff1660809073ffffffffffffffffffffffffffffffffffffffff168152503480156200004457600080fd5b50608051618ee36200007d60003960008181610e6901528181610ef701528181611323015281816113b1015261171c0152618ee36000f3fe6080604052600436106102715760003560e01c80638033491c1161014f578063c2c04ae2116100c1578063e985e9c51161007a578063e985e9c514610970578063f242432a146109ad578063f2fde38b146109d6578063f4ce2032146109ff578063fc314e3114610a2a578063ffa0a02a14610a6b57610271565b8063c2c04ae214610852578063c4ca3a9c1461088f578063d3bb24ae146108b8578063d547741f146108f5578063db8cc8fa1461091e578063e2f039471461094757610271565b806395d89b411161011357806395d89b4114610744578063a217fddf1461076f578063a22cb4651461079a578063a76e0db2146107c3578063afb30f3e14610800578063c0f1c4841461082957610271565b80638033491c1461065f578063835217a5146106885780638da5cb5b146106b35780638f0b7b68146106de57806391d148541461070757610271565b806342db9ca6116101e857806352d1902d116101ac57806352d1902d146105615780635642800c1461058c57806358797cb6146105cb578063715018a6146105f657806372f123441461060d578063762141401461063657610271565b806342db9ca61461047957806349d19648146104a25780634e1273f4146104cb5780634f1ef2861461050857806351d5b0141461052457610271565b80632eb2c2d61161023a5780632eb2c2d6146103955780632ee4aa31146103be5780632f2ff15d146103e757806336568abe146104105780633659cfe6146104395780633ccfd60b1461046257610271565b8062fdd58e1461027657806301ffc9a7146102b357806306fdde03146102f05780630e89341c1461031b578063248a9ca314610358575b600080fd5b34801561028257600080fd5b5061029d60048036038101906102989190615b19565b610a94565b6040516102aa9190615b68565b60405180910390f35b3480156102bf57600080fd5b506102da60048036038101906102d59190615bdb565b610b5d565b6040516102e79190615c23565b60405180910390f35b3480156102fc57600080fd5b50610305610b6f565b6040516103129190615cce565b60405180910390f35b34801561032757600080fd5b50610342600480360381019061033d9190615cf0565b610bfe565b60405161034f9190615cce565b60405180910390f35b34801561036457600080fd5b5061037f600480360381019061037a9190615d53565b610c92565b60405161038c9190615d8f565b60405180910390f35b3480156103a157600080fd5b506103bc60048036038101906103b79190615fa7565b610cb2565b005b3480156103ca57600080fd5b506103e560048036038101906103e09190616076565b610d53565b005b3480156103f357600080fd5b5061040e600480360381019061040991906160a3565b610dc3565b005b34801561041c57600080fd5b50610437600480360381019061043291906160a3565b610de4565b005b34801561044557600080fd5b50610460600480360381019061045b9190616076565b610e67565b005b34801561046e57600080fd5b50610477610fef565b005b34801561048557600080fd5b506104a0600480360381019061049b919061610f565b61113d565b005b3480156104ae57600080fd5b506104c960048036038101906104c4919061618d565b611198565b005b3480156104d757600080fd5b506104f260048036038101906104ed919061627d565b611208565b6040516104ff91906163b3565b60405180910390f35b610522600480360381019061051d91906163d5565b611321565b005b34801561053057600080fd5b5061054b60048036038101906105469190616076565b61145d565b6040516105589190616582565b60405180910390f35b34801561056d57600080fd5b50610576611718565b6040516105839190615d8f565b60405180910390f35b34801561059857600080fd5b506105b360048036038101906105ae91906165d0565b6117d1565b6040516105c2939291906165fd565b60405180910390f35b3480156105d757600080fd5b506105e0611862565b6040516105ed9190616693565b60405180910390f35b34801561060257600080fd5b5061060b611889565b005b34801561061957600080fd5b50610634600480360381019061062f9190615cf0565b61189d565b005b34801561064257600080fd5b5061065d60048036038101906106589190615cf0565b6118d3565b005b34801561066b57600080fd5b50610686600480360381019061068191906166ae565b611909565b005b34801561069457600080fd5b5061069d6121b0565b6040516106aa9190615b68565b60405180910390f35b3480156106bf57600080fd5b506106c86121b7565b6040516106d59190616710565b60405180910390f35b3480156106ea57600080fd5b50610705600480360381019061070091906167ab565b6121e2565b005b34801561071357600080fd5b5061072e600480360381019061072991906160a3565b612286565b60405161073b9190615c23565b60405180910390f35b34801561075057600080fd5b506107596122f1565b6040516107669190615cce565b60405180910390f35b34801561077b57600080fd5b50610784612380565b6040516107919190615d8f565b60405180910390f35b3480156107a657600080fd5b506107c160048036038101906107bc9190616845565b612387565b005b3480156107cf57600080fd5b506107ea60048036038101906107e591906165d0565b61239d565b6040516107f79190615cce565b60405180910390f35b34801561080c57600080fd5b506108276004803603810190610822919061627d565b61243e565b005b34801561083557600080fd5b50610850600480360381019061084b9190616a52565b61254a565b005b34801561085e57600080fd5b5061087960048036038101906108749190616ba1565b612a69565b6040516108869190615b68565b60405180910390f35b34801561089b57600080fd5b506108b660048036038101906108b19190616c24565b6130f5565b005b3480156108c457600080fd5b506108df60048036038101906108da9190615cf0565b6131a8565b6040516108ec9190615c23565b60405180910390f35b34801561090157600080fd5b5061091c600480360381019061091791906160a3565b6131fe565b005b34801561092a57600080fd5b5061094560048036038101906109409190615cf0565b61321f565b005b34801561095357600080fd5b5061096e60048036038101906109699190615cf0565b613255565b005b34801561097c57600080fd5b5061099760048036038101906109929190616cac565b61328b565b6040516109a49190615c23565b60405180910390f35b3480156109b957600080fd5b506109d460048036038101906109cf9190616cec565b61331f565b005b3480156109e257600080fd5b506109fd60048036038101906109f89190616076565b6133c0565b005b348015610a0b57600080fd5b50610a14613443565b604051610a219190616d92565b60405180910390f35b348015610a3657600080fd5b50610a516004803603810190610a4c9190615cf0565b613457565b604051610a62959493929190616dad565b60405180910390f35b348015610a7757600080fd5b50610a926004803603810190610a8d91906166ae565b6134c8565b005b60008073ffffffffffffffffffffffffffffffffffffffff168373ffffffffffffffffffffffffffffffffffffffff1603610b04576040517f08c379a0000000000000000000000000000000000000000000000000000000008152600401610afb90616e72565b60405180910390fd5b6065600083815260200190815260200160002060008473ffffffffffffffffffffffffffffffffffffffff1673ffffffffffffffffffffffffffffffffffffffff16815260200190815260200160002054905092915050565b6000610b6882613dd0565b9050919050565b6101678054610b7d90616ec1565b80601f0160208091040260200160405190810160405280929190818152602001828054610ba990616ec1565b8015610bf65780601f10610bcb57610100808354040283529160200191610bf6565b820191906000526020600020905b815481529060010190602001808311610bd957829003601f168201915b505050505081565b606060678054610c0d90616ec1565b80601f0160208091040260200160405190810160405280929190818152602001828054610c3990616ec1565b8015610c865780601f10610c5b57610100808354040283529160200191610c86565b820191906000526020600020905b815481529060010190602001808311610c6957829003601f168201915b50505050509050919050565b600060976000838152602001908152602001600020600101549050919050565b610cba613e4a565b73ffffffffffffffffffffffffffffffffffffffff168573ffffffffffffffffffffffffffffffffffffffff161480610d005750610cff85610cfa613e4a565b61328b565b5b610d3f576040517f08c379a0000000000000000000000000000000000000000000000000000000008152600401610d3690616f64565b60405180910390fd5b610d4c8585858585613e52565b5050505050565b7fb0a2731da0d1e322a29f18fc41490da7914e8245c4e7d00155b630b2fbe50293610d7d81614176565b8161016160006101000a81548173ffffffffffffffffffffffffffffffffffffffff021916908373ffffffffffffffffffffffffffffffffffffffff1602179055505050565b610dcc82610c92565b610dd581614176565b610ddf838361418a565b505050565b610dec613e4a565b73ffffffffffffffffffffffffffffffffffffffff168173ffffffffffffffffffffffffffffffffffffffff1614610e59576040517f08c379a0000000000000000000000000000000000000000000000000000000008152600401610e5090616ff6565b60405180910390fd5b610e63828261426b565b5050565b7f000000000000000000000000000000000000000000000000000000000000000073ffffffffffffffffffffffffffffffffffffffff163073ffffffffffffffffffffffffffffffffffffffff1603610ef5576040517f08c379a0000000000000000000000000000000000000000000000000000000008152600401610eec90617088565b60405180910390fd5b7f000000000000000000000000000000000000000000000000000000000000000073ffffffffffffffffffffffffffffffffffffffff16610f3461434d565b73ffffffffffffffffffffffffffffffffffffffff1614610f8a576040517f08c379a0000000000000000000000000000000000000000000000000000000008152600401610f819061711a565b60405180910390fd5b610f93816143a4565b610fec81600067ffffffffffffffff811115610fb257610fb1615daf565b5b6040519080825280601f01601f191660200182016040528015610fe45781602001600182028036833780820191505090505b5060006143d2565b50565b6000801b610ffc81614176565b61016560019054906101000a900473ffffffffffffffffffffffffffffffffffffffff1673ffffffffffffffffffffffffffffffffffffffff1663a9059cbb3361016560019054906101000a900473ffffffffffffffffffffffffffffffffffffffff1673ffffffffffffffffffffffffffffffffffffffff166370a08231306040518263ffffffff1660e01b81526004016110989190616710565b602060405180830381865afa1580156110b5573d6000803e3d6000fd5b505050506040513d601f19601f820116820180604052508101906110d9919061714f565b6040518363ffffffff1660e01b81526004016110f692919061717c565b6020604051808303816000875af1158015611115573d6000803e3d6000fd5b505050506040513d601f19601f8201168201806040525081019061113991906171ba565b5050565b7fb0a2731da0d1e322a29f18fc41490da7914e8245c4e7d00155b630b2fbe5029361116781614176565b8161016a600085815260200190815260200160002060006101000a81548160ff021916908315150217905550505050565b7fb0a2731da0d1e322a29f18fc41490da7914e8245c4e7d00155b630b2fbe502936111c281614176565b8161016560016101000a81548173ffffffffffffffffffffffffffffffffffffffff021916908373ffffffffffffffffffffffffffffffffffffffff1602179055505050565b6060815183511461124e576040517f08c379a000000000000000000000000000000000000000000000000000000000815260040161124590617259565b60405180910390fd5b6000835167ffffffffffffffff81111561126b5761126a615daf565b5b6040519080825280602002602001820160405280156112995781602001602082028036833780820191505090505b50905060005b8451811015611316576112e68582815181106112be576112bd617279565b5b60200260200101518583815181106112d9576112d8617279565b5b6020026020010151610a94565b8282815181106112f9576112f8617279565b5b6020026020010181815250508061130f906172d7565b905061129f565b508091505092915050565b7f000000000000000000000000000000000000000000000000000000000000000073ffffffffffffffffffffffffffffffffffffffff163073ffffffffffffffffffffffffffffffffffffffff16036113af576040517f08c379a00000000000000000000000000000000000000000000000000000000081526004016113a690617088565b60405180910390fd5b7f000000000000000000000000000000000000000000000000000000000000000073ffffffffffffffffffffffffffffffffffffffff166113ee61434d565b73ffffffffffffffffffffffffffffffffffffffff1614611444576040517f08c379a000000000000000000000000000000000000000000000000000000000815260040161143b9061711a565b60405180910390fd5b61144d826143a4565b611459828260016143d2565b5050565b6060600061016d60008473ffffffffffffffffffffffffffffffffffffffff1673ffffffffffffffffffffffffffffffffffffffff1681526020019081526020016000208054905067ffffffffffffffff8111156114be576114bd615daf565b5b6040519080825280602002602001820160405280156114f757816020015b6114e4615a03565b8152602001906001900390816114dc5790505b50905060005b61016d60008573ffffffffffffffffffffffffffffffffffffffff1673ffffffffffffffffffffffffffffffffffffffff1681526020019081526020016000208054905081101561170e5760006115b08561016d60008873ffffffffffffffffffffffffffffffffffffffff1673ffffffffffffffffffffffffffffffffffffffff16815260200190815260200160002084815481106115a05761159f617279565b5b9060005260206000200154610a94565b9050600081116115c057506116fd565b610170600061016d60008873ffffffffffffffffffffffffffffffffffffffff1673ffffffffffffffffffffffffffffffffffffffff168152602001908152602001600020848154811061161757611616617279565b5b906000526020600020015481526020019081526020016000206040518060a00160405290816000820160009054906101000a900460ff1660ff1660ff16815260200160018201548152602001600282015481526020016003820160009054906101000a900460ff161515151581526020016003820160019054906101000a900473ffffffffffffffffffffffffffffffffffffffff1673ffffffffffffffffffffffffffffffffffffffff1673ffffffffffffffffffffffffffffffffffffffff16815250508383815181106116f0576116ef617279565b5b6020026020010181905250505b80611707906172d7565b90506114fd565b5080915050919050565b60007f000000000000000000000000000000000000000000000000000000000000000073ffffffffffffffffffffffffffffffffffffffff163073ffffffffffffffffffffffffffffffffffffffff16146117a8576040517f08c379a000000000000000000000000000000000000000000000000000000000815260040161179f90617391565b60405180910390fd5b7f360894a13ba1a3210667c828492db98dca3e2076cc3735a920a3ca505d382bbc60001b905090565b60008060008061016b60008660ff1660ff1681526020019081526020016000206040518060600160405290816000820160009054906101000a900460ff1660ff1660ff168152602001600182015481526020016002820154815250509050806020015193508060400151915061016c60008660ff1660ff168152602001908152602001600020549250509193909250565b61016560019054906101000a900473ffffffffffffffffffffffffffffffffffffffff1681565b611891614540565b61189b60006145be565b565b7fb0a2731da0d1e322a29f18fc41490da7914e8245c4e7d00155b630b2fbe502936118c781614176565b8161016e819055505050565b7fb0a2731da0d1e322a29f18fc41490da7914e8245c4e7d00155b630b2fbe502936118fd81614176565b81610164819055505050565b600033905061016354421015611954576040517f08c379a000000000000000000000000000000000000000000000000000000000815260040161194b906173fd565b60405180910390fd5b6101645442111561199a576040517f08c379a000000000000000000000000000000000000000000000000000000000815260040161199190617469565b60405180910390fd5b600061016e541115611a2f5761016e5461016d60008473ffffffffffffffffffffffffffffffffffffffff1673ffffffffffffffffffffffffffffffffffffffff1681526020019081526020016000208054905010611a2e576040517f08c379a0000000000000000000000000000000000000000000000000000000008152600401611a25906174d5565b60405180910390fd5b5b600061016b60008560ff1660ff1681526020019081526020016000206040518060600160405290816000820160009054906101000a900460ff1660ff1660ff1681526020016001820154815260200160028201548152505090506000816020015111611ad0576040517f08c379a0000000000000000000000000000000000000000000000000000000008152600401611ac790617541565b60405180910390fd5b600061016c60008660ff1660ff16815260200190815260200160002054905080826020015111611b35576040517f08c379a0000000000000000000000000000000000000000000000000000000008152600401611b2c906175ad565b60405180910390fd5b61016160149054906101000a900460ff16611b6757611b55610168614686565b611b6061016861469c565b9550611bb0565b611b70866146aa565b611baf576040517f08c379a0000000000000000000000000000000000000000000000000000000008152600401611ba690617619565b60405180910390fd5b5b600061017060008881526020019081526020016000206040518060a00160405290816000820160009054906101000a900460ff1660ff1660ff16815260200160018201548152602001600282015481526020016003820160009054906101000a900460ff161515151581526020016003820160019054906101000a900473ffffffffffffffffffffffffffffffffffffffff1673ffffffffffffffffffffffffffffffffffffffff1673ffffffffffffffffffffffffffffffffffffffff168152505090506000816040015114611cbc576040517f08c379a0000000000000000000000000000000000000000000000000000000008152600401611cb390617685565b60405180910390fd5b6000611ccb84604001516146d5565b905061016560019054906101000a900473ffffffffffffffffffffffffffffffffffffffff1673ffffffffffffffffffffffffffffffffffffffff166370a08231876040518263ffffffff1660e01b8152600401611d299190616710565b602060405180830381865afa158015611d46573d6000803e3d6000fd5b505050506040513d601f19601f82011682018060405250810190611d6a919061714f565b84604001511115611db0576040517f08c379a0000000000000000000000000000000000000000000000000000000008152600401611da790617717565b60405180910390fd5b61016560019054906101000a900473ffffffffffffffffffffffffffffffffffffffff1673ffffffffffffffffffffffffffffffffffffffff166323b872dd8661015f60009054906101000a900473ffffffffffffffffffffffffffffffffffffffff16846040518463ffffffff1660e01b8152600401611e3393929190617737565b6020604051808303816000875af1158015611e52573d6000803e3d6000fd5b505050506040513d601f19601f82011682018060405250810190611e7691906171ba565b506000818560400151611e89919061776e565b905061016560019054906101000a900473ffffffffffffffffffffffffffffffffffffffff1673ffffffffffffffffffffffffffffffffffffffff166323b872dd8761016160009054906101000a900473ffffffffffffffffffffffffffffffffffffffff16846040518463ffffffff1660e01b8152600401611f0e93929190617737565b6020604051808303816000875af1158015611f2d573d6000803e3d6000fd5b505050506040513d601f19601f82011682018060405250810190611f5191906171ba565b50611f6e878a60016040518060200160405280600081525061479c565b61016d60008873ffffffffffffffffffffffffffffffffffffffff1673ffffffffffffffffffffffffffffffffffffffff168152602001908152602001600020899080600181540180825580915050600190039060005260206000200160009091909190915055600184611fe291906177a2565b61016c60008a60ff1660ff168152602001908152602001600020819055508761016f60008b815260200190815260200160002060006101000a81548160ff021916908360ff16021790555060006120388a610bfe565b90508984602001818152505088846000019060ff16908160ff1681525050600184604001818152505060008960ff161184606001901515908115158152505087846080019073ffffffffffffffffffffffffffffffffffffffff16908173ffffffffffffffffffffffffffffffffffffffff16815250508361017060008c815260200190815260200160002060008201518160000160006101000a81548160ff021916908360ff160217905550602082015181600101556040820151816002015560608201518160030160006101000a81548160ff02191690831515021790555060808201518160030160016101000a81548173ffffffffffffffffffffffffffffffffffffffff021916908373ffffffffffffffffffffffffffffffffffffffff1602179055509050507f2d4e120ea0e6aacf78e29b1ab8708eddff1b877753354538447ef8063a54ef45888b8b84868860405161219c969594939291906177d6565b60405180910390a150505050505050505050565b6101735481565b600061012d60009054906101000a900473ffffffffffffffffffffffffffffffffffffffff16905090565b7fa49807205ce4d355092ef5a8a18f56e8913cf4a201fbe287825b095693c2177561220c81614176565b73__$afec012158ebc01e771e0b8521b3c90181$__6339d1efc68888888888886040518763ffffffff1660e01b815260040161224d96959493929190617911565b60006040518083038186803b15801561226557600080fd5b505af4158015612279573d6000803e3d6000fd5b5050505050505050505050565b60006097600084815260200190815260200160002060000160008373ffffffffffffffffffffffffffffffffffffffff1673ffffffffffffffffffffffffffffffffffffffff16815260200190815260200160002060009054906101000a900460ff16905092915050565b61016680546122ff90616ec1565b80601f016020809104026020016040519081016040528092919081815260200182805461232b90616ec1565b80156123785780601f1061234d57610100808354040283529160200191612378565b820191906000526020600020905b81548152906001019060200180831161235b57829003601f168201915b505050505081565b6000801b81565b612399612392613e4a565b838361494d565b5050565b61017460205280600052604060002060009150905080546123bd90616ec1565b80601f01602080910402602001604051908101604052809291908181526020018280546123e990616ec1565b80156124365780601f1061240b57610100808354040283529160200191612436565b820191906000526020600020905b81548152906001019060200180831161241957829003601f168201915b505050505081565b7fa49807205ce4d355092ef5a8a18f56e8913cf4a201fbe287825b095693c2177561246881614176565b81518351146124ac576040517f08c379a00000000000000000000000000000000000000000000000000000000081526004016124a3906179df565b60405180910390fd5b60005b8351811015612544578281815181106124cb576124ca617279565b5b602002602001015161017260008684815181106124eb576124ea617279565b5b602002602001015173ffffffffffffffffffffffffffffffffffffffff1673ffffffffffffffffffffffffffffffffffffffff16815260200190815260200160002081905550808061253c906172d7565b9150506124af565b50505050565b60008060019054906101000a900460ff1615905080801561257b5750600160008054906101000a900460ff1660ff16105b806125a8575061258a30614ab9565b1580156125a75750600160008054906101000a900460ff1660ff16145b5b6125e7576040517f08c379a00000000000000000000000000000000000000000000000000000000081526004016125de90617a71565b60405180910390fd5b60016000806101000a81548160ff021916908360ff1602179055508015612624576001600060016101000a81548160ff0219169083151502179055505b61263c60405180602001604052806000815250614adc565b612644614b37565b61264c614b88565b612655846145be565b600080600090505b84518110156126a35784818151811061267957612678617279565b5b6020026020010151602001518261269091906177a2565b91508061269c906172d7565b905061265d565b508281146126e6576040517f08c379a00000000000000000000000000000000000000000000000000000000081526004016126dd90617add565b60405180910390fd5b60005b8451811015612862576126fa615a4d565b85828151811061270d5761270c617279565b5b60200260200101516040015181604001818152505085828151811061273557612734617279565b5b6020026020010151602001518160200181815250508061016b600088858151811061276357612762617279565b5b60200260200101516000015160ff1660ff16815260200190815260200160002060008201518160000160006101000a81548160ff021916908360ff16021790555060208201518160010155604082015181600201559050507fab9ceafa6f3a63a3fa4175dc0568fb22a90f89b34b4800540adb2822f5642aed8683815181106127ef576127ee617279565b5b60200260200101516000015187848151811061280e5761280d617279565b5b60200260200101516020015188858151811061282d5761282c617279565b5b60200260200101516040015160405161284893929190617afd565b60405180910390a1508061285b906172d7565b90506126e9565b508b61015f60006101000a81548173ffffffffffffffffffffffffffffffffffffffff021916908373ffffffffffffffffffffffffffffffffffffffff1602179055508a61016090816128b59190617cd6565b508961016160006101000a81548173ffffffffffffffffffffffffffffffffffffffff021916908373ffffffffffffffffffffffffffffffffffffffff1602179055508861016160146101000a81548160ff0219169083151502179055508761016560016101000a81548173ffffffffffffffffffffffffffffffffffffffff021916908373ffffffffffffffffffffffffffffffffffffffff1602179055508661016690816129659190617cd6565b508561016790816129769190617cd6565b506129a17fa49807205ce4d355092ef5a8a18f56e8913cf4a201fbe287825b095693c2177586614bd9565b6129ae6000801b86614bd9565b6129d87fb0a2731da0d1e322a29f18fc41490da7914e8245c4e7d00155b630b2fbe5029386614bd9565b612a027f3c11d16cbaffd01df69ce1c404f6340ee057498f5f00246190ea54220576a84886614bd9565b508015612a5c5760008060016101000a81548160ff0219169083151502179055507f7f26b83ff96e1f2b6a682f133852f6798a09c465da95921460cefb38474024986001604051612a539190617de3565b60405180910390a15b5050505050505050505050565b60007fa49807205ce4d355092ef5a8a18f56e8913cf4a201fbe287825b095693c21775612a9581614176565b61016354421015612adb576040517f08c379a0000000000000000000000000000000000000000000000000000000008152600401612ad2906173fd565b60405180910390fd5b61016454421115612b21576040517f08c379a0000000000000000000000000000000000000000000000000000000008152600401612b1890617469565b60405180910390fd5b61017183604051612b329190617e3a565b908152602001604051809103902060009054906101000a900460ff1615612b8e576040517f08c379a0000000000000000000000000000000000000000000000000000000008152600401612b8590617e9d565b60405180910390fd5b600061016b60008660ff1660ff1681526020019081526020016000206040518060600160405290816000820160009054906101000a900460ff1660ff1660ff1681526020016001820154815260200160028201548152505090506000816020015111612c2f576040517f08c379a0000000000000000000000000000000000000000000000000000000008152600401612c2690617541565b60405180910390fd5b600061016c60008760ff1660ff16815260200190815260200160002054905080826020015111612c94576040517f08c379a0000000000000000000000000000000000000000000000000000000008152600401612c8b906175ad565b60405180910390fd5b61016160149054906101000a900460ff16612cc657612cb4610168614686565b612cbf61016861469c565b9650612d0f565b612ccf876146aa565b612d0e576040517f08c379a0000000000000000000000000000000000000000000000000000000008152600401612d0590617619565b60405180910390fd5b5b600061017060008981526020019081526020016000206040518060a00160405290816000820160009054906101000a900460ff1660ff1660ff16815260200160018201548152602001600282015481526020016003820160009054906101000a900460ff161515151581526020016003820160019054906101000a900473ffffffffffffffffffffffffffffffffffffffff1673ffffffffffffffffffffffffffffffffffffffff1673ffffffffffffffffffffffffffffffffffffffff168152505090506000816040015114612e1b576040517f08c379a0000000000000000000000000000000000000000000000000000000008152600401612e1290617685565b60405180910390fd5b612e37898960016040518060200160405280600081525061479c565b61016d60008a73ffffffffffffffffffffffffffffffffffffffff1673ffffffffffffffffffffffffffffffffffffffff168152602001908152602001600020889080600181540180825580915050600190039060005260206000200160009091909190915055600182612eab91906177a2565b61016c60008960ff1660ff168152602001908152602001600020819055508661016f60008a815260200190815260200160002060006101000a81548160ff021916908360ff1602179055506000612f0189610bfe565b90508882602001818152505087826000019060ff16908160ff1681525050600182604001818152505060008860ff161182606001901515908115158152505089826080019073ffffffffffffffffffffffffffffffffffffffff16908173ffffffffffffffffffffffffffffffffffffffff16815250508161017060008b815260200190815260200160002060008201518160000160006101000a81548160ff021916908360ff160217905550602082015181600101556040820151816002015560608201518160030160006101000a81548160ff02191690831515021790555060808201518160030160016101000a81548173ffffffffffffffffffffffffffffffffffffffff021916908373ffffffffffffffffffffffffffffffffffffffff16021790555090505060016101718860405161303f9190617e3a565b908152602001604051809103902060006101000a81548160ff0219169083151502179055507f9b7d14b1e22bcd1e90132d871c08a86a7d439e4349ac2bbaea472e1ed9031f338a8a8a848b60405161309b959493929190617ebd565b60405180910390a17f2d4e120ea0e6aacf78e29b1ab8708eddff1b877753354538447ef8063a54ef458a8a8a846000806040516130dd96959493929190617f59565b60405180910390a18895505050505050949350505050565b7fa49807205ce4d355092ef5a8a18f56e8913cf4a201fbe287825b095693c2177561311f81614176565b73__$afec012158ebc01e771e0b8521b3c90181$__637a17125987878787876040518663ffffffff1660e01b815260040161315e959493929190617fc1565b602060405180830381865af415801561317b573d6000803e3d6000fd5b505050506040513d601f19601f8201168201806040525081019061319f919061714f565b50505050505050565b60007fb0a2731da0d1e322a29f18fc41490da7914e8245c4e7d00155b630b2fbe502936131d481614176565b61016a600084815260200190815260200160002060009054906101000a900460ff16915050919050565b61320782610c92565b61321081614176565b61321a838361426b565b505050565b7fb0a2731da0d1e322a29f18fc41490da7914e8245c4e7d00155b630b2fbe5029361324981614176565b81610163819055505050565b7fb0a2731da0d1e322a29f18fc41490da7914e8245c4e7d00155b630b2fbe5029361327f81614176565b81610162819055505050565b6000606660008473ffffffffffffffffffffffffffffffffffffffff1673ffffffffffffffffffffffffffffffffffffffff16815260200190815260200160002060008373ffffffffffffffffffffffffffffffffffffffff1673ffffffffffffffffffffffffffffffffffffffff16815260200190815260200160002060009054906101000a900460ff16905092915050565b613327613e4a565b73ffffffffffffffffffffffffffffffffffffffff168573ffffffffffffffffffffffffffffffffffffffff16148061336d575061336c85613367613e4a565b61328b565b5b6133ac576040517f08c379a00000000000000000000000000000000000000000000000000000000081526004016133a390616f64565b60405180910390fd5b6133b98585858585614be7565b5050505050565b6133c8614540565b600073ffffffffffffffffffffffffffffffffffffffff168173ffffffffffffffffffffffffffffffffffffffff1603613437576040517f08c379a000000000000000000000000000000000000000000000000000000000815260040161342e90618081565b60405180910390fd5b613440816145be565b50565b61016560009054906101000a900460ff1681565b6101706020528060005260406000206000915090508060000160009054906101000a900460ff16908060010154908060020154908060030160009054906101000a900460ff16908060030160019054906101000a900473ffffffffffffffffffffffffffffffffffffffff16905085565b600033905061016254421015613513576040517f08c379a000000000000000000000000000000000000000000000000000000000815260040161350a90618113565b60405180910390fd5b61016454421115613559576040517f08c379a000000000000000000000000000000000000000000000000000000000815260040161355090617469565b60405180910390fd5b600061017260008473ffffffffffffffffffffffffffffffffffffffff1673ffffffffffffffffffffffffffffffffffffffff16815260200190815260200160002054116135dc576040517f08c379a00000000000000000000000000000000000000000000000000000000081526004016135d3906181a5565b60405180910390fd5b600061016b60008560ff1660ff1681526020019081526020016000206040518060600160405290816000820160009054906101000a900460ff1660ff1660ff168152602001600182015481526020016002820154815250509050600081602001511161367d576040517f08c379a000000000000000000000000000000000000000000000000000000000815260040161367490617541565b60405180910390fd5b600061016c60008660ff1660ff168152602001908152602001600020549050808260200151116136e2576040517f08c379a00000000000000000000000000000000000000000000000000000000081526004016136d9906175ad565b60405180910390fd5b61016160149054906101000a900460ff1661371457613702610168614686565b61370d61016861469c565b955061375d565b61371d866146aa565b61375c576040517f08c379a000000000000000000000000000000000000000000000000000000000815260040161375390617619565b60405180910390fd5b5b600061017060008881526020019081526020016000206040518060a00160405290816000820160009054906101000a900460ff1660ff1660ff16815260200160018201548152602001600282015481526020016003820160009054906101000a900460ff161515151581526020016003820160019054906101000a900473ffffffffffffffffffffffffffffffffffffffff1673ffffffffffffffffffffffffffffffffffffffff1673ffffffffffffffffffffffffffffffffffffffff168152505090506000816040015114613869576040517f08c379a000000000000000000000000000000000000000000000000000000000815260040161386090617685565b60405180910390fd5b600061387884604001516146d5565b905061016560019054906101000a900473ffffffffffffffffffffffffffffffffffffffff1673ffffffffffffffffffffffffffffffffffffffff166370a08231866040518263ffffffff1660e01b81526004016138d69190616710565b602060405180830381865afa1580156138f3573d6000803e3d6000fd5b505050506040513d601f19601f82011682018060405250810190613917919061714f565b8460400151111561395d576040517f08c379a000000000000000000000000000000000000000000000000000000000815260040161395490617717565b60405180910390fd5b61016560019054906101000a900473ffffffffffffffffffffffffffffffffffffffff1673ffffffffffffffffffffffffffffffffffffffff166323b872dd8661015f60009054906101000a900473ffffffffffffffffffffffffffffffffffffffff16846040518463ffffffff1660e01b81526004016139e093929190617737565b6020604051808303816000875af11580156139ff573d6000803e3d6000fd5b505050506040513d601f19601f82011682018060405250810190613a2391906171ba565b506000818560400151613a36919061776e565b905061016560019054906101000a900473ffffffffffffffffffffffffffffffffffffffff1673ffffffffffffffffffffffffffffffffffffffff166323b872dd8761016160009054906101000a900473ffffffffffffffffffffffffffffffffffffffff16846040518463ffffffff1660e01b8152600401613abb93929190617737565b6020604051808303816000875af1158015613ada573d6000803e3d6000fd5b505050506040513d601f19601f82011682018060405250810190613afe91906171ba565b50613b1b878a60016040518060200160405280600081525061479c565b61016d60008873ffffffffffffffffffffffffffffffffffffffff1673ffffffffffffffffffffffffffffffffffffffff16815260200190815260200160002089908060018154018082558091505060019003906000526020600020016000909190919091505560016101736000828254613b9691906177a2565b92505081905550600161017260008973ffffffffffffffffffffffffffffffffffffffff1673ffffffffffffffffffffffffffffffffffffffff1681526020019081526020016000206000828254613bee919061776e565b92505081905550600184613c0291906177a2565b61016c60008a60ff1660ff168152602001908152602001600020819055508761016f60008b815260200190815260200160002060006101000a81548160ff021916908360ff1602179055506000613c588a610bfe565b90508984602001818152505088846000019060ff16908160ff1681525050600184604001818152505060008960ff161184606001901515908115158152505087846080019073ffffffffffffffffffffffffffffffffffffffff16908173ffffffffffffffffffffffffffffffffffffffff16815250508361017060008c815260200190815260200160002060008201518160000160006101000a81548160ff021916908360ff160217905550602082015181600101556040820151816002015560608201518160030160006101000a81548160ff02191690831515021790555060808201518160030160016101000a81548173ffffffffffffffffffffffffffffffffffffffff021916908373ffffffffffffffffffffffffffffffffffffffff1602179055509050507f2d4e120ea0e6aacf78e29b1ab8708eddff1b877753354538447ef8063a54ef45888b8b848688604051613dbc969594939291906177d6565b60405180910390a150505050505050505050565b60007f7965db0b000000000000000000000000000000000000000000000000000000007bffffffffffffffffffffffffffffffffffffffffffffffffffffffff1916827bffffffffffffffffffffffffffffffffffffffffffffffffffffffff19161480613e435750613e4282614e85565b5b9050919050565b600033905090565b8151835114613e96576040517f08c379a0000000000000000000000000000000000000000000000000000000008152600401613e8d90618237565b60405180910390fd5b600073ffffffffffffffffffffffffffffffffffffffff168473ffffffffffffffffffffffffffffffffffffffff1603613f05576040517f08c379a0000000000000000000000000000000000000000000000000000000008152600401613efc906182c9565b60405180910390fd5b6000613f0f613e4a565b9050613f1f818787878787614f67565b60005b84518110156140d3576000858281518110613f4057613f3f617279565b5b602002602001015190506000858381518110613f5f57613f5e617279565b5b6020026020010151905060006065600084815260200190815260200160002060008b73ffffffffffffffffffffffffffffffffffffffff1673ffffffffffffffffffffffffffffffffffffffff16815260200190815260200160002054905081811015614001576040517f08c379a0000000000000000000000000000000000000000000000000000000008152600401613ff89061835b565b60405180910390fd5b8181036065600085815260200190815260200160002060008c73ffffffffffffffffffffffffffffffffffffffff1673ffffffffffffffffffffffffffffffffffffffff16815260200190815260200160002081905550816065600085815260200190815260200160002060008b73ffffffffffffffffffffffffffffffffffffffff1673ffffffffffffffffffffffffffffffffffffffff16815260200190815260200160002060008282546140b891906177a2565b92505081905550505050806140cc906172d7565b9050613f22565b508473ffffffffffffffffffffffffffffffffffffffff168673ffffffffffffffffffffffffffffffffffffffff168273ffffffffffffffffffffffffffffffffffffffff167f4a39dc06d4c0dbc64b70af90fd698a233a518aa5d07e595d983b8c0526c8f7fb878760405161414a92919061837b565b60405180910390a4614160818787878787614f6f565b61416e818787878787614f77565b505050505050565b61418781614182613e4a565b61514e565b50565b6141948282612286565b6142675760016097600084815260200190815260200160002060000160008373ffffffffffffffffffffffffffffffffffffffff1673ffffffffffffffffffffffffffffffffffffffff16815260200190815260200160002060006101000a81548160ff02191690831515021790555061420c613e4a565b73ffffffffffffffffffffffffffffffffffffffff168173ffffffffffffffffffffffffffffffffffffffff16837f2f8788117e7eff1d82e926ec794901d17c78024a50270940304540a733656f0d60405160405180910390a45b5050565b6142758282612286565b156143495760006097600084815260200190815260200160002060000160008373ffffffffffffffffffffffffffffffffffffffff1673ffffffffffffffffffffffffffffffffffffffff16815260200190815260200160002060006101000a81548160ff0219169083151502179055506142ee613e4a565b73ffffffffffffffffffffffffffffffffffffffff168173ffffffffffffffffffffffffffffffffffffffff16837ff6391f5c32d9c69d2a47ea670b442974b53935d1edc7fd64eb21e047a839171b60405160405180910390a45b5050565b600061437b7f360894a13ba1a3210667c828492db98dca3e2076cc3735a920a3ca505d382bbc60001b6151d3565b60000160009054906101000a900473ffffffffffffffffffffffffffffffffffffffff16905090565b7fa49807205ce4d355092ef5a8a18f56e8913cf4a201fbe287825b095693c217756143ce81614176565b5050565b6143fe7f4910fdfa16fed3260ed0e7147f7cc6da11a60208b5b9406d12a635614ffd914360001b6151dd565b60000160009054906101000a900460ff16156144225761441d836151e7565b61453b565b8273ffffffffffffffffffffffffffffffffffffffff166352d1902d6040518163ffffffff1660e01b8152600401602060405180830381865afa92505050801561448a57506040513d601f19601f8201168201806040525081019061448791906183c7565b60015b6144c9576040517f08c379a00000000000000000000000000000000000000000000000000000000081526004016144c090618466565b60405180910390fd5b7f360894a13ba1a3210667c828492db98dca3e2076cc3735a920a3ca505d382bbc60001b811461452e576040517f08c379a0000000000000000000000000000000000000000000000000000000008152600401614525906184f8565b60405180910390fd5b5061453a8383836152a0565b5b505050565b614548613e4a565b73ffffffffffffffffffffffffffffffffffffffff166145666121b7565b73ffffffffffffffffffffffffffffffffffffffff16146145bc576040517f08c379a00000000000000000000000000000000000000000000000000000000081526004016145b390618564565b60405180910390fd5b565b600061012d60009054906101000a900473ffffffffffffffffffffffffffffffffffffffff1690508161012d60006101000a81548173ffffffffffffffffffffffffffffffffffffffff021916908373ffffffffffffffffffffffffffffffffffffffff1602179055508173ffffffffffffffffffffffffffffffffffffffff168173ffffffffffffffffffffffffffffffffffffffff167f8be0079c531659141344cd1fd0a4f28419497f9722a3daafe3b4186f6b6457e060405160405180910390a35050565b6001816000016000828254019250508190555050565b600081600001549050919050565b600061016a600083815260200190815260200160002060009054906101000a900460ff169050919050565b60008061015f60009054906101000a900473ffffffffffffffffffffffffffffffffffffffff1673ffffffffffffffffffffffffffffffffffffffff1663a8bcb8d8306040518263ffffffff1660e01b81526004016147349190616710565b602060405180830381865afa158015614751573d6000803e3d6000fd5b505050506040513d601f19601f8201168201806040525081019061477591906185be565b61ffff169050806127108461478a919061861a565b614794919061864b565b915050919050565b600073ffffffffffffffffffffffffffffffffffffffff168473ffffffffffffffffffffffffffffffffffffffff160361480b576040517f08c379a0000000000000000000000000000000000000000000000000000000008152600401614802906186ff565b60405180910390fd5b6000614815613e4a565b90506000614822856152cc565b9050600061482f856152cc565b905061484083600089858589614f67565b846065600088815260200190815260200160002060008973ffffffffffffffffffffffffffffffffffffffff1673ffffffffffffffffffffffffffffffffffffffff16815260200190815260200160002060008282546148a091906177a2565b925050819055508673ffffffffffffffffffffffffffffffffffffffff16600073ffffffffffffffffffffffffffffffffffffffff168473ffffffffffffffffffffffffffffffffffffffff167fc3d58168c5ae7397731d063d5bbf3d657854427343f4c083240f7aacaa2d0f62898960405161491e92919061871f565b60405180910390a461493583600089858589614f6f565b61494483600089898989615346565b50505050505050565b8173ffffffffffffffffffffffffffffffffffffffff168373ffffffffffffffffffffffffffffffffffffffff16036149bb576040517f08c379a00000000000000000000000000000000000000000000000000000000081526004016149b2906187ba565b60405180910390fd5b80606660008573ffffffffffffffffffffffffffffffffffffffff1673ffffffffffffffffffffffffffffffffffffffff16815260200190815260200160002060008473ffffffffffffffffffffffffffffffffffffffff1673ffffffffffffffffffffffffffffffffffffffff16815260200190815260200160002060006101000a81548160ff0219169083151502179055508173ffffffffffffffffffffffffffffffffffffffff168373ffffffffffffffffffffffffffffffffffffffff167f17307eab39ab6107e8899845ad3d59bd9653f200f220920489ca2b5937696c3183604051614aac9190615c23565b60405180910390a3505050565b6000808273ffffffffffffffffffffffffffffffffffffffff163b119050919050565b600060019054906101000a900460ff16614b2b576040517f08c379a0000000000000000000000000000000000000000000000000000000008152600401614b229061884c565b60405180910390fd5b614b348161551d565b50565b600060019054906101000a900460ff16614b86576040517f08c379a0000000000000000000000000000000000000000000000000000000008152600401614b7d9061884c565b60405180910390fd5b565b600060019054906101000a900460ff16614bd7576040517f08c379a0000000000000000000000000000000000000000000000000000000008152600401614bce9061884c565b60405180910390fd5b565b614be3828261418a565b5050565b600073ffffffffffffffffffffffffffffffffffffffff168473ffffffffffffffffffffffffffffffffffffffff1603614c56576040517f08c379a0000000000000000000000000000000000000000000000000000000008152600401614c4d906182c9565b60405180910390fd5b6000614c60613e4a565b90506000614c6d856152cc565b90506000614c7a856152cc565b9050614c8a838989858589614f67565b60006065600088815260200190815260200160002060008a73ffffffffffffffffffffffffffffffffffffffff1673ffffffffffffffffffffffffffffffffffffffff16815260200190815260200160002054905085811015614d22576040517f08c379a0000000000000000000000000000000000000000000000000000000008152600401614d199061835b565b60405180910390fd5b8581036065600089815260200190815260200160002060008b73ffffffffffffffffffffffffffffffffffffffff1673ffffffffffffffffffffffffffffffffffffffff16815260200190815260200160002081905550856065600089815260200190815260200160002060008a73ffffffffffffffffffffffffffffffffffffffff1673ffffffffffffffffffffffffffffffffffffffff1681526020019081526020016000206000828254614dd991906177a2565b925050819055508773ffffffffffffffffffffffffffffffffffffffff168973ffffffffffffffffffffffffffffffffffffffff168573ffffffffffffffffffffffffffffffffffffffff167fc3d58168c5ae7397731d063d5bbf3d657854427343f4c083240f7aacaa2d0f628a8a604051614e5692919061871f565b60405180910390a4614e6c848a8a86868a614f6f565b614e7a848a8a8a8a8a615346565b505050505050505050565b60007fd9b67a26000000000000000000000000000000000000000000000000000000007bffffffffffffffffffffffffffffffffffffffffffffffffffffffff1916827bffffffffffffffffffffffffffffffffffffffffffffffffffffffff19161480614f5057507f0e89341c000000000000000000000000000000000000000000000000000000007bffffffffffffffffffffffffffffffffffffffffffffffffffffffff1916827bffffffffffffffffffffffffffffffffffffffffffffffffffffffff1916145b80614f605750614f5f82615578565b5b9050919050565b505050505050565b505050505050565b614f968473ffffffffffffffffffffffffffffffffffffffff16614ab9565b15615146578373ffffffffffffffffffffffffffffffffffffffff1663bc197c8187878686866040518663ffffffff1660e01b8152600401614fdc9594939291906188c1565b6020604051808303816000875af192505050801561501857506040513d601f19601f82011682018060405250810190615015919061893e565b60015b6150bd57615024618978565b806308c379a003615080575061503861899a565b806150435750615082565b806040517f08c379a00000000000000000000000000000000000000000000000000000000081526004016150779190615cce565b60405180910390fd5b505b6040517f08c379a00000000000000000000000000000000000000000000000000000000081526004016150b490618a9c565b60405180910390fd5b63bc197c8160e01b7bffffffffffffffffffffffffffffffffffffffffffffffffffffffff1916817bffffffffffffffffffffffffffffffffffffffffffffffffffffffff191614615144576040517f08c379a000000000000000000000000000000000000000000000000000000000815260040161513b90618b2e565b60405180910390fd5b505b505050505050565b6151588282612286565b6151cf57615165816155e2565b6151738360001c602061560f565b604051602001615184929190618be6565b6040516020818303038152906040526040517f08c379a00000000000000000000000000000000000000000000000000000000081526004016151c69190615cce565b60405180910390fd5b5050565b6000819050919050565b6000819050919050565b6151f081614ab9565b61522f576040517f08c379a000000000000000000000000000000000000000000000000000000000815260040161522690618c92565b60405180910390fd5b8061525c7f360894a13ba1a3210667c828492db98dca3e2076cc3735a920a3ca505d382bbc60001b6151d3565b60000160006101000a81548173ffffffffffffffffffffffffffffffffffffffff021916908373ffffffffffffffffffffffffffffffffffffffff16021790555050565b6152a98361584b565b6000825111806152b65750805b156152c7576152c5838361589a565b505b505050565b60606000600167ffffffffffffffff8111156152eb576152ea615daf565b5b6040519080825280602002602001820160405280156153195781602001602082028036833780820191505090505b509050828160008151811061533157615330617279565b5b60200260200101818152505080915050919050565b6153658473ffffffffffffffffffffffffffffffffffffffff16614ab9565b15615515578373ffffffffffffffffffffffffffffffffffffffff1663f23a6e6187878686866040518663ffffffff1660e01b81526004016153ab959493929190618cb2565b6020604051808303816000875af19250505080156153e757506040513d601f19601f820116820180604052508101906153e4919061893e565b60015b61548c576153f3618978565b806308c379a00361544f575061540761899a565b806154125750615451565b806040517f08c379a00000000000000000000000000000000000000000000000000000000081526004016154469190615cce565b60405180910390fd5b505b6040517f08c379a000000000000000000000000000000000000000000000000000000000815260040161548390618a9c565b60405180910390fd5b63f23a6e6160e01b7bffffffffffffffffffffffffffffffffffffffffffffffffffffffff1916817bffffffffffffffffffffffffffffffffffffffffffffffffffffffff191614615513576040517f08c379a000000000000000000000000000000000000000000000000000000000815260040161550a90618b2e565b60405180910390fd5b505b505050505050565b600060019054906101000a900460ff1661556c576040517f08c379a00000000000000000000000000000000000000000000000000000000081526004016155639061884c565b60405180910390fd5b6155758161597e565b50565b60007f01ffc9a7000000000000000000000000000000000000000000000000000000007bffffffffffffffffffffffffffffffffffffffffffffffffffffffff1916827bffffffffffffffffffffffffffffffffffffffffffffffffffffffff1916149050919050565b60606156088273ffffffffffffffffffffffffffffffffffffffff16601460ff1661560f565b9050919050565b606060006002836002615622919061864b565b61562c91906177a2565b67ffffffffffffffff81111561564557615644615daf565b5b6040519080825280601f01601f1916602001820160405280156156775781602001600182028036833780820191505090505b5090507f3000000000000000000000000000000000000000000000000000000000000000816000815181106156af576156ae617279565b5b60200101907effffffffffffffffffffffffffffffffffffffffffffffffffffffffffffff1916908160001a9053507f78000000000000000000000000000000000000000000000000000000000000008160018151811061571357615712617279565b5b60200101907effffffffffffffffffffffffffffffffffffffffffffffffffffffffffffff1916908160001a90535060006001846002615753919061864b565b61575d91906177a2565b90505b60018111156157fd577f3031323334353637383961626364656600000000000000000000000000000000600f86166010811061579f5761579e617279565b5b1a60f81b8282815181106157b6576157b5617279565b5b60200101907effffffffffffffffffffffffffffffffffffffffffffffffffffffffffffff1916908160001a905350600485901c9450806157f690618d0c565b9050615760565b5060008414615841576040517f08c379a000000000000000000000000000000000000000000000000000000000815260040161583890618d81565b60405180910390fd5b8091505092915050565b615854816151e7565b8073ffffffffffffffffffffffffffffffffffffffff167fbc7cd75a20ee27fd9adebab32041f755214dbc6bffa90cc0225b39da2e5c2d3b60405160405180910390a250565b60606158a583614ab9565b6158e4576040517f08c379a00000000000000000000000000000000000000000000000000000000081526004016158db90618e13565b60405180910390fd5b6000808473ffffffffffffffffffffffffffffffffffffffff168460405161590c9190618e6f565b600060405180830381855af49150503d8060008114615947576040519150601f19603f3d011682016040523d82523d6000602084013e61594c565b606091505b50915091506159748282604051806060016040528060278152602001618e8760279139615991565b9250505092915050565b806067908161598d9190617cd6565b5050565b606083156159a1578290506159ac565b6159ab83836159b3565b5b9392505050565b6000825111156159c65781518083602001fd5b806040517f08c379a00000000000000000000000000000000000000000000000000000000081526004016159fa9190615cce565b60405180910390fd5b6040518060a00160405280600060ff1681526020016000815260200160008152602001600015158152602001600073ffffffffffffffffffffffffffffffffffffffff1681525090565b6040518060600160405280600060ff16815260200160008152602001600081525090565b6000604051905090565b600080fd5b600080fd5b600073ffffffffffffffffffffffffffffffffffffffff82169050919050565b6000615ab082615a85565b9050919050565b615ac081615aa5565b8114615acb57600080fd5b50565b600081359050615add81615ab7565b92915050565b6000819050919050565b615af681615ae3565b8114615b0157600080fd5b50565b600081359050615b1381615aed565b92915050565b60008060408385031215615b3057615b2f615a7b565b5b6000615b3e85828601615ace565b9250506020615b4f85828601615b04565b9150509250929050565b615b6281615ae3565b82525050565b6000602082019050615b7d6000830184615b59565b92915050565b60007fffffffff0000000000000000000000000000000000000000000000000000000082169050919050565b615bb881615b83565b8114615bc357600080fd5b50565b600081359050615bd581615baf565b92915050565b600060208284031215615bf157615bf0615a7b565b5b6000615bff84828501615bc6565b91505092915050565b60008115159050919050565b615c1d81615c08565b82525050565b6000602082019050615c386000830184615c14565b92915050565b600081519050919050565b600082825260208201905092915050565b60005b83811015615c78578082015181840152602081019050615c5d565b60008484015250505050565b6000601f19601f8301169050919050565b6000615ca082615c3e565b615caa8185615c49565b9350615cba818560208601615c5a565b615cc381615c84565b840191505092915050565b60006020820190508181036000830152615ce88184615c95565b905092915050565b600060208284031215615d0657615d05615a7b565b5b6000615d1484828501615b04565b91505092915050565b6000819050919050565b615d3081615d1d565b8114615d3b57600080fd5b50565b600081359050615d4d81615d27565b92915050565b600060208284031215615d6957615d68615a7b565b5b6000615d7784828501615d3e565b91505092915050565b615d8981615d1d565b82525050565b6000602082019050615da46000830184615d80565b92915050565b600080fd5b7f4e487b7100000000000000000000000000000000000000000000000000000000600052604160045260246000fd5b615de782615c84565b810181811067ffffffffffffffff82111715615e0657615e05615daf565b5b80604052505050565b6000615e19615a71565b9050615e258282615dde565b919050565b600067ffffffffffffffff821115615e4557615e44615daf565b5b602082029050602081019050919050565b600080fd5b6000615e6e615e6984615e2a565b615e0f565b90508083825260208201905060208402830185811115615e9157615e90615e56565b5b835b81811015615eba5780615ea68882615b04565b845260208401935050602081019050615e93565b5050509392505050565b600082601f830112615ed957615ed8615daa565b5b8135615ee9848260208601615e5b565b91505092915050565b600080fd5b600067ffffffffffffffff821115615f1257615f11615daf565b5b615f1b82615c84565b9050602081019050919050565b82818337600083830152505050565b6000615f4a615f4584615ef7565b615e0f565b905082815260208101848484011115615f6657615f65615ef2565b5b615f71848285615f28565b509392505050565b600082601f830112615f8e57615f8d615daa565b5b8135615f9e848260208601615f37565b91505092915050565b600080600080600060a08688031215615fc357615fc2615a7b565b5b6000615fd188828901615ace565b9550506020615fe288828901615ace565b945050604086013567ffffffffffffffff81111561600357616002615a80565b5b61600f88828901615ec4565b935050606086013567ffffffffffffffff8111156160305761602f615a80565b5b61603c88828901615ec4565b925050608086013567ffffffffffffffff81111561605d5761605c615a80565b5b61606988828901615f79565b9150509295509295909350565b60006020828403121561608c5761608b615a7b565b5b600061609a84828501615ace565b91505092915050565b600080604083850312156160ba576160b9615a7b565b5b60006160c885828601615d3e565b92505060206160d985828601615ace565b9150509250929050565b6160ec81615c08565b81146160f757600080fd5b50565b600081359050616109816160e3565b92915050565b6000806040838503121561612657616125615a7b565b5b600061613485828601615b04565b9250506020616145858286016160fa565b9150509250929050565b600061615a82615aa5565b9050919050565b61616a8161614f565b811461617557600080fd5b50565b60008135905061618781616161565b92915050565b6000602082840312156161a3576161a2615a7b565b5b60006161b184828501616178565b91505092915050565b600067ffffffffffffffff8211156161d5576161d4615daf565b5b602082029050602081019050919050565b60006161f96161f4846161ba565b615e0f565b9050808382526020820190506020840283018581111561621c5761621b615e56565b5b835b8181101561624557806162318882615ace565b84526020840193505060208101905061621e565b5050509392505050565b600082601f83011261626457616263615daa565b5b81356162748482602086016161e6565b91505092915050565b6000806040838503121561629457616293615a7b565b5b600083013567ffffffffffffffff8111156162b2576162b1615a80565b5b6162be8582860161624f565b925050602083013567ffffffffffffffff8111156162df576162de615a80565b5b6162eb85828601615ec4565b9150509250929050565b600081519050919050565b600082825260208201905092915050565b6000819050602082019050919050565b61632a81615ae3565b82525050565b600061633c8383616321565b60208301905092915050565b6000602082019050919050565b6000616360826162f5565b61636a8185616300565b935061637583616311565b8060005b838110156163a657815161638d8882616330565b975061639883616348565b925050600181019050616379565b5085935050505092915050565b600060208201905081810360008301526163cd8184616355565b905092915050565b600080604083850312156163ec576163eb615a7b565b5b60006163fa85828601615ace565b925050602083013567ffffffffffffffff81111561641b5761641a615a80565b5b61642785828601615f79565b9150509250929050565b600081519050919050565b600082825260208201905092915050565b6000819050602082019050919050565b600060ff82169050919050565b6164738161645d565b82525050565b61648281615c08565b82525050565b61649181615aa5565b82525050565b60a0820160008201516164ad600085018261646a565b5060208201516164c06020850182616321565b5060408201516164d36040850182616321565b5060608201516164e66060850182616479565b5060808201516164f96080850182616488565b50505050565b600061650b8383616497565b60a08301905092915050565b6000602082019050919050565b600061652f82616431565b616539818561643c565b93506165448361644d565b8060005b8381101561657557815161655c88826164ff565b975061656783616517565b925050600181019050616548565b5085935050505092915050565b6000602082019050818103600083015261659c8184616524565b905092915050565b6165ad8161645d565b81146165b857600080fd5b50565b6000813590506165ca816165a4565b92915050565b6000602082840312156165e6576165e5615a7b565b5b60006165f4848285016165bb565b91505092915050565b60006060820190506166126000830186615b59565b61661f6020830185615b59565b61662c6040830184615b59565b949350505050565b6000819050919050565b600061665961665461664f84615a85565b616634565b615a85565b9050919050565b600061666b8261663e565b9050919050565b600061667d82616660565b9050919050565b61668d81616672565b82525050565b60006020820190506166a86000830184616684565b92915050565b6000806000606084860312156166c7576166c6615a7b565b5b60006166d586828701615b04565b93505060206166e6868287016165bb565b92505060406166f786828701615ace565b9150509250925092565b61670a81615aa5565b82525050565b60006020820190506167256000830184616701565b92915050565b600080fd5b60008083601f84011261674657616745615daa565b5b8235905067ffffffffffffffff8111156167635761676261672b565b5b60208301915083600182028301111561677f5761677e615e56565b5b9250929050565b6002811061679357600080fd5b50565b6000813590506167a581616786565b92915050565b60008060008060008060a087890312156167c8576167c7615a7b565b5b60006167d689828a01615ace565b96505060206167e789828a01615b04565b95505060406167f889828a01615b04565b945050606087013567ffffffffffffffff81111561681957616818615a80565b5b61682589828a01616730565b9350935050608061683889828a01616796565b9150509295509295509295565b6000806040838503121561685c5761685b615a7b565b5b600061686a85828601615ace565b925050602061687b858286016160fa565b9150509250929050565b600067ffffffffffffffff8211156168a05761689f615daf565b5b6168a982615c84565b9050602081019050919050565b60006168c96168c484616885565b615e0f565b9050828152602081018484840111156168e5576168e4615ef2565b5b6168f0848285615f28565b509392505050565b600082601f83011261690d5761690c615daa565b5b813561691d8482602086016168b6565b91505092915050565b600067ffffffffffffffff82111561694157616940615daf565b5b602082029050602081019050919050565b600080fd5b60006060828403121561696d5761696c616952565b5b6169776060615e0f565b90506000616987848285016165bb565b600083015250602061699b84828501615b04565b60208301525060406169af84828501615b04565b60408301525092915050565b60006169ce6169c984616926565b615e0f565b905080838252602082019050606084028301858111156169f1576169f0615e56565b5b835b81811015616a1a5780616a068882616957565b8452602084019350506060810190506169f3565b5050509392505050565b600082601f830112616a3957616a38615daa565b5b8135616a498482602086016169bb565b91505092915050565b6000806000806000806000806000806101408b8d031215616a7657616a75615a7b565b5b6000616a848d828e01615ace565b9a505060208b013567ffffffffffffffff811115616aa557616aa4615a80565b5b616ab18d828e016168f8565b9950506040616ac28d828e01615ace565b9850506060616ad38d828e016160fa565b9750506080616ae48d828e01616178565b96505060a08b013567ffffffffffffffff811115616b0557616b04615a80565b5b616b118d828e016168f8565b95505060c08b013567ffffffffffffffff811115616b3257616b31615a80565b5b616b3e8d828e016168f8565b94505060e0616b4f8d828e01615ace565b9350506101008b013567ffffffffffffffff811115616b7157616b70615a80565b5b616b7d8d828e01616a24565b925050610120616b8f8d828e01615b04565b9150509295989b9194979a5092959850565b60008060008060808587031215616bbb57616bba615a7b565b5b6000616bc987828801615ace565b9450506020616bda87828801615b04565b9350506040616beb878288016165bb565b925050606085013567ffffffffffffffff811115616c0c57616c0b615a80565b5b616c18878288016168f8565b91505092959194509250565b600080600080600060808688031215616c4057616c3f615a7b565b5b6000616c4e88828901615ace565b9550506020616c5f88828901615b04565b945050604086013567ffffffffffffffff811115616c8057616c7f615a80565b5b616c8c88828901616730565b93509350506060616c9f88828901616796565b9150509295509295909350565b60008060408385031215616cc357616cc2615a7b565b5b6000616cd185828601615ace565b9250506020616ce285828601615ace565b9150509250929050565b600080600080600060a08688031215616d0857616d07615a7b565b5b6000616d1688828901615ace565b9550506020616d2788828901615ace565b9450506040616d3888828901615b04565b9350506060616d4988828901615b04565b925050608086013567ffffffffffffffff811115616d6a57616d69615a80565b5b616d7688828901615f79565b9150509295509295909350565b616d8c8161645d565b82525050565b6000602082019050616da76000830184616d83565b92915050565b600060a082019050616dc26000830188616d83565b616dcf6020830187615b59565b616ddc6040830186615b59565b616de96060830185615c14565b616df66080830184616701565b9695505050505050565b7f455243313135353a2061646472657373207a65726f206973206e6f742061207660008201527f616c6964206f776e657200000000000000000000000000000000000000000000602082015250565b6000616e5c602a83615c49565b9150616e6782616e00565b604082019050919050565b60006020820190508181036000830152616e8b81616e4f565b9050919050565b7f4e487b7100000000000000000000000000000000000000000000000000000000600052602260045260246000fd5b60006002820490506001821680616ed957607f821691505b602082108103616eec57616eeb616e92565b5b50919050565b7f455243313135353a2063616c6c6572206973206e6f7420746f6b656e206f776e60008201527f6572206f7220617070726f766564000000000000000000000000000000000000602082015250565b6000616f4e602e83615c49565b9150616f5982616ef2565b604082019050919050565b60006020820190508181036000830152616f7d81616f41565b9050919050565b7f416363657373436f6e74726f6c3a2063616e206f6e6c792072656e6f756e636560008201527f20726f6c657320666f722073656c660000000000000000000000000000000000602082015250565b6000616fe0602f83615c49565b9150616feb82616f84565b604082019050919050565b6000602082019050818103600083015261700f81616fd3565b9050919050565b7f46756e6374696f6e206d7573742062652063616c6c6564207468726f7567682060008201527f64656c656761746563616c6c0000000000000000000000000000000000000000602082015250565b6000617072602c83615c49565b915061707d82617016565b604082019050919050565b600060208201905081810360008301526170a181617065565b9050919050565b7f46756e6374696f6e206d7573742062652063616c6c6564207468726f7567682060008201527f6163746976652070726f78790000000000000000000000000000000000000000602082015250565b6000617104602c83615c49565b915061710f826170a8565b604082019050919050565b60006020820190508181036000830152617133816170f7565b9050919050565b60008151905061714981615aed565b92915050565b60006020828403121561716557617164615a7b565b5b60006171738482850161713a565b91505092915050565b60006040820190506171916000830185616701565b61719e6020830184615b59565b9392505050565b6000815190506171b4816160e3565b92915050565b6000602082840312156171d0576171cf615a7b565b5b60006171de848285016171a5565b91505092915050565b7f455243313135353a206163636f756e747320616e6420696473206c656e67746860008201527f206d69736d617463680000000000000000000000000000000000000000000000602082015250565b6000617243602983615c49565b915061724e826171e7565b604082019050919050565b6000602082019050818103600083015261727281617236565b9050919050565b7f4e487b7100000000000000000000000000000000000000000000000000000000600052603260045260246000fd5b7f4e487b7100000000000000000000000000000000000000000000000000000000600052601160045260246000fd5b60006172e282615ae3565b91507fffffffffffffffffffffffffffffffffffffffffffffffffffffffffffffffff8203617314576173136172a8565b5b600182019050919050565b7f555550535570677261646561626c653a206d757374206e6f742062652063616c60008201527f6c6564207468726f7567682064656c656761746563616c6c0000000000000000602082015250565b600061737b603883615c49565b91506173868261731f565b604082019050919050565b600060208201905081810360008301526173aa8161736e565b9050919050565b7f49742773206e6f742074696d6520746f20627579207075626c69632073616c65600082015250565b60006173e7602083615c49565b91506173f2826173b1565b602082019050919050565b60006020820190508181036000830152617416816173da565b9050919050565b7f49742773206e6f742074696d6520746f20627579000000000000000000000000600082015250565b6000617453601483615c49565b915061745e8261741d565b602082019050919050565b6000602082019050818103600083015261748281617446565b9050919050565b7f427579206c696d69742072656163686564000000000000000000000000000000600082015250565b60006174bf601183615c49565b91506174ca82617489565b602082019050919050565b600060208201905081810360008301526174ee816174b2565b9050919050565b7f546f6b656e207479706520646f6573206e6f7420657869737400000000000000600082015250565b600061752b601983615c49565b9150617536826174f5565b602082019050919050565b6000602082019050818103600083015261755a8161751e565b9050919050565b7f546f6b656e2072756e206f757400000000000000000000000000000000000000600082015250565b6000617597600d83615c49565b91506175a282617561565b602082019050919050565b600060208201905081810360008301526175c68161758a565b9050919050565b7f546f6b656e2069642069736e277420696e2077686974656c6973740000000000600082015250565b6000617603601b83615c49565b915061760e826175cd565b602082019050919050565b60006020820190508181036000830152617632816175f6565b9050919050565b7f546f6b656e206964206973206d696e7465640000000000000000000000000000600082015250565b600061766f601283615c49565b915061767a82617639565b602082019050919050565b6000602082019050818103600083015261769e81617662565b9050919050565b7f55736572206e65656420686f6c6420656e6f75676820546f6b656e20746f206260008201527f75792074686973206e6674000000000000000000000000000000000000000000602082015250565b6000617701602b83615c49565b915061770c826176a5565b604082019050919050565b60006020820190508181036000830152617730816176f4565b9050919050565b600060608201905061774c6000830186616701565b6177596020830185616701565b6177666040830184615b59565b949350505050565b600061777982615ae3565b915061778483615ae3565b925082820390508181111561779c5761779b6172a8565b5b92915050565b60006177ad82615ae3565b91506177b883615ae3565b92508282019050808211156177d0576177cf6172a8565b5b92915050565b600060c0820190506177eb6000830189616701565b6177f86020830188615b59565b6178056040830187616d83565b81810360608301526178178186615c95565b90506178266080830185615b59565b61783360a0830184615b59565b979650505050505050565b61784781615aa5565b82525050565b61785681615ae3565b82525050565b600082825260208201905092915050565b6000617879838561785c565b9350617886838584615f28565b61788f83615c84565b840190509392505050565b7f4e487b7100000000000000000000000000000000000000000000000000000000600052602160045260246000fd5b600281106178da576178d961789a565b5b50565b60008190506178eb826178c9565b919050565b60006178fb826178dd565b9050919050565b61790b816178f0565b82525050565b600060a082019050617926600083018961783e565b617933602083018861784d565b617940604083018761784d565b818103606083015261795381858761786d565b90506179626080830184617902565b979650505050505050565b7f57686974656c69737420616e642062757961626c6520616d6f756e74206c697360008201527f74206d7573742062652073616d65206c656e6774680000000000000000000000602082015250565b60006179c9603583615c49565b91506179d48261796d565b604082019050919050565b600060208201905081810360008301526179f8816179bc565b9050919050565b7f496e697469616c697a61626c653a20636f6e747261637420697320616c72656160008201527f647920696e697469616c697a6564000000000000000000000000000000000000602082015250565b6000617a5b602e83615c49565b9150617a66826179ff565b604082019050919050565b60006020820190508181036000830152617a8a81617a4e565b9050919050565b7f546f74616c20737570706c7920646f6573206e6f74206d617463680000000000600082015250565b6000617ac7601b83615c49565b9150617ad282617a91565b602082019050919050565b60006020820190508181036000830152617af681617aba565b9050919050565b6000606082019050617b126000830186616d83565b617b1f6020830185615b59565b617b2c6040830184615b59565b949350505050565b60008190508160005260206000209050919050565b60006020601f8301049050919050565b600082821b905092915050565b600060088302617b967fffffffffffffffffffffffffffffffffffffffffffffffffffffffffffffffff82617b59565b617ba08683617b59565b95508019841693508086168417925050509392505050565b6000617bd3617bce617bc984615ae3565b616634565b615ae3565b9050919050565b6000819050919050565b617bed83617bb8565b617c01617bf982617bda565b848454617b66565b825550505050565b600090565b617c16617c09565b617c21818484617be4565b505050565b5b81811015617c4557617c3a600082617c0e565b600181019050617c27565b5050565b601f821115617c8a57617c5b81617b34565b617c6484617b49565b81016020851015617c73578190505b617c87617c7f85617b49565b830182617c26565b50505b505050565b600082821c905092915050565b6000617cad60001984600802617c8f565b1980831691505092915050565b6000617cc68383617c9c565b9150826002028217905092915050565b617cdf82615c3e565b67ffffffffffffffff811115617cf857617cf7615daf565b5b617d028254616ec1565b617d0d828285617c49565b600060209050601f831160018114617d405760008415617d2e578287015190505b617d388582617cba565b865550617da0565b601f198416617d4e86617b34565b60005b82811015617d7657848901518255600182019150602085019450602081019050617d51565b86831015617d935784890151617d8f601f891682617c9c565b8355505b6001600288020188555050505b505050505050565b6000819050919050565b6000617dcd617dc8617dc384617da8565b616634565b61645d565b9050919050565b617ddd81617db2565b82525050565b6000602082019050617df86000830184617dd4565b92915050565b600081905092915050565b6000617e1482615c3e565b617e1e8185617dfe565b9350617e2e818560208601615c5a565b80840191505092915050565b6000617e468284617e09565b915081905092915050565b7f4769667420636f646520697320616c7265616479206163746976617465640000600082015250565b6000617e87601e83615c49565b9150617e9282617e51565b602082019050919050565b60006020820190508181036000830152617eb681617e7a565b9050919050565b600060a082019050617ed26000830188616701565b617edf6020830187615b59565b617eec6040830186616d83565b8181036060830152617efe8185615c95565b90508181036080830152617f128184615c95565b90509695505050505050565b6000819050919050565b6000617f43617f3e617f3984617f1e565b616634565b615ae3565b9050919050565b617f5381617f28565b82525050565b600060c082019050617f6e6000830189616701565b617f7b6020830188615b59565b617f886040830187616d83565b8181036060830152617f9a8186615c95565b9050617fa96080830185617f4a565b617fb660a0830184617f4a565b979650505050505050565b6000608082019050617fd6600083018861783e565b617fe3602083018761784d565b8181036040830152617ff681858761786d565b90506180056060830184617902565b9695505050505050565b7f4f776e61626c653a206e6577206f776e657220697320746865207a65726f206160008201527f6464726573730000000000000000000000000000000000000000000000000000602082015250565b600061806b602683615c49565b91506180768261800f565b604082019050919050565b6000602082019050818103600083015261809a8161805e565b9050919050565b7f49742773206e6f742074696d6520746f206275792077686974656c697374207360008201527f616c650000000000000000000000000000000000000000000000000000000000602082015250565b60006180fd602383615c49565b9150618108826180a1565b604082019050919050565b6000602082019050818103600083015261812c816180f0565b9050919050565b7f55736572206e6f7420696e2077686974656c697374206f72206c696d6974207260008201527f6561636865640000000000000000000000000000000000000000000000000000602082015250565b600061818f602683615c49565b915061819a82618133565b604082019050919050565b600060208201905081810360008301526181be81618182565b9050919050565b7f455243313135353a2069647320616e6420616d6f756e7473206c656e6774682060008201527f6d69736d61746368000000000000000000000000000000000000000000000000602082015250565b6000618221602883615c49565b915061822c826181c5565b604082019050919050565b6000602082019050818103600083015261825081618214565b9050919050565b7f455243313135353a207472616e7366657220746f20746865207a65726f20616460008201527f6472657373000000000000000000000000000000000000000000000000000000602082015250565b60006182b3602583615c49565b91506182be82618257565b604082019050919050565b600060208201905081810360008301526182e2816182a6565b9050919050565b7f455243313135353a20696e73756666696369656e742062616c616e636520666f60008201527f72207472616e7366657200000000000000000000000000000000000000000000602082015250565b6000618345602a83615c49565b9150618350826182e9565b604082019050919050565b6000602082019050818103600083015261837481618338565b9050919050565b600060408201905081810360008301526183958185616355565b905081810360208301526183a98184616355565b90509392505050565b6000815190506183c181615d27565b92915050565b6000602082840312156183dd576183dc615a7b565b5b60006183eb848285016183b2565b91505092915050565b7f45524331393637557067726164653a206e657720696d706c656d656e7461746960008201527f6f6e206973206e6f742055555053000000000000000000000000000000000000602082015250565b6000618450602e83615c49565b915061845b826183f4565b604082019050919050565b6000602082019050818103600083015261847f81618443565b9050919050565b7f45524331393637557067726164653a20756e737570706f727465642070726f7860008201527f6961626c65555549440000000000000000000000000000000000000000000000602082015250565b60006184e2602983615c49565b91506184ed82618486565b604082019050919050565b60006020820190508181036000830152618511816184d5565b9050919050565b7f4f776e61626c653a2063616c6c6572206973206e6f7420746865206f776e6572600082015250565b600061854e602083615c49565b915061855982618518565b602082019050919050565b6000602082019050818103600083015261857d81618541565b9050919050565b600061ffff82169050919050565b61859b81618584565b81146185a657600080fd5b50565b6000815190506185b881618592565b92915050565b6000602082840312156185d4576185d3615a7b565b5b60006185e2848285016185a9565b91505092915050565b7f4e487b7100000000000000000000000000000000000000000000000000000000600052601260045260246000fd5b600061862582615ae3565b915061863083615ae3565b9250826186405761863f6185eb565b5b828204905092915050565b600061865682615ae3565b915061866183615ae3565b925082820261866f81615ae3565b91508282048414831517618686576186856172a8565b5b5092915050565b7f455243313135353a206d696e7420746f20746865207a65726f2061646472657360008201527f7300000000000000000000000000000000000000000000000000000000000000602082015250565b60006186e9602183615c49565b91506186f48261868d565b604082019050919050565b60006020820190508181036000830152618718816186dc565b9050919050565b60006040820190506187346000830185615b59565b6187416020830184615b59565b9392505050565b7f455243313135353a2073657474696e6720617070726f76616c2073746174757360008201527f20666f722073656c660000000000000000000000000000000000000000000000602082015250565b60006187a4602983615c49565b91506187af82618748565b604082019050919050565b600060208201905081810360008301526187d381618797565b9050919050565b7f496e697469616c697a61626c653a20636f6e7472616374206973206e6f74206960008201527f6e697469616c697a696e67000000000000000000000000000000000000000000602082015250565b6000618836602b83615c49565b9150618841826187da565b604082019050919050565b6000602082019050818103600083015261886581618829565b9050919050565b600081519050919050565b600082825260208201905092915050565b60006188938261886c565b61889d8185618877565b93506188ad818560208601615c5a565b6188b681615c84565b840191505092915050565b600060a0820190506188d66000830188616701565b6188e36020830187616701565b81810360408301526188f58186616355565b905081810360608301526189098185616355565b9050818103608083015261891d8184618888565b90509695505050505050565b60008151905061893881615baf565b92915050565b60006020828403121561895457618953615a7b565b5b600061896284828501618929565b91505092915050565b60008160e01c9050919050565b600060033d11156189975760046000803e61899460005161896b565b90505b90565b600060443d10618a27576189ac615a71565b60043d036004823e80513d602482011167ffffffffffffffff821117156189d4575050618a27565b808201805167ffffffffffffffff8111156189f25750505050618a27565b80602083010160043d038501811115618a0f575050505050618a27565b618a1e82602001850186615dde565b82955050505050505b90565b7f455243313135353a207472616e7366657220746f206e6f6e2d4552433131353560008201527f526563656976657220696d706c656d656e746572000000000000000000000000602082015250565b6000618a86603483615c49565b9150618a9182618a2a565b604082019050919050565b60006020820190508181036000830152618ab581618a79565b9050919050565b7f455243313135353a204552433131353552656365697665722072656a6563746560008201527f6420746f6b656e73000000000000000000000000000000000000000000000000602082015250565b6000618b18602883615c49565b9150618b2382618abc565b604082019050919050565b60006020820190508181036000830152618b4781618b0b565b9050919050565b7f416363657373436f6e74726f6c3a206163636f756e7420000000000000000000600082015250565b6000618b84601783617dfe565b9150618b8f82618b4e565b601782019050919050565b7f206973206d697373696e6720726f6c6520000000000000000000000000000000600082015250565b6000618bd0601183617dfe565b9150618bdb82618b9a565b601182019050919050565b6000618bf182618b77565b9150618bfd8285617e09565b9150618c0882618bc3565b9150618c148284617e09565b91508190509392505050565b7f455243313936373a206e657720696d706c656d656e746174696f6e206973206e60008201527f6f74206120636f6e747261637400000000000000000000000000000000000000602082015250565b6000618c7c602d83615c49565b9150618c8782618c20565b604082019050919050565b60006020820190508181036000830152618cab81618c6f565b9050919050565b600060a082019050618cc76000830188616701565b618cd46020830187616701565b618ce16040830186615b59565b618cee6060830185615b59565b8181036080830152618d008184618888565b90509695505050505050565b6000618d1782615ae3565b915060008203618d2a57618d296172a8565b5b600182039050919050565b7f537472696e67733a20686578206c656e67746820696e73756666696369656e74600082015250565b6000618d6b602083615c49565b9150618d7682618d35565b602082019050919050565b60006020820190508181036000830152618d9a81618d5e565b9050919050565b7f416464726573733a2064656c65676174652063616c6c20746f206e6f6e2d636f60008201527f6e74726163740000000000000000000000000000000000000000000000000000602082015250565b6000618dfd602683615c49565b9150618e0882618da1565b604082019050919050565b60006020820190508181036000830152618e2c81618df0565b9050919050565b600081905092915050565b6000618e498261886c565b618e538185618e33565b9350618e63818560208601615c5a565b80840191505092915050565b6000618e7b8284618e3e565b91508190509291505056fe416464726573733a206c6f772d6c6576656c2064656c65676174652063616c6c206661696c6564a2646970667358221220808c350da006b8f538b6ae70e6d7263dc3b7bfefe7660952b52bc4c752adc20b64736f6c6343000812003360a06040523073ffffffffffffffffffffffffffffffffffffffff1660809073ffffffffffffffffffffffffffffffffffffffff1681525034801561004357600080fd5b506080516163016200007c60003960008181610b6e01528181610bfc01528181610d1601528181610da40152610e5401526163016000f3fe6080604052600436106102045760003560e01c80638da5cb5b11610118578063b1e5e2b7116100a0578063c87b56dd1161006f578063c87b56dd14610752578063d547741f1461078f578063e4a4a2a3146107b8578063e985e9c5146107e1578063f2fde38b1461081e57610204565b8063b1e5e2b7146106ac578063b224d82b146106d5578063b88d4fde14610700578063c4ca3a9c1461072957610204565b806395d89b41116100e757806395d89b41146105d9578063a0712d6814610604578063a217fddf1461062d578063a22cb46514610658578063b0952aff1461068157610204565b80638da5cb5b1461050b5780638f0b7b681461053657806391d148541461055f5780639254b8151461059c57610204565b80633659cfe61161019b5780636352211e1161016a5780636352211e146104285780636f96e99c1461046557806370a082311461048e578063715018a6146104cb57806388c63a57146104e257610204565b80633659cfe61461038f57806342842e0e146103b85780634f1ef286146103e157806352d1902d146103fd57610204565b806323b872dd116101d757806323b872dd146102d7578063248a9ca3146103005780632f2ff15d1461033d57806336568abe1461036657610204565b806301ffc9a71461020957806306fdde0314610246578063081812fc14610271578063095ea7b3146102ae575b600080fd5b34801561021557600080fd5b50610230600480360381019061022b9190613b8d565b610847565b60405161023d9190613bd5565b60405180910390f35b34801561025257600080fd5b5061025b610859565b6040516102689190613c80565b60405180910390f35b34801561027d57600080fd5b5061029860048036038101906102939190613cd8565b6108eb565b6040516102a59190613d46565b60405180910390f35b3480156102ba57600080fd5b506102d560048036038101906102d09190613d8d565b610931565b005b3480156102e357600080fd5b506102fe60048036038101906102f99190613dcd565b610a48565b005b34801561030c57600080fd5b5061032760048036038101906103229190613e56565b610aa8565b6040516103349190613e92565b60405180910390f35b34801561034957600080fd5b50610364600480360381019061035f9190613ead565b610ac8565b005b34801561037257600080fd5b5061038d60048036038101906103889190613ead565b610ae9565b005b34801561039b57600080fd5b506103b660048036038101906103b19190613eed565b610b6c565b005b3480156103c457600080fd5b506103df60048036038101906103da9190613dcd565b610cf4565b005b6103fb60048036038101906103f6919061404f565b610d14565b005b34801561040957600080fd5b50610412610e50565b60405161041f9190613e92565b60405180910390f35b34801561043457600080fd5b5061044f600480360381019061044a9190613cd8565b610f09565b60405161045c9190613d46565b60405180910390f35b34801561047157600080fd5b5061048c600480360381019061048791906140e9565b610f8f565b005b34801561049a57600080fd5b506104b560048036038101906104b09190613eed565b611115565b6040516104c29190614125565b60405180910390f35b3480156104d757600080fd5b506104e06111cc565b005b3480156104ee57600080fd5b506105096004803603810190610504919061417e565b6111e0565b005b34801561051757600080fd5b50610520611366565b60405161052d9190613d46565b60405180910390f35b34801561054257600080fd5b5061055d60048036038101906105589190614230565b611391565b005b34801561056b57600080fd5b5061058660048036038101906105819190613ead565b611435565b6040516105939190613bd5565b60405180910390f35b3480156105a857600080fd5b506105c360048036038101906105be9190613eed565b6114a0565b6040516105d09190614388565b60405180910390f35b3480156105e557600080fd5b506105ee611538565b6040516105fb9190613c80565b60405180910390f35b34801561061057600080fd5b5061062b60048036038101906106269190613cd8565b6115ca565b005b34801561063957600080fd5b506106426119a8565b60405161064f9190613e92565b60405180910390f35b34801561066457600080fd5b5061067f600480360381019061067a91906143d6565b6119af565b005b34801561068d57600080fd5b506106966119c5565b6040516106a39190614475565b60405180910390f35b3480156106b857600080fd5b506106d360048036038101906106ce9190613cd8565b6119ec565b005b3480156106e157600080fd5b506106ea611bbb565b6040516106f791906144b1565b60405180910390f35b34801561070c57600080fd5b50610727600480360381019061072291906144cc565b611be2565b005b34801561073557600080fd5b50610750600480360381019061074b919061454f565b611c44565b005b34801561075e57600080fd5b5061077960048036038101906107749190613cd8565b611cf7565b6040516107869190613c80565b60405180910390f35b34801561079b57600080fd5b506107b660048036038101906107b19190613ead565b611d95565b005b3480156107c457600080fd5b506107df60048036038101906107da9190614678565b611db6565b005b3480156107ed57600080fd5b5061080860048036038101906108039190614796565b612031565b6040516108159190613bd5565b60405180910390f35b34801561082a57600080fd5b5061084560048036038101906108409190613eed565b6120c5565b005b600061085282612148565b9050919050565b60606065805461086890614805565b80601f016020809104026020016040519081016040528092919081815260200182805461089490614805565b80156108e15780601f106108b6576101008083540402835291602001916108e1565b820191906000526020600020905b8154815290600101906020018083116108c457829003601f168201915b5050505050905090565b60006108f6826121c2565b6069600083815260200190815260200160002060009054906101000a900473ffffffffffffffffffffffffffffffffffffffff169050919050565b600061093c82610f09565b90508073ffffffffffffffffffffffffffffffffffffffff168373ffffffffffffffffffffffffffffffffffffffff16036109ac576040517f08c379a00000000000000000000000000000000000000000000000000000000081526004016109a3906148a8565b60405180910390fd5b8073ffffffffffffffffffffffffffffffffffffffff166109cb61220d565b73ffffffffffffffffffffffffffffffffffffffff1614806109fa57506109f9816109f461220d565b612031565b5b610a39576040517f08c379a0000000000000000000000000000000000000000000000000000000008152600401610a309061493a565b60405180910390fd5b610a438383612215565b505050565b610a59610a5361220d565b826122ce565b610a98576040517f08c379a0000000000000000000000000000000000000000000000000000000008152600401610a8f906149cc565b60405180910390fd5b610aa3838383612363565b505050565b600060976000838152602001908152602001600020600101549050919050565b610ad182610aa8565b610ada8161265c565b610ae48383612670565b505050565b610af161220d565b73ffffffffffffffffffffffffffffffffffffffff168173ffffffffffffffffffffffffffffffffffffffff1614610b5e576040517f08c379a0000000000000000000000000000000000000000000000000000000008152600401610b5590614a5e565b60405180910390fd5b610b688282612751565b5050565b7f000000000000000000000000000000000000000000000000000000000000000073ffffffffffffffffffffffffffffffffffffffff163073ffffffffffffffffffffffffffffffffffffffff1603610bfa576040517f08c379a0000000000000000000000000000000000000000000000000000000008152600401610bf190614af0565b60405180910390fd5b7f000000000000000000000000000000000000000000000000000000000000000073ffffffffffffffffffffffffffffffffffffffff16610c39612833565b73ffffffffffffffffffffffffffffffffffffffff1614610c8f576040517f08c379a0000000000000000000000000000000000000000000000000000000008152600401610c8690614b82565b60405180910390fd5b610c988161288a565b610cf181600067ffffffffffffffff811115610cb757610cb6613f24565b5b6040519080825280601f01601f191660200182016040528015610ce95781602001600182028036833780820191505090505b5060006128b8565b50565b610d0f83838360405180602001604052806000815250611be2565b505050565b7f000000000000000000000000000000000000000000000000000000000000000073ffffffffffffffffffffffffffffffffffffffff163073ffffffffffffffffffffffffffffffffffffffff1603610da2576040517f08c379a0000000000000000000000000000000000000000000000000000000008152600401610d9990614af0565b60405180910390fd5b7f000000000000000000000000000000000000000000000000000000000000000073ffffffffffffffffffffffffffffffffffffffff16610de1612833565b73ffffffffffffffffffffffffffffffffffffffff1614610e37576040517f08c379a0000000000000000000000000000000000000000000000000000000008152600401610e2e90614b82565b60405180910390fd5b610e408261288a565b610e4c828260016128b8565b5050565b60007f000000000000000000000000000000000000000000000000000000000000000073ffffffffffffffffffffffffffffffffffffffff163073ffffffffffffffffffffffffffffffffffffffff1614610ee0576040517f08c379a0000000000000000000000000000000000000000000000000000000008152600401610ed790614c14565b60405180910390fd5b7f360894a13ba1a3210667c828492db98dca3e2076cc3735a920a3ca505d382bbc60001b905090565b600080610f1583612a26565b9050600073ffffffffffffffffffffffffffffffffffffffff168173ffffffffffffffffffffffffffffffffffffffff1603610f86576040517f08c379a0000000000000000000000000000000000000000000000000000000008152600401610f7d90614c80565b60405180910390fd5b80915050919050565b7f22c69ab406805e70d07fb1a6502af760601d3b977beadb295a9d76d5852e16a3610fb98161265c565b61015f60009054906101000a900473ffffffffffffffffffffffffffffffffffffffff1673ffffffffffffffffffffffffffffffffffffffff168273ffffffffffffffffffffffffffffffffffffffff160361104a576040517f08c379a000000000000000000000000000000000000000000000000000000000815260040161104190614d38565b60405180910390fd5b600061015f60009054906101000a900473ffffffffffffffffffffffffffffffffffffffff1690508261015f60006101000a81548173ffffffffffffffffffffffffffffffffffffffff021916908373ffffffffffffffffffffffffffffffffffffffff1602179055507f95b51941f4e9b50395a323548e977103f9f32e909efa973665c8c2889c4e51068161016260009054906101000a900473ffffffffffffffffffffffffffffffffffffffff16604051611108929190614d58565b60405180910390a1505050565b60008073ffffffffffffffffffffffffffffffffffffffff168273ffffffffffffffffffffffffffffffffffffffff1603611185576040517f08c379a000000000000000000000000000000000000000000000000000000000815260040161117c90614df3565b60405180910390fd5b606860008373ffffffffffffffffffffffffffffffffffffffff1673ffffffffffffffffffffffffffffffffffffffff168152602001908152602001600020549050919050565b6111d4612a63565b6111de6000612ae1565b565b7f22c69ab406805e70d07fb1a6502af760601d3b977beadb295a9d76d5852e16a361120a8161265c565b61016260009054906101000a900473ffffffffffffffffffffffffffffffffffffffff1673ffffffffffffffffffffffffffffffffffffffff168273ffffffffffffffffffffffffffffffffffffffff160361129b576040517f08c379a000000000000000000000000000000000000000000000000000000000815260040161129290614eab565b60405180910390fd5b600061016260009054906101000a900473ffffffffffffffffffffffffffffffffffffffff1690508261016260006101000a81548173ffffffffffffffffffffffffffffffffffffffff021916908373ffffffffffffffffffffffffffffffffffffffff1602179055507fcd96411d27b0679c066181f5eada6e87b37923da830ba84a40dd98933e694fe18161016260009054906101000a900473ffffffffffffffffffffffffffffffffffffffff16604051611359929190614d58565b60405180910390a1505050565b600061012d60009054906101000a900473ffffffffffffffffffffffffffffffffffffffff16905090565b7fa49807205ce4d355092ef5a8a18f56e8913cf4a201fbe287825b095693c217756113bb8161265c565b73__$afec012158ebc01e771e0b8521b3c90181$__6339d1efc68888888888886040518763ffffffff1660e01b81526004016113fc96959493929190614f9e565b60006040518083038186803b15801561141457600080fd5b505af4158015611428573d6000803e3d6000fd5b5050505050505050505050565b60006097600084815260200190815260200160002060000160008373ffffffffffffffffffffffffffffffffffffffff1673ffffffffffffffffffffffffffffffffffffffff16815260200190815260200160002060009054906101000a900460ff16905092915050565b606061016360008373ffffffffffffffffffffffffffffffffffffffff1673ffffffffffffffffffffffffffffffffffffffff16815260200190815260200160002080548060200260200160405190810160405280929190818152602001828054801561152c57602002820191906000526020600020905b815481526020019060010190808311611518575b50505050509050919050565b60606066805461154790614805565b80601f016020809104026020016040519081016040528092919081815260200182805461157390614805565b80156115c05780601f10611595576101008083540402835291602001916115c0565b820191906000526020600020905b8154815290600101906020018083116115a357829003601f168201915b5050505050905090565b61015f60009054906101000a900473ffffffffffffffffffffffffffffffffffffffff16333061016754808473ffffffffffffffffffffffffffffffffffffffff1663dd62ed3e85856040518363ffffffff1660e01b8152600401611630929190614d58565b602060405180830381865afa15801561164d573d6000803e3d6000fd5b505050506040513d601f19601f82011682018060405250810190611671919061500f565b10156116b2576040517f08c379a00000000000000000000000000000000000000000000000000000000081526004016116a990615088565b60405180910390fd5b610169544210156116f8576040517f08c379a00000000000000000000000000000000000000000000000000000000081526004016116ef906150f4565b60405180910390fd5b61016a5442111561173e576040517f08c379a000000000000000000000000000000000000000000000000000000000815260040161173590615160565b60405180910390fd5b610166546101685410611786576040517f08c379a000000000000000000000000000000000000000000000000000000000815260040161177d906151cc565b60405180910390fd5b600061016560009054906101000a900460ff166117ee576117a686612ba9565b156117e6576040517f08c379a00000000000000000000000000000000000000000000000000000000081526004016117dd9061525e565b60405180910390fd5b859050611807565b6117f9610161612bea565b611804610161612c00565b90505b61015f60009054906101000a900473ffffffffffffffffffffffffffffffffffffffff1673ffffffffffffffffffffffffffffffffffffffff166323b872dd3330610167546040518463ffffffff1660e01b815260040161186a9392919061527e565b6020604051808303816000875af1158015611889573d6000803e3d6000fd5b505050506040513d601f19601f820116820180604052508101906118ad91906152ca565b506118b83382612c0e565b600161016860008282546118cc9190615326565b9250508190555061016360003373ffffffffffffffffffffffffffffffffffffffff1673ffffffffffffffffffffffffffffffffffffffff1681526020019081526020016000208190806001815401808255809150506001900390600052602060002001600090919091909150556000610164600083815260200190815260200160002060006101000a81548160ff0219169083151502179055507ffc12685c49cfeb42745015fd291b95815c183f87696b74009c88ed640a03b247338260405161199892919061535a565b60405180910390a1505050505050565b6000801b81565b6119c16119ba61220d565b8383612e2b565b5050565b61016260009054906101000a900473ffffffffffffffffffffffffffffffffffffffff1681565b3373ffffffffffffffffffffffffffffffffffffffff16611a0c82610f09565b73ffffffffffffffffffffffffffffffffffffffff1614611a62576040517f08c379a0000000000000000000000000000000000000000000000000000000008152600401611a59906153cf565b60405180910390fd5b610164600082815260200190815260200160002060009054906101000a900460ff1615611ac4576040517f08c379a0000000000000000000000000000000000000000000000000000000008152600401611abb9061543b565b60405180910390fd5b61016260009054906101000a900473ffffffffffffffffffffffffffffffffffffffff1673ffffffffffffffffffffffffffffffffffffffff1663d2318eae336040518263ffffffff1660e01b8152600401611b209190613d46565b600060405180830381600087803b158015611b3a57600080fd5b505af1158015611b4e573d6000803e3d6000fd5b505050506001610164600083815260200190815260200160002060006101000a81548160ff0219169083151502179055507f985873858e85c45546ea9ae9a4f36f740f1654da6c06d25bd88e3a1307ed22df3382604051611bb092919061535a565b60405180910390a150565b61015f60009054906101000a900473ffffffffffffffffffffffffffffffffffffffff1681565b611bf3611bed61220d565b836122ce565b611c32576040517f08c379a0000000000000000000000000000000000000000000000000000000008152600401611c29906149cc565b60405180910390fd5b611c3e84848484612f97565b50505050565b7fa49807205ce4d355092ef5a8a18f56e8913cf4a201fbe287825b095693c21775611c6e8161265c565b73__$afec012158ebc01e771e0b8521b3c90181$__637a17125987878787876040518663ffffffff1660e01b8152600401611cad95949392919061545b565b602060405180830381865af4158015611cca573d6000803e3d6000fd5b505050506040513d601f19601f82011682018060405250810190611cee919061500f565b50505050505050565b6060611d02826121c2565b6101608054611d1090614805565b80601f0160208091040260200160405190810160405280929190818152602001828054611d3c90614805565b8015611d895780601f10611d5e57610100808354040283529160200191611d89565b820191906000526020600020905b815481529060010190602001808311611d6c57829003601f168201915b50505050509050919050565b611d9e82610aa8565b611da78161265c565b611db18383612751565b505050565b60008060019054906101000a900460ff16159050808015611de75750600160008054906101000a900460ff1660ff16105b80611e145750611df630612ff3565b158015611e135750600160008054906101000a900460ff1660ff16145b5b611e53576040517f08c379a0000000000000000000000000000000000000000000000000000000008152600401611e4a9061551b565b60405180910390fd5b60016000806101000a81548160ff021916908360ff1602179055508015611e90576001600060016101000a81548160ff0219169083151502179055505b8861015f60006101000a81548173ffffffffffffffffffffffffffffffffffffffff021916908373ffffffffffffffffffffffffffffffffffffffff160217905550896101609081611ee291906156dd565b5085610169819055508461016a819055508361016560006101000a81548160ff02191690831515021790555082610166819055508161016781905550611f288888613016565b611f30613073565b611f386130c4565b611f4132612ae1565b611f4e6000801b32613115565b611f787fa49807205ce4d355092ef5a8a18f56e8913cf4a201fbe287825b095693c2177532613115565b611fa27f22c69ab406805e70d07fb1a6502af760601d3b977beadb295a9d76d5852e16a332613115565b611fcc7f5d8e12c39142ff96d79d04d15d1ba1269e4fe57bb9d26f43523628b34ba108ec32613115565b80156120255760008060016101000a81548160ff0219169083151502179055507f7f26b83ff96e1f2b6a682f133852f6798a09c465da95921460cefb3847402498600160405161201c91906157f7565b60405180910390a15b50505050505050505050565b6000606a60008473ffffffffffffffffffffffffffffffffffffffff1673ffffffffffffffffffffffffffffffffffffffff16815260200190815260200160002060008373ffffffffffffffffffffffffffffffffffffffff1673ffffffffffffffffffffffffffffffffffffffff16815260200190815260200160002060009054906101000a900460ff16905092915050565b6120cd612a63565b600073ffffffffffffffffffffffffffffffffffffffff168173ffffffffffffffffffffffffffffffffffffffff160361213c576040517f08c379a000000000000000000000000000000000000000000000000000000000815260040161213390615884565b60405180910390fd5b61214581612ae1565b50565b60007f7965db0b000000000000000000000000000000000000000000000000000000007bffffffffffffffffffffffffffffffffffffffffffffffffffffffff1916827bffffffffffffffffffffffffffffffffffffffffffffffffffffffff191614806121bb57506121ba82613123565b5b9050919050565b6121cb81612ba9565b61220a576040517f08c379a000000000000000000000000000000000000000000000000000000000815260040161220190614c80565b60405180910390fd5b50565b600033905090565b816069600083815260200190815260200160002060006101000a81548173ffffffffffffffffffffffffffffffffffffffff021916908373ffffffffffffffffffffffffffffffffffffffff160217905550808273ffffffffffffffffffffffffffffffffffffffff1661228883610f09565b73ffffffffffffffffffffffffffffffffffffffff167f8c5be1e5ebec7d5bd14f71427d1e84f3dd0314c0f7b2291e5b200ac8c7c3b92560405160405180910390a45050565b6000806122da83610f09565b90508073ffffffffffffffffffffffffffffffffffffffff168473ffffffffffffffffffffffffffffffffffffffff16148061231c575061231b8185612031565b5b8061235a57508373ffffffffffffffffffffffffffffffffffffffff16612342846108eb565b73ffffffffffffffffffffffffffffffffffffffff16145b91505092915050565b8273ffffffffffffffffffffffffffffffffffffffff1661238382610f09565b73ffffffffffffffffffffffffffffffffffffffff16146123d9576040517f08c379a00000000000000000000000000000000000000000000000000000000081526004016123d090615916565b60405180910390fd5b600073ffffffffffffffffffffffffffffffffffffffff168273ffffffffffffffffffffffffffffffffffffffff1603612448576040517f08c379a000000000000000000000000000000000000000000000000000000000815260040161243f906159a8565b60405180910390fd5b6124558383836001613205565b8273ffffffffffffffffffffffffffffffffffffffff1661247582610f09565b73ffffffffffffffffffffffffffffffffffffffff16146124cb576040517f08c379a00000000000000000000000000000000000000000000000000000000081526004016124c290615916565b60405180910390fd5b6069600082815260200190815260200160002060006101000a81549073ffffffffffffffffffffffffffffffffffffffff02191690556001606860008573ffffffffffffffffffffffffffffffffffffffff1673ffffffffffffffffffffffffffffffffffffffff168152602001908152602001600020600082825403925050819055506001606860008473ffffffffffffffffffffffffffffffffffffffff1673ffffffffffffffffffffffffffffffffffffffff16815260200190815260200160002060008282540192505081905550816067600083815260200190815260200160002060006101000a81548173ffffffffffffffffffffffffffffffffffffffff021916908373ffffffffffffffffffffffffffffffffffffffff160217905550808273ffffffffffffffffffffffffffffffffffffffff168473ffffffffffffffffffffffffffffffffffffffff167fddf252ad1be2c89b69c2b068fc378daa952ba7f163c4a11628f55a4df523b3ef60405160405180910390a4612657838383600161332b565b505050565b61266d8161266861220d565b613331565b50565b61267a8282611435565b61274d5760016097600084815260200190815260200160002060000160008373ffffffffffffffffffffffffffffffffffffffff1673ffffffffffffffffffffffffffffffffffffffff16815260200190815260200160002060006101000a81548160ff0219169083151502179055506126f261220d565b73ffffffffffffffffffffffffffffffffffffffff168173ffffffffffffffffffffffffffffffffffffffff16837f2f8788117e7eff1d82e926ec794901d17c78024a50270940304540a733656f0d60405160405180910390a45b5050565b61275b8282611435565b1561282f5760006097600084815260200190815260200160002060000160008373ffffffffffffffffffffffffffffffffffffffff1673ffffffffffffffffffffffffffffffffffffffff16815260200190815260200160002060006101000a81548160ff0219169083151502179055506127d461220d565b73ffffffffffffffffffffffffffffffffffffffff168173ffffffffffffffffffffffffffffffffffffffff16837ff6391f5c32d9c69d2a47ea670b442974b53935d1edc7fd64eb21e047a839171b60405160405180910390a45b5050565b60006128617f360894a13ba1a3210667c828492db98dca3e2076cc3735a920a3ca505d382bbc60001b6133b6565b60000160009054906101000a900473ffffffffffffffffffffffffffffffffffffffff16905090565b7fa49807205ce4d355092ef5a8a18f56e8913cf4a201fbe287825b095693c217756128b48161265c565b5050565b6128e47f4910fdfa16fed3260ed0e7147f7cc6da11a60208b5b9406d12a635614ffd914360001b6133c0565b60000160009054906101000a900460ff161561290857612903836133ca565b612a21565b8273ffffffffffffffffffffffffffffffffffffffff166352d1902d6040518163ffffffff1660e01b8152600401602060405180830381865afa92505050801561297057506040513d601f19601f8201168201806040525081019061296d91906159dd565b60015b6129af576040517f08c379a00000000000000000000000000000000000000000000000000000000081526004016129a690615a7c565b60405180910390fd5b7f360894a13ba1a3210667c828492db98dca3e2076cc3735a920a3ca505d382bbc60001b8114612a14576040517f08c379a0000000000000000000000000000000000000000000000000000000008152600401612a0b90615b0e565b60405180910390fd5b50612a20838383613483565b5b505050565b60006067600083815260200190815260200160002060009054906101000a900473ffffffffffffffffffffffffffffffffffffffff169050919050565b612a6b61220d565b73ffffffffffffffffffffffffffffffffffffffff16612a89611366565b73ffffffffffffffffffffffffffffffffffffffff1614612adf576040517f08c379a0000000000000000000000000000000000000000000000000000000008152600401612ad690615b7a565b60405180910390fd5b565b600061012d60009054906101000a900473ffffffffffffffffffffffffffffffffffffffff1690508161012d60006101000a81548173ffffffffffffffffffffffffffffffffffffffff021916908373ffffffffffffffffffffffffffffffffffffffff1602179055508173ffffffffffffffffffffffffffffffffffffffff168173ffffffffffffffffffffffffffffffffffffffff167f8be0079c531659141344cd1fd0a4f28419497f9722a3daafe3b4186f6b6457e060405160405180910390a35050565b60008073ffffffffffffffffffffffffffffffffffffffff16612bcb83612a26565b73ffffffffffffffffffffffffffffffffffffffff1614159050919050565b6001816000016000828254019250508190555050565b600081600001549050919050565b600073ffffffffffffffffffffffffffffffffffffffff168273ffffffffffffffffffffffffffffffffffffffff1603612c7d576040517f08c379a0000000000000000000000000000000000000000000000000000000008152600401612c7490615be6565b60405180910390fd5b612c8681612ba9565b15612cc6576040517f08c379a0000000000000000000000000000000000000000000000000000000008152600401612cbd90615c52565b60405180910390fd5b612cd4600083836001613205565b612cdd81612ba9565b15612d1d576040517f08c379a0000000000000000000000000000000000000000000000000000000008152600401612d1490615c52565b60405180910390fd5b6001606860008473ffffffffffffffffffffffffffffffffffffffff1673ffffffffffffffffffffffffffffffffffffffff16815260200190815260200160002060008282540192505081905550816067600083815260200190815260200160002060006101000a81548173ffffffffffffffffffffffffffffffffffffffff021916908373ffffffffffffffffffffffffffffffffffffffff160217905550808273ffffffffffffffffffffffffffffffffffffffff16600073ffffffffffffffffffffffffffffffffffffffff167fddf252ad1be2c89b69c2b068fc378daa952ba7f163c4a11628f55a4df523b3ef60405160405180910390a4612e2760008383600161332b565b5050565b8173ffffffffffffffffffffffffffffffffffffffff168373ffffffffffffffffffffffffffffffffffffffff1603612e99576040517f08c379a0000000000000000000000000000000000000000000000000000000008152600401612e9090615cbe565b60405180910390fd5b80606a60008573ffffffffffffffffffffffffffffffffffffffff1673ffffffffffffffffffffffffffffffffffffffff16815260200190815260200160002060008473ffffffffffffffffffffffffffffffffffffffff1673ffffffffffffffffffffffffffffffffffffffff16815260200190815260200160002060006101000a81548160ff0219169083151502179055508173ffffffffffffffffffffffffffffffffffffffff168373ffffffffffffffffffffffffffffffffffffffff167f17307eab39ab6107e8899845ad3d59bd9653f200f220920489ca2b5937696c3183604051612f8a9190613bd5565b60405180910390a3505050565b612fa2848484612363565b612fae848484846134af565b612fed576040517f08c379a0000000000000000000000000000000000000000000000000000000008152600401612fe490615d50565b60405180910390fd5b50505050565b6000808273ffffffffffffffffffffffffffffffffffffffff163b119050919050565b600060019054906101000a900460ff16613065576040517f08c379a000000000000000000000000000000000000000000000000000000000815260040161305c90615de2565b60405180910390fd5b61306f8282613636565b5050565b600060019054906101000a900460ff166130c2576040517f08c379a00000000000000000000000000000000000000000000000000000000081526004016130b990615de2565b60405180910390fd5b565b600060019054906101000a900460ff16613113576040517f08c379a000000000000000000000000000000000000000000000000000000000815260040161310a90615de2565b60405180910390fd5b565b61311f8282612670565b5050565b60007f80ac58cd000000000000000000000000000000000000000000000000000000007bffffffffffffffffffffffffffffffffffffffffffffffffffffffff1916827bffffffffffffffffffffffffffffffffffffffffffffffffffffffff191614806131ee57507f5b5e139f000000000000000000000000000000000000000000000000000000007bffffffffffffffffffffffffffffffffffffffffffffffffffffffff1916827bffffffffffffffffffffffffffffffffffffffffffffffffffffffff1916145b806131fe57506131fd826136a9565b5b9050919050565b600181111561332557600073ffffffffffffffffffffffffffffffffffffffff168473ffffffffffffffffffffffffffffffffffffffff16146132995780606860008673ffffffffffffffffffffffffffffffffffffffff1673ffffffffffffffffffffffffffffffffffffffff16815260200190815260200160002060008282546132919190615e02565b925050819055505b600073ffffffffffffffffffffffffffffffffffffffff168373ffffffffffffffffffffffffffffffffffffffff16146133245780606860008573ffffffffffffffffffffffffffffffffffffffff1673ffffffffffffffffffffffffffffffffffffffff168152602001908152602001600020600082825461331c9190615326565b925050819055505b5b50505050565b50505050565b61333b8282611435565b6133b25761334881613713565b6133568360001c6020613740565b604051602001613367929190615f0a565b6040516020818303038152906040526040517f08c379a00000000000000000000000000000000000000000000000000000000081526004016133a99190613c80565b60405180910390fd5b5050565b6000819050919050565b6000819050919050565b6133d381612ff3565b613412576040517f08c379a000000000000000000000000000000000000000000000000000000000815260040161340990615fb6565b60405180910390fd5b8061343f7f360894a13ba1a3210667c828492db98dca3e2076cc3735a920a3ca505d382bbc60001b6133b6565b60000160006101000a81548173ffffffffffffffffffffffffffffffffffffffff021916908373ffffffffffffffffffffffffffffffffffffffff16021790555050565b61348c8361397c565b6000825111806134995750805b156134aa576134a883836139cb565b505b505050565b60006134d08473ffffffffffffffffffffffffffffffffffffffff16612ff3565b15613629578373ffffffffffffffffffffffffffffffffffffffff1663150b7a026134f961220d565b8786866040518563ffffffff1660e01b815260040161351b949392919061602b565b6020604051808303816000875af192505050801561355757506040513d601f19601f82011682018060405250810190613554919061608c565b60015b6135d9573d8060008114613587576040519150601f19603f3d011682016040523d82523d6000602084013e61358c565b606091505b5060008151036135d1576040517f08c379a00000000000000000000000000000000000000000000000000000000081526004016135c890615d50565b60405180910390fd5b805181602001fd5b63150b7a0260e01b7bffffffffffffffffffffffffffffffffffffffffffffffffffffffff1916817bffffffffffffffffffffffffffffffffffffffffffffffffffffffff19161491505061362e565b600190505b949350505050565b600060019054906101000a900460ff16613685576040517f08c379a000000000000000000000000000000000000000000000000000000000815260040161367c90615de2565b60405180910390fd5b816065908161369491906156dd565b5080606690816136a491906156dd565b505050565b60007f01ffc9a7000000000000000000000000000000000000000000000000000000007bffffffffffffffffffffffffffffffffffffffffffffffffffffffff1916827bffffffffffffffffffffffffffffffffffffffffffffffffffffffff1916149050919050565b60606137398273ffffffffffffffffffffffffffffffffffffffff16601460ff16613740565b9050919050565b60606000600283600261375391906160b9565b61375d9190615326565b67ffffffffffffffff81111561377657613775613f24565b5b6040519080825280601f01601f1916602001820160405280156137a85781602001600182028036833780820191505090505b5090507f3000000000000000000000000000000000000000000000000000000000000000816000815181106137e0576137df6160fb565b5b60200101907effffffffffffffffffffffffffffffffffffffffffffffffffffffffffffff1916908160001a9053507f780000000000000000000000000000000000000000000000000000000000000081600181518110613844576138436160fb565b5b60200101907effffffffffffffffffffffffffffffffffffffffffffffffffffffffffffff1916908160001a9053506000600184600261388491906160b9565b61388e9190615326565b90505b600181111561392e577f3031323334353637383961626364656600000000000000000000000000000000600f8616601081106138d0576138cf6160fb565b5b1a60f81b8282815181106138e7576138e66160fb565b5b60200101907effffffffffffffffffffffffffffffffffffffffffffffffffffffffffffff1916908160001a905350600485901c9450806139279061612a565b9050613891565b5060008414613972576040517f08c379a00000000000000000000000000000000000000000000000000000000081526004016139699061619f565b60405180910390fd5b8091505092915050565b613985816133ca565b8073ffffffffffffffffffffffffffffffffffffffff167fbc7cd75a20ee27fd9adebab32041f755214dbc6bffa90cc0225b39da2e5c2d3b60405160405180910390a250565b60606139d683612ff3565b613a15576040517f08c379a0000000000000000000000000000000000000000000000000000000008152600401613a0c90616231565b60405180910390fd5b6000808473ffffffffffffffffffffffffffffffffffffffff1684604051613a3d919061628d565b600060405180830381855af49150503d8060008114613a78576040519150601f19603f3d011682016040523d82523d6000602084013e613a7d565b606091505b5091509150613aa582826040518060600160405280602781526020016162a560279139613aaf565b9250505092915050565b60608315613abf57829050613aca565b613ac98383613ad1565b5b9392505050565b600082511115613ae45781518083602001fd5b806040517f08c379a0000000000000000000000000000000000000000000000000000000008152600401613b189190613c80565b60405180910390fd5b6000604051905090565b600080fd5b600080fd5b60007fffffffff0000000000000000000000000000000000000000000000000000000082169050919050565b613b6a81613b35565b8114613b7557600080fd5b50565b600081359050613b8781613b61565b92915050565b600060208284031215613ba357613ba2613b2b565b5b6000613bb184828501613b78565b91505092915050565b60008115159050919050565b613bcf81613bba565b82525050565b6000602082019050613bea6000830184613bc6565b92915050565b600081519050919050565b600082825260208201905092915050565b60005b83811015613c2a578082015181840152602081019050613c0f565b60008484015250505050565b6000601f19601f8301169050919050565b6000613c5282613bf0565b613c5c8185613bfb565b9350613c6c818560208601613c0c565b613c7581613c36565b840191505092915050565b60006020820190508181036000830152613c9a8184613c47565b905092915050565b6000819050919050565b613cb581613ca2565b8114613cc057600080fd5b50565b600081359050613cd281613cac565b92915050565b600060208284031215613cee57613ced613b2b565b5b6000613cfc84828501613cc3565b91505092915050565b600073ffffffffffffffffffffffffffffffffffffffff82169050919050565b6000613d3082613d05565b9050919050565b613d4081613d25565b82525050565b6000602082019050613d5b6000830184613d37565b92915050565b613d6a81613d25565b8114613d7557600080fd5b50565b600081359050613d8781613d61565b92915050565b60008060408385031215613da457613da3613b2b565b5b6000613db285828601613d78565b9250506020613dc385828601613cc3565b9150509250929050565b600080600060608486031215613de657613de5613b2b565b5b6000613df486828701613d78565b9350506020613e0586828701613d78565b9250506040613e1686828701613cc3565b9150509250925092565b6000819050919050565b613e3381613e20565b8114613e3e57600080fd5b50565b600081359050613e5081613e2a565b92915050565b600060208284031215613e6c57613e6b613b2b565b5b6000613e7a84828501613e41565b91505092915050565b613e8c81613e20565b82525050565b6000602082019050613ea76000830184613e83565b92915050565b60008060408385031215613ec457613ec3613b2b565b5b6000613ed285828601613e41565b9250506020613ee385828601613d78565b9150509250929050565b600060208284031215613f0357613f02613b2b565b5b6000613f1184828501613d78565b91505092915050565b600080fd5b600080fd5b7f4e487b7100000000000000000000000000000000000000000000000000000000600052604160045260246000fd5b613f5c82613c36565b810181811067ffffffffffffffff82111715613f7b57613f7a613f24565b5b80604052505050565b6000613f8e613b21565b9050613f9a8282613f53565b919050565b600067ffffffffffffffff821115613fba57613fb9613f24565b5b613fc382613c36565b9050602081019050919050565b82818337600083830152505050565b6000613ff2613fed84613f9f565b613f84565b90508281526020810184848401111561400e5761400d613f1f565b5b614019848285613fd0565b509392505050565b600082601f83011261403657614035613f1a565b5b8135614046848260208601613fdf565b91505092915050565b6000806040838503121561406657614065613b2b565b5b600061407485828601613d78565b925050602083013567ffffffffffffffff81111561409557614094613b30565b5b6140a185828601614021565b9150509250929050565b60006140b682613d25565b9050919050565b6140c6816140ab565b81146140d157600080fd5b50565b6000813590506140e3816140bd565b92915050565b6000602082840312156140ff576140fe613b2b565b5b600061410d848285016140d4565b91505092915050565b61411f81613ca2565b82525050565b600060208201905061413a6000830184614116565b92915050565b600061414b82613d25565b9050919050565b61415b81614140565b811461416657600080fd5b50565b60008135905061417881614152565b92915050565b60006020828403121561419457614193613b2b565b5b60006141a284828501614169565b91505092915050565b600080fd5b600080fd5b60008083601f8401126141cb576141ca613f1a565b5b8235905067ffffffffffffffff8111156141e8576141e76141ab565b5b602083019150836001820283011115614204576142036141b0565b5b9250929050565b6002811061421857600080fd5b50565b60008135905061422a8161420b565b92915050565b60008060008060008060a0878903121561424d5761424c613b2b565b5b600061425b89828a01613d78565b965050602061426c89828a01613cc3565b955050604061427d89828a01613cc3565b945050606087013567ffffffffffffffff81111561429e5761429d613b30565b5b6142aa89828a016141b5565b935093505060806142bd89828a0161421b565b9150509295509295509295565b600081519050919050565b600082825260208201905092915050565b6000819050602082019050919050565b6142ff81613ca2565b82525050565b600061431183836142f6565b60208301905092915050565b6000602082019050919050565b6000614335826142ca565b61433f81856142d5565b935061434a836142e6565b8060005b8381101561437b5781516143628882614305565b975061436d8361431d565b92505060018101905061434e565b5085935050505092915050565b600060208201905081810360008301526143a2818461432a565b905092915050565b6143b381613bba565b81146143be57600080fd5b50565b6000813590506143d0816143aa565b92915050565b600080604083850312156143ed576143ec613b2b565b5b60006143fb85828601613d78565b925050602061440c858286016143c1565b9150509250929050565b6000819050919050565b600061443b61443661443184613d05565b614416565b613d05565b9050919050565b600061444d82614420565b9050919050565b600061445f82614442565b9050919050565b61446f81614454565b82525050565b600060208201905061448a6000830184614466565b92915050565b600061449b82614442565b9050919050565b6144ab81614490565b82525050565b60006020820190506144c660008301846144a2565b92915050565b600080600080608085870312156144e6576144e5613b2b565b5b60006144f487828801613d78565b945050602061450587828801613d78565b935050604061451687828801613cc3565b925050606085013567ffffffffffffffff81111561453757614536613b30565b5b61454387828801614021565b91505092959194509250565b60008060008060006080868803121561456b5761456a613b2b565b5b600061457988828901613d78565b955050602061458a88828901613cc3565b945050604086013567ffffffffffffffff8111156145ab576145aa613b30565b5b6145b7888289016141b5565b935093505060606145ca8882890161421b565b9150509295509295909350565b600067ffffffffffffffff8211156145f2576145f1613f24565b5b6145fb82613c36565b9050602081019050919050565b600061461b614616846145d7565b613f84565b90508281526020810184848401111561463757614636613f1f565b5b614642848285613fd0565b509392505050565b600082601f83011261465f5761465e613f1a565b5b813561466f848260208601614608565b91505092915050565b60008060008060008060008060006101208a8c03121561469b5761469a613b2b565b5b60008a013567ffffffffffffffff8111156146b9576146b8613b30565b5b6146c58c828d0161464a565b99505060206146d68c828d016140d4565b98505060408a013567ffffffffffffffff8111156146f7576146f6613b30565b5b6147038c828d0161464a565b97505060608a013567ffffffffffffffff81111561472457614723613b30565b5b6147308c828d0161464a565b96505060806147418c828d01613cc3565b95505060a06147528c828d01613cc3565b94505060c06147638c828d016143c1565b93505060e06147748c828d01613cc3565b9250506101006147868c828d01613cc3565b9150509295985092959850929598565b600080604083850312156147ad576147ac613b2b565b5b60006147bb85828601613d78565b92505060206147cc85828601613d78565b9150509250929050565b7f4e487b7100000000000000000000000000000000000000000000000000000000600052602260045260246000fd5b6000600282049050600182168061481d57607f821691505b6020821081036148305761482f6147d6565b5b50919050565b7f4552433732313a20617070726f76616c20746f2063757272656e74206f776e6560008201527f7200000000000000000000000000000000000000000000000000000000000000602082015250565b6000614892602183613bfb565b915061489d82614836565b604082019050919050565b600060208201905081810360008301526148c181614885565b9050919050565b7f4552433732313a20617070726f76652063616c6c6572206973206e6f7420746f60008201527f6b656e206f776e6572206f7220617070726f76656420666f7220616c6c000000602082015250565b6000614924603d83613bfb565b915061492f826148c8565b604082019050919050565b6000602082019050818103600083015261495381614917565b9050919050565b7f4552433732313a2063616c6c6572206973206e6f7420746f6b656e206f776e6560008201527f72206f7220617070726f76656400000000000000000000000000000000000000602082015250565b60006149b6602d83613bfb565b91506149c18261495a565b604082019050919050565b600060208201905081810360008301526149e5816149a9565b9050919050565b7f416363657373436f6e74726f6c3a2063616e206f6e6c792072656e6f756e636560008201527f20726f6c657320666f722073656c660000000000000000000000000000000000602082015250565b6000614a48602f83613bfb565b9150614a53826149ec565b604082019050919050565b60006020820190508181036000830152614a7781614a3b565b9050919050565b7f46756e6374696f6e206d7573742062652063616c6c6564207468726f7567682060008201527f64656c656761746563616c6c0000000000000000000000000000000000000000602082015250565b6000614ada602c83613bfb565b9150614ae582614a7e565b604082019050919050565b60006020820190508181036000830152614b0981614acd565b9050919050565b7f46756e6374696f6e206d7573742062652063616c6c6564207468726f7567682060008201527f6163746976652070726f78790000000000000000000000000000000000000000602082015250565b6000614b6c602c83613bfb565b9150614b7782614b10565b604082019050919050565b60006020820190508181036000830152614b9b81614b5f565b9050919050565b7f555550535570677261646561626c653a206d757374206e6f742062652063616c60008201527f6c6564207468726f7567682064656c656761746563616c6c0000000000000000602082015250565b6000614bfe603883613bfb565b9150614c0982614ba2565b604082019050919050565b60006020820190508181036000830152614c2d81614bf1565b9050919050565b7f4552433732313a20696e76616c696420746f6b656e2049440000000000000000600082015250565b6000614c6a601883613bfb565b9150614c7582614c34565b602082019050919050565b60006020820190508181036000830152614c9981614c5d565b9050919050565b7f536574204e65772050617920546f6b656e3a20546865206e6577206f6e65206d60008201527f75737420626520646966666572656e742066726f6d20746865206f6c64206f6e60208201527f6500000000000000000000000000000000000000000000000000000000000000604082015250565b6000614d22604183613bfb565b9150614d2d82614ca0565b606082019050919050565b60006020820190508181036000830152614d5181614d15565b9050919050565b6000604082019050614d6d6000830185613d37565b614d7a6020830184613d37565b9392505050565b7f4552433732313a2061646472657373207a65726f206973206e6f74206120766160008201527f6c6964206f776e65720000000000000000000000000000000000000000000000602082015250565b6000614ddd602983613bfb565b9150614de882614d81565b604082019050919050565b60006020820190508181036000830152614e0c81614dd0565b9050919050565b7f536574204e6577204e4654204f70656e696e67204974656d3a20546865206e6560008201527f77206f6e65206d75737420626520646966666572656e742066726f6d2074686560208201527f206f6c64206f6e65000000000000000000000000000000000000000000000000604082015250565b6000614e95604883613bfb565b9150614ea082614e13565b606082019050919050565b60006020820190508181036000830152614ec481614e88565b9050919050565b614ed481613d25565b82525050565b614ee381613ca2565b82525050565b600082825260208201905092915050565b6000614f068385614ee9565b9350614f13838584613fd0565b614f1c83613c36565b840190509392505050565b7f4e487b7100000000000000000000000000000000000000000000000000000000600052602160045260246000fd5b60028110614f6757614f66614f27565b5b50565b6000819050614f7882614f56565b919050565b6000614f8882614f6a565b9050919050565b614f9881614f7d565b82525050565b600060a082019050614fb36000830189614ecb565b614fc06020830188614eda565b614fcd6040830187614eda565b8181036060830152614fe0818587614efa565b9050614fef6080830184614f8f565b979650505050505050565b60008151905061500981613cac565b92915050565b60006020828403121561502557615024613b2b565b5b600061503384828501614ffa565b91505092915050565b7f4e6f7420617070726f766520656e6f75676820746f6b656e0000000000000000600082015250565b6000615072601883613bfb565b915061507d8261503c565b602082019050919050565b600060208201905081810360008301526150a181615065565b9050919050565b7f5468652063616d7061696e2773206e6f74207374617274656420796574000000600082015250565b60006150de601d83613bfb565b91506150e9826150a8565b602082019050919050565b6000602082019050818103600083015261510d816150d1565b9050919050565b7f5468652063616d706169676e277320616c726561647920656e64656400000000600082015250565b600061514a601c83613bfb565b915061515582615114565b602082019050919050565b600060208201905081810360008301526151798161513d565b9050919050565b7f536f6c64206f7574000000000000000000000000000000000000000000000000600082015250565b60006151b6600883613bfb565b91506151c182615180565b602082019050919050565b600060208201905081810360008301526151e5816151a9565b9050919050565b7f4d696e7420426f783a20746f6b656e4964277320616c7265616479206578697360008201527f7465640000000000000000000000000000000000000000000000000000000000602082015250565b6000615248602383613bfb565b9150615253826151ec565b604082019050919050565b600060208201905081810360008301526152778161523b565b9050919050565b60006060820190506152936000830186613d37565b6152a06020830185613d37565b6152ad6040830184614116565b949350505050565b6000815190506152c4816143aa565b92915050565b6000602082840312156152e0576152df613b2b565b5b60006152ee848285016152b5565b91505092915050565b7f4e487b7100000000000000000000000000000000000000000000000000000000600052601160045260246000fd5b600061533182613ca2565b915061533c83613ca2565b9250828201905080821115615354576153536152f7565b5b92915050565b600060408201905061536f6000830185613d37565b61537c6020830184614116565b9392505050565b7f596f7520646964206e6f74206f776e65642074686520746f6b656e0000000000600082015250565b60006153b9601b83613bfb565b91506153c482615383565b602082019050919050565b600060208201905081810360008301526153e8816153ac565b9050919050565b7f426f78277320616c7265616479206f70656e6564000000000000000000000000600082015250565b6000615425601483613bfb565b9150615430826153ef565b602082019050919050565b6000602082019050818103600083015261545481615418565b9050919050565b60006080820190506154706000830188614ecb565b61547d6020830187614eda565b8181036040830152615490818587614efa565b905061549f6060830184614f8f565b9695505050505050565b7f496e697469616c697a61626c653a20636f6e747261637420697320616c72656160008201527f647920696e697469616c697a6564000000000000000000000000000000000000602082015250565b6000615505602e83613bfb565b9150615510826154a9565b604082019050919050565b60006020820190508181036000830152615534816154f8565b9050919050565b60008190508160005260206000209050919050565b60006020601f8301049050919050565b600082821b905092915050565b60006008830261559d7fffffffffffffffffffffffffffffffffffffffffffffffffffffffffffffffff82615560565b6155a78683615560565b95508019841693508086168417925050509392505050565b60006155da6155d56155d084613ca2565b614416565b613ca2565b9050919050565b6000819050919050565b6155f4836155bf565b615608615600826155e1565b84845461556d565b825550505050565b600090565b61561d615610565b6156288184846155eb565b505050565b5b8181101561564c57615641600082615615565b60018101905061562e565b5050565b601f821115615691576156628161553b565b61566b84615550565b8101602085101561567a578190505b61568e61568685615550565b83018261562d565b50505b505050565b600082821c905092915050565b60006156b460001984600802615696565b1980831691505092915050565b60006156cd83836156a3565b9150826002028217905092915050565b6156e682613bf0565b67ffffffffffffffff8111156156ff576156fe613f24565b5b6157098254614805565b615714828285615650565b600060209050601f8311600181146157475760008415615735578287015190505b61573f85826156c1565b8655506157a7565b601f1984166157558661553b565b60005b8281101561577d57848901518255600182019150602085019450602081019050615758565b8683101561579a5784890151615796601f8916826156a3565b8355505b6001600288020188555050505b505050505050565b6000819050919050565b600060ff82169050919050565b60006157e16157dc6157d7846157af565b614416565b6157b9565b9050919050565b6157f1816157c6565b82525050565b600060208201905061580c60008301846157e8565b92915050565b7f4f776e61626c653a206e6577206f776e657220697320746865207a65726f206160008201527f6464726573730000000000000000000000000000000000000000000000000000602082015250565b600061586e602683613bfb565b915061587982615812565b604082019050919050565b6000602082019050818103600083015261589d81615861565b9050919050565b7f4552433732313a207472616e736665722066726f6d20696e636f72726563742060008201527f6f776e6572000000000000000000000000000000000000000000000000000000602082015250565b6000615900602583613bfb565b915061590b826158a4565b604082019050919050565b6000602082019050818103600083015261592f816158f3565b9050919050565b7f4552433732313a207472616e7366657220746f20746865207a65726f2061646460008201527f7265737300000000000000000000000000000000000000000000000000000000602082015250565b6000615992602483613bfb565b915061599d82615936565b604082019050919050565b600060208201905081810360008301526159c181615985565b9050919050565b6000815190506159d781613e2a565b92915050565b6000602082840312156159f3576159f2613b2b565b5b6000615a01848285016159c8565b91505092915050565b7f45524331393637557067726164653a206e657720696d706c656d656e7461746960008201527f6f6e206973206e6f742055555053000000000000000000000000000000000000602082015250565b6000615a66602e83613bfb565b9150615a7182615a0a565b604082019050919050565b60006020820190508181036000830152615a9581615a59565b9050919050565b7f45524331393637557067726164653a20756e737570706f727465642070726f7860008201527f6961626c65555549440000000000000000000000000000000000000000000000602082015250565b6000615af8602983613bfb565b9150615b0382615a9c565b604082019050919050565b60006020820190508181036000830152615b2781615aeb565b9050919050565b7f4f776e61626c653a2063616c6c6572206973206e6f7420746865206f776e6572600082015250565b6000615b64602083613bfb565b9150615b6f82615b2e565b602082019050919050565b60006020820190508181036000830152615b9381615b57565b9050919050565b7f4552433732313a206d696e7420746f20746865207a65726f2061646472657373600082015250565b6000615bd0602083613bfb565b9150615bdb82615b9a565b602082019050919050565b60006020820190508181036000830152615bff81615bc3565b9050919050565b7f4552433732313a20746f6b656e20616c7265616479206d696e74656400000000600082015250565b6000615c3c601c83613bfb565b9150615c4782615c06565b602082019050919050565b60006020820190508181036000830152615c6b81615c2f565b9050919050565b7f4552433732313a20617070726f766520746f2063616c6c657200000000000000600082015250565b6000615ca8601983613bfb565b9150615cb382615c72565b602082019050919050565b60006020820190508181036000830152615cd781615c9b565b9050919050565b7f4552433732313a207472616e7366657220746f206e6f6e20455243373231526560008201527f63656976657220696d706c656d656e7465720000000000000000000000000000602082015250565b6000615d3a603283613bfb565b9150615d4582615cde565b604082019050919050565b60006020820190508181036000830152615d6981615d2d565b9050919050565b7f496e697469616c697a61626c653a20636f6e7472616374206973206e6f74206960008201527f6e697469616c697a696e67000000000000000000000000000000000000000000602082015250565b6000615dcc602b83613bfb565b9150615dd782615d70565b604082019050919050565b60006020820190508181036000830152615dfb81615dbf565b9050919050565b6000615e0d82613ca2565b9150615e1883613ca2565b9250828203905081811115615e3057615e2f6152f7565b5b92915050565b600081905092915050565b7f416363657373436f6e74726f6c3a206163636f756e7420000000000000000000600082015250565b6000615e77601783615e36565b9150615e8282615e41565b601782019050919050565b6000615e9882613bf0565b615ea28185615e36565b9350615eb2818560208601613c0c565b80840191505092915050565b7f206973206d697373696e6720726f6c6520000000000000000000000000000000600082015250565b6000615ef4601183615e36565b9150615eff82615ebe565b601182019050919050565b6000615f1582615e6a565b9150615f218285615e8d565b9150615f2c82615ee7565b9150615f388284615e8d565b91508190509392505050565b7f455243313936373a206e657720696d706c656d656e746174696f6e206973206e60008201527f6f74206120636f6e747261637400000000000000000000000000000000000000602082015250565b6000615fa0602d83613bfb565b9150615fab82615f44565b604082019050919050565b60006020820190508181036000830152615fcf81615f93565b9050919050565b600081519050919050565b600082825260208201905092915050565b6000615ffd82615fd6565b6160078185615fe1565b9350616017818560208601613c0c565b61602081613c36565b840191505092915050565b60006080820190506160406000830187613d37565b61604d6020830186613d37565b61605a6040830185614116565b818103606083015261606c8184615ff2565b905095945050505050565b60008151905061608681613b61565b92915050565b6000602082840312156160a2576160a1613b2b565b5b60006160b084828501616077565b91505092915050565b60006160c482613ca2565b91506160cf83613ca2565b92508282026160dd81613ca2565b915082820484148315176160f4576160f36152f7565b5b5092915050565b7f4e487b7100000000000000000000000000000000000000000000000000000000600052603260045260246000fd5b600061613582613ca2565b915060008203616148576161476152f7565b5b600182039050919050565b7f537472696e67733a20686578206c656e67746820696e73756666696369656e74600082015250565b6000616189602083613bfb565b915061619482616153565b602082019050919050565b600060208201905081810360008301526161b88161617c565b9050919050565b7f416464726573733a2064656c65676174652063616c6c20746f206e6f6e2d636f60008201527f6e74726163740000000000000000000000000000000000000000000000000000602082015250565b600061621b602683613bfb565b9150616226826161bf565b604082019050919050565b6000602082019050818103600083015261624a8161620e565b9050919050565b600081905092915050565b600061626782615fd6565b6162718185616251565b9350616281818560208601613c0c565b80840191505092915050565b6000616299828461625c565b91508190509291505056fe416464726573733a206c6f772d6c6576656c2064656c65676174652063616c6c206661696c6564a26469706673582212204984fbf9406df47b2da0ec1d2a928785c144512be04c4a5bb6105d430eb9604764736f6c63430008120033",
  "linkReferences": {
    "contracts/minting/utils/InterfaceFunction.sol": {
      "InterfaceFunction": [
        {
          "length": 20,
          "start": 23621
        },
        {
          "length": 20,
          "start": 26537
        },
        {
          "length": 20,
          "start": 58558
        },
        {
          "length": 20,
          "start": 62417
        },
        {
          "length": 20,
          "start": 91596
        },
        {
          "length": 20,
          "start": 93823
        }
      ]
    }
  },
  "deployedLinkReferences": {}
}