{
  "_format": "hh-sol-artifact-1",
  "contractName": "GatewayNFT",
  "sourceName": "contracts/minting/GatewayNFT.sol",
  "abi": [
    {
      "inputs": [
        {
          "internalType": "address",
          "name": "_weth",
          "type": "address"
        },
        {
          "internalType": "address",
          "name": "_owner",
          "type": "address"
        }
      ],
      "stateMutability": "nonpayable",
      "type": "constructor"
    },
    {
      "anonymous": false,
      "inputs": [
        {
          "indexed": true,
          "internalType": "address",
          "name": "previousOwner",
          "type": "address"
        },
        {
          "indexed": true,
          "internalType": "address",
          "name": "newOwner",
          "type": "address"
        }
      ],
      "name": "OwnershipTransferred",
      "type": "event"
    },
    {
      "stateMutability": "payable",
      "type": "fallback"
    },
    {
      "inputs": [
        {
          "internalType": "address",
          "name": "_contractAuthorize",
          "type": "address"
        }
      ],
      "name": "authorizeNFT",
      "outputs": [],
      "stateMutability": "nonpayable",
      "type": "function"
    },
    {
      "inputs": [
        {
          "internalType": "address",
          "name": "to",
          "type": "address"
        },
        {
          "internalType": "uint256",
          "name": "amount",
          "type": "uint256"
        }
      ],
      "name": "emergencyEtherTransfer",
      "outputs": [],
      "stateMutability": "nonpayable",
      "type": "function"
    },
    {
      "inputs": [
        {
          "internalType": "address",
          "name": "token",
          "type": "address"
        },
        {
          "internalType": "address",
          "name": "to",
          "type": "address"
        },
        {
          "internalType": "uint256",
          "name": "amount",
          "type": "uint256"
        }
      ],
      "name": "emergencyTokenTransfer",
      "outputs": [],
      "stateMutability": "nonpayable",
      "type": "function"
    },
    {
      "inputs": [],
      "name": "getWETHAddress",
      "outputs": [
        {
          "internalType": "address",
          "name": "",
          "type": "address"
        }
      ],
      "stateMutability": "view",
      "type": "function"
    },
    {
      "inputs": [
        {
          "internalType": "address",
          "name": "_dappCreator",
          "type": "address"
        },
        {
          "internalType": "contract ICampaignNFT",
          "name": "_nftCollection",
          "type": "address"
        },
        {
          "internalType": "uint8",
          "name": "_nftType",
          "type": "uint8"
        },
        {
          "internalType": "uint256",
          "name": "_amount",
          "type": "uint256"
        },
        {
          "internalType": "uint256",
          "name": "_platformFee",
          "type": "uint256"
        },
        {
          "internalType": "uint256",
          "name": "_discount",
          "type": "uint256"
        },
        {
          "internalType": "bool",
          "name": "_isWhitelistMint",
          "type": "bool"
        },
        {
          "components": [
            {
              "internalType": "uint8",
              "name": "v",
              "type": "uint8"
            },
            {
              "internalType": "bytes32",
              "name": "r",
              "type": "bytes32"
            },
            {
              "internalType": "bytes32",
              "name": "s",
              "type": "bytes32"
            },
            {
              "internalType": "uint256",
              "name": "deadline",
              "type": "uint256"
            }
          ],
          "internalType": "struct IDappCreator.Proof",
          "name": "_proof",
          "type": "tuple"
        },
        {
          "internalType": "string",
          "name": "_callbackData",
          "type": "string"
        },
        {
          "internalType": "address",
          "name": "_to",
          "type": "address"
        }
      ],
      "name": "mintToDappCreator",
      "outputs": [],
      "stateMutability": "payable",
      "type": "function"
    },
    {
      "inputs": [],
      "name": "owner",
      "outputs": [
        {
          "internalType": "address",
          "name": "",
          "type": "address"
        }
      ],
      "stateMutability": "view",
      "type": "function"
    },
    {
      "inputs": [],
      "name": "renounceOwnership",
      "outputs": [],
      "stateMutability": "nonpayable",
      "type": "function"
    },
    {
      "inputs": [
        {
          "internalType": "address",
          "name": "newOwner",
          "type": "address"
        }
      ],
      "name": "transferOwnership",
      "outputs": [],
      "stateMutability": "nonpayable",
      "type": "function"
    },
    {
      "inputs": [
        {
          "internalType": "address",
          "name": "_weth",
          "type": "address"
        }
      ],
      "name": "updateWETH",
      "outputs": [],
      "stateMutability": "nonpayable",
      "type": "function"
    },
    {
      "inputs": [
        {
          "internalType": "address",
          "name": "_treasury",
          "type": "address"
        },
        {
          "internalType": "address",
          "name": "_to",
          "type": "address"
        },
        {
          "internalType": "uint256",
          "name": "_amount",
          "type": "uint256"
        },
        {
          "internalType": "address",
          "name": "_collectionAddress",
          "type": "address"
        }
      ],
      "name": "withdrawETH",
      "outputs": [],
      "stateMutability": "payable",
      "type": "function"
    },
    {
      "stateMutability": "payable",
      "type": "receive"
    }
  ],
  "bytecode": "0x60806040523480156200001157600080fd5b50604051620019f9380380620019f9833981810160405281019062000037919062000337565b620000576200004b620000b160201b60201c565b620000b960201b60201c565b81600160006101000a81548173ffffffffffffffffffffffffffffffffffffffff021916908373ffffffffffffffffffffffffffffffffffffffff160217905550620000a9816200017d60201b60201c565b505062000499565b600033905090565b60008060009054906101000a900473ffffffffffffffffffffffffffffffffffffffff169050816000806101000a81548173ffffffffffffffffffffffffffffffffffffffff021916908373ffffffffffffffffffffffffffffffffffffffff1602179055508173ffffffffffffffffffffffffffffffffffffffff168173ffffffffffffffffffffffffffffffffffffffff167f8be0079c531659141344cd1fd0a4f28419497f9722a3daafe3b4186f6b6457e060405160405180910390a35050565b6200018d6200021360201b60201c565b600073ffffffffffffffffffffffffffffffffffffffff168173ffffffffffffffffffffffffffffffffffffffff1603620001ff576040517f08c379a0000000000000000000000000000000000000000000000000000000008152600401620001f69062000405565b60405180910390fd5b6200021081620000b960201b60201c565b50565b62000223620000b160201b60201c565b73ffffffffffffffffffffffffffffffffffffffff1662000249620002a460201b60201c565b73ffffffffffffffffffffffffffffffffffffffff1614620002a2576040517f08c379a0000000000000000000000000000000000000000000000000000000008152600401620002999062000477565b60405180910390fd5b565b60008060009054906101000a900473ffffffffffffffffffffffffffffffffffffffff16905090565b600080fd5b600073ffffffffffffffffffffffffffffffffffffffff82169050919050565b6000620002ff82620002d2565b9050919050565b6200031181620002f2565b81146200031d57600080fd5b50565b600081519050620003318162000306565b92915050565b60008060408385031215620003515762000350620002cd565b5b6000620003618582860162000320565b9250506020620003748582860162000320565b9150509250929050565b600082825260208201905092915050565b7f4f776e61626c653a206e6577206f776e657220697320746865207a65726f206160008201527f6464726573730000000000000000000000000000000000000000000000000000602082015250565b6000620003ed6026836200037e565b9150620003fa826200038f565b604082019050919050565b600060208201905081810360008301526200042081620003de565b9050919050565b7f4f776e61626c653a2063616c6c6572206973206e6f7420746865206f776e6572600082015250565b60006200045f6020836200037e565b91506200046c8262000427565b602082019050919050565b60006020820190508181036000830152620004928162000450565b9050919050565b61155080620004a96000396000f3fe6080604052600436106100955760003560e01c8063a3d5b25511610059578063a3d5b2551461020a578063affa881714610233578063eed88b8d1461025e578063f2fde38b14610287578063fe9440d7146102b05761012c565b80632487fc1c146101675780633a7bef7914610183578063715018a61461019f5780638da5cb5b146101b657806394721647146101e15761012c565b3661012c57600160009054906101000a900473ffffffffffffffffffffffffffffffffffffffff1673ffffffffffffffffffffffffffffffffffffffff163373ffffffffffffffffffffffffffffffffffffffff161461012a576040517f08c379a000000000000000000000000000000000000000000000000000000000815260040161012190610a5c565b60405180910390fd5b005b6040517f08c379a000000000000000000000000000000000000000000000000000000000815260040161015e90610ac8565b60405180910390fd5b610181600480360381019061017c9190610b90565b6102d9565b005b61019d60048036038101906101989190610e9f565b610407565b005b3480156101ab57600080fd5b506101b4610511565b005b3480156101c257600080fd5b506101cb610525565b6040516101d89190610fa9565b60405180910390f35b3480156101ed57600080fd5b5061020860048036038101906102039190610fc4565b61054e565b005b34801561021657600080fd5b50610231600480360381019061022c9190610ff1565b61061a565b005b34801561023f57600080fd5b506102486106a6565b6040516102559190610fa9565b60405180910390f35b34801561026a57600080fd5b5061028560048036038101906102809190611044565b6106d0565b005b34801561029357600080fd5b506102ae60048036038101906102a99190610fc4565b6106e6565b005b3480156102bc57600080fd5b506102d760048036038101906102d29190610fc4565b610769565b005b8373ffffffffffffffffffffffffffffffffffffffff1663b779f02d8383600160009054906101000a900473ffffffffffffffffffffffffffffffffffffffff166040518463ffffffff1660e01b815260040161033893929190611093565b600060405180830381600087803b15801561035257600080fd5b505af1158015610366573d6000803e3d6000fd5b50505050600160009054906101000a900473ffffffffffffffffffffffffffffffffffffffff1673ffffffffffffffffffffffffffffffffffffffff16632e1a7d4d836040518263ffffffff1660e01b81526004016103c591906110ca565b600060405180830381600087803b1580156103df57600080fd5b505af11580156103f3573d6000803e3d6000fd5b5050505061040183836107b5565b50505050565b600160009054906101000a900473ffffffffffffffffffffffffffffffffffffffff1673ffffffffffffffffffffffffffffffffffffffff1663d0e30db0346040518263ffffffff1660e01b81526004016000604051808303818588803b15801561047157600080fd5b505af1158015610485573d6000803e3d6000fd5b50505050508973ffffffffffffffffffffffffffffffffffffffff166392b787678a8a8a8a8a8a8a8a8a6040518a63ffffffff1660e01b81526004016104d399989796959493929190611252565b600060405180830381600087803b1580156104ed57600080fd5b505af1158015610501573d6000803e3d6000fd5b5050505050505050505050505050565b6105196108b5565b6105236000610933565b565b60008060009054906101000a900473ffffffffffffffffffffffffffffffffffffffff16905090565b6105566108b5565b600160009054906101000a900473ffffffffffffffffffffffffffffffffffffffff1673ffffffffffffffffffffffffffffffffffffffff1663095ea7b3827fffffffffffffffffffffffffffffffffffffffffffffffffffffffffffffffff6040518363ffffffff1660e01b81526004016105d39291906112e7565b6020604051808303816000875af11580156105f2573d6000803e3d6000fd5b505050506040513d601f19601f820116820180604052508101906106169190611325565b5050565b6106226108b5565b8273ffffffffffffffffffffffffffffffffffffffff1663a9059cbb83836040518363ffffffff1660e01b815260040161065d9291906112e7565b6020604051808303816000875af115801561067c573d6000803e3d6000fd5b505050506040513d601f19601f820116820180604052508101906106a09190611325565b50505050565b6000600160009054906101000a900473ffffffffffffffffffffffffffffffffffffffff16905090565b6106d86108b5565b6106e282826107b5565b5050565b6106ee6108b5565b600073ffffffffffffffffffffffffffffffffffffffff168173ffffffffffffffffffffffffffffffffffffffff160361075d576040517f08c379a0000000000000000000000000000000000000000000000000000000008152600401610754906113c4565b60405180910390fd5b61076681610933565b50565b6107716108b5565b80600160006101000a81548173ffffffffffffffffffffffffffffffffffffffff021916908373ffffffffffffffffffffffffffffffffffffffff16021790555050565b60008273ffffffffffffffffffffffffffffffffffffffff1682600067ffffffffffffffff8111156107ea576107e9610cbc565b5b6040519080825280601f01601f19166020018201604052801561081c5781602001600182028036833780820191505090505b5060405161082a919061142b565b60006040518083038185875af1925050503d8060008114610867576040519150601f19603f3d011682016040523d82523d6000602084013e61086c565b606091505b50509050806108b0576040517f08c379a00000000000000000000000000000000000000000000000000000000081526004016108a79061148e565b60405180910390fd5b505050565b6108bd6109f7565b73ffffffffffffffffffffffffffffffffffffffff166108db610525565b73ffffffffffffffffffffffffffffffffffffffff1614610931576040517f08c379a0000000000000000000000000000000000000000000000000000000008152600401610928906114fa565b60405180910390fd5b565b60008060009054906101000a900473ffffffffffffffffffffffffffffffffffffffff169050816000806101000a81548173ffffffffffffffffffffffffffffffffffffffff021916908373ffffffffffffffffffffffffffffffffffffffff1602179055508173ffffffffffffffffffffffffffffffffffffffff168173ffffffffffffffffffffffffffffffffffffffff167f8be0079c531659141344cd1fd0a4f28419497f9722a3daafe3b4186f6b6457e060405160405180910390a35050565b600033905090565b600082825260208201905092915050565b7f52656365697665206e6f7420616c6c6f77656400000000000000000000000000600082015250565b6000610a466013836109ff565b9150610a5182610a10565b602082019050919050565b60006020820190508181036000830152610a7581610a39565b9050919050565b7f46616c6c6261636b206e6f7420616c6c6f776564000000000000000000000000600082015250565b6000610ab26014836109ff565b9150610abd82610a7c565b602082019050919050565b60006020820190508181036000830152610ae181610aa5565b9050919050565b6000604051905090565b600080fd5b600080fd5b600073ffffffffffffffffffffffffffffffffffffffff82169050919050565b6000610b2782610afc565b9050919050565b610b3781610b1c565b8114610b4257600080fd5b50565b600081359050610b5481610b2e565b92915050565b6000819050919050565b610b6d81610b5a565b8114610b7857600080fd5b50565b600081359050610b8a81610b64565b92915050565b60008060008060808587031215610baa57610ba9610af2565b5b6000610bb887828801610b45565b9450506020610bc987828801610b45565b9350506040610bda87828801610b7b565b9250506060610beb87828801610b45565b91505092959194509250565b6000610c0282610b1c565b9050919050565b610c1281610bf7565b8114610c1d57600080fd5b50565b600081359050610c2f81610c09565b92915050565b600060ff82169050919050565b610c4b81610c35565b8114610c5657600080fd5b50565b600081359050610c6881610c42565b92915050565b60008115159050919050565b610c8381610c6e565b8114610c8e57600080fd5b50565b600081359050610ca081610c7a565b92915050565b600080fd5b6000601f19601f8301169050919050565b7f4e487b7100000000000000000000000000000000000000000000000000000000600052604160045260246000fd5b610cf482610cab565b810181811067ffffffffffffffff82111715610d1357610d12610cbc565b5b80604052505050565b6000610d26610ae8565b9050610d328282610ceb565b919050565b6000819050919050565b610d4a81610d37565b8114610d5557600080fd5b50565b600081359050610d6781610d41565b92915050565b600060808284031215610d8357610d82610ca6565b5b610d8d6080610d1c565b90506000610d9d84828501610c59565b6000830152506020610db184828501610d58565b6020830152506040610dc584828501610d58565b6040830152506060610dd984828501610b7b565b60608301525092915050565b600080fd5b600080fd5b600067ffffffffffffffff821115610e0a57610e09610cbc565b5b610e1382610cab565b9050602081019050919050565b82818337600083830152505050565b6000610e42610e3d84610def565b610d1c565b905082815260208101848484011115610e5e57610e5d610dea565b5b610e69848285610e20565b509392505050565b600082601f830112610e8657610e85610de5565b5b8135610e96848260208601610e2f565b91505092915050565b6000806000806000806000806000806101a08b8d031215610ec357610ec2610af2565b5b6000610ed18d828e01610b45565b9a50506020610ee28d828e01610c20565b9950506040610ef38d828e01610c59565b9850506060610f048d828e01610b7b565b9750506080610f158d828e01610b7b565b96505060a0610f268d828e01610b7b565b95505060c0610f378d828e01610c91565b94505060e0610f488d828e01610d6d565b9350506101608b013567ffffffffffffffff811115610f6a57610f69610af7565b5b610f768d828e01610e71565b925050610180610f888d828e01610b45565b9150509295989b9194979a5092959850565b610fa381610b1c565b82525050565b6000602082019050610fbe6000830184610f9a565b92915050565b600060208284031215610fda57610fd9610af2565b5b6000610fe884828501610b45565b91505092915050565b60008060006060848603121561100a57611009610af2565b5b600061101886828701610b45565b935050602061102986828701610b45565b925050604061103a86828701610b7b565b9150509250925092565b6000806040838503121561105b5761105a610af2565b5b600061106985828601610b45565b925050602061107a85828601610b7b565b9150509250929050565b61108d81610b5a565b82525050565b60006060820190506110a86000830186611084565b6110b56020830185610f9a565b6110c26040830184610f9a565b949350505050565b60006020820190506110df6000830184611084565b92915050565b6000819050919050565b600061110a61110561110084610afc565b6110e5565b610afc565b9050919050565b600061111c826110ef565b9050919050565b600061112e82611111565b9050919050565b61113e81611123565b82525050565b61114d81610c35565b82525050565b61115c81610c6e565b82525050565b61116b81610c35565b82525050565b61117a81610d37565b82525050565b61118981610b5a565b82525050565b6080820160008201516111a56000850182611162565b5060208201516111b86020850182611171565b5060408201516111cb6040850182611171565b5060608201516111de6060850182611180565b50505050565b600081519050919050565b60005b8381101561120d5780820151818401526020810190506111f2565b60008484015250505050565b6000611224826111e4565b61122e81856109ff565b935061123e8185602086016111ef565b61124781610cab565b840191505092915050565b600061018082019050611268600083018c611135565b611275602083018b611144565b611282604083018a611084565b61128f6060830189611084565b61129c6080830188611084565b6112a960a0830187611153565b6112b660c083018661118f565b8181036101408301526112c98185611219565b90506112d9610160830184610f9a565b9a9950505050505050505050565b60006040820190506112fc6000830185610f9a565b6113096020830184611084565b9392505050565b60008151905061131f81610c7a565b92915050565b60006020828403121561133b5761133a610af2565b5b600061134984828501611310565b91505092915050565b7f4f776e61626c653a206e6577206f776e657220697320746865207a65726f206160008201527f6464726573730000000000000000000000000000000000000000000000000000602082015250565b60006113ae6026836109ff565b91506113b982611352565b604082019050919050565b600060208201905081810360008301526113dd816113a1565b9050919050565b600081519050919050565b600081905092915050565b6000611405826113e4565b61140f81856113ef565b935061141f8185602086016111ef565b80840191505092915050565b600061143782846113fa565b915081905092915050565b7f4554485f5452414e534645525f4641494c454400000000000000000000000000600082015250565b60006114786013836109ff565b915061148382611442565b602082019050919050565b600060208201905081810360008301526114a78161146b565b9050919050565b7f4f776e61626c653a2063616c6c6572206973206e6f7420746865206f776e6572600082015250565b60006114e46020836109ff565b91506114ef826114ae565b602082019050919050565b60006020820190508181036000830152611513816114d7565b905091905056fea2646970667358221220b91d38e9d63f822a9cfddd6b482891096c37d6d758bc33211dfb6c44a2d2869564736f6c63430008120033",
  "linkReferences": {},
  "deployedLinkReferences": {}
}