{
  "_format": "hh-sol-artifact-1",
  "contractName": "Configurations",
  "sourceName": "contracts/minting/Configurations.sol",
  "abi": [
    {
      "inputs": [
        {
          "internalType": "address",
          "name": "_nftFactory",
          "type": "address"
        },
        {
          "internalType": "address",
          "name": "_dappCreator",
          "type": "address"
        },
        {
          "internalType": "address",
          "name": "_treasury",
          "type": "address"
        }
      ],
      "stateMutability": "nonpayable",
      "type": "constructor"
    },
    {
      "anonymous": false,
      "inputs": [
        {
          "indexed": false,
          "internalType": "uint8",
          "name": "version",
          "type": "uint8"
        }
      ],
      "name": "Initialized",
      "type": "event"
    },
    {
      "anonymous": false,
      "inputs": [
        {
          "indexed": true,
          "internalType": "bytes32",
          "name": "role",
          "type": "bytes32"
        },
        {
          "indexed": true,
          "internalType": "bytes32",
          "name": "previousAdminRole",
          "type": "bytes32"
        },
        {
          "indexed": true,
          "internalType": "bytes32",
          "name": "newAdminRole",
          "type": "bytes32"
        }
      ],
      "name": "RoleAdminChanged",
      "type": "event"
    },
    {
      "anonymous": false,
      "inputs": [
        {
          "indexed": true,
          "internalType": "bytes32",
          "name": "role",
          "type": "bytes32"
        },
        {
          "indexed": true,
          "internalType": "address",
          "name": "account",
          "type": "address"
        },
        {
          "indexed": true,
          "internalType": "address",
          "name": "sender",
          "type": "address"
        }
      ],
      "name": "RoleGranted",
      "type": "event"
    },
    {
      "anonymous": false,
      "inputs": [
        {
          "indexed": true,
          "internalType": "bytes32",
          "name": "role",
          "type": "bytes32"
        },
        {
          "indexed": true,
          "internalType": "address",
          "name": "account",
          "type": "address"
        },
        {
          "indexed": true,
          "internalType": "address",
          "name": "sender",
          "type": "address"
        }
      ],
      "name": "RoleRevoked",
      "type": "event"
    },
    {
      "inputs": [],
      "name": "DAPP_CREATOR",
      "outputs": [
        {
          "internalType": "address",
          "name": "",
          "type": "address"
        }
      ],
      "stateMutability": "view",
      "type": "function"
    },
    {
      "inputs": [],
      "name": "DEFAULT_ADMIN_ROLE",
      "outputs": [
        {
          "internalType": "bytes32",
          "name": "",
          "type": "bytes32"
        }
      ],
      "stateMutability": "view",
      "type": "function"
    },
    {
      "inputs": [],
      "name": "INZ_TREASURY",
      "outputs": [
        {
          "internalType": "address",
          "name": "",
          "type": "address"
        }
      ],
      "stateMutability": "view",
      "type": "function"
    },
    {
      "inputs": [
        {
          "internalType": "address",
          "name": "_nftCollection",
          "type": "address"
        }
      ],
      "name": "InsertNewCollectionAddress",
      "outputs": [],
      "stateMutability": "nonpayable",
      "type": "function"
    },
    {
      "inputs": [],
      "name": "NFT_FACTORY",
      "outputs": [
        {
          "internalType": "address",
          "name": "",
          "type": "address"
        }
      ],
      "stateMutability": "view",
      "type": "function"
    },
    {
      "inputs": [],
      "name": "UPGRADER_ROLE",
      "outputs": [
        {
          "internalType": "bytes32",
          "name": "",
          "type": "bytes32"
        }
      ],
      "stateMutability": "view",
      "type": "function"
    },
    {
      "inputs": [
        {
          "internalType": "address",
          "name": "_nftCollection",
          "type": "address"
        },
        {
          "internalType": "uint8",
          "name": "_nftType",
          "type": "uint8"
        }
      ],
      "name": "checkValidMintingAttributes",
      "outputs": [
        {
          "internalType": "bool",
          "name": "",
          "type": "bool"
        }
      ],
      "stateMutability": "view",
      "type": "function"
    },
    {
      "inputs": [
        {
          "internalType": "address",
          "name": "_collectionAddress",
          "type": "address"
        },
        {
          "internalType": "uint8",
          "name": "_nftType",
          "type": "uint8"
        },
        {
          "internalType": "uint256",
          "name": "_price",
          "type": "uint256"
        },
        {
          "internalType": "uint256",
          "name": "_totalSupply",
          "type": "uint256"
        },
        {
          "internalType": "string",
          "name": "_baseMetadataUri",
          "type": "string"
        },
        {
          "internalType": "address",
          "name": "_creatorAddress",
          "type": "address"
        },
        {
          "internalType": "address",
          "name": "_payToken",
          "type": "address"
        }
      ],
      "name": "configCollection",
      "outputs": [],
      "stateMutability": "nonpayable",
      "type": "function"
    },
    {
      "inputs": [
        {
          "internalType": "address",
          "name": "_collectionAddress",
          "type": "address"
        },
        {
          "internalType": "string",
          "name": "_baseMetadataUri",
          "type": "string"
        }
      ],
      "name": "configCollectionURI",
      "outputs": [],
      "stateMutability": "nonpayable",
      "type": "function"
    },
    {
      "inputs": [
        {
          "internalType": "address",
          "name": "",
          "type": "address"
        }
      ],
      "name": "creatorCollection",
      "outputs": [
        {
          "internalType": "address",
          "name": "",
          "type": "address"
        }
      ],
      "stateMutability": "view",
      "type": "function"
    },
    {
      "inputs": [
        {
          "internalType": "address",
          "name": "_nftCollection",
          "type": "address"
        },
        {
          "internalType": "uint8",
          "name": "_nftType",
          "type": "uint8"
        }
      ],
      "name": "getCollectionPrice",
      "outputs": [
        {
          "internalType": "uint256",
          "name": "",
          "type": "uint256"
        },
        {
          "internalType": "address",
          "name": "",
          "type": "address"
        }
      ],
      "stateMutability": "view",
      "type": "function"
    },
    {
      "inputs": [
        {
          "internalType": "address",
          "name": "_collectionAddress",
          "type": "address"
        },
        {
          "internalType": "uint256",
          "name": "_tokenId",
          "type": "uint256"
        }
      ],
      "name": "getCollectionURI",
      "outputs": [
        {
          "internalType": "string",
          "name": "",
          "type": "string"
        }
      ],
      "stateMutability": "view",
      "type": "function"
    },
    {
      "inputs": [
        {
          "internalType": "address",
          "name": "_collectionAddress",
          "type": "address"
        }
      ],
      "name": "getCreatorCollection",
      "outputs": [
        {
          "internalType": "address",
          "name": "",
          "type": "address"
        }
      ],
      "stateMutability": "view",
      "type": "function"
    },
    {
      "inputs": [
        {
          "internalType": "address",
          "name": "_collectionAddress",
          "type": "address"
        }
      ],
      "name": "getCreatorFromTreasury",
      "outputs": [
        {
          "internalType": "address",
          "name": "",
          "type": "address"
        }
      ],
      "stateMutability": "view",
      "type": "function"
    },
    {
      "inputs": [],
      "name": "getNftCreator",
      "outputs": [
        {
          "internalType": "address",
          "name": "",
          "type": "address"
        }
      ],
      "stateMutability": "view",
      "type": "function"
    },
    {
      "inputs": [
        {
          "internalType": "address",
          "name": "_collectionAddress",
          "type": "address"
        },
        {
          "internalType": "uint8",
          "name": "_tokenType",
          "type": "uint8"
        }
      ],
      "name": "getNftTypeDetail",
      "outputs": [
        {
          "components": [
            {
              "internalType": "uint8",
              "name": "nftType",
              "type": "uint8"
            },
            {
              "internalType": "uint256",
              "name": "totalSupply",
              "type": "uint256"
            },
            {
              "internalType": "uint256",
              "name": "price",
              "type": "uint256"
            }
          ],
          "internalType": "struct InZNFTTypeDetail.NFTTypeDetail",
          "name": "",
          "type": "tuple"
        }
      ],
      "stateMutability": "view",
      "type": "function"
    },
    {
      "inputs": [
        {
          "internalType": "address",
          "name": "_collectionAddress",
          "type": "address"
        }
      ],
      "name": "getPayTokenCollection",
      "outputs": [
        {
          "internalType": "address",
          "name": "",
          "type": "address"
        }
      ],
      "stateMutability": "view",
      "type": "function"
    },
    {
      "inputs": [
        {
          "internalType": "bytes32",
          "name": "role",
          "type": "bytes32"
        }
      ],
      "name": "getRoleAdmin",
      "outputs": [
        {
          "internalType": "bytes32",
          "name": "",
          "type": "bytes32"
        }
      ],
      "stateMutability": "view",
      "type": "function"
    },
    {
      "inputs": [
        {
          "internalType": "bytes32",
          "name": "role",
          "type": "bytes32"
        },
        {
          "internalType": "address",
          "name": "account",
          "type": "address"
        }
      ],
      "name": "grantRole",
      "outputs": [],
      "stateMutability": "nonpayable",
      "type": "function"
    },
    {
      "inputs": [
        {
          "internalType": "bytes32",
          "name": "role",
          "type": "bytes32"
        },
        {
          "internalType": "address",
          "name": "account",
          "type": "address"
        }
      ],
      "name": "hasRole",
      "outputs": [
        {
          "internalType": "bool",
          "name": "",
          "type": "bool"
        }
      ],
      "stateMutability": "view",
      "type": "function"
    },
    {
      "inputs": [],
      "name": "initialize",
      "outputs": [],
      "stateMutability": "nonpayable",
      "type": "function"
    },
    {
      "inputs": [
        {
          "internalType": "address",
          "name": "",
          "type": "address"
        },
        {
          "internalType": "uint8",
          "name": "",
          "type": "uint8"
        }
      ],
      "name": "nftTypeDetails",
      "outputs": [
        {
          "internalType": "uint8",
          "name": "nftType",
          "type": "uint8"
        },
        {
          "internalType": "uint256",
          "name": "totalSupply",
          "type": "uint256"
        },
        {
          "internalType": "uint256",
          "name": "price",
          "type": "uint256"
        }
      ],
      "stateMutability": "view",
      "type": "function"
    },
    {
      "inputs": [
        {
          "internalType": "address",
          "name": "",
          "type": "address"
        }
      ],
      "name": "payTokenCollection",
      "outputs": [
        {
          "internalType": "address",
          "name": "",
          "type": "address"
        }
      ],
      "stateMutability": "view",
      "type": "function"
    },
    {
      "inputs": [
        {
          "internalType": "bytes32",
          "name": "role",
          "type": "bytes32"
        },
        {
          "internalType": "address",
          "name": "account",
          "type": "address"
        }
      ],
      "name": "renounceRole",
      "outputs": [],
      "stateMutability": "nonpayable",
      "type": "function"
    },
    {
      "inputs": [
        {
          "internalType": "bytes32",
          "name": "role",
          "type": "bytes32"
        },
        {
          "internalType": "address",
          "name": "account",
          "type": "address"
        }
      ],
      "name": "revokeRole",
      "outputs": [],
      "stateMutability": "nonpayable",
      "type": "function"
    },
    {
      "inputs": [
        {
          "internalType": "bytes4",
          "name": "interfaceId",
          "type": "bytes4"
        }
      ],
      "name": "supportsInterface",
      "outputs": [
        {
          "internalType": "bool",
          "name": "",
          "type": "bool"
        }
      ],
      "stateMutability": "view",
      "type": "function"
    },
    {
      "inputs": [
        {
          "internalType": "address",
          "name": "_nftFactory",
          "type": "address"
        },
        {
          "internalType": "address",
          "name": "_dappCreator",
          "type": "address"
        },
        {
          "internalType": "address",
          "name": "_treasury",
          "type": "address"
        }
      ],
      "name": "updateConfigContract",
      "outputs": [],
      "stateMutability": "nonpayable",
      "type": "function"
    },
    {
      "inputs": [
        {
          "internalType": "address",
          "name": "_newCreator",
          "type": "address"
        },
        {
          "internalType": "address",
          "name": "_collectionAddress",
          "type": "address"
        }
      ],
      "name": "updateCreatorCollection",
      "outputs": [],
      "stateMutability": "nonpayable",
      "type": "function"
    },
    {
      "inputs": [
        {
          "internalType": "address",
          "name": "_collectionAddress",
          "type": "address"
        },
        {
          "internalType": "address",
          "name": "_payToken",
          "type": "address"
        }
      ],
      "name": "updatePayTokenCollection",
      "outputs": [],
      "stateMutability": "nonpayable",
      "type": "function"
    },
    {
      "inputs": [
        {
          "internalType": "address",
          "name": "",
          "type": "address"
        }
      ],
      "name": "uriNFTs",
      "outputs": [
        {
          "internalType": "string",
          "name": "",
          "type": "string"
        }
      ],
      "stateMutability": "view",
      "type": "function"
    }
  ],
  "bytecode": "0x60806040523480156200001157600080fd5b5060405162003a2d38038062003a2d83398181016040528101906200003791906200016d565b82609760006101000a81548173ffffffffffffffffffffffffffffffffffffffff021916908373ffffffffffffffffffffffffffffffffffffffff16021790555081609b60006101000a81548173ffffffffffffffffffffffffffffffffffffffff021916908373ffffffffffffffffffffffffffffffffffffffff16021790555080609c60006101000a81548173ffffffffffffffffffffffffffffffffffffffff021916908373ffffffffffffffffffffffffffffffffffffffff160217905550505050620001c9565b600080fd5b600073ffffffffffffffffffffffffffffffffffffffff82169050919050565b6000620001358262000108565b9050919050565b620001478162000128565b81146200015357600080fd5b50565b60008151905062000167816200013c565b92915050565b60008060006060848603121562000189576200018862000103565b5b6000620001998682870162000156565b9350506020620001ac8682870162000156565b9250506040620001bf8682870162000156565b9150509250925092565b61385480620001d96000396000f3fe608060405234801561001057600080fd5b50600436106101da5760003560e01c806391d1485411610104578063bb0345e2116100a2578063d547741f11610071578063d547741f146105ca578063d8708898146105e6578063f72c0d8b14610602578063fab9cdbf14610620576101da565b8063bb0345e214610530578063c6ce91d41461054c578063ce1d74e71461057c578063d2787fa71461059a576101da565b8063a217fddf116100de578063a217fddf14610496578063ad0b88cb146104b4578063adb8cbee146104d0578063ae7467f314610500576101da565b806391d148541461041a578063a0da06b51461044a578063a1bf2f231461047a576101da565b80633c88d9041161017c57806376f870511161014b57806376f870511461037d5780638129fc1c146103af57806386c2b83d146103b957806389d983ef146103e9576101da565b80633c88d904146102f55780634fda5ef2146103115780636ab9d6241461032f5780636f1e01e61461035f576101da565b806328f8c046116101b857806328f8c0461461025d57806329c4c28d1461028d5780632f2ff15d146102bd57806336568abe146102d9576101da565b806301ffc9a7146101df578063145573761461020f578063248a9ca31461022d575b600080fd5b6101f960048036038101906101f4919061259e565b61063c565b60405161020691906125e6565b60405180910390f35b6102176106b6565b6040516102249190612642565b60405180910390f35b61024760048036038101906102429190612693565b6106dc565b60405161025491906126cf565b60405180910390f35b61027760048036038101906102729190612716565b6106fc565b6040516102849190612642565b60405180910390f35b6102a760048036038101906102a29190612716565b6107f5565b6040516102b49190612642565b60405180910390f35b6102d760048036038101906102d29190612743565b6108ee565b005b6102f360048036038101906102ee9190612743565b61090f565b005b61030f600480360381019061030a9190612938565b610992565b005b610319610cbd565b6040516103269190612642565b60405180910390f35b61034960048036038101906103449190612716565b610ce3565b6040516103569190612a75565b60405180910390f35b610367610d83565b6040516103749190612642565b60405180910390f35b61039760048036038101906103929190612a97565b610dad565b6040516103a693929190612af5565b60405180910390f35b6103b7610df1565b005b6103d360048036038101906103ce9190612a97565b610f66565b6040516103e09190612b8c565b60405180910390f35b61040360048036038101906103fe9190612a97565b611008565b604051610411929190612ba7565b60405180910390f35b610434600480360381019061042f9190612743565b6110d0565b60405161044191906125e6565b60405180910390f35b610464600480360381019061045f9190612bd0565b61113b565b6040516104719190612a75565b60405180910390f35b610494600480360381019061048f9190612c10565b6111cf565b005b61049e611334565b6040516104ab91906126cf565b60405180910390f35b6104ce60048036038101906104c99190612c10565b61133b565b005b6104ea60048036038101906104e59190612716565b6114a0565b6040516104f79190612642565b60405180910390f35b61051a60048036038101906105159190612716565b611599565b6040516105279190612642565b60405180910390f35b61054a60048036038101906105459190612c50565b6115cc565b005b61056660048036038101906105619190612a97565b611724565b60405161057391906125e6565b60405180910390f35b61058461178b565b6040516105919190612642565b60405180910390f35b6105b460048036038101906105af9190612716565b6117b1565b6040516105c19190612642565b60405180910390f35b6105e460048036038101906105df9190612743565b6117e4565b005b61060060048036038101906105fb9190612716565b611805565b005b61060a6118ad565b60405161061791906126cf565b60405180910390f35b61063a60048036038101906106359190612ca3565b6118d1565b005b60007f7965db0b000000000000000000000000000000000000000000000000000000007bffffffffffffffffffffffffffffffffffffffffffffffffffffffff1916827bffffffffffffffffffffffffffffffffffffffffffffffffffffffff191614806106af57506106ae82611a05565b5b9050919050565b609b60009054906101000a900473ffffffffffffffffffffffffffffffffffffffff1681565b600060656000838152602001908152602001600020600101549050919050565b6000609c60009054906101000a900473ffffffffffffffffffffffffffffffffffffffff1673ffffffffffffffffffffffffffffffffffffffff163373ffffffffffffffffffffffffffffffffffffffff161461078e576040517f08c379a000000000000000000000000000000000000000000000000000000000815260040161078590612d71565b60405180910390fd5b609960008373ffffffffffffffffffffffffffffffffffffffff1673ffffffffffffffffffffffffffffffffffffffff16815260200190815260200160002060009054906101000a900473ffffffffffffffffffffffffffffffffffffffff169050919050565b6000609b60009054906101000a900473ffffffffffffffffffffffffffffffffffffffff1673ffffffffffffffffffffffffffffffffffffffff163373ffffffffffffffffffffffffffffffffffffffff1614610887576040517f08c379a000000000000000000000000000000000000000000000000000000000815260040161087e90612e03565b60405180910390fd5b609a60008373ffffffffffffffffffffffffffffffffffffffff1673ffffffffffffffffffffffffffffffffffffffff16815260200190815260200160002060009054906101000a900473ffffffffffffffffffffffffffffffffffffffff169050919050565b6108f7826106dc565b61090081611a6f565b61090a8383611a83565b505050565b610917611b64565b73ffffffffffffffffffffffffffffffffffffffff168173ffffffffffffffffffffffffffffffffffffffff1614610984576040517f08c379a000000000000000000000000000000000000000000000000000000000815260040161097b90612e95565b60405180910390fd5b61098e8282611b6c565b5050565b609760009054906101000a900473ffffffffffffffffffffffffffffffffffffffff1673ffffffffffffffffffffffffffffffffffffffff163373ffffffffffffffffffffffffffffffffffffffff1614610a22576040517f08c379a0000000000000000000000000000000000000000000000000000000008152600401610a1990612f27565b60405180910390fd5b610a3687609d611c4e90919063ffffffff16565b610a75576040517f08c379a0000000000000000000000000000000000000000000000000000000008152600401610a6c90612f93565b60405180910390fd5b610a7d61250e565b86816000019060ff16908160ff168152505060008503610ac6577fffffffffffffffffffffffffffffffffffffffffffffffffffffffffffffffff816020018181525050610ad1565b848160200181815250505b8581604001818152505080609f60008a73ffffffffffffffffffffffffffffffffffffffff1673ffffffffffffffffffffffffffffffffffffffff16815260200190815260200160002060008960ff1660ff16815260200190815260200160002060008201518160000160006101000a81548160ff021916908360ff160217905550602082015181600101556040820151816002015590505083609860008a73ffffffffffffffffffffffffffffffffffffffff1673ffffffffffffffffffffffffffffffffffffffff1681526020019081526020016000209081610bb691906131bf565b5082609960008a73ffffffffffffffffffffffffffffffffffffffff1673ffffffffffffffffffffffffffffffffffffffff16815260200190815260200160002060006101000a81548173ffffffffffffffffffffffffffffffffffffffff021916908373ffffffffffffffffffffffffffffffffffffffff16021790555081609a60008a73ffffffffffffffffffffffffffffffffffffffff1673ffffffffffffffffffffffffffffffffffffffff16815260200190815260200160002060006101000a81548173ffffffffffffffffffffffffffffffffffffffff021916908373ffffffffffffffffffffffffffffffffffffffff1602179055505050505050505050565b609760009054906101000a900473ffffffffffffffffffffffffffffffffffffffff1681565b60986020528060005260406000206000915090508054610d0290612fe2565b80601f0160208091040260200160405190810160405280929190818152602001828054610d2e90612fe2565b8015610d7b5780601f10610d5057610100808354040283529160200191610d7b565b820191906000526020600020905b815481529060010190602001808311610d5e57829003601f168201915b505050505081565b6000609b60009054906101000a900473ffffffffffffffffffffffffffffffffffffffff16905090565b609f602052816000526040600020602052806000526040600020600091509150508060000160009054906101000a900460ff16908060010154908060020154905083565b60008060019054906101000a900460ff16159050808015610e225750600160008054906101000a900460ff1660ff16105b80610e4f5750610e3130611c7e565b158015610e4e5750600160008054906101000a900460ff1660ff16145b5b610e8e576040517f08c379a0000000000000000000000000000000000000000000000000000000008152600401610e8590613303565b60405180910390fd5b60016000806101000a81548160ff021916908360ff1602179055508015610ecb576001600060016101000a81548160ff0219169083151502179055505b610ed3611ca1565b610ee06000801b33611cf2565b610f0a7f189ab7a9244df0848122154315af71fe140f3db0fe014031783b0946b8c9d2e333611cf2565b8015610f635760008060016101000a81548160ff0219169083151502179055507f7f26b83ff96e1f2b6a682f133852f6798a09c465da95921460cefb38474024986001604051610f5a919061335e565b60405180910390a15b50565b610f6e61250e565b609f60008473ffffffffffffffffffffffffffffffffffffffff1673ffffffffffffffffffffffffffffffffffffffff16815260200190815260200160002060008360ff1660ff1681526020019081526020016000206040518060600160405290816000820160009054906101000a900460ff1660ff1660ff16815260200160018201548152602001600282015481525050905092915050565b600080609f60008573ffffffffffffffffffffffffffffffffffffffff1673ffffffffffffffffffffffffffffffffffffffff16815260200190815260200160002060008460ff1660ff16815260200190815260200160002060020154609a60008673ffffffffffffffffffffffffffffffffffffffff1673ffffffffffffffffffffffffffffffffffffffff16815260200190815260200160002060009054906101000a900473ffffffffffffffffffffffffffffffffffffffff16915091509250929050565b60006065600084815260200190815260200160002060000160008373ffffffffffffffffffffffffffffffffffffffff1673ffffffffffffffffffffffffffffffffffffffff16815260200190815260200160002060009054906101000a900460ff16905092915050565b6060609860008473ffffffffffffffffffffffffffffffffffffffff1673ffffffffffffffffffffffffffffffffffffffff16815260200190815260200160002061119d8473ffffffffffffffffffffffffffffffffffffffff166014611d00565b6111a684611f3c565b6040516020016111b8939291906134d0565b604051602081830303815290604052905092915050565b609b60009054906101000a900473ffffffffffffffffffffffffffffffffffffffff1673ffffffffffffffffffffffffffffffffffffffff163373ffffffffffffffffffffffffffffffffffffffff161461125f576040517f08c379a000000000000000000000000000000000000000000000000000000000815260040161125690612e03565b60405180910390fd5b61127381609d611c4e90919063ffffffff16565b6112b2576040517f08c379a00000000000000000000000000000000000000000000000000000000081526004016112a990612f93565b60405180910390fd5b81609960008373ffffffffffffffffffffffffffffffffffffffff1673ffffffffffffffffffffffffffffffffffffffff16815260200190815260200160002060006101000a81548173ffffffffffffffffffffffffffffffffffffffff021916908373ffffffffffffffffffffffffffffffffffffffff1602179055505050565b6000801b81565b609b60009054906101000a900473ffffffffffffffffffffffffffffffffffffffff1673ffffffffffffffffffffffffffffffffffffffff163373ffffffffffffffffffffffffffffffffffffffff16146113cb576040517f08c379a00000000000000000000000000000000000000000000000000000000081526004016113c290612e03565b60405180910390fd5b6113df82609d611c4e90919063ffffffff16565b61141e576040517f08c379a000000000000000000000000000000000000000000000000000000000815260040161141590612f93565b60405180910390fd5b80609a60008473ffffffffffffffffffffffffffffffffffffffff1673ffffffffffffffffffffffffffffffffffffffff16815260200190815260200160002060006101000a81548173ffffffffffffffffffffffffffffffffffffffff021916908373ffffffffffffffffffffffffffffffffffffffff1602179055505050565b6000609b60009054906101000a900473ffffffffffffffffffffffffffffffffffffffff1673ffffffffffffffffffffffffffffffffffffffff163373ffffffffffffffffffffffffffffffffffffffff1614611532576040517f08c379a000000000000000000000000000000000000000000000000000000000815260040161152990612e03565b60405180910390fd5b609960008373ffffffffffffffffffffffffffffffffffffffff1673ffffffffffffffffffffffffffffffffffffffff16815260200190815260200160002060009054906101000a900473ffffffffffffffffffffffffffffffffffffffff169050919050565b60996020528060005260406000206000915054906101000a900473ffffffffffffffffffffffffffffffffffffffff1681565b609760009054906101000a900473ffffffffffffffffffffffffffffffffffffffff1673ffffffffffffffffffffffffffffffffffffffff163373ffffffffffffffffffffffffffffffffffffffff161461165c576040517f08c379a000000000000000000000000000000000000000000000000000000000815260040161165390612f27565b60405180910390fd5b82609760006101000a81548173ffffffffffffffffffffffffffffffffffffffff021916908373ffffffffffffffffffffffffffffffffffffffff16021790555081609b60006101000a81548173ffffffffffffffffffffffffffffffffffffffff021916908373ffffffffffffffffffffffffffffffffffffffff16021790555080609c60006101000a81548173ffffffffffffffffffffffffffffffffffffffff021916908373ffffffffffffffffffffffffffffffffffffffff160217905550505050565b600080609f60008573ffffffffffffffffffffffffffffffffffffffff1673ffffffffffffffffffffffffffffffffffffffff16815260200190815260200160002060008460ff1660ff168152602001908152602001600020600101541415905092915050565b609c60009054906101000a900473ffffffffffffffffffffffffffffffffffffffff1681565b609a6020528060005260406000206000915054906101000a900473ffffffffffffffffffffffffffffffffffffffff1681565b6117ed826106dc565b6117f681611a6f565b6118008383611b6c565b505050565b609760009054906101000a900473ffffffffffffffffffffffffffffffffffffffff1673ffffffffffffffffffffffffffffffffffffffff163373ffffffffffffffffffffffffffffffffffffffff1614611895576040517f08c379a000000000000000000000000000000000000000000000000000000000815260040161188c90612f27565b60405180910390fd5b6118a981609d61200a90919063ffffffff16565b5050565b7f189ab7a9244df0848122154315af71fe140f3db0fe014031783b0946b8c9d2e381565b609760009054906101000a900473ffffffffffffffffffffffffffffffffffffffff1673ffffffffffffffffffffffffffffffffffffffff163373ffffffffffffffffffffffffffffffffffffffff1614611961576040517f08c379a000000000000000000000000000000000000000000000000000000000815260040161195890612f27565b60405180910390fd5b61197582609d611c4e90919063ffffffff16565b6119b4576040517f08c379a00000000000000000000000000000000000000000000000000000000081526004016119ab90612f93565b60405180910390fd5b80609860008473ffffffffffffffffffffffffffffffffffffffff1673ffffffffffffffffffffffffffffffffffffffff1681526020019081526020016000209081611a0091906131bf565b505050565b60007f01ffc9a7000000000000000000000000000000000000000000000000000000007bffffffffffffffffffffffffffffffffffffffffffffffffffffffff1916827bffffffffffffffffffffffffffffffffffffffffffffffffffffffff1916149050919050565b611a8081611a7b611b64565b61203a565b50565b611a8d82826110d0565b611b605760016065600084815260200190815260200160002060000160008373ffffffffffffffffffffffffffffffffffffffff1673ffffffffffffffffffffffffffffffffffffffff16815260200190815260200160002060006101000a81548160ff021916908315150217905550611b05611b64565b73ffffffffffffffffffffffffffffffffffffffff168173ffffffffffffffffffffffffffffffffffffffff16837f2f8788117e7eff1d82e926ec794901d17c78024a50270940304540a733656f0d60405160405180910390a45b5050565b600033905090565b611b7682826110d0565b15611c4a5760006065600084815260200190815260200160002060000160008373ffffffffffffffffffffffffffffffffffffffff1673ffffffffffffffffffffffffffffffffffffffff16815260200190815260200160002060006101000a81548160ff021916908315150217905550611bef611b64565b73ffffffffffffffffffffffffffffffffffffffff168173ffffffffffffffffffffffffffffffffffffffff16837ff6391f5c32d9c69d2a47ea670b442974b53935d1edc7fd64eb21e047a839171b60405160405180910390a45b5050565b6000611c76836000018373ffffffffffffffffffffffffffffffffffffffff1660001b6120bf565b905092915050565b6000808273ffffffffffffffffffffffffffffffffffffffff163b119050919050565b600060019054906101000a900460ff16611cf0576040517f08c379a0000000000000000000000000000000000000000000000000000000008152600401611ce790613594565b60405180910390fd5b565b611cfc8282611a83565b5050565b606060006002836002611d1391906135e3565b611d1d9190613625565b67ffffffffffffffff811115611d3657611d3561280d565b5b6040519080825280601f01601f191660200182016040528015611d685781602001600182028036833780820191505090505b5090507f300000000000000000000000000000000000000000000000000000000000000081600081518110611da057611d9f613659565b5b60200101907effffffffffffffffffffffffffffffffffffffffffffffffffffffffffffff1916908160001a9053507f780000000000000000000000000000000000000000000000000000000000000081600181518110611e0457611e03613659565b5b60200101907effffffffffffffffffffffffffffffffffffffffffffffffffffffffffffff1916908160001a90535060006001846002611e4491906135e3565b611e4e9190613625565b90505b6001811115611eee577f3031323334353637383961626364656600000000000000000000000000000000600f861660108110611e9057611e8f613659565b5b1a60f81b828281518110611ea757611ea6613659565b5b60200101907effffffffffffffffffffffffffffffffffffffffffffffffffffffffffffff1916908160001a905350600485901c945080611ee790613688565b9050611e51565b5060008414611f32576040517f08c379a0000000000000000000000000000000000000000000000000000000008152600401611f29906136fd565b60405180910390fd5b8091505092915050565b606060006001611f4b846120e2565b01905060008167ffffffffffffffff811115611f6a57611f6961280d565b5b6040519080825280601f01601f191660200182016040528015611f9c5781602001600182028036833780820191505090505b509050600082602001820190505b600115611fff578080600190039150507f3031323334353637383961626364656600000000000000000000000000000000600a86061a8153600a8581611ff357611ff261371d565b5b04945060008503611faa575b819350505050919050565b6000612032836000018373ffffffffffffffffffffffffffffffffffffffff1660001b612235565b905092915050565b61204482826110d0565b6120bb57612051816122a5565b61205f8360001c60206122d2565b6040516020016120709291906137e4565b6040516020818303038152906040526040517f08c379a00000000000000000000000000000000000000000000000000000000081526004016120b29190612a75565b60405180910390fd5b5050565b600080836001016000848152602001908152602001600020541415905092915050565b600080600090507a184f03e93ff9f4daa797ed6e38ed64bf6a1f0100000000000000008310612140577a184f03e93ff9f4daa797ed6e38ed64bf6a1f01000000000000000083816121365761213561371d565b5b0492506040810190505b6d04ee2d6d415b85acef8100000000831061217d576d04ee2d6d415b85acef810000000083816121735761217261371d565b5b0492506020810190505b662386f26fc1000083106121ac57662386f26fc1000083816121a2576121a161371d565b5b0492506010810190505b6305f5e10083106121d5576305f5e10083816121cb576121ca61371d565b5b0492506008810190505b61271083106121fa5761271083816121f0576121ef61371d565b5b0492506004810190505b6064831061221d57606483816122135761221261371d565b5b0492506002810190505b600a831061222c576001810190505b80915050919050565b600061224183836120bf565b61229a57826000018290806001815401808255809150506001900390600052602060002001600090919091909150558260000180549050836001016000848152602001908152602001600020819055506001905061229f565b600090505b92915050565b60606122cb8273ffffffffffffffffffffffffffffffffffffffff16601460ff166122d2565b9050919050565b6060600060028360026122e591906135e3565b6122ef9190613625565b67ffffffffffffffff8111156123085761230761280d565b5b6040519080825280601f01601f19166020018201604052801561233a5781602001600182028036833780820191505090505b5090507f30000000000000000000000000000000000000000000000000000000000000008160008151811061237257612371613659565b5b60200101907effffffffffffffffffffffffffffffffffffffffffffffffffffffffffffff1916908160001a9053507f7800000000000000000000000000000000000000000000000000000000000000816001815181106123d6576123d5613659565b5b60200101907effffffffffffffffffffffffffffffffffffffffffffffffffffffffffffff1916908160001a9053506000600184600261241691906135e3565b6124209190613625565b90505b60018111156124c0577f3031323334353637383961626364656600000000000000000000000000000000600f86166010811061246257612461613659565b5b1a60f81b82828151811061247957612478613659565b5b60200101907effffffffffffffffffffffffffffffffffffffffffffffffffffffffffffff1916908160001a905350600485901c9450806124b990613688565b9050612423565b5060008414612504576040517f08c379a00000000000000000000000000000000000000000000000000000000081526004016124fb906136fd565b60405180910390fd5b8091505092915050565b6040518060600160405280600060ff16815260200160008152602001600081525090565b6000604051905090565b600080fd5b600080fd5b60007fffffffff0000000000000000000000000000000000000000000000000000000082169050919050565b61257b81612546565b811461258657600080fd5b50565b60008135905061259881612572565b92915050565b6000602082840312156125b4576125b361253c565b5b60006125c284828501612589565b91505092915050565b60008115159050919050565b6125e0816125cb565b82525050565b60006020820190506125fb60008301846125d7565b92915050565b600073ffffffffffffffffffffffffffffffffffffffff82169050919050565b600061262c82612601565b9050919050565b61263c81612621565b82525050565b60006020820190506126576000830184612633565b92915050565b6000819050919050565b6126708161265d565b811461267b57600080fd5b50565b60008135905061268d81612667565b92915050565b6000602082840312156126a9576126a861253c565b5b60006126b78482850161267e565b91505092915050565b6126c98161265d565b82525050565b60006020820190506126e460008301846126c0565b92915050565b6126f381612621565b81146126fe57600080fd5b50565b600081359050612710816126ea565b92915050565b60006020828403121561272c5761272b61253c565b5b600061273a84828501612701565b91505092915050565b6000806040838503121561275a5761275961253c565b5b60006127688582860161267e565b925050602061277985828601612701565b9150509250929050565b600060ff82169050919050565b61279981612783565b81146127a457600080fd5b50565b6000813590506127b681612790565b92915050565b6000819050919050565b6127cf816127bc565b81146127da57600080fd5b50565b6000813590506127ec816127c6565b92915050565b600080fd5b600080fd5b6000601f19601f8301169050919050565b7f4e487b7100000000000000000000000000000000000000000000000000000000600052604160045260246000fd5b612845826127fc565b810181811067ffffffffffffffff821117156128645761286361280d565b5b80604052505050565b6000612877612532565b9050612883828261283c565b919050565b600067ffffffffffffffff8211156128a3576128a261280d565b5b6128ac826127fc565b9050602081019050919050565b82818337600083830152505050565b60006128db6128d684612888565b61286d565b9050828152602081018484840111156128f7576128f66127f7565b5b6129028482856128b9565b509392505050565b600082601f83011261291f5761291e6127f2565b5b813561292f8482602086016128c8565b91505092915050565b600080600080600080600060e0888a0312156129575761295661253c565b5b60006129658a828b01612701565b97505060206129768a828b016127a7565b96505060406129878a828b016127dd565b95505060606129988a828b016127dd565b945050608088013567ffffffffffffffff8111156129b9576129b8612541565b5b6129c58a828b0161290a565b93505060a06129d68a828b01612701565b92505060c06129e78a828b01612701565b91505092959891949750929550565b600081519050919050565b600082825260208201905092915050565b60005b83811015612a30578082015181840152602081019050612a15565b60008484015250505050565b6000612a47826129f6565b612a518185612a01565b9350612a61818560208601612a12565b612a6a816127fc565b840191505092915050565b60006020820190508181036000830152612a8f8184612a3c565b905092915050565b60008060408385031215612aae57612aad61253c565b5b6000612abc85828601612701565b9250506020612acd858286016127a7565b9150509250929050565b612ae081612783565b82525050565b612aef816127bc565b82525050565b6000606082019050612b0a6000830186612ad7565b612b176020830185612ae6565b612b246040830184612ae6565b949350505050565b612b3581612783565b82525050565b612b44816127bc565b82525050565b606082016000820151612b606000850182612b2c565b506020820151612b736020850182612b3b565b506040820151612b866040850182612b3b565b50505050565b6000606082019050612ba16000830184612b4a565b92915050565b6000604082019050612bbc6000830185612ae6565b612bc96020830184612633565b9392505050565b60008060408385031215612be757612be661253c565b5b6000612bf585828601612701565b9250506020612c06858286016127dd565b9150509250929050565b60008060408385031215612c2757612c2661253c565b5b6000612c3585828601612701565b9250506020612c4685828601612701565b9150509250929050565b600080600060608486031215612c6957612c6861253c565b5b6000612c7786828701612701565b9350506020612c8886828701612701565b9250506040612c9986828701612701565b9150509250925092565b60008060408385031215612cba57612cb961253c565b5b6000612cc885828601612701565b925050602083013567ffffffffffffffff811115612ce957612ce8612541565b5b612cf58582860161290a565b9150509250929050565b7f43616e206f6e6c792063616c6c2066726f6d20496e5a5472656173757279206360008201527f6f6e747261637400000000000000000000000000000000000000000000000000602082015250565b6000612d5b602783612a01565b9150612d6682612cff565b604082019050919050565b60006020820190508181036000830152612d8a81612d4e565b9050919050565b7f43616e206f6e6c792063616c6c2066726f6d20446170702043726561746f722060008201527f636f6e7472616374000000000000000000000000000000000000000000000000602082015250565b6000612ded602883612a01565b9150612df882612d91565b604082019050919050565b60006020820190508181036000830152612e1c81612de0565b9050919050565b7f416363657373436f6e74726f6c3a2063616e206f6e6c792072656e6f756e636560008201527f20726f6c657320666f722073656c660000000000000000000000000000000000602082015250565b6000612e7f602f83612a01565b9150612e8a82612e23565b604082019050919050565b60006020820190508181036000830152612eae81612e72565b9050919050565b7f43616e206f6e6c792063616c6c2066726f6d20466163746f727920636f6e747260008201527f6163740000000000000000000000000000000000000000000000000000000000602082015250565b6000612f11602383612a01565b9150612f1c82612eb5565b604082019050919050565b60006020820190508181036000830152612f4081612f04565b9050919050565b7f496e76616c6964204e465420636f6c6c656374696f6e20616464726573730000600082015250565b6000612f7d601e83612a01565b9150612f8882612f47565b602082019050919050565b60006020820190508181036000830152612fac81612f70565b9050919050565b7f4e487b7100000000000000000000000000000000000000000000000000000000600052602260045260246000fd5b60006002820490506001821680612ffa57607f821691505b60208210810361300d5761300c612fb3565b5b50919050565b60008190508160005260206000209050919050565b60006020601f8301049050919050565b600082821b905092915050565b6000600883026130757fffffffffffffffffffffffffffffffffffffffffffffffffffffffffffffffff82613038565b61307f8683613038565b95508019841693508086168417925050509392505050565b6000819050919050565b60006130bc6130b76130b2846127bc565b613097565b6127bc565b9050919050565b6000819050919050565b6130d6836130a1565b6130ea6130e2826130c3565b848454613045565b825550505050565b600090565b6130ff6130f2565b61310a8184846130cd565b505050565b5b8181101561312e576131236000826130f7565b600181019050613110565b5050565b601f8211156131735761314481613013565b61314d84613028565b8101602085101561315c578190505b61317061316885613028565b83018261310f565b50505b505050565b600082821c905092915050565b600061319660001984600802613178565b1980831691505092915050565b60006131af8383613185565b9150826002028217905092915050565b6131c8826129f6565b67ffffffffffffffff8111156131e1576131e061280d565b5b6131eb8254612fe2565b6131f6828285613132565b600060209050601f8311600181146132295760008415613217578287015190505b61322185826131a3565b865550613289565b601f19841661323786613013565b60005b8281101561325f5784890151825560018201915060208501945060208101905061323a565b8683101561327c5784890151613278601f891682613185565b8355505b6001600288020188555050505b505050505050565b7f496e697469616c697a61626c653a20636f6e747261637420697320616c72656160008201527f647920696e697469616c697a6564000000000000000000000000000000000000602082015250565b60006132ed602e83612a01565b91506132f882613291565b604082019050919050565b6000602082019050818103600083015261331c816132e0565b9050919050565b6000819050919050565b600061334861334361333e84613323565b613097565b612783565b9050919050565b6133588161332d565b82525050565b6000602082019050613373600083018461334f565b92915050565b600081905092915050565b6000815461339181612fe2565b61339b8186613379565b945060018216600081146133b657600181146133cb576133fe565b60ff19831686528115158202860193506133fe565b6133d485613013565b60005b838110156133f6578154818901526001820191506020810190506133d7565b838801955050505b50505092915050565b7f2f00000000000000000000000000000000000000000000000000000000000000600082015250565b600061343d600183613379565b915061344882613407565b600182019050919050565b600061345e826129f6565b6134688185613379565b9350613478818560208601612a12565b80840191505092915050565b7f2e6a736f6e000000000000000000000000000000000000000000000000000000600082015250565b60006134ba600583613379565b91506134c582613484565b600582019050919050565b60006134dc8286613384565b91506134e782613430565b91506134f38285613453565b91506134fe82613430565b915061350a8284613453565b9150613515826134ad565b9150819050949350505050565b7f496e697469616c697a61626c653a20636f6e7472616374206973206e6f74206960008201527f6e697469616c697a696e67000000000000000000000000000000000000000000602082015250565b600061357e602b83612a01565b915061358982613522565b604082019050919050565b600060208201905081810360008301526135ad81613571565b9050919050565b7f4e487b7100000000000000000000000000000000000000000000000000000000600052601160045260246000fd5b60006135ee826127bc565b91506135f9836127bc565b9250828202613607816127bc565b9150828204841483151761361e5761361d6135b4565b5b5092915050565b6000613630826127bc565b915061363b836127bc565b9250828201905080821115613653576136526135b4565b5b92915050565b7f4e487b7100000000000000000000000000000000000000000000000000000000600052603260045260246000fd5b6000613693826127bc565b9150600082036136a6576136a56135b4565b5b600182039050919050565b7f537472696e67733a20686578206c656e67746820696e73756666696369656e74600082015250565b60006136e7602083612a01565b91506136f2826136b1565b602082019050919050565b60006020820190508181036000830152613716816136da565b9050919050565b7f4e487b7100000000000000000000000000000000000000000000000000000000600052601260045260246000fd5b7f416363657373436f6e74726f6c3a206163636f756e7420000000000000000000600082015250565b6000613782601783613379565b915061378d8261374c565b601782019050919050565b7f206973206d697373696e6720726f6c6520000000000000000000000000000000600082015250565b60006137ce601183613379565b91506137d982613798565b601182019050919050565b60006137ef82613775565b91506137fb8285613453565b9150613806826137c1565b91506138128284613453565b9150819050939250505056fea2646970667358221220bad6aa3b6e435ad2c604887fe7fe19708247fa1ba7d5b6c97d78bf83d25abb2f64736f6c63430008120033",
  "linkReferences": {},
  "deployedLinkReferences": {}
}