{
  "contractName": "Configurations",
  "abi": [
    {
      "inputs": [
        {
          "internalType": "address",
          "name": "_nftFactory",
          "type": "address"
        },
        {
          "internalType": "address",
          "name": "_dappCreator",
          "type": "address"
        },
        {
          "internalType": "address",
          "name": "_treasury",
          "type": "address"
        }
      ],
      "stateMutability": "nonpayable",
      "type": "constructor"
    },
    {
      "anonymous": false,
      "inputs": [
        {
          "indexed": false,
          "internalType": "uint8",
          "name": "version",
          "type": "uint8"
        }
      ],
      "name": "Initialized",
      "type": "event"
    },
    {
      "anonymous": false,
      "inputs": [
        {
          "indexed": true,
          "internalType": "bytes32",
          "name": "role",
          "type": "bytes32"
        },
        {
          "indexed": true,
          "internalType": "bytes32",
          "name": "previousAdminRole",
          "type": "bytes32"
        },
        {
          "indexed": true,
          "internalType": "bytes32",
          "name": "newAdminRole",
          "type": "bytes32"
        }
      ],
      "name": "RoleAdminChanged",
      "type": "event"
    },
    {
      "anonymous": false,
      "inputs": [
        {
          "indexed": true,
          "internalType": "bytes32",
          "name": "role",
          "type": "bytes32"
        },
        {
          "indexed": true,
          "internalType": "address",
          "name": "account",
          "type": "address"
        },
        {
          "indexed": true,
          "internalType": "address",
          "name": "sender",
          "type": "address"
        }
      ],
      "name": "RoleGranted",
      "type": "event"
    },
    {
      "anonymous": false,
      "inputs": [
        {
          "indexed": true,
          "internalType": "bytes32",
          "name": "role",
          "type": "bytes32"
        },
        {
          "indexed": true,
          "internalType": "address",
          "name": "account",
          "type": "address"
        },
        {
          "indexed": true,
          "internalType": "address",
          "name": "sender",
          "type": "address"
        }
      ],
      "name": "RoleRevoked",
      "type": "event"
    },
    {
      "inputs": [],
      "name": "DAPP_CREATOR",
      "outputs": [
        {
          "internalType": "address",
          "name": "",
          "type": "address"
        }
      ],
      "stateMutability": "view",
      "type": "function",
      "constant": true
    },
    {
      "inputs": [],
      "name": "DEFAULT_ADMIN_ROLE",
      "outputs": [
        {
          "internalType": "bytes32",
          "name": "",
          "type": "bytes32"
        }
      ],
      "stateMutability": "view",
      "type": "function",
      "constant": true
    },
    {
      "inputs": [],
      "name": "INZ_TREASURY",
      "outputs": [
        {
          "internalType": "address",
          "name": "",
          "type": "address"
        }
      ],
      "stateMutability": "view",
      "type": "function",
      "constant": true
    },
    {
      "inputs": [],
      "name": "NFT_FACTORY",
      "outputs": [
        {
          "internalType": "address",
          "name": "",
          "type": "address"
        }
      ],
      "stateMutability": "view",
      "type": "function",
      "constant": true
    },
    {
      "inputs": [],
      "name": "UPGRADER_ROLE",
      "outputs": [
        {
          "internalType": "bytes32",
          "name": "",
          "type": "bytes32"
        }
      ],
      "stateMutability": "view",
      "type": "function",
      "constant": true
    },
    {
      "inputs": [
        {
          "internalType": "address",
          "name": "",
          "type": "address"
        }
      ],
      "name": "creatorCollection",
      "outputs": [
        {
          "internalType": "address",
          "name": "",
          "type": "address"
        }
      ],
      "stateMutability": "view",
      "type": "function",
      "constant": true
    },
    {
      "inputs": [
        {
          "internalType": "bytes32",
          "name": "role",
          "type": "bytes32"
        }
      ],
      "name": "getRoleAdmin",
      "outputs": [
        {
          "internalType": "bytes32",
          "name": "",
          "type": "bytes32"
        }
      ],
      "stateMutability": "view",
      "type": "function",
      "constant": true
    },
    {
      "inputs": [
        {
          "internalType": "bytes32",
          "name": "role",
          "type": "bytes32"
        },
        {
          "internalType": "address",
          "name": "account",
          "type": "address"
        }
      ],
      "name": "grantRole",
      "outputs": [],
      "stateMutability": "nonpayable",
      "type": "function"
    },
    {
      "inputs": [
        {
          "internalType": "bytes32",
          "name": "role",
          "type": "bytes32"
        },
        {
          "internalType": "address",
          "name": "account",
          "type": "address"
        }
      ],
      "name": "hasRole",
      "outputs": [
        {
          "internalType": "bool",
          "name": "",
          "type": "bool"
        }
      ],
      "stateMutability": "view",
      "type": "function",
      "constant": true
    },
    {
      "inputs": [
        {
          "internalType": "address",
          "name": "",
          "type": "address"
        },
        {
          "internalType": "uint8",
          "name": "",
          "type": "uint8"
        }
      ],
      "name": "nftTypeDetails",
      "outputs": [
        {
          "internalType": "uint8",
          "name": "nftType",
          "type": "uint8"
        },
        {
          "internalType": "uint256",
          "name": "totalSupply",
          "type": "uint256"
        },
        {
          "internalType": "uint256",
          "name": "price",
          "type": "uint256"
        }
      ],
      "stateMutability": "view",
      "type": "function",
      "constant": true
    },
    {
      "inputs": [
        {
          "internalType": "address",
          "name": "",
          "type": "address"
        }
      ],
      "name": "payTokenCollection",
      "outputs": [
        {
          "internalType": "address",
          "name": "",
          "type": "address"
        }
      ],
      "stateMutability": "view",
      "type": "function",
      "constant": true
    },
    {
      "inputs": [
        {
          "internalType": "bytes32",
          "name": "role",
          "type": "bytes32"
        },
        {
          "internalType": "address",
          "name": "account",
          "type": "address"
        }
      ],
      "name": "renounceRole",
      "outputs": [],
      "stateMutability": "nonpayable",
      "type": "function"
    },
    {
      "inputs": [
        {
          "internalType": "bytes32",
          "name": "role",
          "type": "bytes32"
        },
        {
          "internalType": "address",
          "name": "account",
          "type": "address"
        }
      ],
      "name": "revokeRole",
      "outputs": [],
      "stateMutability": "nonpayable",
      "type": "function"
    },
    {
      "inputs": [
        {
          "internalType": "bytes4",
          "name": "interfaceId",
          "type": "bytes4"
        }
      ],
      "name": "supportsInterface",
      "outputs": [
        {
          "internalType": "bool",
          "name": "",
          "type": "bool"
        }
      ],
      "stateMutability": "view",
      "type": "function",
      "constant": true
    },
    {
      "inputs": [
        {
          "internalType": "address",
          "name": "",
          "type": "address"
        }
      ],
      "name": "uriNFTs",
      "outputs": [
        {
          "internalType": "string",
          "name": "",
          "type": "string"
        }
      ],
      "stateMutability": "view",
      "type": "function",
      "constant": true
    },
    {
      "inputs": [],
      "name": "initialize",
      "outputs": [],
      "stateMutability": "nonpayable",
      "type": "function"
    },
    {
      "inputs": [
        {
          "internalType": "address",
          "name": "_nftCollection",
          "type": "address"
        }
      ],
      "name": "InsertNewCollectionAddress",
      "outputs": [],
      "stateMutability": "nonpayable",
      "type": "function"
    },
    {
      "inputs": [
        {
          "internalType": "address",
          "name": "_collectionAddress",
          "type": "address"
        },
        {
          "internalType": "uint8",
          "name": "_nftType",
          "type": "uint8"
        },
        {
          "internalType": "uint256",
          "name": "_price",
          "type": "uint256"
        },
        {
          "internalType": "uint256",
          "name": "_totalSupply",
          "type": "uint256"
        },
        {
          "internalType": "string",
          "name": "_baseMetadataUri",
          "type": "string"
        },
        {
          "internalType": "address",
          "name": "_creatorAddress",
          "type": "address"
        },
        {
          "internalType": "address",
          "name": "_payToken",
          "type": "address"
        }
      ],
      "name": "configCollection",
      "outputs": [],
      "stateMutability": "nonpayable",
      "type": "function"
    },
    {
      "inputs": [
        {
          "internalType": "address",
          "name": "_nftFactory",
          "type": "address"
        },
        {
          "internalType": "address",
          "name": "_dappCreator",
          "type": "address"
        },
        {
          "internalType": "address",
          "name": "_treasury",
          "type": "address"
        }
      ],
      "name": "updateConfigContract",
      "outputs": [],
      "stateMutability": "nonpayable",
      "type": "function"
    },
    {
      "inputs": [
        {
          "internalType": "address",
          "name": "_collectionAddress",
          "type": "address"
        }
      ],
      "name": "getCreatorCollection",
      "outputs": [
        {
          "internalType": "address",
          "name": "",
          "type": "address"
        }
      ],
      "stateMutability": "view",
      "type": "function",
      "constant": true
    },
    {
      "inputs": [
        {
          "internalType": "address",
          "name": "_collectionAddress",
          "type": "address"
        }
      ],
      "name": "getCreatorFromTreasury",
      "outputs": [
        {
          "internalType": "address",
          "name": "",
          "type": "address"
        }
      ],
      "stateMutability": "view",
      "type": "function",
      "constant": true
    },
    {
      "inputs": [
        {
          "internalType": "address",
          "name": "_collectionAddress",
          "type": "address"
        }
      ],
      "name": "getPayTokenCollection",
      "outputs": [
        {
          "internalType": "address",
          "name": "",
          "type": "address"
        }
      ],
      "stateMutability": "view",
      "type": "function",
      "constant": true
    },
    {
      "inputs": [
        {
          "internalType": "address",
          "name": "_newCreator",
          "type": "address"
        },
        {
          "internalType": "address",
          "name": "_collectionAddress",
          "type": "address"
        }
      ],
      "name": "updateCreatorCollection",
      "outputs": [],
      "stateMutability": "nonpayable",
      "type": "function"
    },
    {
      "inputs": [
        {
          "internalType": "address",
          "name": "_collectionAddress",
          "type": "address"
        },
        {
          "internalType": "address",
          "name": "_payToken",
          "type": "address"
        }
      ],
      "name": "updatePayTokenCollection",
      "outputs": [],
      "stateMutability": "nonpayable",
      "type": "function"
    },
    {
      "inputs": [
        {
          "internalType": "address",
          "name": "_collectionAddress",
          "type": "address"
        },
        {
          "internalType": "string",
          "name": "_baseMetadataUri",
          "type": "string"
        }
      ],
      "name": "configCollectionURI",
      "outputs": [],
      "stateMutability": "nonpayable",
      "type": "function"
    },
    {
      "inputs": [
        {
          "internalType": "address",
          "name": "_collectionAddress",
          "type": "address"
        },
        {
          "internalType": "uint8",
          "name": "_tokenType",
          "type": "uint8"
        }
      ],
      "name": "getNftTypeDetail",
      "outputs": [
        {
          "components": [
            {
              "internalType": "uint8",
              "name": "nftType",
              "type": "uint8"
            },
            {
              "internalType": "uint256",
              "name": "totalSupply",
              "type": "uint256"
            },
            {
              "internalType": "uint256",
              "name": "price",
              "type": "uint256"
            }
          ],
          "internalType": "struct InZNFTTypeDetail.NFTTypeDetail",
          "name": "",
          "type": "tuple"
        }
      ],
      "stateMutability": "view",
      "type": "function",
      "constant": true
    },
    {
      "inputs": [
        {
          "internalType": "address",
          "name": "_collectionAddress",
          "type": "address"
        },
        {
          "internalType": "uint256",
          "name": "_tokenId",
          "type": "uint256"
        }
      ],
      "name": "getCollectionURI",
      "outputs": [
        {
          "internalType": "string",
          "name": "",
          "type": "string"
        }
      ],
      "stateMutability": "view",
      "type": "function",
      "constant": true
    },
    {
      "inputs": [
        {
          "internalType": "address",
          "name": "_nftCollection",
          "type": "address"
        },
        {
          "internalType": "uint8",
          "name": "_nftType",
          "type": "uint8"
        }
      ],
      "name": "getCollectionPrice",
      "outputs": [
        {
          "internalType": "uint256",
          "name": "",
          "type": "uint256"
        },
        {
          "internalType": "address",
          "name": "",
          "type": "address"
        }
      ],
      "stateMutability": "view",
      "type": "function",
      "constant": true
    },
    {
      "inputs": [
        {
          "internalType": "address",
          "name": "_nftCollection",
          "type": "address"
        },
        {
          "internalType": "uint8",
          "name": "_nftType",
          "type": "uint8"
        }
      ],
      "name": "checkValidMintingAttributes",
      "outputs": [
        {
          "internalType": "bool",
          "name": "",
          "type": "bool"
        }
      ],
      "stateMutability": "view",
      "type": "function",
      "constant": true
    },
    {
      "inputs": [],
      "name": "getNftCreator",
      "outputs": [
        {
          "internalType": "address",
          "name": "",
          "type": "address"
        }
      ],
      "stateMutability": "view",
      "type": "function",
      "constant": true
    }
  ],
  "bytecode": "0x60806040523480156200001157600080fd5b5060405162001ccd38038062001ccd833981016040819052620000349162000094565b609780546001600160a01b039485166001600160a01b031991821617909155609b805493851693821693909317909255609c8054919093169116179055620000de565b80516001600160a01b03811681146200008f57600080fd5b919050565b600080600060608486031215620000aa57600080fd5b620000b58462000077565b9250620000c56020850162000077565b9150620000d56040850162000077565b90509250925092565b611bdf80620000ee6000396000f3fe608060405234801561001057600080fd5b50600436106101da5760003560e01c806391d1485411610104578063bb0345e2116100a2578063d547741f11610071578063d547741f1461052f578063d870889814610542578063f72c0d8b14610555578063fab9cdbf1461057c57600080fd5b8063bb0345e2146104a0578063c6ce91d4146104b3578063ce1d74e7146104f3578063d2787fa71461050657600080fd5b8063a217fddf116100de578063a217fddf14610449578063ad0b88cb14610451578063adb8cbee14610464578063ae7467f31461047757600080fd5b806391d1485414610410578063a0da06b514610423578063a1bf2f231461043657600080fd5b80633c88d9041161017c57806376f870511161014b57806376f87051146103085780638129fc1c1461036557806386c2b83d1461036d57806389d983ef146103a557600080fd5b80633c88d904146102b15780634fda5ef2146102c45780636ab9d624146102d75780636f1e01e6146102f757600080fd5b806328f8c046116101b857806328f8c0461461026357806329c4c28d146102765780632f2ff15d1461028957806336568abe1461029e57600080fd5b806301ffc9a7146101df5780631455737614610207578063248a9ca314610232575b600080fd5b6101f26101ed36600461148e565b61058f565b60405190151581526020015b60405180910390f35b609b5461021a906001600160a01b031681565b6040516001600160a01b0390911681526020016101fe565b6102556102403660046114b8565b60009081526065602052604090206001015490565b6040519081526020016101fe565b61021a6102713660046114e8565b6105c6565b61021a6102843660046114e8565b61065a565b61029c610297366004611503565b6106a6565b005b61029c6102ac366004611503565b6106d0565b61029c6102bf3660046115e3565b61074e565b60975461021a906001600160a01b031681565b6102ea6102e53660046114e8565b61089a565b6040516101fe919061169a565b609b546001600160a01b031661021a565b6103466103163660046116cd565b609f60209081526000928352604080842090915290825290208054600182015460029092015460ff909116919083565b6040805160ff90941684526020840192909252908201526060016101fe565b61029c610934565b61038061037b3660046116cd565b610a7a565b60408051825160ff1681526020808401519082015291810151908201526060016101fe565b6103f36103b33660046116cd565b6001600160a01b038083166000818152609f6020908152604080832060ff87168452825280832060020154938352609a9091529020549091169250929050565b604080519283526001600160a01b039091166020830152016101fe565b6101f261041e366004611503565b610af2565b6102ea6104313660046116f7565b610b1d565b61029c610444366004611721565b610b75565b610255600081565b61029c61045f366004611721565b610bf6565b61021a6104723660046114e8565b610c75565b61021a6104853660046114e8565b6099602052600090815260409020546001600160a01b031681565b61029c6104ae36600461174b565b610ca2565b6101f26104c13660046116cd565b6001600160a01b0382166000908152609f6020908152604080832060ff85168452909152902060010154151592915050565b609c5461021a906001600160a01b031681565b61021a6105143660046114e8565b609a602052600090815260409020546001600160a01b031681565b61029c61053d366004611503565b610d0b565b61029c6105503660046114e8565b610d30565b6102557f189ab7a9244df0848122154315af71fe140f3db0fe014031783b0946b8c9d2e381565b61029c61058a36600461178e565b610d65565b60006001600160e01b03198216637965db0b60e01b14806105c057506301ffc9a760e01b6001600160e01b03198316145b92915050565b609c546000906001600160a01b031633146106385760405162461bcd60e51b815260206004820152602760248201527f43616e206f6e6c792063616c6c2066726f6d20496e5a547265617375727920636044820152661bdb9d1c9858dd60ca1b60648201526084015b60405180910390fd5b506001600160a01b03808216600090815260996020526040902054165b919050565b609b546000906001600160a01b031633146106875760405162461bcd60e51b815260040161062f906117dc565b506001600160a01b039081166000908152609a60205260409020541690565b6000828152606560205260409020600101546106c181610dd8565b6106cb8383610de2565b505050565b6001600160a01b03811633146107405760405162461bcd60e51b815260206004820152602f60248201527f416363657373436f6e74726f6c3a2063616e206f6e6c792072656e6f756e636560448201526e103937b632b9903337b91039b2b63360891b606482015260840161062f565b61074a8282610e68565b5050565b6097546001600160a01b031633146107785760405162461bcd60e51b815260040161062f90611824565b610783609d88610ecf565b61079f5760405162461bcd60e51b815260040161062f90611867565b6107c66040518060600160405280600060ff16815260200160008152602001600081525090565b60ff8716815260008590036107e25760001960208201526107ea565b602081018590525b60408181018781526001600160a01b038a166000818152609f602090815284822060ff8d811684529082528583208751815460ff19169216919091178155818701516001820155935160029094019390935590815260989091522061084f8582611926565b50506001600160a01b0396871660009081526099602090815260408083208054958b166001600160a01b0319968716179055609a909152902080549190971691161790945550505050565b609860205260009081526040902080546108b39061189e565b80601f01602080910402602001604051908101604052809291908181526020018280546108df9061189e565b801561092c5780601f106109015761010080835404028352916020019161092c565b820191906000526020600020905b81548152906001019060200180831161090f57829003601f168201915b505050505081565b600054610100900460ff16158080156109545750600054600160ff909116105b8061096e5750303b15801561096e575060005460ff166001145b6109d15760405162461bcd60e51b815260206004820152602e60248201527f496e697469616c697a61626c653a20636f6e747261637420697320616c72656160448201526d191e481a5b9a5d1a585b1a5e995960921b606482015260840161062f565b6000805460ff1916600117905580156109f4576000805461ff0019166101001790555b6109fc610ef4565b610a07600033610f61565b610a317f189ab7a9244df0848122154315af71fe140f3db0fe014031783b0946b8c9d2e333610f61565b8015610a77576000805461ff0019169055604051600181527f7f26b83ff96e1f2b6a682f133852f6798a09c465da95921460cefb38474024989060200160405180910390a15b50565b610aa16040518060600160405280600060ff16815260200160008152602001600081525090565b506001600160a01b03919091166000908152609f6020908152604080832060ff9485168452825291829020825160608101845281549094168452600181015491840191909152600201549082015290565b60009182526065602090815260408084206001600160a01b0393909316845291905290205460ff1690565b6001600160a01b0382166000818152609860205260409020606091610b43906014610f6b565b610b4c84611107565b604051602001610b5e93929190611a02565b604051602081830303815290604052905092915050565b609b546001600160a01b03163314610b9f5760405162461bcd60e51b815260040161062f906117dc565b610baa609d82610ecf565b610bc65760405162461bcd60e51b815260040161062f90611867565b6001600160a01b0390811660009081526099602052604090208054919092166001600160a01b0319909116179055565b609b546001600160a01b03163314610c205760405162461bcd60e51b815260040161062f906117dc565b610c2b609d83610ecf565b610c475760405162461bcd60e51b815260040161062f90611867565b6001600160a01b039182166000908152609a6020526040902080546001600160a01b03191691909216179055565b609b546000906001600160a01b031633146106385760405162461bcd60e51b815260040161062f906117dc565b6097546001600160a01b03163314610ccc5760405162461bcd60e51b815260040161062f90611824565b609780546001600160a01b039485166001600160a01b031991821617909155609b805493851693821693909317909255609c8054919093169116179055565b600082815260656020526040902060010154610d2681610dd8565b6106cb8383610e68565b6097546001600160a01b03163314610d5a5760405162461bcd60e51b815260040161062f90611824565b61074a609d8261119a565b6097546001600160a01b03163314610d8f5760405162461bcd60e51b815260040161062f90611824565b610d9a609d83610ecf565b610db65760405162461bcd60e51b815260040161062f90611867565b6001600160a01b03821660009081526098602052604090206106cb8282611926565b610a7781336111af565b610dec8282610af2565b61074a5760008281526065602090815260408083206001600160a01b03851684529091529020805460ff19166001179055610e243390565b6001600160a01b0316816001600160a01b0316837f2f8788117e7eff1d82e926ec794901d17c78024a50270940304540a733656f0d60405160405180910390a45050565b610e728282610af2565b1561074a5760008281526065602090815260408083206001600160a01b0385168085529252808320805460ff1916905551339285917ff6391f5c32d9c69d2a47ea670b442974b53935d1edc7fd64eb21e047a839171b9190a45050565b6001600160a01b038116600090815260018301602052604081205415155b9392505050565b600054610100900460ff16610f5f5760405162461bcd60e51b815260206004820152602b60248201527f496e697469616c697a61626c653a20636f6e7472616374206973206e6f74206960448201526a6e697469616c697a696e6760a81b606482015260840161062f565b565b61074a8282610de2565b60606000610f7a836002611add565b610f85906002611af4565b67ffffffffffffffff811115610f9d57610f9d611540565b6040519080825280601f01601f191660200182016040528015610fc7576020820181803683370190505b509050600360fc1b81600081518110610fe257610fe2611b07565b60200101906001600160f81b031916908160001a905350600f60fb1b8160018151811061101157611011611b07565b60200101906001600160f81b031916908160001a9053506000611035846002611add565b611040906001611af4565b90505b60018111156110b8576f181899199a1a9b1b9c1cb0b131b232b360811b85600f166010811061107457611074611b07565b1a60f81b82828151811061108a5761108a611b07565b60200101906001600160f81b031916908160001a90535060049490941c936110b181611b1d565b9050611043565b508315610eed5760405162461bcd60e51b815260206004820181905260248201527f537472696e67733a20686578206c656e67746820696e73756666696369656e74604482015260640161062f565b6060600061111483611208565b600101905060008167ffffffffffffffff81111561113457611134611540565b6040519080825280601f01601f19166020018201604052801561115e576020820181803683370190505b5090508181016020015b600019016f181899199a1a9b1b9c1cb0b131b232b360811b600a86061a8153600a850494508461116857509392505050565b6000610eed836001600160a01b0384166112e0565b6111b98282610af2565b61074a576111c68161132f565b6111d1836020611341565b6040516020016111e2929190611b34565b60408051601f198184030181529082905262461bcd60e51b825261062f9160040161169a565b60008072184f03e93ff9f4daa797ed6e38ed64bf6a1f0160401b83106112475772184f03e93ff9f4daa797ed6e38ed64bf6a1f0160401b830492506040015b6d04ee2d6d415b85acef81000000008310611273576d04ee2d6d415b85acef8100000000830492506020015b662386f26fc10000831061129157662386f26fc10000830492506010015b6305f5e10083106112a9576305f5e100830492506008015b61271083106112bd57612710830492506004015b606483106112cf576064830492506002015b600a83106105c05760010192915050565b6000818152600183016020526040812054611327575081546001818101845560008481526020808220909301849055845484825282860190935260409020919091556105c0565b5060006105c0565b60606105c06001600160a01b03831660145b60606000611350836002611add565b61135b906002611af4565b67ffffffffffffffff81111561137357611373611540565b6040519080825280601f01601f19166020018201604052801561139d576020820181803683370190505b509050600360fc1b816000815181106113b8576113b8611b07565b60200101906001600160f81b031916908160001a905350600f60fb1b816001815181106113e7576113e7611b07565b60200101906001600160f81b031916908160001a905350600061140b846002611add565b611416906001611af4565b90505b60018111156110b8576f181899199a1a9b1b9c1cb0b131b232b360811b85600f166010811061144a5761144a611b07565b1a60f81b82828151811061146057611460611b07565b60200101906001600160f81b031916908160001a90535060049490941c9361148781611b1d565b9050611419565b6000602082840312156114a057600080fd5b81356001600160e01b031981168114610eed57600080fd5b6000602082840312156114ca57600080fd5b5035919050565b80356001600160a01b038116811461065557600080fd5b6000602082840312156114fa57600080fd5b610eed826114d1565b6000806040838503121561151657600080fd5b82359150611526602084016114d1565b90509250929050565b803560ff8116811461065557600080fd5b634e487b7160e01b600052604160045260246000fd5b600082601f83011261156757600080fd5b813567ffffffffffffffff8082111561158257611582611540565b604051601f8301601f19908116603f011681019082821181831017156115aa576115aa611540565b816040528381528660208588010111156115c357600080fd5b836020870160208301376000602085830101528094505050505092915050565b600080600080600080600060e0888a0312156115fe57600080fd5b611607886114d1565b96506116156020890161152f565b95506040880135945060608801359350608088013567ffffffffffffffff81111561163f57600080fd5b61164b8a828b01611556565b93505061165a60a089016114d1565b915061166860c089016114d1565b905092959891949750929550565b60005b83811015611691578181015183820152602001611679565b50506000910152565b60208152600082518060208401526116b9816040850160208701611676565b601f01601f19169190910160400192915050565b600080604083850312156116e057600080fd5b6116e9836114d1565b91506115266020840161152f565b6000806040838503121561170a57600080fd5b611713836114d1565b946020939093013593505050565b6000806040838503121561173457600080fd5b61173d836114d1565b9150611526602084016114d1565b60008060006060848603121561176057600080fd5b611769846114d1565b9250611777602085016114d1565b9150611785604085016114d1565b90509250925092565b600080604083850312156117a157600080fd5b6117aa836114d1565b9150602083013567ffffffffffffffff8111156117c657600080fd5b6117d285828601611556565b9150509250929050565b60208082526028908201527f43616e206f6e6c792063616c6c2066726f6d20446170702043726561746f722060408201526718dbdb9d1c9858dd60c21b606082015260800190565b60208082526023908201527f43616e206f6e6c792063616c6c2066726f6d20466163746f727920636f6e74726040820152621858dd60ea1b606082015260800190565b6020808252601e908201527f496e76616c6964204e465420636f6c6c656374696f6e20616464726573730000604082015260600190565b600181811c908216806118b257607f821691505b6020821081036118d257634e487b7160e01b600052602260045260246000fd5b50919050565b601f8211156106cb57600081815260208120601f850160051c810160208610156118ff5750805b601f850160051c820191505b8181101561191e5782815560010161190b565b505050505050565b815167ffffffffffffffff81111561194057611940611540565b6119548161194e845461189e565b846118d8565b602080601f83116001811461198957600084156119715750858301515b600019600386901b1c1916600185901b17855561191e565b600085815260208120601f198616915b828110156119b857888601518255948401946001909101908401611999565b50858210156119d65787850151600019600388901b60f8161c191681555b5050505050600190811b01905550565b600081516119f8818560208601611676565b9290920192915050565b6000808554611a108161189e565b60018281168015611a285760018114611a3d57611a6c565b60ff1984168752821515830287019450611a6c565b8960005260208060002060005b85811015611a635781548a820152908401908201611a4a565b50505082870194505b50602f60f81b845287519250611a888382860160208b01611676565b611aba611aa9611aa38386880101602f60f81b815260010190565b896119e6565b64173539b7b760d91b815260050190565b9998505050505050505050565b634e487b7160e01b600052601160045260246000fd5b80820281158282048414176105c0576105c0611ac7565b808201808211156105c0576105c0611ac7565b634e487b7160e01b600052603260045260246000fd5b600081611b2c57611b2c611ac7565b506000190190565b7f416363657373436f6e74726f6c3a206163636f756e7420000000000000000000815260008351611b6c816017850160208801611676565b7001034b99036b4b9b9b4b733903937b6329607d1b6017918401918201528351611b9d816028840160208801611676565b0160280194935050505056fea26469706673582212206dd20f993ff610338a9bd66c3c794fa6fac83345c8fb282d263c1f2d1e67b11464736f6c63430008130033",
  "immutableReferences": {},
  "source": "// SPDX-License-Identifier: MIT\npragma solidity ^0.8.10;\n\nimport \"@openzeppelin/contracts/utils/Strings.sol\";\nimport \"@openzeppelin/contracts-upgradeable/access/AccessControlUpgradeable.sol\";\nimport \"@openzeppelin/contracts/utils/structs/EnumerableSet.sol\";\n\nimport \"./libraries/InZNFTTypeDetail.sol\";\n\ncontract Configurations is AccessControlUpgradeable {\n    // Add the library methods\n    using EnumerableSet for EnumerableSet.UintSet;\n    using EnumerableSet for EnumerableSet.AddressSet;\n\n    bytes32 public constant UPGRADER_ROLE = keccak256(\"UPGRADER_ROLE\");\n\n    // NFT Factory Address\n    address public NFT_FACTORY;\n\n    // Config URI NFT\n    // NFT address => uri\n    mapping(address => string) public uriNFTs;\n\n    // NFT Collection => Creator Collection\n    mapping(address => address) public creatorCollection;\n\n    // NFT Collection  => ERC20 Token\n    mapping(address => address) public payTokenCollection;\n\n    // Dapp Creator\n    address public DAPP_CREATOR;\n\n    // Dapp Creator\n    address public INZ_TREASURY;\n\n    // List of NFT collections\n    EnumerableSet.AddressSet private nftCollectionsList;\n\n    // Detail Config of each Collection\n    mapping(address => mapping(uint8 => InZNFTTypeDetail.NFTTypeDetail))\n        public nftTypeDetails;\n\n    // modifier to check from Factory or not\n    modifier onlyFromFactory() {\n        require(\n            msg.sender == NFT_FACTORY,\n            \"Can only call from Factory contract\"\n        );\n        _;\n    }\n\n    // Modifier just accept call from dappCreator\n    modifier onlyFromDappCreator() {\n        require(\n            msg.sender == DAPP_CREATOR,\n            \"Can only call from Dapp Creator contract\"\n        );\n        _;\n    }\n\n    // Modifier just accept call from dappCreator\n    modifier onlyFromTreasury() {\n        require(\n            msg.sender == INZ_TREASURY,\n            \"Can only call from InZTreasury contract\"\n        );\n        _;\n    }\n\n    modifier onlyFromValidNftCollection() {\n        require(\n            nftCollectionsList.contains(msg.sender),\n            \"Invalid NftCollection\"\n        );\n        _;\n    }\n\n    constructor(address _nftFactory, address _dappCreator, address _treasury) {\n        NFT_FACTORY = _nftFactory;\n        DAPP_CREATOR = _dappCreator;\n        INZ_TREASURY = _treasury;\n    }\n\n    function initialize() public initializer {\n        __AccessControl_init();\n        _setupRole(DEFAULT_ADMIN_ROLE, msg.sender);\n        _setupRole(UPGRADER_ROLE, msg.sender);\n    }\n\n    /**\n     *  @notice Function allows Factory to add new deployed collection\n     */\n    function InsertNewCollectionAddress(\n        address _nftCollection\n    ) external onlyFromFactory {\n        nftCollectionsList.add(_nftCollection);\n    }\n\n    /**\n     *      Config for each nftType of NFT collection\n     */\n    function configCollection(\n        address _collectionAddress,\n        uint8 _nftType,\n        uint256 _price,\n        uint256 _totalSupply,\n        string memory _baseMetadataUri,\n        address _creatorAddress,\n        address _payToken\n    ) external onlyFromFactory {\n        require(\n            nftCollectionsList.contains(_collectionAddress),\n            \"Invalid NFT collection address\"\n        );\n        InZNFTTypeDetail.NFTTypeDetail memory _nftTypeNew;\n        _nftTypeNew.nftType = _nftType;\n        if (_totalSupply == 0) {\n            _nftTypeNew.totalSupply = 2 ** 256 - 1; // max uint256\n        } else {\n            _nftTypeNew.totalSupply = _totalSupply;\n        }\n        _nftTypeNew.price = _price;\n        nftTypeDetails[_collectionAddress][_nftType] = _nftTypeNew;\n        uriNFTs[_collectionAddress] = _baseMetadataUri;\n        creatorCollection[_collectionAddress] = _creatorAddress;\n        payTokenCollection[_collectionAddress] = _payToken;\n    }\n\n    /**\n     *      Set New Contract: Creator, Factory, Treasury\n     */\n    function updateConfigContract(\n        address _nftFactory,\n        address _dappCreator,\n        address _treasury\n    ) external onlyFromFactory {\n        NFT_FACTORY = _nftFactory;\n        DAPP_CREATOR = _dappCreator;\n        INZ_TREASURY = _treasury;\n    }\n\n    function getCreatorCollection(\n        address _collectionAddress\n    ) external view onlyFromDappCreator returns (address) {\n        return creatorCollection[_collectionAddress];\n    }\n\n    function getCreatorFromTreasury(\n        address _collectionAddress\n    ) external view onlyFromTreasury returns (address) {\n        return creatorCollection[_collectionAddress];\n    }\n\n    function getPayTokenCollection(\n        address _collectionAddress\n    ) external view onlyFromDappCreator returns (address) {\n        return payTokenCollection[_collectionAddress];\n    }\n\n    function updateCreatorCollection(\n        address _newCreator,\n        address _collectionAddress\n    ) external onlyFromDappCreator {\n        require(\n            nftCollectionsList.contains(_collectionAddress),\n            \"Invalid NFT collection address\"\n        );\n        creatorCollection[_collectionAddress] = _newCreator;\n    }\n\n    function updatePayTokenCollection(\n        address _collectionAddress,\n        address _payToken\n    ) external onlyFromDappCreator {\n        require(\n            nftCollectionsList.contains(_collectionAddress),\n            \"Invalid NFT collection address\"\n        );\n        payTokenCollection[_collectionAddress] = _payToken;\n    }\n\n    /**\n     *      Config for each tokenURI() of collection\n     */\n    function configCollectionURI(\n        address _collectionAddress,\n        string memory _baseMetadataUri\n    ) external onlyFromFactory {\n        require(\n            nftCollectionsList.contains(_collectionAddress),\n            \"Invalid NFT collection address\"\n        );\n        uriNFTs[_collectionAddress] = _baseMetadataUri;\n    }\n\n    function getNftTypeDetail(\n        address _collectionAddress,\n        uint8 _tokenType\n    ) external view returns (InZNFTTypeDetail.NFTTypeDetail memory) {\n        return nftTypeDetails[_collectionAddress][_tokenType];\n    }\n\n    /**\n     *      get tokenURI() of collection\n     */\n    function getCollectionURI(\n        address _collectionAddress,\n        uint256 _tokenId\n    ) external view returns (string memory) {\n        return\n            string(\n                abi.encodePacked(\n                    uriNFTs[_collectionAddress],\n                    \"/\",\n                    Strings.toHexString(\n                        uint256(uint160(_collectionAddress)),\n                        20\n                    ),\n                    \"/\",\n                    Strings.toString(_tokenId),\n                    \".json\"\n                )\n            );\n    }\n\n    /**\n     *  @notice Function allows Dapp Creator call to get collection price and address of payToken\n     */\n    function getCollectionPrice(\n        address _nftCollection,\n        uint8 _nftType\n    ) external view returns (uint256, address) {\n        return (\n            nftTypeDetails[_nftCollection][_nftType].price,\n            payTokenCollection[_nftCollection]\n        );\n    }\n\n    /**\n     *  @notice Function check the order attributes is valid or not in the current state of system\n     *  @dev Function used for all contract call to for validations\n     *  @param _nftCollection The address of the collection contract need to check\n     *  @param _nftType The order need to check\n     */\n    function checkValidMintingAttributes(\n        address _nftCollection,\n        uint8 _nftType\n    ) external view returns (bool) {\n        return nftTypeDetails[_nftCollection][_nftType].totalSupply != 0;\n    }\n\n    /// Getters\n    /**\n     *  @notice function allows external to get DaapNFTCreator\n     */\n    function getNftCreator() external view returns (address) {\n        return DAPP_CREATOR;\n    }\n}\n",
  "sourcePath": "/Users/huy8bit/Desktop/DRIVE/JOB/ATOM SOLUTION/TASK/inz-dapp-api/dev/inz-smc/contracts/minting/Configurations.sol",
  "compiler": {
    "name": "solc",
    "version": "0.8.19+commit.7dd6d404.Emscripten.clang"
  },
  "schemaVersion": "3.4.14",
  "updatedAt": "2023-08-28T08:29:31.943Z",
  "networkType": "ethereum",
  "devdoc": {
    "events": {
      "Initialized(uint8)": {
        "details": "Triggered when the contract has been initialized or reinitialized."
      },
      "RoleAdminChanged(bytes32,bytes32,bytes32)": {
        "details": "Emitted when `newAdminRole` is set as ``role``'s admin role, replacing `previousAdminRole` `DEFAULT_ADMIN_ROLE` is the starting admin for all roles, despite {RoleAdminChanged} not being emitted signaling this. _Available since v3.1._"
      },
      "RoleGranted(bytes32,address,address)": {
        "details": "Emitted when `account` is granted `role`. `sender` is the account that originated the contract call, an admin role bearer except when using {AccessControl-_setupRole}."
      },
      "RoleRevoked(bytes32,address,address)": {
        "details": "Emitted when `account` is revoked `role`. `sender` is the account that originated the contract call:   - if using `revokeRole`, it is the admin role bearer   - if using `renounceRole`, it is the role bearer (i.e. `account`)"
      }
    },
    "kind": "dev",
    "methods": {
      "checkValidMintingAttributes(address,uint8)": {
        "details": "Function used for all contract call to for validations",
        "params": {
          "_nftCollection": "The address of the collection contract need to check",
          "_nftType": "The order need to check"
        }
      },
      "getRoleAdmin(bytes32)": {
        "details": "Returns the admin role that controls `role`. See {grantRole} and {revokeRole}. To change a role's admin, use {_setRoleAdmin}."
      },
      "grantRole(bytes32,address)": {
        "details": "Grants `role` to `account`. If `account` had not been already granted `role`, emits a {RoleGranted} event. Requirements: - the caller must have ``role``'s admin role. May emit a {RoleGranted} event."
      },
      "hasRole(bytes32,address)": {
        "details": "Returns `true` if `account` has been granted `role`."
      },
      "renounceRole(bytes32,address)": {
        "details": "Revokes `role` from the calling account. Roles are often managed via {grantRole} and {revokeRole}: this function's purpose is to provide a mechanism for accounts to lose their privileges if they are compromised (such as when a trusted device is misplaced). If the calling account had been revoked `role`, emits a {RoleRevoked} event. Requirements: - the caller must be `account`. May emit a {RoleRevoked} event."
      },
      "revokeRole(bytes32,address)": {
        "details": "Revokes `role` from `account`. If `account` had been granted `role`, emits a {RoleRevoked} event. Requirements: - the caller must have ``role``'s admin role. May emit a {RoleRevoked} event."
      },
      "supportsInterface(bytes4)": {
        "details": "See {IERC165-supportsInterface}."
      }
    },
    "version": 1
  },
  "userdoc": {
    "kind": "user",
    "methods": {
      "InsertNewCollectionAddress(address)": {
        "notice": "Function allows Factory to add new deployed collection"
      },
      "checkValidMintingAttributes(address,uint8)": {
        "notice": "Function check the order attributes is valid or not in the current state of system"
      },
      "configCollection(address,uint8,uint256,uint256,string,address,address)": {
        "notice": "Config for each nftType of NFT collection"
      },
      "configCollectionURI(address,string)": {
        "notice": "Config for each tokenURI() of collection"
      },
      "getCollectionPrice(address,uint8)": {
        "notice": "Function allows Dapp Creator call to get collection price and address of payToken"
      },
      "getCollectionURI(address,uint256)": {
        "notice": "get tokenURI() of collection"
      },
      "getNftCreator()": {
        "notice": "function allows external to get DaapNFTCreator"
      },
      "updateConfigContract(address,address,address)": {
        "notice": "Set New Contract: Creator, Factory, Treasury"
      }
    },
    "version": 1
  }
}