{
  "contractName": "DaapNFTCreator",
  "abi": [
    {
      "inputs": [
        {
          "internalType": "address",
          "name": "_signer",
          "type": "address"
        }
      ],
      "stateMutability": "nonpayable",
      "type": "constructor"
    },
    {
      "anonymous": false,
      "inputs": [
        {
          "indexed": false,
          "internalType": "address",
          "name": "nftCollection",
          "type": "address"
        },
        {
          "indexed": false,
          "internalType": "uint256[]",
          "name": "prices",
          "type": "uint256[]"
        }
      ],
      "name": "AddNewCollection",
      "type": "event"
    },
    {
      "anonymous": false,
      "inputs": [
        {
          "indexed": false,
          "internalType": "uint8",
          "name": "version",
          "type": "uint8"
        }
      ],
      "name": "Initialized",
      "type": "event"
    },
    {
      "anonymous": false,
      "inputs": [
        {
          "indexed": false,
          "internalType": "uint8",
          "name": "nftType",
          "type": "uint8"
        },
        {
          "indexed": false,
          "internalType": "uint256",
          "name": "amount",
          "type": "uint256"
        },
        {
          "indexed": false,
          "internalType": "uint256",
          "name": "payAmount",
          "type": "uint256"
        },
        {
          "indexed": false,
          "internalType": "uint256",
          "name": "discount",
          "type": "uint256"
        },
        {
          "indexed": false,
          "internalType": "uint256",
          "name": "platformFee",
          "type": "uint256"
        },
        {
          "indexed": false,
          "internalType": "address",
          "name": "to",
          "type": "address"
        },
        {
          "indexed": false,
          "internalType": "address",
          "name": "_payToken",
          "type": "address"
        }
      ],
      "name": "MakingMintingAction",
      "type": "event"
    },
    {
      "anonymous": false,
      "inputs": [
        {
          "indexed": true,
          "internalType": "address",
          "name": "previousOwner",
          "type": "address"
        },
        {
          "indexed": true,
          "internalType": "address",
          "name": "newOwner",
          "type": "address"
        }
      ],
      "name": "OwnershipTransferred",
      "type": "event"
    },
    {
      "anonymous": false,
      "inputs": [
        {
          "indexed": false,
          "internalType": "address",
          "name": "account",
          "type": "address"
        }
      ],
      "name": "Paused",
      "type": "event"
    },
    {
      "anonymous": false,
      "inputs": [
        {
          "indexed": true,
          "internalType": "bytes32",
          "name": "role",
          "type": "bytes32"
        },
        {
          "indexed": true,
          "internalType": "bytes32",
          "name": "previousAdminRole",
          "type": "bytes32"
        },
        {
          "indexed": true,
          "internalType": "bytes32",
          "name": "newAdminRole",
          "type": "bytes32"
        }
      ],
      "name": "RoleAdminChanged",
      "type": "event"
    },
    {
      "anonymous": false,
      "inputs": [
        {
          "indexed": true,
          "internalType": "bytes32",
          "name": "role",
          "type": "bytes32"
        },
        {
          "indexed": true,
          "internalType": "address",
          "name": "account",
          "type": "address"
        },
        {
          "indexed": true,
          "internalType": "address",
          "name": "sender",
          "type": "address"
        }
      ],
      "name": "RoleGranted",
      "type": "event"
    },
    {
      "anonymous": false,
      "inputs": [
        {
          "indexed": true,
          "internalType": "bytes32",
          "name": "role",
          "type": "bytes32"
        },
        {
          "indexed": true,
          "internalType": "address",
          "name": "account",
          "type": "address"
        },
        {
          "indexed": true,
          "internalType": "address",
          "name": "sender",
          "type": "address"
        }
      ],
      "name": "RoleRevoked",
      "type": "event"
    },
    {
      "anonymous": false,
      "inputs": [
        {
          "indexed": false,
          "internalType": "address",
          "name": "oldCreator",
          "type": "address"
        },
        {
          "indexed": false,
          "internalType": "address",
          "name": "newCreator",
          "type": "address"
        },
        {
          "indexed": false,
          "internalType": "address",
          "name": "collection",
          "type": "address"
        }
      ],
      "name": "SetNewCreatorCollection",
      "type": "event"
    },
    {
      "anonymous": false,
      "inputs": [
        {
          "indexed": false,
          "internalType": "address",
          "name": "oldGatewayNFT",
          "type": "address"
        },
        {
          "indexed": false,
          "internalType": "address",
          "name": "gatewayNFT",
          "type": "address"
        }
      ],
      "name": "SetNewGateway",
      "type": "event"
    },
    {
      "anonymous": false,
      "inputs": [
        {
          "indexed": false,
          "internalType": "address",
          "name": "oldPayToken",
          "type": "address"
        },
        {
          "indexed": false,
          "internalType": "address",
          "name": "newPayToken",
          "type": "address"
        },
        {
          "indexed": false,
          "internalType": "address",
          "name": "creator",
          "type": "address"
        }
      ],
      "name": "SetNewPayToken",
      "type": "event"
    },
    {
      "anonymous": false,
      "inputs": [
        {
          "indexed": false,
          "internalType": "address",
          "name": "oldAddress",
          "type": "address"
        },
        {
          "indexed": false,
          "internalType": "address",
          "name": "newAddress",
          "type": "address"
        }
      ],
      "name": "SetNewPlatformFeeAddress",
      "type": "event"
    },
    {
      "anonymous": false,
      "inputs": [
        {
          "indexed": false,
          "internalType": "address",
          "name": "oldSigner",
          "type": "address"
        },
        {
          "indexed": false,
          "internalType": "address",
          "name": "newSigner",
          "type": "address"
        }
      ],
      "name": "SetNewSigner",
      "type": "event"
    },
    {
      "anonymous": false,
      "inputs": [
        {
          "indexed": false,
          "internalType": "address",
          "name": "oldTreasury",
          "type": "address"
        },
        {
          "indexed": false,
          "internalType": "address",
          "name": "newTreasury",
          "type": "address"
        }
      ],
      "name": "SetNewTreasury",
      "type": "event"
    },
    {
      "anonymous": false,
      "inputs": [
        {
          "indexed": false,
          "internalType": "address",
          "name": "account",
          "type": "address"
        }
      ],
      "name": "Unpaused",
      "type": "event"
    },
    {
      "anonymous": false,
      "inputs": [
        {
          "indexed": false,
          "internalType": "address",
          "name": "nftCollection",
          "type": "address"
        },
        {
          "indexed": false,
          "internalType": "uint8",
          "name": "rarity",
          "type": "uint8"
        },
        {
          "indexed": false,
          "internalType": "uint256",
          "name": "newPrice",
          "type": "uint256"
        }
      ],
      "name": "UpdatePrice",
      "type": "event"
    },
    {
      "inputs": [],
      "name": "DEFAULT_ADMIN_ROLE",
      "outputs": [
        {
          "internalType": "bytes32",
          "name": "",
          "type": "bytes32"
        }
      ],
      "stateMutability": "view",
      "type": "function",
      "constant": true
    },
    {
      "inputs": [],
      "name": "PAUSER_ROLE",
      "outputs": [
        {
          "internalType": "bytes32",
          "name": "",
          "type": "bytes32"
        }
      ],
      "stateMutability": "view",
      "type": "function",
      "constant": true
    },
    {
      "inputs": [],
      "name": "UPGRADER_ROLE",
      "outputs": [
        {
          "internalType": "bytes32",
          "name": "",
          "type": "bytes32"
        }
      ],
      "stateMutability": "view",
      "type": "function",
      "constant": true
    },
    {
      "inputs": [],
      "name": "WITHDRAW_ROLE",
      "outputs": [
        {
          "internalType": "bytes32",
          "name": "",
          "type": "bytes32"
        }
      ],
      "stateMutability": "view",
      "type": "function",
      "constant": true
    },
    {
      "inputs": [],
      "name": "gatewayNFT",
      "outputs": [
        {
          "internalType": "address",
          "name": "",
          "type": "address"
        }
      ],
      "stateMutability": "view",
      "type": "function",
      "constant": true
    },
    {
      "inputs": [
        {
          "internalType": "bytes32",
          "name": "role",
          "type": "bytes32"
        }
      ],
      "name": "getRoleAdmin",
      "outputs": [
        {
          "internalType": "bytes32",
          "name": "",
          "type": "bytes32"
        }
      ],
      "stateMutability": "view",
      "type": "function",
      "constant": true
    },
    {
      "inputs": [
        {
          "internalType": "bytes32",
          "name": "role",
          "type": "bytes32"
        },
        {
          "internalType": "address",
          "name": "account",
          "type": "address"
        }
      ],
      "name": "grantRole",
      "outputs": [],
      "stateMutability": "nonpayable",
      "type": "function"
    },
    {
      "inputs": [
        {
          "internalType": "bytes32",
          "name": "role",
          "type": "bytes32"
        },
        {
          "internalType": "address",
          "name": "account",
          "type": "address"
        }
      ],
      "name": "hasRole",
      "outputs": [
        {
          "internalType": "bool",
          "name": "",
          "type": "bool"
        }
      ],
      "stateMutability": "view",
      "type": "function",
      "constant": true
    },
    {
      "inputs": [],
      "name": "inZTreasury",
      "outputs": [
        {
          "internalType": "address",
          "name": "",
          "type": "address"
        }
      ],
      "stateMutability": "view",
      "type": "function",
      "constant": true
    },
    {
      "inputs": [],
      "name": "nftConfiguration",
      "outputs": [
        {
          "internalType": "address",
          "name": "",
          "type": "address"
        }
      ],
      "stateMutability": "view",
      "type": "function",
      "constant": true
    },
    {
      "inputs": [],
      "name": "owner",
      "outputs": [
        {
          "internalType": "address",
          "name": "",
          "type": "address"
        }
      ],
      "stateMutability": "view",
      "type": "function",
      "constant": true
    },
    {
      "inputs": [],
      "name": "paused",
      "outputs": [
        {
          "internalType": "bool",
          "name": "",
          "type": "bool"
        }
      ],
      "stateMutability": "view",
      "type": "function",
      "constant": true
    },
    {
      "inputs": [],
      "name": "platformFeeAddress",
      "outputs": [
        {
          "internalType": "address",
          "name": "",
          "type": "address"
        }
      ],
      "stateMutability": "view",
      "type": "function",
      "constant": true
    },
    {
      "inputs": [],
      "name": "renounceOwnership",
      "outputs": [],
      "stateMutability": "nonpayable",
      "type": "function"
    },
    {
      "inputs": [
        {
          "internalType": "bytes32",
          "name": "role",
          "type": "bytes32"
        },
        {
          "internalType": "address",
          "name": "account",
          "type": "address"
        }
      ],
      "name": "renounceRole",
      "outputs": [],
      "stateMutability": "nonpayable",
      "type": "function"
    },
    {
      "inputs": [
        {
          "internalType": "bytes32",
          "name": "role",
          "type": "bytes32"
        },
        {
          "internalType": "address",
          "name": "account",
          "type": "address"
        }
      ],
      "name": "revokeRole",
      "outputs": [],
      "stateMutability": "nonpayable",
      "type": "function"
    },
    {
      "inputs": [],
      "name": "signer",
      "outputs": [
        {
          "internalType": "address",
          "name": "",
          "type": "address"
        }
      ],
      "stateMutability": "view",
      "type": "function",
      "constant": true
    },
    {
      "inputs": [
        {
          "internalType": "bytes4",
          "name": "interfaceId",
          "type": "bytes4"
        }
      ],
      "name": "supportsInterface",
      "outputs": [
        {
          "internalType": "bool",
          "name": "",
          "type": "bool"
        }
      ],
      "stateMutability": "view",
      "type": "function",
      "constant": true
    },
    {
      "inputs": [
        {
          "internalType": "address",
          "name": "newOwner",
          "type": "address"
        }
      ],
      "name": "transferOwnership",
      "outputs": [],
      "stateMutability": "nonpayable",
      "type": "function"
    },
    {
      "inputs": [
        {
          "internalType": "address",
          "name": "_nftConfiguration",
          "type": "address"
        },
        {
          "internalType": "address",
          "name": "_treasury",
          "type": "address"
        },
        {
          "internalType": "address",
          "name": "_gatewayNFT",
          "type": "address"
        },
        {
          "internalType": "address",
          "name": "_plaformFeeAddress",
          "type": "address"
        }
      ],
      "name": "initialize",
      "outputs": [],
      "stateMutability": "nonpayable",
      "type": "function"
    },
    {
      "inputs": [],
      "name": "pause",
      "outputs": [],
      "stateMutability": "nonpayable",
      "type": "function"
    },
    {
      "inputs": [],
      "name": "unpause",
      "outputs": [],
      "stateMutability": "nonpayable",
      "type": "function"
    },
    {
      "inputs": [
        {
          "internalType": "address",
          "name": "_newPayToken",
          "type": "address"
        },
        {
          "internalType": "address",
          "name": "_collectionAddress",
          "type": "address"
        }
      ],
      "name": "setPayToken",
      "outputs": [],
      "stateMutability": "nonpayable",
      "type": "function"
    },
    {
      "inputs": [
        {
          "internalType": "address",
          "name": "_newCreator",
          "type": "address"
        },
        {
          "internalType": "address",
          "name": "_collectionAddress",
          "type": "address"
        }
      ],
      "name": "updateCreatorCollection",
      "outputs": [],
      "stateMutability": "nonpayable",
      "type": "function"
    },
    {
      "inputs": [
        {
          "internalType": "address",
          "name": "_newSigner",
          "type": "address"
        }
      ],
      "name": "setNewSigner",
      "outputs": [],
      "stateMutability": "nonpayable",
      "type": "function"
    },
    {
      "inputs": [
        {
          "internalType": "address",
          "name": "_treasury",
          "type": "address"
        }
      ],
      "name": "setNewTreasury",
      "outputs": [],
      "stateMutability": "nonpayable",
      "type": "function"
    },
    {
      "inputs": [
        {
          "internalType": "address",
          "name": "_gateway",
          "type": "address"
        }
      ],
      "name": "setNewGateway",
      "outputs": [],
      "stateMutability": "nonpayable",
      "type": "function"
    },
    {
      "inputs": [
        {
          "internalType": "address",
          "name": "_newPlaformFee",
          "type": "address"
        }
      ],
      "name": "setPlatformFee",
      "outputs": [],
      "stateMutability": "nonpayable",
      "type": "function"
    },
    {
      "inputs": [
        {
          "internalType": "contract ICampaignNFT",
          "name": "_nftCollection",
          "type": "address"
        },
        {
          "internalType": "uint8",
          "name": "_nftType",
          "type": "uint8"
        },
        {
          "internalType": "uint256",
          "name": "_amount",
          "type": "uint256"
        },
        {
          "internalType": "uint256",
          "name": "_discount",
          "type": "uint256"
        },
        {
          "internalType": "uint256",
          "name": "_platformFee",
          "type": "uint256"
        },
        {
          "internalType": "bool",
          "name": "_isWhitelistMint",
          "type": "bool"
        },
        {
          "components": [
            {
              "internalType": "uint8",
              "name": "v",
              "type": "uint8"
            },
            {
              "internalType": "bytes32",
              "name": "r",
              "type": "bytes32"
            },
            {
              "internalType": "bytes32",
              "name": "s",
              "type": "bytes32"
            },
            {
              "internalType": "uint256",
              "name": "deadline",
              "type": "uint256"
            }
          ],
          "internalType": "struct IDappCreator.Proof",
          "name": "_proof",
          "type": "tuple"
        },
        {
          "internalType": "string",
          "name": "_callbackData",
          "type": "string"
        },
        {
          "internalType": "address",
          "name": "_to",
          "type": "address"
        }
      ],
      "name": "makeMintingAction",
      "outputs": [],
      "stateMutability": "payable",
      "type": "function",
      "payable": true
    },
    {
      "inputs": [
        {
          "internalType": "contract ICampaignNFT",
          "name": "_nftCollection",
          "type": "address"
        },
        {
          "internalType": "uint8",
          "name": "_nftType",
          "type": "uint8"
        },
        {
          "internalType": "uint256",
          "name": "_amount",
          "type": "uint256"
        },
        {
          "internalType": "uint256",
          "name": "_platformFee",
          "type": "uint256"
        },
        {
          "internalType": "uint256",
          "name": "_discount",
          "type": "uint256"
        },
        {
          "internalType": "bool",
          "name": "_isWhitelistMint",
          "type": "bool"
        },
        {
          "components": [
            {
              "internalType": "uint8",
              "name": "v",
              "type": "uint8"
            },
            {
              "internalType": "bytes32",
              "name": "r",
              "type": "bytes32"
            },
            {
              "internalType": "bytes32",
              "name": "s",
              "type": "bytes32"
            },
            {
              "internalType": "uint256",
              "name": "deadline",
              "type": "uint256"
            }
          ],
          "internalType": "struct IDappCreator.Proof",
          "name": "_proof",
          "type": "tuple"
        },
        {
          "internalType": "string",
          "name": "_callbackData",
          "type": "string"
        },
        {
          "internalType": "address",
          "name": "_to",
          "type": "address"
        }
      ],
      "name": "mintingFromGateway",
      "outputs": [],
      "stateMutability": "payable",
      "type": "function",
      "payable": true
    }
  ],
  "bytecode": "0x608060405234801561001057600080fd5b506040516200237e3803806200237e83398101604081905261003191610056565b60fb80546001600160a01b0319166001600160a01b0392909216919091179055610086565b60006020828403121561006857600080fd5b81516001600160a01b038116811461007f57600080fd5b9392505050565b6122e880620000966000396000f3fe6080604052600436106101cd5760003560e01c806391d14854116100f7578063d547741f11610095578063ed14834f11610064578063ed14834f14610525578063f2fde38b14610545578063f72c0d8b14610565578063f8c8765e1461058757600080fd5b8063d547741f1461048f578063d6a02bab146104af578063e02023a1146104cf578063e63ab1e91461050357600080fd5b8063a1bf2f23116100d1578063a1bf2f231461041a578063a217fddf1461043a578063a4b68c721461044f578063ad6a3db21461046f57600080fd5b806391d14854146103c757806392b78767146103e75780639f487c2a146103fa57600080fd5b806336568abe1161016f578063715018a61161013e578063715018a61461035f5780638456cb59146103745780638da5cb5b146103895780638f9a372d146103a757600080fd5b806336568abe146102f25780633f4ba83a146103125780634587a610146103275780635c975abb1461034757600080fd5b80630f9c5d9e116101ab5780630f9c5d9e14610254578063238ac93314610274578063248a9ca3146102945780632f2ff15d146102d257600080fd5b806301ffc9a7146101d25780630750349f1461020757806307ae52f91461021c575b600080fd5b3480156101de57600080fd5b506101f26101ed366004611cff565b6105a7565b60405190151581526020015b60405180910390f35b61021a610215366004611e39565b6105de565b005b34801561022857600080fd5b5060fe5461023c906001600160a01b031681565b6040516001600160a01b0390911681526020016101fe565b34801561026057600080fd5b5061021a61026f366004611f2a565b610694565b34801561028057600080fd5b5060fb5461023c906001600160a01b031681565b3480156102a057600080fd5b506102c46102af366004611f47565b60009081526065602052604090206001015490565b6040519081526020016101fe565b3480156102de57600080fd5b5061021a6102ed366004611f60565b61070f565b3480156102fe57600080fd5b5061021a61030d366004611f60565b610739565b34801561031e57600080fd5b5061021a6107b7565b34801561033357600080fd5b5060fc5461023c906001600160a01b031681565b34801561035357600080fd5b5060975460ff166101f2565b34801561036b57600080fd5b5061021a6107da565b34801561038057600080fd5b5061021a6107ee565b34801561039557600080fd5b5060c9546001600160a01b031661023c565b3480156103b357600080fd5b5061021a6103c2366004611f2a565b61080e565b3480156103d357600080fd5b506101f26103e2366004611f60565b610880565b61021a6103f5366004611e39565b6108ab565b34801561040657600080fd5b5061021a610415366004611f90565b610916565b34801561042657600080fd5b5061021a610435366004611f90565b610b7a565b34801561044657600080fd5b506102c4600081565b34801561045b57600080fd5b5061021a61046a366004611f2a565b610d67565b34801561047b57600080fd5b5061021a61048a366004611f2a565b610dd9565b34801561049b57600080fd5b5061021a6104aa366004611f60565b610ebb565b3480156104bb57600080fd5b5060fd5461023c906001600160a01b031681565b3480156104db57600080fd5b506102c47f5d8e12c39142ff96d79d04d15d1ba1269e4fe57bb9d26f43523628b34ba108ec81565b34801561050f57600080fd5b506102c460008051602061229383398151915281565b34801561053157600080fd5b5060ff5461023c906001600160a01b031681565b34801561055157600080fd5b5061021a610560366004611f2a565b610ee0565b34801561057157600080fd5b506102c460008051602061227383398151915281565b34801561059357600080fd5b5061021a6105a2366004611fbe565b610f56565b60006001600160e01b03198216637965db0b60e01b14806105d857506301ffc9a760e01b6001600160e01b03198316145b92915050565b333b156106295760405162461bcd60e51b815260206004820152601460248201527310dbdb9d1c9858dd081b9bdd08185b1b1bddd95960621b60448201526064015b60405180910390fd5b3332146106785760405162461bcd60e51b815260206004820152601a60248201527f50726f787920636f6e7472616374206e6f7420616c6c6f7765640000000000006044820152606401610620565b610689898989898989898989611122565b505050505050505050565b6000805160206122738339815191526106ac8161165c565b60fb80546001600160a01b038481166001600160a01b031983168117909355604080519190921680825260208201939093527f2d9138ac99bbbec57529e6d022f34460f90372c0ed9da7aa4177ad1c41ac140291015b60405180910390a1505050565b60008281526065602052604090206001015461072a8161165c565b6107348383611666565b505050565b6001600160a01b03811633146107a95760405162461bcd60e51b815260206004820152602f60248201527f416363657373436f6e74726f6c3a2063616e206f6e6c792072656e6f756e636560448201526e103937b632b9903337b91039b2b63360891b6064820152608401610620565b6107b382826116ec565b5050565b6000805160206122938339815191526107cf8161165c565b6107d7611753565b50565b6107e26117a5565b6107ec60006117ff565b565b6000805160206122938339815191526108068161165c565b6107d7611851565b6000805160206122738339815191526108268161165c565b60fd80546001600160a01b038481166001600160a01b031983168117909355604080519190921680825260208201939093527f2e6f85eaa6794d56f2c54cb27779b977c2e25d062158139dfc565e82467be8e39101610702565b60009182526065602090815260408084206001600160a01b0393909316845291905290205460ff1690565b60fe546001600160a01b031633146109055760405162461bcd60e51b815260206004820152601a60248201527f50726f787920636f6e7472616374206e6f7420616c6c6f7765640000000000006044820152606401610620565b610689898989888a89898989611122565b60fc546040516356dc65f760e11b81526001600160a01b0380841660048301528392329291169063adb8cbee90602401602060405180830381865afa158015610963573d6000803e3d6000fd5b505050506040513d601f19601f82011682018060405250810190610987919061201a565b6001600160a01b03161480610a12575060fc546040516356dc65f760e11b81526001600160a01b038381166004830152600092169063adb8cbee90602401602060405180830381865afa1580156109e2573d6000803e3d6000fd5b505050506040513d601f19601f82011682018060405250810190610a06919061201a565b6001600160a01b031614155b610a525760405162461bcd60e51b81526020600482015260116024820152701c195c9b5a5cdcda5bdb8819195b9a5959607a1b6044820152606401610620565b60fc546040516329c4c28d60e01b81526001600160a01b03848116600483015260009216906329c4c28d90602401602060405180830381865afa158015610a9d573d6000803e3d6000fd5b505050506040513d601f19601f82011682018060405250810190610ac1919061201a565b60fc5460405163ad0b88cb60e01b81526001600160a01b038681166004830152878116602483015292935091169063ad0b88cb90604401600060405180830381600087803b158015610b1257600080fd5b505af1158015610b26573d6000803e3d6000fd5b5050604080516001600160a01b03858116825288166020820152338183015290517f8998983b686885812d788558d18158ad753491fb4564e1c7e438c2f282718c6e9350908190036060019150a150505050565b60fc546040516356dc65f760e11b81526001600160a01b0380841660048301528392329291169063adb8cbee90602401602060405180830381865afa158015610bc7573d6000803e3d6000fd5b505050506040513d601f19601f82011682018060405250810190610beb919061201a565b6001600160a01b03161480610c76575060fc546040516356dc65f760e11b81526001600160a01b038381166004830152600092169063adb8cbee90602401602060405180830381865afa158015610c46573d6000803e3d6000fd5b505050506040513d601f19601f82011682018060405250810190610c6a919061201a565b6001600160a01b031614155b610cb65760405162461bcd60e51b81526020600482015260116024820152701c195c9b5a5cdcda5bdb8819195b9a5959607a1b6044820152606401610620565b60fc5460405163a1bf2f2360e01b81526001600160a01b03858116600483015284811660248301529091169063a1bf2f2390604401600060405180830381600087803b158015610d0557600080fd5b505af1158015610d19573d6000803e3d6000fd5b5050604080513381526001600160a01b0380881660208301528616918101919091527e24dcab3a6d2482720bdf14d73cd10fe70744150d98c3a6a5bce451cb046a9292506060019050610702565b600080516020612273833981519152610d7f8161165c565b60fe80546001600160a01b038481166001600160a01b031983168117909355604080519190921680825260208201939093527f7dd3ad73fe909f559cc651212340a0979c92b4cb9d72b304a1d39b3e9253564e9101610702565b600080516020612273833981519152610df18161165c565b60ff546001600160a01b03808416911603610e615760405162461bcd60e51b815260206004820152602a60248201527f4e657720506c6174666f726d204665652041646472657373206d75737420626560448201526908191a5999995c995b9d60b21b6064820152608401610620565b60ff80546001600160a01b038481166001600160a01b031983168117909355604080519190921680825260208201939093527ff23c9e33caae5bd67f15268ce107eca5d2763da50d36ec0dded11403ab03109c9101610702565b600082815260656020526040902060010154610ed68161165c565b61073483836116ec565b610ee86117a5565b6001600160a01b038116610f4d5760405162461bcd60e51b815260206004820152602660248201527f4f776e61626c653a206e6577206f776e657220697320746865207a65726f206160448201526564647265737360d01b6064820152608401610620565b6107d7816117ff565b600054610100900460ff1615808015610f765750600054600160ff909116105b80610f905750303b158015610f90575060005460ff166001145b610ff35760405162461bcd60e51b815260206004820152602e60248201527f496e697469616c697a61626c653a20636f6e747261637420697320616c72656160448201526d191e481a5b9a5d1a585b1a5e995960921b6064820152608401610620565b6000805460ff191660011790558015611016576000805461ff0019166101001790555b61101e61188e565b6110266118b5565b6110316000336118e4565b611049600080516020612293833981519152336118e4565b611061600080516020612273833981519152336118e4565b61108b7f5d8e12c39142ff96d79d04d15d1ba1269e4fe57bb9d26f43523628b34ba108ec336118e4565b60fc80546001600160a01b038088166001600160a01b03199283161790925560fd805487841690831617905560fe805486841690831617905560ff805492851692909116919091179055801561111b576000805461ff0019169055604051600181527f7f26b83ff96e1f2b6a682f133852f6798a09c465da95921460cefb38474024989060200160405180910390a15b5050505050565b600087116111885760405162461bcd60e51b815260206004820152602d60248201527f416d6f756e74206f66206d696e74696e67204e465473206d757374206265206760448201526c0726561746572207468616e203609c1b6064820152608401610620565b60fc546040516331b3a47560e21b81526001600160a01b038b8116600483015260ff8b1660248301529091169063c6ce91d490604401602060405180830381865afa1580156111db573d6000803e3d6000fd5b505050506040513d601f19601f820116820180604052508101906111ff9190612037565b61123e5760405162461bcd60e51b815260206004820152601060248201526f496e76616c6964204e4654205479706560801b6044820152606401610620565b60fb5461125a906001600160a01b03168a88878c8c8b8a6118ee565b61129a5760405162461bcd60e51b8152602060048201526011602482015270496e76616c6964205369676e617475726560781b6044820152606401610620565b843410156112ea5760405162461bcd60e51b815260206004820152601760248201527f4e6f7420656e6f75676820706c6174666f726d206665650000000000000000006044820152606401610620565b60ff546040516001600160a01b039091169086156108fc029087906000818181858888f19350505050158015611324573d6000803e3d6000fd5b5060fc546040516389d983ef60e01b81526001600160a01b038b8116600483015260ff8b16602483015260009283929116906389d983ef906044016040805180830381865afa15801561137b573d6000803e3d6000fd5b505050506040513d601f19601f8201168201806040525081019061139f9190612054565b90925090508115611581576113b4898361208f565b91506113c088836120a6565b6040516370a0823160e01b815233600482015290925082906001600160a01b038316906370a0823190602401602060405180830381865afa158015611409573d6000803e3d6000fd5b505050506040513d601f19601f8201168201806040525081019061142d91906120b9565b116114945760405162461bcd60e51b815260206004820152603160248201527f55736572206e6565647320746f20686f6c6420656e6f75676820746f6b656e206044820152703a3790313abc903a3434b9903a37b5b2b760791b6064820152608401610620565b60fd546040516323b872dd60e01b81523360048201526001600160a01b03918216602482015260448101849052908216906323b872dd906064016020604051808303816000875af11580156114ed573d6000803e3d6000fd5b505050506040513d601f19601f820116820180604052508101906115119190612037565b5060fd546040516371c4d52f60e01b81526001600160a01b038d81166004830152838116602483015260448201859052909116906371c4d52f90606401600060405180830381600087803b15801561156857600080fd5b505af115801561157c573d6000803e3d6000fd5b505050505b6040516392c0f3d760e01b81526001600160a01b038c16906392c0f3d7906115b3908c908e9088908a90600401612122565b600060405180830381600087803b1580156115cd57600080fd5b505af11580156115e1573d6000803e3d6000fd5b50506040805160ff8e168152602081018d9052908101859052606081018b9052608081018a90526001600160a01b0380871660a0830152841660c08201527f357f2d2db1e4baf673c1b8a8708e49f9a32e5b6f62441bff52d2a8763f385e00925060e001905060405180910390a15050505050505050505050565b6107d78133611a2f565b6116708282610880565b6107b35760008281526065602090815260408083206001600160a01b03851684529091529020805460ff191660011790556116a83390565b6001600160a01b0316816001600160a01b0316837f2f8788117e7eff1d82e926ec794901d17c78024a50270940304540a733656f0d60405160405180910390a45050565b6116f68282610880565b156107b35760008281526065602090815260408083206001600160a01b0385168085529252808320805460ff1916905551339285917ff6391f5c32d9c69d2a47ea670b442974b53935d1edc7fd64eb21e047a839171b9190a45050565b61175b611a88565b6097805460ff191690557f5db9ee0a495bf2e6ff9c91a7834c1ba4fdd244a5e8aa4e537bd38aeae4b073aa335b6040516001600160a01b03909116815260200160405180910390a1565b60c9546001600160a01b031633146107ec5760405162461bcd60e51b815260206004820181905260248201527f4f776e61626c653a2063616c6c6572206973206e6f7420746865206f776e65726044820152606401610620565b60c980546001600160a01b038381166001600160a01b0319831681179093556040519116919082907f8be0079c531659141344cd1fd0a4f28419497f9722a3daafe3b4186f6b6457e090600090a35050565b611859611ad1565b6097805460ff191660011790557f62e78cea01bee320cd4e420270b5ea74000d11b0c9f74754ebdbfc544b05a2586117883390565b600054610100900460ff166107ec5760405162461bcd60e51b81526004016106209061215f565b600054610100900460ff166118dc5760405162461bcd60e51b81526004016106209061215f565b6107ec611b17565b6107b38282611666565b60006001600160a01b03891661190657506001611a23565b600046606080850151604080516020810194909452329084015230918301919091526001600160a01b038b16608083015260a082018a905288151560c083015260ff881660e083015261010082018790526101208201869052610140820152610160016040516020818303038152906040528051906020012090506000600182856000015186602001518760400151604051600081526020016040526040516119cb949392919093845260ff9290921660208401526040830152606082015260800190565b6020604051602081039080840390855afa1580156119ed573d6000803e3d6000fd5b5050506020604051035190508a6001600160a01b0316816001600160a01b0316148015611a1e575042846060015110155b925050505b98975050505050505050565b611a398282610880565b6107b357611a4681611b4a565b611a51836020611b5c565b604051602001611a629291906121aa565b60408051601f198184030181529082905262461bcd60e51b82526106209160040161221f565b60975460ff166107ec5760405162461bcd60e51b815260206004820152601460248201527314185d5cd8589b194e881b9bdd081c185d5cd95960621b6044820152606401610620565b60975460ff16156107ec5760405162461bcd60e51b815260206004820152601060248201526f14185d5cd8589b194e881c185d5cd95960821b6044820152606401610620565b600054610100900460ff16611b3e5760405162461bcd60e51b81526004016106209061215f565b6097805460ff19169055565b60606105d86001600160a01b03831660145b60606000611b6b83600261208f565b611b76906002612232565b67ffffffffffffffff811115611b8e57611b8e611d62565b6040519080825280601f01601f191660200182016040528015611bb8576020820181803683370190505b509050600360fc1b81600081518110611bd357611bd3612245565b60200101906001600160f81b031916908160001a905350600f60fb1b81600181518110611c0257611c02612245565b60200101906001600160f81b031916908160001a9053506000611c2684600261208f565b611c31906001612232565b90505b6001811115611ca9576f181899199a1a9b1b9c1cb0b131b232b360811b85600f1660108110611c6557611c65612245565b1a60f81b828281518110611c7b57611c7b612245565b60200101906001600160f81b031916908160001a90535060049490941c93611ca28161225b565b9050611c34565b508315611cf85760405162461bcd60e51b815260206004820181905260248201527f537472696e67733a20686578206c656e67746820696e73756666696369656e746044820152606401610620565b9392505050565b600060208284031215611d1157600080fd5b81356001600160e01b031981168114611cf857600080fd5b6001600160a01b03811681146107d757600080fd5b803560ff81168114611d4f57600080fd5b919050565b80151581146107d757600080fd5b634e487b7160e01b600052604160045260246000fd5b6040516080810167ffffffffffffffff81118282101715611d9b57611d9b611d62565b60405290565b600082601f830112611db257600080fd5b813567ffffffffffffffff80821115611dcd57611dcd611d62565b604051601f8301601f19908116603f01168101908282118183101715611df557611df5611d62565b81604052838152866020858801011115611e0e57600080fd5b836020870160208301376000602085830101528094505050505092915050565b8035611d4f81611d29565b6000806000806000806000806000898b03610180811215611e5957600080fd5b8a35611e6481611d29565b9950611e7260208c01611d3e565b985060408b0135975060608b0135965060808b0135955060a08b0135611e9781611d54565b9450608060bf1982011215611eab57600080fd5b50611eb4611d78565b611ec060c08c01611d3e565b815260e08b013560208201526101008b013560408201526101208b0135606082015292506101408a013567ffffffffffffffff811115611eff57600080fd5b611f0b8c828d01611da1565b925050611f1b6101608b01611e2e565b90509295985092959850929598565b600060208284031215611f3c57600080fd5b8135611cf881611d29565b600060208284031215611f5957600080fd5b5035919050565b60008060408385031215611f7357600080fd5b823591506020830135611f8581611d29565b809150509250929050565b60008060408385031215611fa357600080fd5b8235611fae81611d29565b91506020830135611f8581611d29565b60008060008060808587031215611fd457600080fd5b8435611fdf81611d29565b93506020850135611fef81611d29565b92506040850135611fff81611d29565b9150606085013561200f81611d29565b939692955090935050565b60006020828403121561202c57600080fd5b8151611cf881611d29565b60006020828403121561204957600080fd5b8151611cf881611d54565b6000806040838503121561206757600080fd5b825191506020830151611f8581611d29565b634e487b7160e01b600052601160045260246000fd5b80820281158282048414176105d8576105d8612079565b818103818111156105d8576105d8612079565b6000602082840312156120cb57600080fd5b5051919050565b60005b838110156120ed5781810151838201526020016120d5565b50506000910152565b6000815180845261210e8160208601602086016120d2565b601f01601f19169290920160200192915050565b84815260ff841660208201526001600160a01b0383166040820152608060608201819052600090612155908301846120f6565b9695505050505050565b6020808252602b908201527f496e697469616c697a61626c653a20636f6e7472616374206973206e6f74206960408201526a6e697469616c697a696e6760a81b606082015260800190565b7f416363657373436f6e74726f6c3a206163636f756e74200000000000000000008152600083516121e28160178501602088016120d2565b7001034b99036b4b9b9b4b733903937b6329607d1b60179184019182015283516122138160288401602088016120d2565b01602801949350505050565b602081526000611cf860208301846120f6565b808201808211156105d8576105d8612079565b634e487b7160e01b600052603260045260246000fd5b60008161226a5761226a612079565b50600019019056fe189ab7a9244df0848122154315af71fe140f3db0fe014031783b0946b8c9d2e365d7a28e3265b37a6474929f336521b332c1681b933f6cb9f3376673440d862aa264697066735822122019c4a0dd275530124b47dc57dd48e3f8ef3f3559272704aec26c09b927e3f75264736f6c63430008130033",
  "immutableReferences": {},
  "source": "// SPDX-License-Identifier: MIT\npragma solidity ^0.8.2;\n\nimport \"@openzeppelin/contracts-upgradeable/access/AccessControlUpgradeable.sol\";\nimport \"@openzeppelin/contracts-upgradeable/security/PausableUpgradeable.sol\";\nimport \"@openzeppelin/contracts-upgradeable/access/OwnableUpgradeable.sol\";\nimport \"@openzeppelin/contracts/token/ERC20/IERC20.sol\";\nimport \"@openzeppelin/contracts/token/ERC20/utils/SafeERC20.sol\";\nimport \"./interfaces/ICampaignNFT.sol\";\nimport \"./interfaces/IConfiguration.sol\";\nimport \"./interfaces/ITreasury.sol\";\nimport \"./interfaces/IDappCreator.sol\";\n\ncontract DaapNFTCreator is\n    AccessControlUpgradeable,\n    PausableUpgradeable,\n    OwnableUpgradeable\n    // IDappCreator\n{\n    using SafeERC20 for IERC20;\n\n    /**\n     *      @dev Define variables in contract\n     */\n    bytes32 public constant PAUSER_ROLE = keccak256(\"PAUSER_ROLE\");\n    bytes32 public constant UPGRADER_ROLE = keccak256(\"UPGRADER_ROLE\");\n    bytes32 public constant WITHDRAW_ROLE = keccak256(\"WITHDRAW_ROLE\");\n\n    // Signer for mint with signature\n    address public signer;\n\n    // Configurations address\n    address public nftConfiguration;\n\n    // InZTreasury;\n    address public inZTreasury;\n\n    // GatewayNFT\n    address public gatewayNFT;\n\n    // Platform Fee Wallet\n    address public platformFeeAddress;\n\n    /**\n     *      @dev Define events that contract will emit\n     */\n    event SetNewSigner(address oldSigner, address newSigner);\n    event SetNewTreasury(address oldTreasury, address newTreasury);\n    event SetNewGateway(address oldGatewayNFT, address gatewayNFT);\n    event UpdatePrice(address nftCollection, uint8 rarity, uint256 newPrice);\n    event MakingMintingAction(\n        uint8 nftType,\n        uint256 amount,\n        uint256 payAmount,\n        uint256 discount,\n        uint256 platformFee,\n        address to,\n        address _payToken\n    );\n    event SetNewPayToken(\n        address oldPayToken,\n        address newPayToken,\n        address creator\n    );\n    event SetNewCreatorCollection(\n        address oldCreator,\n        address newCreator,\n        address collection\n    );\n    event AddNewCollection(address nftCollection, uint256[] prices);\n    event SetNewPlatformFeeAddress(address oldAddress, address newAddress);\n\n    /**\n     *      @dev Modifiers using in contract\n     */\n    modifier notContract() {\n        require(!_isContract(msg.sender), \"Contract not allowed\");\n        require(msg.sender == tx.origin, \"Proxy contract not allowed\");\n        _;\n    }\n\n    /**\n     *      @dev Modifiers verify msg.sender is Creator\n     */\n    modifier notCreator(address _collectionAddress) {\n        require(\n            IConfiguration(nftConfiguration).getCreatorCollection(\n                _collectionAddress\n            ) ==\n                tx.origin ||\n                IConfiguration(nftConfiguration).getCreatorCollection(\n                    _collectionAddress\n                ) !=\n                address(0),\n            \"permission denied\"\n        );\n        _;\n    }\n\n    /**\n     *      @dev Modifiers veryfy wallet call is contract GatewayNFT\n     */\n    modifier notGatewayNFT() {\n        require(msg.sender == gatewayNFT, \"Proxy contract not allowed\");\n        _;\n    }\n\n    /**\n     *      @dev Contructor\n     */\n    constructor(address _signer) {\n        signer = _signer;\n    }\n\n    /**\n     *      @dev Initialize function\n     */\n    function initialize(\n        address _nftConfiguration,\n        address _treasury,\n        address _gatewayNFT,\n        address _plaformFeeAddress\n    ) public initializer {\n        __AccessControl_init();\n        __Pausable_init();\n\n        _setupRole(DEFAULT_ADMIN_ROLE, msg.sender);\n        _setupRole(PAUSER_ROLE, msg.sender);\n        _setupRole(UPGRADER_ROLE, msg.sender);\n        _setupRole(WITHDRAW_ROLE, msg.sender);\n        nftConfiguration = _nftConfiguration;\n        inZTreasury = _treasury;\n        gatewayNFT = _gatewayNFT;\n        platformFeeAddress = _plaformFeeAddress;\n    }\n\n    function pause() public onlyRole(PAUSER_ROLE) {\n        _pause();\n    }\n\n    function unpause() public onlyRole(PAUSER_ROLE) {\n        _unpause();\n    }\n\n    /**\n     *  @notice Function allows Creator Collection to set new PayToken\n     */\n    function setPayToken(\n        address _newPayToken,\n        address _collectionAddress\n    ) external notCreator(_collectionAddress) {\n        address _oldPayToken = IConfiguration(nftConfiguration)\n            .getPayTokenCollection(_collectionAddress);\n        IConfiguration(nftConfiguration).updatePayTokenCollection(\n            _collectionAddress,\n            _newPayToken\n        );\n        emit SetNewPayToken(_oldPayToken, _newPayToken, msg.sender);\n    }\n\n    /**\n     *  @notice Function allows Creator Collection to set new Creator\n     */\n    function updateCreatorCollection(\n        address _newCreator,\n        address _collectionAddress\n    ) external notCreator(_collectionAddress) {\n        IConfiguration(nftConfiguration).updateCreatorCollection(\n            _newCreator,\n            _collectionAddress\n        );\n        emit SetNewCreatorCollection(\n            msg.sender,\n            _newCreator,\n            _collectionAddress\n        );\n    }\n\n    /**\n     *  @notice Set new signer who confirm a call from daap\n     */\n    function setNewSigner(address _newSigner) external onlyRole(UPGRADER_ROLE) {\n        address oldSigner = signer;\n        signer = _newSigner;\n        emit SetNewSigner(oldSigner, _newSigner);\n    }\n\n    /**\n     *  @notice Set new treasury\n     */\n    function setNewTreasury(\n        address _treasury\n    ) external onlyRole(UPGRADER_ROLE) {\n        address oldInZTreasury = inZTreasury;\n        inZTreasury = _treasury;\n        emit SetNewTreasury(oldInZTreasury, _treasury);\n    }\n\n    /**\n     *  @notice Set new GatwayNFT\n     */\n    function setNewGateway(address _gateway) external onlyRole(UPGRADER_ROLE) {\n        address oldGatewayNFT = gatewayNFT;\n        gatewayNFT = _gateway;\n        emit SetNewGateway(oldGatewayNFT, gatewayNFT);\n    }\n\n    /**\n     *  @notice Reset the platform fee wallet\n     */\n    function setPlatformFee(\n        address _newPlaformFee\n    ) external onlyRole(UPGRADER_ROLE) {\n        require(\n            platformFeeAddress != _newPlaformFee,\n            \"New Platform Fee Address must be different\"\n        );\n        address oldAddress = platformFeeAddress;\n        platformFeeAddress = _newPlaformFee;\n        emit SetNewPlatformFeeAddress(oldAddress, _newPlaformFee);\n    }\n\n    /**\n     *  @notice Function return chainID of current implemented chain\n     */\n    function getChainID() private view returns (uint256) {\n        uint256 id;\n        assembly {\n            id := chainid()\n        }\n        return id;\n    }\n\n    /**\n     *      @notice Function verify signature from daap sent out\n     */\n    function verifySignature(\n        address _signer,\n        address _nftCollection,\n        uint256 _discount,\n        bool _isWhitelistMint,\n        uint8 _nftType,\n        uint256 _amount,\n        uint256 _platformFee,\n        IDappCreator.Proof memory _proof\n    ) private view returns (bool) {\n        if (_signer == address(0x0)) {\n            return true;\n        }\n        bytes32 digest = keccak256(\n            abi.encode(\n                getChainID(),\n                tx.origin,\n                address(this),\n                _nftCollection,\n                _discount,\n                _isWhitelistMint,\n                _nftType,\n                _amount,\n                _platformFee,\n                _proof.deadline\n            )\n        );\n        address signatory = ecrecover(digest, _proof.v, _proof.r, _proof.s);\n        return signatory == _signer && _proof.deadline >= block.timestamp;\n    }\n\n    /**\n     *  @notice Function allow call external from daap to make miting action\n     *\n     */\n    function makeMintingAction(\n        ICampaignNFT _nftCollection,\n        uint8 _nftType,\n        uint256 _amount,\n        uint256 _discount,\n        uint256 _platformFee,\n        bool _isWhitelistMint,\n        IDappCreator.Proof memory _proof,\n        string memory _callbackData,\n        address _to\n    ) external payable notContract {\n        verifyAndMint(\n            _nftCollection,\n            _nftType,\n            _amount,\n            _discount,\n            _platformFee,\n            _isWhitelistMint,\n            _proof,\n            _callbackData,\n            _to\n        );\n    }\n\n    /**\n     *  @notice Function allow call external from GatewayNFT to make miting action\n     *\n     */\n    function mintingFromGateway(\n        ICampaignNFT _nftCollection,\n        uint8 _nftType,\n        uint256 _amount,\n        uint256 _platformFee,\n        uint256 _discount,\n        bool _isWhitelistMint,\n        IDappCreator.Proof memory _proof,\n        string memory _callbackData,\n        address _to\n    ) external payable notGatewayNFT {\n        verifyAndMint(\n            _nftCollection,\n            _nftType,\n            _amount,\n            _discount,\n            _platformFee,\n            _isWhitelistMint,\n            _proof,\n            _callbackData,\n            _to\n        );\n    }\n\n    function verifyAndMint(\n        ICampaignNFT _nftCollection,\n        uint8 _nftType,\n        uint256 _amount,\n        uint256 _discount,\n        uint256 _platformFee,\n        bool _isWhitelistMint,\n        IDappCreator.Proof memory _proof,\n        string memory _callbackData,\n        address _to\n    ) internal {\n        require(_amount > 0, \"Amount of minting NFTs must be greater than 0\");\n        require(\n            IConfiguration(nftConfiguration).checkValidMintingAttributes(\n                address(_nftCollection),\n                _nftType\n            ),\n            \"Invalid NFT Type\"\n        );\n        require(\n            verifySignature(\n                signer,\n                address(_nftCollection),\n                _discount,\n                _isWhitelistMint,\n                _nftType,\n                _amount,\n                _platformFee,\n                _proof\n            ),\n            \"Invalid Signature\"\n        );\n        require(msg.value >= _platformFee, \"Not enough platform fee\");\n        payable(platformFeeAddress).transfer(_platformFee);\n        (uint256 _amountPrice, address _payToken) = IConfiguration(\n            nftConfiguration\n        ).getCollectionPrice(address(_nftCollection), _nftType);\n        if (_amountPrice > 0) {\n            _amountPrice = _amountPrice * _amount;\n            _amountPrice = _amountPrice - _discount;\n            require(\n                IERC20(_payToken).balanceOf(msg.sender) > _amountPrice,\n                \"User needs to hold enough token to buy this token\"\n            );\n            IERC20(_payToken).transferFrom(\n                msg.sender,\n                inZTreasury,\n                _amountPrice\n            );\n            ITreasury(inZTreasury).updateBalanceCollection(\n                address(_nftCollection),\n                _payToken,\n                _amountPrice\n            );\n        }\n        _nftCollection.mint(_amount, _nftType, _to, _callbackData);\n        emit MakingMintingAction(\n            _nftType,\n            _amount,\n            _amountPrice,\n            _discount,\n            _platformFee,\n            _to,\n            _payToken\n        );\n    }\n\n    /**\n     * @notice Checks if address is a contract\n     * @dev It prevents contract from being targetted\n     */\n    function _isContract(address addr) internal view returns (bool) {\n        uint256 size;\n        assembly {\n            size := extcodesize(addr)\n        }\n        return size > 0;\n    }\n}\n",
  "sourcePath": "/Users/huy8bit/Desktop/DRIVE/JOB/ATOM SOLUTION/TASK/inz-dapp-api/dev/inz-smc/contracts/minting/Creator.sol",
  "compiler": {
    "name": "solc",
    "version": "0.8.19+commit.7dd6d404.Emscripten.clang"
  },
  "schemaVersion": "3.4.14",
  "updatedAt": "2023-08-28T08:29:31.956Z",
  "networkType": "ethereum",
  "devdoc": {
    "events": {
      "Initialized(uint8)": {
        "details": "Triggered when the contract has been initialized or reinitialized."
      },
      "Paused(address)": {
        "details": "Emitted when the pause is triggered by `account`."
      },
      "RoleAdminChanged(bytes32,bytes32,bytes32)": {
        "details": "Emitted when `newAdminRole` is set as ``role``'s admin role, replacing `previousAdminRole` `DEFAULT_ADMIN_ROLE` is the starting admin for all roles, despite {RoleAdminChanged} not being emitted signaling this. _Available since v3.1._"
      },
      "RoleGranted(bytes32,address,address)": {
        "details": "Emitted when `account` is granted `role`. `sender` is the account that originated the contract call, an admin role bearer except when using {AccessControl-_setupRole}."
      },
      "RoleRevoked(bytes32,address,address)": {
        "details": "Emitted when `account` is revoked `role`. `sender` is the account that originated the contract call:   - if using `revokeRole`, it is the admin role bearer   - if using `renounceRole`, it is the role bearer (i.e. `account`)"
      },
      "SetNewSigner(address,address)": {
        "details": "Define events that contract will emit"
      },
      "Unpaused(address)": {
        "details": "Emitted when the pause is lifted by `account`."
      }
    },
    "kind": "dev",
    "methods": {
      "constructor": {
        "details": "Contructor"
      },
      "getRoleAdmin(bytes32)": {
        "details": "Returns the admin role that controls `role`. See {grantRole} and {revokeRole}. To change a role's admin, use {_setRoleAdmin}."
      },
      "grantRole(bytes32,address)": {
        "details": "Grants `role` to `account`. If `account` had not been already granted `role`, emits a {RoleGranted} event. Requirements: - the caller must have ``role``'s admin role. May emit a {RoleGranted} event."
      },
      "hasRole(bytes32,address)": {
        "details": "Returns `true` if `account` has been granted `role`."
      },
      "initialize(address,address,address,address)": {
        "details": "Initialize function"
      },
      "owner()": {
        "details": "Returns the address of the current owner."
      },
      "paused()": {
        "details": "Returns true if the contract is paused, and false otherwise."
      },
      "renounceOwnership()": {
        "details": "Leaves the contract without owner. It will not be possible to call `onlyOwner` functions anymore. Can only be called by the current owner. NOTE: Renouncing ownership will leave the contract without an owner, thereby removing any functionality that is only available to the owner."
      },
      "renounceRole(bytes32,address)": {
        "details": "Revokes `role` from the calling account. Roles are often managed via {grantRole} and {revokeRole}: this function's purpose is to provide a mechanism for accounts to lose their privileges if they are compromised (such as when a trusted device is misplaced). If the calling account had been revoked `role`, emits a {RoleRevoked} event. Requirements: - the caller must be `account`. May emit a {RoleRevoked} event."
      },
      "revokeRole(bytes32,address)": {
        "details": "Revokes `role` from `account`. If `account` had been granted `role`, emits a {RoleRevoked} event. Requirements: - the caller must have ``role``'s admin role. May emit a {RoleRevoked} event."
      },
      "supportsInterface(bytes4)": {
        "details": "See {IERC165-supportsInterface}."
      },
      "transferOwnership(address)": {
        "details": "Transfers ownership of the contract to a new account (`newOwner`). Can only be called by the current owner."
      }
    },
    "stateVariables": {
      "PAUSER_ROLE": {
        "details": "Define variables in contract"
      }
    },
    "version": 1
  },
  "userdoc": {
    "kind": "user",
    "methods": {
      "makeMintingAction(address,uint8,uint256,uint256,uint256,bool,(uint8,bytes32,bytes32,uint256),string,address)": {
        "notice": "Function allow call external from daap to make miting action"
      },
      "mintingFromGateway(address,uint8,uint256,uint256,uint256,bool,(uint8,bytes32,bytes32,uint256),string,address)": {
        "notice": "Function allow call external from GatewayNFT to make miting action"
      },
      "setNewGateway(address)": {
        "notice": "Set new GatwayNFT"
      },
      "setNewSigner(address)": {
        "notice": "Set new signer who confirm a call from daap"
      },
      "setNewTreasury(address)": {
        "notice": "Set new treasury"
      },
      "setPayToken(address,address)": {
        "notice": "Function allows Creator Collection to set new PayToken"
      },
      "setPlatformFee(address)": {
        "notice": "Reset the platform fee wallet"
      },
      "updateCreatorCollection(address,address)": {
        "notice": "Function allows Creator Collection to set new Creator"
      }
    },
    "version": 1
  }
}