{
  "contractName": "ERC1155Instance",
  "abi": [
    {
      "inputs": [
        {
          "internalType": "string",
          "name": "_name",
          "type": "string"
        },
        {
          "internalType": "string",
          "name": "_symbol",
          "type": "string"
        }
      ],
      "stateMutability": "nonpayable",
      "type": "constructor"
    },
    {
      "anonymous": false,
      "inputs": [
        {
          "indexed": true,
          "internalType": "address",
          "name": "account",
          "type": "address"
        },
        {
          "indexed": true,
          "internalType": "address",
          "name": "operator",
          "type": "address"
        },
        {
          "indexed": false,
          "internalType": "bool",
          "name": "approved",
          "type": "bool"
        }
      ],
      "name": "ApprovalForAll",
      "type": "event"
    },
    {
      "anonymous": false,
      "inputs": [
        {
          "indexed": false,
          "internalType": "uint256",
          "name": "mintID",
          "type": "uint256"
        },
        {
          "indexed": false,
          "internalType": "uint256",
          "name": "tokenID",
          "type": "uint256"
        },
        {
          "indexed": false,
          "internalType": "uint256",
          "name": "amount",
          "type": "uint256"
        },
        {
          "indexed": false,
          "internalType": "address",
          "name": "sender",
          "type": "address"
        }
      ],
      "name": "Mint",
      "type": "event"
    },
    {
      "anonymous": false,
      "inputs": [
        {
          "indexed": true,
          "internalType": "address",
          "name": "operator",
          "type": "address"
        },
        {
          "indexed": true,
          "internalType": "address",
          "name": "from",
          "type": "address"
        },
        {
          "indexed": true,
          "internalType": "address",
          "name": "to",
          "type": "address"
        },
        {
          "indexed": false,
          "internalType": "uint256[]",
          "name": "ids",
          "type": "uint256[]"
        },
        {
          "indexed": false,
          "internalType": "uint256[]",
          "name": "values",
          "type": "uint256[]"
        }
      ],
      "name": "TransferBatch",
      "type": "event"
    },
    {
      "anonymous": false,
      "inputs": [
        {
          "indexed": true,
          "internalType": "address",
          "name": "operator",
          "type": "address"
        },
        {
          "indexed": true,
          "internalType": "address",
          "name": "from",
          "type": "address"
        },
        {
          "indexed": true,
          "internalType": "address",
          "name": "to",
          "type": "address"
        },
        {
          "indexed": false,
          "internalType": "uint256",
          "name": "id",
          "type": "uint256"
        },
        {
          "indexed": false,
          "internalType": "uint256",
          "name": "value",
          "type": "uint256"
        }
      ],
      "name": "TransferSingle",
      "type": "event"
    },
    {
      "anonymous": false,
      "inputs": [
        {
          "indexed": false,
          "internalType": "string",
          "name": "value",
          "type": "string"
        },
        {
          "indexed": true,
          "internalType": "uint256",
          "name": "id",
          "type": "uint256"
        }
      ],
      "name": "URI",
      "type": "event"
    },
    {
      "inputs": [
        {
          "internalType": "address",
          "name": "account",
          "type": "address"
        },
        {
          "internalType": "uint256",
          "name": "id",
          "type": "uint256"
        }
      ],
      "name": "balanceOf",
      "outputs": [
        {
          "internalType": "uint256",
          "name": "",
          "type": "uint256"
        }
      ],
      "stateMutability": "view",
      "type": "function"
    },
    {
      "inputs": [
        {
          "internalType": "address[]",
          "name": "accounts",
          "type": "address[]"
        },
        {
          "internalType": "uint256[]",
          "name": "ids",
          "type": "uint256[]"
        }
      ],
      "name": "balanceOfBatch",
      "outputs": [
        {
          "internalType": "uint256[]",
          "name": "",
          "type": "uint256[]"
        }
      ],
      "stateMutability": "view",
      "type": "function"
    },
    {
      "inputs": [
        {
          "internalType": "address",
          "name": "account",
          "type": "address"
        },
        {
          "internalType": "uint256",
          "name": "id",
          "type": "uint256"
        },
        {
          "internalType": "uint256",
          "name": "value",
          "type": "uint256"
        }
      ],
      "name": "burn",
      "outputs": [],
      "stateMutability": "nonpayable",
      "type": "function"
    },
    {
      "inputs": [
        {
          "internalType": "address",
          "name": "account",
          "type": "address"
        },
        {
          "internalType": "uint256[]",
          "name": "ids",
          "type": "uint256[]"
        },
        {
          "internalType": "uint256[]",
          "name": "values",
          "type": "uint256[]"
        }
      ],
      "name": "burnBatch",
      "outputs": [],
      "stateMutability": "nonpayable",
      "type": "function"
    },
    {
      "inputs": [
        {
          "internalType": "uint256",
          "name": "id",
          "type": "uint256"
        }
      ],
      "name": "exists",
      "outputs": [
        {
          "internalType": "bool",
          "name": "",
          "type": "bool"
        }
      ],
      "stateMutability": "view",
      "type": "function"
    },
    {
      "inputs": [],
      "name": "factory",
      "outputs": [
        {
          "internalType": "contract IMarketplaceFactory",
          "name": "",
          "type": "address"
        }
      ],
      "stateMutability": "view",
      "type": "function"
    },
    {
      "inputs": [
        {
          "internalType": "address",
          "name": "account",
          "type": "address"
        },
        {
          "internalType": "address",
          "name": "operator",
          "type": "address"
        }
      ],
      "name": "isApprovedForAll",
      "outputs": [
        {
          "internalType": "bool",
          "name": "",
          "type": "bool"
        }
      ],
      "stateMutability": "view",
      "type": "function"
    },
    {
      "inputs": [
        {
          "internalType": "uint256",
          "name": "",
          "type": "uint256"
        }
      ],
      "name": "mintIDUsed",
      "outputs": [
        {
          "internalType": "bool",
          "name": "",
          "type": "bool"
        }
      ],
      "stateMutability": "view",
      "type": "function"
    },
    {
      "inputs": [],
      "name": "name",
      "outputs": [
        {
          "internalType": "string",
          "name": "",
          "type": "string"
        }
      ],
      "stateMutability": "view",
      "type": "function"
    },
    {
      "inputs": [
        {
          "internalType": "address",
          "name": "from",
          "type": "address"
        },
        {
          "internalType": "address",
          "name": "to",
          "type": "address"
        },
        {
          "internalType": "uint256[]",
          "name": "ids",
          "type": "uint256[]"
        },
        {
          "internalType": "uint256[]",
          "name": "amounts",
          "type": "uint256[]"
        },
        {
          "internalType": "bytes",
          "name": "data",
          "type": "bytes"
        }
      ],
      "name": "safeBatchTransferFrom",
      "outputs": [],
      "stateMutability": "nonpayable",
      "type": "function"
    },
    {
      "inputs": [
        {
          "internalType": "address",
          "name": "from",
          "type": "address"
        },
        {
          "internalType": "address",
          "name": "to",
          "type": "address"
        },
        {
          "internalType": "uint256",
          "name": "id",
          "type": "uint256"
        },
        {
          "internalType": "uint256",
          "name": "amount",
          "type": "uint256"
        },
        {
          "internalType": "bytes",
          "name": "data",
          "type": "bytes"
        }
      ],
      "name": "safeTransferFrom",
      "outputs": [],
      "stateMutability": "nonpayable",
      "type": "function"
    },
    {
      "inputs": [
        {
          "internalType": "address",
          "name": "operator",
          "type": "address"
        },
        {
          "internalType": "bool",
          "name": "approved",
          "type": "bool"
        }
      ],
      "name": "setApprovalForAll",
      "outputs": [],
      "stateMutability": "nonpayable",
      "type": "function"
    },
    {
      "inputs": [
        {
          "internalType": "bytes4",
          "name": "interfaceId",
          "type": "bytes4"
        }
      ],
      "name": "supportsInterface",
      "outputs": [
        {
          "internalType": "bool",
          "name": "",
          "type": "bool"
        }
      ],
      "stateMutability": "view",
      "type": "function"
    },
    {
      "inputs": [],
      "name": "symbol",
      "outputs": [
        {
          "internalType": "string",
          "name": "",
          "type": "string"
        }
      ],
      "stateMutability": "view",
      "type": "function"
    },
    {
      "inputs": [],
      "name": "totalIDs",
      "outputs": [
        {
          "internalType": "uint256",
          "name": "",
          "type": "uint256"
        }
      ],
      "stateMutability": "view",
      "type": "function"
    },
    {
      "inputs": [
        {
          "internalType": "uint256",
          "name": "id",
          "type": "uint256"
        }
      ],
      "name": "totalSupply",
      "outputs": [
        {
          "internalType": "uint256",
          "name": "",
          "type": "uint256"
        }
      ],
      "stateMutability": "view",
      "type": "function"
    },
    {
      "inputs": [
        {
          "internalType": "uint256",
          "name": "mintID",
          "type": "uint256"
        },
        {
          "internalType": "uint256",
          "name": "amount",
          "type": "uint256"
        },
        {
          "internalType": "string",
          "name": "_tokenURI",
          "type": "string"
        },
        {
          "internalType": "uint256",
          "name": "deadline",
          "type": "uint256"
        },
        {
          "internalType": "bytes",
          "name": "signature",
          "type": "bytes"
        }
      ],
      "name": "mint",
      "outputs": [],
      "stateMutability": "nonpayable",
      "type": "function"
    },
    {
      "inputs": [
        {
          "internalType": "uint256",
          "name": "tokenId",
          "type": "uint256"
        }
      ],
      "name": "uri",
      "outputs": [
        {
          "internalType": "string",
          "name": "",
          "type": "string"
        }
      ],
      "stateMutability": "view",
      "type": "function"
    }
  ],
  "bytecode": "0x60806040523480156200001157600080fd5b50604051620029ad380380620029ad833981016040819052620000349162000188565b60408051808201909152601581527f68747470733a2f2f697066732e696f2f697066732f000000000000000000000060208201526200007381620000b1565b506001600455600662000087838262000281565b50600762000096828262000281565b5050600580546001600160a01b03191633179055506200034d565b6002620000bf828262000281565b5050565b634e487b7160e01b600052604160045260246000fd5b600082601f830112620000eb57600080fd5b81516001600160401b0380821115620001085762000108620000c3565b604051601f8301601f19908116603f01168101908282118183101715620001335762000133620000c3565b816040528381526020925086838588010111156200015057600080fd5b600091505b8382101562000174578582018301518183018401529082019062000155565b600093810190920192909252949350505050565b600080604083850312156200019c57600080fd5b82516001600160401b0380821115620001b457600080fd5b620001c286838701620000d9565b93506020850151915080821115620001d957600080fd5b50620001e885828601620000d9565b9150509250929050565b600181811c908216806200020757607f821691505b6020821081036200022857634e487b7160e01b600052602260045260246000fd5b50919050565b601f8211156200027c57600081815260208120601f850160051c81016020861015620002575750805b601f850160051c820191505b81811015620002785782815560010162000263565b5050505b505050565b81516001600160401b038111156200029d576200029d620000c3565b620002b581620002ae8454620001f2565b846200022e565b602080601f831160018114620002ed5760008415620002d45750858301515b600019600386901b1c1916600185901b17855562000278565b600085815260208120601f198616915b828110156200031e57888601518255948401946001909101908401620002fd565b50858210156200033d5787850151600019600388901b60f8161c191681555b5050505050600190811b01905550565b612650806200035d6000396000f3fe608060405234801561001057600080fd5b50600436106101155760003560e01c80635e701d86116100a2578063bd85b03911610071578063bd85b0391461024f578063c45a01551461026f578063e985e9c51461029a578063f242432a146102d6578063f5298aca146102e957600080fd5b80635e701d86146102185780636b20c4541461022157806395d89b4114610234578063a22cb4651461023c57600080fd5b8063294d10ad116100e9578063294d10ad1461018b5780632eb2c2d6146101ae57806330d583d7146101c35780634e1273f4146101d65780634f558e79146101f657600080fd5b8062fdd58e1461011a57806301ffc9a71461014057806306fdde03146101635780630e89341c14610178575b600080fd5b61012d6101283660046119ff565b6102fc565b6040519081526020015b60405180910390f35b61015361014e366004611a41565b610395565b6040519015158152602001610137565b61016b6103e5565b6040516101379190611ab5565b61016b610186366004611ac8565b610473565b610153610199366004611ac8565b60096020526000908152604090205460ff1681565b6101c16101bc366004611c2d565b6105ca565b005b6101c16101d1366004611d1d565b610616565b6101e96101e4366004611daa565b6108fc565b6040516101379190611eb2565b610153610204366004611ac8565b600090815260036020526040902054151590565b61012d60085481565b6101c161022f366004611ec5565b610a26565b61016b610a6e565b6101c161024a366004611f3b565b610a7b565b61012d61025d366004611ac8565b60009081526003602052604090205490565b600554610282906001600160a01b031681565b6040516001600160a01b039091168152602001610137565b6101536102a8366004611f79565b6001600160a01b03918216600090815260016020908152604080832093909416825291909152205460ff1690565b6101c16102e4366004611fa7565b610a8a565b6101c16102f7366004612010565b610acf565b60006001600160a01b03831661036c5760405162461bcd60e51b815260206004820152602a60248201527f455243313135353a2061646472657373207a65726f206973206e6f742061207660448201526930b634b21037bbb732b960b11b60648201526084015b60405180910390fd5b506000818152602081815260408083206001600160a01b03861684529091529020545b92915050565b60006001600160e01b03198216636cdb3d1360e11b14806103c657506001600160e01b031982166303a24d0760e21b145b8061038f57506301ffc9a760e01b6001600160e01b031983161461038f565b600680546103f290612045565b80601f016020809104026020016040519081016040528092919081815260200182805461041e90612045565b801561046b5780601f106104405761010080835404028352916020019161046b565b820191906000526020600020905b81548152906001019060200180831161044e57829003601f168201915b505050505081565b6000818152600360205260409020546060906104d15760405162461bcd60e51b815260206004820152601f60248201527f55524920717565727920666f72206e6f6e6578697374656e7420746f6b656e006044820152606401610363565b6000828152600a6020526040812080546104ea90612045565b80601f016020809104026020016040519081016040528092919081815260200182805461051690612045565b80156105635780601f1061053857610100808354040283529160200191610563565b820191906000526020600020905b81548152906001019060200180831161054657829003601f168201915b50505050509050600061057584610b12565b90508051600003610587575092915050565b8151156105b95780826040516020016105a192919061207f565b60405160208183030381529060405292505050919050565b6105c284610b12565b949350505050565b6001600160a01b0385163314806105e657506105e685336102a8565b6106025760405162461bcd60e51b8152600401610363906120ae565b61060f8585858585610ba6565b5050505050565b61061e610d50565b6106c861068c468933308b8b8b8b6040516020016106439897969594939291906120fc565b604051602081830303815290604052805190602001207f19457468657265756d205369676e6564204d6573736167653a0a3332000000006000908152601c91909152603c902090565b83838080601f016020809104026020016040519081016040528093929190818152602001838380828437600092019190915250610da992505050565b6001600160a01b0316600560009054906101000a90046001600160a01b03166001600160a01b031663238ac9336040518163ffffffff1660e01b8152600401602060405180830381865afa158015610724573d6000803e3d6000fd5b505050506040513d601f19601f82011682018060405250810190610748919061214f565b6001600160a01b0316146107925760405162461bcd60e51b8152602060048201526011602482015270496e76616c6964207369676e617475726560781b6044820152606401610363565b428310156107d45760405162461bcd60e51b815260206004820152600f60248201526e111958591b1a5b99481c185cdcd959608a1b6044820152606401610363565b60008781526009602052604090205460ff161561082a5760405162461bcd60e51b8152602060048201526014602482015273135a5b9d08125108185b1c9958591e481d5cd95960621b6044820152606401610363565b6000878152600960209081526040808320805460ff191660011790556008548352600a909152902061085d8587836121b2565b5061087b336008548860405180602001604052806000815250610dc5565b7faacef1bbb194eac329f8f247fbe8cce3eca2ed1f2e0a45a0488c2dd8afe6e51687600854886108a83390565b604080519485526020850193909352918301526001600160a01b0316606082015260800160405180910390a1600880549060006108e483612288565b91905055506108f36001600455565b50505050505050565b606081518351146109615760405162461bcd60e51b815260206004820152602960248201527f455243313135353a206163636f756e747320616e6420696473206c656e677468604482015268040dad2e6dac2e8c6d60bb1b6064820152608401610363565b6000835167ffffffffffffffff81111561097d5761097d611ae1565b6040519080825280602002602001820160405280156109a6578160200160208202803683370190505b50905060005b8451811015610a1e576109f18582815181106109ca576109ca6122a1565b60200260200101518583815181106109e4576109e46122a1565b60200260200101516102fc565b828281518110610a0357610a036122a1565b6020908102919091010152610a1781612288565b90506109ac565b509392505050565b6001600160a01b038316331480610a425750610a4283336102a8565b610a5e5760405162461bcd60e51b8152600401610363906120ae565b610a69838383610edf565b505050565b600780546103f290612045565b610a8633838361107c565b5050565b6001600160a01b038516331480610aa65750610aa685336102a8565b610ac25760405162461bcd60e51b8152600401610363906120ae565b61060f858585858561115c565b6001600160a01b038316331480610aeb5750610aeb83336102a8565b610b075760405162461bcd60e51b8152600401610363906120ae565b610a69838383611294565b606060028054610b2190612045565b80601f0160208091040260200160405190810160405280929190818152602001828054610b4d90612045565b8015610b9a5780601f10610b6f57610100808354040283529160200191610b9a565b820191906000526020600020905b815481529060010190602001808311610b7d57829003601f168201915b50505050509050919050565b8151835114610bc75760405162461bcd60e51b8152600401610363906122b7565b6001600160a01b038416610bed5760405162461bcd60e51b8152600401610363906122ff565b33610bfc8187878787876113ac565b60005b8451811015610ce2576000858281518110610c1c57610c1c6122a1565b602002602001015190506000858381518110610c3a57610c3a6122a1565b602090810291909101810151600084815280835260408082206001600160a01b038e168352909352919091205490915081811015610c8a5760405162461bcd60e51b815260040161036390612344565b6000838152602081815260408083206001600160a01b038e8116855292528083208585039055908b16825281208054849290610cc790849061238e565b9250508190555050505080610cdb90612288565b9050610bff565b50846001600160a01b0316866001600160a01b0316826001600160a01b03167f4a39dc06d4c0dbc64b70af90fd698a233a518aa5d07e595d983b8c0526c8f7fb8787604051610d329291906123a1565b60405180910390a4610d488187878787876113ba565b505050505050565b600260045403610da25760405162461bcd60e51b815260206004820152601f60248201527f5265656e7472616e637947756172643a207265656e7472616e742063616c6c006044820152606401610363565b6002600455565b6000806000610db88585611515565b91509150610a1e8161155a565b6001600160a01b038416610e255760405162461bcd60e51b815260206004820152602160248201527f455243313135353a206d696e7420746f20746865207a65726f206164647265736044820152607360f81b6064820152608401610363565b336000610e31856116a7565b90506000610e3e856116a7565b9050610e4f836000898585896113ac565b6000868152602081815260408083206001600160a01b038b16845290915281208054879290610e7f90849061238e565b909155505060408051878152602081018790526001600160a01b03808a1692600092918716917fc3d58168c5ae7397731d063d5bbf3d657854427343f4c083240f7aacaa2d0f62910160405180910390a46108f3836000898989896116f2565b6001600160a01b038316610f055760405162461bcd60e51b8152600401610363906123cf565b8051825114610f265760405162461bcd60e51b8152600401610363906122b7565b6000339050610f49818560008686604051806020016040528060008152506113ac565b60005b835181101561100e576000848281518110610f6957610f696122a1565b602002602001015190506000848381518110610f8757610f876122a1565b602090810291909101810151600084815280835260408082206001600160a01b038c168352909352919091205490915081811015610fd75760405162461bcd60e51b815260040161036390612412565b6000928352602083815260408085206001600160a01b038b168652909152909220910390558061100681612288565b915050610f4c565b5060006001600160a01b0316846001600160a01b0316826001600160a01b03167f4a39dc06d4c0dbc64b70af90fd698a233a518aa5d07e595d983b8c0526c8f7fb868660405161105f9291906123a1565b60405180910390a460408051602081019091526000905250505050565b816001600160a01b0316836001600160a01b0316036110ef5760405162461bcd60e51b815260206004820152602960248201527f455243313135353a2073657474696e6720617070726f76616c20737461747573604482015268103337b91039b2b63360b91b6064820152608401610363565b6001600160a01b03838116600081815260016020908152604080832094871680845294825291829020805460ff191686151590811790915591519182527f17307eab39ab6107e8899845ad3d59bd9653f200f220920489ca2b5937696c31910160405180910390a3505050565b6001600160a01b0384166111825760405162461bcd60e51b8152600401610363906122ff565b33600061118e856116a7565b9050600061119b856116a7565b90506111ab8389898585896113ac565b6000868152602081815260408083206001600160a01b038c168452909152902054858110156111ec5760405162461bcd60e51b815260040161036390612344565b6000878152602081815260408083206001600160a01b038d8116855292528083208985039055908a1682528120805488929061122990849061238e565b909155505060408051888152602081018890526001600160a01b03808b16928c821692918816917fc3d58168c5ae7397731d063d5bbf3d657854427343f4c083240f7aacaa2d0f62910160405180910390a4611289848a8a8a8a8a6116f2565b505050505050505050565b6001600160a01b0383166112ba5760405162461bcd60e51b8152600401610363906123cf565b3360006112c6846116a7565b905060006112d3846116a7565b90506112f3838760008585604051806020016040528060008152506113ac565b6000858152602081815260408083206001600160a01b038a168452909152902054848110156113345760405162461bcd60e51b815260040161036390612412565b6000868152602081815260408083206001600160a01b038b81168086529184528285208a8703905582518b81529384018a90529092908816917fc3d58168c5ae7397731d063d5bbf3d657854427343f4c083240f7aacaa2d0f62910160405180910390a46040805160208101909152600090526108f3565b610d488686868686866117ad565b6001600160a01b0384163b15610d485760405163bc197c8160e01b81526001600160a01b0385169063bc197c81906113fe9089908990889088908890600401612456565b6020604051808303816000875af1925050508015611439575060408051601f3d908101601f19168201909252611436918101906124b4565b60015b6114e5576114456124d1565b806308c379a00361147e57506114596124ed565b806114645750611480565b8060405162461bcd60e51b81526004016103639190611ab5565b505b60405162461bcd60e51b815260206004820152603460248201527f455243313135353a207472616e7366657220746f206e6f6e2d455243313135356044820152732932b1b2b4bb32b91034b6b83632b6b2b73a32b960611b6064820152608401610363565b6001600160e01b0319811663bc197c8160e01b146108f35760405162461bcd60e51b815260040161036390612577565b600080825160410361154b5760208301516040840151606085015160001a61153f87828585611926565b94509450505050611553565b506000905060025b9250929050565b600081600481111561156e5761156e6125bf565b036115765750565b600181600481111561158a5761158a6125bf565b036115d75760405162461bcd60e51b815260206004820152601860248201527f45434453413a20696e76616c6964207369676e617475726500000000000000006044820152606401610363565b60028160048111156115eb576115eb6125bf565b036116385760405162461bcd60e51b815260206004820152601f60248201527f45434453413a20696e76616c6964207369676e6174757265206c656e677468006044820152606401610363565b600381600481111561164c5761164c6125bf565b036116a45760405162461bcd60e51b815260206004820152602260248201527f45434453413a20696e76616c6964207369676e6174757265202773272076616c604482015261756560f01b6064820152608401610363565b50565b604080516001808252818301909252606091600091906020808301908036833701905050905082816000815181106116e1576116e16122a1565b602090810291909101015292915050565b6001600160a01b0384163b15610d485760405163f23a6e6160e01b81526001600160a01b0385169063f23a6e619061173690899089908890889088906004016125d5565b6020604051808303816000875af1925050508015611771575060408051601f3d908101601f1916820190925261176e918101906124b4565b60015b61177d576114456124d1565b6001600160e01b0319811663f23a6e6160e01b146108f35760405162461bcd60e51b815260040161036390612577565b6001600160a01b0385166118345760005b8351811015611832578281815181106117d9576117d96122a1565b6020026020010151600360008684815181106117f7576117f76122a1565b60200260200101518152602001908152602001600020600082825461181c919061238e565b9091555061182b905081612288565b90506117be565b505b6001600160a01b038416610d485760005b83518110156108f3576000848281518110611862576118626122a1565b602002602001015190506000848381518110611880576118806122a1565b60200260200101519050600060036000848152602001908152602001600020549050818110156119035760405162461bcd60e51b815260206004820152602860248201527f455243313135353a206275726e20616d6f756e74206578636565647320746f74604482015267616c537570706c7960c01b6064820152608401610363565b6000928352600360205260409092209103905561191f81612288565b9050611845565b6000807f7fffffffffffffffffffffffffffffff5d576e7357a4501ddfe92f46681b20a083111561195d57506000905060036119e1565b6040805160008082526020820180845289905260ff881692820192909252606081018690526080810185905260019060a0016020604051602081039080840390855afa1580156119b1573d6000803e3d6000fd5b5050604051601f1901519150506001600160a01b0381166119da576000600192509250506119e1565b9150600090505b94509492505050565b6001600160a01b03811681146116a457600080fd5b60008060408385031215611a1257600080fd5b8235611a1d816119ea565b946020939093013593505050565b6001600160e01b0319811681146116a457600080fd5b600060208284031215611a5357600080fd5b8135611a5e81611a2b565b9392505050565b60005b83811015611a80578181015183820152602001611a68565b50506000910152565b60008151808452611aa1816020860160208601611a65565b601f01601f19169290920160200192915050565b602081526000611a5e6020830184611a89565b600060208284031215611ada57600080fd5b5035919050565b634e487b7160e01b600052604160045260246000fd5b601f8201601f1916810167ffffffffffffffff81118282101715611b1d57611b1d611ae1565b6040525050565b600067ffffffffffffffff821115611b3e57611b3e611ae1565b5060051b60200190565b600082601f830112611b5957600080fd5b81356020611b6682611b24565b604051611b738282611af7565b83815260059390931b8501820192828101915086841115611b9357600080fd5b8286015b84811015611bae5780358352918301918301611b97565b509695505050505050565b600082601f830112611bca57600080fd5b813567ffffffffffffffff811115611be457611be4611ae1565b604051611bfb601f8301601f191660200182611af7565b818152846020838601011115611c1057600080fd5b816020850160208301376000918101602001919091529392505050565b600080600080600060a08688031215611c4557600080fd5b8535611c50816119ea565b94506020860135611c60816119ea565b9350604086013567ffffffffffffffff80821115611c7d57600080fd5b611c8989838a01611b48565b94506060880135915080821115611c9f57600080fd5b611cab89838a01611b48565b93506080880135915080821115611cc157600080fd5b50611cce88828901611bb9565b9150509295509295909350565b60008083601f840112611ced57600080fd5b50813567ffffffffffffffff811115611d0557600080fd5b60208301915083602082850101111561155357600080fd5b600080600080600080600060a0888a031215611d3857600080fd5b8735965060208801359550604088013567ffffffffffffffff80821115611d5e57600080fd5b611d6a8b838c01611cdb565b909750955060608a0135945060808a0135915080821115611d8a57600080fd5b50611d978a828b01611cdb565b989b979a50959850939692959293505050565b60008060408385031215611dbd57600080fd5b823567ffffffffffffffff80821115611dd557600080fd5b818501915085601f830112611de957600080fd5b81356020611df682611b24565b604051611e038282611af7565b83815260059390931b8501820192828101915089841115611e2357600080fd5b948201945b83861015611e4a578535611e3b816119ea565b82529482019490820190611e28565b96505086013592505080821115611e6057600080fd5b50611e6d85828601611b48565b9150509250929050565b600081518084526020808501945080840160005b83811015611ea757815187529582019590820190600101611e8b565b509495945050505050565b602081526000611a5e6020830184611e77565b600080600060608486031215611eda57600080fd5b8335611ee5816119ea565b9250602084013567ffffffffffffffff80821115611f0257600080fd5b611f0e87838801611b48565b93506040860135915080821115611f2457600080fd5b50611f3186828701611b48565b9150509250925092565b60008060408385031215611f4e57600080fd5b8235611f59816119ea565b915060208301358015158114611f6e57600080fd5b809150509250929050565b60008060408385031215611f8c57600080fd5b8235611f97816119ea565b91506020830135611f6e816119ea565b600080600080600060a08688031215611fbf57600080fd5b8535611fca816119ea565b94506020860135611fda816119ea565b93506040860135925060608601359150608086013567ffffffffffffffff81111561200457600080fd5b611cce88828901611bb9565b60008060006060848603121561202557600080fd5b8335612030816119ea565b95602085013595506040909401359392505050565b600181811c9082168061205957607f821691505b60208210810361207957634e487b7160e01b600052602260045260246000fd5b50919050565b60008351612091818460208801611a65565b8351908301906120a5818360208801611a65565b01949350505050565b6020808252602e908201527f455243313135353a2063616c6c6572206973206e6f7420746f6b656e206f776e60408201526d195c881bdc88185c1c1c9bdd995960921b606082015260800190565b88815287602082015260006bffffffffffffffffffffffff19808960601b166040840152808860601b166054840152508560688301528385608884013750608892019182015260a8019695505050505050565b60006020828403121561216157600080fd5b8151611a5e816119ea565b601f821115610a6957600081815260208120601f850160051c810160208610156121935750805b601f850160051c820191505b81811015610d485782815560010161219f565b67ffffffffffffffff8311156121ca576121ca611ae1565b6121de836121d88354612045565b8361216c565b6000601f84116001811461221257600085156121fa5750838201355b600019600387901b1c1916600186901b17835561060f565b600083815260209020601f19861690835b828110156122435786850135825560209485019460019092019101612223565b50868210156122605760001960f88860031b161c19848701351681555b505060018560011b0183555050505050565b634e487b7160e01b600052601160045260246000fd5b60006001820161229a5761229a612272565b5060010190565b634e487b7160e01b600052603260045260246000fd5b60208082526028908201527f455243313135353a2069647320616e6420616d6f756e7473206c656e677468206040820152670dad2e6dac2e8c6d60c31b606082015260800190565b60208082526025908201527f455243313135353a207472616e7366657220746f20746865207a65726f206164604082015264647265737360d81b606082015260800190565b6020808252602a908201527f455243313135353a20696e73756666696369656e742062616c616e636520666f60408201526939103a3930b739b332b960b11b606082015260800190565b8082018082111561038f5761038f612272565b6040815260006123b46040830185611e77565b82810360208401526123c68185611e77565b95945050505050565b60208082526023908201527f455243313135353a206275726e2066726f6d20746865207a65726f206164647260408201526265737360e81b606082015260800190565b60208082526024908201527f455243313135353a206275726e20616d6f756e7420657863656564732062616c604082015263616e636560e01b606082015260800190565b6001600160a01b0386811682528516602082015260a06040820181905260009061248290830186611e77565b82810360608401526124948186611e77565b905082810360808401526124a88185611a89565b98975050505050505050565b6000602082840312156124c657600080fd5b8151611a5e81611a2b565b600060033d11156124ea5760046000803e5060005160e01c5b90565b600060443d10156124fb5790565b6040516003193d81016004833e81513d67ffffffffffffffff816024840111818411171561252b57505050505090565b82850191508151818111156125435750505050505090565b843d870101602082850101111561255d5750505050505090565b61256c60208286010187611af7565b509095945050505050565b60208082526028908201527f455243313135353a204552433131353552656365697665722072656a656374656040820152676420746f6b656e7360c01b606082015260800190565b634e487b7160e01b600052602160045260246000fd5b6001600160a01b03868116825285166020820152604081018490526060810183905260a06080820181905260009061260f90830184611a89565b97965050505050505056fea264697066735822122031f76318d1127a1eca4eab9b4e2569e76c5d5b72ab0a6b40d68213465477d9f464736f6c63430008130033",
  "immutableReferences": {},
  "source": "// SPDX-License-Identifier: MIT\npragma solidity ^0.8.16;\n\nimport \"@openzeppelin/contracts/token/ERC1155/extensions/ERC1155Supply.sol\";\nimport \"@openzeppelin/contracts/token/ERC1155/extensions/ERC1155Burnable.sol\";\nimport \"@openzeppelin/contracts/security/ReentrancyGuard.sol\";\nimport \"@openzeppelin/contracts/utils/cryptography/ECDSA.sol\";\nimport \"./interfaces/IMarketplaceFactory.sol\";\n\ncontract ERC1155Instance is ERC1155Supply, ERC1155Burnable, ReentrancyGuard {\n    IMarketplaceFactory public factory;\n\n    string public name;\n    string public symbol;\n\n    uint256 public totalIDs;\n\n    mapping(uint256 => bool) public mintIDUsed;\n\n    mapping(uint256 => string) private _tokenURIs;\n\n    event Mint(uint256 mintID, uint256 tokenID, uint256 amount, address sender);\n\n    constructor(\n        string memory _name,\n        string memory _symbol\n    ) ERC1155(\"https://ipfs.io/ipfs/\") {\n        name = _name;\n        symbol = _symbol;\n        factory = IMarketplaceFactory(_msgSender());\n    }\n\n    function mint(\n        uint256 mintID,\n        uint256 amount,\n        string calldata _tokenURI,\n        uint256 deadline,\n        bytes calldata signature\n    ) external nonReentrant {\n        require(\n            factory.signer() ==\n                ECDSA.recover(\n                    ECDSA.toEthSignedMessageHash(\n                        keccak256(\n                            abi.encodePacked(\n                                block.chainid,\n                                mintID,\n                                _msgSender(),\n                                address(this),\n                                amount,\n                                _tokenURI,\n                                deadline\n                            )\n                        )\n                    ),\n                    signature\n                ),\n            \"Invalid signature\"\n        );\n        require(deadline >= block.timestamp, \"Deadline passed\");\n        require(!mintIDUsed[mintID], \"Mint ID already used\");\n        mintIDUsed[mintID] = true;\n        _tokenURIs[totalIDs] = _tokenURI;\n        _mint(_msgSender(), totalIDs, amount, \"\");\n        emit Mint(mintID, totalIDs, amount, _msgSender());\n        totalIDs++;\n    }\n\n    function uri(\n        uint256 tokenId\n    ) public view virtual override returns (string memory) {\n        require(exists(tokenId), \"URI query for nonexistent token\");\n\n        string memory _tokenURI = _tokenURIs[tokenId];\n        string memory base = super.uri(tokenId);\n\n        // If there is no base URI, return the token URI.\n        if (bytes(base).length == 0) {\n            return _tokenURI;\n        }\n        // If both are set, concatenate the baseURI and tokenURI (via abi.encodePacked).\n        if (bytes(_tokenURI).length > 0) {\n            return string(abi.encodePacked(base, _tokenURI));\n        }\n\n        return super.uri(tokenId);\n    }\n\n    function _beforeTokenTransfer(\n        address operator,\n        address from,\n        address to,\n        uint256[] memory ids,\n        uint256[] memory amounts,\n        bytes memory data\n    ) internal override(ERC1155, ERC1155Supply) {\n        ERC1155Supply._beforeTokenTransfer(\n            operator,\n            from,\n            to,\n            ids,\n            amounts,\n            data\n        );\n    }\n}\n",
  "sourcePath": "/Users/huy8bit/Desktop/DRIVE/JOB/ATOM SOLUTION/TASK/inz-dapp-api/dev/inz-smc/contracts/mkp/ERC1155Instance.sol",
  "compiler": {
    "name": "solc",
    "version": "0.8.19+commit.7dd6d404.Emscripten.clang"
  },
  "schemaVersion": "3.4.14",
  "updatedAt": "2023-08-28T08:04:22.885Z",
  "devdoc": {
    "events": {
      "ApprovalForAll(address,address,bool)": {
        "details": "Emitted when `account` grants or revokes permission to `operator` to transfer their tokens, according to `approved`."
      },
      "TransferBatch(address,address,address,uint256[],uint256[])": {
        "details": "Equivalent to multiple {TransferSingle} events, where `operator`, `from` and `to` are the same for all transfers."
      },
      "TransferSingle(address,address,address,uint256,uint256)": {
        "details": "Emitted when `value` tokens of token type `id` are transferred from `from` to `to` by `operator`."
      },
      "URI(string,uint256)": {
        "details": "Emitted when the URI for token type `id` changes to `value`, if it is a non-programmatic URI. If an {URI} event was emitted for `id`, the standard https://eips.ethereum.org/EIPS/eip-1155#metadata-extensions[guarantees] that `value` will equal the value returned by {IERC1155MetadataURI-uri}."
      }
    },
    "kind": "dev",
    "methods": {
      "balanceOf(address,uint256)": {
        "details": "See {IERC1155-balanceOf}. Requirements: - `account` cannot be the zero address."
      },
      "balanceOfBatch(address[],uint256[])": {
        "details": "See {IERC1155-balanceOfBatch}. Requirements: - `accounts` and `ids` must have the same length."
      },
      "exists(uint256)": {
        "details": "Indicates whether any token exist with a given id, or not."
      },
      "isApprovedForAll(address,address)": {
        "details": "See {IERC1155-isApprovedForAll}."
      },
      "safeBatchTransferFrom(address,address,uint256[],uint256[],bytes)": {
        "details": "See {IERC1155-safeBatchTransferFrom}."
      },
      "safeTransferFrom(address,address,uint256,uint256,bytes)": {
        "details": "See {IERC1155-safeTransferFrom}."
      },
      "setApprovalForAll(address,bool)": {
        "details": "See {IERC1155-setApprovalForAll}."
      },
      "supportsInterface(bytes4)": {
        "details": "See {IERC165-supportsInterface}."
      },
      "totalSupply(uint256)": {
        "details": "Total amount of tokens in with a given id."
      }
    },
    "version": 1
  },
  "userdoc": {
    "kind": "user",
    "methods": {},
    "version": 1
  }
}