{
  "contractName": "ERC721Implementation",
  "abi": [
    {
      "inputs": [
        {
          "internalType": "address",
          "name": "token",
          "type": "address"
        },
        {
          "internalType": "address",
          "name": "from",
          "type": "address"
        },
        {
          "internalType": "address",
          "name": "to",
          "type": "address"
        },
        {
          "internalType": "uint256",
          "name": "amount",
          "type": "uint256"
        }
      ],
      "name": "BadReturnValueFromERC20OnTransfer",
      "type": "error"
    },
    {
      "inputs": [
        {
          "internalType": "address",
          "name": "token",
          "type": "address"
        },
        {
          "internalType": "address",
          "name": "from",
          "type": "address"
        },
        {
          "internalType": "address",
          "name": "to",
          "type": "address"
        },
        {
          "internalType": "uint256[]",
          "name": "identifiers",
          "type": "uint256[]"
        },
        {
          "internalType": "uint256[]",
          "name": "amounts",
          "type": "uint256[]"
        }
      ],
      "name": "ERC1155BatchTransferGenericFailure",
      "type": "error"
    },
    {
      "inputs": [],
      "name": "Invalid1155BatchTransferEncoding",
      "type": "error"
    },
    {
      "inputs": [],
      "name": "InvalidERC721TransferAmount",
      "type": "error"
    },
    {
      "inputs": [],
      "name": "MissingItemAmount",
      "type": "error"
    },
    {
      "inputs": [
        {
          "internalType": "address",
          "name": "account",
          "type": "address"
        }
      ],
      "name": "NoContract",
      "type": "error"
    },
    {
      "inputs": [
        {
          "internalType": "address",
          "name": "token",
          "type": "address"
        },
        {
          "internalType": "address",
          "name": "from",
          "type": "address"
        },
        {
          "internalType": "address",
          "name": "to",
          "type": "address"
        },
        {
          "internalType": "uint256",
          "name": "identifier",
          "type": "uint256"
        },
        {
          "internalType": "uint256",
          "name": "amount",
          "type": "uint256"
        }
      ],
      "name": "TokenTransferGenericFailure",
      "type": "error"
    },
    {
      "inputs": [],
      "name": "UnusedItemParameters",
      "type": "error"
    },
    {
      "inputs": [
        {
          "internalType": "address",
          "name": "checkingAddress",
          "type": "address"
        },
        {
          "internalType": "address",
          "name": "nftAddress",
          "type": "address"
        },
        {
          "internalType": "uint256",
          "name": "tokenId",
          "type": "uint256"
        },
        {
          "internalType": "uint256",
          "name": "amount",
          "type": "uint256"
        }
      ],
      "name": "isOwnerOf",
      "outputs": [
        {
          "internalType": "bool",
          "name": "",
          "type": "bool"
        }
      ],
      "stateMutability": "view",
      "type": "function"
    },
    {
      "inputs": [
        {
          "internalType": "address",
          "name": "owner",
          "type": "address"
        },
        {
          "internalType": "address",
          "name": "spender",
          "type": "address"
        },
        {
          "internalType": "address",
          "name": "nftAddress",
          "type": "address"
        },
        {
          "internalType": "uint256",
          "name": "tokenId",
          "type": "uint256"
        }
      ],
      "name": "isApproved",
      "outputs": [
        {
          "internalType": "bool",
          "name": "",
          "type": "bool"
        }
      ],
      "stateMutability": "view",
      "type": "function"
    },
    {
      "inputs": [
        {
          "internalType": "address",
          "name": "token",
          "type": "address"
        },
        {
          "internalType": "address",
          "name": "from",
          "type": "address"
        },
        {
          "internalType": "address",
          "name": "to",
          "type": "address"
        },
        {
          "internalType": "uint256",
          "name": "identifier",
          "type": "uint256"
        },
        {
          "internalType": "uint256",
          "name": "amount",
          "type": "uint256"
        }
      ],
      "name": "performTransfer",
      "outputs": [],
      "stateMutability": "nonpayable",
      "type": "function"
    }
  ],
  "bytecode": "0x608060405234801561001057600080fd5b506104dc806100206000396000f3fe608060405234801561001057600080fd5b50600436106100415760003560e01c80633e1285ae146100465780637a37e7051461005b578063af4c5e2814610082575b600080fd5b610059610054366004610390565b610095565b005b61006e6100693660046103eb565b6100fd565b604051901515815260200160405180910390f35b61006e610090366004610431565b6101d5565b806001146100ea5760405162461bcd60e51b815260206004820152601e60248201527f496e76616c696420616d6f756e74206f662045524337323120746f6b656e000060448201526064015b60405180910390fd5b6100f6858585856102b4565b5050505050565b60008160011461014f5760405162461bcd60e51b815260206004820152601e60248201527f496e76616c696420616d6f756e74206f662045524337323120746f6b656e000060448201526064016100e1565b6040516331a9108f60e11b8152600481018490526000906001600160a01b03861690636352211e90602401602060405180830381865afa158015610197573d6000803e3d6000fd5b505050506040513d601f19601f820116820180604052508101906101bb9190610482565b6001600160a01b0390811690871614915050949350505050565b60006001600160a01b03851661022d5760405162461bcd60e51b815260206004820152601e60248201527f4552433732313a20496e76616c6964206f776e6572206f6620746f6b656e000060448201526064016100e1565b60405163020604bf60e21b8152600481018390526001600160a01b0384169063081812fc90602401602060405180830381865afa158015610272573d6000803e3d6000fd5b505050506040513d601f19601f820116820180604052508101906102969190610482565b6001600160a01b0316846001600160a01b0316149050949350505050565b833b6102cf57632f8aeb3960e11b6000528360045260246000fd5b6040516323b872dd60e01b6000528360045282602452816044526000806064600080895af180610369573d15610343576020601f3d010460208304816003028183111561032a57818303600302610200838002858002030401015b5a60208201101561033f573d6000803e3d6000fd5b5050505b63f486bc8760e01b60005285600452846024528360445282606452600160845260a46000fd5b50604052505060006060525050565b6001600160a01b038116811461038d57600080fd5b50565b600080600080600060a086880312156103a857600080fd5b85356103b381610378565b945060208601356103c381610378565b935060408601356103d381610378565b94979396509394606081013594506080013592915050565b6000806000806080858703121561040157600080fd5b843561040c81610378565b9350602085013561041c81610378565b93969395505050506040820135916060013590565b6000806000806080858703121561044757600080fd5b843561045281610378565b9350602085013561046281610378565b9250604085013561047281610378565b9396929550929360600135925050565b60006020828403121561049457600080fd5b815161049f81610378565b939250505056fea2646970667358221220090d4a8407c245e6c2e95edc527d633c0ab160856acf36ea02e674a82f4173a764736f6c63430008130033",
  "immutableReferences": {},
  "source": "// SPDX-License-Identifier: MIT\npragma solidity ^0.8.2;\n\nimport \"../TokenTransferrer.sol\";\nimport \"../../interfaces/IImplementation.sol\";\nimport \"@openzeppelin/contracts/token/ERC721/IERC721.sol\";\n\ncontract ERC721Implementation is TokenTransferrer, IImplementation {\n    \n    function isOwnerOf(\n        address checkingAddress,\n        address nftAddress,\n        uint256 tokenId,\n        uint256 amount\n    ) external override view returns (bool) {\n        require(amount == 1, \"Invalid amount of ERC721 token\");\n        address owner = IERC721(nftAddress).ownerOf(tokenId);\n        return (owner == checkingAddress);\n    }\n\n    function isApproved(\n        address owner,\n        address spender,\n        address nftAddress,\n        uint256 tokenId\n    ) external override view returns (bool) {\n        require(owner != address(0), \"ERC721: Invalid owner of token\");\n        return (spender == IERC721(nftAddress).getApproved(tokenId));\n    }\n\n    function performTransfer(\n        address token,\n        address from,\n        address to,\n        uint256 identifier,\n        uint256 amount\n    ) external {\n        require(amount == 1, \"Invalid amount of ERC721 token\");\n        _performERC721Transfer(token, from, to, identifier);\n    }\n}",
  "sourcePath": "/Users/huy8bit/Desktop/DRIVE/JOB/ATOM SOLUTION/TASK/inz-dapp-api/dev/inz-smc/contracts/minting/libraries/implementations/ERC721Implementation.sol",
  "compiler": {
    "name": "solc",
    "version": "0.8.19+commit.7dd6d404.Emscripten.clang"
  },
  "schemaVersion": "3.4.14",
  "updatedAt": "2023-08-28T08:29:19.758Z",
  "devdoc": {
    "errors": {
      "BadReturnValueFromERC20OnTransfer(address,address,address,uint256)": [
        {
          "details": "Revert with an error when an ERC20 token transfer returns a falsey      value.",
          "params": {
            "amount": "The amount for the attempted ERC20 transfer.",
            "from": "The source of the attempted ERC20 transfer.",
            "to": "The recipient of the attempted ERC20 transfer.",
            "token": "The token for which the ERC20 transfer was attempted."
          }
        }
      ],
      "ERC1155BatchTransferGenericFailure(address,address,address,uint256[],uint256[])": [
        {
          "details": "Revert with an error when a batch ERC1155 token transfer reverts.",
          "params": {
            "amounts": "The amounts for the attempted transfer.",
            "from": "The source of the attempted transfer.",
            "identifiers": "The identifiers for the attempted transfer.",
            "to": "The recipient of the attempted transfer.",
            "token": "The token for which the transfer was attempted."
          }
        }
      ],
      "Invalid1155BatchTransferEncoding()": [
        {
          "details": "Revert with an error when attempting to execute an 1155 batch      transfer using calldata not produced by default ABI encoding or with      different lengths for ids and amounts arrays."
        }
      ],
      "InvalidERC721TransferAmount()": [
        {
          "details": "Revert with an error when an ERC721 transfer with amount other than      one is attempted."
        }
      ],
      "MissingItemAmount()": [
        {
          "details": "Revert with an error when attempting to fulfill an order where an      item has an amount of zero."
        }
      ],
      "NoContract(address)": [
        {
          "details": "Revert with an error when an account being called as an assumed      contract does not have code and returns no data.",
          "params": {
            "account": "The account that should contain code."
          }
        }
      ],
      "TokenTransferGenericFailure(address,address,address,uint256,uint256)": [
        {
          "details": "Revert with an error when an ERC20, ERC721, or ERC1155 token      transfer reverts.",
          "params": {
            "amount": "The amount for the attempted transfer.",
            "from": "The source of the attempted transfer.",
            "identifier": "The identifier for the attempted transfer.",
            "to": "The recipient of the attempted transfer.",
            "token": "The token for which the transfer was attempted."
          }
        }
      ],
      "UnusedItemParameters()": [
        {
          "details": "Revert with an error when attempting to fulfill an order where an      item has unused parameters. This includes both the token and the      identifier parameters for native transfers as well as the identifier      parameter for ERC20 transfers. Note that the conduit does not      perform this check, leaving it up to the calling channel to enforce      when desired."
        }
      ]
    },
    "kind": "dev",
    "methods": {},
    "version": 1
  },
  "userdoc": {
    "kind": "user",
    "methods": {},
    "version": 1
  }
}