{
  "contractName": "ExchangeUpgradeable",
  "abi": [
    {
      "anonymous": false,
      "inputs": [
        {
          "indexed": false,
          "internalType": "address[2]",
          "name": "fromTo",
          "type": "address[2]"
        },
        {
          "indexed": false,
          "internalType": "address",
          "name": "nftAddress",
          "type": "address"
        },
        {
          "indexed": false,
          "internalType": "uint256[2]",
          "name": "idAndAmount",
          "type": "uint256[2]"
        }
      ],
      "name": "Claim",
      "type": "event"
    },
    {
      "anonymous": false,
      "inputs": [
        {
          "indexed": false,
          "internalType": "uint8",
          "name": "version",
          "type": "uint8"
        }
      ],
      "name": "Initialized",
      "type": "event"
    },
    {
      "anonymous": false,
      "inputs": [
        {
          "indexed": true,
          "internalType": "bytes32",
          "name": "role",
          "type": "bytes32"
        },
        {
          "indexed": true,
          "internalType": "bytes32",
          "name": "previousAdminRole",
          "type": "bytes32"
        },
        {
          "indexed": true,
          "internalType": "bytes32",
          "name": "newAdminRole",
          "type": "bytes32"
        }
      ],
      "name": "RoleAdminChanged",
      "type": "event"
    },
    {
      "anonymous": false,
      "inputs": [
        {
          "indexed": true,
          "internalType": "bytes32",
          "name": "role",
          "type": "bytes32"
        },
        {
          "indexed": true,
          "internalType": "address",
          "name": "account",
          "type": "address"
        },
        {
          "indexed": true,
          "internalType": "address",
          "name": "sender",
          "type": "address"
        }
      ],
      "name": "RoleGranted",
      "type": "event"
    },
    {
      "anonymous": false,
      "inputs": [
        {
          "indexed": true,
          "internalType": "bytes32",
          "name": "role",
          "type": "bytes32"
        },
        {
          "indexed": true,
          "internalType": "address",
          "name": "account",
          "type": "address"
        },
        {
          "indexed": true,
          "internalType": "address",
          "name": "sender",
          "type": "address"
        }
      ],
      "name": "RoleRevoked",
      "type": "event"
    },
    {
      "anonymous": false,
      "inputs": [
        {
          "indexed": false,
          "internalType": "uint256",
          "name": "orderID",
          "type": "uint256"
        },
        {
          "indexed": false,
          "internalType": "address[2]",
          "name": "fromTo",
          "type": "address[2]"
        },
        {
          "indexed": false,
          "internalType": "address[2]",
          "name": "nftAndToken",
          "type": "address[2]"
        },
        {
          "indexed": false,
          "internalType": "uint256[2]",
          "name": "idAndAmount",
          "type": "uint256[2]"
        },
        {
          "indexed": false,
          "internalType": "address[]",
          "name": "additionalTokenReceivers",
          "type": "address[]"
        },
        {
          "indexed": false,
          "internalType": "uint256[]",
          "name": "allAmounts",
          "type": "uint256[]"
        }
      ],
      "name": "Trade",
      "type": "event"
    },
    {
      "inputs": [],
      "name": "DEFAULT_ADMIN_ROLE",
      "outputs": [
        {
          "internalType": "bytes32",
          "name": "",
          "type": "bytes32"
        }
      ],
      "stateMutability": "view",
      "type": "function"
    },
    {
      "inputs": [],
      "name": "SIGNER_ROLE",
      "outputs": [
        {
          "internalType": "bytes32",
          "name": "",
          "type": "bytes32"
        }
      ],
      "stateMutability": "view",
      "type": "function"
    },
    {
      "inputs": [
        {
          "internalType": "bytes32",
          "name": "role",
          "type": "bytes32"
        }
      ],
      "name": "getRoleAdmin",
      "outputs": [
        {
          "internalType": "bytes32",
          "name": "",
          "type": "bytes32"
        }
      ],
      "stateMutability": "view",
      "type": "function"
    },
    {
      "inputs": [
        {
          "internalType": "bytes32",
          "name": "role",
          "type": "bytes32"
        },
        {
          "internalType": "address",
          "name": "account",
          "type": "address"
        }
      ],
      "name": "grantRole",
      "outputs": [],
      "stateMutability": "nonpayable",
      "type": "function"
    },
    {
      "inputs": [
        {
          "internalType": "bytes32",
          "name": "role",
          "type": "bytes32"
        },
        {
          "internalType": "address",
          "name": "account",
          "type": "address"
        }
      ],
      "name": "hasRole",
      "outputs": [
        {
          "internalType": "bool",
          "name": "",
          "type": "bool"
        }
      ],
      "stateMutability": "view",
      "type": "function"
    },
    {
      "inputs": [
        {
          "internalType": "uint256",
          "name": "",
          "type": "uint256"
        }
      ],
      "name": "orderIDUsed",
      "outputs": [
        {
          "internalType": "bool",
          "name": "",
          "type": "bool"
        }
      ],
      "stateMutability": "view",
      "type": "function"
    },
    {
      "inputs": [
        {
          "internalType": "bytes32",
          "name": "role",
          "type": "bytes32"
        },
        {
          "internalType": "address",
          "name": "account",
          "type": "address"
        }
      ],
      "name": "renounceRole",
      "outputs": [],
      "stateMutability": "nonpayable",
      "type": "function"
    },
    {
      "inputs": [
        {
          "internalType": "bytes32",
          "name": "role",
          "type": "bytes32"
        },
        {
          "internalType": "address",
          "name": "account",
          "type": "address"
        }
      ],
      "name": "revokeRole",
      "outputs": [],
      "stateMutability": "nonpayable",
      "type": "function"
    },
    {
      "inputs": [
        {
          "internalType": "bytes4",
          "name": "interfaceId",
          "type": "bytes4"
        }
      ],
      "name": "supportsInterface",
      "outputs": [
        {
          "internalType": "bool",
          "name": "",
          "type": "bool"
        }
      ],
      "stateMutability": "view",
      "type": "function"
    },
    {
      "inputs": [],
      "name": "initialize",
      "outputs": [],
      "stateMutability": "nonpayable",
      "type": "function"
    },
    {
      "inputs": [
        {
          "internalType": "uint256",
          "name": "orderID",
          "type": "uint256"
        },
        {
          "internalType": "address[2]",
          "name": "fromTo",
          "type": "address[2]"
        },
        {
          "internalType": "address",
          "name": "nftAddress",
          "type": "address"
        },
        {
          "internalType": "uint256[2]",
          "name": "idAndAmount",
          "type": "uint256[2]"
        },
        {
          "internalType": "uint256",
          "name": "deadline",
          "type": "uint256"
        },
        {
          "internalType": "bytes",
          "name": "signature",
          "type": "bytes"
        }
      ],
      "name": "claimNFT",
      "outputs": [],
      "stateMutability": "payable",
      "type": "function"
    },
    {
      "inputs": [
        {
          "internalType": "uint256",
          "name": "orderID",
          "type": "uint256"
        },
        {
          "internalType": "address[2]",
          "name": "fromTo",
          "type": "address[2]"
        },
        {
          "internalType": "address[2]",
          "name": "nftAndToken",
          "type": "address[2]"
        },
        {
          "internalType": "uint256[2]",
          "name": "idAndAmount",
          "type": "uint256[2]"
        },
        {
          "internalType": "address[]",
          "name": "additionalTokenReceivers",
          "type": "address[]"
        },
        {
          "internalType": "uint256[]",
          "name": "allAmounts",
          "type": "uint256[]"
        },
        {
          "internalType": "uint256",
          "name": "deadline",
          "type": "uint256"
        },
        {
          "internalType": "bytes",
          "name": "signature",
          "type": "bytes"
        }
      ],
      "name": "trade",
      "outputs": [],
      "stateMutability": "payable",
      "type": "function"
    },
    {
      "inputs": [
        {
          "internalType": "address[2][]",
          "name": "fromTo",
          "type": "address[2][]"
        },
        {
          "internalType": "address[2][]",
          "name": "nftAndToken",
          "type": "address[2][]"
        },
        {
          "internalType": "uint256[2][]",
          "name": "idAndAmount",
          "type": "uint256[2][]"
        },
        {
          "internalType": "address[][]",
          "name": "additionalTokenReceivers",
          "type": "address[][]"
        },
        {
          "internalType": "uint256[][]",
          "name": "allAmounts",
          "type": "uint256[][]"
        }
      ],
      "name": "forceTradeBatch",
      "outputs": [],
      "stateMutability": "nonpayable",
      "type": "function"
    }
  ],
  "bytecode": "0x608060405234801561001057600080fd5b50612196806100206000396000f3fe6080604052600436106100c25760003560e01c806389e1dceb1161007f57806399748a081161005957806399748a0814610214578063a1ebf35d14610227578063a217fddf14610249578063d547741f1461025e57600080fd5b806389e1dceb146101a45780638e81386c146101d457806391d14854146101f457600080fd5b806301ffc9a7146100c757806320a0889b146100fc578063248a9ca3146101115780632f2ff15d1461014f57806336568abe1461016f5780638129fc1c1461018f575b600080fd5b3480156100d357600080fd5b506100e76100e23660046118db565b61027e565b60405190151581526020015b60405180910390f35b61010f61010a366004611974565b6102b5565b005b34801561011d57600080fd5b5061014161012c366004611a00565b60009081526065602052604090206001015490565b6040519081526020016100f3565b34801561015b57600080fd5b5061010f61016a366004611a19565b6104dc565b34801561017b57600080fd5b5061010f61018a366004611a19565b610506565b34801561019b57600080fd5b5061010f610584565b3480156101b057600080fd5b506100e76101bf366004611a00565b60c96020526000908152604090205460ff1681565b3480156101e057600080fd5b5061010f6101ef366004611acf565b610698565b34801561020057600080fd5b506100e761020f366004611a19565b6107d9565b61010f610222366004611bc0565b610804565b34801561023357600080fd5b5061014160008051602061214183398151915281565b34801561025557600080fd5b50610141600081565b34801561026a57600080fd5b5061010f610279366004611a19565b6109a4565b60006001600160e01b03198216637965db0b60e01b14806102af57506301ffc9a760e01b6001600160e01b03198316145b92915050565b6102bd6109c9565b61038c60008051602061214183398151915261020f610350468b8b8b8b8b6040516020016102f096959493929190611ce2565b60408051601f1981840301815282825280516020918201207f19457468657265756d205369676e6564204d6573736167653a0a33320000000084830152603c8085019190915282518085039091018152605c909301909152815191012090565b85858080601f016020809104026020016040519081016040528093929190818152602001838380828437600092019190915250610a2292505050565b6103d15760405162461bcd60e51b8152602060048201526011602482015270496e76616c6964207369676e617475726560781b60448201526064015b60405180910390fd5b428310156104135760405162461bcd60e51b815260206004820152600f60248201526e111958591b1a5b99481c185cdcd959608a1b60448201526064016103c8565b600087815260c9602052604090205460ff161561046a5760405162461bcd60e51b815260206004820152601560248201527413dc99195c88125108185b1c9958591e481d5cd959605a1b60448201526064016103c8565b600087815260c960205260409020805460ff1916600117905561048e868686610a46565b7f5bb36e33068ddc9c3bf36cef1ca898bb9ad7524e2e1532573c156c5bb4b3e14d8686866040516104c193929190611d60565b60405180910390a16104d36001609755565b50505050505050565b6000828152606560205260409020600101546104f781610b98565b6105018383610ba2565b505050565b6001600160a01b03811633146105765760405162461bcd60e51b815260206004820152602f60248201527f416363657373436f6e74726f6c3a2063616e206f6e6c792072656e6f756e636560448201526e103937b632b9903337b91039b2b63360891b60648201526084016103c8565b6105808282610c28565b5050565b600054610100900460ff16158080156105a45750600054600160ff909116105b806105be5750303b1580156105be575060005460ff166001145b6106215760405162461bcd60e51b815260206004820152602e60248201527f496e697469616c697a61626c653a20636f6e747261637420697320616c72656160448201526d191e481a5b9a5d1a585b1a5e995960921b60648201526084016103c8565b6000805460ff191660011790558015610644576000805461ff0019166101001790555b61064f600033610c8f565b8015610695576000805461ff0019169055604051600181527f7f26b83ff96e1f2b6a682f133852f6798a09c465da95921460cefb38474024989060200160405180910390a15b50565b6000805160206121418339815191526106b081610b98565b89881480156106be57508986145b80156106c957508984145b80156106d457508982145b6107165760405162461bcd60e51b815260206004820152601360248201527209cdedc5adac2e8c6d0d2dcce40d8cadccee8d606b1b60448201526064016103c8565b60005b8a8110156107cb576107b98c8c8381811061073657610736611d8f565b9050604002018b8b8481811061074e5761074e611d8f565b9050604002018a8a8581811061076657610766611d8f565b90506040020189898681811061077e5761077e611d8f565b90506020028101906107909190611da5565b8989888181106107a2576107a2611d8f565b90506020028101906107b49190611da5565b610c99565b806107c381611e05565b915050610719565b505050505050505050505050565b60009182526065602090815260408084206001600160a01b0393909316845291905290205460ff1690565b61080c6109c9565b61084760008051602061214183398151915261020f610350468f8f8f8f8f8f8f8f8f6040516020016102f09a99989796959493929190611e1e565b6108875760405162461bcd60e51b8152602060048201526011602482015270496e76616c6964207369676e617475726560781b60448201526064016103c8565b428310156108c95760405162461bcd60e51b815260206004820152600f60248201526e111958591b1a5b99481c185cdcd959608a1b60448201526064016103c8565b60008b815260c9602052604090205460ff16156109205760405162461bcd60e51b815260206004820152601560248201527413dc99195c88125108185b1c9958591e481d5cd959605a1b60448201526064016103c8565b60008b815260c960205260409020805460ff191660011790556109488a8a8a8a8a8a8a610c99565b7f8aa712bdfae8a5e4c7a931f7c3d5183e3ba99fd97d37d72b5ce1bdc47244c0938b8b8b8b8b8b8b8b604051610985989796959493929190611eb5565b60405180910390a16109976001609755565b5050505050505050505050565b6000828152606560205260409020600101546109bf81610b98565b6105018383610c28565b600260975403610a1b5760405162461bcd60e51b815260206004820152601f60248201527f5265656e7472616e637947756172643a207265656e7472616e742063616c6c0060448201526064016103c8565b6002609755565b6000806000610a318585611172565b91509150610a3e816111b7565b509392505050565b610a566040840160208501611f63565b6001600160a01b0316336001600160a01b031614610aa55760405162461bcd60e51b815260206004820152600c60248201526b2bb937b7339039b2b73232b960a11b60448201526064016103c8565b6020810135600003610b41576001600160a01b0382166342842e0e610acd6020860186611f63565b610add6040870160208801611f63565b60405160e084901b6001600160e01b03191681526001600160a01b03928316600482015291166024820152833560448201526064015b600060405180830381600087803b158015610b2d57600080fd5b505af11580156104d3573d6000803e3d6000fd5b6001600160a01b03821663f242432a610b5d6020860186611f63565b610b6d6040870160208801611f63565b6040516001600160e01b031960e085901b168152610b13929190863590602088013590600401611f7e565b6106958133611301565b610bac82826107d9565b6105805760008281526065602090815260408083206001600160a01b03851684529091529020805460ff19166001179055610be43390565b6001600160a01b0316816001600160a01b0316837f2f8788117e7eff1d82e926ec794901d17c78024a50270940304540a733656f0d60405160405180910390a45050565b610c3282826107d9565b156105805760008281526065602090815260408083206001600160a01b0385168085529252808320805460ff1916905551339285917ff6391f5c32d9c69d2a47ea670b442974b53935d1edc7fd64eb21e047a839171b9190a45050565b6105808282610ba2565b610ca4600182611fb6565b8314610ce35760405162461bcd60e51b815260206004820152600e60248201526d092dcecc2d8d2c840d8cadccee8d60931b60448201526064016103c8565b610cf36040880160208901611f63565b6001600160a01b0316336001600160a01b031614610d425760405162461bcd60e51b815260206004820152600c60248201526b2bb937b7339039b2b73232b960a11b60448201526064016103c8565b610d526040870160208801611f63565b6001600160a01b031673eeeeeeeeeeeeeeeeeeeeeeeeeeeeeeeeeeeeeeee03610ec857610d7f828261135a565b3414610dc45760405162461bcd60e51b815260206004820152601460248201527315dc9bdb99c81c185e5b595b9d08185b5bdd5b9d60621b60448201526064016103c8565b610dd16020880188611f63565b6001600160a01b03166108fc83836000818110610df057610df0611d8f565b905060200201359081150290604051600060405180830381858888f19350505050158015610e22573d6000803e3d6000fd5b5060005b83811015610ec257848482818110610e4057610e40611d8f565b9050602002016020810190610e559190611f63565b6001600160a01b03166108fc8484610e6e856001611fc9565b818110610e7d57610e7d611d8f565b905060200201359081150290604051600060405180830381858888f19350505050158015610eaf573d6000803e3d6000fd5b5080610eba81611e05565b915050610e26565b50611031565b3415610f325760405162461bcd60e51b815260206004820152603360248201527f43616e6e6f742073656e64206e61746976652063757272656e6379207768696c60448201527232903830bcb4b733903bb4ba34103a37b5b2b760691b60648201526084016103c8565b6000610f446040880160208901611f63565b9050610f9a610f5960408a0160208b01611f63565b610f6660208b018b611f63565b85856000818110610f7957610f79611d8f565b90506020020135846001600160a01b03166113a0909392919063ffffffff16565b60005b8481101561102e5761101c610fb860408b0160208c01611f63565b878784818110610fca57610fca611d8f565b9050602002016020810190610fdf9190611f63565b8686610fec866001611fc9565b818110610ffb57610ffb611d8f565b90506020020135856001600160a01b03166113a0909392919063ffffffff16565b8061102681611e05565b915050610f9d565b50505b60208501356000036110e15761104a6020870187611f63565b6001600160a01b03166342842e0e61106560208a018a611f63565b61107560408b0160208c01611f63565b60405160e084901b6001600160e01b03191681526001600160a01b0392831660048201529116602482015287356044820152606401600060405180830381600087803b1580156110c457600080fd5b505af11580156110d8573d6000803e3d6000fd5b505050506104d3565b6110ee6020870187611f63565b6001600160a01b031663f242432a61110960208a018a611f63565b61111960408b0160208c01611f63565b6040516001600160e01b031960e085901b1681526111449291908a359060208c013590600401611f7e565b600060405180830381600087803b15801561115e57600080fd5b505af1158015610997573d6000803e3d6000fd5b60008082516041036111a85760208301516040840151606085015160001a61119c87828585611400565b945094505050506111b0565b506000905060025b9250929050565b60008160048111156111cb576111cb611fdc565b036111d35750565b60018160048111156111e7576111e7611fdc565b036112345760405162461bcd60e51b815260206004820152601860248201527f45434453413a20696e76616c6964207369676e6174757265000000000000000060448201526064016103c8565b600281600481111561124857611248611fdc565b036112955760405162461bcd60e51b815260206004820152601f60248201527f45434453413a20696e76616c6964207369676e6174757265206c656e6774680060448201526064016103c8565b60038160048111156112a9576112a9611fdc565b036106955760405162461bcd60e51b815260206004820152602260248201527f45434453413a20696e76616c6964207369676e6174757265202773272076616c604482015261756560f01b60648201526084016103c8565b61130b82826107d9565b61058057611318816114c4565b6113238360206114d6565b604051602001611334929190612016565b60408051601f198184030181529082905262461bcd60e51b82526103c89160040161208b565b60008060005b83811015610a3e5784848281811061137a5761137a611d8f565b905060200201358261138c9190611fc9565b91508061139881611e05565b915050611360565b604080516001600160a01b0385811660248301528416604482015260648082018490528251808303909101815260849091019091526020810180516001600160e01b03166323b872dd60e01b1790526113fa908590611679565b50505050565b6000807f7fffffffffffffffffffffffffffffff5d576e7357a4501ddfe92f46681b20a083111561143757506000905060036114bb565b6040805160008082526020820180845289905260ff881692820192909252606081018690526080810185905260019060a0016020604051602081039080840390855afa15801561148b573d6000803e3d6000fd5b5050604051601f1901519150506001600160a01b0381166114b4576000600192509250506114bb565b9150600090505b94509492505050565b60606102af6001600160a01b03831660145b606060006114e58360026120be565b6114f0906002611fc9565b67ffffffffffffffff811115611508576115086120d5565b6040519080825280601f01601f191660200182016040528015611532576020820181803683370190505b509050600360fc1b8160008151811061154d5761154d611d8f565b60200101906001600160f81b031916908160001a905350600f60fb1b8160018151811061157c5761157c611d8f565b60200101906001600160f81b031916908160001a90535060006115a08460026120be565b6115ab906001611fc9565b90505b6001811115611623576f181899199a1a9b1b9c1cb0b131b232b360811b85600f16601081106115df576115df611d8f565b1a60f81b8282815181106115f5576115f5611d8f565b60200101906001600160f81b031916908160001a90535060049490941c9361161c816120eb565b90506115ae565b5083156116725760405162461bcd60e51b815260206004820181905260248201527f537472696e67733a20686578206c656e67746820696e73756666696369656e7460448201526064016103c8565b9392505050565b60006116ce826040518060400160405280602081526020017f5361666545524332303a206c6f772d6c6576656c2063616c6c206661696c6564815250856001600160a01b031661174b9092919063ffffffff16565b80519091501561050157808060200190518101906116ec9190612102565b6105015760405162461bcd60e51b815260206004820152602a60248201527f5361666545524332303a204552433230206f7065726174696f6e20646964206e6044820152691bdd081cdd58d8d9595960b21b60648201526084016103c8565b606061175a8484600085611762565b949350505050565b6060824710156117c35760405162461bcd60e51b815260206004820152602660248201527f416464726573733a20696e73756666696369656e742062616c616e636520666f6044820152651c8818d85b1b60d21b60648201526084016103c8565b600080866001600160a01b031685876040516117df9190612124565b60006040518083038185875af1925050503d806000811461181c576040519150601f19603f3d011682016040523d82523d6000602084013e611821565b606091505b50915091506118328783838761183d565b979650505050505050565b606083156118ac5782516000036118a5576001600160a01b0385163b6118a55760405162461bcd60e51b815260206004820152601d60248201527f416464726573733a2063616c6c20746f206e6f6e2d636f6e747261637400000060448201526064016103c8565b508161175a565b61175a83838151156118c15781518083602001fd5b8060405162461bcd60e51b81526004016103c8919061208b565b6000602082840312156118ed57600080fd5b81356001600160e01b03198116811461167257600080fd5b80604081018310156102af57600080fd5b80356001600160a01b038116811461192d57600080fd5b919050565b60008083601f84011261194457600080fd5b50813567ffffffffffffffff81111561195c57600080fd5b6020830191508360208285010111156111b057600080fd5b6000806000806000806000610100888a03121561199057600080fd5b873596506119a18960208a01611905565b95506119af60608901611916565b94506119be8960808a01611905565b935060c0880135925060e088013567ffffffffffffffff8111156119e157600080fd5b6119ed8a828b01611932565b989b979a50959850939692959293505050565b600060208284031215611a1257600080fd5b5035919050565b60008060408385031215611a2c57600080fd5b82359150611a3c60208401611916565b90509250929050565b60008083601f840112611a5757600080fd5b50813567ffffffffffffffff811115611a6f57600080fd5b6020830191508360208260061b85010111156111b057600080fd5b60008083601f840112611a9c57600080fd5b50813567ffffffffffffffff811115611ab457600080fd5b6020830191508360208260051b85010111156111b057600080fd5b60008060008060008060008060008060a08b8d031215611aee57600080fd5b8a3567ffffffffffffffff80821115611b0657600080fd5b611b128e838f01611a45565b909c509a5060208d0135915080821115611b2b57600080fd5b611b378e838f01611a45565b909a50985060408d0135915080821115611b5057600080fd5b611b5c8e838f01611a45565b909850965060608d0135915080821115611b7557600080fd5b611b818e838f01611a8a565b909650945060808d0135915080821115611b9a57600080fd5b50611ba78d828e01611a8a565b915080935050809150509295989b9194979a5092959850565b60008060008060008060008060008060006101608c8e031215611be257600080fd5b8b359a50611bf38d60208e01611905565b9950611c028d60608e01611905565b9850611c118d60a08e01611905565b975067ffffffffffffffff8060e08e01351115611c2d57600080fd5b611c3d8e60e08f01358f01611a8a565b90985096506101008d0135811015611c5457600080fd5b611c658e6101008f01358f01611a8a565b90965094506101208d013593506101408d0135811015611c8457600080fd5b50611c968d6101408e01358e01611932565b81935080925050509295989b509295989b9093969950565b8060005b60028110156113fa576001600160a01b03611ccc83611916565b1684526020938401939190910190600101611cb2565b868152856020820152611cf86040820186611cae565b6bffffffffffffffffffffffff198460601b166080820152604083609483013760d481019190915260f40195945050505050565b8060005b60028110156113fa576001600160a01b03611d4a83611916565b1684526020938401939190910190600101611d30565b60a08101611d6e8286611d2c565b6001600160a01b038416604083810191909152836060840137949350505050565b634e487b7160e01b600052603260045260246000fd5b6000808335601e19843603018112611dbc57600080fd5b83018035915067ffffffffffffffff821115611dd757600080fd5b6020019150600581901b36038213156111b057600080fd5b634e487b7160e01b600052601160045260246000fd5b600060018201611e1757611e17611def565b5060010190565b8a8152600060208b81840152611e37604084018c611cae565b611e44608084018b611cae565b60408960c085013761010083018860005b89811015611e81576001600160a01b03611e6e83611916565b1683529183019190830190600101611e55565b50506001600160fb1b03861115611e9757600080fd5b8560051b80888337019384529092019b9a5050505050505050505050565b60006101208083018b84526020611ece8186018d611d2c565b611edb606086018c611d2c565b60408a60a087013760e0850192909252869052610140830190879060005b88811015611f25576001600160a01b03611f1284611916565b1684529281019291810191600101611ef9565b508483036101008601528583526001600160fb1b03861115611f4657600080fd5b8560051b91508187828501379101019a9950505050505050505050565b600060208284031215611f7557600080fd5b61167282611916565b6001600160a01b0394851681529290931660208301526040820152606081019190915260a06080820181905260009082015260c00190565b818103818111156102af576102af611def565b808201808211156102af576102af611def565b634e487b7160e01b600052602160045260246000fd5b60005b8381101561200d578181015183820152602001611ff5565b50506000910152565b7f416363657373436f6e74726f6c3a206163636f756e742000000000000000000081526000835161204e816017850160208801611ff2565b7001034b99036b4b9b9b4b733903937b6329607d1b601791840191820152835161207f816028840160208801611ff2565b01602801949350505050565b60208152600082518060208401526120aa816040850160208701611ff2565b601f01601f19169190910160400192915050565b80820281158282048414176102af576102af611def565b634e487b7160e01b600052604160045260246000fd5b6000816120fa576120fa611def565b506000190190565b60006020828403121561211457600080fd5b8151801515811461167257600080fd5b60008251612136818460208701611ff2565b919091019291505056fee2f4eaae4a9751e85a3e4a7b9587827a877f29914755229b07a7b2da98285f70a26469706673582212207abe91315ad54984a18d93c39fd9b3505c5cc7a407282f4c470abec1b9a5e30964736f6c63430008130033",
  "immutableReferences": {},
  "source": "// SPDX-License-Identifier: MIT\npragma solidity ^0.8.16;\n\nimport \"@openzeppelin/contracts-upgradeable/access/AccessControlUpgradeable.sol\";\nimport \"@openzeppelin/contracts-upgradeable/security/ReentrancyGuardUpgradeable.sol\";\nimport \"@openzeppelin/contracts-upgradeable/utils/cryptography/ECDSAUpgradeable.sol\";\nimport \"@openzeppelin/contracts-upgradeable/token/ERC721/IERC721Upgradeable.sol\";\nimport \"@openzeppelin/contracts-upgradeable/token/ERC1155/IERC1155Upgradeable.sol\";\nimport \"@openzeppelin/contracts-upgradeable/token/ERC20/utils/SafeERC20Upgradeable.sol\";\nimport \"@openzeppelin/contracts-upgradeable/proxy/utils/Initializable.sol\";\n\ncontract ExchangeUpgradeable is Initializable, AccessControlUpgradeable, ReentrancyGuardUpgradeable {\n    using SafeERC20Upgradeable for IERC20Upgradeable;\n\n    bytes32 public constant SIGNER_ROLE = keccak256(\"SIGNER_ROLE\");\n\n    mapping(uint256 => bool) public orderIDUsed;\n\n    event Trade(\n        uint256 orderID,\n        address[2] fromTo,\n        address[2] nftAndToken,\n        uint256[2] idAndAmount,\n        address[] additionalTokenReceivers,\n        uint256[] allAmounts\n    );\n\n    event Claim(\n        address[2] fromTo,\n        address nftAddress,\n        uint256[2] idAndAmount\n    );\n\n    // constructor() {\n    //     _setupRole(DEFAULT_ADMIN_ROLE, _msgSender());\n    // }\n    function initialize() public initializer{\n        _setupRole(DEFAULT_ADMIN_ROLE, _msgSender());\n    }\n\n    function claimNFT(\n        uint256 orderID,\n        address[2] calldata fromTo,\n        address nftAddress,\n        uint256[2] calldata idAndAmount,\n        uint256 deadline,\n        bytes calldata signature\n    ) external payable nonReentrant{\n        require(\n            hasRole(\n                SIGNER_ROLE,\n                ECDSAUpgradeable.recover(\n                    ECDSAUpgradeable.toEthSignedMessageHash(\n                        keccak256(\n                            abi.encodePacked(\n                                block.chainid,\n                                orderID,\n                                fromTo,\n                                nftAddress,\n                                idAndAmount,\n                                deadline\n                            )\n                        )\n                    ),\n                    signature\n                )\n            ),\n            \"Invalid signature\"\n        );\n        require(deadline >= block.timestamp, \"Deadline passed\");\n        require(!orderIDUsed[orderID], \"Order ID already used\");\n        orderIDUsed[orderID] = true;\n        _claim(\n            fromTo,\n            nftAddress,\n            idAndAmount\n        );\n        emit Claim(            \n            fromTo,\n            nftAddress,\n            idAndAmount\n        );\n    }\n\n    function trade(\n        uint256 orderID,\n        address[2] calldata fromTo,\n        address[2] calldata nftAndToken,\n        uint256[2] calldata idAndAmount,\n        address[] calldata additionalTokenReceivers,\n        uint256[] calldata allAmounts,\n        uint256 deadline,\n        bytes calldata signature\n    ) external payable nonReentrant {\n        require(\n            hasRole(\n                SIGNER_ROLE,\n                ECDSAUpgradeable.recover(\n                    ECDSAUpgradeable.toEthSignedMessageHash(\n                        keccak256(\n                            abi.encodePacked(\n                                block.chainid,\n                                orderID,\n                                fromTo,\n                                nftAndToken,\n                                idAndAmount,\n                                additionalTokenReceivers,\n                                allAmounts,\n                                deadline\n                            )\n                        )\n                    ),\n                    signature\n                )\n            ),\n            \"Invalid signature\"\n        );\n        require(deadline >= block.timestamp, \"Deadline passed\");\n        require(!orderIDUsed[orderID], \"Order ID already used\");\n        orderIDUsed[orderID] = true;\n        _trade(\n            fromTo,\n            nftAndToken,\n            idAndAmount,\n            additionalTokenReceivers,\n            allAmounts\n        );\n        emit Trade(\n            orderID,\n            fromTo,\n            nftAndToken,\n            idAndAmount,\n            additionalTokenReceivers,\n            allAmounts\n        );\n    }\n\n    function forceTradeBatch(\n        address[2][] calldata fromTo,\n        address[2][] calldata nftAndToken,\n        uint256[2][] calldata idAndAmount,\n        address[][] calldata additionalTokenReceivers,\n        uint256[][] calldata allAmounts\n    ) external onlyRole(SIGNER_ROLE) {\n        require(\n            fromTo.length == nftAndToken.length &&\n                fromTo.length == idAndAmount.length &&\n                fromTo.length == additionalTokenReceivers.length &&\n                fromTo.length == allAmounts.length,\n            \"Non-matching length\"\n        );\n        for (uint256 i; i < fromTo.length; i++) {\n            _trade(\n                fromTo[i],\n                nftAndToken[i],\n                idAndAmount[i],\n                additionalTokenReceivers[i],\n                allAmounts[i]\n            );\n        }\n    }\n\n    function _sum(uint256[] calldata array) private pure returns (uint256) {\n        uint256 sum;\n        for (uint256 i; i < array.length; i++) {\n            sum += array[i];\n        }\n        return sum;\n    }\n\n    function _trade(\n        address[2] calldata fromTo,\n        address[2] calldata nftAndToken,\n        uint256[2] calldata idAndAmount,\n        address[] calldata additionalTokenReceivers,\n        uint256[] calldata allAmounts\n    ) private {\n        require(\n            additionalTokenReceivers.length == allAmounts.length - 1,\n            \"Invalid length\"\n        );\n        require(_msgSender() == fromTo[1], \"Wrong sender\");\n        if (nftAndToken[1] == 0xEeeeeEeeeEeEeeEeEeEeeEEEeeeeEeeeeeeeEEeE) {\n            require(msg.value == _sum(allAmounts), \"Wrong payment amount\");\n            payable(fromTo[0]).transfer(allAmounts[0]);\n            for (uint256 i; i < additionalTokenReceivers.length; i++) {\n                payable(additionalTokenReceivers[i]).transfer(\n                    allAmounts[i + 1]\n                );\n            }\n        } else {\n            require(\n                msg.value == 0,\n                \"Cannot send native currency while paying with token\"\n            );\n            IERC20Upgradeable token = IERC20Upgradeable(nftAndToken[1]);\n            token.safeTransferFrom(fromTo[1], fromTo[0], allAmounts[0]);\n            for (uint256 i; i < additionalTokenReceivers.length; i++) {\n                token.safeTransferFrom(\n                    fromTo[1],\n                    additionalTokenReceivers[i],\n                    allAmounts[i + 1]\n                );\n            }\n        }\n        if (idAndAmount[1] == 0) {\n            IERC721Upgradeable(nftAndToken[0]).safeTransferFrom(\n                fromTo[0],\n                fromTo[1],\n                idAndAmount[0]\n            );\n        } else {\n            IERC1155Upgradeable(nftAndToken[0]).safeTransferFrom(\n                fromTo[0],\n                fromTo[1],\n                idAndAmount[0],\n                idAndAmount[1],\n                \"\"\n            );\n        }\n    }\n\n    function _claim(\n        address[2] calldata fromTo,\n        address nftAddress,\n        uint256[2] calldata idAndAmount\n    ) private {\n        require(_msgSender() == fromTo[1], \"Wrong sender\");\n        if (idAndAmount[1] == 0) {\n            IERC721Upgradeable(nftAddress).safeTransferFrom(\n                fromTo[0],\n                fromTo[1],\n                idAndAmount[0]\n            );\n        } else {\n            IERC1155Upgradeable(nftAddress).safeTransferFrom(\n                fromTo[0],\n                fromTo[1],\n                idAndAmount[0],\n                idAndAmount[1],\n                \"\"\n            );\n        }\n    }\n}\n",
  "sourcePath": "/Users/huy8bit/Desktop/DRIVE/JOB/ATOM SOLUTION/TASK/inz-dapp-api/dev/inz-smc/contracts/mkp/ExchangeUpgradeable.sol",
  "compiler": {
    "name": "solc",
    "version": "0.8.19+commit.7dd6d404.Emscripten.clang"
  },
  "schemaVersion": "3.4.14",
  "updatedAt": "2023-08-28T08:04:22.899Z",
  "devdoc": {
    "events": {
      "Initialized(uint8)": {
        "details": "Triggered when the contract has been initialized or reinitialized."
      },
      "RoleAdminChanged(bytes32,bytes32,bytes32)": {
        "details": "Emitted when `newAdminRole` is set as ``role``'s admin role, replacing `previousAdminRole` `DEFAULT_ADMIN_ROLE` is the starting admin for all roles, despite {RoleAdminChanged} not being emitted signaling this. _Available since v3.1._"
      },
      "RoleGranted(bytes32,address,address)": {
        "details": "Emitted when `account` is granted `role`. `sender` is the account that originated the contract call, an admin role bearer except when using {AccessControl-_setupRole}."
      },
      "RoleRevoked(bytes32,address,address)": {
        "details": "Emitted when `account` is revoked `role`. `sender` is the account that originated the contract call:   - if using `revokeRole`, it is the admin role bearer   - if using `renounceRole`, it is the role bearer (i.e. `account`)"
      }
    },
    "kind": "dev",
    "methods": {
      "getRoleAdmin(bytes32)": {
        "details": "Returns the admin role that controls `role`. See {grantRole} and {revokeRole}. To change a role's admin, use {_setRoleAdmin}."
      },
      "grantRole(bytes32,address)": {
        "details": "Grants `role` to `account`. If `account` had not been already granted `role`, emits a {RoleGranted} event. Requirements: - the caller must have ``role``'s admin role. May emit a {RoleGranted} event."
      },
      "hasRole(bytes32,address)": {
        "details": "Returns `true` if `account` has been granted `role`."
      },
      "renounceRole(bytes32,address)": {
        "details": "Revokes `role` from the calling account. Roles are often managed via {grantRole} and {revokeRole}: this function's purpose is to provide a mechanism for accounts to lose their privileges if they are compromised (such as when a trusted device is misplaced). If the calling account had been revoked `role`, emits a {RoleRevoked} event. Requirements: - the caller must be `account`. May emit a {RoleRevoked} event."
      },
      "revokeRole(bytes32,address)": {
        "details": "Revokes `role` from `account`. If `account` had been granted `role`, emits a {RoleRevoked} event. Requirements: - the caller must have ``role``'s admin role. May emit a {RoleRevoked} event."
      },
      "supportsInterface(bytes4)": {
        "details": "See {IERC165-supportsInterface}."
      }
    },
    "version": 1
  },
  "userdoc": {
    "kind": "user",
    "methods": {},
    "version": 1
  }
}