{
  "contractName": "Exchange",
  "abi": [
    {
      "inputs": [],
      "stateMutability": "nonpayable",
      "type": "constructor"
    },
    {
      "anonymous": false,
      "inputs": [
        {
          "indexed": true,
          "internalType": "bytes32",
          "name": "role",
          "type": "bytes32"
        },
        {
          "indexed": true,
          "internalType": "bytes32",
          "name": "previousAdminRole",
          "type": "bytes32"
        },
        {
          "indexed": true,
          "internalType": "bytes32",
          "name": "newAdminRole",
          "type": "bytes32"
        }
      ],
      "name": "RoleAdminChanged",
      "type": "event"
    },
    {
      "anonymous": false,
      "inputs": [
        {
          "indexed": true,
          "internalType": "bytes32",
          "name": "role",
          "type": "bytes32"
        },
        {
          "indexed": true,
          "internalType": "address",
          "name": "account",
          "type": "address"
        },
        {
          "indexed": true,
          "internalType": "address",
          "name": "sender",
          "type": "address"
        }
      ],
      "name": "RoleGranted",
      "type": "event"
    },
    {
      "anonymous": false,
      "inputs": [
        {
          "indexed": true,
          "internalType": "bytes32",
          "name": "role",
          "type": "bytes32"
        },
        {
          "indexed": true,
          "internalType": "address",
          "name": "account",
          "type": "address"
        },
        {
          "indexed": true,
          "internalType": "address",
          "name": "sender",
          "type": "address"
        }
      ],
      "name": "RoleRevoked",
      "type": "event"
    },
    {
      "anonymous": false,
      "inputs": [
        {
          "indexed": false,
          "internalType": "uint256",
          "name": "orderID",
          "type": "uint256"
        },
        {
          "indexed": false,
          "internalType": "address[2]",
          "name": "fromTo",
          "type": "address[2]"
        },
        {
          "indexed": false,
          "internalType": "address[2]",
          "name": "nftAndToken",
          "type": "address[2]"
        },
        {
          "indexed": false,
          "internalType": "uint256[2]",
          "name": "idAndAmount",
          "type": "uint256[2]"
        },
        {
          "indexed": false,
          "internalType": "address[]",
          "name": "additionalTokenReceivers",
          "type": "address[]"
        },
        {
          "indexed": false,
          "internalType": "uint256[]",
          "name": "allAmounts",
          "type": "uint256[]"
        }
      ],
      "name": "Trade",
      "type": "event"
    },
    {
      "inputs": [],
      "name": "DEFAULT_ADMIN_ROLE",
      "outputs": [
        {
          "internalType": "bytes32",
          "name": "",
          "type": "bytes32"
        }
      ],
      "stateMutability": "view",
      "type": "function"
    },
    {
      "inputs": [],
      "name": "SIGNER_ROLE",
      "outputs": [
        {
          "internalType": "bytes32",
          "name": "",
          "type": "bytes32"
        }
      ],
      "stateMutability": "view",
      "type": "function"
    },
    {
      "inputs": [
        {
          "internalType": "bytes32",
          "name": "role",
          "type": "bytes32"
        }
      ],
      "name": "getRoleAdmin",
      "outputs": [
        {
          "internalType": "bytes32",
          "name": "",
          "type": "bytes32"
        }
      ],
      "stateMutability": "view",
      "type": "function"
    },
    {
      "inputs": [
        {
          "internalType": "bytes32",
          "name": "role",
          "type": "bytes32"
        },
        {
          "internalType": "address",
          "name": "account",
          "type": "address"
        }
      ],
      "name": "grantRole",
      "outputs": [],
      "stateMutability": "nonpayable",
      "type": "function"
    },
    {
      "inputs": [
        {
          "internalType": "bytes32",
          "name": "role",
          "type": "bytes32"
        },
        {
          "internalType": "address",
          "name": "account",
          "type": "address"
        }
      ],
      "name": "hasRole",
      "outputs": [
        {
          "internalType": "bool",
          "name": "",
          "type": "bool"
        }
      ],
      "stateMutability": "view",
      "type": "function"
    },
    {
      "inputs": [
        {
          "internalType": "uint256",
          "name": "",
          "type": "uint256"
        }
      ],
      "name": "orderIDUsed",
      "outputs": [
        {
          "internalType": "bool",
          "name": "",
          "type": "bool"
        }
      ],
      "stateMutability": "view",
      "type": "function"
    },
    {
      "inputs": [
        {
          "internalType": "bytes32",
          "name": "role",
          "type": "bytes32"
        },
        {
          "internalType": "address",
          "name": "account",
          "type": "address"
        }
      ],
      "name": "renounceRole",
      "outputs": [],
      "stateMutability": "nonpayable",
      "type": "function"
    },
    {
      "inputs": [
        {
          "internalType": "bytes32",
          "name": "role",
          "type": "bytes32"
        },
        {
          "internalType": "address",
          "name": "account",
          "type": "address"
        }
      ],
      "name": "revokeRole",
      "outputs": [],
      "stateMutability": "nonpayable",
      "type": "function"
    },
    {
      "inputs": [
        {
          "internalType": "bytes4",
          "name": "interfaceId",
          "type": "bytes4"
        }
      ],
      "name": "supportsInterface",
      "outputs": [
        {
          "internalType": "bool",
          "name": "",
          "type": "bool"
        }
      ],
      "stateMutability": "view",
      "type": "function"
    },
    {
      "inputs": [
        {
          "internalType": "uint256",
          "name": "orderID",
          "type": "uint256"
        },
        {
          "internalType": "address[2]",
          "name": "fromTo",
          "type": "address[2]"
        },
        {
          "internalType": "address[2]",
          "name": "nftAndToken",
          "type": "address[2]"
        },
        {
          "internalType": "uint256[2]",
          "name": "idAndAmount",
          "type": "uint256[2]"
        },
        {
          "internalType": "address[]",
          "name": "additionalTokenReceivers",
          "type": "address[]"
        },
        {
          "internalType": "uint256[]",
          "name": "allAmounts",
          "type": "uint256[]"
        },
        {
          "internalType": "uint256",
          "name": "deadline",
          "type": "uint256"
        },
        {
          "internalType": "bytes",
          "name": "signature",
          "type": "bytes"
        }
      ],
      "name": "trade",
      "outputs": [],
      "stateMutability": "payable",
      "type": "function"
    },
    {
      "inputs": [
        {
          "internalType": "address[2][]",
          "name": "fromTo",
          "type": "address[2][]"
        },
        {
          "internalType": "address[2][]",
          "name": "nftAndToken",
          "type": "address[2][]"
        },
        {
          "internalType": "uint256[2][]",
          "name": "idAndAmount",
          "type": "uint256[2][]"
        },
        {
          "internalType": "address[][]",
          "name": "additionalTokenReceivers",
          "type": "address[][]"
        },
        {
          "internalType": "uint256[][]",
          "name": "allAmounts",
          "type": "uint256[][]"
        }
      ],
      "name": "forceTradeBatch",
      "outputs": [],
      "stateMutability": "nonpayable",
      "type": "function"
    }
  ],
  "bytecode": "0x608060405234801561001057600080fd5b5060018055610020600033610025565b6100d1565b61002f8282610033565b5050565b6000828152602081815260408083206001600160a01b038516845290915290205460ff1661002f576000828152602081815260408083206001600160a01b03851684529091529020805460ff1916600117905561008d3390565b6001600160a01b0316816001600160a01b0316837f2f8788117e7eff1d82e926ec794901d17c78024a50270940304540a733656f0d60405160405180910390a45050565b611c3e80620000e16000396000f3fe60806040526004361061009c5760003560e01c80638e81386c116100645780638e81386c1461018657806391d14854146101a657806399748a08146101c6578063a1ebf35d146101d9578063a217fddf1461020d578063d547741f1461022257600080fd5b806301ffc9a7146100a1578063248a9ca3146100d65780632f2ff15d1461011457806336568abe1461013657806389e1dceb14610156575b600080fd5b3480156100ad57600080fd5b506100c16100bc3660046114e0565b610242565b60405190151581526020015b60405180910390f35b3480156100e257600080fd5b506101066100f136600461150a565b60009081526020819052604090206001015490565b6040519081526020016100cd565b34801561012057600080fd5b5061013461012f36600461153f565b610279565b005b34801561014257600080fd5b5061013461015136600461153f565b6102a3565b34801561016257600080fd5b506100c161017136600461150a565b60026020526000908152604090205460ff1681565b34801561019257600080fd5b506101346101a13660046115f5565b610326565b3480156101b257600080fd5b506100c16101c136600461153f565b610479565b6101346101d4366004611739565b6104a2565b3480156101e557600080fd5b506101067fe2f4eaae4a9751e85a3e4a7b9587827a877f29914755229b07a7b2da98285f7081565b34801561021957600080fd5b50610106600081565b34801561022e57600080fd5b5061013461023d36600461153f565b6106d8565b60006001600160e01b03198216637965db0b60e01b148061027357506301ffc9a760e01b6001600160e01b03198316145b92915050565b600082815260208190526040902060010154610294816106fd565b61029e838361070a565b505050565b6001600160a01b03811633146103185760405162461bcd60e51b815260206004820152602f60248201527f416363657373436f6e74726f6c3a2063616e206f6e6c792072656e6f756e636560448201526e103937b632b9903337b91039b2b63360891b60648201526084015b60405180910390fd5b610322828261078e565b5050565b7fe2f4eaae4a9751e85a3e4a7b9587827a877f29914755229b07a7b2da98285f70610350816106fd565b898814801561035e57508986145b801561036957508984145b801561037457508982145b6103b65760405162461bcd60e51b815260206004820152601360248201527209cdedc5adac2e8c6d0d2dcce40d8cadccee8d606b1b604482015260640161030f565b60005b8a81101561046b576104598c8c838181106103d6576103d6611827565b9050604002018b8b848181106103ee576103ee611827565b9050604002018a8a8581811061040657610406611827565b90506040020189898681811061041e5761041e611827565b9050602002810190610430919061183d565b89898881811061044257610442611827565b9050602002810190610454919061183d565b6107f3565b806104638161189d565b9150506103b9565b505050505050505050505050565b6000918252602082815260408084206001600160a01b0393909316845291905290205460ff1690565b6104aa610cf7565b61057c7fe2f4eaae4a9751e85a3e4a7b9587827a877f29914755229b07a7b2da98285f706101c1610540468f8f8f8f8f8f8f8f8f6040516020016104f79a999897969594939291906118ea565b604051602081830303815290604052805190602001207f19457468657265756d205369676e6564204d6573736167653a0a3332000000006000908152601c91909152603c902090565b85858080601f016020809104026020016040519081016040528093929190818152602001838380828437600092019190915250610d5092505050565b6105bc5760405162461bcd60e51b8152602060048201526011602482015270496e76616c6964207369676e617475726560781b604482015260640161030f565b428310156105fe5760405162461bcd60e51b815260206004820152600f60248201526e111958591b1a5b99481c185cdcd959608a1b604482015260640161030f565b60008b81526002602052604090205460ff16156106555760405162461bcd60e51b815260206004820152601560248201527413dc99195c88125108185b1c9958591e481d5cd959605a1b604482015260640161030f565b60008b8152600260205260409020805460ff1916600117905561067d8a8a8a8a8a8a8a6107f3565b7f8aa712bdfae8a5e4c7a931f7c3d5183e3ba99fd97d37d72b5ce1bdc47244c0938b8b8b8b8b8b8b8b6040516106ba9897969594939291906119b5565b60405180910390a16106cb60018055565b5050505050505050505050565b6000828152602081905260409020600101546106f3816106fd565b61029e838361078e565b6107078133610d74565b50565b6107148282610479565b610322576000828152602081815260408083206001600160a01b03851684529091529020805460ff1916600117905561074a3390565b6001600160a01b0316816001600160a01b0316837f2f8788117e7eff1d82e926ec794901d17c78024a50270940304540a733656f0d60405160405180910390a45050565b6107988282610479565b15610322576000828152602081815260408083206001600160a01b0385168085529252808320805460ff1916905551339285917ff6391f5c32d9c69d2a47ea670b442974b53935d1edc7fd64eb21e047a839171b9190a45050565b6107fe600182611a63565b831461083d5760405162461bcd60e51b815260206004820152600e60248201526d092dcecc2d8d2c840d8cadccee8d60931b604482015260640161030f565b61084d6040880160208901611a76565b6001600160a01b0316336001600160a01b03161461089c5760405162461bcd60e51b815260206004820152600c60248201526b2bb937b7339039b2b73232b960a11b604482015260640161030f565b6108ac6040870160208801611a76565b6001600160a01b031673eeeeeeeeeeeeeeeeeeeeeeeeeeeeeeeeeeeeeeee03610a22576108d98282610dcd565b341461091e5760405162461bcd60e51b815260206004820152601460248201527315dc9bdb99c81c185e5b595b9d08185b5bdd5b9d60621b604482015260640161030f565b61092b6020880188611a76565b6001600160a01b03166108fc8383600081811061094a5761094a611827565b905060200201359081150290604051600060405180830381858888f1935050505015801561097c573d6000803e3d6000fd5b5060005b83811015610a1c5784848281811061099a5761099a611827565b90506020020160208101906109af9190611a76565b6001600160a01b03166108fc84846109c8856001611a91565b8181106109d7576109d7611827565b905060200201359081150290604051600060405180830381858888f19350505050158015610a09573d6000803e3d6000fd5b5080610a148161189d565b915050610980565b50610b8b565b3415610a8c5760405162461bcd60e51b815260206004820152603360248201527f43616e6e6f742073656e64206e61746976652063757272656e6379207768696c60448201527232903830bcb4b733903bb4ba34103a37b5b2b760691b606482015260840161030f565b6000610a9e6040880160208901611a76565b9050610af4610ab360408a0160208b01611a76565b610ac060208b018b611a76565b85856000818110610ad357610ad3611827565b90506020020135846001600160a01b0316610e13909392919063ffffffff16565b60005b84811015610b8857610b76610b1260408b0160208c01611a76565b878784818110610b2457610b24611827565b9050602002016020810190610b399190611a76565b8686610b46866001611a91565b818110610b5557610b55611827565b90506020020135856001600160a01b0316610e13909392919063ffffffff16565b80610b808161189d565b915050610af7565b50505b6020850135600003610c3b57610ba46020870187611a76565b6001600160a01b03166342842e0e610bbf60208a018a611a76565b610bcf60408b0160208c01611a76565b60405160e084901b6001600160e01b03191681526001600160a01b0392831660048201529116602482015287356044820152606401600060405180830381600087803b158015610c1e57600080fd5b505af1158015610c32573d6000803e3d6000fd5b50505050610cee565b610c486020870187611a76565b6001600160a01b031663f242432a610c6360208a018a611a76565b610c7360408b0160208c01611a76565b60405160e084901b6001600160e01b03191681526001600160a01b03928316600482015291166024820152873560448201526020880135606482015260a06084820152600060a482015260c401600060405180830381600087803b158015610cda57600080fd5b505af11580156106cb573d6000803e3d6000fd5b50505050505050565b600260015403610d495760405162461bcd60e51b815260206004820152601f60248201527f5265656e7472616e637947756172643a207265656e7472616e742063616c6c00604482015260640161030f565b6002600155565b6000806000610d5f8585610e73565b91509150610d6c81610eb8565b509392505050565b610d7e8282610479565b61032257610d8b81611002565b610d96836020611014565b604051602001610da7929190611ac8565b60408051601f198184030181529082905262461bcd60e51b825261030f91600401611b3d565b60008060005b83811015610d6c57848482818110610ded57610ded611827565b9050602002013582610dff9190611a91565b915080610e0b8161189d565b915050610dd3565b604080516001600160a01b0385811660248301528416604482015260648082018490528251808303909101815260849091019091526020810180516001600160e01b03166323b872dd60e01b179052610e6d9085906111b7565b50505050565b6000808251604103610ea95760208301516040840151606085015160001a610e9d8782858561128c565b94509450505050610eb1565b506000905060025b9250929050565b6000816004811115610ecc57610ecc611b70565b03610ed45750565b6001816004811115610ee857610ee8611b70565b03610f355760405162461bcd60e51b815260206004820152601860248201527f45434453413a20696e76616c6964207369676e61747572650000000000000000604482015260640161030f565b6002816004811115610f4957610f49611b70565b03610f965760405162461bcd60e51b815260206004820152601f60248201527f45434453413a20696e76616c6964207369676e6174757265206c656e67746800604482015260640161030f565b6003816004811115610faa57610faa611b70565b036107075760405162461bcd60e51b815260206004820152602260248201527f45434453413a20696e76616c6964207369676e6174757265202773272076616c604482015261756560f01b606482015260840161030f565b60606102736001600160a01b03831660145b60606000611023836002611b86565b61102e906002611a91565b67ffffffffffffffff81111561104657611046611b9d565b6040519080825280601f01601f191660200182016040528015611070576020820181803683370190505b509050600360fc1b8160008151811061108b5761108b611827565b60200101906001600160f81b031916908160001a905350600f60fb1b816001815181106110ba576110ba611827565b60200101906001600160f81b031916908160001a90535060006110de846002611b86565b6110e9906001611a91565b90505b6001811115611161576f181899199a1a9b1b9c1cb0b131b232b360811b85600f166010811061111d5761111d611827565b1a60f81b82828151811061113357611133611827565b60200101906001600160f81b031916908160001a90535060049490941c9361115a81611bb3565b90506110ec565b5083156111b05760405162461bcd60e51b815260206004820181905260248201527f537472696e67733a20686578206c656e67746820696e73756666696369656e74604482015260640161030f565b9392505050565b600061120c826040518060400160405280602081526020017f5361666545524332303a206c6f772d6c6576656c2063616c6c206661696c6564815250856001600160a01b03166113509092919063ffffffff16565b905080516000148061122d57508080602001905181019061122d9190611bca565b61029e5760405162461bcd60e51b815260206004820152602a60248201527f5361666545524332303a204552433230206f7065726174696f6e20646964206e6044820152691bdd081cdd58d8d9595960b21b606482015260840161030f565b6000807f7fffffffffffffffffffffffffffffff5d576e7357a4501ddfe92f46681b20a08311156112c35750600090506003611347565b6040805160008082526020820180845289905260ff881692820192909252606081018690526080810185905260019060a0016020604051602081039080840390855afa158015611317573d6000803e3d6000fd5b5050604051601f1901519150506001600160a01b03811661134057600060019250925050611347565b9150600090505b94509492505050565b606061135f8484600085611367565b949350505050565b6060824710156113c85760405162461bcd60e51b815260206004820152602660248201527f416464726573733a20696e73756666696369656e742062616c616e636520666f6044820152651c8818d85b1b60d21b606482015260840161030f565b600080866001600160a01b031685876040516113e49190611bec565b60006040518083038185875af1925050503d8060008114611421576040519150601f19603f3d011682016040523d82523d6000602084013e611426565b606091505b509150915061143787838387611442565b979650505050505050565b606083156114b15782516000036114aa576001600160a01b0385163b6114aa5760405162461bcd60e51b815260206004820152601d60248201527f416464726573733a2063616c6c20746f206e6f6e2d636f6e7472616374000000604482015260640161030f565b508161135f565b61135f83838151156114c65781518083602001fd5b8060405162461bcd60e51b815260040161030f9190611b3d565b6000602082840312156114f257600080fd5b81356001600160e01b0319811681146111b057600080fd5b60006020828403121561151c57600080fd5b5035919050565b80356001600160a01b038116811461153a57600080fd5b919050565b6000806040838503121561155257600080fd5b8235915061156260208401611523565b90509250929050565b60008083601f84011261157d57600080fd5b50813567ffffffffffffffff81111561159557600080fd5b6020830191508360208260061b8501011115610eb157600080fd5b60008083601f8401126115c257600080fd5b50813567ffffffffffffffff8111156115da57600080fd5b6020830191508360208260051b8501011115610eb157600080fd5b60008060008060008060008060008060a08b8d03121561161457600080fd5b8a3567ffffffffffffffff8082111561162c57600080fd5b6116388e838f0161156b565b909c509a5060208d013591508082111561165157600080fd5b61165d8e838f0161156b565b909a50985060408d013591508082111561167657600080fd5b6116828e838f0161156b565b909850965060608d013591508082111561169b57600080fd5b6116a78e838f016115b0565b909650945060808d01359150808211156116c057600080fd5b506116cd8d828e016115b0565b915080935050809150509295989b9194979a5092959850565b806040810183101561027357600080fd5b60008083601f84011261170957600080fd5b50813567ffffffffffffffff81111561172157600080fd5b602083019150836020828501011115610eb157600080fd5b60008060008060008060008060008060006101608c8e03121561175b57600080fd5b8b359a5061176c8d60208e016116e6565b995061177b8d60608e016116e6565b985061178a8d60a08e016116e6565b975067ffffffffffffffff8060e08e013511156117a657600080fd5b6117b68e60e08f01358f016115b0565b90985096506101008d01358110156117cd57600080fd5b6117de8e6101008f01358f016115b0565b90965094506101208d013593506101408d01358110156117fd57600080fd5b5061180f8d6101408e01358e016116f7565b81935080925050509295989b509295989b9093969950565b634e487b7160e01b600052603260045260246000fd5b6000808335601e1984360301811261185457600080fd5b83018035915067ffffffffffffffff82111561186f57600080fd5b6020019150600581901b3603821315610eb157600080fd5b634e487b7160e01b600052601160045260246000fd5b6000600182016118af576118af611887565b5060010190565b8060005b6002811015610e6d576001600160a01b036118d483611523565b16845260209384019391909101906001016118ba565b8a8152600060208b81840152611903604084018c6118b6565b611910608084018b6118b6565b60408960c085013761010083018860005b8981101561194d576001600160a01b0361193a83611523565b1683529183019190830190600101611921565b50506001600160fb1b0386111561196357600080fd5b8560051b80888337019384529092019b9a5050505050505050505050565b8060005b6002811015610e6d576001600160a01b0361199f83611523565b1684526020938401939190910190600101611985565b60006101208083018b845260206119ce8186018d611981565b6119db606086018c611981565b60408a60a087013760e0850192909252869052610140830190879060005b88811015611a25576001600160a01b03611a1284611523565b16845292810192918101916001016119f9565b508483036101008601528583526001600160fb1b03861115611a4657600080fd5b8560051b91508187828501379101019a9950505050505050505050565b8181038181111561027357610273611887565b600060208284031215611a8857600080fd5b6111b082611523565b8082018082111561027357610273611887565b60005b83811015611abf578181015183820152602001611aa7565b50506000910152565b7f416363657373436f6e74726f6c3a206163636f756e7420000000000000000000815260008351611b00816017850160208801611aa4565b7001034b99036b4b9b9b4b733903937b6329607d1b6017918401918201528351611b31816028840160208801611aa4565b01602801949350505050565b6020815260008251806020840152611b5c816040850160208701611aa4565b601f01601f19169190910160400192915050565b634e487b7160e01b600052602160045260246000fd5b808202811582820484141761027357610273611887565b634e487b7160e01b600052604160045260246000fd5b600081611bc257611bc2611887565b506000190190565b600060208284031215611bdc57600080fd5b815180151581146111b057600080fd5b60008251611bfe818460208701611aa4565b919091019291505056fea2646970667358221220e28a8d5bea3e10064a1f46d33c3ed2f1d44a1b4f20b8a175d0a7b8aa423b098c64736f6c63430008130033",
  "immutableReferences": {},
  "source": "// SPDX-License-Identifier: MIT\npragma solidity ^0.8.16;\n\nimport \"@openzeppelin/contracts/access/AccessControl.sol\";\nimport \"@openzeppelin/contracts/security/ReentrancyGuard.sol\";\nimport \"@openzeppelin/contracts/utils/cryptography/ECDSA.sol\";\nimport \"@openzeppelin/contracts/token/ERC721/IERC721.sol\";\nimport \"@openzeppelin/contracts/token/ERC1155/IERC1155.sol\";\nimport \"@openzeppelin/contracts/token/ERC20/utils/SafeERC20.sol\";\n\ncontract Exchange is AccessControl, ReentrancyGuard {\n    using SafeERC20 for IERC20;\n\n    bytes32 public constant SIGNER_ROLE = keccak256(\"SIGNER_ROLE\");\n\n    mapping(uint256 => bool) public orderIDUsed;\n\n    event Trade(\n        uint256 orderID,\n        address[2] fromTo,\n        address[2] nftAndToken,\n        uint256[2] idAndAmount,\n        address[] additionalTokenReceivers,\n        uint256[] allAmounts\n    );\n\n    constructor() {\n        _setupRole(DEFAULT_ADMIN_ROLE, _msgSender());\n    }\n\n    function trade(\n        uint256 orderID,\n        address[2] calldata fromTo,\n        address[2] calldata nftAndToken,\n        uint256[2] calldata idAndAmount,\n        address[] calldata additionalTokenReceivers,\n        uint256[] calldata allAmounts,\n        uint256 deadline,\n        bytes calldata signature\n    ) external payable nonReentrant {\n        require(\n            hasRole(\n                SIGNER_ROLE,\n                ECDSA.recover(\n                    ECDSA.toEthSignedMessageHash(\n                        keccak256(\n                            abi.encodePacked(\n                                block.chainid,\n                                orderID,\n                                fromTo,\n                                nftAndToken,\n                                idAndAmount,\n                                additionalTokenReceivers,\n                                allAmounts,\n                                deadline\n                            )\n                        )\n                    ),\n                    signature\n                )\n            ),\n            \"Invalid signature\"\n        );\n        require(deadline >= block.timestamp, \"Deadline passed\");\n        require(!orderIDUsed[orderID], \"Order ID already used\");\n        orderIDUsed[orderID] = true;\n        _trade(\n            fromTo,\n            nftAndToken,\n            idAndAmount,\n            additionalTokenReceivers,\n            allAmounts\n        );\n        emit Trade(\n            orderID,\n            fromTo,\n            nftAndToken,\n            idAndAmount,\n            additionalTokenReceivers,\n            allAmounts\n        );\n    }\n\n    function forceTradeBatch(\n        address[2][] calldata fromTo,\n        address[2][] calldata nftAndToken,\n        uint256[2][] calldata idAndAmount,\n        address[][] calldata additionalTokenReceivers,\n        uint256[][] calldata allAmounts\n    ) external onlyRole(SIGNER_ROLE) {\n        require(\n            fromTo.length == nftAndToken.length &&\n                fromTo.length == idAndAmount.length &&\n                fromTo.length == additionalTokenReceivers.length &&\n                fromTo.length == allAmounts.length,\n            \"Non-matching length\"\n        );\n        for (uint256 i; i < fromTo.length; i++) {\n            _trade(\n                fromTo[i],\n                nftAndToken[i],\n                idAndAmount[i],\n                additionalTokenReceivers[i],\n                allAmounts[i]\n            );\n        }\n    }\n\n    function _sum(uint256[] calldata array) private pure returns (uint256) {\n        uint256 sum;\n        for (uint256 i; i < array.length; i++) {\n            sum += array[i];\n        }\n        return sum;\n    }\n\n    function _trade(\n        address[2] calldata fromTo,\n        address[2] calldata nftAndToken,\n        uint256[2] calldata idAndAmount,\n        address[] calldata additionalTokenReceivers,\n        uint256[] calldata allAmounts\n    ) private {\n        require(\n            additionalTokenReceivers.length == allAmounts.length - 1,\n            \"Invalid length\"\n        );\n        require(_msgSender() == fromTo[1], \"Wrong sender\");\n        if (nftAndToken[1] == 0xEeeeeEeeeEeEeeEeEeEeeEEEeeeeEeeeeeeeEEeE) {\n            require(msg.value == _sum(allAmounts), \"Wrong payment amount\");\n            payable(fromTo[0]).transfer(allAmounts[0]);\n            for (uint256 i; i < additionalTokenReceivers.length; i++) {\n                payable(additionalTokenReceivers[i]).transfer(\n                    allAmounts[i + 1]\n                );\n            }\n        } else {\n            require(\n                msg.value == 0,\n                \"Cannot send native currency while paying with token\"\n            );\n            IERC20 token = IERC20(nftAndToken[1]);\n            token.safeTransferFrom(fromTo[1], fromTo[0], allAmounts[0]);\n            for (uint256 i; i < additionalTokenReceivers.length; i++) {\n                token.safeTransferFrom(\n                    fromTo[1],\n                    additionalTokenReceivers[i],\n                    allAmounts[i + 1]\n                );\n            }\n        }\n        if (idAndAmount[1] == 0) {\n            IERC721(nftAndToken[0]).safeTransferFrom(\n                fromTo[0],\n                fromTo[1],\n                idAndAmount[0]\n            );\n        } else {\n            IERC1155(nftAndToken[0]).safeTransferFrom(\n                fromTo[0],\n                fromTo[1],\n                idAndAmount[0],\n                idAndAmount[1],\n                \"\"\n            );\n        }\n    }\n}\n",
  "sourcePath": "/Users/huy8bit/Desktop/DRIVE/JOB/ATOM SOLUTION/TASK/inz-dapp-api/dev/inz-smc/contracts/mkp/Exchange.sol",
  "compiler": {
    "name": "solc",
    "version": "0.8.19+commit.7dd6d404.Emscripten.clang"
  },
  "schemaVersion": "3.4.14",
  "updatedAt": "2023-08-28T08:04:22.893Z",
  "devdoc": {
    "events": {
      "RoleAdminChanged(bytes32,bytes32,bytes32)": {
        "details": "Emitted when `newAdminRole` is set as ``role``'s admin role, replacing `previousAdminRole` `DEFAULT_ADMIN_ROLE` is the starting admin for all roles, despite {RoleAdminChanged} not being emitted signaling this. _Available since v3.1._"
      },
      "RoleGranted(bytes32,address,address)": {
        "details": "Emitted when `account` is granted `role`. `sender` is the account that originated the contract call, an admin role bearer except when using {AccessControl-_setupRole}."
      },
      "RoleRevoked(bytes32,address,address)": {
        "details": "Emitted when `account` is revoked `role`. `sender` is the account that originated the contract call:   - if using `revokeRole`, it is the admin role bearer   - if using `renounceRole`, it is the role bearer (i.e. `account`)"
      }
    },
    "kind": "dev",
    "methods": {
      "getRoleAdmin(bytes32)": {
        "details": "Returns the admin role that controls `role`. See {grantRole} and {revokeRole}. To change a role's admin, use {_setRoleAdmin}."
      },
      "grantRole(bytes32,address)": {
        "details": "Grants `role` to `account`. If `account` had not been already granted `role`, emits a {RoleGranted} event. Requirements: - the caller must have ``role``'s admin role. May emit a {RoleGranted} event."
      },
      "hasRole(bytes32,address)": {
        "details": "Returns `true` if `account` has been granted `role`."
      },
      "renounceRole(bytes32,address)": {
        "details": "Revokes `role` from the calling account. Roles are often managed via {grantRole} and {revokeRole}: this function's purpose is to provide a mechanism for accounts to lose their privileges if they are compromised (such as when a trusted device is misplaced). If the calling account had been revoked `role`, emits a {RoleRevoked} event. Requirements: - the caller must be `account`. May emit a {RoleRevoked} event."
      },
      "revokeRole(bytes32,address)": {
        "details": "Revokes `role` from `account`. If `account` had been granted `role`, emits a {RoleRevoked} event. Requirements: - the caller must have ``role``'s admin role. May emit a {RoleRevoked} event."
      },
      "supportsInterface(bytes4)": {
        "details": "See {IERC165-supportsInterface}."
      }
    },
    "version": 1
  },
  "userdoc": {
    "kind": "user",
    "methods": {},
    "version": 1
  }
}