{
  "contractName": "ExchangeProxy",
  "abi": [
    {
      "inputs": [],
      "stateMutability": "nonpayable",
      "type": "constructor"
    },
    {
      "stateMutability": "payable",
      "type": "fallback"
    },
    {
      "stateMutability": "payable",
      "type": "receive"
    },
    {
      "inputs": [
        {
          "internalType": "address",
          "name": "_admin",
          "type": "address"
        }
      ],
      "name": "setProxyAdmin",
      "outputs": [],
      "stateMutability": "nonpayable",
      "type": "function"
    },
    {
      "inputs": [
        {
          "internalType": "address",
          "name": "_implementation",
          "type": "address"
        }
      ],
      "name": "setImplementation",
      "outputs": [],
      "stateMutability": "nonpayable",
      "type": "function"
    },
    {
      "inputs": [],
      "name": "admin",
      "outputs": [
        {
          "internalType": "address",
          "name": "",
          "type": "address"
        }
      ],
      "stateMutability": "view",
      "type": "function"
    },
    {
      "inputs": [],
      "name": "implementation",
      "outputs": [
        {
          "internalType": "address",
          "name": "",
          "type": "address"
        }
      ],
      "stateMutability": "view",
      "type": "function"
    }
  ],
  "bytecode": "0x608060405234801561001057600080fd5b5061001a3361001f565b610139565b6001600160a01b03811661003257600080fd5b8073__StorageSlot___________________________63e8ff0b1d61007860017fb53127684a568b3173ae13b9f8a6016e243e63b6e8ee1178d6a717850b5d61046100f9565b60405160e083901b6001600160e01b03191681526004810191909152602401602060405180830381865af41580156100b4573d6000803e3d6000fd5b505050506040513d601f19601f820116820180604052508101906100d89190610120565b80546001600160a01b0319166001600160a01b039290921691909117905550565b8181038181111561011a57634e487b7160e01b600052601160045260246000fd5b92915050565b60006020828403121561013257600080fd5b5051919050565b610478806101486000396000f3fe6080604052600436106100435760003560e01c806347c026611461005a5780635c60da1b1461007a578063d784d426146100ab578063f851a440146100cb57610052565b36610052576100506100e0565b005b6100506100e0565b34801561006657600080fd5b506100506100753660046103d2565b6100f2565b34801561008657600080fd5b5061008f61012b565b6040516001600160a01b03909116815260200160405180910390f35b3480156100b757600080fd5b506100506100c63660046103d2565b61013a565b3480156100d757600080fd5b5061008f610170565b6100f06100eb61017a565b610230565b565b6100fa610254565b6001600160a01b03163303610117576101128161029b565b61011f565b61011f6100e0565b6101288161029b565b50565b600061013561017a565b905090565b610142610254565b6001600160a01b0316330361015f5761015a81610375565b610167565b6101676100e0565b61012881610375565b6000610135610254565b600073__StorageSlot___________________________63e8ff0b1d6101c160017f360894a13ba1a3210667c828492db98dca3e2076cc3735a920a3ca505d382bbd610402565b60405160e083901b6001600160e01b03191681526004810191909152602401602060405180830381865af41580156101fd573d6000803e3d6000fd5b505050506040513d601f19601f820116820180604052508101906102219190610429565b546001600160a01b0316919050565b3660008037600080366000845af43d6000803e80801561024f573d6000f35b3d6000fd5b600073__StorageSlot___________________________63e8ff0b1d6101c160017fb53127684a568b3173ae13b9f8a6016e243e63b6e8ee1178d6a717850b5d6104610402565b6001600160a01b0381166102ae57600080fd5b8073__StorageSlot___________________________63e8ff0b1d6102f460017fb53127684a568b3173ae13b9f8a6016e243e63b6e8ee1178d6a717850b5d6104610402565b60405160e083901b6001600160e01b03191681526004810191909152602401602060405180830381865af4158015610330573d6000803e3d6000fd5b505050506040513d601f19601f820116820180604052508101906103549190610429565b80546001600160a01b0319166001600160a01b039290921691909117905550565b6000816001600160a01b03163b1161038c57600080fd5b8073__StorageSlot___________________________63e8ff0b1d6102f460017f360894a13ba1a3210667c828492db98dca3e2076cc3735a920a3ca505d382bbd610402565b6000602082840312156103e457600080fd5b81356001600160a01b03811681146103fb57600080fd5b9392505050565b8181038181111561042357634e487b7160e01b600052601160045260246000fd5b92915050565b60006020828403121561043b57600080fd5b505191905056fea2646970667358221220137f7165c89c0a1f3807d0a6ae83692bf06ed1065a354e02907486dafe4e992564736f6c63430008130033",
  "deployedBytecode": "0x6080604052600436106100435760003560e01c806347c026611461005a5780635c60da1b1461007a578063d784d426146100ab578063f851a440146100cb57610052565b36610052576100506100e0565b005b6100506100e0565b34801561006657600080fd5b506100506100753660046103d2565b6100f2565b34801561008657600080fd5b5061008f61012b565b6040516001600160a01b03909116815260200160405180910390f35b3480156100b757600080fd5b506100506100c63660046103d2565b61013a565b3480156100d757600080fd5b5061008f610170565b6100f06100eb61017a565b610230565b565b6100fa610254565b6001600160a01b03163303610117576101128161029b565b61011f565b61011f6100e0565b6101288161029b565b50565b600061013561017a565b905090565b610142610254565b6001600160a01b0316330361015f5761015a81610375565b610167565b6101676100e0565b61012881610375565b6000610135610254565b600073__StorageSlot___________________________63e8ff0b1d6101c160017f360894a13ba1a3210667c828492db98dca3e2076cc3735a920a3ca505d382bbd610402565b60405160e083901b6001600160e01b03191681526004810191909152602401602060405180830381865af41580156101fd573d6000803e3d6000fd5b505050506040513d601f19601f820116820180604052508101906102219190610429565b546001600160a01b0316919050565b3660008037600080366000845af43d6000803e80801561024f573d6000f35b3d6000fd5b600073__StorageSlot___________________________63e8ff0b1d6101c160017fb53127684a568b3173ae13b9f8a6016e243e63b6e8ee1178d6a717850b5d6104610402565b6001600160a01b0381166102ae57600080fd5b8073__StorageSlot___________________________63e8ff0b1d6102f460017fb53127684a568b3173ae13b9f8a6016e243e63b6e8ee1178d6a717850b5d6104610402565b60405160e083901b6001600160e01b03191681526004810191909152602401602060405180830381865af4158015610330573d6000803e3d6000fd5b505050506040513d601f19601f820116820180604052508101906103549190610429565b80546001600160a01b0319166001600160a01b039290921691909117905550565b6000816001600160a01b03163b1161038c57600080fd5b8073__StorageSlot___________________________63e8ff0b1d6102f460017f360894a13ba1a3210667c828492db98dca3e2076cc3735a920a3ca505d382bbd610402565b6000602082840312156103e457600080fd5b81356001600160a01b03811681146103fb57600080fd5b9392505050565b8181038181111561042357634e487b7160e01b600052601160045260246000fd5b92915050565b60006020828403121561043b57600080fd5b505191905056fea2646970667358221220137f7165c89c0a1f3807d0a6ae83692bf06ed1065a354e02907486dafe4e992564736f6c63430008130033",
  "immutableReferences": {},
  "source": "// SPDX-License-Identifier: MIT\n\npragma solidity ^0.8.16;\n\nimport \"../minting/libraries/StorageSlot.sol\";\n\ncontract ExchangeProxy {\n    // Random IMPLEMENTATION_SLOT and ADMIN_SLOT to avoid storage collision\n    bytes32 private constant IMPLEMENTATION_SLOT =\n        bytes32(uint(keccak256(\"eip1967.proxy.implementation\")) - 1);\n    bytes32 private constant ADMIN_SLOT =\n        bytes32(uint(keccak256(\"eip1967.proxy.admin\")) - 1);\n\n    constructor() {\n        _setProxyAdmin(msg.sender);\n    }\n\n    // Delegatecall function from Openzeppelin lib\n    function _delegate(address _implementation) internal virtual {\n        assembly {\n            // Copy msg.data. We take full control of memory in this inline assembly\n            // block because it will not return to Solidity code. We overwrite the\n            // Solidity scratch pad at memory position 0.\n\n            // calldatacopy(t, f, s) - copy s bytes from calldata at position f to mem at position t\n            // calldatasize() - size of call data in bytes\n            calldatacopy(0, 0, calldatasize())\n\n            // Call the implementation.\n            // out and outsize are 0 because we don't know the size yet.\n\n            // delegatecall(g, a, in, insize, out, outsize) -\n            // - call contract at address a\n            // - with input mem[in(in+insize))\n            // - providing g gas\n            // - and output area mem[out(out+outsize))\n            // - returning 0 on error (eg. out of gas) and 1 on success\n            let result := delegatecall(\n                gas(),\n                _implementation,\n                0,\n                calldatasize(),\n                0,\n                0\n            )\n\n            // Copy the returned data.\n            // returndatacopy(t, f, s) - copy s bytes from returndata at position f to mem at position t\n            // returndatasize() - size of the last returndata\n            returndatacopy(0, 0, returndatasize())\n\n            switch result\n            // delegatecall returns 0 on error.\n            case 0 {\n                // revert(p, s) - end execution, revert state changes, return data mem[p(p+s))\n                revert(0, returndatasize())\n            }\n            default {\n                // return(p, s) - end execution, return data mem[p(p+s))\n                return(0, returndatasize())\n            }\n        }\n    }\n\n    function _fallback() private {\n        _delegate(_getImplementation());\n    }\n\n    fallback() external payable {\n        _fallback();\n    }\n\n    receive() external payable {\n        _fallback();\n    }\n\n    modifier onlyAdmin() {\n        if (msg.sender == _getProxyAdmin()) {\n            _;\n        } else {\n            _fallback();\n        }\n        _;\n    }\n\n    function setProxyAdmin(address _admin) external onlyAdmin {\n        _setProxyAdmin(_admin);\n    }\n\n    function setImplementation(address _implementation) external onlyAdmin {\n        _setImplementation(_implementation);\n    }\n\n    function _getProxyAdmin() private view returns (address) {\n        return StorageSlot.getAddressSlot(ADMIN_SLOT).value;\n    }\n\n    function _getImplementation() private view returns (address) {\n        return StorageSlot.getAddressSlot(IMPLEMENTATION_SLOT).value;\n    }\n\n    function _setProxyAdmin(address _admin) private {\n        require(_admin != address(0));\n        StorageSlot.getAddressSlot(ADMIN_SLOT).value = _admin;\n    }\n\n    function _setImplementation(address _implementation) private {\n        require(_implementation.code.length > 0);\n        StorageSlot.getAddressSlot(IMPLEMENTATION_SLOT).value = _implementation;\n    }\n\n    function admin() external view returns (address) {\n        return _getProxyAdmin();\n    }\n\n    function implementation() external view returns (address) {\n        return _getImplementation();\n    }\n}\n",
  "sourcePath": "/Users/huy8bit/Desktop/DRIVE/JOB/ATOM SOLUTION/TASK/inz-dapp-api/dev/inz-smc/contracts/proxy/ExchangeProxy.sol",
  "compiler": {
    "name": "solc",
    "version": "0.8.19+commit.7dd6d404.Emscripten.clang"
  },
  "schemaVersion": "3.4.14",
  "updatedAt": "2023-08-28T08:04:22.917Z",
  "devdoc": {
    "kind": "dev",
    "methods": {},
    "version": 1
  },
  "userdoc": {
    "kind": "user",
    "methods": {},
    "version": 1
  }
}