{
  "contractName": "Faucet",
  "abi": [
    {
      "inputs": [
        {
          "internalType": "address",
          "name": "_tokenAddress",
          "type": "address"
        }
      ],
      "stateMutability": "nonpayable",
      "type": "constructor"
    },
    {
      "inputs": [],
      "name": "amountClaim",
      "outputs": [
        {
          "internalType": "uint256",
          "name": "",
          "type": "uint256"
        }
      ],
      "stateMutability": "view",
      "type": "function"
    },
    {
      "inputs": [
        {
          "internalType": "address",
          "name": "",
          "type": "address"
        }
      ],
      "name": "lockTime",
      "outputs": [
        {
          "internalType": "uint256",
          "name": "",
          "type": "uint256"
        }
      ],
      "stateMutability": "view",
      "type": "function"
    },
    {
      "inputs": [],
      "name": "owner",
      "outputs": [
        {
          "internalType": "address",
          "name": "",
          "type": "address"
        }
      ],
      "stateMutability": "view",
      "type": "function"
    },
    {
      "inputs": [],
      "name": "token",
      "outputs": [
        {
          "internalType": "contract IERC20",
          "name": "",
          "type": "address"
        }
      ],
      "stateMutability": "view",
      "type": "function"
    },
    {
      "inputs": [
        {
          "internalType": "uint256",
          "name": "",
          "type": "uint256"
        }
      ],
      "name": "usersClaimed",
      "outputs": [
        {
          "internalType": "address",
          "name": "",
          "type": "address"
        }
      ],
      "stateMutability": "view",
      "type": "function"
    },
    {
      "inputs": [],
      "name": "claim",
      "outputs": [],
      "stateMutability": "nonpayable",
      "type": "function"
    },
    {
      "inputs": [
        {
          "internalType": "uint256",
          "name": "_amount",
          "type": "uint256"
        }
      ],
      "name": "setAmountClaim",
      "outputs": [],
      "stateMutability": "nonpayable",
      "type": "function"
    },
    {
      "inputs": [
        {
          "internalType": "address",
          "name": "_tokenAddress",
          "type": "address"
        }
      ],
      "name": "setToken",
      "outputs": [],
      "stateMutability": "nonpayable",
      "type": "function"
    },
    {
      "inputs": [],
      "name": "delAllClaimed",
      "outputs": [],
      "stateMutability": "nonpayable",
      "type": "function"
    },
    {
      "inputs": [
        {
          "internalType": "uint256",
          "name": "_amount",
          "type": "uint256"
        }
      ],
      "name": "withdraw",
      "outputs": [],
      "stateMutability": "nonpayable",
      "type": "function"
    },
    {
      "inputs": [],
      "name": "balance",
      "outputs": [
        {
          "internalType": "uint256",
          "name": "",
          "type": "uint256"
        }
      ],
      "stateMutability": "view",
      "type": "function"
    }
  ],
  "bytecode": "0x608060405234801561001057600080fd5b5060405161070538038061070583398101604081905261002f9161006a565b600280546001600160a01b039092166001600160a01b0319928316179055683635c9adc5dea00000600155600080549091163317905561009a565b60006020828403121561007c57600080fd5b81516001600160a01b038116811461009357600080fd5b9392505050565b61065c806100a96000396000f3fe608060405234801561001057600080fd5b50600436106100a95760003560e01c8063b07fda2b11610071578063b07fda2b1461013c578063b69ef8a81461014f578063b8309b4414610157578063ef8281e01461015f578063f64f21d514610168578063fc0c546a1461017b57600080fd5b8063144fa6d7146100ae5780632e1a7d4d146100c35780634e71d92d146100d65780638da5cb5b146100de578063a4beda631461010e575b600080fd5b6100c16100bc366004610542565b61018e565b005b6100c16100d1366004610572565b6101e3565b6100c1610286565b6000546100f1906001600160a01b031681565b6040516001600160a01b0390911681526020015b60405180910390f35b61012e61011c366004610542565b60056020526000908152604090205481565b604051908152602001610105565b6100f161014a366004610572565b6103b1565b61012e6103db565b6100c161044d565b61012e60015481565b6100c1610176366004610572565b610513565b6002546100f1906001600160a01b031681565b6000546001600160a01b031633146101c15760405162461bcd60e51b81526004016101b89061058b565b60405180910390fd5b600280546001600160a01b0319166001600160a01b0392909216919091179055565b6000546001600160a01b0316331461020d5760405162461bcd60e51b81526004016101b89061058b565b60025460405163a9059cbb60e01b8152336004820152602481018390526001600160a01b039091169063a9059cbb906044016020604051808303816000875af115801561025e573d6000803e3d6000fd5b505050506040513d601f19601f8201168201806040525081019061028291906105ae565b5050565b3360009081526003602052604090205460ff16156102d95760405162461bcd60e51b815260206004820152601060248201526f1e5bdd481a185d994818db185a5b595960821b60448201526064016101b8565b60025460015460405163a9059cbb60e01b815233600482015260248101919091526001600160a01b039091169063a9059cbb906044016020604051808303816000875af115801561032e573d6000803e3d6000fd5b505050506040513d601f19601f8201168201806040525081019061035291906105ae565b50336000818152600360205260408120805460ff191660019081179091556004805491820181559091527f8a35acfbc15ff81a39ae7d344fd709f28e8600b4aa8c65c6b64bfe7fe36bd19b0180546001600160a01b0319169091179055565b600481815481106103c157600080fd5b6000918252602090912001546001600160a01b0316905081565b6002546040516370a0823160e01b81523060048201526000916001600160a01b0316906370a0823190602401602060405180830381865afa158015610424573d6000803e3d6000fd5b505050506040513d601f19601f8201168201806040525081019061044891906105d0565b905090565b6000546001600160a01b031633146104775760405162461bcd60e51b81526004016101b89061058b565b60005b600454811015610510576000600360006004848154811061049d5761049d6105e9565b6000918252602080832091909101546001600160a01b031683528201929092526040019020805460ff191691151591909117905560048054829081106104e5576104e56105e9565b600091825260209091200180546001600160a01b031916905580610508816105ff565b91505061047a565b50565b6000546001600160a01b0316331461053d5760405162461bcd60e51b81526004016101b89061058b565b600155565b60006020828403121561055457600080fd5b81356001600160a01b038116811461056b57600080fd5b9392505050565b60006020828403121561058457600080fd5b5035919050565b6020808252600990820152686e6f7420616c6c6f7760b81b604082015260600190565b6000602082840312156105c057600080fd5b8151801515811461056b57600080fd5b6000602082840312156105e257600080fd5b5051919050565b634e487b7160e01b600052603260045260246000fd5b60006001820161061f57634e487b7160e01b600052601160045260246000fd5b506001019056fea26469706673582212208e938170c3d1bc24be4b146c3edd05abed102977356384601c8cad3fc88c508264736f6c63430008130033",
  "immutableReferences": {},
  "source": "/**\n *Submitted for verification at goerli.basescan.org on 2023-04-13\n */\n\n// File: @openzeppelin/contracts/token/ERC20/IERC20.sol\n\n// OpenZeppelin Contracts (last updated v4.6.0) (token/ERC20/IERC20.sol)\n\npragma solidity ^0.8.0;\n\n/**\n * @dev Interface of the ERC20 standard as defined in the EIP.\n */\ninterface IERC20 {\n    /**\n     * @dev Emitted when `value` tokens are moved from one account (`from`) to\n     * another (`to`).\n     *\n     * Note that `value` may be zero.\n     */\n    event Transfer(address indexed from, address indexed to, uint256 value);\n\n    /**\n     * @dev Emitted when the allowance of a `spender` for an `owner` is set by\n     * a call to {approve}. `value` is the new allowance.\n     */\n    event Approval(\n        address indexed owner,\n        address indexed spender,\n        uint256 value\n    );\n\n    /**\n     * @dev Returns the amount of tokens in existence.\n     */\n    function totalSupply() external view returns (uint256);\n\n    /**\n     * @dev Returns the amount of tokens owned by `account`.\n     */\n    function balanceOf(address account) external view returns (uint256);\n\n    /**\n     * @dev Moves `amount` tokens from the caller's account to `to`.\n     *\n     * Returns a boolean value indicating whether the operation succeeded.\n     *\n     * Emits a {Transfer} event.\n     */\n    function transfer(address to, uint256 amount) external returns (bool);\n\n    /**\n     * @dev Returns the remaining number of tokens that `spender` will be\n     * allowed to spend on behalf of `owner` through {transferFrom}. This is\n     * zero by default.\n     *\n     * This value changes when {approve} or {transferFrom} are called.\n     */\n    function allowance(\n        address owner,\n        address spender\n    ) external view returns (uint256);\n\n    /**\n     * @dev Sets `amount` as the allowance of `spender` over the caller's tokens.\n     *\n     * Returns a boolean value indicating whether the operation succeeded.\n     *\n     * IMPORTANT: Beware that changing an allowance with this method brings the risk\n     * that someone may use both the old and the new allowance by unfortunate\n     * transaction ordering. One possible solution to mitigate this race\n     * condition is to first reduce the spender's allowance to 0 and set the\n     * desired value afterwards:\n     * https://github.com/ethereum/EIPs/issues/20#issuecomment-263524729\n     *\n     * Emits an {Approval} event.\n     */\n    function approve(address spender, uint256 amount) external returns (bool);\n\n    /**\n     * @dev Moves `amount` tokens from `from` to `to` using the\n     * allowance mechanism. `amount` is then deducted from the caller's\n     * allowance.\n     *\n     * Returns a boolean value indicating whether the operation succeeded.\n     *\n     * Emits a {Transfer} event.\n     */\n    function transferFrom(\n        address from,\n        address to,\n        uint256 amount\n    ) external returns (bool);\n}\n\n// File: contracts/Faucet.sol\n\npragma solidity ^0.8.2;\n\ncontract Faucet {\n    address public owner;\n    uint256 public amountClaim;\n    IERC20 public token;\n    mapping(address => bool) userClaimed;\n    address[] public usersClaimed;\n\n    constructor(address _tokenAddress) {\n        token = IERC20(_tokenAddress);\n        amountClaim = 1000000000000000000000;\n        owner = msg.sender;\n    }\n\n    modifier isOwner() {\n        require(msg.sender == owner, \"not allow\");\n        _;\n    }\n\n    mapping(address => uint256) public lockTime;\n\n    function claim() external {\n        require(userClaimed[msg.sender] == false, \"you have claimed\");\n        token.transfer(msg.sender, amountClaim);\n        userClaimed[msg.sender] = true;\n        usersClaimed.push(msg.sender);\n    }\n\n    function setAmountClaim(uint256 _amount) external isOwner {\n        amountClaim = _amount;\n    }\n\n    function setToken(address _tokenAddress) external isOwner {\n        token = IERC20(_tokenAddress);\n    }\n\n    function delAllClaimed() external isOwner {\n        for (uint i = 0; i < usersClaimed.length; i++) {\n            userClaimed[usersClaimed[i]] = false;\n            delete usersClaimed[i];\n        }\n    }\n\n    function withdraw(uint256 _amount) external isOwner {\n        token.transfer(msg.sender, _amount);\n    }\n\n    function balance() external view returns (uint256) {\n        return token.balanceOf(address(this));\n    }\n}\n",
  "sourcePath": "/Users/huy8bit/Desktop/DRIVE/JOB/ATOM SOLUTION/TASK/inz-dapp-api/dev/inz-smc/contracts/minting/Faucet.sol",
  "compiler": {
    "name": "solc",
    "version": "0.8.19+commit.7dd6d404.Emscripten.clang"
  },
  "schemaVersion": "3.4.14",
  "updatedAt": "2023-08-28T08:04:22.823Z",
  "devdoc": {
    "kind": "dev",
    "methods": {},
    "version": 1
  },
  "userdoc": {
    "kind": "user",
    "methods": {},
    "version": 1
  }
}