{
  "contractName": "GatewayNFT",
  "abi": [
    {
      "inputs": [
        {
          "internalType": "address",
          "name": "_weth",
          "type": "address"
        },
        {
          "internalType": "address",
          "name": "_owner",
          "type": "address"
        }
      ],
      "stateMutability": "nonpayable",
      "type": "constructor"
    },
    {
      "anonymous": false,
      "inputs": [
        {
          "indexed": true,
          "internalType": "address",
          "name": "previousOwner",
          "type": "address"
        },
        {
          "indexed": true,
          "internalType": "address",
          "name": "newOwner",
          "type": "address"
        }
      ],
      "name": "OwnershipTransferred",
      "type": "event"
    },
    {
      "stateMutability": "payable",
      "type": "fallback",
      "payable": true
    },
    {
      "inputs": [],
      "name": "owner",
      "outputs": [
        {
          "internalType": "address",
          "name": "",
          "type": "address"
        }
      ],
      "stateMutability": "view",
      "type": "function",
      "constant": true
    },
    {
      "inputs": [],
      "name": "renounceOwnership",
      "outputs": [],
      "stateMutability": "nonpayable",
      "type": "function"
    },
    {
      "inputs": [
        {
          "internalType": "address",
          "name": "newOwner",
          "type": "address"
        }
      ],
      "name": "transferOwnership",
      "outputs": [],
      "stateMutability": "nonpayable",
      "type": "function"
    },
    {
      "stateMutability": "payable",
      "type": "receive",
      "payable": true
    },
    {
      "inputs": [
        {
          "internalType": "address",
          "name": "_contractAuthorize",
          "type": "address"
        }
      ],
      "name": "authorizeNFT",
      "outputs": [],
      "stateMutability": "nonpayable",
      "type": "function"
    },
    {
      "inputs": [
        {
          "internalType": "address",
          "name": "_weth",
          "type": "address"
        }
      ],
      "name": "updateWETH",
      "outputs": [],
      "stateMutability": "nonpayable",
      "type": "function"
    },
    {
      "inputs": [
        {
          "internalType": "address",
          "name": "_dappCreator",
          "type": "address"
        },
        {
          "internalType": "contract ICampaignNFT",
          "name": "_nftCollection",
          "type": "address"
        },
        {
          "internalType": "uint8",
          "name": "_nftType",
          "type": "uint8"
        },
        {
          "internalType": "uint256",
          "name": "_amount",
          "type": "uint256"
        },
        {
          "internalType": "uint256",
          "name": "_platformFee",
          "type": "uint256"
        },
        {
          "internalType": "uint256",
          "name": "_discount",
          "type": "uint256"
        },
        {
          "internalType": "bool",
          "name": "_isWhitelistMint",
          "type": "bool"
        },
        {
          "components": [
            {
              "internalType": "uint8",
              "name": "v",
              "type": "uint8"
            },
            {
              "internalType": "bytes32",
              "name": "r",
              "type": "bytes32"
            },
            {
              "internalType": "bytes32",
              "name": "s",
              "type": "bytes32"
            },
            {
              "internalType": "uint256",
              "name": "deadline",
              "type": "uint256"
            }
          ],
          "internalType": "struct IDappCreator.Proof",
          "name": "_proof",
          "type": "tuple"
        },
        {
          "internalType": "string",
          "name": "_callbackData",
          "type": "string"
        },
        {
          "internalType": "address",
          "name": "_to",
          "type": "address"
        }
      ],
      "name": "mintToDappCreator",
      "outputs": [],
      "stateMutability": "payable",
      "type": "function",
      "payable": true
    },
    {
      "inputs": [
        {
          "internalType": "address",
          "name": "_treasury",
          "type": "address"
        },
        {
          "internalType": "address",
          "name": "_to",
          "type": "address"
        },
        {
          "internalType": "uint256",
          "name": "_amount",
          "type": "uint256"
        },
        {
          "internalType": "address",
          "name": "_collectionAddress",
          "type": "address"
        }
      ],
      "name": "withdrawETH",
      "outputs": [],
      "stateMutability": "payable",
      "type": "function",
      "payable": true
    },
    {
      "inputs": [
        {
          "internalType": "address",
          "name": "token",
          "type": "address"
        },
        {
          "internalType": "address",
          "name": "to",
          "type": "address"
        },
        {
          "internalType": "uint256",
          "name": "amount",
          "type": "uint256"
        }
      ],
      "name": "emergencyTokenTransfer",
      "outputs": [],
      "stateMutability": "nonpayable",
      "type": "function"
    },
    {
      "inputs": [
        {
          "internalType": "address",
          "name": "to",
          "type": "address"
        },
        {
          "internalType": "uint256",
          "name": "amount",
          "type": "uint256"
        }
      ],
      "name": "emergencyEtherTransfer",
      "outputs": [],
      "stateMutability": "nonpayable",
      "type": "function"
    },
    {
      "inputs": [],
      "name": "getWETHAddress",
      "outputs": [
        {
          "internalType": "address",
          "name": "",
          "type": "address"
        }
      ],
      "stateMutability": "view",
      "type": "function",
      "constant": true
    }
  ],
  "bytecode": "0x608060405234801561001057600080fd5b5060405162000d7838038062000d78833981016040819052610031916101ab565b61003a33610065565b600180546001600160a01b0319166001600160a01b03841617905561005e816100b5565b50506101de565b600080546001600160a01b038381166001600160a01b0319831681178455604051919092169283917f8be0079c531659141344cd1fd0a4f28419497f9722a3daafe3b4186f6b6457e09190a35050565b6100bd610133565b6001600160a01b0381166101275760405162461bcd60e51b815260206004820152602660248201527f4f776e61626c653a206e6577206f776e657220697320746865207a65726f206160448201526564647265737360d01b60648201526084015b60405180910390fd5b61013081610065565b50565b6000546001600160a01b0316331461018d5760405162461bcd60e51b815260206004820181905260248201527f4f776e61626c653a2063616c6c6572206973206e6f7420746865206f776e6572604482015260640161011e565b565b80516001600160a01b03811681146101a657600080fd5b919050565b600080604083850312156101be57600080fd5b6101c78361018f565b91506101d56020840161018f565b90509250929050565b610b8a80620001ee6000396000f3fe6080604052600436106100955760003560e01c8063a3d5b25511610059578063a3d5b255146101c1578063affa8817146101e1578063eed88b8d146101ff578063f2fde38b1461021f578063fe9440d71461023f576100f1565b80632487fc1c146101305780633a7bef7914610143578063715018a6146101565780638da5cb5b1461016b57806394721647146101a1576100f1565b366100f1576001546001600160a01b031633146100ef5760405162461bcd60e51b8152602060048201526013602482015272149958d95a5d99481b9bdd08185b1b1bddd959606a1b60448201526064015b60405180910390fd5b005b60405162461bcd60e51b815260206004820152601460248201527311985b1b189858dac81b9bdd08185b1b1bddd95960621b60448201526064016100e6565b6100ef61013e36600461076d565b61025f565b6100ef610151366004610882565b61033b565b34801561016257600080fd5b506100ef61041e565b34801561017757600080fd5b506000546001600160a01b03165b6040516001600160a01b03909116815260200160405180910390f35b3480156101ad57600080fd5b506100ef6101bc3660046109a3565b610432565b3480156101cd57600080fd5b506100ef6101dc3660046109c7565b6104b6565b3480156101ed57600080fd5b506001546001600160a01b0316610185565b34801561020b57600080fd5b506100ef61021a366004610a08565b610531565b34801561022b57600080fd5b506100ef61023a3660046109a3565b610543565b34801561024b57600080fd5b506100ef61025a3660046109a3565b6105bc565b60015460405163b779f02d60e01b8152600481018490526001600160a01b03838116602483015291821660448201529085169063b779f02d90606401600060405180830381600087803b1580156102b557600080fd5b505af11580156102c9573d6000803e3d6000fd5b5050600154604051632e1a7d4d60e01b8152600481018690526001600160a01b039091169250632e1a7d4d9150602401600060405180830381600087803b15801561031357600080fd5b505af1158015610327573d6000803e3d6000fd5b5050505061033583836105e6565b50505050565b600160009054906101000a90046001600160a01b03166001600160a01b031663d0e30db0346040518263ffffffff1660e01b81526004016000604051808303818588803b15801561038b57600080fd5b505af115801561039f573d6000803e3d6000fd5b50506040516392b7876760e01b81526001600160a01b038e1693506392b7876792506103e091508c908c908c908c908c908c908c908c908c90600401610a84565b600060405180830381600087803b1580156103fa57600080fd5b505af115801561040e573d6000803e3d6000fd5b5050505050505050505050505050565b61042661069e565b61043060006106f8565b565b61043a61069e565b60015460405163095ea7b360e01b81526001600160a01b03838116600483015260001960248301529091169063095ea7b3906044016020604051808303816000875af115801561048e573d6000803e3d6000fd5b505050506040513d601f19601f820116820180604052508101906104b29190610b1b565b5050565b6104be61069e565b60405163a9059cbb60e01b81526001600160a01b0383811660048301526024820183905284169063a9059cbb906044016020604051808303816000875af115801561050d573d6000803e3d6000fd5b505050506040513d601f19601f820116820180604052508101906103359190610b1b565b61053961069e565b6104b282826105e6565b61054b61069e565b6001600160a01b0381166105b05760405162461bcd60e51b815260206004820152602660248201527f4f776e61626c653a206e6577206f776e657220697320746865207a65726f206160448201526564647265737360d01b60648201526084016100e6565b6105b9816106f8565b50565b6105c461069e565b600180546001600160a01b0319166001600160a01b0392909216919091179055565b604080516000808252602082019092526001600160a01b0384169083906040516106109190610b38565b60006040518083038185875af1925050503d806000811461064d576040519150601f19603f3d011682016040523d82523d6000602084013e610652565b606091505b50509050806106995760405162461bcd60e51b815260206004820152601360248201527211551217d514905394d1915497d19052531151606a1b60448201526064016100e6565b505050565b6000546001600160a01b031633146104305760405162461bcd60e51b815260206004820181905260248201527f4f776e61626c653a2063616c6c6572206973206e6f7420746865206f776e657260448201526064016100e6565b600080546001600160a01b038381166001600160a01b0319831681178455604051919092169283917f8be0079c531659141344cd1fd0a4f28419497f9722a3daafe3b4186f6b6457e09190a35050565b6001600160a01b03811681146105b957600080fd5b803561076881610748565b919050565b6000806000806080858703121561078357600080fd5b843561078e81610748565b9350602085013561079e81610748565b92506040850135915060608501356107b581610748565b939692955090935050565b803560ff8116811461076857600080fd5b80151581146105b957600080fd5b634e487b7160e01b600052604160045260246000fd5b600082601f83011261080657600080fd5b813567ffffffffffffffff80821115610821576108216107df565b604051601f8301601f19908116603f01168101908282118183101715610849576108496107df565b8160405283815286602085880101111561086257600080fd5b836020870160208301376000602085830101528094505050505092915050565b6000806000806000806000806000808a8c036101a08112156108a357600080fd5b8b356108ae81610748565b9a5060208c01356108be81610748565b99506108cc60408d016107c0565b985060608c0135975060808c0135965060a08c0135955060c08c01356108f1816107d1565b9450608060df198201121561090557600080fd5b506040516080810167ffffffffffffffff828210818311171561092a5761092a6107df565b8160405261093a60e08f016107c0565b83526101008e013560208401526101208e013560408401526101408e013560608401529194506101608d0135918083111561097457600080fd5b50506109828d828e016107f5565b9250506109926101808c0161075d565b90509295989b9194979a5092959850565b6000602082840312156109b557600080fd5b81356109c081610748565b9392505050565b6000806000606084860312156109dc57600080fd5b83356109e781610748565b925060208401356109f781610748565b929592945050506040919091013590565b60008060408385031215610a1b57600080fd5b8235610a2681610748565b946020939093013593505050565b60005b83811015610a4f578181015183820152602001610a37565b50506000910152565b60008151808452610a70816020860160208601610a34565b601f01601f19169290920160200192915050565b600061018060018060a01b038c16835260ff8b16602084015289604084015288606084015287608084015286151560a084015260ff86511660c0840152602086015160e08401526040860151610100840152606086015161012084015280610140840152610af481840186610a58565b915050610b0d6101608301846001600160a01b03169052565b9a9950505050505050505050565b600060208284031215610b2d57600080fd5b81516109c0816107d1565b60008251610b4a818460208701610a34565b919091019291505056fea26469706673582212203c210871ae5e37c0c7a672b4ae98a601d9b5ad77d2c324d8a8b15028425aac2a64736f6c63430008130033",
  "immutableReferences": {},
  "source": "// SPDX-License-Identifier: MIT\npragma solidity ^0.8.2;\n\nimport \"@openzeppelin/contracts/access/Ownable.sol\";\nimport \"@openzeppelin/contracts/token/ERC20/IERC20.sol\";\n\nimport \"./interfaces/IWETH.sol\";\nimport \"./interfaces/IGatewayNFT.sol\";\nimport \"./interfaces/IDappCreator.sol\";\nimport \"./interfaces/ITreasury.sol\";\n\ncontract GatewayNFT is Ownable, IGatewayNFT {\n    IWETH internal WETH;\n\n    /**\n     * @dev Sets the WETH address and owner this contract. Infinite approves DappCreator or Treasury.\n     * @param _weth Address of the Wrapped Ether contract\n     * @param _owner Address of the owner of this contract\n     **/\n    constructor(address _weth, address _owner) {\n        WETH = IWETH(_weth);\n        transferOwnership(_owner);\n    }\n\n    /**\n     * @dev Authorize for DappCreator or Treasury contract to receive or withdraw Native Token(ETH)\n     * @param _contractAuthorize Contract Address of DappCreator or Treasury\n     **/\n    function authorizeNFT(address _contractAuthorize) external onlyOwner {\n        WETH.approve(_contractAuthorize, type(uint256).max);\n    }\n\n    /**\n     * @dev Update WETH address this contract.\n     * @param _weth Address of the Wrapped Ether contract\n     **/\n    function updateWETH(address _weth) external onlyOwner {\n        WETH = IWETH(_weth);\n    }\n\n    /**\n     * @dev Allows users mint NFTs to pay with Native Token & Convert WETH to Treasury.\n     */\n    function mintToDappCreator(\n        address _dappCreator,\n        ICampaignNFT _nftCollection,\n        uint8 _nftType,\n        uint256 _amount,\n        uint256 _platformFee,\n        uint256 _discount,\n        bool _isWhitelistMint,\n        IDappCreator.Proof memory _proof,\n        string memory _callbackData,\n        address _to\n    ) external payable {\n        WETH.deposit{value: msg.value}();\n        IDappCreator(_dappCreator).mintingFromGateway(\n            _nftCollection,\n            _nftType,\n            _amount,\n            _platformFee,\n            _discount,\n            _isWhitelistMint,\n            _proof,\n            _callbackData,\n            _to\n        );\n    }\n\n    /**\n     * @dev Convert WETH to ETH when call function withdraw token from Treasury contract\n     * direct transfers to the wallet address.\n     * @param _treasury Treasury contract address\n     * @param _to recipient of the transfer\n     * @param _amount amount to send\n     * @param _collectionAddress collection NFT address\n     */\n    function withdrawETH(\n        address _treasury,\n        address _to,\n        uint256 _amount,\n        address _collectionAddress\n    ) external payable override {\n        ITreasury(_treasury).withdrawFromGateway(\n            _amount,\n            _collectionAddress,\n            address(WETH)\n        );\n        WETH.withdraw(_amount);\n        _safeTransferETH(_to, _amount);\n    }\n\n    /**\n     * @dev transfer ERC20 from the utility contract, for ERC20 recovery in case of stuck tokens due\n     * direct transfers to the contract address.\n     * @param token token to transfer\n     * @param to recipient of the transfer\n     * @param amount amount to send\n     */\n    function emergencyTokenTransfer(\n        address token,\n        address to,\n        uint256 amount\n    ) external onlyOwner {\n        IERC20(token).transfer(to, amount);\n    }\n\n    /**\n     * @dev transfer native Ether from the utility contract, for native Ether recovery in case of stuck Ether\n     * due selfdestructs or transfer ether to pre-computated contract address before deployment.\n     * @param to recipient of the transfer\n     * @param amount amount to send\n     */\n    function emergencyEtherTransfer(\n        address to,\n        uint256 amount\n    ) external onlyOwner {\n        _safeTransferETH(to, amount);\n    }\n\n    /**\n     * @dev   transfer ETH to an address, revert if it fails.\n     * @param to recipient of the transfer\n     * @param value the amount to send\n     */\n    function _safeTransferETH(address to, uint256 value) internal {\n        (bool success, ) = to.call{value: value}(new bytes(0));\n        require(success, \"ETH_TRANSFER_FAILED\");\n    }\n\n    /**\n     * @dev Get WETH address used by WETHGateway\n     */\n    function getWETHAddress() external view returns (address) {\n        return address(WETH);\n    }\n\n    /**\n     * @dev Only WETH contract is allowed to transfer ETH here. Prevent other addresses to send Ether to this contract.\n     */\n    receive() external payable {\n        require(msg.sender == address(WETH), \"Receive not allowed\");\n    }\n\n    /**\n     * @dev Revert fallback calls\n     */\n    fallback() external payable {\n        revert(\"Fallback not allowed\");\n    }\n}\n",
  "sourcePath": "/Users/huy8bit/Desktop/DRIVE/JOB/ATOM SOLUTION/TASK/inz-dapp-api/dev/inz-smc/contracts/minting/GatewayNFT.sol",
  "compiler": {
    "name": "solc",
    "version": "0.8.19+commit.7dd6d404.Emscripten.clang"
  },
  "schemaVersion": "3.4.14",
  "updatedAt": "2023-08-28T08:29:31.976Z",
  "networkType": "ethereum",
  "devdoc": {
    "kind": "dev",
    "methods": {
      "authorizeNFT(address)": {
        "details": "Authorize for DappCreator or Treasury contract to receive or withdraw Native Token(ETH)",
        "params": {
          "_contractAuthorize": "Contract Address of DappCreator or Treasury*"
        }
      },
      "constructor": {
        "details": "Sets the WETH address and owner this contract. Infinite approves DappCreator or Treasury.",
        "params": {
          "_owner": "Address of the owner of this contract*",
          "_weth": "Address of the Wrapped Ether contract"
        }
      },
      "emergencyEtherTransfer(address,uint256)": {
        "details": "transfer native Ether from the utility contract, for native Ether recovery in case of stuck Ether due selfdestructs or transfer ether to pre-computated contract address before deployment.",
        "params": {
          "amount": "amount to send",
          "to": "recipient of the transfer"
        }
      },
      "emergencyTokenTransfer(address,address,uint256)": {
        "details": "transfer ERC20 from the utility contract, for ERC20 recovery in case of stuck tokens due direct transfers to the contract address.",
        "params": {
          "amount": "amount to send",
          "to": "recipient of the transfer",
          "token": "token to transfer"
        }
      },
      "getWETHAddress()": {
        "details": "Get WETH address used by WETHGateway"
      },
      "mintToDappCreator(address,address,uint8,uint256,uint256,uint256,bool,(uint8,bytes32,bytes32,uint256),string,address)": {
        "details": "Allows users mint NFTs to pay with Native Token & Convert WETH to Treasury."
      },
      "owner()": {
        "details": "Returns the address of the current owner."
      },
      "renounceOwnership()": {
        "details": "Leaves the contract without owner. It will not be possible to call `onlyOwner` functions. Can only be called by the current owner. NOTE: Renouncing ownership will leave the contract without an owner, thereby disabling any functionality that is only available to the owner."
      },
      "transferOwnership(address)": {
        "details": "Transfers ownership of the contract to a new account (`newOwner`). Can only be called by the current owner."
      },
      "updateWETH(address)": {
        "details": "Update WETH address this contract.",
        "params": {
          "_weth": "Address of the Wrapped Ether contract*"
        }
      },
      "withdrawETH(address,address,uint256,address)": {
        "details": "Convert WETH to ETH when call function withdraw token from Treasury contract direct transfers to the wallet address.",
        "params": {
          "_amount": "amount to send",
          "_collectionAddress": "collection NFT address",
          "_to": "recipient of the transfer",
          "_treasury": "Treasury contract address"
        }
      }
    },
    "version": 1
  },
  "userdoc": {
    "kind": "user",
    "methods": {},
    "version": 1
  }
}