{
  "contractName": "InZBoxCampaign",
  "abi": [
    {
      "anonymous": false,
      "inputs": [
        {
          "indexed": false,
          "internalType": "address",
          "name": "previousAdmin",
          "type": "address"
        },
        {
          "indexed": false,
          "internalType": "address",
          "name": "newAdmin",
          "type": "address"
        }
      ],
      "name": "AdminChanged",
      "type": "event"
    },
    {
      "anonymous": false,
      "inputs": [
        {
          "indexed": true,
          "internalType": "address",
          "name": "owner",
          "type": "address"
        },
        {
          "indexed": true,
          "internalType": "address",
          "name": "approved",
          "type": "address"
        },
        {
          "indexed": true,
          "internalType": "uint256",
          "name": "tokenId",
          "type": "uint256"
        }
      ],
      "name": "Approval",
      "type": "event"
    },
    {
      "anonymous": false,
      "inputs": [
        {
          "indexed": true,
          "internalType": "address",
          "name": "owner",
          "type": "address"
        },
        {
          "indexed": true,
          "internalType": "address",
          "name": "operator",
          "type": "address"
        },
        {
          "indexed": false,
          "internalType": "bool",
          "name": "approved",
          "type": "bool"
        }
      ],
      "name": "ApprovalForAll",
      "type": "event"
    },
    {
      "anonymous": false,
      "inputs": [
        {
          "indexed": true,
          "internalType": "address",
          "name": "beacon",
          "type": "address"
        }
      ],
      "name": "BeaconUpgraded",
      "type": "event"
    },
    {
      "anonymous": false,
      "inputs": [
        {
          "indexed": false,
          "internalType": "address",
          "name": "buyer",
          "type": "address"
        },
        {
          "indexed": false,
          "internalType": "uint256",
          "name": "tokenId",
          "type": "uint256"
        }
      ],
      "name": "BoxBought",
      "type": "event"
    },
    {
      "anonymous": false,
      "inputs": [
        {
          "indexed": false,
          "internalType": "uint8",
          "name": "version",
          "type": "uint8"
        }
      ],
      "name": "Initialized",
      "type": "event"
    },
    {
      "anonymous": false,
      "inputs": [
        {
          "indexed": false,
          "internalType": "address",
          "name": "owner",
          "type": "address"
        },
        {
          "indexed": false,
          "internalType": "uint256",
          "name": "tokenId",
          "type": "uint256"
        }
      ],
      "name": "OpenBox",
      "type": "event"
    },
    {
      "anonymous": false,
      "inputs": [
        {
          "indexed": true,
          "internalType": "address",
          "name": "previousOwner",
          "type": "address"
        },
        {
          "indexed": true,
          "internalType": "address",
          "name": "newOwner",
          "type": "address"
        }
      ],
      "name": "OwnershipTransferred",
      "type": "event"
    },
    {
      "anonymous": false,
      "inputs": [
        {
          "indexed": true,
          "internalType": "bytes32",
          "name": "role",
          "type": "bytes32"
        },
        {
          "indexed": true,
          "internalType": "bytes32",
          "name": "previousAdminRole",
          "type": "bytes32"
        },
        {
          "indexed": true,
          "internalType": "bytes32",
          "name": "newAdminRole",
          "type": "bytes32"
        }
      ],
      "name": "RoleAdminChanged",
      "type": "event"
    },
    {
      "anonymous": false,
      "inputs": [
        {
          "indexed": true,
          "internalType": "bytes32",
          "name": "role",
          "type": "bytes32"
        },
        {
          "indexed": true,
          "internalType": "address",
          "name": "account",
          "type": "address"
        },
        {
          "indexed": true,
          "internalType": "address",
          "name": "sender",
          "type": "address"
        }
      ],
      "name": "RoleGranted",
      "type": "event"
    },
    {
      "anonymous": false,
      "inputs": [
        {
          "indexed": true,
          "internalType": "bytes32",
          "name": "role",
          "type": "bytes32"
        },
        {
          "indexed": true,
          "internalType": "address",
          "name": "account",
          "type": "address"
        },
        {
          "indexed": true,
          "internalType": "address",
          "name": "sender",
          "type": "address"
        }
      ],
      "name": "RoleRevoked",
      "type": "event"
    },
    {
      "anonymous": false,
      "inputs": [
        {
          "indexed": false,
          "internalType": "address",
          "name": "oldAddress",
          "type": "address"
        },
        {
          "indexed": false,
          "internalType": "address",
          "name": "newAddress",
          "type": "address"
        }
      ],
      "name": "SetNewNftOpeningItem",
      "type": "event"
    },
    {
      "anonymous": false,
      "inputs": [
        {
          "indexed": false,
          "internalType": "address",
          "name": "oldToken",
          "type": "address"
        },
        {
          "indexed": false,
          "internalType": "address",
          "name": "newToken",
          "type": "address"
        }
      ],
      "name": "SetNewPayToken",
      "type": "event"
    },
    {
      "anonymous": false,
      "inputs": [
        {
          "indexed": true,
          "internalType": "address",
          "name": "from",
          "type": "address"
        },
        {
          "indexed": true,
          "internalType": "address",
          "name": "to",
          "type": "address"
        },
        {
          "indexed": true,
          "internalType": "uint256",
          "name": "tokenId",
          "type": "uint256"
        }
      ],
      "name": "Transfer",
      "type": "event"
    },
    {
      "anonymous": false,
      "inputs": [
        {
          "indexed": true,
          "internalType": "address",
          "name": "implementation",
          "type": "address"
        }
      ],
      "name": "Upgraded",
      "type": "event"
    },
    {
      "inputs": [],
      "name": "DEFAULT_ADMIN_ROLE",
      "outputs": [
        {
          "internalType": "bytes32",
          "name": "",
          "type": "bytes32"
        }
      ],
      "stateMutability": "view",
      "type": "function"
    },
    {
      "inputs": [
        {
          "internalType": "address",
          "name": "to",
          "type": "address"
        },
        {
          "internalType": "uint256",
          "name": "tokenId",
          "type": "uint256"
        }
      ],
      "name": "approve",
      "outputs": [],
      "stateMutability": "nonpayable",
      "type": "function"
    },
    {
      "inputs": [
        {
          "internalType": "address",
          "name": "owner",
          "type": "address"
        }
      ],
      "name": "balanceOf",
      "outputs": [
        {
          "internalType": "uint256",
          "name": "",
          "type": "uint256"
        }
      ],
      "stateMutability": "view",
      "type": "function"
    },
    {
      "inputs": [
        {
          "internalType": "uint256",
          "name": "tokenId",
          "type": "uint256"
        }
      ],
      "name": "getApproved",
      "outputs": [
        {
          "internalType": "address",
          "name": "",
          "type": "address"
        }
      ],
      "stateMutability": "view",
      "type": "function"
    },
    {
      "inputs": [
        {
          "internalType": "bytes32",
          "name": "role",
          "type": "bytes32"
        }
      ],
      "name": "getRoleAdmin",
      "outputs": [
        {
          "internalType": "bytes32",
          "name": "",
          "type": "bytes32"
        }
      ],
      "stateMutability": "view",
      "type": "function"
    },
    {
      "inputs": [
        {
          "internalType": "bytes32",
          "name": "role",
          "type": "bytes32"
        },
        {
          "internalType": "address",
          "name": "account",
          "type": "address"
        }
      ],
      "name": "grantRole",
      "outputs": [],
      "stateMutability": "nonpayable",
      "type": "function"
    },
    {
      "inputs": [
        {
          "internalType": "bytes32",
          "name": "role",
          "type": "bytes32"
        },
        {
          "internalType": "address",
          "name": "account",
          "type": "address"
        }
      ],
      "name": "hasRole",
      "outputs": [
        {
          "internalType": "bool",
          "name": "",
          "type": "bool"
        }
      ],
      "stateMutability": "view",
      "type": "function"
    },
    {
      "inputs": [
        {
          "internalType": "address",
          "name": "owner",
          "type": "address"
        },
        {
          "internalType": "address",
          "name": "operator",
          "type": "address"
        }
      ],
      "name": "isApprovedForAll",
      "outputs": [
        {
          "internalType": "bool",
          "name": "",
          "type": "bool"
        }
      ],
      "stateMutability": "view",
      "type": "function"
    },
    {
      "inputs": [],
      "name": "name",
      "outputs": [
        {
          "internalType": "string",
          "name": "",
          "type": "string"
        }
      ],
      "stateMutability": "view",
      "type": "function"
    },
    {
      "inputs": [],
      "name": "owner",
      "outputs": [
        {
          "internalType": "address",
          "name": "",
          "type": "address"
        }
      ],
      "stateMutability": "view",
      "type": "function"
    },
    {
      "inputs": [
        {
          "internalType": "uint256",
          "name": "tokenId",
          "type": "uint256"
        }
      ],
      "name": "ownerOf",
      "outputs": [
        {
          "internalType": "address",
          "name": "",
          "type": "address"
        }
      ],
      "stateMutability": "view",
      "type": "function"
    },
    {
      "inputs": [],
      "name": "proxiableUUID",
      "outputs": [
        {
          "internalType": "bytes32",
          "name": "",
          "type": "bytes32"
        }
      ],
      "stateMutability": "view",
      "type": "function"
    },
    {
      "inputs": [],
      "name": "renounceOwnership",
      "outputs": [],
      "stateMutability": "nonpayable",
      "type": "function"
    },
    {
      "inputs": [
        {
          "internalType": "bytes32",
          "name": "role",
          "type": "bytes32"
        },
        {
          "internalType": "address",
          "name": "account",
          "type": "address"
        }
      ],
      "name": "renounceRole",
      "outputs": [],
      "stateMutability": "nonpayable",
      "type": "function"
    },
    {
      "inputs": [
        {
          "internalType": "bytes32",
          "name": "role",
          "type": "bytes32"
        },
        {
          "internalType": "address",
          "name": "account",
          "type": "address"
        }
      ],
      "name": "revokeRole",
      "outputs": [],
      "stateMutability": "nonpayable",
      "type": "function"
    },
    {
      "inputs": [],
      "name": "s_nftOpeningItem",
      "outputs": [
        {
          "internalType": "contract INFTOpeningItem",
          "name": "",
          "type": "address"
        }
      ],
      "stateMutability": "view",
      "type": "function"
    },
    {
      "inputs": [],
      "name": "s_payToken",
      "outputs": [
        {
          "internalType": "contract IERC20",
          "name": "",
          "type": "address"
        }
      ],
      "stateMutability": "view",
      "type": "function"
    },
    {
      "inputs": [
        {
          "internalType": "address",
          "name": "from",
          "type": "address"
        },
        {
          "internalType": "address",
          "name": "to",
          "type": "address"
        },
        {
          "internalType": "uint256",
          "name": "tokenId",
          "type": "uint256"
        }
      ],
      "name": "safeTransferFrom",
      "outputs": [],
      "stateMutability": "nonpayable",
      "type": "function"
    },
    {
      "inputs": [
        {
          "internalType": "address",
          "name": "from",
          "type": "address"
        },
        {
          "internalType": "address",
          "name": "to",
          "type": "address"
        },
        {
          "internalType": "uint256",
          "name": "tokenId",
          "type": "uint256"
        },
        {
          "internalType": "bytes",
          "name": "data",
          "type": "bytes"
        }
      ],
      "name": "safeTransferFrom",
      "outputs": [],
      "stateMutability": "nonpayable",
      "type": "function"
    },
    {
      "inputs": [
        {
          "internalType": "address",
          "name": "operator",
          "type": "address"
        },
        {
          "internalType": "bool",
          "name": "approved",
          "type": "bool"
        }
      ],
      "name": "setApprovalForAll",
      "outputs": [],
      "stateMutability": "nonpayable",
      "type": "function"
    },
    {
      "inputs": [],
      "name": "symbol",
      "outputs": [
        {
          "internalType": "string",
          "name": "",
          "type": "string"
        }
      ],
      "stateMutability": "view",
      "type": "function"
    },
    {
      "inputs": [
        {
          "internalType": "address",
          "name": "from",
          "type": "address"
        },
        {
          "internalType": "address",
          "name": "to",
          "type": "address"
        },
        {
          "internalType": "uint256",
          "name": "tokenId",
          "type": "uint256"
        }
      ],
      "name": "transferFrom",
      "outputs": [],
      "stateMutability": "nonpayable",
      "type": "function"
    },
    {
      "inputs": [
        {
          "internalType": "address",
          "name": "newOwner",
          "type": "address"
        }
      ],
      "name": "transferOwnership",
      "outputs": [],
      "stateMutability": "nonpayable",
      "type": "function"
    },
    {
      "inputs": [
        {
          "internalType": "address",
          "name": "newImplementation",
          "type": "address"
        }
      ],
      "name": "upgradeTo",
      "outputs": [],
      "stateMutability": "nonpayable",
      "type": "function"
    },
    {
      "inputs": [
        {
          "internalType": "address",
          "name": "newImplementation",
          "type": "address"
        },
        {
          "internalType": "bytes",
          "name": "data",
          "type": "bytes"
        }
      ],
      "name": "upgradeToAndCall",
      "outputs": [],
      "stateMutability": "payable",
      "type": "function"
    },
    {
      "inputs": [
        {
          "internalType": "string",
          "name": "_uri",
          "type": "string"
        },
        {
          "internalType": "contract IERC20",
          "name": "_payToken",
          "type": "address"
        },
        {
          "internalType": "string",
          "name": "_name",
          "type": "string"
        },
        {
          "internalType": "string",
          "name": "_symbol",
          "type": "string"
        },
        {
          "internalType": "uint256",
          "name": "_startTimeToBuy",
          "type": "uint256"
        },
        {
          "internalType": "uint256",
          "name": "_endTimeToBuy",
          "type": "uint256"
        },
        {
          "internalType": "bool",
          "name": "_isAutoIncreaseId",
          "type": "bool"
        },
        {
          "internalType": "uint256",
          "name": "_totalSupply",
          "type": "uint256"
        },
        {
          "internalType": "uint256",
          "name": "_price",
          "type": "uint256"
        }
      ],
      "name": "initialize",
      "outputs": [],
      "stateMutability": "nonpayable",
      "type": "function"
    },
    {
      "inputs": [
        {
          "internalType": "uint256",
          "name": "tokenId",
          "type": "uint256"
        }
      ],
      "name": "mint",
      "outputs": [],
      "stateMutability": "nonpayable",
      "type": "function"
    },
    {
      "inputs": [
        {
          "internalType": "uint256",
          "name": "tokenId",
          "type": "uint256"
        }
      ],
      "name": "openBox",
      "outputs": [],
      "stateMutability": "nonpayable",
      "type": "function"
    },
    {
      "inputs": [
        {
          "internalType": "address",
          "name": "to",
          "type": "address"
        },
        {
          "internalType": "uint256",
          "name": "value",
          "type": "uint256"
        },
        {
          "internalType": "bytes",
          "name": "data",
          "type": "bytes"
        },
        {
          "internalType": "enum InterfaceFunction.Operation",
          "name": "operation",
          "type": "uint8"
        }
      ],
      "name": "requiredTxGas",
      "outputs": [],
      "stateMutability": "nonpayable",
      "type": "function"
    },
    {
      "inputs": [
        {
          "internalType": "address",
          "name": "to",
          "type": "address"
        },
        {
          "internalType": "uint256",
          "name": "value",
          "type": "uint256"
        },
        {
          "internalType": "uint256",
          "name": "txGas",
          "type": "uint256"
        },
        {
          "internalType": "bytes",
          "name": "data",
          "type": "bytes"
        },
        {
          "internalType": "enum InterfaceFunction.Operation",
          "name": "operation",
          "type": "uint8"
        }
      ],
      "name": "execTx",
      "outputs": [],
      "stateMutability": "nonpayable",
      "type": "function"
    },
    {
      "inputs": [
        {
          "internalType": "contract INFTOpeningItem",
          "name": "_openingItem",
          "type": "address"
        }
      ],
      "name": "setNftOpeningItem",
      "outputs": [],
      "stateMutability": "nonpayable",
      "type": "function"
    },
    {
      "inputs": [
        {
          "internalType": "contract IERC20",
          "name": "_newPayToken",
          "type": "address"
        }
      ],
      "name": "setPayToken",
      "outputs": [],
      "stateMutability": "nonpayable",
      "type": "function"
    },
    {
      "inputs": [
        {
          "internalType": "uint256",
          "name": "tokenId",
          "type": "uint256"
        }
      ],
      "name": "tokenURI",
      "outputs": [
        {
          "internalType": "string",
          "name": "",
          "type": "string"
        }
      ],
      "stateMutability": "view",
      "type": "function"
    },
    {
      "inputs": [
        {
          "internalType": "address",
          "name": "owner",
          "type": "address"
        }
      ],
      "name": "getListBoxOf",
      "outputs": [
        {
          "internalType": "uint256[]",
          "name": "",
          "type": "uint256[]"
        }
      ],
      "stateMutability": "view",
      "type": "function"
    },
    {
      "inputs": [
        {
          "internalType": "bytes4",
          "name": "interfaceId",
          "type": "bytes4"
        }
      ],
      "name": "supportsInterface",
      "outputs": [
        {
          "internalType": "bool",
          "name": "",
          "type": "bool"
        }
      ],
      "stateMutability": "view",
      "type": "function"
    }
  ],
  "bytecode": "0x60a06040523060805234801561001457600080fd5b5060805161346f61004c60003960008181610978015281816109b801528181610a7201528181610ab20152610b41015261346f6000f3fe6080604052600436106102045760003560e01c80638da5cb5b11610118578063b1e5e2b7116100a0578063c87b56dd1161006f578063c87b56dd146105ed578063d547741f1461060d578063e4a4a2a31461062d578063e985e9c51461064d578063f2fde38b1461069657600080fd5b8063b1e5e2b71461056c578063b224d82b1461058c578063b88d4fde146105ad578063c4ca3a9c146105cd57600080fd5b806395d89b41116100e757806395d89b41146104e1578063a0712d68146104f6578063a217fddf14610516578063a22cb4651461052b578063b0952aff1461054b57600080fd5b80638da5cb5b146104555780638f0b7b681461047457806391d14854146104945780639254b815146104b457600080fd5b80633659cfe61161019b5780636352211e1161016a5780636352211e146103c05780636f96e99c146103e057806370a0823114610400578063715018a61461042057806388c63a571461043557600080fd5b80633659cfe61461035857806342842e0e146103785780634f1ef2861461039857806352d1902d146103ab57600080fd5b806323b872dd116101d757806323b872dd146102ba578063248a9ca3146102da5780632f2ff15d1461031857806336568abe1461033857600080fd5b806301ffc9a71461020957806306fdde031461023e578063081812fc14610260578063095ea7b314610298575b600080fd5b34801561021557600080fd5b506102296102243660046128b5565b6106b6565b60405190151581526020015b60405180910390f35b34801561024a57600080fd5b506102536106c7565b6040516102359190612922565b34801561026c57600080fd5b5061028061027b366004612935565b610759565b6040516001600160a01b039091168152602001610235565b3480156102a457600080fd5b506102b86102b3366004612963565b610780565b005b3480156102c657600080fd5b506102b86102d536600461298f565b61089a565b3480156102e657600080fd5b5061030a6102f5366004612935565b60009081526097602052604090206001015490565b604051908152602001610235565b34801561032457600080fd5b506102b86103333660046129d0565b6108cb565b34801561034457600080fd5b506102b86103533660046129d0565b6108f0565b34801561036457600080fd5b506102b8610373366004612a00565b61096e565b34801561038457600080fd5b506102b861039336600461298f565b610a4d565b6102b86103a6366004612ac0565b610a68565b3480156103b757600080fd5b5061030a610b34565b3480156103cc57600080fd5b506102806103db366004612935565b610be7565b3480156103ec57600080fd5b506102b86103fb366004612a00565b610c47565b34801561040c57600080fd5b5061030a61041b366004612a00565b610d68565b34801561042c57600080fd5b506102b8610dee565b34801561044157600080fd5b506102b8610450366004612a00565b610e02565b34801561046157600080fd5b5061012d546001600160a01b0316610280565b34801561048057600080fd5b506102b861048f366004612b78565b610f1d565b3480156104a057600080fd5b506102296104af3660046129d0565b610faf565b3480156104c057600080fd5b506104d46104cf366004612a00565b610fda565b6040516102359190612bf1565b3480156104ed57600080fd5b50610253611047565b34801561050257600080fd5b506102b8610511366004612935565b611056565b34801561052257600080fd5b5061030a600081565b34801561053757600080fd5b506102b8610546366004612c4e565b6113c3565b34801561055757600080fd5b5061016254610280906001600160a01b031681565b34801561057857600080fd5b506102b8610587366004612935565b6113ce565b34801561059857600080fd5b5061015f54610280906001600160a01b031681565b3480156105b957600080fd5b506102b86105c8366004612c7c565b61153a565b3480156105d957600080fd5b506102b86105e8366004612ce8565b611572565b3480156105f957600080fd5b50610253610608366004612935565b611613565b34801561061957600080fd5b506102b86106283660046129d0565b6116a7565b34801561063957600080fd5b506102b8610648366004612d59565b6116cc565b34801561065957600080fd5b50610229610668366004612e2a565b6001600160a01b039182166000908152606a6020908152604080832093909416825291909152205460ff1690565b3480156106a257600080fd5b506102b86106b1366004612a00565b6118c9565b60006106c18261193f565b92915050565b6060606580546106d690612e58565b80601f016020809104026020016040519081016040528092919081815260200182805461070290612e58565b801561074f5780601f106107245761010080835404028352916020019161074f565b820191906000526020600020905b81548152906001019060200180831161073257829003601f168201915b5050505050905090565b600061076482611964565b506000908152606960205260409020546001600160a01b031690565b600061078b82610be7565b9050806001600160a01b0316836001600160a01b0316036107fd5760405162461bcd60e51b815260206004820152602160248201527f4552433732313a20617070726f76616c20746f2063757272656e74206f776e656044820152603960f91b60648201526084015b60405180910390fd5b336001600160a01b038216148061081957506108198133610668565b61088b5760405162461bcd60e51b815260206004820152603d60248201527f4552433732313a20617070726f76652063616c6c6572206973206e6f7420746f60448201527f6b656e206f776e6572206f7220617070726f76656420666f7220616c6c00000060648201526084016107f4565b61089583836119c3565b505050565b6108a43382611a31565b6108c05760405162461bcd60e51b81526004016107f490612e92565b610895838383611ab0565b6000828152609760205260409020600101546108e681611c21565b6108958383611c2b565b6001600160a01b03811633146109605760405162461bcd60e51b815260206004820152602f60248201527f416363657373436f6e74726f6c3a2063616e206f6e6c792072656e6f756e636560448201526e103937b632b9903337b91039b2b63360891b60648201526084016107f4565b61096a8282611cb1565b5050565b6001600160a01b037f00000000000000000000000000000000000000000000000000000000000000001630036109b65760405162461bcd60e51b81526004016107f490612edf565b7f00000000000000000000000000000000000000000000000000000000000000006001600160a01b03166109ff6000805160206133d3833981519152546001600160a01b031690565b6001600160a01b031614610a255760405162461bcd60e51b81526004016107f490612f2b565b610a2e81611d18565b60408051600080825260208201909252610a4a91839190611d30565b50565b6108958383836040518060200160405280600081525061153a565b6001600160a01b037f0000000000000000000000000000000000000000000000000000000000000000163003610ab05760405162461bcd60e51b81526004016107f490612edf565b7f00000000000000000000000000000000000000000000000000000000000000006001600160a01b0316610af96000805160206133d3833981519152546001600160a01b031690565b6001600160a01b031614610b1f5760405162461bcd60e51b81526004016107f490612f2b565b610b2882611d18565b61096a82826001611d30565b6000306001600160a01b037f00000000000000000000000000000000000000000000000000000000000000001614610bd45760405162461bcd60e51b815260206004820152603860248201527f555550535570677261646561626c653a206d757374206e6f742062652063616c60448201527f6c6564207468726f7567682064656c656761746563616c6c000000000000000060648201526084016107f4565b506000805160206133d383398151915290565b6000818152606760205260408120546001600160a01b0316806106c15760405162461bcd60e51b8152602060048201526018602482015277115490cdcc8c4e881a5b9d985b1a59081d1bdad95b88125160421b60448201526064016107f4565b7f22c69ab406805e70d07fb1a6502af760601d3b977beadb295a9d76d5852e16a3610c7181611c21565b61015f546001600160a01b0390811690831603610d005760405162461bcd60e51b815260206004820152604160248201527f536574204e65772050617920546f6b656e3a20546865206e6577206f6e65206d60448201527f75737420626520646966666572656e742066726f6d20746865206f6c64206f6e6064820152606560f81b608482015260a4016107f4565b61015f80546001600160a01b038481166001600160a01b03198316179092556101625460408051928416808452919093166020830152917f95b51941f4e9b50395a323548e977103f9f32e909efa973665c8c2889c4e510691015b60405180910390a1505050565b60006001600160a01b038216610dd25760405162461bcd60e51b815260206004820152602960248201527f4552433732313a2061646472657373207a65726f206973206e6f7420612076616044820152683634b21037bbb732b960b91b60648201526084016107f4565b506001600160a01b031660009081526068602052604090205490565b610df6611e9b565b610e006000611ef6565b565b7f22c69ab406805e70d07fb1a6502af760601d3b977beadb295a9d76d5852e16a3610e2c81611c21565b610162546001600160a01b0390811690831603610ec25760405162461bcd60e51b815260206004820152604860248201527f536574204e6577204e4654204f70656e696e67204974656d3a20546865206e6560448201527f77206f6e65206d75737420626520646966666572656e742066726f6d20746865606482015267206f6c64206f6e6560c01b608482015260a4016107f4565b61016280546001600160a01b038481166001600160a01b031983168117909355604080519190921680825260208201939093527fcd96411d27b0679c066181f5eada6e87b37923da830ba84a40dd98933e694fe19101610d5b565b60008051602061341a833981519152610f3581611c21565b604051631ce8f7e360e11b815273__InterfaceFunction_____________________906339d1efc690610f76908a908a908a908a908a908a90600401612fc2565b60006040518083038186803b158015610f8e57600080fd5b505af4158015610fa2573d6000803e3d6000fd5b5050505050505050505050565b60009182526097602090815260408084206001600160a01b0393909316845291905290205460ff1690565b6001600160a01b0381166000908152610163602090815260409182902080548351818402810184019094528084526060939283018282801561103b57602002820191906000526020600020905b815481526020019060010190808311611027575b50505050509050919050565b6060606680546106d690612e58565b61015f5461016754604051636eb1769f60e11b8152336004820181905230602483018190526001600160a01b0390941693909290918190859063dd62ed3e90604401602060405180830381865afa1580156110b5573d6000803e3d6000fd5b505050506040513d601f19601f820116820180604052508101906110d9919061300a565b10156111275760405162461bcd60e51b815260206004820152601860248201527f4e6f7420617070726f766520656e6f75676820746f6b656e000000000000000060448201526064016107f4565b6101695442101561117a5760405162461bcd60e51b815260206004820152601d60248201527f5468652063616d7061696e2773206e6f7420737461727465642079657400000060448201526064016107f4565b61016a544211156111cd5760405162461bcd60e51b815260206004820152601c60248201527f5468652063616d706169676e277320616c726561647920656e6465640000000060448201526064016107f4565b61016654610168541061120d5760405162461bcd60e51b815260206004820152600860248201526714dbdb19081bdd5d60c21b60448201526064016107f4565b6101655460009060ff16611293576000868152606760205260409020546001600160a01b03161561128c5760405162461bcd60e51b815260206004820152602360248201527f4d696e7420426f783a20746f6b656e4964277320616c726561647920657869736044820152621d195960ea1b60648201526084016107f4565b50846112a8565b6112a261016180546001019055565b50610161545b61015f54610167546040516323b872dd60e01b815233600482015230602482015260448101919091526001600160a01b03909116906323b872dd906064016020604051808303816000875af1158015611305573d6000803e3d6000fd5b505050506040513d601f19601f820116820180604052508101906113299190613023565b506113343382611f49565b600161016860008282546113489190613056565b909155505033600081815261016360209081526040808320805460018101825590845282842001859055848352610164825291829020805460ff19169055815192835282018390527ffc12685c49cfeb42745015fd291b95815c183f87696b74009c88ed640a03b247910160405180910390a1505050505050565b61096a3383836120e2565b336113d882610be7565b6001600160a01b03161461142e5760405162461bcd60e51b815260206004820152601b60248201527f596f7520646964206e6f74206f776e65642074686520746f6b656e000000000060448201526064016107f4565b6000818152610164602052604090205460ff16156114855760405162461bcd60e51b8152602060048201526014602482015273109bde09dcc8185b1c9958591e481bdc195b995960621b60448201526064016107f4565b61016254604051636918c75760e11b81523360048201526001600160a01b039091169063d2318eae90602401600060405180830381600087803b1580156114cb57600080fd5b505af11580156114df573d6000803e3d6000fd5b50505060008281526101646020908152604091829020805460ff1916600117905581513381529081018490527f985873858e85c45546ea9ae9a4f36f740f1654da6c06d25bd88e3a1307ed22df92500160405180910390a150565b6115443383611a31565b6115605760405162461bcd60e51b81526004016107f490612e92565b61156c848484846121b0565b50505050565b60008051602061341a83398151915261158a81611c21565b604051637a17125960e01b815273__InterfaceFunction_____________________90637a171259906115c99089908990899089908990600401613069565b602060405180830381865af41580156115e6573d6000803e3d6000fd5b505050506040513d601f19601f8201168201806040525081019061160a919061300a565b50505050505050565b606061161e82611964565b610160805461162c90612e58565b80601f016020809104026020016040519081016040528092919081815260200182805461165890612e58565b801561103b5780601f1061167a5761010080835404028352916020019161103b565b820191906000526020600020905b8154815290600101906020018083116116885750939695505050505050565b6000828152609760205260409020600101546116c281611c21565b6108958383611cb1565b600054610100900460ff16158080156116ec5750600054600160ff909116105b806117065750303b158015611706575060005460ff166001145b6117695760405162461bcd60e51b815260206004820152602e60248201527f496e697469616c697a61626c653a20636f6e747261637420697320616c72656160448201526d191e481a5b9a5d1a585b1a5e995960921b60648201526084016107f4565b6000805460ff19166001179055801561178c576000805461ff0019166101001790555b61015f80546001600160a01b0319166001600160a01b038b161790556101606117b58b826130f8565b5061016986905561016a859055610165805460ff19168515151790556101668390556101678290556117e788886121e3565b6117ef612214565b6117f7612214565b61180032611ef6565b61180b60003261223b565b61182360008051602061341a8339815191523261223b565b61184d7f22c69ab406805e70d07fb1a6502af760601d3b977beadb295a9d76d5852e16a33261223b565b6118777f5d8e12c39142ff96d79d04d15d1ba1269e4fe57bb9d26f43523628b34ba108ec3261223b565b80156118bd576000805461ff0019169055604051600181527f7f26b83ff96e1f2b6a682f133852f6798a09c465da95921460cefb38474024989060200160405180910390a15b50505050505050505050565b6118d1611e9b565b6001600160a01b0381166119365760405162461bcd60e51b815260206004820152602660248201527f4f776e61626c653a206e6577206f776e657220697320746865207a65726f206160448201526564647265737360d01b60648201526084016107f4565b610a4a81611ef6565b60006001600160e01b03198216637965db0b60e01b14806106c157506106c182612245565b6000818152606760205260409020546001600160a01b0316610a4a5760405162461bcd60e51b8152602060048201526018602482015277115490cdcc8c4e881a5b9d985b1a59081d1bdad95b88125160421b60448201526064016107f4565b600081815260696020526040902080546001600160a01b0319166001600160a01b03841690811790915581906119f882610be7565b6001600160a01b03167f8c5be1e5ebec7d5bd14f71427d1e84f3dd0314c0f7b2291e5b200ac8c7c3b92560405160405180910390a45050565b600080611a3d83610be7565b9050806001600160a01b0316846001600160a01b03161480611a8457506001600160a01b038082166000908152606a602090815260408083209388168352929052205460ff165b80611aa85750836001600160a01b0316611a9d84610759565b6001600160a01b0316145b949350505050565b826001600160a01b0316611ac382610be7565b6001600160a01b031614611ae95760405162461bcd60e51b81526004016107f4906131b8565b6001600160a01b038216611b4b5760405162461bcd60e51b8152602060048201526024808201527f4552433732313a207472616e7366657220746f20746865207a65726f206164646044820152637265737360e01b60648201526084016107f4565b611b588383836001612295565b826001600160a01b0316611b6b82610be7565b6001600160a01b031614611b915760405162461bcd60e51b81526004016107f4906131b8565b600081815260696020908152604080832080546001600160a01b03199081169091556001600160a01b0387811680865260688552838620805460001901905590871680865283862080546001019055868652606790945282852080549092168417909155905184937fddf252ad1be2c89b69c2b068fc378daa952ba7f163c4a11628f55a4df523b3ef91a4505050565b610a4a813361231d565b611c358282610faf565b61096a5760008281526097602090815260408083206001600160a01b03851684529091529020805460ff19166001179055611c6d3390565b6001600160a01b0316816001600160a01b0316837f2f8788117e7eff1d82e926ec794901d17c78024a50270940304540a733656f0d60405160405180910390a45050565b611cbb8282610faf565b1561096a5760008281526097602090815260408083206001600160a01b0385168085529252808320805460ff1916905551339285917ff6391f5c32d9c69d2a47ea670b442974b53935d1edc7fd64eb21e047a839171b9190a45050565b60008051602061341a83398151915261096a81611c21565b7f4910fdfa16fed3260ed0e7147f7cc6da11a60208b5b9406d12a635614ffd91435460ff1615611d635761089583612376565b826001600160a01b03166352d1902d6040518163ffffffff1660e01b8152600401602060405180830381865afa925050508015611dbd575060408051601f3d908101601f19168201909252611dba9181019061300a565b60015b611e205760405162461bcd60e51b815260206004820152602e60248201527f45524331393637557067726164653a206e657720696d706c656d656e7461746960448201526d6f6e206973206e6f74205555505360901b60648201526084016107f4565b6000805160206133d38339815191528114611e8f5760405162461bcd60e51b815260206004820152602960248201527f45524331393637557067726164653a20756e737570706f727465642070726f786044820152681a58589b195555525160ba1b60648201526084016107f4565b50610895838383612412565b61012d546001600160a01b03163314610e005760405162461bcd60e51b815260206004820181905260248201527f4f776e61626c653a2063616c6c6572206973206e6f7420746865206f776e657260448201526064016107f4565b61012d80546001600160a01b038381166001600160a01b0319831681179093556040519116919082907f8be0079c531659141344cd1fd0a4f28419497f9722a3daafe3b4186f6b6457e090600090a35050565b6001600160a01b038216611f9f5760405162461bcd60e51b815260206004820181905260248201527f4552433732313a206d696e7420746f20746865207a65726f206164647265737360448201526064016107f4565b6000818152606760205260409020546001600160a01b0316156120045760405162461bcd60e51b815260206004820152601c60248201527f4552433732313a20746f6b656e20616c7265616479206d696e7465640000000060448201526064016107f4565b612012600083836001612295565b6000818152606760205260409020546001600160a01b0316156120775760405162461bcd60e51b815260206004820152601c60248201527f4552433732313a20746f6b656e20616c7265616479206d696e7465640000000060448201526064016107f4565b6001600160a01b038216600081815260686020908152604080832080546001019055848352606790915280822080546001600160a01b0319168417905551839291907fddf252ad1be2c89b69c2b068fc378daa952ba7f163c4a11628f55a4df523b3ef908290a45050565b816001600160a01b0316836001600160a01b0316036121435760405162461bcd60e51b815260206004820152601960248201527f4552433732313a20617070726f766520746f2063616c6c65720000000000000060448201526064016107f4565b6001600160a01b038381166000818152606a6020908152604080832094871680845294825291829020805460ff191686151590811790915591519182527f17307eab39ab6107e8899845ad3d59bd9653f200f220920489ca2b5937696c31910160405180910390a3505050565b6121bb848484611ab0565b6121c784848484612437565b61156c5760405162461bcd60e51b81526004016107f4906131fd565b600054610100900460ff1661220a5760405162461bcd60e51b81526004016107f49061324f565b61096a8282612538565b600054610100900460ff16610e005760405162461bcd60e51b81526004016107f49061324f565b61096a8282611c2b565b60006001600160e01b031982166380ac58cd60e01b148061227657506001600160e01b03198216635b5e139f60e01b145b806106c157506301ffc9a760e01b6001600160e01b03198316146106c1565b600181111561156c576001600160a01b038416156122db576001600160a01b038416600090815260686020526040812080548392906122d590849061329a565b90915550505b6001600160a01b0383161561156c576001600160a01b03831660009081526068602052604081208054839290612312908490613056565b909155505050505050565b6123278282610faf565b61096a5761233481612578565b61233f83602061258a565b6040516020016123509291906132ad565b60408051601f198184030181529082905262461bcd60e51b82526107f491600401612922565b6001600160a01b0381163b6123e35760405162461bcd60e51b815260206004820152602d60248201527f455243313936373a206e657720696d706c656d656e746174696f6e206973206e60448201526c1bdd08184818dbdb9d1c9858dd609a1b60648201526084016107f4565b6000805160206133d383398151915280546001600160a01b0319166001600160a01b0392909216919091179055565b61241b8361272d565b6000825111806124285750805b156108955761156c838361276d565b60006001600160a01b0384163b1561252d57604051630a85bd0160e11b81526001600160a01b0385169063150b7a029061247b903390899088908890600401613322565b6020604051808303816000875af19250505080156124b6575060408051601f3d908101601f191682019092526124b391810190613355565b60015b612513573d8080156124e4576040519150601f19603f3d011682016040523d82523d6000602084013e6124e9565b606091505b50805160000361250b5760405162461bcd60e51b81526004016107f4906131fd565b805181602001fd5b6001600160e01b031916630a85bd0160e11b149050611aa8565b506001949350505050565b600054610100900460ff1661255f5760405162461bcd60e51b81526004016107f49061324f565b606561256b83826130f8565b50606661089582826130f8565b60606106c16001600160a01b03831660145b60606000612599836002613372565b6125a4906002613056565b67ffffffffffffffff8111156125bc576125bc612a1d565b6040519080825280601f01601f1916602001820160405280156125e6576020820181803683370190505b509050600360fc1b8160008151811061260157612601613389565b60200101906001600160f81b031916908160001a905350600f60fb1b8160018151811061263057612630613389565b60200101906001600160f81b031916908160001a9053506000612654846002613372565b61265f906001613056565b90505b60018111156126d7576f181899199a1a9b1b9c1cb0b131b232b360811b85600f166010811061269357612693613389565b1a60f81b8282815181106126a9576126a9613389565b60200101906001600160f81b031916908160001a90535060049490941c936126d08161339f565b9050612662565b5083156127265760405162461bcd60e51b815260206004820181905260248201527f537472696e67733a20686578206c656e67746820696e73756666696369656e7460448201526064016107f4565b9392505050565b61273681612376565b6040516001600160a01b038216907fbc7cd75a20ee27fd9adebab32041f755214dbc6bffa90cc0225b39da2e5c2d3b90600090a250565b60606001600160a01b0383163b6127d55760405162461bcd60e51b815260206004820152602660248201527f416464726573733a2064656c65676174652063616c6c20746f206e6f6e2d636f6044820152651b9d1c9858dd60d21b60648201526084016107f4565b600080846001600160a01b0316846040516127f091906133b6565b600060405180830381855af49150503d806000811461282b576040519150601f19603f3d011682016040523d82523d6000602084013e612830565b606091505b509150915061285882826040518060600160405280602781526020016133f360279139612861565b95945050505050565b60608315612870575081612726565b61272683838151156128855781518083602001fd5b8060405162461bcd60e51b81526004016107f49190612922565b6001600160e01b031981168114610a4a57600080fd5b6000602082840312156128c757600080fd5b81356127268161289f565b60005b838110156128ed5781810151838201526020016128d5565b50506000910152565b6000815180845261290e8160208601602086016128d2565b601f01601f19169290920160200192915050565b60208152600061272660208301846128f6565b60006020828403121561294757600080fd5b5035919050565b6001600160a01b0381168114610a4a57600080fd5b6000806040838503121561297657600080fd5b82356129818161294e565b946020939093013593505050565b6000806000606084860312156129a457600080fd5b83356129af8161294e565b925060208401356129bf8161294e565b929592945050506040919091013590565b600080604083850312156129e357600080fd5b8235915060208301356129f58161294e565b809150509250929050565b600060208284031215612a1257600080fd5b81356127268161294e565b634e487b7160e01b600052604160045260246000fd5b600082601f830112612a4457600080fd5b813567ffffffffffffffff80821115612a5f57612a5f612a1d565b604051601f8301601f19908116603f01168101908282118183101715612a8757612a87612a1d565b81604052838152866020858801011115612aa057600080fd5b836020870160208301376000602085830101528094505050505092915050565b60008060408385031215612ad357600080fd5b8235612ade8161294e565b9150602083013567ffffffffffffffff811115612afa57600080fd5b612b0685828601612a33565b9150509250929050565b8035612b1b8161294e565b919050565b60008083601f840112612b3257600080fd5b50813567ffffffffffffffff811115612b4a57600080fd5b602083019150836020828501011115612b6257600080fd5b9250929050565b803560028110612b1b57600080fd5b60008060008060008060a08789031215612b9157600080fd5b8635612b9c8161294e565b95506020870135945060408701359350606087013567ffffffffffffffff811115612bc657600080fd5b612bd289828a01612b20565b9094509250612be5905060808801612b69565b90509295509295509295565b6020808252825182820181905260009190848201906040850190845b81811015612c2957835183529284019291840191600101612c0d565b50909695505050505050565b8015158114610a4a57600080fd5b8035612b1b81612c35565b60008060408385031215612c6157600080fd5b8235612c6c8161294e565b915060208301356129f581612c35565b60008060008060808587031215612c9257600080fd5b8435612c9d8161294e565b93506020850135612cad8161294e565b925060408501359150606085013567ffffffffffffffff811115612cd057600080fd5b612cdc87828801612a33565b91505092959194509250565b600080600080600060808688031215612d0057600080fd5b8535612d0b8161294e565b945060208601359350604086013567ffffffffffffffff811115612d2e57600080fd5b612d3a88828901612b20565b9094509250612d4d905060608701612b69565b90509295509295909350565b60008060008060008060008060006101208a8c031215612d7857600080fd5b893567ffffffffffffffff80821115612d9057600080fd5b612d9c8d838e01612a33565b9a50612daa60208d01612b10565b995060408c0135915080821115612dc057600080fd5b612dcc8d838e01612a33565b985060608c0135915080821115612de257600080fd5b50612def8c828d01612a33565b96505060808a0135945060a08a01359350612e0c60c08b01612c43565b925060e08a013591506101008a013590509295985092959850929598565b60008060408385031215612e3d57600080fd5b8235612e488161294e565b915060208301356129f58161294e565b600181811c90821680612e6c57607f821691505b602082108103612e8c57634e487b7160e01b600052602260045260246000fd5b50919050565b6020808252602d908201527f4552433732313a2063616c6c6572206973206e6f7420746f6b656e206f776e6560408201526c1c881bdc88185c1c1c9bdd9959609a1b606082015260800190565b6020808252602c908201527f46756e6374696f6e206d7573742062652063616c6c6564207468726f7567682060408201526b19195b1959d85d1958d85b1b60a21b606082015260800190565b6020808252602c908201527f46756e6374696f6e206d7573742062652063616c6c6564207468726f7567682060408201526b6163746976652070726f787960a01b606082015260800190565b81835281816020850137506000828201602090810191909152601f909101601f19169091010190565b60028110612fbe57634e487b7160e01b600052602160045260246000fd5b9052565b60018060a01b038716815285602082015284604082015260a060608201526000612ff060a083018587612f77565b9050612fff6080830184612fa0565b979650505050505050565b60006020828403121561301c57600080fd5b5051919050565b60006020828403121561303557600080fd5b815161272681612c35565b634e487b7160e01b600052601160045260246000fd5b808201808211156106c1576106c1613040565b60018060a01b0386168152846020820152608060408201526000613091608083018587612f77565b90506130a06060830184612fa0565b9695505050505050565b601f82111561089557600081815260208120601f850160051c810160208610156130d15750805b601f850160051c820191505b818110156130f0578281556001016130dd565b505050505050565b815167ffffffffffffffff81111561311257613112612a1d565b613126816131208454612e58565b846130aa565b602080601f83116001811461315b57600084156131435750858301515b600019600386901b1c1916600185901b1785556130f0565b600085815260208120601f198616915b8281101561318a5788860151825594840194600190910190840161316b565b50858210156131a85787850151600019600388901b60f8161c191681555b5050505050600190811b01905550565b60208082526025908201527f4552433732313a207472616e736665722066726f6d20696e636f72726563742060408201526437bbb732b960d91b606082015260800190565b60208082526032908201527f4552433732313a207472616e7366657220746f206e6f6e20455243373231526560408201527131b2b4bb32b91034b6b83632b6b2b73a32b960711b606082015260800190565b6020808252602b908201527f496e697469616c697a61626c653a20636f6e7472616374206973206e6f74206960408201526a6e697469616c697a696e6760a81b606082015260800190565b818103818111156106c1576106c1613040565b7f416363657373436f6e74726f6c3a206163636f756e74200000000000000000008152600083516132e58160178501602088016128d2565b7001034b99036b4b9b9b4b733903937b6329607d1b60179184019182015283516133168160288401602088016128d2565b01602801949350505050565b6001600160a01b03858116825284166020820152604081018390526080606082018190526000906130a0908301846128f6565b60006020828403121561336757600080fd5b81516127268161289f565b80820281158282048414176106c1576106c1613040565b634e487b7160e01b600052603260045260246000fd5b6000816133ae576133ae613040565b506000190190565b600082516133c88184602087016128d2565b919091019291505056fe360894a13ba1a3210667c828492db98dca3e2076cc3735a920a3ca505d382bbc416464726573733a206c6f772d6c6576656c2064656c65676174652063616c6c206661696c6564a49807205ce4d355092ef5a8a18f56e8913cf4a201fbe287825b095693c21775a26469706673582212207989237e2b0b8aa34aa0b65d3d4e919c31666431062113121f3ea91e8662314e64736f6c63430008130033",
  "immutableReferences": {
    "1148": [
      {
        "length": 32,
        "start": 2424
      },
      {
        "length": 32,
        "start": 2488
      },
      {
        "length": 32,
        "start": 2674
      },
      {
        "length": 32,
        "start": 2738
      },
      {
        "length": 32,
        "start": 2881
      }
    ]
  },
  "source": "// SPDX-License-Identifier: MIT\npragma solidity ^0.8.2;\n\nimport \"@openzeppelin/contracts/utils/Strings.sol\";\nimport \"@openzeppelin/contracts-upgradeable/access/AccessControlUpgradeable.sol\";\nimport \"@openzeppelin/contracts-upgradeable/proxy/utils/UUPSUpgradeable.sol\";\nimport \"@openzeppelin/contracts-upgradeable/token/ERC721/ERC721Upgradeable.sol\";\nimport \"@openzeppelin/contracts-upgradeable/access/OwnableUpgradeable.sol\";\nimport \"@openzeppelin/contracts/utils/Counters.sol\";\nimport \"@openzeppelin/contracts/token/ERC20/IERC20.sol\";\nimport \"../libraries/InZNFTDetail.sol\";\nimport \"../libraries/InZNFTTypeDetail.sol\";\nimport \"../interfaces/INFTOpeningItem.sol\";\nimport \"../interfaces/IInZNFTMarket.sol\";\nimport \"../utils/InterfaceFunction.sol\";\n\ncontract InZBoxCampaign is\n    ERC721Upgradeable,\n    AccessControlUpgradeable,\n    UUPSUpgradeable,\n    OwnableUpgradeable\n{\n    ///\n    ///             EXTERNAL USING\n    ///\n    using Counters for Counters.Counter;\n\n    ///\n    ///             STRUCTS DEFINITION\n\n    ///\n    ///             EVENTS DEFINATION\n    ///\n    event BoxBought(address buyer, uint256 tokenId);\n\n    event SetNewPayToken(address oldToken, address newToken);\n\n    event SetNewNftOpeningItem(address oldAddress, address newAddress);\n\n    event OpenBox(address owner, uint256 tokenId);\n\n    ///\n    ///             STORAGE DATA DECLARATIONS\n    ///\n    bytes32 internal constant ADMIN_ROLE = keccak256(\"ADMIN_ROLE\");\n    bytes32 internal constant DESIGNER_ROLE = keccak256(\"DESIGNER_ROLE\");\n    bytes32 internal constant WITHDRAW_ROLE = keccak256(\"WITHDRAW_ROLE\");\n\n    // Pay Token for minting action\n    IERC20 public s_payToken;\n\n    // tokenURI of box\n    string private s_tokenUri;\n\n    // Counter for tokenId\n    Counters.Counter internal s_tokenIdCounter;\n\n    // Item that can be opened via opeing boxes\n    INFTOpeningItem public s_nftOpeningItem;\n\n    // Mapping tokenId to BoxDetail\n    mapping(address => uint256[]) private s_boxesOwner;\n\n    // Mapping tokenId and status of opened or not\n    mapping(uint256 => bool) private isOpened;\n\n    // OPTION: Fixed, auto-increase tokenId or not\n    bool private s_isAutoIncreaseId;\n\n    // Total supply of Box campaign\n    uint256 private s_totalSupply;\n\n    // Price of the box\n    uint256 private s_price;\n\n    // Total box was minted\n    uint256 private s_totalMinted;\n\n    // Duration of the campaign\n    uint256 private s_startTimeToBuy;\n    uint256 private s_endTimeToBuy;\n\n    ///\n    ///             MODIFIER\n    ///\n    modifier isApproveEnough(\n        IERC20 token,\n        address owner,\n        address spender,\n        uint256 checkingAmount\n    ) {\n        require(\n            token.allowance(owner, spender) >= checkingAmount,\n            \"Not approve enough token\"\n        );\n        _;\n    }\n\n    modifier isValidTimeToMint() {\n        require(\n            block.timestamp >= s_startTimeToBuy,\n            \"The campain's not started yet\"\n        );\n        require(\n            block.timestamp <= s_endTimeToBuy,\n            \"The campaign's already ended\"\n        );\n        _;\n    }\n\n    modifier isUnreachLimit() {\n        require(s_totalMinted < s_totalSupply, \"Sold out\");\n        _;\n    }\n\n    function initialize(\n        string memory _uri,\n        IERC20 _payToken,\n        string memory _name,\n        string memory _symbol,\n        uint256 _startTimeToBuy,\n        uint256 _endTimeToBuy,\n        bool _isAutoIncreaseId,\n        uint256 _totalSupply,\n        uint256 _price\n    ) external initializer {\n        s_payToken = _payToken;\n        s_tokenUri = _uri;\n        s_startTimeToBuy = _startTimeToBuy;\n        s_endTimeToBuy = _endTimeToBuy;\n        s_isAutoIncreaseId = _isAutoIncreaseId;\n        s_totalSupply = _totalSupply;\n        s_price = _price;\n\n        __ERC721_init(_name, _symbol);\n        __AccessControl_init();\n        __UUPSUpgradeable_init();\n        _transferOwnership(tx.origin);\n\n        _setupRole(DEFAULT_ADMIN_ROLE, tx.origin);\n        _setupRole(ADMIN_ROLE, tx.origin);\n        _setupRole(DESIGNER_ROLE, tx.origin);\n        _setupRole(WITHDRAW_ROLE, tx.origin);\n    }\n\n    function mint(\n        uint256 tokenId\n    )\n        external\n        isApproveEnough(s_payToken, msg.sender, address(this), s_price)\n        isValidTimeToMint\n        isUnreachLimit\n    {\n        uint256 _executeId;\n        if (!s_isAutoIncreaseId) {\n            require(!_exists(tokenId), \"Mint Box: tokenId's already existed\");\n            _executeId = tokenId;\n        } else {\n            s_tokenIdCounter.increment();\n            _executeId = s_tokenIdCounter.current();\n        }\n\n        // Transfer token from buyer to campagin\n        s_payToken.transferFrom(msg.sender, address(this), s_price);\n\n        // Mint box for buyer\n        _mint(msg.sender, _executeId);\n\n        // Update state\n        s_totalMinted += 1;\n        s_boxesOwner[msg.sender].push(_executeId);\n        isOpened[_executeId] = false;\n\n        emit BoxBought(msg.sender, _executeId);\n    }\n\n    function openBox(uint256 tokenId) external {\n        require(ownerOf(tokenId) == msg.sender, \"You did not owned the token\");\n        require(!isOpened[tokenId], \"Box's already opened\");\n\n        // Call NFT Opening Item to open box\n        s_nftOpeningItem.mintFromBoxOpening(msg.sender);\n\n        // Save state\n        isOpened[tokenId] = true;\n        emit OpenBox(msg.sender, tokenId);\n    }\n\n    /**\n     *  @notice     This function is only used for estimation purpose, therefore the call will always revert and encode the result in the revert data.\n     *  @dev        This function's used for estimate gas for a execution call\n     *  @param to           The address of caller\n     *  @param value        The value of msg.value\n     *  @param data         The data sent with tx\n     *  @param operation    the operation of tx\n     */\n    function requiredTxGas(\n        address to,\n        uint256 value,\n        bytes calldata data,\n        InterfaceFunction.Operation operation\n    ) external onlyRole(ADMIN_ROLE) // returns (uint256)\n    {\n        InterfaceFunction.requiredTxGas(to, value, data, operation);\n    }\n\n    /**\n     * This function allow ADMIN can execute a function witj specificed logic and params flexibily\n     * @param to The caller of tx\n     * @param value The msg.value of tx\n     * @param txGas The estimated gas using for the tx\n     * @param data The data comming with the tx\n     * @param operation The operation of tx\n     */\n    function execTx(\n        address to,\n        uint256 value,\n        uint256 txGas,\n        bytes calldata data,\n        InterfaceFunction.Operation operation\n    ) external onlyRole(ADMIN_ROLE) {\n        InterfaceFunction.execTx(to, value, txGas, data, operation);\n    }\n\n    ///\n    ///         SETTERS\n    ///\n    function setNftOpeningItem(\n        INFTOpeningItem _openingItem\n    ) external onlyRole(DESIGNER_ROLE) {\n        require(\n            _openingItem != s_nftOpeningItem,\n            \"Set New NFT Opening Item: The new one must be different from the old one\"\n        );\n        address oldAddress = address(s_nftOpeningItem);\n        s_nftOpeningItem = _openingItem;\n        emit SetNewNftOpeningItem(oldAddress, address(s_nftOpeningItem));\n    }\n\n    function setPayToken(IERC20 _newPayToken) external onlyRole(DESIGNER_ROLE) {\n        require(\n            _newPayToken != s_payToken,\n            \"Set New Pay Token: The new one must be different from the old one\"\n        );\n        address oldPayToken = address(s_payToken);\n        s_payToken = _newPayToken;\n        emit SetNewPayToken(oldPayToken, address(s_nftOpeningItem));\n    }\n\n    ///\n    ///         GETTERS\n    ///\n    function tokenURI(\n        uint256 tokenId\n    ) public view virtual override returns (string memory) {\n        _requireMinted(tokenId);\n        return s_tokenUri;\n    }\n\n    function getListBoxOf(\n        address owner\n    ) external view returns (uint256[] memory) {\n        return s_boxesOwner[owner];\n    }\n\n    ///\n    ///          INHERITANCE FUNCTIONS\n    ///\n    function supportsInterface(\n        bytes4 interfaceId\n    )\n        public\n        view\n        override(ERC721Upgradeable, AccessControlUpgradeable)\n        returns (bool)\n    {\n        return super.supportsInterface(interfaceId);\n    }\n\n    function _authorizeUpgrade(\n        address newImplementation\n    ) internal override onlyRole(ADMIN_ROLE) {}\n\n    ///\n    ///         INTERNAL FUNCTIONS\n    ///\n}\n",
  "sourcePath": "/Users/huy8bit/Desktop/DRIVE/JOB/ATOM SOLUTION/TASK/inz-dapp-api/dev/inz-smc/contracts/minting/campaignBOX/InZBoxCampaign.sol",
  "compiler": {
    "name": "solc",
    "version": "0.8.19+commit.7dd6d404.Emscripten.clang"
  },
  "schemaVersion": "3.4.14",
  "updatedAt": "2023-08-28T08:04:22.840Z",
  "devdoc": {
    "events": {
      "AdminChanged(address,address)": {
        "details": "Emitted when the admin account has changed."
      },
      "Approval(address,address,uint256)": {
        "details": "Emitted when `owner` enables `approved` to manage the `tokenId` token."
      },
      "ApprovalForAll(address,address,bool)": {
        "details": "Emitted when `owner` enables or disables (`approved`) `operator` to manage all of its assets."
      },
      "BeaconUpgraded(address)": {
        "details": "Emitted when the beacon is upgraded."
      },
      "Initialized(uint8)": {
        "details": "Triggered when the contract has been initialized or reinitialized."
      },
      "RoleAdminChanged(bytes32,bytes32,bytes32)": {
        "details": "Emitted when `newAdminRole` is set as ``role``'s admin role, replacing `previousAdminRole` `DEFAULT_ADMIN_ROLE` is the starting admin for all roles, despite {RoleAdminChanged} not being emitted signaling this. _Available since v3.1._"
      },
      "RoleGranted(bytes32,address,address)": {
        "details": "Emitted when `account` is granted `role`. `sender` is the account that originated the contract call, an admin role bearer except when using {AccessControl-_setupRole}."
      },
      "RoleRevoked(bytes32,address,address)": {
        "details": "Emitted when `account` is revoked `role`. `sender` is the account that originated the contract call:   - if using `revokeRole`, it is the admin role bearer   - if using `renounceRole`, it is the role bearer (i.e. `account`)"
      },
      "Transfer(address,address,uint256)": {
        "details": "Emitted when `tokenId` token is transferred from `from` to `to`."
      },
      "Upgraded(address)": {
        "details": "Emitted when the implementation is upgraded."
      }
    },
    "kind": "dev",
    "methods": {
      "approve(address,uint256)": {
        "details": "See {IERC721-approve}."
      },
      "balanceOf(address)": {
        "details": "See {IERC721-balanceOf}."
      },
      "execTx(address,uint256,uint256,bytes,uint8)": {
        "params": {
          "data": "The data comming with the tx",
          "operation": "The operation of tx",
          "to": "The caller of tx",
          "txGas": "The estimated gas using for the tx",
          "value": "The msg.value of tx"
        }
      },
      "getApproved(uint256)": {
        "details": "See {IERC721-getApproved}."
      },
      "getRoleAdmin(bytes32)": {
        "details": "Returns the admin role that controls `role`. See {grantRole} and {revokeRole}. To change a role's admin, use {_setRoleAdmin}."
      },
      "grantRole(bytes32,address)": {
        "details": "Grants `role` to `account`. If `account` had not been already granted `role`, emits a {RoleGranted} event. Requirements: - the caller must have ``role``'s admin role. May emit a {RoleGranted} event."
      },
      "hasRole(bytes32,address)": {
        "details": "Returns `true` if `account` has been granted `role`."
      },
      "isApprovedForAll(address,address)": {
        "details": "See {IERC721-isApprovedForAll}."
      },
      "name()": {
        "details": "See {IERC721Metadata-name}."
      },
      "owner()": {
        "details": "Returns the address of the current owner."
      },
      "ownerOf(uint256)": {
        "details": "See {IERC721-ownerOf}."
      },
      "proxiableUUID()": {
        "details": "Implementation of the ERC1822 {proxiableUUID} function. This returns the storage slot used by the implementation. It is used to validate the implementation's compatibility when performing an upgrade. IMPORTANT: A proxy pointing at a proxiable contract should not be considered proxiable itself, because this risks bricking a proxy that upgrades to it, by delegating to itself until out of gas. Thus it is critical that this function revert if invoked through a proxy. This is guaranteed by the `notDelegated` modifier."
      },
      "renounceOwnership()": {
        "details": "Leaves the contract without owner. It will not be possible to call `onlyOwner` functions anymore. Can only be called by the current owner. NOTE: Renouncing ownership will leave the contract without an owner, thereby removing any functionality that is only available to the owner."
      },
      "renounceRole(bytes32,address)": {
        "details": "Revokes `role` from the calling account. Roles are often managed via {grantRole} and {revokeRole}: this function's purpose is to provide a mechanism for accounts to lose their privileges if they are compromised (such as when a trusted device is misplaced). If the calling account had been revoked `role`, emits a {RoleRevoked} event. Requirements: - the caller must be `account`. May emit a {RoleRevoked} event."
      },
      "requiredTxGas(address,uint256,bytes,uint8)": {
        "details": "This function's used for estimate gas for a execution call",
        "params": {
          "data": "The data sent with tx",
          "operation": "the operation of tx",
          "to": "The address of caller",
          "value": "The value of msg.value"
        }
      },
      "revokeRole(bytes32,address)": {
        "details": "Revokes `role` from `account`. If `account` had been granted `role`, emits a {RoleRevoked} event. Requirements: - the caller must have ``role``'s admin role. May emit a {RoleRevoked} event."
      },
      "safeTransferFrom(address,address,uint256)": {
        "details": "See {IERC721-safeTransferFrom}."
      },
      "safeTransferFrom(address,address,uint256,bytes)": {
        "details": "See {IERC721-safeTransferFrom}."
      },
      "setApprovalForAll(address,bool)": {
        "details": "See {IERC721-setApprovalForAll}."
      },
      "symbol()": {
        "details": "See {IERC721Metadata-symbol}."
      },
      "transferFrom(address,address,uint256)": {
        "details": "See {IERC721-transferFrom}."
      },
      "transferOwnership(address)": {
        "details": "Transfers ownership of the contract to a new account (`newOwner`). Can only be called by the current owner."
      },
      "upgradeTo(address)": {
        "details": "Upgrade the implementation of the proxy to `newImplementation`. Calls {_authorizeUpgrade}. Emits an {Upgraded} event."
      },
      "upgradeToAndCall(address,bytes)": {
        "details": "Upgrade the implementation of the proxy to `newImplementation`, and subsequently execute the function call encoded in `data`. Calls {_authorizeUpgrade}. Emits an {Upgraded} event."
      }
    },
    "version": 1
  },
  "userdoc": {
    "events": {
      "BoxBought(address,uint256)": {
        "notice": "             EVENTS DEFINATION"
      }
    },
    "kind": "user",
    "methods": {
      "execTx(address,uint256,uint256,bytes,uint8)": {
        "notice": "This function allow ADMIN can execute a function witj specificed logic and params flexibily"
      },
      "requiredTxGas(address,uint256,bytes,uint8)": {
        "notice": "This function is only used for estimation purpose, therefore the call will always revert and encode the result in the revert data."
      },
      "setNftOpeningItem(address)": {
        "notice": "         SETTERS"
      },
      "supportsInterface(bytes4)": {
        "notice": "          INHERITANCE FUNCTIONS"
      },
      "tokenURI(uint256)": {
        "notice": "         GETTERS"
      }
    },
    "version": 1
  }
}