{
  "contractName": "InzCampaignTypesNFT721",
  "abi": [
    {
      "anonymous": false,
      "inputs": [
        {
          "indexed": false,
          "internalType": "address",
          "name": "to",
          "type": "address"
        },
        {
          "indexed": false,
          "internalType": "uint256",
          "name": "tokenId",
          "type": "uint256"
        },
        {
          "indexed": false,
          "internalType": "uint8",
          "name": "tokenType",
          "type": "uint8"
        },
        {
          "indexed": false,
          "internalType": "string",
          "name": "uri",
          "type": "string"
        },
        {
          "indexed": false,
          "internalType": "string",
          "name": "giftCode",
          "type": "string"
        }
      ],
      "name": "ActiveGiftCode",
      "type": "event"
    },
    {
      "anonymous": false,
      "inputs": [
        {
          "indexed": false,
          "internalType": "uint8",
          "name": "tokenType",
          "type": "uint8"
        },
        {
          "indexed": false,
          "internalType": "uint256",
          "name": "totalSupply",
          "type": "uint256"
        },
        {
          "indexed": false,
          "internalType": "uint256",
          "name": "price",
          "type": "uint256"
        }
      ],
      "name": "AddNftType",
      "type": "event"
    },
    {
      "anonymous": false,
      "inputs": [
        {
          "indexed": false,
          "internalType": "address",
          "name": "previousAdmin",
          "type": "address"
        },
        {
          "indexed": false,
          "internalType": "address",
          "name": "newAdmin",
          "type": "address"
        }
      ],
      "name": "AdminChanged",
      "type": "event"
    },
    {
      "anonymous": false,
      "inputs": [
        {
          "indexed": true,
          "internalType": "address",
          "name": "owner",
          "type": "address"
        },
        {
          "indexed": true,
          "internalType": "address",
          "name": "approved",
          "type": "address"
        },
        {
          "indexed": true,
          "internalType": "uint256",
          "name": "tokenId",
          "type": "uint256"
        }
      ],
      "name": "Approval",
      "type": "event"
    },
    {
      "anonymous": false,
      "inputs": [
        {
          "indexed": true,
          "internalType": "address",
          "name": "owner",
          "type": "address"
        },
        {
          "indexed": true,
          "internalType": "address",
          "name": "operator",
          "type": "address"
        },
        {
          "indexed": false,
          "internalType": "bool",
          "name": "approved",
          "type": "bool"
        }
      ],
      "name": "ApprovalForAll",
      "type": "event"
    },
    {
      "anonymous": false,
      "inputs": [
        {
          "indexed": true,
          "internalType": "address",
          "name": "beacon",
          "type": "address"
        }
      ],
      "name": "BeaconUpgraded",
      "type": "event"
    },
    {
      "anonymous": false,
      "inputs": [
        {
          "indexed": false,
          "internalType": "uint8",
          "name": "version",
          "type": "uint8"
        }
      ],
      "name": "Initialized",
      "type": "event"
    },
    {
      "anonymous": false,
      "inputs": [
        {
          "indexed": false,
          "internalType": "bytes",
          "name": "callbackData",
          "type": "bytes"
        },
        {
          "indexed": false,
          "internalType": "address",
          "name": "to",
          "type": "address"
        },
        {
          "components": [
            {
              "internalType": "uint256",
              "name": "nftType",
              "type": "uint256"
            },
            {
              "internalType": "uint256",
              "name": "tokenId",
              "type": "uint256"
            }
          ],
          "indexed": false,
          "internalType": "struct InzCampaignTypesNFT721.ReturnMintingOrder[]",
          "name": "returnMintingOrder",
          "type": "tuple[]"
        }
      ],
      "name": "MintOrderForDev",
      "type": "event"
    },
    {
      "anonymous": false,
      "inputs": [
        {
          "indexed": false,
          "internalType": "string",
          "name": "callbackData",
          "type": "string"
        },
        {
          "indexed": false,
          "internalType": "address",
          "name": "to",
          "type": "address"
        },
        {
          "components": [
            {
              "internalType": "uint256",
              "name": "nftType",
              "type": "uint256"
            },
            {
              "internalType": "uint256",
              "name": "tokenId",
              "type": "uint256"
            }
          ],
          "indexed": false,
          "internalType": "struct InzCampaignTypesNFT721.ReturnMintingOrder[]",
          "name": "returnMintingOrder",
          "type": "tuple[]"
        }
      ],
      "name": "MintOrderFromDaapCreator",
      "type": "event"
    },
    {
      "anonymous": false,
      "inputs": [
        {
          "indexed": true,
          "internalType": "address",
          "name": "previousOwner",
          "type": "address"
        },
        {
          "indexed": true,
          "internalType": "address",
          "name": "newOwner",
          "type": "address"
        }
      ],
      "name": "OwnershipTransferred",
      "type": "event"
    },
    {
      "anonymous": false,
      "inputs": [
        {
          "indexed": true,
          "internalType": "bytes32",
          "name": "role",
          "type": "bytes32"
        },
        {
          "indexed": true,
          "internalType": "bytes32",
          "name": "previousAdminRole",
          "type": "bytes32"
        },
        {
          "indexed": true,
          "internalType": "bytes32",
          "name": "newAdminRole",
          "type": "bytes32"
        }
      ],
      "name": "RoleAdminChanged",
      "type": "event"
    },
    {
      "anonymous": false,
      "inputs": [
        {
          "indexed": true,
          "internalType": "bytes32",
          "name": "role",
          "type": "bytes32"
        },
        {
          "indexed": true,
          "internalType": "address",
          "name": "account",
          "type": "address"
        },
        {
          "indexed": true,
          "internalType": "address",
          "name": "sender",
          "type": "address"
        }
      ],
      "name": "RoleGranted",
      "type": "event"
    },
    {
      "anonymous": false,
      "inputs": [
        {
          "indexed": true,
          "internalType": "bytes32",
          "name": "role",
          "type": "bytes32"
        },
        {
          "indexed": true,
          "internalType": "address",
          "name": "account",
          "type": "address"
        },
        {
          "indexed": true,
          "internalType": "address",
          "name": "sender",
          "type": "address"
        }
      ],
      "name": "RoleRevoked",
      "type": "event"
    },
    {
      "anonymous": false,
      "inputs": [
        {
          "indexed": false,
          "internalType": "address",
          "name": "to",
          "type": "address"
        },
        {
          "indexed": false,
          "internalType": "uint256",
          "name": "tokenId",
          "type": "uint256"
        },
        {
          "indexed": false,
          "internalType": "uint256",
          "name": "tokenType",
          "type": "uint256"
        }
      ],
      "name": "TokenCreated",
      "type": "event"
    },
    {
      "anonymous": false,
      "inputs": [
        {
          "indexed": true,
          "internalType": "address",
          "name": "from",
          "type": "address"
        },
        {
          "indexed": true,
          "internalType": "address",
          "name": "to",
          "type": "address"
        },
        {
          "indexed": true,
          "internalType": "uint256",
          "name": "tokenId",
          "type": "uint256"
        }
      ],
      "name": "Transfer",
      "type": "event"
    },
    {
      "anonymous": false,
      "inputs": [
        {
          "indexed": true,
          "internalType": "address",
          "name": "implementation",
          "type": "address"
        }
      ],
      "name": "Upgraded",
      "type": "event"
    },
    {
      "inputs": [],
      "name": "DEFAULT_ADMIN_ROLE",
      "outputs": [
        {
          "internalType": "bytes32",
          "name": "",
          "type": "bytes32"
        }
      ],
      "stateMutability": "view",
      "type": "function"
    },
    {
      "inputs": [
        {
          "internalType": "address",
          "name": "to",
          "type": "address"
        },
        {
          "internalType": "uint256",
          "name": "tokenId",
          "type": "uint256"
        }
      ],
      "name": "approve",
      "outputs": [],
      "stateMutability": "nonpayable",
      "type": "function"
    },
    {
      "inputs": [
        {
          "internalType": "address",
          "name": "owner",
          "type": "address"
        }
      ],
      "name": "balanceOf",
      "outputs": [
        {
          "internalType": "uint256",
          "name": "",
          "type": "uint256"
        }
      ],
      "stateMutability": "view",
      "type": "function"
    },
    {
      "inputs": [],
      "name": "baseMetadataUri",
      "outputs": [
        {
          "internalType": "string",
          "name": "",
          "type": "string"
        }
      ],
      "stateMutability": "view",
      "type": "function"
    },
    {
      "inputs": [],
      "name": "buyable",
      "outputs": [
        {
          "internalType": "bool",
          "name": "",
          "type": "bool"
        }
      ],
      "stateMutability": "view",
      "type": "function"
    },
    {
      "inputs": [],
      "name": "campaignPaymentAddress",
      "outputs": [
        {
          "internalType": "address",
          "name": "",
          "type": "address"
        }
      ],
      "stateMutability": "view",
      "type": "function"
    },
    {
      "inputs": [],
      "name": "coinToken",
      "outputs": [
        {
          "internalType": "contract IERC20",
          "name": "",
          "type": "address"
        }
      ],
      "stateMutability": "view",
      "type": "function"
    },
    {
      "inputs": [],
      "name": "endTimeToBuy",
      "outputs": [
        {
          "internalType": "uint256",
          "name": "",
          "type": "uint256"
        }
      ],
      "stateMutability": "view",
      "type": "function"
    },
    {
      "inputs": [
        {
          "internalType": "uint256",
          "name": "tokenId",
          "type": "uint256"
        }
      ],
      "name": "getApproved",
      "outputs": [
        {
          "internalType": "address",
          "name": "",
          "type": "address"
        }
      ],
      "stateMutability": "view",
      "type": "function"
    },
    {
      "inputs": [
        {
          "internalType": "bytes32",
          "name": "role",
          "type": "bytes32"
        }
      ],
      "name": "getRoleAdmin",
      "outputs": [
        {
          "internalType": "bytes32",
          "name": "",
          "type": "bytes32"
        }
      ],
      "stateMutability": "view",
      "type": "function"
    },
    {
      "inputs": [
        {
          "internalType": "bytes32",
          "name": "role",
          "type": "bytes32"
        },
        {
          "internalType": "address",
          "name": "account",
          "type": "address"
        }
      ],
      "name": "grantRole",
      "outputs": [],
      "stateMutability": "nonpayable",
      "type": "function"
    },
    {
      "inputs": [
        {
          "internalType": "bytes32",
          "name": "role",
          "type": "bytes32"
        },
        {
          "internalType": "address",
          "name": "account",
          "type": "address"
        }
      ],
      "name": "hasRole",
      "outputs": [
        {
          "internalType": "bool",
          "name": "",
          "type": "bool"
        }
      ],
      "stateMutability": "view",
      "type": "function"
    },
    {
      "inputs": [
        {
          "internalType": "address",
          "name": "",
          "type": "address"
        },
        {
          "internalType": "uint256",
          "name": "",
          "type": "uint256"
        }
      ],
      "name": "holders",
      "outputs": [
        {
          "internalType": "uint256",
          "name": "",
          "type": "uint256"
        }
      ],
      "stateMutability": "view",
      "type": "function"
    },
    {
      "inputs": [
        {
          "internalType": "address",
          "name": "owner",
          "type": "address"
        },
        {
          "internalType": "address",
          "name": "operator",
          "type": "address"
        }
      ],
      "name": "isApprovedForAll",
      "outputs": [
        {
          "internalType": "bool",
          "name": "",
          "type": "bool"
        }
      ],
      "stateMutability": "view",
      "type": "function"
    },
    {
      "inputs": [],
      "name": "marketOwnerAddress",
      "outputs": [
        {
          "internalType": "address",
          "name": "",
          "type": "address"
        }
      ],
      "stateMutability": "view",
      "type": "function"
    },
    {
      "inputs": [],
      "name": "name",
      "outputs": [
        {
          "internalType": "string",
          "name": "",
          "type": "string"
        }
      ],
      "stateMutability": "view",
      "type": "function"
    },
    {
      "inputs": [
        {
          "internalType": "uint8",
          "name": "",
          "type": "uint8"
        }
      ],
      "name": "nftTypeSupply",
      "outputs": [
        {
          "internalType": "uint256",
          "name": "",
          "type": "uint256"
        }
      ],
      "stateMutability": "view",
      "type": "function"
    },
    {
      "inputs": [],
      "name": "owner",
      "outputs": [
        {
          "internalType": "address",
          "name": "",
          "type": "address"
        }
      ],
      "stateMutability": "view",
      "type": "function"
    },
    {
      "inputs": [
        {
          "internalType": "uint256",
          "name": "tokenId",
          "type": "uint256"
        }
      ],
      "name": "ownerOf",
      "outputs": [
        {
          "internalType": "address",
          "name": "",
          "type": "address"
        }
      ],
      "stateMutability": "view",
      "type": "function"
    },
    {
      "inputs": [],
      "name": "proxiableUUID",
      "outputs": [
        {
          "internalType": "bytes32",
          "name": "",
          "type": "bytes32"
        }
      ],
      "stateMutability": "view",
      "type": "function"
    },
    {
      "inputs": [],
      "name": "publicStartTime",
      "outputs": [
        {
          "internalType": "uint256",
          "name": "",
          "type": "uint256"
        }
      ],
      "stateMutability": "view",
      "type": "function"
    },
    {
      "inputs": [],
      "name": "renounceOwnership",
      "outputs": [],
      "stateMutability": "nonpayable",
      "type": "function"
    },
    {
      "inputs": [
        {
          "internalType": "bytes32",
          "name": "role",
          "type": "bytes32"
        },
        {
          "internalType": "address",
          "name": "account",
          "type": "address"
        }
      ],
      "name": "renounceRole",
      "outputs": [],
      "stateMutability": "nonpayable",
      "type": "function"
    },
    {
      "inputs": [
        {
          "internalType": "bytes32",
          "name": "role",
          "type": "bytes32"
        },
        {
          "internalType": "address",
          "name": "account",
          "type": "address"
        }
      ],
      "name": "revokeRole",
      "outputs": [],
      "stateMutability": "nonpayable",
      "type": "function"
    },
    {
      "inputs": [
        {
          "internalType": "uint256",
          "name": "_tokenId",
          "type": "uint256"
        },
        {
          "internalType": "uint256",
          "name": "_salePrice",
          "type": "uint256"
        }
      ],
      "name": "royaltyInfo",
      "outputs": [
        {
          "internalType": "address",
          "name": "",
          "type": "address"
        },
        {
          "internalType": "uint256",
          "name": "",
          "type": "uint256"
        }
      ],
      "stateMutability": "view",
      "type": "function"
    },
    {
      "inputs": [
        {
          "internalType": "address",
          "name": "from",
          "type": "address"
        },
        {
          "internalType": "address",
          "name": "to",
          "type": "address"
        },
        {
          "internalType": "uint256",
          "name": "tokenId",
          "type": "uint256"
        }
      ],
      "name": "safeTransferFrom",
      "outputs": [],
      "stateMutability": "nonpayable",
      "type": "function"
    },
    {
      "inputs": [
        {
          "internalType": "address",
          "name": "from",
          "type": "address"
        },
        {
          "internalType": "address",
          "name": "to",
          "type": "address"
        },
        {
          "internalType": "uint256",
          "name": "tokenId",
          "type": "uint256"
        },
        {
          "internalType": "bytes",
          "name": "data",
          "type": "bytes"
        }
      ],
      "name": "safeTransferFrom",
      "outputs": [],
      "stateMutability": "nonpayable",
      "type": "function"
    },
    {
      "inputs": [
        {
          "internalType": "address",
          "name": "operator",
          "type": "address"
        },
        {
          "internalType": "bool",
          "name": "approved",
          "type": "bool"
        }
      ],
      "name": "setApprovalForAll",
      "outputs": [],
      "stateMutability": "nonpayable",
      "type": "function"
    },
    {
      "inputs": [],
      "name": "symbol",
      "outputs": [
        {
          "internalType": "string",
          "name": "",
          "type": "string"
        }
      ],
      "stateMutability": "view",
      "type": "function"
    },
    {
      "inputs": [
        {
          "internalType": "address",
          "name": "from",
          "type": "address"
        },
        {
          "internalType": "address",
          "name": "to",
          "type": "address"
        },
        {
          "internalType": "uint256",
          "name": "tokenId",
          "type": "uint256"
        }
      ],
      "name": "transferFrom",
      "outputs": [],
      "stateMutability": "nonpayable",
      "type": "function"
    },
    {
      "inputs": [
        {
          "internalType": "address",
          "name": "newOwner",
          "type": "address"
        }
      ],
      "name": "transferOwnership",
      "outputs": [],
      "stateMutability": "nonpayable",
      "type": "function"
    },
    {
      "inputs": [
        {
          "internalType": "address",
          "name": "newImplementation",
          "type": "address"
        }
      ],
      "name": "upgradeTo",
      "outputs": [],
      "stateMutability": "nonpayable",
      "type": "function"
    },
    {
      "inputs": [
        {
          "internalType": "address",
          "name": "newImplementation",
          "type": "address"
        },
        {
          "internalType": "bytes",
          "name": "data",
          "type": "bytes"
        }
      ],
      "name": "upgradeToAndCall",
      "outputs": [],
      "stateMutability": "payable",
      "type": "function"
    },
    {
      "inputs": [
        {
          "internalType": "uint8",
          "name": "",
          "type": "uint8"
        }
      ],
      "name": "uriByType",
      "outputs": [
        {
          "internalType": "string",
          "name": "",
          "type": "string"
        }
      ],
      "stateMutability": "view",
      "type": "function"
    },
    {
      "inputs": [],
      "name": "whiteListBought",
      "outputs": [
        {
          "internalType": "uint256",
          "name": "",
          "type": "uint256"
        }
      ],
      "stateMutability": "view",
      "type": "function"
    },
    {
      "inputs": [],
      "name": "whiteListPool",
      "outputs": [
        {
          "internalType": "uint256",
          "name": "",
          "type": "uint256"
        }
      ],
      "stateMutability": "view",
      "type": "function"
    },
    {
      "inputs": [
        {
          "internalType": "address",
          "name": "",
          "type": "address"
        }
      ],
      "name": "whitelistBuyable",
      "outputs": [
        {
          "internalType": "uint256",
          "name": "",
          "type": "uint256"
        }
      ],
      "stateMutability": "view",
      "type": "function"
    },
    {
      "inputs": [],
      "name": "whitelistStartTime",
      "outputs": [
        {
          "internalType": "uint256",
          "name": "",
          "type": "uint256"
        }
      ],
      "stateMutability": "view",
      "type": "function"
    },
    {
      "inputs": [
        {
          "internalType": "address",
          "name": "_marketOwnerAddress",
          "type": "address"
        },
        {
          "internalType": "address",
          "name": "_campaignPaymentAddress",
          "type": "address"
        },
        {
          "internalType": "contract IERC20",
          "name": "_coinToken",
          "type": "address"
        },
        {
          "internalType": "string",
          "name": "_symbol",
          "type": "string"
        },
        {
          "internalType": "string",
          "name": "_name",
          "type": "string"
        },
        {
          "internalType": "address",
          "name": "_adminAddress",
          "type": "address"
        },
        {
          "internalType": "address",
          "name": "_factoryAddress",
          "type": "address"
        }
      ],
      "name": "initialize",
      "outputs": [],
      "stateMutability": "nonpayable",
      "type": "function"
    },
    {
      "inputs": [
        {
          "internalType": "address",
          "name": "_owner",
          "type": "address"
        }
      ],
      "name": "getNftIdsByOwner",
      "outputs": [
        {
          "internalType": "uint256[]",
          "name": "",
          "type": "uint256[]"
        }
      ],
      "stateMutability": "view",
      "type": "function"
    },
    {
      "inputs": [
        {
          "internalType": "uint256",
          "name": "_amount",
          "type": "uint256"
        },
        {
          "internalType": "uint8",
          "name": "_tokenType",
          "type": "uint8"
        },
        {
          "internalType": "address",
          "name": "_to",
          "type": "address"
        }
      ],
      "name": "ownerMint",
      "outputs": [],
      "stateMutability": "nonpayable",
      "type": "function"
    },
    {
      "inputs": [
        {
          "internalType": "uint256",
          "name": "_amount",
          "type": "uint256"
        },
        {
          "internalType": "uint8",
          "name": "_tokenType",
          "type": "uint8"
        },
        {
          "internalType": "address",
          "name": "_to",
          "type": "address"
        },
        {
          "internalType": "string",
          "name": "_callbackData",
          "type": "string"
        }
      ],
      "name": "mint",
      "outputs": [],
      "stateMutability": "nonpayable",
      "type": "function"
    },
    {
      "inputs": [
        {
          "internalType": "uint256",
          "name": "_amount",
          "type": "uint256"
        },
        {
          "internalType": "uint8",
          "name": "_tokenType",
          "type": "uint8"
        },
        {
          "internalType": "address",
          "name": "_to",
          "type": "address"
        }
      ],
      "name": "whitelistMint",
      "outputs": [],
      "stateMutability": "nonpayable",
      "type": "function"
    },
    {
      "inputs": [
        {
          "internalType": "uint256",
          "name": "_tokenId",
          "type": "uint256"
        }
      ],
      "name": "tokenURI",
      "outputs": [
        {
          "internalType": "string",
          "name": "",
          "type": "string"
        }
      ],
      "stateMutability": "view",
      "type": "function"
    },
    {
      "inputs": [],
      "name": "lastId",
      "outputs": [
        {
          "internalType": "uint256",
          "name": "",
          "type": "uint256"
        }
      ],
      "stateMutability": "view",
      "type": "function"
    },
    {
      "inputs": [
        {
          "internalType": "address",
          "name": "to",
          "type": "address"
        },
        {
          "internalType": "uint256",
          "name": "value",
          "type": "uint256"
        },
        {
          "internalType": "bytes",
          "name": "data",
          "type": "bytes"
        },
        {
          "internalType": "enum InterfaceFunction.Operation",
          "name": "operation",
          "type": "uint8"
        }
      ],
      "name": "requiredTxGas",
      "outputs": [],
      "stateMutability": "nonpayable",
      "type": "function"
    },
    {
      "inputs": [
        {
          "internalType": "address",
          "name": "to",
          "type": "address"
        },
        {
          "internalType": "uint256",
          "name": "value",
          "type": "uint256"
        },
        {
          "internalType": "uint256",
          "name": "txGas",
          "type": "uint256"
        },
        {
          "internalType": "bytes",
          "name": "data",
          "type": "bytes"
        },
        {
          "internalType": "enum InterfaceFunction.Operation",
          "name": "operation",
          "type": "uint8"
        }
      ],
      "name": "execTx",
      "outputs": [],
      "stateMutability": "nonpayable",
      "type": "function"
    },
    {
      "inputs": [],
      "name": "withdraw",
      "outputs": [],
      "stateMutability": "nonpayable",
      "type": "function"
    },
    {
      "inputs": [
        {
          "internalType": "uint256[]",
          "name": "ids",
          "type": "uint256[]"
        }
      ],
      "name": "burn",
      "outputs": [],
      "stateMutability": "nonpayable",
      "type": "function"
    },
    {
      "inputs": [
        {
          "internalType": "uint256",
          "name": "_maxAllocation",
          "type": "uint256"
        }
      ],
      "name": "setMaxAllocation",
      "outputs": [],
      "stateMutability": "nonpayable",
      "type": "function"
    },
    {
      "inputs": [
        {
          "internalType": "address",
          "name": "_campaignPaymentAddress",
          "type": "address"
        }
      ],
      "name": "setCampaignPaymentAddress",
      "outputs": [],
      "stateMutability": "nonpayable",
      "type": "function"
    },
    {
      "inputs": [
        {
          "internalType": "uint256",
          "name": "_whitelistStartTime",
          "type": "uint256"
        }
      ],
      "name": "setWhiteListStartTime",
      "outputs": [],
      "stateMutability": "nonpayable",
      "type": "function"
    },
    {
      "inputs": [
        {
          "internalType": "uint256",
          "name": "_publicStartTime",
          "type": "uint256"
        }
      ],
      "name": "setPublicStartTime",
      "outputs": [],
      "stateMutability": "nonpayable",
      "type": "function"
    },
    {
      "inputs": [
        {
          "internalType": "uint256",
          "name": "_endTimeToBuy",
          "type": "uint256"
        }
      ],
      "name": "setEndTimeToBuy",
      "outputs": [],
      "stateMutability": "nonpayable",
      "type": "function"
    },
    {
      "inputs": [
        {
          "internalType": "contract IERC20",
          "name": "_coinToken",
          "type": "address"
        }
      ],
      "name": "setCoinToken",
      "outputs": [],
      "stateMutability": "nonpayable",
      "type": "function"
    },
    {
      "inputs": [
        {
          "internalType": "address[]",
          "name": "_whitelistAddresses",
          "type": "address[]"
        },
        {
          "internalType": "uint256[]",
          "name": "_buyableAmountList",
          "type": "uint256[]"
        }
      ],
      "name": "setWhitelistsBuyable",
      "outputs": [],
      "stateMutability": "nonpayable",
      "type": "function"
    },
    {
      "inputs": [
        {
          "internalType": "bool",
          "name": "_isBuyable",
          "type": "bool"
        }
      ],
      "name": "setBuyable",
      "outputs": [],
      "stateMutability": "nonpayable",
      "type": "function"
    },
    {
      "inputs": [
        {
          "internalType": "address",
          "name": "_wallet",
          "type": "address"
        },
        {
          "internalType": "uint96",
          "name": "_rate",
          "type": "uint96"
        }
      ],
      "name": "configRoyalty",
      "outputs": [],
      "stateMutability": "nonpayable",
      "type": "function"
    },
    {
      "inputs": [
        {
          "internalType": "bytes4",
          "name": "interfaceId",
          "type": "bytes4"
        }
      ],
      "name": "supportsInterface",
      "outputs": [
        {
          "internalType": "bool",
          "name": "",
          "type": "bool"
        }
      ],
      "stateMutability": "view",
      "type": "function"
    },
    {
      "inputs": [],
      "name": "getFactoryAddress",
      "outputs": [
        {
          "internalType": "address",
          "name": "",
          "type": "address"
        }
      ],
      "stateMutability": "view",
      "type": "function"
    },
    {
      "inputs": [
        {
          "internalType": "uint8",
          "name": "_tokenType",
          "type": "uint8"
        }
      ],
      "name": "getConfigNFT",
      "outputs": [
        {
          "components": [
            {
              "internalType": "uint8",
              "name": "nftType",
              "type": "uint8"
            },
            {
              "internalType": "uint256",
              "name": "totalSupply",
              "type": "uint256"
            },
            {
              "internalType": "uint256",
              "name": "price",
              "type": "uint256"
            }
          ],
          "internalType": "struct InZNFTTypeDetail.NFTTypeDetail",
          "name": "",
          "type": "tuple"
        }
      ],
      "stateMutability": "view",
      "type": "function"
    }
  ],
  "bytecode": "0x60a06040523060805234801561001457600080fd5b50608051614a7661004c60003960008181610f4301528181610f83015281816112d10152818161131101526113a00152614a766000f3fe6080604052600436106103a25760003560e01c806376214140116101e7578063ad9e963f1161010d578063db8cc8fa116100a0578063ea4afb5c1161006f578063ea4afb5c14610b16578063ef463b6414610b37578063f2fde38b14610b57578063ffa0a02a14610b7757600080fd5b8063db8cc8fa14610a76578063dd8a353014610a96578063e2f0394714610aad578063e985e9c514610acd57600080fd5b8063c1292cc3116100dc578063c1292cc314610a01578063c4ca3a9c14610a16578063c87b56dd14610a36578063d547741f14610a5657600080fd5b8063ad9e963f1461095b578063b80f55c9146109a0578063b88d4fde146109c0578063bffadc2f146109e057600080fd5b80639292caaf11610185578063a217fddf11610154578063a217fddf146108f1578063a22cb46514610906578063a76e0db214610926578063a9c2e36c1461094657600080fd5b80639292caaf1461088557806392c0f3d71461089c57806395d89b41146108bc5780639a94efd8146108d157600080fd5b80638badfa93116101c15780638badfa931461080f5780638da5cb5b146108265780638f0b7b681461084557806391d148541461086557600080fd5b806376214140146107bf578063763c87bf146107df57806388c7e397146107f457600080fd5b806349d19648116102cc57806358797cb61161026a57806367f6860b1161023957806367f6860b1461074a57806370a082311461076a578063715018a61461078a57806372f123441461079f57600080fd5b806358797cb6146106c55780635fd1bbc4146106e65780636352211e146106fd57806366458d4a1461071d57600080fd5b80634f1ef286116102a65780634f1ef2861461064f57806352d1902d14610662578063538baeab14610677578063558008ab1461069757600080fd5b806349d19648146105ef5780634c40a07b1461060f5780634e4524751461062f57600080fd5b80632a55205a116103445780633659cfe6116103135780633659cfe6146105835780633a1055ae146105a35780633ccfd60b146105ba57806342842e0e146105cf57600080fd5b80632a55205a146104e45780632ee4aa31146105235780632f2ff15d1461054357806336568abe1461056357600080fd5b8063095ea7b311610380578063095ea7b31461043657806323b872dd14610458578063248a9ca314610478578063252b2d09146104b657600080fd5b806301ffc9a7146103a757806306fdde03146103dc578063081812fc146103fe575b600080fd5b3480156103b357600080fd5b506103c76103c23660046139e8565b610b97565b60405190151581526020015b60405180910390f35b3480156103e857600080fd5b506103f1610ba8565b6040516103d39190613a55565b34801561040a57600080fd5b5061041e610419366004613a68565b610c3a565b6040516001600160a01b0390911681526020016103d3565b34801561044257600080fd5b50610456610451366004613a96565b610c61565b005b34801561046457600080fd5b50610456610473366004613ac2565b610d7b565b34801561048457600080fd5b506104a8610493366004613a68565b600090815260c9602052604090206001015490565b6040519081526020016103d3565b3480156104c257600080fd5b506104a86104d1366004613b12565b6101cb6020526000908152604090205481565b3480156104f057600080fd5b506105046104ff366004613b2f565b610dac565b604080516001600160a01b0390931683526020830191909152016103d3565b34801561052f57600080fd5b5061045661053e366004613b51565b610e5a565b34801561054f57600080fd5b5061045661055e366004613b6e565b610e96565b34801561056f57600080fd5b5061045661057e366004613b6e565b610ebb565b34801561058f57600080fd5b5061045661059e366004613b51565b610f39565b3480156105af57600080fd5b506104a86101c85481565b3480156105c657600080fd5b50610456611018565b3480156105db57600080fd5b506104566105ea366004613ac2565b611109565b3480156105fb57600080fd5b5061045661060a366004613b51565b611124565b34801561061b57600080fd5b5061045661062a366004613bac565b611160565b34801561063b57600080fd5b5061045661064a366004613c9d565b61118d565b61045661065d366004613dd6565b6112c7565b34801561066e57600080fd5b506104a8611393565b34801561068357600080fd5b50610456610692366004613e1b565b611446565b3480156106a357600080fd5b506104a86106b2366004613b51565b6101d26020526000908152604090205481565b3480156106d157600080fd5b506101c95461041e906001600160a01b031681565b3480156106f257600080fd5b506104a86101c75481565b34801561070957600080fd5b5061041e610718366004613a68565b611637565b34801561072957600080fd5b5061073d610738366004613b51565b611697565b6040516103d39190613edd565b34801561075657600080fd5b50610456610765366004613f21565b611704565b34801561077657600080fd5b506104a8610785366004613b51565b611719565b34801561079657600080fd5b5061045661179f565b3480156107ab57600080fd5b506104566107ba366004613a68565b6117b3565b3480156107cb57600080fd5b506104566107da366004613a68565b6117d2565b3480156107eb57600080fd5b506103f16117f1565b34801561080057600080fd5b506101cf546103c79060ff1681565b34801561081b57600080fd5b506104a86101d15481565b34801561083257600080fd5b50610191546001600160a01b031661041e565b34801561085157600080fd5b50610456610860366004613fb0565b611880565b34801561087157600080fd5b506103c7610880366004613b6e565b611912565b34801561089157600080fd5b506104a86101c65481565b3480156108a857600080fd5b506104566108b7366004614028565b61193d565b3480156108c857600080fd5b506103f1611c4b565b3480156108dd57600080fd5b506104566108ec36600461409a565b611c5a565b3480156108fd57600080fd5b506104a8600081565b34801561091257600080fd5b506104566109213660046140dc565b611e8e565b34801561093257600080fd5b506103f1610941366004613b12565b611e99565b34801561095257600080fd5b5061041e611eb3565b34801561096757600080fd5b5061097b610976366004613b12565b611edf565b60408051825160ff1681526020808401519082015291810151908201526060016103d3565b3480156109ac57600080fd5b506104566109bb36600461410a565b611fa2565b3480156109cc57600080fd5b506104566109db36600461413e565b61200a565b3480156109ec57600080fd5b506101c35461041e906001600160a01b031681565b348015610a0d57600080fd5b506104a861203c565b348015610a2257600080fd5b50610456610a313660046141a9565b61204d565b348015610a4257600080fd5b506103f1610a51366004613a68565b6120ee565b348015610a6257600080fd5b50610456610a71366004613b6e565b61216d565b348015610a8257600080fd5b50610456610a91366004613a68565b612192565b348015610aa257600080fd5b506104a86101d05481565b348015610ab957600080fd5b50610456610ac8366004613a68565b6121b1565b348015610ad957600080fd5b506103c7610ae8366004614219565b6001600160a01b039182166000908152609c6020908152604080832093909416825291909152205460ff1690565b348015610b2257600080fd5b506101c55461041e906001600160a01b031681565b348015610b4357600080fd5b506104a8610b52366004613a96565b6121d0565b348015610b6357600080fd5b50610456610b72366004613b51565b612202565b348015610b8357600080fd5b50610456610b9236600461409a565b612278565b6000610ba282612779565b92915050565b606060978054610bb790614247565b80601f0160208091040260200160405190810160405280929190818152602001828054610be390614247565b8015610c305780601f10610c0557610100808354040283529160200191610c30565b820191906000526020600020905b815481529060010190602001808311610c1357829003601f168201915b5050505050905090565b6000610c4582612784565b506000908152609b60205260409020546001600160a01b031690565b6000610c6c82611637565b9050806001600160a01b0316836001600160a01b031603610cde5760405162461bcd60e51b815260206004820152602160248201527f4552433732313a20617070726f76616c20746f2063757272656e74206f776e656044820152603960f91b60648201526084015b60405180910390fd5b336001600160a01b0382161480610cfa5750610cfa8133610ae8565b610d6c5760405162461bcd60e51b815260206004820152603d60248201527f4552433732313a20617070726f76652063616c6c6572206973206e6f7420746f60448201527f6b656e206f776e6572206f7220617070726f76656420666f7220616c6c0000006064820152608401610cd5565b610d7683836127e3565b505050565b610d853382612851565b610da15760405162461bcd60e51b8152600401610cd59061427b565b610d768383836128d0565b60008281526066602090815260408083208151808301909252546001600160a01b038116808352600160a01b9091046001600160601b0316928201929092528291610e215750604080518082019091526065546001600160a01b0381168252600160a01b90046001600160601b031660208201525b602081015160009061271090610e40906001600160601b0316876142de565b610e4a91906142f5565b91519350909150505b9250929050565b600080516020614a01833981519152610e7281612a41565b506101c580546001600160a01b0319166001600160a01b0392909216919091179055565b600082815260c96020526040902060010154610eb181612a41565b610d768383612a4b565b6001600160a01b0381163314610f2b5760405162461bcd60e51b815260206004820152602f60248201527f416363657373436f6e74726f6c3a2063616e206f6e6c792072656e6f756e636560448201526e103937b632b9903337b91039b2b63360891b6064820152608401610cd5565b610f358282612ad1565b5050565b6001600160a01b037f0000000000000000000000000000000000000000000000000000000000000000163003610f815760405162461bcd60e51b8152600401610cd590614317565b7f00000000000000000000000000000000000000000000000000000000000000006001600160a01b0316610fca6000805160206149ba833981519152546001600160a01b031690565b6001600160a01b031614610ff05760405162461bcd60e51b8152600401610cd590614363565b610ff981612b38565b6040805160008082526020820190925261101591839190612b50565b50565b600061102381612a41565b6101c9546040516370a0823160e01b81523060048201526001600160a01b039091169063a9059cbb90339083906370a0823190602401602060405180830381865afa158015611076573d6000803e3d6000fd5b505050506040513d601f19601f8201168201806040525081019061109a91906143af565b6040516001600160e01b031960e085901b1681526001600160a01b03909216600483015260248201526044016020604051808303816000875af11580156110e5573d6000803e3d6000fd5b505050506040513d601f19601f82011682018060405250810190610f3591906143c8565b610d768383836040518060200160405280600081525061200a565b600080516020614a0183398151915261113c81612a41565b506101c980546001600160a01b0319166001600160a01b0392909216919091179055565b600080516020614a0183398151915261117881612a41565b506101cf805460ff1916911515919091179055565b600080516020614a218339815191526111a581612a41565b81518351146112145760405162461bcd60e51b815260206004820152603560248201527f57686974656c69737420616e642062757961626c6520616d6f756e74206c69736044820152740e840daeae6e840c4ca40e6c2daca40d8cadccee8d605b1b6064820152608401610cd5565b60005b83518110156112c157828181518110611232576112326143e5565b60200260200101516101d26000868481518110611251576112516143e5565b60200260200101516001600160a01b03166001600160a01b031681526020019081526020016000208190555082818151811061128f5761128f6143e5565b60200260200101516101d060008282546112a991906143fb565b909155508190506112b98161440e565b915050611217565b50505050565b6001600160a01b037f000000000000000000000000000000000000000000000000000000000000000016300361130f5760405162461bcd60e51b8152600401610cd590614317565b7f00000000000000000000000000000000000000000000000000000000000000006001600160a01b03166113586000805160206149ba833981519152546001600160a01b031690565b6001600160a01b03161461137e5760405162461bcd60e51b8152600401610cd590614363565b61138782612b38565b610f3582826001612b50565b6000306001600160a01b037f000000000000000000000000000000000000000000000000000000000000000016146114335760405162461bcd60e51b815260206004820152603860248201527f555550535570677261646561626c653a206d757374206e6f742062652063616c60448201527f6c6564207468726f7567682064656c656761746563616c6c00000000000000006064820152608401610cd5565b506000805160206149ba83398151915290565b600054610100900460ff16158080156114665750600054600160ff909116105b806114805750303b158015611480575060005460ff166001145b6114e35760405162461bcd60e51b815260206004820152602e60248201527f496e697469616c697a61626c653a20636f6e747261637420697320616c72656160448201526d191e481a5b9a5d1a585b1a5e995960921b6064820152608401610cd5565b6000805460ff191660011790558015611506576000805461ff0019166101001790555b6115108486612cbb565b611518612cec565b611520612cec565b61152983612d13565b6101c380546001600160a01b03808b166001600160a01b0319928316179092556101c580548a84169083161790556101c980548984169083161790556101cf805460ff191690556101d480549285169290911691909117905561159a600080516020614a2183398151915284612d66565b6115a5600084612d66565b6115bd600080516020614a0183398151915284612d66565b6115e77f3c11d16cbaffd01df69ce1c404f6340ee057498f5f00246190ea54220576a84884612d66565b801561162d576000805461ff0019169055604051600181527f7f26b83ff96e1f2b6a682f133852f6798a09c465da95921460cefb38474024989060200160405180910390a15b5050505050505050565b6000818152609960205260408120546001600160a01b031680610ba25760405162461bcd60e51b8152602060048201526018602482015277115490cdcc8c4e881a5b9d985b1a59081d1bdad95b88125160421b6044820152606401610cd5565b6001600160a01b03811660009081526101cc602090815260408083208054825181850281018501909352808352606094938301828280156116f757602002820191906000526020600020905b8154815260200190600101908083116116e3575b5093979650505050505050565b600061170f81612a41565b610d768383612d70565b60006001600160a01b0382166117835760405162461bcd60e51b815260206004820152602960248201527f4552433732313a2061646472657373207a65726f206973206e6f7420612076616044820152683634b21037bbb732b960b91b6064820152608401610cd5565b506001600160a01b03166000908152609a602052604090205490565b6117a7612e6d565b6117b16000612d13565b565b600080516020614a018339815191526117cb81612a41565b506101cd55565b600080516020614a018339815191526117ea81612a41565b506101c855565b6101c480546117ff90614247565b80601f016020809104026020016040519081016040528092919081815260200182805461182b90614247565b80156118785780601f1061184d57610100808354040283529160200191611878565b820191906000526020600020905b81548152906001019060200180831161185b57829003601f168201915b505050505081565b600080516020614a2183398151915261189881612a41565b604051631ce8f7e360e11b815273__InterfaceFunction_____________________906339d1efc6906118d9908a908a908a908a908a908a90600401614472565b60006040518083038186803b1580156118f157600080fd5b505af4158015611905573d6000803e3d6000fd5b5050505050505050505050565b600091825260c9602090815260408084206001600160a01b0393909316845291905290205460ff1690565b611945612ec8565b6001600160a01b0316336001600160a01b0316146119a55760405162461bcd60e51b815260206004820152601f60248201527f4e6f742062652063616c6c65642066726f6d20446161702043726561746f72006044820152606401610cd5565b60006119af612f37565b6040516386c2b83d60e01b815230600482015260ff871660248201526001600160a01b0391909116906386c2b83d90604401606060405180830381865afa1580156119fe573d6000803e3d6000fd5b505050506040513d601f19601f82011682018060405250810190611a2291906144ba565b90506000816020015111611a485760405162461bcd60e51b8152600401610cd59061451b565b60ff851660009081526101cb602052604081205490611a6788836143fb565b90508083602001511015611a8d5760405162461bcd60e51b8152600401610cd590614552565b60ff871660009081526101cb60205260408120829055886001600160401b03811115611abb57611abb613bc9565b604051908082528060200260200182016040528015611b0057816020015b6040805180820190915260008082526020820152815260200190600190039081611ad95790505b50905060005b89811015611c02576000611b1a6101ca5490565b9050611b2b6101ca80546001019055565b611b358982612f82565b6001600160a01b03891660008181526101cc602090815260408083208054600181018255908452828420018590558483526101ce825291829020805460ff191660ff8f169081179091558251938452908301849052908201527fd5054ba42059be88c66c1a10236e5a0cea44d10897996e6040b6f41c57be13429060600160405180910390a160405180604001604052808281526020018b60ff16815250838381518110611be557611be56143e5565b60200260200101819052505080611bfb9061440e565b9050611b06565b507ff7dd652110ab47a8985ee42eb817b24e6084a902c749934178ddf4795d91e21386868984604051611c38949392919061457d565b60405180910390a1505050505050505050565b606060988054610bb790614247565b600080516020614a01833981519152611c7281612a41565b60008411611cb55760405162461bcd60e51b815260206004820152601060248201526f139bc81d1bdad95b881d1bc81b5a5b9d60821b6044820152606401610cd5565b6000611cbf612f37565b6040516386c2b83d60e01b815230600482015260ff861660248201526001600160a01b0391909116906386c2b83d90604401606060405180830381865afa158015611d0e573d6000803e3d6000fd5b505050506040513d601f19601f82011682018060405250810190611d3291906144ba565b90506000816020015111611d585760405162461bcd60e51b8152600401610cd59061451b565b60ff841660009081526101cb602052604081205490611d7787836143fb565b90508083602001511015611d9d5760405162461bcd60e51b8152600401610cd590614552565b60ff861660009081526101cb602052604090208190556001600160a01b038516611dc5573394505b60005b8781101561162d576000611ddc6101ca5490565b9050611ded6101ca80546001019055565b611df78782612f82565b6001600160a01b03871660008181526101cc602090815260408083208054600181018255908452828420018590558483526101ce825291829020805460ff191660ff8d169081179091558251938452908301849052908201527fd5054ba42059be88c66c1a10236e5a0cea44d10897996e6040b6f41c57be13429060600160405180910390a150611e878161440e565b9050611dc8565b610f35338383612f9c565b6101d360205260009081526040902080546117ff90614247565b6000600080516020614a21833981519152611ecd81612a41565b50506101d4546001600160a01b031690565b611f066040518060600160405280600060ff16815260200160008152602001600081525090565b600080516020614a21833981519152611f1e81612a41565b611f26612f37565b6040516386c2b83d60e01b815230600482015260ff851660248201526001600160a01b0391909116906386c2b83d90604401606060405180830381865afa158015611f75573d6000803e3d6000fd5b505050506040513d601f19601f82011682018060405250810190611f9991906144ba565b91505b50919050565b7f3c11d16cbaffd01df69ce1c404f6340ee057498f5f00246190ea54220576a848611fcc81612a41565b60005b8251811015610d7657611ffa838281518110611fed57611fed6143e5565b602002602001015161306a565b6120038161440e565b9050611fcf565b6120143383612851565b6120305760405162461bcd60e51b8152600401610cd59061427b565b6112c184848484613084565b60006120486101ca5490565b905090565b600080516020614a2183398151915261206581612a41565b604051637a17125960e01b815273__InterfaceFunction_____________________90637a171259906120a490899089908990899089906004016145f4565b602060405180830381865af41580156120c1573d6000803e3d6000fd5b505050506040513d601f19601f820116820180604052508101906120e591906143af565b50505050505050565b60606120f8612f37565b60405163a0da06b560e01b8152306004820152602481018490526001600160a01b03919091169063a0da06b590604401600060405180830381865afa158015612145573d6000803e3d6000fd5b505050506040513d6000823e601f3d908101601f19168201604052610ba29190810190614635565b600082815260c9602052604090206001015461218881612a41565b610d768383612ad1565b600080516020614a018339815191526121aa81612a41565b506101c755565b600080516020614a018339815191526121c981612a41565b506101c655565b6101cc60205281600052604060002081815481106121ed57600080fd5b90600052602060002001600091509150505481565b61220a612e6d565b6001600160a01b03811661226f5760405162461bcd60e51b815260206004820152602660248201527f4f776e61626c653a206e6577206f776e657220697320746865207a65726f206160448201526564647265737360d01b6064820152608401610cd5565b61101581612d13565b6001600160a01b03811660009081526101d2602052604090205433908411156122f25760405162461bcd60e51b815260206004820152602660248201527f55736572206e6f7420696e2077686974656c697374206f72206c696d69742072604482015265195858da195960d21b6064820152608401610cd5565b6101c7544210156123455760405162461bcd60e51b815260206004820181905260248201527f49742773206e6f742074696d6520746f20627579207075626c69632073616c656044820152606401610cd5565b6101c85442111561238f5760405162461bcd60e51b815260206004820152601460248201527349742773206e6f742074696d6520746f2062757960601b6044820152606401610cd5565b6101cd54156123f7576101cd546001600160a01b03831660009081526101cc6020526040902054106123f75760405162461bcd60e51b8152602060048201526011602482015270109d5e481b1a5b5a5d081c995858da1959607a1b6044820152606401610cd5565b6000612401612f37565b6040516386c2b83d60e01b815230600482015260ff861660248201526001600160a01b0391909116906386c2b83d90604401606060405180830381865afa158015612450573d6000803e3d6000fd5b505050506040513d601f19601f8201168201806040525081019061247491906144ba565b9050600081602001511161249a5760405162461bcd60e51b8152600401610cd59061451b565b60ff841660009081526101cb6020526040812054906124b987836143fb565b905080836020015110156124df5760405162461bcd60e51b8152600401610cd590614552565b60008784604001516124f191906142de565b6101c9546040516370a0823160e01b81526001600160a01b0388811660048301529293509116906370a0823190602401602060405180830381865afa15801561253e573d6000803e3d6000fd5b505050506040513d601f19601f8201168201806040525081019061256291906143af565b8111156125c55760405162461bcd60e51b815260206004820152602b60248201527f55736572206e65656420686f6c6420656e6f75676820546f6b656e20746f206260448201526a1d5e481d1a1a5cc81b999d60aa1b6064820152608401610cd5565b6101c9546101c5546040516323b872dd60e01b81526001600160a01b0388811660048301529182166024820152604481018490529116906323b872dd906064016020604051808303816000875af1158015612624573d6000803e3d6000fd5b505050506040513d601f19601f8201168201806040525081019061264891906143c8565b506001600160a01b03861660009081526101d26020526040812080548a92906126729084906146a2565b92505081905550876101d1600082825461268c91906143fb565b909155505060ff871660009081526101cb602052604081208390555b8881101561276e5760006126bc6101ca5490565b90506126cd6101ca80546001019055565b6126d78882612f82565b6001600160a01b03881660008181526101cc602090815260408083208054600181018255908452828420018590558483526101ce825291829020805460ff191660ff8e169081179091558251938452908301849052908201527fd5054ba42059be88c66c1a10236e5a0cea44d10897996e6040b6f41c57be13429060600160405180910390a1506127678161440e565b90506126a8565b505050505050505050565b6000610ba2826130b7565b6000818152609960205260409020546001600160a01b03166110155760405162461bcd60e51b8152602060048201526018602482015277115490cdcc8c4e881a5b9d985b1a59081d1bdad95b88125160421b6044820152606401610cd5565b6000818152609b6020526040902080546001600160a01b0319166001600160a01b038416908117909155819061281882611637565b6001600160a01b03167f8c5be1e5ebec7d5bd14f71427d1e84f3dd0314c0f7b2291e5b200ac8c7c3b92560405160405180910390a45050565b60008061285d83611637565b9050806001600160a01b0316846001600160a01b031614806128a457506001600160a01b038082166000908152609c602090815260408083209388168352929052205460ff165b806128c85750836001600160a01b03166128bd84610c3a565b6001600160a01b0316145b949350505050565b826001600160a01b03166128e382611637565b6001600160a01b0316146129095760405162461bcd60e51b8152600401610cd5906146b5565b6001600160a01b03821661296b5760405162461bcd60e51b8152602060048201526024808201527f4552433732313a207472616e7366657220746f20746865207a65726f206164646044820152637265737360e01b6064820152608401610cd5565b61297883838360016130dc565b826001600160a01b031661298b82611637565b6001600160a01b0316146129b15760405162461bcd60e51b8152600401610cd5906146b5565b6000818152609b6020908152604080832080546001600160a01b03199081169091556001600160a01b03878116808652609a8552838620805460001901905590871680865283862080546001019055868652609990945282852080549092168417909155905184937fddf252ad1be2c89b69c2b068fc378daa952ba7f163c4a11628f55a4df523b3ef91a4505050565b6110158133613164565b612a558282611912565b610f3557600082815260c9602090815260408083206001600160a01b03851684529091529020805460ff19166001179055612a8d3390565b6001600160a01b0316816001600160a01b0316837f2f8788117e7eff1d82e926ec794901d17c78024a50270940304540a733656f0d60405160405180910390a45050565b612adb8282611912565b15610f3557600082815260c9602090815260408083206001600160a01b0385168085529252808320805460ff1916905551339285917ff6391f5c32d9c69d2a47ea670b442974b53935d1edc7fd64eb21e047a839171b9190a45050565b600080516020614a21833981519152610f3581612a41565b7f4910fdfa16fed3260ed0e7147f7cc6da11a60208b5b9406d12a635614ffd91435460ff1615612b8357610d76836131bd565b826001600160a01b03166352d1902d6040518163ffffffff1660e01b8152600401602060405180830381865afa925050508015612bdd575060408051601f3d908101601f19168201909252612bda918101906143af565b60015b612c405760405162461bcd60e51b815260206004820152602e60248201527f45524331393637557067726164653a206e657720696d706c656d656e7461746960448201526d6f6e206973206e6f74205555505360901b6064820152608401610cd5565b6000805160206149ba8339815191528114612caf5760405162461bcd60e51b815260206004820152602960248201527f45524331393637557067726164653a20756e737570706f727465642070726f786044820152681a58589b195555525160ba1b6064820152608401610cd5565b50610d76838383613259565b600054610100900460ff16612ce25760405162461bcd60e51b8152600401610cd5906146fa565b610f35828261327e565b600054610100900460ff166117b15760405162461bcd60e51b8152600401610cd5906146fa565b61019180546001600160a01b038381166001600160a01b0319831681179093556040519116919082907f8be0079c531659141344cd1fd0a4f28419497f9722a3daafe3b4186f6b6457e090600090a35050565b610f358282612a4b565b6127106001600160601b0382161115612dde5760405162461bcd60e51b815260206004820152602a60248201527f455243323938313a20726f79616c7479206665652077696c6c206578636565646044820152692073616c65507269636560b01b6064820152608401610cd5565b6001600160a01b038216612e345760405162461bcd60e51b815260206004820152601960248201527f455243323938313a20696e76616c6964207265636569766572000000000000006044820152606401610cd5565b604080518082019091526001600160a01b039092168083526001600160601b039091166020909201829052600160a01b90910217606555565b610191546001600160a01b031633146117b15760405162461bcd60e51b815260206004820181905260248201527f4f776e61626c653a2063616c6c6572206973206e6f7420746865206f776e65726044820152606401610cd5565b6101d454604080516371efede960e01b815290516000926001600160a01b0316916371efede99160048083019260209291908290030181865afa158015612f13573d6000803e3d6000fd5b505050506040513d601f19601f820116820180604052508101906120489190614745565b6101d45460408051634f74c25d60e11b815290516000926001600160a01b031691639ee984ba9160048083019260209291908290030181865afa158015612f13573d6000803e3d6000fd5b610f358282604051806020016040528060008152506132be565b816001600160a01b0316836001600160a01b031603612ffd5760405162461bcd60e51b815260206004820152601960248201527f4552433732313a20617070726f766520746f2063616c6c6572000000000000006044820152606401610cd5565b6001600160a01b038381166000818152609c6020908152604080832094871680845294825291829020805460ff191686151590811790915591519182527f17307eab39ab6107e8899845ad3d59bd9653f200f220920489ca2b5937696c31910160405180910390a3505050565b613073816132f1565b600090815260666020526040812055565b61308f8484846128d0565b61309b848484846132fa565b6112c15760405162461bcd60e51b8152600401610cd590614762565b60006001600160e01b03198216637965db0b60e01b1480610ba25750610ba2826133fb565b60018111156112c1576001600160a01b03841615613122576001600160a01b0384166000908152609a60205260408120805483929061311c9084906146a2565b90915550505b6001600160a01b038316156112c1576001600160a01b0383166000908152609a6020526040812080548392906131599084906143fb565b909155505050505050565b61316e8282611912565b610f355761317b8161343b565b61318683602061344d565b6040516020016131979291906147b4565b60408051601f198184030181529082905262461bcd60e51b8252610cd591600401613a55565b6001600160a01b0381163b61322a5760405162461bcd60e51b815260206004820152602d60248201527f455243313936373a206e657720696d706c656d656e746174696f6e206973206e60448201526c1bdd08184818dbdb9d1c9858dd609a1b6064820152608401610cd5565b6000805160206149ba83398151915280546001600160a01b0319166001600160a01b0392909216919091179055565b613262836135ef565b60008251118061326f5750805b15610d76576112c1838361362f565b600054610100900460ff166132a55760405162461bcd60e51b8152600401610cd5906146fa565b60976132b18382614877565b506098610d768282614877565b6132c88383613723565b6132d560008484846132fa565b610d765760405162461bcd60e51b8152600401610cd590614762565b613073816138bc565b60006001600160a01b0384163b156133f057604051630a85bd0160e11b81526001600160a01b0385169063150b7a029061333e903390899088908890600401614936565b6020604051808303816000875af1925050508015613379575060408051601f3d908101601f1916820190925261337691810190614969565b60015b6133d6573d8080156133a7576040519150601f19603f3d011682016040523d82523d6000602084013e6133ac565b606091505b5080516000036133ce5760405162461bcd60e51b8152600401610cd590614762565b805181602001fd5b6001600160e01b031916630a85bd0160e11b1490506128c8565b506001949350505050565b60006001600160e01b031982166380ac58cd60e01b148061342c57506001600160e01b03198216635b5e139f60e01b145b80610ba25750610ba28261395f565b6060610ba26001600160a01b03831660145b6060600061345c8360026142de565b6134679060026143fb565b6001600160401b0381111561347e5761347e613bc9565b6040519080825280601f01601f1916602001820160405280156134a8576020820181803683370190505b509050600360fc1b816000815181106134c3576134c36143e5565b60200101906001600160f81b031916908160001a905350600f60fb1b816001815181106134f2576134f26143e5565b60200101906001600160f81b031916908160001a90535060006135168460026142de565b6135219060016143fb565b90505b6001811115613599576f181899199a1a9b1b9c1cb0b131b232b360811b85600f1660108110613555576135556143e5565b1a60f81b82828151811061356b5761356b6143e5565b60200101906001600160f81b031916908160001a90535060049490941c9361359281614986565b9050613524565b5083156135e85760405162461bcd60e51b815260206004820181905260248201527f537472696e67733a20686578206c656e67746820696e73756666696369656e746044820152606401610cd5565b9392505050565b6135f8816131bd565b6040516001600160a01b038216907fbc7cd75a20ee27fd9adebab32041f755214dbc6bffa90cc0225b39da2e5c2d3b90600090a250565b60606001600160a01b0383163b6136975760405162461bcd60e51b815260206004820152602660248201527f416464726573733a2064656c65676174652063616c6c20746f206e6f6e2d636f6044820152651b9d1c9858dd60d21b6064820152608401610cd5565b600080846001600160a01b0316846040516136b2919061499d565b600060405180830381855af49150503d80600081146136ed576040519150601f19603f3d011682016040523d82523d6000602084013e6136f2565b606091505b509150915061371a82826040518060600160405280602781526020016149da60279139613994565b95945050505050565b6001600160a01b0382166137795760405162461bcd60e51b815260206004820181905260248201527f4552433732313a206d696e7420746f20746865207a65726f20616464726573736044820152606401610cd5565b6000818152609960205260409020546001600160a01b0316156137de5760405162461bcd60e51b815260206004820152601c60248201527f4552433732313a20746f6b656e20616c7265616479206d696e746564000000006044820152606401610cd5565b6137ec6000838360016130dc565b6000818152609960205260409020546001600160a01b0316156138515760405162461bcd60e51b815260206004820152601c60248201527f4552433732313a20746f6b656e20616c7265616479206d696e746564000000006044820152606401610cd5565b6001600160a01b0382166000818152609a6020908152604080832080546001019055848352609990915280822080546001600160a01b0319168417905551839291907fddf252ad1be2c89b69c2b068fc378daa952ba7f163c4a11628f55a4df523b3ef908290a45050565b60006138c782611637565b90506138d78160008460016130dc565b6138e082611637565b6000838152609b6020908152604080832080546001600160a01b03199081169091556001600160a01b038516808552609a845282852080546000190190558785526099909352818420805490911690555192935084927fddf252ad1be2c89b69c2b068fc378daa952ba7f163c4a11628f55a4df523b3ef908390a45050565b60006001600160e01b0319821663152a902d60e11b1480610ba257506301ffc9a760e01b6001600160e01b0319831614610ba2565b606083156139a35750816135e8565b6135e883838151156139b85781518083602001fd5b8060405162461bcd60e51b8152600401610cd59190613a55565b6001600160e01b03198116811461101557600080fd5b6000602082840312156139fa57600080fd5b81356135e8816139d2565b60005b83811015613a20578181015183820152602001613a08565b50506000910152565b60008151808452613a41816020860160208601613a05565b601f01601f19169290920160200192915050565b6020815260006135e86020830184613a29565b600060208284031215613a7a57600080fd5b5035919050565b6001600160a01b038116811461101557600080fd5b60008060408385031215613aa957600080fd5b8235613ab481613a81565b946020939093013593505050565b600080600060608486031215613ad757600080fd5b8335613ae281613a81565b92506020840135613af281613a81565b929592945050506040919091013590565b60ff8116811461101557600080fd5b600060208284031215613b2457600080fd5b81356135e881613b03565b60008060408385031215613b4257600080fd5b50508035926020909101359150565b600060208284031215613b6357600080fd5b81356135e881613a81565b60008060408385031215613b8157600080fd5b823591506020830135613b9381613a81565b809150509250929050565b801515811461101557600080fd5b600060208284031215613bbe57600080fd5b81356135e881613b9e565b634e487b7160e01b600052604160045260246000fd5b604051601f8201601f191681016001600160401b0381118282101715613c0757613c07613bc9565b604052919050565b60006001600160401b03821115613c2857613c28613bc9565b5060051b60200190565b600082601f830112613c4357600080fd5b81356020613c58613c5383613c0f565b613bdf565b82815260059290921b84018101918181019086841115613c7757600080fd5b8286015b84811015613c925780358352918301918301613c7b565b509695505050505050565b60008060408385031215613cb057600080fd5b82356001600160401b0380821115613cc757600080fd5b818501915085601f830112613cdb57600080fd5b81356020613ceb613c5383613c0f565b82815260059290921b84018101918181019089841115613d0a57600080fd5b948201945b83861015613d31578535613d2281613a81565b82529482019490820190613d0f565b96505086013592505080821115613d4757600080fd5b50613d5485828601613c32565b9150509250929050565b60006001600160401b03821115613d7757613d77613bc9565b50601f01601f191660200190565b600082601f830112613d9657600080fd5b8135613da4613c5382613d5e565b818152846020838601011115613db957600080fd5b816020850160208301376000918101602001919091529392505050565b60008060408385031215613de957600080fd5b8235613df481613a81565b915060208301356001600160401b03811115613e0f57600080fd5b613d5485828601613d85565b600080600080600080600060e0888a031215613e3657600080fd5b8735613e4181613a81565b96506020880135613e5181613a81565b95506040880135613e6181613a81565b945060608801356001600160401b0380821115613e7d57600080fd5b613e898b838c01613d85565b955060808a0135915080821115613e9f57600080fd5b50613eac8a828b01613d85565b93505060a0880135613ebd81613a81565b915060c0880135613ecd81613a81565b8091505092959891949750929550565b6020808252825182820181905260009190848201906040850190845b81811015613f1557835183529284019291840191600101613ef9565b50909695505050505050565b60008060408385031215613f3457600080fd5b8235613f3f81613a81565b915060208301356001600160601b0381168114613b9357600080fd5b60008083601f840112613f6d57600080fd5b5081356001600160401b03811115613f8457600080fd5b602083019150836020828501011115610e5357600080fd5b803560028110613fab57600080fd5b919050565b60008060008060008060a08789031215613fc957600080fd5b8635613fd481613a81565b9550602087013594506040870135935060608701356001600160401b03811115613ffd57600080fd5b61400989828a01613f5b565b909450925061401c905060808801613f9c565b90509295509295509295565b60008060008060006080868803121561404057600080fd5b85359450602086013561405281613b03565b9350604086013561406281613a81565b925060608601356001600160401b0381111561407d57600080fd5b61408988828901613f5b565b969995985093965092949392505050565b6000806000606084860312156140af57600080fd5b8335925060208401356140c181613b03565b915060408401356140d181613a81565b809150509250925092565b600080604083850312156140ef57600080fd5b82356140fa81613a81565b91506020830135613b9381613b9e565b60006020828403121561411c57600080fd5b81356001600160401b0381111561413257600080fd5b6128c884828501613c32565b6000806000806080858703121561415457600080fd5b843561415f81613a81565b9350602085013561416f81613a81565b92506040850135915060608501356001600160401b0381111561419157600080fd5b61419d87828801613d85565b91505092959194509250565b6000806000806000608086880312156141c157600080fd5b85356141cc81613a81565b94506020860135935060408601356001600160401b038111156141ee57600080fd5b6141fa88828901613f5b565b909450925061420d905060608701613f9c565b90509295509295909350565b6000806040838503121561422c57600080fd5b823561423781613a81565b91506020830135613b9381613a81565b600181811c9082168061425b57607f821691505b602082108103611f9c57634e487b7160e01b600052602260045260246000fd5b6020808252602d908201527f4552433732313a2063616c6c6572206973206e6f7420746f6b656e206f776e6560408201526c1c881bdc88185c1c1c9bdd9959609a1b606082015260800190565b634e487b7160e01b600052601160045260246000fd5b8082028115828204841417610ba257610ba26142c8565b60008261431257634e487b7160e01b600052601260045260246000fd5b500490565b6020808252602c908201527f46756e6374696f6e206d7573742062652063616c6c6564207468726f7567682060408201526b19195b1959d85d1958d85b1b60a21b606082015260800190565b6020808252602c908201527f46756e6374696f6e206d7573742062652063616c6c6564207468726f7567682060408201526b6163746976652070726f787960a01b606082015260800190565b6000602082840312156143c157600080fd5b5051919050565b6000602082840312156143da57600080fd5b81516135e881613b9e565b634e487b7160e01b600052603260045260246000fd5b80820180821115610ba257610ba26142c8565b600060018201614420576144206142c8565b5060010190565b81835281816020850137506000828201602090810191909152601f909101601f19169091010190565b6002811061446e57634e487b7160e01b600052602160045260246000fd5b9052565b60018060a01b038716815285602082015284604082015260a0606082015260006144a060a083018587614427565b90506144af6080830184614450565b979650505050505050565b6000606082840312156144cc57600080fd5b604051606081018181106001600160401b03821117156144ee576144ee613bc9565b60405282516144fc81613b03565b8152602083810151908201526040928301519281019290925250919050565b60208082526019908201527f546f6b656e207479706520646f6573206e6f7420657869737400000000000000604082015260600190565b602080825260119082015270139195081d1e5c19481cdbdb19081bdd5d607a1b604082015260600190565b606081526000614591606083018688614427565b6001600160a01b03851660208481019190915283820360408086019190915285518084528683019383019060005b818110156145e4578551805184528501518584015294840194918301916001016145bf565b50909a9950505050505050505050565b60018060a01b038616815284602082015260806040820152600061461c608083018587614427565b905061462b6060830184614450565b9695505050505050565b60006020828403121561464757600080fd5b81516001600160401b0381111561465d57600080fd5b8201601f8101841361466e57600080fd5b805161467c613c5382613d5e565b81815285602083850101111561469157600080fd5b61371a826020830160208601613a05565b81810381811115610ba257610ba26142c8565b60208082526025908201527f4552433732313a207472616e736665722066726f6d20696e636f72726563742060408201526437bbb732b960d91b606082015260800190565b6020808252602b908201527f496e697469616c697a61626c653a20636f6e7472616374206973206e6f74206960408201526a6e697469616c697a696e6760a81b606082015260800190565b60006020828403121561475757600080fd5b81516135e881613a81565b60208082526032908201527f4552433732313a207472616e7366657220746f206e6f6e20455243373231526560408201527131b2b4bb32b91034b6b83632b6b2b73a32b960711b606082015260800190565b7f416363657373436f6e74726f6c3a206163636f756e74200000000000000000008152600083516147ec816017850160208801613a05565b7001034b99036b4b9b9b4b733903937b6329607d1b601791840191820152835161481d816028840160208801613a05565b01602801949350505050565b601f821115610d7657600081815260208120601f850160051c810160208610156148505750805b601f850160051c820191505b8181101561486f5782815560010161485c565b505050505050565b81516001600160401b0381111561489057614890613bc9565b6148a48161489e8454614247565b84614829565b602080601f8311600181146148d957600084156148c15750858301515b600019600386901b1c1916600185901b17855561486f565b600085815260208120601f198616915b82811015614908578886015182559484019460019091019084016148e9565b50858210156149265787850151600019600388901b60f8161c191681555b5050505050600190811b01905550565b6001600160a01b038581168252841660208201526040810183905260806060820181905260009061462b90830184613a29565b60006020828403121561497b57600080fd5b81516135e8816139d2565b600081614995576149956142c8565b506000190190565b600082516149af818460208701613a05565b919091019291505056fe360894a13ba1a3210667c828492db98dca3e2076cc3735a920a3ca505d382bbc416464726573733a206c6f772d6c6576656c2064656c65676174652063616c6c206661696c6564b0a2731da0d1e322a29f18fc41490da7914e8245c4e7d00155b630b2fbe50293a49807205ce4d355092ef5a8a18f56e8913cf4a201fbe287825b095693c21775a26469706673582212205b50a6d05aeb3e58c7840784944ea778cca602ede1cf214d97124a3252221c2464736f6c63430008130033",
  "immutableReferences": {
    "1148": [
      {
        "length": 32,
        "start": 3907
      },
      {
        "length": 32,
        "start": 3971
      },
      {
        "length": 32,
        "start": 4817
      },
      {
        "length": 32,
        "start": 4881
      },
      {
        "length": 32,
        "start": 5024
      }
    ]
  },
  "source": "// SPDX-License-Identifier: MIT\npragma solidity ^0.8.2;\n\nimport \"@openzeppelin/contracts/utils/Strings.sol\";\nimport \"@openzeppelin/contracts/utils/Counters.sol\";\nimport \"@openzeppelin/contracts/utils/math/Math.sol\";\nimport \"@openzeppelin/contracts-upgradeable/access/AccessControlUpgradeable.sol\";\nimport \"@openzeppelin/contracts-upgradeable/access/OwnableUpgradeable.sol\";\nimport \"@openzeppelin/contracts-upgradeable/proxy/utils/UUPSUpgradeable.sol\";\nimport \"@openzeppelin/contracts-upgradeable/security/PausableUpgradeable.sol\";\nimport \"@openzeppelin/contracts-upgradeable/token/ERC721/ERC721Upgradeable.sol\";\nimport \"@openzeppelin/contracts-upgradeable/token/ERC721/extensions/ERC721RoyaltyUpgradeable.sol\";\nimport \"@openzeppelin/contracts/token/ERC20/IERC20.sol\";\nimport \"@openzeppelin/contracts/token/ERC721/IERC721.sol\";\nimport \"@openzeppelin/contracts/token/ERC721/IERC721Receiver.sol\";\n\nimport \"../libraries/InZNFTTypeDetail.sol\";\nimport \"../interfaces/IInZNFTMarket.sol\";\nimport \"../utils/InterfaceFunction.sol\";\nimport \"../interfaces/IFactory.sol\";\nimport \"../interfaces/IConfiguration.sol\";\n\n\ncontract InzCampaignTypesNFT721 is \n    ERC721Upgradeable, \n    AccessControlUpgradeable, \n    UUPSUpgradeable, \n    ERC721RoyaltyUpgradeable,\n    OwnableUpgradeable\n    \n{\n    /**\n     *          External using\n     */\n    using InZNFTTypeDetail for InZNFTTypeDetail.NFTTypeDetail;\n    using Counters for Counters.Counter;\n\n    /**\n     *          Event Definitions\n     */\n    event ActiveGiftCode(address to, uint256 tokenId, uint8 tokenType, string uri, string giftCode);\n    event TokenCreated(address to, uint256 tokenId, uint256 tokenType);\n    event AddNftType(uint8 tokenType, uint256 totalSupply, uint256 price);\n    struct ReturnMintingOrder {\n        uint256 nftType;\n        uint256 tokenId;\n    }\n    event MintOrderForDev(\n        bytes callbackData,\n        address to,\n        ReturnMintingOrder[] returnMintingOrder\n    );\n    event MintOrderFromDaapCreator(\n        string callbackData,\n        address to,\n        ReturnMintingOrder[] returnMintingOrder\n    );\n    // /**\n    //  *          Storage data declarations\n    //  */\n    bytes32 internal constant ADMIN_ROLE = keccak256(\"ADMIN_ROLE\");\n    bytes32 internal constant DESIGN_ROLE = keccak256(\"DESIGN_ROLE\");\n    bytes32 internal constant BURNER_ROLE = keccak256(\"BURNER_ROLE\");\n    \n    // Market place owner address to receive market fee when mint token\n    address public marketOwnerAddress;\n    // Base meta data uri \n    string public baseMetadataUri;\n    // Campaign Payment Address to receive when mint token\n    address public campaignPaymentAddress;\n\n    // Start time to buy for whitelist\n    uint256 public whitelistStartTime;\n    // Start time to public buy on this campaign\n    uint256 public publicStartTime;\n    // End time to buy first nft on this campaign\n    uint256 public endTimeToBuy;\n    // Currency use to buy first nft of this campaign\n\n    IERC20 public coinToken;\n    \n    // TokenID Counter\n    Counters.Counter internal tokenIdCounter;\n    // Mapping token type to supply have minted\n    mapping (uint8 => uint256) public nftTypeSupply;\n    // Mapping token's holder address to tokenIds list  \n    mapping (address => uint256[]) public holders;\n    // max allocation for normal user\n    uint256 internal maxAllocation;\n    // Mapping token id to token type\n    mapping (uint256 => uint8) internal tokenIdsByType; \n    // Mapping from token ID to token details.\n    // mapping(uint256 => InZNFTDetail.NFTDetail) public tokenDetails;\n\n    // allow user call function mint when buyable is true\n    bool public buyable;\n    // Total whitelist pool\n    uint256 public whiteListPool;\n    // total whitelist have bought\n    uint256 public whiteListBought;\n    // mapping address to amount can buy\n    mapping (address => uint256) public whitelistBuyable;\n    // mapping tokenURI to type NFT\n    mapping(uint8 => string) public uriByType;\n    // mapping NFT creted from Factory\n    address internal factoryAddress;\n    /**\n     * @notice Checks if the msg.sender is a contract or a proxy\n     */\n    modifier notContract() {\n        require(!_isContract(msg.sender), \"Contract not allowed\");\n        require(msg.sender == tx.origin, \"Proxy contract not allowed\");\n        _;\n    }\n\n    modifier onlyFromDaapCreator() {\n        require(\n            msg.sender == getNftCreator(),\n            \"Not be called from Daap Creator\"\n        );\n        _;\n    }\n\n    /**\n     *          Contract Initialization\n     */\n    function initialize(\n        address _marketOwnerAddress,\n        address _campaignPaymentAddress,\n        IERC20 _coinToken,\n        string memory _symbol,\n        string memory _name,\n        address _adminAddress,\n        address _factoryAddress\n    ) external initializer {\n        __ERC721_init(_name, _symbol);\n        __AccessControl_init();\n        __UUPSUpgradeable_init();\n        _transferOwnership(_adminAddress);\n\n        marketOwnerAddress = _marketOwnerAddress;\n        campaignPaymentAddress = _campaignPaymentAddress;\n        coinToken = _coinToken;\n        buyable = false;\n        factoryAddress = _factoryAddress;\n        _setupRole(ADMIN_ROLE, _adminAddress);\n        _setupRole(DEFAULT_ADMIN_ROLE, _adminAddress);\n        _setupRole(DESIGN_ROLE, _adminAddress);\n        _setupRole(BURNER_ROLE, _adminAddress);\n    }\n\n    // Get NFT IDs by owner\n    function getNftIdsByOwner(address _owner)\n        external\n        view\n        returns (uint256[] memory)\n    {\n        uint256[] memory ids = holders[_owner];\n        return ids;\n    }\n\n    /**\n    * @dev                  Owner mint without transfer TOKEN\n    * @param _amount        Amount the user wants to mint\n    * @param _tokenType     Type of token to mint\n    * @param _to            Transfer NTF to address _to\n    */\n    function ownerMint(uint256 _amount, uint8 _tokenType, address _to) external onlyRole(DESIGN_ROLE) {\n        require(_amount > 0, \"No token to mint\");\n        // Check token type is exist in this campaign\n        InZNFTTypeDetail.NFTTypeDetail memory nftTypeDetail = IConfiguration(getNftConfigurations()).getNftTypeDetail(address(this), _tokenType);\n        require(nftTypeDetail.totalSupply > 0, \"Token type does not exist\");\n        // Check token type supply \n        uint256 nftTypeHaveMinted = nftTypeSupply[_tokenType];\n        uint256 _amountNftTypeCurrent = nftTypeHaveMinted + _amount;\n        require(nftTypeDetail.totalSupply >= _amountNftTypeCurrent, \"NFT type sold out\");\n        nftTypeSupply[_tokenType] = _amountNftTypeCurrent;\n        if (_to == address(0)) { // if address is 0x\n            _to = msg.sender;\n        }\n        for (uint256 i = 0; i < _amount; ++i) {\n            uint256 _id = tokenIdCounter.current();\n            tokenIdCounter.increment();\n            _safeMint(_to, _id);\n            // Update user bought list\n            holders[_to].push(_id);\n            // Update token id by type\n            tokenIdsByType[_id] = _tokenType;\n            emit TokenCreated(_to, _id, _tokenType);\n        }\n    }\n\n    /**\n    * @dev              Mint tokens for id defined (first buy on market)\n    * @param _amount    Amount the user wants to mint\n    * @param _tokenType Type of token to mint\n    * @param _to        Address receive NFT\n    */\n    function mint(\n        uint256 _amount, \n        uint8 _tokenType, \n        address _to,\n        string calldata _callbackData\n    ) external onlyFromDaapCreator {\n        // require(buyable == true, \"Mint NFT have not start yet\");\n        // address _buyer = msg.sender;\n        // Check time to buy\n        // require(block.timestamp >= publicStartTime, \"It's not time to buy public sale\");\n        // require(block.timestamp <= endTimeToBuy, \"It's not time to buy\");\n        // Check max allocation user can buy\n        // if (maxAllocation > 0) {\n        //     require(holders[_to].length < maxAllocation, \"Buy limit reached\");\n        // }\n        // Check token type is exist in this campaign\n        InZNFTTypeDetail.NFTTypeDetail memory nftTypeDetail = IConfiguration(getNftConfigurations()).getNftTypeDetail(address(this), _tokenType);\n        require(nftTypeDetail.totalSupply > 0, \"Token type does not exist\");\n        // Check token type supply \n        uint256 nftTypeHaveMinted = nftTypeSupply[_tokenType];\n        uint256 _amountNftTypeCurrent = nftTypeHaveMinted + _amount;\n        require(nftTypeDetail.totalSupply >= _amountNftTypeCurrent, \"NFT type sold out\");\n        nftTypeSupply[_tokenType] = _amountNftTypeCurrent;\n        ReturnMintingOrder[] memory _returnOrder = new ReturnMintingOrder[](_amount);\n        for (uint256 i = 0; i < _amount; ++i) {\n            uint256 _id = tokenIdCounter.current();\n            tokenIdCounter.increment();\n            _safeMint(_to, _id);\n            // Update user bought list\n            holders[_to].push(_id);\n            // Update token id by type\n            tokenIdsByType[_id] = _tokenType;\n            emit TokenCreated(_to, _id, _tokenType);\n            _returnOrder[i] = ReturnMintingOrder(_id, _tokenType);\n        }\n\n        emit MintOrderFromDaapCreator(_callbackData, _to, _returnOrder);\n    }\n\n    /**\n    * @dev                  Address in whitelist Mint tokens for id defined (first buy on market)\n    * @param _amount        Id to mint\n    * @param _tokenType     Type of token to mint - if tokenType is 0\n    * @param _to            Address receive NFT\n    */\n    function whitelistMint(\n        uint256 _amount, \n        uint8 _tokenType, \n        address _to\n    ) external {\n        address _buyer = msg.sender;\n        require(whitelistBuyable[_to] >= _amount, \"User not in whitelist or limit reached\");\n        // Check time to buy\n        require(block.timestamp >= publicStartTime, \"It's not time to buy public sale\");\n        require(block.timestamp <= endTimeToBuy, \"It's not time to buy\");\n        // Check max allocation user can buy\n        if (maxAllocation > 0) {\n            require(holders[_to].length < maxAllocation, \"Buy limit reached\");\n        }\n        // Check token type is exist in this campaign\n        InZNFTTypeDetail.NFTTypeDetail memory nftTypeDetail = IConfiguration(getNftConfigurations()).getNftTypeDetail(address(this), _tokenType);\n        require(nftTypeDetail.totalSupply > 0, \"Token type does not exist\");\n        // Check token type supply \n        uint256 nftTypeHaveMinted = nftTypeSupply[_tokenType];\n        uint256 _amountNftTypeCurrent = nftTypeHaveMinted + _amount;\n        require(nftTypeDetail.totalSupply >= _amountNftTypeCurrent, \"NFT type sold out\");\n        uint256 _amount_price = nftTypeDetail.price * _amount;\n        require(_amount_price <= coinToken.balanceOf(_buyer), \"User need hold enough Token to buy this nft\");\n        coinToken.transferFrom(_buyer, campaignPaymentAddress, _amount_price);\n        // update data whitelist\n        whitelistBuyable[_to] -= _amount;\n        whiteListBought += _amount;\n        // Update nft type supply have minted\n        nftTypeSupply[_tokenType] = _amountNftTypeCurrent;\n        \n        for (uint256 i = 0; i < _amount; ++i) {\n            uint256 _id = tokenIdCounter.current();\n            tokenIdCounter.increment();\n            _safeMint(_to, _id);\n            // Update user bought list\n            holders[_to].push(_id);\n            // Update token id by type\n            tokenIdsByType[_id] = _tokenType;\n            emit TokenCreated(_to, _id, _tokenType);\n        }\n    }\n\n    /**\n     *      Function return tokenURI for specific NFT\n     *      @param _tokenId ID of NFT\n     *      @return tokenURI of token with ID = _tokenId\n     */\n    function tokenURI(\n        uint256 _tokenId\n    ) public view override returns (string memory) {\n        return IConfiguration(getNftConfigurations()).getCollectionURI(address(this), _tokenId);\n    }\n\n    /**\n     *      Function that gets latest ID of this NFT contract\n     *      @return tokenId of latest NFT\n     */\n    function lastId() public view returns (uint256) {\n        return tokenIdCounter.current();\n    }\n\n    /**\n     *  @notice     This function is only used for estimation purpose, therefore the call will always revert and encode the result in the revert data.\n     *  @dev        This function's used for estimate gas for a execution call\n     *  @param to           The address of caller\n     *  @param value        The value of msg.value\n     *  @param data         The data sent with tx\n     *  @param operation    the operation of tx\n     */\n    function requiredTxGas(\n        address to,\n        uint256 value,\n        bytes calldata data,\n        InterfaceFunction.Operation operation\n    ) \n        external\n        onlyRole(ADMIN_ROLE)\n        // returns (uint256)\n    {\n        InterfaceFunction.requiredTxGas(to, value, data, operation);\n    }\n\n    /**\n     * This function allow ADMIN can execute a function witj specificed logic and params flexibily\n     * @param to The caller of tx\n     * @param value The msg.value of tx\n     * @param txGas The estimated gas using for the tx\n     * @param data The data comming with the tx\n     * @param operation The operation of tx\n     */\n    function execTx(\n        address to,\n        uint256 value,\n        uint256 txGas,\n        bytes calldata data,\n        InterfaceFunction.Operation operation\n    ) \n        external \n        onlyRole(ADMIN_ROLE) \n    {\n        InterfaceFunction.execTx(to, value, txGas, data, operation);\n    }\n\n    /** Marketplace fee */\n    function _marketFee(uint256 _amount) internal view returns (uint256 fee) {\n        // TODO check rate\n        uint256 marketFeePercent = IInZNFTMarket(marketOwnerAddress).getMarketFeePercent(address(this));\n        fee = (_amount / 10000) * marketFeePercent;\n    }\n\n    function withdraw() external  onlyRole(DEFAULT_ADMIN_ROLE) {\n        coinToken.transfer(msg.sender, coinToken.balanceOf(address(this)));\n    }\n\n    /** Burns a list  nft ids. */\n    function burn(uint256[] memory ids) external onlyRole(BURNER_ROLE) {\n        for (uint256 i = 0; i < ids.length; ++i) {\n            _burn(ids[i]);\n        }\n    }\n\n    function setMaxAllocation(uint256 _maxAllocation) external onlyRole(DESIGN_ROLE) {\n        maxAllocation = _maxAllocation;\n    }\n\n    function setCampaignPaymentAddress(address _campaignPaymentAddress) external onlyRole(DESIGN_ROLE) {\n        campaignPaymentAddress = _campaignPaymentAddress;\n    }\n\n    function setWhiteListStartTime(uint256 _whitelistStartTime) external onlyRole(DESIGN_ROLE) {\n        whitelistStartTime = _whitelistStartTime;\n    }\n\n    function setPublicStartTime(uint256 _publicStartTime) external onlyRole(DESIGN_ROLE) {\n        publicStartTime = _publicStartTime;\n    }\n\n    function setEndTimeToBuy(uint256 _endTimeToBuy) external onlyRole(DESIGN_ROLE) {\n        endTimeToBuy = _endTimeToBuy;\n    }\n\n    function setCoinToken(IERC20 _coinToken) external onlyRole(DESIGN_ROLE) {\n        coinToken = _coinToken;\n    }\n\n    // set whitelist address with amount can buy\n    function setWhitelistsBuyable(\n        address[] memory _whitelistAddresses, \n        uint256[] memory _buyableAmountList\n    ) external onlyRole(ADMIN_ROLE) {\n        require(\n            _whitelistAddresses.length == _buyableAmountList.length, \n            \"Whitelist and buyable amount list must be same length\"\n        );\n        for (uint256 i = 0; i < _whitelistAddresses.length; i++) {\n            whitelistBuyable[_whitelistAddresses[i]] = _buyableAmountList[i];\n            whiteListPool += _buyableAmountList[i];\n        }\n    }\n\n    /** Enable common user mint NFT */\n    function setBuyable(bool _isBuyable) external onlyRole(DESIGN_ROLE) {\n        buyable = _isBuyable;\n    }\n\n    /**\n     * @dev Function allows ADMIN ROLE to config the default royalty fee\n     */\n    function configRoyalty(\n        address _wallet,\n        uint96 _rate\n    ) external onlyRole(DEFAULT_ADMIN_ROLE) {\n        super._setDefaultRoyalty(_wallet, _rate);\n    }\n\n    /**\n     *      INHERITANCE FUNCTIONS\n     */\n    function supportsInterface(\n        bytes4 interfaceId\n    )\n        public\n        view\n        override(\n            ERC721Upgradeable,\n            AccessControlUpgradeable,\n            ERC721RoyaltyUpgradeable\n        )\n        returns (bool)\n    {\n        return super.supportsInterface(interfaceId);\n    }\n\n    function _burn(\n        uint256 tokenId\n    ) internal override(ERC721Upgradeable, ERC721RoyaltyUpgradeable) {\n        super._burn(tokenId);\n        _resetTokenRoyalty(tokenId);\n    }\n\n    /**\n     *          INTERNAL FUNCTION\n     */\n    function _authorizeUpgrade(address newImplementation)\n        internal\n        override\n        onlyRole(ADMIN_ROLE)\n    {}\n\n\n    /**\n     *  @notice Function internal getting the address of NFT creator\n     */\n    function getNftCreator() internal view returns (address) {\n        return IFactory(factoryAddress).getCurrentDappCreatorAddress();\n    }\n\n    /**\n     *  @notice Function internal returns the address of NftConfigurations\n     */\n    function getNftConfigurations() internal view returns (address) {\n        return IFactory(factoryAddress).getCurrentConfiguration();\n    }\n\n    /**\n     *  @notice Function get factory address\n     */\n    function getFactoryAddress() external view onlyRole(ADMIN_ROLE) returns (address) {\n        return factoryAddress;\n    }\n\n    /**\n     *  @notice Function get factory address\n     */\n    function getConfigNFT(uint8 _tokenType) \n    external view onlyRole(ADMIN_ROLE) \n    returns (InZNFTTypeDetail.NFTTypeDetail memory) {\n        return IConfiguration(getNftConfigurations()).getNftTypeDetail(address(this), _tokenType);\n    }\n    \n    /**\n     * @notice Checks if address is a contract\n     * @dev It prevents contract from being targetted\n     */\n    function _isContract(address addr) internal view returns (bool) {\n        uint256 size;\n        assembly {\n            size := extcodesize(addr)\n        }\n        return size > 0;\n    }\n}\n",
  "sourcePath": "/Users/huy8bit/Desktop/DRIVE/JOB/ATOM SOLUTION/TASK/inz-dapp-api/dev/inz-smc/contracts/minting/campaignNFT/InzCampaignTypesNFT721.sol",
  "compiler": {
    "name": "solc",
    "version": "0.8.19+commit.7dd6d404.Emscripten.clang"
  },
  "schemaVersion": "3.4.14",
  "updatedAt": "2023-08-28T08:04:22.862Z",
  "devdoc": {
    "events": {
      "AdminChanged(address,address)": {
        "details": "Emitted when the admin account has changed."
      },
      "Approval(address,address,uint256)": {
        "details": "Emitted when `owner` enables `approved` to manage the `tokenId` token."
      },
      "ApprovalForAll(address,address,bool)": {
        "details": "Emitted when `owner` enables or disables (`approved`) `operator` to manage all of its assets."
      },
      "BeaconUpgraded(address)": {
        "details": "Emitted when the beacon is upgraded."
      },
      "Initialized(uint8)": {
        "details": "Triggered when the contract has been initialized or reinitialized."
      },
      "RoleAdminChanged(bytes32,bytes32,bytes32)": {
        "details": "Emitted when `newAdminRole` is set as ``role``'s admin role, replacing `previousAdminRole` `DEFAULT_ADMIN_ROLE` is the starting admin for all roles, despite {RoleAdminChanged} not being emitted signaling this. _Available since v3.1._"
      },
      "RoleGranted(bytes32,address,address)": {
        "details": "Emitted when `account` is granted `role`. `sender` is the account that originated the contract call, an admin role bearer except when using {AccessControl-_setupRole}."
      },
      "RoleRevoked(bytes32,address,address)": {
        "details": "Emitted when `account` is revoked `role`. `sender` is the account that originated the contract call:   - if using `revokeRole`, it is the admin role bearer   - if using `renounceRole`, it is the role bearer (i.e. `account`)"
      },
      "Transfer(address,address,uint256)": {
        "details": "Emitted when `tokenId` token is transferred from `from` to `to`."
      },
      "Upgraded(address)": {
        "details": "Emitted when the implementation is upgraded."
      }
    },
    "kind": "dev",
    "methods": {
      "approve(address,uint256)": {
        "details": "See {IERC721-approve}."
      },
      "balanceOf(address)": {
        "details": "See {IERC721-balanceOf}."
      },
      "configRoyalty(address,uint96)": {
        "details": "Function allows ADMIN ROLE to config the default royalty fee"
      },
      "execTx(address,uint256,uint256,bytes,uint8)": {
        "params": {
          "data": "The data comming with the tx",
          "operation": "The operation of tx",
          "to": "The caller of tx",
          "txGas": "The estimated gas using for the tx",
          "value": "The msg.value of tx"
        }
      },
      "getApproved(uint256)": {
        "details": "See {IERC721-getApproved}."
      },
      "getRoleAdmin(bytes32)": {
        "details": "Returns the admin role that controls `role`. See {grantRole} and {revokeRole}. To change a role's admin, use {_setRoleAdmin}."
      },
      "grantRole(bytes32,address)": {
        "details": "Grants `role` to `account`. If `account` had not been already granted `role`, emits a {RoleGranted} event. Requirements: - the caller must have ``role``'s admin role. May emit a {RoleGranted} event."
      },
      "hasRole(bytes32,address)": {
        "details": "Returns `true` if `account` has been granted `role`."
      },
      "isApprovedForAll(address,address)": {
        "details": "See {IERC721-isApprovedForAll}."
      },
      "lastId()": {
        "returns": {
          "_0": "tokenId of latest NFT"
        }
      },
      "mint(uint256,uint8,address,string)": {
        "details": "Mint tokens for id defined (first buy on market)",
        "params": {
          "_amount": "Amount the user wants to mint",
          "_to": "Address receive NFT",
          "_tokenType": "Type of token to mint"
        }
      },
      "name()": {
        "details": "See {IERC721Metadata-name}."
      },
      "owner()": {
        "details": "Returns the address of the current owner."
      },
      "ownerMint(uint256,uint8,address)": {
        "details": "Owner mint without transfer TOKEN",
        "params": {
          "_amount": "Amount the user wants to mint",
          "_to": "Transfer NTF to address _to",
          "_tokenType": "Type of token to mint"
        }
      },
      "ownerOf(uint256)": {
        "details": "See {IERC721-ownerOf}."
      },
      "proxiableUUID()": {
        "details": "Implementation of the ERC1822 {proxiableUUID} function. This returns the storage slot used by the implementation. It is used to validate the implementation's compatibility when performing an upgrade. IMPORTANT: A proxy pointing at a proxiable contract should not be considered proxiable itself, because this risks bricking a proxy that upgrades to it, by delegating to itself until out of gas. Thus it is critical that this function revert if invoked through a proxy. This is guaranteed by the `notDelegated` modifier."
      },
      "renounceOwnership()": {
        "details": "Leaves the contract without owner. It will not be possible to call `onlyOwner` functions anymore. Can only be called by the current owner. NOTE: Renouncing ownership will leave the contract without an owner, thereby removing any functionality that is only available to the owner."
      },
      "renounceRole(bytes32,address)": {
        "details": "Revokes `role` from the calling account. Roles are often managed via {grantRole} and {revokeRole}: this function's purpose is to provide a mechanism for accounts to lose their privileges if they are compromised (such as when a trusted device is misplaced). If the calling account had been revoked `role`, emits a {RoleRevoked} event. Requirements: - the caller must be `account`. May emit a {RoleRevoked} event."
      },
      "requiredTxGas(address,uint256,bytes,uint8)": {
        "details": "This function's used for estimate gas for a execution call",
        "params": {
          "data": "The data sent with tx",
          "operation": "the operation of tx",
          "to": "The address of caller",
          "value": "The value of msg.value"
        }
      },
      "revokeRole(bytes32,address)": {
        "details": "Revokes `role` from `account`. If `account` had been granted `role`, emits a {RoleRevoked} event. Requirements: - the caller must have ``role``'s admin role. May emit a {RoleRevoked} event."
      },
      "royaltyInfo(uint256,uint256)": {
        "details": "Returns how much royalty is owed and to whom, based on a sale price that may be denominated in any unit of exchange. The royalty amount is denominated and should be paid in that same unit of exchange."
      },
      "safeTransferFrom(address,address,uint256)": {
        "details": "See {IERC721-safeTransferFrom}."
      },
      "safeTransferFrom(address,address,uint256,bytes)": {
        "details": "See {IERC721-safeTransferFrom}."
      },
      "setApprovalForAll(address,bool)": {
        "details": "See {IERC721-setApprovalForAll}."
      },
      "symbol()": {
        "details": "See {IERC721Metadata-symbol}."
      },
      "tokenURI(uint256)": {
        "params": {
          "_tokenId": "ID of NFT"
        },
        "returns": {
          "_0": "tokenURI of token with ID = _tokenId"
        }
      },
      "transferFrom(address,address,uint256)": {
        "details": "See {IERC721-transferFrom}."
      },
      "transferOwnership(address)": {
        "details": "Transfers ownership of the contract to a new account (`newOwner`). Can only be called by the current owner."
      },
      "upgradeTo(address)": {
        "details": "Upgrade the implementation of the proxy to `newImplementation`. Calls {_authorizeUpgrade}. Emits an {Upgraded} event."
      },
      "upgradeToAndCall(address,bytes)": {
        "details": "Upgrade the implementation of the proxy to `newImplementation`, and subsequently execute the function call encoded in `data`. Calls {_authorizeUpgrade}. Emits an {Upgraded} event."
      },
      "whitelistMint(uint256,uint8,address)": {
        "details": "Address in whitelist Mint tokens for id defined (first buy on market)",
        "params": {
          "_amount": "Id to mint",
          "_to": "Address receive NFT",
          "_tokenType": "Type of token to mint - if tokenType is 0"
        }
      }
    },
    "version": 1
  },
  "userdoc": {
    "events": {
      "ActiveGiftCode(address,uint256,uint8,string,string)": {
        "notice": "Event Definitions"
      }
    },
    "kind": "user",
    "methods": {
      "burn(uint256[])": {
        "notice": "Burns a list  nft ids. "
      },
      "execTx(address,uint256,uint256,bytes,uint8)": {
        "notice": "This function allow ADMIN can execute a function witj specificed logic and params flexibily"
      },
      "getConfigNFT(uint8)": {
        "notice": "Function get factory address"
      },
      "getFactoryAddress()": {
        "notice": "Function get factory address"
      },
      "initialize(address,address,address,string,string,address,address)": {
        "notice": "Contract Initialization"
      },
      "lastId()": {
        "notice": "Function that gets latest ID of this NFT contract"
      },
      "requiredTxGas(address,uint256,bytes,uint8)": {
        "notice": "This function is only used for estimation purpose, therefore the call will always revert and encode the result in the revert data."
      },
      "setBuyable(bool)": {
        "notice": "Enable common user mint NFT "
      },
      "supportsInterface(bytes4)": {
        "notice": "INHERITANCE FUNCTIONS"
      },
      "tokenURI(uint256)": {
        "notice": "Function return tokenURI for specific NFT"
      }
    },
    "version": 1
  }
}