{
  "contractName": "InZCampaignFactory",
  "abi": [
    {
      "inputs": [
        {
          "internalType": "contract IConfiguration",
          "name": "_nftConfiguration",
          "type": "address"
        }
      ],
      "stateMutability": "nonpayable",
      "type": "constructor"
    },
    {
      "anonymous": false,
      "inputs": [
        {
          "indexed": false,
          "internalType": "address",
          "name": "newBoxAddress",
          "type": "address"
        },
        {
          "indexed": false,
          "internalType": "string",
          "name": "uri",
          "type": "string"
        },
        {
          "indexed": false,
          "internalType": "address",
          "name": "payToken",
          "type": "address"
        },
        {
          "indexed": false,
          "internalType": "string",
          "name": "name",
          "type": "string"
        },
        {
          "indexed": false,
          "internalType": "string",
          "name": "symbol",
          "type": "string"
        },
        {
          "indexed": false,
          "internalType": "uint256",
          "name": "startTime",
          "type": "uint256"
        },
        {
          "indexed": false,
          "internalType": "uint256",
          "name": "endTime",
          "type": "uint256"
        },
        {
          "indexed": false,
          "internalType": "bool",
          "name": "isAutoIncreaseId",
          "type": "bool"
        },
        {
          "indexed": false,
          "internalType": "uint256",
          "name": "totalSupply",
          "type": "uint256"
        },
        {
          "indexed": false,
          "internalType": "uint256",
          "name": "price",
          "type": "uint256"
        }
      ],
      "name": "NewBox",
      "type": "event"
    },
    {
      "anonymous": false,
      "inputs": [
        {
          "indexed": false,
          "internalType": "uint8",
          "name": "startdardId",
          "type": "uint8"
        },
        {
          "indexed": false,
          "internalType": "address",
          "name": "campaignAddress",
          "type": "address"
        },
        {
          "indexed": false,
          "internalType": "address",
          "name": "campaignPaymentAddress",
          "type": "address"
        },
        {
          "components": [
            {
              "internalType": "uint8",
              "name": "nftType",
              "type": "uint8"
            },
            {
              "internalType": "uint256",
              "name": "totalSupply",
              "type": "uint256"
            },
            {
              "internalType": "uint256",
              "name": "price",
              "type": "uint256"
            }
          ],
          "indexed": false,
          "internalType": "struct InZNFTTypeDetail.NFTTypeDetail[]",
          "name": "nftTypesDetail",
          "type": "tuple[]"
        },
        {
          "indexed": false,
          "internalType": "contract IERC20",
          "name": "coinToken",
          "type": "address"
        },
        {
          "indexed": false,
          "internalType": "string",
          "name": "symbol",
          "type": "string"
        },
        {
          "indexed": false,
          "internalType": "string",
          "name": "name",
          "type": "string"
        },
        {
          "indexed": false,
          "internalType": "address",
          "name": "adminAddress",
          "type": "address"
        }
      ],
      "name": "NewNFT",
      "type": "event"
    },
    {
      "anonymous": false,
      "inputs": [
        {
          "indexed": true,
          "internalType": "bytes32",
          "name": "role",
          "type": "bytes32"
        },
        {
          "indexed": true,
          "internalType": "bytes32",
          "name": "previousAdminRole",
          "type": "bytes32"
        },
        {
          "indexed": true,
          "internalType": "bytes32",
          "name": "newAdminRole",
          "type": "bytes32"
        }
      ],
      "name": "RoleAdminChanged",
      "type": "event"
    },
    {
      "anonymous": false,
      "inputs": [
        {
          "indexed": true,
          "internalType": "bytes32",
          "name": "role",
          "type": "bytes32"
        },
        {
          "indexed": true,
          "internalType": "address",
          "name": "account",
          "type": "address"
        },
        {
          "indexed": true,
          "internalType": "address",
          "name": "sender",
          "type": "address"
        }
      ],
      "name": "RoleGranted",
      "type": "event"
    },
    {
      "anonymous": false,
      "inputs": [
        {
          "indexed": true,
          "internalType": "bytes32",
          "name": "role",
          "type": "bytes32"
        },
        {
          "indexed": true,
          "internalType": "address",
          "name": "account",
          "type": "address"
        },
        {
          "indexed": true,
          "internalType": "address",
          "name": "sender",
          "type": "address"
        }
      ],
      "name": "RoleRevoked",
      "type": "event"
    },
    {
      "anonymous": false,
      "inputs": [
        {
          "indexed": false,
          "internalType": "address",
          "name": "newConfiguration",
          "type": "address"
        }
      ],
      "name": "SetConfiguration",
      "type": "event"
    },
    {
      "inputs": [],
      "name": "ADMIN_ROLE",
      "outputs": [
        {
          "internalType": "bytes32",
          "name": "",
          "type": "bytes32"
        }
      ],
      "stateMutability": "view",
      "type": "function",
      "constant": true
    },
    {
      "inputs": [],
      "name": "DEFAULT_ADMIN_ROLE",
      "outputs": [
        {
          "internalType": "bytes32",
          "name": "",
          "type": "bytes32"
        }
      ],
      "stateMutability": "view",
      "type": "function",
      "constant": true
    },
    {
      "inputs": [],
      "name": "boxImplementationAddress",
      "outputs": [
        {
          "internalType": "address",
          "name": "",
          "type": "address"
        }
      ],
      "stateMutability": "view",
      "type": "function",
      "constant": true
    },
    {
      "inputs": [],
      "name": "dappCreatorAddress",
      "outputs": [
        {
          "internalType": "address",
          "name": "",
          "type": "address"
        }
      ],
      "stateMutability": "view",
      "type": "function",
      "constant": true
    },
    {
      "inputs": [
        {
          "internalType": "bytes32",
          "name": "role",
          "type": "bytes32"
        }
      ],
      "name": "getRoleAdmin",
      "outputs": [
        {
          "internalType": "bytes32",
          "name": "",
          "type": "bytes32"
        }
      ],
      "stateMutability": "view",
      "type": "function",
      "constant": true
    },
    {
      "inputs": [
        {
          "internalType": "bytes32",
          "name": "role",
          "type": "bytes32"
        },
        {
          "internalType": "address",
          "name": "account",
          "type": "address"
        }
      ],
      "name": "grantRole",
      "outputs": [],
      "stateMutability": "nonpayable",
      "type": "function"
    },
    {
      "inputs": [
        {
          "internalType": "bytes32",
          "name": "role",
          "type": "bytes32"
        },
        {
          "internalType": "address",
          "name": "account",
          "type": "address"
        }
      ],
      "name": "hasRole",
      "outputs": [
        {
          "internalType": "bool",
          "name": "",
          "type": "bool"
        }
      ],
      "stateMutability": "view",
      "type": "function",
      "constant": true
    },
    {
      "inputs": [
        {
          "internalType": "uint256",
          "name": "",
          "type": "uint256"
        }
      ],
      "name": "inZBoxCampaignsAddress",
      "outputs": [
        {
          "internalType": "address",
          "name": "",
          "type": "address"
        }
      ],
      "stateMutability": "view",
      "type": "function",
      "constant": true
    },
    {
      "inputs": [
        {
          "internalType": "uint256",
          "name": "",
          "type": "uint256"
        }
      ],
      "name": "inZNftCampaignsAddress",
      "outputs": [
        {
          "internalType": "address",
          "name": "",
          "type": "address"
        }
      ],
      "stateMutability": "view",
      "type": "function",
      "constant": true
    },
    {
      "inputs": [],
      "name": "marketAddress",
      "outputs": [
        {
          "internalType": "address",
          "name": "",
          "type": "address"
        }
      ],
      "stateMutability": "view",
      "type": "function",
      "constant": true
    },
    {
      "inputs": [],
      "name": "nftConfiguration",
      "outputs": [
        {
          "internalType": "contract IConfiguration",
          "name": "",
          "type": "address"
        }
      ],
      "stateMutability": "view",
      "type": "function",
      "constant": true
    },
    {
      "inputs": [],
      "name": "nftImplementationAddressERC1155",
      "outputs": [
        {
          "internalType": "address",
          "name": "",
          "type": "address"
        }
      ],
      "stateMutability": "view",
      "type": "function",
      "constant": true
    },
    {
      "inputs": [],
      "name": "nftImplementationAddressERC721",
      "outputs": [
        {
          "internalType": "address",
          "name": "",
          "type": "address"
        }
      ],
      "stateMutability": "view",
      "type": "function",
      "constant": true
    },
    {
      "inputs": [
        {
          "internalType": "bytes32",
          "name": "role",
          "type": "bytes32"
        },
        {
          "internalType": "address",
          "name": "account",
          "type": "address"
        }
      ],
      "name": "renounceRole",
      "outputs": [],
      "stateMutability": "nonpayable",
      "type": "function"
    },
    {
      "inputs": [
        {
          "internalType": "bytes32",
          "name": "role",
          "type": "bytes32"
        },
        {
          "internalType": "address",
          "name": "account",
          "type": "address"
        }
      ],
      "name": "revokeRole",
      "outputs": [],
      "stateMutability": "nonpayable",
      "type": "function"
    },
    {
      "inputs": [
        {
          "internalType": "uint8",
          "name": "_standardId",
          "type": "uint8"
        },
        {
          "internalType": "address",
          "name": "_campaignPaymentAddress",
          "type": "address"
        },
        {
          "internalType": "string",
          "name": "_baseMetadataUri",
          "type": "string"
        },
        {
          "internalType": "contract IERC20",
          "name": "_coinToken",
          "type": "address"
        },
        {
          "internalType": "string",
          "name": "_symbol",
          "type": "string"
        },
        {
          "internalType": "string",
          "name": "_name",
          "type": "string"
        },
        {
          "components": [
            {
              "internalType": "uint8",
              "name": "nftType",
              "type": "uint8"
            },
            {
              "internalType": "uint256",
              "name": "totalSupply",
              "type": "uint256"
            },
            {
              "internalType": "uint256",
              "name": "price",
              "type": "uint256"
            }
          ],
          "internalType": "struct InZNFTTypeDetail.NFTTypeDetail[]",
          "name": "_nftTypesDetail",
          "type": "tuple[]"
        }
      ],
      "name": "createCampaign",
      "outputs": [],
      "stateMutability": "nonpayable",
      "type": "function"
    },
    {
      "inputs": [
        {
          "internalType": "string",
          "name": "_boxUri",
          "type": "string"
        },
        {
          "internalType": "contract IERC20",
          "name": "_payToken",
          "type": "address"
        },
        {
          "internalType": "string",
          "name": "_name",
          "type": "string"
        },
        {
          "internalType": "string",
          "name": "_symbol",
          "type": "string"
        },
        {
          "internalType": "uint256",
          "name": "_startTime",
          "type": "uint256"
        },
        {
          "internalType": "uint256",
          "name": "_endTime",
          "type": "uint256"
        },
        {
          "internalType": "bool",
          "name": "_isAutoIncreaseId",
          "type": "bool"
        },
        {
          "internalType": "uint256",
          "name": "_totalSupply",
          "type": "uint256"
        },
        {
          "internalType": "uint256",
          "name": "_price",
          "type": "uint256"
        }
      ],
      "name": "createBox",
      "outputs": [],
      "stateMutability": "nonpayable",
      "type": "function"
    },
    {
      "inputs": [
        {
          "internalType": "contract IConfiguration",
          "name": "_nftConfiguration",
          "type": "address"
        }
      ],
      "name": "setConfiguration",
      "outputs": [],
      "stateMutability": "nonpayable",
      "type": "function"
    },
    {
      "inputs": [
        {
          "internalType": "address",
          "name": "_collectionAddress",
          "type": "address"
        },
        {
          "internalType": "uint8",
          "name": "_nftType",
          "type": "uint8"
        },
        {
          "internalType": "uint256",
          "name": "_price",
          "type": "uint256"
        },
        {
          "internalType": "uint256",
          "name": "_totalSupply",
          "type": "uint256"
        },
        {
          "internalType": "string",
          "name": "_baseMetadataUri",
          "type": "string"
        },
        {
          "internalType": "address",
          "name": "_payToken",
          "type": "address"
        }
      ],
      "name": "configCollection",
      "outputs": [],
      "stateMutability": "nonpayable",
      "type": "function"
    },
    {
      "inputs": [
        {
          "internalType": "address",
          "name": "_collectionAddress",
          "type": "address"
        },
        {
          "internalType": "string",
          "name": "_baseMetadataUri",
          "type": "string"
        }
      ],
      "name": "configNftCollectionURI",
      "outputs": [],
      "stateMutability": "nonpayable",
      "type": "function"
    },
    {
      "inputs": [
        {
          "internalType": "address",
          "name": "_nftFactory",
          "type": "address"
        },
        {
          "internalType": "address",
          "name": "_dappCreator",
          "type": "address"
        },
        {
          "internalType": "address",
          "name": "_treasury",
          "type": "address"
        }
      ],
      "name": "updateNftConfigContract",
      "outputs": [],
      "stateMutability": "nonpayable",
      "type": "function"
    },
    {
      "inputs": [
        {
          "internalType": "bytes4",
          "name": "interfaceId",
          "type": "bytes4"
        }
      ],
      "name": "supportsInterface",
      "outputs": [
        {
          "internalType": "bool",
          "name": "",
          "type": "bool"
        }
      ],
      "stateMutability": "view",
      "type": "function",
      "constant": true
    },
    {
      "inputs": [],
      "name": "getAllNFTCampaign",
      "outputs": [
        {
          "internalType": "address[]",
          "name": "",
          "type": "address[]"
        }
      ],
      "stateMutability": "view",
      "type": "function",
      "constant": true
    },
    {
      "inputs": [],
      "name": "getAllBoxCampaign",
      "outputs": [
        {
          "internalType": "address[]",
          "name": "",
          "type": "address[]"
        }
      ],
      "stateMutability": "view",
      "type": "function",
      "constant": true
    },
    {
      "inputs": [
        {
          "internalType": "uint8",
          "name": "_standardId",
          "type": "uint8"
        }
      ],
      "name": "getNFTCampaignsByStandardId",
      "outputs": [
        {
          "internalType": "address[]",
          "name": "",
          "type": "address[]"
        }
      ],
      "stateMutability": "view",
      "type": "function",
      "constant": true
    },
    {
      "inputs": [
        {
          "internalType": "address",
          "name": "_campaignAddress",
          "type": "address"
        }
      ],
      "name": "getStandardIdByCampaign",
      "outputs": [
        {
          "internalType": "uint8",
          "name": "",
          "type": "uint8"
        }
      ],
      "stateMutability": "view",
      "type": "function",
      "constant": true
    },
    {
      "inputs": [],
      "name": "getCurrentDappCreatorAddress",
      "outputs": [
        {
          "internalType": "address",
          "name": "",
          "type": "address"
        }
      ],
      "stateMutability": "view",
      "type": "function",
      "constant": true
    },
    {
      "inputs": [],
      "name": "getCurrentConfiguration",
      "outputs": [
        {
          "internalType": "address",
          "name": "",
          "type": "address"
        }
      ],
      "stateMutability": "view",
      "type": "function",
      "constant": true
    },
    {
      "inputs": [
        {
          "internalType": "uint256",
          "name": "index",
          "type": "uint256"
        }
      ],
      "name": "getCollectionAddress",
      "outputs": [
        {
          "internalType": "address",
          "name": "",
          "type": "address"
        }
      ],
      "stateMutability": "view",
      "type": "function",
      "constant": true
    },
    {
      "inputs": [
        {
          "internalType": "address",
          "name": "_nftCollection",
          "type": "address"
        }
      ],
      "name": "isValidNftCollection",
      "outputs": [
        {
          "internalType": "bool",
          "name": "",
          "type": "bool"
        }
      ],
      "stateMutability": "view",
      "type": "function",
      "constant": true
    }
  ],
  "bytecode": "0x60806040523480156200001157600080fd5b506040516200f0df3803806200f0df83398101604081905262000034916200024d565b600c80546001600160a01b0319166001600160a01b0383161790556040516200005d9062000223565b604051809103906000f0801580156200007a573d6000803e3d6000fd5b50600480546001600160a01b0319166001600160a01b0392909216919091179055604051620000a99062000231565b604051809103906000f080158015620000c6573d6000803e3d6000fd5b50600580546001600160a01b0319166001600160a01b0392909216919091179055604051620000f5906200023f565b604051809103906000f08015801562000112573d6000803e3d6000fd5b50600a80546001600160a01b0319166001600160a01b03929092169190911790556200015f7fa49807205ce4d355092ef5a8a18f56e8913cf4a201fbe287825b095693c217753362000173565b6200016c60003362000173565b506200027f565b6200017f828262000183565b5050565b6000828152602081815260408083206001600160a01b038516845290915290205460ff166200017f576000828152602081815260408083206001600160a01b03851684529091529020805460ff19166001179055620001df3390565b6001600160a01b0316816001600160a01b0316837f2f8788117e7eff1d82e926ec794901d17c78024a50270940304540a733656f0d60405160405180910390a45050565b614ac280620021c983390190565b614f998062006c8b83390190565b6134bb806200bc2483390190565b6000602082840312156200026057600080fd5b81516001600160a01b03811681146200027857600080fd5b9392505050565b611f3a806200028f6000396000f3fe608060405234801561001057600080fd5b50600436106101da5760003560e01c806375b238fc11610104578063a54cd2f6116100a2578063c49bf93211610071578063c49bf9321461040d578063d547741f14610420578063e4ae24a814610433578063f557c5601461044657600080fd5b8063a54cd2f6146103af578063ac4807ff146103c2578063aedc2ddc146103d5578063bbb24156146103fa57600080fd5b80639ee984ba116100de5780639ee984ba1461037b578063a217fddf1461038c578063a259710914610394578063a3b7ebff146103a757600080fd5b806375b238fc1461034057806391d1485414610355578063956236411461036857600080fd5b80634587a6101161017c57806361b6cc3c1161014b57806361b6cc3c146102ff578063627f09c31461031257806371efede91461032557806374f55d541461032d57600080fd5b80634587a610146102b15780634d0bfcb3146102c457806352afe4a1146102d95780635e96c710146102ec57600080fd5b806325c2bbfb116101b857806325c2bbfb146102635780632f2ff15d14610278578063333671a41461028b57806336568abe1461029e57600080fd5b806301ffc9a7146101df578063085ba9a914610207578063248a9ca314610232575b600080fd5b6101f26101ed36600461147a565b610459565b60405190151581526020015b60405180910390f35b61021a6102153660046114a4565b61046a565b6040516001600160a01b0390911681526020016101fe565b6102556102403660046114a4565b60009081526020819052604090206001015490565b6040519081526020016101fe565b6102766102713660046115cd565b610494565b005b61027661028636600461169e565b6105d7565b61021a6102993660046114a4565b610601565b6102766102ac36600461169e565b61060e565b600c5461021a906001600160a01b031681565b6102cc610691565b6040516101fe91906116ce565b6101f26102e736600461171b565b61070c565b6102766102fa3660046117fe565b610719565b61021a61030d3660046114a4565b610b5c565b61027661032036600461171b565b610b6c565b61021a610c42565b61027661033b3660046118dd565b610cb5565b610255600080516020611ee583398151915281565b6101f261036336600461169e565b610d42565b60035461021a906001600160a01b031681565b600c546001600160a01b031661021a565b610255600081565b600a5461021a906001600160a01b031681565b6102cc610d6b565b60055461021a906001600160a01b031681565b600b5461021a906001600160a01b031681565b6103e86103e336600461171b565b610de4565b60405160ff90911681526020016101fe565b6102cc610408366004611928565b610e1e565b61027661041b366004611943565b610ea7565b61027661042e36600461169e565b610ed7565b60045461021a906001600160a01b031681565b6102766104543660046119ca565b610efc565b600061046482610f74565b92915050565b6002818154811061047a57600080fd5b6000918252602090912001546001600160a01b0316905081565b600080516020611ee58339815191526104ac81610fa9565b600a546000906104c4906001600160a01b0316610fb6565b60405163e4a4a2a360e01b81529091506001600160a01b0382169063e4a4a2a390610503908e908e908e908e908e908e908e908e908e90600401611a6a565b600060405180830381600087803b15801561051d57600080fd5b505af1158015610531573d6000803e3d6000fd5b5050600280546001810182556000919091527f405787fa12a823e0f2b7631cc41b3ba8828b3321ca811111fa75cd3aa3bb5ace0180546001600160a01b0319166001600160a01b03851617905550506040517f0efb7d30e57f477ddbd1e449787aa826cc83f435bd41b49a3370ed9caf78d2e5906105c29083908e908e908e908e908e908e908e908e908e90611ae3565b60405180910390a15050505050505050505050565b6000828152602081905260409020600101546105f281610fa9565b6105fc8383611050565b505050565b60006104646007836110d4565b6001600160a01b03811633146106835760405162461bcd60e51b815260206004820152602f60248201527f416363657373436f6e74726f6c3a2063616e206f6e6c792072656e6f756e636560448201526e103937b632b9903337b91039b2b63360891b60648201526084015b60405180910390fd5b61068d82826110e7565b5050565b6060600080516020611ee58339815191526106ab81610fa9565b600280548060200260200160405190810160405280929190818152602001828054801561070157602002820191906000526020600020905b81546001600160a01b031681526001909101906020018083116106e3575b505050505091505090565b600061046460078361114c565b600080516020611ee583398151915261073181610fa9565b60ff881660011480610746575060ff88166002145b61078b5760405162461bcd60e51b81526020600482015260166024820152751cdd185b99185c991259081b9bdd081cdd5c1c1bdc9d60521b604482015260640161067a565b600060001960ff8a1601610999576004546107ae906001600160a01b0316610fb6565b60035460405163538baeab60e01b81529192506001600160a01b038084169263538baeab926107ed9216908c908b908b908b9033903090600401611b69565b600060405180830381600087803b15801561080757600080fd5b505af115801561081b573d6000803e3d6000fd5b50507f3e5fec24aa4dc4e5aee2e025e51e1392c72a2500577559fae9665c6d52bd6a31805460018082019092557f80497882cf9008f7f796a89e5514a7b55bd96eab88ecb66aee4fb0a6fd34811c0180546001600160a01b0319166001600160a01b0386811691821790925560008181526009602052604090819020805460ff1916909417909355600c549251631b0e111360e31b815260048101919091529116925063d87088989150602401600060405180830381600087803b1580156108e257600080fd5b505af11580156108f6573d6000803e3d6000fd5b5050505061090e81600761116e90919063ffffffff16565b5060005b8351811015610993576109818285838151811061093157610931611bca565b60200260200101516000015186848151811061094f5761094f611bca565b60200260200101516040015187858151811061096d5761096d611bca565b6020026020010151602001518c338d611183565b8061098b81611bf6565b915050610912565b50610ac1565b6005546000906103e8906109b5906001600160a01b0316610fb6565b9250826001600160a01b031663c0f1c484600360009054906101000a90046001600160a01b03168b8d868d8d8d338e8b6040518b63ffffffff1660e01b8152600401610a0a9a99989796959493929190611c63565b600060405180830381600087803b158015610a2457600080fd5b505af1158015610a38573d6000803e3d6000fd5b50507f8819ef417987f8ae7a81f42cdfb18815282fe989326fbff903d13cf0e03ace298054600181019091557ff6c9906f00400cd8011256368849abf5d045cb493cf4841c92ea0271eae73bbd0180546001600160a01b0387166001600160a01b031990911681179091556000908152600960205260409020805460ff19166002179055505050505b6001805480820182556000919091527fb10e2d527612073b26eecdfd717e6a320cf44b4afac2b0732d9fcbe2b7fa0cf60180546001600160a01b0319166001600160a01b0383161790556040517f6e07cd6654a2294009ceb005fc75cddc94000647735e24523a0804492d0cce2690610b49908b9084908c9088908c908c908c903390611cff565b60405180910390a1505050505050505050565b6001818154811061047a57600080fd5b600080516020611ee5833981519152610b8481610fa9565b6001600160a01b038216610bed5760405162461bcd60e51b815260206004820152602a60248201527f41646472657373206f6620636f6e66696775726174696f6e206d757374206265604482015269103932b8bab4b932b21760b11b606482015260840161067a565b600c80546001600160a01b0319166001600160a01b0384169081179091556040519081527f63917b966ba08f88836a237f27084663bd4723bbb43b2baa5077c2f5566234639060200160405180910390a15050565b600c546040805163378f00f360e11b815290516000926001600160a01b031691636f1e01e69160048083019260209291908290030181865afa158015610c8c573d6000803e3d6000fd5b505050506040513d601f19601f82011682018060405250810190610cb09190611d7f565b905090565b600080516020611ee5833981519152610ccd81610fa9565b600c54604051635d81a2f160e11b81526001600160a01b038681166004830152858116602483015284811660448301529091169063bb0345e290606401600060405180830381600087803b158015610d2457600080fd5b505af1158015610d38573d6000803e3d6000fd5b5050505050505050565b6000918252602082815260408084206001600160a01b0393909316845291905290205460ff1690565b6060600080516020611ee5833981519152610d8581610fa9565b6001805480602002602001604051908101604052809291908181526020018280548015610701576020028201919060005260206000209081546001600160a01b031681526001909101906020018083116106e357505050505091505090565b6000600080516020611ee5833981519152610dfe81610fa9565b50506001600160a01b031660009081526009602052604090205460ff1690565b6060600080516020611ee5833981519152610e3881610fa9565b60ff831660009081526006602090815260409182902080548351818402810184019094528084529091830182828015610e9a57602002820191906000526020600020905b81546001600160a01b03168152600190910190602001808311610e7c575b5050505050915050919050565b600080516020611ee5833981519152610ebf81610fa9565b610ece87878787873388611183565b50505050505050565b600082815260208190526040902060010154610ef281610fa9565b6105fc83836110e7565b600080516020611ee5833981519152610f1481610fa9565b600c5460405163fab9cdbf60e01b81526001600160a01b039091169063fab9cdbf90610f469086908690600401611d9c565b600060405180830381600087803b158015610f6057600080fd5b505af1158015610ece573d6000803e3d6000fd5b60006001600160e01b03198216637965db0b60e01b148061046457506301ffc9a760e01b6001600160e01b0319831614610464565b610fb381336111fa565b50565b6000763d602d80600a3d3981f3363d3d373d3d3d363d730000008260601b60e81c176000526e5af43d82803e903d91602b57fd5bf38260781b17602052603760096000f090506001600160a01b03811661104b5760405162461bcd60e51b8152602060048201526016602482015275115490cc4c4d8dce8818dc99585d194819985a5b195960521b604482015260640161067a565b919050565b61105a8282610d42565b61068d576000828152602081815260408083206001600160a01b03851684529091529020805460ff191660011790556110903390565b6001600160a01b0316816001600160a01b0316837f2f8788117e7eff1d82e926ec794901d17c78024a50270940304540a733656f0d60405160405180910390a45050565b60006110e08383611253565b9392505050565b6110f18282610d42565b1561068d576000828152602081815260408083206001600160a01b0385168085529252808320805460ff1916905551339285917ff6391f5c32d9c69d2a47ea670b442974b53935d1edc7fd64eb21e047a839171b9190a45050565b6001600160a01b038116600090815260018301602052604081205415156110e0565b60006110e0836001600160a01b03841661127d565b600c54604051630f22364160e21b81526001600160a01b0390911690633c88d904906111bf908a908a908a908a908a908a908a90600401611dc8565b600060405180830381600087803b1580156111d957600080fd5b505af11580156111ed573d6000803e3d6000fd5b5050505050505050505050565b6112048282610d42565b61068d57611211816112cc565b61121c8360206112de565b60405160200161122d929190611e1b565b60408051601f198184030181529082905262461bcd60e51b825261067a91600401611e90565b600082600001828154811061126a5761126a611bca565b9060005260206000200154905092915050565b60008181526001830160205260408120546112c457508154600181810184556000848152602080822090930184905584548482528286019093526040902091909155610464565b506000610464565b60606104646001600160a01b03831660145b606060006112ed836002611ea3565b6112f8906002611eba565b67ffffffffffffffff811115611310576113106114bd565b6040519080825280601f01601f19166020018201604052801561133a576020820181803683370190505b509050600360fc1b8160008151811061135557611355611bca565b60200101906001600160f81b031916908160001a905350600f60fb1b8160018151811061138457611384611bca565b60200101906001600160f81b031916908160001a90535060006113a8846002611ea3565b6113b3906001611eba565b90505b600181111561142b576f181899199a1a9b1b9c1cb0b131b232b360811b85600f16601081106113e7576113e7611bca565b1a60f81b8282815181106113fd576113fd611bca565b60200101906001600160f81b031916908160001a90535060049490941c9361142481611ecd565b90506113b6565b5083156110e05760405162461bcd60e51b815260206004820181905260248201527f537472696e67733a20686578206c656e67746820696e73756666696369656e74604482015260640161067a565b60006020828403121561148c57600080fd5b81356001600160e01b0319811681146110e057600080fd5b6000602082840312156114b657600080fd5b5035919050565b634e487b7160e01b600052604160045260246000fd5b6040516060810167ffffffffffffffff811182821017156114f6576114f66114bd565b60405290565b604051601f8201601f1916810167ffffffffffffffff81118282101715611525576115256114bd565b604052919050565b600082601f83011261153e57600080fd5b813567ffffffffffffffff811115611558576115586114bd565b61156b601f8201601f19166020016114fc565b81815284602083860101111561158057600080fd5b816020850160208301376000918101602001919091529392505050565b6001600160a01b0381168114610fb357600080fd5b803561104b8161159d565b8035801515811461104b57600080fd5b60008060008060008060008060006101208a8c0312156115ec57600080fd5b893567ffffffffffffffff8082111561160457600080fd5b6116108d838e0161152d565b9a5061161e60208d016115b2565b995060408c013591508082111561163457600080fd5b6116408d838e0161152d565b985060608c013591508082111561165657600080fd5b506116638c828d0161152d565b96505060808a0135945060a08a0135935061168060c08b016115bd565b925060e08a013591506101008a013590509295985092959850929598565b600080604083850312156116b157600080fd5b8235915060208301356116c38161159d565b809150509250929050565b6020808252825182820181905260009190848201906040850190845b8181101561170f5783516001600160a01b0316835292840192918401916001016116ea565b50909695505050505050565b60006020828403121561172d57600080fd5b81356110e08161159d565b803560ff8116811461104b57600080fd5b600082601f83011261175a57600080fd5b8135602067ffffffffffffffff821115611776576117766114bd565b611784818360051b016114fc565b828152606092830285018201928282019190878511156117a357600080fd5b8387015b858110156117f15781818a0312156117bf5760008081fd5b6117c76114d3565b6117d082611738565b815281860135868201526040808301359082015284529284019281016117a7565b5090979650505050505050565b600080600080600080600060e0888a03121561181957600080fd5b61182288611738565b9650611830602089016115b2565b9550604088013567ffffffffffffffff8082111561184d57600080fd5b6118598b838c0161152d565b965061186760608b016115b2565b955060808a013591508082111561187d57600080fd5b6118898b838c0161152d565b945060a08a013591508082111561189f57600080fd5b6118ab8b838c0161152d565b935060c08a01359150808211156118c157600080fd5b506118ce8a828b01611749565b91505092959891949750929550565b6000806000606084860312156118f257600080fd5b83356118fd8161159d565b9250602084013561190d8161159d565b9150604084013561191d8161159d565b809150509250925092565b60006020828403121561193a57600080fd5b6110e082611738565b60008060008060008060c0878903121561195c57600080fd5b86356119678161159d565b955061197560208801611738565b94506040870135935060608701359250608087013567ffffffffffffffff81111561199f57600080fd5b6119ab89828a0161152d565b92505060a08701356119bc8161159d565b809150509295509295509295565b600080604083850312156119dd57600080fd5b82356119e88161159d565b9150602083013567ffffffffffffffff811115611a0457600080fd5b611a108582860161152d565b9150509250929050565b60005b83811015611a35578181015183820152602001611a1d565b50506000910152565b60008151808452611a56816020860160208601611a1a565b601f01601f19169290920160200192915050565b6000610120808352611a7e8184018d611a3e565b6001600160a01b038c16602085015283810360408501529050611aa1818b611a3e565b90508281036060840152611ab5818a611a3e565b6080840198909852505060a081019490945291151560c084015260e083015261010090910152949350505050565b6001600160a01b038b8116825261014060208301819052600091611b098483018e611a3e565b908c16604085015283810360608501529050611b25818b611a3e565b90508281036080840152611b39818a611a3e565b60a0840198909852505060c081019490945291151560e08401526101008301526101209091015295945050505050565b600060018060a01b03808a1683528089166020840152808816604084015260e06060840152611b9b60e0840188611a3e565b8381036080850152611bad8188611a3e565b95821660a0850152509290921660c0909101525095945050505050565b634e487b7160e01b600052603260045260246000fd5b634e487b7160e01b600052601160045260246000fd5b600060018201611c0857611c08611be0565b5060010190565b600081518084526020808501945080840160005b83811015611c58578151805160ff16885283810151848901526040908101519088015260609096019590820190600101611c23565b509495945050505050565b6001600160a01b038b8116825261014060208301819052600091611c898483018e611a3e565b9150808c1660408501528a15156060850152808a16608085015283820360a0850152611cb5828a611a3e565b915083820360c0850152611cc98289611a3e565b90871660e08501528381036101008501529050611ce68186611c0f565b915050826101208301529b9a5050505050505050505050565b60ff891681526001600160a01b038881166020830152878116604083015261010060608301819052600091611d368483018a611c0f565b9150808816608085015283820360a0850152611d528288611a3e565b915083820360c0850152611d668287611a3e565b925080851660e085015250509998505050505050505050565b600060208284031215611d9157600080fd5b81516110e08161159d565b6001600160a01b0383168152604060208201819052600090611dc090830184611a3e565b949350505050565b600060018060a01b03808a16835260ff8916602084015287604084015286606084015260e06080840152611dff60e0840187611a3e565b94811660a08401529290921660c0909101525095945050505050565b7f416363657373436f6e74726f6c3a206163636f756e7420000000000000000000815260008351611e53816017850160208801611a1a565b7001034b99036b4b9b9b4b733903937b6329607d1b6017918401918201528351611e84816028840160208801611a1a565b01602801949350505050565b6020815260006110e06020830184611a3e565b808202811582820484141761046457610464611be0565b8082018082111561046457610464611be0565b600081611edc57611edc611be0565b50600019019056fea49807205ce4d355092ef5a8a18f56e8913cf4a201fbe287825b095693c21775a2646970667358221220761f9bbf22c8a54400decd3a5b825b200269e0577c53027d82aa0572011e25a964736f6c6343000813003360a06040523060805234801561001457600080fd5b50608051614a7661004c60003960008181610f4301528181610f83015281816112d10152818161131101526113a00152614a766000f3fe6080604052600436106103a25760003560e01c806376214140116101e7578063ad9e963f1161010d578063db8cc8fa116100a0578063ea4afb5c1161006f578063ea4afb5c14610b16578063ef463b6414610b37578063f2fde38b14610b57578063ffa0a02a14610b7757600080fd5b8063db8cc8fa14610a76578063dd8a353014610a96578063e2f0394714610aad578063e985e9c514610acd57600080fd5b8063c1292cc3116100dc578063c1292cc314610a01578063c4ca3a9c14610a16578063c87b56dd14610a36578063d547741f14610a5657600080fd5b8063ad9e963f1461095b578063b80f55c9146109a0578063b88d4fde146109c0578063bffadc2f146109e057600080fd5b80639292caaf11610185578063a217fddf11610154578063a217fddf146108f1578063a22cb46514610906578063a76e0db214610926578063a9c2e36c1461094657600080fd5b80639292caaf1461088557806392c0f3d71461089c57806395d89b41146108bc5780639a94efd8146108d157600080fd5b80638badfa93116101c15780638badfa931461080f5780638da5cb5b146108265780638f0b7b681461084557806391d148541461086557600080fd5b806376214140146107bf578063763c87bf146107df57806388c7e397146107f457600080fd5b806349d19648116102cc57806358797cb61161026a57806367f6860b1161023957806367f6860b1461074a57806370a082311461076a578063715018a61461078a57806372f123441461079f57600080fd5b806358797cb6146106c55780635fd1bbc4146106e65780636352211e146106fd57806366458d4a1461071d57600080fd5b80634f1ef286116102a65780634f1ef2861461064f57806352d1902d14610662578063538baeab14610677578063558008ab1461069757600080fd5b806349d19648146105ef5780634c40a07b1461060f5780634e4524751461062f57600080fd5b80632a55205a116103445780633659cfe6116103135780633659cfe6146105835780633a1055ae146105a35780633ccfd60b146105ba57806342842e0e146105cf57600080fd5b80632a55205a146104e45780632ee4aa31146105235780632f2ff15d1461054357806336568abe1461056357600080fd5b8063095ea7b311610380578063095ea7b31461043657806323b872dd14610458578063248a9ca314610478578063252b2d09146104b657600080fd5b806301ffc9a7146103a757806306fdde03146103dc578063081812fc146103fe575b600080fd5b3480156103b357600080fd5b506103c76103c23660046139e8565b610b97565b60405190151581526020015b60405180910390f35b3480156103e857600080fd5b506103f1610ba8565b6040516103d39190613a55565b34801561040a57600080fd5b5061041e610419366004613a68565b610c3a565b6040516001600160a01b0390911681526020016103d3565b34801561044257600080fd5b50610456610451366004613a96565b610c61565b005b34801561046457600080fd5b50610456610473366004613ac2565b610d7b565b34801561048457600080fd5b506104a8610493366004613a68565b600090815260c9602052604090206001015490565b6040519081526020016103d3565b3480156104c257600080fd5b506104a86104d1366004613b12565b6101cb6020526000908152604090205481565b3480156104f057600080fd5b506105046104ff366004613b2f565b610dac565b604080516001600160a01b0390931683526020830191909152016103d3565b34801561052f57600080fd5b5061045661053e366004613b51565b610e5a565b34801561054f57600080fd5b5061045661055e366004613b6e565b610e96565b34801561056f57600080fd5b5061045661057e366004613b6e565b610ebb565b34801561058f57600080fd5b5061045661059e366004613b51565b610f39565b3480156105af57600080fd5b506104a86101c85481565b3480156105c657600080fd5b50610456611018565b3480156105db57600080fd5b506104566105ea366004613ac2565b611109565b3480156105fb57600080fd5b5061045661060a366004613b51565b611124565b34801561061b57600080fd5b5061045661062a366004613bac565b611160565b34801561063b57600080fd5b5061045661064a366004613c9d565b61118d565b61045661065d366004613dd6565b6112c7565b34801561066e57600080fd5b506104a8611393565b34801561068357600080fd5b50610456610692366004613e1b565b611446565b3480156106a357600080fd5b506104a86106b2366004613b51565b6101d26020526000908152604090205481565b3480156106d157600080fd5b506101c95461041e906001600160a01b031681565b3480156106f257600080fd5b506104a86101c75481565b34801561070957600080fd5b5061041e610718366004613a68565b611637565b34801561072957600080fd5b5061073d610738366004613b51565b611697565b6040516103d39190613edd565b34801561075657600080fd5b50610456610765366004613f21565b611704565b34801561077657600080fd5b506104a8610785366004613b51565b611719565b34801561079657600080fd5b5061045661179f565b3480156107ab57600080fd5b506104566107ba366004613a68565b6117b3565b3480156107cb57600080fd5b506104566107da366004613a68565b6117d2565b3480156107eb57600080fd5b506103f16117f1565b34801561080057600080fd5b506101cf546103c79060ff1681565b34801561081b57600080fd5b506104a86101d15481565b34801561083257600080fd5b50610191546001600160a01b031661041e565b34801561085157600080fd5b50610456610860366004613fb0565b611880565b34801561087157600080fd5b506103c7610880366004613b6e565b611912565b34801561089157600080fd5b506104a86101c65481565b3480156108a857600080fd5b506104566108b7366004614028565b61193d565b3480156108c857600080fd5b506103f1611c4b565b3480156108dd57600080fd5b506104566108ec36600461409a565b611c5a565b3480156108fd57600080fd5b506104a8600081565b34801561091257600080fd5b506104566109213660046140dc565b611e8e565b34801561093257600080fd5b506103f1610941366004613b12565b611e99565b34801561095257600080fd5b5061041e611eb3565b34801561096757600080fd5b5061097b610976366004613b12565b611edf565b60408051825160ff1681526020808401519082015291810151908201526060016103d3565b3480156109ac57600080fd5b506104566109bb36600461410a565b611fa2565b3480156109cc57600080fd5b506104566109db36600461413e565b61200a565b3480156109ec57600080fd5b506101c35461041e906001600160a01b031681565b348015610a0d57600080fd5b506104a861203c565b348015610a2257600080fd5b50610456610a313660046141a9565b61204d565b348015610a4257600080fd5b506103f1610a51366004613a68565b6120ee565b348015610a6257600080fd5b50610456610a71366004613b6e565b61216d565b348015610a8257600080fd5b50610456610a91366004613a68565b612192565b348015610aa257600080fd5b506104a86101d05481565b348015610ab957600080fd5b50610456610ac8366004613a68565b6121b1565b348015610ad957600080fd5b506103c7610ae8366004614219565b6001600160a01b039182166000908152609c6020908152604080832093909416825291909152205460ff1690565b348015610b2257600080fd5b506101c55461041e906001600160a01b031681565b348015610b4357600080fd5b506104a8610b52366004613a96565b6121d0565b348015610b6357600080fd5b50610456610b72366004613b51565b612202565b348015610b8357600080fd5b50610456610b9236600461409a565b612278565b6000610ba282612779565b92915050565b606060978054610bb790614247565b80601f0160208091040260200160405190810160405280929190818152602001828054610be390614247565b8015610c305780601f10610c0557610100808354040283529160200191610c30565b820191906000526020600020905b815481529060010190602001808311610c1357829003601f168201915b5050505050905090565b6000610c4582612784565b506000908152609b60205260409020546001600160a01b031690565b6000610c6c82611637565b9050806001600160a01b0316836001600160a01b031603610cde5760405162461bcd60e51b815260206004820152602160248201527f4552433732313a20617070726f76616c20746f2063757272656e74206f776e656044820152603960f91b60648201526084015b60405180910390fd5b336001600160a01b0382161480610cfa5750610cfa8133610ae8565b610d6c5760405162461bcd60e51b815260206004820152603d60248201527f4552433732313a20617070726f76652063616c6c6572206973206e6f7420746f60448201527f6b656e206f776e6572206f7220617070726f76656420666f7220616c6c0000006064820152608401610cd5565b610d7683836127e3565b505050565b610d853382612851565b610da15760405162461bcd60e51b8152600401610cd59061427b565b610d768383836128d0565b60008281526066602090815260408083208151808301909252546001600160a01b038116808352600160a01b9091046001600160601b0316928201929092528291610e215750604080518082019091526065546001600160a01b0381168252600160a01b90046001600160601b031660208201525b602081015160009061271090610e40906001600160601b0316876142de565b610e4a91906142f5565b91519350909150505b9250929050565b600080516020614a01833981519152610e7281612a41565b506101c580546001600160a01b0319166001600160a01b0392909216919091179055565b600082815260c96020526040902060010154610eb181612a41565b610d768383612a4b565b6001600160a01b0381163314610f2b5760405162461bcd60e51b815260206004820152602f60248201527f416363657373436f6e74726f6c3a2063616e206f6e6c792072656e6f756e636560448201526e103937b632b9903337b91039b2b63360891b6064820152608401610cd5565b610f358282612ad1565b5050565b6001600160a01b037f0000000000000000000000000000000000000000000000000000000000000000163003610f815760405162461bcd60e51b8152600401610cd590614317565b7f00000000000000000000000000000000000000000000000000000000000000006001600160a01b0316610fca6000805160206149ba833981519152546001600160a01b031690565b6001600160a01b031614610ff05760405162461bcd60e51b8152600401610cd590614363565b610ff981612b38565b6040805160008082526020820190925261101591839190612b50565b50565b600061102381612a41565b6101c9546040516370a0823160e01b81523060048201526001600160a01b039091169063a9059cbb90339083906370a0823190602401602060405180830381865afa158015611076573d6000803e3d6000fd5b505050506040513d601f19601f8201168201806040525081019061109a91906143af565b6040516001600160e01b031960e085901b1681526001600160a01b03909216600483015260248201526044016020604051808303816000875af11580156110e5573d6000803e3d6000fd5b505050506040513d601f19601f82011682018060405250810190610f3591906143c8565b610d768383836040518060200160405280600081525061200a565b600080516020614a0183398151915261113c81612a41565b506101c980546001600160a01b0319166001600160a01b0392909216919091179055565b600080516020614a0183398151915261117881612a41565b506101cf805460ff1916911515919091179055565b600080516020614a218339815191526111a581612a41565b81518351146112145760405162461bcd60e51b815260206004820152603560248201527f57686974656c69737420616e642062757961626c6520616d6f756e74206c69736044820152740e840daeae6e840c4ca40e6c2daca40d8cadccee8d605b1b6064820152608401610cd5565b60005b83518110156112c157828181518110611232576112326143e5565b60200260200101516101d26000868481518110611251576112516143e5565b60200260200101516001600160a01b03166001600160a01b031681526020019081526020016000208190555082818151811061128f5761128f6143e5565b60200260200101516101d060008282546112a991906143fb565b909155508190506112b98161440e565b915050611217565b50505050565b6001600160a01b037f000000000000000000000000000000000000000000000000000000000000000016300361130f5760405162461bcd60e51b8152600401610cd590614317565b7f00000000000000000000000000000000000000000000000000000000000000006001600160a01b03166113586000805160206149ba833981519152546001600160a01b031690565b6001600160a01b03161461137e5760405162461bcd60e51b8152600401610cd590614363565b61138782612b38565b610f3582826001612b50565b6000306001600160a01b037f000000000000000000000000000000000000000000000000000000000000000016146114335760405162461bcd60e51b815260206004820152603860248201527f555550535570677261646561626c653a206d757374206e6f742062652063616c60448201527f6c6564207468726f7567682064656c656761746563616c6c00000000000000006064820152608401610cd5565b506000805160206149ba83398151915290565b600054610100900460ff16158080156114665750600054600160ff909116105b806114805750303b158015611480575060005460ff166001145b6114e35760405162461bcd60e51b815260206004820152602e60248201527f496e697469616c697a61626c653a20636f6e747261637420697320616c72656160448201526d191e481a5b9a5d1a585b1a5e995960921b6064820152608401610cd5565b6000805460ff191660011790558015611506576000805461ff0019166101001790555b6115108486612cbb565b611518612cec565b611520612cec565b61152983612d13565b6101c380546001600160a01b03808b166001600160a01b0319928316179092556101c580548a84169083161790556101c980548984169083161790556101cf805460ff191690556101d480549285169290911691909117905561159a600080516020614a2183398151915284612d66565b6115a5600084612d66565b6115bd600080516020614a0183398151915284612d66565b6115e77f3c11d16cbaffd01df69ce1c404f6340ee057498f5f00246190ea54220576a84884612d66565b801561162d576000805461ff0019169055604051600181527f7f26b83ff96e1f2b6a682f133852f6798a09c465da95921460cefb38474024989060200160405180910390a15b5050505050505050565b6000818152609960205260408120546001600160a01b031680610ba25760405162461bcd60e51b8152602060048201526018602482015277115490cdcc8c4e881a5b9d985b1a59081d1bdad95b88125160421b6044820152606401610cd5565b6001600160a01b03811660009081526101cc602090815260408083208054825181850281018501909352808352606094938301828280156116f757602002820191906000526020600020905b8154815260200190600101908083116116e3575b5093979650505050505050565b600061170f81612a41565b610d768383612d70565b60006001600160a01b0382166117835760405162461bcd60e51b815260206004820152602960248201527f4552433732313a2061646472657373207a65726f206973206e6f7420612076616044820152683634b21037bbb732b960b91b6064820152608401610cd5565b506001600160a01b03166000908152609a602052604090205490565b6117a7612e6d565b6117b16000612d13565b565b600080516020614a018339815191526117cb81612a41565b506101cd55565b600080516020614a018339815191526117ea81612a41565b506101c855565b6101c480546117ff90614247565b80601f016020809104026020016040519081016040528092919081815260200182805461182b90614247565b80156118785780601f1061184d57610100808354040283529160200191611878565b820191906000526020600020905b81548152906001019060200180831161185b57829003601f168201915b505050505081565b600080516020614a2183398151915261189881612a41565b604051631ce8f7e360e11b815273__InterfaceFunction_____________________906339d1efc6906118d9908a908a908a908a908a908a90600401614472565b60006040518083038186803b1580156118f157600080fd5b505af4158015611905573d6000803e3d6000fd5b5050505050505050505050565b600091825260c9602090815260408084206001600160a01b0393909316845291905290205460ff1690565b611945612ec8565b6001600160a01b0316336001600160a01b0316146119a55760405162461bcd60e51b815260206004820152601f60248201527f4e6f742062652063616c6c65642066726f6d20446161702043726561746f72006044820152606401610cd5565b60006119af612f37565b6040516386c2b83d60e01b815230600482015260ff871660248201526001600160a01b0391909116906386c2b83d90604401606060405180830381865afa1580156119fe573d6000803e3d6000fd5b505050506040513d601f19601f82011682018060405250810190611a2291906144ba565b90506000816020015111611a485760405162461bcd60e51b8152600401610cd59061451b565b60ff851660009081526101cb602052604081205490611a6788836143fb565b90508083602001511015611a8d5760405162461bcd60e51b8152600401610cd590614552565b60ff871660009081526101cb60205260408120829055886001600160401b03811115611abb57611abb613bc9565b604051908082528060200260200182016040528015611b0057816020015b6040805180820190915260008082526020820152815260200190600190039081611ad95790505b50905060005b89811015611c02576000611b1a6101ca5490565b9050611b2b6101ca80546001019055565b611b358982612f82565b6001600160a01b03891660008181526101cc602090815260408083208054600181018255908452828420018590558483526101ce825291829020805460ff191660ff8f169081179091558251938452908301849052908201527fd5054ba42059be88c66c1a10236e5a0cea44d10897996e6040b6f41c57be13429060600160405180910390a160405180604001604052808281526020018b60ff16815250838381518110611be557611be56143e5565b60200260200101819052505080611bfb9061440e565b9050611b06565b507ff7dd652110ab47a8985ee42eb817b24e6084a902c749934178ddf4795d91e21386868984604051611c38949392919061457d565b60405180910390a1505050505050505050565b606060988054610bb790614247565b600080516020614a01833981519152611c7281612a41565b60008411611cb55760405162461bcd60e51b815260206004820152601060248201526f139bc81d1bdad95b881d1bc81b5a5b9d60821b6044820152606401610cd5565b6000611cbf612f37565b6040516386c2b83d60e01b815230600482015260ff861660248201526001600160a01b0391909116906386c2b83d90604401606060405180830381865afa158015611d0e573d6000803e3d6000fd5b505050506040513d601f19601f82011682018060405250810190611d3291906144ba565b90506000816020015111611d585760405162461bcd60e51b8152600401610cd59061451b565b60ff841660009081526101cb602052604081205490611d7787836143fb565b90508083602001511015611d9d5760405162461bcd60e51b8152600401610cd590614552565b60ff861660009081526101cb602052604090208190556001600160a01b038516611dc5573394505b60005b8781101561162d576000611ddc6101ca5490565b9050611ded6101ca80546001019055565b611df78782612f82565b6001600160a01b03871660008181526101cc602090815260408083208054600181018255908452828420018590558483526101ce825291829020805460ff191660ff8d169081179091558251938452908301849052908201527fd5054ba42059be88c66c1a10236e5a0cea44d10897996e6040b6f41c57be13429060600160405180910390a150611e878161440e565b9050611dc8565b610f35338383612f9c565b6101d360205260009081526040902080546117ff90614247565b6000600080516020614a21833981519152611ecd81612a41565b50506101d4546001600160a01b031690565b611f066040518060600160405280600060ff16815260200160008152602001600081525090565b600080516020614a21833981519152611f1e81612a41565b611f26612f37565b6040516386c2b83d60e01b815230600482015260ff851660248201526001600160a01b0391909116906386c2b83d90604401606060405180830381865afa158015611f75573d6000803e3d6000fd5b505050506040513d601f19601f82011682018060405250810190611f9991906144ba565b91505b50919050565b7f3c11d16cbaffd01df69ce1c404f6340ee057498f5f00246190ea54220576a848611fcc81612a41565b60005b8251811015610d7657611ffa838281518110611fed57611fed6143e5565b602002602001015161306a565b6120038161440e565b9050611fcf565b6120143383612851565b6120305760405162461bcd60e51b8152600401610cd59061427b565b6112c184848484613084565b60006120486101ca5490565b905090565b600080516020614a2183398151915261206581612a41565b604051637a17125960e01b815273__InterfaceFunction_____________________90637a171259906120a490899089908990899089906004016145f4565b602060405180830381865af41580156120c1573d6000803e3d6000fd5b505050506040513d601f19601f820116820180604052508101906120e591906143af565b50505050505050565b60606120f8612f37565b60405163a0da06b560e01b8152306004820152602481018490526001600160a01b03919091169063a0da06b590604401600060405180830381865afa158015612145573d6000803e3d6000fd5b505050506040513d6000823e601f3d908101601f19168201604052610ba29190810190614635565b600082815260c9602052604090206001015461218881612a41565b610d768383612ad1565b600080516020614a018339815191526121aa81612a41565b506101c755565b600080516020614a018339815191526121c981612a41565b506101c655565b6101cc60205281600052604060002081815481106121ed57600080fd5b90600052602060002001600091509150505481565b61220a612e6d565b6001600160a01b03811661226f5760405162461bcd60e51b815260206004820152602660248201527f4f776e61626c653a206e6577206f776e657220697320746865207a65726f206160448201526564647265737360d01b6064820152608401610cd5565b61101581612d13565b6001600160a01b03811660009081526101d2602052604090205433908411156122f25760405162461bcd60e51b815260206004820152602660248201527f55736572206e6f7420696e2077686974656c697374206f72206c696d69742072604482015265195858da195960d21b6064820152608401610cd5565b6101c7544210156123455760405162461bcd60e51b815260206004820181905260248201527f49742773206e6f742074696d6520746f20627579207075626c69632073616c656044820152606401610cd5565b6101c85442111561238f5760405162461bcd60e51b815260206004820152601460248201527349742773206e6f742074696d6520746f2062757960601b6044820152606401610cd5565b6101cd54156123f7576101cd546001600160a01b03831660009081526101cc6020526040902054106123f75760405162461bcd60e51b8152602060048201526011602482015270109d5e481b1a5b5a5d081c995858da1959607a1b6044820152606401610cd5565b6000612401612f37565b6040516386c2b83d60e01b815230600482015260ff861660248201526001600160a01b0391909116906386c2b83d90604401606060405180830381865afa158015612450573d6000803e3d6000fd5b505050506040513d601f19601f8201168201806040525081019061247491906144ba565b9050600081602001511161249a5760405162461bcd60e51b8152600401610cd59061451b565b60ff841660009081526101cb6020526040812054906124b987836143fb565b905080836020015110156124df5760405162461bcd60e51b8152600401610cd590614552565b60008784604001516124f191906142de565b6101c9546040516370a0823160e01b81526001600160a01b0388811660048301529293509116906370a0823190602401602060405180830381865afa15801561253e573d6000803e3d6000fd5b505050506040513d601f19601f8201168201806040525081019061256291906143af565b8111156125c55760405162461bcd60e51b815260206004820152602b60248201527f55736572206e65656420686f6c6420656e6f75676820546f6b656e20746f206260448201526a1d5e481d1a1a5cc81b999d60aa1b6064820152608401610cd5565b6101c9546101c5546040516323b872dd60e01b81526001600160a01b0388811660048301529182166024820152604481018490529116906323b872dd906064016020604051808303816000875af1158015612624573d6000803e3d6000fd5b505050506040513d601f19601f8201168201806040525081019061264891906143c8565b506001600160a01b03861660009081526101d26020526040812080548a92906126729084906146a2565b92505081905550876101d1600082825461268c91906143fb565b909155505060ff871660009081526101cb602052604081208390555b8881101561276e5760006126bc6101ca5490565b90506126cd6101ca80546001019055565b6126d78882612f82565b6001600160a01b03881660008181526101cc602090815260408083208054600181018255908452828420018590558483526101ce825291829020805460ff191660ff8e169081179091558251938452908301849052908201527fd5054ba42059be88c66c1a10236e5a0cea44d10897996e6040b6f41c57be13429060600160405180910390a1506127678161440e565b90506126a8565b505050505050505050565b6000610ba2826130b7565b6000818152609960205260409020546001600160a01b03166110155760405162461bcd60e51b8152602060048201526018602482015277115490cdcc8c4e881a5b9d985b1a59081d1bdad95b88125160421b6044820152606401610cd5565b6000818152609b6020526040902080546001600160a01b0319166001600160a01b038416908117909155819061281882611637565b6001600160a01b03167f8c5be1e5ebec7d5bd14f71427d1e84f3dd0314c0f7b2291e5b200ac8c7c3b92560405160405180910390a45050565b60008061285d83611637565b9050806001600160a01b0316846001600160a01b031614806128a457506001600160a01b038082166000908152609c602090815260408083209388168352929052205460ff165b806128c85750836001600160a01b03166128bd84610c3a565b6001600160a01b0316145b949350505050565b826001600160a01b03166128e382611637565b6001600160a01b0316146129095760405162461bcd60e51b8152600401610cd5906146b5565b6001600160a01b03821661296b5760405162461bcd60e51b8152602060048201526024808201527f4552433732313a207472616e7366657220746f20746865207a65726f206164646044820152637265737360e01b6064820152608401610cd5565b61297883838360016130dc565b826001600160a01b031661298b82611637565b6001600160a01b0316146129b15760405162461bcd60e51b8152600401610cd5906146b5565b6000818152609b6020908152604080832080546001600160a01b03199081169091556001600160a01b03878116808652609a8552838620805460001901905590871680865283862080546001019055868652609990945282852080549092168417909155905184937fddf252ad1be2c89b69c2b068fc378daa952ba7f163c4a11628f55a4df523b3ef91a4505050565b6110158133613164565b612a558282611912565b610f3557600082815260c9602090815260408083206001600160a01b03851684529091529020805460ff19166001179055612a8d3390565b6001600160a01b0316816001600160a01b0316837f2f8788117e7eff1d82e926ec794901d17c78024a50270940304540a733656f0d60405160405180910390a45050565b612adb8282611912565b15610f3557600082815260c9602090815260408083206001600160a01b0385168085529252808320805460ff1916905551339285917ff6391f5c32d9c69d2a47ea670b442974b53935d1edc7fd64eb21e047a839171b9190a45050565b600080516020614a21833981519152610f3581612a41565b7f4910fdfa16fed3260ed0e7147f7cc6da11a60208b5b9406d12a635614ffd91435460ff1615612b8357610d76836131bd565b826001600160a01b03166352d1902d6040518163ffffffff1660e01b8152600401602060405180830381865afa925050508015612bdd575060408051601f3d908101601f19168201909252612bda918101906143af565b60015b612c405760405162461bcd60e51b815260206004820152602e60248201527f45524331393637557067726164653a206e657720696d706c656d656e7461746960448201526d6f6e206973206e6f74205555505360901b6064820152608401610cd5565b6000805160206149ba8339815191528114612caf5760405162461bcd60e51b815260206004820152602960248201527f45524331393637557067726164653a20756e737570706f727465642070726f786044820152681a58589b195555525160ba1b6064820152608401610cd5565b50610d76838383613259565b600054610100900460ff16612ce25760405162461bcd60e51b8152600401610cd5906146fa565b610f35828261327e565b600054610100900460ff166117b15760405162461bcd60e51b8152600401610cd5906146fa565b61019180546001600160a01b038381166001600160a01b0319831681179093556040519116919082907f8be0079c531659141344cd1fd0a4f28419497f9722a3daafe3b4186f6b6457e090600090a35050565b610f358282612a4b565b6127106001600160601b0382161115612dde5760405162461bcd60e51b815260206004820152602a60248201527f455243323938313a20726f79616c7479206665652077696c6c206578636565646044820152692073616c65507269636560b01b6064820152608401610cd5565b6001600160a01b038216612e345760405162461bcd60e51b815260206004820152601960248201527f455243323938313a20696e76616c6964207265636569766572000000000000006044820152606401610cd5565b604080518082019091526001600160a01b039092168083526001600160601b039091166020909201829052600160a01b90910217606555565b610191546001600160a01b031633146117b15760405162461bcd60e51b815260206004820181905260248201527f4f776e61626c653a2063616c6c6572206973206e6f7420746865206f776e65726044820152606401610cd5565b6101d454604080516371efede960e01b815290516000926001600160a01b0316916371efede99160048083019260209291908290030181865afa158015612f13573d6000803e3d6000fd5b505050506040513d601f19601f820116820180604052508101906120489190614745565b6101d45460408051634f74c25d60e11b815290516000926001600160a01b031691639ee984ba9160048083019260209291908290030181865afa158015612f13573d6000803e3d6000fd5b610f358282604051806020016040528060008152506132be565b816001600160a01b0316836001600160a01b031603612ffd5760405162461bcd60e51b815260206004820152601960248201527f4552433732313a20617070726f766520746f2063616c6c6572000000000000006044820152606401610cd5565b6001600160a01b038381166000818152609c6020908152604080832094871680845294825291829020805460ff191686151590811790915591519182527f17307eab39ab6107e8899845ad3d59bd9653f200f220920489ca2b5937696c31910160405180910390a3505050565b613073816132f1565b600090815260666020526040812055565b61308f8484846128d0565b61309b848484846132fa565b6112c15760405162461bcd60e51b8152600401610cd590614762565b60006001600160e01b03198216637965db0b60e01b1480610ba25750610ba2826133fb565b60018111156112c1576001600160a01b03841615613122576001600160a01b0384166000908152609a60205260408120805483929061311c9084906146a2565b90915550505b6001600160a01b038316156112c1576001600160a01b0383166000908152609a6020526040812080548392906131599084906143fb565b909155505050505050565b61316e8282611912565b610f355761317b8161343b565b61318683602061344d565b6040516020016131979291906147b4565b60408051601f198184030181529082905262461bcd60e51b8252610cd591600401613a55565b6001600160a01b0381163b61322a5760405162461bcd60e51b815260206004820152602d60248201527f455243313936373a206e657720696d706c656d656e746174696f6e206973206e60448201526c1bdd08184818dbdb9d1c9858dd609a1b6064820152608401610cd5565b6000805160206149ba83398151915280546001600160a01b0319166001600160a01b0392909216919091179055565b613262836135ef565b60008251118061326f5750805b15610d76576112c1838361362f565b600054610100900460ff166132a55760405162461bcd60e51b8152600401610cd5906146fa565b60976132b18382614877565b506098610d768282614877565b6132c88383613723565b6132d560008484846132fa565b610d765760405162461bcd60e51b8152600401610cd590614762565b613073816138bc565b60006001600160a01b0384163b156133f057604051630a85bd0160e11b81526001600160a01b0385169063150b7a029061333e903390899088908890600401614936565b6020604051808303816000875af1925050508015613379575060408051601f3d908101601f1916820190925261337691810190614969565b60015b6133d6573d8080156133a7576040519150601f19603f3d011682016040523d82523d6000602084013e6133ac565b606091505b5080516000036133ce5760405162461bcd60e51b8152600401610cd590614762565b805181602001fd5b6001600160e01b031916630a85bd0160e11b1490506128c8565b506001949350505050565b60006001600160e01b031982166380ac58cd60e01b148061342c57506001600160e01b03198216635b5e139f60e01b145b80610ba25750610ba28261395f565b6060610ba26001600160a01b03831660145b6060600061345c8360026142de565b6134679060026143fb565b6001600160401b0381111561347e5761347e613bc9565b6040519080825280601f01601f1916602001820160405280156134a8576020820181803683370190505b509050600360fc1b816000815181106134c3576134c36143e5565b60200101906001600160f81b031916908160001a905350600f60fb1b816001815181106134f2576134f26143e5565b60200101906001600160f81b031916908160001a90535060006135168460026142de565b6135219060016143fb565b90505b6001811115613599576f181899199a1a9b1b9c1cb0b131b232b360811b85600f1660108110613555576135556143e5565b1a60f81b82828151811061356b5761356b6143e5565b60200101906001600160f81b031916908160001a90535060049490941c9361359281614986565b9050613524565b5083156135e85760405162461bcd60e51b815260206004820181905260248201527f537472696e67733a20686578206c656e67746820696e73756666696369656e746044820152606401610cd5565b9392505050565b6135f8816131bd565b6040516001600160a01b038216907fbc7cd75a20ee27fd9adebab32041f755214dbc6bffa90cc0225b39da2e5c2d3b90600090a250565b60606001600160a01b0383163b6136975760405162461bcd60e51b815260206004820152602660248201527f416464726573733a2064656c65676174652063616c6c20746f206e6f6e2d636f6044820152651b9d1c9858dd60d21b6064820152608401610cd5565b600080846001600160a01b0316846040516136b2919061499d565b600060405180830381855af49150503d80600081146136ed576040519150601f19603f3d011682016040523d82523d6000602084013e6136f2565b606091505b509150915061371a82826040518060600160405280602781526020016149da60279139613994565b95945050505050565b6001600160a01b0382166137795760405162461bcd60e51b815260206004820181905260248201527f4552433732313a206d696e7420746f20746865207a65726f20616464726573736044820152606401610cd5565b6000818152609960205260409020546001600160a01b0316156137de5760405162461bcd60e51b815260206004820152601c60248201527f4552433732313a20746f6b656e20616c7265616479206d696e746564000000006044820152606401610cd5565b6137ec6000838360016130dc565b6000818152609960205260409020546001600160a01b0316156138515760405162461bcd60e51b815260206004820152601c60248201527f4552433732313a20746f6b656e20616c7265616479206d696e746564000000006044820152606401610cd5565b6001600160a01b0382166000818152609a6020908152604080832080546001019055848352609990915280822080546001600160a01b0319168417905551839291907fddf252ad1be2c89b69c2b068fc378daa952ba7f163c4a11628f55a4df523b3ef908290a45050565b60006138c782611637565b90506138d78160008460016130dc565b6138e082611637565b6000838152609b6020908152604080832080546001600160a01b03199081169091556001600160a01b038516808552609a845282852080546000190190558785526099909352818420805490911690555192935084927fddf252ad1be2c89b69c2b068fc378daa952ba7f163c4a11628f55a4df523b3ef908390a45050565b60006001600160e01b0319821663152a902d60e11b1480610ba257506301ffc9a760e01b6001600160e01b0319831614610ba2565b606083156139a35750816135e8565b6135e883838151156139b85781518083602001fd5b8060405162461bcd60e51b8152600401610cd59190613a55565b6001600160e01b03198116811461101557600080fd5b6000602082840312156139fa57600080fd5b81356135e8816139d2565b60005b83811015613a20578181015183820152602001613a08565b50506000910152565b60008151808452613a41816020860160208601613a05565b601f01601f19169290920160200192915050565b6020815260006135e86020830184613a29565b600060208284031215613a7a57600080fd5b5035919050565b6001600160a01b038116811461101557600080fd5b60008060408385031215613aa957600080fd5b8235613ab481613a81565b946020939093013593505050565b600080600060608486031215613ad757600080fd5b8335613ae281613a81565b92506020840135613af281613a81565b929592945050506040919091013590565b60ff8116811461101557600080fd5b600060208284031215613b2457600080fd5b81356135e881613b03565b60008060408385031215613b4257600080fd5b50508035926020909101359150565b600060208284031215613b6357600080fd5b81356135e881613a81565b60008060408385031215613b8157600080fd5b823591506020830135613b9381613a81565b809150509250929050565b801515811461101557600080fd5b600060208284031215613bbe57600080fd5b81356135e881613b9e565b634e487b7160e01b600052604160045260246000fd5b604051601f8201601f191681016001600160401b0381118282101715613c0757613c07613bc9565b604052919050565b60006001600160401b03821115613c2857613c28613bc9565b5060051b60200190565b600082601f830112613c4357600080fd5b81356020613c58613c5383613c0f565b613bdf565b82815260059290921b84018101918181019086841115613c7757600080fd5b8286015b84811015613c925780358352918301918301613c7b565b509695505050505050565b60008060408385031215613cb057600080fd5b82356001600160401b0380821115613cc757600080fd5b818501915085601f830112613cdb57600080fd5b81356020613ceb613c5383613c0f565b82815260059290921b84018101918181019089841115613d0a57600080fd5b948201945b83861015613d31578535613d2281613a81565b82529482019490820190613d0f565b96505086013592505080821115613d4757600080fd5b50613d5485828601613c32565b9150509250929050565b60006001600160401b03821115613d7757613d77613bc9565b50601f01601f191660200190565b600082601f830112613d9657600080fd5b8135613da4613c5382613d5e565b818152846020838601011115613db957600080fd5b816020850160208301376000918101602001919091529392505050565b60008060408385031215613de957600080fd5b8235613df481613a81565b915060208301356001600160401b03811115613e0f57600080fd5b613d5485828601613d85565b600080600080600080600060e0888a031215613e3657600080fd5b8735613e4181613a81565b96506020880135613e5181613a81565b95506040880135613e6181613a81565b945060608801356001600160401b0380821115613e7d57600080fd5b613e898b838c01613d85565b955060808a0135915080821115613e9f57600080fd5b50613eac8a828b01613d85565b93505060a0880135613ebd81613a81565b915060c0880135613ecd81613a81565b8091505092959891949750929550565b6020808252825182820181905260009190848201906040850190845b81811015613f1557835183529284019291840191600101613ef9565b50909695505050505050565b60008060408385031215613f3457600080fd5b8235613f3f81613a81565b915060208301356001600160601b0381168114613b9357600080fd5b60008083601f840112613f6d57600080fd5b5081356001600160401b03811115613f8457600080fd5b602083019150836020828501011115610e5357600080fd5b803560028110613fab57600080fd5b919050565b60008060008060008060a08789031215613fc957600080fd5b8635613fd481613a81565b9550602087013594506040870135935060608701356001600160401b03811115613ffd57600080fd5b61400989828a01613f5b565b909450925061401c905060808801613f9c565b90509295509295509295565b60008060008060006080868803121561404057600080fd5b85359450602086013561405281613b03565b9350604086013561406281613a81565b925060608601356001600160401b0381111561407d57600080fd5b61408988828901613f5b565b969995985093965092949392505050565b6000806000606084860312156140af57600080fd5b8335925060208401356140c181613b03565b915060408401356140d181613a81565b809150509250925092565b600080604083850312156140ef57600080fd5b82356140fa81613a81565b91506020830135613b9381613b9e565b60006020828403121561411c57600080fd5b81356001600160401b0381111561413257600080fd5b6128c884828501613c32565b6000806000806080858703121561415457600080fd5b843561415f81613a81565b9350602085013561416f81613a81565b92506040850135915060608501356001600160401b0381111561419157600080fd5b61419d87828801613d85565b91505092959194509250565b6000806000806000608086880312156141c157600080fd5b85356141cc81613a81565b94506020860135935060408601356001600160401b038111156141ee57600080fd5b6141fa88828901613f5b565b909450925061420d905060608701613f9c565b90509295509295909350565b6000806040838503121561422c57600080fd5b823561423781613a81565b91506020830135613b9381613a81565b600181811c9082168061425b57607f821691505b602082108103611f9c57634e487b7160e01b600052602260045260246000fd5b6020808252602d908201527f4552433732313a2063616c6c6572206973206e6f7420746f6b656e206f776e6560408201526c1c881bdc88185c1c1c9bdd9959609a1b606082015260800190565b634e487b7160e01b600052601160045260246000fd5b8082028115828204841417610ba257610ba26142c8565b60008261431257634e487b7160e01b600052601260045260246000fd5b500490565b6020808252602c908201527f46756e6374696f6e206d7573742062652063616c6c6564207468726f7567682060408201526b19195b1959d85d1958d85b1b60a21b606082015260800190565b6020808252602c908201527f46756e6374696f6e206d7573742062652063616c6c6564207468726f7567682060408201526b6163746976652070726f787960a01b606082015260800190565b6000602082840312156143c157600080fd5b5051919050565b6000602082840312156143da57600080fd5b81516135e881613b9e565b634e487b7160e01b600052603260045260246000fd5b80820180821115610ba257610ba26142c8565b600060018201614420576144206142c8565b5060010190565b81835281816020850137506000828201602090810191909152601f909101601f19169091010190565b6002811061446e57634e487b7160e01b600052602160045260246000fd5b9052565b60018060a01b038716815285602082015284604082015260a0606082015260006144a060a083018587614427565b90506144af6080830184614450565b979650505050505050565b6000606082840312156144cc57600080fd5b604051606081018181106001600160401b03821117156144ee576144ee613bc9565b60405282516144fc81613b03565b8152602083810151908201526040928301519281019290925250919050565b60208082526019908201527f546f6b656e207479706520646f6573206e6f7420657869737400000000000000604082015260600190565b602080825260119082015270139195081d1e5c19481cdbdb19081bdd5d607a1b604082015260600190565b606081526000614591606083018688614427565b6001600160a01b03851660208481019190915283820360408086019190915285518084528683019383019060005b818110156145e4578551805184528501518584015294840194918301916001016145bf565b50909a9950505050505050505050565b60018060a01b038616815284602082015260806040820152600061461c608083018587614427565b905061462b6060830184614450565b9695505050505050565b60006020828403121561464757600080fd5b81516001600160401b0381111561465d57600080fd5b8201601f8101841361466e57600080fd5b805161467c613c5382613d5e565b81815285602083850101111561469157600080fd5b61371a826020830160208601613a05565b81810381811115610ba257610ba26142c8565b60208082526025908201527f4552433732313a207472616e736665722066726f6d20696e636f72726563742060408201526437bbb732b960d91b606082015260800190565b6020808252602b908201527f496e697469616c697a61626c653a20636f6e7472616374206973206e6f74206960408201526a6e697469616c697a696e6760a81b606082015260800190565b60006020828403121561475757600080fd5b81516135e881613a81565b60208082526032908201527f4552433732313a207472616e7366657220746f206e6f6e20455243373231526560408201527131b2b4bb32b91034b6b83632b6b2b73a32b960711b606082015260800190565b7f416363657373436f6e74726f6c3a206163636f756e74200000000000000000008152600083516147ec816017850160208801613a05565b7001034b99036b4b9b9b4b733903937b6329607d1b601791840191820152835161481d816028840160208801613a05565b01602801949350505050565b601f821115610d7657600081815260208120601f850160051c810160208610156148505750805b601f850160051c820191505b8181101561486f5782815560010161485c565b505050505050565b81516001600160401b0381111561489057614890613bc9565b6148a48161489e8454614247565b84614829565b602080601f8311600181146148d957600084156148c15750858301515b600019600386901b1c1916600185901b17855561486f565b600085815260208120601f198616915b82811015614908578886015182559484019460019091019084016148e9565b50858210156149265787850151600019600388901b60f8161c191681555b5050505050600190811b01905550565b6001600160a01b038581168252841660208201526040810183905260806060820181905260009061462b90830184613a29565b60006020828403121561497b57600080fd5b81516135e8816139d2565b600081614995576149956142c8565b506000190190565b600082516149af818460208701613a05565b919091019291505056fe360894a13ba1a3210667c828492db98dca3e2076cc3735a920a3ca505d382bbc416464726573733a206c6f772d6c6576656c2064656c65676174652063616c6c206661696c6564b0a2731da0d1e322a29f18fc41490da7914e8245c4e7d00155b630b2fbe50293a49807205ce4d355092ef5a8a18f56e8913cf4a201fbe287825b095693c21775a26469706673582212205b50a6d05aeb3e58c7840784944ea778cca602ede1cf214d97124a3252221c2464736f6c6343000813003360a06040523060805234801561001457600080fd5b50608051614f4d61004c60003960008181610c4501528181610c8501528181610fbe01528181610ffe01526112660152614f4d6000f3fe6080604052600436106102715760003560e01c80638033491c1161014f578063c2c04ae2116100c1578063e985e9c51161007a578063e985e9c5146107dd578063f242432a14610826578063f2fde38b14610846578063f4ce203214610866578063fc314e3114610893578063ffa0a02a1461092257600080fd5b8063c2c04ae21461071d578063c4ca3a9c1461073d578063d3bb24ae1461075d578063d547741f1461077d578063db8cc8fa1461079d578063e2f03947146107bd57600080fd5b806395d89b411161011357806395d89b4114610673578063a217fddf14610688578063a22cb4651461069d578063a76e0db2146106bd578063afb30f3e146106dd578063c0f1c484146106fd57600080fd5b80638033491c146105dd578063835217a5146105fd5780638da5cb5b146106145780638f0b7b681461063357806391d148541461065357600080fd5b806342db9ca6116101e857806352d1902d116101ac57806352d1902d146104af5780635642800c146104c457806358797cb61461054a578063715018a61461058857806372f123441461059d57806376214140146105bd57600080fd5b806342db9ca61461040257806349d19648146104225780634e1273f4146104425780634f1ef2861461046f57806351d5b0141461048257600080fd5b80632eb2c2d61161023a5780632eb2c2d61461034b5780632ee4aa311461036d5780632f2ff15d1461038d57806336568abe146103ad5780633659cfe6146103cd5780633ccfd60b146103ed57600080fd5b8062fdd58e1461027657806301ffc9a7146102a957806306fdde03146102d95780630e89341c146102fb578063248a9ca31461031b575b600080fd5b34801561028257600080fd5b50610296610291366004613b8b565b610942565b6040519081526020015b60405180910390f35b3480156102b557600080fd5b506102c96102c4366004613bcd565b6109dd565b60405190151581526020016102a0565b3480156102e557600080fd5b506102ee6109e8565b6040516102a09190613c3a565b34801561030757600080fd5b506102ee610316366004613c4d565b610a77565b34801561032757600080fd5b50610296610336366004613c4d565b60009081526097602052604090206001015490565b34801561035757600080fd5b5061036b610366366004613dd4565b610b0b565b005b34801561037957600080fd5b5061036b610388366004613e81565b610b57565b34801561039957600080fd5b5061036b6103a8366004613e9e565b610b93565b3480156103b957600080fd5b5061036b6103c8366004613e9e565b610bbd565b3480156103d957600080fd5b5061036b6103e8366004613e81565b610c3b565b3480156103f957600080fd5b5061036b610d1a565b34801561040e57600080fd5b5061036b61041d366004613ee7565b610e0f565b34801561042e57600080fd5b5061036b61043d366004613e81565b610e49565b34801561044e57600080fd5b5061046261045d366004613f0c565b610e8b565b6040516102a09190614013565b61036b61047d366004614026565b610fb4565b34801561048e57600080fd5b506104a261049d366004613e81565b611080565b6040516102a0919061406b565b3480156104bb57600080fd5b50610296611259565b3480156104d057600080fd5b5061052f6104df3660046140f8565b60ff808216600081815261016b60209081526040808320815160608101835281549096168652600181015486840181905260029091015495820186905293835261016c9091529020549093909250565b604080519384526020840192909252908201526060016102a0565b34801561055657600080fd5b50610165546105709061010090046001600160a01b031681565b6040516001600160a01b0390911681526020016102a0565b34801561059457600080fd5b5061036b61130d565b3480156105a957600080fd5b5061036b6105b8366004613c4d565b611321565b3480156105c957600080fd5b5061036b6105d8366004613c4d565b611340565b3480156105e957600080fd5b5061036b6105f8366004614113565b61135f565b34801561060957600080fd5b506102966101735481565b34801561062057600080fd5b5061012d546001600160a01b0316610570565b34801561063f57600080fd5b5061036b61064e3660046141aa565b611942565b34801561065f57600080fd5b506102c961066e366004613e9e565b6119d4565b34801561067f57600080fd5b506102ee6119ff565b34801561069457600080fd5b50610296600081565b3480156106a957600080fd5b5061036b6106b8366004614222565b611a0d565b3480156106c957600080fd5b506102ee6106d83660046140f8565b611a18565b3480156106e957600080fd5b5061036b6106f8366004613f0c565b611a32565b34801561070957600080fd5b5061036b6107183660046142f8565b611b3b565b34801561072957600080fd5b50610296610738366004614403565b611fab565b34801561074957600080fd5b5061036b61075836600461446c565b61245d565b34801561076957600080fd5b506102c9610778366004613c4d565b6124fe565b34801561078957600080fd5b5061036b610798366004613e9e565b612534565b3480156107a957600080fd5b5061036b6107b8366004613c4d565b612559565b3480156107c957600080fd5b5061036b6107d8366004613c4d565b612578565b3480156107e957600080fd5b506102c96107f83660046144dc565b6001600160a01b03918216600090815260666020908152604080832093909416825291909152205460ff1690565b34801561083257600080fd5b5061036b61084136600461450a565b612597565b34801561085257600080fd5b5061036b610861366004613e81565b6125dc565b34801561087257600080fd5b50610165546108819060ff1681565b60405160ff90911681526020016102a0565b34801561089f57600080fd5b506108eb6108ae366004613c4d565b61017060205260009081526040902080546001820154600283015460039093015460ff92831693919281169061010090046001600160a01b031685565b6040805160ff9096168652602086019490945292840191909152151560608301526001600160a01b0316608082015260a0016102a0565b34801561092e57600080fd5b5061036b61093d366004614113565b612652565b60006001600160a01b0383166109b25760405162461bcd60e51b815260206004820152602a60248201527f455243313135353a2061646472657373207a65726f206973206e6f742061207660448201526930b634b21037bbb732b960b11b60648201526084015b60405180910390fd5b5060008181526065602090815260408083206001600160a01b03861684529091529020545b92915050565b60006109d782612b1b565b61016780546109f690614572565b80601f0160208091040260200160405190810160405280929190818152602001828054610a2290614572565b8015610a6f5780601f10610a4457610100808354040283529160200191610a6f565b820191906000526020600020905b815481529060010190602001808311610a5257829003601f168201915b505050505081565b606060678054610a8690614572565b80601f0160208091040260200160405190810160405280929190818152602001828054610ab290614572565b8015610aff5780601f10610ad457610100808354040283529160200191610aff565b820191906000526020600020905b815481529060010190602001808311610ae257829003601f168201915b50505050509050919050565b6001600160a01b038516331480610b275750610b2785336107f8565b610b435760405162461bcd60e51b81526004016109a9906145a6565b610b508585858585612b40565b5050505050565b600080516020614ed8833981519152610b6f81612d20565b5061016180546001600160a01b0319166001600160a01b0392909216919091179055565b600082815260976020526040902060010154610bae81612d20565b610bb88383612d2a565b505050565b6001600160a01b0381163314610c2d5760405162461bcd60e51b815260206004820152602f60248201527f416363657373436f6e74726f6c3a2063616e206f6e6c792072656e6f756e636560448201526e103937b632b9903337b91039b2b63360891b60648201526084016109a9565b610c378282612db0565b5050565b6001600160a01b037f0000000000000000000000000000000000000000000000000000000000000000163003610c835760405162461bcd60e51b81526004016109a9906145f4565b7f00000000000000000000000000000000000000000000000000000000000000006001600160a01b0316610ccc600080516020614e91833981519152546001600160a01b031690565b6001600160a01b031614610cf25760405162461bcd60e51b81526004016109a990614640565b610cfb81612e17565b60408051600080825260208201909252610d1791839190612e2f565b50565b6000610d2581612d20565b610165546040516370a0823160e01b81523060048201526101009091046001600160a01b03169063a9059cbb90339083906370a0823190602401602060405180830381865afa158015610d7c573d6000803e3d6000fd5b505050506040513d601f19601f82011682018060405250810190610da0919061468c565b6040516001600160e01b031960e085901b1681526001600160a01b03909216600483015260248201526044016020604051808303816000875af1158015610deb573d6000803e3d6000fd5b505050506040513d601f19601f82011682018060405250810190610c3791906146a5565b600080516020614ed8833981519152610e2781612d20565b50600091825261016a6020526040909120805460ff1916911515919091179055565b600080516020614ed8833981519152610e6181612d20565b5061016580546001600160a01b0390921661010002610100600160a81b0319909216919091179055565b60608151835114610ef05760405162461bcd60e51b815260206004820152602960248201527f455243313135353a206163636f756e747320616e6420696473206c656e677468604482015268040dad2e6dac2e8c6d60bb1b60648201526084016109a9565b600083516001600160401b03811115610f0b57610f0b613c66565b604051908082528060200260200182016040528015610f34578160200160208202803683370190505b50905060005b8451811015610fac57610f7f858281518110610f5857610f586146c2565b6020026020010151858381518110610f7257610f726146c2565b6020026020010151610942565b828281518110610f9157610f916146c2565b6020908102919091010152610fa5816146ee565b9050610f3a565b509392505050565b6001600160a01b037f0000000000000000000000000000000000000000000000000000000000000000163003610ffc5760405162461bcd60e51b81526004016109a9906145f4565b7f00000000000000000000000000000000000000000000000000000000000000006001600160a01b0316611045600080516020614e91833981519152546001600160a01b031690565b6001600160a01b03161461106b5760405162461bcd60e51b81526004016109a990614640565b61107482612e17565b610c3782826001612e2f565b6001600160a01b038116600090815261016d6020526040812054606091906001600160401b038111156110b5576110b5613c66565b60405190808252806020026020018201604052801561110e57816020015b6040805160a0810182526000808252602080830182905292820181905260608201819052608082015282526000199092019101816110d35790505b50905060005b6001600160a01b038416600090815261016d6020526040902054811015611252576001600160a01b038416600090815261016d60205260408120805461117691879185908110611166576111666146c2565b9060005260206000200154610942565b9050600081116111865750611242565b6001600160a01b038516600090815261016d602052604081208054610170929190859081106111b7576111b76146c2565b60009182526020808320919091015483528281019390935260409182019020815160a081018352815460ff908116825260018301549482019490945260028201549281019290925260030154918216151560608201526101009091046001600160a01b031660808201528351849084908110611235576112356146c2565b6020026020010181905250505b61124b816146ee565b9050611114565b5092915050565b6000306001600160a01b037f000000000000000000000000000000000000000000000000000000000000000016146112f95760405162461bcd60e51b815260206004820152603860248201527f555550535570677261646561626c653a206d757374206e6f742062652063616c60448201527f6c6564207468726f7567682064656c656761746563616c6c000000000000000060648201526084016109a9565b50600080516020614e918339815191525b90565b611315612f9a565b61131f6000612ff5565b565b600080516020614ed883398151915261133981612d20565b5061016e55565b600080516020614ed883398151915261135881612d20565b5061016455565b6101635433904210156113b45760405162461bcd60e51b815260206004820181905260248201527f49742773206e6f742074696d6520746f20627579207075626c69632073616c6560448201526064016109a9565b610164544211156113d75760405162461bcd60e51b81526004016109a990614707565b61016e541561143f5761016e546001600160a01b038316600090815261016d60205260409020541061143f5760405162461bcd60e51b8152602060048201526011602482015270109d5e481b1a5b5a5d081c995858da1959607a1b60448201526064016109a9565b60ff808416600090815261016b6020908152604091829020825160608101845281549094168452600181015491840182905260020154918301919091526114985760405162461bcd60e51b81526004016109a990614735565b60ff8416600090815261016c60209081526040909120549082015181106114d15760405162461bcd60e51b81526004016109a99061476c565b61016154600160a01b900460ff166114fd576114f261016880546001019055565b61016854955061152c565b600086815261016a602052604090205460ff1661152c5760405162461bcd60e51b81526004016109a990614793565b60008681526101706020908152604091829020825160a081018452815460ff90811682526001830154938201939093526002820154938101849052600390910154918216151560608201526101009091046001600160a01b0316608082015290156115a95760405162461bcd60e51b81526004016109a9906147ca565b60006115b88460400151613048565b610165546040516370a0823160e01b81526001600160a01b038981166004830152929350610100909104909116906370a0823190602401602060405180830381865afa15801561160c573d6000803e3d6000fd5b505050506040513d601f19601f82011682018060405250810190611630919061468c565b846040015111156116535760405162461bcd60e51b81526004016109a9906147f6565b6101655461015f546040516323b872dd60e01b81526101009092046001600160a01b03908116926323b872dd92611693928a929116908690600401614841565b6020604051808303816000875af11580156116b2573d6000803e3d6000fd5b505050506040513d601f19601f820116820180604052508101906116d691906146a5565b5060008185604001516116e99190614865565b61016554610161546040516323b872dd60e01b81529293506001600160a01b036101009092048216926323b872dd9261172b928b929116908690600401614841565b6020604051808303816000875af115801561174a573d6000803e3d6000fd5b505050506040513d601f19601f8201168201806040525081019061176e91906146a5565b5061178b878a6001604051806020016040528060008152506130de565b6001600160a01b038716600090815261016d60209081526040822080546001818101835591845291909220018a90556117c5908590614878565b60ff8916600081815261016c60209081526040808320949094558c825261016f9052918220805460ff191690911790556117fe8a610a77565b90508984602001818152505088846000019060ff16908160ff1681525050600184604001818152505060008960ff16118460600190151590811515815250508784608001906001600160a01b031690816001600160a01b0316815250508361017060008c815260200190815260200160002060008201518160000160006101000a81548160ff021916908360ff160217905550602082015181600101556040820151816002015560608201518160030160006101000a81548160ff02191690831515021790555060808201518160030160016101000a8154816001600160a01b0302191690836001600160a01b031602179055509050507f2d4e120ea0e6aacf78e29b1ab8708eddff1b877753354538447ef8063a54ef45888b8b84868860405161192e9695949392919061488b565b60405180910390a150505050505050505050565b600080516020614ef883398151915261195a81612d20565b604051631ce8f7e360e11b815273__InterfaceFunction_____________________906339d1efc69061199b908a908a908a908a908a908a9060040161491b565b60006040518083038186803b1580156119b357600080fd5b505af41580156119c7573d6000803e3d6000fd5b5050505050505050505050565b60009182526097602090815260408084206001600160a01b0393909316845291905290205460ff1690565b61016680546109f690614572565b610c373383836131eb565b61017460205260009081526040902080546109f690614572565b600080516020614ef8833981519152611a4a81612d20565b8151835114611ab95760405162461bcd60e51b815260206004820152603560248201527f57686974656c69737420616e642062757961626c6520616d6f756e74206c69736044820152740e840daeae6e840c4ca40e6c2daca40d8cadccee8d605b1b60648201526084016109a9565b60005b8351811015611b3557828181518110611ad757611ad76146c2565b60200260200101516101726000868481518110611af657611af66146c2565b60200260200101516001600160a01b03166001600160a01b03168152602001908152602001600020819055508080611b2d906146ee565b915050611abc565b50505050565b600054610100900460ff1615808015611b5b5750600054600160ff909116105b80611b755750303b158015611b75575060005460ff166001145b611bd85760405162461bcd60e51b815260206004820152602e60248201527f496e697469616c697a61626c653a20636f6e747261637420697320616c72656160448201526d191e481a5b9a5d1a585b1a5e995960921b60648201526084016109a9565b6000805460ff191660011790558015611bfb576000805461ff0019166101001790555b611c13604051806020016040528060008152506132cb565b611c1b6132fb565b611c236132fb565b611c2c84612ff5565b6000805b8451811015611c7457848181518110611c4b57611c4b6146c2565b60200260200101516020015182611c629190614878565b9150611c6d816146ee565b9050611c30565b50828114611cc45760405162461bcd60e51b815260206004820152601b60248201527f546f74616c20737570706c7920646f6573206e6f74206d61746368000000000060448201526064016109a9565b60005b8451811015611e5f57611cf76040518060600160405280600060ff16815260200160008152602001600081525090565b858281518110611d0957611d096146c2565b602002602001015160400151816040018181525050858281518110611d3057611d306146c2565b6020026020010151602001518160200181815250508061016b6000888581518110611d5d57611d5d6146c2565b6020908102919091018101515160ff90811683528282019390935260409182016000208451815460ff191694169390931783558301516001830155919091015160029091015585517fab9ceafa6f3a63a3fa4175dc0568fb22a90f89b34b4800540adb2822f5642aed90879084908110611dd957611dd96146c2565b602002602001015160000151878481518110611df757611df76146c2565b602002602001015160200151888581518110611e1557611e156146c2565b602002602001015160400151604051611e469392919060ff9390931683526020830191909152604082015260600190565b60405180910390a150611e58816146ee565b9050611cc7565b5061015f80546001600160a01b0319166001600160a01b038e16179055610160611e898c826149a9565b5061016180546001600160a01b038c81166001600160a81b031990921691909117600160a01b8c151502179091556101658054610100600160a81b031916610100928b1692909202919091179055610166611ee488826149a9565b50610167611ef287826149a9565b50611f0b600080516020614ef883398151915286613322565b611f16600086613322565b611f2e600080516020614ed883398151915286613322565b611f587f3c11d16cbaffd01df69ce1c404f6340ee057498f5f00246190ea54220576a84886613322565b5080156119c7576000805461ff0019169055604051600181527f7f26b83ff96e1f2b6a682f133852f6798a09c465da95921460cefb38474024989060200160405180910390a15050505050505050505050565b6000600080516020614ef8833981519152611fc581612d20565b610163544210156120185760405162461bcd60e51b815260206004820181905260248201527f49742773206e6f742074696d6520746f20627579207075626c69632073616c6560448201526064016109a9565b6101645442111561203b5760405162461bcd60e51b81526004016109a990614707565b6101718360405161204c9190614a68565b9081526040519081900360200190205460ff16156120ac5760405162461bcd60e51b815260206004820152601e60248201527f4769667420636f646520697320616c726561647920616374697661746564000060448201526064016109a9565b60ff808516600090815261016b6020908152604091829020825160608101845281549094168452600181015491840182905260020154918301919091526121055760405162461bcd60e51b81526004016109a990614735565b60ff8516600090815261016c602090815260409091205490820151811061213e5760405162461bcd60e51b81526004016109a99061476c565b61016154600160a01b900460ff1661216a5761215f61016880546001019055565b610168549650612199565b600087815261016a602052604090205460ff166121995760405162461bcd60e51b81526004016109a990614793565b60008781526101706020908152604091829020825160a081018452815460ff90811682526001830154938201939093526002820154938101849052600390910154918216151560608201526101009091046001600160a01b0316608082015290156122165760405162461bcd60e51b81526004016109a9906147ca565b61223289896001604051806020016040528060008152506130de565b6001600160a01b038916600090815261016d602090815260408220805460018181018355918452919092200189905561226c908390614878565b60ff8816600081815261016c60209081526040808320949094558b825261016f9052918220805460ff191690911790556122a589610a77565b90508882602001818152505087826000019060ff16908160ff1681525050600182604001818152505060008860ff16118260600190151590811515815250508982608001906001600160a01b031690816001600160a01b0316815250508161017060008b815260200190815260200160002060008201518160000160006101000a81548160ff021916908360ff160217905550602082015181600101556040820151816002015560608201518160030160006101000a81548160ff02191690831515021790555060808201518160030160016101000a8154816001600160a01b0302191690836001600160a01b031602179055509050506001610171886040516123af9190614a68565b908152604051908190036020018120805492151560ff19909316929092179091557f9b7d14b1e22bcd1e90132d871c08a86a7d439e4349ac2bbaea472e1ed9031f3390612405908c908c908c9086908d90614a84565b60405180910390a17f2d4e120ea0e6aacf78e29b1ab8708eddff1b877753354538447ef8063a54ef458a8a8a846000806040516124479695949392919061488b565b60405180910390a1509698975050505050505050565b600080516020614ef883398151915261247581612d20565b604051637a17125960e01b815273__InterfaceFunction_____________________90637a171259906124b49089908990899089908990600401614ad2565b602060405180830381865af41580156124d1573d6000803e3d6000fd5b505050506040513d601f19601f820116820180604052508101906124f5919061468c565b50505050505050565b6000600080516020614ed883398151915261251881612d20565b600083815261016a602052604090205460ff1691505b50919050565b60008281526097602052604090206001015461254f81612d20565b610bb88383612db0565b600080516020614ed883398151915261257181612d20565b5061016355565b600080516020614ed883398151915261259081612d20565b5061016255565b6001600160a01b0385163314806125b357506125b385336107f8565b6125cf5760405162461bcd60e51b81526004016109a9906145a6565b610b50858585858561332c565b6125e4612f9a565b6001600160a01b0381166126495760405162461bcd60e51b815260206004820152602660248201527f4f776e61626c653a206e6577206f776e657220697320746865207a65726f206160448201526564647265737360d01b60648201526084016109a9565b610d1781612ff5565b6101625433904210156126b35760405162461bcd60e51b815260206004820152602360248201527f49742773206e6f742074696d6520746f206275792077686974656c6973742073604482015262616c6560e81b60648201526084016109a9565b610164544211156126d65760405162461bcd60e51b81526004016109a990614707565b6001600160a01b0382166000908152610172602052604090205461274b5760405162461bcd60e51b815260206004820152602660248201527f55736572206e6f7420696e2077686974656c697374206f72206c696d69742072604482015265195858da195960d21b60648201526084016109a9565b60ff808416600090815261016b6020908152604091829020825160608101845281549094168452600181015491840182905260020154918301919091526127a45760405162461bcd60e51b81526004016109a990614735565b60ff8416600090815261016c60209081526040909120549082015181106127dd5760405162461bcd60e51b81526004016109a99061476c565b61016154600160a01b900460ff16612809576127fe61016880546001019055565b610168549550612838565b600086815261016a602052604090205460ff166128385760405162461bcd60e51b81526004016109a990614793565b60008681526101706020908152604091829020825160a081018452815460ff90811682526001830154938201939093526002820154938101849052600390910154918216151560608201526101009091046001600160a01b0316608082015290156128b55760405162461bcd60e51b81526004016109a9906147ca565b60006128c48460400151613048565b610165546040516370a0823160e01b81526001600160a01b038881166004830152929350610100909104909116906370a0823190602401602060405180830381865afa158015612918573d6000803e3d6000fd5b505050506040513d601f19601f8201168201806040525081019061293c919061468c565b8460400151111561295f5760405162461bcd60e51b81526004016109a9906147f6565b6101655461015f546040516323b872dd60e01b81526101009092046001600160a01b03908116926323b872dd9261299f928a929116908690600401614841565b6020604051808303816000875af11580156129be573d6000803e3d6000fd5b505050506040513d601f19601f820116820180604052508101906129e291906146a5565b5060008185604001516129f59190614865565b61016554610161546040516323b872dd60e01b81529293506001600160a01b036101009092048216926323b872dd92612a37928b929116908690600401614841565b6020604051808303816000875af1158015612a56573d6000803e3d6000fd5b505050506040513d601f19601f82011682018060405250810190612a7a91906146a5565b50612a97878a6001604051806020016040528060008152506130de565b6001600160a01b038716600090815261016d6020908152604082208054600181810183559184529183209091018b9055610173805491929091612adb908490614878565b90915550506001600160a01b038716600090815261017260205260408120805460019290612b0a908490614865565b909155506117c59050846001614878565b60006001600160e01b03198216637965db0b60e01b14806109d757506109d78261345a565b8151835114612ba25760405162461bcd60e51b815260206004820152602860248201527f455243313135353a2069647320616e6420616d6f756e7473206c656e677468206044820152670dad2e6dac2e8c6d60c31b60648201526084016109a9565b6001600160a01b038416612bc85760405162461bcd60e51b81526004016109a990614b13565b3360005b8451811015612cb2576000858281518110612be957612be96146c2565b602002602001015190506000858381518110612c0757612c076146c2565b60209081029190910181015160008481526065835260408082206001600160a01b038e168352909352919091205490915081811015612c585760405162461bcd60e51b81526004016109a990614b58565b60008381526065602090815260408083206001600160a01b038e8116855292528083208585039055908b16825281208054849290612c97908490614878565b9250508190555050505080612cab906146ee565b9050612bcc565b50846001600160a01b0316866001600160a01b0316826001600160a01b03167f4a39dc06d4c0dbc64b70af90fd698a233a518aa5d07e595d983b8c0526c8f7fb8787604051612d02929190614ba2565b60405180910390a4612d188187878787876134aa565b505050505050565b610d178133613605565b612d3482826119d4565b610c375760008281526097602090815260408083206001600160a01b03851684529091529020805460ff19166001179055612d6c3390565b6001600160a01b0316816001600160a01b0316837f2f8788117e7eff1d82e926ec794901d17c78024a50270940304540a733656f0d60405160405180910390a45050565b612dba82826119d4565b15610c375760008281526097602090815260408083206001600160a01b0385168085529252808320805460ff1916905551339285917ff6391f5c32d9c69d2a47ea670b442974b53935d1edc7fd64eb21e047a839171b9190a45050565b600080516020614ef8833981519152610c3781612d20565b7f4910fdfa16fed3260ed0e7147f7cc6da11a60208b5b9406d12a635614ffd91435460ff1615612e6257610bb88361365e565b826001600160a01b03166352d1902d6040518163ffffffff1660e01b8152600401602060405180830381865afa925050508015612ebc575060408051601f3d908101601f19168201909252612eb99181019061468c565b60015b612f1f5760405162461bcd60e51b815260206004820152602e60248201527f45524331393637557067726164653a206e657720696d706c656d656e7461746960448201526d6f6e206973206e6f74205555505360901b60648201526084016109a9565b600080516020614e918339815191528114612f8e5760405162461bcd60e51b815260206004820152602960248201527f45524331393637557067726164653a20756e737570706f727465642070726f786044820152681a58589b195555525160ba1b60648201526084016109a9565b50610bb88383836136fa565b61012d546001600160a01b0316331461131f5760405162461bcd60e51b815260206004820181905260248201527f4f776e61626c653a2063616c6c6572206973206e6f7420746865206f776e657260448201526064016109a9565b61012d80546001600160a01b038381166001600160a01b0319831681179093556040519116919082907f8be0079c531659141344cd1fd0a4f28419497f9722a3daafe3b4186f6b6457e090600090a35050565b61015f54604051631517971b60e31b815230600482015260009182916001600160a01b039091169063a8bcb8d890602401602060405180830381865afa158015613096573d6000803e3d6000fd5b505050506040513d601f19601f820116820180604052508101906130ba9190614bc7565b61ffff169050806130cd61271085614beb565b6130d79190614c0d565b9392505050565b6001600160a01b03841661313e5760405162461bcd60e51b815260206004820152602160248201527f455243313135353a206d696e7420746f20746865207a65726f206164647265736044820152607360f81b60648201526084016109a9565b33600061314a8561371f565b905060006131578561371f565b905060008681526065602090815260408083206001600160a01b038b1684529091528120805487929061318b908490614878565b909155505060408051878152602081018790526001600160a01b03808a1692600092918716917fc3d58168c5ae7397731d063d5bbf3d657854427343f4c083240f7aacaa2d0f62910160405180910390a46124f58360008989898961376a565b816001600160a01b0316836001600160a01b03160361325e5760405162461bcd60e51b815260206004820152602960248201527f455243313135353a2073657474696e6720617070726f76616c20737461747573604482015268103337b91039b2b63360b91b60648201526084016109a9565b6001600160a01b03838116600081815260666020908152604080832094871680845294825291829020805460ff191686151590811790915591519182527f17307eab39ab6107e8899845ad3d59bd9653f200f220920489ca2b5937696c31910160405180910390a3505050565b600054610100900460ff166132f25760405162461bcd60e51b81526004016109a990614c24565b610d1781613825565b600054610100900460ff1661131f5760405162461bcd60e51b81526004016109a990614c24565b610c378282612d2a565b6001600160a01b0384166133525760405162461bcd60e51b81526004016109a990614b13565b33600061335e8561371f565b9050600061336b8561371f565b905060008681526065602090815260408083206001600160a01b038c168452909152902054858110156133b05760405162461bcd60e51b81526004016109a990614b58565b60008781526065602090815260408083206001600160a01b038d8116855292528083208985039055908a168252812080548892906133ef908490614878565b909155505060408051888152602081018890526001600160a01b03808b16928c821692918816917fc3d58168c5ae7397731d063d5bbf3d657854427343f4c083240f7aacaa2d0f62910160405180910390a461344f848a8a8a8a8a61376a565b505050505050505050565b60006001600160e01b03198216636cdb3d1360e11b148061348b57506001600160e01b031982166303a24d0760e21b145b806109d757506301ffc9a760e01b6001600160e01b03198316146109d7565b6001600160a01b0384163b15612d185760405163bc197c8160e01b81526001600160a01b0385169063bc197c81906134ee9089908990889088908890600401614c6f565b6020604051808303816000875af1925050508015613529575060408051601f3d908101601f1916820190925261352691810190614cc1565b60015b6135d557613535614cde565b806308c379a00361356e5750613549614cf9565b806135545750613570565b8060405162461bcd60e51b81526004016109a99190613c3a565b505b60405162461bcd60e51b815260206004820152603460248201527f455243313135353a207472616e7366657220746f206e6f6e2d455243313135356044820152732932b1b2b4bb32b91034b6b83632b6b2b73a32b960611b60648201526084016109a9565b6001600160e01b0319811663bc197c8160e01b146124f55760405162461bcd60e51b81526004016109a990614d82565b61360f82826119d4565b610c375761361c81613855565b613627836020613867565b604051602001613638929190614dca565b60408051601f198184030181529082905262461bcd60e51b82526109a991600401613c3a565b6001600160a01b0381163b6136cb5760405162461bcd60e51b815260206004820152602d60248201527f455243313936373a206e657720696d706c656d656e746174696f6e206973206e60448201526c1bdd08184818dbdb9d1c9858dd609a1b60648201526084016109a9565b600080516020614e9183398151915280546001600160a01b0319166001600160a01b0392909216919091179055565b61370383613a02565b6000825111806137105750805b15610bb857611b358383613a42565b60408051600180825281830190925260609160009190602080830190803683370190505090508281600081518110613759576137596146c2565b602090810291909101015292915050565b6001600160a01b0384163b15612d185760405163f23a6e6160e01b81526001600160a01b0385169063f23a6e61906137ae9089908990889088908890600401614e3f565b6020604051808303816000875af19250505080156137e9575060408051601f3d908101601f191682019092526137e691810190614cc1565b60015b6137f557613535614cde565b6001600160e01b0319811663f23a6e6160e01b146124f55760405162461bcd60e51b81526004016109a990614d82565b600054610100900460ff1661384c5760405162461bcd60e51b81526004016109a990614c24565b610d1781613b36565b60606109d76001600160a01b03831660145b60606000613876836002614c0d565b613881906002614878565b6001600160401b0381111561389857613898613c66565b6040519080825280601f01601f1916602001820160405280156138c2576020820181803683370190505b509050600360fc1b816000815181106138dd576138dd6146c2565b60200101906001600160f81b031916908160001a905350600f60fb1b8160018151811061390c5761390c6146c2565b60200101906001600160f81b031916908160001a9053506000613930846002614c0d565b61393b906001614878565b90505b60018111156139b3576f181899199a1a9b1b9c1cb0b131b232b360811b85600f166010811061396f5761396f6146c2565b1a60f81b828281518110613985576139856146c2565b60200101906001600160f81b031916908160001a90535060049490941c936139ac81614e79565b905061393e565b5083156130d75760405162461bcd60e51b815260206004820181905260248201527f537472696e67733a20686578206c656e67746820696e73756666696369656e7460448201526064016109a9565b613a0b8161365e565b6040516001600160a01b038216907fbc7cd75a20ee27fd9adebab32041f755214dbc6bffa90cc0225b39da2e5c2d3b90600090a250565b60606001600160a01b0383163b613aaa5760405162461bcd60e51b815260206004820152602660248201527f416464726573733a2064656c65676174652063616c6c20746f206e6f6e2d636f6044820152651b9d1c9858dd60d21b60648201526084016109a9565b600080846001600160a01b031684604051613ac59190614a68565b600060405180830381855af49150503d8060008114613b00576040519150601f19603f3d011682016040523d82523d6000602084013e613b05565b606091505b5091509150613b2d8282604051806060016040528060278152602001614eb160279139613b42565b95945050505050565b6067610c3782826149a9565b60608315613b515750816130d7565b6130d783838151156135545781518083602001fd5b6001600160a01b0381168114610d1757600080fd5b8035613b8681613b66565b919050565b60008060408385031215613b9e57600080fd5b8235613ba981613b66565b946020939093013593505050565b6001600160e01b031981168114610d1757600080fd5b600060208284031215613bdf57600080fd5b81356130d781613bb7565b60005b83811015613c05578181015183820152602001613bed565b50506000910152565b60008151808452613c26816020860160208601613bea565b601f01601f19169290920160200192915050565b6020815260006130d76020830184613c0e565b600060208284031215613c5f57600080fd5b5035919050565b634e487b7160e01b600052604160045260246000fd5b606081018181106001600160401b0382111715613c9b57613c9b613c66565b60405250565b601f8201601f191681016001600160401b0381118282101715613cc657613cc6613c66565b6040525050565b60006001600160401b03821115613ce657613ce6613c66565b5060051b60200190565b600082601f830112613d0157600080fd5b81356020613d0e82613ccd565b604051613d1b8282613ca1565b83815260059390931b8501820192828101915086841115613d3b57600080fd5b8286015b84811015613d565780358352918301918301613d3f565b509695505050505050565b600082601f830112613d7257600080fd5b81356001600160401b03811115613d8b57613d8b613c66565b604051613da2601f8301601f191660200182613ca1565b818152846020838601011115613db757600080fd5b816020850160208301376000918101602001919091529392505050565b600080600080600060a08688031215613dec57600080fd5b8535613df781613b66565b94506020860135613e0781613b66565b935060408601356001600160401b0380821115613e2357600080fd5b613e2f89838a01613cf0565b94506060880135915080821115613e4557600080fd5b613e5189838a01613cf0565b93506080880135915080821115613e6757600080fd5b50613e7488828901613d61565b9150509295509295909350565b600060208284031215613e9357600080fd5b81356130d781613b66565b60008060408385031215613eb157600080fd5b823591506020830135613ec381613b66565b809150509250929050565b8015158114610d1757600080fd5b8035613b8681613ece565b60008060408385031215613efa57600080fd5b823591506020830135613ec381613ece565b60008060408385031215613f1f57600080fd5b82356001600160401b0380821115613f3657600080fd5b818501915085601f830112613f4a57600080fd5b81356020613f5782613ccd565b604051613f648282613ca1565b83815260059390931b8501820192828101915089841115613f8457600080fd5b948201945b83861015613fab578535613f9c81613b66565b82529482019490820190613f89565b96505086013592505080821115613fc157600080fd5b50613fce85828601613cf0565b9150509250929050565b600081518084526020808501945080840160005b8381101561400857815187529582019590820190600101613fec565b509495945050505050565b6020815260006130d76020830184613fd8565b6000806040838503121561403957600080fd5b823561404481613b66565b915060208301356001600160401b0381111561405f57600080fd5b613fce85828601613d61565b602080825282518282018190526000919060409081850190868401855b828110156140da578151805160ff168552868101518786015285810151868601526060808201511515908601526080908101516001600160a01b03169085015260a09093019290850190600101614088565b5091979650505050505050565b803560ff81168114613b8657600080fd5b60006020828403121561410a57600080fd5b6130d7826140e7565b60008060006060848603121561412857600080fd5b83359250614138602085016140e7565b9150604084013561414881613b66565b809150509250925092565b60008083601f84011261416557600080fd5b5081356001600160401b0381111561417c57600080fd5b60208301915083602082850101111561419457600080fd5b9250929050565b803560028110613b8657600080fd5b60008060008060008060a087890312156141c357600080fd5b86356141ce81613b66565b9550602087013594506040870135935060608701356001600160401b038111156141f757600080fd5b61420389828a01614153565b909450925061421690506080880161419b565b90509295509295509295565b6000806040838503121561423557600080fd5b823561424081613b66565b91506020830135613ec381613ece565b600082601f83011261426157600080fd5b8135602061426e82613ccd565b6040805161427c8382613ca1565b8481526060948502870184019484820193508886111561429b57600080fd5b8488015b868110156142ea5781818b0312156142b75760008081fd5b83516142c281613c7c565b6142cb826140e7565b815281870135878201528482013585820152855293850193810161429f565b509098975050505050505050565b6000806000806000806000806000806101408b8d03121561431857600080fd5b6143218b613b7b565b995060208b01356001600160401b038082111561433d57600080fd5b6143498e838f01613d61565b9a5061435760408e01613b7b565b995061436560608e01613edc565b985061437360808e01613b7b565b975060a08d013591508082111561438957600080fd5b6143958e838f01613d61565b965060c08d01359150808211156143ab57600080fd5b6143b78e838f01613d61565b95506143c560e08e01613b7b565b94506101008d01359150808211156143dc57600080fd5b506143e98d828e01614250565b9250506101208b013590509295989b9194979a5092959850565b6000806000806080858703121561441957600080fd5b843561442481613b66565b935060208501359250614439604086016140e7565b915060608501356001600160401b0381111561445457600080fd5b61446087828801613d61565b91505092959194509250565b60008060008060006080868803121561448457600080fd5b853561448f81613b66565b94506020860135935060408601356001600160401b038111156144b157600080fd5b6144bd88828901614153565b90945092506144d090506060870161419b565b90509295509295909350565b600080604083850312156144ef57600080fd5b82356144fa81613b66565b91506020830135613ec381613b66565b600080600080600060a0868803121561452257600080fd5b853561452d81613b66565b9450602086013561453d81613b66565b9350604086013592506060860135915060808601356001600160401b0381111561456657600080fd5b613e7488828901613d61565b600181811c9082168061458657607f821691505b60208210810361252e57634e487b7160e01b600052602260045260246000fd5b6020808252602e908201527f455243313135353a2063616c6c6572206973206e6f7420746f6b656e206f776e60408201526d195c881bdc88185c1c1c9bdd995960921b606082015260800190565b6020808252602c908201527f46756e6374696f6e206d7573742062652063616c6c6564207468726f7567682060408201526b19195b1959d85d1958d85b1b60a21b606082015260800190565b6020808252602c908201527f46756e6374696f6e206d7573742062652063616c6c6564207468726f7567682060408201526b6163746976652070726f787960a01b606082015260800190565b60006020828403121561469e57600080fd5b5051919050565b6000602082840312156146b757600080fd5b81516130d781613ece565b634e487b7160e01b600052603260045260246000fd5b634e487b7160e01b600052601160045260246000fd5b600060018201614700576147006146d8565b5060010190565b60208082526014908201527349742773206e6f742074696d6520746f2062757960601b604082015260600190565b60208082526019908201527f546f6b656e207479706520646f6573206e6f7420657869737400000000000000604082015260600190565b6020808252600d908201526c151bdad95b881c9d5b881bdd5d609a1b604082015260600190565b6020808252601b908201527f546f6b656e2069642069736e277420696e2077686974656c6973740000000000604082015260600190565b602080825260129082015271151bdad95b881a59081a5cc81b5a5b9d195960721b604082015260600190565b6020808252602b908201527f55736572206e65656420686f6c6420656e6f75676820546f6b656e20746f206260408201526a1d5e481d1a1a5cc81b999d60aa1b606082015260800190565b6001600160a01b039384168152919092166020820152604081019190915260600190565b818103818111156109d7576109d76146d8565b808201808211156109d7576109d76146d8565b60018060a01b038716815285602082015260ff8516604082015260c0606082015260006148bb60c0830186613c0e565b60808301949094525060a00152949350505050565b81835281816020850137506000828201602090810191909152601f909101601f19169091010190565b6002811061491757634e487b7160e01b600052602160045260246000fd5b9052565b60018060a01b038716815285602082015284604082015260a06060820152600061494960a0830185876148d0565b905061495860808301846148f9565b979650505050505050565b601f821115610bb857600081815260208120601f850160051c8101602086101561498a5750805b601f850160051c820191505b81811015612d1857828155600101614996565b81516001600160401b038111156149c2576149c2613c66565b6149d6816149d08454614572565b84614963565b602080601f831160018114614a0b57600084156149f35750858301515b600019600386901b1c1916600185901b178555612d18565b600085815260208120601f198616915b82811015614a3a57888601518255948401946001909101908401614a1b565b5085821015614a585787850151600019600388901b60f8161c191681555b5050505050600190811b01905550565b60008251614a7a818460208701613bea565b9190910192915050565b60018060a01b038616815284602082015260ff8416604082015260a060608201526000614ab460a0830185613c0e565b8281036080840152614ac68185613c0e565b98975050505050505050565b60018060a01b0386168152846020820152608060408201526000614afa6080830185876148d0565b9050614b0960608301846148f9565b9695505050505050565b60208082526025908201527f455243313135353a207472616e7366657220746f20746865207a65726f206164604082015264647265737360d81b606082015260800190565b6020808252602a908201527f455243313135353a20696e73756666696369656e742062616c616e636520666f60408201526939103a3930b739b332b960b11b606082015260800190565b604081526000614bb56040830185613fd8565b8281036020840152613b2d8185613fd8565b600060208284031215614bd957600080fd5b815161ffff811681146130d757600080fd5b600082614c0857634e487b7160e01b600052601260045260246000fd5b500490565b80820281158282048414176109d7576109d76146d8565b6020808252602b908201527f496e697469616c697a61626c653a20636f6e7472616374206973206e6f74206960408201526a6e697469616c697a696e6760a81b606082015260800190565b6001600160a01b0386811682528516602082015260a060408201819052600090614c9b90830186613fd8565b8281036060840152614cad8186613fd8565b90508281036080840152614ac68185613c0e565b600060208284031215614cd357600080fd5b81516130d781613bb7565b600060033d111561130a5760046000803e5060005160e01c90565b600060443d1015614d075790565b6040516003193d81016004833e81513d6001600160401b038160248401118184111715614d3657505050505090565b8285019150815181811115614d4e5750505050505090565b843d8701016020828501011115614d685750505050505090565b614d7760208286010187613ca1565b509095945050505050565b60208082526028908201527f455243313135353a204552433131353552656365697665722072656a656374656040820152676420746f6b656e7360c01b606082015260800190565b7f416363657373436f6e74726f6c3a206163636f756e7420000000000000000000815260008351614e02816017850160208801613bea565b7001034b99036b4b9b9b4b733903937b6329607d1b6017918401918201528351614e33816028840160208801613bea565b01602801949350505050565b6001600160a01b03868116825285166020820152604081018490526060810183905260a06080820181905260009061495890830184613c0e565b600081614e8857614e886146d8565b50600019019056fe360894a13ba1a3210667c828492db98dca3e2076cc3735a920a3ca505d382bbc416464726573733a206c6f772d6c6576656c2064656c65676174652063616c6c206661696c6564b0a2731da0d1e322a29f18fc41490da7914e8245c4e7d00155b630b2fbe50293a49807205ce4d355092ef5a8a18f56e8913cf4a201fbe287825b095693c21775a2646970667358221220cfa51a1c053341af3a691290270f41f2f7dbbbdc4353e40b522e07ec60f9882364736f6c6343000813003360a06040523060805234801561001457600080fd5b5060805161346f61004c60003960008181610978015281816109b801528181610a7201528181610ab20152610b41015261346f6000f3fe6080604052600436106102045760003560e01c80638da5cb5b11610118578063b1e5e2b7116100a0578063c87b56dd1161006f578063c87b56dd146105ed578063d547741f1461060d578063e4a4a2a31461062d578063e985e9c51461064d578063f2fde38b1461069657600080fd5b8063b1e5e2b71461056c578063b224d82b1461058c578063b88d4fde146105ad578063c4ca3a9c146105cd57600080fd5b806395d89b41116100e757806395d89b41146104e1578063a0712d68146104f6578063a217fddf14610516578063a22cb4651461052b578063b0952aff1461054b57600080fd5b80638da5cb5b146104555780638f0b7b681461047457806391d14854146104945780639254b815146104b457600080fd5b80633659cfe61161019b5780636352211e1161016a5780636352211e146103c05780636f96e99c146103e057806370a0823114610400578063715018a61461042057806388c63a571461043557600080fd5b80633659cfe61461035857806342842e0e146103785780634f1ef2861461039857806352d1902d146103ab57600080fd5b806323b872dd116101d757806323b872dd146102ba578063248a9ca3146102da5780632f2ff15d1461031857806336568abe1461033857600080fd5b806301ffc9a71461020957806306fdde031461023e578063081812fc14610260578063095ea7b314610298575b600080fd5b34801561021557600080fd5b506102296102243660046128b5565b6106b6565b60405190151581526020015b60405180910390f35b34801561024a57600080fd5b506102536106c7565b6040516102359190612922565b34801561026c57600080fd5b5061028061027b366004612935565b610759565b6040516001600160a01b039091168152602001610235565b3480156102a457600080fd5b506102b86102b3366004612963565b610780565b005b3480156102c657600080fd5b506102b86102d536600461298f565b61089a565b3480156102e657600080fd5b5061030a6102f5366004612935565b60009081526097602052604090206001015490565b604051908152602001610235565b34801561032457600080fd5b506102b86103333660046129d0565b6108cb565b34801561034457600080fd5b506102b86103533660046129d0565b6108f0565b34801561036457600080fd5b506102b8610373366004612a00565b61096e565b34801561038457600080fd5b506102b861039336600461298f565b610a4d565b6102b86103a6366004612ac0565b610a68565b3480156103b757600080fd5b5061030a610b34565b3480156103cc57600080fd5b506102806103db366004612935565b610be7565b3480156103ec57600080fd5b506102b86103fb366004612a00565b610c47565b34801561040c57600080fd5b5061030a61041b366004612a00565b610d68565b34801561042c57600080fd5b506102b8610dee565b34801561044157600080fd5b506102b8610450366004612a00565b610e02565b34801561046157600080fd5b5061012d546001600160a01b0316610280565b34801561048057600080fd5b506102b861048f366004612b78565b610f1d565b3480156104a057600080fd5b506102296104af3660046129d0565b610faf565b3480156104c057600080fd5b506104d46104cf366004612a00565b610fda565b6040516102359190612bf1565b3480156104ed57600080fd5b50610253611047565b34801561050257600080fd5b506102b8610511366004612935565b611056565b34801561052257600080fd5b5061030a600081565b34801561053757600080fd5b506102b8610546366004612c4e565b6113c3565b34801561055757600080fd5b5061016254610280906001600160a01b031681565b34801561057857600080fd5b506102b8610587366004612935565b6113ce565b34801561059857600080fd5b5061015f54610280906001600160a01b031681565b3480156105b957600080fd5b506102b86105c8366004612c7c565b61153a565b3480156105d957600080fd5b506102b86105e8366004612ce8565b611572565b3480156105f957600080fd5b50610253610608366004612935565b611613565b34801561061957600080fd5b506102b86106283660046129d0565b6116a7565b34801561063957600080fd5b506102b8610648366004612d59565b6116cc565b34801561065957600080fd5b50610229610668366004612e2a565b6001600160a01b039182166000908152606a6020908152604080832093909416825291909152205460ff1690565b3480156106a257600080fd5b506102b86106b1366004612a00565b6118c9565b60006106c18261193f565b92915050565b6060606580546106d690612e58565b80601f016020809104026020016040519081016040528092919081815260200182805461070290612e58565b801561074f5780601f106107245761010080835404028352916020019161074f565b820191906000526020600020905b81548152906001019060200180831161073257829003601f168201915b5050505050905090565b600061076482611964565b506000908152606960205260409020546001600160a01b031690565b600061078b82610be7565b9050806001600160a01b0316836001600160a01b0316036107fd5760405162461bcd60e51b815260206004820152602160248201527f4552433732313a20617070726f76616c20746f2063757272656e74206f776e656044820152603960f91b60648201526084015b60405180910390fd5b336001600160a01b038216148061081957506108198133610668565b61088b5760405162461bcd60e51b815260206004820152603d60248201527f4552433732313a20617070726f76652063616c6c6572206973206e6f7420746f60448201527f6b656e206f776e6572206f7220617070726f76656420666f7220616c6c00000060648201526084016107f4565b61089583836119c3565b505050565b6108a43382611a31565b6108c05760405162461bcd60e51b81526004016107f490612e92565b610895838383611ab0565b6000828152609760205260409020600101546108e681611c21565b6108958383611c2b565b6001600160a01b03811633146109605760405162461bcd60e51b815260206004820152602f60248201527f416363657373436f6e74726f6c3a2063616e206f6e6c792072656e6f756e636560448201526e103937b632b9903337b91039b2b63360891b60648201526084016107f4565b61096a8282611cb1565b5050565b6001600160a01b037f00000000000000000000000000000000000000000000000000000000000000001630036109b65760405162461bcd60e51b81526004016107f490612edf565b7f00000000000000000000000000000000000000000000000000000000000000006001600160a01b03166109ff6000805160206133d3833981519152546001600160a01b031690565b6001600160a01b031614610a255760405162461bcd60e51b81526004016107f490612f2b565b610a2e81611d18565b60408051600080825260208201909252610a4a91839190611d30565b50565b6108958383836040518060200160405280600081525061153a565b6001600160a01b037f0000000000000000000000000000000000000000000000000000000000000000163003610ab05760405162461bcd60e51b81526004016107f490612edf565b7f00000000000000000000000000000000000000000000000000000000000000006001600160a01b0316610af96000805160206133d3833981519152546001600160a01b031690565b6001600160a01b031614610b1f5760405162461bcd60e51b81526004016107f490612f2b565b610b2882611d18565b61096a82826001611d30565b6000306001600160a01b037f00000000000000000000000000000000000000000000000000000000000000001614610bd45760405162461bcd60e51b815260206004820152603860248201527f555550535570677261646561626c653a206d757374206e6f742062652063616c60448201527f6c6564207468726f7567682064656c656761746563616c6c000000000000000060648201526084016107f4565b506000805160206133d383398151915290565b6000818152606760205260408120546001600160a01b0316806106c15760405162461bcd60e51b8152602060048201526018602482015277115490cdcc8c4e881a5b9d985b1a59081d1bdad95b88125160421b60448201526064016107f4565b7f22c69ab406805e70d07fb1a6502af760601d3b977beadb295a9d76d5852e16a3610c7181611c21565b61015f546001600160a01b0390811690831603610d005760405162461bcd60e51b815260206004820152604160248201527f536574204e65772050617920546f6b656e3a20546865206e6577206f6e65206d60448201527f75737420626520646966666572656e742066726f6d20746865206f6c64206f6e6064820152606560f81b608482015260a4016107f4565b61015f80546001600160a01b038481166001600160a01b03198316179092556101625460408051928416808452919093166020830152917f95b51941f4e9b50395a323548e977103f9f32e909efa973665c8c2889c4e510691015b60405180910390a1505050565b60006001600160a01b038216610dd25760405162461bcd60e51b815260206004820152602960248201527f4552433732313a2061646472657373207a65726f206973206e6f7420612076616044820152683634b21037bbb732b960b91b60648201526084016107f4565b506001600160a01b031660009081526068602052604090205490565b610df6611e9b565b610e006000611ef6565b565b7f22c69ab406805e70d07fb1a6502af760601d3b977beadb295a9d76d5852e16a3610e2c81611c21565b610162546001600160a01b0390811690831603610ec25760405162461bcd60e51b815260206004820152604860248201527f536574204e6577204e4654204f70656e696e67204974656d3a20546865206e6560448201527f77206f6e65206d75737420626520646966666572656e742066726f6d20746865606482015267206f6c64206f6e6560c01b608482015260a4016107f4565b61016280546001600160a01b038481166001600160a01b031983168117909355604080519190921680825260208201939093527fcd96411d27b0679c066181f5eada6e87b37923da830ba84a40dd98933e694fe19101610d5b565b60008051602061341a833981519152610f3581611c21565b604051631ce8f7e360e11b815273__InterfaceFunction_____________________906339d1efc690610f76908a908a908a908a908a908a90600401612fc2565b60006040518083038186803b158015610f8e57600080fd5b505af4158015610fa2573d6000803e3d6000fd5b5050505050505050505050565b60009182526097602090815260408084206001600160a01b0393909316845291905290205460ff1690565b6001600160a01b0381166000908152610163602090815260409182902080548351818402810184019094528084526060939283018282801561103b57602002820191906000526020600020905b815481526020019060010190808311611027575b50505050509050919050565b6060606680546106d690612e58565b61015f5461016754604051636eb1769f60e11b8152336004820181905230602483018190526001600160a01b0390941693909290918190859063dd62ed3e90604401602060405180830381865afa1580156110b5573d6000803e3d6000fd5b505050506040513d601f19601f820116820180604052508101906110d9919061300a565b10156111275760405162461bcd60e51b815260206004820152601860248201527f4e6f7420617070726f766520656e6f75676820746f6b656e000000000000000060448201526064016107f4565b6101695442101561117a5760405162461bcd60e51b815260206004820152601d60248201527f5468652063616d7061696e2773206e6f7420737461727465642079657400000060448201526064016107f4565b61016a544211156111cd5760405162461bcd60e51b815260206004820152601c60248201527f5468652063616d706169676e277320616c726561647920656e6465640000000060448201526064016107f4565b61016654610168541061120d5760405162461bcd60e51b815260206004820152600860248201526714dbdb19081bdd5d60c21b60448201526064016107f4565b6101655460009060ff16611293576000868152606760205260409020546001600160a01b03161561128c5760405162461bcd60e51b815260206004820152602360248201527f4d696e7420426f783a20746f6b656e4964277320616c726561647920657869736044820152621d195960ea1b60648201526084016107f4565b50846112a8565b6112a261016180546001019055565b50610161545b61015f54610167546040516323b872dd60e01b815233600482015230602482015260448101919091526001600160a01b03909116906323b872dd906064016020604051808303816000875af1158015611305573d6000803e3d6000fd5b505050506040513d601f19601f820116820180604052508101906113299190613023565b506113343382611f49565b600161016860008282546113489190613056565b909155505033600081815261016360209081526040808320805460018101825590845282842001859055848352610164825291829020805460ff19169055815192835282018390527ffc12685c49cfeb42745015fd291b95815c183f87696b74009c88ed640a03b247910160405180910390a1505050505050565b61096a3383836120e2565b336113d882610be7565b6001600160a01b03161461142e5760405162461bcd60e51b815260206004820152601b60248201527f596f7520646964206e6f74206f776e65642074686520746f6b656e000000000060448201526064016107f4565b6000818152610164602052604090205460ff16156114855760405162461bcd60e51b8152602060048201526014602482015273109bde09dcc8185b1c9958591e481bdc195b995960621b60448201526064016107f4565b61016254604051636918c75760e11b81523360048201526001600160a01b039091169063d2318eae90602401600060405180830381600087803b1580156114cb57600080fd5b505af11580156114df573d6000803e3d6000fd5b50505060008281526101646020908152604091829020805460ff1916600117905581513381529081018490527f985873858e85c45546ea9ae9a4f36f740f1654da6c06d25bd88e3a1307ed22df92500160405180910390a150565b6115443383611a31565b6115605760405162461bcd60e51b81526004016107f490612e92565b61156c848484846121b0565b50505050565b60008051602061341a83398151915261158a81611c21565b604051637a17125960e01b815273__InterfaceFunction_____________________90637a171259906115c99089908990899089908990600401613069565b602060405180830381865af41580156115e6573d6000803e3d6000fd5b505050506040513d601f19601f8201168201806040525081019061160a919061300a565b50505050505050565b606061161e82611964565b610160805461162c90612e58565b80601f016020809104026020016040519081016040528092919081815260200182805461165890612e58565b801561103b5780601f1061167a5761010080835404028352916020019161103b565b820191906000526020600020905b8154815290600101906020018083116116885750939695505050505050565b6000828152609760205260409020600101546116c281611c21565b6108958383611cb1565b600054610100900460ff16158080156116ec5750600054600160ff909116105b806117065750303b158015611706575060005460ff166001145b6117695760405162461bcd60e51b815260206004820152602e60248201527f496e697469616c697a61626c653a20636f6e747261637420697320616c72656160448201526d191e481a5b9a5d1a585b1a5e995960921b60648201526084016107f4565b6000805460ff19166001179055801561178c576000805461ff0019166101001790555b61015f80546001600160a01b0319166001600160a01b038b161790556101606117b58b826130f8565b5061016986905561016a859055610165805460ff19168515151790556101668390556101678290556117e788886121e3565b6117ef612214565b6117f7612214565b61180032611ef6565b61180b60003261223b565b61182360008051602061341a8339815191523261223b565b61184d7f22c69ab406805e70d07fb1a6502af760601d3b977beadb295a9d76d5852e16a33261223b565b6118777f5d8e12c39142ff96d79d04d15d1ba1269e4fe57bb9d26f43523628b34ba108ec3261223b565b80156118bd576000805461ff0019169055604051600181527f7f26b83ff96e1f2b6a682f133852f6798a09c465da95921460cefb38474024989060200160405180910390a15b50505050505050505050565b6118d1611e9b565b6001600160a01b0381166119365760405162461bcd60e51b815260206004820152602660248201527f4f776e61626c653a206e6577206f776e657220697320746865207a65726f206160448201526564647265737360d01b60648201526084016107f4565b610a4a81611ef6565b60006001600160e01b03198216637965db0b60e01b14806106c157506106c182612245565b6000818152606760205260409020546001600160a01b0316610a4a5760405162461bcd60e51b8152602060048201526018602482015277115490cdcc8c4e881a5b9d985b1a59081d1bdad95b88125160421b60448201526064016107f4565b600081815260696020526040902080546001600160a01b0319166001600160a01b03841690811790915581906119f882610be7565b6001600160a01b03167f8c5be1e5ebec7d5bd14f71427d1e84f3dd0314c0f7b2291e5b200ac8c7c3b92560405160405180910390a45050565b600080611a3d83610be7565b9050806001600160a01b0316846001600160a01b03161480611a8457506001600160a01b038082166000908152606a602090815260408083209388168352929052205460ff165b80611aa85750836001600160a01b0316611a9d84610759565b6001600160a01b0316145b949350505050565b826001600160a01b0316611ac382610be7565b6001600160a01b031614611ae95760405162461bcd60e51b81526004016107f4906131b8565b6001600160a01b038216611b4b5760405162461bcd60e51b8152602060048201526024808201527f4552433732313a207472616e7366657220746f20746865207a65726f206164646044820152637265737360e01b60648201526084016107f4565b611b588383836001612295565b826001600160a01b0316611b6b82610be7565b6001600160a01b031614611b915760405162461bcd60e51b81526004016107f4906131b8565b600081815260696020908152604080832080546001600160a01b03199081169091556001600160a01b0387811680865260688552838620805460001901905590871680865283862080546001019055868652606790945282852080549092168417909155905184937fddf252ad1be2c89b69c2b068fc378daa952ba7f163c4a11628f55a4df523b3ef91a4505050565b610a4a813361231d565b611c358282610faf565b61096a5760008281526097602090815260408083206001600160a01b03851684529091529020805460ff19166001179055611c6d3390565b6001600160a01b0316816001600160a01b0316837f2f8788117e7eff1d82e926ec794901d17c78024a50270940304540a733656f0d60405160405180910390a45050565b611cbb8282610faf565b1561096a5760008281526097602090815260408083206001600160a01b0385168085529252808320805460ff1916905551339285917ff6391f5c32d9c69d2a47ea670b442974b53935d1edc7fd64eb21e047a839171b9190a45050565b60008051602061341a83398151915261096a81611c21565b7f4910fdfa16fed3260ed0e7147f7cc6da11a60208b5b9406d12a635614ffd91435460ff1615611d635761089583612376565b826001600160a01b03166352d1902d6040518163ffffffff1660e01b8152600401602060405180830381865afa925050508015611dbd575060408051601f3d908101601f19168201909252611dba9181019061300a565b60015b611e205760405162461bcd60e51b815260206004820152602e60248201527f45524331393637557067726164653a206e657720696d706c656d656e7461746960448201526d6f6e206973206e6f74205555505360901b60648201526084016107f4565b6000805160206133d38339815191528114611e8f5760405162461bcd60e51b815260206004820152602960248201527f45524331393637557067726164653a20756e737570706f727465642070726f786044820152681a58589b195555525160ba1b60648201526084016107f4565b50610895838383612412565b61012d546001600160a01b03163314610e005760405162461bcd60e51b815260206004820181905260248201527f4f776e61626c653a2063616c6c6572206973206e6f7420746865206f776e657260448201526064016107f4565b61012d80546001600160a01b038381166001600160a01b0319831681179093556040519116919082907f8be0079c531659141344cd1fd0a4f28419497f9722a3daafe3b4186f6b6457e090600090a35050565b6001600160a01b038216611f9f5760405162461bcd60e51b815260206004820181905260248201527f4552433732313a206d696e7420746f20746865207a65726f206164647265737360448201526064016107f4565b6000818152606760205260409020546001600160a01b0316156120045760405162461bcd60e51b815260206004820152601c60248201527f4552433732313a20746f6b656e20616c7265616479206d696e7465640000000060448201526064016107f4565b612012600083836001612295565b6000818152606760205260409020546001600160a01b0316156120775760405162461bcd60e51b815260206004820152601c60248201527f4552433732313a20746f6b656e20616c7265616479206d696e7465640000000060448201526064016107f4565b6001600160a01b038216600081815260686020908152604080832080546001019055848352606790915280822080546001600160a01b0319168417905551839291907fddf252ad1be2c89b69c2b068fc378daa952ba7f163c4a11628f55a4df523b3ef908290a45050565b816001600160a01b0316836001600160a01b0316036121435760405162461bcd60e51b815260206004820152601960248201527f4552433732313a20617070726f766520746f2063616c6c65720000000000000060448201526064016107f4565b6001600160a01b038381166000818152606a6020908152604080832094871680845294825291829020805460ff191686151590811790915591519182527f17307eab39ab6107e8899845ad3d59bd9653f200f220920489ca2b5937696c31910160405180910390a3505050565b6121bb848484611ab0565b6121c784848484612437565b61156c5760405162461bcd60e51b81526004016107f4906131fd565b600054610100900460ff1661220a5760405162461bcd60e51b81526004016107f49061324f565b61096a8282612538565b600054610100900460ff16610e005760405162461bcd60e51b81526004016107f49061324f565b61096a8282611c2b565b60006001600160e01b031982166380ac58cd60e01b148061227657506001600160e01b03198216635b5e139f60e01b145b806106c157506301ffc9a760e01b6001600160e01b03198316146106c1565b600181111561156c576001600160a01b038416156122db576001600160a01b038416600090815260686020526040812080548392906122d590849061329a565b90915550505b6001600160a01b0383161561156c576001600160a01b03831660009081526068602052604081208054839290612312908490613056565b909155505050505050565b6123278282610faf565b61096a5761233481612578565b61233f83602061258a565b6040516020016123509291906132ad565b60408051601f198184030181529082905262461bcd60e51b82526107f491600401612922565b6001600160a01b0381163b6123e35760405162461bcd60e51b815260206004820152602d60248201527f455243313936373a206e657720696d706c656d656e746174696f6e206973206e60448201526c1bdd08184818dbdb9d1c9858dd609a1b60648201526084016107f4565b6000805160206133d383398151915280546001600160a01b0319166001600160a01b0392909216919091179055565b61241b8361272d565b6000825111806124285750805b156108955761156c838361276d565b60006001600160a01b0384163b1561252d57604051630a85bd0160e11b81526001600160a01b0385169063150b7a029061247b903390899088908890600401613322565b6020604051808303816000875af19250505080156124b6575060408051601f3d908101601f191682019092526124b391810190613355565b60015b612513573d8080156124e4576040519150601f19603f3d011682016040523d82523d6000602084013e6124e9565b606091505b50805160000361250b5760405162461bcd60e51b81526004016107f4906131fd565b805181602001fd5b6001600160e01b031916630a85bd0160e11b149050611aa8565b506001949350505050565b600054610100900460ff1661255f5760405162461bcd60e51b81526004016107f49061324f565b606561256b83826130f8565b50606661089582826130f8565b60606106c16001600160a01b03831660145b60606000612599836002613372565b6125a4906002613056565b67ffffffffffffffff8111156125bc576125bc612a1d565b6040519080825280601f01601f1916602001820160405280156125e6576020820181803683370190505b509050600360fc1b8160008151811061260157612601613389565b60200101906001600160f81b031916908160001a905350600f60fb1b8160018151811061263057612630613389565b60200101906001600160f81b031916908160001a9053506000612654846002613372565b61265f906001613056565b90505b60018111156126d7576f181899199a1a9b1b9c1cb0b131b232b360811b85600f166010811061269357612693613389565b1a60f81b8282815181106126a9576126a9613389565b60200101906001600160f81b031916908160001a90535060049490941c936126d08161339f565b9050612662565b5083156127265760405162461bcd60e51b815260206004820181905260248201527f537472696e67733a20686578206c656e67746820696e73756666696369656e7460448201526064016107f4565b9392505050565b61273681612376565b6040516001600160a01b038216907fbc7cd75a20ee27fd9adebab32041f755214dbc6bffa90cc0225b39da2e5c2d3b90600090a250565b60606001600160a01b0383163b6127d55760405162461bcd60e51b815260206004820152602660248201527f416464726573733a2064656c65676174652063616c6c20746f206e6f6e2d636f6044820152651b9d1c9858dd60d21b60648201526084016107f4565b600080846001600160a01b0316846040516127f091906133b6565b600060405180830381855af49150503d806000811461282b576040519150601f19603f3d011682016040523d82523d6000602084013e612830565b606091505b509150915061285882826040518060600160405280602781526020016133f360279139612861565b95945050505050565b60608315612870575081612726565b61272683838151156128855781518083602001fd5b8060405162461bcd60e51b81526004016107f49190612922565b6001600160e01b031981168114610a4a57600080fd5b6000602082840312156128c757600080fd5b81356127268161289f565b60005b838110156128ed5781810151838201526020016128d5565b50506000910152565b6000815180845261290e8160208601602086016128d2565b601f01601f19169290920160200192915050565b60208152600061272660208301846128f6565b60006020828403121561294757600080fd5b5035919050565b6001600160a01b0381168114610a4a57600080fd5b6000806040838503121561297657600080fd5b82356129818161294e565b946020939093013593505050565b6000806000606084860312156129a457600080fd5b83356129af8161294e565b925060208401356129bf8161294e565b929592945050506040919091013590565b600080604083850312156129e357600080fd5b8235915060208301356129f58161294e565b809150509250929050565b600060208284031215612a1257600080fd5b81356127268161294e565b634e487b7160e01b600052604160045260246000fd5b600082601f830112612a4457600080fd5b813567ffffffffffffffff80821115612a5f57612a5f612a1d565b604051601f8301601f19908116603f01168101908282118183101715612a8757612a87612a1d565b81604052838152866020858801011115612aa057600080fd5b836020870160208301376000602085830101528094505050505092915050565b60008060408385031215612ad357600080fd5b8235612ade8161294e565b9150602083013567ffffffffffffffff811115612afa57600080fd5b612b0685828601612a33565b9150509250929050565b8035612b1b8161294e565b919050565b60008083601f840112612b3257600080fd5b50813567ffffffffffffffff811115612b4a57600080fd5b602083019150836020828501011115612b6257600080fd5b9250929050565b803560028110612b1b57600080fd5b60008060008060008060a08789031215612b9157600080fd5b8635612b9c8161294e565b95506020870135945060408701359350606087013567ffffffffffffffff811115612bc657600080fd5b612bd289828a01612b20565b9094509250612be5905060808801612b69565b90509295509295509295565b6020808252825182820181905260009190848201906040850190845b81811015612c2957835183529284019291840191600101612c0d565b50909695505050505050565b8015158114610a4a57600080fd5b8035612b1b81612c35565b60008060408385031215612c6157600080fd5b8235612c6c8161294e565b915060208301356129f581612c35565b60008060008060808587031215612c9257600080fd5b8435612c9d8161294e565b93506020850135612cad8161294e565b925060408501359150606085013567ffffffffffffffff811115612cd057600080fd5b612cdc87828801612a33565b91505092959194509250565b600080600080600060808688031215612d0057600080fd5b8535612d0b8161294e565b945060208601359350604086013567ffffffffffffffff811115612d2e57600080fd5b612d3a88828901612b20565b9094509250612d4d905060608701612b69565b90509295509295909350565b60008060008060008060008060006101208a8c031215612d7857600080fd5b893567ffffffffffffffff80821115612d9057600080fd5b612d9c8d838e01612a33565b9a50612daa60208d01612b10565b995060408c0135915080821115612dc057600080fd5b612dcc8d838e01612a33565b985060608c0135915080821115612de257600080fd5b50612def8c828d01612a33565b96505060808a0135945060a08a01359350612e0c60c08b01612c43565b925060e08a013591506101008a013590509295985092959850929598565b60008060408385031215612e3d57600080fd5b8235612e488161294e565b915060208301356129f58161294e565b600181811c90821680612e6c57607f821691505b602082108103612e8c57634e487b7160e01b600052602260045260246000fd5b50919050565b6020808252602d908201527f4552433732313a2063616c6c6572206973206e6f7420746f6b656e206f776e6560408201526c1c881bdc88185c1c1c9bdd9959609a1b606082015260800190565b6020808252602c908201527f46756e6374696f6e206d7573742062652063616c6c6564207468726f7567682060408201526b19195b1959d85d1958d85b1b60a21b606082015260800190565b6020808252602c908201527f46756e6374696f6e206d7573742062652063616c6c6564207468726f7567682060408201526b6163746976652070726f787960a01b606082015260800190565b81835281816020850137506000828201602090810191909152601f909101601f19169091010190565b60028110612fbe57634e487b7160e01b600052602160045260246000fd5b9052565b60018060a01b038716815285602082015284604082015260a060608201526000612ff060a083018587612f77565b9050612fff6080830184612fa0565b979650505050505050565b60006020828403121561301c57600080fd5b5051919050565b60006020828403121561303557600080fd5b815161272681612c35565b634e487b7160e01b600052601160045260246000fd5b808201808211156106c1576106c1613040565b60018060a01b0386168152846020820152608060408201526000613091608083018587612f77565b90506130a06060830184612fa0565b9695505050505050565b601f82111561089557600081815260208120601f850160051c810160208610156130d15750805b601f850160051c820191505b818110156130f0578281556001016130dd565b505050505050565b815167ffffffffffffffff81111561311257613112612a1d565b613126816131208454612e58565b846130aa565b602080601f83116001811461315b57600084156131435750858301515b600019600386901b1c1916600185901b1785556130f0565b600085815260208120601f198616915b8281101561318a5788860151825594840194600190910190840161316b565b50858210156131a85787850151600019600388901b60f8161c191681555b5050505050600190811b01905550565b60208082526025908201527f4552433732313a207472616e736665722066726f6d20696e636f72726563742060408201526437bbb732b960d91b606082015260800190565b60208082526032908201527f4552433732313a207472616e7366657220746f206e6f6e20455243373231526560408201527131b2b4bb32b91034b6b83632b6b2b73a32b960711b606082015260800190565b6020808252602b908201527f496e697469616c697a61626c653a20636f6e7472616374206973206e6f74206960408201526a6e697469616c697a696e6760a81b606082015260800190565b818103818111156106c1576106c1613040565b7f416363657373436f6e74726f6c3a206163636f756e74200000000000000000008152600083516132e58160178501602088016128d2565b7001034b99036b4b9b9b4b733903937b6329607d1b60179184019182015283516133168160288401602088016128d2565b01602801949350505050565b6001600160a01b03858116825284166020820152604081018390526080606082018190526000906130a0908301846128f6565b60006020828403121561336757600080fd5b81516127268161289f565b80820281158282048414176106c1576106c1613040565b634e487b7160e01b600052603260045260246000fd5b6000816133ae576133ae613040565b506000190190565b600082516133c88184602087016128d2565b919091019291505056fe360894a13ba1a3210667c828492db98dca3e2076cc3735a920a3ca505d382bbc416464726573733a206c6f772d6c6576656c2064656c65676174652063616c6c206661696c6564a49807205ce4d355092ef5a8a18f56e8913cf4a201fbe287825b095693c21775a26469706673582212207989237e2b0b8aa34aa0b65d3d4e919c31666431062113121f3ea91e8662314e64736f6c63430008130033",
  "immutableReferences": {},
  "source": "// SPDX-License-Identifier: MIT\npragma solidity ^0.8.2;\n\nimport \"@openzeppelin/contracts/token/ERC20/IERC20.sol\";\nimport \"@openzeppelin/contracts/access/AccessControl.sol\";\nimport {Clones} from \"@openzeppelin/contracts/proxy/Clones.sol\";\nimport \"@openzeppelin/contracts/utils/structs/EnumerableSet.sol\";\n\nimport \"./campaignNFT/InzCampaignTypesNFT1155.sol\";\nimport \"./campaignNFT/InzCampaignTypesNFT721.sol\";\nimport \"./campaignBOX/InZBoxCampaign.sol\";\nimport \"./libraries/InZNFTTypeDetail.sol\";\nimport \"./interfaces/IConfiguration.sol\";\n\ncontract InZCampaignFactory is AccessControl {\n    using EnumerableSet for EnumerableSet.AddressSet;\n\n    /**\n     *          Constant\n     */\n    uint8 internal constant STANDARD_ID_ERC721 = 1;\n    uint8 internal constant STANDARD_ID_ERC1155 = 2;\n\n    /**\n     *          Event Definitions\n     */\n    event NewNFT(\n        uint8 startdardId,\n        address campaignAddress,\n        address campaignPaymentAddress,\n        InZNFTTypeDetail.NFTTypeDetail[] nftTypesDetail,\n        IERC20 coinToken,\n        string symbol,\n        string name,\n        address adminAddress\n    );\n\n    event NewBox(\n        address newBoxAddress,\n        string uri,\n        address payToken,\n        string name,\n        string symbol,\n        uint256 startTime,\n        uint256 endTime,\n        bool isAutoIncreaseId,\n        uint256 totalSupply,\n        uint256 price\n    );\n\n    event SetConfiguration(address newConfiguration);\n\n    /**\n     *          Storage data declarations\n     */\n    bytes32 public constant ADMIN_ROLE = keccak256(\"ADMIN_ROLE\");\n\n    // InZCampaigns Address list\n    address[] public inZNftCampaignsAddress;\n    address[] public inZBoxCampaignsAddress;\n\n    // marketplace address\n    address public marketAddress;\n\n    // implementAddress for NFT\n    address public nftImplementationAddressERC721;\n    address public nftImplementationAddressERC1155;\n\n    // Mapping standardId to list campaign NFT address\n    mapping(uint8 => address[]) internal standardIds;\n\n    // List of NFT collections\n    EnumerableSet.AddressSet private nftCollectionsList;\n\n    // Mapping campaign NFT address to standardId\n    mapping(address => uint8) internal standard;\n\n    // implementation of BOX\n    address public boxImplementationAddress;\n\n    // Wrapper Creator address: using for calling from dapp\n    address public dappCreatorAddress;\n\n    // This contract config metadata for all collections\n    IConfiguration public nftConfiguration;\n\n    /**\n     *          Contructor of the contract\n     */\n    constructor(IConfiguration _nftConfiguration) {\n        nftConfiguration = _nftConfiguration;\n        nftImplementationAddressERC721 = address(new InzCampaignTypesNFT721());\n        nftImplementationAddressERC1155 = address(\n            new InzCampaignTypesNFT1155()\n        );\n        boxImplementationAddress = address(new InZBoxCampaign());\n\n        _setupRole(ADMIN_ROLE, msg.sender);\n        _setupRole(DEFAULT_ADMIN_ROLE, msg.sender);\n    }\n\n    /**\n     * Create instance of InZCampaign;\n     * @param _standardId support start ERC721 && ERC1155(1: ERC721, 2: ERC1155)\n     * @param _campaignPaymentAddress payment address to receive coinToken when nft have sold\n     * @param _coinToken currency that KOLs want to sell nft campaign\n     * @param _symbol symbol of this campaign\n     * @param _name name of this campaign\n     * @param _nftTypesDetail nft type detail\n     */\n    function createCampaign(\n        uint8 _standardId,\n        address _campaignPaymentAddress,\n        string memory _baseMetadataUri,\n        IERC20 _coinToken,\n        string memory _symbol,\n        string memory _name,\n        InZNFTTypeDetail.NFTTypeDetail[] memory _nftTypesDetail\n    ) external onlyRole(ADMIN_ROLE) {\n        require(\n            _standardId == STANDARD_ID_ERC721 ||\n                _standardId == STANDARD_ID_ERC1155,\n            \"standardId not support\"\n        );\n        address campaign;\n        if (_standardId == STANDARD_ID_ERC721) {\n            // ERC721\n            campaign = Clones.clone(nftImplementationAddressERC721);\n            InzCampaignTypesNFT721(campaign).initialize(\n                marketAddress,\n                _campaignPaymentAddress,\n                _coinToken,\n                _symbol,\n                _name,\n                msg.sender,\n                address(this)\n            );\n            standardIds[STANDARD_ID_ERC721].push(address(campaign));\n            standard[address(campaign)] = STANDARD_ID_ERC721;\n\n            // Call to config the default royalty fee rate\n            // ICollection(campaign).configRoyalty(\n            //     _treasuryAddress,\n            //     _royaltyRate\n            // );\n\n            // Add new collection to configuration\n            nftConfiguration.InsertNewCollectionAddress(campaign);\n            nftCollectionsList.add(campaign);\n\n            // Config prices\n            for (uint i = 0; i < _nftTypesDetail.length; i++) {\n                _configOneCollection(\n                    campaign,\n                    _nftTypesDetail[i].nftType,\n                    _nftTypesDetail[i].price,\n                    _nftTypesDetail[i].totalSupply,\n                    _baseMetadataUri,\n                    msg.sender,\n                    address(_coinToken)\n                );\n            }\n        } else {\n            // ERC1155\n            bool _isFixedTokenId = false;\n            uint256 _nftTotalSupply = 1000;\n            campaign = Clones.clone(nftImplementationAddressERC1155);\n            InzCampaignTypesNFT1155(campaign).initialize(\n                marketAddress,\n                _baseMetadataUri,\n                _campaignPaymentAddress,\n                _isFixedTokenId,\n                _coinToken,\n                _symbol,\n                _name,\n                msg.sender,\n                _nftTypesDetail,\n                _nftTotalSupply\n            );\n            standardIds[STANDARD_ID_ERC1155].push(address(campaign));\n            standard[address(campaign)] = STANDARD_ID_ERC1155;\n        }\n\n        inZNftCampaignsAddress.push(address(campaign));\n\n        emit NewNFT(\n            _standardId,\n            address(campaign),\n            _campaignPaymentAddress,\n            _nftTypesDetail,\n            _coinToken,\n            _symbol,\n            _name,\n            msg.sender\n        );\n    }\n\n    /**\n     *  @notice Create Mystery Box\n     *\n     */\n    function createBox(\n        string memory _boxUri,\n        IERC20 _payToken,\n        string memory _name,\n        string memory _symbol,\n        uint256 _startTime,\n        uint256 _endTime,\n        bool _isAutoIncreaseId,\n        uint256 _totalSupply,\n        uint256 _price\n    ) external onlyRole(ADMIN_ROLE) {\n        address clone = Clones.clone(boxImplementationAddress);\n        InZBoxCampaign(clone).initialize(\n            _boxUri,\n            _payToken,\n            _name,\n            _symbol,\n            _startTime,\n            _endTime,\n            _isAutoIncreaseId,\n            _totalSupply,\n            _price\n        );\n        inZBoxCampaignsAddress.push(address(clone));\n        emit NewBox(\n            address(clone),\n            _boxUri,\n            address(_payToken),\n            _name,\n            _symbol,\n            _startTime,\n            _endTime,\n            _isAutoIncreaseId,\n            _totalSupply,\n            _price\n        );\n    }\n\n    /*\n       @dev: Set new configuration\n       @param {address} _address - This is address of new configuration\n    */\n    function setConfiguration(\n        IConfiguration _nftConfiguration\n    ) external onlyRole(ADMIN_ROLE) {\n        require(\n            address(_nftConfiguration) != address(0x0),\n            \"Address of configuration must be required.\"\n        );\n        nftConfiguration = _nftConfiguration;\n        emit SetConfiguration(address(_nftConfiguration));\n    }\n\n    /**\n     *      Config collection\n     */\n    function configCollection(\n        address _collectionAddress,\n        uint8 _nftType,\n        uint256 _price,\n        uint256 _totalSupply,\n        string memory _baseMetadataUri,\n        address _payToken\n    ) external onlyRole(ADMIN_ROLE) {\n        _configOneCollection(\n            _collectionAddress,\n            _nftType,\n            _price,\n            _totalSupply,\n            _baseMetadataUri,\n            msg.sender,\n            _payToken\n        );\n    }\n\n    function _configOneCollection(\n        address _collectionAddress,\n        uint8 _nftType,\n        uint256 _price,\n        uint256 _totalSupply,\n        string memory _baseMetadataUri,\n        address _creatorAddress,\n        address _payToken\n    ) internal {\n        nftConfiguration.configCollection(\n            _collectionAddress,\n            _nftType,\n            _price,\n            _totalSupply,\n            _baseMetadataUri,\n            _creatorAddress,\n            _payToken\n        );\n    }\n\n    /**\n     *      Config collection\n     */\n    function configNftCollectionURI(\n        address _collectionAddress,\n        string memory _baseMetadataUri\n    ) external onlyRole(ADMIN_ROLE) {\n        nftConfiguration.configCollectionURI(\n            _collectionAddress,\n            _baseMetadataUri\n        );\n    }\n\n    function updateNftConfigContract(\n        address _nftFactory,\n        address _dappCreator,\n        address _treasury\n    ) external onlyRole(ADMIN_ROLE) {\n        nftConfiguration.updateConfigContract(\n            _nftFactory,\n            _dappCreator,\n            _treasury\n        );\n    }\n\n    // function grantRoles(address _contract, )\n\n    /**\n     *              INHERITANCE FUNCTIONS\n     */\n    function supportsInterface(\n        bytes4 interfaceId\n    ) public view override(AccessControl) returns (bool) {\n        return super.supportsInterface(interfaceId);\n    }\n\n    /**\n     *              GETTERS\n     */\n    function getAllNFTCampaign()\n        external\n        view\n        onlyRole(ADMIN_ROLE)\n        returns (address[] memory)\n    {\n        return inZNftCampaignsAddress;\n    }\n\n    function getAllBoxCampaign()\n        external\n        view\n        onlyRole(ADMIN_ROLE)\n        returns (address[] memory)\n    {\n        return inZBoxCampaignsAddress;\n    }\n\n    /**\n     *              Get list campaign NFT address by standardId\n     */\n    function getNFTCampaignsByStandardId(\n        uint8 _standardId\n    ) external view onlyRole(ADMIN_ROLE) returns (address[] memory) {\n        return standardIds[_standardId];\n    }\n\n    /**\n     *              Get standardId by campaign NFT address\n     */\n    function getStandardIdByCampaign(\n        address _campaignAddress\n    ) external view onlyRole(ADMIN_ROLE) returns (uint8) {\n        return standard[_campaignAddress];\n    }\n\n    /// Getters\n    function getCurrentDappCreatorAddress() external view returns (address) {\n        return nftConfiguration.getNftCreator();\n    }\n\n    /**\n     *  @notice Function allows to get the current Nft Configurations\n     */\n    function getCurrentConfiguration() external view returns (address) {\n        return address(nftConfiguration);\n    }\n\n    function getCollectionAddress(\n        uint256 index\n    ) external view returns (address) {\n        return nftCollectionsList.at(index);\n    }\n\n    function isValidNftCollection(\n        address _nftCollection\n    ) external view returns (bool) {\n        return nftCollectionsList.contains(_nftCollection);\n    }\n\n    /**\n     *              SETTERS\n     */\n}\n",
  "sourcePath": "/Users/huy8bit/Desktop/DRIVE/JOB/ATOM SOLUTION/TASK/inz-dapp-api/dev/inz-smc/contracts/minting/InZCampaignFactory.sol",
  "compiler": {
    "name": "solc",
    "version": "0.8.19+commit.7dd6d404.Emscripten.clang"
  },
  "schemaVersion": "3.4.14",
  "updatedAt": "2023-08-28T08:29:31.927Z",
  "networkType": "ethereum",
  "devdoc": {
    "events": {
      "RoleAdminChanged(bytes32,bytes32,bytes32)": {
        "details": "Emitted when `newAdminRole` is set as ``role``'s admin role, replacing `previousAdminRole` `DEFAULT_ADMIN_ROLE` is the starting admin for all roles, despite {RoleAdminChanged} not being emitted signaling this. _Available since v3.1._"
      },
      "RoleGranted(bytes32,address,address)": {
        "details": "Emitted when `account` is granted `role`. `sender` is the account that originated the contract call, an admin role bearer except when using {AccessControl-_setupRole}."
      },
      "RoleRevoked(bytes32,address,address)": {
        "details": "Emitted when `account` is revoked `role`. `sender` is the account that originated the contract call:   - if using `revokeRole`, it is the admin role bearer   - if using `renounceRole`, it is the role bearer (i.e. `account`)"
      }
    },
    "kind": "dev",
    "methods": {
      "createCampaign(uint8,address,string,address,string,string,(uint8,uint256,uint256)[])": {
        "params": {
          "_campaignPaymentAddress": "payment address to receive coinToken when nft have sold",
          "_coinToken": "currency that KOLs want to sell nft campaign",
          "_name": "name of this campaign",
          "_nftTypesDetail": "nft type detail",
          "_standardId": "support start ERC721 && ERC1155(1: ERC721, 2: ERC1155)",
          "_symbol": "symbol of this campaign"
        }
      },
      "getRoleAdmin(bytes32)": {
        "details": "Returns the admin role that controls `role`. See {grantRole} and {revokeRole}. To change a role's admin, use {_setRoleAdmin}."
      },
      "grantRole(bytes32,address)": {
        "details": "Grants `role` to `account`. If `account` had not been already granted `role`, emits a {RoleGranted} event. Requirements: - the caller must have ``role``'s admin role. May emit a {RoleGranted} event."
      },
      "hasRole(bytes32,address)": {
        "details": "Returns `true` if `account` has been granted `role`."
      },
      "renounceRole(bytes32,address)": {
        "details": "Revokes `role` from the calling account. Roles are often managed via {grantRole} and {revokeRole}: this function's purpose is to provide a mechanism for accounts to lose their privileges if they are compromised (such as when a trusted device is misplaced). If the calling account had been revoked `role`, emits a {RoleRevoked} event. Requirements: - the caller must be `account`. May emit a {RoleRevoked} event."
      },
      "revokeRole(bytes32,address)": {
        "details": "Revokes `role` from `account`. If `account` had been granted `role`, emits a {RoleRevoked} event. Requirements: - the caller must have ``role``'s admin role. May emit a {RoleRevoked} event."
      }
    },
    "version": 1
  },
  "userdoc": {
    "events": {
      "NewNFT(uint8,address,address,(uint8,uint256,uint256)[],address,string,string,address)": {
        "notice": "Event Definitions"
      }
    },
    "kind": "user",
    "methods": {
      "ADMIN_ROLE()": {
        "notice": "Storage data declarations"
      },
      "configCollection(address,uint8,uint256,uint256,string,address)": {
        "notice": "Config collection"
      },
      "configNftCollectionURI(address,string)": {
        "notice": "Config collection"
      },
      "constructor": {
        "notice": "Contructor of the contract"
      },
      "createBox(string,address,string,string,uint256,uint256,bool,uint256,uint256)": {
        "notice": "Create Mystery Box"
      },
      "createCampaign(uint8,address,string,address,string,string,(uint8,uint256,uint256)[])": {
        "notice": "Create instance of InZCampaign;"
      },
      "getAllNFTCampaign()": {
        "notice": "GETTERS"
      },
      "getCurrentConfiguration()": {
        "notice": "Function allows to get the current Nft Configurations"
      },
      "getCurrentDappCreatorAddress()": {
        "notice": "Getters"
      },
      "getNFTCampaignsByStandardId(uint8)": {
        "notice": "Get list campaign NFT address by standardId"
      },
      "getStandardIdByCampaign(address)": {
        "notice": "Get standardId by campaign NFT address"
      },
      "supportsInterface(bytes4)": {
        "notice": "INHERITANCE FUNCTIONS"
      }
    },
    "version": 1
  }
}