{
  "contractName": "InzCampaignTypesNFT1155",
  "abi": [
    {
      "anonymous": false,
      "inputs": [
        {
          "indexed": false,
          "internalType": "address",
          "name": "to",
          "type": "address"
        },
        {
          "indexed": false,
          "internalType": "uint256",
          "name": "tokenId",
          "type": "uint256"
        },
        {
          "indexed": false,
          "internalType": "uint8",
          "name": "tokenType",
          "type": "uint8"
        },
        {
          "indexed": false,
          "internalType": "string",
          "name": "uri",
          "type": "string"
        },
        {
          "indexed": false,
          "internalType": "string",
          "name": "giftCode",
          "type": "string"
        }
      ],
      "name": "ActiveGiftCode",
      "type": "event"
    },
    {
      "anonymous": false,
      "inputs": [
        {
          "indexed": false,
          "internalType": "uint8",
          "name": "tokenType",
          "type": "uint8"
        },
        {
          "indexed": false,
          "internalType": "uint256",
          "name": "totalSupply",
          "type": "uint256"
        },
        {
          "indexed": false,
          "internalType": "uint256",
          "name": "price",
          "type": "uint256"
        }
      ],
      "name": "AddNftType",
      "type": "event"
    },
    {
      "anonymous": false,
      "inputs": [
        {
          "indexed": false,
          "internalType": "address",
          "name": "previousAdmin",
          "type": "address"
        },
        {
          "indexed": false,
          "internalType": "address",
          "name": "newAdmin",
          "type": "address"
        }
      ],
      "name": "AdminChanged",
      "type": "event"
    },
    {
      "anonymous": false,
      "inputs": [
        {
          "indexed": true,
          "internalType": "address",
          "name": "account",
          "type": "address"
        },
        {
          "indexed": true,
          "internalType": "address",
          "name": "operator",
          "type": "address"
        },
        {
          "indexed": false,
          "internalType": "bool",
          "name": "approved",
          "type": "bool"
        }
      ],
      "name": "ApprovalForAll",
      "type": "event"
    },
    {
      "anonymous": false,
      "inputs": [
        {
          "indexed": true,
          "internalType": "address",
          "name": "beacon",
          "type": "address"
        }
      ],
      "name": "BeaconUpgraded",
      "type": "event"
    },
    {
      "anonymous": false,
      "inputs": [
        {
          "indexed": false,
          "internalType": "uint8",
          "name": "version",
          "type": "uint8"
        }
      ],
      "name": "Initialized",
      "type": "event"
    },
    {
      "anonymous": false,
      "inputs": [
        {
          "indexed": false,
          "internalType": "address",
          "name": "to",
          "type": "address"
        },
        {
          "indexed": false,
          "internalType": "uint256",
          "name": "tokenId",
          "type": "uint256"
        },
        {
          "indexed": false,
          "internalType": "uint8",
          "name": "tokenType",
          "type": "uint8"
        },
        {
          "indexed": false,
          "internalType": "string",
          "name": "uri",
          "type": "string"
        },
        {
          "indexed": false,
          "internalType": "uint256",
          "name": "kolProfit",
          "type": "uint256"
        },
        {
          "indexed": false,
          "internalType": "uint256",
          "name": "marketFee",
          "type": "uint256"
        }
      ],
      "name": "Mint",
      "type": "event"
    },
    {
      "anonymous": false,
      "inputs": [
        {
          "indexed": true,
          "internalType": "address",
          "name": "previousOwner",
          "type": "address"
        },
        {
          "indexed": true,
          "internalType": "address",
          "name": "newOwner",
          "type": "address"
        }
      ],
      "name": "OwnershipTransferred",
      "type": "event"
    },
    {
      "anonymous": false,
      "inputs": [
        {
          "indexed": true,
          "internalType": "bytes32",
          "name": "role",
          "type": "bytes32"
        },
        {
          "indexed": true,
          "internalType": "bytes32",
          "name": "previousAdminRole",
          "type": "bytes32"
        },
        {
          "indexed": true,
          "internalType": "bytes32",
          "name": "newAdminRole",
          "type": "bytes32"
        }
      ],
      "name": "RoleAdminChanged",
      "type": "event"
    },
    {
      "anonymous": false,
      "inputs": [
        {
          "indexed": true,
          "internalType": "bytes32",
          "name": "role",
          "type": "bytes32"
        },
        {
          "indexed": true,
          "internalType": "address",
          "name": "account",
          "type": "address"
        },
        {
          "indexed": true,
          "internalType": "address",
          "name": "sender",
          "type": "address"
        }
      ],
      "name": "RoleGranted",
      "type": "event"
    },
    {
      "anonymous": false,
      "inputs": [
        {
          "indexed": true,
          "internalType": "bytes32",
          "name": "role",
          "type": "bytes32"
        },
        {
          "indexed": true,
          "internalType": "address",
          "name": "account",
          "type": "address"
        },
        {
          "indexed": true,
          "internalType": "address",
          "name": "sender",
          "type": "address"
        }
      ],
      "name": "RoleRevoked",
      "type": "event"
    },
    {
      "anonymous": false,
      "inputs": [
        {
          "indexed": true,
          "internalType": "address",
          "name": "operator",
          "type": "address"
        },
        {
          "indexed": true,
          "internalType": "address",
          "name": "from",
          "type": "address"
        },
        {
          "indexed": true,
          "internalType": "address",
          "name": "to",
          "type": "address"
        },
        {
          "indexed": false,
          "internalType": "uint256[]",
          "name": "ids",
          "type": "uint256[]"
        },
        {
          "indexed": false,
          "internalType": "uint256[]",
          "name": "values",
          "type": "uint256[]"
        }
      ],
      "name": "TransferBatch",
      "type": "event"
    },
    {
      "anonymous": false,
      "inputs": [
        {
          "indexed": true,
          "internalType": "address",
          "name": "operator",
          "type": "address"
        },
        {
          "indexed": true,
          "internalType": "address",
          "name": "from",
          "type": "address"
        },
        {
          "indexed": true,
          "internalType": "address",
          "name": "to",
          "type": "address"
        },
        {
          "indexed": false,
          "internalType": "uint256",
          "name": "id",
          "type": "uint256"
        },
        {
          "indexed": false,
          "internalType": "uint256",
          "name": "value",
          "type": "uint256"
        }
      ],
      "name": "TransferSingle",
      "type": "event"
    },
    {
      "anonymous": false,
      "inputs": [
        {
          "indexed": false,
          "internalType": "string",
          "name": "value",
          "type": "string"
        },
        {
          "indexed": true,
          "internalType": "uint256",
          "name": "id",
          "type": "uint256"
        }
      ],
      "name": "URI",
      "type": "event"
    },
    {
      "anonymous": false,
      "inputs": [
        {
          "indexed": true,
          "internalType": "address",
          "name": "implementation",
          "type": "address"
        }
      ],
      "name": "Upgraded",
      "type": "event"
    },
    {
      "inputs": [],
      "name": "DEFAULT_ADMIN_ROLE",
      "outputs": [
        {
          "internalType": "bytes32",
          "name": "",
          "type": "bytes32"
        }
      ],
      "stateMutability": "view",
      "type": "function"
    },
    {
      "inputs": [
        {
          "internalType": "address",
          "name": "account",
          "type": "address"
        },
        {
          "internalType": "uint256",
          "name": "id",
          "type": "uint256"
        }
      ],
      "name": "balanceOf",
      "outputs": [
        {
          "internalType": "uint256",
          "name": "",
          "type": "uint256"
        }
      ],
      "stateMutability": "view",
      "type": "function"
    },
    {
      "inputs": [
        {
          "internalType": "address[]",
          "name": "accounts",
          "type": "address[]"
        },
        {
          "internalType": "uint256[]",
          "name": "ids",
          "type": "uint256[]"
        }
      ],
      "name": "balanceOfBatch",
      "outputs": [
        {
          "internalType": "uint256[]",
          "name": "",
          "type": "uint256[]"
        }
      ],
      "stateMutability": "view",
      "type": "function"
    },
    {
      "inputs": [],
      "name": "coinToken",
      "outputs": [
        {
          "internalType": "contract IERC20",
          "name": "",
          "type": "address"
        }
      ],
      "stateMutability": "view",
      "type": "function"
    },
    {
      "inputs": [
        {
          "internalType": "bytes32",
          "name": "role",
          "type": "bytes32"
        }
      ],
      "name": "getRoleAdmin",
      "outputs": [
        {
          "internalType": "bytes32",
          "name": "",
          "type": "bytes32"
        }
      ],
      "stateMutability": "view",
      "type": "function"
    },
    {
      "inputs": [
        {
          "internalType": "bytes32",
          "name": "role",
          "type": "bytes32"
        },
        {
          "internalType": "address",
          "name": "account",
          "type": "address"
        }
      ],
      "name": "grantRole",
      "outputs": [],
      "stateMutability": "nonpayable",
      "type": "function"
    },
    {
      "inputs": [
        {
          "internalType": "bytes32",
          "name": "role",
          "type": "bytes32"
        },
        {
          "internalType": "address",
          "name": "account",
          "type": "address"
        }
      ],
      "name": "hasRole",
      "outputs": [
        {
          "internalType": "bool",
          "name": "",
          "type": "bool"
        }
      ],
      "stateMutability": "view",
      "type": "function"
    },
    {
      "inputs": [
        {
          "internalType": "address",
          "name": "account",
          "type": "address"
        },
        {
          "internalType": "address",
          "name": "operator",
          "type": "address"
        }
      ],
      "name": "isApprovedForAll",
      "outputs": [
        {
          "internalType": "bool",
          "name": "",
          "type": "bool"
        }
      ],
      "stateMutability": "view",
      "type": "function"
    },
    {
      "inputs": [],
      "name": "maxNFTType",
      "outputs": [
        {
          "internalType": "uint8",
          "name": "",
          "type": "uint8"
        }
      ],
      "stateMutability": "view",
      "type": "function"
    },
    {
      "inputs": [],
      "name": "name",
      "outputs": [
        {
          "internalType": "string",
          "name": "",
          "type": "string"
        }
      ],
      "stateMutability": "view",
      "type": "function"
    },
    {
      "inputs": [],
      "name": "owner",
      "outputs": [
        {
          "internalType": "address",
          "name": "",
          "type": "address"
        }
      ],
      "stateMutability": "view",
      "type": "function"
    },
    {
      "inputs": [],
      "name": "proxiableUUID",
      "outputs": [
        {
          "internalType": "bytes32",
          "name": "",
          "type": "bytes32"
        }
      ],
      "stateMutability": "view",
      "type": "function"
    },
    {
      "inputs": [],
      "name": "renounceOwnership",
      "outputs": [],
      "stateMutability": "nonpayable",
      "type": "function"
    },
    {
      "inputs": [
        {
          "internalType": "bytes32",
          "name": "role",
          "type": "bytes32"
        },
        {
          "internalType": "address",
          "name": "account",
          "type": "address"
        }
      ],
      "name": "renounceRole",
      "outputs": [],
      "stateMutability": "nonpayable",
      "type": "function"
    },
    {
      "inputs": [
        {
          "internalType": "bytes32",
          "name": "role",
          "type": "bytes32"
        },
        {
          "internalType": "address",
          "name": "account",
          "type": "address"
        }
      ],
      "name": "revokeRole",
      "outputs": [],
      "stateMutability": "nonpayable",
      "type": "function"
    },
    {
      "inputs": [
        {
          "internalType": "address",
          "name": "from",
          "type": "address"
        },
        {
          "internalType": "address",
          "name": "to",
          "type": "address"
        },
        {
          "internalType": "uint256[]",
          "name": "ids",
          "type": "uint256[]"
        },
        {
          "internalType": "uint256[]",
          "name": "amounts",
          "type": "uint256[]"
        },
        {
          "internalType": "bytes",
          "name": "data",
          "type": "bytes"
        }
      ],
      "name": "safeBatchTransferFrom",
      "outputs": [],
      "stateMutability": "nonpayable",
      "type": "function"
    },
    {
      "inputs": [
        {
          "internalType": "address",
          "name": "from",
          "type": "address"
        },
        {
          "internalType": "address",
          "name": "to",
          "type": "address"
        },
        {
          "internalType": "uint256",
          "name": "id",
          "type": "uint256"
        },
        {
          "internalType": "uint256",
          "name": "amount",
          "type": "uint256"
        },
        {
          "internalType": "bytes",
          "name": "data",
          "type": "bytes"
        }
      ],
      "name": "safeTransferFrom",
      "outputs": [],
      "stateMutability": "nonpayable",
      "type": "function"
    },
    {
      "inputs": [
        {
          "internalType": "address",
          "name": "operator",
          "type": "address"
        },
        {
          "internalType": "bool",
          "name": "approved",
          "type": "bool"
        }
      ],
      "name": "setApprovalForAll",
      "outputs": [],
      "stateMutability": "nonpayable",
      "type": "function"
    },
    {
      "inputs": [],
      "name": "symbol",
      "outputs": [
        {
          "internalType": "string",
          "name": "",
          "type": "string"
        }
      ],
      "stateMutability": "view",
      "type": "function"
    },
    {
      "inputs": [
        {
          "internalType": "uint256",
          "name": "",
          "type": "uint256"
        }
      ],
      "name": "tokenDetails",
      "outputs": [
        {
          "internalType": "uint8",
          "name": "tokenType",
          "type": "uint8"
        },
        {
          "internalType": "uint256",
          "name": "tokenId",
          "type": "uint256"
        },
        {
          "internalType": "uint256",
          "name": "quantity",
          "type": "uint256"
        },
        {
          "internalType": "bool",
          "name": "isOpened",
          "type": "bool"
        },
        {
          "internalType": "address",
          "name": "owner",
          "type": "address"
        }
      ],
      "stateMutability": "view",
      "type": "function"
    },
    {
      "inputs": [
        {
          "internalType": "address",
          "name": "newOwner",
          "type": "address"
        }
      ],
      "name": "transferOwnership",
      "outputs": [],
      "stateMutability": "nonpayable",
      "type": "function"
    },
    {
      "inputs": [
        {
          "internalType": "address",
          "name": "newImplementation",
          "type": "address"
        }
      ],
      "name": "upgradeTo",
      "outputs": [],
      "stateMutability": "nonpayable",
      "type": "function"
    },
    {
      "inputs": [
        {
          "internalType": "address",
          "name": "newImplementation",
          "type": "address"
        },
        {
          "internalType": "bytes",
          "name": "data",
          "type": "bytes"
        }
      ],
      "name": "upgradeToAndCall",
      "outputs": [],
      "stateMutability": "payable",
      "type": "function"
    },
    {
      "inputs": [
        {
          "internalType": "uint256",
          "name": "",
          "type": "uint256"
        }
      ],
      "name": "uri",
      "outputs": [
        {
          "internalType": "string",
          "name": "",
          "type": "string"
        }
      ],
      "stateMutability": "view",
      "type": "function"
    },
    {
      "inputs": [
        {
          "internalType": "uint8",
          "name": "",
          "type": "uint8"
        }
      ],
      "name": "uriByType",
      "outputs": [
        {
          "internalType": "string",
          "name": "",
          "type": "string"
        }
      ],
      "stateMutability": "view",
      "type": "function"
    },
    {
      "inputs": [],
      "name": "whitelistRoundBought",
      "outputs": [
        {
          "internalType": "uint256",
          "name": "",
          "type": "uint256"
        }
      ],
      "stateMutability": "view",
      "type": "function"
    },
    {
      "inputs": [
        {
          "internalType": "address",
          "name": "_marketOwnerAddress",
          "type": "address"
        },
        {
          "internalType": "string",
          "name": "_baseMetadataUri",
          "type": "string"
        },
        {
          "internalType": "address",
          "name": "_campaignPaymentAddress",
          "type": "address"
        },
        {
          "internalType": "bool",
          "name": "_isFixedTokenId",
          "type": "bool"
        },
        {
          "internalType": "contract IERC20",
          "name": "_coinToken",
          "type": "address"
        },
        {
          "internalType": "string",
          "name": "_symbol",
          "type": "string"
        },
        {
          "internalType": "string",
          "name": "_name",
          "type": "string"
        },
        {
          "internalType": "address",
          "name": "_adminAddress",
          "type": "address"
        },
        {
          "components": [
            {
              "internalType": "uint8",
              "name": "nftType",
              "type": "uint8"
            },
            {
              "internalType": "uint256",
              "name": "totalSupply",
              "type": "uint256"
            },
            {
              "internalType": "uint256",
              "name": "price",
              "type": "uint256"
            }
          ],
          "internalType": "struct InZNFTTypeDetail.NFTTypeDetail[]",
          "name": "_nftTypesDetail",
          "type": "tuple[]"
        },
        {
          "internalType": "uint256",
          "name": "_nftTotalSupply",
          "type": "uint256"
        }
      ],
      "name": "initialize",
      "outputs": [],
      "stateMutability": "nonpayable",
      "type": "function"
    },
    {
      "inputs": [
        {
          "internalType": "address",
          "name": "_owner",
          "type": "address"
        }
      ],
      "name": "getNftByOwner",
      "outputs": [
        {
          "components": [
            {
              "internalType": "uint8",
              "name": "tokenType",
              "type": "uint8"
            },
            {
              "internalType": "uint256",
              "name": "tokenId",
              "type": "uint256"
            },
            {
              "internalType": "uint256",
              "name": "quantity",
              "type": "uint256"
            },
            {
              "internalType": "bool",
              "name": "isOpened",
              "type": "bool"
            },
            {
              "internalType": "address",
              "name": "owner",
              "type": "address"
            }
          ],
          "internalType": "struct InZNFTDetail.NFTDetail[]",
          "name": "",
          "type": "tuple[]"
        }
      ],
      "stateMutability": "view",
      "type": "function"
    },
    {
      "inputs": [
        {
          "internalType": "uint8",
          "name": "_tokenType",
          "type": "uint8"
        }
      ],
      "name": "getNFTTypeInfo",
      "outputs": [
        {
          "internalType": "uint256",
          "name": "_totalSupply",
          "type": "uint256"
        },
        {
          "internalType": "uint256",
          "name": "_mintedSupply",
          "type": "uint256"
        },
        {
          "internalType": "uint256",
          "name": "_pricePerItem",
          "type": "uint256"
        }
      ],
      "stateMutability": "view",
      "type": "function"
    },
    {
      "inputs": [
        {
          "internalType": "uint256",
          "name": "_maxAllocation",
          "type": "uint256"
        }
      ],
      "name": "setMaxAllocation",
      "outputs": [],
      "stateMutability": "nonpayable",
      "type": "function"
    },
    {
      "inputs": [
        {
          "internalType": "address",
          "name": "_campaignPaymentAddress",
          "type": "address"
        }
      ],
      "name": "setCampaignPaymentAddress",
      "outputs": [],
      "stateMutability": "nonpayable",
      "type": "function"
    },
    {
      "inputs": [
        {
          "internalType": "uint256",
          "name": "_whitelistStartTime",
          "type": "uint256"
        }
      ],
      "name": "setWhiteListStartTime",
      "outputs": [],
      "stateMutability": "nonpayable",
      "type": "function"
    },
    {
      "inputs": [
        {
          "internalType": "uint256",
          "name": "_publicStartTime",
          "type": "uint256"
        }
      ],
      "name": "setPublicStartTime",
      "outputs": [],
      "stateMutability": "nonpayable",
      "type": "function"
    },
    {
      "inputs": [
        {
          "internalType": "uint256",
          "name": "_endTimeToBuy",
          "type": "uint256"
        }
      ],
      "name": "setEndTimeToBuy",
      "outputs": [],
      "stateMutability": "nonpayable",
      "type": "function"
    },
    {
      "inputs": [
        {
          "internalType": "contract IERC20",
          "name": "_coinToken",
          "type": "address"
        }
      ],
      "name": "setCoinToken",
      "outputs": [],
      "stateMutability": "nonpayable",
      "type": "function"
    },
    {
      "inputs": [
        {
          "internalType": "uint256",
          "name": "_tokenId",
          "type": "uint256"
        },
        {
          "internalType": "bool",
          "name": "_isActive",
          "type": "bool"
        }
      ],
      "name": "customTokenIdToWhiteList",
      "outputs": [],
      "stateMutability": "nonpayable",
      "type": "function"
    },
    {
      "inputs": [
        {
          "internalType": "uint256",
          "name": "_tokenId",
          "type": "uint256"
        }
      ],
      "name": "tokenIdIsInWhiteList",
      "outputs": [
        {
          "internalType": "bool",
          "name": "",
          "type": "bool"
        }
      ],
      "stateMutability": "view",
      "type": "function"
    },
    {
      "inputs": [],
      "name": "withdraw",
      "outputs": [],
      "stateMutability": "nonpayable",
      "type": "function"
    },
    {
      "inputs": [
        {
          "internalType": "address[]",
          "name": "_whitelistAddresses",
          "type": "address[]"
        },
        {
          "internalType": "uint256[]",
          "name": "_buyableAmountList",
          "type": "uint256[]"
        }
      ],
      "name": "setWhitelistBuyable",
      "outputs": [],
      "stateMutability": "nonpayable",
      "type": "function"
    },
    {
      "inputs": [
        {
          "internalType": "uint256",
          "name": "_tokenId",
          "type": "uint256"
        },
        {
          "internalType": "uint8",
          "name": "_tokenType",
          "type": "uint8"
        },
        {
          "internalType": "address",
          "name": "_to",
          "type": "address"
        }
      ],
      "name": "mint",
      "outputs": [],
      "stateMutability": "nonpayable",
      "type": "function"
    },
    {
      "inputs": [
        {
          "internalType": "address",
          "name": "_to",
          "type": "address"
        },
        {
          "internalType": "uint256",
          "name": "_tokenId",
          "type": "uint256"
        },
        {
          "internalType": "uint8",
          "name": "_tokenType",
          "type": "uint8"
        },
        {
          "internalType": "string",
          "name": "_giftCode",
          "type": "string"
        }
      ],
      "name": "mintByGiftCode",
      "outputs": [
        {
          "internalType": "uint256",
          "name": "",
          "type": "uint256"
        }
      ],
      "stateMutability": "nonpayable",
      "type": "function"
    },
    {
      "inputs": [
        {
          "internalType": "uint256",
          "name": "_tokenId",
          "type": "uint256"
        },
        {
          "internalType": "uint8",
          "name": "_tokenType",
          "type": "uint8"
        },
        {
          "internalType": "address",
          "name": "_to",
          "type": "address"
        }
      ],
      "name": "whitelistMint",
      "outputs": [],
      "stateMutability": "nonpayable",
      "type": "function"
    },
    {
      "inputs": [
        {
          "internalType": "address",
          "name": "to",
          "type": "address"
        },
        {
          "internalType": "uint256",
          "name": "value",
          "type": "uint256"
        },
        {
          "internalType": "bytes",
          "name": "data",
          "type": "bytes"
        },
        {
          "internalType": "enum InterfaceFunction.Operation",
          "name": "operation",
          "type": "uint8"
        }
      ],
      "name": "requiredTxGas",
      "outputs": [],
      "stateMutability": "nonpayable",
      "type": "function"
    },
    {
      "inputs": [
        {
          "internalType": "address",
          "name": "to",
          "type": "address"
        },
        {
          "internalType": "uint256",
          "name": "value",
          "type": "uint256"
        },
        {
          "internalType": "uint256",
          "name": "txGas",
          "type": "uint256"
        },
        {
          "internalType": "bytes",
          "name": "data",
          "type": "bytes"
        },
        {
          "internalType": "enum InterfaceFunction.Operation",
          "name": "operation",
          "type": "uint8"
        }
      ],
      "name": "execTx",
      "outputs": [],
      "stateMutability": "nonpayable",
      "type": "function"
    },
    {
      "inputs": [
        {
          "internalType": "bytes4",
          "name": "interfaceId",
          "type": "bytes4"
        }
      ],
      "name": "supportsInterface",
      "outputs": [
        {
          "internalType": "bool",
          "name": "",
          "type": "bool"
        }
      ],
      "stateMutability": "view",
      "type": "function"
    }
  ],
  "bytecode": "0x60a06040523060805234801561001457600080fd5b50608051614f4d61004c60003960008181610c4501528181610c8501528181610fbe01528181610ffe01526112660152614f4d6000f3fe6080604052600436106102715760003560e01c80638033491c1161014f578063c2c04ae2116100c1578063e985e9c51161007a578063e985e9c5146107dd578063f242432a14610826578063f2fde38b14610846578063f4ce203214610866578063fc314e3114610893578063ffa0a02a1461092257600080fd5b8063c2c04ae21461071d578063c4ca3a9c1461073d578063d3bb24ae1461075d578063d547741f1461077d578063db8cc8fa1461079d578063e2f03947146107bd57600080fd5b806395d89b411161011357806395d89b4114610673578063a217fddf14610688578063a22cb4651461069d578063a76e0db2146106bd578063afb30f3e146106dd578063c0f1c484146106fd57600080fd5b80638033491c146105dd578063835217a5146105fd5780638da5cb5b146106145780638f0b7b681461063357806391d148541461065357600080fd5b806342db9ca6116101e857806352d1902d116101ac57806352d1902d146104af5780635642800c146104c457806358797cb61461054a578063715018a61461058857806372f123441461059d57806376214140146105bd57600080fd5b806342db9ca61461040257806349d19648146104225780634e1273f4146104425780634f1ef2861461046f57806351d5b0141461048257600080fd5b80632eb2c2d61161023a5780632eb2c2d61461034b5780632ee4aa311461036d5780632f2ff15d1461038d57806336568abe146103ad5780633659cfe6146103cd5780633ccfd60b146103ed57600080fd5b8062fdd58e1461027657806301ffc9a7146102a957806306fdde03146102d95780630e89341c146102fb578063248a9ca31461031b575b600080fd5b34801561028257600080fd5b50610296610291366004613b8b565b610942565b6040519081526020015b60405180910390f35b3480156102b557600080fd5b506102c96102c4366004613bcd565b6109dd565b60405190151581526020016102a0565b3480156102e557600080fd5b506102ee6109e8565b6040516102a09190613c3a565b34801561030757600080fd5b506102ee610316366004613c4d565b610a77565b34801561032757600080fd5b50610296610336366004613c4d565b60009081526097602052604090206001015490565b34801561035757600080fd5b5061036b610366366004613dd4565b610b0b565b005b34801561037957600080fd5b5061036b610388366004613e81565b610b57565b34801561039957600080fd5b5061036b6103a8366004613e9e565b610b93565b3480156103b957600080fd5b5061036b6103c8366004613e9e565b610bbd565b3480156103d957600080fd5b5061036b6103e8366004613e81565b610c3b565b3480156103f957600080fd5b5061036b610d1a565b34801561040e57600080fd5b5061036b61041d366004613ee7565b610e0f565b34801561042e57600080fd5b5061036b61043d366004613e81565b610e49565b34801561044e57600080fd5b5061046261045d366004613f0c565b610e8b565b6040516102a09190614013565b61036b61047d366004614026565b610fb4565b34801561048e57600080fd5b506104a261049d366004613e81565b611080565b6040516102a0919061406b565b3480156104bb57600080fd5b50610296611259565b3480156104d057600080fd5b5061052f6104df3660046140f8565b60ff808216600081815261016b60209081526040808320815160608101835281549096168652600181015486840181905260029091015495820186905293835261016c9091529020549093909250565b604080519384526020840192909252908201526060016102a0565b34801561055657600080fd5b50610165546105709061010090046001600160a01b031681565b6040516001600160a01b0390911681526020016102a0565b34801561059457600080fd5b5061036b61130d565b3480156105a957600080fd5b5061036b6105b8366004613c4d565b611321565b3480156105c957600080fd5b5061036b6105d8366004613c4d565b611340565b3480156105e957600080fd5b5061036b6105f8366004614113565b61135f565b34801561060957600080fd5b506102966101735481565b34801561062057600080fd5b5061012d546001600160a01b0316610570565b34801561063f57600080fd5b5061036b61064e3660046141aa565b611942565b34801561065f57600080fd5b506102c961066e366004613e9e565b6119d4565b34801561067f57600080fd5b506102ee6119ff565b34801561069457600080fd5b50610296600081565b3480156106a957600080fd5b5061036b6106b8366004614222565b611a0d565b3480156106c957600080fd5b506102ee6106d83660046140f8565b611a18565b3480156106e957600080fd5b5061036b6106f8366004613f0c565b611a32565b34801561070957600080fd5b5061036b6107183660046142f8565b611b3b565b34801561072957600080fd5b50610296610738366004614403565b611fab565b34801561074957600080fd5b5061036b61075836600461446c565b61245d565b34801561076957600080fd5b506102c9610778366004613c4d565b6124fe565b34801561078957600080fd5b5061036b610798366004613e9e565b612534565b3480156107a957600080fd5b5061036b6107b8366004613c4d565b612559565b3480156107c957600080fd5b5061036b6107d8366004613c4d565b612578565b3480156107e957600080fd5b506102c96107f83660046144dc565b6001600160a01b03918216600090815260666020908152604080832093909416825291909152205460ff1690565b34801561083257600080fd5b5061036b61084136600461450a565b612597565b34801561085257600080fd5b5061036b610861366004613e81565b6125dc565b34801561087257600080fd5b50610165546108819060ff1681565b60405160ff90911681526020016102a0565b34801561089f57600080fd5b506108eb6108ae366004613c4d565b61017060205260009081526040902080546001820154600283015460039093015460ff92831693919281169061010090046001600160a01b031685565b6040805160ff9096168652602086019490945292840191909152151560608301526001600160a01b0316608082015260a0016102a0565b34801561092e57600080fd5b5061036b61093d366004614113565b612652565b60006001600160a01b0383166109b25760405162461bcd60e51b815260206004820152602a60248201527f455243313135353a2061646472657373207a65726f206973206e6f742061207660448201526930b634b21037bbb732b960b11b60648201526084015b60405180910390fd5b5060008181526065602090815260408083206001600160a01b03861684529091529020545b92915050565b60006109d782612b1b565b61016780546109f690614572565b80601f0160208091040260200160405190810160405280929190818152602001828054610a2290614572565b8015610a6f5780601f10610a4457610100808354040283529160200191610a6f565b820191906000526020600020905b815481529060010190602001808311610a5257829003601f168201915b505050505081565b606060678054610a8690614572565b80601f0160208091040260200160405190810160405280929190818152602001828054610ab290614572565b8015610aff5780601f10610ad457610100808354040283529160200191610aff565b820191906000526020600020905b815481529060010190602001808311610ae257829003601f168201915b50505050509050919050565b6001600160a01b038516331480610b275750610b2785336107f8565b610b435760405162461bcd60e51b81526004016109a9906145a6565b610b508585858585612b40565b5050505050565b600080516020614ed8833981519152610b6f81612d20565b5061016180546001600160a01b0319166001600160a01b0392909216919091179055565b600082815260976020526040902060010154610bae81612d20565b610bb88383612d2a565b505050565b6001600160a01b0381163314610c2d5760405162461bcd60e51b815260206004820152602f60248201527f416363657373436f6e74726f6c3a2063616e206f6e6c792072656e6f756e636560448201526e103937b632b9903337b91039b2b63360891b60648201526084016109a9565b610c378282612db0565b5050565b6001600160a01b037f0000000000000000000000000000000000000000000000000000000000000000163003610c835760405162461bcd60e51b81526004016109a9906145f4565b7f00000000000000000000000000000000000000000000000000000000000000006001600160a01b0316610ccc600080516020614e91833981519152546001600160a01b031690565b6001600160a01b031614610cf25760405162461bcd60e51b81526004016109a990614640565b610cfb81612e17565b60408051600080825260208201909252610d1791839190612e2f565b50565b6000610d2581612d20565b610165546040516370a0823160e01b81523060048201526101009091046001600160a01b03169063a9059cbb90339083906370a0823190602401602060405180830381865afa158015610d7c573d6000803e3d6000fd5b505050506040513d601f19601f82011682018060405250810190610da0919061468c565b6040516001600160e01b031960e085901b1681526001600160a01b03909216600483015260248201526044016020604051808303816000875af1158015610deb573d6000803e3d6000fd5b505050506040513d601f19601f82011682018060405250810190610c3791906146a5565b600080516020614ed8833981519152610e2781612d20565b50600091825261016a6020526040909120805460ff1916911515919091179055565b600080516020614ed8833981519152610e6181612d20565b5061016580546001600160a01b0390921661010002610100600160a81b0319909216919091179055565b60608151835114610ef05760405162461bcd60e51b815260206004820152602960248201527f455243313135353a206163636f756e747320616e6420696473206c656e677468604482015268040dad2e6dac2e8c6d60bb1b60648201526084016109a9565b600083516001600160401b03811115610f0b57610f0b613c66565b604051908082528060200260200182016040528015610f34578160200160208202803683370190505b50905060005b8451811015610fac57610f7f858281518110610f5857610f586146c2565b6020026020010151858381518110610f7257610f726146c2565b6020026020010151610942565b828281518110610f9157610f916146c2565b6020908102919091010152610fa5816146ee565b9050610f3a565b509392505050565b6001600160a01b037f0000000000000000000000000000000000000000000000000000000000000000163003610ffc5760405162461bcd60e51b81526004016109a9906145f4565b7f00000000000000000000000000000000000000000000000000000000000000006001600160a01b0316611045600080516020614e91833981519152546001600160a01b031690565b6001600160a01b03161461106b5760405162461bcd60e51b81526004016109a990614640565b61107482612e17565b610c3782826001612e2f565b6001600160a01b038116600090815261016d6020526040812054606091906001600160401b038111156110b5576110b5613c66565b60405190808252806020026020018201604052801561110e57816020015b6040805160a0810182526000808252602080830182905292820181905260608201819052608082015282526000199092019101816110d35790505b50905060005b6001600160a01b038416600090815261016d6020526040902054811015611252576001600160a01b038416600090815261016d60205260408120805461117691879185908110611166576111666146c2565b9060005260206000200154610942565b9050600081116111865750611242565b6001600160a01b038516600090815261016d602052604081208054610170929190859081106111b7576111b76146c2565b60009182526020808320919091015483528281019390935260409182019020815160a081018352815460ff908116825260018301549482019490945260028201549281019290925260030154918216151560608201526101009091046001600160a01b031660808201528351849084908110611235576112356146c2565b6020026020010181905250505b61124b816146ee565b9050611114565b5092915050565b6000306001600160a01b037f000000000000000000000000000000000000000000000000000000000000000016146112f95760405162461bcd60e51b815260206004820152603860248201527f555550535570677261646561626c653a206d757374206e6f742062652063616c60448201527f6c6564207468726f7567682064656c656761746563616c6c000000000000000060648201526084016109a9565b50600080516020614e918339815191525b90565b611315612f9a565b61131f6000612ff5565b565b600080516020614ed883398151915261133981612d20565b5061016e55565b600080516020614ed883398151915261135881612d20565b5061016455565b6101635433904210156113b45760405162461bcd60e51b815260206004820181905260248201527f49742773206e6f742074696d6520746f20627579207075626c69632073616c6560448201526064016109a9565b610164544211156113d75760405162461bcd60e51b81526004016109a990614707565b61016e541561143f5761016e546001600160a01b038316600090815261016d60205260409020541061143f5760405162461bcd60e51b8152602060048201526011602482015270109d5e481b1a5b5a5d081c995858da1959607a1b60448201526064016109a9565b60ff808416600090815261016b6020908152604091829020825160608101845281549094168452600181015491840182905260020154918301919091526114985760405162461bcd60e51b81526004016109a990614735565b60ff8416600090815261016c60209081526040909120549082015181106114d15760405162461bcd60e51b81526004016109a99061476c565b61016154600160a01b900460ff166114fd576114f261016880546001019055565b61016854955061152c565b600086815261016a602052604090205460ff1661152c5760405162461bcd60e51b81526004016109a990614793565b60008681526101706020908152604091829020825160a081018452815460ff90811682526001830154938201939093526002820154938101849052600390910154918216151560608201526101009091046001600160a01b0316608082015290156115a95760405162461bcd60e51b81526004016109a9906147ca565b60006115b88460400151613048565b610165546040516370a0823160e01b81526001600160a01b038981166004830152929350610100909104909116906370a0823190602401602060405180830381865afa15801561160c573d6000803e3d6000fd5b505050506040513d601f19601f82011682018060405250810190611630919061468c565b846040015111156116535760405162461bcd60e51b81526004016109a9906147f6565b6101655461015f546040516323b872dd60e01b81526101009092046001600160a01b03908116926323b872dd92611693928a929116908690600401614841565b6020604051808303816000875af11580156116b2573d6000803e3d6000fd5b505050506040513d601f19601f820116820180604052508101906116d691906146a5565b5060008185604001516116e99190614865565b61016554610161546040516323b872dd60e01b81529293506001600160a01b036101009092048216926323b872dd9261172b928b929116908690600401614841565b6020604051808303816000875af115801561174a573d6000803e3d6000fd5b505050506040513d601f19601f8201168201806040525081019061176e91906146a5565b5061178b878a6001604051806020016040528060008152506130de565b6001600160a01b038716600090815261016d60209081526040822080546001818101835591845291909220018a90556117c5908590614878565b60ff8916600081815261016c60209081526040808320949094558c825261016f9052918220805460ff191690911790556117fe8a610a77565b90508984602001818152505088846000019060ff16908160ff1681525050600184604001818152505060008960ff16118460600190151590811515815250508784608001906001600160a01b031690816001600160a01b0316815250508361017060008c815260200190815260200160002060008201518160000160006101000a81548160ff021916908360ff160217905550602082015181600101556040820151816002015560608201518160030160006101000a81548160ff02191690831515021790555060808201518160030160016101000a8154816001600160a01b0302191690836001600160a01b031602179055509050507f2d4e120ea0e6aacf78e29b1ab8708eddff1b877753354538447ef8063a54ef45888b8b84868860405161192e9695949392919061488b565b60405180910390a150505050505050505050565b600080516020614ef883398151915261195a81612d20565b604051631ce8f7e360e11b815273__InterfaceFunction_____________________906339d1efc69061199b908a908a908a908a908a908a9060040161491b565b60006040518083038186803b1580156119b357600080fd5b505af41580156119c7573d6000803e3d6000fd5b5050505050505050505050565b60009182526097602090815260408084206001600160a01b0393909316845291905290205460ff1690565b61016680546109f690614572565b610c373383836131eb565b61017460205260009081526040902080546109f690614572565b600080516020614ef8833981519152611a4a81612d20565b8151835114611ab95760405162461bcd60e51b815260206004820152603560248201527f57686974656c69737420616e642062757961626c6520616d6f756e74206c69736044820152740e840daeae6e840c4ca40e6c2daca40d8cadccee8d605b1b60648201526084016109a9565b60005b8351811015611b3557828181518110611ad757611ad76146c2565b60200260200101516101726000868481518110611af657611af66146c2565b60200260200101516001600160a01b03166001600160a01b03168152602001908152602001600020819055508080611b2d906146ee565b915050611abc565b50505050565b600054610100900460ff1615808015611b5b5750600054600160ff909116105b80611b755750303b158015611b75575060005460ff166001145b611bd85760405162461bcd60e51b815260206004820152602e60248201527f496e697469616c697a61626c653a20636f6e747261637420697320616c72656160448201526d191e481a5b9a5d1a585b1a5e995960921b60648201526084016109a9565b6000805460ff191660011790558015611bfb576000805461ff0019166101001790555b611c13604051806020016040528060008152506132cb565b611c1b6132fb565b611c236132fb565b611c2c84612ff5565b6000805b8451811015611c7457848181518110611c4b57611c4b6146c2565b60200260200101516020015182611c629190614878565b9150611c6d816146ee565b9050611c30565b50828114611cc45760405162461bcd60e51b815260206004820152601b60248201527f546f74616c20737570706c7920646f6573206e6f74206d61746368000000000060448201526064016109a9565b60005b8451811015611e5f57611cf76040518060600160405280600060ff16815260200160008152602001600081525090565b858281518110611d0957611d096146c2565b602002602001015160400151816040018181525050858281518110611d3057611d306146c2565b6020026020010151602001518160200181815250508061016b6000888581518110611d5d57611d5d6146c2565b6020908102919091018101515160ff90811683528282019390935260409182016000208451815460ff191694169390931783558301516001830155919091015160029091015585517fab9ceafa6f3a63a3fa4175dc0568fb22a90f89b34b4800540adb2822f5642aed90879084908110611dd957611dd96146c2565b602002602001015160000151878481518110611df757611df76146c2565b602002602001015160200151888581518110611e1557611e156146c2565b602002602001015160400151604051611e469392919060ff9390931683526020830191909152604082015260600190565b60405180910390a150611e58816146ee565b9050611cc7565b5061015f80546001600160a01b0319166001600160a01b038e16179055610160611e898c826149a9565b5061016180546001600160a01b038c81166001600160a81b031990921691909117600160a01b8c151502179091556101658054610100600160a81b031916610100928b1692909202919091179055610166611ee488826149a9565b50610167611ef287826149a9565b50611f0b600080516020614ef883398151915286613322565b611f16600086613322565b611f2e600080516020614ed883398151915286613322565b611f587f3c11d16cbaffd01df69ce1c404f6340ee057498f5f00246190ea54220576a84886613322565b5080156119c7576000805461ff0019169055604051600181527f7f26b83ff96e1f2b6a682f133852f6798a09c465da95921460cefb38474024989060200160405180910390a15050505050505050505050565b6000600080516020614ef8833981519152611fc581612d20565b610163544210156120185760405162461bcd60e51b815260206004820181905260248201527f49742773206e6f742074696d6520746f20627579207075626c69632073616c6560448201526064016109a9565b6101645442111561203b5760405162461bcd60e51b81526004016109a990614707565b6101718360405161204c9190614a68565b9081526040519081900360200190205460ff16156120ac5760405162461bcd60e51b815260206004820152601e60248201527f4769667420636f646520697320616c726561647920616374697661746564000060448201526064016109a9565b60ff808516600090815261016b6020908152604091829020825160608101845281549094168452600181015491840182905260020154918301919091526121055760405162461bcd60e51b81526004016109a990614735565b60ff8516600090815261016c602090815260409091205490820151811061213e5760405162461bcd60e51b81526004016109a99061476c565b61016154600160a01b900460ff1661216a5761215f61016880546001019055565b610168549650612199565b600087815261016a602052604090205460ff166121995760405162461bcd60e51b81526004016109a990614793565b60008781526101706020908152604091829020825160a081018452815460ff90811682526001830154938201939093526002820154938101849052600390910154918216151560608201526101009091046001600160a01b0316608082015290156122165760405162461bcd60e51b81526004016109a9906147ca565b61223289896001604051806020016040528060008152506130de565b6001600160a01b038916600090815261016d602090815260408220805460018181018355918452919092200189905561226c908390614878565b60ff8816600081815261016c60209081526040808320949094558b825261016f9052918220805460ff191690911790556122a589610a77565b90508882602001818152505087826000019060ff16908160ff1681525050600182604001818152505060008860ff16118260600190151590811515815250508982608001906001600160a01b031690816001600160a01b0316815250508161017060008b815260200190815260200160002060008201518160000160006101000a81548160ff021916908360ff160217905550602082015181600101556040820151816002015560608201518160030160006101000a81548160ff02191690831515021790555060808201518160030160016101000a8154816001600160a01b0302191690836001600160a01b031602179055509050506001610171886040516123af9190614a68565b908152604051908190036020018120805492151560ff19909316929092179091557f9b7d14b1e22bcd1e90132d871c08a86a7d439e4349ac2bbaea472e1ed9031f3390612405908c908c908c9086908d90614a84565b60405180910390a17f2d4e120ea0e6aacf78e29b1ab8708eddff1b877753354538447ef8063a54ef458a8a8a846000806040516124479695949392919061488b565b60405180910390a1509698975050505050505050565b600080516020614ef883398151915261247581612d20565b604051637a17125960e01b815273__InterfaceFunction_____________________90637a171259906124b49089908990899089908990600401614ad2565b602060405180830381865af41580156124d1573d6000803e3d6000fd5b505050506040513d601f19601f820116820180604052508101906124f5919061468c565b50505050505050565b6000600080516020614ed883398151915261251881612d20565b600083815261016a602052604090205460ff1691505b50919050565b60008281526097602052604090206001015461254f81612d20565b610bb88383612db0565b600080516020614ed883398151915261257181612d20565b5061016355565b600080516020614ed883398151915261259081612d20565b5061016255565b6001600160a01b0385163314806125b357506125b385336107f8565b6125cf5760405162461bcd60e51b81526004016109a9906145a6565b610b50858585858561332c565b6125e4612f9a565b6001600160a01b0381166126495760405162461bcd60e51b815260206004820152602660248201527f4f776e61626c653a206e6577206f776e657220697320746865207a65726f206160448201526564647265737360d01b60648201526084016109a9565b610d1781612ff5565b6101625433904210156126b35760405162461bcd60e51b815260206004820152602360248201527f49742773206e6f742074696d6520746f206275792077686974656c6973742073604482015262616c6560e81b60648201526084016109a9565b610164544211156126d65760405162461bcd60e51b81526004016109a990614707565b6001600160a01b0382166000908152610172602052604090205461274b5760405162461bcd60e51b815260206004820152602660248201527f55736572206e6f7420696e2077686974656c697374206f72206c696d69742072604482015265195858da195960d21b60648201526084016109a9565b60ff808416600090815261016b6020908152604091829020825160608101845281549094168452600181015491840182905260020154918301919091526127a45760405162461bcd60e51b81526004016109a990614735565b60ff8416600090815261016c60209081526040909120549082015181106127dd5760405162461bcd60e51b81526004016109a99061476c565b61016154600160a01b900460ff16612809576127fe61016880546001019055565b610168549550612838565b600086815261016a602052604090205460ff166128385760405162461bcd60e51b81526004016109a990614793565b60008681526101706020908152604091829020825160a081018452815460ff90811682526001830154938201939093526002820154938101849052600390910154918216151560608201526101009091046001600160a01b0316608082015290156128b55760405162461bcd60e51b81526004016109a9906147ca565b60006128c48460400151613048565b610165546040516370a0823160e01b81526001600160a01b038881166004830152929350610100909104909116906370a0823190602401602060405180830381865afa158015612918573d6000803e3d6000fd5b505050506040513d601f19601f8201168201806040525081019061293c919061468c565b8460400151111561295f5760405162461bcd60e51b81526004016109a9906147f6565b6101655461015f546040516323b872dd60e01b81526101009092046001600160a01b03908116926323b872dd9261299f928a929116908690600401614841565b6020604051808303816000875af11580156129be573d6000803e3d6000fd5b505050506040513d601f19601f820116820180604052508101906129e291906146a5565b5060008185604001516129f59190614865565b61016554610161546040516323b872dd60e01b81529293506001600160a01b036101009092048216926323b872dd92612a37928b929116908690600401614841565b6020604051808303816000875af1158015612a56573d6000803e3d6000fd5b505050506040513d601f19601f82011682018060405250810190612a7a91906146a5565b50612a97878a6001604051806020016040528060008152506130de565b6001600160a01b038716600090815261016d6020908152604082208054600181810183559184529183209091018b9055610173805491929091612adb908490614878565b90915550506001600160a01b038716600090815261017260205260408120805460019290612b0a908490614865565b909155506117c59050846001614878565b60006001600160e01b03198216637965db0b60e01b14806109d757506109d78261345a565b8151835114612ba25760405162461bcd60e51b815260206004820152602860248201527f455243313135353a2069647320616e6420616d6f756e7473206c656e677468206044820152670dad2e6dac2e8c6d60c31b60648201526084016109a9565b6001600160a01b038416612bc85760405162461bcd60e51b81526004016109a990614b13565b3360005b8451811015612cb2576000858281518110612be957612be96146c2565b602002602001015190506000858381518110612c0757612c076146c2565b60209081029190910181015160008481526065835260408082206001600160a01b038e168352909352919091205490915081811015612c585760405162461bcd60e51b81526004016109a990614b58565b60008381526065602090815260408083206001600160a01b038e8116855292528083208585039055908b16825281208054849290612c97908490614878565b9250508190555050505080612cab906146ee565b9050612bcc565b50846001600160a01b0316866001600160a01b0316826001600160a01b03167f4a39dc06d4c0dbc64b70af90fd698a233a518aa5d07e595d983b8c0526c8f7fb8787604051612d02929190614ba2565b60405180910390a4612d188187878787876134aa565b505050505050565b610d178133613605565b612d3482826119d4565b610c375760008281526097602090815260408083206001600160a01b03851684529091529020805460ff19166001179055612d6c3390565b6001600160a01b0316816001600160a01b0316837f2f8788117e7eff1d82e926ec794901d17c78024a50270940304540a733656f0d60405160405180910390a45050565b612dba82826119d4565b15610c375760008281526097602090815260408083206001600160a01b0385168085529252808320805460ff1916905551339285917ff6391f5c32d9c69d2a47ea670b442974b53935d1edc7fd64eb21e047a839171b9190a45050565b600080516020614ef8833981519152610c3781612d20565b7f4910fdfa16fed3260ed0e7147f7cc6da11a60208b5b9406d12a635614ffd91435460ff1615612e6257610bb88361365e565b826001600160a01b03166352d1902d6040518163ffffffff1660e01b8152600401602060405180830381865afa925050508015612ebc575060408051601f3d908101601f19168201909252612eb99181019061468c565b60015b612f1f5760405162461bcd60e51b815260206004820152602e60248201527f45524331393637557067726164653a206e657720696d706c656d656e7461746960448201526d6f6e206973206e6f74205555505360901b60648201526084016109a9565b600080516020614e918339815191528114612f8e5760405162461bcd60e51b815260206004820152602960248201527f45524331393637557067726164653a20756e737570706f727465642070726f786044820152681a58589b195555525160ba1b60648201526084016109a9565b50610bb88383836136fa565b61012d546001600160a01b0316331461131f5760405162461bcd60e51b815260206004820181905260248201527f4f776e61626c653a2063616c6c6572206973206e6f7420746865206f776e657260448201526064016109a9565b61012d80546001600160a01b038381166001600160a01b0319831681179093556040519116919082907f8be0079c531659141344cd1fd0a4f28419497f9722a3daafe3b4186f6b6457e090600090a35050565b61015f54604051631517971b60e31b815230600482015260009182916001600160a01b039091169063a8bcb8d890602401602060405180830381865afa158015613096573d6000803e3d6000fd5b505050506040513d601f19601f820116820180604052508101906130ba9190614bc7565b61ffff169050806130cd61271085614beb565b6130d79190614c0d565b9392505050565b6001600160a01b03841661313e5760405162461bcd60e51b815260206004820152602160248201527f455243313135353a206d696e7420746f20746865207a65726f206164647265736044820152607360f81b60648201526084016109a9565b33600061314a8561371f565b905060006131578561371f565b905060008681526065602090815260408083206001600160a01b038b1684529091528120805487929061318b908490614878565b909155505060408051878152602081018790526001600160a01b03808a1692600092918716917fc3d58168c5ae7397731d063d5bbf3d657854427343f4c083240f7aacaa2d0f62910160405180910390a46124f58360008989898961376a565b816001600160a01b0316836001600160a01b03160361325e5760405162461bcd60e51b815260206004820152602960248201527f455243313135353a2073657474696e6720617070726f76616c20737461747573604482015268103337b91039b2b63360b91b60648201526084016109a9565b6001600160a01b03838116600081815260666020908152604080832094871680845294825291829020805460ff191686151590811790915591519182527f17307eab39ab6107e8899845ad3d59bd9653f200f220920489ca2b5937696c31910160405180910390a3505050565b600054610100900460ff166132f25760405162461bcd60e51b81526004016109a990614c24565b610d1781613825565b600054610100900460ff1661131f5760405162461bcd60e51b81526004016109a990614c24565b610c378282612d2a565b6001600160a01b0384166133525760405162461bcd60e51b81526004016109a990614b13565b33600061335e8561371f565b9050600061336b8561371f565b905060008681526065602090815260408083206001600160a01b038c168452909152902054858110156133b05760405162461bcd60e51b81526004016109a990614b58565b60008781526065602090815260408083206001600160a01b038d8116855292528083208985039055908a168252812080548892906133ef908490614878565b909155505060408051888152602081018890526001600160a01b03808b16928c821692918816917fc3d58168c5ae7397731d063d5bbf3d657854427343f4c083240f7aacaa2d0f62910160405180910390a461344f848a8a8a8a8a61376a565b505050505050505050565b60006001600160e01b03198216636cdb3d1360e11b148061348b57506001600160e01b031982166303a24d0760e21b145b806109d757506301ffc9a760e01b6001600160e01b03198316146109d7565b6001600160a01b0384163b15612d185760405163bc197c8160e01b81526001600160a01b0385169063bc197c81906134ee9089908990889088908890600401614c6f565b6020604051808303816000875af1925050508015613529575060408051601f3d908101601f1916820190925261352691810190614cc1565b60015b6135d557613535614cde565b806308c379a00361356e5750613549614cf9565b806135545750613570565b8060405162461bcd60e51b81526004016109a99190613c3a565b505b60405162461bcd60e51b815260206004820152603460248201527f455243313135353a207472616e7366657220746f206e6f6e2d455243313135356044820152732932b1b2b4bb32b91034b6b83632b6b2b73a32b960611b60648201526084016109a9565b6001600160e01b0319811663bc197c8160e01b146124f55760405162461bcd60e51b81526004016109a990614d82565b61360f82826119d4565b610c375761361c81613855565b613627836020613867565b604051602001613638929190614dca565b60408051601f198184030181529082905262461bcd60e51b82526109a991600401613c3a565b6001600160a01b0381163b6136cb5760405162461bcd60e51b815260206004820152602d60248201527f455243313936373a206e657720696d706c656d656e746174696f6e206973206e60448201526c1bdd08184818dbdb9d1c9858dd609a1b60648201526084016109a9565b600080516020614e9183398151915280546001600160a01b0319166001600160a01b0392909216919091179055565b61370383613a02565b6000825111806137105750805b15610bb857611b358383613a42565b60408051600180825281830190925260609160009190602080830190803683370190505090508281600081518110613759576137596146c2565b602090810291909101015292915050565b6001600160a01b0384163b15612d185760405163f23a6e6160e01b81526001600160a01b0385169063f23a6e61906137ae9089908990889088908890600401614e3f565b6020604051808303816000875af19250505080156137e9575060408051601f3d908101601f191682019092526137e691810190614cc1565b60015b6137f557613535614cde565b6001600160e01b0319811663f23a6e6160e01b146124f55760405162461bcd60e51b81526004016109a990614d82565b600054610100900460ff1661384c5760405162461bcd60e51b81526004016109a990614c24565b610d1781613b36565b60606109d76001600160a01b03831660145b60606000613876836002614c0d565b613881906002614878565b6001600160401b0381111561389857613898613c66565b6040519080825280601f01601f1916602001820160405280156138c2576020820181803683370190505b509050600360fc1b816000815181106138dd576138dd6146c2565b60200101906001600160f81b031916908160001a905350600f60fb1b8160018151811061390c5761390c6146c2565b60200101906001600160f81b031916908160001a9053506000613930846002614c0d565b61393b906001614878565b90505b60018111156139b3576f181899199a1a9b1b9c1cb0b131b232b360811b85600f166010811061396f5761396f6146c2565b1a60f81b828281518110613985576139856146c2565b60200101906001600160f81b031916908160001a90535060049490941c936139ac81614e79565b905061393e565b5083156130d75760405162461bcd60e51b815260206004820181905260248201527f537472696e67733a20686578206c656e67746820696e73756666696369656e7460448201526064016109a9565b613a0b8161365e565b6040516001600160a01b038216907fbc7cd75a20ee27fd9adebab32041f755214dbc6bffa90cc0225b39da2e5c2d3b90600090a250565b60606001600160a01b0383163b613aaa5760405162461bcd60e51b815260206004820152602660248201527f416464726573733a2064656c65676174652063616c6c20746f206e6f6e2d636f6044820152651b9d1c9858dd60d21b60648201526084016109a9565b600080846001600160a01b031684604051613ac59190614a68565b600060405180830381855af49150503d8060008114613b00576040519150601f19603f3d011682016040523d82523d6000602084013e613b05565b606091505b5091509150613b2d8282604051806060016040528060278152602001614eb160279139613b42565b95945050505050565b6067610c3782826149a9565b60608315613b515750816130d7565b6130d783838151156135545781518083602001fd5b6001600160a01b0381168114610d1757600080fd5b8035613b8681613b66565b919050565b60008060408385031215613b9e57600080fd5b8235613ba981613b66565b946020939093013593505050565b6001600160e01b031981168114610d1757600080fd5b600060208284031215613bdf57600080fd5b81356130d781613bb7565b60005b83811015613c05578181015183820152602001613bed565b50506000910152565b60008151808452613c26816020860160208601613bea565b601f01601f19169290920160200192915050565b6020815260006130d76020830184613c0e565b600060208284031215613c5f57600080fd5b5035919050565b634e487b7160e01b600052604160045260246000fd5b606081018181106001600160401b0382111715613c9b57613c9b613c66565b60405250565b601f8201601f191681016001600160401b0381118282101715613cc657613cc6613c66565b6040525050565b60006001600160401b03821115613ce657613ce6613c66565b5060051b60200190565b600082601f830112613d0157600080fd5b81356020613d0e82613ccd565b604051613d1b8282613ca1565b83815260059390931b8501820192828101915086841115613d3b57600080fd5b8286015b84811015613d565780358352918301918301613d3f565b509695505050505050565b600082601f830112613d7257600080fd5b81356001600160401b03811115613d8b57613d8b613c66565b604051613da2601f8301601f191660200182613ca1565b818152846020838601011115613db757600080fd5b816020850160208301376000918101602001919091529392505050565b600080600080600060a08688031215613dec57600080fd5b8535613df781613b66565b94506020860135613e0781613b66565b935060408601356001600160401b0380821115613e2357600080fd5b613e2f89838a01613cf0565b94506060880135915080821115613e4557600080fd5b613e5189838a01613cf0565b93506080880135915080821115613e6757600080fd5b50613e7488828901613d61565b9150509295509295909350565b600060208284031215613e9357600080fd5b81356130d781613b66565b60008060408385031215613eb157600080fd5b823591506020830135613ec381613b66565b809150509250929050565b8015158114610d1757600080fd5b8035613b8681613ece565b60008060408385031215613efa57600080fd5b823591506020830135613ec381613ece565b60008060408385031215613f1f57600080fd5b82356001600160401b0380821115613f3657600080fd5b818501915085601f830112613f4a57600080fd5b81356020613f5782613ccd565b604051613f648282613ca1565b83815260059390931b8501820192828101915089841115613f8457600080fd5b948201945b83861015613fab578535613f9c81613b66565b82529482019490820190613f89565b96505086013592505080821115613fc157600080fd5b50613fce85828601613cf0565b9150509250929050565b600081518084526020808501945080840160005b8381101561400857815187529582019590820190600101613fec565b509495945050505050565b6020815260006130d76020830184613fd8565b6000806040838503121561403957600080fd5b823561404481613b66565b915060208301356001600160401b0381111561405f57600080fd5b613fce85828601613d61565b602080825282518282018190526000919060409081850190868401855b828110156140da578151805160ff168552868101518786015285810151868601526060808201511515908601526080908101516001600160a01b03169085015260a09093019290850190600101614088565b5091979650505050505050565b803560ff81168114613b8657600080fd5b60006020828403121561410a57600080fd5b6130d7826140e7565b60008060006060848603121561412857600080fd5b83359250614138602085016140e7565b9150604084013561414881613b66565b809150509250925092565b60008083601f84011261416557600080fd5b5081356001600160401b0381111561417c57600080fd5b60208301915083602082850101111561419457600080fd5b9250929050565b803560028110613b8657600080fd5b60008060008060008060a087890312156141c357600080fd5b86356141ce81613b66565b9550602087013594506040870135935060608701356001600160401b038111156141f757600080fd5b61420389828a01614153565b909450925061421690506080880161419b565b90509295509295509295565b6000806040838503121561423557600080fd5b823561424081613b66565b91506020830135613ec381613ece565b600082601f83011261426157600080fd5b8135602061426e82613ccd565b6040805161427c8382613ca1565b8481526060948502870184019484820193508886111561429b57600080fd5b8488015b868110156142ea5781818b0312156142b75760008081fd5b83516142c281613c7c565b6142cb826140e7565b815281870135878201528482013585820152855293850193810161429f565b509098975050505050505050565b6000806000806000806000806000806101408b8d03121561431857600080fd5b6143218b613b7b565b995060208b01356001600160401b038082111561433d57600080fd5b6143498e838f01613d61565b9a5061435760408e01613b7b565b995061436560608e01613edc565b985061437360808e01613b7b565b975060a08d013591508082111561438957600080fd5b6143958e838f01613d61565b965060c08d01359150808211156143ab57600080fd5b6143b78e838f01613d61565b95506143c560e08e01613b7b565b94506101008d01359150808211156143dc57600080fd5b506143e98d828e01614250565b9250506101208b013590509295989b9194979a5092959850565b6000806000806080858703121561441957600080fd5b843561442481613b66565b935060208501359250614439604086016140e7565b915060608501356001600160401b0381111561445457600080fd5b61446087828801613d61565b91505092959194509250565b60008060008060006080868803121561448457600080fd5b853561448f81613b66565b94506020860135935060408601356001600160401b038111156144b157600080fd5b6144bd88828901614153565b90945092506144d090506060870161419b565b90509295509295909350565b600080604083850312156144ef57600080fd5b82356144fa81613b66565b91506020830135613ec381613b66565b600080600080600060a0868803121561452257600080fd5b853561452d81613b66565b9450602086013561453d81613b66565b9350604086013592506060860135915060808601356001600160401b0381111561456657600080fd5b613e7488828901613d61565b600181811c9082168061458657607f821691505b60208210810361252e57634e487b7160e01b600052602260045260246000fd5b6020808252602e908201527f455243313135353a2063616c6c6572206973206e6f7420746f6b656e206f776e60408201526d195c881bdc88185c1c1c9bdd995960921b606082015260800190565b6020808252602c908201527f46756e6374696f6e206d7573742062652063616c6c6564207468726f7567682060408201526b19195b1959d85d1958d85b1b60a21b606082015260800190565b6020808252602c908201527f46756e6374696f6e206d7573742062652063616c6c6564207468726f7567682060408201526b6163746976652070726f787960a01b606082015260800190565b60006020828403121561469e57600080fd5b5051919050565b6000602082840312156146b757600080fd5b81516130d781613ece565b634e487b7160e01b600052603260045260246000fd5b634e487b7160e01b600052601160045260246000fd5b600060018201614700576147006146d8565b5060010190565b60208082526014908201527349742773206e6f742074696d6520746f2062757960601b604082015260600190565b60208082526019908201527f546f6b656e207479706520646f6573206e6f7420657869737400000000000000604082015260600190565b6020808252600d908201526c151bdad95b881c9d5b881bdd5d609a1b604082015260600190565b6020808252601b908201527f546f6b656e2069642069736e277420696e2077686974656c6973740000000000604082015260600190565b602080825260129082015271151bdad95b881a59081a5cc81b5a5b9d195960721b604082015260600190565b6020808252602b908201527f55736572206e65656420686f6c6420656e6f75676820546f6b656e20746f206260408201526a1d5e481d1a1a5cc81b999d60aa1b606082015260800190565b6001600160a01b039384168152919092166020820152604081019190915260600190565b818103818111156109d7576109d76146d8565b808201808211156109d7576109d76146d8565b60018060a01b038716815285602082015260ff8516604082015260c0606082015260006148bb60c0830186613c0e565b60808301949094525060a00152949350505050565b81835281816020850137506000828201602090810191909152601f909101601f19169091010190565b6002811061491757634e487b7160e01b600052602160045260246000fd5b9052565b60018060a01b038716815285602082015284604082015260a06060820152600061494960a0830185876148d0565b905061495860808301846148f9565b979650505050505050565b601f821115610bb857600081815260208120601f850160051c8101602086101561498a5750805b601f850160051c820191505b81811015612d1857828155600101614996565b81516001600160401b038111156149c2576149c2613c66565b6149d6816149d08454614572565b84614963565b602080601f831160018114614a0b57600084156149f35750858301515b600019600386901b1c1916600185901b178555612d18565b600085815260208120601f198616915b82811015614a3a57888601518255948401946001909101908401614a1b565b5085821015614a585787850151600019600388901b60f8161c191681555b5050505050600190811b01905550565b60008251614a7a818460208701613bea565b9190910192915050565b60018060a01b038616815284602082015260ff8416604082015260a060608201526000614ab460a0830185613c0e565b8281036080840152614ac68185613c0e565b98975050505050505050565b60018060a01b0386168152846020820152608060408201526000614afa6080830185876148d0565b9050614b0960608301846148f9565b9695505050505050565b60208082526025908201527f455243313135353a207472616e7366657220746f20746865207a65726f206164604082015264647265737360d81b606082015260800190565b6020808252602a908201527f455243313135353a20696e73756666696369656e742062616c616e636520666f60408201526939103a3930b739b332b960b11b606082015260800190565b604081526000614bb56040830185613fd8565b8281036020840152613b2d8185613fd8565b600060208284031215614bd957600080fd5b815161ffff811681146130d757600080fd5b600082614c0857634e487b7160e01b600052601260045260246000fd5b500490565b80820281158282048414176109d7576109d76146d8565b6020808252602b908201527f496e697469616c697a61626c653a20636f6e7472616374206973206e6f74206960408201526a6e697469616c697a696e6760a81b606082015260800190565b6001600160a01b0386811682528516602082015260a060408201819052600090614c9b90830186613fd8565b8281036060840152614cad8186613fd8565b90508281036080840152614ac68185613c0e565b600060208284031215614cd357600080fd5b81516130d781613bb7565b600060033d111561130a5760046000803e5060005160e01c90565b600060443d1015614d075790565b6040516003193d81016004833e81513d6001600160401b038160248401118184111715614d3657505050505090565b8285019150815181811115614d4e5750505050505090565b843d8701016020828501011115614d685750505050505090565b614d7760208286010187613ca1565b509095945050505050565b60208082526028908201527f455243313135353a204552433131353552656365697665722072656a656374656040820152676420746f6b656e7360c01b606082015260800190565b7f416363657373436f6e74726f6c3a206163636f756e7420000000000000000000815260008351614e02816017850160208801613bea565b7001034b99036b4b9b9b4b733903937b6329607d1b6017918401918201528351614e33816028840160208801613bea565b01602801949350505050565b6001600160a01b03868116825285166020820152604081018490526060810183905260a06080820181905260009061495890830184613c0e565b600081614e8857614e886146d8565b50600019019056fe360894a13ba1a3210667c828492db98dca3e2076cc3735a920a3ca505d382bbc416464726573733a206c6f772d6c6576656c2064656c65676174652063616c6c206661696c6564b0a2731da0d1e322a29f18fc41490da7914e8245c4e7d00155b630b2fbe50293a49807205ce4d355092ef5a8a18f56e8913cf4a201fbe287825b095693c21775a2646970667358221220cfa51a1c053341af3a691290270f41f2f7dbbbdc4353e40b522e07ec60f9882364736f6c63430008130033",
  "immutableReferences": {
    "1148": [
      {
        "length": 32,
        "start": 3141
      },
      {
        "length": 32,
        "start": 3205
      },
      {
        "length": 32,
        "start": 4030
      },
      {
        "length": 32,
        "start": 4094
      },
      {
        "length": 32,
        "start": 4710
      }
    ]
  },
  "source": "// SPDX-License-Identifier: MIT\npragma solidity ^0.8.2;\n\nimport \"@openzeppelin/contracts/utils/Strings.sol\";\nimport \"@openzeppelin/contracts-upgradeable/access/AccessControlUpgradeable.sol\";\nimport \"@openzeppelin/contracts-upgradeable/proxy/utils/UUPSUpgradeable.sol\";\nimport \"@openzeppelin/contracts-upgradeable/token/ERC1155/ERC1155Upgradeable.sol\";\nimport \"@openzeppelin/contracts-upgradeable/access/OwnableUpgradeable.sol\";\nimport \"@openzeppelin/contracts/utils/Counters.sol\";\nimport \"@openzeppelin/contracts/token/ERC20/IERC20.sol\";\n\nimport \"../libraries/InZNFTDetail.sol\";\nimport \"../libraries/InZNFTTypeDetail.sol\";\nimport \"../interfaces/IInZNFTMarket.sol\";\nimport \"../utils/InterfaceFunction.sol\";\nimport \"../interfaces/ICampaignNFT1155.sol\";\n\n\ncontract InzCampaignTypesNFT1155 is\n    ERC1155Upgradeable,\n    AccessControlUpgradeable,\n    UUPSUpgradeable,\n    OwnableUpgradeable\n{\n\n    /**\n     *          External using\n     */\n    using InZNFTDetail for InZNFTDetail.NFTDetail;\n    using InZNFTTypeDetail for InZNFTTypeDetail.NFTTypeDetail;\n    using Counters for Counters.Counter;\n\n    /**\n     *          Event Definitions\n     */\n    event ActiveGiftCode(address to, uint256 tokenId, uint8 tokenType, string uri, string giftCode);\n    event Mint(address to, uint256 tokenId, uint8 tokenType, string uri, uint256 kolProfit, uint256 marketFee);\n    event AddNftType(uint8 tokenType, uint256 totalSupply, uint256 price);\n\n    /**\n     *          Storage data declarations\n     */\n    bytes32 internal constant ADMIN_ROLE = keccak256(\"ADMIN_ROLE\");\n    bytes32 internal constant DESIGN_ROLE = keccak256(\"DESIGN_ROLE\");\n    bytes32 internal constant BURNER_ROLE = keccak256(\"BURNER_ROLE\");\n    \n    // Market place owner address to receive market fee when mint token\n    address internal marketOwnerAddress;\n\n    // Base meta data uri \n    string internal baseMetadataUri;\n\n    // Campaign Payment Address to receive when mint token\n    address internal campaignPaymentAddress;\n\n    // If true tokenId will set by minner\n    bool internal isFixedTokenId;\n\n    bool internal isInitNftType;\n\n    // Start time to buy for whitelist\n    uint256 internal whitelistStartTime;\n    // Start time to public buy on this campaign\n    uint256 internal publicStartTime;\n    // End time to buy first nft on this campaign\n    uint256 internal endTimeToBuy;\n\n    // mapping type NFT => NFTTypeDetail Info\n    uint8 public maxNFTType;\n\n    // Currency use to buy first nft of this campaign\n    IERC20 public coinToken;\n\n    // symbol of this campaign\n    string public symbol;\n\n    // name of this campaign\n    string public name;\n\n    Counters.Counter internal tokenIdCounter;\n    Counters.Counter internal typeCounter;\n\n    // custom token Ids list\n    mapping (uint256 => bool) internal customTokenIdsWhiteList;\n\n    // Mapping token type to campaign detail on this campaign\n    mapping (uint8 => InZNFTTypeDetail.NFTTypeDetail) internal nftTypeDetails;\n\n    // Mapping token type to supply have minted\n    mapping (uint8 => uint256) internal nftTypeSupply;\n\n    // Mapping token's holder address to tokenIds list  \n    mapping (address => uint256[]) internal holders;\n\n    // max allocation for normal user\n    uint256 internal maxAllocation;\n\n    // Mapping token id to token type\n    mapping (uint256 => uint8) internal tokenIdsByType; \n\n    // Mapping from token ID to token details.\n    mapping(uint256 => InZNFTDetail.NFTDetail) public tokenDetails;\n\n    // Mapping gift code is active\n    mapping (string => bool) internal giftCodes;\n\n    // mapping white list address to amount can buy\n    mapping (address => uint256) internal whitelistBuyable;\n\n    // total whitelist have bought\n    uint256 public whitelistRoundBought;\n\n    \n    // mapping tokenURI to type NFT\n    mapping(uint8 => string) public uriByType;\n\n    /**\n     *          Contract Initialization\n     */\n    function initialize(\n        address _marketOwnerAddress,\n        string memory _baseMetadataUri,\n        address _campaignPaymentAddress,\n        bool _isFixedTokenId, \n        IERC20 _coinToken,\n        string memory _symbol,\n        string memory _name,\n        address _adminAddress,\n        InZNFTTypeDetail.NFTTypeDetail[] memory _nftTypesDetail,\n        uint256 _nftTotalSupply\n    ) external initializer {\n        __ERC1155_init(\"\");\n        __AccessControl_init();\n        __UUPSUpgradeable_init();\n        _transferOwnership(_adminAddress);\n \n        uint256 _totalSupplyPerNftType;\n        for (uint256 i = 0; i < _nftTypesDetail.length; ++i) {\n            _totalSupplyPerNftType +=  _nftTypesDetail[i].totalSupply;\n        }\n        require(_totalSupplyPerNftType == _nftTotalSupply, \"Total supply does not match\");\n        for (uint256 i = 0; i < _nftTypesDetail.length; ++i) {\n            InZNFTTypeDetail.NFTTypeDetail memory _nftTypeNew;\n            _nftTypeNew.price = _nftTypesDetail[i].price;\n            _nftTypeNew.totalSupply = _nftTypesDetail[i].totalSupply;\n            nftTypeDetails[_nftTypesDetail[i].nftType] = _nftTypeNew;\n            emit AddNftType(\n                _nftTypesDetail[i].nftType, \n                _nftTypesDetail[i].totalSupply, \n                _nftTypesDetail[i].price\n            );\n        }\n\n        marketOwnerAddress = _marketOwnerAddress;\n        baseMetadataUri = _baseMetadataUri;\n        campaignPaymentAddress = _campaignPaymentAddress;\n        isFixedTokenId = _isFixedTokenId;\n        coinToken = _coinToken;\n        symbol = _symbol;\n        name = _name;\n\n        _setupRole(ADMIN_ROLE, _adminAddress);\n        _setupRole(DEFAULT_ADMIN_ROLE, _adminAddress);\n        _setupRole(DESIGN_ROLE, _adminAddress);\n        _setupRole(BURNER_ROLE, _adminAddress);\n    }\n    \n\n    // /**\n    //  *      Function return tokenURI for specific NFT\n    //  *      @param _tokenId ID of NFT\n    //  *      @return uri of token with ID = _tokenId\n    //  */\n    // function uri(uint256 _tokenId) override public view returns (string memory) {\n    //     return(tokenDetails[_tokenId].uri);\n    // }\n\n\n    // Get all nft by owner\n    function getNftByOwner(address _owner) external view returns (InZNFTDetail.NFTDetail[] memory) {\n        InZNFTDetail.NFTDetail[] memory nfts = new InZNFTDetail.NFTDetail[](holders[_owner].length);\n        for (uint256 i = 0; i < holders[_owner].length; ++i) {\n            uint256 amountOfIdUserOwner = balanceOf(_owner, holders[_owner][i]);\n            if (amountOfIdUserOwner <= 0) continue;\n\n            nfts[i] = tokenDetails[holders[_owner][i]];\n        }\n        return nfts;\n    }\n\n    /** Get token type info */\n    function getNFTTypeInfo(uint8 _tokenType) external view returns (uint256 _totalSupply, uint256 _mintedSupply, uint256 _pricePerItem) {\n        InZNFTTypeDetail.NFTTypeDetail memory typeDetail = nftTypeDetails[_tokenType];\n        _totalSupply = typeDetail.totalSupply;\n        _pricePerItem = typeDetail.price;\n        _mintedSupply = nftTypeSupply[_tokenType];\n\n        return (_totalSupply, _mintedSupply, _pricePerItem);\n    }\n\n    /**\n     *          SETTERS\n     */\n    function setMaxAllocation(uint256 _maxAllocation) external onlyRole(DESIGN_ROLE) {\n        maxAllocation = _maxAllocation;\n    }\n\n    function setCampaignPaymentAddress(address _campaignPaymentAddress) external onlyRole(DESIGN_ROLE) {\n        campaignPaymentAddress = _campaignPaymentAddress;\n    }\n\n    function setWhiteListStartTime(uint256 _whitelistStartTime) external onlyRole(DESIGN_ROLE) {\n        whitelistStartTime = _whitelistStartTime;\n    }\n\n    function setPublicStartTime(uint256 _publicStartTime) external onlyRole(DESIGN_ROLE) {\n        publicStartTime = _publicStartTime;\n    }\n\n    function setEndTimeToBuy(uint256 _endTimeToBuy) external onlyRole(DESIGN_ROLE) {\n        endTimeToBuy = _endTimeToBuy;\n    }\n\n    function setCoinToken(IERC20 _coinToken) external onlyRole(DESIGN_ROLE) {\n        coinToken = _coinToken;\n    }\n\n    function customTokenIdToWhiteList(uint256 _tokenId, bool _isActive) external onlyRole(DESIGN_ROLE) {\n        customTokenIdsWhiteList[_tokenId] = _isActive;\n    }\n\n    function tokenIdIsInWhiteList(uint256 _tokenId) external view onlyRole(DESIGN_ROLE) returns(bool) {\n        return customTokenIdsWhiteList[_tokenId];\n    }\n\n\n    function withdraw() external  onlyRole(DEFAULT_ADMIN_ROLE) {\n        coinToken.transfer(msg.sender, coinToken.balanceOf(address(this)));\n    }\n\n    // set whitelist address with amount can buy\n    function setWhitelistBuyable(address[] memory _whitelistAddresses, uint256[] memory _buyableAmountList) external onlyRole(ADMIN_ROLE) {\n        require(_whitelistAddresses.length == _buyableAmountList.length, \"Whitelist and buyable amount list must be same length\");\n        for (uint256 i = 0; i < _whitelistAddresses.length; i++) {\n            whitelistBuyable[_whitelistAddresses[i]] = _buyableAmountList[i];\n        }\n    }\n\n    /**\n    * @dev Mint tokens for id defined (first buy on market)\n    * @param _tokenId       Id to mint\n    * @param _tokenType     Type of token to mint - if tokenType is 0\n    * @param _to            Address receive NFT\n    */\n    function mint(\n        uint256 _tokenId, \n        uint8 _tokenType,\n        address _to\n    ) external  {\n        address _buyer = msg.sender;\n        // Check time to buy\n        require(block.timestamp >= publicStartTime, \"It's not time to buy public sale\");\n        require(block.timestamp <= endTimeToBuy, \"It's not time to buy\");\n\n        // Check max allocation user can buy\n        if (maxAllocation > 0) {\n            require(holders[_to].length < maxAllocation, \"Buy limit reached\");\n        }\n        \n        // Check token type is exist in this campaign\n        InZNFTTypeDetail.NFTTypeDetail memory nftTypeDetail = nftTypeDetails[_tokenType];\n        require(nftTypeDetail.totalSupply > 0, \"Token type does not exist\");\n        \n        // Check token type supply\n        uint256 nftTypeHaveMinted = nftTypeSupply[_tokenType];\n        require(nftTypeDetail.totalSupply > nftTypeHaveMinted, \"Token run out\");\n\n        // If not fixed token id, id is auto increment\n        if (!isFixedTokenId) {\n            tokenIdCounter.increment();\n            _tokenId = tokenIdCounter.current();\n        } else {\n            // require custom token id in white list\n            require(_isCustomTokenIdExist(_tokenId), \"Token id isn't in whitelist\");\n        }\n\n        // Check token id is minted\n        InZNFTDetail.NFTDetail memory tokenDetail = tokenDetails[_tokenId];\n        require(tokenDetail.quantity == 0, \"Token id is minted\");\n\n        uint256 marketPlaceFee = _marketFee(nftTypeDetail.price);\n\n        require(nftTypeDetail.price <= coinToken.balanceOf(_to), \"User need hold enough Token to buy this nft\");\n\n        // Fee for market\n        coinToken.transferFrom(_buyer, marketOwnerAddress, marketPlaceFee);\n        // Profit for the kol (total price - marketPlaceFee - discountFee)\n        uint256 kolProfit = nftTypeDetail.price - marketPlaceFee;\n        coinToken.transferFrom(_buyer, campaignPaymentAddress, kolProfit);\n\n        // _setTokenUri(_tokenId, nftTypeDetail.cid);\n        _mint(_to, _tokenId, 1, \"\");\n        \n        // Update user bought list\n        holders[_to].push(_tokenId);\n        \n        // Update nft type supply have minted\n        nftTypeSupply[_tokenType] = nftTypeHaveMinted + 1;\n\n        // Update token id by type\n        tokenIdsByType[_tokenId] = _tokenType;\n\n        string memory metaDataUri = uri(_tokenId);\n\n        // Update list token id in campaign\n        tokenDetail.tokenId = _tokenId;\n        tokenDetail.tokenType = _tokenType;\n        tokenDetail.quantity = 1;\n        // tokenDetail.uri = metaDataUri;\n        tokenDetail.isOpened = _tokenType > 0;\n        tokenDetail.owner = _to;\n\n        tokenDetails[_tokenId] = tokenDetail;\n\n        emit Mint(_to, _tokenId, _tokenType, metaDataUri, kolProfit, marketPlaceFee);\n    }\n\n    /**\n      * @dev Mint token for user have gift code\n    * @param _to                 The address to mint token to (dev Wallet)\n    * @param _tokenId            Id to mint\n    * @param _tokenType          Token type to mint\n    * should update access control only dev or owner can call this function\n    */\n    function mintByGiftCode(\n        address _to,\n        uint256 _tokenId, \n        uint8 _tokenType, \n        string memory _giftCode\n        ) \n            external\n            onlyRole(ADMIN_ROLE) \n            returns (uint256)\n        {\n        // Check time to buy\n        require(block.timestamp >= publicStartTime, \"It's not time to buy public sale\");\n        require(block.timestamp <= endTimeToBuy, \"It's not time to buy\");\n\n        // Check giftCode is activated\n        require(!giftCodes[_giftCode], \"Gift code is already activated\");\n        \n        // Check token type is exist in this campaign\n        InZNFTTypeDetail.NFTTypeDetail memory nftTypeDetail = nftTypeDetails[_tokenType];\n        require(nftTypeDetail.totalSupply > 0, \"Token type does not exist\");\n        \n        // Check token type supply\n        uint256 nftTypeHaveMinted = nftTypeSupply[_tokenType];\n        require(nftTypeDetail.totalSupply > nftTypeHaveMinted, \"Token run out\");\n\n        // If not fixed token id, id is auto increment\n        if (!isFixedTokenId) {\n            tokenIdCounter.increment();\n            _tokenId = tokenIdCounter.current();\n        } else {\n            // require custom token id in white list\n            require(_isCustomTokenIdExist(_tokenId), \"Token id isn't in whitelist\");\n        }\n\n        // Check token id is minted\n        InZNFTDetail.NFTDetail memory tokenDetail = tokenDetails[_tokenId];\n        require(tokenDetail.quantity == 0, \"Token id is minted\");\n        // _setTokenUri(_tokenId, nftTypeDetail.cid);\n        _mint(_to, _tokenId, 1, \"\");\n\n        // Update user bought amount\n        holders[_to].push(_tokenId);\n        \n        // Update nft type supply have minted\n        nftTypeSupply[_tokenType] = nftTypeHaveMinted + 1;\n\n        // Update token id by type\n        tokenIdsByType[_tokenId] = _tokenType;\n\n        string memory metaDataUri = uri(_tokenId);\n\n        // Update list token id in campaign\n        tokenDetail.tokenId = _tokenId;\n        tokenDetail.tokenType = _tokenType;\n        tokenDetail.quantity = 1;\n        // tokenDetail.uri = metaDataUri;\n        tokenDetail.isOpened = _tokenType > 0;\n        tokenDetail.owner = _to;\n\n        tokenDetails[_tokenId] = tokenDetail;\n        giftCodes[_giftCode] = true;\n\n        emit ActiveGiftCode(_to, _tokenId, _tokenType, metaDataUri, _giftCode);\n        emit Mint(_to, _tokenId, _tokenType, metaDataUri, 0, 0);\n\n        return _tokenId;\n    }\n\n    /**\n    * @dev Address in whitelist Mint tokens for id defined (first buy on market)\n    * @param _tokenId       Id to mint\n    * @param _tokenType     Type of token to mint - if tokenType is 0\n    * @param _to            Address receive NFT\n    */\n    function whitelistMint(\n        uint256 _tokenId, \n        uint8 _tokenType,\n        address _to\n    ) external  {\n        address _buyer = msg.sender;\n        // Check time to buy\n        require(block.timestamp >= whitelistStartTime, \"It's not time to buy whitelist sale\");\n        require(block.timestamp <= endTimeToBuy, \"It's not time to buy\");\n\n        // Check whitelist can mint\n        require(whitelistBuyable[_to] > 0, \"User not in whitelist or limit reached\");\n        \n        // Check token type is exist in this campaign\n        InZNFTTypeDetail.NFTTypeDetail memory nftTypeDetail = nftTypeDetails[_tokenType];\n        require(nftTypeDetail.totalSupply > 0, \"Token type does not exist\");\n        \n        // Check token type supply\n        uint256 nftTypeHaveMinted = nftTypeSupply[_tokenType];\n        require(nftTypeDetail.totalSupply > nftTypeHaveMinted, \"Token run out\");\n\n        // If not fixed token id, id is auto increment\n        if (!isFixedTokenId) {\n            tokenIdCounter.increment();\n            _tokenId = tokenIdCounter.current();\n        } else {\n            // require custom token id in white list\n            require(_isCustomTokenIdExist(_tokenId), \"Token id isn't in whitelist\");\n        }\n\n        // Check token id is minted\n        InZNFTDetail.NFTDetail memory tokenDetail = tokenDetails[_tokenId];\n        require(tokenDetail.quantity == 0, \"Token id is minted\");\n\n        uint256 marketPlaceFee = _marketFee(nftTypeDetail.price);\n\n        require(nftTypeDetail.price <= coinToken.balanceOf(_buyer), \"User need hold enough Token to buy this nft\");\n\n        // Fee for market\n        coinToken.transferFrom(_buyer, marketOwnerAddress, marketPlaceFee);\n        // Profit for the kol (total price - marketPlaceFee - discountFee)\n        uint256 kolProfit = nftTypeDetail.price - marketPlaceFee;\n        coinToken.transferFrom(_buyer, campaignPaymentAddress, kolProfit);\n\n        // _setTokenUri(_tokenId, nftTypeDetail.cid);\n        _mint(_to, _tokenId, 1, \"\");\n\n        // Update user bought amount\n        holders[_to].push(_tokenId);\n\n        // update whitelistBought and whitelistRoundBought\n        whitelistRoundBought += 1;\n        whitelistBuyable[_to] -= 1;\n        \n        // Update nft type supply have minted\n        nftTypeSupply[_tokenType] = nftTypeHaveMinted + 1;\n\n        // Update token id by type\n        tokenIdsByType[_tokenId] = _tokenType;\n\n        string memory metaDataUri = uri(_tokenId);\n\n        // Update list token id in campaign\n        tokenDetail.tokenId = _tokenId;\n        tokenDetail.tokenType = _tokenType;\n        tokenDetail.quantity = 1;\n        // tokenDetail.uri = metaDataUri;\n        tokenDetail.isOpened = _tokenType > 0;\n        tokenDetail.owner = _to;\n\n        tokenDetails[_tokenId] = tokenDetail;\n\n        emit Mint(_to, _tokenId, _tokenType, metaDataUri, kolProfit, marketPlaceFee);\n    }\n\n    /**\n     *  @notice     This function is only used for estimation purpose, therefore the call will always revert and encode the result in the revert data.\n     *  @dev        This function's used for estimate gas for a execution call\n     *  @param to           The address of caller\n     *  @param value        The value of msg.value\n     *  @param data         The data sent with tx\n     *  @param operation    the operation of tx\n     */\n    function requiredTxGas(\n        address to,\n        uint256 value,\n        bytes calldata data,\n        InterfaceFunction.Operation operation\n    ) \n        external\n        onlyRole(ADMIN_ROLE)\n        // returns (uint256)\n    {\n        InterfaceFunction.requiredTxGas(to, value, data, operation);\n    }\n\n    /**\n     * This function allow ADMIN can execute a function witj specificed logic and params flexibily\n     * @param to The caller of tx\n     * @param value The msg.value of tx\n     * @param txGas The estimated gas using for the tx\n     * @param data The data comming with the tx\n     * @param operation The operation of tx\n     */\n    function execTx(\n        address to,\n        uint256 value,\n        uint256 txGas,\n        bytes calldata data,\n        InterfaceFunction.Operation operation\n    ) \n        external \n        onlyRole(ADMIN_ROLE) \n    {\n        InterfaceFunction.execTx(to, value, txGas, data, operation);\n    }\n\n    /**\n     *      INHERITANCE FUNCTIONS\n     */\n    function supportsInterface(bytes4 interfaceId) public view override(ERC1155Upgradeable, AccessControlUpgradeable) returns (bool) {\n        return super.supportsInterface(interfaceId);\n    }\n\n    /**\n     *          INTERNAL FUNCTION\n     */\n    function _authorizeUpgrade(address newImplementation)\n        internal\n        override\n        onlyRole(ADMIN_ROLE)\n    {}\n\n    /** Marketplace fee */\n    function _marketFee(uint256 _amount) internal view returns (uint256 fee) {\n        // TODO check rate\n        uint256 marketFeePercent = IInZNFTMarket(marketOwnerAddress).getMarketFeePercent(address(this));\n        fee = (_amount / 10000) * marketFeePercent;\n    }\n\n    function _isCustomTokenIdExist(uint256 _tokenId) internal view returns (bool) {\n        return customTokenIdsWhiteList[_tokenId];\n    }\n}\n",
  "sourcePath": "/Users/huy8bit/Desktop/DRIVE/JOB/ATOM SOLUTION/TASK/inz-dapp-api/dev/inz-smc/contracts/minting/campaignNFT/InzCampaignTypesNFT1155.sol",
  "compiler": {
    "name": "solc",
    "version": "0.8.19+commit.7dd6d404.Emscripten.clang"
  },
  "schemaVersion": "3.4.14",
  "updatedAt": "2023-08-28T08:04:22.848Z",
  "devdoc": {
    "events": {
      "AdminChanged(address,address)": {
        "details": "Emitted when the admin account has changed."
      },
      "ApprovalForAll(address,address,bool)": {
        "details": "Emitted when `account` grants or revokes permission to `operator` to transfer their tokens, according to `approved`."
      },
      "BeaconUpgraded(address)": {
        "details": "Emitted when the beacon is upgraded."
      },
      "Initialized(uint8)": {
        "details": "Triggered when the contract has been initialized or reinitialized."
      },
      "RoleAdminChanged(bytes32,bytes32,bytes32)": {
        "details": "Emitted when `newAdminRole` is set as ``role``'s admin role, replacing `previousAdminRole` `DEFAULT_ADMIN_ROLE` is the starting admin for all roles, despite {RoleAdminChanged} not being emitted signaling this. _Available since v3.1._"
      },
      "RoleGranted(bytes32,address,address)": {
        "details": "Emitted when `account` is granted `role`. `sender` is the account that originated the contract call, an admin role bearer except when using {AccessControl-_setupRole}."
      },
      "RoleRevoked(bytes32,address,address)": {
        "details": "Emitted when `account` is revoked `role`. `sender` is the account that originated the contract call:   - if using `revokeRole`, it is the admin role bearer   - if using `renounceRole`, it is the role bearer (i.e. `account`)"
      },
      "TransferBatch(address,address,address,uint256[],uint256[])": {
        "details": "Equivalent to multiple {TransferSingle} events, where `operator`, `from` and `to` are the same for all transfers."
      },
      "TransferSingle(address,address,address,uint256,uint256)": {
        "details": "Emitted when `value` tokens of token type `id` are transferred from `from` to `to` by `operator`."
      },
      "URI(string,uint256)": {
        "details": "Emitted when the URI for token type `id` changes to `value`, if it is a non-programmatic URI. If an {URI} event was emitted for `id`, the standard https://eips.ethereum.org/EIPS/eip-1155#metadata-extensions[guarantees] that `value` will equal the value returned by {IERC1155MetadataURI-uri}."
      },
      "Upgraded(address)": {
        "details": "Emitted when the implementation is upgraded."
      }
    },
    "kind": "dev",
    "methods": {
      "balanceOf(address,uint256)": {
        "details": "See {IERC1155-balanceOf}. Requirements: - `account` cannot be the zero address."
      },
      "balanceOfBatch(address[],uint256[])": {
        "details": "See {IERC1155-balanceOfBatch}. Requirements: - `accounts` and `ids` must have the same length."
      },
      "execTx(address,uint256,uint256,bytes,uint8)": {
        "params": {
          "data": "The data comming with the tx",
          "operation": "The operation of tx",
          "to": "The caller of tx",
          "txGas": "The estimated gas using for the tx",
          "value": "The msg.value of tx"
        }
      },
      "getRoleAdmin(bytes32)": {
        "details": "Returns the admin role that controls `role`. See {grantRole} and {revokeRole}. To change a role's admin, use {_setRoleAdmin}."
      },
      "grantRole(bytes32,address)": {
        "details": "Grants `role` to `account`. If `account` had not been already granted `role`, emits a {RoleGranted} event. Requirements: - the caller must have ``role``'s admin role. May emit a {RoleGranted} event."
      },
      "hasRole(bytes32,address)": {
        "details": "Returns `true` if `account` has been granted `role`."
      },
      "isApprovedForAll(address,address)": {
        "details": "See {IERC1155-isApprovedForAll}."
      },
      "mint(uint256,uint8,address)": {
        "details": "Mint tokens for id defined (first buy on market)",
        "params": {
          "_to": "Address receive NFT",
          "_tokenId": "Id to mint",
          "_tokenType": "Type of token to mint - if tokenType is 0"
        }
      },
      "mintByGiftCode(address,uint256,uint8,string)": {
        "details": "Mint token for user have gift code",
        "params": {
          "_to": "The address to mint token to (dev Wallet)",
          "_tokenId": "Id to mint",
          "_tokenType": "Token type to mint should update access control only dev or owner can call this function"
        }
      },
      "owner()": {
        "details": "Returns the address of the current owner."
      },
      "proxiableUUID()": {
        "details": "Implementation of the ERC1822 {proxiableUUID} function. This returns the storage slot used by the implementation. It is used to validate the implementation's compatibility when performing an upgrade. IMPORTANT: A proxy pointing at a proxiable contract should not be considered proxiable itself, because this risks bricking a proxy that upgrades to it, by delegating to itself until out of gas. Thus it is critical that this function revert if invoked through a proxy. This is guaranteed by the `notDelegated` modifier."
      },
      "renounceOwnership()": {
        "details": "Leaves the contract without owner. It will not be possible to call `onlyOwner` functions anymore. Can only be called by the current owner. NOTE: Renouncing ownership will leave the contract without an owner, thereby removing any functionality that is only available to the owner."
      },
      "renounceRole(bytes32,address)": {
        "details": "Revokes `role` from the calling account. Roles are often managed via {grantRole} and {revokeRole}: this function's purpose is to provide a mechanism for accounts to lose their privileges if they are compromised (such as when a trusted device is misplaced). If the calling account had been revoked `role`, emits a {RoleRevoked} event. Requirements: - the caller must be `account`. May emit a {RoleRevoked} event."
      },
      "requiredTxGas(address,uint256,bytes,uint8)": {
        "details": "This function's used for estimate gas for a execution call",
        "params": {
          "data": "The data sent with tx",
          "operation": "the operation of tx",
          "to": "The address of caller",
          "value": "The value of msg.value"
        }
      },
      "revokeRole(bytes32,address)": {
        "details": "Revokes `role` from `account`. If `account` had been granted `role`, emits a {RoleRevoked} event. Requirements: - the caller must have ``role``'s admin role. May emit a {RoleRevoked} event."
      },
      "safeBatchTransferFrom(address,address,uint256[],uint256[],bytes)": {
        "details": "See {IERC1155-safeBatchTransferFrom}."
      },
      "safeTransferFrom(address,address,uint256,uint256,bytes)": {
        "details": "See {IERC1155-safeTransferFrom}."
      },
      "setApprovalForAll(address,bool)": {
        "details": "See {IERC1155-setApprovalForAll}."
      },
      "transferOwnership(address)": {
        "details": "Transfers ownership of the contract to a new account (`newOwner`). Can only be called by the current owner."
      },
      "upgradeTo(address)": {
        "details": "Upgrade the implementation of the proxy to `newImplementation`. Calls {_authorizeUpgrade}. Emits an {Upgraded} event."
      },
      "upgradeToAndCall(address,bytes)": {
        "details": "Upgrade the implementation of the proxy to `newImplementation`, and subsequently execute the function call encoded in `data`. Calls {_authorizeUpgrade}. Emits an {Upgraded} event."
      },
      "uri(uint256)": {
        "details": "See {IERC1155MetadataURI-uri}. This implementation returns the same URI for *all* token types. It relies on the token type ID substitution mechanism https://eips.ethereum.org/EIPS/eip-1155#metadata[defined in the EIP]. Clients calling this function must replace the `\\{id\\}` substring with the actual token type ID."
      },
      "whitelistMint(uint256,uint8,address)": {
        "details": "Address in whitelist Mint tokens for id defined (first buy on market)",
        "params": {
          "_to": "Address receive NFT",
          "_tokenId": "Id to mint",
          "_tokenType": "Type of token to mint - if tokenType is 0"
        }
      }
    },
    "version": 1
  },
  "userdoc": {
    "events": {
      "ActiveGiftCode(address,uint256,uint8,string,string)": {
        "notice": "Event Definitions"
      }
    },
    "kind": "user",
    "methods": {
      "execTx(address,uint256,uint256,bytes,uint8)": {
        "notice": "This function allow ADMIN can execute a function witj specificed logic and params flexibily"
      },
      "getNFTTypeInfo(uint8)": {
        "notice": "Get token type info "
      },
      "initialize(address,string,address,bool,address,string,string,address,(uint8,uint256,uint256)[],uint256)": {
        "notice": "Contract Initialization"
      },
      "requiredTxGas(address,uint256,bytes,uint8)": {
        "notice": "This function is only used for estimation purpose, therefore the call will always revert and encode the result in the revert data."
      },
      "setMaxAllocation(uint256)": {
        "notice": "SETTERS"
      },
      "supportsInterface(bytes4)": {
        "notice": "INHERITANCE FUNCTIONS"
      }
    },
    "version": 1
  }
}