{
  "contractName": "InZPos",
  "abi": [
    {
      "anonymous": false,
      "inputs": [
        {
          "indexed": false,
          "internalType": "uint8",
          "name": "version",
          "type": "uint8"
        }
      ],
      "name": "Initialized",
      "type": "event"
    },
    {
      "anonymous": false,
      "inputs": [
        {
          "indexed": true,
          "internalType": "address",
          "name": "previousOwner",
          "type": "address"
        },
        {
          "indexed": true,
          "internalType": "address",
          "name": "newOwner",
          "type": "address"
        }
      ],
      "name": "OwnershipTransferred",
      "type": "event"
    },
    {
      "anonymous": false,
      "inputs": [
        {
          "indexed": false,
          "internalType": "address",
          "name": "account",
          "type": "address"
        }
      ],
      "name": "Paused",
      "type": "event"
    },
    {
      "anonymous": false,
      "inputs": [
        {
          "indexed": false,
          "internalType": "address",
          "name": "fromAddress",
          "type": "address"
        },
        {
          "indexed": false,
          "internalType": "address",
          "name": "tokenAddress",
          "type": "address"
        },
        {
          "indexed": false,
          "internalType": "uint256",
          "name": "amount",
          "type": "uint256"
        },
        {
          "indexed": false,
          "internalType": "string",
          "name": "callBackData",
          "type": "string"
        }
      ],
      "name": "PosDeposit",
      "type": "event"
    },
    {
      "anonymous": false,
      "inputs": [
        {
          "indexed": false,
          "internalType": "address",
          "name": "toAddress",
          "type": "address"
        },
        {
          "indexed": false,
          "internalType": "address",
          "name": "tokenAddress",
          "type": "address"
        },
        {
          "indexed": false,
          "internalType": "uint256",
          "name": "amount",
          "type": "uint256"
        }
      ],
      "name": "PosTransfer",
      "type": "event"
    },
    {
      "anonymous": false,
      "inputs": [
        {
          "indexed": false,
          "internalType": "address",
          "name": "toAddress",
          "type": "address"
        },
        {
          "indexed": false,
          "internalType": "uint256",
          "name": "amount",
          "type": "uint256"
        }
      ],
      "name": "PosWithdraw",
      "type": "event"
    },
    {
      "anonymous": false,
      "inputs": [
        {
          "indexed": true,
          "internalType": "bytes32",
          "name": "role",
          "type": "bytes32"
        },
        {
          "indexed": true,
          "internalType": "bytes32",
          "name": "previousAdminRole",
          "type": "bytes32"
        },
        {
          "indexed": true,
          "internalType": "bytes32",
          "name": "newAdminRole",
          "type": "bytes32"
        }
      ],
      "name": "RoleAdminChanged",
      "type": "event"
    },
    {
      "anonymous": false,
      "inputs": [
        {
          "indexed": true,
          "internalType": "bytes32",
          "name": "role",
          "type": "bytes32"
        },
        {
          "indexed": true,
          "internalType": "address",
          "name": "account",
          "type": "address"
        },
        {
          "indexed": true,
          "internalType": "address",
          "name": "sender",
          "type": "address"
        }
      ],
      "name": "RoleGranted",
      "type": "event"
    },
    {
      "anonymous": false,
      "inputs": [
        {
          "indexed": true,
          "internalType": "bytes32",
          "name": "role",
          "type": "bytes32"
        },
        {
          "indexed": true,
          "internalType": "address",
          "name": "account",
          "type": "address"
        },
        {
          "indexed": true,
          "internalType": "address",
          "name": "sender",
          "type": "address"
        }
      ],
      "name": "RoleRevoked",
      "type": "event"
    },
    {
      "anonymous": false,
      "inputs": [
        {
          "indexed": false,
          "internalType": "address",
          "name": "account",
          "type": "address"
        }
      ],
      "name": "Unpaused",
      "type": "event"
    },
    {
      "inputs": [],
      "name": "DEFAULT_ADMIN_ROLE",
      "outputs": [
        {
          "internalType": "bytes32",
          "name": "",
          "type": "bytes32"
        }
      ],
      "stateMutability": "view",
      "type": "function"
    },
    {
      "inputs": [],
      "name": "PAUSER_ROLE",
      "outputs": [
        {
          "internalType": "bytes32",
          "name": "",
          "type": "bytes32"
        }
      ],
      "stateMutability": "view",
      "type": "function"
    },
    {
      "inputs": [],
      "name": "TRANSFER_ROLE",
      "outputs": [
        {
          "internalType": "bytes32",
          "name": "",
          "type": "bytes32"
        }
      ],
      "stateMutability": "view",
      "type": "function"
    },
    {
      "inputs": [],
      "name": "UPGRADER_ROLE",
      "outputs": [
        {
          "internalType": "bytes32",
          "name": "",
          "type": "bytes32"
        }
      ],
      "stateMutability": "view",
      "type": "function"
    },
    {
      "inputs": [],
      "name": "WITHDRAW_ROLE",
      "outputs": [
        {
          "internalType": "bytes32",
          "name": "",
          "type": "bytes32"
        }
      ],
      "stateMutability": "view",
      "type": "function"
    },
    {
      "inputs": [
        {
          "internalType": "bytes32",
          "name": "role",
          "type": "bytes32"
        }
      ],
      "name": "getRoleAdmin",
      "outputs": [
        {
          "internalType": "bytes32",
          "name": "",
          "type": "bytes32"
        }
      ],
      "stateMutability": "view",
      "type": "function"
    },
    {
      "inputs": [
        {
          "internalType": "bytes32",
          "name": "role",
          "type": "bytes32"
        },
        {
          "internalType": "address",
          "name": "account",
          "type": "address"
        }
      ],
      "name": "grantRole",
      "outputs": [],
      "stateMutability": "nonpayable",
      "type": "function"
    },
    {
      "inputs": [
        {
          "internalType": "bytes32",
          "name": "role",
          "type": "bytes32"
        },
        {
          "internalType": "address",
          "name": "account",
          "type": "address"
        }
      ],
      "name": "hasRole",
      "outputs": [
        {
          "internalType": "bool",
          "name": "",
          "type": "bool"
        }
      ],
      "stateMutability": "view",
      "type": "function"
    },
    {
      "inputs": [],
      "name": "owner",
      "outputs": [
        {
          "internalType": "address",
          "name": "",
          "type": "address"
        }
      ],
      "stateMutability": "view",
      "type": "function"
    },
    {
      "inputs": [],
      "name": "paused",
      "outputs": [
        {
          "internalType": "bool",
          "name": "",
          "type": "bool"
        }
      ],
      "stateMutability": "view",
      "type": "function"
    },
    {
      "inputs": [],
      "name": "renounceOwnership",
      "outputs": [],
      "stateMutability": "nonpayable",
      "type": "function"
    },
    {
      "inputs": [
        {
          "internalType": "bytes32",
          "name": "role",
          "type": "bytes32"
        },
        {
          "internalType": "address",
          "name": "account",
          "type": "address"
        }
      ],
      "name": "renounceRole",
      "outputs": [],
      "stateMutability": "nonpayable",
      "type": "function"
    },
    {
      "inputs": [
        {
          "internalType": "bytes32",
          "name": "role",
          "type": "bytes32"
        },
        {
          "internalType": "address",
          "name": "account",
          "type": "address"
        }
      ],
      "name": "revokeRole",
      "outputs": [],
      "stateMutability": "nonpayable",
      "type": "function"
    },
    {
      "inputs": [
        {
          "internalType": "bytes4",
          "name": "interfaceId",
          "type": "bytes4"
        }
      ],
      "name": "supportsInterface",
      "outputs": [
        {
          "internalType": "bool",
          "name": "",
          "type": "bool"
        }
      ],
      "stateMutability": "view",
      "type": "function"
    },
    {
      "inputs": [
        {
          "internalType": "address",
          "name": "newOwner",
          "type": "address"
        }
      ],
      "name": "transferOwnership",
      "outputs": [],
      "stateMutability": "nonpayable",
      "type": "function"
    },
    {
      "inputs": [],
      "name": "initialize",
      "outputs": [],
      "stateMutability": "nonpayable",
      "type": "function"
    },
    {
      "inputs": [
        {
          "internalType": "address",
          "name": "_toAddress",
          "type": "address"
        },
        {
          "internalType": "address",
          "name": "_tokenAddress",
          "type": "address"
        },
        {
          "internalType": "uint256",
          "name": "_amount",
          "type": "uint256"
        }
      ],
      "name": "transferToken",
      "outputs": [],
      "stateMutability": "nonpayable",
      "type": "function"
    },
    {
      "inputs": [
        {
          "internalType": "address",
          "name": "_tokenAddress",
          "type": "address"
        },
        {
          "internalType": "uint256",
          "name": "_amount",
          "type": "uint256"
        }
      ],
      "name": "withdrawToken",
      "outputs": [],
      "stateMutability": "nonpayable",
      "type": "function"
    },
    {
      "inputs": [
        {
          "internalType": "address",
          "name": "_tokenAddress",
          "type": "address"
        },
        {
          "internalType": "uint256",
          "name": "_amount",
          "type": "uint256"
        },
        {
          "internalType": "string",
          "name": "_callBackData",
          "type": "string"
        }
      ],
      "name": "depositToken",
      "outputs": [],
      "stateMutability": "nonpayable",
      "type": "function"
    },
    {
      "inputs": [
        {
          "internalType": "address",
          "name": "_tokenAddress",
          "type": "address"
        }
      ],
      "name": "getBalance",
      "outputs": [
        {
          "internalType": "uint256",
          "name": "",
          "type": "uint256"
        }
      ],
      "stateMutability": "view",
      "type": "function"
    },
    {
      "inputs": [],
      "name": "pause",
      "outputs": [],
      "stateMutability": "nonpayable",
      "type": "function"
    },
    {
      "inputs": [],
      "name": "unpause",
      "outputs": [],
      "stateMutability": "nonpayable",
      "type": "function"
    }
  ],
  "bytecode": "0x608060405234801561001057600080fd5b5061160c806100206000396000f3fe608060405234801561001057600080fd5b50600436106101425760003560e01c806391d14854116100b8578063e02023a11161007c578063e02023a114610289578063e63ab1e9146102b0578063f2fde38b146102c5578063f5537ede146102d8578063f72c0d8b146102eb578063f8b2cb4f1461031257600080fd5b806391d14854146102355780639e281a9814610248578063a10d09601461025b578063a217fddf1461026e578063d547741f1461027657600080fd5b80633f4ba83a1161010a5780633f4ba83a146101ef5780635c975abb146101f7578063715018a6146102025780638129fc1c1461020a5780638456cb59146102125780638da5cb5b1461021a57600080fd5b806301ffc9a714610147578063206b60f91461016f578063248a9ca3146101a45780632f2ff15d146101c757806336568abe146101dc575b600080fd5b61015a6101553660046111ae565b610325565b60405190151581526020015b60405180910390f35b6101967f8502233096d909befbda0999bb8ea2f3a6be3c138b9fbf003752a4c8bce86f6c81565b604051908152602001610166565b6101966101b23660046111d8565b60009081526065602052604090206001015490565b6101da6101d536600461120d565b61035c565b005b6101da6101ea36600461120d565b610386565b6101da610409565b60975460ff1661015a565b6101da61042c565b6101da610440565b6101da6105f9565b60c9546040516001600160a01b039091168152602001610166565b61015a61024336600461120d565b610619565b6101da610256366004611239565b610644565b6101da610269366004611279565b610678565b610196600081565b6101da61028436600461120d565b610718565b6101967f5d8e12c39142ff96d79d04d15d1ba1269e4fe57bb9d26f43523628b34ba108ec81565b6101966000805160206115b783398151915281565b6101da6102d3366004611344565b61073d565b6101da6102e636600461135f565b6107b3565b6101967f189ab7a9244df0848122154315af71fe140f3db0fe014031783b0946b8c9d2e381565b610196610320366004611344565b6107ee565b60006001600160e01b03198216637965db0b60e01b148061035657506301ffc9a760e01b6001600160e01b03198316145b92915050565b60008281526065602052604090206001015461037781610817565b6103818383610821565b505050565b6001600160a01b03811633146103fb5760405162461bcd60e51b815260206004820152602f60248201527f416363657373436f6e74726f6c3a2063616e206f6e6c792072656e6f756e636560448201526e103937b632b9903337b91039b2b63360891b60648201526084015b60405180910390fd5b61040582826108a7565b5050565b6000805160206115b783398151915261042181610817565b61042961090e565b50565b610434610960565b61043e60006109ba565b565b600054610100900460ff16158080156104605750600054600160ff909116105b8061047a5750303b15801561047a575060005460ff166001145b6104dd5760405162461bcd60e51b815260206004820152602e60248201527f496e697469616c697a61626c653a20636f6e747261637420697320616c72656160448201526d191e481a5b9a5d1a585b1a5e995960921b60648201526084016103f2565b6000805460ff191660011790558015610500576000805461ff0019166101001790555b610508610a0c565b610510610a33565b61051b600033610a62565b6105336000805160206115b783398151915233610a62565b61055d7f189ab7a9244df0848122154315af71fe140f3db0fe014031783b0946b8c9d2e333610a62565b6105877f5d8e12c39142ff96d79d04d15d1ba1269e4fe57bb9d26f43523628b34ba108ec33610a62565b6105b17f8502233096d909befbda0999bb8ea2f3a6be3c138b9fbf003752a4c8bce86f6c33610a62565b8015610429576000805461ff0019169055604051600181527f7f26b83ff96e1f2b6a682f133852f6798a09c465da95921460cefb38474024989060200160405180910390a150565b6000805160206115b783398151915261061181610817565b610429610a6c565b60009182526065602090815260408084206001600160a01b0393909316845291905290205460ff1690565b7f5d8e12c39142ff96d79d04d15d1ba1269e4fe57bb9d26f43523628b34ba108ec61066e81610817565b6103818284610aa9565b333b156106be5760405162461bcd60e51b815260206004820152601460248201527310dbdb9d1c9858dd081b9bdd08185b1b1bddd95960621b60448201526064016103f2565b33321461070d5760405162461bcd60e51b815260206004820152601a60248201527f50726f787920636f6e7472616374206e6f7420616c6c6f77656400000000000060448201526064016103f2565b610381838383610bed565b60008281526065602052604090206001015461073381610817565b61038183836108a7565b610745610960565b6001600160a01b0381166107aa5760405162461bcd60e51b815260206004820152602660248201527f4f776e61626c653a206e6577206f776e657220697320746865207a65726f206160448201526564647265737360d01b60648201526084016103f2565b610429816109ba565b7f8502233096d909befbda0999bb8ea2f3a6be3c138b9fbf003752a4c8bce86f6c6107dd81610817565b6107e8848484610d8d565b50505050565b6000806107fa81610817565b50506001600160a01b0316600090815260fb602052604090205490565b6104298133610ede565b61082b8282610619565b6104055760008281526065602090815260408083206001600160a01b03851684529091529020805460ff191660011790556108633390565b6001600160a01b0316816001600160a01b0316837f2f8788117e7eff1d82e926ec794901d17c78024a50270940304540a733656f0d60405160405180910390a45050565b6108b18282610619565b156104055760008281526065602090815260408083206001600160a01b0385168085529252808320805460ff1916905551339285917ff6391f5c32d9c69d2a47ea670b442974b53935d1edc7fd64eb21e047a839171b9190a45050565b610916610f37565b6097805460ff191690557f5db9ee0a495bf2e6ff9c91a7834c1ba4fdd244a5e8aa4e537bd38aeae4b073aa335b6040516001600160a01b03909116815260200160405180910390a1565b60c9546001600160a01b0316331461043e5760405162461bcd60e51b815260206004820181905260248201527f4f776e61626c653a2063616c6c6572206973206e6f7420746865206f776e657260448201526064016103f2565b60c980546001600160a01b038381166001600160a01b0319831681179093556040519116919082907f8be0079c531659141344cd1fd0a4f28419497f9722a3daafe3b4186f6b6457e090600090a35050565b600054610100900460ff1661043e5760405162461bcd60e51b81526004016103f29061139b565b600054610100900460ff16610a5a5760405162461bcd60e51b81526004016103f29061139b565b61043e610f80565b6104058282610821565b610a74610fb3565b6097805460ff191660011790557f62e78cea01bee320cd4e420270b5ea74000d11b0c9f74754ebdbfc544b05a2586109433390565b6001600160a01b038116600090815260fb6020526040902054821115610b115760405162461bcd60e51b815260206004820152601d60248201527f4e6f7420656e6f75676820746f6b656e7320746f20776974686472617700000060448201526064016103f2565b60405163a9059cbb60e01b8152336004820152602481018390526001600160a01b0382169063a9059cbb906044016020604051808303816000875af1158015610b5e573d6000803e3d6000fd5b505050506040513d601f19601f82011682018060405250810190610b8291906113e6565b506001600160a01b038116600090815260fb602052604081208054849290610bab90849061141e565b909155505060408051338152602081018490527fa175fc4e3e2aaab237604b6aaca5daacd407be7af531d7a1b536670b9f605eeb910160405180910390a15050565b6040516370a0823160e01b815233600482015282906001600160a01b038516906370a0823190602401602060405180830381865afa158015610c33573d6000803e3d6000fd5b505050506040513d601f19601f82011682018060405250810190610c579190611431565b1015610ca55760405162461bcd60e51b815260206004820152601c60248201527f4e6f7420656e6f75676820746f6b656e7320746f206465706f7369740000000060448201526064016103f2565b6040516323b872dd60e01b8152336004820152306024820152604481018390526001600160a01b038416906323b872dd906064016020604051808303816000875af1158015610cf8573d6000803e3d6000fd5b505050506040513d601f19601f82011682018060405250810190610d1c91906113e6565b506001600160a01b038316600090815260fb602052604081208054849290610d4590849061144a565b90915550506040517f6d3264fffeeecdff54c3f1a3462a813795a129e3bbdf25a0afdeacc8e543cb7290610d809033908690869086906114ad565b60405180910390a1505050565b6001600160a01b038216600090815260fb6020526040902054811115610df55760405162461bcd60e51b815260206004820152601d60248201527f4e6f7420656e6f75676820746f6b656e7320746f207472616e7366657200000060448201526064016103f2565b60405163a9059cbb60e01b81526001600160a01b0384811660048301526024820183905283169063a9059cbb906044016020604051808303816000875af1158015610e44573d6000803e3d6000fd5b505050506040513d601f19601f82011682018060405250810190610e6891906113e6565b506001600160a01b038216600090815260fb602052604081208054839290610e9190849061141e565b9091555050604080516001600160a01b038086168252841660208201529081018290527f59afe62b0a1a7fb858686f439bfab52576737258ae2e13779ab458172428089e90606001610d80565b610ee88282610619565b61040557610ef581610ff9565b610f0083602061100b565b604051602001610f119291906114ea565b60408051601f198184030181529082905262461bcd60e51b82526103f29160040161155f565b60975460ff1661043e5760405162461bcd60e51b815260206004820152601460248201527314185d5cd8589b194e881b9bdd081c185d5cd95960621b60448201526064016103f2565b600054610100900460ff16610fa75760405162461bcd60e51b81526004016103f29061139b565b6097805460ff19169055565b60975460ff161561043e5760405162461bcd60e51b815260206004820152601060248201526f14185d5cd8589b194e881c185d5cd95960821b60448201526064016103f2565b60606103566001600160a01b03831660145b6060600061101a836002611572565b61102590600261144a565b67ffffffffffffffff81111561103d5761103d611263565b6040519080825280601f01601f191660200182016040528015611067576020820181803683370190505b509050600360fc1b8160008151811061108257611082611589565b60200101906001600160f81b031916908160001a905350600f60fb1b816001815181106110b1576110b1611589565b60200101906001600160f81b031916908160001a90535060006110d5846002611572565b6110e090600161144a565b90505b6001811115611158576f181899199a1a9b1b9c1cb0b131b232b360811b85600f166010811061111457611114611589565b1a60f81b82828151811061112a5761112a611589565b60200101906001600160f81b031916908160001a90535060049490941c936111518161159f565b90506110e3565b5083156111a75760405162461bcd60e51b815260206004820181905260248201527f537472696e67733a20686578206c656e67746820696e73756666696369656e7460448201526064016103f2565b9392505050565b6000602082840312156111c057600080fd5b81356001600160e01b0319811681146111a757600080fd5b6000602082840312156111ea57600080fd5b5035919050565b80356001600160a01b038116811461120857600080fd5b919050565b6000806040838503121561122057600080fd5b82359150611230602084016111f1565b90509250929050565b6000806040838503121561124c57600080fd5b611255836111f1565b946020939093013593505050565b634e487b7160e01b600052604160045260246000fd5b60008060006060848603121561128e57600080fd5b611297846111f1565b925060208401359150604084013567ffffffffffffffff808211156112bb57600080fd5b818601915086601f8301126112cf57600080fd5b8135818111156112e1576112e1611263565b604051601f8201601f19908116603f0116810190838211818310171561130957611309611263565b8160405282815289602084870101111561132257600080fd5b8260208601602083013760006020848301015280955050505050509250925092565b60006020828403121561135657600080fd5b6111a7826111f1565b60008060006060848603121561137457600080fd5b61137d846111f1565b925061138b602085016111f1565b9150604084013590509250925092565b6020808252602b908201527f496e697469616c697a61626c653a20636f6e7472616374206973206e6f74206960408201526a6e697469616c697a696e6760a81b606082015260800190565b6000602082840312156113f857600080fd5b815180151581146111a757600080fd5b634e487b7160e01b600052601160045260246000fd5b8181038181111561035657610356611408565b60006020828403121561144357600080fd5b5051919050565b8082018082111561035657610356611408565b60005b83811015611478578181015183820152602001611460565b50506000910152565b6000815180845261149981602086016020860161145d565b601f01601f19169290920160200192915050565b6001600160a01b03858116825284166020820152604081018390526080606082018190526000906114e090830184611481565b9695505050505050565b7f416363657373436f6e74726f6c3a206163636f756e742000000000000000000081526000835161152281601785016020880161145d565b7001034b99036b4b9b9b4b733903937b6329607d1b601791840191820152835161155381602884016020880161145d565b01602801949350505050565b6020815260006111a76020830184611481565b808202811582820484141761035657610356611408565b634e487b7160e01b600052603260045260246000fd5b6000816115ae576115ae611408565b50600019019056fe65d7a28e3265b37a6474929f336521b332c1681b933f6cb9f3376673440d862aa26469706673582212202754dbb0ac843a71dc1eae406b2b062b7e6c938330f70665409434d882da523b64736f6c63430008130033",
  "immutableReferences": {},
  "source": "// SPDX-License-Identifier: MIT\npragma solidity ^0.8.2;\n\nimport \"@openzeppelin/contracts-upgradeable/access/AccessControlUpgradeable.sol\";\nimport \"@openzeppelin/contracts-upgradeable/security/PausableUpgradeable.sol\";\nimport \"@openzeppelin/contracts-upgradeable/access/OwnableUpgradeable.sol\";\nimport \"@openzeppelin/contracts/token/ERC20/IERC20.sol\";\nimport \"@openzeppelin/contracts/token/ERC20/utils/SafeERC20.sol\";\n\n\ncontract InZPos is\n    AccessControlUpgradeable,\n    PausableUpgradeable,\n    OwnableUpgradeable\n{\n    using SafeERC20 for IERC20;\n    \n    /**\n     *      @dev Define variables in contract\n     */\n    bytes32 public constant PAUSER_ROLE = keccak256(\"PAUSER_ROLE\");\n    bytes32 public constant UPGRADER_ROLE = keccak256(\"UPGRADER_ROLE\");\n    bytes32 public constant WITHDRAW_ROLE = keccak256(\"WITHDRAW_ROLE\");\n    bytes32 public constant TRANSFER_ROLE = keccak256(\"TRANSFER_ROLE\");\n\n\n    // \n    // mapping address collection with (coin token with balance)\n    mapping(address => uint256) internal balancePos;\n\n    /**\n     *      @dev Define events that contract will emit\n     */\n    event PosWithdraw(address toAddress, uint256 amount);\n    event PosDeposit(address fromAddress, address tokenAddress, uint256 amount, string callBackData);\n    event PosTransfer(address toAddress, address tokenAddress, uint256 amount);\n\n    /**\n     *      @dev Modifiers using in contract\n     */\n    modifier notContract() {\n        require(!_isContract(msg.sender), \"Contract not allowed\");\n        require(msg.sender == tx.origin, \"Proxy contract not allowed\");\n        _;\n    }\n\n    /**\n     *      @dev Modifiers check msg.sender is Creator\n     */\n    modifier notCreator(address _collectionAddress) {\n        // require(\n        //     IConfiguration(nftConfiguration).getCreatorFromTreasury(_collectionAddress) == tx.origin &&  \n        //     IConfiguration(nftConfiguration).getCreatorFromTreasury(_collectionAddress) != address(0), \n        //     \"permission denied\"\n        // );\n        _;\n    }\n\n    function initialize() public initializer{\n        __AccessControl_init();\n        __Pausable_init();\n\n        _setupRole(DEFAULT_ADMIN_ROLE, msg.sender);\n        _setupRole(PAUSER_ROLE, msg.sender);\n        _setupRole(UPGRADER_ROLE, msg.sender);\n        _setupRole(WITHDRAW_ROLE, msg.sender);\n        _setupRole(TRANSFER_ROLE, msg.sender);\n    }\n\n    /**\n     *      @dev Function allow wallet with TRANSFER_ROLE can tranfer token from contract to another\n     */\n    function transferToken(\n        address _toAddress,\n        address _tokenAddress,\n        uint256 _amount\n    ) external onlyRole(TRANSFER_ROLE) {\n        transfer(\n            _toAddress,\n            _tokenAddress,\n            _amount\n        );\n    }\n\n    /**\n     *      @dev Function allow wallet with WITHDRAW_ROLE can withdraw token\n     */\n    function withdrawToken(\n        address _tokenAddress,\n        uint256 _amount\n    ) external onlyRole(WITHDRAW_ROLE) {\n        withdraw(\n            _amount,\n            _tokenAddress\n        );\n    }\n\n    /**\n     *      @dev Function use for user deposit to contract and emit event for backend handle transaction from POS\n     */\n    function depositToken(\n        address _tokenAddress,\n        uint256 _amount,\n        string memory _callBackData\n    ) external notContract {\n        deposit(_tokenAddress, _amount, _callBackData);\n    }\n\n    /**\n     *     @dev Function allows admin Treasury contract get balance each Collection\n     */\n    function getBalance(\n        address _tokenAddress\n    ) external view onlyRole(DEFAULT_ADMIN_ROLE) returns (uint256){\n        return balancePos[_tokenAddress];\n    }\n\n    function pause() public onlyRole(PAUSER_ROLE) {\n        _pause();\n    }\n\n    function unpause() public onlyRole(PAUSER_ROLE) {\n        _unpause();\n    }\n\n\n    /**\n     * @notice Checks if address is a contract\n     * @dev It prevents contract from being targetted\n     */\n    function _isContract(address addr) internal view returns (bool) {\n        uint256 size;\n        assembly {\n            size := extcodesize(addr)\n        }\n        return size > 0;\n    }\n\n    // Internal\n\n    function withdraw(\n        uint256 _amount,\n        address _tokenAddress\n    ) internal {\n        require(\n            balancePos[_tokenAddress] >= _amount, \n            \"Not enough tokens to withdraw\"\n        );\n        IERC20(_tokenAddress).transfer(msg.sender, _amount);\n        balancePos[_tokenAddress] -= _amount;\n        emit PosWithdraw(msg.sender, _amount); \n    }\n\n    function transfer(\n        address _toAddress,\n        address _tokenAddress,\n        uint256 _amount\n    ) internal {\n        require(\n            balancePos[_tokenAddress] >= _amount, \n            \"Not enough tokens to transfer\"\n        );\n        IERC20(_tokenAddress).transfer(_toAddress, _amount);\n        balancePos[_tokenAddress] -= _amount;\n        emit PosTransfer(_toAddress, _tokenAddress, _amount); \n    }\n\n    function deposit(\n        address _tokenAddress,\n        uint256 _amount,\n        string memory _callBackData\n    ) internal {\n        require(\n            IERC20(_tokenAddress).balanceOf(msg.sender) >= _amount,\n            \"Not enough tokens to deposit\"\n        );\n\n        IERC20(_tokenAddress).transferFrom(msg.sender, address(this), _amount);\n        balancePos[_tokenAddress] += _amount;\n        emit PosDeposit(msg.sender, _tokenAddress, _amount, _callBackData);\n    }\n}\n",
  "sourcePath": "/Users/huy8bit/Desktop/DRIVE/JOB/ATOM SOLUTION/TASK/inz-dapp-api/dev/inz-smc/contracts/pos/InZPos.sol",
  "compiler": {
    "name": "solc",
    "version": "0.8.19+commit.7dd6d404.Emscripten.clang"
  },
  "schemaVersion": "3.4.14",
  "updatedAt": "2023-08-28T08:04:22.913Z",
  "devdoc": {
    "events": {
      "Initialized(uint8)": {
        "details": "Triggered when the contract has been initialized or reinitialized."
      },
      "Paused(address)": {
        "details": "Emitted when the pause is triggered by `account`."
      },
      "PosWithdraw(address,uint256)": {
        "details": "Define events that contract will emit"
      },
      "RoleAdminChanged(bytes32,bytes32,bytes32)": {
        "details": "Emitted when `newAdminRole` is set as ``role``'s admin role, replacing `previousAdminRole` `DEFAULT_ADMIN_ROLE` is the starting admin for all roles, despite {RoleAdminChanged} not being emitted signaling this. _Available since v3.1._"
      },
      "RoleGranted(bytes32,address,address)": {
        "details": "Emitted when `account` is granted `role`. `sender` is the account that originated the contract call, an admin role bearer except when using {AccessControl-_setupRole}."
      },
      "RoleRevoked(bytes32,address,address)": {
        "details": "Emitted when `account` is revoked `role`. `sender` is the account that originated the contract call:   - if using `revokeRole`, it is the admin role bearer   - if using `renounceRole`, it is the role bearer (i.e. `account`)"
      },
      "Unpaused(address)": {
        "details": "Emitted when the pause is lifted by `account`."
      }
    },
    "kind": "dev",
    "methods": {
      "depositToken(address,uint256,string)": {
        "details": "Function use for user deposit to contract and emit event for backend handle transaction from POS"
      },
      "getBalance(address)": {
        "details": "Function allows admin Treasury contract get balance each Collection"
      },
      "getRoleAdmin(bytes32)": {
        "details": "Returns the admin role that controls `role`. See {grantRole} and {revokeRole}. To change a role's admin, use {_setRoleAdmin}."
      },
      "grantRole(bytes32,address)": {
        "details": "Grants `role` to `account`. If `account` had not been already granted `role`, emits a {RoleGranted} event. Requirements: - the caller must have ``role``'s admin role. May emit a {RoleGranted} event."
      },
      "hasRole(bytes32,address)": {
        "details": "Returns `true` if `account` has been granted `role`."
      },
      "owner()": {
        "details": "Returns the address of the current owner."
      },
      "paused()": {
        "details": "Returns true if the contract is paused, and false otherwise."
      },
      "renounceOwnership()": {
        "details": "Leaves the contract without owner. It will not be possible to call `onlyOwner` functions anymore. Can only be called by the current owner. NOTE: Renouncing ownership will leave the contract without an owner, thereby removing any functionality that is only available to the owner."
      },
      "renounceRole(bytes32,address)": {
        "details": "Revokes `role` from the calling account. Roles are often managed via {grantRole} and {revokeRole}: this function's purpose is to provide a mechanism for accounts to lose their privileges if they are compromised (such as when a trusted device is misplaced). If the calling account had been revoked `role`, emits a {RoleRevoked} event. Requirements: - the caller must be `account`. May emit a {RoleRevoked} event."
      },
      "revokeRole(bytes32,address)": {
        "details": "Revokes `role` from `account`. If `account` had been granted `role`, emits a {RoleRevoked} event. Requirements: - the caller must have ``role``'s admin role. May emit a {RoleRevoked} event."
      },
      "supportsInterface(bytes4)": {
        "details": "See {IERC165-supportsInterface}."
      },
      "transferOwnership(address)": {
        "details": "Transfers ownership of the contract to a new account (`newOwner`). Can only be called by the current owner."
      },
      "transferToken(address,address,uint256)": {
        "details": "Function allow wallet with TRANSFER_ROLE can tranfer token from contract to another"
      },
      "withdrawToken(address,uint256)": {
        "details": "Function allow wallet with WITHDRAW_ROLE can withdraw token"
      }
    },
    "stateVariables": {
      "PAUSER_ROLE": {
        "details": "Define variables in contract"
      }
    },
    "version": 1
  },
  "userdoc": {
    "kind": "user",
    "methods": {},
    "version": 1
  }
}