{
  "contractName": "InZTreasury",
  "abi": [
    {
      "anonymous": false,
      "inputs": [
        {
          "indexed": false,
          "internalType": "uint8",
          "name": "version",
          "type": "uint8"
        }
      ],
      "name": "Initialized",
      "type": "event"
    },
    {
      "anonymous": false,
      "inputs": [
        {
          "indexed": true,
          "internalType": "address",
          "name": "previousOwner",
          "type": "address"
        },
        {
          "indexed": true,
          "internalType": "address",
          "name": "newOwner",
          "type": "address"
        }
      ],
      "name": "OwnershipTransferred",
      "type": "event"
    },
    {
      "anonymous": false,
      "inputs": [
        {
          "indexed": false,
          "internalType": "address",
          "name": "account",
          "type": "address"
        }
      ],
      "name": "Paused",
      "type": "event"
    },
    {
      "anonymous": false,
      "inputs": [
        {
          "indexed": true,
          "internalType": "bytes32",
          "name": "role",
          "type": "bytes32"
        },
        {
          "indexed": true,
          "internalType": "bytes32",
          "name": "previousAdminRole",
          "type": "bytes32"
        },
        {
          "indexed": true,
          "internalType": "bytes32",
          "name": "newAdminRole",
          "type": "bytes32"
        }
      ],
      "name": "RoleAdminChanged",
      "type": "event"
    },
    {
      "anonymous": false,
      "inputs": [
        {
          "indexed": true,
          "internalType": "bytes32",
          "name": "role",
          "type": "bytes32"
        },
        {
          "indexed": true,
          "internalType": "address",
          "name": "account",
          "type": "address"
        },
        {
          "indexed": true,
          "internalType": "address",
          "name": "sender",
          "type": "address"
        }
      ],
      "name": "RoleGranted",
      "type": "event"
    },
    {
      "anonymous": false,
      "inputs": [
        {
          "indexed": true,
          "internalType": "bytes32",
          "name": "role",
          "type": "bytes32"
        },
        {
          "indexed": true,
          "internalType": "address",
          "name": "account",
          "type": "address"
        },
        {
          "indexed": true,
          "internalType": "address",
          "name": "sender",
          "type": "address"
        }
      ],
      "name": "RoleRevoked",
      "type": "event"
    },
    {
      "anonymous": false,
      "inputs": [
        {
          "indexed": false,
          "internalType": "address",
          "name": "oldGatewayNFT",
          "type": "address"
        },
        {
          "indexed": false,
          "internalType": "address",
          "name": "gatewayNFT",
          "type": "address"
        }
      ],
      "name": "SetNewGateway",
      "type": "event"
    },
    {
      "anonymous": false,
      "inputs": [
        {
          "indexed": false,
          "internalType": "address",
          "name": "account",
          "type": "address"
        }
      ],
      "name": "Unpaused",
      "type": "event"
    },
    {
      "anonymous": false,
      "inputs": [
        {
          "indexed": false,
          "internalType": "uint256",
          "name": "amount",
          "type": "uint256"
        }
      ],
      "name": "Withdraw",
      "type": "event"
    },
    {
      "inputs": [],
      "name": "DEFAULT_ADMIN_ROLE",
      "outputs": [
        {
          "internalType": "bytes32",
          "name": "",
          "type": "bytes32"
        }
      ],
      "stateMutability": "view",
      "type": "function",
      "constant": true
    },
    {
      "inputs": [],
      "name": "PAUSER_ROLE",
      "outputs": [
        {
          "internalType": "bytes32",
          "name": "",
          "type": "bytes32"
        }
      ],
      "stateMutability": "view",
      "type": "function",
      "constant": true
    },
    {
      "inputs": [],
      "name": "UPGRADER_ROLE",
      "outputs": [
        {
          "internalType": "bytes32",
          "name": "",
          "type": "bytes32"
        }
      ],
      "stateMutability": "view",
      "type": "function",
      "constant": true
    },
    {
      "inputs": [],
      "name": "WITHDRAW_ROLE",
      "outputs": [
        {
          "internalType": "bytes32",
          "name": "",
          "type": "bytes32"
        }
      ],
      "stateMutability": "view",
      "type": "function",
      "constant": true
    },
    {
      "inputs": [],
      "name": "creatorNFT",
      "outputs": [
        {
          "internalType": "address",
          "name": "",
          "type": "address"
        }
      ],
      "stateMutability": "view",
      "type": "function",
      "constant": true
    },
    {
      "inputs": [],
      "name": "gatewayNFT",
      "outputs": [
        {
          "internalType": "address",
          "name": "",
          "type": "address"
        }
      ],
      "stateMutability": "view",
      "type": "function",
      "constant": true
    },
    {
      "inputs": [
        {
          "internalType": "bytes32",
          "name": "role",
          "type": "bytes32"
        }
      ],
      "name": "getRoleAdmin",
      "outputs": [
        {
          "internalType": "bytes32",
          "name": "",
          "type": "bytes32"
        }
      ],
      "stateMutability": "view",
      "type": "function",
      "constant": true
    },
    {
      "inputs": [
        {
          "internalType": "bytes32",
          "name": "role",
          "type": "bytes32"
        },
        {
          "internalType": "address",
          "name": "account",
          "type": "address"
        }
      ],
      "name": "grantRole",
      "outputs": [],
      "stateMutability": "nonpayable",
      "type": "function"
    },
    {
      "inputs": [
        {
          "internalType": "bytes32",
          "name": "role",
          "type": "bytes32"
        },
        {
          "internalType": "address",
          "name": "account",
          "type": "address"
        }
      ],
      "name": "hasRole",
      "outputs": [
        {
          "internalType": "bool",
          "name": "",
          "type": "bool"
        }
      ],
      "stateMutability": "view",
      "type": "function",
      "constant": true
    },
    {
      "inputs": [],
      "name": "marketplace",
      "outputs": [
        {
          "internalType": "address",
          "name": "",
          "type": "address"
        }
      ],
      "stateMutability": "view",
      "type": "function",
      "constant": true
    },
    {
      "inputs": [],
      "name": "nftConfiguration",
      "outputs": [
        {
          "internalType": "address",
          "name": "",
          "type": "address"
        }
      ],
      "stateMutability": "view",
      "type": "function",
      "constant": true
    },
    {
      "inputs": [],
      "name": "owner",
      "outputs": [
        {
          "internalType": "address",
          "name": "",
          "type": "address"
        }
      ],
      "stateMutability": "view",
      "type": "function",
      "constant": true
    },
    {
      "inputs": [],
      "name": "paused",
      "outputs": [
        {
          "internalType": "bool",
          "name": "",
          "type": "bool"
        }
      ],
      "stateMutability": "view",
      "type": "function",
      "constant": true
    },
    {
      "inputs": [],
      "name": "renounceOwnership",
      "outputs": [],
      "stateMutability": "nonpayable",
      "type": "function"
    },
    {
      "inputs": [
        {
          "internalType": "bytes32",
          "name": "role",
          "type": "bytes32"
        },
        {
          "internalType": "address",
          "name": "account",
          "type": "address"
        }
      ],
      "name": "renounceRole",
      "outputs": [],
      "stateMutability": "nonpayable",
      "type": "function"
    },
    {
      "inputs": [
        {
          "internalType": "bytes32",
          "name": "role",
          "type": "bytes32"
        },
        {
          "internalType": "address",
          "name": "account",
          "type": "address"
        }
      ],
      "name": "revokeRole",
      "outputs": [],
      "stateMutability": "nonpayable",
      "type": "function"
    },
    {
      "inputs": [
        {
          "internalType": "bytes4",
          "name": "interfaceId",
          "type": "bytes4"
        }
      ],
      "name": "supportsInterface",
      "outputs": [
        {
          "internalType": "bool",
          "name": "",
          "type": "bool"
        }
      ],
      "stateMutability": "view",
      "type": "function",
      "constant": true
    },
    {
      "inputs": [
        {
          "internalType": "address",
          "name": "newOwner",
          "type": "address"
        }
      ],
      "name": "transferOwnership",
      "outputs": [],
      "stateMutability": "nonpayable",
      "type": "function"
    },
    {
      "inputs": [],
      "name": "initialize",
      "outputs": [],
      "stateMutability": "nonpayable",
      "type": "function"
    },
    {
      "inputs": [
        {
          "internalType": "address",
          "name": "_collectionAddress",
          "type": "address"
        },
        {
          "internalType": "address",
          "name": "_payToken",
          "type": "address"
        },
        {
          "internalType": "uint256",
          "name": "_amount",
          "type": "uint256"
        }
      ],
      "name": "updateBalanceCollection",
      "outputs": [],
      "stateMutability": "nonpayable",
      "type": "function"
    },
    {
      "inputs": [
        {
          "internalType": "uint256",
          "name": "_amount",
          "type": "uint256"
        },
        {
          "internalType": "address",
          "name": "_collectionAddress",
          "type": "address"
        },
        {
          "internalType": "address",
          "name": "_payToken",
          "type": "address"
        }
      ],
      "name": "withdraw",
      "outputs": [],
      "stateMutability": "nonpayable",
      "type": "function"
    },
    {
      "inputs": [
        {
          "internalType": "uint256",
          "name": "_amount",
          "type": "uint256"
        },
        {
          "internalType": "address",
          "name": "_collectionAddress",
          "type": "address"
        },
        {
          "internalType": "address",
          "name": "_payToken",
          "type": "address"
        }
      ],
      "name": "withdrawFromGateway",
      "outputs": [],
      "stateMutability": "nonpayable",
      "type": "function"
    },
    {
      "inputs": [
        {
          "internalType": "address",
          "name": "_creator",
          "type": "address"
        }
      ],
      "name": "setCreator",
      "outputs": [],
      "stateMutability": "nonpayable",
      "type": "function"
    },
    {
      "inputs": [
        {
          "internalType": "address",
          "name": "_marketplace",
          "type": "address"
        }
      ],
      "name": "setMarketplace",
      "outputs": [],
      "stateMutability": "nonpayable",
      "type": "function"
    },
    {
      "inputs": [
        {
          "internalType": "address",
          "name": "_gateway",
          "type": "address"
        }
      ],
      "name": "setNewGateway",
      "outputs": [],
      "stateMutability": "nonpayable",
      "type": "function"
    },
    {
      "inputs": [
        {
          "internalType": "address",
          "name": "_nftConfiguration",
          "type": "address"
        }
      ],
      "name": "setNftConfiguration",
      "outputs": [],
      "stateMutability": "nonpayable",
      "type": "function"
    },
    {
      "inputs": [
        {
          "internalType": "address",
          "name": "_collectionAddress",
          "type": "address"
        },
        {
          "internalType": "address",
          "name": "_payToken",
          "type": "address"
        }
      ],
      "name": "getBalance",
      "outputs": [
        {
          "internalType": "uint256",
          "name": "",
          "type": "uint256"
        }
      ],
      "stateMutability": "view",
      "type": "function",
      "constant": true
    },
    {
      "inputs": [
        {
          "internalType": "address",
          "name": "_collectionAddress",
          "type": "address"
        },
        {
          "internalType": "address",
          "name": "_payToken",
          "type": "address"
        }
      ],
      "name": "getBalanceCollection",
      "outputs": [
        {
          "internalType": "uint256",
          "name": "",
          "type": "uint256"
        }
      ],
      "stateMutability": "view",
      "type": "function",
      "constant": true
    },
    {
      "inputs": [],
      "name": "pause",
      "outputs": [],
      "stateMutability": "nonpayable",
      "type": "function"
    },
    {
      "inputs": [],
      "name": "unpause",
      "outputs": [],
      "stateMutability": "nonpayable",
      "type": "function"
    }
  ],
  "bytecode": "0x608060405234801561001057600080fd5b506117fe806100206000396000f3fe608060405234801561001057600080fd5b50600436106101da5760003560e01c80638456cb5911610104578063b779f02d116100a2578063e02023a111610071578063e02023a1146103d9578063e63ab1e914610400578063f2fde38b14610415578063f72c0d8b1461042857600080fd5b8063b779f02d1461038d578063d4fac45d146103a0578063d547741f146103b3578063dc165749146103c657600080fd5b8063a217fddf116100de578063a217fddf1461034c578063a4b68c7214610354578063abc8c7af14610367578063b460af941461037a57600080fd5b80638456cb59146103205780638da5cb5b1461032857806391d148541461033957600080fd5b80634587a6101161017c57806371c4d52f1161014b57806371c4d52f146102df57806373ad6c2d146102f25780638129fc1c1461030557806381e2494c1461030d57600080fd5b80634587a610146102a65780634f6d3f23146102b95780635c975abb146102cc578063715018a6146102d757600080fd5b80632f2ff15d116101b85780632f2ff15d1461026357806336568abe146102785780633f4ba83a1461028b5780633f5160181461029357600080fd5b806301ffc9a7146101df57806307ae52f914610207578063248a9ca314610232575b600080fd5b6101f26101ed36600461143b565b61044f565b60405190151581526020015b60405180910390f35b60fe5461021a906001600160a01b031681565b6040516001600160a01b0390911681526020016101fe565b610255610240366004611465565b60009081526065602052604090206001015490565b6040519081526020016101fe565b610276610271366004611493565b610486565b005b610276610286366004611493565b6104b0565b610276610533565b6102766102a13660046114c3565b610556565b60fb5461021a906001600160a01b031681565b60fc5461021a906001600160a01b031681565b60975460ff166101f2565b610276610584565b6102766102ed3660046114e0565b610598565b6102766103003660046114c3565b610654565b610276610682565b61025561031b366004611521565b610811565b61027661095b565b60c9546001600160a01b031661021a565b6101f2610347366004611493565b61097b565b610255600081565b6102766103623660046114c3565b6109a6565b60fd5461021a906001600160a01b031681565b61027661038836600461154f565b610a14565b61027661039b36600461154f565b610b3e565b6102556103ae366004611521565b610cb1565b6102766103c1366004611493565b610cbd565b6102766103d43660046114c3565b610ce2565b6102557f5d8e12c39142ff96d79d04d15d1ba1269e4fe57bb9d26f43523628b34ba108ec81565b6102556000805160206117a983398151915281565b6102766104233660046114c3565b610d10565b6102557f189ab7a9244df0848122154315af71fe140f3db0fe014031783b0946b8c9d2e381565b60006001600160e01b03198216637965db0b60e01b148061048057506301ffc9a760e01b6001600160e01b03198316145b92915050565b6000828152606560205260409020600101546104a181610d86565b6104ab8383610d90565b505050565b6001600160a01b03811633146105255760405162461bcd60e51b815260206004820152602f60248201527f416363657373436f6e74726f6c3a2063616e206f6e6c792072656e6f756e636560448201526e103937b632b9903337b91039b2b63360891b60648201526084015b60405180910390fd5b61052f8282610e16565b5050565b6000805160206117a983398151915261054b81610d86565b610553610e7d565b50565b600061056181610d86565b5060fc80546001600160a01b0319166001600160a01b0392909216919091179055565b61058c610ecf565b6105966000610f29565b565b60fc546001600160a01b03163314806105bb575060fd546001600160a01b031633145b6106135760405162461bcd60e51b815260206004820152602360248201527f43616e206f6e6c792063616c6c2066726f6d2043726561746f7220636f6e74726044820152621858dd60ea1b606482015260840161051c565b6001600160a01b03808416600090815260ff602090815260408083209386168352929052908120805483929061064a9084906115a7565b9091555050505050565b600061065f81610d86565b5060fd80546001600160a01b0319166001600160a01b0392909216919091179055565b600054610100900460ff16158080156106a25750600054600160ff909116105b806106bc5750303b1580156106bc575060005460ff166001145b61071f5760405162461bcd60e51b815260206004820152602e60248201527f496e697469616c697a61626c653a20636f6e747261637420697320616c72656160448201526d191e481a5b9a5d1a585b1a5e995960921b606482015260840161051c565b6000805460ff191660011790558015610742576000805461ff0019166101001790555b61074a610f7b565b610752610fa2565b61075d600033610fd1565b6107756000805160206117a983398151915233610fd1565b61079f7f189ab7a9244df0848122154315af71fe140f3db0fe014031783b0946b8c9d2e333610fd1565b6107c97f5d8e12c39142ff96d79d04d15d1ba1269e4fe57bb9d26f43523628b34ba108ec33610fd1565b8015610553576000805461ff0019169055604051600181527f7f26b83ff96e1f2b6a682f133852f6798a09c465da95921460cefb38474024989060200160405180910390a150565b60fb5460405163147c602360e11b81526001600160a01b03808516600483015260009285923292909116906328f8c04690602401602060405180830381865afa158015610862573d6000803e3d6000fd5b505050506040513d601f19601f8201168201806040525081019061088691906115ba565b6001600160a01b0316148015610912575060fb5460405163147c602360e11b81526001600160a01b03838116600483015260009216906328f8c04690602401602060405180830381865afa1580156108e2573d6000803e3d6000fd5b505050506040513d601f19601f8201168201806040525081019061090691906115ba565b6001600160a01b031614155b61092e5760405162461bcd60e51b815260040161051c906115d7565b50506001600160a01b03918216600090815260ff6020908152604080832093909416825291909152205490565b6000805160206117a983398151915261097381610d86565b610553610fdb565b60009182526065602090815260408084206001600160a01b0393909316845291905290205460ff1690565b60006109b181610d86565b60fe80546001600160a01b038481166001600160a01b031983168117909355604080519190921680825260208201939093527f7dd3ad73fe909f559cc651212340a0979c92b4cb9d72b304a1d39b3e9253564e91015b60405180910390a1505050565b60fb5460405163147c602360e11b81526001600160a01b038085166004830152849232929116906328f8c04690602401602060405180830381865afa158015610a61573d6000803e3d6000fd5b505050506040513d601f19601f82011682018060405250810190610a8591906115ba565b6001600160a01b0316148015610b11575060fb5460405163147c602360e11b81526001600160a01b03838116600483015260009216906328f8c04690602401602060405180830381865afa158015610ae1573d6000803e3d6000fd5b505050506040513d601f19601f82011682018060405250810190610b0591906115ba565b6001600160a01b031614155b610b2d5760405162461bcd60e51b815260040161051c906115d7565b610b38848484611018565b50505050565b60fb5460405163147c602360e11b81526001600160a01b038085166004830152849232929116906328f8c04690602401602060405180830381865afa158015610b8b573d6000803e3d6000fd5b505050506040513d601f19601f82011682018060405250810190610baf91906115ba565b6001600160a01b0316148015610c3b575060fb5460405163147c602360e11b81526001600160a01b03838116600483015260009216906328f8c04690602401602060405180830381865afa158015610c0b573d6000803e3d6000fd5b505050506040513d601f19601f82011682018060405250810190610c2f91906115ba565b6001600160a01b031614155b610c575760405162461bcd60e51b815260040161051c906115d7565b60fe546001600160a01b03163314610b2d5760405162461bcd60e51b815260206004820152601a60248201527f50726f787920636f6e7472616374206e6f7420616c6c6f776564000000000000604482015260640161051c565b60008061092e81610d86565b600082815260656020526040902060010154610cd881610d86565b6104ab8383610e16565b6000610ced81610d86565b5060fb80546001600160a01b0319166001600160a01b0392909216919091179055565b610d18610ecf565b6001600160a01b038116610d7d5760405162461bcd60e51b815260206004820152602660248201527f4f776e61626c653a206e6577206f776e657220697320746865207a65726f206160448201526564647265737360d01b606482015260840161051c565b61055381610f29565b610553813361116b565b610d9a828261097b565b61052f5760008281526065602090815260408083206001600160a01b03851684529091529020805460ff19166001179055610dd23390565b6001600160a01b0316816001600160a01b0316837f2f8788117e7eff1d82e926ec794901d17c78024a50270940304540a733656f0d60405160405180910390a45050565b610e20828261097b565b1561052f5760008281526065602090815260408083206001600160a01b0385168085529252808320805460ff1916905551339285917ff6391f5c32d9c69d2a47ea670b442974b53935d1edc7fd64eb21e047a839171b9190a45050565b610e856111c4565b6097805460ff191690557f5db9ee0a495bf2e6ff9c91a7834c1ba4fdd244a5e8aa4e537bd38aeae4b073aa335b6040516001600160a01b03909116815260200160405180910390a1565b60c9546001600160a01b031633146105965760405162461bcd60e51b815260206004820181905260248201527f4f776e61626c653a2063616c6c6572206973206e6f7420746865206f776e6572604482015260640161051c565b60c980546001600160a01b038381166001600160a01b0319831681179093556040519116919082907f8be0079c531659141344cd1fd0a4f28419497f9722a3daafe3b4186f6b6457e090600090a35050565b600054610100900460ff166105965760405162461bcd60e51b815260040161051c90611602565b600054610100900460ff16610fc95760405162461bcd60e51b815260040161051c90611602565b61059661120d565b61052f8282610d90565b610fe3611240565b6097805460ff191660011790557f62e78cea01bee320cd4e420270b5ea74000d11b0c9f74754ebdbfc544b05a258610eb23390565b6001600160a01b03808316600090815260ff602090815260408083209385168352929052205483111561108d5760405162461bcd60e51b815260206004820152601d60248201527f4e6f7420656e6f75676820746f6b656e7320746f207769746864726177000000604482015260640161051c565b60405163a9059cbb60e01b8152336004820152602481018490526001600160a01b0382169063a9059cbb906044016020604051808303816000875af11580156110da573d6000803e3d6000fd5b505050506040513d601f19601f820116820180604052508101906110fe919061164d565b506001600160a01b03808316600090815260ff602090815260408083209385168352929052908120805485929061113690849061166f565b90915550506040518381527f5b6b431d4476a211bb7d41c20d1aab9ae2321deee0d20be3d9fc9b1093fa6e3d90602001610a07565b611175828261097b565b61052f5761118281611286565b61118d836020611298565b60405160200161119e9291906116a6565b60408051601f198184030181529082905262461bcd60e51b825261051c9160040161171b565b60975460ff166105965760405162461bcd60e51b815260206004820152601460248201527314185d5cd8589b194e881b9bdd081c185d5cd95960621b604482015260640161051c565b600054610100900460ff166112345760405162461bcd60e51b815260040161051c90611602565b6097805460ff19169055565b60975460ff16156105965760405162461bcd60e51b815260206004820152601060248201526f14185d5cd8589b194e881c185d5cd95960821b604482015260640161051c565b60606104806001600160a01b03831660145b606060006112a783600261174e565b6112b29060026115a7565b67ffffffffffffffff8111156112ca576112ca611765565b6040519080825280601f01601f1916602001820160405280156112f4576020820181803683370190505b509050600360fc1b8160008151811061130f5761130f61177b565b60200101906001600160f81b031916908160001a905350600f60fb1b8160018151811061133e5761133e61177b565b60200101906001600160f81b031916908160001a905350600061136284600261174e565b61136d9060016115a7565b90505b60018111156113e5576f181899199a1a9b1b9c1cb0b131b232b360811b85600f16601081106113a1576113a161177b565b1a60f81b8282815181106113b7576113b761177b565b60200101906001600160f81b031916908160001a90535060049490941c936113de81611791565b9050611370565b5083156114345760405162461bcd60e51b815260206004820181905260248201527f537472696e67733a20686578206c656e67746820696e73756666696369656e74604482015260640161051c565b9392505050565b60006020828403121561144d57600080fd5b81356001600160e01b03198116811461143457600080fd5b60006020828403121561147757600080fd5b5035919050565b6001600160a01b038116811461055357600080fd5b600080604083850312156114a657600080fd5b8235915060208301356114b88161147e565b809150509250929050565b6000602082840312156114d557600080fd5b81356114348161147e565b6000806000606084860312156114f557600080fd5b83356115008161147e565b925060208401356115108161147e565b929592945050506040919091013590565b6000806040838503121561153457600080fd5b823561153f8161147e565b915060208301356114b88161147e565b60008060006060848603121561156457600080fd5b8335925060208401356115768161147e565b915060408401356115868161147e565b809150509250925092565b634e487b7160e01b600052601160045260246000fd5b8082018082111561048057610480611591565b6000602082840312156115cc57600080fd5b81516114348161147e565b6020808252601190820152701c195c9b5a5cdcda5bdb8819195b9a5959607a1b604082015260600190565b6020808252602b908201527f496e697469616c697a61626c653a20636f6e7472616374206973206e6f74206960408201526a6e697469616c697a696e6760a81b606082015260800190565b60006020828403121561165f57600080fd5b8151801515811461143457600080fd5b8181038181111561048057610480611591565b60005b8381101561169d578181015183820152602001611685565b50506000910152565b7f416363657373436f6e74726f6c3a206163636f756e74200000000000000000008152600083516116de816017850160208801611682565b7001034b99036b4b9b9b4b733903937b6329607d1b601791840191820152835161170f816028840160208801611682565b01602801949350505050565b602081526000825180602084015261173a816040850160208701611682565b601f01601f19169190910160400192915050565b808202811582820484141761048057610480611591565b634e487b7160e01b600052604160045260246000fd5b634e487b7160e01b600052603260045260246000fd5b6000816117a0576117a0611591565b50600019019056fe65d7a28e3265b37a6474929f336521b332c1681b933f6cb9f3376673440d862aa2646970667358221220013aba6b88083adabea8ac6a600be072e1e7effe94e3a4f52aead085552247cb64736f6c63430008130033",
  "immutableReferences": {},
  "source": "// SPDX-License-Identifier: MIT\npragma solidity ^0.8.2;\n\nimport \"@openzeppelin/contracts-upgradeable/access/AccessControlUpgradeable.sol\";\nimport \"@openzeppelin/contracts-upgradeable/security/PausableUpgradeable.sol\";\nimport \"@openzeppelin/contracts-upgradeable/access/OwnableUpgradeable.sol\";\nimport \"@openzeppelin/contracts/token/ERC20/IERC20.sol\";\nimport \"@openzeppelin/contracts/token/ERC20/utils/SafeERC20.sol\";\nimport \"./interfaces/ICampaignNFT.sol\";\nimport \"./interfaces/IConfiguration.sol\";\n\ncontract InZTreasury is\n    AccessControlUpgradeable,\n    PausableUpgradeable,\n    OwnableUpgradeable\n{\n    using SafeERC20 for IERC20;\n\n    /**\n     *      @dev Define variables in contract\n     */\n    bytes32 public constant PAUSER_ROLE = keccak256(\"PAUSER_ROLE\");\n    bytes32 public constant UPGRADER_ROLE = keccak256(\"UPGRADER_ROLE\");\n    bytes32 public constant WITHDRAW_ROLE = keccak256(\"WITHDRAW_ROLE\");\n\n    // Configurations address\n    address public nftConfiguration;\n\n    // Creator contract address\n    address public creatorNFT;\n\n    // marketplace address\n    address public marketplace;\n\n    // GatewayNFT\n    address public gatewayNFT;\n\n    //\n    // mapping address collection with (coin token with balance)\n    mapping(address => mapping(address => uint256)) internal balanceCreator;\n\n    /**\n     *      @dev Define events that contract will emit\n     */\n    event Withdraw(uint256 amount);\n    event SetNewGateway(address oldGatewayNFT, address gatewayNFT);\n\n    /**\n     *      @dev Modifiers using in contract\n     */\n    modifier notContract() {\n        require(!_isContract(msg.sender), \"Contract not allowed\");\n        require(msg.sender == tx.origin, \"Proxy contract not allowed\");\n        _;\n    }\n\n    /**\n     *      @dev Modifiers check msg.sender is Creator\n     */\n    modifier notCreator(address _collectionAddress) {\n        require(\n            IConfiguration(nftConfiguration).getCreatorFromTreasury(\n                _collectionAddress\n            ) ==\n                tx.origin &&\n                IConfiguration(nftConfiguration).getCreatorFromTreasury(\n                    _collectionAddress\n                ) !=\n                address(0),\n            \"permission denied\"\n        );\n        _;\n    }\n\n    // modifier to check from Creator contract or not\n    modifier onlyFromCreatorOrMarketplace() {\n        require(\n            msg.sender == creatorNFT || msg.sender == marketplace,\n            \"Can only call from Creator contract\"\n        );\n        _;\n    }\n\n    /**\n     *      @dev Modifiers veryfy wallet call is contract GatewayNFT\n     */\n    modifier notGatewayNFT() {\n        require(msg.sender == gatewayNFT, \"Proxy contract not allowed\");\n        _;\n    }\n\n    /**\n     *      @dev Initialize function\n     */\n    function initialize() public initializer {\n        __AccessControl_init();\n        __Pausable_init();\n\n        _setupRole(DEFAULT_ADMIN_ROLE, msg.sender);\n        _setupRole(PAUSER_ROLE, msg.sender);\n        _setupRole(UPGRADER_ROLE, msg.sender);\n        _setupRole(WITHDRAW_ROLE, msg.sender);\n    }\n\n    /**\n     *      @dev Function allows Creator contract send token to Treasury\n     */\n    function updateBalanceCollection(\n        address _collectionAddress,\n        address _payToken,\n        uint256 _amount\n    ) external onlyFromCreatorOrMarketplace {\n        balanceCreator[_collectionAddress][_payToken] += _amount;\n    }\n\n    /**\n     *      @dev Function allows Creator Collection to withdraw Token in contract\n     */\n    function withdraw(\n        uint256 _amount,\n        address _collectionAddress,\n        address _payToken\n    ) external notCreator(_collectionAddress) {\n        withdrawToken(_amount, _collectionAddress, _payToken);\n    }\n\n    /**\n     *      @dev Function allows GatewayNFT contract withdraw and transfer Native Token for creator collection\n     */\n    function withdrawFromGateway(\n        uint256 _amount,\n        address _collectionAddress,\n        address _payToken\n    ) external notCreator(_collectionAddress) notGatewayNFT {\n        withdrawToken(_amount, _collectionAddress, _payToken);\n    }\n\n    function withdrawToken(\n        uint256 _amount,\n        address _collectionAddress,\n        address _payToken\n    ) internal {\n        require(\n            balanceCreator[_collectionAddress][_payToken] >= _amount,\n            \"Not enough tokens to withdraw\"\n        );\n        IERC20(_payToken).transfer(msg.sender, _amount);\n        balanceCreator[_collectionAddress][_payToken] -= _amount;\n        // send fee to INZ [TODO]\n        emit Withdraw(_amount);\n    }\n\n    /**\n     *      @dev Function allows admin set DappCreator contract address\n     */\n    function setCreator(\n        address _creator\n    ) external onlyRole(DEFAULT_ADMIN_ROLE) {\n        creatorNFT = _creator;\n    }\n\n    /**\n     *      @dev Function allows admin set marketplace contract address\n     */\n    function setMarketplace(\n        address _marketplace\n    ) external onlyRole(DEFAULT_ADMIN_ROLE) {\n        marketplace = _marketplace;\n    }\n\n    /**\n     *  @notice Set new GatwayNFT\n     */\n    function setNewGateway(\n        address _gateway\n    ) external onlyRole(DEFAULT_ADMIN_ROLE) {\n        address oldGatewayNFT = gatewayNFT;\n        gatewayNFT = _gateway;\n        emit SetNewGateway(oldGatewayNFT, gatewayNFT);\n    }\n\n    /**\n     *      @dev Function allows admin set config Configurations address\n     */\n    function setNftConfiguration(\n        address _nftConfiguration\n    ) external onlyRole(DEFAULT_ADMIN_ROLE) {\n        nftConfiguration = _nftConfiguration;\n    }\n\n    /**\n     *      @dev Function allows admin Treasury contract get balance each Collection\n     */\n    function getBalance(\n        address _collectionAddress,\n        address _payToken\n    ) external view onlyRole(DEFAULT_ADMIN_ROLE) returns (uint256) {\n        return balanceCreator[_collectionAddress][_payToken];\n    }\n\n    /**\n     *      @dev Function allows Creator get balanace in Treasury contract\n     */\n    function getBalanceCollection(\n        address _collectionAddress,\n        address _payToken\n    ) external view notCreator(_collectionAddress) returns (uint256) {\n        return balanceCreator[_collectionAddress][_payToken];\n    }\n\n    function pause() public onlyRole(PAUSER_ROLE) {\n        _pause();\n    }\n\n    function unpause() public onlyRole(PAUSER_ROLE) {\n        _unpause();\n    }\n\n    /**\n     * @notice Checks if address is a contract\n     * @dev It prevents contract from being targetted\n     */\n    function _isContract(address addr) internal view returns (bool) {\n        uint256 size;\n        assembly {\n            size := extcodesize(addr)\n        }\n        return size > 0;\n    }\n}\n",
  "sourcePath": "/Users/huy8bit/Desktop/DRIVE/JOB/ATOM SOLUTION/TASK/inz-dapp-api/dev/inz-smc/contracts/minting/InZTreasury.sol",
  "compiler": {
    "name": "solc",
    "version": "0.8.19+commit.7dd6d404.Emscripten.clang"
  },
  "schemaVersion": "3.4.14",
  "updatedAt": "2023-08-28T08:29:31.971Z",
  "networkType": "ethereum",
  "devdoc": {
    "events": {
      "Initialized(uint8)": {
        "details": "Triggered when the contract has been initialized or reinitialized."
      },
      "Paused(address)": {
        "details": "Emitted when the pause is triggered by `account`."
      },
      "RoleAdminChanged(bytes32,bytes32,bytes32)": {
        "details": "Emitted when `newAdminRole` is set as ``role``'s admin role, replacing `previousAdminRole` `DEFAULT_ADMIN_ROLE` is the starting admin for all roles, despite {RoleAdminChanged} not being emitted signaling this. _Available since v3.1._"
      },
      "RoleGranted(bytes32,address,address)": {
        "details": "Emitted when `account` is granted `role`. `sender` is the account that originated the contract call, an admin role bearer except when using {AccessControl-_setupRole}."
      },
      "RoleRevoked(bytes32,address,address)": {
        "details": "Emitted when `account` is revoked `role`. `sender` is the account that originated the contract call:   - if using `revokeRole`, it is the admin role bearer   - if using `renounceRole`, it is the role bearer (i.e. `account`)"
      },
      "Unpaused(address)": {
        "details": "Emitted when the pause is lifted by `account`."
      },
      "Withdraw(uint256)": {
        "details": "Define events that contract will emit"
      }
    },
    "kind": "dev",
    "methods": {
      "getBalance(address,address)": {
        "details": "Function allows admin Treasury contract get balance each Collection"
      },
      "getBalanceCollection(address,address)": {
        "details": "Function allows Creator get balanace in Treasury contract"
      },
      "getRoleAdmin(bytes32)": {
        "details": "Returns the admin role that controls `role`. See {grantRole} and {revokeRole}. To change a role's admin, use {_setRoleAdmin}."
      },
      "grantRole(bytes32,address)": {
        "details": "Grants `role` to `account`. If `account` had not been already granted `role`, emits a {RoleGranted} event. Requirements: - the caller must have ``role``'s admin role. May emit a {RoleGranted} event."
      },
      "hasRole(bytes32,address)": {
        "details": "Returns `true` if `account` has been granted `role`."
      },
      "initialize()": {
        "details": "Initialize function"
      },
      "owner()": {
        "details": "Returns the address of the current owner."
      },
      "paused()": {
        "details": "Returns true if the contract is paused, and false otherwise."
      },
      "renounceOwnership()": {
        "details": "Leaves the contract without owner. It will not be possible to call `onlyOwner` functions anymore. Can only be called by the current owner. NOTE: Renouncing ownership will leave the contract without an owner, thereby removing any functionality that is only available to the owner."
      },
      "renounceRole(bytes32,address)": {
        "details": "Revokes `role` from the calling account. Roles are often managed via {grantRole} and {revokeRole}: this function's purpose is to provide a mechanism for accounts to lose their privileges if they are compromised (such as when a trusted device is misplaced). If the calling account had been revoked `role`, emits a {RoleRevoked} event. Requirements: - the caller must be `account`. May emit a {RoleRevoked} event."
      },
      "revokeRole(bytes32,address)": {
        "details": "Revokes `role` from `account`. If `account` had been granted `role`, emits a {RoleRevoked} event. Requirements: - the caller must have ``role``'s admin role. May emit a {RoleRevoked} event."
      },
      "setCreator(address)": {
        "details": "Function allows admin set DappCreator contract address"
      },
      "setMarketplace(address)": {
        "details": "Function allows admin set marketplace contract address"
      },
      "setNftConfiguration(address)": {
        "details": "Function allows admin set config Configurations address"
      },
      "supportsInterface(bytes4)": {
        "details": "See {IERC165-supportsInterface}."
      },
      "transferOwnership(address)": {
        "details": "Transfers ownership of the contract to a new account (`newOwner`). Can only be called by the current owner."
      },
      "updateBalanceCollection(address,address,uint256)": {
        "details": "Function allows Creator contract send token to Treasury"
      },
      "withdraw(uint256,address,address)": {
        "details": "Function allows Creator Collection to withdraw Token in contract"
      },
      "withdrawFromGateway(uint256,address,address)": {
        "details": "Function allows GatewayNFT contract withdraw and transfer Native Token for creator collection"
      }
    },
    "stateVariables": {
      "PAUSER_ROLE": {
        "details": "Define variables in contract"
      }
    },
    "version": 1
  },
  "userdoc": {
    "kind": "user",
    "methods": {
      "setNewGateway(address)": {
        "notice": "Set new GatwayNFT"
      }
    },
    "version": 1
  }
}