{
  "contractName": "Promotion",
  "abi": [
    {
      "inputs": [
        {
          "internalType": "address",
          "name": "_signer",
          "type": "address"
        },
        {
          "internalType": "address",
          "name": "_feeReceiver",
          "type": "address"
        }
      ],
      "stateMutability": "nonpayable",
      "type": "constructor"
    },
    {
      "anonymous": false,
      "inputs": [
        {
          "indexed": true,
          "internalType": "address",
          "name": "previousOwner",
          "type": "address"
        },
        {
          "indexed": true,
          "internalType": "address",
          "name": "newOwner",
          "type": "address"
        }
      ],
      "name": "OwnershipTransferred",
      "type": "event"
    },
    {
      "anonymous": false,
      "inputs": [
        {
          "indexed": false,
          "internalType": "uint256",
          "name": "package",
          "type": "uint256"
        },
        {
          "indexed": false,
          "internalType": "uint256",
          "name": "promotionChainId",
          "type": "uint256"
        },
        {
          "indexed": false,
          "internalType": "address",
          "name": "promotionToken",
          "type": "address"
        },
        {
          "indexed": false,
          "internalType": "uint256",
          "name": "promotionId",
          "type": "uint256"
        },
        {
          "indexed": false,
          "internalType": "address",
          "name": "sender",
          "type": "address"
        }
      ],
      "name": "PromotionSuccess",
      "type": "event"
    },
    {
      "inputs": [],
      "name": "feeReceiver",
      "outputs": [
        {
          "internalType": "address",
          "name": "",
          "type": "address"
        }
      ],
      "stateMutability": "view",
      "type": "function"
    },
    {
      "inputs": [],
      "name": "owner",
      "outputs": [
        {
          "internalType": "address",
          "name": "",
          "type": "address"
        }
      ],
      "stateMutability": "view",
      "type": "function"
    },
    {
      "inputs": [],
      "name": "renounceOwnership",
      "outputs": [],
      "stateMutability": "nonpayable",
      "type": "function"
    },
    {
      "inputs": [],
      "name": "signer",
      "outputs": [
        {
          "internalType": "address",
          "name": "",
          "type": "address"
        }
      ],
      "stateMutability": "view",
      "type": "function"
    },
    {
      "inputs": [
        {
          "internalType": "address",
          "name": "newOwner",
          "type": "address"
        }
      ],
      "name": "transferOwnership",
      "outputs": [],
      "stateMutability": "nonpayable",
      "type": "function"
    },
    {
      "inputs": [
        {
          "internalType": "uint256",
          "name": "package",
          "type": "uint256"
        },
        {
          "internalType": "address",
          "name": "token",
          "type": "address"
        },
        {
          "internalType": "uint256",
          "name": "amount",
          "type": "uint256"
        },
        {
          "internalType": "uint256",
          "name": "promotionChainId",
          "type": "uint256"
        },
        {
          "internalType": "address",
          "name": "promotionToken",
          "type": "address"
        },
        {
          "internalType": "uint256",
          "name": "promotionId",
          "type": "uint256"
        },
        {
          "internalType": "uint256",
          "name": "deadline",
          "type": "uint256"
        },
        {
          "internalType": "bytes",
          "name": "signature",
          "type": "bytes"
        }
      ],
      "name": "promote",
      "outputs": [],
      "stateMutability": "payable",
      "type": "function"
    },
    {
      "inputs": [
        {
          "internalType": "address",
          "name": "_signer",
          "type": "address"
        }
      ],
      "name": "setSigner",
      "outputs": [],
      "stateMutability": "nonpayable",
      "type": "function"
    },
    {
      "inputs": [
        {
          "internalType": "address",
          "name": "_feeReceiver",
          "type": "address"
        }
      ],
      "name": "setFeeReceiver",
      "outputs": [],
      "stateMutability": "nonpayable",
      "type": "function"
    }
  ],
  "bytecode": "0x608060405234801561001057600080fd5b50604051610f89380380610f8983398101604081905261002f91610133565b610038336100c7565b600180556001600160a01b0381166100965760405162461bcd60e51b815260206004820152601760248201527f43616e6e6f7420736574207a65726f2061646472657373000000000000000000604482015260640160405180910390fd5b600280546001600160a01b039384166001600160a01b03199182161790915560038054929093169116179055610166565b600080546001600160a01b038381166001600160a01b0319831681178455604051919092169283917f8be0079c531659141344cd1fd0a4f28419497f9722a3daafe3b4186f6b6457e09190a35050565b80516001600160a01b038116811461012e57600080fd5b919050565b6000806040838503121561014657600080fd5b61014f83610117565b915061015d60208401610117565b90509250929050565b610e14806101756000396000f3fe60806040526004361061007b5760003560e01c8063b3f006741161004e578063b3f0067414610111578063ead110a014610131578063efdcd97414610144578063f2fde38b1461016457600080fd5b8063238ac933146100805780636c19e783146100bc578063715018a6146100de5780638da5cb5b146100f3575b600080fd5b34801561008c57600080fd5b506002546100a0906001600160a01b031681565b6040516001600160a01b03909116815260200160405180910390f35b3480156100c857600080fd5b506100dc6100d7366004610c4d565b610184565b005b3480156100ea57600080fd5b506100dc6101ae565b3480156100ff57600080fd5b506000546001600160a01b03166100a0565b34801561011d57600080fd5b506003546100a0906001600160a01b031681565b6100dc61013f366004610c6f565b6101c2565b34801561015057600080fd5b506100dc61015f366004610c4d565b6104f4565b34801561017057600080fd5b506100dc61017f366004610c4d565b610574565b61018c6105ed565b600280546001600160a01b0319166001600160a01b0392909216919091179055565b6101b66105ed565b6101c06000610647565b565b6101ca610697565b6102c561028946336040805160208101939093526bffffffffffffffffffffffff19606092831b81169184019190915230821b81166054840152606883018e90528c821b81166088840152609c83018c905260bc83018b90529089901b1660dc82015260f08101879052610110810186905261013001604051602081830303815290604052805190602001207f19457468657265756d205369676e6564204d6573736167653a0a3332000000006000908152601c91909152603c902090565b83838080601f0160208091040260200160405190810160405280939291908181526020018383808284376000920191909152506106f092505050565b6002546001600160a01b0390811691161461031b5760405162461bcd60e51b8152602060048201526011602482015270496e76616c6964207369676e617475726560781b60448201526064015b60405180910390fd5b4283101561035d5760405162461bcd60e51b815260206004820152600f60248201526e111958591b1a5b99481c185cdcd959608a1b6044820152606401610312565b6001600160a01b03881673eeeeeeeeeeeeeeeeeeeeeeeeeeeeeeeeeeeeeeee03610406578634146103c75760405162461bcd60e51b815260206004820152601460248201527315dc9bdb99c81c185e5b595b9d08185b5bdd5b9d60621b6044820152606401610312565b6003546040516001600160a01b03909116903480156108fc02916000818181858888f19350505050158015610400573d6000803e3d6000fd5b5061048b565b34156104705760405162461bcd60e51b815260206004820152603360248201527f43616e6e6f742073656e64206e61746976652063757272656e6379207768696c60448201527232903830bcb4b733903bb4ba34103a37b5b2b760691b6064820152608401610312565b61048b336003546001600160a01b038b81169291168a610714565b604080518a8152602081018890526001600160a01b038716818301526060810186905233608082015290517f762fe123fcbd8f4f3ed782b4fa57d5bd932e3d6eb09c4ed508c6804d11d6aaa29181900360a00190a16104e960018055565b505050505050505050565b6104fc6105ed565b6001600160a01b0381166105525760405162461bcd60e51b815260206004820152601760248201527f43616e6e6f7420736574207a65726f20616464726573730000000000000000006044820152606401610312565b600380546001600160a01b0319166001600160a01b0392909216919091179055565b61057c6105ed565b6001600160a01b0381166105e15760405162461bcd60e51b815260206004820152602660248201527f4f776e61626c653a206e6577206f776e657220697320746865207a65726f206160448201526564647265737360d01b6064820152608401610312565b6105ea81610647565b50565b6000546001600160a01b031633146101c05760405162461bcd60e51b815260206004820181905260248201527f4f776e61626c653a2063616c6c6572206973206e6f7420746865206f776e65726044820152606401610312565b600080546001600160a01b038381166001600160a01b0319831681178455604051919092169283917f8be0079c531659141344cd1fd0a4f28419497f9722a3daafe3b4186f6b6457e09190a35050565b6002600154036106e95760405162461bcd60e51b815260206004820152601f60248201527f5265656e7472616e637947756172643a207265656e7472616e742063616c6c006044820152606401610312565b6002600155565b60008060006106ff8585610774565b9150915061070c816107b9565b509392505050565b604080516001600160a01b0385811660248301528416604482015260648082018490528251808303909101815260849091019091526020810180516001600160e01b03166323b872dd60e01b17905261076e908590610903565b50505050565b60008082516041036107aa5760208301516040840151606085015160001a61079e878285856109dd565b945094505050506107b2565b506000905060025b9250929050565b60008160048111156107cd576107cd610d33565b036107d55750565b60018160048111156107e9576107e9610d33565b036108365760405162461bcd60e51b815260206004820152601860248201527f45434453413a20696e76616c6964207369676e617475726500000000000000006044820152606401610312565b600281600481111561084a5761084a610d33565b036108975760405162461bcd60e51b815260206004820152601f60248201527f45434453413a20696e76616c6964207369676e6174757265206c656e677468006044820152606401610312565b60038160048111156108ab576108ab610d33565b036105ea5760405162461bcd60e51b815260206004820152602260248201527f45434453413a20696e76616c6964207369676e6174757265202773272076616c604482015261756560f01b6064820152608401610312565b6000610958826040518060400160405280602081526020017f5361666545524332303a206c6f772d6c6576656c2063616c6c206661696c6564815250856001600160a01b0316610aa19092919063ffffffff16565b90508051600014806109795750808060200190518101906109799190610d49565b6109d85760405162461bcd60e51b815260206004820152602a60248201527f5361666545524332303a204552433230206f7065726174696f6e20646964206e6044820152691bdd081cdd58d8d9595960b21b6064820152608401610312565b505050565b6000807f7fffffffffffffffffffffffffffffff5d576e7357a4501ddfe92f46681b20a0831115610a145750600090506003610a98565b6040805160008082526020820180845289905260ff881692820192909252606081018690526080810185905260019060a0016020604051602081039080840390855afa158015610a68573d6000803e3d6000fd5b5050604051601f1901519150506001600160a01b038116610a9157600060019250925050610a98565b9150600090505b94509492505050565b6060610ab08484600085610ab8565b949350505050565b606082471015610b195760405162461bcd60e51b815260206004820152602660248201527f416464726573733a20696e73756666696369656e742062616c616e636520666f6044820152651c8818d85b1b60d21b6064820152608401610312565b600080866001600160a01b03168587604051610b359190610d8f565b60006040518083038185875af1925050503d8060008114610b72576040519150601f19603f3d011682016040523d82523d6000602084013e610b77565b606091505b5091509150610b8887838387610b93565b979650505050505050565b60608315610c02578251600003610bfb576001600160a01b0385163b610bfb5760405162461bcd60e51b815260206004820152601d60248201527f416464726573733a2063616c6c20746f206e6f6e2d636f6e74726163740000006044820152606401610312565b5081610ab0565b610ab08383815115610c175781518083602001fd5b8060405162461bcd60e51b81526004016103129190610dab565b80356001600160a01b0381168114610c4857600080fd5b919050565b600060208284031215610c5f57600080fd5b610c6882610c31565b9392505050565b60008060008060008060008060006101008a8c031215610c8e57600080fd5b89359850610c9e60208b01610c31565b975060408a0135965060608a01359550610cba60808b01610c31565b945060a08a0135935060c08a0135925060e08a013567ffffffffffffffff80821115610ce557600080fd5b818c0191508c601f830112610cf957600080fd5b813581811115610d0857600080fd5b8d6020828501011115610d1a57600080fd5b6020830194508093505050509295985092959850929598565b634e487b7160e01b600052602160045260246000fd5b600060208284031215610d5b57600080fd5b81518015158114610c6857600080fd5b60005b83811015610d86578181015183820152602001610d6e565b50506000910152565b60008251610da1818460208701610d6b565b9190910192915050565b6020815260008251806020840152610dca816040850160208701610d6b565b601f01601f1916919091016040019291505056fea2646970667358221220b79353c96b42c48cb6a57f40c3ea3f626cf4316082ca85ae0ab5f60c6a2e257f64736f6c63430008130033",
  "immutableReferences": {},
  "source": "// SPDX-License-Identifier: MIT\npragma solidity ^0.8.16;\n\nimport \"@openzeppelin/contracts/access/Ownable.sol\";\nimport \"@openzeppelin/contracts/security/ReentrancyGuard.sol\";\nimport \"@openzeppelin/contracts/utils/cryptography/ECDSA.sol\";\nimport \"@openzeppelin/contracts/token/ERC20/utils/SafeERC20.sol\";\n\ncontract Promotion is Ownable, ReentrancyGuard {\n    using SafeERC20 for IERC20;\n\n    address public signer;\n    address public feeReceiver;\n\n    event PromotionSuccess(\n        uint256 package,\n        uint256 promotionChainId,\n        address promotionToken,\n        uint256 promotionId,\n        address sender\n    );\n\n    constructor(address _signer, address _feeReceiver) {\n        require(_feeReceiver != address(0), \"Cannot set zero address\");\n        signer = _signer;\n        feeReceiver = _feeReceiver;\n    }\n\n    function promote(\n        uint256 package,\n        address token,\n        uint256 amount,\n        uint256 promotionChainId,\n        address promotionToken,\n        uint256 promotionId,\n        uint256 deadline,\n        bytes calldata signature\n    ) external payable nonReentrant {\n        require(\n            signer ==\n                ECDSA.recover(\n                    ECDSA.toEthSignedMessageHash(\n                        keccak256(\n                            abi.encodePacked(\n                                block.chainid,\n                                _msgSender(),\n                                address(this),\n                                package,\n                                token,\n                                amount,\n                                promotionChainId,\n                                promotionToken,\n                                promotionId,\n                                deadline\n                            )\n                        )\n                    ),\n                    signature\n                ),\n            \"Invalid signature\"\n        );\n        require(deadline >= block.timestamp, \"Deadline passed\");\n        if (token == 0xEeeeeEeeeEeEeeEeEeEeeEEEeeeeEeeeeeeeEEeE) {\n            require(msg.value == amount, \"Wrong payment amount\");\n            payable(feeReceiver).transfer(msg.value);\n        } else {\n            require(\n                msg.value == 0,\n                \"Cannot send native currency while paying with token\"\n            );\n            IERC20(token).safeTransferFrom(_msgSender(), feeReceiver, amount);\n        }\n        emit PromotionSuccess(\n            package,\n            promotionChainId,\n            promotionToken,\n            promotionId,\n            _msgSender()\n        );\n    }\n\n    function setSigner(address _signer) external onlyOwner {\n        signer = _signer;\n    }\n\n    function setFeeReceiver(address _feeReceiver) external onlyOwner {\n        require(_feeReceiver != address(0), \"Cannot set zero address\");\n        feeReceiver = _feeReceiver;\n    }\n}\n",
  "sourcePath": "/Users/huy8bit/Desktop/DRIVE/JOB/ATOM SOLUTION/TASK/inz-dapp-api/dev/inz-smc/contracts/mkp/Promotion.sol",
  "compiler": {
    "name": "solc",
    "version": "0.8.19+commit.7dd6d404.Emscripten.clang"
  },
  "schemaVersion": "3.4.14",
  "updatedAt": "2023-08-28T08:04:22.910Z",
  "devdoc": {
    "kind": "dev",
    "methods": {
      "owner()": {
        "details": "Returns the address of the current owner."
      },
      "renounceOwnership()": {
        "details": "Leaves the contract without owner. It will not be possible to call `onlyOwner` functions. Can only be called by the current owner. NOTE: Renouncing ownership will leave the contract without an owner, thereby disabling any functionality that is only available to the owner."
      },
      "transferOwnership(address)": {
        "details": "Transfers ownership of the contract to a new account (`newOwner`). Can only be called by the current owner."
      }
    },
    "version": 1
  },
  "userdoc": {
    "kind": "user",
    "methods": {},
    "version": 1
  }
}